{
	"data": {
		"bytecode": {
			"linkReferences": {},
			"object": "6080604052600d600060196101000a81548160ff021916908360ff1602179055507308613086f4b1669cad836e1e5582e1fe6167450d60601b600360006101000a81548173ffffffffffffffffffffffffffffffffffffffff021916908360601c02179055503480156200007257600080fd5b5060405162004046380380620040468339818101604052810190620000989190620003f6565b82600260006101000a81548173ffffffffffffffffffffffffffffffffffffffff021916908373ffffffffffffffffffffffffffffffffffffffff16021790555083600160006101000a81548173ffffffffffffffffffffffffffffffffffffffff021916908373ffffffffffffffffffffffffffffffffffffffff16021790555060008060046101000a81548160ff0219169083151502179055506000600a60006101000a81548160ff021916908360ff16021790555060008060006101000a81548163ffffffff021916908363ffffffff16021790555060005b825181101562000347576001600460008584815181106200019157fe5b602002602001015173ffffffffffffffffffffffffffffffffffffffff1673ffffffffffffffffffffffffffffffffffffffff16815260200190815260200160002060006101000a81548160ff021916908315150217905550818181518110620001f757fe5b6020026020010151600560008584815181106200021057fe5b602002602001015173ffffffffffffffffffffffffffffffffffffffff1673ffffffffffffffffffffffffffffffffffffffff16815260200190815260200160002060006101000a81548173ffffffffffffffffffffffffffffffffffffffff021916908373ffffffffffffffffffffffffffffffffffffffff16021790555060068382815181106200029f57fe5b60200260200101519080600181540180825580915050600190039060005260206000200160009091909190916101000a81548173ffffffffffffffffffffffffffffffffffffffff021916908373ffffffffffffffffffffffffffffffffffffffff160217905550600a600081819054906101000a900460ff168092919060010191906101000a81548160ff021916908360ff16021790555050808060010191505062000174565b505050505062000539565b60008151905062000363816200051f565b92915050565b600082601f8301126200037b57600080fd5b8151620003926200038c82620004c2565b62000494565b91508181835260208401935060208101905083856020840282011115620003b857600080fd5b60005b83811015620003ec5781620003d1888262000352565b845260208401935060208301925050600181019050620003bb565b5050505092915050565b600080600080608085870312156200040d57600080fd5b60006200041d8782880162000352565b9450506020620004308782880162000352565b935050604085015167ffffffffffffffff8111156200044e57600080fd5b6200045c8782880162000369565b925050606085015167ffffffffffffffff8111156200047a57600080fd5b620004888782880162000369565b91505092959194509250565b6000604051905081810181811067ffffffffffffffff82111715620004b857600080fd5b8060405250919050565b600067ffffffffffffffff821115620004da57600080fd5b602082029050602081019050919050565b6000620004f882620004ff565b9050919050565b600073ffffffffffffffffffffffffffffffffffffffff82169050919050565b6200052a81620004eb565b81146200053657600080fd5b50565b613afd80620005496000396000f3fe608060405234801561001057600080fd5b50600436106101165760003560e01c8063aaf34b94116100a2578063d45167d011610071578063d45167d014610323578063d4e0323314610353578063e7b3c87514610371578063ec48ae3c146103a1578063f13eed97146103bf57610116565b8063aaf34b941461026f578063add21b3b1461028d578063b43fe1de146102c3578063b59de706146102f357610116565b806326976e3f116100e957806326976e3f146101a35780634b60ae63146101c15780636e080816146101df57806390ab64421461020f57806392a310821461023f57610116565b80630e136b191461011b57806317c868751461013957806320cd6ba114610155578063250dea5314610173575b600080fd5b6101236103ef565b60405161013091906131d8565b60405180910390f35b610153600480360381019061014e91906120b9565b610402565b005b61015d6104af565b60405161016a9190613447565b60405180910390f35b61018d60048036038101906101889190612090565b610553565b60405161019a919061319b565b60405180910390f35b6101ab610586565b6040516101b8919061319b565b60405180910390f35b6101c96105ac565b6040516101d6919061342c565b60405180910390f35b6101f960048036038101906101f49190612409565b6105c0565b604051610206919061342c565b60405180910390f35b610229600480360381019061022491906121a1565b6105f7565b60405161023691906131d8565b60405180910390f35b610259600480360381019061025491906122f0565b6106ec565b604051610266919061319b565b60405180910390f35b610277610e22565b60405161028491906131b6565b60405180910390f35b6102a760048036038101906102a29190612432565b610eb0565b6040516102ba9796959493929190613275565b60405180910390f35b6102dd60048036038101906102d891906120b9565b610f3c565b6040516102ea91906131d8565b60405180910390f35b61030d60048036038101906103089190612090565b6110ef565b60405161031a91906131d8565b60405180910390f35b61033d6004803603810190610338919061224c565b61110f565b60405161034a919061319b565b60405180910390f35b61035b61116f565b60405161036891906133f6565b60405180910390f35b61038b60048036038101906103869190612432565b61128b565b60405161039891906131f3565b60405180910390f35b6103a96112a3565b6040516103b69190613411565b60405180910390f35b6103d960048036038101906103d49190612090565b6112b0565b6040516103e691906131d8565b60405180910390f35b600060049054906101000a900460ff1681565b61040f8585858585610f3c565b156104a8576001600060046101000a81548160ff02191690831515021790555084600060056101000a81548173ffffffffffffffffffffffffffffffffffffffff021916908373ffffffffffffffffffffffffffffffffffffffff1602179055507fcc358699805e9a8b7f77b522628c7cb9abd07d9efb86b6fb616af1609036a99e8560405161049f919061319b565b60405180910390a15b5050505050565b60006001600a60009054906101000a900460ff1660ff1614806104e457506002600a60009054906101000a900460ff1660ff16145b156104f25760019050610550565b600060016002600a60009054906101000a900460ff1660ff168161051257fe5b040160ff169050600060199054906101000a900460ff1660ff1681111561054b57600060199054906101000a900460ff16915050610550565b809150505b90565b60056020528060005260406000206000915054906101000a900473ffffffffffffffffffffffffffffffffffffffff1681565b600060059054906101000a900473ffffffffffffffffffffffffffffffffffffffff1681565b60008054906101000a900463ffffffff1681565b600981815481106105cd57fe5b9060005260206000209060089182820401919006600402915054906101000a900463ffffffff1681565b6000806000805b86518110156106b65761064c8886838151811061061757fe5b602002602001015189848151811061062b57fe5b602002602001015189858151811061063f57fe5b602002602001015161110f565b9250600460008473ffffffffffffffffffffffffffffffffffffffff1673ffffffffffffffffffffffffffffffffffffffff16815260200190815260200160002060009054906101000a900460ff16156106a95781806001019250505b80806001019150506105fe565b5060006106c16104af565b90508060ff168260ff16106106dc57600193505050506106e4565b600093505050505b949350505050565b60008060049054906101000a900460ff161561073d576040517f08c379a000000000000000000000000000000000000000000000000000000000815260040161073490613304565b60405180910390fd5b8351855114801561074f575085518551145b61078e576040517f08c379a000000000000000000000000000000000000000000000000000000000815260040161078590613344565b60405180910390fd5b60008054906101000a900463ffffffff1663ffffffff168760a0015163ffffffff16116107f0576040517f08c379a00000000000000000000000000000000000000000000000000000000081526004016107e790613364565b60405180910390fd5b6060600260009054906101000a900473ffffffffffffffffffffffffffffffffffffffff1673ffffffffffffffffffffffffffffffffffffffff1663892e2937896040518263ffffffff1660e01b815260040161084d91906133a4565b60006040518083038186803b15801561086557600080fd5b505afa158015610879573d6000803e3d6000fd5b505050506040513d6000823e3d601f19601f820116820180604052508101906108a291906122af565b90506000806000606060005b8851811015610b36576001600360009054906101000a900460601b73a6ef9ea235635e328124ff3429db9f9e91b64e2d600260009054906101000a900473ffffffffffffffffffffffffffffffffffffffff1673ffffffffffffffffffffffffffffffffffffffff1663cecb30438d868151811061092857fe5b60200260200101516040518263ffffffff1660e01b815260040161094c919061342c565b60006040518083038186803b15801561096457600080fd5b505afa158015610978573d6000803e3d6000fd5b505050506040513d6000823e3d601f19601f820116820180604052508101906109a191906122af565b8b85815181106109ad57fe5b60200260200101518a805190602001206040516020016109cd9190613118565b6040516020818303038152906040526040516020016109f196959493929190613133565b604051602081830303815290604052915081805190602001209450610a548560048e8481518110610a1e57fe5b6020026020010151038d8481518110610a3357fe5b60200260200101518d8581518110610a4757fe5b602002602001015161110f565b935083965060056000898381518110610a6957fe5b602002602001015173ffffffffffffffffffffffffffffffffffffffff1673ffffffffffffffffffffffffffffffffffffffff16815260200190815260200160002060009054906101000a900473ffffffffffffffffffffffffffffffffffffffff1673ffffffffffffffffffffffffffffffffffffffff168473ffffffffffffffffffffffffffffffffffffffff161415610b085782806001019350505b600060199054906101000a900460ff1660ff168360ff1610610b2957610b36565b80806001019150506108ae565b50610b3f6104af565b60ff168260ff1610610e135760005b8c610140015151811015610dc85773a6ef9ea235635e328124ff3429db9f9e91b64e2d73ffffffffffffffffffffffffffffffffffffffff168d61014001518281518110610b9857fe5b60200260200101516040015173ffffffffffffffffffffffffffffffffffffffff161415610dbb578c61014001518181518110610bd157fe5b602002602001015160800151600860008f60a0015163ffffffff1663ffffffff168152602001908152602001600020819055508c61014001518181518110610c1557fe5b6020026020010151600760008f60a0015163ffffffff1663ffffffff16815260200190815260200160002060008201518160000160006101000a81548161ffff021916908360010b61ffff16021790555060208201518160000160026101000a81548161ffff021916908360010b61ffff16021790555060408201518160000160046101000a81548173ffffffffffffffffffffffffffffffffffffffff021916908373ffffffffffffffffffffffffffffffffffffffff16021790555060608201518160000160186101000a81548163ffffffff021916908363ffffffff1602179055506080820151816001015560a0820151816002015560c0820151816003015590505060098d60a0015190806001815401808255809150506001900390600052602060002090600891828204019190066004029091909190916101000a81548163ffffffff021916908363ffffffff1602179055508c60a0015163ffffffff1660008054906101000a900463ffffffff1663ffffffff161015610dba578c60a001516000806101000a81548163ffffffff021916908363ffffffff1602179055505b5b8080600101915050610b4e565b507f3c3d32b52a6aef5732cab1fbc27156fba0fa8570f7a72c63571cab9a3ff66dab8c60008054906101000a900463ffffffff16604051610e0a9291906133c6565b60405180910390a15b50505050509695505050505050565b60606006805480602002602001604051908101604052809291908181526020018280548015610ea657602002820191906000526020600020905b8160009054906101000a900473ffffffffffffffffffffffffffffffffffffffff1673ffffffffffffffffffffffffffffffffffffffff1681526020019060010190808311610e5c575b5050505050905090565b60076020528060005260406000206000915090508060000160009054906101000a900460010b908060000160029054906101000a900460010b908060000160049054906101000a900473ffffffffffffffffffffffffffffffffffffffff16908060000160189054906101000a900463ffffffff16908060010154908060020154908060030154905087565b6000610f47336112b0565b610f86576040517f08c379a0000000000000000000000000000000000000000000000000000000008152600401610f7d906132e4565b60405180910390fd5b6000600160009054906101000a900473ffffffffffffffffffffffffffffffffffffffff1673ffffffffffffffffffffffffffffffffffffffff16632cd0cff288604051602001610fd791906130fd565b6040516020818303038152906040526040518263ffffffff1660e01b81526004016110029190613253565b60206040518083038186803b15801561101a57600080fd5b505afa15801561102e573d6000803e3d6000fd5b505050506040513d601f19601f820116820180604052508101906110529190612178565b9050858114611096576040517f08c379a000000000000000000000000000000000000000000000000000000000815260040161108d90613384565b60405180910390fd5b6110a2868585886105f7565b6110e1576040517f08c379a00000000000000000000000000000000000000000000000000000000081526004016110d890613324565b60405180910390fd5b600191505095945050505050565b60046020528060005260406000206000915054906101000a900460ff1681565b60008060018686868660405160008152602001604052604051611135949392919061320e565b6020604051602081039080840390855afa158015611157573d6000803e3d6000fd5b50505060206040510351905080915050949350505050565b61117761131e565b600760008060009054906101000a900463ffffffff1663ffffffff1663ffffffff1681526020019081526020016000206040518060e00160405290816000820160009054906101000a900460010b60010b60010b81526020016000820160029054906101000a900460010b60010b60010b81526020016000820160049054906101000a900473ffffffffffffffffffffffffffffffffffffffff1673ffffffffffffffffffffffffffffffffffffffff1673ffffffffffffffffffffffffffffffffffffffff1681526020016000820160189054906101000a900463ffffffff1663ffffffff1663ffffffff1681526020016001820154815260200160028201548152602001600382015481525050905090565b60086020528060005260406000206000915090505481565b6000600980549050905090565b600060011515600460008473ffffffffffffffffffffffffffffffffffffffff1673ffffffffffffffffffffffffffffffffffffffff16815260200190815260200160002060009054906101000a900460ff16151514156113145760019050611319565b600090505b919050565b6040518060e00160405280600060010b8152602001600060010b8152602001600073ffffffffffffffffffffffffffffffffffffffff168152602001600063ffffffff1681526020016000801916815260200160008019168152602001600080191681525090565b600081359050611395816139e1565b92915050565b600082601f8301126113ac57600080fd5b81356113bf6113ba8261348f565b613462565b915081818352602084019350602081019050838560208402820111156113e457600080fd5b60005b8381101561141457816113fa8882611386565b8452602084019350602083019250506001810190506113e7565b5050505092915050565b600082601f83011261142f57600080fd5b813561144261143d826134b7565b613462565b9150818183526020840193506020810190508385602084028201111561146757600080fd5b60005b83811015611497578161147d888261189b565b84526020840193506020830192505060018101905061146a565b5050505092915050565b600082601f8301126114b257600080fd5b81356114c56114c0826134df565b613462565b915081818352602084019350602081019050838560208402820111156114ea57600080fd5b60005b8381101561151a5781611500888261192e565b8452602084019350602083019250506001810190506114ed565b5050505092915050565b600082601f83011261153557600080fd5b813561154861154382613507565b613462565b9150818183526020840193506020810190508385602084028201111561156d57600080fd5b60005b8381101561159d57816115838882611943565b845260208401935060208301925050600181019050611570565b5050505092915050565b600082601f8301126115b857600080fd5b81356115cb6115c68261352f565b613462565b9150818183526020840193506020810190508360005b8381101561161157813586016115f78882611c98565b8452602084019350602083019250506001810190506115e1565b5050505092915050565b600082601f83011261162c57600080fd5b813561163f61163a82613557565b613462565b915081818352602084019350602081019050838560e084028201111561166457600080fd5b60005b83811015611694578161167a8882611e7b565b845260208401935060e08301925050600181019050611667565b5050505092915050565b600082601f8301126116af57600080fd5b81356116c26116bd8261357f565b613462565b9150818183526020840193506020810190508360005b8381101561170857813586016116ee8882611fc3565b8452602084019350602083019250506001810190506116d8565b5050505092915050565b600082601f83011261172357600080fd5b8135611736611731826135a7565b613462565b9150818183526020840193506020810190508385602084028201111561175b57600080fd5b60005b8381101561178b5781611771888261203c565b84526020840193506020830192505060018101905061175e565b5050505092915050565b600082601f8301126117a657600080fd5b81356117b96117b4826135cf565b613462565b915081818352602084019350602081019050838560208402820111156117de57600080fd5b60005b8381101561180e57816117f48882612066565b8452602084019350602083019250506001810190506117e1565b5050505092915050565b600082601f83011261182957600080fd5b813561183c611837826135f7565b613462565b9150818183526020840193506020810190508385602084028201111561186157600080fd5b60005b838110156118915781611877888261207b565b845260208401935060208301925050600181019050611864565b5050505092915050565b6000813590506118aa816139f8565b92915050565b6000815190506118bf816139f8565b92915050565b600082601f8301126118d657600080fd5b81516118e96118e48261361f565b613462565b9150808252602083016020830185838301111561190557600080fd5b611910838284613939565b50505092915050565b60008135905061192881613a0f565b92915050565b60008135905061193d81613a26565b92915050565b60008135905061195281613a3d565b92915050565b600082601f83011261196957600080fd5b813561197c6119778261364b565b613462565b9150808252602083016020830185838301111561199857600080fd5b6119a383828461392a565b50505092915050565b60006102a082840312156119bf57600080fd5b6119ca6102a0613462565b905060006119da84828501612027565b60008301525060206119ee84828501612027565b6020830152506040611a0284828501611386565b604083015250606082013567ffffffffffffffff811115611a2257600080fd5b611a2e84828501611712565b606083015250608082013567ffffffffffffffff811115611a4e57600080fd5b611a5a848285016114a1565b60808301525060a082013567ffffffffffffffff811115611a7a57600080fd5b611a8684828501611524565b60a08301525060c0611a9a84828501611943565b60c08301525060e0611aae84828501611943565b60e083015250610100611ac384828501611943565b61010083015250610120611ad984828501611943565b61012083015250610140611aef84828501611943565b61014083015250610160611b0584828501611943565b61016083015250610180611b1b84828501611943565b610180830152506101a082013567ffffffffffffffff811115611b3d57600080fd5b611b4984828501611524565b6101a0830152506101c082013567ffffffffffffffff811115611b6b57600080fd5b611b7784828501611524565b6101c0830152506101e082013567ffffffffffffffff811115611b9957600080fd5b611ba584828501611524565b6101e08301525061020082013567ffffffffffffffff811115611bc757600080fd5b611bd384828501611524565b6102008301525061022082013567ffffffffffffffff811115611bf557600080fd5b611c0184828501611524565b6102208301525061024082013567ffffffffffffffff811115611c2357600080fd5b611c2f84828501611524565b6102408301525061026082013567ffffffffffffffff811115611c5157600080fd5b611c5d848285016114a1565b6102608301525061028082013567ffffffffffffffff811115611c7f57600080fd5b611c8b84828501611524565b6102808301525092915050565b600060408284031215611caa57600080fd5b611cb46040613462565b9050600082013567ffffffffffffffff811115611cd057600080fd5b611cdc84828501611958565b6000830152506020611cf084828501611386565b60208301525092915050565b60006101c08284031215611d0f57600080fd5b611d1a610180613462565b90506000611d2a84828501612066565b6000830152506020611d3e84828501612066565b6020830152506040611d5284828501611f2b565b6040830152506080611d6684828501611386565b60608301525060a082013567ffffffffffffffff811115611d8657600080fd5b611d92848285016119ac565b60808301525060c0611da684828501612066565b60a08301525060e0611dba84828501611f77565b60c083015250610120611dcf8482850161189b565b60e083015250610140611de484828501612066565b6101008301525061016082013567ffffffffffffffff811115611e0657600080fd5b611e128482850161169e565b6101208301525061018082013567ffffffffffffffff811115611e3457600080fd5b611e408482850161161b565b610140830152506101a082013567ffffffffffffffff811115611e6257600080fd5b611e6e848285016115a7565b6101608301525092915050565b600060e08284031215611e8d57600080fd5b611e9760e0613462565b90506000611ea784828501611919565b6000830152506020611ebb84828501611919565b6020830152506040611ecf84828501611386565b6040830152506060611ee384828501612066565b6060830152506080611ef78482850161189b565b60808301525060a0611f0b8482850161189b565b60a08301525060c0611f1f8482850161189b565b60c08301525092915050565b600060408284031215611f3d57600080fd5b611f476040613462565b90506000611f578482850161207b565b6000830152506020611f6b84828501611386565b60208301525092915050565b600060408284031215611f8957600080fd5b611f936040613462565b90506000611fa38482850161189b565b6000830152506020611fb784828501612066565b60208301525092915050565b600060408284031215611fd557600080fd5b611fdf6040613462565b90506000611fef84828501611386565b600083015250602082013567ffffffffffffffff81111561200f57600080fd5b61201b848285016119ac565b60208301525092915050565b60008135905061203681613a54565b92915050565b60008135905061204b81613a6b565b92915050565b60008135905061206081613a82565b92915050565b60008135905061207581613a99565b92915050565b60008135905061208a81613ab0565b92915050565b6000602082840312156120a257600080fd5b60006120b084828501611386565b91505092915050565b600080600080600060a086880312156120d157600080fd5b60006120df88828901611386565b95505060206120f08882890161189b565b945050604086013567ffffffffffffffff81111561210d57600080fd5b61211988828901611818565b935050606086013567ffffffffffffffff81111561213657600080fd5b6121428882890161141e565b925050608086013567ffffffffffffffff81111561215f57600080fd5b61216b8882890161141e565b9150509295509295909350565b60006020828403121561218a57600080fd5b6000612198848285016118b0565b91505092915050565b600080600080608085870312156121b757600080fd5b60006121c58782880161189b565b945050602085013567ffffffffffffffff8111156121e257600080fd5b6121ee8782880161141e565b935050604085013567ffffffffffffffff81111561220b57600080fd5b6122178782880161141e565b925050606085013567ffffffffffffffff81111561223457600080fd5b61224087828801611818565b91505092959194509250565b6000806000806080858703121561226257600080fd5b60006122708782880161189b565b94505060206122818782880161207b565b93505060406122928782880161189b565b92505060606122a38782880161189b565b91505092959194509250565b6000602082840312156122c157600080fd5b600082015167ffffffffffffffff8111156122db57600080fd5b6122e7848285016118c5565b91505092915050565b60008060008060008060c0878903121561230957600080fd5b600087013567ffffffffffffffff81111561232357600080fd5b61232f89828a01611cfc565b965050602087013567ffffffffffffffff81111561234c57600080fd5b61235889828a01611818565b955050604087013567ffffffffffffffff81111561237557600080fd5b61238189828a0161141e565b945050606087013567ffffffffffffffff81111561239e57600080fd5b6123aa89828a0161141e565b935050608087013567ffffffffffffffff8111156123c757600080fd5b6123d389828a01611795565b92505060a087013567ffffffffffffffff8111156123f057600080fd5b6123fc89828a0161139b565b9150509295509295509295565b60006020828403121561241b57600080fd5b600061242984828501612051565b91505092915050565b60006020828403121561244457600080fd5b600061245284828501612066565b91505092915050565b600061246783836124fb565b60208301905092915050565b600061247f83836128d3565b60208301905092915050565b600061249783836128e2565b60208301905092915050565b60006124af8383612d6f565b905092915050565b60006124c38383612ec6565b60e08301905092915050565b60006124db8383613040565b905092915050565b60006124ef838361307d565b60208301905092915050565b6125048161385a565b82525050565b6125138161385a565b82525050565b61252a6125258261385a565b61396c565b82525050565b600061253b826136e7565b61254581856137a5565b935061255083613677565b8060005b83811015612581578151612568888261245b565b97506125738361374a565b925050600181019050612554565b5085935050505092915050565b6000612599826136f2565b6125a381856137b6565b93506125ae83613687565b8060005b838110156125df5781516125c68882612473565b97506125d183613757565b9250506001810190506125b2565b5085935050505092915050565b60006125f7826136fd565b61260181856137c7565b935061260c83613697565b8060005b8381101561263d578151612624888261248b565b975061262f83613764565b925050600181019050612610565b5085935050505092915050565b600061265582613708565b61265f81856137d8565b935083602082028501612671856136a7565b8060005b858110156126ad578484038952815161268e85826124a3565b945061269983613771565b925060208a01995050600181019050612675565b50829750879550505050505092915050565b60006126ca82613713565b6126d481856137e9565b93506126df836136b7565b8060005b838110156127105781516126f788826124b7565b97506127028361377e565b9250506001810190506126e3565b5085935050505092915050565b60006127288261371e565b61273281856137fa565b935083602082028501612744856136c7565b8060005b85811015612780578484038952815161276185826124cf565b945061276c8361378b565b925060208a01995050600181019050612748565b50829750879550505050505092915050565b600061279d82613729565b6127a7818561380b565b93506127b2836136d7565b8060005b838110156127e35781516127ca88826124e3565b97506127d583613798565b9250506001810190506127b6565b5085935050505092915050565b6127f98161386c565b82525050565b61281061280b82613878565b61397e565b82525050565b61281f816138a4565b82525050565b61282e816138a4565b82525050565b612845612840826138a4565b613988565b82525050565b600061285682613734565b612860818561381c565b9350612870818560208601613939565b612879816139b6565b840191505092915050565b600061288f82613734565b612899818561382d565b93506128a9818560208601613939565b80840191505092915050565b6128be816138ae565b82525050565b6128cd816138ae565b82525050565b6128dc816138bb565b82525050565b6128eb816138c8565b82525050565b60006128fc8261373f565b6129068185613838565b9350612916818560208601613939565b61291f816139b6565b840191505092915050565b6000612937602983613849565b91507f4f6e6c792061206e6f746172792063616e20646570726563617465207468697360008301527f20636f6e747261637400000000000000000000000000000000000000000000006020830152604082019050919050565b600061299d601c83613849565b91507f436f6e747261637420686173206265656e2064657072656361746564000000006000830152602082019050919050565b60006129dd603083613849565b91507f4465707265636174696f6e20726571756972657320746865206164647265737360008301527f20746f206265206e6f746172697a6564000000000000000000000000000000006020830152604082019050919050565b6000612a43602883613849565b91507f5369676e617475726520617272617973206d757374206265206f66206571756160008301527f6c206c656e6774680000000000000000000000000000000000000000000000006020830152604082019050919050565b6000612aa9603683613849565b91507f426c6f636b20486569676874206d75737420626520677265617465722074686160008301527f6e2063757272656e7420626c6f636b20686569676874000000000000000000006020830152604082019050919050565b6000612b0f603483613849565b91507f486173686564206164647265737320646f6573206e6f74206d6174636820616460008301527f647265737320686173682070617373656420696e0000000000000000000000006020830152604082019050919050565b60006102a083016000830151612b81600086018261308c565b506020830151612b94602086018261308c565b506040830151612ba760408601826124fb565b5060608301518482036060860152612bbf8282612792565b91505060808301518482036080860152612bd9828261258e565b91505060a083015184820360a0860152612bf382826125ec565b91505060c0830151612c0860c08601826128e2565b5060e0830151612c1b60e08601826128e2565b50610100830151612c306101008601826128e2565b50610120830151612c456101208601826128e2565b50610140830151612c5a6101408601826128e2565b50610160830151612c6f6101608601826128e2565b50610180830151612c846101808601826128e2565b506101a08301518482036101a0860152612c9e82826125ec565b9150506101c08301518482036101c0860152612cba82826125ec565b9150506101e08301518482036101e0860152612cd682826125ec565b915050610200830151848203610200860152612cf282826125ec565b915050610220830151848203610220860152612d0e82826125ec565b915050610240830151848203610240860152612d2a82826125ec565b915050610260830151848203610260860152612d46828261258e565b915050610280830151848203610280860152612d6282826125ec565b9150508091505092915050565b60006040830160008301518482036000860152612d8c82826128f1565b9150506020830151612da160208601826124fb565b508091505092915050565b60006101c083016000830151612dc560008601826130aa565b506020830151612dd860208601826130aa565b506040830151612deb6040860182612fe2565b506060830151612dfe60808601826124fb565b50608083015184820360a0860152612e168282612b68565b91505060a0830151612e2b60c08601826130aa565b5060c0830151612e3e60e0860182613011565b5060e0830151612e52610120860182612816565b50610100830151612e676101408601826130aa565b50610120830151848203610160860152612e81828261271d565b915050610140830151848203610180860152612e9d82826126bf565b9150506101608301518482036101a0860152612eb9828261264a565b9150508091505092915050565b60e082016000820151612edc60008501826128b5565b506020820151612eef60208501826128b5565b506040820151612f0260408501826124fb565b506060820151612f1560608501826130aa565b506080820151612f286080850182612816565b5060a0820151612f3b60a0850182612816565b5060c0820151612f4e60c0850182612816565b50505050565b60e082016000820151612f6a60008501826128b5565b506020820151612f7d60208501826128b5565b506040820151612f9060408501826124fb565b506060820151612fa360608501826130aa565b506080820151612fb66080850182612816565b5060a0820151612fc960a0850182612816565b5060c0820151612fdc60c0850182612816565b50505050565b604082016000820151612ff860008501826130c8565b50602082015161300b60208501826124fb565b50505050565b6040820160008201516130276000850182612816565b50602082015161303a60208501826130aa565b50505050565b600060408301600083015161305860008601826124fb565b50602083015184820360208601526130708282612b68565b9150508091505092915050565b613086816138e3565b82525050565b613095816138d5565b82525050565b6130a481613903565b82525050565b6130b38161390d565b82525050565b6130c28161390d565b82525050565b6130d18161391d565b82525050565b6130e08161391d565b82525050565b6130f76130f28261391d565b6139a4565b82525050565b60006131098284612519565b60148201915081905092915050565b60006131248284612834565b60208201915081905092915050565b600061313f82896130e6565b60018201915061314f82886127ff565b60148201915061315f8287612519565b60148201915061316f8286612884565b915061317b8285612519565b60148201915061318b8284612884565b9150819050979650505050505050565b60006020820190506131b0600083018461250a565b92915050565b600060208201905081810360008301526131d08184612530565b905092915050565b60006020820190506131ed60008301846127f0565b92915050565b60006020820190506132086000830184612825565b92915050565b60006080820190506132236000830187612825565b61323060208301866130d7565b61323d6040830185612825565b61324a6060830184612825565b95945050505050565b6000602082019050818103600083015261326d818461284b565b905092915050565b600060e08201905061328a600083018a6128c4565b61329760208301896128c4565b6132a4604083018861250a565b6132b160608301876130b9565b6132be6080830186612825565b6132cb60a0830185612825565b6132d860c0830184612825565b98975050505050505050565b600060208201905081810360008301526132fd8161292a565b9050919050565b6000602082019050818103600083015261331d81612990565b9050919050565b6000602082019050818103600083015261333d816129d0565b9050919050565b6000602082019050818103600083015261335d81612a36565b9050919050565b6000602082019050818103600083015261337d81612a9c565b9050919050565b6000602082019050818103600083015261339d81612b02565b9050919050565b600060208201905081810360008301526133be8184612dac565b905092915050565b600060408201905081810360008301526133e08185612dac565b90506133ef60208301846130b9565b9392505050565b600060e08201905061340b6000830184612f54565b92915050565b6000602082019050613426600083018461309b565b92915050565b600060208201905061344160008301846130b9565b92915050565b600060208201905061345c60008301846130d7565b92915050565b6000604051905081810181811067ffffffffffffffff8211171561348557600080fd5b8060405250919050565b600067ffffffffffffffff8211156134a657600080fd5b602082029050602081019050919050565b600067ffffffffffffffff8211156134ce57600080fd5b602082029050602081019050919050565b600067ffffffffffffffff8211156134f657600080fd5b602082029050602081019050919050565b600067ffffffffffffffff82111561351e57600080fd5b602082029050602081019050919050565b600067ffffffffffffffff82111561354657600080fd5b602082029050602081019050919050565b600067ffffffffffffffff82111561356e57600080fd5b602082029050602081019050919050565b600067ffffffffffffffff82111561359657600080fd5b602082029050602081019050919050565b600067ffffffffffffffff8211156135be57600080fd5b602082029050602081019050919050565b600067ffffffffffffffff8211156135e657600080fd5b602082029050602081019050919050565b600067ffffffffffffffff82111561360e57600080fd5b602082029050602081019050919050565b600067ffffffffffffffff82111561363657600080fd5b601f19601f8301169050602081019050919050565b600067ffffffffffffffff82111561366257600080fd5b601f19601f8301169050602081019050919050565b6000819050602082019050919050565b6000819050602082019050919050565b6000819050602082019050919050565b6000819050602082019050919050565b6000819050602082019050919050565b6000819050602082019050919050565b6000819050602082019050919050565b600081519050919050565b600081519050919050565b600081519050919050565b600081519050919050565b600081519050919050565b600081519050919050565b600081519050919050565b600081519050919050565b600081519050919050565b6000602082019050919050565b6000602082019050919050565b6000602082019050919050565b6000602082019050919050565b6000602082019050919050565b6000602082019050919050565b6000602082019050919050565b600082825260208201905092915050565b600082825260208201905092915050565b600082825260208201905092915050565b600082825260208201905092915050565b600082825260208201905092915050565b600082825260208201905092915050565b600082825260208201905092915050565b600082825260208201905092915050565b600081905092915050565b600082825260208201905092915050565b600082825260208201905092915050565b6000613865826138e3565b9050919050565b60008115159050919050565b60007fffffffffffffffffffffffffffffffffffffffff00000000000000000000000082169050919050565b6000819050919050565b60008160010b9050919050565b60008160030b9050919050565b60008160070b9050919050565b600061ffff82169050919050565b600073ffffffffffffffffffffffffffffffffffffffff82169050919050565b6000819050919050565b600063ffffffff82169050919050565b600060ff82169050919050565b82818337600083830152505050565b60005b8381101561395757808201518184015260208101905061393c565b83811115613966576000848401525b50505050565b600061397782613992565b9050919050565b6000819050919050565b6000819050919050565b600061399d826139d4565b9050919050565b60006139af826139c7565b9050919050565b6000601f19601f8301169050919050565b60008160f81b9050919050565b60008160601b9050919050565b6139ea8161385a565b81146139f557600080fd5b50565b613a01816138a4565b8114613a0c57600080fd5b50565b613a18816138ae565b8114613a2357600080fd5b50565b613a2f816138bb565b8114613a3a57600080fd5b50565b613a46816138c8565b8114613a5157600080fd5b50565b613a5d816138d5565b8114613a6857600080fd5b50565b613a74816138e3565b8114613a7f57600080fd5b50565b613a8b81613903565b8114613a9657600080fd5b50565b613aa28161390d565b8114613aad57600080fd5b50565b613ab98161391d565b8114613ac457600080fd5b5056fea264697066735822122093dbb96f57342b61492fff6c65ea64d4c364ddb1ef10ee3fbed3afb823eae9d264736f6c634300060c0033",
			"opcodes": "PUSH1 0x80 PUSH1 0x40 MSTORE PUSH1 0xD PUSH1 0x0 PUSH1 0x19 PUSH2 0x100 EXP DUP2 SLOAD DUP2 PUSH1 0xFF MUL NOT AND SWAP1 DUP4 PUSH1 0xFF AND MUL OR SWAP1 SSTORE POP PUSH20 0x8613086F4B1669CAD836E1E5582E1FE6167450D PUSH1 0x60 SHL PUSH1 0x3 PUSH1 0x0 PUSH2 0x100 EXP DUP2 SLOAD DUP2 PUSH20 0xFFFFFFFFFFFFFFFFFFFFFFFFFFFFFFFFFFFFFFFF MUL NOT AND SWAP1 DUP4 PUSH1 0x60 SHR MUL OR SWAP1 SSTORE POP CALLVALUE DUP1 ISZERO PUSH3 0x72 JUMPI PUSH1 0x0 DUP1 REVERT JUMPDEST POP PUSH1 0x40 MLOAD PUSH3 0x4046 CODESIZE SUB DUP1 PUSH3 0x4046 DUP4 CODECOPY DUP2 DUP2 ADD PUSH1 0x40 MSTORE DUP2 ADD SWAP1 PUSH3 0x98 SWAP2 SWAP1 PUSH3 0x3F6 JUMP JUMPDEST DUP3 PUSH1 0x2 PUSH1 0x0 PUSH2 0x100 EXP DUP2 SLOAD DUP2 PUSH20 0xFFFFFFFFFFFFFFFFFFFFFFFFFFFFFFFFFFFFFFFF MUL NOT AND SWAP1 DUP4 PUSH20 0xFFFFFFFFFFFFFFFFFFFFFFFFFFFFFFFFFFFFFFFF AND MUL OR SWAP1 SSTORE POP DUP4 PUSH1 0x1 PUSH1 0x0 PUSH2 0x100 EXP DUP2 SLOAD DUP2 PUSH20 0xFFFFFFFFFFFFFFFFFFFFFFFFFFFFFFFFFFFFFFFF MUL NOT AND SWAP1 DUP4 PUSH20 0xFFFFFFFFFFFFFFFFFFFFFFFFFFFFFFFFFFFFFFFF AND MUL OR SWAP1 SSTORE POP PUSH1 0x0 DUP1 PUSH1 0x4 PUSH2 0x100 EXP DUP2 SLOAD DUP2 PUSH1 0xFF MUL NOT AND SWAP1 DUP4 ISZERO ISZERO MUL OR SWAP1 SSTORE POP PUSH1 0x0 PUSH1 0xA PUSH1 0x0 PUSH2 0x100 EXP DUP2 SLOAD DUP2 PUSH1 0xFF MUL NOT AND SWAP1 DUP4 PUSH1 0xFF AND MUL OR SWAP1 SSTORE POP PUSH1 0x0 DUP1 PUSH1 0x0 PUSH2 0x100 EXP DUP2 SLOAD DUP2 PUSH4 0xFFFFFFFF MUL NOT AND SWAP1 DUP4 PUSH4 0xFFFFFFFF AND MUL OR SWAP1 SSTORE POP PUSH1 0x0 JUMPDEST DUP3 MLOAD DUP2 LT ISZERO PUSH3 0x347 JUMPI PUSH1 0x1 PUSH1 0x4 PUSH1 0x0 DUP6 DUP5 DUP2 MLOAD DUP2 LT PUSH3 0x191 JUMPI INVALID JUMPDEST PUSH1 0x20 MUL PUSH1 0x20 ADD ADD MLOAD PUSH20 0xFFFFFFFFFFFFFFFFFFFFFFFFFFFFFFFFFFFFFFFF AND PUSH20 0xFFFFFFFFFFFFFFFFFFFFFFFFFFFFFFFFFFFFFFFF AND DUP2 MSTORE PUSH1 0x20 ADD SWAP1 DUP2 MSTORE PUSH1 0x20 ADD PUSH1 0x0 KECCAK256 PUSH1 0x0 PUSH2 0x100 EXP DUP2 SLOAD DUP2 PUSH1 0xFF MUL NOT AND SWAP1 DUP4 ISZERO ISZERO MUL OR SWAP1 SSTORE POP DUP2 DUP2 DUP2 MLOAD DUP2 LT PUSH3 0x1F7 JUMPI INVALID JUMPDEST PUSH1 0x20 MUL PUSH1 0x20 ADD ADD MLOAD PUSH1 0x5 PUSH1 0x0 DUP6 DUP5 DUP2 MLOAD DUP2 LT PUSH3 0x210 JUMPI INVALID JUMPDEST PUSH1 0x20 MUL PUSH1 0x20 ADD ADD MLOAD PUSH20 0xFFFFFFFFFFFFFFFFFFFFFFFFFFFFFFFFFFFFFFFF AND PUSH20 0xFFFFFFFFFFFFFFFFFFFFFFFFFFFFFFFFFFFFFFFF AND DUP2 MSTORE PUSH1 0x20 ADD SWAP1 DUP2 MSTORE PUSH1 0x20 ADD PUSH1 0x0 KECCAK256 PUSH1 0x0 PUSH2 0x100 EXP DUP2 SLOAD DUP2 PUSH20 0xFFFFFFFFFFFFFFFFFFFFFFFFFFFFFFFFFFFFFFFF MUL NOT AND SWAP1 DUP4 PUSH20 0xFFFFFFFFFFFFFFFFFFFFFFFFFFFFFFFFFFFFFFFF AND MUL OR SWAP1 SSTORE POP PUSH1 0x6 DUP4 DUP3 DUP2 MLOAD DUP2 LT PUSH3 0x29F JUMPI INVALID JUMPDEST PUSH1 0x20 MUL PUSH1 0x20 ADD ADD MLOAD SWAP1 DUP1 PUSH1 0x1 DUP2 SLOAD ADD DUP1 DUP3 SSTORE DUP1 SWAP2 POP POP PUSH1 0x1 SWAP1 SUB SWAP1 PUSH1 0x0 MSTORE PUSH1 0x20 PUSH1 0x0 KECCAK256 ADD PUSH1 0x0 SWAP1 SWAP2 SWAP1 SWAP2 SWAP1 SWAP2 PUSH2 0x100 EXP DUP2 SLOAD DUP2 PUSH20 0xFFFFFFFFFFFFFFFFFFFFFFFFFFFFFFFFFFFFFFFF MUL NOT AND SWAP1 DUP4 PUSH20 0xFFFFFFFFFFFFFFFFFFFFFFFFFFFFFFFFFFFFFFFF AND MUL OR SWAP1 SSTORE POP PUSH1 0xA PUSH1 0x0 DUP2 DUP2 SWAP1 SLOAD SWAP1 PUSH2 0x100 EXP SWAP1 DIV PUSH1 0xFF AND DUP1 SWAP3 SWAP2 SWAP1 PUSH1 0x1 ADD SWAP2 SWAP1 PUSH2 0x100 EXP DUP2 SLOAD DUP2 PUSH1 0xFF MUL NOT AND SWAP1 DUP4 PUSH1 0xFF AND MUL OR SWAP1 SSTORE POP POP DUP1 DUP1 PUSH1 0x1 ADD SWAP2 POP POP PUSH3 0x174 JUMP JUMPDEST POP POP POP POP POP PUSH3 0x539 JUMP JUMPDEST PUSH1 0x0 DUP2 MLOAD SWAP1 POP PUSH3 0x363 DUP2 PUSH3 0x51F JUMP JUMPDEST SWAP3 SWAP2 POP POP JUMP JUMPDEST PUSH1 0x0 DUP3 PUSH1 0x1F DUP4 ADD SLT PUSH3 0x37B JUMPI PUSH1 0x0 DUP1 REVERT JUMPDEST DUP2 MLOAD PUSH3 0x392 PUSH3 0x38C DUP3 PUSH3 0x4C2 JUMP JUMPDEST PUSH3 0x494 JUMP JUMPDEST SWAP2 POP DUP2 DUP2 DUP4 MSTORE PUSH1 0x20 DUP5 ADD SWAP4 POP PUSH1 0x20 DUP2 ADD SWAP1 POP DUP4 DUP6 PUSH1 0x20 DUP5 MUL DUP3 ADD GT ISZERO PUSH3 0x3B8 JUMPI PUSH1 0x0 DUP1 REVERT JUMPDEST PUSH1 0x0 JUMPDEST DUP4 DUP2 LT ISZERO PUSH3 0x3EC JUMPI DUP2 PUSH3 0x3D1 DUP9 DUP3 PUSH3 0x352 JUMP JUMPDEST DUP5 MSTORE PUSH1 0x20 DUP5 ADD SWAP4 POP PUSH1 0x20 DUP4 ADD SWAP3 POP POP PUSH1 0x1 DUP2 ADD SWAP1 POP PUSH3 0x3BB JUMP JUMPDEST POP POP POP POP SWAP3 SWAP2 POP POP JUMP JUMPDEST PUSH1 0x0 DUP1 PUSH1 0x0 DUP1 PUSH1 0x80 DUP6 DUP8 SUB SLT ISZERO PUSH3 0x40D JUMPI PUSH1 0x0 DUP1 REVERT JUMPDEST PUSH1 0x0 PUSH3 0x41D DUP8 DUP3 DUP9 ADD PUSH3 0x352 JUMP JUMPDEST SWAP5 POP POP PUSH1 0x20 PUSH3 0x430 DUP8 DUP3 DUP9 ADD PUSH3 0x352 JUMP JUMPDEST SWAP4 POP POP PUSH1 0x40 DUP6 ADD MLOAD PUSH8 0xFFFFFFFFFFFFFFFF DUP2 GT ISZERO PUSH3 0x44E JUMPI PUSH1 0x0 DUP1 REVERT JUMPDEST PUSH3 0x45C DUP8 DUP3 DUP9 ADD PUSH3 0x369 JUMP JUMPDEST SWAP3 POP POP PUSH1 0x60 DUP6 ADD MLOAD PUSH8 0xFFFFFFFFFFFFFFFF DUP2 GT ISZERO PUSH3 0x47A JUMPI PUSH1 0x0 DUP1 REVERT JUMPDEST PUSH3 0x488 DUP8 DUP3 DUP9 ADD PUSH3 0x369 JUMP JUMPDEST SWAP2 POP POP SWAP3 SWAP6 SWAP2 SWAP5 POP SWAP3 POP JUMP JUMPDEST PUSH1 0x0 PUSH1 0x40 MLOAD SWAP1 POP DUP2 DUP2 ADD DUP2 DUP2 LT PUSH8 0xFFFFFFFFFFFFFFFF DUP3 GT OR ISZERO PUSH3 0x4B8 JUMPI PUSH1 0x0 DUP1 REVERT JUMPDEST DUP1 PUSH1 0x40 MSTORE POP SWAP2 SWAP1 POP JUMP JUMPDEST PUSH1 0x0 PUSH8 0xFFFFFFFFFFFFFFFF DUP3 GT ISZERO PUSH3 0x4DA JUMPI PUSH1 0x0 DUP1 REVERT JUMPDEST PUSH1 0x20 DUP3 MUL SWAP1 POP PUSH1 0x20 DUP2 ADD SWAP1 POP SWAP2 SWAP1 POP JUMP JUMPDEST PUSH1 0x0 PUSH3 0x4F8 DUP3 PUSH3 0x4FF JUMP JUMPDEST SWAP1 POP SWAP2 SWAP1 POP JUMP JUMPDEST PUSH1 0x0 PUSH20 0xFFFFFFFFFFFFFFFFFFFFFFFFFFFFFFFFFFFFFFFF DUP3 AND SWAP1 POP SWAP2 SWAP1 POP JUMP JUMPDEST PUSH3 0x52A DUP2 PUSH3 0x4EB JUMP JUMPDEST DUP2 EQ PUSH3 0x536 JUMPI PUSH1 0x0 DUP1 REVERT JUMPDEST POP JUMP JUMPDEST PUSH2 0x3AFD DUP1 PUSH3 0x549 PUSH1 0x0 CODECOPY PUSH1 0x0 RETURN INVALID PUSH1 0x80 PUSH1 0x40 MSTORE CALLVALUE DUP1 ISZERO PUSH2 0x10 JUMPI PUSH1 0x0 DUP1 REVERT JUMPDEST POP PUSH1 0x4 CALLDATASIZE LT PUSH2 0x116 JUMPI PUSH1 0x0 CALLDATALOAD PUSH1 0xE0 SHR DUP1 PUSH4 0xAAF34B94 GT PUSH2 0xA2 JUMPI DUP1 PUSH4 0xD45167D0 GT PUSH2 0x71 JUMPI DUP1 PUSH4 0xD45167D0 EQ PUSH2 0x323 JUMPI DUP1 PUSH4 0xD4E03233 EQ PUSH2 0x353 JUMPI DUP1 PUSH4 0xE7B3C875 EQ PUSH2 0x371 JUMPI DUP1 PUSH4 0xEC48AE3C EQ PUSH2 0x3A1 JUMPI DUP1 PUSH4 0xF13EED97 EQ PUSH2 0x3BF JUMPI PUSH2 0x116 JUMP JUMPDEST DUP1 PUSH4 0xAAF34B94 EQ PUSH2 0x26F JUMPI DUP1 PUSH4 0xADD21B3B EQ PUSH2 0x28D JUMPI DUP1 PUSH4 0xB43FE1DE EQ PUSH2 0x2C3 JUMPI DUP1 PUSH4 0xB59DE706 EQ PUSH2 0x2F3 JUMPI PUSH2 0x116 JUMP JUMPDEST DUP1 PUSH4 0x26976E3F GT PUSH2 0xE9 JUMPI DUP1 PUSH4 0x26976E3F EQ PUSH2 0x1A3 JUMPI DUP1 PUSH4 0x4B60AE63 EQ PUSH2 0x1C1 JUMPI DUP1 PUSH4 0x6E080816 EQ PUSH2 0x1DF JUMPI DUP1 PUSH4 0x90AB6442 EQ PUSH2 0x20F JUMPI DUP1 PUSH4 0x92A31082 EQ PUSH2 0x23F JUMPI PUSH2 0x116 JUMP JUMPDEST DUP1 PUSH4 0xE136B19 EQ PUSH2 0x11B JUMPI DUP1 PUSH4 0x17C86875 EQ PUSH2 0x139 JUMPI DUP1 PUSH4 0x20CD6BA1 EQ PUSH2 0x155 JUMPI DUP1 PUSH4 0x250DEA53 EQ PUSH2 0x173 JUMPI JUMPDEST PUSH1 0x0 DUP1 REVERT JUMPDEST PUSH2 0x123 PUSH2 0x3EF JUMP JUMPDEST PUSH1 0x40 MLOAD PUSH2 0x130 SWAP2 SWAP1 PUSH2 0x31D8 JUMP JUMPDEST PUSH1 0x40 MLOAD DUP1 SWAP2 SUB SWAP1 RETURN JUMPDEST PUSH2 0x153 PUSH1 0x4 DUP1 CALLDATASIZE SUB DUP2 ADD SWAP1 PUSH2 0x14E SWAP2 SWAP1 PUSH2 0x20B9 JUMP JUMPDEST PUSH2 0x402 JUMP JUMPDEST STOP JUMPDEST PUSH2 0x15D PUSH2 0x4AF JUMP JUMPDEST PUSH1 0x40 MLOAD PUSH2 0x16A SWAP2 SWAP1 PUSH2 0x3447 JUMP JUMPDEST PUSH1 0x40 MLOAD DUP1 SWAP2 SUB SWAP1 RETURN JUMPDEST PUSH2 0x18D PUSH1 0x4 DUP1 CALLDATASIZE SUB DUP2 ADD SWAP1 PUSH2 0x188 SWAP2 SWAP1 PUSH2 0x2090 JUMP JUMPDEST PUSH2 0x553 JUMP JUMPDEST PUSH1 0x40 MLOAD PUSH2 0x19A SWAP2 SWAP1 PUSH2 0x319B JUMP JUMPDEST PUSH1 0x40 MLOAD DUP1 SWAP2 SUB SWAP1 RETURN JUMPDEST PUSH2 0x1AB PUSH2 0x586 JUMP JUMPDEST PUSH1 0x40 MLOAD PUSH2 0x1B8 SWAP2 SWAP1 PUSH2 0x319B JUMP JUMPDEST PUSH1 0x40 MLOAD DUP1 SWAP2 SUB SWAP1 RETURN JUMPDEST PUSH2 0x1C9 PUSH2 0x5AC JUMP JUMPDEST PUSH1 0x40 MLOAD PUSH2 0x1D6 SWAP2 SWAP1 PUSH2 0x342C JUMP JUMPDEST PUSH1 0x40 MLOAD DUP1 SWAP2 SUB SWAP1 RETURN JUMPDEST PUSH2 0x1F9 PUSH1 0x4 DUP1 CALLDATASIZE SUB DUP2 ADD SWAP1 PUSH2 0x1F4 SWAP2 SWAP1 PUSH2 0x2409 JUMP JUMPDEST PUSH2 0x5C0 JUMP JUMPDEST PUSH1 0x40 MLOAD PUSH2 0x206 SWAP2 SWAP1 PUSH2 0x342C JUMP JUMPDEST PUSH1 0x40 MLOAD DUP1 SWAP2 SUB SWAP1 RETURN JUMPDEST PUSH2 0x229 PUSH1 0x4 DUP1 CALLDATASIZE SUB DUP2 ADD SWAP1 PUSH2 0x224 SWAP2 SWAP1 PUSH2 0x21A1 JUMP JUMPDEST PUSH2 0x5F7 JUMP JUMPDEST PUSH1 0x40 MLOAD PUSH2 0x236 SWAP2 SWAP1 PUSH2 0x31D8 JUMP JUMPDEST PUSH1 0x40 MLOAD DUP1 SWAP2 SUB SWAP1 RETURN JUMPDEST PUSH2 0x259 PUSH1 0x4 DUP1 CALLDATASIZE SUB DUP2 ADD SWAP1 PUSH2 0x254 SWAP2 SWAP1 PUSH2 0x22F0 JUMP JUMPDEST PUSH2 0x6EC JUMP JUMPDEST PUSH1 0x40 MLOAD PUSH2 0x266 SWAP2 SWAP1 PUSH2 0x319B JUMP JUMPDEST PUSH1 0x40 MLOAD DUP1 SWAP2 SUB SWAP1 RETURN JUMPDEST PUSH2 0x277 PUSH2 0xE22 JUMP JUMPDEST PUSH1 0x40 MLOAD PUSH2 0x284 SWAP2 SWAP1 PUSH2 0x31B6 JUMP JUMPDEST PUSH1 0x40 MLOAD DUP1 SWAP2 SUB SWAP1 RETURN JUMPDEST PUSH2 0x2A7 PUSH1 0x4 DUP1 CALLDATASIZE SUB DUP2 ADD SWAP1 PUSH2 0x2A2 SWAP2 SWAP1 PUSH2 0x2432 JUMP JUMPDEST PUSH2 0xEB0 JUMP JUMPDEST PUSH1 0x40 MLOAD PUSH2 0x2BA SWAP8 SWAP7 SWAP6 SWAP5 SWAP4 SWAP3 SWAP2 SWAP1 PUSH2 0x3275 JUMP JUMPDEST PUSH1 0x40 MLOAD DUP1 SWAP2 SUB SWAP1 RETURN JUMPDEST PUSH2 0x2DD PUSH1 0x4 DUP1 CALLDATASIZE SUB DUP2 ADD SWAP1 PUSH2 0x2D8 SWAP2 SWAP1 PUSH2 0x20B9 JUMP JUMPDEST PUSH2 0xF3C JUMP JUMPDEST PUSH1 0x40 MLOAD PUSH2 0x2EA SWAP2 SWAP1 PUSH2 0x31D8 JUMP JUMPDEST PUSH1 0x40 MLOAD DUP1 SWAP2 SUB SWAP1 RETURN JUMPDEST PUSH2 0x30D PUSH1 0x4 DUP1 CALLDATASIZE SUB DUP2 ADD SWAP1 PUSH2 0x308 SWAP2 SWAP1 PUSH2 0x2090 JUMP JUMPDEST PUSH2 0x10EF JUMP JUMPDEST PUSH1 0x40 MLOAD PUSH2 0x31A SWAP2 SWAP1 PUSH2 0x31D8 JUMP JUMPDEST PUSH1 0x40 MLOAD DUP1 SWAP2 SUB SWAP1 RETURN JUMPDEST PUSH2 0x33D PUSH1 0x4 DUP1 CALLDATASIZE SUB DUP2 ADD SWAP1 PUSH2 0x338 SWAP2 SWAP1 PUSH2 0x224C JUMP JUMPDEST PUSH2 0x110F JUMP JUMPDEST PUSH1 0x40 MLOAD PUSH2 0x34A SWAP2 SWAP1 PUSH2 0x319B JUMP JUMPDEST PUSH1 0x40 MLOAD DUP1 SWAP2 SUB SWAP1 RETURN JUMPDEST PUSH2 0x35B PUSH2 0x116F JUMP JUMPDEST PUSH1 0x40 MLOAD PUSH2 0x368 SWAP2 SWAP1 PUSH2 0x33F6 JUMP JUMPDEST PUSH1 0x40 MLOAD DUP1 SWAP2 SUB SWAP1 RETURN JUMPDEST PUSH2 0x38B PUSH1 0x4 DUP1 CALLDATASIZE SUB DUP2 ADD SWAP1 PUSH2 0x386 SWAP2 SWAP1 PUSH2 0x2432 JUMP JUMPDEST PUSH2 0x128B JUMP JUMPDEST PUSH1 0x40 MLOAD PUSH2 0x398 SWAP2 SWAP1 PUSH2 0x31F3 JUMP JUMPDEST PUSH1 0x40 MLOAD DUP1 SWAP2 SUB SWAP1 RETURN JUMPDEST PUSH2 0x3A9 PUSH2 0x12A3 JUMP JUMPDEST PUSH1 0x40 MLOAD PUSH2 0x3B6 SWAP2 SWAP1 PUSH2 0x3411 JUMP JUMPDEST PUSH1 0x40 MLOAD DUP1 SWAP2 SUB SWAP1 RETURN JUMPDEST PUSH2 0x3D9 PUSH1 0x4 DUP1 CALLDATASIZE SUB DUP2 ADD SWAP1 PUSH2 0x3D4 SWAP2 SWAP1 PUSH2 0x2090 JUMP JUMPDEST PUSH2 0x12B0 JUMP JUMPDEST PUSH1 0x40 MLOAD PUSH2 0x3E6 SWAP2 SWAP1 PUSH2 0x31D8 JUMP JUMPDEST PUSH1 0x40 MLOAD DUP1 SWAP2 SUB SWAP1 RETURN JUMPDEST PUSH1 0x0 PUSH1 0x4 SWAP1 SLOAD SWAP1 PUSH2 0x100 EXP SWAP1 DIV PUSH1 0xFF AND DUP2 JUMP JUMPDEST PUSH2 0x40F DUP6 DUP6 DUP6 DUP6 DUP6 PUSH2 0xF3C JUMP JUMPDEST ISZERO PUSH2 0x4A8 JUMPI PUSH1 0x1 PUSH1 0x0 PUSH1 0x4 PUSH2 0x100 EXP DUP2 SLOAD DUP2 PUSH1 0xFF MUL NOT AND SWAP1 DUP4 ISZERO ISZERO MUL OR SWAP1 SSTORE POP DUP5 PUSH1 0x0 PUSH1 0x5 PUSH2 0x100 EXP DUP2 SLOAD DUP2 PUSH20 0xFFFFFFFFFFFFFFFFFFFFFFFFFFFFFFFFFFFFFFFF MUL NOT AND SWAP1 DUP4 PUSH20 0xFFFFFFFFFFFFFFFFFFFFFFFFFFFFFFFFFFFFFFFF AND MUL OR SWAP1 SSTORE POP PUSH32 0xCC358699805E9A8B7F77B522628C7CB9ABD07D9EFB86B6FB616AF1609036A99E DUP6 PUSH1 0x40 MLOAD PUSH2 0x49F SWAP2 SWAP1 PUSH2 0x319B JUMP JUMPDEST PUSH1 0x40 MLOAD DUP1 SWAP2 SUB SWAP1 LOG1 JUMPDEST POP POP POP POP POP JUMP JUMPDEST PUSH1 0x0 PUSH1 0x1 PUSH1 0xA PUSH1 0x0 SWAP1 SLOAD SWAP1 PUSH2 0x100 EXP SWAP1 DIV PUSH1 0xFF AND PUSH1 0xFF AND EQ DUP1 PUSH2 0x4E4 JUMPI POP PUSH1 0x2 PUSH1 0xA PUSH1 0x0 SWAP1 SLOAD SWAP1 PUSH2 0x100 EXP SWAP1 DIV PUSH1 0xFF AND PUSH1 0xFF AND EQ JUMPDEST ISZERO PUSH2 0x4F2 JUMPI PUSH1 0x1 SWAP1 POP PUSH2 0x550 JUMP JUMPDEST PUSH1 0x0 PUSH1 0x1 PUSH1 0x2 PUSH1 0xA PUSH1 0x0 SWAP1 SLOAD SWAP1 PUSH2 0x100 EXP SWAP1 DIV PUSH1 0xFF AND PUSH1 0xFF AND DUP2 PUSH2 0x512 JUMPI INVALID JUMPDEST DIV ADD PUSH1 0xFF AND SWAP1 POP PUSH1 0x0 PUSH1 0x19 SWAP1 SLOAD SWAP1 PUSH2 0x100 EXP SWAP1 DIV PUSH1 0xFF AND PUSH1 0xFF AND DUP2 GT ISZERO PUSH2 0x54B JUMPI PUSH1 0x0 PUSH1 0x19 SWAP1 SLOAD SWAP1 PUSH2 0x100 EXP SWAP1 DIV PUSH1 0xFF AND SWAP2 POP POP PUSH2 0x550 JUMP JUMPDEST DUP1 SWAP2 POP POP JUMPDEST SWAP1 JUMP JUMPDEST PUSH1 0x5 PUSH1 0x20 MSTORE DUP1 PUSH1 0x0 MSTORE PUSH1 0x40 PUSH1 0x0 KECCAK256 PUSH1 0x0 SWAP2 POP SLOAD SWAP1 PUSH2 0x100 EXP SWAP1 DIV PUSH20 0xFFFFFFFFFFFFFFFFFFFFFFFFFFFFFFFFFFFFFFFF AND DUP2 JUMP JUMPDEST PUSH1 0x0 PUSH1 0x5 SWAP1 SLOAD SWAP1 PUSH2 0x100 EXP SWAP1 DIV PUSH20 0xFFFFFFFFFFFFFFFFFFFFFFFFFFFFFFFFFFFFFFFF AND DUP2 JUMP JUMPDEST PUSH1 0x0 DUP1 SLOAD SWAP1 PUSH2 0x100 EXP SWAP1 DIV PUSH4 0xFFFFFFFF AND DUP2 JUMP JUMPDEST PUSH1 0x9 DUP2 DUP2 SLOAD DUP2 LT PUSH2 0x5CD JUMPI INVALID JUMPDEST SWAP1 PUSH1 0x0 MSTORE PUSH1 0x20 PUSH1 0x0 KECCAK256 SWAP1 PUSH1 0x8 SWAP2 DUP3 DUP3 DIV ADD SWAP2 SWAP1 MOD PUSH1 0x4 MUL SWAP2 POP SLOAD SWAP1 PUSH2 0x100 EXP SWAP1 DIV PUSH4 0xFFFFFFFF AND DUP2 JUMP JUMPDEST PUSH1 0x0 DUP1 PUSH1 0x0 DUP1 JUMPDEST DUP7 MLOAD DUP2 LT ISZERO PUSH2 0x6B6 JUMPI PUSH2 0x64C DUP9 DUP7 DUP4 DUP2 MLOAD DUP2 LT PUSH2 0x617 JUMPI INVALID JUMPDEST PUSH1 0x20 MUL PUSH1 0x20 ADD ADD MLOAD DUP10 DUP5 DUP2 MLOAD DUP2 LT PUSH2 0x62B JUMPI INVALID JUMPDEST PUSH1 0x20 MUL PUSH1 0x20 ADD ADD MLOAD DUP10 DUP6 DUP2 MLOAD DUP2 LT PUSH2 0x63F JUMPI INVALID JUMPDEST PUSH1 0x20 MUL PUSH1 0x20 ADD ADD MLOAD PUSH2 0x110F JUMP JUMPDEST SWAP3 POP PUSH1 0x4 PUSH1 0x0 DUP5 PUSH20 0xFFFFFFFFFFFFFFFFFFFFFFFFFFFFFFFFFFFFFFFF AND PUSH20 0xFFFFFFFFFFFFFFFFFFFFFFFFFFFFFFFFFFFFFFFF AND DUP2 MSTORE PUSH1 0x20 ADD SWAP1 DUP2 MSTORE PUSH1 0x20 ADD PUSH1 0x0 KECCAK256 PUSH1 0x0 SWAP1 SLOAD SWAP1 PUSH2 0x100 EXP SWAP1 DIV PUSH1 0xFF AND ISZERO PUSH2 0x6A9 JUMPI DUP2 DUP1 PUSH1 0x1 ADD SWAP3 POP POP JUMPDEST DUP1 DUP1 PUSH1 0x1 ADD SWAP2 POP POP PUSH2 0x5FE JUMP JUMPDEST POP PUSH1 0x0 PUSH2 0x6C1 PUSH2 0x4AF JUMP JUMPDEST SWAP1 POP DUP1 PUSH1 0xFF AND DUP3 PUSH1 0xFF AND LT PUSH2 0x6DC JUMPI PUSH1 0x1 SWAP4 POP POP POP POP PUSH2 0x6E4 JUMP JUMPDEST PUSH1 0x0 SWAP4 POP POP POP POP JUMPDEST SWAP5 SWAP4 POP POP POP POP JUMP JUMPDEST PUSH1 0x0 DUP1 PUSH1 0x4 SWAP1 SLOAD SWAP1 PUSH2 0x100 EXP SWAP1 DIV PUSH1 0xFF AND ISZERO PUSH2 0x73D JUMPI PUSH1 0x40 MLOAD PUSH32 0x8C379A000000000000000000000000000000000000000000000000000000000 DUP2 MSTORE PUSH1 0x4 ADD PUSH2 0x734 SWAP1 PUSH2 0x3304 JUMP JUMPDEST PUSH1 0x40 MLOAD DUP1 SWAP2 SUB SWAP1 REVERT JUMPDEST DUP4 MLOAD DUP6 MLOAD EQ DUP1 ISZERO PUSH2 0x74F JUMPI POP DUP6 MLOAD DUP6 MLOAD EQ JUMPDEST PUSH2 0x78E JUMPI PUSH1 0x40 MLOAD PUSH32 0x8C379A000000000000000000000000000000000000000000000000000000000 DUP2 MSTORE PUSH1 0x4 ADD PUSH2 0x785 SWAP1 PUSH2 0x3344 JUMP JUMPDEST PUSH1 0x40 MLOAD DUP1 SWAP2 SUB SWAP1 REVERT JUMPDEST PUSH1 0x0 DUP1 SLOAD SWAP1 PUSH2 0x100 EXP SWAP1 DIV PUSH4 0xFFFFFFFF AND PUSH4 0xFFFFFFFF AND DUP8 PUSH1 0xA0 ADD MLOAD PUSH4 0xFFFFFFFF AND GT PUSH2 0x7F0 JUMPI PUSH1 0x40 MLOAD PUSH32 0x8C379A000000000000000000000000000000000000000000000000000000000 DUP2 MSTORE PUSH1 0x4 ADD PUSH2 0x7E7 SWAP1 PUSH2 0x3364 JUMP JUMPDEST PUSH1 0x40 MLOAD DUP1 SWAP2 SUB SWAP1 REVERT JUMPDEST PUSH1 0x60 PUSH1 0x2 PUSH1 0x0 SWAP1 SLOAD SWAP1 PUSH2 0x100 EXP SWAP1 DIV PUSH20 0xFFFFFFFFFFFFFFFFFFFFFFFFFFFFFFFFFFFFFFFF AND PUSH20 0xFFFFFFFFFFFFFFFFFFFFFFFFFFFFFFFFFFFFFFFF AND PUSH4 0x892E2937 DUP10 PUSH1 0x40 MLOAD DUP3 PUSH4 0xFFFFFFFF AND PUSH1 0xE0 SHL DUP2 MSTORE PUSH1 0x4 ADD PUSH2 0x84D SWAP2 SWAP1 PUSH2 0x33A4 JUMP JUMPDEST PUSH1 0x0 PUSH1 0x40 MLOAD DUP1 DUP4 SUB DUP2 DUP7 DUP1 EXTCODESIZE ISZERO DUP1 ISZERO PUSH2 0x865 JUMPI PUSH1 0x0 DUP1 REVERT JUMPDEST POP GAS STATICCALL ISZERO DUP1 ISZERO PUSH2 0x879 JUMPI RETURNDATASIZE PUSH1 0x0 DUP1 RETURNDATACOPY RETURNDATASIZE PUSH1 0x0 REVERT JUMPDEST POP POP POP POP PUSH1 0x40 MLOAD RETURNDATASIZE PUSH1 0x0 DUP3 RETURNDATACOPY RETURNDATASIZE PUSH1 0x1F NOT PUSH1 0x1F DUP3 ADD AND DUP3 ADD DUP1 PUSH1 0x40 MSTORE POP DUP2 ADD SWAP1 PUSH2 0x8A2 SWAP2 SWAP1 PUSH2 0x22AF JUMP JUMPDEST SWAP1 POP PUSH1 0x0 DUP1 PUSH1 0x0 PUSH1 0x60 PUSH1 0x0 JUMPDEST DUP9 MLOAD DUP2 LT ISZERO PUSH2 0xB36 JUMPI PUSH1 0x1 PUSH1 0x3 PUSH1 0x0 SWAP1 SLOAD SWAP1 PUSH2 0x100 EXP SWAP1 DIV PUSH1 0x60 SHL PUSH20 0xA6EF9EA235635E328124FF3429DB9F9E91B64E2D PUSH1 0x2 PUSH1 0x0 SWAP1 SLOAD SWAP1 PUSH2 0x100 EXP SWAP1 DIV PUSH20 0xFFFFFFFFFFFFFFFFFFFFFFFFFFFFFFFFFFFFFFFF AND PUSH20 0xFFFFFFFFFFFFFFFFFFFFFFFFFFFFFFFFFFFFFFFF AND PUSH4 0xCECB3043 DUP14 DUP7 DUP2 MLOAD DUP2 LT PUSH2 0x928 JUMPI INVALID JUMPDEST PUSH1 0x20 MUL PUSH1 0x20 ADD ADD MLOAD PUSH1 0x40 MLOAD DUP3 PUSH4 0xFFFFFFFF AND PUSH1 0xE0 SHL DUP2 MSTORE PUSH1 0x4 ADD PUSH2 0x94C SWAP2 SWAP1 PUSH2 0x342C JUMP JUMPDEST PUSH1 0x0 PUSH1 0x40 MLOAD DUP1 DUP4 SUB DUP2 DUP7 DUP1 EXTCODESIZE ISZERO DUP1 ISZERO PUSH2 0x964 JUMPI PUSH1 0x0 DUP1 REVERT JUMPDEST POP GAS STATICCALL ISZERO DUP1 ISZERO PUSH2 0x978 JUMPI RETURNDATASIZE PUSH1 0x0 DUP1 RETURNDATACOPY RETURNDATASIZE PUSH1 0x0 REVERT JUMPDEST POP POP POP POP PUSH1 0x40 MLOAD RETURNDATASIZE PUSH1 0x0 DUP3 RETURNDATACOPY RETURNDATASIZE PUSH1 0x1F NOT PUSH1 0x1F DUP3 ADD AND DUP3 ADD DUP1 PUSH1 0x40 MSTORE POP DUP2 ADD SWAP1 PUSH2 0x9A1 SWAP2 SWAP1 PUSH2 0x22AF JUMP JUMPDEST DUP12 DUP6 DUP2 MLOAD DUP2 LT PUSH2 0x9AD JUMPI INVALID JUMPDEST PUSH1 0x20 MUL PUSH1 0x20 ADD ADD MLOAD DUP11 DUP1 MLOAD SWAP1 PUSH1 0x20 ADD KECCAK256 PUSH1 0x40 MLOAD PUSH1 0x20 ADD PUSH2 0x9CD SWAP2 SWAP1 PUSH2 0x3118 JUMP JUMPDEST PUSH1 0x40 MLOAD PUSH1 0x20 DUP2 DUP4 SUB SUB DUP2 MSTORE SWAP1 PUSH1 0x40 MSTORE PUSH1 0x40 MLOAD PUSH1 0x20 ADD PUSH2 0x9F1 SWAP7 SWAP6 SWAP5 SWAP4 SWAP3 SWAP2 SWAP1 PUSH2 0x3133 JUMP JUMPDEST PUSH1 0x40 MLOAD PUSH1 0x20 DUP2 DUP4 SUB SUB DUP2 MSTORE SWAP1 PUSH1 0x40 MSTORE SWAP2 POP DUP2 DUP1 MLOAD SWAP1 PUSH1 0x20 ADD KECCAK256 SWAP5 POP PUSH2 0xA54 DUP6 PUSH1 0x4 DUP15 DUP5 DUP2 MLOAD DUP2 LT PUSH2 0xA1E JUMPI INVALID JUMPDEST PUSH1 0x20 MUL PUSH1 0x20 ADD ADD MLOAD SUB DUP14 DUP5 DUP2 MLOAD DUP2 LT PUSH2 0xA33 JUMPI INVALID JUMPDEST PUSH1 0x20 MUL PUSH1 0x20 ADD ADD MLOAD DUP14 DUP6 DUP2 MLOAD DUP2 LT PUSH2 0xA47 JUMPI INVALID JUMPDEST PUSH1 0x20 MUL PUSH1 0x20 ADD ADD MLOAD PUSH2 0x110F JUMP JUMPDEST SWAP4 POP DUP4 SWAP7 POP PUSH1 0x5 PUSH1 0x0 DUP10 DUP4 DUP2 MLOAD DUP2 LT PUSH2 0xA69 JUMPI INVALID JUMPDEST PUSH1 0x20 MUL PUSH1 0x20 ADD ADD MLOAD PUSH20 0xFFFFFFFFFFFFFFFFFFFFFFFFFFFFFFFFFFFFFFFF AND PUSH20 0xFFFFFFFFFFFFFFFFFFFFFFFFFFFFFFFFFFFFFFFF AND DUP2 MSTORE PUSH1 0x20 ADD SWAP1 DUP2 MSTORE PUSH1 0x20 ADD PUSH1 0x0 KECCAK256 PUSH1 0x0 SWAP1 SLOAD SWAP1 PUSH2 0x100 EXP SWAP1 DIV PUSH20 0xFFFFFFFFFFFFFFFFFFFFFFFFFFFFFFFFFFFFFFFF AND PUSH20 0xFFFFFFFFFFFFFFFFFFFFFFFFFFFFFFFFFFFFFFFF AND DUP5 PUSH20 0xFFFFFFFFFFFFFFFFFFFFFFFFFFFFFFFFFFFFFFFF AND EQ ISZERO PUSH2 0xB08 JUMPI DUP3 DUP1 PUSH1 0x1 ADD SWAP4 POP POP JUMPDEST PUSH1 0x0 PUSH1 0x19 SWAP1 SLOAD SWAP1 PUSH2 0x100 EXP SWAP1 DIV PUSH1 0xFF AND PUSH1 0xFF AND DUP4 PUSH1 0xFF AND LT PUSH2 0xB29 JUMPI PUSH2 0xB36 JUMP JUMPDEST DUP1 DUP1 PUSH1 0x1 ADD SWAP2 POP POP PUSH2 0x8AE JUMP JUMPDEST POP PUSH2 0xB3F PUSH2 0x4AF JUMP JUMPDEST PUSH1 0xFF AND DUP3 PUSH1 0xFF AND LT PUSH2 0xE13 JUMPI PUSH1 0x0 JUMPDEST DUP13 PUSH2 0x140 ADD MLOAD MLOAD DUP2 LT ISZERO PUSH2 0xDC8 JUMPI PUSH20 0xA6EF9EA235635E328124FF3429DB9F9E91B64E2D PUSH20 0xFFFFFFFFFFFFFFFFFFFFFFFFFFFFFFFFFFFFFFFF AND DUP14 PUSH2 0x140 ADD MLOAD DUP3 DUP2 MLOAD DUP2 LT PUSH2 0xB98 JUMPI INVALID JUMPDEST PUSH1 0x20 MUL PUSH1 0x20 ADD ADD MLOAD PUSH1 0x40 ADD MLOAD PUSH20 0xFFFFFFFFFFFFFFFFFFFFFFFFFFFFFFFFFFFFFFFF AND EQ ISZERO PUSH2 0xDBB JUMPI DUP13 PUSH2 0x140 ADD MLOAD DUP2 DUP2 MLOAD DUP2 LT PUSH2 0xBD1 JUMPI INVALID JUMPDEST PUSH1 0x20 MUL PUSH1 0x20 ADD ADD MLOAD PUSH1 0x80 ADD MLOAD PUSH1 0x8 PUSH1 0x0 DUP16 PUSH1 0xA0 ADD MLOAD PUSH4 0xFFFFFFFF AND PUSH4 0xFFFFFFFF AND DUP2 MSTORE PUSH1 0x20 ADD SWAP1 DUP2 MSTORE PUSH1 0x20 ADD PUSH1 0x0 KECCAK256 DUP2 SWAP1 SSTORE POP DUP13 PUSH2 0x140 ADD MLOAD DUP2 DUP2 MLOAD DUP2 LT PUSH2 0xC15 JUMPI INVALID JUMPDEST PUSH1 0x20 MUL PUSH1 0x20 ADD ADD MLOAD PUSH1 0x7 PUSH1 0x0 DUP16 PUSH1 0xA0 ADD MLOAD PUSH4 0xFFFFFFFF AND PUSH4 0xFFFFFFFF AND DUP2 MSTORE PUSH1 0x20 ADD SWAP1 DUP2 MSTORE PUSH1 0x20 ADD PUSH1 0x0 KECCAK256 PUSH1 0x0 DUP3 ADD MLOAD DUP2 PUSH1 0x0 ADD PUSH1 0x0 PUSH2 0x100 EXP DUP2 SLOAD DUP2 PUSH2 0xFFFF MUL NOT AND SWAP1 DUP4 PUSH1 0x1 SIGNEXTEND PUSH2 0xFFFF AND MUL OR SWAP1 SSTORE POP PUSH1 0x20 DUP3 ADD MLOAD DUP2 PUSH1 0x0 ADD PUSH1 0x2 PUSH2 0x100 EXP DUP2 SLOAD DUP2 PUSH2 0xFFFF MUL NOT AND SWAP1 DUP4 PUSH1 0x1 SIGNEXTEND PUSH2 0xFFFF AND MUL OR SWAP1 SSTORE POP PUSH1 0x40 DUP3 ADD MLOAD DUP2 PUSH1 0x0 ADD PUSH1 0x4 PUSH2 0x100 EXP DUP2 SLOAD DUP2 PUSH20 0xFFFFFFFFFFFFFFFFFFFFFFFFFFFFFFFFFFFFFFFF MUL NOT AND SWAP1 DUP4 PUSH20 0xFFFFFFFFFFFFFFFFFFFFFFFFFFFFFFFFFFFFFFFF AND MUL OR SWAP1 SSTORE POP PUSH1 0x60 DUP3 ADD MLOAD DUP2 PUSH1 0x0 ADD PUSH1 0x18 PUSH2 0x100 EXP DUP2 SLOAD DUP2 PUSH4 0xFFFFFFFF MUL NOT AND SWAP1 DUP4 PUSH4 0xFFFFFFFF AND MUL OR SWAP1 SSTORE POP PUSH1 0x80 DUP3 ADD MLOAD DUP2 PUSH1 0x1 ADD SSTORE PUSH1 0xA0 DUP3 ADD MLOAD DUP2 PUSH1 0x2 ADD SSTORE PUSH1 0xC0 DUP3 ADD MLOAD DUP2 PUSH1 0x3 ADD SSTORE SWAP1 POP POP PUSH1 0x9 DUP14 PUSH1 0xA0 ADD MLOAD SWAP1 DUP1 PUSH1 0x1 DUP2 SLOAD ADD DUP1 DUP3 SSTORE DUP1 SWAP2 POP POP PUSH1 0x1 SWAP1 SUB SWAP1 PUSH1 0x0 MSTORE PUSH1 0x20 PUSH1 0x0 KECCAK256 SWAP1 PUSH1 0x8 SWAP2 DUP3 DUP3 DIV ADD SWAP2 SWAP1 MOD PUSH1 0x4 MUL SWAP1 SWAP2 SWAP1 SWAP2 SWAP1 SWAP2 PUSH2 0x100 EXP DUP2 SLOAD DUP2 PUSH4 0xFFFFFFFF MUL NOT AND SWAP1 DUP4 PUSH4 0xFFFFFFFF AND MUL OR SWAP1 SSTORE POP DUP13 PUSH1 0xA0 ADD MLOAD PUSH4 0xFFFFFFFF AND PUSH1 0x0 DUP1 SLOAD SWAP1 PUSH2 0x100 EXP SWAP1 DIV PUSH4 0xFFFFFFFF AND PUSH4 0xFFFFFFFF AND LT ISZERO PUSH2 0xDBA JUMPI DUP13 PUSH1 0xA0 ADD MLOAD PUSH1 0x0 DUP1 PUSH2 0x100 EXP DUP2 SLOAD DUP2 PUSH4 0xFFFFFFFF MUL NOT AND SWAP1 DUP4 PUSH4 0xFFFFFFFF AND MUL OR SWAP1 SSTORE POP JUMPDEST JUMPDEST DUP1 DUP1 PUSH1 0x1 ADD SWAP2 POP POP PUSH2 0xB4E JUMP JUMPDEST POP PUSH32 0x3C3D32B52A6AEF5732CAB1FBC27156FBA0FA8570F7A72C63571CAB9A3FF66DAB DUP13 PUSH1 0x0 DUP1 SLOAD SWAP1 PUSH2 0x100 EXP SWAP1 DIV PUSH4 0xFFFFFFFF AND PUSH1 0x40 MLOAD PUSH2 0xE0A SWAP3 SWAP2 SWAP1 PUSH2 0x33C6 JUMP JUMPDEST PUSH1 0x40 MLOAD DUP1 SWAP2 SUB SWAP1 LOG1 JUMPDEST POP POP POP POP POP SWAP7 SWAP6 POP POP POP POP POP POP JUMP JUMPDEST PUSH1 0x60 PUSH1 0x6 DUP1 SLOAD DUP1 PUSH1 0x20 MUL PUSH1 0x20 ADD PUSH1 0x40 MLOAD SWAP1 DUP2 ADD PUSH1 0x40 MSTORE DUP1 SWAP3 SWAP2 SWAP1 DUP2 DUP2 MSTORE PUSH1 0x20 ADD DUP3 DUP1 SLOAD DUP1 ISZERO PUSH2 0xEA6 JUMPI PUSH1 0x20 MUL DUP3 ADD SWAP2 SWAP1 PUSH1 0x0 MSTORE PUSH1 0x20 PUSH1 0x0 KECCAK256 SWAP1 JUMPDEST DUP2 PUSH1 0x0 SWAP1 SLOAD SWAP1 PUSH2 0x100 EXP SWAP1 DIV PUSH20 0xFFFFFFFFFFFFFFFFFFFFFFFFFFFFFFFFFFFFFFFF AND PUSH20 0xFFFFFFFFFFFFFFFFFFFFFFFFFFFFFFFFFFFFFFFF AND DUP2 MSTORE PUSH1 0x20 ADD SWAP1 PUSH1 0x1 ADD SWAP1 DUP1 DUP4 GT PUSH2 0xE5C JUMPI JUMPDEST POP POP POP POP POP SWAP1 POP SWAP1 JUMP JUMPDEST PUSH1 0x7 PUSH1 0x20 MSTORE DUP1 PUSH1 0x0 MSTORE PUSH1 0x40 PUSH1 0x0 KECCAK256 PUSH1 0x0 SWAP2 POP SWAP1 POP DUP1 PUSH1 0x0 ADD PUSH1 0x0 SWAP1 SLOAD SWAP1 PUSH2 0x100 EXP SWAP1 DIV PUSH1 0x1 SIGNEXTEND SWAP1 DUP1 PUSH1 0x0 ADD PUSH1 0x2 SWAP1 SLOAD SWAP1 PUSH2 0x100 EXP SWAP1 DIV PUSH1 0x1 SIGNEXTEND SWAP1 DUP1 PUSH1 0x0 ADD PUSH1 0x4 SWAP1 SLOAD SWAP1 PUSH2 0x100 EXP SWAP1 DIV PUSH20 0xFFFFFFFFFFFFFFFFFFFFFFFFFFFFFFFFFFFFFFFF AND SWAP1 DUP1 PUSH1 0x0 ADD PUSH1 0x18 SWAP1 SLOAD SWAP1 PUSH2 0x100 EXP SWAP1 DIV PUSH4 0xFFFFFFFF AND SWAP1 DUP1 PUSH1 0x1 ADD SLOAD SWAP1 DUP1 PUSH1 0x2 ADD SLOAD SWAP1 DUP1 PUSH1 0x3 ADD SLOAD SWAP1 POP DUP8 JUMP JUMPDEST PUSH1 0x0 PUSH2 0xF47 CALLER PUSH2 0x12B0 JUMP JUMPDEST PUSH2 0xF86 JUMPI PUSH1 0x40 MLOAD PUSH32 0x8C379A000000000000000000000000000000000000000000000000000000000 DUP2 MSTORE PUSH1 0x4 ADD PUSH2 0xF7D SWAP1 PUSH2 0x32E4 JUMP JUMPDEST PUSH1 0x40 MLOAD DUP1 SWAP2 SUB SWAP1 REVERT JUMPDEST PUSH1 0x0 PUSH1 0x1 PUSH1 0x0 SWAP1 SLOAD SWAP1 PUSH2 0x100 EXP SWAP1 DIV PUSH20 0xFFFFFFFFFFFFFFFFFFFFFFFFFFFFFFFFFFFFFFFF AND PUSH20 0xFFFFFFFFFFFFFFFFFFFFFFFFFFFFFFFFFFFFFFFF AND PUSH4 0x2CD0CFF2 DUP9 PUSH1 0x40 MLOAD PUSH1 0x20 ADD PUSH2 0xFD7 SWAP2 SWAP1 PUSH2 0x30FD JUMP JUMPDEST PUSH1 0x40 MLOAD PUSH1 0x20 DUP2 DUP4 SUB SUB DUP2 MSTORE SWAP1 PUSH1 0x40 MSTORE PUSH1 0x40 MLOAD DUP3 PUSH4 0xFFFFFFFF AND PUSH1 0xE0 SHL DUP2 MSTORE PUSH1 0x4 ADD PUSH2 0x1002 SWAP2 SWAP1 PUSH2 0x3253 JUMP JUMPDEST PUSH1 0x20 PUSH1 0x40 MLOAD DUP1 DUP4 SUB DUP2 DUP7 DUP1 EXTCODESIZE ISZERO DUP1 ISZERO PUSH2 0x101A JUMPI PUSH1 0x0 DUP1 REVERT JUMPDEST POP GAS STATICCALL ISZERO DUP1 ISZERO PUSH2 0x102E JUMPI RETURNDATASIZE PUSH1 0x0 DUP1 RETURNDATACOPY RETURNDATASIZE PUSH1 0x0 REVERT JUMPDEST POP POP POP POP PUSH1 0x40 MLOAD RETURNDATASIZE PUSH1 0x1F NOT PUSH1 0x1F DUP3 ADD AND DUP3 ADD DUP1 PUSH1 0x40 MSTORE POP DUP2 ADD SWAP1 PUSH2 0x1052 SWAP2 SWAP1 PUSH2 0x2178 JUMP JUMPDEST SWAP1 POP DUP6 DUP2 EQ PUSH2 0x1096 JUMPI PUSH1 0x40 MLOAD PUSH32 0x8C379A000000000000000000000000000000000000000000000000000000000 DUP2 MSTORE PUSH1 0x4 ADD PUSH2 0x108D SWAP1 PUSH2 0x3384 JUMP JUMPDEST PUSH1 0x40 MLOAD DUP1 SWAP2 SUB SWAP1 REVERT JUMPDEST PUSH2 0x10A2 DUP7 DUP6 DUP6 DUP9 PUSH2 0x5F7 JUMP JUMPDEST PUSH2 0x10E1 JUMPI PUSH1 0x40 MLOAD PUSH32 0x8C379A000000000000000000000000000000000000000000000000000000000 DUP2 MSTORE PUSH1 0x4 ADD PUSH2 0x10D8 SWAP1 PUSH2 0x3324 JUMP JUMPDEST PUSH1 0x40 MLOAD DUP1 SWAP2 SUB SWAP1 REVERT JUMPDEST PUSH1 0x1 SWAP2 POP POP SWAP6 SWAP5 POP POP POP POP POP JUMP JUMPDEST PUSH1 0x4 PUSH1 0x20 MSTORE DUP1 PUSH1 0x0 MSTORE PUSH1 0x40 PUSH1 0x0 KECCAK256 PUSH1 0x0 SWAP2 POP SLOAD SWAP1 PUSH2 0x100 EXP SWAP1 DIV PUSH1 0xFF AND DUP2 JUMP JUMPDEST PUSH1 0x0 DUP1 PUSH1 0x1 DUP7 DUP7 DUP7 DUP7 PUSH1 0x40 MLOAD PUSH1 0x0 DUP2 MSTORE PUSH1 0x20 ADD PUSH1 0x40 MSTORE PUSH1 0x40 MLOAD PUSH2 0x1135 SWAP5 SWAP4 SWAP3 SWAP2 SWAP1 PUSH2 0x320E JUMP JUMPDEST PUSH1 0x20 PUSH1 0x40 MLOAD PUSH1 0x20 DUP2 SUB SWAP1 DUP1 DUP5 SUB SWAP1 DUP6 GAS STATICCALL ISZERO DUP1 ISZERO PUSH2 0x1157 JUMPI RETURNDATASIZE PUSH1 0x0 DUP1 RETURNDATACOPY RETURNDATASIZE PUSH1 0x0 REVERT JUMPDEST POP POP POP PUSH1 0x20 PUSH1 0x40 MLOAD SUB MLOAD SWAP1 POP DUP1 SWAP2 POP POP SWAP5 SWAP4 POP POP POP POP JUMP JUMPDEST PUSH2 0x1177 PUSH2 0x131E JUMP JUMPDEST PUSH1 0x7 PUSH1 0x0 DUP1 PUSH1 0x0 SWAP1 SLOAD SWAP1 PUSH2 0x100 EXP SWAP1 DIV PUSH4 0xFFFFFFFF AND PUSH4 0xFFFFFFFF AND PUSH4 0xFFFFFFFF AND DUP2 MSTORE PUSH1 0x20 ADD SWAP1 DUP2 MSTORE PUSH1 0x20 ADD PUSH1 0x0 KECCAK256 PUSH1 0x40 MLOAD DUP1 PUSH1 0xE0 ADD PUSH1 0x40 MSTORE SWAP1 DUP2 PUSH1 0x0 DUP3 ADD PUSH1 0x0 SWAP1 SLOAD SWAP1 PUSH2 0x100 EXP SWAP1 DIV PUSH1 0x1 SIGNEXTEND PUSH1 0x1 SIGNEXTEND PUSH1 0x1 SIGNEXTEND DUP2 MSTORE PUSH1 0x20 ADD PUSH1 0x0 DUP3 ADD PUSH1 0x2 SWAP1 SLOAD SWAP1 PUSH2 0x100 EXP SWAP1 DIV PUSH1 0x1 SIGNEXTEND PUSH1 0x1 SIGNEXTEND PUSH1 0x1 SIGNEXTEND DUP2 MSTORE PUSH1 0x20 ADD PUSH1 0x0 DUP3 ADD PUSH1 0x4 SWAP1 SLOAD SWAP1 PUSH2 0x100 EXP SWAP1 DIV PUSH20 0xFFFFFFFFFFFFFFFFFFFFFFFFFFFFFFFFFFFFFFFF AND PUSH20 0xFFFFFFFFFFFFFFFFFFFFFFFFFFFFFFFFFFFFFFFF AND PUSH20 0xFFFFFFFFFFFFFFFFFFFFFFFFFFFFFFFFFFFFFFFF AND DUP2 MSTORE PUSH1 0x20 ADD PUSH1 0x0 DUP3 ADD PUSH1 0x18 SWAP1 SLOAD SWAP1 PUSH2 0x100 EXP SWAP1 DIV PUSH4 0xFFFFFFFF AND PUSH4 0xFFFFFFFF AND PUSH4 0xFFFFFFFF AND DUP2 MSTORE PUSH1 0x20 ADD PUSH1 0x1 DUP3 ADD SLOAD DUP2 MSTORE PUSH1 0x20 ADD PUSH1 0x2 DUP3 ADD SLOAD DUP2 MSTORE PUSH1 0x20 ADD PUSH1 0x3 DUP3 ADD SLOAD DUP2 MSTORE POP POP SWAP1 POP SWAP1 JUMP JUMPDEST PUSH1 0x8 PUSH1 0x20 MSTORE DUP1 PUSH1 0x0 MSTORE PUSH1 0x40 PUSH1 0x0 KECCAK256 PUSH1 0x0 SWAP2 POP SWAP1 POP SLOAD DUP2 JUMP JUMPDEST PUSH1 0x0 PUSH1 0x9 DUP1 SLOAD SWAP1 POP SWAP1 POP SWAP1 JUMP JUMPDEST PUSH1 0x0 PUSH1 0x1 ISZERO ISZERO PUSH1 0x4 PUSH1 0x0 DUP5 PUSH20 0xFFFFFFFFFFFFFFFFFFFFFFFFFFFFFFFFFFFFFFFF AND PUSH20 0xFFFFFFFFFFFFFFFFFFFFFFFFFFFFFFFFFFFFFFFF AND DUP2 MSTORE PUSH1 0x20 ADD SWAP1 DUP2 MSTORE PUSH1 0x20 ADD PUSH1 0x0 KECCAK256 PUSH1 0x0 SWAP1 SLOAD SWAP1 PUSH2 0x100 EXP SWAP1 DIV PUSH1 0xFF AND ISZERO ISZERO EQ ISZERO PUSH2 0x1314 JUMPI PUSH1 0x1 SWAP1 POP PUSH2 0x1319 JUMP JUMPDEST PUSH1 0x0 SWAP1 POP JUMPDEST SWAP2 SWAP1 POP JUMP JUMPDEST PUSH1 0x40 MLOAD DUP1 PUSH1 0xE0 ADD PUSH1 0x40 MSTORE DUP1 PUSH1 0x0 PUSH1 0x1 SIGNEXTEND DUP2 MSTORE PUSH1 0x20 ADD PUSH1 0x0 PUSH1 0x1 SIGNEXTEND DUP2 MSTORE PUSH1 0x20 ADD PUSH1 0x0 PUSH20 0xFFFFFFFFFFFFFFFFFFFFFFFFFFFFFFFFFFFFFFFF AND DUP2 MSTORE PUSH1 0x20 ADD PUSH1 0x0 PUSH4 0xFFFFFFFF AND DUP2 MSTORE PUSH1 0x20 ADD PUSH1 0x0 DUP1 NOT AND DUP2 MSTORE PUSH1 0x20 ADD PUSH1 0x0 DUP1 NOT AND DUP2 MSTORE PUSH1 0x20 ADD PUSH1 0x0 DUP1 NOT AND DUP2 MSTORE POP SWAP1 JUMP JUMPDEST PUSH1 0x0 DUP2 CALLDATALOAD SWAP1 POP PUSH2 0x1395 DUP2 PUSH2 0x39E1 JUMP JUMPDEST SWAP3 SWAP2 POP POP JUMP JUMPDEST PUSH1 0x0 DUP3 PUSH1 0x1F DUP4 ADD SLT PUSH2 0x13AC JUMPI PUSH1 0x0 DUP1 REVERT JUMPDEST DUP2 CALLDATALOAD PUSH2 0x13BF PUSH2 0x13BA DUP3 PUSH2 0x348F JUMP JUMPDEST PUSH2 0x3462 JUMP JUMPDEST SWAP2 POP DUP2 DUP2 DUP4 MSTORE PUSH1 0x20 DUP5 ADD SWAP4 POP PUSH1 0x20 DUP2 ADD SWAP1 POP DUP4 DUP6 PUSH1 0x20 DUP5 MUL DUP3 ADD GT ISZERO PUSH2 0x13E4 JUMPI PUSH1 0x0 DUP1 REVERT JUMPDEST PUSH1 0x0 JUMPDEST DUP4 DUP2 LT ISZERO PUSH2 0x1414 JUMPI DUP2 PUSH2 0x13FA DUP9 DUP3 PUSH2 0x1386 JUMP JUMPDEST DUP5 MSTORE PUSH1 0x20 DUP5 ADD SWAP4 POP PUSH1 0x20 DUP4 ADD SWAP3 POP POP PUSH1 0x1 DUP2 ADD SWAP1 POP PUSH2 0x13E7 JUMP JUMPDEST POP POP POP POP SWAP3 SWAP2 POP POP JUMP JUMPDEST PUSH1 0x0 DUP3 PUSH1 0x1F DUP4 ADD SLT PUSH2 0x142F JUMPI PUSH1 0x0 DUP1 REVERT JUMPDEST DUP2 CALLDATALOAD PUSH2 0x1442 PUSH2 0x143D DUP3 PUSH2 0x34B7 JUMP JUMPDEST PUSH2 0x3462 JUMP JUMPDEST SWAP2 POP DUP2 DUP2 DUP4 MSTORE PUSH1 0x20 DUP5 ADD SWAP4 POP PUSH1 0x20 DUP2 ADD SWAP1 POP DUP4 DUP6 PUSH1 0x20 DUP5 MUL DUP3 ADD GT ISZERO PUSH2 0x1467 JUMPI PUSH1 0x0 DUP1 REVERT JUMPDEST PUSH1 0x0 JUMPDEST DUP4 DUP2 LT ISZERO PUSH2 0x1497 JUMPI DUP2 PUSH2 0x147D DUP9 DUP3 PUSH2 0x189B JUMP JUMPDEST DUP5 MSTORE PUSH1 0x20 DUP5 ADD SWAP4 POP PUSH1 0x20 DUP4 ADD SWAP3 POP POP PUSH1 0x1 DUP2 ADD SWAP1 POP PUSH2 0x146A JUMP JUMPDEST POP POP POP POP SWAP3 SWAP2 POP POP JUMP JUMPDEST PUSH1 0x0 DUP3 PUSH1 0x1F DUP4 ADD SLT PUSH2 0x14B2 JUMPI PUSH1 0x0 DUP1 REVERT JUMPDEST DUP2 CALLDATALOAD PUSH2 0x14C5 PUSH2 0x14C0 DUP3 PUSH2 0x34DF JUMP JUMPDEST PUSH2 0x3462 JUMP JUMPDEST SWAP2 POP DUP2 DUP2 DUP4 MSTORE PUSH1 0x20 DUP5 ADD SWAP4 POP PUSH1 0x20 DUP2 ADD SWAP1 POP DUP4 DUP6 PUSH1 0x20 DUP5 MUL DUP3 ADD GT ISZERO PUSH2 0x14EA JUMPI PUSH1 0x0 DUP1 REVERT JUMPDEST PUSH1 0x0 JUMPDEST DUP4 DUP2 LT ISZERO PUSH2 0x151A JUMPI DUP2 PUSH2 0x1500 DUP9 DUP3 PUSH2 0x192E JUMP JUMPDEST DUP5 MSTORE PUSH1 0x20 DUP5 ADD SWAP4 POP PUSH1 0x20 DUP4 ADD SWAP3 POP POP PUSH1 0x1 DUP2 ADD SWAP1 POP PUSH2 0x14ED JUMP JUMPDEST POP POP POP POP SWAP3 SWAP2 POP POP JUMP JUMPDEST PUSH1 0x0 DUP3 PUSH1 0x1F DUP4 ADD SLT PUSH2 0x1535 JUMPI PUSH1 0x0 DUP1 REVERT JUMPDEST DUP2 CALLDATALOAD PUSH2 0x1548 PUSH2 0x1543 DUP3 PUSH2 0x3507 JUMP JUMPDEST PUSH2 0x3462 JUMP JUMPDEST SWAP2 POP DUP2 DUP2 DUP4 MSTORE PUSH1 0x20 DUP5 ADD SWAP4 POP PUSH1 0x20 DUP2 ADD SWAP1 POP DUP4 DUP6 PUSH1 0x20 DUP5 MUL DUP3 ADD GT ISZERO PUSH2 0x156D JUMPI PUSH1 0x0 DUP1 REVERT JUMPDEST PUSH1 0x0 JUMPDEST DUP4 DUP2 LT ISZERO PUSH2 0x159D JUMPI DUP2 PUSH2 0x1583 DUP9 DUP3 PUSH2 0x1943 JUMP JUMPDEST DUP5 MSTORE PUSH1 0x20 DUP5 ADD SWAP4 POP PUSH1 0x20 DUP4 ADD SWAP3 POP POP PUSH1 0x1 DUP2 ADD SWAP1 POP PUSH2 0x1570 JUMP JUMPDEST POP POP POP POP SWAP3 SWAP2 POP POP JUMP JUMPDEST PUSH1 0x0 DUP3 PUSH1 0x1F DUP4 ADD SLT PUSH2 0x15B8 JUMPI PUSH1 0x0 DUP1 REVERT JUMPDEST DUP2 CALLDATALOAD PUSH2 0x15CB PUSH2 0x15C6 DUP3 PUSH2 0x352F JUMP JUMPDEST PUSH2 0x3462 JUMP JUMPDEST SWAP2 POP DUP2 DUP2 DUP4 MSTORE PUSH1 0x20 DUP5 ADD SWAP4 POP PUSH1 0x20 DUP2 ADD SWAP1 POP DUP4 PUSH1 0x0 JUMPDEST DUP4 DUP2 LT ISZERO PUSH2 0x1611 JUMPI DUP2 CALLDATALOAD DUP7 ADD PUSH2 0x15F7 DUP9 DUP3 PUSH2 0x1C98 JUMP JUMPDEST DUP5 MSTORE PUSH1 0x20 DUP5 ADD SWAP4 POP PUSH1 0x20 DUP4 ADD SWAP3 POP POP PUSH1 0x1 DUP2 ADD SWAP1 POP PUSH2 0x15E1 JUMP JUMPDEST POP POP POP POP SWAP3 SWAP2 POP POP JUMP JUMPDEST PUSH1 0x0 DUP3 PUSH1 0x1F DUP4 ADD SLT PUSH2 0x162C JUMPI PUSH1 0x0 DUP1 REVERT JUMPDEST DUP2 CALLDATALOAD PUSH2 0x163F PUSH2 0x163A DUP3 PUSH2 0x3557 JUMP JUMPDEST PUSH2 0x3462 JUMP JUMPDEST SWAP2 POP DUP2 DUP2 DUP4 MSTORE PUSH1 0x20 DUP5 ADD SWAP4 POP PUSH1 0x20 DUP2 ADD SWAP1 POP DUP4 DUP6 PUSH1 0xE0 DUP5 MUL DUP3 ADD GT ISZERO PUSH2 0x1664 JUMPI PUSH1 0x0 DUP1 REVERT JUMPDEST PUSH1 0x0 JUMPDEST DUP4 DUP2 LT ISZERO PUSH2 0x1694 JUMPI DUP2 PUSH2 0x167A DUP9 DUP3 PUSH2 0x1E7B JUMP JUMPDEST DUP5 MSTORE PUSH1 0x20 DUP5 ADD SWAP4 POP PUSH1 0xE0 DUP4 ADD SWAP3 POP POP PUSH1 0x1 DUP2 ADD SWAP1 POP PUSH2 0x1667 JUMP JUMPDEST POP POP POP POP SWAP3 SWAP2 POP POP JUMP JUMPDEST PUSH1 0x0 DUP3 PUSH1 0x1F DUP4 ADD SLT PUSH2 0x16AF JUMPI PUSH1 0x0 DUP1 REVERT JUMPDEST DUP2 CALLDATALOAD PUSH2 0x16C2 PUSH2 0x16BD DUP3 PUSH2 0x357F JUMP JUMPDEST PUSH2 0x3462 JUMP JUMPDEST SWAP2 POP DUP2 DUP2 DUP4 MSTORE PUSH1 0x20 DUP5 ADD SWAP4 POP PUSH1 0x20 DUP2 ADD SWAP1 POP DUP4 PUSH1 0x0 JUMPDEST DUP4 DUP2 LT ISZERO PUSH2 0x1708 JUMPI DUP2 CALLDATALOAD DUP7 ADD PUSH2 0x16EE DUP9 DUP3 PUSH2 0x1FC3 JUMP JUMPDEST DUP5 MSTORE PUSH1 0x20 DUP5 ADD SWAP4 POP PUSH1 0x20 DUP4 ADD SWAP3 POP POP PUSH1 0x1 DUP2 ADD SWAP1 POP PUSH2 0x16D8 JUMP JUMPDEST POP POP POP POP SWAP3 SWAP2 POP POP JUMP JUMPDEST PUSH1 0x0 DUP3 PUSH1 0x1F DUP4 ADD SLT PUSH2 0x1723 JUMPI PUSH1 0x0 DUP1 REVERT JUMPDEST DUP2 CALLDATALOAD PUSH2 0x1736 PUSH2 0x1731 DUP3 PUSH2 0x35A7 JUMP JUMPDEST PUSH2 0x3462 JUMP JUMPDEST SWAP2 POP DUP2 DUP2 DUP4 MSTORE PUSH1 0x20 DUP5 ADD SWAP4 POP PUSH1 0x20 DUP2 ADD SWAP1 POP DUP4 DUP6 PUSH1 0x20 DUP5 MUL DUP3 ADD GT ISZERO PUSH2 0x175B JUMPI PUSH1 0x0 DUP1 REVERT JUMPDEST PUSH1 0x0 JUMPDEST DUP4 DUP2 LT ISZERO PUSH2 0x178B JUMPI DUP2 PUSH2 0x1771 DUP9 DUP3 PUSH2 0x203C JUMP JUMPDEST DUP5 MSTORE PUSH1 0x20 DUP5 ADD SWAP4 POP PUSH1 0x20 DUP4 ADD SWAP3 POP POP PUSH1 0x1 DUP2 ADD SWAP1 POP PUSH2 0x175E JUMP JUMPDEST POP POP POP POP SWAP3 SWAP2 POP POP JUMP JUMPDEST PUSH1 0x0 DUP3 PUSH1 0x1F DUP4 ADD SLT PUSH2 0x17A6 JUMPI PUSH1 0x0 DUP1 REVERT JUMPDEST DUP2 CALLDATALOAD PUSH2 0x17B9 PUSH2 0x17B4 DUP3 PUSH2 0x35CF JUMP JUMPDEST PUSH2 0x3462 JUMP JUMPDEST SWAP2 POP DUP2 DUP2 DUP4 MSTORE PUSH1 0x20 DUP5 ADD SWAP4 POP PUSH1 0x20 DUP2 ADD SWAP1 POP DUP4 DUP6 PUSH1 0x20 DUP5 MUL DUP3 ADD GT ISZERO PUSH2 0x17DE JUMPI PUSH1 0x0 DUP1 REVERT JUMPDEST PUSH1 0x0 JUMPDEST DUP4 DUP2 LT ISZERO PUSH2 0x180E JUMPI DUP2 PUSH2 0x17F4 DUP9 DUP3 PUSH2 0x2066 JUMP JUMPDEST DUP5 MSTORE PUSH1 0x20 DUP5 ADD SWAP4 POP PUSH1 0x20 DUP4 ADD SWAP3 POP POP PUSH1 0x1 DUP2 ADD SWAP1 POP PUSH2 0x17E1 JUMP JUMPDEST POP POP POP POP SWAP3 SWAP2 POP POP JUMP JUMPDEST PUSH1 0x0 DUP3 PUSH1 0x1F DUP4 ADD SLT PUSH2 0x1829 JUMPI PUSH1 0x0 DUP1 REVERT JUMPDEST DUP2 CALLDATALOAD PUSH2 0x183C PUSH2 0x1837 DUP3 PUSH2 0x35F7 JUMP JUMPDEST PUSH2 0x3462 JUMP JUMPDEST SWAP2 POP DUP2 DUP2 DUP4 MSTORE PUSH1 0x20 DUP5 ADD SWAP4 POP PUSH1 0x20 DUP2 ADD SWAP1 POP DUP4 DUP6 PUSH1 0x20 DUP5 MUL DUP3 ADD GT ISZERO PUSH2 0x1861 JUMPI PUSH1 0x0 DUP1 REVERT JUMPDEST PUSH1 0x0 JUMPDEST DUP4 DUP2 LT ISZERO PUSH2 0x1891 JUMPI DUP2 PUSH2 0x1877 DUP9 DUP3 PUSH2 0x207B JUMP JUMPDEST DUP5 MSTORE PUSH1 0x20 DUP5 ADD SWAP4 POP PUSH1 0x20 DUP4 ADD SWAP3 POP POP PUSH1 0x1 DUP2 ADD SWAP1 POP PUSH2 0x1864 JUMP JUMPDEST POP POP POP POP SWAP3 SWAP2 POP POP JUMP JUMPDEST PUSH1 0x0 DUP2 CALLDATALOAD SWAP1 POP PUSH2 0x18AA DUP2 PUSH2 0x39F8 JUMP JUMPDEST SWAP3 SWAP2 POP POP JUMP JUMPDEST PUSH1 0x0 DUP2 MLOAD SWAP1 POP PUSH2 0x18BF DUP2 PUSH2 0x39F8 JUMP JUMPDEST SWAP3 SWAP2 POP POP JUMP JUMPDEST PUSH1 0x0 DUP3 PUSH1 0x1F DUP4 ADD SLT PUSH2 0x18D6 JUMPI PUSH1 0x0 DUP1 REVERT JUMPDEST DUP2 MLOAD PUSH2 0x18E9 PUSH2 0x18E4 DUP3 PUSH2 0x361F JUMP JUMPDEST PUSH2 0x3462 JUMP JUMPDEST SWAP2 POP DUP1 DUP3 MSTORE PUSH1 0x20 DUP4 ADD PUSH1 0x20 DUP4 ADD DUP6 DUP4 DUP4 ADD GT ISZERO PUSH2 0x1905 JUMPI PUSH1 0x0 DUP1 REVERT JUMPDEST PUSH2 0x1910 DUP4 DUP3 DUP5 PUSH2 0x3939 JUMP JUMPDEST POP POP POP SWAP3 SWAP2 POP POP JUMP JUMPDEST PUSH1 0x0 DUP2 CALLDATALOAD SWAP1 POP PUSH2 0x1928 DUP2 PUSH2 0x3A0F JUMP JUMPDEST SWAP3 SWAP2 POP POP JUMP JUMPDEST PUSH1 0x0 DUP2 CALLDATALOAD SWAP1 POP PUSH2 0x193D DUP2 PUSH2 0x3A26 JUMP JUMPDEST SWAP3 SWAP2 POP POP JUMP JUMPDEST PUSH1 0x0 DUP2 CALLDATALOAD SWAP1 POP PUSH2 0x1952 DUP2 PUSH2 0x3A3D JUMP JUMPDEST SWAP3 SWAP2 POP POP JUMP JUMPDEST PUSH1 0x0 DUP3 PUSH1 0x1F DUP4 ADD SLT PUSH2 0x1969 JUMPI PUSH1 0x0 DUP1 REVERT JUMPDEST DUP2 CALLDATALOAD PUSH2 0x197C PUSH2 0x1977 DUP3 PUSH2 0x364B JUMP JUMPDEST PUSH2 0x3462 JUMP JUMPDEST SWAP2 POP DUP1 DUP3 MSTORE PUSH1 0x20 DUP4 ADD PUSH1 0x20 DUP4 ADD DUP6 DUP4 DUP4 ADD GT ISZERO PUSH2 0x1998 JUMPI PUSH1 0x0 DUP1 REVERT JUMPDEST PUSH2 0x19A3 DUP4 DUP3 DUP5 PUSH2 0x392A JUMP JUMPDEST POP POP POP SWAP3 SWAP2 POP POP JUMP JUMPDEST PUSH1 0x0 PUSH2 0x2A0 DUP3 DUP5 SUB SLT ISZERO PUSH2 0x19BF JUMPI PUSH1 0x0 DUP1 REVERT JUMPDEST PUSH2 0x19CA PUSH2 0x2A0 PUSH2 0x3462 JUMP JUMPDEST SWAP1 POP PUSH1 0x0 PUSH2 0x19DA DUP5 DUP3 DUP6 ADD PUSH2 0x2027 JUMP JUMPDEST PUSH1 0x0 DUP4 ADD MSTORE POP PUSH1 0x20 PUSH2 0x19EE DUP5 DUP3 DUP6 ADD PUSH2 0x2027 JUMP JUMPDEST PUSH1 0x20 DUP4 ADD MSTORE POP PUSH1 0x40 PUSH2 0x1A02 DUP5 DUP3 DUP6 ADD PUSH2 0x1386 JUMP JUMPDEST PUSH1 0x40 DUP4 ADD MSTORE POP PUSH1 0x60 DUP3 ADD CALLDATALOAD PUSH8 0xFFFFFFFFFFFFFFFF DUP2 GT ISZERO PUSH2 0x1A22 JUMPI PUSH1 0x0 DUP1 REVERT JUMPDEST PUSH2 0x1A2E DUP5 DUP3 DUP6 ADD PUSH2 0x1712 JUMP JUMPDEST PUSH1 0x60 DUP4 ADD MSTORE POP PUSH1 0x80 DUP3 ADD CALLDATALOAD PUSH8 0xFFFFFFFFFFFFFFFF DUP2 GT ISZERO PUSH2 0x1A4E JUMPI PUSH1 0x0 DUP1 REVERT JUMPDEST PUSH2 0x1A5A DUP5 DUP3 DUP6 ADD PUSH2 0x14A1 JUMP JUMPDEST PUSH1 0x80 DUP4 ADD MSTORE POP PUSH1 0xA0 DUP3 ADD CALLDATALOAD PUSH8 0xFFFFFFFFFFFFFFFF DUP2 GT ISZERO PUSH2 0x1A7A JUMPI PUSH1 0x0 DUP1 REVERT JUMPDEST PUSH2 0x1A86 DUP5 DUP3 DUP6 ADD PUSH2 0x1524 JUMP JUMPDEST PUSH1 0xA0 DUP4 ADD MSTORE POP PUSH1 0xC0 PUSH2 0x1A9A DUP5 DUP3 DUP6 ADD PUSH2 0x1943 JUMP JUMPDEST PUSH1 0xC0 DUP4 ADD MSTORE POP PUSH1 0xE0 PUSH2 0x1AAE DUP5 DUP3 DUP6 ADD PUSH2 0x1943 JUMP JUMPDEST PUSH1 0xE0 DUP4 ADD MSTORE POP PUSH2 0x100 PUSH2 0x1AC3 DUP5 DUP3 DUP6 ADD PUSH2 0x1943 JUMP JUMPDEST PUSH2 0x100 DUP4 ADD MSTORE POP PUSH2 0x120 PUSH2 0x1AD9 DUP5 DUP3 DUP6 ADD PUSH2 0x1943 JUMP JUMPDEST PUSH2 0x120 DUP4 ADD MSTORE POP PUSH2 0x140 PUSH2 0x1AEF DUP5 DUP3 DUP6 ADD PUSH2 0x1943 JUMP JUMPDEST PUSH2 0x140 DUP4 ADD MSTORE POP PUSH2 0x160 PUSH2 0x1B05 DUP5 DUP3 DUP6 ADD PUSH2 0x1943 JUMP JUMPDEST PUSH2 0x160 DUP4 ADD MSTORE POP PUSH2 0x180 PUSH2 0x1B1B DUP5 DUP3 DUP6 ADD PUSH2 0x1943 JUMP JUMPDEST PUSH2 0x180 DUP4 ADD MSTORE POP PUSH2 0x1A0 DUP3 ADD CALLDATALOAD PUSH8 0xFFFFFFFFFFFFFFFF DUP2 GT ISZERO PUSH2 0x1B3D JUMPI PUSH1 0x0 DUP1 REVERT JUMPDEST PUSH2 0x1B49 DUP5 DUP3 DUP6 ADD PUSH2 0x1524 JUMP JUMPDEST PUSH2 0x1A0 DUP4 ADD MSTORE POP PUSH2 0x1C0 DUP3 ADD CALLDATALOAD PUSH8 0xFFFFFFFFFFFFFFFF DUP2 GT ISZERO PUSH2 0x1B6B JUMPI PUSH1 0x0 DUP1 REVERT JUMPDEST PUSH2 0x1B77 DUP5 DUP3 DUP6 ADD PUSH2 0x1524 JUMP JUMPDEST PUSH2 0x1C0 DUP4 ADD MSTORE POP PUSH2 0x1E0 DUP3 ADD CALLDATALOAD PUSH8 0xFFFFFFFFFFFFFFFF DUP2 GT ISZERO PUSH2 0x1B99 JUMPI PUSH1 0x0 DUP1 REVERT JUMPDEST PUSH2 0x1BA5 DUP5 DUP3 DUP6 ADD PUSH2 0x1524 JUMP JUMPDEST PUSH2 0x1E0 DUP4 ADD MSTORE POP PUSH2 0x200 DUP3 ADD CALLDATALOAD PUSH8 0xFFFFFFFFFFFFFFFF DUP2 GT ISZERO PUSH2 0x1BC7 JUMPI PUSH1 0x0 DUP1 REVERT JUMPDEST PUSH2 0x1BD3 DUP5 DUP3 DUP6 ADD PUSH2 0x1524 JUMP JUMPDEST PUSH2 0x200 DUP4 ADD MSTORE POP PUSH2 0x220 DUP3 ADD CALLDATALOAD PUSH8 0xFFFFFFFFFFFFFFFF DUP2 GT ISZERO PUSH2 0x1BF5 JUMPI PUSH1 0x0 DUP1 REVERT JUMPDEST PUSH2 0x1C01 DUP5 DUP3 DUP6 ADD PUSH2 0x1524 JUMP JUMPDEST PUSH2 0x220 DUP4 ADD MSTORE POP PUSH2 0x240 DUP3 ADD CALLDATALOAD PUSH8 0xFFFFFFFFFFFFFFFF DUP2 GT ISZERO PUSH2 0x1C23 JUMPI PUSH1 0x0 DUP1 REVERT JUMPDEST PUSH2 0x1C2F DUP5 DUP3 DUP6 ADD PUSH2 0x1524 JUMP JUMPDEST PUSH2 0x240 DUP4 ADD MSTORE POP PUSH2 0x260 DUP3 ADD CALLDATALOAD PUSH8 0xFFFFFFFFFFFFFFFF DUP2 GT ISZERO PUSH2 0x1C51 JUMPI PUSH1 0x0 DUP1 REVERT JUMPDEST PUSH2 0x1C5D DUP5 DUP3 DUP6 ADD PUSH2 0x14A1 JUMP JUMPDEST PUSH2 0x260 DUP4 ADD MSTORE POP PUSH2 0x280 DUP3 ADD CALLDATALOAD PUSH8 0xFFFFFFFFFFFFFFFF DUP2 GT ISZERO PUSH2 0x1C7F JUMPI PUSH1 0x0 DUP1 REVERT JUMPDEST PUSH2 0x1C8B DUP5 DUP3 DUP6 ADD PUSH2 0x1524 JUMP JUMPDEST PUSH2 0x280 DUP4 ADD MSTORE POP SWAP3 SWAP2 POP POP JUMP JUMPDEST PUSH1 0x0 PUSH1 0x40 DUP3 DUP5 SUB SLT ISZERO PUSH2 0x1CAA JUMPI PUSH1 0x0 DUP1 REVERT JUMPDEST PUSH2 0x1CB4 PUSH1 0x40 PUSH2 0x3462 JUMP JUMPDEST SWAP1 POP PUSH1 0x0 DUP3 ADD CALLDATALOAD PUSH8 0xFFFFFFFFFFFFFFFF DUP2 GT ISZERO PUSH2 0x1CD0 JUMPI PUSH1 0x0 DUP1 REVERT JUMPDEST PUSH2 0x1CDC DUP5 DUP3 DUP6 ADD PUSH2 0x1958 JUMP JUMPDEST PUSH1 0x0 DUP4 ADD MSTORE POP PUSH1 0x20 PUSH2 0x1CF0 DUP5 DUP3 DUP6 ADD PUSH2 0x1386 JUMP JUMPDEST PUSH1 0x20 DUP4 ADD MSTORE POP SWAP3 SWAP2 POP POP JUMP JUMPDEST PUSH1 0x0 PUSH2 0x1C0 DUP3 DUP5 SUB SLT ISZERO PUSH2 0x1D0F JUMPI PUSH1 0x0 DUP1 REVERT JUMPDEST PUSH2 0x1D1A PUSH2 0x180 PUSH2 0x3462 JUMP JUMPDEST SWAP1 POP PUSH1 0x0 PUSH2 0x1D2A DUP5 DUP3 DUP6 ADD PUSH2 0x2066 JUMP JUMPDEST PUSH1 0x0 DUP4 ADD MSTORE POP PUSH1 0x20 PUSH2 0x1D3E DUP5 DUP3 DUP6 ADD PUSH2 0x2066 JUMP JUMPDEST PUSH1 0x20 DUP4 ADD MSTORE POP PUSH1 0x40 PUSH2 0x1D52 DUP5 DUP3 DUP6 ADD PUSH2 0x1F2B JUMP JUMPDEST PUSH1 0x40 DUP4 ADD MSTORE POP PUSH1 0x80 PUSH2 0x1D66 DUP5 DUP3 DUP6 ADD PUSH2 0x1386 JUMP JUMPDEST PUSH1 0x60 DUP4 ADD MSTORE POP PUSH1 0xA0 DUP3 ADD CALLDATALOAD PUSH8 0xFFFFFFFFFFFFFFFF DUP2 GT ISZERO PUSH2 0x1D86 JUMPI PUSH1 0x0 DUP1 REVERT JUMPDEST PUSH2 0x1D92 DUP5 DUP3 DUP6 ADD PUSH2 0x19AC JUMP JUMPDEST PUSH1 0x80 DUP4 ADD MSTORE POP PUSH1 0xC0 PUSH2 0x1DA6 DUP5 DUP3 DUP6 ADD PUSH2 0x2066 JUMP JUMPDEST PUSH1 0xA0 DUP4 ADD MSTORE POP PUSH1 0xE0 PUSH2 0x1DBA DUP5 DUP3 DUP6 ADD PUSH2 0x1F77 JUMP JUMPDEST PUSH1 0xC0 DUP4 ADD MSTORE POP PUSH2 0x120 PUSH2 0x1DCF DUP5 DUP3 DUP6 ADD PUSH2 0x189B JUMP JUMPDEST PUSH1 0xE0 DUP4 ADD MSTORE POP PUSH2 0x140 PUSH2 0x1DE4 DUP5 DUP3 DUP6 ADD PUSH2 0x2066 JUMP JUMPDEST PUSH2 0x100 DUP4 ADD MSTORE POP PUSH2 0x160 DUP3 ADD CALLDATALOAD PUSH8 0xFFFFFFFFFFFFFFFF DUP2 GT ISZERO PUSH2 0x1E06 JUMPI PUSH1 0x0 DUP1 REVERT JUMPDEST PUSH2 0x1E12 DUP5 DUP3 DUP6 ADD PUSH2 0x169E JUMP JUMPDEST PUSH2 0x120 DUP4 ADD MSTORE POP PUSH2 0x180 DUP3 ADD CALLDATALOAD PUSH8 0xFFFFFFFFFFFFFFFF DUP2 GT ISZERO PUSH2 0x1E34 JUMPI PUSH1 0x0 DUP1 REVERT JUMPDEST PUSH2 0x1E40 DUP5 DUP3 DUP6 ADD PUSH2 0x161B JUMP JUMPDEST PUSH2 0x140 DUP4 ADD MSTORE POP PUSH2 0x1A0 DUP3 ADD CALLDATALOAD PUSH8 0xFFFFFFFFFFFFFFFF DUP2 GT ISZERO PUSH2 0x1E62 JUMPI PUSH1 0x0 DUP1 REVERT JUMPDEST PUSH2 0x1E6E DUP5 DUP3 DUP6 ADD PUSH2 0x15A7 JUMP JUMPDEST PUSH2 0x160 DUP4 ADD MSTORE POP SWAP3 SWAP2 POP POP JUMP JUMPDEST PUSH1 0x0 PUSH1 0xE0 DUP3 DUP5 SUB SLT ISZERO PUSH2 0x1E8D JUMPI PUSH1 0x0 DUP1 REVERT JUMPDEST PUSH2 0x1E97 PUSH1 0xE0 PUSH2 0x3462 JUMP JUMPDEST SWAP1 POP PUSH1 0x0 PUSH2 0x1EA7 DUP5 DUP3 DUP6 ADD PUSH2 0x1919 JUMP JUMPDEST PUSH1 0x0 DUP4 ADD MSTORE POP PUSH1 0x20 PUSH2 0x1EBB DUP5 DUP3 DUP6 ADD PUSH2 0x1919 JUMP JUMPDEST PUSH1 0x20 DUP4 ADD MSTORE POP PUSH1 0x40 PUSH2 0x1ECF DUP5 DUP3 DUP6 ADD PUSH2 0x1386 JUMP JUMPDEST PUSH1 0x40 DUP4 ADD MSTORE POP PUSH1 0x60 PUSH2 0x1EE3 DUP5 DUP3 DUP6 ADD PUSH2 0x2066 JUMP JUMPDEST PUSH1 0x60 DUP4 ADD MSTORE POP PUSH1 0x80 PUSH2 0x1EF7 DUP5 DUP3 DUP6 ADD PUSH2 0x189B JUMP JUMPDEST PUSH1 0x80 DUP4 ADD MSTORE POP PUSH1 0xA0 PUSH2 0x1F0B DUP5 DUP3 DUP6 ADD PUSH2 0x189B JUMP JUMPDEST PUSH1 0xA0 DUP4 ADD MSTORE POP PUSH1 0xC0 PUSH2 0x1F1F DUP5 DUP3 DUP6 ADD PUSH2 0x189B JUMP JUMPDEST PUSH1 0xC0 DUP4 ADD MSTORE POP SWAP3 SWAP2 POP POP JUMP JUMPDEST PUSH1 0x0 PUSH1 0x40 DUP3 DUP5 SUB SLT ISZERO PUSH2 0x1F3D JUMPI PUSH1 0x0 DUP1 REVERT JUMPDEST PUSH2 0x1F47 PUSH1 0x40 PUSH2 0x3462 JUMP JUMPDEST SWAP1 POP PUSH1 0x0 PUSH2 0x1F57 DUP5 DUP3 DUP6 ADD PUSH2 0x207B JUMP JUMPDEST PUSH1 0x0 DUP4 ADD MSTORE POP PUSH1 0x20 PUSH2 0x1F6B DUP5 DUP3 DUP6 ADD PUSH2 0x1386 JUMP JUMPDEST PUSH1 0x20 DUP4 ADD MSTORE POP SWAP3 SWAP2 POP POP JUMP JUMPDEST PUSH1 0x0 PUSH1 0x40 DUP3 DUP5 SUB SLT ISZERO PUSH2 0x1F89 JUMPI PUSH1 0x0 DUP1 REVERT JUMPDEST PUSH2 0x1F93 PUSH1 0x40 PUSH2 0x3462 JUMP JUMPDEST SWAP1 POP PUSH1 0x0 PUSH2 0x1FA3 DUP5 DUP3 DUP6 ADD PUSH2 0x189B JUMP JUMPDEST PUSH1 0x0 DUP4 ADD MSTORE POP PUSH1 0x20 PUSH2 0x1FB7 DUP5 DUP3 DUP6 ADD PUSH2 0x2066 JUMP JUMPDEST PUSH1 0x20 DUP4 ADD MSTORE POP SWAP3 SWAP2 POP POP JUMP JUMPDEST PUSH1 0x0 PUSH1 0x40 DUP3 DUP5 SUB SLT ISZERO PUSH2 0x1FD5 JUMPI PUSH1 0x0 DUP1 REVERT JUMPDEST PUSH2 0x1FDF PUSH1 0x40 PUSH2 0x3462 JUMP JUMPDEST SWAP1 POP PUSH1 0x0 PUSH2 0x1FEF DUP5 DUP3 DUP6 ADD PUSH2 0x1386 JUMP JUMPDEST PUSH1 0x0 DUP4 ADD MSTORE POP PUSH1 0x20 DUP3 ADD CALLDATALOAD PUSH8 0xFFFFFFFFFFFFFFFF DUP2 GT ISZERO PUSH2 0x200F JUMPI PUSH1 0x0 DUP1 REVERT JUMPDEST PUSH2 0x201B DUP5 DUP3 DUP6 ADD PUSH2 0x19AC JUMP JUMPDEST PUSH1 0x20 DUP4 ADD MSTORE POP SWAP3 SWAP2 POP POP JUMP JUMPDEST PUSH1 0x0 DUP2 CALLDATALOAD SWAP1 POP PUSH2 0x2036 DUP2 PUSH2 0x3A54 JUMP JUMPDEST SWAP3 SWAP2 POP POP JUMP JUMPDEST PUSH1 0x0 DUP2 CALLDATALOAD SWAP1 POP PUSH2 0x204B DUP2 PUSH2 0x3A6B JUMP JUMPDEST SWAP3 SWAP2 POP POP JUMP JUMPDEST PUSH1 0x0 DUP2 CALLDATALOAD SWAP1 POP PUSH2 0x2060 DUP2 PUSH2 0x3A82 JUMP JUMPDEST SWAP3 SWAP2 POP POP JUMP JUMPDEST PUSH1 0x0 DUP2 CALLDATALOAD SWAP1 POP PUSH2 0x2075 DUP2 PUSH2 0x3A99 JUMP JUMPDEST SWAP3 SWAP2 POP POP JUMP JUMPDEST PUSH1 0x0 DUP2 CALLDATALOAD SWAP1 POP PUSH2 0x208A DUP2 PUSH2 0x3AB0 JUMP JUMPDEST SWAP3 SWAP2 POP POP JUMP JUMPDEST PUSH1 0x0 PUSH1 0x20 DUP3 DUP5 SUB SLT ISZERO PUSH2 0x20A2 JUMPI PUSH1 0x0 DUP1 REVERT JUMPDEST PUSH1 0x0 PUSH2 0x20B0 DUP5 DUP3 DUP6 ADD PUSH2 0x1386 JUMP JUMPDEST SWAP2 POP POP SWAP3 SWAP2 POP POP JUMP JUMPDEST PUSH1 0x0 DUP1 PUSH1 0x0 DUP1 PUSH1 0x0 PUSH1 0xA0 DUP7 DUP9 SUB SLT ISZERO PUSH2 0x20D1 JUMPI PUSH1 0x0 DUP1 REVERT JUMPDEST PUSH1 0x0 PUSH2 0x20DF DUP9 DUP3 DUP10 ADD PUSH2 0x1386 JUMP JUMPDEST SWAP6 POP POP PUSH1 0x20 PUSH2 0x20F0 DUP9 DUP3 DUP10 ADD PUSH2 0x189B JUMP JUMPDEST SWAP5 POP POP PUSH1 0x40 DUP7 ADD CALLDATALOAD PUSH8 0xFFFFFFFFFFFFFFFF DUP2 GT ISZERO PUSH2 0x210D JUMPI PUSH1 0x0 DUP1 REVERT JUMPDEST PUSH2 0x2119 DUP9 DUP3 DUP10 ADD PUSH2 0x1818 JUMP JUMPDEST SWAP4 POP POP PUSH1 0x60 DUP7 ADD CALLDATALOAD PUSH8 0xFFFFFFFFFFFFFFFF DUP2 GT ISZERO PUSH2 0x2136 JUMPI PUSH1 0x0 DUP1 REVERT JUMPDEST PUSH2 0x2142 DUP9 DUP3 DUP10 ADD PUSH2 0x141E JUMP JUMPDEST SWAP3 POP POP PUSH1 0x80 DUP7 ADD CALLDATALOAD PUSH8 0xFFFFFFFFFFFFFFFF DUP2 GT ISZERO PUSH2 0x215F JUMPI PUSH1 0x0 DUP1 REVERT JUMPDEST PUSH2 0x216B DUP9 DUP3 DUP10 ADD PUSH2 0x141E JUMP JUMPDEST SWAP2 POP POP SWAP3 SWAP6 POP SWAP3 SWAP6 SWAP1 SWAP4 POP JUMP JUMPDEST PUSH1 0x0 PUSH1 0x20 DUP3 DUP5 SUB SLT ISZERO PUSH2 0x218A JUMPI PUSH1 0x0 DUP1 REVERT JUMPDEST PUSH1 0x0 PUSH2 0x2198 DUP5 DUP3 DUP6 ADD PUSH2 0x18B0 JUMP JUMPDEST SWAP2 POP POP SWAP3 SWAP2 POP POP JUMP JUMPDEST PUSH1 0x0 DUP1 PUSH1 0x0 DUP1 PUSH1 0x80 DUP6 DUP8 SUB SLT ISZERO PUSH2 0x21B7 JUMPI PUSH1 0x0 DUP1 REVERT JUMPDEST PUSH1 0x0 PUSH2 0x21C5 DUP8 DUP3 DUP9 ADD PUSH2 0x189B JUMP JUMPDEST SWAP5 POP POP PUSH1 0x20 DUP6 ADD CALLDATALOAD PUSH8 0xFFFFFFFFFFFFFFFF DUP2 GT ISZERO PUSH2 0x21E2 JUMPI PUSH1 0x0 DUP1 REVERT JUMPDEST PUSH2 0x21EE DUP8 DUP3 DUP9 ADD PUSH2 0x141E JUMP JUMPDEST SWAP4 POP POP PUSH1 0x40 DUP6 ADD CALLDATALOAD PUSH8 0xFFFFFFFFFFFFFFFF DUP2 GT ISZERO PUSH2 0x220B JUMPI PUSH1 0x0 DUP1 REVERT JUMPDEST PUSH2 0x2217 DUP8 DUP3 DUP9 ADD PUSH2 0x141E JUMP JUMPDEST SWAP3 POP POP PUSH1 0x60 DUP6 ADD CALLDATALOAD PUSH8 0xFFFFFFFFFFFFFFFF DUP2 GT ISZERO PUSH2 0x2234 JUMPI PUSH1 0x0 DUP1 REVERT JUMPDEST PUSH2 0x2240 DUP8 DUP3 DUP9 ADD PUSH2 0x1818 JUMP JUMPDEST SWAP2 POP POP SWAP3 SWAP6 SWAP2 SWAP5 POP SWAP3 POP JUMP JUMPDEST PUSH1 0x0 DUP1 PUSH1 0x0 DUP1 PUSH1 0x80 DUP6 DUP8 SUB SLT ISZERO PUSH2 0x2262 JUMPI PUSH1 0x0 DUP1 REVERT JUMPDEST PUSH1 0x0 PUSH2 0x2270 DUP8 DUP3 DUP9 ADD PUSH2 0x189B JUMP JUMPDEST SWAP5 POP POP PUSH1 0x20 PUSH2 0x2281 DUP8 DUP3 DUP9 ADD PUSH2 0x207B JUMP JUMPDEST SWAP4 POP POP PUSH1 0x40 PUSH2 0x2292 DUP8 DUP3 DUP9 ADD PUSH2 0x189B JUMP JUMPDEST SWAP3 POP POP PUSH1 0x60 PUSH2 0x22A3 DUP8 DUP3 DUP9 ADD PUSH2 0x189B JUMP JUMPDEST SWAP2 POP POP SWAP3 SWAP6 SWAP2 SWAP5 POP SWAP3 POP JUMP JUMPDEST PUSH1 0x0 PUSH1 0x20 DUP3 DUP5 SUB SLT ISZERO PUSH2 0x22C1 JUMPI PUSH1 0x0 DUP1 REVERT JUMPDEST PUSH1 0x0 DUP3 ADD MLOAD PUSH8 0xFFFFFFFFFFFFFFFF DUP2 GT ISZERO PUSH2 0x22DB JUMPI PUSH1 0x0 DUP1 REVERT JUMPDEST PUSH2 0x22E7 DUP5 DUP3 DUP6 ADD PUSH2 0x18C5 JUMP JUMPDEST SWAP2 POP POP SWAP3 SWAP2 POP POP JUMP JUMPDEST PUSH1 0x0 DUP1 PUSH1 0x0 DUP1 PUSH1 0x0 DUP1 PUSH1 0xC0 DUP8 DUP10 SUB SLT ISZERO PUSH2 0x2309 JUMPI PUSH1 0x0 DUP1 REVERT JUMPDEST PUSH1 0x0 DUP8 ADD CALLDATALOAD PUSH8 0xFFFFFFFFFFFFFFFF DUP2 GT ISZERO PUSH2 0x2323 JUMPI PUSH1 0x0 DUP1 REVERT JUMPDEST PUSH2 0x232F DUP10 DUP3 DUP11 ADD PUSH2 0x1CFC JUMP JUMPDEST SWAP7 POP POP PUSH1 0x20 DUP8 ADD CALLDATALOAD PUSH8 0xFFFFFFFFFFFFFFFF DUP2 GT ISZERO PUSH2 0x234C JUMPI PUSH1 0x0 DUP1 REVERT JUMPDEST PUSH2 0x2358 DUP10 DUP3 DUP11 ADD PUSH2 0x1818 JUMP JUMPDEST SWAP6 POP POP PUSH1 0x40 DUP8 ADD CALLDATALOAD PUSH8 0xFFFFFFFFFFFFFFFF DUP2 GT ISZERO PUSH2 0x2375 JUMPI PUSH1 0x0 DUP1 REVERT JUMPDEST PUSH2 0x2381 DUP10 DUP3 DUP11 ADD PUSH2 0x141E JUMP JUMPDEST SWAP5 POP POP PUSH1 0x60 DUP8 ADD CALLDATALOAD PUSH8 0xFFFFFFFFFFFFFFFF DUP2 GT ISZERO PUSH2 0x239E JUMPI PUSH1 0x0 DUP1 REVERT JUMPDEST PUSH2 0x23AA DUP10 DUP3 DUP11 ADD PUSH2 0x141E JUMP JUMPDEST SWAP4 POP POP PUSH1 0x80 DUP8 ADD CALLDATALOAD PUSH8 0xFFFFFFFFFFFFFFFF DUP2 GT ISZERO PUSH2 0x23C7 JUMPI PUSH1 0x0 DUP1 REVERT JUMPDEST PUSH2 0x23D3 DUP10 DUP3 DUP11 ADD PUSH2 0x1795 JUMP JUMPDEST SWAP3 POP POP PUSH1 0xA0 DUP8 ADD CALLDATALOAD PUSH8 0xFFFFFFFFFFFFFFFF DUP2 GT ISZERO PUSH2 0x23F0 JUMPI PUSH1 0x0 DUP1 REVERT JUMPDEST PUSH2 0x23FC DUP10 DUP3 DUP11 ADD PUSH2 0x139B JUMP JUMPDEST SWAP2 POP POP SWAP3 SWAP6 POP SWAP3 SWAP6 POP SWAP3 SWAP6 JUMP JUMPDEST PUSH1 0x0 PUSH1 0x20 DUP3 DUP5 SUB SLT ISZERO PUSH2 0x241B JUMPI PUSH1 0x0 DUP1 REVERT JUMPDEST PUSH1 0x0 PUSH2 0x2429 DUP5 DUP3 DUP6 ADD PUSH2 0x2051 JUMP JUMPDEST SWAP2 POP POP SWAP3 SWAP2 POP POP JUMP JUMPDEST PUSH1 0x0 PUSH1 0x20 DUP3 DUP5 SUB SLT ISZERO PUSH2 0x2444 JUMPI PUSH1 0x0 DUP1 REVERT JUMPDEST PUSH1 0x0 PUSH2 0x2452 DUP5 DUP3 DUP6 ADD PUSH2 0x2066 JUMP JUMPDEST SWAP2 POP POP SWAP3 SWAP2 POP POP JUMP JUMPDEST PUSH1 0x0 PUSH2 0x2467 DUP4 DUP4 PUSH2 0x24FB JUMP JUMPDEST PUSH1 0x20 DUP4 ADD SWAP1 POP SWAP3 SWAP2 POP POP JUMP JUMPDEST PUSH1 0x0 PUSH2 0x247F DUP4 DUP4 PUSH2 0x28D3 JUMP JUMPDEST PUSH1 0x20 DUP4 ADD SWAP1 POP SWAP3 SWAP2 POP POP JUMP JUMPDEST PUSH1 0x0 PUSH2 0x2497 DUP4 DUP4 PUSH2 0x28E2 JUMP JUMPDEST PUSH1 0x20 DUP4 ADD SWAP1 POP SWAP3 SWAP2 POP POP JUMP JUMPDEST PUSH1 0x0 PUSH2 0x24AF DUP4 DUP4 PUSH2 0x2D6F JUMP JUMPDEST SWAP1 POP SWAP3 SWAP2 POP POP JUMP JUMPDEST PUSH1 0x0 PUSH2 0x24C3 DUP4 DUP4 PUSH2 0x2EC6 JUMP JUMPDEST PUSH1 0xE0 DUP4 ADD SWAP1 POP SWAP3 SWAP2 POP POP JUMP JUMPDEST PUSH1 0x0 PUSH2 0x24DB DUP4 DUP4 PUSH2 0x3040 JUMP JUMPDEST SWAP1 POP SWAP3 SWAP2 POP POP JUMP JUMPDEST PUSH1 0x0 PUSH2 0x24EF DUP4 DUP4 PUSH2 0x307D JUMP JUMPDEST PUSH1 0x20 DUP4 ADD SWAP1 POP SWAP3 SWAP2 POP POP JUMP JUMPDEST PUSH2 0x2504 DUP2 PUSH2 0x385A JUMP JUMPDEST DUP3 MSTORE POP POP JUMP JUMPDEST PUSH2 0x2513 DUP2 PUSH2 0x385A JUMP JUMPDEST DUP3 MSTORE POP POP JUMP JUMPDEST PUSH2 0x252A PUSH2 0x2525 DUP3 PUSH2 0x385A JUMP JUMPDEST PUSH2 0x396C JUMP JUMPDEST DUP3 MSTORE POP POP JUMP JUMPDEST PUSH1 0x0 PUSH2 0x253B DUP3 PUSH2 0x36E7 JUMP JUMPDEST PUSH2 0x2545 DUP2 DUP6 PUSH2 0x37A5 JUMP JUMPDEST SWAP4 POP PUSH2 0x2550 DUP4 PUSH2 0x3677 JUMP JUMPDEST DUP1 PUSH1 0x0 JUMPDEST DUP4 DUP2 LT ISZERO PUSH2 0x2581 JUMPI DUP2 MLOAD PUSH2 0x2568 DUP9 DUP3 PUSH2 0x245B JUMP JUMPDEST SWAP8 POP PUSH2 0x2573 DUP4 PUSH2 0x374A JUMP JUMPDEST SWAP3 POP POP PUSH1 0x1 DUP2 ADD SWAP1 POP PUSH2 0x2554 JUMP JUMPDEST POP DUP6 SWAP4 POP POP POP POP SWAP3 SWAP2 POP POP JUMP JUMPDEST PUSH1 0x0 PUSH2 0x2599 DUP3 PUSH2 0x36F2 JUMP JUMPDEST PUSH2 0x25A3 DUP2 DUP6 PUSH2 0x37B6 JUMP JUMPDEST SWAP4 POP PUSH2 0x25AE DUP4 PUSH2 0x3687 JUMP JUMPDEST DUP1 PUSH1 0x0 JUMPDEST DUP4 DUP2 LT ISZERO PUSH2 0x25DF JUMPI DUP2 MLOAD PUSH2 0x25C6 DUP9 DUP3 PUSH2 0x2473 JUMP JUMPDEST SWAP8 POP PUSH2 0x25D1 DUP4 PUSH2 0x3757 JUMP JUMPDEST SWAP3 POP POP PUSH1 0x1 DUP2 ADD SWAP1 POP PUSH2 0x25B2 JUMP JUMPDEST POP DUP6 SWAP4 POP POP POP POP SWAP3 SWAP2 POP POP JUMP JUMPDEST PUSH1 0x0 PUSH2 0x25F7 DUP3 PUSH2 0x36FD JUMP JUMPDEST PUSH2 0x2601 DUP2 DUP6 PUSH2 0x37C7 JUMP JUMPDEST SWAP4 POP PUSH2 0x260C DUP4 PUSH2 0x3697 JUMP JUMPDEST DUP1 PUSH1 0x0 JUMPDEST DUP4 DUP2 LT ISZERO PUSH2 0x263D JUMPI DUP2 MLOAD PUSH2 0x2624 DUP9 DUP3 PUSH2 0x248B JUMP JUMPDEST SWAP8 POP PUSH2 0x262F DUP4 PUSH2 0x3764 JUMP JUMPDEST SWAP3 POP POP PUSH1 0x1 DUP2 ADD SWAP1 POP PUSH2 0x2610 JUMP JUMPDEST POP DUP6 SWAP4 POP POP POP POP SWAP3 SWAP2 POP POP JUMP JUMPDEST PUSH1 0x0 PUSH2 0x2655 DUP3 PUSH2 0x3708 JUMP JUMPDEST PUSH2 0x265F DUP2 DUP6 PUSH2 0x37D8 JUMP JUMPDEST SWAP4 POP DUP4 PUSH1 0x20 DUP3 MUL DUP6 ADD PUSH2 0x2671 DUP6 PUSH2 0x36A7 JUMP JUMPDEST DUP1 PUSH1 0x0 JUMPDEST DUP6 DUP2 LT ISZERO PUSH2 0x26AD JUMPI DUP5 DUP5 SUB DUP10 MSTORE DUP2 MLOAD PUSH2 0x268E DUP6 DUP3 PUSH2 0x24A3 JUMP JUMPDEST SWAP5 POP PUSH2 0x2699 DUP4 PUSH2 0x3771 JUMP JUMPDEST SWAP3 POP PUSH1 0x20 DUP11 ADD SWAP10 POP POP PUSH1 0x1 DUP2 ADD SWAP1 POP PUSH2 0x2675 JUMP JUMPDEST POP DUP3 SWAP8 POP DUP8 SWAP6 POP POP POP POP POP POP SWAP3 SWAP2 POP POP JUMP JUMPDEST PUSH1 0x0 PUSH2 0x26CA DUP3 PUSH2 0x3713 JUMP JUMPDEST PUSH2 0x26D4 DUP2 DUP6 PUSH2 0x37E9 JUMP JUMPDEST SWAP4 POP PUSH2 0x26DF DUP4 PUSH2 0x36B7 JUMP JUMPDEST DUP1 PUSH1 0x0 JUMPDEST DUP4 DUP2 LT ISZERO PUSH2 0x2710 JUMPI DUP2 MLOAD PUSH2 0x26F7 DUP9 DUP3 PUSH2 0x24B7 JUMP JUMPDEST SWAP8 POP PUSH2 0x2702 DUP4 PUSH2 0x377E JUMP JUMPDEST SWAP3 POP POP PUSH1 0x1 DUP2 ADD SWAP1 POP PUSH2 0x26E3 JUMP JUMPDEST POP DUP6 SWAP4 POP POP POP POP SWAP3 SWAP2 POP POP JUMP JUMPDEST PUSH1 0x0 PUSH2 0x2728 DUP3 PUSH2 0x371E JUMP JUMPDEST PUSH2 0x2732 DUP2 DUP6 PUSH2 0x37FA JUMP JUMPDEST SWAP4 POP DUP4 PUSH1 0x20 DUP3 MUL DUP6 ADD PUSH2 0x2744 DUP6 PUSH2 0x36C7 JUMP JUMPDEST DUP1 PUSH1 0x0 JUMPDEST DUP6 DUP2 LT ISZERO PUSH2 0x2780 JUMPI DUP5 DUP5 SUB DUP10 MSTORE DUP2 MLOAD PUSH2 0x2761 DUP6 DUP3 PUSH2 0x24CF JUMP JUMPDEST SWAP5 POP PUSH2 0x276C DUP4 PUSH2 0x378B JUMP JUMPDEST SWAP3 POP PUSH1 0x20 DUP11 ADD SWAP10 POP POP PUSH1 0x1 DUP2 ADD SWAP1 POP PUSH2 0x2748 JUMP JUMPDEST POP DUP3 SWAP8 POP DUP8 SWAP6 POP POP POP POP POP POP SWAP3 SWAP2 POP POP JUMP JUMPDEST PUSH1 0x0 PUSH2 0x279D DUP3 PUSH2 0x3729 JUMP JUMPDEST PUSH2 0x27A7 DUP2 DUP6 PUSH2 0x380B JUMP JUMPDEST SWAP4 POP PUSH2 0x27B2 DUP4 PUSH2 0x36D7 JUMP JUMPDEST DUP1 PUSH1 0x0 JUMPDEST DUP4 DUP2 LT ISZERO PUSH2 0x27E3 JUMPI DUP2 MLOAD PUSH2 0x27CA DUP9 DUP3 PUSH2 0x24E3 JUMP JUMPDEST SWAP8 POP PUSH2 0x27D5 DUP4 PUSH2 0x3798 JUMP JUMPDEST SWAP3 POP POP PUSH1 0x1 DUP2 ADD SWAP1 POP PUSH2 0x27B6 JUMP JUMPDEST POP DUP6 SWAP4 POP POP POP POP SWAP3 SWAP2 POP POP JUMP JUMPDEST PUSH2 0x27F9 DUP2 PUSH2 0x386C JUMP JUMPDEST DUP3 MSTORE POP POP JUMP JUMPDEST PUSH2 0x2810 PUSH2 0x280B DUP3 PUSH2 0x3878 JUMP JUMPDEST PUSH2 0x397E JUMP JUMPDEST DUP3 MSTORE POP POP JUMP JUMPDEST PUSH2 0x281F DUP2 PUSH2 0x38A4 JUMP JUMPDEST DUP3 MSTORE POP POP JUMP JUMPDEST PUSH2 0x282E DUP2 PUSH2 0x38A4 JUMP JUMPDEST DUP3 MSTORE POP POP JUMP JUMPDEST PUSH2 0x2845 PUSH2 0x2840 DUP3 PUSH2 0x38A4 JUMP JUMPDEST PUSH2 0x3988 JUMP JUMPDEST DUP3 MSTORE POP POP JUMP JUMPDEST PUSH1 0x0 PUSH2 0x2856 DUP3 PUSH2 0x3734 JUMP JUMPDEST PUSH2 0x2860 DUP2 DUP6 PUSH2 0x381C JUMP JUMPDEST SWAP4 POP PUSH2 0x2870 DUP2 DUP6 PUSH1 0x20 DUP7 ADD PUSH2 0x3939 JUMP JUMPDEST PUSH2 0x2879 DUP2 PUSH2 0x39B6 JUMP JUMPDEST DUP5 ADD SWAP2 POP POP SWAP3 SWAP2 POP POP JUMP JUMPDEST PUSH1 0x0 PUSH2 0x288F DUP3 PUSH2 0x3734 JUMP JUMPDEST PUSH2 0x2899 DUP2 DUP6 PUSH2 0x382D JUMP JUMPDEST SWAP4 POP PUSH2 0x28A9 DUP2 DUP6 PUSH1 0x20 DUP7 ADD PUSH2 0x3939 JUMP JUMPDEST DUP1 DUP5 ADD SWAP2 POP POP SWAP3 SWAP2 POP POP JUMP JUMPDEST PUSH2 0x28BE DUP2 PUSH2 0x38AE JUMP JUMPDEST DUP3 MSTORE POP POP JUMP JUMPDEST PUSH2 0x28CD DUP2 PUSH2 0x38AE JUMP JUMPDEST DUP3 MSTORE POP POP JUMP JUMPDEST PUSH2 0x28DC DUP2 PUSH2 0x38BB JUMP JUMPDEST DUP3 MSTORE POP POP JUMP JUMPDEST PUSH2 0x28EB DUP2 PUSH2 0x38C8 JUMP JUMPDEST DUP3 MSTORE POP POP JUMP JUMPDEST PUSH1 0x0 PUSH2 0x28FC DUP3 PUSH2 0x373F JUMP JUMPDEST PUSH2 0x2906 DUP2 DUP6 PUSH2 0x3838 JUMP JUMPDEST SWAP4 POP PUSH2 0x2916 DUP2 DUP6 PUSH1 0x20 DUP7 ADD PUSH2 0x3939 JUMP JUMPDEST PUSH2 0x291F DUP2 PUSH2 0x39B6 JUMP JUMPDEST DUP5 ADD SWAP2 POP POP SWAP3 SWAP2 POP POP JUMP JUMPDEST PUSH1 0x0 PUSH2 0x2937 PUSH1 0x29 DUP4 PUSH2 0x3849 JUMP JUMPDEST SWAP2 POP PUSH32 0x4F6E6C792061206E6F746172792063616E206465707265636174652074686973 PUSH1 0x0 DUP4 ADD MSTORE PUSH32 0x20636F6E74726163740000000000000000000000000000000000000000000000 PUSH1 0x20 DUP4 ADD MSTORE PUSH1 0x40 DUP3 ADD SWAP1 POP SWAP2 SWAP1 POP JUMP JUMPDEST PUSH1 0x0 PUSH2 0x299D PUSH1 0x1C DUP4 PUSH2 0x3849 JUMP JUMPDEST SWAP2 POP PUSH32 0x436F6E747261637420686173206265656E206465707265636174656400000000 PUSH1 0x0 DUP4 ADD MSTORE PUSH1 0x20 DUP3 ADD SWAP1 POP SWAP2 SWAP1 POP JUMP JUMPDEST PUSH1 0x0 PUSH2 0x29DD PUSH1 0x30 DUP4 PUSH2 0x3849 JUMP JUMPDEST SWAP2 POP PUSH32 0x4465707265636174696F6E207265717569726573207468652061646472657373 PUSH1 0x0 DUP4 ADD MSTORE PUSH32 0x20746F206265206E6F746172697A656400000000000000000000000000000000 PUSH1 0x20 DUP4 ADD MSTORE PUSH1 0x40 DUP3 ADD SWAP1 POP SWAP2 SWAP1 POP JUMP JUMPDEST PUSH1 0x0 PUSH2 0x2A43 PUSH1 0x28 DUP4 PUSH2 0x3849 JUMP JUMPDEST SWAP2 POP PUSH32 0x5369676E617475726520617272617973206D757374206265206F662065717561 PUSH1 0x0 DUP4 ADD MSTORE PUSH32 0x6C206C656E677468000000000000000000000000000000000000000000000000 PUSH1 0x20 DUP4 ADD MSTORE PUSH1 0x40 DUP3 ADD SWAP1 POP SWAP2 SWAP1 POP JUMP JUMPDEST PUSH1 0x0 PUSH2 0x2AA9 PUSH1 0x36 DUP4 PUSH2 0x3849 JUMP JUMPDEST SWAP2 POP PUSH32 0x426C6F636B20486569676874206D757374206265206772656174657220746861 PUSH1 0x0 DUP4 ADD MSTORE PUSH32 0x6E2063757272656E7420626C6F636B2068656967687400000000000000000000 PUSH1 0x20 DUP4 ADD MSTORE PUSH1 0x40 DUP3 ADD SWAP1 POP SWAP2 SWAP1 POP JUMP JUMPDEST PUSH1 0x0 PUSH2 0x2B0F PUSH1 0x34 DUP4 PUSH2 0x3849 JUMP JUMPDEST SWAP2 POP PUSH32 0x486173686564206164647265737320646F6573206E6F74206D61746368206164 PUSH1 0x0 DUP4 ADD MSTORE PUSH32 0x647265737320686173682070617373656420696E000000000000000000000000 PUSH1 0x20 DUP4 ADD MSTORE PUSH1 0x40 DUP3 ADD SWAP1 POP SWAP2 SWAP1 POP JUMP JUMPDEST PUSH1 0x0 PUSH2 0x2A0 DUP4 ADD PUSH1 0x0 DUP4 ADD MLOAD PUSH2 0x2B81 PUSH1 0x0 DUP7 ADD DUP3 PUSH2 0x308C JUMP JUMPDEST POP PUSH1 0x20 DUP4 ADD MLOAD PUSH2 0x2B94 PUSH1 0x20 DUP7 ADD DUP3 PUSH2 0x308C JUMP JUMPDEST POP PUSH1 0x40 DUP4 ADD MLOAD PUSH2 0x2BA7 PUSH1 0x40 DUP7 ADD DUP3 PUSH2 0x24FB JUMP JUMPDEST POP PUSH1 0x60 DUP4 ADD MLOAD DUP5 DUP3 SUB PUSH1 0x60 DUP7 ADD MSTORE PUSH2 0x2BBF DUP3 DUP3 PUSH2 0x2792 JUMP JUMPDEST SWAP2 POP POP PUSH1 0x80 DUP4 ADD MLOAD DUP5 DUP3 SUB PUSH1 0x80 DUP7 ADD MSTORE PUSH2 0x2BD9 DUP3 DUP3 PUSH2 0x258E JUMP JUMPDEST SWAP2 POP POP PUSH1 0xA0 DUP4 ADD MLOAD DUP5 DUP3 SUB PUSH1 0xA0 DUP7 ADD MSTORE PUSH2 0x2BF3 DUP3 DUP3 PUSH2 0x25EC JUMP JUMPDEST SWAP2 POP POP PUSH1 0xC0 DUP4 ADD MLOAD PUSH2 0x2C08 PUSH1 0xC0 DUP7 ADD DUP3 PUSH2 0x28E2 JUMP JUMPDEST POP PUSH1 0xE0 DUP4 ADD MLOAD PUSH2 0x2C1B PUSH1 0xE0 DUP7 ADD DUP3 PUSH2 0x28E2 JUMP JUMPDEST POP PUSH2 0x100 DUP4 ADD MLOAD PUSH2 0x2C30 PUSH2 0x100 DUP7 ADD DUP3 PUSH2 0x28E2 JUMP JUMPDEST POP PUSH2 0x120 DUP4 ADD MLOAD PUSH2 0x2C45 PUSH2 0x120 DUP7 ADD DUP3 PUSH2 0x28E2 JUMP JUMPDEST POP PUSH2 0x140 DUP4 ADD MLOAD PUSH2 0x2C5A PUSH2 0x140 DUP7 ADD DUP3 PUSH2 0x28E2 JUMP JUMPDEST POP PUSH2 0x160 DUP4 ADD MLOAD PUSH2 0x2C6F PUSH2 0x160 DUP7 ADD DUP3 PUSH2 0x28E2 JUMP JUMPDEST POP PUSH2 0x180 DUP4 ADD MLOAD PUSH2 0x2C84 PUSH2 0x180 DUP7 ADD DUP3 PUSH2 0x28E2 JUMP JUMPDEST POP PUSH2 0x1A0 DUP4 ADD MLOAD DUP5 DUP3 SUB PUSH2 0x1A0 DUP7 ADD MSTORE PUSH2 0x2C9E DUP3 DUP3 PUSH2 0x25EC JUMP JUMPDEST SWAP2 POP POP PUSH2 0x1C0 DUP4 ADD MLOAD DUP5 DUP3 SUB PUSH2 0x1C0 DUP7 ADD MSTORE PUSH2 0x2CBA DUP3 DUP3 PUSH2 0x25EC JUMP JUMPDEST SWAP2 POP POP PUSH2 0x1E0 DUP4 ADD MLOAD DUP5 DUP3 SUB PUSH2 0x1E0 DUP7 ADD MSTORE PUSH2 0x2CD6 DUP3 DUP3 PUSH2 0x25EC JUMP JUMPDEST SWAP2 POP POP PUSH2 0x200 DUP4 ADD MLOAD DUP5 DUP3 SUB PUSH2 0x200 DUP7 ADD MSTORE PUSH2 0x2CF2 DUP3 DUP3 PUSH2 0x25EC JUMP JUMPDEST SWAP2 POP POP PUSH2 0x220 DUP4 ADD MLOAD DUP5 DUP3 SUB PUSH2 0x220 DUP7 ADD MSTORE PUSH2 0x2D0E DUP3 DUP3 PUSH2 0x25EC JUMP JUMPDEST SWAP2 POP POP PUSH2 0x240 DUP4 ADD MLOAD DUP5 DUP3 SUB PUSH2 0x240 DUP7 ADD MSTORE PUSH2 0x2D2A DUP3 DUP3 PUSH2 0x25EC JUMP JUMPDEST SWAP2 POP POP PUSH2 0x260 DUP4 ADD MLOAD DUP5 DUP3 SUB PUSH2 0x260 DUP7 ADD MSTORE PUSH2 0x2D46 DUP3 DUP3 PUSH2 0x258E JUMP JUMPDEST SWAP2 POP POP PUSH2 0x280 DUP4 ADD MLOAD DUP5 DUP3 SUB PUSH2 0x280 DUP7 ADD MSTORE PUSH2 0x2D62 DUP3 DUP3 PUSH2 0x25EC JUMP JUMPDEST SWAP2 POP POP DUP1 SWAP2 POP POP SWAP3 SWAP2 POP POP JUMP JUMPDEST PUSH1 0x0 PUSH1 0x40 DUP4 ADD PUSH1 0x0 DUP4 ADD MLOAD DUP5 DUP3 SUB PUSH1 0x0 DUP7 ADD MSTORE PUSH2 0x2D8C DUP3 DUP3 PUSH2 0x28F1 JUMP JUMPDEST SWAP2 POP POP PUSH1 0x20 DUP4 ADD MLOAD PUSH2 0x2DA1 PUSH1 0x20 DUP7 ADD DUP3 PUSH2 0x24FB JUMP JUMPDEST POP DUP1 SWAP2 POP POP SWAP3 SWAP2 POP POP JUMP JUMPDEST PUSH1 0x0 PUSH2 0x1C0 DUP4 ADD PUSH1 0x0 DUP4 ADD MLOAD PUSH2 0x2DC5 PUSH1 0x0 DUP7 ADD DUP3 PUSH2 0x30AA JUMP JUMPDEST POP PUSH1 0x20 DUP4 ADD MLOAD PUSH2 0x2DD8 PUSH1 0x20 DUP7 ADD DUP3 PUSH2 0x30AA JUMP JUMPDEST POP PUSH1 0x40 DUP4 ADD MLOAD PUSH2 0x2DEB PUSH1 0x40 DUP7 ADD DUP3 PUSH2 0x2FE2 JUMP JUMPDEST POP PUSH1 0x60 DUP4 ADD MLOAD PUSH2 0x2DFE PUSH1 0x80 DUP7 ADD DUP3 PUSH2 0x24FB JUMP JUMPDEST POP PUSH1 0x80 DUP4 ADD MLOAD DUP5 DUP3 SUB PUSH1 0xA0 DUP7 ADD MSTORE PUSH2 0x2E16 DUP3 DUP3 PUSH2 0x2B68 JUMP JUMPDEST SWAP2 POP POP PUSH1 0xA0 DUP4 ADD MLOAD PUSH2 0x2E2B PUSH1 0xC0 DUP7 ADD DUP3 PUSH2 0x30AA JUMP JUMPDEST POP PUSH1 0xC0 DUP4 ADD MLOAD PUSH2 0x2E3E PUSH1 0xE0 DUP7 ADD DUP3 PUSH2 0x3011 JUMP JUMPDEST POP PUSH1 0xE0 DUP4 ADD MLOAD PUSH2 0x2E52 PUSH2 0x120 DUP7 ADD DUP3 PUSH2 0x2816 JUMP JUMPDEST POP PUSH2 0x100 DUP4 ADD MLOAD PUSH2 0x2E67 PUSH2 0x140 DUP7 ADD DUP3 PUSH2 0x30AA JUMP JUMPDEST POP PUSH2 0x120 DUP4 ADD MLOAD DUP5 DUP3 SUB PUSH2 0x160 DUP7 ADD MSTORE PUSH2 0x2E81 DUP3 DUP3 PUSH2 0x271D JUMP JUMPDEST SWAP2 POP POP PUSH2 0x140 DUP4 ADD MLOAD DUP5 DUP3 SUB PUSH2 0x180 DUP7 ADD MSTORE PUSH2 0x2E9D DUP3 DUP3 PUSH2 0x26BF JUMP JUMPDEST SWAP2 POP POP PUSH2 0x160 DUP4 ADD MLOAD DUP5 DUP3 SUB PUSH2 0x1A0 DUP7 ADD MSTORE PUSH2 0x2EB9 DUP3 DUP3 PUSH2 0x264A JUMP JUMPDEST SWAP2 POP POP DUP1 SWAP2 POP POP SWAP3 SWAP2 POP POP JUMP JUMPDEST PUSH1 0xE0 DUP3 ADD PUSH1 0x0 DUP3 ADD MLOAD PUSH2 0x2EDC PUSH1 0x0 DUP6 ADD DUP3 PUSH2 0x28B5 JUMP JUMPDEST POP PUSH1 0x20 DUP3 ADD MLOAD PUSH2 0x2EEF PUSH1 0x20 DUP6 ADD DUP3 PUSH2 0x28B5 JUMP JUMPDEST POP PUSH1 0x40 DUP3 ADD MLOAD PUSH2 0x2F02 PUSH1 0x40 DUP6 ADD DUP3 PUSH2 0x24FB JUMP JUMPDEST POP PUSH1 0x60 DUP3 ADD MLOAD PUSH2 0x2F15 PUSH1 0x60 DUP6 ADD DUP3 PUSH2 0x30AA JUMP JUMPDEST POP PUSH1 0x80 DUP3 ADD MLOAD PUSH2 0x2F28 PUSH1 0x80 DUP6 ADD DUP3 PUSH2 0x2816 JUMP JUMPDEST POP PUSH1 0xA0 DUP3 ADD MLOAD PUSH2 0x2F3B PUSH1 0xA0 DUP6 ADD DUP3 PUSH2 0x2816 JUMP JUMPDEST POP PUSH1 0xC0 DUP3 ADD MLOAD PUSH2 0x2F4E PUSH1 0xC0 DUP6 ADD DUP3 PUSH2 0x2816 JUMP JUMPDEST POP POP POP POP JUMP JUMPDEST PUSH1 0xE0 DUP3 ADD PUSH1 0x0 DUP3 ADD MLOAD PUSH2 0x2F6A PUSH1 0x0 DUP6 ADD DUP3 PUSH2 0x28B5 JUMP JUMPDEST POP PUSH1 0x20 DUP3 ADD MLOAD PUSH2 0x2F7D PUSH1 0x20 DUP6 ADD DUP3 PUSH2 0x28B5 JUMP JUMPDEST POP PUSH1 0x40 DUP3 ADD MLOAD PUSH2 0x2F90 PUSH1 0x40 DUP6 ADD DUP3 PUSH2 0x24FB JUMP JUMPDEST POP PUSH1 0x60 DUP3 ADD MLOAD PUSH2 0x2FA3 PUSH1 0x60 DUP6 ADD DUP3 PUSH2 0x30AA JUMP JUMPDEST POP PUSH1 0x80 DUP3 ADD MLOAD PUSH2 0x2FB6 PUSH1 0x80 DUP6 ADD DUP3 PUSH2 0x2816 JUMP JUMPDEST POP PUSH1 0xA0 DUP3 ADD MLOAD PUSH2 0x2FC9 PUSH1 0xA0 DUP6 ADD DUP3 PUSH2 0x2816 JUMP JUMPDEST POP PUSH1 0xC0 DUP3 ADD MLOAD PUSH2 0x2FDC PUSH1 0xC0 DUP6 ADD DUP3 PUSH2 0x2816 JUMP JUMPDEST POP POP POP POP JUMP JUMPDEST PUSH1 0x40 DUP3 ADD PUSH1 0x0 DUP3 ADD MLOAD PUSH2 0x2FF8 PUSH1 0x0 DUP6 ADD DUP3 PUSH2 0x30C8 JUMP JUMPDEST POP PUSH1 0x20 DUP3 ADD MLOAD PUSH2 0x300B PUSH1 0x20 DUP6 ADD DUP3 PUSH2 0x24FB JUMP JUMPDEST POP POP POP POP JUMP JUMPDEST PUSH1 0x40 DUP3 ADD PUSH1 0x0 DUP3 ADD MLOAD PUSH2 0x3027 PUSH1 0x0 DUP6 ADD DUP3 PUSH2 0x2816 JUMP JUMPDEST POP PUSH1 0x20 DUP3 ADD MLOAD PUSH2 0x303A PUSH1 0x20 DUP6 ADD DUP3 PUSH2 0x30AA JUMP JUMPDEST POP POP POP POP JUMP JUMPDEST PUSH1 0x0 PUSH1 0x40 DUP4 ADD PUSH1 0x0 DUP4 ADD MLOAD PUSH2 0x3058 PUSH1 0x0 DUP7 ADD DUP3 PUSH2 0x24FB JUMP JUMPDEST POP PUSH1 0x20 DUP4 ADD MLOAD DUP5 DUP3 SUB PUSH1 0x20 DUP7 ADD MSTORE PUSH2 0x3070 DUP3 DUP3 PUSH2 0x2B68 JUMP JUMPDEST SWAP2 POP POP DUP1 SWAP2 POP POP SWAP3 SWAP2 POP POP JUMP JUMPDEST PUSH2 0x3086 DUP2 PUSH2 0x38E3 JUMP JUMPDEST DUP3 MSTORE POP POP JUMP JUMPDEST PUSH2 0x3095 DUP2 PUSH2 0x38D5 JUMP JUMPDEST DUP3 MSTORE POP POP JUMP JUMPDEST PUSH2 0x30A4 DUP2 PUSH2 0x3903 JUMP JUMPDEST DUP3 MSTORE POP POP JUMP JUMPDEST PUSH2 0x30B3 DUP2 PUSH2 0x390D JUMP JUMPDEST DUP3 MSTORE POP POP JUMP JUMPDEST PUSH2 0x30C2 DUP2 PUSH2 0x390D JUMP JUMPDEST DUP3 MSTORE POP POP JUMP JUMPDEST PUSH2 0x30D1 DUP2 PUSH2 0x391D JUMP JUMPDEST DUP3 MSTORE POP POP JUMP JUMPDEST PUSH2 0x30E0 DUP2 PUSH2 0x391D JUMP JUMPDEST DUP3 MSTORE POP POP JUMP JUMPDEST PUSH2 0x30F7 PUSH2 0x30F2 DUP3 PUSH2 0x391D JUMP JUMPDEST PUSH2 0x39A4 JUMP JUMPDEST DUP3 MSTORE POP POP JUMP JUMPDEST PUSH1 0x0 PUSH2 0x3109 DUP3 DUP5 PUSH2 0x2519 JUMP JUMPDEST PUSH1 0x14 DUP3 ADD SWAP2 POP DUP2 SWAP1 POP SWAP3 SWAP2 POP POP JUMP JUMPDEST PUSH1 0x0 PUSH2 0x3124 DUP3 DUP5 PUSH2 0x2834 JUMP JUMPDEST PUSH1 0x20 DUP3 ADD SWAP2 POP DUP2 SWAP1 POP SWAP3 SWAP2 POP POP JUMP JUMPDEST PUSH1 0x0 PUSH2 0x313F DUP3 DUP10 PUSH2 0x30E6 JUMP JUMPDEST PUSH1 0x1 DUP3 ADD SWAP2 POP PUSH2 0x314F DUP3 DUP9 PUSH2 0x27FF JUMP JUMPDEST PUSH1 0x14 DUP3 ADD SWAP2 POP PUSH2 0x315F DUP3 DUP8 PUSH2 0x2519 JUMP JUMPDEST PUSH1 0x14 DUP3 ADD SWAP2 POP PUSH2 0x316F DUP3 DUP7 PUSH2 0x2884 JUMP JUMPDEST SWAP2 POP PUSH2 0x317B DUP3 DUP6 PUSH2 0x2519 JUMP JUMPDEST PUSH1 0x14 DUP3 ADD SWAP2 POP PUSH2 0x318B DUP3 DUP5 PUSH2 0x2884 JUMP JUMPDEST SWAP2 POP DUP2 SWAP1 POP SWAP8 SWAP7 POP POP POP POP POP POP POP JUMP JUMPDEST PUSH1 0x0 PUSH1 0x20 DUP3 ADD SWAP1 POP PUSH2 0x31B0 PUSH1 0x0 DUP4 ADD DUP5 PUSH2 0x250A JUMP JUMPDEST SWAP3 SWAP2 POP POP JUMP JUMPDEST PUSH1 0x0 PUSH1 0x20 DUP3 ADD SWAP1 POP DUP2 DUP2 SUB PUSH1 0x0 DUP4 ADD MSTORE PUSH2 0x31D0 DUP2 DUP5 PUSH2 0x2530 JUMP JUMPDEST SWAP1 POP SWAP3 SWAP2 POP POP JUMP JUMPDEST PUSH1 0x0 PUSH1 0x20 DUP3 ADD SWAP1 POP PUSH2 0x31ED PUSH1 0x0 DUP4 ADD DUP5 PUSH2 0x27F0 JUMP JUMPDEST SWAP3 SWAP2 POP POP JUMP JUMPDEST PUSH1 0x0 PUSH1 0x20 DUP3 ADD SWAP1 POP PUSH2 0x3208 PUSH1 0x0 DUP4 ADD DUP5 PUSH2 0x2825 JUMP JUMPDEST SWAP3 SWAP2 POP POP JUMP JUMPDEST PUSH1 0x0 PUSH1 0x80 DUP3 ADD SWAP1 POP PUSH2 0x3223 PUSH1 0x0 DUP4 ADD DUP8 PUSH2 0x2825 JUMP JUMPDEST PUSH2 0x3230 PUSH1 0x20 DUP4 ADD DUP7 PUSH2 0x30D7 JUMP JUMPDEST PUSH2 0x323D PUSH1 0x40 DUP4 ADD DUP6 PUSH2 0x2825 JUMP JUMPDEST PUSH2 0x324A PUSH1 0x60 DUP4 ADD DUP5 PUSH2 0x2825 JUMP JUMPDEST SWAP6 SWAP5 POP POP POP POP POP JUMP JUMPDEST PUSH1 0x0 PUSH1 0x20 DUP3 ADD SWAP1 POP DUP2 DUP2 SUB PUSH1 0x0 DUP4 ADD MSTORE PUSH2 0x326D DUP2 DUP5 PUSH2 0x284B JUMP JUMPDEST SWAP1 POP SWAP3 SWAP2 POP POP JUMP JUMPDEST PUSH1 0x0 PUSH1 0xE0 DUP3 ADD SWAP1 POP PUSH2 0x328A PUSH1 0x0 DUP4 ADD DUP11 PUSH2 0x28C4 JUMP JUMPDEST PUSH2 0x3297 PUSH1 0x20 DUP4 ADD DUP10 PUSH2 0x28C4 JUMP JUMPDEST PUSH2 0x32A4 PUSH1 0x40 DUP4 ADD DUP9 PUSH2 0x250A JUMP JUMPDEST PUSH2 0x32B1 PUSH1 0x60 DUP4 ADD DUP8 PUSH2 0x30B9 JUMP JUMPDEST PUSH2 0x32BE PUSH1 0x80 DUP4 ADD DUP7 PUSH2 0x2825 JUMP JUMPDEST PUSH2 0x32CB PUSH1 0xA0 DUP4 ADD DUP6 PUSH2 0x2825 JUMP JUMPDEST PUSH2 0x32D8 PUSH1 0xC0 DUP4 ADD DUP5 PUSH2 0x2825 JUMP JUMPDEST SWAP9 SWAP8 POP POP POP POP POP POP POP POP JUMP JUMPDEST PUSH1 0x0 PUSH1 0x20 DUP3 ADD SWAP1 POP DUP2 DUP2 SUB PUSH1 0x0 DUP4 ADD MSTORE PUSH2 0x32FD DUP2 PUSH2 0x292A JUMP JUMPDEST SWAP1 POP SWAP2 SWAP1 POP JUMP JUMPDEST PUSH1 0x0 PUSH1 0x20 DUP3 ADD SWAP1 POP DUP2 DUP2 SUB PUSH1 0x0 DUP4 ADD MSTORE PUSH2 0x331D DUP2 PUSH2 0x2990 JUMP JUMPDEST SWAP1 POP SWAP2 SWAP1 POP JUMP JUMPDEST PUSH1 0x0 PUSH1 0x20 DUP3 ADD SWAP1 POP DUP2 DUP2 SUB PUSH1 0x0 DUP4 ADD MSTORE PUSH2 0x333D DUP2 PUSH2 0x29D0 JUMP JUMPDEST SWAP1 POP SWAP2 SWAP1 POP JUMP JUMPDEST PUSH1 0x0 PUSH1 0x20 DUP3 ADD SWAP1 POP DUP2 DUP2 SUB PUSH1 0x0 DUP4 ADD MSTORE PUSH2 0x335D DUP2 PUSH2 0x2A36 JUMP JUMPDEST SWAP1 POP SWAP2 SWAP1 POP JUMP JUMPDEST PUSH1 0x0 PUSH1 0x20 DUP3 ADD SWAP1 POP DUP2 DUP2 SUB PUSH1 0x0 DUP4 ADD MSTORE PUSH2 0x337D DUP2 PUSH2 0x2A9C JUMP JUMPDEST SWAP1 POP SWAP2 SWAP1 POP JUMP JUMPDEST PUSH1 0x0 PUSH1 0x20 DUP3 ADD SWAP1 POP DUP2 DUP2 SUB PUSH1 0x0 DUP4 ADD MSTORE PUSH2 0x339D DUP2 PUSH2 0x2B02 JUMP JUMPDEST SWAP1 POP SWAP2 SWAP1 POP JUMP JUMPDEST PUSH1 0x0 PUSH1 0x20 DUP3 ADD SWAP1 POP DUP2 DUP2 SUB PUSH1 0x0 DUP4 ADD MSTORE PUSH2 0x33BE DUP2 DUP5 PUSH2 0x2DAC JUMP JUMPDEST SWAP1 POP SWAP3 SWAP2 POP POP JUMP JUMPDEST PUSH1 0x0 PUSH1 0x40 DUP3 ADD SWAP1 POP DUP2 DUP2 SUB PUSH1 0x0 DUP4 ADD MSTORE PUSH2 0x33E0 DUP2 DUP6 PUSH2 0x2DAC JUMP JUMPDEST SWAP1 POP PUSH2 0x33EF PUSH1 0x20 DUP4 ADD DUP5 PUSH2 0x30B9 JUMP JUMPDEST SWAP4 SWAP3 POP POP POP JUMP JUMPDEST PUSH1 0x0 PUSH1 0xE0 DUP3 ADD SWAP1 POP PUSH2 0x340B PUSH1 0x0 DUP4 ADD DUP5 PUSH2 0x2F54 JUMP JUMPDEST SWAP3 SWAP2 POP POP JUMP JUMPDEST PUSH1 0x0 PUSH1 0x20 DUP3 ADD SWAP1 POP PUSH2 0x3426 PUSH1 0x0 DUP4 ADD DUP5 PUSH2 0x309B JUMP JUMPDEST SWAP3 SWAP2 POP POP JUMP JUMPDEST PUSH1 0x0 PUSH1 0x20 DUP3 ADD SWAP1 POP PUSH2 0x3441 PUSH1 0x0 DUP4 ADD DUP5 PUSH2 0x30B9 JUMP JUMPDEST SWAP3 SWAP2 POP POP JUMP JUMPDEST PUSH1 0x0 PUSH1 0x20 DUP3 ADD SWAP1 POP PUSH2 0x345C PUSH1 0x0 DUP4 ADD DUP5 PUSH2 0x30D7 JUMP JUMPDEST SWAP3 SWAP2 POP POP JUMP JUMPDEST PUSH1 0x0 PUSH1 0x40 MLOAD SWAP1 POP DUP2 DUP2 ADD DUP2 DUP2 LT PUSH8 0xFFFFFFFFFFFFFFFF DUP3 GT OR ISZERO PUSH2 0x3485 JUMPI PUSH1 0x0 DUP1 REVERT JUMPDEST DUP1 PUSH1 0x40 MSTORE POP SWAP2 SWAP1 POP JUMP JUMPDEST PUSH1 0x0 PUSH8 0xFFFFFFFFFFFFFFFF DUP3 GT ISZERO PUSH2 0x34A6 JUMPI PUSH1 0x0 DUP1 REVERT JUMPDEST PUSH1 0x20 DUP3 MUL SWAP1 POP PUSH1 0x20 DUP2 ADD SWAP1 POP SWAP2 SWAP1 POP JUMP JUMPDEST PUSH1 0x0 PUSH8 0xFFFFFFFFFFFFFFFF DUP3 GT ISZERO PUSH2 0x34CE JUMPI PUSH1 0x0 DUP1 REVERT JUMPDEST PUSH1 0x20 DUP3 MUL SWAP1 POP PUSH1 0x20 DUP2 ADD SWAP1 POP SWAP2 SWAP1 POP JUMP JUMPDEST PUSH1 0x0 PUSH8 0xFFFFFFFFFFFFFFFF DUP3 GT ISZERO PUSH2 0x34F6 JUMPI PUSH1 0x0 DUP1 REVERT JUMPDEST PUSH1 0x20 DUP3 MUL SWAP1 POP PUSH1 0x20 DUP2 ADD SWAP1 POP SWAP2 SWAP1 POP JUMP JUMPDEST PUSH1 0x0 PUSH8 0xFFFFFFFFFFFFFFFF DUP3 GT ISZERO PUSH2 0x351E JUMPI PUSH1 0x0 DUP1 REVERT JUMPDEST PUSH1 0x20 DUP3 MUL SWAP1 POP PUSH1 0x20 DUP2 ADD SWAP1 POP SWAP2 SWAP1 POP JUMP JUMPDEST PUSH1 0x0 PUSH8 0xFFFFFFFFFFFFFFFF DUP3 GT ISZERO PUSH2 0x3546 JUMPI PUSH1 0x0 DUP1 REVERT JUMPDEST PUSH1 0x20 DUP3 MUL SWAP1 POP PUSH1 0x20 DUP2 ADD SWAP1 POP SWAP2 SWAP1 POP JUMP JUMPDEST PUSH1 0x0 PUSH8 0xFFFFFFFFFFFFFFFF DUP3 GT ISZERO PUSH2 0x356E JUMPI PUSH1 0x0 DUP1 REVERT JUMPDEST PUSH1 0x20 DUP3 MUL SWAP1 POP PUSH1 0x20 DUP2 ADD SWAP1 POP SWAP2 SWAP1 POP JUMP JUMPDEST PUSH1 0x0 PUSH8 0xFFFFFFFFFFFFFFFF DUP3 GT ISZERO PUSH2 0x3596 JUMPI PUSH1 0x0 DUP1 REVERT JUMPDEST PUSH1 0x20 DUP3 MUL SWAP1 POP PUSH1 0x20 DUP2 ADD SWAP1 POP SWAP2 SWAP1 POP JUMP JUMPDEST PUSH1 0x0 PUSH8 0xFFFFFFFFFFFFFFFF DUP3 GT ISZERO PUSH2 0x35BE JUMPI PUSH1 0x0 DUP1 REVERT JUMPDEST PUSH1 0x20 DUP3 MUL SWAP1 POP PUSH1 0x20 DUP2 ADD SWAP1 POP SWAP2 SWAP1 POP JUMP JUMPDEST PUSH1 0x0 PUSH8 0xFFFFFFFFFFFFFFFF DUP3 GT ISZERO PUSH2 0x35E6 JUMPI PUSH1 0x0 DUP1 REVERT JUMPDEST PUSH1 0x20 DUP3 MUL SWAP1 POP PUSH1 0x20 DUP2 ADD SWAP1 POP SWAP2 SWAP1 POP JUMP JUMPDEST PUSH1 0x0 PUSH8 0xFFFFFFFFFFFFFFFF DUP3 GT ISZERO PUSH2 0x360E JUMPI PUSH1 0x0 DUP1 REVERT JUMPDEST PUSH1 0x20 DUP3 MUL SWAP1 POP PUSH1 0x20 DUP2 ADD SWAP1 POP SWAP2 SWAP1 POP JUMP JUMPDEST PUSH1 0x0 PUSH8 0xFFFFFFFFFFFFFFFF DUP3 GT ISZERO PUSH2 0x3636 JUMPI PUSH1 0x0 DUP1 REVERT JUMPDEST PUSH1 0x1F NOT PUSH1 0x1F DUP4 ADD AND SWAP1 POP PUSH1 0x20 DUP2 ADD SWAP1 POP SWAP2 SWAP1 POP JUMP JUMPDEST PUSH1 0x0 PUSH8 0xFFFFFFFFFFFFFFFF DUP3 GT ISZERO PUSH2 0x3662 JUMPI PUSH1 0x0 DUP1 REVERT JUMPDEST PUSH1 0x1F NOT PUSH1 0x1F DUP4 ADD AND SWAP1 POP PUSH1 0x20 DUP2 ADD SWAP1 POP SWAP2 SWAP1 POP JUMP JUMPDEST PUSH1 0x0 DUP2 SWAP1 POP PUSH1 0x20 DUP3 ADD SWAP1 POP SWAP2 SWAP1 POP JUMP JUMPDEST PUSH1 0x0 DUP2 SWAP1 POP PUSH1 0x20 DUP3 ADD SWAP1 POP SWAP2 SWAP1 POP JUMP JUMPDEST PUSH1 0x0 DUP2 SWAP1 POP PUSH1 0x20 DUP3 ADD SWAP1 POP SWAP2 SWAP1 POP JUMP JUMPDEST PUSH1 0x0 DUP2 SWAP1 POP PUSH1 0x20 DUP3 ADD SWAP1 POP SWAP2 SWAP1 POP JUMP JUMPDEST PUSH1 0x0 DUP2 SWAP1 POP PUSH1 0x20 DUP3 ADD SWAP1 POP SWAP2 SWAP1 POP JUMP JUMPDEST PUSH1 0x0 DUP2 SWAP1 POP PUSH1 0x20 DUP3 ADD SWAP1 POP SWAP2 SWAP1 POP JUMP JUMPDEST PUSH1 0x0 DUP2 SWAP1 POP PUSH1 0x20 DUP3 ADD SWAP1 POP SWAP2 SWAP1 POP JUMP JUMPDEST PUSH1 0x0 DUP2 MLOAD SWAP1 POP SWAP2 SWAP1 POP JUMP JUMPDEST PUSH1 0x0 DUP2 MLOAD SWAP1 POP SWAP2 SWAP1 POP JUMP JUMPDEST PUSH1 0x0 DUP2 MLOAD SWAP1 POP SWAP2 SWAP1 POP JUMP JUMPDEST PUSH1 0x0 DUP2 MLOAD SWAP1 POP SWAP2 SWAP1 POP JUMP JUMPDEST PUSH1 0x0 DUP2 MLOAD SWAP1 POP SWAP2 SWAP1 POP JUMP JUMPDEST PUSH1 0x0 DUP2 MLOAD SWAP1 POP SWAP2 SWAP1 POP JUMP JUMPDEST PUSH1 0x0 DUP2 MLOAD SWAP1 POP SWAP2 SWAP1 POP JUMP JUMPDEST PUSH1 0x0 DUP2 MLOAD SWAP1 POP SWAP2 SWAP1 POP JUMP JUMPDEST PUSH1 0x0 DUP2 MLOAD SWAP1 POP SWAP2 SWAP1 POP JUMP JUMPDEST PUSH1 0x0 PUSH1 0x20 DUP3 ADD SWAP1 POP SWAP2 SWAP1 POP JUMP JUMPDEST PUSH1 0x0 PUSH1 0x20 DUP3 ADD SWAP1 POP SWAP2 SWAP1 POP JUMP JUMPDEST PUSH1 0x0 PUSH1 0x20 DUP3 ADD SWAP1 POP SWAP2 SWAP1 POP JUMP JUMPDEST PUSH1 0x0 PUSH1 0x20 DUP3 ADD SWAP1 POP SWAP2 SWAP1 POP JUMP JUMPDEST PUSH1 0x0 PUSH1 0x20 DUP3 ADD SWAP1 POP SWAP2 SWAP1 POP JUMP JUMPDEST PUSH1 0x0 PUSH1 0x20 DUP3 ADD SWAP1 POP SWAP2 SWAP1 POP JUMP JUMPDEST PUSH1 0x0 PUSH1 0x20 DUP3 ADD SWAP1 POP SWAP2 SWAP1 POP JUMP JUMPDEST PUSH1 0x0 DUP3 DUP3 MSTORE PUSH1 0x20 DUP3 ADD SWAP1 POP SWAP3 SWAP2 POP POP JUMP JUMPDEST PUSH1 0x0 DUP3 DUP3 MSTORE PUSH1 0x20 DUP3 ADD SWAP1 POP SWAP3 SWAP2 POP POP JUMP JUMPDEST PUSH1 0x0 DUP3 DUP3 MSTORE PUSH1 0x20 DUP3 ADD SWAP1 POP SWAP3 SWAP2 POP POP JUMP JUMPDEST PUSH1 0x0 DUP3 DUP3 MSTORE PUSH1 0x20 DUP3 ADD SWAP1 POP SWAP3 SWAP2 POP POP JUMP JUMPDEST PUSH1 0x0 DUP3 DUP3 MSTORE PUSH1 0x20 DUP3 ADD SWAP1 POP SWAP3 SWAP2 POP POP JUMP JUMPDEST PUSH1 0x0 DUP3 DUP3 MSTORE PUSH1 0x20 DUP3 ADD SWAP1 POP SWAP3 SWAP2 POP POP JUMP JUMPDEST PUSH1 0x0 DUP3 DUP3 MSTORE PUSH1 0x20 DUP3 ADD SWAP1 POP SWAP3 SWAP2 POP POP JUMP JUMPDEST PUSH1 0x0 DUP3 DUP3 MSTORE PUSH1 0x20 DUP3 ADD SWAP1 POP SWAP3 SWAP2 POP POP JUMP JUMPDEST PUSH1 0x0 DUP2 SWAP1 POP SWAP3 SWAP2 POP POP JUMP JUMPDEST PUSH1 0x0 DUP3 DUP3 MSTORE PUSH1 0x20 DUP3 ADD SWAP1 POP SWAP3 SWAP2 POP POP JUMP JUMPDEST PUSH1 0x0 DUP3 DUP3 MSTORE PUSH1 0x20 DUP3 ADD SWAP1 POP SWAP3 SWAP2 POP POP JUMP JUMPDEST PUSH1 0x0 PUSH2 0x3865 DUP3 PUSH2 0x38E3 JUMP JUMPDEST SWAP1 POP SWAP2 SWAP1 POP JUMP JUMPDEST PUSH1 0x0 DUP2 ISZERO ISZERO SWAP1 POP SWAP2 SWAP1 POP JUMP JUMPDEST PUSH1 0x0 PUSH32 0xFFFFFFFFFFFFFFFFFFFFFFFFFFFFFFFFFFFFFFFF000000000000000000000000 DUP3 AND SWAP1 POP SWAP2 SWAP1 POP JUMP JUMPDEST PUSH1 0x0 DUP2 SWAP1 POP SWAP2 SWAP1 POP JUMP JUMPDEST PUSH1 0x0 DUP2 PUSH1 0x1 SIGNEXTEND SWAP1 POP SWAP2 SWAP1 POP JUMP JUMPDEST PUSH1 0x0 DUP2 PUSH1 0x3 SIGNEXTEND SWAP1 POP SWAP2 SWAP1 POP JUMP JUMPDEST PUSH1 0x0 DUP2 PUSH1 0x7 SIGNEXTEND SWAP1 POP SWAP2 SWAP1 POP JUMP JUMPDEST PUSH1 0x0 PUSH2 0xFFFF DUP3 AND SWAP1 POP SWAP2 SWAP1 POP JUMP JUMPDEST PUSH1 0x0 PUSH20 0xFFFFFFFFFFFFFFFFFFFFFFFFFFFFFFFFFFFFFFFF DUP3 AND SWAP1 POP SWAP2 SWAP1 POP JUMP JUMPDEST PUSH1 0x0 DUP2 SWAP1 POP SWAP2 SWAP1 POP JUMP JUMPDEST PUSH1 0x0 PUSH4 0xFFFFFFFF DUP3 AND SWAP1 POP SWAP2 SWAP1 POP JUMP JUMPDEST PUSH1 0x0 PUSH1 0xFF DUP3 AND SWAP1 POP SWAP2 SWAP1 POP JUMP JUMPDEST DUP3 DUP2 DUP4 CALLDATACOPY PUSH1 0x0 DUP4 DUP4 ADD MSTORE POP POP POP JUMP JUMPDEST PUSH1 0x0 JUMPDEST DUP4 DUP2 LT ISZERO PUSH2 0x3957 JUMPI DUP1 DUP3 ADD MLOAD DUP2 DUP5 ADD MSTORE PUSH1 0x20 DUP2 ADD SWAP1 POP PUSH2 0x393C JUMP JUMPDEST DUP4 DUP2 GT ISZERO PUSH2 0x3966 JUMPI PUSH1 0x0 DUP5 DUP5 ADD MSTORE JUMPDEST POP POP POP POP JUMP JUMPDEST PUSH1 0x0 PUSH2 0x3977 DUP3 PUSH2 0x3992 JUMP JUMPDEST SWAP1 POP SWAP2 SWAP1 POP JUMP JUMPDEST PUSH1 0x0 DUP2 SWAP1 POP SWAP2 SWAP1 POP JUMP JUMPDEST PUSH1 0x0 DUP2 SWAP1 POP SWAP2 SWAP1 POP JUMP JUMPDEST PUSH1 0x0 PUSH2 0x399D DUP3 PUSH2 0x39D4 JUMP JUMPDEST SWAP1 POP SWAP2 SWAP1 POP JUMP JUMPDEST PUSH1 0x0 PUSH2 0x39AF DUP3 PUSH2 0x39C7 JUMP JUMPDEST SWAP1 POP SWAP2 SWAP1 POP JUMP JUMPDEST PUSH1 0x0 PUSH1 0x1F NOT PUSH1 0x1F DUP4 ADD AND SWAP1 POP SWAP2 SWAP1 POP JUMP JUMPDEST PUSH1 0x0 DUP2 PUSH1 0xF8 SHL SWAP1 POP SWAP2 SWAP1 POP JUMP JUMPDEST PUSH1 0x0 DUP2 PUSH1 0x60 SHL SWAP1 POP SWAP2 SWAP1 POP JUMP JUMPDEST PUSH2 0x39EA DUP2 PUSH2 0x385A JUMP JUMPDEST DUP2 EQ PUSH2 0x39F5 JUMPI PUSH1 0x0 DUP1 REVERT JUMPDEST POP JUMP JUMPDEST PUSH2 0x3A01 DUP2 PUSH2 0x38A4 JUMP JUMPDEST DUP2 EQ PUSH2 0x3A0C JUMPI PUSH1 0x0 DUP1 REVERT JUMPDEST POP JUMP JUMPDEST PUSH2 0x3A18 DUP2 PUSH2 0x38AE JUMP JUMPDEST DUP2 EQ PUSH2 0x3A23 JUMPI PUSH1 0x0 DUP1 REVERT JUMPDEST POP JUMP JUMPDEST PUSH2 0x3A2F DUP2 PUSH2 0x38BB JUMP JUMPDEST DUP2 EQ PUSH2 0x3A3A JUMPI PUSH1 0x0 DUP1 REVERT JUMPDEST POP JUMP JUMPDEST PUSH2 0x3A46 DUP2 PUSH2 0x38C8 JUMP JUMPDEST DUP2 EQ PUSH2 0x3A51 JUMPI PUSH1 0x0 DUP1 REVERT JUMPDEST POP JUMP JUMPDEST PUSH2 0x3A5D DUP2 PUSH2 0x38D5 JUMP JUMPDEST DUP2 EQ PUSH2 0x3A68 JUMPI PUSH1 0x0 DUP1 REVERT JUMPDEST POP JUMP JUMPDEST PUSH2 0x3A74 DUP2 PUSH2 0x38E3 JUMP JUMPDEST DUP2 EQ PUSH2 0x3A7F JUMPI PUSH1 0x0 DUP1 REVERT JUMPDEST POP JUMP JUMPDEST PUSH2 0x3A8B DUP2 PUSH2 0x3903 JUMP JUMPDEST DUP2 EQ PUSH2 0x3A96 JUMPI PUSH1 0x0 DUP1 REVERT JUMPDEST POP JUMP JUMPDEST PUSH2 0x3AA2 DUP2 PUSH2 0x390D JUMP JUMPDEST DUP2 EQ PUSH2 0x3AAD JUMPI PUSH1 0x0 DUP1 REVERT JUMPDEST POP JUMP JUMPDEST PUSH2 0x3AB9 DUP2 PUSH2 0x391D JUMP JUMPDEST DUP2 EQ PUSH2 0x3AC4 JUMPI PUSH1 0x0 DUP1 REVERT JUMPDEST POP JUMP INVALID LOG2 PUSH5 0x6970667358 0x22 SLT KECCAK256 SWAP4 0xDB 0xB9 PUSH16 0x57342B61492FFF6C65EA64D4C364DDB1 0xEF LT 0xEE EXTCODEHASH 0xBE 0xD3 0xAF 0xB8 0x23 0xEA 0xE9 0xD2 PUSH5 0x736F6C6343 STOP MOD 0xC STOP CALLER "
		},
		"gasEstimates": {
			"creation": {
				"codeDepositCost": "3020200",
				"executionCost": "infinite",
				"totalCost": "infinite"
			},
			"external": {
				"blockHeights(uint256)": "4016",
				"currentNotariesRequired()": "4856",
				"deprecate(address,bytes32,uint8[],bytes32[],bytes32[])": "infinite",
				"deprecated()": "1245",
				"getLastProofRoot()": "infinite",
				"getNotaries()": "infinite",
				"isNotarized(bytes32,bytes32[],bytes32[],uint8[])": "infinite",
				"isNotary(address)": "1742",
				"komodoNotaries(address)": "1634",
				"lastBlockHeight()": "1213",
				"notarizedDeprecation(address,bytes32,uint8[],bytes32[],bytes32[])": "infinite",
				"notarizedProofRoots(uint32)": "infinite",
				"notarizedStateRoots(uint32)": "1537",
				"notaryAddressMapping(address)": "infinite",
				"numNotarizedBlocks()": "1233",
				"recoverSigner(bytes32,uint8,bytes32,bytes32)": "infinite",
				"setLatestData((uint32,uint32,(uint8,address),address,(uint16,uint16,address,uint160[],int32[],int64[],int64,int64,int64,int64,int64,int64,int64,int64[],int64[],int64[],int64[],int64[],int64[],int32[],int64[]),uint32,(bytes32,uint32),bytes32,uint32,(address,(uint16,uint16,address,uint160[],int32[],int64[],int64,int64,int64,int64,int64,int64,int64,int64[],int64[],int64[],int64[],int64[],int64[],int32[],int64[]))[],(int16,int16,address,uint32,bytes32,bytes32,bytes32)[],(string,address)[]),uint8[],bytes32[],bytes32[],uint32[],address[])": "infinite",
				"upgradedAddress()": "1287"
			}
		},
		"methodIdentifiers": {
			"blockHeights(uint256)": "6e080816",
			"currentNotariesRequired()": "20cd6ba1",
			"deprecate(address,bytes32,uint8[],bytes32[],bytes32[])": "17c86875",
			"deprecated()": "0e136b19",
			"getLastProofRoot()": "d4e03233",
			"getNotaries()": "aaf34b94",
			"isNotarized(bytes32,bytes32[],bytes32[],uint8[])": "90ab6442",
			"isNotary(address)": "f13eed97",
			"komodoNotaries(address)": "b59de706",
			"lastBlockHeight()": "4b60ae63",
			"notarizedDeprecation(address,bytes32,uint8[],bytes32[],bytes32[])": "b43fe1de",
			"notarizedProofRoots(uint32)": "add21b3b",
			"notarizedStateRoots(uint32)": "e7b3c875",
			"notaryAddressMapping(address)": "250dea53",
			"numNotarizedBlocks()": "ec48ae3c",
			"recoverSigner(bytes32,uint8,bytes32,bytes32)": "d45167d0",
			"setLatestData((uint32,uint32,(uint8,address),address,(uint16,uint16,address,uint160[],int32[],int64[],int64,int64,int64,int64,int64,int64,int64,int64[],int64[],int64[],int64[],int64[],int64[],int32[],int64[]),uint32,(bytes32,uint32),bytes32,uint32,(address,(uint16,uint16,address,uint160[],int32[],int64[],int64,int64,int64,int64,int64,int64,int64,int64[],int64[],int64[],int64[],int64[],int64[],int32[],int64[]))[],(int16,int16,address,uint32,bytes32,bytes32,bytes32)[],(string,address)[]),uint8[],bytes32[],bytes32[],uint32[],address[])": "92a31082",
			"upgradedAddress()": "26976e3f"
		}
	},
	"abi": [
		{
			"inputs": [
				{
					"internalType": "address",
					"name": "_verusBLAKE2bAddress",
					"type": "address"
				},
				{
					"internalType": "address",
					"name": "_verusSerializerAddress",
					"type": "address"
				},
				{
					"internalType": "address[]",
					"name": "_notaries",
					"type": "address[]"
				},
				{
					"internalType": "address[]",
					"name": "_notariesEthAddress",
					"type": "address[]"
				}
			],
			"stateMutability": "nonpayable",
			"type": "constructor"
		},
		{
			"anonymous": false,
			"inputs": [
				{
					"indexed": false,
					"internalType": "address",
					"name": "newAddress",
					"type": "address"
				}
			],
			"name": "Deprecate",
			"type": "event"
		},
		{
			"anonymous": false,
			"inputs": [
				{
					"components": [
						{
							"internalType": "uint32",
							"name": "version",
							"type": "uint32"
						},
						{
							"internalType": "uint32",
							"name": "flags",
							"type": "uint32"
						},
						{
							"components": [
								{
									"internalType": "uint8",
									"name": "destinationtype",
									"type": "uint8"
								},
								{
									"internalType": "address",
									"name": "destinationaddress",
									"type": "address"
								}
							],
							"internalType": "struct VerusObjectsCommon.CTransferDestination",
							"name": "proposer",
							"type": "tuple"
						},
						{
							"internalType": "address",
							"name": "currencyid",
							"type": "address"
						},
						{
							"components": [
								{
									"internalType": "uint16",
									"name": "version",
									"type": "uint16"
								},
								{
									"internalType": "uint16",
									"name": "flags",
									"type": "uint16"
								},
								{
									"internalType": "address",
									"name": "currencyid",
									"type": "address"
								},
								{
									"internalType": "uint160[]",
									"name": "currencies",
									"type": "uint160[]"
								},
								{
									"internalType": "int32[]",
									"name": "weights",
									"type": "int32[]"
								},
								{
									"internalType": "int64[]",
									"name": "reserves",
									"type": "int64[]"
								},
								{
									"internalType": "int64",
									"name": "initialsupply",
									"type": "int64"
								},
								{
									"internalType": "int64",
									"name": "emitted",
									"type": "int64"
								},
								{
									"internalType": "int64",
									"name": "supply",
									"type": "int64"
								},
								{
									"internalType": "int64",
									"name": "primarycurrencyout",
									"type": "int64"
								},
								{
									"internalType": "int64",
									"name": "preconvertedout",
									"type": "int64"
								},
								{
									"internalType": "int64",
									"name": "primarycurrencyfees",
									"type": "int64"
								},
								{
									"internalType": "int64",
									"name": "primarycurrencyconversionfees",
									"type": "int64"
								},
								{
									"internalType": "int64[]",
									"name": "reservein",
									"type": "int64[]"
								},
								{
									"internalType": "int64[]",
									"name": "primarycurrencyin",
									"type": "int64[]"
								},
								{
									"internalType": "int64[]",
									"name": "reserveout",
									"type": "int64[]"
								},
								{
									"internalType": "int64[]",
									"name": "conversionprice",
									"type": "int64[]"
								},
								{
									"internalType": "int64[]",
									"name": "viaconversionprice",
									"type": "int64[]"
								},
								{
									"internalType": "int64[]",
									"name": "fees",
									"type": "int64[]"
								},
								{
									"internalType": "int32[]",
									"name": "priorweights",
									"type": "int32[]"
								},
								{
									"internalType": "int64[]",
									"name": "conversionfees",
									"type": "int64[]"
								}
							],
							"internalType": "struct VerusObjectsNotarization.CCoinbaseCurrencyState",
							"name": "currencystate",
							"type": "tuple"
						},
						{
							"internalType": "uint32",
							"name": "notarizationheight",
							"type": "uint32"
						},
						{
							"components": [
								{
									"internalType": "bytes32",
									"name": "hash",
									"type": "bytes32"
								},
								{
									"internalType": "uint32",
									"name": "n",
									"type": "uint32"
								}
							],
							"internalType": "struct VerusObjectsNotarization.CUTXORef",
							"name": "prevnotarization",
							"type": "tuple"
						},
						{
							"internalType": "bytes32",
							"name": "hashprevnotarization",
							"type": "bytes32"
						},
						{
							"internalType": "uint32",
							"name": "prevheight",
							"type": "uint32"
						},
						{
							"components": [
								{
									"internalType": "address",
									"name": "currencyid",
									"type": "address"
								},
								{
									"components": [
										{
											"internalType": "uint16",
											"name": "version",
											"type": "uint16"
										},
										{
											"internalType": "uint16",
											"name": "flags",
											"type": "uint16"
										},
										{
											"internalType": "address",
											"name": "currencyid",
											"type": "address"
										},
										{
											"internalType": "uint160[]",
											"name": "currencies",
											"type": "uint160[]"
										},
										{
											"internalType": "int32[]",
											"name": "weights",
											"type": "int32[]"
										},
										{
											"internalType": "int64[]",
											"name": "reserves",
											"type": "int64[]"
										},
										{
											"internalType": "int64",
											"name": "initialsupply",
											"type": "int64"
										},
										{
											"internalType": "int64",
											"name": "emitted",
											"type": "int64"
										},
										{
											"internalType": "int64",
											"name": "supply",
											"type": "int64"
										},
										{
											"internalType": "int64",
											"name": "primarycurrencyout",
											"type": "int64"
										},
										{
											"internalType": "int64",
											"name": "preconvertedout",
											"type": "int64"
										},
										{
											"internalType": "int64",
											"name": "primarycurrencyfees",
											"type": "int64"
										},
										{
											"internalType": "int64",
											"name": "primarycurrencyconversionfees",
											"type": "int64"
										},
										{
											"internalType": "int64[]",
											"name": "reservein",
											"type": "int64[]"
										},
										{
											"internalType": "int64[]",
											"name": "primarycurrencyin",
											"type": "int64[]"
										},
										{
											"internalType": "int64[]",
											"name": "reserveout",
											"type": "int64[]"
										},
										{
											"internalType": "int64[]",
											"name": "conversionprice",
											"type": "int64[]"
										},
										{
											"internalType": "int64[]",
											"name": "viaconversionprice",
											"type": "int64[]"
										},
										{
											"internalType": "int64[]",
											"name": "fees",
											"type": "int64[]"
										},
										{
											"internalType": "int32[]",
											"name": "priorweights",
											"type": "int32[]"
										},
										{
											"internalType": "int64[]",
											"name": "conversionfees",
											"type": "int64[]"
										}
									],
									"internalType": "struct VerusObjectsNotarization.CCoinbaseCurrencyState",
									"name": "currencystate",
									"type": "tuple"
								}
							],
							"internalType": "struct VerusObjectsNotarization.CurrencyStates[]",
							"name": "currencystates",
							"type": "tuple[]"
						},
						{
							"components": [
								{
									"internalType": "int16",
									"name": "version",
									"type": "int16"
								},
								{
									"internalType": "int16",
									"name": "cprtype",
									"type": "int16"
								},
								{
									"internalType": "address",
									"name": "systemid",
									"type": "address"
								},
								{
									"internalType": "uint32",
									"name": "rootheight",
									"type": "uint32"
								},
								{
									"internalType": "bytes32",
									"name": "stateroot",
									"type": "bytes32"
								},
								{
									"internalType": "bytes32",
									"name": "blockhash",
									"type": "bytes32"
								},
								{
									"internalType": "bytes32",
									"name": "compactpower",
									"type": "bytes32"
								}
							],
							"internalType": "struct VerusObjectsNotarization.CProofRoot[]",
							"name": "proofroots",
							"type": "tuple[]"
						},
						{
							"components": [
								{
									"internalType": "string",
									"name": "networkaddress",
									"type": "string"
								},
								{
									"internalType": "address",
									"name": "nodeidentity",
									"type": "address"
								}
							],
							"internalType": "struct VerusObjectsNotarization.CNodeData[]",
							"name": "nodes",
							"type": "tuple[]"
						}
					],
					"indexed": false,
					"internalType": "struct VerusObjectsNotarization.CPBaaSNotarization",
					"name": "",
					"type": "tuple"
				},
				{
					"indexed": false,
					"internalType": "uint32",
					"name": "notarizedDataHeight",
					"type": "uint32"
				}
			],
			"name": "NewBlock",
			"type": "event"
		},
		{
			"inputs": [
				{
					"internalType": "uint256",
					"name": "",
					"type": "uint256"
				}
			],
			"name": "blockHeights",
			"outputs": [
				{
					"internalType": "uint32",
					"name": "",
					"type": "uint32"
				}
			],
			"stateMutability": "view",
			"type": "function"
		},
		{
			"inputs": [],
			"name": "currentNotariesRequired",
			"outputs": [
				{
					"internalType": "uint8",
					"name": "",
					"type": "uint8"
				}
			],
			"stateMutability": "view",
			"type": "function"
		},
		{
			"inputs": [
				{
					"internalType": "address",
					"name": "_upgradedAddress",
					"type": "address"
				},
				{
					"internalType": "bytes32",
					"name": "_addressHash",
					"type": "bytes32"
				},
				{
					"internalType": "uint8[]",
					"name": "_vs",
					"type": "uint8[]"
				},
				{
					"internalType": "bytes32[]",
					"name": "_rs",
					"type": "bytes32[]"
				},
				{
					"internalType": "bytes32[]",
					"name": "_ss",
					"type": "bytes32[]"
				}
			],
			"name": "deprecate",
			"outputs": [],
			"stateMutability": "nonpayable",
			"type": "function"
		},
		{
			"inputs": [],
			"name": "deprecated",
			"outputs": [
				{
					"internalType": "bool",
					"name": "",
					"type": "bool"
				}
			],
			"stateMutability": "view",
			"type": "function"
		},
		{
			"inputs": [],
			"name": "getLastProofRoot",
			"outputs": [
				{
					"components": [
						{
							"internalType": "int16",
							"name": "version",
							"type": "int16"
						},
						{
							"internalType": "int16",
							"name": "cprtype",
							"type": "int16"
						},
						{
							"internalType": "address",
							"name": "systemid",
							"type": "address"
						},
						{
							"internalType": "uint32",
							"name": "rootheight",
							"type": "uint32"
						},
						{
							"internalType": "bytes32",
							"name": "stateroot",
							"type": "bytes32"
						},
						{
							"internalType": "bytes32",
							"name": "blockhash",
							"type": "bytes32"
						},
						{
							"internalType": "bytes32",
							"name": "compactpower",
							"type": "bytes32"
						}
					],
					"internalType": "struct VerusObjectsNotarization.CProofRoot",
					"name": "",
					"type": "tuple"
				}
			],
			"stateMutability": "view",
			"type": "function"
		},
		{
			"inputs": [],
			"name": "getNotaries",
			"outputs": [
				{
					"internalType": "address[]",
					"name": "",
					"type": "address[]"
				}
			],
			"stateMutability": "view",
			"type": "function"
		},
		{
			"inputs": [
				{
					"internalType": "bytes32",
					"name": "_notarizedDataHash",
					"type": "bytes32"
				},
				{
					"internalType": "bytes32[]",
					"name": "_rs",
					"type": "bytes32[]"
				},
				{
					"internalType": "bytes32[]",
					"name": "_ss",
					"type": "bytes32[]"
				},
				{
					"internalType": "uint8[]",
					"name": "_vs",
					"type": "uint8[]"
				}
			],
			"name": "isNotarized",
			"outputs": [
				{
					"internalType": "bool",
					"name": "",
					"type": "bool"
				}
			],
			"stateMutability": "view",
			"type": "function"
		},
		{
			"inputs": [
				{
					"internalType": "address",
					"name": "_notary",
					"type": "address"
				}
			],
			"name": "isNotary",
			"outputs": [
				{
					"internalType": "bool",
					"name": "",
					"type": "bool"
				}
			],
			"stateMutability": "view",
			"type": "function"
		},
		{
			"inputs": [
				{
					"internalType": "address",
					"name": "",
					"type": "address"
				}
			],
			"name": "komodoNotaries",
			"outputs": [
				{
					"internalType": "bool",
					"name": "",
					"type": "bool"
				}
			],
			"stateMutability": "view",
			"type": "function"
		},
		{
			"inputs": [],
			"name": "lastBlockHeight",
			"outputs": [
				{
					"internalType": "uint32",
					"name": "",
					"type": "uint32"
				}
			],
			"stateMutability": "view",
			"type": "function"
		},
		{
			"inputs": [
				{
					"internalType": "address",
					"name": "_upgradedAddress",
					"type": "address"
				},
				{
					"internalType": "bytes32",
					"name": "_addressHash",
					"type": "bytes32"
				},
				{
					"internalType": "uint8[]",
					"name": "_vs",
					"type": "uint8[]"
				},
				{
					"internalType": "bytes32[]",
					"name": "_rs",
					"type": "bytes32[]"
				},
				{
					"internalType": "bytes32[]",
					"name": "_ss",
					"type": "bytes32[]"
				}
			],
			"name": "notarizedDeprecation",
			"outputs": [
				{
					"internalType": "bool",
					"name": "",
					"type": "bool"
				}
			],
			"stateMutability": "view",
			"type": "function"
		},
		{
			"inputs": [
				{
					"internalType": "uint32",
					"name": "",
					"type": "uint32"
				}
			],
			"name": "notarizedProofRoots",
			"outputs": [
				{
					"internalType": "int16",
					"name": "version",
					"type": "int16"
				},
				{
					"internalType": "int16",
					"name": "cprtype",
					"type": "int16"
				},
				{
					"internalType": "address",
					"name": "systemid",
					"type": "address"
				},
				{
					"internalType": "uint32",
					"name": "rootheight",
					"type": "uint32"
				},
				{
					"internalType": "bytes32",
					"name": "stateroot",
					"type": "bytes32"
				},
				{
					"internalType": "bytes32",
					"name": "blockhash",
					"type": "bytes32"
				},
				{
					"internalType": "bytes32",
					"name": "compactpower",
					"type": "bytes32"
				}
			],
			"stateMutability": "view",
			"type": "function"
		},
		{
			"inputs": [
				{
					"internalType": "uint32",
					"name": "",
					"type": "uint32"
				}
			],
			"name": "notarizedStateRoots",
			"outputs": [
				{
					"internalType": "bytes32",
					"name": "",
					"type": "bytes32"
				}
			],
			"stateMutability": "view",
			"type": "function"
		},
		{
			"inputs": [
				{
					"internalType": "address",
					"name": "",
					"type": "address"
				}
			],
			"name": "notaryAddressMapping",
			"outputs": [
				{
					"internalType": "address",
					"name": "",
					"type": "address"
				}
			],
			"stateMutability": "view",
			"type": "function"
		},
		{
			"inputs": [],
			"name": "numNotarizedBlocks",
			"outputs": [
				{
					"internalType": "uint256",
					"name": "",
					"type": "uint256"
				}
			],
			"stateMutability": "view",
			"type": "function"
		},
		{
			"inputs": [
				{
					"internalType": "bytes32",
					"name": "_h",
					"type": "bytes32"
				},
				{
					"internalType": "uint8",
					"name": "_v",
					"type": "uint8"
				},
				{
					"internalType": "bytes32",
					"name": "_r",
					"type": "bytes32"
				},
				{
					"internalType": "bytes32",
					"name": "_s",
					"type": "bytes32"
				}
			],
			"name": "recoverSigner",
			"outputs": [
				{
					"internalType": "address",
					"name": "",
					"type": "address"
				}
			],
			"stateMutability": "pure",
			"type": "function"
		},
		{
			"inputs": [
				{
					"components": [
						{
							"internalType": "uint32",
							"name": "version",
							"type": "uint32"
						},
						{
							"internalType": "uint32",
							"name": "flags",
							"type": "uint32"
						},
						{
							"components": [
								{
									"internalType": "uint8",
									"name": "destinationtype",
									"type": "uint8"
								},
								{
									"internalType": "address",
									"name": "destinationaddress",
									"type": "address"
								}
							],
							"internalType": "struct VerusObjectsCommon.CTransferDestination",
							"name": "proposer",
							"type": "tuple"
						},
						{
							"internalType": "address",
							"name": "currencyid",
							"type": "address"
						},
						{
							"components": [
								{
									"internalType": "uint16",
									"name": "version",
									"type": "uint16"
								},
								{
									"internalType": "uint16",
									"name": "flags",
									"type": "uint16"
								},
								{
									"internalType": "address",
									"name": "currencyid",
									"type": "address"
								},
								{
									"internalType": "uint160[]",
									"name": "currencies",
									"type": "uint160[]"
								},
								{
									"internalType": "int32[]",
									"name": "weights",
									"type": "int32[]"
								},
								{
									"internalType": "int64[]",
									"name": "reserves",
									"type": "int64[]"
								},
								{
									"internalType": "int64",
									"name": "initialsupply",
									"type": "int64"
								},
								{
									"internalType": "int64",
									"name": "emitted",
									"type": "int64"
								},
								{
									"internalType": "int64",
									"name": "supply",
									"type": "int64"
								},
								{
									"internalType": "int64",
									"name": "primarycurrencyout",
									"type": "int64"
								},
								{
									"internalType": "int64",
									"name": "preconvertedout",
									"type": "int64"
								},
								{
									"internalType": "int64",
									"name": "primarycurrencyfees",
									"type": "int64"
								},
								{
									"internalType": "int64",
									"name": "primarycurrencyconversionfees",
									"type": "int64"
								},
								{
									"internalType": "int64[]",
									"name": "reservein",
									"type": "int64[]"
								},
								{
									"internalType": "int64[]",
									"name": "primarycurrencyin",
									"type": "int64[]"
								},
								{
									"internalType": "int64[]",
									"name": "reserveout",
									"type": "int64[]"
								},
								{
									"internalType": "int64[]",
									"name": "conversionprice",
									"type": "int64[]"
								},
								{
									"internalType": "int64[]",
									"name": "viaconversionprice",
									"type": "int64[]"
								},
								{
									"internalType": "int64[]",
									"name": "fees",
									"type": "int64[]"
								},
								{
									"internalType": "int32[]",
									"name": "priorweights",
									"type": "int32[]"
								},
								{
									"internalType": "int64[]",
									"name": "conversionfees",
									"type": "int64[]"
								}
							],
							"internalType": "struct VerusObjectsNotarization.CCoinbaseCurrencyState",
							"name": "currencystate",
							"type": "tuple"
						},
						{
							"internalType": "uint32",
							"name": "notarizationheight",
							"type": "uint32"
						},
						{
							"components": [
								{
									"internalType": "bytes32",
									"name": "hash",
									"type": "bytes32"
								},
								{
									"internalType": "uint32",
									"name": "n",
									"type": "uint32"
								}
							],
							"internalType": "struct VerusObjectsNotarization.CUTXORef",
							"name": "prevnotarization",
							"type": "tuple"
						},
						{
							"internalType": "bytes32",
							"name": "hashprevnotarization",
							"type": "bytes32"
						},
						{
							"internalType": "uint32",
							"name": "prevheight",
							"type": "uint32"
						},
						{
							"components": [
								{
									"internalType": "address",
									"name": "currencyid",
									"type": "address"
								},
								{
									"components": [
										{
											"internalType": "uint16",
											"name": "version",
											"type": "uint16"
										},
										{
											"internalType": "uint16",
											"name": "flags",
											"type": "uint16"
										},
										{
											"internalType": "address",
											"name": "currencyid",
											"type": "address"
										},
										{
											"internalType": "uint160[]",
											"name": "currencies",
											"type": "uint160[]"
										},
										{
											"internalType": "int32[]",
											"name": "weights",
											"type": "int32[]"
										},
										{
											"internalType": "int64[]",
											"name": "reserves",
											"type": "int64[]"
										},
										{
											"internalType": "int64",
											"name": "initialsupply",
											"type": "int64"
										},
										{
											"internalType": "int64",
											"name": "emitted",
											"type": "int64"
										},
										{
											"internalType": "int64",
											"name": "supply",
											"type": "int64"
										},
										{
											"internalType": "int64",
											"name": "primarycurrencyout",
											"type": "int64"
										},
										{
											"internalType": "int64",
											"name": "preconvertedout",
											"type": "int64"
										},
										{
											"internalType": "int64",
											"name": "primarycurrencyfees",
											"type": "int64"
										},
										{
											"internalType": "int64",
											"name": "primarycurrencyconversionfees",
											"type": "int64"
										},
										{
											"internalType": "int64[]",
											"name": "reservein",
											"type": "int64[]"
										},
										{
											"internalType": "int64[]",
											"name": "primarycurrencyin",
											"type": "int64[]"
										},
										{
											"internalType": "int64[]",
											"name": "reserveout",
											"type": "int64[]"
										},
										{
											"internalType": "int64[]",
											"name": "conversionprice",
											"type": "int64[]"
										},
										{
											"internalType": "int64[]",
											"name": "viaconversionprice",
											"type": "int64[]"
										},
										{
											"internalType": "int64[]",
											"name": "fees",
											"type": "int64[]"
										},
										{
											"internalType": "int32[]",
											"name": "priorweights",
											"type": "int32[]"
										},
										{
											"internalType": "int64[]",
											"name": "conversionfees",
											"type": "int64[]"
										}
									],
									"internalType": "struct VerusObjectsNotarization.CCoinbaseCurrencyState",
									"name": "currencystate",
									"type": "tuple"
								}
							],
							"internalType": "struct VerusObjectsNotarization.CurrencyStates[]",
							"name": "currencystates",
							"type": "tuple[]"
						},
						{
							"components": [
								{
									"internalType": "int16",
									"name": "version",
									"type": "int16"
								},
								{
									"internalType": "int16",
									"name": "cprtype",
									"type": "int16"
								},
								{
									"internalType": "address",
									"name": "systemid",
									"type": "address"
								},
								{
									"internalType": "uint32",
									"name": "rootheight",
									"type": "uint32"
								},
								{
									"internalType": "bytes32",
									"name": "stateroot",
									"type": "bytes32"
								},
								{
									"internalType": "bytes32",
									"name": "blockhash",
									"type": "bytes32"
								},
								{
									"internalType": "bytes32",
									"name": "compactpower",
									"type": "bytes32"
								}
							],
							"internalType": "struct VerusObjectsNotarization.CProofRoot[]",
							"name": "proofroots",
							"type": "tuple[]"
						},
						{
							"components": [
								{
									"internalType": "string",
									"name": "networkaddress",
									"type": "string"
								},
								{
									"internalType": "address",
									"name": "nodeidentity",
									"type": "address"
								}
							],
							"internalType": "struct VerusObjectsNotarization.CNodeData[]",
							"name": "nodes",
							"type": "tuple[]"
						}
					],
					"internalType": "struct VerusObjectsNotarization.CPBaaSNotarization",
					"name": "_pbaasNotarization",
					"type": "tuple"
				},
				{
					"internalType": "uint8[]",
					"name": "_vs",
					"type": "uint8[]"
				},
				{
					"internalType": "bytes32[]",
					"name": "_rs",
					"type": "bytes32[]"
				},
				{
					"internalType": "bytes32[]",
					"name": "_ss",
					"type": "bytes32[]"
				},
				{
					"internalType": "uint32[]",
					"name": "blockheights",
					"type": "uint32[]"
				},
				{
					"internalType": "address[]",
					"name": "notaryAddress",
					"type": "address[]"
				}
			],
			"name": "setLatestData",
			"outputs": [
				{
					"internalType": "address",
					"name": "output",
					"type": "address"
				}
			],
			"stateMutability": "nonpayable",
			"type": "function"
		},
		{
			"inputs": [],
			"name": "upgradedAddress",
			"outputs": [
				{
					"internalType": "address",
					"name": "",
					"type": "address"
				}
			],
			"stateMutability": "view",
			"type": "function"
		}
	]
}