{
	"data": {
		"bytecode": {
			"linkReferences": {},
			"object": "60806040526040518060400160405280601081526020017f566572757344656661756c7448617368000000000000000000000000000000008152506002908051906020019062000051929190620000d2565b503480156200005f57600080fd5b506040516200006e9062000159565b604051809103906000f0801580156200008b573d6000803e3d6000fd5b50600160006101000a81548173ffffffffffffffffffffffffffffffffffffffff021916908373ffffffffffffffffffffffffffffffffffffffff16021790555062000186565b828054600181600116156101000203166002900490600052602060002090601f016020900481019282601f106200011557805160ff191683800117855562000146565b8280016001018555821562000146579182015b828111156200014557825182559160200191906001019062000128565b5b50905062000155919062000167565b5090565b612e788062001a4983390190565b5b808211156200018257600081600090555060010162000168565b5090565b6118b380620001966000396000f3fe608060405234801561001057600080fd5b506004361061007d5760003560e01c806395c12f531161005b57806395c12f5314610112578063bfe370d914610142578063c984bae814610172578063fe5320bf146101a25761007d565b80630a01b9b0146100825780632f0da104146100b257806382577c56146100e2575b600080fd5b61009c60048036038101906100979190610ebe565b6101d2565b6040516100a991906113d2565b60405180910390f35b6100cc60048036038101906100c79190610e1a565b6105e5565b6040516100d991906113d2565b60405180910390f35b6100fc60048036038101906100f79190610e43565b610764565b60405161010991906113b7565b60405180910390f35b61012c60048036038101906101279190610fd2565b610794565b60405161013991906113d2565b60405180910390f35b61015c60048036038101906101579190610f25565b6109a8565b60405161016991906113d2565b60405180910390f35b61018c60048036038101906101879190610f66565b6109d3565b604051610199919061143f565b60405180910390f35b6101bc60048036038101906101b79190610f66565b610b7b565b6040516101c991906113d2565b60405180910390f35b600080831015610217576040517f08c379a000000000000000000000000000000000000000000000000000000000815260040161020e906115fa565b60405180910390fd5b600082511161025b576040517f08c379a0000000000000000000000000000000000000000000000000000000008152600401610252906115ba565b60405180910390fd5b600082519050600061026b610b91565b60606040518060200160405280600081525060029080519060200190610292929190610bb4565b506102bb886040516020016102a791906112c7565b6040516020818303038152906040526109a8565b925060005b848110156105d65760006001891611156103a057888782815181106102e157fe5b6020026020010151141561032a576040517f08c379a0000000000000000000000000000000000000000000000000000000008152600401610321906115da565b60405180910390fd5b86818151811061033657fe5b6020026020010151846040516020016103509291906112e2565b60405160208183030381529060405291507fb59b9417237df8735fe744fca91cd5730d251ce869959d110a2915359096256182600160405161039392919061155a565b60405180910390a1610412565b838782815181106103ad57fe5b60200260200101516040516020016103c69291906112e2565b60405160208183030381529060405291507fb59b9417237df8735fe744fca91cd5730d251ce869959d110a2915359096256182600260405161040992919061158a565b60405180910390a15b600160009054906101000a900473ffffffffffffffffffffffffffffffffffffffff1673ffffffffffffffffffffffffffffffffffffffff1663d299dac083600260206040518463ffffffff1660e01b815260040161047393929190611515565b61010060405180830381600087803b15801561048e57600080fd5b505af11580156104a2573d6000803e3d6000fd5b505050506040513d601f19601f820116820180604052508101906104c69190610df0565b9250610586836000600881106104d857fe5b6020020151846001600881106104ea57fe5b6020020151856002600881106104fc57fe5b60200201518660036008811061050e57fe5b60200201518760046008811061052057fe5b60200201518860056008811061053257fe5b60200201518960066008811061054457fe5b60200201518a60076008811061055657fe5b6020020151604051602001610572989796959493929190611325565b6040516020818303038152906040526109a8565b93507f72969aef5690044312f898780ff7189689547472aaea4eb1e0de070b96ebc2788460036040516105ba929190611416565b60405180910390a1600188901c975080806001019150506102c0565b50829450505050509392505050565b600080600090505b60208160ff161080156106385750600060f81b838260ff166020811061060f57fe5b1a60f81b7effffffffffffffffffffffffffffffffffffffffffffffffffffffffffffff191614155b1561064a5780806001019150506105ed565b60608160ff1667ffffffffffffffff8111801561066657600080fd5b506040519080825280601f01601f1916602001820160405280156106995781602001600182028036833780820191505090505b509050600091505b60208260ff161080156106ec5750600060f81b848360ff16602081106106c357fe5b1a60f81b7effffffffffffffffffffffffffffffffffffffffffffffffffffffffffffff191614155b15610752578382601f0360ff166020811061070357fe5b1a60f81b818360ff168151811061071657fe5b60200101907effffffffffffffffffffffffffffffffffffffffffffffffffffffffffffff1916908160001a90535081806001019250506106a1565b61075b816109a8565b92505050919050565b6000806107728585856101d2565b90508086141561078657600191505061078c565b60009150505b949350505050565b600061079e610b91565b6060856040516020016107b1919061130e565b6040516020818303038152906040529050606080600160009054906101000a900473ffffffffffffffffffffffffffffffffffffffff1673ffffffffffffffffffffffffffffffffffffffff16631e0924238484848b60206040518663ffffffff1660e01b8152600401610829959493929190611461565b61010060405180830381600087803b15801561084457600080fd5b505af1158015610858573d6000803e3d6000fd5b505050506040513d601f19601f8201168201806040525081019061087c9190610df0565b935060608460006008811061088d57fe5b60200201518560016008811061089f57fe5b6020020151866002600881106108b157fe5b6020020151876003600881106108c357fe5b6020020151886004600881106108d557fe5b6020020151896005600881106108e757fe5b60200201518a6006600881106108f957fe5b60200201518b60076008811061090b57fe5b6020020151604051602001610927989796959493929190611325565b60405160208183030381529060405290506000610943826109a8565b905060011515881515141561095e5761095b816105e5565b90505b7f72969aef5690044312f898780ff7189689547472aaea4eb1e0de070b96ebc2788160016040516109909291906113ed565b60405180910390a18096505050505050509392505050565b600060608290506000815114156109c5576000801b9150506109ce565b60208301519150505b919050565b60606109dd610b91565b6060846040516020016109f0919061130e565b6040516020818303038152906040529050600160009054906101000a900473ffffffffffffffffffffffffffffffffffffffff1673ffffffffffffffffffffffffffffffffffffffff1663d299dac08286604080518463ffffffff1660e01b8152600401610a60939291906114d0565b61010060405180830381600087803b158015610a7b57600080fd5b505af1158015610a8f573d6000803e3d6000fd5b505050506040513d601f19601f82011682018060405250810190610ab39190610df0565b9150606082600060088110610ac457fe5b602002015183600160088110610ad657fe5b602002015184600260088110610ae857fe5b602002015185600360088110610afa57fe5b602002015186600460088110610b0c57fe5b602002015187600560088110610b1e57fe5b602002015188600660088110610b3057fe5b602002015189600760088110610b4257fe5b6020020151604051602001610b5e989796959493929190611325565b604051602081830303815290604052905080935050505092915050565b6000610b8983836000610794565b905092915050565b604051806101000160405280600890602082028036833780820191505090505090565b828054600181600116156101000203166002900490600052602060002090601f016020900481019282601f10610bf557805160ff1916838001178555610c23565b82800160010185558215610c23579182015b82811115610c22578251825591602001919060010190610c07565b5b509050610c309190610c34565b5090565b5b80821115610c4d576000816000905550600101610c35565b5090565b600082601f830112610c6257600080fd5b8135610c75610c7082611647565b61161a565b91508181835260208401935060208101905083856020840282011115610c9a57600080fd5b60005b83811015610cca5781610cb08882610d5d565b845260208401935060208301925050600181019050610c9d565b5050505092915050565b600082601f830112610ce557600080fd5b6008610cf8610cf38261166f565b61161a565b91508183856020840282011115610d0e57600080fd5b60005b83811015610d3e5781610d248882610ddb565b845260208401935060208301925050600181019050610d11565b5050505092915050565b600081359050610d5781611821565b92915050565b600081359050610d6c81611838565b92915050565b600082601f830112610d8357600080fd5b8135610d96610d9182611691565b61161a565b91508082526020830160208301858383011115610db257600080fd5b610dbd8382846117a5565b50505092915050565b600081359050610dd58161184f565b92915050565b600081519050610dea81611866565b92915050565b60006101008284031215610e0357600080fd5b6000610e1184828501610cd4565b91505092915050565b600060208284031215610e2c57600080fd5b6000610e3a84828501610d5d565b91505092915050565b60008060008060808587031215610e5957600080fd5b6000610e6787828801610d5d565b9450506020610e7887828801610d5d565b9350506040610e8987828801610dc6565b925050606085013567ffffffffffffffff811115610ea657600080fd5b610eb287828801610c51565b91505092959194509250565b600080600060608486031215610ed357600080fd5b6000610ee186828701610d5d565b9350506020610ef286828701610dc6565b925050604084013567ffffffffffffffff811115610f0f57600080fd5b610f1b86828701610c51565b9150509250925092565b600060208284031215610f3757600080fd5b600082013567ffffffffffffffff811115610f5157600080fd5b610f5d84828501610d72565b91505092915050565b60008060408385031215610f7957600080fd5b600083013567ffffffffffffffff811115610f9357600080fd5b610f9f85828601610d72565b925050602083013567ffffffffffffffff811115610fbc57600080fd5b610fc885828601610d72565b9150509250929050565b600080600060608486031215610fe757600080fd5b600084013567ffffffffffffffff81111561100157600080fd5b61100d86828701610d72565b935050602084013567ffffffffffffffff81111561102a57600080fd5b61103686828701610d72565b925050604061104786828701610d48565b9150509250925092565b61105a8161170a565b82525050565b61106981611716565b82525050565b61108061107b82611716565b6117e7565b82525050565b6000611091826116d2565b61109b81856116dd565b93506110ab8185602086016117b4565b6110b481611803565b840191505092915050565b60006110ca826116d2565b6110d481856116ee565b93506110e48185602086016117b4565b80840191505092915050565b60008154600181166000811461110d576001811461113357611177565b607f600283041661111e81876116dd565b955060ff198316865260208601935050611177565b6002820461114181876116dd565b955061114c856116bd565b60005b8281101561116e5781548189015260018201915060208101905061114f565b80880195505050505b505092915050565b6111888161174b565b82525050565b6111978161175d565b82525050565b6111a68161176f565b82525050565b6111b581611781565b82525050565b6111c481611793565b82525050565b60006111d7601c836116f9565b91507f4272616e6368206d757374206265206c6f6e676572207468616e2030000000006000830152602082019050919050565b60006112176031836116f9565b91507f56616c75652063616e20626520657175616c20746f206e6f646520627574206e60008301527f65766572206f6e207468652072696768740000000000000000000000000000006020830152604082019050919050565b600061127d601b836116f9565b91507f496e6465782063616e6e6f74206265206c657373207468616e203000000000006000830152602082019050919050565b6112c16112bc8261172a565b6117f1565b82525050565b60006112d3828461106f565b60208201915081905092915050565b60006112ee828561106f565b6020820191506112fe828461106f565b6020820191508190509392505050565b600061131a82846110bf565b915081905092915050565b6000611331828b6112b0565b600882019150611341828a6112b0565b60088201915061135182896112b0565b60088201915061136182886112b0565b60088201915061137182876112b0565b60088201915061138182866112b0565b60088201915061139182856112b0565b6008820191506113a182846112b0565b6008820191508190509998505050505050505050565b60006020820190506113cc6000830184611051565b92915050565b60006020820190506113e76000830184611060565b92915050565b60006040820190506114026000830185611060565b61140f602083018461117f565b9392505050565b600060408201905061142b6000830185611060565b61143860208301846111ac565b9392505050565b600060208201905081810360008301526114598184611086565b905092915050565b600060a082019050818103600083015261147b8188611086565b9050818103602083015261148f8187611086565b905081810360408301526114a38186611086565b905081810360608301526114b78185611086565b90506114c6608083018461119d565b9695505050505050565b600060608201905081810360008301526114ea8186611086565b905081810360208301526114fe8185611086565b905061150d60408301846111bb565b949350505050565b6000606082019050818103600083015261152f8186611086565b9050818103602083015261154381856110f0565b9050611552604083018461119d565b949350505050565b600060408201905081810360008301526115748185611086565b9050611583602083018461117f565b9392505050565b600060408201905081810360008301526115a48185611086565b90506115b3602083018461118e565b9392505050565b600060208201905081810360008301526115d3816111ca565b9050919050565b600060208201905081810360008301526115f38161120a565b9050919050565b6000602082019050818103600083015261161381611270565b9050919050565b6000604051905081810181811067ffffffffffffffff8211171561163d57600080fd5b8060405250919050565b600067ffffffffffffffff82111561165e57600080fd5b602082029050602081019050919050565b600067ffffffffffffffff82111561168657600080fd5b602082029050919050565b600067ffffffffffffffff8211156116a857600080fd5b601f19601f8301169050602081019050919050565b60008190508160005260206000209050919050565b600081519050919050565b600082825260208201905092915050565b600081905092915050565b600082825260208201905092915050565b60008115159050919050565b6000819050919050565b6000819050919050565b600067ffffffffffffffff82169050919050565b600060ff82169050919050565b60006117568261173e565b9050919050565b60006117688261173e565b9050919050565b600061177a8261172a565b9050919050565b600061178c8261173e565b9050919050565b600061179e8261172a565b9050919050565b82818337600083830152505050565b60005b838110156117d25780820151818401526020810190506117b7565b838111156117e1576000848401525b50505050565b6000819050919050565b60006117fc82611814565b9050919050565b6000601f19601f8301169050919050565b60008160c01b9050919050565b61182a8161170a565b811461183557600080fd5b50565b61184181611716565b811461184c57600080fd5b50565b61185881611720565b811461186357600080fd5b50565b61186f8161172a565b811461187a57600080fd5b5056fea2646970667358221220dfe18a0de8d4d6498583372e17d0141bbfb4d739e38f0d41acb98491fb786dd464736f6c634300060c00336080604052604051806101000160405280676a09e667f3bcc90867ffffffffffffffff16815260200167bb67ae8584caa73b67ffffffffffffffff168152602001673c6ef372fe94f82b67ffffffffffffffff16815260200167a54ff53a5f1d36f167ffffffffffffffff16815260200167510e527fade682d167ffffffffffffffff168152602001679b05688c2b3e6c1f67ffffffffffffffff168152602001671f83d9abfb41bd6b67ffffffffffffffff168152602001675be0cd19137e217967ffffffffffffffff168152506000906008620000e0929190620000f5565b50348015620000ee57600080fd5b50620001dc565b826008600301600490048101928215620001985791602002820160005b838211156200016057835183826101000a81548167ffffffffffffffff021916908367ffffffffffffffff160217905550926020019260080160208160070104928301926001030262000112565b8015620001965782816101000a81549067ffffffffffffffff021916905560080160208160070104928301926001030262000160565b505b509050620001a79190620001ab565b5090565b5b80821115620001d857600081816101000a81549067ffffffffffffffff021916905550600101620001ac565b5090565b612c8c80620001ec6000396000f3fe608060405234801561001057600080fd5b50600436106100935760003560e01c8063d299dac011610066578063d299dac014610515578063df459019146106b7578063f23525ec1461075a578063fa2acd87146107a6578063fb72d24e1461085d57610093565b80631e09242314610098578063217311ac146103685780637ac0b1e3146103be578063bf187478146104b5575b600080fd5b61032a600480360360a08110156100ae57600080fd5b81019080803590602001906401000000008111156100cb57600080fd5b8201836020820111156100dd57600080fd5b803590602001918460018302840111640100000000831117156100ff57600080fd5b91908080601f016020809104026020016040519081016040528093929190818152602001838380828437600081840152601f19601f8201169050808301925050505050505091929192908035906020019064010000000081111561016257600080fd5b82018360208201111561017457600080fd5b8035906020019184600183028401116401000000008311171561019657600080fd5b91908080601f016020809104026020016040519081016040528093929190818152602001838380828437600081840152601f19601f820116905080830192505050505050509192919290803590602001906401000000008111156101f957600080fd5b82018360208201111561020b57600080fd5b8035906020019184600183028401116401000000008311171561022d57600080fd5b91908080601f016020809104026020016040519081016040528093929190818152602001838380828437600081840152601f19601f8201169050808301925050505050505091929192908035906020019064010000000081111561029057600080fd5b8201836020820111156102a257600080fd5b803590602001918460018302840111640100000000831117156102c457600080fd5b91908080601f016020809104026020016040519081016040528093929190818152602001838380828437600081840152601f19601f820116905080830192505050505050509192919290803567ffffffffffffffff1690602001909291905050506108bd565b6040518082600860200280838360005b8381101561035557808201518184015260208101905061033a565b5050505090500191505060405180910390f35b61039e6004803603602081101561037e57600080fd5b81019080803567ffffffffffffffff169060200190929190505050610973565b604051808267ffffffffffffffff16815260200191505060405180910390f35b610477600480360360208110156103d457600080fd5b81019080803590602001906401000000008111156103f157600080fd5b82018360208201111561040357600080fd5b8035906020019184600183028401116401000000008311171561042557600080fd5b91908080601f016020809104026020016040519081016040528093929190818152602001838380828437600081840152601f19601f820116905080830192505050505050509192919290505050610a63565b6040518082600260200280838360005b838110156104a2578082015181840152602081019050610487565b5050505090500191505060405180910390f35b6104f5600480360360408110156104cb57600080fd5b81019080803567ffffffffffffffff16906020019092919080359060200190929190505050610ba0565b604051808267ffffffffffffffff16815260200191505060405180910390f35b6106796004803603606081101561052b57600080fd5b810190808035906020019064010000000081111561054857600080fd5b82018360208201111561055a57600080fd5b8035906020019184600183028401116401000000008311171561057c57600080fd5b91908080601f016020809104026020016040519081016040528093929190818152602001838380828437600081840152601f19601f820116905080830192505050505050509192919290803590602001906401000000008111156105df57600080fd5b8201836020820111156105f157600080fd5b8035906020019184600183028401116401000000008311171561061357600080fd5b91908080601f016020809104026020016040519081016040528093929190818152602001838380828437600081840152601f19601f820116905080830192505050505050509192919290803567ffffffffffffffff169060200190929190505050610bcc565b6040518082600860200280838360005b838110156106a4578082015181840152602081019050610689565b5050505090500191505060405180910390f35b61071c60048036036101008110156106ce57600080fd5b810190808061010001906008806020026040519081016040528092919082600860200280828437600081840152601f19601f8201169050808301925050505050509192919290505050610c08565b6040518082600260200280838360005b8381101561074757808201518184015260208101905061072c565b5050505090500191505060405180910390f35b6107866004803603602081101561077057600080fd5b8101908080359060200190929190505050610ca9565b604051808267ffffffffffffffff16815260200191505060405180910390f35b61085b60048036036102c08110156107bd57600080fd5b810190808061020001906010806020026040519081016040528092919082601060200280828437600081840152601f19601f820116905080830192505050505050919291929080359060200190929190803590602001909291908035906020019092919080359060200190929190803567ffffffffffffffff169060200190929190803567ffffffffffffffff169060200190929190505050610cda565b005b61089d6004803603604081101561087357600080fd5b81019080803567ffffffffffffffff16906020019092919080359060200190929190505050610eae565b604051808267ffffffffffffffff16815260200191505060405180910390f35b6108c5612b25565b6108cd612b48565b6108d5612b25565b6108f28285896108e48a610a63565b6108ed8a610a63565b610ecf565b6108fc82896111da565b61090682826112e6565b7fde1a9fb355752f7765552010c12ee02e62eaa7b0502f3088e6b5398ce8686a38816040518082600860200280838360005b83811015610953578082015181840152602081019050610938565b5050505090500191505060405180910390a1809250505095945050505050565b600067010000000000000060ff8316026501000000000061ff00841602630100000062ff000085160261010063ff00000086160261010067ffffffffffffffff1664ff00000000871667ffffffffffffffff16816109cd57fe5b04630100000067ffffffffffffffff1665ff0000000000881667ffffffffffffffff16816109f757fe5b046501000000000067ffffffffffffffff1666ff000000000000891667ffffffffffffffff1681610a2457fe5b0467010000000000000067ffffffffffffffff1667ff000000000000008a1667ffffffffffffffff1681610a5457fe5b04181818181818189050919050565b610a6b612b9f565b60005b8251811015610b0e57610ab0838281518110610a8657fe5b602001015160f81c60f81b60f81c60ff16600160088481610aa357fe5b0601600802604003610ba0565b8260088381610abb57fe5b0460028110610ac657fe5b6020020151188260088381610ad757fe5b0460028110610ae257fe5b602002019067ffffffffffffffff16908167ffffffffffffffff16815250508080600101915050610a6e565b50610b2981600060028110610b1f57fe5b6020020151610973565b81600060028110610b3657fe5b602002019067ffffffffffffffff16908167ffffffffffffffff1681525050610b6f81600160028110610b6557fe5b6020020151610973565b81600160028110610b7c57fe5b602002019067ffffffffffffffff16908167ffffffffffffffff1681525050919050565b6000680100000000000000008260020a8467ffffffffffffffff160281610bc357fe5b06905092915050565b610bd4612b25565b610bff84846040518060200160405280600081525060405180602001604052806000815250866108bd565b90509392505050565b610c10612bc1565b610c18612bc1565b60005b6008811015610c9f5760048181610c2e57fe5b0660030360400260020a848260088110610c4457fe5b602002015167ffffffffffffffff160260001b8260048381610c6257fe5b0460028110610c6d57fe5b6020020151188260048381610c7e57fe5b0460028110610c8957fe5b6020020181815250508080600101915050610c1b565b5080915050919050565b60008160088110610cb657fe5b60049182820401919006600802915054906101000a900467ffffffffffffffff1681565b6000878760108110610ce857fe5b602002015190506000888760108110610cfd57fe5b602002015190506000898760108110610d1257fe5b6020020151905060008a8760108110610d2757fe5b60200201519050680100000000000000008684860108935068010000000000000000640100000000858318096401000000008583180418905068010000000000000000818308915068010000000000000000650100000000008385180963010000008385180418925068010000000000000000858486010893506801000000000000000066010000000000008583180962010000858318041890506801000000000000000081830891506801000000000000000060028385180967800000000000000083851804189250838b8b60108110610dfe57fe5b602002019067ffffffffffffffff16908167ffffffffffffffff1681525050828b8a60108110610e2a57fe5b602002019067ffffffffffffffff16908167ffffffffffffffff1681525050818b8960108110610e5657fe5b602002019067ffffffffffffffff16908167ffffffffffffffff1681525050808b8860108110610e8257fe5b602002019067ffffffffffffffff16908167ffffffffffffffff16815250505050505050505050505050565b60008160020a8367ffffffffffffffff1681610ec657fe5b04905092915050565b60008467ffffffffffffffff161480610ef2575060408467ffffffffffffffff16115b80610efe575060408351115b15610f54576040517f08c379a000000000000000000000000000000000000000000000000000000000815260040180806020018281038252602e815260200180612c29602e913960400191505060405180910390fd5b60005b6008811015610fc95760008160088110610f6d57fe5b600491828204019190066008029054906101000a900467ffffffffffffffff1686602001518260088110610f9d57fe5b602002019067ffffffffffffffff16908167ffffffffffffffff16815250508080600101915050610f57565b5083610fd784516008610ba0565b63010100008760200151600060088110610fed57fe5b6020020151181818856020015160006008811061100657fe5b602002019067ffffffffffffffff16908167ffffffffffffffff16815250508160006002811061103257fe5b6020020151856020015160046008811061104857fe5b602002015118856020015160046008811061105f57fe5b602002019067ffffffffffffffff16908167ffffffffffffffff16815250508160016002811061108b57fe5b602002015185602001516005600881106110a157fe5b60200201511885602001516005600881106110b857fe5b602002019067ffffffffffffffff16908167ffffffffffffffff1681525050806000600281106110e457fe5b602002015185602001516006600881106110fa57fe5b602002015118856020015160066008811061111157fe5b602002019067ffffffffffffffff16908167ffffffffffffffff16815250508060016002811061113d57fe5b6020020151856020015160076008811061115357fe5b602002015118856020015160076008811061116a57fe5b602002019067ffffffffffffffff16908167ffffffffffffffff16815250508367ffffffffffffffff168560800181815250506000835111156111d3576111b185846111da565b6080856060019067ffffffffffffffff16908167ffffffffffffffff16815250505b5050505050565b60005b81518110156112e1576080836060015167ffffffffffffffff16141561126e57826060015167ffffffffffffffff1683604001818151019150906fffffffffffffffffffffffffffffffff1690816fffffffffffffffffffffffffffffffff168152505061124c836000611437565b6000836060019067ffffffffffffffff16908167ffffffffffffffff16815250505b600083606001805180919060010167ffffffffffffffff1667ffffffffffffffff1681525067ffffffffffffffff1690506112a7612be3565b8460000151905060008484815181106112bc57fe5b602001015160f81c60f81b60f81c9050808383015350505080806001019150506111dd565b505050565b816060015167ffffffffffffffff1682604001818151019150906fffffffffffffffffffffffffffffffff1690816fffffffffffffffffffffffffffffffff1681525050611335826001611437565b60005b600883608001518161134657fe5b048110156113a35761136b8360200151826008811061136157fe5b6020020151610973565b82826008811061137757fe5b602002019067ffffffffffffffff16908167ffffffffffffffff16815250508080600101915050611338565b50604082608001511015611433576113f96113df836020015160088560800151816113ca57fe5b04600881106113d557fe5b6020020151610973565b60088460800151816113ed57fe5b06600802604003610eae565b81600884608001518161140857fe5b046008811061141357fe5b602002019067ffffffffffffffff16908167ffffffffffffffff16815250505b5050565b61143f612c05565b611447612c05565b60005b60088110156114fb578460200151816008811061146357fe5b602002015183826010811061147457fe5b602002019067ffffffffffffffff16908167ffffffffffffffff1681525050600081600881106114a057fe5b600491828204019190066008029054906101000a900467ffffffffffffffff168360088301601081106114cf57fe5b602002019067ffffffffffffffff16908167ffffffffffffffff1681525050808060010191505061144a565b506801000000000000000084604001516fffffffffffffffffffffffffffffffff168161152457fe5b0682600c6010811061153257fe5b60200201511882600c6010811061154557fe5b602002019067ffffffffffffffff16908167ffffffffffffffff16815250506801000000000000000084604001516fffffffffffffffffffffffffffffffff168161158c57fe5b0482600d6010811061159a57fe5b60200201511882600d601081106115ad57fe5b602002019067ffffffffffffffff16908167ffffffffffffffff168152505082156116125781600e601081106115df57fe5b60200201511982600e601081106115f257fe5b602002019067ffffffffffffffff16908167ffffffffffffffff16815250505b60008060005b60108110156116b95760006004828161162d57fe5b06905060009350600081141561165f5787600001516004838161164c57fe5b046004811061165757fe5b602002015192505b67ffffffffffffffff8160030360400260020a840416935061168084610973565b85836010811061168c57fe5b602002019067ffffffffffffffff16908167ffffffffffffffff1681525050508080600101915050611618565b506116ef84600060046008600c886000601081106116d357fe5b6020020151896001601081106116e557fe5b6020020151610cda565b61172484600160056009600d8860026010811061170857fe5b60200201518960036010811061171a57fe5b6020020151610cda565b6117598460026006600a600e8860046010811061173d57fe5b60200201518960056010811061174f57fe5b6020020151610cda565b61178e8460036007600b600f8860066010811061177257fe5b60200201518960076010811061178457fe5b6020020151610cda565b6117c38460006005600a600f886008601081106117a757fe5b6020020151896009601081106117b957fe5b6020020151610cda565b6117f88460016006600b600c88600a601081106117dc57fe5b602002015189600b601081106117ee57fe5b6020020151610cda565b61182d84600260076008600d88600c6010811061181157fe5b602002015189600d6010811061182357fe5b6020020151610cda565b61186284600360046009600e88600e6010811061184657fe5b602002015189600f6010811061185857fe5b6020020151610cda565b61189784600060046008600c88600e6010811061187b57fe5b602002015189600a6010811061188d57fe5b6020020151610cda565b6118cc84600160056009600d886004601081106118b057fe5b6020020151896008601081106118c257fe5b6020020151610cda565b6119018460026006600a600e886009601081106118e557fe5b602002015189600f601081106118f757fe5b6020020151610cda565b6119368460036007600b600f88600d6010811061191a57fe5b60200201518960066010811061192c57fe5b6020020151610cda565b61196b8460006005600a600f8860016010811061194f57fe5b602002015189600c6010811061196157fe5b6020020151610cda565b6119a08460016006600b600c8860006010811061198457fe5b60200201518960026010811061199657fe5b6020020151610cda565b6119d584600260076008600d88600b601081106119b957fe5b6020020151896007601081106119cb57fe5b6020020151610cda565b611a0a84600360046009600e886005601081106119ee57fe5b602002015189600360108110611a0057fe5b6020020151610cda565b611a3f84600060046008600c88600b60108110611a2357fe5b602002015189600860108110611a3557fe5b6020020151610cda565b611a7484600160056009600d88600c60108110611a5857fe5b602002015189600060108110611a6a57fe5b6020020151610cda565b611aa98460026006600a600e88600560108110611a8d57fe5b602002015189600260108110611a9f57fe5b6020020151610cda565b611ade8460036007600b600f88600f60108110611ac257fe5b602002015189600d60108110611ad457fe5b6020020151610cda565b611b138460006005600a600f88600a60108110611af757fe5b602002015189600e60108110611b0957fe5b6020020151610cda565b611b488460016006600b600c88600360108110611b2c57fe5b602002015189600660108110611b3e57fe5b6020020151610cda565b611b7d84600260076008600d88600760108110611b6157fe5b602002015189600160108110611b7357fe5b6020020151610cda565b611bb284600360046009600e88600960108110611b9657fe5b602002015189600460108110611ba857fe5b6020020151610cda565b611be784600060046008600c88600760108110611bcb57fe5b602002015189600960108110611bdd57fe5b6020020151610cda565b611c1c84600160056009600d88600360108110611c0057fe5b602002015189600160108110611c1257fe5b6020020151610cda565b611c518460026006600a600e88600d60108110611c3557fe5b602002015189600c60108110611c4757fe5b6020020151610cda565b611c868460036007600b600f88600b60108110611c6a57fe5b602002015189600e60108110611c7c57fe5b6020020151610cda565b611cbb8460006005600a600f88600260108110611c9f57fe5b602002015189600660108110611cb157fe5b6020020151610cda565b611cf08460016006600b600c88600560108110611cd457fe5b602002015189600a60108110611ce657fe5b6020020151610cda565b611d2584600260076008600d88600460108110611d0957fe5b602002015189600060108110611d1b57fe5b6020020151610cda565b611d5a84600360046009600e88600f60108110611d3e57fe5b602002015189600860108110611d5057fe5b6020020151610cda565b611d8f84600060046008600c88600960108110611d7357fe5b602002015189600060108110611d8557fe5b6020020151610cda565b611dc484600160056009600d88600560108110611da857fe5b602002015189600760108110611dba57fe5b6020020151610cda565b611df98460026006600a600e88600260108110611ddd57fe5b602002015189600460108110611def57fe5b6020020151610cda565b611e2e8460036007600b600f88600a60108110611e1257fe5b602002015189600f60108110611e2457fe5b6020020151610cda565b611e638460006005600a600f88600e60108110611e4757fe5b602002015189600160108110611e5957fe5b6020020151610cda565b611e988460016006600b600c88600b60108110611e7c57fe5b602002015189600c60108110611e8e57fe5b6020020151610cda565b611ecd84600260076008600d88600660108110611eb157fe5b602002015189600860108110611ec357fe5b6020020151610cda565b611f0284600360046009600e88600360108110611ee657fe5b602002015189600d60108110611ef857fe5b6020020151610cda565b611f3784600060046008600c88600260108110611f1b57fe5b602002015189600c60108110611f2d57fe5b6020020151610cda565b611f6c84600160056009600d88600660108110611f5057fe5b602002015189600a60108110611f6257fe5b6020020151610cda565b611fa18460026006600a600e88600060108110611f8557fe5b602002015189600b60108110611f9757fe5b6020020151610cda565b611fd68460036007600b600f88600860108110611fba57fe5b602002015189600360108110611fcc57fe5b6020020151610cda565b61200b8460006005600a600f88600460108110611fef57fe5b602002015189600d6010811061200157fe5b6020020151610cda565b6120408460016006600b600c8860076010811061202457fe5b60200201518960056010811061203657fe5b6020020151610cda565b61207584600260076008600d88600f6010811061205957fe5b602002015189600e6010811061206b57fe5b6020020151610cda565b6120aa84600360046009600e8860016010811061208e57fe5b6020020151896009601081106120a057fe5b6020020151610cda565b6120df84600060046008600c88600c601081106120c357fe5b6020020151896005601081106120d557fe5b6020020151610cda565b61211484600160056009600d886001601081106120f857fe5b602002015189600f6010811061210a57fe5b6020020151610cda565b6121498460026006600a600e88600e6010811061212d57fe5b602002015189600d6010811061213f57fe5b6020020151610cda565b61217e8460036007600b600f8860046010811061216257fe5b602002015189600a6010811061217457fe5b6020020151610cda565b6121b38460006005600a600f8860006010811061219757fe5b6020020151896007601081106121a957fe5b6020020151610cda565b6121e88460016006600b600c886006601081106121cc57fe5b6020020151896003601081106121de57fe5b6020020151610cda565b61221d84600260076008600d8860096010811061220157fe5b60200201518960026010811061221357fe5b6020020151610cda565b61225284600360046009600e8860086010811061223657fe5b602002015189600b6010811061224857fe5b6020020151610cda565b61228784600060046008600c88600d6010811061226b57fe5b602002015189600b6010811061227d57fe5b6020020151610cda565b6122bc84600160056009600d886007601081106122a057fe5b602002015189600e601081106122b257fe5b6020020151610cda565b6122f18460026006600a600e88600c601081106122d557fe5b6020020151896001601081106122e757fe5b6020020151610cda565b6123268460036007600b600f8860036010811061230a57fe5b60200201518960096010811061231c57fe5b6020020151610cda565b61235b8460006005600a600f8860056010811061233f57fe5b60200201518960006010811061235157fe5b6020020151610cda565b6123908460016006600b600c88600f6010811061237457fe5b60200201518960046010811061238657fe5b6020020151610cda565b6123c584600260076008600d886008601081106123a957fe5b6020020151896006601081106123bb57fe5b6020020151610cda565b6123fa84600360046009600e886002601081106123de57fe5b602002015189600a601081106123f057fe5b6020020151610cda565b61242f84600060046008600c8860066010811061241357fe5b602002015189600f6010811061242557fe5b6020020151610cda565b61246484600160056009600d88600e6010811061244857fe5b60200201518960096010811061245a57fe5b6020020151610cda565b6124998460026006600a600e88600b6010811061247d57fe5b60200201518960036010811061248f57fe5b6020020151610cda565b6124ce8460036007600b600f886000601081106124b257fe5b6020020151896008601081106124c457fe5b6020020151610cda565b6125038460006005600a600f88600c601081106124e757fe5b6020020151896002601081106124f957fe5b6020020151610cda565b6125388460016006600b600c88600d6010811061251c57fe5b60200201518960076010811061252e57fe5b6020020151610cda565b61256d84600260076008600d8860016010811061255157fe5b60200201518960046010811061256357fe5b6020020151610cda565b6125a284600360046009600e88600a6010811061258657fe5b60200201518960056010811061259857fe5b6020020151610cda565b6125d784600060046008600c88600a601081106125bb57fe5b6020020151896002601081106125cd57fe5b6020020151610cda565b61260c84600160056009600d886008601081106125f057fe5b60200201518960046010811061260257fe5b6020020151610cda565b6126418460026006600a600e8860076010811061262557fe5b60200201518960066010811061263757fe5b6020020151610cda565b6126768460036007600b600f8860016010811061265a57fe5b60200201518960056010811061266c57fe5b6020020151610cda565b6126ab8460006005600a600f88600f6010811061268f57fe5b602002015189600b601081106126a157fe5b6020020151610cda565b6126e08460016006600b600c886009601081106126c457fe5b602002015189600e601081106126d657fe5b6020020151610cda565b61271584600260076008600d886003601081106126f957fe5b602002015189600c6010811061270b57fe5b6020020151610cda565b61274a84600360046009600e88600d6010811061272e57fe5b60200201518960006010811061274057fe5b6020020151610cda565b61277f84600060046008600c8860006010811061276357fe5b60200201518960016010811061277557fe5b6020020151610cda565b6127b484600160056009600d8860026010811061279857fe5b6020020151896003601081106127aa57fe5b6020020151610cda565b6127e98460026006600a600e886004601081106127cd57fe5b6020020151896005601081106127df57fe5b6020020151610cda565b61281e8460036007600b600f8860066010811061280257fe5b60200201518960076010811061281457fe5b6020020151610cda565b6128538460006005600a600f8860086010811061283757fe5b60200201518960096010811061284957fe5b6020020151610cda565b6128888460016006600b600c88600a6010811061286c57fe5b602002015189600b6010811061287e57fe5b6020020151610cda565b6128bd84600260076008600d88600c601081106128a157fe5b602002015189600d601081106128b357fe5b6020020151610cda565b6128f284600360046009600e88600e601081106128d657fe5b602002015189600f601081106128e857fe5b6020020151610cda565b61292784600060046008600c88600e6010811061290b57fe5b602002015189600a6010811061291d57fe5b6020020151610cda565b61295c84600160056009600d8860046010811061294057fe5b60200201518960086010811061295257fe5b6020020151610cda565b6129918460026006600a600e8860096010811061297557fe5b602002015189600f6010811061298757fe5b6020020151610cda565b6129c68460036007600b600f88600d601081106129aa57fe5b6020020151896006601081106129bc57fe5b6020020151610cda565b6129fb8460006005600a600f886001601081106129df57fe5b602002015189600c601081106129f157fe5b6020020151610cda565b612a308460016006600b600c88600060108110612a1457fe5b602002015189600260108110612a2657fe5b6020020151610cda565b612a6584600260076008600d88600b60108110612a4957fe5b602002015189600760108110612a5b57fe5b6020020151610cda565b612a9a84600360046009600e88600560108110612a7e57fe5b602002015189600360108110612a9057fe5b6020020151610cda565b60005b6008811015612b1c57846008820160108110612ab557fe5b6020020151858260108110612ac657fe5b602002015188602001518360088110612adb57fe5b6020020151181887602001518260088110612af257fe5b602002019067ffffffffffffffff16908167ffffffffffffffff1681525050806001019050612a9d565b50505050505050565b604051806101000160405280600890602082028036833780820191505090505090565b6040518060a00160405280612b5b612be3565b8152602001612b68612b25565b815260200160006fffffffffffffffffffffffffffffffff168152602001600067ffffffffffffffff168152602001600081525090565b6040518060400160405280600290602082028036833780820191505090505090565b6040518060400160405280600290602082028036833780820191505090505090565b6040518060800160405280600490602082028036833780820191505090505090565b60405180610200016040528060109060208202803683378082019150509050509056fe4f75746c656e206d7573742062652067726561746572207468616e203020616e64206c657373207468616e203634a2646970667358221220fe109a32a00caa29a9016356c07c1dd58c2b4bd046444706736b2bff1fa601a664736f6c634300060c0033",
			"opcodes": "PUSH1 0x80 PUSH1 0x40 MSTORE PUSH1 0x40 MLOAD DUP1 PUSH1 0x40 ADD PUSH1 0x40 MSTORE DUP1 PUSH1 0x10 DUP2 MSTORE PUSH1 0x20 ADD PUSH32 0x566572757344656661756C744861736800000000000000000000000000000000 DUP2 MSTORE POP PUSH1 0x2 SWAP1 DUP1 MLOAD SWAP1 PUSH1 0x20 ADD SWAP1 PUSH3 0x51 SWAP3 SWAP2 SWAP1 PUSH3 0xD2 JUMP JUMPDEST POP CALLVALUE DUP1 ISZERO PUSH3 0x5F JUMPI PUSH1 0x0 DUP1 REVERT JUMPDEST POP PUSH1 0x40 MLOAD PUSH3 0x6E SWAP1 PUSH3 0x159 JUMP JUMPDEST PUSH1 0x40 MLOAD DUP1 SWAP2 SUB SWAP1 PUSH1 0x0 CREATE DUP1 ISZERO DUP1 ISZERO PUSH3 0x8B JUMPI RETURNDATASIZE PUSH1 0x0 DUP1 RETURNDATACOPY RETURNDATASIZE PUSH1 0x0 REVERT JUMPDEST POP PUSH1 0x1 PUSH1 0x0 PUSH2 0x100 EXP DUP2 SLOAD DUP2 PUSH20 0xFFFFFFFFFFFFFFFFFFFFFFFFFFFFFFFFFFFFFFFF MUL NOT AND SWAP1 DUP4 PUSH20 0xFFFFFFFFFFFFFFFFFFFFFFFFFFFFFFFFFFFFFFFF AND MUL OR SWAP1 SSTORE POP PUSH3 0x186 JUMP JUMPDEST DUP3 DUP1 SLOAD PUSH1 0x1 DUP2 PUSH1 0x1 AND ISZERO PUSH2 0x100 MUL SUB AND PUSH1 0x2 SWAP1 DIV SWAP1 PUSH1 0x0 MSTORE PUSH1 0x20 PUSH1 0x0 KECCAK256 SWAP1 PUSH1 0x1F ADD PUSH1 0x20 SWAP1 DIV DUP2 ADD SWAP3 DUP3 PUSH1 0x1F LT PUSH3 0x115 JUMPI DUP1 MLOAD PUSH1 0xFF NOT AND DUP4 DUP1 ADD OR DUP6 SSTORE PUSH3 0x146 JUMP JUMPDEST DUP3 DUP1 ADD PUSH1 0x1 ADD DUP6 SSTORE DUP3 ISZERO PUSH3 0x146 JUMPI SWAP2 DUP3 ADD JUMPDEST DUP3 DUP2 GT ISZERO PUSH3 0x145 JUMPI DUP3 MLOAD DUP3 SSTORE SWAP2 PUSH1 0x20 ADD SWAP2 SWAP1 PUSH1 0x1 ADD SWAP1 PUSH3 0x128 JUMP JUMPDEST JUMPDEST POP SWAP1 POP PUSH3 0x155 SWAP2 SWAP1 PUSH3 0x167 JUMP JUMPDEST POP SWAP1 JUMP JUMPDEST PUSH2 0x2E78 DUP1 PUSH3 0x1A49 DUP4 CODECOPY ADD SWAP1 JUMP JUMPDEST JUMPDEST DUP1 DUP3 GT ISZERO PUSH3 0x182 JUMPI PUSH1 0x0 DUP2 PUSH1 0x0 SWAP1 SSTORE POP PUSH1 0x1 ADD PUSH3 0x168 JUMP JUMPDEST POP SWAP1 JUMP JUMPDEST PUSH2 0x18B3 DUP1 PUSH3 0x196 PUSH1 0x0 CODECOPY PUSH1 0x0 RETURN INVALID PUSH1 0x80 PUSH1 0x40 MSTORE CALLVALUE DUP1 ISZERO PUSH2 0x10 JUMPI PUSH1 0x0 DUP1 REVERT JUMPDEST POP PUSH1 0x4 CALLDATASIZE LT PUSH2 0x7D JUMPI PUSH1 0x0 CALLDATALOAD PUSH1 0xE0 SHR DUP1 PUSH4 0x95C12F53 GT PUSH2 0x5B JUMPI DUP1 PUSH4 0x95C12F53 EQ PUSH2 0x112 JUMPI DUP1 PUSH4 0xBFE370D9 EQ PUSH2 0x142 JUMPI DUP1 PUSH4 0xC984BAE8 EQ PUSH2 0x172 JUMPI DUP1 PUSH4 0xFE5320BF EQ PUSH2 0x1A2 JUMPI PUSH2 0x7D JUMP JUMPDEST DUP1 PUSH4 0xA01B9B0 EQ PUSH2 0x82 JUMPI DUP1 PUSH4 0x2F0DA104 EQ PUSH2 0xB2 JUMPI DUP1 PUSH4 0x82577C56 EQ PUSH2 0xE2 JUMPI JUMPDEST PUSH1 0x0 DUP1 REVERT JUMPDEST PUSH2 0x9C PUSH1 0x4 DUP1 CALLDATASIZE SUB DUP2 ADD SWAP1 PUSH2 0x97 SWAP2 SWAP1 PUSH2 0xEBE JUMP JUMPDEST PUSH2 0x1D2 JUMP JUMPDEST PUSH1 0x40 MLOAD PUSH2 0xA9 SWAP2 SWAP1 PUSH2 0x13D2 JUMP JUMPDEST PUSH1 0x40 MLOAD DUP1 SWAP2 SUB SWAP1 RETURN JUMPDEST PUSH2 0xCC PUSH1 0x4 DUP1 CALLDATASIZE SUB DUP2 ADD SWAP1 PUSH2 0xC7 SWAP2 SWAP1 PUSH2 0xE1A JUMP JUMPDEST PUSH2 0x5E5 JUMP JUMPDEST PUSH1 0x40 MLOAD PUSH2 0xD9 SWAP2 SWAP1 PUSH2 0x13D2 JUMP JUMPDEST PUSH1 0x40 MLOAD DUP1 SWAP2 SUB SWAP1 RETURN JUMPDEST PUSH2 0xFC PUSH1 0x4 DUP1 CALLDATASIZE SUB DUP2 ADD SWAP1 PUSH2 0xF7 SWAP2 SWAP1 PUSH2 0xE43 JUMP JUMPDEST PUSH2 0x764 JUMP JUMPDEST PUSH1 0x40 MLOAD PUSH2 0x109 SWAP2 SWAP1 PUSH2 0x13B7 JUMP JUMPDEST PUSH1 0x40 MLOAD DUP1 SWAP2 SUB SWAP1 RETURN JUMPDEST PUSH2 0x12C PUSH1 0x4 DUP1 CALLDATASIZE SUB DUP2 ADD SWAP1 PUSH2 0x127 SWAP2 SWAP1 PUSH2 0xFD2 JUMP JUMPDEST PUSH2 0x794 JUMP JUMPDEST PUSH1 0x40 MLOAD PUSH2 0x139 SWAP2 SWAP1 PUSH2 0x13D2 JUMP JUMPDEST PUSH1 0x40 MLOAD DUP1 SWAP2 SUB SWAP1 RETURN JUMPDEST PUSH2 0x15C PUSH1 0x4 DUP1 CALLDATASIZE SUB DUP2 ADD SWAP1 PUSH2 0x157 SWAP2 SWAP1 PUSH2 0xF25 JUMP JUMPDEST PUSH2 0x9A8 JUMP JUMPDEST PUSH1 0x40 MLOAD PUSH2 0x169 SWAP2 SWAP1 PUSH2 0x13D2 JUMP JUMPDEST PUSH1 0x40 MLOAD DUP1 SWAP2 SUB SWAP1 RETURN JUMPDEST PUSH2 0x18C PUSH1 0x4 DUP1 CALLDATASIZE SUB DUP2 ADD SWAP1 PUSH2 0x187 SWAP2 SWAP1 PUSH2 0xF66 JUMP JUMPDEST PUSH2 0x9D3 JUMP JUMPDEST PUSH1 0x40 MLOAD PUSH2 0x199 SWAP2 SWAP1 PUSH2 0x143F JUMP JUMPDEST PUSH1 0x40 MLOAD DUP1 SWAP2 SUB SWAP1 RETURN JUMPDEST PUSH2 0x1BC PUSH1 0x4 DUP1 CALLDATASIZE SUB DUP2 ADD SWAP1 PUSH2 0x1B7 SWAP2 SWAP1 PUSH2 0xF66 JUMP JUMPDEST PUSH2 0xB7B JUMP JUMPDEST PUSH1 0x40 MLOAD PUSH2 0x1C9 SWAP2 SWAP1 PUSH2 0x13D2 JUMP JUMPDEST PUSH1 0x40 MLOAD DUP1 SWAP2 SUB SWAP1 RETURN JUMPDEST PUSH1 0x0 DUP1 DUP4 LT ISZERO PUSH2 0x217 JUMPI PUSH1 0x40 MLOAD PUSH32 0x8C379A000000000000000000000000000000000000000000000000000000000 DUP2 MSTORE PUSH1 0x4 ADD PUSH2 0x20E SWAP1 PUSH2 0x15FA JUMP JUMPDEST PUSH1 0x40 MLOAD DUP1 SWAP2 SUB SWAP1 REVERT JUMPDEST PUSH1 0x0 DUP3 MLOAD GT PUSH2 0x25B JUMPI PUSH1 0x40 MLOAD PUSH32 0x8C379A000000000000000000000000000000000000000000000000000000000 DUP2 MSTORE PUSH1 0x4 ADD PUSH2 0x252 SWAP1 PUSH2 0x15BA JUMP JUMPDEST PUSH1 0x40 MLOAD DUP1 SWAP2 SUB SWAP1 REVERT JUMPDEST PUSH1 0x0 DUP3 MLOAD SWAP1 POP PUSH1 0x0 PUSH2 0x26B PUSH2 0xB91 JUMP JUMPDEST PUSH1 0x60 PUSH1 0x40 MLOAD DUP1 PUSH1 0x20 ADD PUSH1 0x40 MSTORE DUP1 PUSH1 0x0 DUP2 MSTORE POP PUSH1 0x2 SWAP1 DUP1 MLOAD SWAP1 PUSH1 0x20 ADD SWAP1 PUSH2 0x292 SWAP3 SWAP2 SWAP1 PUSH2 0xBB4 JUMP JUMPDEST POP PUSH2 0x2BB DUP9 PUSH1 0x40 MLOAD PUSH1 0x20 ADD PUSH2 0x2A7 SWAP2 SWAP1 PUSH2 0x12C7 JUMP JUMPDEST PUSH1 0x40 MLOAD PUSH1 0x20 DUP2 DUP4 SUB SUB DUP2 MSTORE SWAP1 PUSH1 0x40 MSTORE PUSH2 0x9A8 JUMP JUMPDEST SWAP3 POP PUSH1 0x0 JUMPDEST DUP5 DUP2 LT ISZERO PUSH2 0x5D6 JUMPI PUSH1 0x0 PUSH1 0x1 DUP10 AND GT ISZERO PUSH2 0x3A0 JUMPI DUP9 DUP8 DUP3 DUP2 MLOAD DUP2 LT PUSH2 0x2E1 JUMPI INVALID JUMPDEST PUSH1 0x20 MUL PUSH1 0x20 ADD ADD MLOAD EQ ISZERO PUSH2 0x32A JUMPI PUSH1 0x40 MLOAD PUSH32 0x8C379A000000000000000000000000000000000000000000000000000000000 DUP2 MSTORE PUSH1 0x4 ADD PUSH2 0x321 SWAP1 PUSH2 0x15DA JUMP JUMPDEST PUSH1 0x40 MLOAD DUP1 SWAP2 SUB SWAP1 REVERT JUMPDEST DUP7 DUP2 DUP2 MLOAD DUP2 LT PUSH2 0x336 JUMPI INVALID JUMPDEST PUSH1 0x20 MUL PUSH1 0x20 ADD ADD MLOAD DUP5 PUSH1 0x40 MLOAD PUSH1 0x20 ADD PUSH2 0x350 SWAP3 SWAP2 SWAP1 PUSH2 0x12E2 JUMP JUMPDEST PUSH1 0x40 MLOAD PUSH1 0x20 DUP2 DUP4 SUB SUB DUP2 MSTORE SWAP1 PUSH1 0x40 MSTORE SWAP2 POP PUSH32 0xB59B9417237DF8735FE744FCA91CD5730D251CE869959D110A29153590962561 DUP3 PUSH1 0x1 PUSH1 0x40 MLOAD PUSH2 0x393 SWAP3 SWAP2 SWAP1 PUSH2 0x155A JUMP JUMPDEST PUSH1 0x40 MLOAD DUP1 SWAP2 SUB SWAP1 LOG1 PUSH2 0x412 JUMP JUMPDEST DUP4 DUP8 DUP3 DUP2 MLOAD DUP2 LT PUSH2 0x3AD JUMPI INVALID JUMPDEST PUSH1 0x20 MUL PUSH1 0x20 ADD ADD MLOAD PUSH1 0x40 MLOAD PUSH1 0x20 ADD PUSH2 0x3C6 SWAP3 SWAP2 SWAP1 PUSH2 0x12E2 JUMP JUMPDEST PUSH1 0x40 MLOAD PUSH1 0x20 DUP2 DUP4 SUB SUB DUP2 MSTORE SWAP1 PUSH1 0x40 MSTORE SWAP2 POP PUSH32 0xB59B9417237DF8735FE744FCA91CD5730D251CE869959D110A29153590962561 DUP3 PUSH1 0x2 PUSH1 0x40 MLOAD PUSH2 0x409 SWAP3 SWAP2 SWAP1 PUSH2 0x158A JUMP JUMPDEST PUSH1 0x40 MLOAD DUP1 SWAP2 SUB SWAP1 LOG1 JUMPDEST PUSH1 0x1 PUSH1 0x0 SWAP1 SLOAD SWAP1 PUSH2 0x100 EXP SWAP1 DIV PUSH20 0xFFFFFFFFFFFFFFFFFFFFFFFFFFFFFFFFFFFFFFFF AND PUSH20 0xFFFFFFFFFFFFFFFFFFFFFFFFFFFFFFFFFFFFFFFF AND PUSH4 0xD299DAC0 DUP4 PUSH1 0x2 PUSH1 0x20 PUSH1 0x40 MLOAD DUP5 PUSH4 0xFFFFFFFF AND PUSH1 0xE0 SHL DUP2 MSTORE PUSH1 0x4 ADD PUSH2 0x473 SWAP4 SWAP3 SWAP2 SWAP1 PUSH2 0x1515 JUMP JUMPDEST PUSH2 0x100 PUSH1 0x40 MLOAD DUP1 DUP4 SUB DUP2 PUSH1 0x0 DUP8 DUP1 EXTCODESIZE ISZERO DUP1 ISZERO PUSH2 0x48E JUMPI PUSH1 0x0 DUP1 REVERT JUMPDEST POP GAS CALL ISZERO DUP1 ISZERO PUSH2 0x4A2 JUMPI RETURNDATASIZE PUSH1 0x0 DUP1 RETURNDATACOPY RETURNDATASIZE PUSH1 0x0 REVERT JUMPDEST POP POP POP POP PUSH1 0x40 MLOAD RETURNDATASIZE PUSH1 0x1F NOT PUSH1 0x1F DUP3 ADD AND DUP3 ADD DUP1 PUSH1 0x40 MSTORE POP DUP2 ADD SWAP1 PUSH2 0x4C6 SWAP2 SWAP1 PUSH2 0xDF0 JUMP JUMPDEST SWAP3 POP PUSH2 0x586 DUP4 PUSH1 0x0 PUSH1 0x8 DUP2 LT PUSH2 0x4D8 JUMPI INVALID JUMPDEST PUSH1 0x20 MUL ADD MLOAD DUP5 PUSH1 0x1 PUSH1 0x8 DUP2 LT PUSH2 0x4EA JUMPI INVALID JUMPDEST PUSH1 0x20 MUL ADD MLOAD DUP6 PUSH1 0x2 PUSH1 0x8 DUP2 LT PUSH2 0x4FC JUMPI INVALID JUMPDEST PUSH1 0x20 MUL ADD MLOAD DUP7 PUSH1 0x3 PUSH1 0x8 DUP2 LT PUSH2 0x50E JUMPI INVALID JUMPDEST PUSH1 0x20 MUL ADD MLOAD DUP8 PUSH1 0x4 PUSH1 0x8 DUP2 LT PUSH2 0x520 JUMPI INVALID JUMPDEST PUSH1 0x20 MUL ADD MLOAD DUP9 PUSH1 0x5 PUSH1 0x8 DUP2 LT PUSH2 0x532 JUMPI INVALID JUMPDEST PUSH1 0x20 MUL ADD MLOAD DUP10 PUSH1 0x6 PUSH1 0x8 DUP2 LT PUSH2 0x544 JUMPI INVALID JUMPDEST PUSH1 0x20 MUL ADD MLOAD DUP11 PUSH1 0x7 PUSH1 0x8 DUP2 LT PUSH2 0x556 JUMPI INVALID JUMPDEST PUSH1 0x20 MUL ADD MLOAD PUSH1 0x40 MLOAD PUSH1 0x20 ADD PUSH2 0x572 SWAP9 SWAP8 SWAP7 SWAP6 SWAP5 SWAP4 SWAP3 SWAP2 SWAP1 PUSH2 0x1325 JUMP JUMPDEST PUSH1 0x40 MLOAD PUSH1 0x20 DUP2 DUP4 SUB SUB DUP2 MSTORE SWAP1 PUSH1 0x40 MSTORE PUSH2 0x9A8 JUMP JUMPDEST SWAP4 POP PUSH32 0x72969AEF5690044312F898780FF7189689547472AAEA4EB1E0DE070B96EBC278 DUP5 PUSH1 0x3 PUSH1 0x40 MLOAD PUSH2 0x5BA SWAP3 SWAP2 SWAP1 PUSH2 0x1416 JUMP JUMPDEST PUSH1 0x40 MLOAD DUP1 SWAP2 SUB SWAP1 LOG1 PUSH1 0x1 DUP9 SWAP1 SHR SWAP8 POP DUP1 DUP1 PUSH1 0x1 ADD SWAP2 POP POP PUSH2 0x2C0 JUMP JUMPDEST POP DUP3 SWAP5 POP POP POP POP POP SWAP4 SWAP3 POP POP POP JUMP JUMPDEST PUSH1 0x0 DUP1 PUSH1 0x0 SWAP1 POP JUMPDEST PUSH1 0x20 DUP2 PUSH1 0xFF AND LT DUP1 ISZERO PUSH2 0x638 JUMPI POP PUSH1 0x0 PUSH1 0xF8 SHL DUP4 DUP3 PUSH1 0xFF AND PUSH1 0x20 DUP2 LT PUSH2 0x60F JUMPI INVALID JUMPDEST BYTE PUSH1 0xF8 SHL PUSH31 0xFFFFFFFFFFFFFFFFFFFFFFFFFFFFFFFFFFFFFFFFFFFFFFFFFFFFFFFFFFFFFF NOT AND EQ ISZERO JUMPDEST ISZERO PUSH2 0x64A JUMPI DUP1 DUP1 PUSH1 0x1 ADD SWAP2 POP POP PUSH2 0x5ED JUMP JUMPDEST PUSH1 0x60 DUP2 PUSH1 0xFF AND PUSH8 0xFFFFFFFFFFFFFFFF DUP2 GT DUP1 ISZERO PUSH2 0x666 JUMPI PUSH1 0x0 DUP1 REVERT JUMPDEST POP PUSH1 0x40 MLOAD SWAP1 DUP1 DUP3 MSTORE DUP1 PUSH1 0x1F ADD PUSH1 0x1F NOT AND PUSH1 0x20 ADD DUP3 ADD PUSH1 0x40 MSTORE DUP1 ISZERO PUSH2 0x699 JUMPI DUP2 PUSH1 0x20 ADD PUSH1 0x1 DUP3 MUL DUP1 CALLDATASIZE DUP4 CALLDATACOPY DUP1 DUP3 ADD SWAP2 POP POP SWAP1 POP JUMPDEST POP SWAP1 POP PUSH1 0x0 SWAP2 POP JUMPDEST PUSH1 0x20 DUP3 PUSH1 0xFF AND LT DUP1 ISZERO PUSH2 0x6EC JUMPI POP PUSH1 0x0 PUSH1 0xF8 SHL DUP5 DUP4 PUSH1 0xFF AND PUSH1 0x20 DUP2 LT PUSH2 0x6C3 JUMPI INVALID JUMPDEST BYTE PUSH1 0xF8 SHL PUSH31 0xFFFFFFFFFFFFFFFFFFFFFFFFFFFFFFFFFFFFFFFFFFFFFFFFFFFFFFFFFFFFFF NOT AND EQ ISZERO JUMPDEST ISZERO PUSH2 0x752 JUMPI DUP4 DUP3 PUSH1 0x1F SUB PUSH1 0xFF AND PUSH1 0x20 DUP2 LT PUSH2 0x703 JUMPI INVALID JUMPDEST BYTE PUSH1 0xF8 SHL DUP2 DUP4 PUSH1 0xFF AND DUP2 MLOAD DUP2 LT PUSH2 0x716 JUMPI INVALID JUMPDEST PUSH1 0x20 ADD ADD SWAP1 PUSH31 0xFFFFFFFFFFFFFFFFFFFFFFFFFFFFFFFFFFFFFFFFFFFFFFFFFFFFFFFFFFFFFF NOT AND SWAP1 DUP2 PUSH1 0x0 BYTE SWAP1 MSTORE8 POP DUP2 DUP1 PUSH1 0x1 ADD SWAP3 POP POP PUSH2 0x6A1 JUMP JUMPDEST PUSH2 0x75B DUP2 PUSH2 0x9A8 JUMP JUMPDEST SWAP3 POP POP POP SWAP2 SWAP1 POP JUMP JUMPDEST PUSH1 0x0 DUP1 PUSH2 0x772 DUP6 DUP6 DUP6 PUSH2 0x1D2 JUMP JUMPDEST SWAP1 POP DUP1 DUP7 EQ ISZERO PUSH2 0x786 JUMPI PUSH1 0x1 SWAP2 POP POP PUSH2 0x78C JUMP JUMPDEST PUSH1 0x0 SWAP2 POP POP JUMPDEST SWAP5 SWAP4 POP POP POP POP JUMP JUMPDEST PUSH1 0x0 PUSH2 0x79E PUSH2 0xB91 JUMP JUMPDEST PUSH1 0x60 DUP6 PUSH1 0x40 MLOAD PUSH1 0x20 ADD PUSH2 0x7B1 SWAP2 SWAP1 PUSH2 0x130E JUMP JUMPDEST PUSH1 0x40 MLOAD PUSH1 0x20 DUP2 DUP4 SUB SUB DUP2 MSTORE SWAP1 PUSH1 0x40 MSTORE SWAP1 POP PUSH1 0x60 DUP1 PUSH1 0x1 PUSH1 0x0 SWAP1 SLOAD SWAP1 PUSH2 0x100 EXP SWAP1 DIV PUSH20 0xFFFFFFFFFFFFFFFFFFFFFFFFFFFFFFFFFFFFFFFF AND PUSH20 0xFFFFFFFFFFFFFFFFFFFFFFFFFFFFFFFFFFFFFFFF AND PUSH4 0x1E092423 DUP5 DUP5 DUP5 DUP12 PUSH1 0x20 PUSH1 0x40 MLOAD DUP7 PUSH4 0xFFFFFFFF AND PUSH1 0xE0 SHL DUP2 MSTORE PUSH1 0x4 ADD PUSH2 0x829 SWAP6 SWAP5 SWAP4 SWAP3 SWAP2 SWAP1 PUSH2 0x1461 JUMP JUMPDEST PUSH2 0x100 PUSH1 0x40 MLOAD DUP1 DUP4 SUB DUP2 PUSH1 0x0 DUP8 DUP1 EXTCODESIZE ISZERO DUP1 ISZERO PUSH2 0x844 JUMPI PUSH1 0x0 DUP1 REVERT JUMPDEST POP GAS CALL ISZERO DUP1 ISZERO PUSH2 0x858 JUMPI RETURNDATASIZE PUSH1 0x0 DUP1 RETURNDATACOPY RETURNDATASIZE PUSH1 0x0 REVERT JUMPDEST POP POP POP POP PUSH1 0x40 MLOAD RETURNDATASIZE PUSH1 0x1F NOT PUSH1 0x1F DUP3 ADD AND DUP3 ADD DUP1 PUSH1 0x40 MSTORE POP DUP2 ADD SWAP1 PUSH2 0x87C SWAP2 SWAP1 PUSH2 0xDF0 JUMP JUMPDEST SWAP4 POP PUSH1 0x60 DUP5 PUSH1 0x0 PUSH1 0x8 DUP2 LT PUSH2 0x88D JUMPI INVALID JUMPDEST PUSH1 0x20 MUL ADD MLOAD DUP6 PUSH1 0x1 PUSH1 0x8 DUP2 LT PUSH2 0x89F JUMPI INVALID JUMPDEST PUSH1 0x20 MUL ADD MLOAD DUP7 PUSH1 0x2 PUSH1 0x8 DUP2 LT PUSH2 0x8B1 JUMPI INVALID JUMPDEST PUSH1 0x20 MUL ADD MLOAD DUP8 PUSH1 0x3 PUSH1 0x8 DUP2 LT PUSH2 0x8C3 JUMPI INVALID JUMPDEST PUSH1 0x20 MUL ADD MLOAD DUP9 PUSH1 0x4 PUSH1 0x8 DUP2 LT PUSH2 0x8D5 JUMPI INVALID JUMPDEST PUSH1 0x20 MUL ADD MLOAD DUP10 PUSH1 0x5 PUSH1 0x8 DUP2 LT PUSH2 0x8E7 JUMPI INVALID JUMPDEST PUSH1 0x20 MUL ADD MLOAD DUP11 PUSH1 0x6 PUSH1 0x8 DUP2 LT PUSH2 0x8F9 JUMPI INVALID JUMPDEST PUSH1 0x20 MUL ADD MLOAD DUP12 PUSH1 0x7 PUSH1 0x8 DUP2 LT PUSH2 0x90B JUMPI INVALID JUMPDEST PUSH1 0x20 MUL ADD MLOAD PUSH1 0x40 MLOAD PUSH1 0x20 ADD PUSH2 0x927 SWAP9 SWAP8 SWAP7 SWAP6 SWAP5 SWAP4 SWAP3 SWAP2 SWAP1 PUSH2 0x1325 JUMP JUMPDEST PUSH1 0x40 MLOAD PUSH1 0x20 DUP2 DUP4 SUB SUB DUP2 MSTORE SWAP1 PUSH1 0x40 MSTORE SWAP1 POP PUSH1 0x0 PUSH2 0x943 DUP3 PUSH2 0x9A8 JUMP JUMPDEST SWAP1 POP PUSH1 0x1 ISZERO ISZERO DUP9 ISZERO ISZERO EQ ISZERO PUSH2 0x95E JUMPI PUSH2 0x95B DUP2 PUSH2 0x5E5 JUMP JUMPDEST SWAP1 POP JUMPDEST PUSH32 0x72969AEF5690044312F898780FF7189689547472AAEA4EB1E0DE070B96EBC278 DUP2 PUSH1 0x1 PUSH1 0x40 MLOAD PUSH2 0x990 SWAP3 SWAP2 SWAP1 PUSH2 0x13ED JUMP JUMPDEST PUSH1 0x40 MLOAD DUP1 SWAP2 SUB SWAP1 LOG1 DUP1 SWAP7 POP POP POP POP POP POP POP SWAP4 SWAP3 POP POP POP JUMP JUMPDEST PUSH1 0x0 PUSH1 0x60 DUP3 SWAP1 POP PUSH1 0x0 DUP2 MLOAD EQ ISZERO PUSH2 0x9C5 JUMPI PUSH1 0x0 DUP1 SHL SWAP2 POP POP PUSH2 0x9CE JUMP JUMPDEST PUSH1 0x20 DUP4 ADD MLOAD SWAP2 POP POP JUMPDEST SWAP2 SWAP1 POP JUMP JUMPDEST PUSH1 0x60 PUSH2 0x9DD PUSH2 0xB91 JUMP JUMPDEST PUSH1 0x60 DUP5 PUSH1 0x40 MLOAD PUSH1 0x20 ADD PUSH2 0x9F0 SWAP2 SWAP1 PUSH2 0x130E JUMP JUMPDEST PUSH1 0x40 MLOAD PUSH1 0x20 DUP2 DUP4 SUB SUB DUP2 MSTORE SWAP1 PUSH1 0x40 MSTORE SWAP1 POP PUSH1 0x1 PUSH1 0x0 SWAP1 SLOAD SWAP1 PUSH2 0x100 EXP SWAP1 DIV PUSH20 0xFFFFFFFFFFFFFFFFFFFFFFFFFFFFFFFFFFFFFFFF AND PUSH20 0xFFFFFFFFFFFFFFFFFFFFFFFFFFFFFFFFFFFFFFFF AND PUSH4 0xD299DAC0 DUP3 DUP7 PUSH1 0x40 DUP1 MLOAD DUP5 PUSH4 0xFFFFFFFF AND PUSH1 0xE0 SHL DUP2 MSTORE PUSH1 0x4 ADD PUSH2 0xA60 SWAP4 SWAP3 SWAP2 SWAP1 PUSH2 0x14D0 JUMP JUMPDEST PUSH2 0x100 PUSH1 0x40 MLOAD DUP1 DUP4 SUB DUP2 PUSH1 0x0 DUP8 DUP1 EXTCODESIZE ISZERO DUP1 ISZERO PUSH2 0xA7B JUMPI PUSH1 0x0 DUP1 REVERT JUMPDEST POP GAS CALL ISZERO DUP1 ISZERO PUSH2 0xA8F JUMPI RETURNDATASIZE PUSH1 0x0 DUP1 RETURNDATACOPY RETURNDATASIZE PUSH1 0x0 REVERT JUMPDEST POP POP POP POP PUSH1 0x40 MLOAD RETURNDATASIZE PUSH1 0x1F NOT PUSH1 0x1F DUP3 ADD AND DUP3 ADD DUP1 PUSH1 0x40 MSTORE POP DUP2 ADD SWAP1 PUSH2 0xAB3 SWAP2 SWAP1 PUSH2 0xDF0 JUMP JUMPDEST SWAP2 POP PUSH1 0x60 DUP3 PUSH1 0x0 PUSH1 0x8 DUP2 LT PUSH2 0xAC4 JUMPI INVALID JUMPDEST PUSH1 0x20 MUL ADD MLOAD DUP4 PUSH1 0x1 PUSH1 0x8 DUP2 LT PUSH2 0xAD6 JUMPI INVALID JUMPDEST PUSH1 0x20 MUL ADD MLOAD DUP5 PUSH1 0x2 PUSH1 0x8 DUP2 LT PUSH2 0xAE8 JUMPI INVALID JUMPDEST PUSH1 0x20 MUL ADD MLOAD DUP6 PUSH1 0x3 PUSH1 0x8 DUP2 LT PUSH2 0xAFA JUMPI INVALID JUMPDEST PUSH1 0x20 MUL ADD MLOAD DUP7 PUSH1 0x4 PUSH1 0x8 DUP2 LT PUSH2 0xB0C JUMPI INVALID JUMPDEST PUSH1 0x20 MUL ADD MLOAD DUP8 PUSH1 0x5 PUSH1 0x8 DUP2 LT PUSH2 0xB1E JUMPI INVALID JUMPDEST PUSH1 0x20 MUL ADD MLOAD DUP9 PUSH1 0x6 PUSH1 0x8 DUP2 LT PUSH2 0xB30 JUMPI INVALID JUMPDEST PUSH1 0x20 MUL ADD MLOAD DUP10 PUSH1 0x7 PUSH1 0x8 DUP2 LT PUSH2 0xB42 JUMPI INVALID JUMPDEST PUSH1 0x20 MUL ADD MLOAD PUSH1 0x40 MLOAD PUSH1 0x20 ADD PUSH2 0xB5E SWAP9 SWAP8 SWAP7 SWAP6 SWAP5 SWAP4 SWAP3 SWAP2 SWAP1 PUSH2 0x1325 JUMP JUMPDEST PUSH1 0x40 MLOAD PUSH1 0x20 DUP2 DUP4 SUB SUB DUP2 MSTORE SWAP1 PUSH1 0x40 MSTORE SWAP1 POP DUP1 SWAP4 POP POP POP POP SWAP3 SWAP2 POP POP JUMP JUMPDEST PUSH1 0x0 PUSH2 0xB89 DUP4 DUP4 PUSH1 0x0 PUSH2 0x794 JUMP JUMPDEST SWAP1 POP SWAP3 SWAP2 POP POP JUMP JUMPDEST PUSH1 0x40 MLOAD DUP1 PUSH2 0x100 ADD PUSH1 0x40 MSTORE DUP1 PUSH1 0x8 SWAP1 PUSH1 0x20 DUP3 MUL DUP1 CALLDATASIZE DUP4 CALLDATACOPY DUP1 DUP3 ADD SWAP2 POP POP SWAP1 POP POP SWAP1 JUMP JUMPDEST DUP3 DUP1 SLOAD PUSH1 0x1 DUP2 PUSH1 0x1 AND ISZERO PUSH2 0x100 MUL SUB AND PUSH1 0x2 SWAP1 DIV SWAP1 PUSH1 0x0 MSTORE PUSH1 0x20 PUSH1 0x0 KECCAK256 SWAP1 PUSH1 0x1F ADD PUSH1 0x20 SWAP1 DIV DUP2 ADD SWAP3 DUP3 PUSH1 0x1F LT PUSH2 0xBF5 JUMPI DUP1 MLOAD PUSH1 0xFF NOT AND DUP4 DUP1 ADD OR DUP6 SSTORE PUSH2 0xC23 JUMP JUMPDEST DUP3 DUP1 ADD PUSH1 0x1 ADD DUP6 SSTORE DUP3 ISZERO PUSH2 0xC23 JUMPI SWAP2 DUP3 ADD JUMPDEST DUP3 DUP2 GT ISZERO PUSH2 0xC22 JUMPI DUP3 MLOAD DUP3 SSTORE SWAP2 PUSH1 0x20 ADD SWAP2 SWAP1 PUSH1 0x1 ADD SWAP1 PUSH2 0xC07 JUMP JUMPDEST JUMPDEST POP SWAP1 POP PUSH2 0xC30 SWAP2 SWAP1 PUSH2 0xC34 JUMP JUMPDEST POP SWAP1 JUMP JUMPDEST JUMPDEST DUP1 DUP3 GT ISZERO PUSH2 0xC4D JUMPI PUSH1 0x0 DUP2 PUSH1 0x0 SWAP1 SSTORE POP PUSH1 0x1 ADD PUSH2 0xC35 JUMP JUMPDEST POP SWAP1 JUMP JUMPDEST PUSH1 0x0 DUP3 PUSH1 0x1F DUP4 ADD SLT PUSH2 0xC62 JUMPI PUSH1 0x0 DUP1 REVERT JUMPDEST DUP2 CALLDATALOAD PUSH2 0xC75 PUSH2 0xC70 DUP3 PUSH2 0x1647 JUMP JUMPDEST PUSH2 0x161A JUMP JUMPDEST SWAP2 POP DUP2 DUP2 DUP4 MSTORE PUSH1 0x20 DUP5 ADD SWAP4 POP PUSH1 0x20 DUP2 ADD SWAP1 POP DUP4 DUP6 PUSH1 0x20 DUP5 MUL DUP3 ADD GT ISZERO PUSH2 0xC9A JUMPI PUSH1 0x0 DUP1 REVERT JUMPDEST PUSH1 0x0 JUMPDEST DUP4 DUP2 LT ISZERO PUSH2 0xCCA JUMPI DUP2 PUSH2 0xCB0 DUP9 DUP3 PUSH2 0xD5D JUMP JUMPDEST DUP5 MSTORE PUSH1 0x20 DUP5 ADD SWAP4 POP PUSH1 0x20 DUP4 ADD SWAP3 POP POP PUSH1 0x1 DUP2 ADD SWAP1 POP PUSH2 0xC9D JUMP JUMPDEST POP POP POP POP SWAP3 SWAP2 POP POP JUMP JUMPDEST PUSH1 0x0 DUP3 PUSH1 0x1F DUP4 ADD SLT PUSH2 0xCE5 JUMPI PUSH1 0x0 DUP1 REVERT JUMPDEST PUSH1 0x8 PUSH2 0xCF8 PUSH2 0xCF3 DUP3 PUSH2 0x166F JUMP JUMPDEST PUSH2 0x161A JUMP JUMPDEST SWAP2 POP DUP2 DUP4 DUP6 PUSH1 0x20 DUP5 MUL DUP3 ADD GT ISZERO PUSH2 0xD0E JUMPI PUSH1 0x0 DUP1 REVERT JUMPDEST PUSH1 0x0 JUMPDEST DUP4 DUP2 LT ISZERO PUSH2 0xD3E JUMPI DUP2 PUSH2 0xD24 DUP9 DUP3 PUSH2 0xDDB JUMP JUMPDEST DUP5 MSTORE PUSH1 0x20 DUP5 ADD SWAP4 POP PUSH1 0x20 DUP4 ADD SWAP3 POP POP PUSH1 0x1 DUP2 ADD SWAP1 POP PUSH2 0xD11 JUMP JUMPDEST POP POP POP POP SWAP3 SWAP2 POP POP JUMP JUMPDEST PUSH1 0x0 DUP2 CALLDATALOAD SWAP1 POP PUSH2 0xD57 DUP2 PUSH2 0x1821 JUMP JUMPDEST SWAP3 SWAP2 POP POP JUMP JUMPDEST PUSH1 0x0 DUP2 CALLDATALOAD SWAP1 POP PUSH2 0xD6C DUP2 PUSH2 0x1838 JUMP JUMPDEST SWAP3 SWAP2 POP POP JUMP JUMPDEST PUSH1 0x0 DUP3 PUSH1 0x1F DUP4 ADD SLT PUSH2 0xD83 JUMPI PUSH1 0x0 DUP1 REVERT JUMPDEST DUP2 CALLDATALOAD PUSH2 0xD96 PUSH2 0xD91 DUP3 PUSH2 0x1691 JUMP JUMPDEST PUSH2 0x161A JUMP JUMPDEST SWAP2 POP DUP1 DUP3 MSTORE PUSH1 0x20 DUP4 ADD PUSH1 0x20 DUP4 ADD DUP6 DUP4 DUP4 ADD GT ISZERO PUSH2 0xDB2 JUMPI PUSH1 0x0 DUP1 REVERT JUMPDEST PUSH2 0xDBD DUP4 DUP3 DUP5 PUSH2 0x17A5 JUMP JUMPDEST POP POP POP SWAP3 SWAP2 POP POP JUMP JUMPDEST PUSH1 0x0 DUP2 CALLDATALOAD SWAP1 POP PUSH2 0xDD5 DUP2 PUSH2 0x184F JUMP JUMPDEST SWAP3 SWAP2 POP POP JUMP JUMPDEST PUSH1 0x0 DUP2 MLOAD SWAP1 POP PUSH2 0xDEA DUP2 PUSH2 0x1866 JUMP JUMPDEST SWAP3 SWAP2 POP POP JUMP JUMPDEST PUSH1 0x0 PUSH2 0x100 DUP3 DUP5 SUB SLT ISZERO PUSH2 0xE03 JUMPI PUSH1 0x0 DUP1 REVERT JUMPDEST PUSH1 0x0 PUSH2 0xE11 DUP5 DUP3 DUP6 ADD PUSH2 0xCD4 JUMP JUMPDEST SWAP2 POP POP SWAP3 SWAP2 POP POP JUMP JUMPDEST PUSH1 0x0 PUSH1 0x20 DUP3 DUP5 SUB SLT ISZERO PUSH2 0xE2C JUMPI PUSH1 0x0 DUP1 REVERT JUMPDEST PUSH1 0x0 PUSH2 0xE3A DUP5 DUP3 DUP6 ADD PUSH2 0xD5D JUMP JUMPDEST SWAP2 POP POP SWAP3 SWAP2 POP POP JUMP JUMPDEST PUSH1 0x0 DUP1 PUSH1 0x0 DUP1 PUSH1 0x80 DUP6 DUP8 SUB SLT ISZERO PUSH2 0xE59 JUMPI PUSH1 0x0 DUP1 REVERT JUMPDEST PUSH1 0x0 PUSH2 0xE67 DUP8 DUP3 DUP9 ADD PUSH2 0xD5D JUMP JUMPDEST SWAP5 POP POP PUSH1 0x20 PUSH2 0xE78 DUP8 DUP3 DUP9 ADD PUSH2 0xD5D JUMP JUMPDEST SWAP4 POP POP PUSH1 0x40 PUSH2 0xE89 DUP8 DUP3 DUP9 ADD PUSH2 0xDC6 JUMP JUMPDEST SWAP3 POP POP PUSH1 0x60 DUP6 ADD CALLDATALOAD PUSH8 0xFFFFFFFFFFFFFFFF DUP2 GT ISZERO PUSH2 0xEA6 JUMPI PUSH1 0x0 DUP1 REVERT JUMPDEST PUSH2 0xEB2 DUP8 DUP3 DUP9 ADD PUSH2 0xC51 JUMP JUMPDEST SWAP2 POP POP SWAP3 SWAP6 SWAP2 SWAP5 POP SWAP3 POP JUMP JUMPDEST PUSH1 0x0 DUP1 PUSH1 0x0 PUSH1 0x60 DUP5 DUP7 SUB SLT ISZERO PUSH2 0xED3 JUMPI PUSH1 0x0 DUP1 REVERT JUMPDEST PUSH1 0x0 PUSH2 0xEE1 DUP7 DUP3 DUP8 ADD PUSH2 0xD5D JUMP JUMPDEST SWAP4 POP POP PUSH1 0x20 PUSH2 0xEF2 DUP7 DUP3 DUP8 ADD PUSH2 0xDC6 JUMP JUMPDEST SWAP3 POP POP PUSH1 0x40 DUP5 ADD CALLDATALOAD PUSH8 0xFFFFFFFFFFFFFFFF DUP2 GT ISZERO PUSH2 0xF0F JUMPI PUSH1 0x0 DUP1 REVERT JUMPDEST PUSH2 0xF1B DUP7 DUP3 DUP8 ADD PUSH2 0xC51 JUMP JUMPDEST SWAP2 POP POP SWAP3 POP SWAP3 POP SWAP3 JUMP JUMPDEST PUSH1 0x0 PUSH1 0x20 DUP3 DUP5 SUB SLT ISZERO PUSH2 0xF37 JUMPI PUSH1 0x0 DUP1 REVERT JUMPDEST PUSH1 0x0 DUP3 ADD CALLDATALOAD PUSH8 0xFFFFFFFFFFFFFFFF DUP2 GT ISZERO PUSH2 0xF51 JUMPI PUSH1 0x0 DUP1 REVERT JUMPDEST PUSH2 0xF5D DUP5 DUP3 DUP6 ADD PUSH2 0xD72 JUMP JUMPDEST SWAP2 POP POP SWAP3 SWAP2 POP POP JUMP JUMPDEST PUSH1 0x0 DUP1 PUSH1 0x40 DUP4 DUP6 SUB SLT ISZERO PUSH2 0xF79 JUMPI PUSH1 0x0 DUP1 REVERT JUMPDEST PUSH1 0x0 DUP4 ADD CALLDATALOAD PUSH8 0xFFFFFFFFFFFFFFFF DUP2 GT ISZERO PUSH2 0xF93 JUMPI PUSH1 0x0 DUP1 REVERT JUMPDEST PUSH2 0xF9F DUP6 DUP3 DUP7 ADD PUSH2 0xD72 JUMP JUMPDEST SWAP3 POP POP PUSH1 0x20 DUP4 ADD CALLDATALOAD PUSH8 0xFFFFFFFFFFFFFFFF DUP2 GT ISZERO PUSH2 0xFBC JUMPI PUSH1 0x0 DUP1 REVERT JUMPDEST PUSH2 0xFC8 DUP6 DUP3 DUP7 ADD PUSH2 0xD72 JUMP JUMPDEST SWAP2 POP POP SWAP3 POP SWAP3 SWAP1 POP JUMP JUMPDEST PUSH1 0x0 DUP1 PUSH1 0x0 PUSH1 0x60 DUP5 DUP7 SUB SLT ISZERO PUSH2 0xFE7 JUMPI PUSH1 0x0 DUP1 REVERT JUMPDEST PUSH1 0x0 DUP5 ADD CALLDATALOAD PUSH8 0xFFFFFFFFFFFFFFFF DUP2 GT ISZERO PUSH2 0x1001 JUMPI PUSH1 0x0 DUP1 REVERT JUMPDEST PUSH2 0x100D DUP7 DUP3 DUP8 ADD PUSH2 0xD72 JUMP JUMPDEST SWAP4 POP POP PUSH1 0x20 DUP5 ADD CALLDATALOAD PUSH8 0xFFFFFFFFFFFFFFFF DUP2 GT ISZERO PUSH2 0x102A JUMPI PUSH1 0x0 DUP1 REVERT JUMPDEST PUSH2 0x1036 DUP7 DUP3 DUP8 ADD PUSH2 0xD72 JUMP JUMPDEST SWAP3 POP POP PUSH1 0x40 PUSH2 0x1047 DUP7 DUP3 DUP8 ADD PUSH2 0xD48 JUMP JUMPDEST SWAP2 POP POP SWAP3 POP SWAP3 POP SWAP3 JUMP JUMPDEST PUSH2 0x105A DUP2 PUSH2 0x170A JUMP JUMPDEST DUP3 MSTORE POP POP JUMP JUMPDEST PUSH2 0x1069 DUP2 PUSH2 0x1716 JUMP JUMPDEST DUP3 MSTORE POP POP JUMP JUMPDEST PUSH2 0x1080 PUSH2 0x107B DUP3 PUSH2 0x1716 JUMP JUMPDEST PUSH2 0x17E7 JUMP JUMPDEST DUP3 MSTORE POP POP JUMP JUMPDEST PUSH1 0x0 PUSH2 0x1091 DUP3 PUSH2 0x16D2 JUMP JUMPDEST PUSH2 0x109B DUP2 DUP6 PUSH2 0x16DD JUMP JUMPDEST SWAP4 POP PUSH2 0x10AB DUP2 DUP6 PUSH1 0x20 DUP7 ADD PUSH2 0x17B4 JUMP JUMPDEST PUSH2 0x10B4 DUP2 PUSH2 0x1803 JUMP JUMPDEST DUP5 ADD SWAP2 POP POP SWAP3 SWAP2 POP POP JUMP JUMPDEST PUSH1 0x0 PUSH2 0x10CA DUP3 PUSH2 0x16D2 JUMP JUMPDEST PUSH2 0x10D4 DUP2 DUP6 PUSH2 0x16EE JUMP JUMPDEST SWAP4 POP PUSH2 0x10E4 DUP2 DUP6 PUSH1 0x20 DUP7 ADD PUSH2 0x17B4 JUMP JUMPDEST DUP1 DUP5 ADD SWAP2 POP POP SWAP3 SWAP2 POP POP JUMP JUMPDEST PUSH1 0x0 DUP2 SLOAD PUSH1 0x1 DUP2 AND PUSH1 0x0 DUP2 EQ PUSH2 0x110D JUMPI PUSH1 0x1 DUP2 EQ PUSH2 0x1133 JUMPI PUSH2 0x1177 JUMP JUMPDEST PUSH1 0x7F PUSH1 0x2 DUP4 DIV AND PUSH2 0x111E DUP2 DUP8 PUSH2 0x16DD JUMP JUMPDEST SWAP6 POP PUSH1 0xFF NOT DUP4 AND DUP7 MSTORE PUSH1 0x20 DUP7 ADD SWAP4 POP POP PUSH2 0x1177 JUMP JUMPDEST PUSH1 0x2 DUP3 DIV PUSH2 0x1141 DUP2 DUP8 PUSH2 0x16DD JUMP JUMPDEST SWAP6 POP PUSH2 0x114C DUP6 PUSH2 0x16BD JUMP JUMPDEST PUSH1 0x0 JUMPDEST DUP3 DUP2 LT ISZERO PUSH2 0x116E JUMPI DUP2 SLOAD DUP2 DUP10 ADD MSTORE PUSH1 0x1 DUP3 ADD SWAP2 POP PUSH1 0x20 DUP2 ADD SWAP1 POP PUSH2 0x114F JUMP JUMPDEST DUP1 DUP9 ADD SWAP6 POP POP POP POP JUMPDEST POP POP SWAP3 SWAP2 POP POP JUMP JUMPDEST PUSH2 0x1188 DUP2 PUSH2 0x174B JUMP JUMPDEST DUP3 MSTORE POP POP JUMP JUMPDEST PUSH2 0x1197 DUP2 PUSH2 0x175D JUMP JUMPDEST DUP3 MSTORE POP POP JUMP JUMPDEST PUSH2 0x11A6 DUP2 PUSH2 0x176F JUMP JUMPDEST DUP3 MSTORE POP POP JUMP JUMPDEST PUSH2 0x11B5 DUP2 PUSH2 0x1781 JUMP JUMPDEST DUP3 MSTORE POP POP JUMP JUMPDEST PUSH2 0x11C4 DUP2 PUSH2 0x1793 JUMP JUMPDEST DUP3 MSTORE POP POP JUMP JUMPDEST PUSH1 0x0 PUSH2 0x11D7 PUSH1 0x1C DUP4 PUSH2 0x16F9 JUMP JUMPDEST SWAP2 POP PUSH32 0x4272616E6368206D757374206265206C6F6E676572207468616E203000000000 PUSH1 0x0 DUP4 ADD MSTORE PUSH1 0x20 DUP3 ADD SWAP1 POP SWAP2 SWAP1 POP JUMP JUMPDEST PUSH1 0x0 PUSH2 0x1217 PUSH1 0x31 DUP4 PUSH2 0x16F9 JUMP JUMPDEST SWAP2 POP PUSH32 0x56616C75652063616E20626520657175616C20746F206E6F646520627574206E PUSH1 0x0 DUP4 ADD MSTORE PUSH32 0x65766572206F6E20746865207269676874000000000000000000000000000000 PUSH1 0x20 DUP4 ADD MSTORE PUSH1 0x40 DUP3 ADD SWAP1 POP SWAP2 SWAP1 POP JUMP JUMPDEST PUSH1 0x0 PUSH2 0x127D PUSH1 0x1B DUP4 PUSH2 0x16F9 JUMP JUMPDEST SWAP2 POP PUSH32 0x496E6465782063616E6E6F74206265206C657373207468616E20300000000000 PUSH1 0x0 DUP4 ADD MSTORE PUSH1 0x20 DUP3 ADD SWAP1 POP SWAP2 SWAP1 POP JUMP JUMPDEST PUSH2 0x12C1 PUSH2 0x12BC DUP3 PUSH2 0x172A JUMP JUMPDEST PUSH2 0x17F1 JUMP JUMPDEST DUP3 MSTORE POP POP JUMP JUMPDEST PUSH1 0x0 PUSH2 0x12D3 DUP3 DUP5 PUSH2 0x106F JUMP JUMPDEST PUSH1 0x20 DUP3 ADD SWAP2 POP DUP2 SWAP1 POP SWAP3 SWAP2 POP POP JUMP JUMPDEST PUSH1 0x0 PUSH2 0x12EE DUP3 DUP6 PUSH2 0x106F JUMP JUMPDEST PUSH1 0x20 DUP3 ADD SWAP2 POP PUSH2 0x12FE DUP3 DUP5 PUSH2 0x106F JUMP JUMPDEST PUSH1 0x20 DUP3 ADD SWAP2 POP DUP2 SWAP1 POP SWAP4 SWAP3 POP POP POP JUMP JUMPDEST PUSH1 0x0 PUSH2 0x131A DUP3 DUP5 PUSH2 0x10BF JUMP JUMPDEST SWAP2 POP DUP2 SWAP1 POP SWAP3 SWAP2 POP POP JUMP JUMPDEST PUSH1 0x0 PUSH2 0x1331 DUP3 DUP12 PUSH2 0x12B0 JUMP JUMPDEST PUSH1 0x8 DUP3 ADD SWAP2 POP PUSH2 0x1341 DUP3 DUP11 PUSH2 0x12B0 JUMP JUMPDEST PUSH1 0x8 DUP3 ADD SWAP2 POP PUSH2 0x1351 DUP3 DUP10 PUSH2 0x12B0 JUMP JUMPDEST PUSH1 0x8 DUP3 ADD SWAP2 POP PUSH2 0x1361 DUP3 DUP9 PUSH2 0x12B0 JUMP JUMPDEST PUSH1 0x8 DUP3 ADD SWAP2 POP PUSH2 0x1371 DUP3 DUP8 PUSH2 0x12B0 JUMP JUMPDEST PUSH1 0x8 DUP3 ADD SWAP2 POP PUSH2 0x1381 DUP3 DUP7 PUSH2 0x12B0 JUMP JUMPDEST PUSH1 0x8 DUP3 ADD SWAP2 POP PUSH2 0x1391 DUP3 DUP6 PUSH2 0x12B0 JUMP JUMPDEST PUSH1 0x8 DUP3 ADD SWAP2 POP PUSH2 0x13A1 DUP3 DUP5 PUSH2 0x12B0 JUMP JUMPDEST PUSH1 0x8 DUP3 ADD SWAP2 POP DUP2 SWAP1 POP SWAP10 SWAP9 POP POP POP POP POP POP POP POP POP JUMP JUMPDEST PUSH1 0x0 PUSH1 0x20 DUP3 ADD SWAP1 POP PUSH2 0x13CC PUSH1 0x0 DUP4 ADD DUP5 PUSH2 0x1051 JUMP JUMPDEST SWAP3 SWAP2 POP POP JUMP JUMPDEST PUSH1 0x0 PUSH1 0x20 DUP3 ADD SWAP1 POP PUSH2 0x13E7 PUSH1 0x0 DUP4 ADD DUP5 PUSH2 0x1060 JUMP JUMPDEST SWAP3 SWAP2 POP POP JUMP JUMPDEST PUSH1 0x0 PUSH1 0x40 DUP3 ADD SWAP1 POP PUSH2 0x1402 PUSH1 0x0 DUP4 ADD DUP6 PUSH2 0x1060 JUMP JUMPDEST PUSH2 0x140F PUSH1 0x20 DUP4 ADD DUP5 PUSH2 0x117F JUMP JUMPDEST SWAP4 SWAP3 POP POP POP JUMP JUMPDEST PUSH1 0x0 PUSH1 0x40 DUP3 ADD SWAP1 POP PUSH2 0x142B PUSH1 0x0 DUP4 ADD DUP6 PUSH2 0x1060 JUMP JUMPDEST PUSH2 0x1438 PUSH1 0x20 DUP4 ADD DUP5 PUSH2 0x11AC JUMP JUMPDEST SWAP4 SWAP3 POP POP POP JUMP JUMPDEST PUSH1 0x0 PUSH1 0x20 DUP3 ADD SWAP1 POP DUP2 DUP2 SUB PUSH1 0x0 DUP4 ADD MSTORE PUSH2 0x1459 DUP2 DUP5 PUSH2 0x1086 JUMP JUMPDEST SWAP1 POP SWAP3 SWAP2 POP POP JUMP JUMPDEST PUSH1 0x0 PUSH1 0xA0 DUP3 ADD SWAP1 POP DUP2 DUP2 SUB PUSH1 0x0 DUP4 ADD MSTORE PUSH2 0x147B DUP2 DUP9 PUSH2 0x1086 JUMP JUMPDEST SWAP1 POP DUP2 DUP2 SUB PUSH1 0x20 DUP4 ADD MSTORE PUSH2 0x148F DUP2 DUP8 PUSH2 0x1086 JUMP JUMPDEST SWAP1 POP DUP2 DUP2 SUB PUSH1 0x40 DUP4 ADD MSTORE PUSH2 0x14A3 DUP2 DUP7 PUSH2 0x1086 JUMP JUMPDEST SWAP1 POP DUP2 DUP2 SUB PUSH1 0x60 DUP4 ADD MSTORE PUSH2 0x14B7 DUP2 DUP6 PUSH2 0x1086 JUMP JUMPDEST SWAP1 POP PUSH2 0x14C6 PUSH1 0x80 DUP4 ADD DUP5 PUSH2 0x119D JUMP JUMPDEST SWAP7 SWAP6 POP POP POP POP POP POP JUMP JUMPDEST PUSH1 0x0 PUSH1 0x60 DUP3 ADD SWAP1 POP DUP2 DUP2 SUB PUSH1 0x0 DUP4 ADD MSTORE PUSH2 0x14EA DUP2 DUP7 PUSH2 0x1086 JUMP JUMPDEST SWAP1 POP DUP2 DUP2 SUB PUSH1 0x20 DUP4 ADD MSTORE PUSH2 0x14FE DUP2 DUP6 PUSH2 0x1086 JUMP JUMPDEST SWAP1 POP PUSH2 0x150D PUSH1 0x40 DUP4 ADD DUP5 PUSH2 0x11BB JUMP JUMPDEST SWAP5 SWAP4 POP POP POP POP JUMP JUMPDEST PUSH1 0x0 PUSH1 0x60 DUP3 ADD SWAP1 POP DUP2 DUP2 SUB PUSH1 0x0 DUP4 ADD MSTORE PUSH2 0x152F DUP2 DUP7 PUSH2 0x1086 JUMP JUMPDEST SWAP1 POP DUP2 DUP2 SUB PUSH1 0x20 DUP4 ADD MSTORE PUSH2 0x1543 DUP2 DUP6 PUSH2 0x10F0 JUMP JUMPDEST SWAP1 POP PUSH2 0x1552 PUSH1 0x40 DUP4 ADD DUP5 PUSH2 0x119D JUMP JUMPDEST SWAP5 SWAP4 POP POP POP POP JUMP JUMPDEST PUSH1 0x0 PUSH1 0x40 DUP3 ADD SWAP1 POP DUP2 DUP2 SUB PUSH1 0x0 DUP4 ADD MSTORE PUSH2 0x1574 DUP2 DUP6 PUSH2 0x1086 JUMP JUMPDEST SWAP1 POP PUSH2 0x1583 PUSH1 0x20 DUP4 ADD DUP5 PUSH2 0x117F JUMP JUMPDEST SWAP4 SWAP3 POP POP POP JUMP JUMPDEST PUSH1 0x0 PUSH1 0x40 DUP3 ADD SWAP1 POP DUP2 DUP2 SUB PUSH1 0x0 DUP4 ADD MSTORE PUSH2 0x15A4 DUP2 DUP6 PUSH2 0x1086 JUMP JUMPDEST SWAP1 POP PUSH2 0x15B3 PUSH1 0x20 DUP4 ADD DUP5 PUSH2 0x118E JUMP JUMPDEST SWAP4 SWAP3 POP POP POP JUMP JUMPDEST PUSH1 0x0 PUSH1 0x20 DUP3 ADD SWAP1 POP DUP2 DUP2 SUB PUSH1 0x0 DUP4 ADD MSTORE PUSH2 0x15D3 DUP2 PUSH2 0x11CA JUMP JUMPDEST SWAP1 POP SWAP2 SWAP1 POP JUMP JUMPDEST PUSH1 0x0 PUSH1 0x20 DUP3 ADD SWAP1 POP DUP2 DUP2 SUB PUSH1 0x0 DUP4 ADD MSTORE PUSH2 0x15F3 DUP2 PUSH2 0x120A JUMP JUMPDEST SWAP1 POP SWAP2 SWAP1 POP JUMP JUMPDEST PUSH1 0x0 PUSH1 0x20 DUP3 ADD SWAP1 POP DUP2 DUP2 SUB PUSH1 0x0 DUP4 ADD MSTORE PUSH2 0x1613 DUP2 PUSH2 0x1270 JUMP JUMPDEST SWAP1 POP SWAP2 SWAP1 POP JUMP JUMPDEST PUSH1 0x0 PUSH1 0x40 MLOAD SWAP1 POP DUP2 DUP2 ADD DUP2 DUP2 LT PUSH8 0xFFFFFFFFFFFFFFFF DUP3 GT OR ISZERO PUSH2 0x163D JUMPI PUSH1 0x0 DUP1 REVERT JUMPDEST DUP1 PUSH1 0x40 MSTORE POP SWAP2 SWAP1 POP JUMP JUMPDEST PUSH1 0x0 PUSH8 0xFFFFFFFFFFFFFFFF DUP3 GT ISZERO PUSH2 0x165E JUMPI PUSH1 0x0 DUP1 REVERT JUMPDEST PUSH1 0x20 DUP3 MUL SWAP1 POP PUSH1 0x20 DUP2 ADD SWAP1 POP SWAP2 SWAP1 POP JUMP JUMPDEST PUSH1 0x0 PUSH8 0xFFFFFFFFFFFFFFFF DUP3 GT ISZERO PUSH2 0x1686 JUMPI PUSH1 0x0 DUP1 REVERT JUMPDEST PUSH1 0x20 DUP3 MUL SWAP1 POP SWAP2 SWAP1 POP JUMP JUMPDEST PUSH1 0x0 PUSH8 0xFFFFFFFFFFFFFFFF DUP3 GT ISZERO PUSH2 0x16A8 JUMPI PUSH1 0x0 DUP1 REVERT JUMPDEST PUSH1 0x1F NOT PUSH1 0x1F DUP4 ADD AND SWAP1 POP PUSH1 0x20 DUP2 ADD SWAP1 POP SWAP2 SWAP1 POP JUMP JUMPDEST PUSH1 0x0 DUP2 SWAP1 POP DUP2 PUSH1 0x0 MSTORE PUSH1 0x20 PUSH1 0x0 KECCAK256 SWAP1 POP SWAP2 SWAP1 POP JUMP JUMPDEST PUSH1 0x0 DUP2 MLOAD SWAP1 POP SWAP2 SWAP1 POP JUMP JUMPDEST PUSH1 0x0 DUP3 DUP3 MSTORE PUSH1 0x20 DUP3 ADD SWAP1 POP SWAP3 SWAP2 POP POP JUMP JUMPDEST PUSH1 0x0 DUP2 SWAP1 POP SWAP3 SWAP2 POP POP JUMP JUMPDEST PUSH1 0x0 DUP3 DUP3 MSTORE PUSH1 0x20 DUP3 ADD SWAP1 POP SWAP3 SWAP2 POP POP JUMP JUMPDEST PUSH1 0x0 DUP2 ISZERO ISZERO SWAP1 POP SWAP2 SWAP1 POP JUMP JUMPDEST PUSH1 0x0 DUP2 SWAP1 POP SWAP2 SWAP1 POP JUMP JUMPDEST PUSH1 0x0 DUP2 SWAP1 POP SWAP2 SWAP1 POP JUMP JUMPDEST PUSH1 0x0 PUSH8 0xFFFFFFFFFFFFFFFF DUP3 AND SWAP1 POP SWAP2 SWAP1 POP JUMP JUMPDEST PUSH1 0x0 PUSH1 0xFF DUP3 AND SWAP1 POP SWAP2 SWAP1 POP JUMP JUMPDEST PUSH1 0x0 PUSH2 0x1756 DUP3 PUSH2 0x173E JUMP JUMPDEST SWAP1 POP SWAP2 SWAP1 POP JUMP JUMPDEST PUSH1 0x0 PUSH2 0x1768 DUP3 PUSH2 0x173E JUMP JUMPDEST SWAP1 POP SWAP2 SWAP1 POP JUMP JUMPDEST PUSH1 0x0 PUSH2 0x177A DUP3 PUSH2 0x172A JUMP JUMPDEST SWAP1 POP SWAP2 SWAP1 POP JUMP JUMPDEST PUSH1 0x0 PUSH2 0x178C DUP3 PUSH2 0x173E JUMP JUMPDEST SWAP1 POP SWAP2 SWAP1 POP JUMP JUMPDEST PUSH1 0x0 PUSH2 0x179E DUP3 PUSH2 0x172A JUMP JUMPDEST SWAP1 POP SWAP2 SWAP1 POP JUMP JUMPDEST DUP3 DUP2 DUP4 CALLDATACOPY PUSH1 0x0 DUP4 DUP4 ADD MSTORE POP POP POP JUMP JUMPDEST PUSH1 0x0 JUMPDEST DUP4 DUP2 LT ISZERO PUSH2 0x17D2 JUMPI DUP1 DUP3 ADD MLOAD DUP2 DUP5 ADD MSTORE PUSH1 0x20 DUP2 ADD SWAP1 POP PUSH2 0x17B7 JUMP JUMPDEST DUP4 DUP2 GT ISZERO PUSH2 0x17E1 JUMPI PUSH1 0x0 DUP5 DUP5 ADD MSTORE JUMPDEST POP POP POP POP JUMP JUMPDEST PUSH1 0x0 DUP2 SWAP1 POP SWAP2 SWAP1 POP JUMP JUMPDEST PUSH1 0x0 PUSH2 0x17FC DUP3 PUSH2 0x1814 JUMP JUMPDEST SWAP1 POP SWAP2 SWAP1 POP JUMP JUMPDEST PUSH1 0x0 PUSH1 0x1F NOT PUSH1 0x1F DUP4 ADD AND SWAP1 POP SWAP2 SWAP1 POP JUMP JUMPDEST PUSH1 0x0 DUP2 PUSH1 0xC0 SHL SWAP1 POP SWAP2 SWAP1 POP JUMP JUMPDEST PUSH2 0x182A DUP2 PUSH2 0x170A JUMP JUMPDEST DUP2 EQ PUSH2 0x1835 JUMPI PUSH1 0x0 DUP1 REVERT JUMPDEST POP JUMP JUMPDEST PUSH2 0x1841 DUP2 PUSH2 0x1716 JUMP JUMPDEST DUP2 EQ PUSH2 0x184C JUMPI PUSH1 0x0 DUP1 REVERT JUMPDEST POP JUMP JUMPDEST PUSH2 0x1858 DUP2 PUSH2 0x1720 JUMP JUMPDEST DUP2 EQ PUSH2 0x1863 JUMPI PUSH1 0x0 DUP1 REVERT JUMPDEST POP JUMP JUMPDEST PUSH2 0x186F DUP2 PUSH2 0x172A JUMP JUMPDEST DUP2 EQ PUSH2 0x187A JUMPI PUSH1 0x0 DUP1 REVERT JUMPDEST POP JUMP INVALID LOG2 PUSH5 0x6970667358 0x22 SLT KECCAK256 0xDF 0xE1 DUP11 0xD 0xE8 0xD4 0xD6 0x49 DUP6 DUP4 CALLDATACOPY 0x2E OR 0xD0 EQ SHL 0xBF 0xB4 0xD7 CODECOPY 0xE3 DUP16 0xD COINBASE 0xAC 0xB9 DUP5 SWAP2 0xFB PUSH25 0x6DD464736F6C634300060C0033608060405260405180610100 ADD PUSH1 0x40 MSTORE DUP1 PUSH8 0x6A09E667F3BCC908 PUSH8 0xFFFFFFFFFFFFFFFF AND DUP2 MSTORE PUSH1 0x20 ADD PUSH8 0xBB67AE8584CAA73B PUSH8 0xFFFFFFFFFFFFFFFF AND DUP2 MSTORE PUSH1 0x20 ADD PUSH8 0x3C6EF372FE94F82B PUSH8 0xFFFFFFFFFFFFFFFF AND DUP2 MSTORE PUSH1 0x20 ADD PUSH8 0xA54FF53A5F1D36F1 PUSH8 0xFFFFFFFFFFFFFFFF AND DUP2 MSTORE PUSH1 0x20 ADD PUSH8 0x510E527FADE682D1 PUSH8 0xFFFFFFFFFFFFFFFF AND DUP2 MSTORE PUSH1 0x20 ADD PUSH8 0x9B05688C2B3E6C1F PUSH8 0xFFFFFFFFFFFFFFFF AND DUP2 MSTORE PUSH1 0x20 ADD PUSH8 0x1F83D9ABFB41BD6B PUSH8 0xFFFFFFFFFFFFFFFF AND DUP2 MSTORE PUSH1 0x20 ADD PUSH8 0x5BE0CD19137E2179 PUSH8 0xFFFFFFFFFFFFFFFF AND DUP2 MSTORE POP PUSH1 0x0 SWAP1 PUSH1 0x8 PUSH3 0xE0 SWAP3 SWAP2 SWAP1 PUSH3 0xF5 JUMP JUMPDEST POP CALLVALUE DUP1 ISZERO PUSH3 0xEE JUMPI PUSH1 0x0 DUP1 REVERT JUMPDEST POP PUSH3 0x1DC JUMP JUMPDEST DUP3 PUSH1 0x8 PUSH1 0x3 ADD PUSH1 0x4 SWAP1 DIV DUP2 ADD SWAP3 DUP3 ISZERO PUSH3 0x198 JUMPI SWAP2 PUSH1 0x20 MUL DUP3 ADD PUSH1 0x0 JUMPDEST DUP4 DUP3 GT ISZERO PUSH3 0x160 JUMPI DUP4 MLOAD DUP4 DUP3 PUSH2 0x100 EXP DUP2 SLOAD DUP2 PUSH8 0xFFFFFFFFFFFFFFFF MUL NOT AND SWAP1 DUP4 PUSH8 0xFFFFFFFFFFFFFFFF AND MUL OR SWAP1 SSTORE POP SWAP3 PUSH1 0x20 ADD SWAP3 PUSH1 0x8 ADD PUSH1 0x20 DUP2 PUSH1 0x7 ADD DIV SWAP3 DUP4 ADD SWAP3 PUSH1 0x1 SUB MUL PUSH3 0x112 JUMP JUMPDEST DUP1 ISZERO PUSH3 0x196 JUMPI DUP3 DUP2 PUSH2 0x100 EXP DUP2 SLOAD SWAP1 PUSH8 0xFFFFFFFFFFFFFFFF MUL NOT AND SWAP1 SSTORE PUSH1 0x8 ADD PUSH1 0x20 DUP2 PUSH1 0x7 ADD DIV SWAP3 DUP4 ADD SWAP3 PUSH1 0x1 SUB MUL PUSH3 0x160 JUMP JUMPDEST POP JUMPDEST POP SWAP1 POP PUSH3 0x1A7 SWAP2 SWAP1 PUSH3 0x1AB JUMP JUMPDEST POP SWAP1 JUMP JUMPDEST JUMPDEST DUP1 DUP3 GT ISZERO PUSH3 0x1D8 JUMPI PUSH1 0x0 DUP2 DUP2 PUSH2 0x100 EXP DUP2 SLOAD SWAP1 PUSH8 0xFFFFFFFFFFFFFFFF MUL NOT AND SWAP1 SSTORE POP PUSH1 0x1 ADD PUSH3 0x1AC JUMP JUMPDEST POP SWAP1 JUMP JUMPDEST PUSH2 0x2C8C DUP1 PUSH3 0x1EC PUSH1 0x0 CODECOPY PUSH1 0x0 RETURN INVALID PUSH1 0x80 PUSH1 0x40 MSTORE CALLVALUE DUP1 ISZERO PUSH2 0x10 JUMPI PUSH1 0x0 DUP1 REVERT JUMPDEST POP PUSH1 0x4 CALLDATASIZE LT PUSH2 0x93 JUMPI PUSH1 0x0 CALLDATALOAD PUSH1 0xE0 SHR DUP1 PUSH4 0xD299DAC0 GT PUSH2 0x66 JUMPI DUP1 PUSH4 0xD299DAC0 EQ PUSH2 0x515 JUMPI DUP1 PUSH4 0xDF459019 EQ PUSH2 0x6B7 JUMPI DUP1 PUSH4 0xF23525EC EQ PUSH2 0x75A JUMPI DUP1 PUSH4 0xFA2ACD87 EQ PUSH2 0x7A6 JUMPI DUP1 PUSH4 0xFB72D24E EQ PUSH2 0x85D JUMPI PUSH2 0x93 JUMP JUMPDEST DUP1 PUSH4 0x1E092423 EQ PUSH2 0x98 JUMPI DUP1 PUSH4 0x217311AC EQ PUSH2 0x368 JUMPI DUP1 PUSH4 0x7AC0B1E3 EQ PUSH2 0x3BE JUMPI DUP1 PUSH4 0xBF187478 EQ PUSH2 0x4B5 JUMPI JUMPDEST PUSH1 0x0 DUP1 REVERT JUMPDEST PUSH2 0x32A PUSH1 0x4 DUP1 CALLDATASIZE SUB PUSH1 0xA0 DUP2 LT ISZERO PUSH2 0xAE JUMPI PUSH1 0x0 DUP1 REVERT JUMPDEST DUP2 ADD SWAP1 DUP1 DUP1 CALLDATALOAD SWAP1 PUSH1 0x20 ADD SWAP1 PUSH5 0x100000000 DUP2 GT ISZERO PUSH2 0xCB JUMPI PUSH1 0x0 DUP1 REVERT JUMPDEST DUP3 ADD DUP4 PUSH1 0x20 DUP3 ADD GT ISZERO PUSH2 0xDD JUMPI PUSH1 0x0 DUP1 REVERT JUMPDEST DUP1 CALLDATALOAD SWAP1 PUSH1 0x20 ADD SWAP2 DUP5 PUSH1 0x1 DUP4 MUL DUP5 ADD GT PUSH5 0x100000000 DUP4 GT OR ISZERO PUSH2 0xFF JUMPI PUSH1 0x0 DUP1 REVERT JUMPDEST SWAP2 SWAP1 DUP1 DUP1 PUSH1 0x1F ADD PUSH1 0x20 DUP1 SWAP2 DIV MUL PUSH1 0x20 ADD PUSH1 0x40 MLOAD SWAP1 DUP2 ADD PUSH1 0x40 MSTORE DUP1 SWAP4 SWAP3 SWAP2 SWAP1 DUP2 DUP2 MSTORE PUSH1 0x20 ADD DUP4 DUP4 DUP1 DUP3 DUP5 CALLDATACOPY PUSH1 0x0 DUP2 DUP5 ADD MSTORE PUSH1 0x1F NOT PUSH1 0x1F DUP3 ADD AND SWAP1 POP DUP1 DUP4 ADD SWAP3 POP POP POP POP POP POP POP SWAP2 SWAP3 SWAP2 SWAP3 SWAP1 DUP1 CALLDATALOAD SWAP1 PUSH1 0x20 ADD SWAP1 PUSH5 0x100000000 DUP2 GT ISZERO PUSH2 0x162 JUMPI PUSH1 0x0 DUP1 REVERT JUMPDEST DUP3 ADD DUP4 PUSH1 0x20 DUP3 ADD GT ISZERO PUSH2 0x174 JUMPI PUSH1 0x0 DUP1 REVERT JUMPDEST DUP1 CALLDATALOAD SWAP1 PUSH1 0x20 ADD SWAP2 DUP5 PUSH1 0x1 DUP4 MUL DUP5 ADD GT PUSH5 0x100000000 DUP4 GT OR ISZERO PUSH2 0x196 JUMPI PUSH1 0x0 DUP1 REVERT JUMPDEST SWAP2 SWAP1 DUP1 DUP1 PUSH1 0x1F ADD PUSH1 0x20 DUP1 SWAP2 DIV MUL PUSH1 0x20 ADD PUSH1 0x40 MLOAD SWAP1 DUP2 ADD PUSH1 0x40 MSTORE DUP1 SWAP4 SWAP3 SWAP2 SWAP1 DUP2 DUP2 MSTORE PUSH1 0x20 ADD DUP4 DUP4 DUP1 DUP3 DUP5 CALLDATACOPY PUSH1 0x0 DUP2 DUP5 ADD MSTORE PUSH1 0x1F NOT PUSH1 0x1F DUP3 ADD AND SWAP1 POP DUP1 DUP4 ADD SWAP3 POP POP POP POP POP POP POP SWAP2 SWAP3 SWAP2 SWAP3 SWAP1 DUP1 CALLDATALOAD SWAP1 PUSH1 0x20 ADD SWAP1 PUSH5 0x100000000 DUP2 GT ISZERO PUSH2 0x1F9 JUMPI PUSH1 0x0 DUP1 REVERT JUMPDEST DUP3 ADD DUP4 PUSH1 0x20 DUP3 ADD GT ISZERO PUSH2 0x20B JUMPI PUSH1 0x0 DUP1 REVERT JUMPDEST DUP1 CALLDATALOAD SWAP1 PUSH1 0x20 ADD SWAP2 DUP5 PUSH1 0x1 DUP4 MUL DUP5 ADD GT PUSH5 0x100000000 DUP4 GT OR ISZERO PUSH2 0x22D JUMPI PUSH1 0x0 DUP1 REVERT JUMPDEST SWAP2 SWAP1 DUP1 DUP1 PUSH1 0x1F ADD PUSH1 0x20 DUP1 SWAP2 DIV MUL PUSH1 0x20 ADD PUSH1 0x40 MLOAD SWAP1 DUP2 ADD PUSH1 0x40 MSTORE DUP1 SWAP4 SWAP3 SWAP2 SWAP1 DUP2 DUP2 MSTORE PUSH1 0x20 ADD DUP4 DUP4 DUP1 DUP3 DUP5 CALLDATACOPY PUSH1 0x0 DUP2 DUP5 ADD MSTORE PUSH1 0x1F NOT PUSH1 0x1F DUP3 ADD AND SWAP1 POP DUP1 DUP4 ADD SWAP3 POP POP POP POP POP POP POP SWAP2 SWAP3 SWAP2 SWAP3 SWAP1 DUP1 CALLDATALOAD SWAP1 PUSH1 0x20 ADD SWAP1 PUSH5 0x100000000 DUP2 GT ISZERO PUSH2 0x290 JUMPI PUSH1 0x0 DUP1 REVERT JUMPDEST DUP3 ADD DUP4 PUSH1 0x20 DUP3 ADD GT ISZERO PUSH2 0x2A2 JUMPI PUSH1 0x0 DUP1 REVERT JUMPDEST DUP1 CALLDATALOAD SWAP1 PUSH1 0x20 ADD SWAP2 DUP5 PUSH1 0x1 DUP4 MUL DUP5 ADD GT PUSH5 0x100000000 DUP4 GT OR ISZERO PUSH2 0x2C4 JUMPI PUSH1 0x0 DUP1 REVERT JUMPDEST SWAP2 SWAP1 DUP1 DUP1 PUSH1 0x1F ADD PUSH1 0x20 DUP1 SWAP2 DIV MUL PUSH1 0x20 ADD PUSH1 0x40 MLOAD SWAP1 DUP2 ADD PUSH1 0x40 MSTORE DUP1 SWAP4 SWAP3 SWAP2 SWAP1 DUP2 DUP2 MSTORE PUSH1 0x20 ADD DUP4 DUP4 DUP1 DUP3 DUP5 CALLDATACOPY PUSH1 0x0 DUP2 DUP5 ADD MSTORE PUSH1 0x1F NOT PUSH1 0x1F DUP3 ADD AND SWAP1 POP DUP1 DUP4 ADD SWAP3 POP POP POP POP POP POP POP SWAP2 SWAP3 SWAP2 SWAP3 SWAP1 DUP1 CALLDATALOAD PUSH8 0xFFFFFFFFFFFFFFFF AND SWAP1 PUSH1 0x20 ADD SWAP1 SWAP3 SWAP2 SWAP1 POP POP POP PUSH2 0x8BD JUMP JUMPDEST PUSH1 0x40 MLOAD DUP1 DUP3 PUSH1 0x8 PUSH1 0x20 MUL DUP1 DUP4 DUP4 PUSH1 0x0 JUMPDEST DUP4 DUP2 LT ISZERO PUSH2 0x355 JUMPI DUP1 DUP3 ADD MLOAD DUP2 DUP5 ADD MSTORE PUSH1 0x20 DUP2 ADD SWAP1 POP PUSH2 0x33A JUMP JUMPDEST POP POP POP POP SWAP1 POP ADD SWAP2 POP POP PUSH1 0x40 MLOAD DUP1 SWAP2 SUB SWAP1 RETURN JUMPDEST PUSH2 0x39E PUSH1 0x4 DUP1 CALLDATASIZE SUB PUSH1 0x20 DUP2 LT ISZERO PUSH2 0x37E JUMPI PUSH1 0x0 DUP1 REVERT JUMPDEST DUP2 ADD SWAP1 DUP1 DUP1 CALLDATALOAD PUSH8 0xFFFFFFFFFFFFFFFF AND SWAP1 PUSH1 0x20 ADD SWAP1 SWAP3 SWAP2 SWAP1 POP POP POP PUSH2 0x973 JUMP JUMPDEST PUSH1 0x40 MLOAD DUP1 DUP3 PUSH8 0xFFFFFFFFFFFFFFFF AND DUP2 MSTORE PUSH1 0x20 ADD SWAP2 POP POP PUSH1 0x40 MLOAD DUP1 SWAP2 SUB SWAP1 RETURN JUMPDEST PUSH2 0x477 PUSH1 0x4 DUP1 CALLDATASIZE SUB PUSH1 0x20 DUP2 LT ISZERO PUSH2 0x3D4 JUMPI PUSH1 0x0 DUP1 REVERT JUMPDEST DUP2 ADD SWAP1 DUP1 DUP1 CALLDATALOAD SWAP1 PUSH1 0x20 ADD SWAP1 PUSH5 0x100000000 DUP2 GT ISZERO PUSH2 0x3F1 JUMPI PUSH1 0x0 DUP1 REVERT JUMPDEST DUP3 ADD DUP4 PUSH1 0x20 DUP3 ADD GT ISZERO PUSH2 0x403 JUMPI PUSH1 0x0 DUP1 REVERT JUMPDEST DUP1 CALLDATALOAD SWAP1 PUSH1 0x20 ADD SWAP2 DUP5 PUSH1 0x1 DUP4 MUL DUP5 ADD GT PUSH5 0x100000000 DUP4 GT OR ISZERO PUSH2 0x425 JUMPI PUSH1 0x0 DUP1 REVERT JUMPDEST SWAP2 SWAP1 DUP1 DUP1 PUSH1 0x1F ADD PUSH1 0x20 DUP1 SWAP2 DIV MUL PUSH1 0x20 ADD PUSH1 0x40 MLOAD SWAP1 DUP2 ADD PUSH1 0x40 MSTORE DUP1 SWAP4 SWAP3 SWAP2 SWAP1 DUP2 DUP2 MSTORE PUSH1 0x20 ADD DUP4 DUP4 DUP1 DUP3 DUP5 CALLDATACOPY PUSH1 0x0 DUP2 DUP5 ADD MSTORE PUSH1 0x1F NOT PUSH1 0x1F DUP3 ADD AND SWAP1 POP DUP1 DUP4 ADD SWAP3 POP POP POP POP POP POP POP SWAP2 SWAP3 SWAP2 SWAP3 SWAP1 POP POP POP PUSH2 0xA63 JUMP JUMPDEST PUSH1 0x40 MLOAD DUP1 DUP3 PUSH1 0x2 PUSH1 0x20 MUL DUP1 DUP4 DUP4 PUSH1 0x0 JUMPDEST DUP4 DUP2 LT ISZERO PUSH2 0x4A2 JUMPI DUP1 DUP3 ADD MLOAD DUP2 DUP5 ADD MSTORE PUSH1 0x20 DUP2 ADD SWAP1 POP PUSH2 0x487 JUMP JUMPDEST POP POP POP POP SWAP1 POP ADD SWAP2 POP POP PUSH1 0x40 MLOAD DUP1 SWAP2 SUB SWAP1 RETURN JUMPDEST PUSH2 0x4F5 PUSH1 0x4 DUP1 CALLDATASIZE SUB PUSH1 0x40 DUP2 LT ISZERO PUSH2 0x4CB JUMPI PUSH1 0x0 DUP1 REVERT JUMPDEST DUP2 ADD SWAP1 DUP1 DUP1 CALLDATALOAD PUSH8 0xFFFFFFFFFFFFFFFF AND SWAP1 PUSH1 0x20 ADD SWAP1 SWAP3 SWAP2 SWAP1 DUP1 CALLDATALOAD SWAP1 PUSH1 0x20 ADD SWAP1 SWAP3 SWAP2 SWAP1 POP POP POP PUSH2 0xBA0 JUMP JUMPDEST PUSH1 0x40 MLOAD DUP1 DUP3 PUSH8 0xFFFFFFFFFFFFFFFF AND DUP2 MSTORE PUSH1 0x20 ADD SWAP2 POP POP PUSH1 0x40 MLOAD DUP1 SWAP2 SUB SWAP1 RETURN JUMPDEST PUSH2 0x679 PUSH1 0x4 DUP1 CALLDATASIZE SUB PUSH1 0x60 DUP2 LT ISZERO PUSH2 0x52B JUMPI PUSH1 0x0 DUP1 REVERT JUMPDEST DUP2 ADD SWAP1 DUP1 DUP1 CALLDATALOAD SWAP1 PUSH1 0x20 ADD SWAP1 PUSH5 0x100000000 DUP2 GT ISZERO PUSH2 0x548 JUMPI PUSH1 0x0 DUP1 REVERT JUMPDEST DUP3 ADD DUP4 PUSH1 0x20 DUP3 ADD GT ISZERO PUSH2 0x55A JUMPI PUSH1 0x0 DUP1 REVERT JUMPDEST DUP1 CALLDATALOAD SWAP1 PUSH1 0x20 ADD SWAP2 DUP5 PUSH1 0x1 DUP4 MUL DUP5 ADD GT PUSH5 0x100000000 DUP4 GT OR ISZERO PUSH2 0x57C JUMPI PUSH1 0x0 DUP1 REVERT JUMPDEST SWAP2 SWAP1 DUP1 DUP1 PUSH1 0x1F ADD PUSH1 0x20 DUP1 SWAP2 DIV MUL PUSH1 0x20 ADD PUSH1 0x40 MLOAD SWAP1 DUP2 ADD PUSH1 0x40 MSTORE DUP1 SWAP4 SWAP3 SWAP2 SWAP1 DUP2 DUP2 MSTORE PUSH1 0x20 ADD DUP4 DUP4 DUP1 DUP3 DUP5 CALLDATACOPY PUSH1 0x0 DUP2 DUP5 ADD MSTORE PUSH1 0x1F NOT PUSH1 0x1F DUP3 ADD AND SWAP1 POP DUP1 DUP4 ADD SWAP3 POP POP POP POP POP POP POP SWAP2 SWAP3 SWAP2 SWAP3 SWAP1 DUP1 CALLDATALOAD SWAP1 PUSH1 0x20 ADD SWAP1 PUSH5 0x100000000 DUP2 GT ISZERO PUSH2 0x5DF JUMPI PUSH1 0x0 DUP1 REVERT JUMPDEST DUP3 ADD DUP4 PUSH1 0x20 DUP3 ADD GT ISZERO PUSH2 0x5F1 JUMPI PUSH1 0x0 DUP1 REVERT JUMPDEST DUP1 CALLDATALOAD SWAP1 PUSH1 0x20 ADD SWAP2 DUP5 PUSH1 0x1 DUP4 MUL DUP5 ADD GT PUSH5 0x100000000 DUP4 GT OR ISZERO PUSH2 0x613 JUMPI PUSH1 0x0 DUP1 REVERT JUMPDEST SWAP2 SWAP1 DUP1 DUP1 PUSH1 0x1F ADD PUSH1 0x20 DUP1 SWAP2 DIV MUL PUSH1 0x20 ADD PUSH1 0x40 MLOAD SWAP1 DUP2 ADD PUSH1 0x40 MSTORE DUP1 SWAP4 SWAP3 SWAP2 SWAP1 DUP2 DUP2 MSTORE PUSH1 0x20 ADD DUP4 DUP4 DUP1 DUP3 DUP5 CALLDATACOPY PUSH1 0x0 DUP2 DUP5 ADD MSTORE PUSH1 0x1F NOT PUSH1 0x1F DUP3 ADD AND SWAP1 POP DUP1 DUP4 ADD SWAP3 POP POP POP POP POP POP POP SWAP2 SWAP3 SWAP2 SWAP3 SWAP1 DUP1 CALLDATALOAD PUSH8 0xFFFFFFFFFFFFFFFF AND SWAP1 PUSH1 0x20 ADD SWAP1 SWAP3 SWAP2 SWAP1 POP POP POP PUSH2 0xBCC JUMP JUMPDEST PUSH1 0x40 MLOAD DUP1 DUP3 PUSH1 0x8 PUSH1 0x20 MUL DUP1 DUP4 DUP4 PUSH1 0x0 JUMPDEST DUP4 DUP2 LT ISZERO PUSH2 0x6A4 JUMPI DUP1 DUP3 ADD MLOAD DUP2 DUP5 ADD MSTORE PUSH1 0x20 DUP2 ADD SWAP1 POP PUSH2 0x689 JUMP JUMPDEST POP POP POP POP SWAP1 POP ADD SWAP2 POP POP PUSH1 0x40 MLOAD DUP1 SWAP2 SUB SWAP1 RETURN JUMPDEST PUSH2 0x71C PUSH1 0x4 DUP1 CALLDATASIZE SUB PUSH2 0x100 DUP2 LT ISZERO PUSH2 0x6CE JUMPI PUSH1 0x0 DUP1 REVERT JUMPDEST DUP2 ADD SWAP1 DUP1 DUP1 PUSH2 0x100 ADD SWAP1 PUSH1 0x8 DUP1 PUSH1 0x20 MUL PUSH1 0x40 MLOAD SWAP1 DUP2 ADD PUSH1 0x40 MSTORE DUP1 SWAP3 SWAP2 SWAP1 DUP3 PUSH1 0x8 PUSH1 0x20 MUL DUP1 DUP3 DUP5 CALLDATACOPY PUSH1 0x0 DUP2 DUP5 ADD MSTORE PUSH1 0x1F NOT PUSH1 0x1F DUP3 ADD AND SWAP1 POP DUP1 DUP4 ADD SWAP3 POP POP POP POP POP POP SWAP2 SWAP3 SWAP2 SWAP3 SWAP1 POP POP POP PUSH2 0xC08 JUMP JUMPDEST PUSH1 0x40 MLOAD DUP1 DUP3 PUSH1 0x2 PUSH1 0x20 MUL DUP1 DUP4 DUP4 PUSH1 0x0 JUMPDEST DUP4 DUP2 LT ISZERO PUSH2 0x747 JUMPI DUP1 DUP3 ADD MLOAD DUP2 DUP5 ADD MSTORE PUSH1 0x20 DUP2 ADD SWAP1 POP PUSH2 0x72C JUMP JUMPDEST POP POP POP POP SWAP1 POP ADD SWAP2 POP POP PUSH1 0x40 MLOAD DUP1 SWAP2 SUB SWAP1 RETURN JUMPDEST PUSH2 0x786 PUSH1 0x4 DUP1 CALLDATASIZE SUB PUSH1 0x20 DUP2 LT ISZERO PUSH2 0x770 JUMPI PUSH1 0x0 DUP1 REVERT JUMPDEST DUP2 ADD SWAP1 DUP1 DUP1 CALLDATALOAD SWAP1 PUSH1 0x20 ADD SWAP1 SWAP3 SWAP2 SWAP1 POP POP POP PUSH2 0xCA9 JUMP JUMPDEST PUSH1 0x40 MLOAD DUP1 DUP3 PUSH8 0xFFFFFFFFFFFFFFFF AND DUP2 MSTORE PUSH1 0x20 ADD SWAP2 POP POP PUSH1 0x40 MLOAD DUP1 SWAP2 SUB SWAP1 RETURN JUMPDEST PUSH2 0x85B PUSH1 0x4 DUP1 CALLDATASIZE SUB PUSH2 0x2C0 DUP2 LT ISZERO PUSH2 0x7BD JUMPI PUSH1 0x0 DUP1 REVERT JUMPDEST DUP2 ADD SWAP1 DUP1 DUP1 PUSH2 0x200 ADD SWAP1 PUSH1 0x10 DUP1 PUSH1 0x20 MUL PUSH1 0x40 MLOAD SWAP1 DUP2 ADD PUSH1 0x40 MSTORE DUP1 SWAP3 SWAP2 SWAP1 DUP3 PUSH1 0x10 PUSH1 0x20 MUL DUP1 DUP3 DUP5 CALLDATACOPY PUSH1 0x0 DUP2 DUP5 ADD MSTORE PUSH1 0x1F NOT PUSH1 0x1F DUP3 ADD AND SWAP1 POP DUP1 DUP4 ADD SWAP3 POP POP POP POP POP POP SWAP2 SWAP3 SWAP2 SWAP3 SWAP1 DUP1 CALLDATALOAD SWAP1 PUSH1 0x20 ADD SWAP1 SWAP3 SWAP2 SWAP1 DUP1 CALLDATALOAD SWAP1 PUSH1 0x20 ADD SWAP1 SWAP3 SWAP2 SWAP1 DUP1 CALLDATALOAD SWAP1 PUSH1 0x20 ADD SWAP1 SWAP3 SWAP2 SWAP1 DUP1 CALLDATALOAD SWAP1 PUSH1 0x20 ADD SWAP1 SWAP3 SWAP2 SWAP1 DUP1 CALLDATALOAD PUSH8 0xFFFFFFFFFFFFFFFF AND SWAP1 PUSH1 0x20 ADD SWAP1 SWAP3 SWAP2 SWAP1 DUP1 CALLDATALOAD PUSH8 0xFFFFFFFFFFFFFFFF AND SWAP1 PUSH1 0x20 ADD SWAP1 SWAP3 SWAP2 SWAP1 POP POP POP PUSH2 0xCDA JUMP JUMPDEST STOP JUMPDEST PUSH2 0x89D PUSH1 0x4 DUP1 CALLDATASIZE SUB PUSH1 0x40 DUP2 LT ISZERO PUSH2 0x873 JUMPI PUSH1 0x0 DUP1 REVERT JUMPDEST DUP2 ADD SWAP1 DUP1 DUP1 CALLDATALOAD PUSH8 0xFFFFFFFFFFFFFFFF AND SWAP1 PUSH1 0x20 ADD SWAP1 SWAP3 SWAP2 SWAP1 DUP1 CALLDATALOAD SWAP1 PUSH1 0x20 ADD SWAP1 SWAP3 SWAP2 SWAP1 POP POP POP PUSH2 0xEAE JUMP JUMPDEST PUSH1 0x40 MLOAD DUP1 DUP3 PUSH8 0xFFFFFFFFFFFFFFFF AND DUP2 MSTORE PUSH1 0x20 ADD SWAP2 POP POP PUSH1 0x40 MLOAD DUP1 SWAP2 SUB SWAP1 RETURN JUMPDEST PUSH2 0x8C5 PUSH2 0x2B25 JUMP JUMPDEST PUSH2 0x8CD PUSH2 0x2B48 JUMP JUMPDEST PUSH2 0x8D5 PUSH2 0x2B25 JUMP JUMPDEST PUSH2 0x8F2 DUP3 DUP6 DUP10 PUSH2 0x8E4 DUP11 PUSH2 0xA63 JUMP JUMPDEST PUSH2 0x8ED DUP11 PUSH2 0xA63 JUMP JUMPDEST PUSH2 0xECF JUMP JUMPDEST PUSH2 0x8FC DUP3 DUP10 PUSH2 0x11DA JUMP JUMPDEST PUSH2 0x906 DUP3 DUP3 PUSH2 0x12E6 JUMP JUMPDEST PUSH32 0xDE1A9FB355752F7765552010C12EE02E62EAA7B0502F3088E6B5398CE8686A38 DUP2 PUSH1 0x40 MLOAD DUP1 DUP3 PUSH1 0x8 PUSH1 0x20 MUL DUP1 DUP4 DUP4 PUSH1 0x0 JUMPDEST DUP4 DUP2 LT ISZERO PUSH2 0x953 JUMPI DUP1 DUP3 ADD MLOAD DUP2 DUP5 ADD MSTORE PUSH1 0x20 DUP2 ADD SWAP1 POP PUSH2 0x938 JUMP JUMPDEST POP POP POP POP SWAP1 POP ADD SWAP2 POP POP PUSH1 0x40 MLOAD DUP1 SWAP2 SUB SWAP1 LOG1 DUP1 SWAP3 POP POP POP SWAP6 SWAP5 POP POP POP POP POP JUMP JUMPDEST PUSH1 0x0 PUSH8 0x100000000000000 PUSH1 0xFF DUP4 AND MUL PUSH6 0x10000000000 PUSH2 0xFF00 DUP5 AND MUL PUSH4 0x1000000 PUSH3 0xFF0000 DUP6 AND MUL PUSH2 0x100 PUSH4 0xFF000000 DUP7 AND MUL PUSH2 0x100 PUSH8 0xFFFFFFFFFFFFFFFF AND PUSH5 0xFF00000000 DUP8 AND PUSH8 0xFFFFFFFFFFFFFFFF AND DUP2 PUSH2 0x9CD JUMPI INVALID JUMPDEST DIV PUSH4 0x1000000 PUSH8 0xFFFFFFFFFFFFFFFF AND PUSH6 0xFF0000000000 DUP9 AND PUSH8 0xFFFFFFFFFFFFFFFF AND DUP2 PUSH2 0x9F7 JUMPI INVALID JUMPDEST DIV PUSH6 0x10000000000 PUSH8 0xFFFFFFFFFFFFFFFF AND PUSH7 0xFF000000000000 DUP10 AND PUSH8 0xFFFFFFFFFFFFFFFF AND DUP2 PUSH2 0xA24 JUMPI INVALID JUMPDEST DIV PUSH8 0x100000000000000 PUSH8 0xFFFFFFFFFFFFFFFF AND PUSH8 0xFF00000000000000 DUP11 AND PUSH8 0xFFFFFFFFFFFFFFFF AND DUP2 PUSH2 0xA54 JUMPI INVALID JUMPDEST DIV XOR XOR XOR XOR XOR XOR XOR SWAP1 POP SWAP2 SWAP1 POP JUMP JUMPDEST PUSH2 0xA6B PUSH2 0x2B9F JUMP JUMPDEST PUSH1 0x0 JUMPDEST DUP3 MLOAD DUP2 LT ISZERO PUSH2 0xB0E JUMPI PUSH2 0xAB0 DUP4 DUP3 DUP2 MLOAD DUP2 LT PUSH2 0xA86 JUMPI INVALID JUMPDEST PUSH1 0x20 ADD ADD MLOAD PUSH1 0xF8 SHR PUSH1 0xF8 SHL PUSH1 0xF8 SHR PUSH1 0xFF AND PUSH1 0x1 PUSH1 0x8 DUP5 DUP2 PUSH2 0xAA3 JUMPI INVALID JUMPDEST MOD ADD PUSH1 0x8 MUL PUSH1 0x40 SUB PUSH2 0xBA0 JUMP JUMPDEST DUP3 PUSH1 0x8 DUP4 DUP2 PUSH2 0xABB JUMPI INVALID JUMPDEST DIV PUSH1 0x2 DUP2 LT PUSH2 0xAC6 JUMPI INVALID JUMPDEST PUSH1 0x20 MUL ADD MLOAD XOR DUP3 PUSH1 0x8 DUP4 DUP2 PUSH2 0xAD7 JUMPI INVALID JUMPDEST DIV PUSH1 0x2 DUP2 LT PUSH2 0xAE2 JUMPI INVALID JUMPDEST PUSH1 0x20 MUL ADD SWAP1 PUSH8 0xFFFFFFFFFFFFFFFF AND SWAP1 DUP2 PUSH8 0xFFFFFFFFFFFFFFFF AND DUP2 MSTORE POP POP DUP1 DUP1 PUSH1 0x1 ADD SWAP2 POP POP PUSH2 0xA6E JUMP JUMPDEST POP PUSH2 0xB29 DUP2 PUSH1 0x0 PUSH1 0x2 DUP2 LT PUSH2 0xB1F JUMPI INVALID JUMPDEST PUSH1 0x20 MUL ADD MLOAD PUSH2 0x973 JUMP JUMPDEST DUP2 PUSH1 0x0 PUSH1 0x2 DUP2 LT PUSH2 0xB36 JUMPI INVALID JUMPDEST PUSH1 0x20 MUL ADD SWAP1 PUSH8 0xFFFFFFFFFFFFFFFF AND SWAP1 DUP2 PUSH8 0xFFFFFFFFFFFFFFFF AND DUP2 MSTORE POP POP PUSH2 0xB6F DUP2 PUSH1 0x1 PUSH1 0x2 DUP2 LT PUSH2 0xB65 JUMPI INVALID JUMPDEST PUSH1 0x20 MUL ADD MLOAD PUSH2 0x973 JUMP JUMPDEST DUP2 PUSH1 0x1 PUSH1 0x2 DUP2 LT PUSH2 0xB7C JUMPI INVALID JUMPDEST PUSH1 0x20 MUL ADD SWAP1 PUSH8 0xFFFFFFFFFFFFFFFF AND SWAP1 DUP2 PUSH8 0xFFFFFFFFFFFFFFFF AND DUP2 MSTORE POP POP SWAP2 SWAP1 POP JUMP JUMPDEST PUSH1 0x0 PUSH9 0x10000000000000000 DUP3 PUSH1 0x2 EXP DUP5 PUSH8 0xFFFFFFFFFFFFFFFF AND MUL DUP2 PUSH2 0xBC3 JUMPI INVALID JUMPDEST MOD SWAP1 POP SWAP3 SWAP2 POP POP JUMP JUMPDEST PUSH2 0xBD4 PUSH2 0x2B25 JUMP JUMPDEST PUSH2 0xBFF DUP5 DUP5 PUSH1 0x40 MLOAD DUP1 PUSH1 0x20 ADD PUSH1 0x40 MSTORE DUP1 PUSH1 0x0 DUP2 MSTORE POP PUSH1 0x40 MLOAD DUP1 PUSH1 0x20 ADD PUSH1 0x40 MSTORE DUP1 PUSH1 0x0 DUP2 MSTORE POP DUP7 PUSH2 0x8BD JUMP JUMPDEST SWAP1 POP SWAP4 SWAP3 POP POP POP JUMP JUMPDEST PUSH2 0xC10 PUSH2 0x2BC1 JUMP JUMPDEST PUSH2 0xC18 PUSH2 0x2BC1 JUMP JUMPDEST PUSH1 0x0 JUMPDEST PUSH1 0x8 DUP2 LT ISZERO PUSH2 0xC9F JUMPI PUSH1 0x4 DUP2 DUP2 PUSH2 0xC2E JUMPI INVALID JUMPDEST MOD PUSH1 0x3 SUB PUSH1 0x40 MUL PUSH1 0x2 EXP DUP5 DUP3 PUSH1 0x8 DUP2 LT PUSH2 0xC44 JUMPI INVALID JUMPDEST PUSH1 0x20 MUL ADD MLOAD PUSH8 0xFFFFFFFFFFFFFFFF AND MUL PUSH1 0x0 SHL DUP3 PUSH1 0x4 DUP4 DUP2 PUSH2 0xC62 JUMPI INVALID JUMPDEST DIV PUSH1 0x2 DUP2 LT PUSH2 0xC6D JUMPI INVALID JUMPDEST PUSH1 0x20 MUL ADD MLOAD XOR DUP3 PUSH1 0x4 DUP4 DUP2 PUSH2 0xC7E JUMPI INVALID JUMPDEST DIV PUSH1 0x2 DUP2 LT PUSH2 0xC89 JUMPI INVALID JUMPDEST PUSH1 0x20 MUL ADD DUP2 DUP2 MSTORE POP POP DUP1 DUP1 PUSH1 0x1 ADD SWAP2 POP POP PUSH2 0xC1B JUMP JUMPDEST POP DUP1 SWAP2 POP POP SWAP2 SWAP1 POP JUMP JUMPDEST PUSH1 0x0 DUP2 PUSH1 0x8 DUP2 LT PUSH2 0xCB6 JUMPI INVALID JUMPDEST PUSH1 0x4 SWAP2 DUP3 DUP3 DIV ADD SWAP2 SWAP1 MOD PUSH1 0x8 MUL SWAP2 POP SLOAD SWAP1 PUSH2 0x100 EXP SWAP1 DIV PUSH8 0xFFFFFFFFFFFFFFFF AND DUP2 JUMP JUMPDEST PUSH1 0x0 DUP8 DUP8 PUSH1 0x10 DUP2 LT PUSH2 0xCE8 JUMPI INVALID JUMPDEST PUSH1 0x20 MUL ADD MLOAD SWAP1 POP PUSH1 0x0 DUP9 DUP8 PUSH1 0x10 DUP2 LT PUSH2 0xCFD JUMPI INVALID JUMPDEST PUSH1 0x20 MUL ADD MLOAD SWAP1 POP PUSH1 0x0 DUP10 DUP8 PUSH1 0x10 DUP2 LT PUSH2 0xD12 JUMPI INVALID JUMPDEST PUSH1 0x20 MUL ADD MLOAD SWAP1 POP PUSH1 0x0 DUP11 DUP8 PUSH1 0x10 DUP2 LT PUSH2 0xD27 JUMPI INVALID JUMPDEST PUSH1 0x20 MUL ADD MLOAD SWAP1 POP PUSH9 0x10000000000000000 DUP7 DUP5 DUP7 ADD ADDMOD SWAP4 POP PUSH9 0x10000000000000000 PUSH5 0x100000000 DUP6 DUP4 XOR MULMOD PUSH5 0x100000000 DUP6 DUP4 XOR DIV XOR SWAP1 POP PUSH9 0x10000000000000000 DUP2 DUP4 ADDMOD SWAP2 POP PUSH9 0x10000000000000000 PUSH6 0x10000000000 DUP4 DUP6 XOR MULMOD PUSH4 0x1000000 DUP4 DUP6 XOR DIV XOR SWAP3 POP PUSH9 0x10000000000000000 DUP6 DUP5 DUP7 ADD ADDMOD SWAP4 POP PUSH9 0x10000000000000000 PUSH7 0x1000000000000 DUP6 DUP4 XOR MULMOD PUSH3 0x10000 DUP6 DUP4 XOR DIV XOR SWAP1 POP PUSH9 0x10000000000000000 DUP2 DUP4 ADDMOD SWAP2 POP PUSH9 0x10000000000000000 PUSH1 0x2 DUP4 DUP6 XOR MULMOD PUSH8 0x8000000000000000 DUP4 DUP6 XOR DIV XOR SWAP3 POP DUP4 DUP12 DUP12 PUSH1 0x10 DUP2 LT PUSH2 0xDFE JUMPI INVALID JUMPDEST PUSH1 0x20 MUL ADD SWAP1 PUSH8 0xFFFFFFFFFFFFFFFF AND SWAP1 DUP2 PUSH8 0xFFFFFFFFFFFFFFFF AND DUP2 MSTORE POP POP DUP3 DUP12 DUP11 PUSH1 0x10 DUP2 LT PUSH2 0xE2A JUMPI INVALID JUMPDEST PUSH1 0x20 MUL ADD SWAP1 PUSH8 0xFFFFFFFFFFFFFFFF AND SWAP1 DUP2 PUSH8 0xFFFFFFFFFFFFFFFF AND DUP2 MSTORE POP POP DUP2 DUP12 DUP10 PUSH1 0x10 DUP2 LT PUSH2 0xE56 JUMPI INVALID JUMPDEST PUSH1 0x20 MUL ADD SWAP1 PUSH8 0xFFFFFFFFFFFFFFFF AND SWAP1 DUP2 PUSH8 0xFFFFFFFFFFFFFFFF AND DUP2 MSTORE POP POP DUP1 DUP12 DUP9 PUSH1 0x10 DUP2 LT PUSH2 0xE82 JUMPI INVALID JUMPDEST PUSH1 0x20 MUL ADD SWAP1 PUSH8 0xFFFFFFFFFFFFFFFF AND SWAP1 DUP2 PUSH8 0xFFFFFFFFFFFFFFFF AND DUP2 MSTORE POP POP POP POP POP POP POP POP POP POP POP POP POP JUMP JUMPDEST PUSH1 0x0 DUP2 PUSH1 0x2 EXP DUP4 PUSH8 0xFFFFFFFFFFFFFFFF AND DUP2 PUSH2 0xEC6 JUMPI INVALID JUMPDEST DIV SWAP1 POP SWAP3 SWAP2 POP POP JUMP JUMPDEST PUSH1 0x0 DUP5 PUSH8 0xFFFFFFFFFFFFFFFF AND EQ DUP1 PUSH2 0xEF2 JUMPI POP PUSH1 0x40 DUP5 PUSH8 0xFFFFFFFFFFFFFFFF AND GT JUMPDEST DUP1 PUSH2 0xEFE JUMPI POP PUSH1 0x40 DUP4 MLOAD GT JUMPDEST ISZERO PUSH2 0xF54 JUMPI PUSH1 0x40 MLOAD PUSH32 0x8C379A000000000000000000000000000000000000000000000000000000000 DUP2 MSTORE PUSH1 0x4 ADD DUP1 DUP1 PUSH1 0x20 ADD DUP3 DUP2 SUB DUP3 MSTORE PUSH1 0x2E DUP2 MSTORE PUSH1 0x20 ADD DUP1 PUSH2 0x2C29 PUSH1 0x2E SWAP2 CODECOPY PUSH1 0x40 ADD SWAP2 POP POP PUSH1 0x40 MLOAD DUP1 SWAP2 SUB SWAP1 REVERT JUMPDEST PUSH1 0x0 JUMPDEST PUSH1 0x8 DUP2 LT ISZERO PUSH2 0xFC9 JUMPI PUSH1 0x0 DUP2 PUSH1 0x8 DUP2 LT PUSH2 0xF6D JUMPI INVALID JUMPDEST PUSH1 0x4 SWAP2 DUP3 DUP3 DIV ADD SWAP2 SWAP1 MOD PUSH1 0x8 MUL SWAP1 SLOAD SWAP1 PUSH2 0x100 EXP SWAP1 DIV PUSH8 0xFFFFFFFFFFFFFFFF AND DUP7 PUSH1 0x20 ADD MLOAD DUP3 PUSH1 0x8 DUP2 LT PUSH2 0xF9D JUMPI INVALID JUMPDEST PUSH1 0x20 MUL ADD SWAP1 PUSH8 0xFFFFFFFFFFFFFFFF AND SWAP1 DUP2 PUSH8 0xFFFFFFFFFFFFFFFF AND DUP2 MSTORE POP POP DUP1 DUP1 PUSH1 0x1 ADD SWAP2 POP POP PUSH2 0xF57 JUMP JUMPDEST POP DUP4 PUSH2 0xFD7 DUP5 MLOAD PUSH1 0x8 PUSH2 0xBA0 JUMP JUMPDEST PUSH4 0x1010000 DUP8 PUSH1 0x20 ADD MLOAD PUSH1 0x0 PUSH1 0x8 DUP2 LT PUSH2 0xFED JUMPI INVALID JUMPDEST PUSH1 0x20 MUL ADD MLOAD XOR XOR XOR DUP6 PUSH1 0x20 ADD MLOAD PUSH1 0x0 PUSH1 0x8 DUP2 LT PUSH2 0x1006 JUMPI INVALID JUMPDEST PUSH1 0x20 MUL ADD SWAP1 PUSH8 0xFFFFFFFFFFFFFFFF AND SWAP1 DUP2 PUSH8 0xFFFFFFFFFFFFFFFF AND DUP2 MSTORE POP POP DUP2 PUSH1 0x0 PUSH1 0x2 DUP2 LT PUSH2 0x1032 JUMPI INVALID JUMPDEST PUSH1 0x20 MUL ADD MLOAD DUP6 PUSH1 0x20 ADD MLOAD PUSH1 0x4 PUSH1 0x8 DUP2 LT PUSH2 0x1048 JUMPI INVALID JUMPDEST PUSH1 0x20 MUL ADD MLOAD XOR DUP6 PUSH1 0x20 ADD MLOAD PUSH1 0x4 PUSH1 0x8 DUP2 LT PUSH2 0x105F JUMPI INVALID JUMPDEST PUSH1 0x20 MUL ADD SWAP1 PUSH8 0xFFFFFFFFFFFFFFFF AND SWAP1 DUP2 PUSH8 0xFFFFFFFFFFFFFFFF AND DUP2 MSTORE POP POP DUP2 PUSH1 0x1 PUSH1 0x2 DUP2 LT PUSH2 0x108B JUMPI INVALID JUMPDEST PUSH1 0x20 MUL ADD MLOAD DUP6 PUSH1 0x20 ADD MLOAD PUSH1 0x5 PUSH1 0x8 DUP2 LT PUSH2 0x10A1 JUMPI INVALID JUMPDEST PUSH1 0x20 MUL ADD MLOAD XOR DUP6 PUSH1 0x20 ADD MLOAD PUSH1 0x5 PUSH1 0x8 DUP2 LT PUSH2 0x10B8 JUMPI INVALID JUMPDEST PUSH1 0x20 MUL ADD SWAP1 PUSH8 0xFFFFFFFFFFFFFFFF AND SWAP1 DUP2 PUSH8 0xFFFFFFFFFFFFFFFF AND DUP2 MSTORE POP POP DUP1 PUSH1 0x0 PUSH1 0x2 DUP2 LT PUSH2 0x10E4 JUMPI INVALID JUMPDEST PUSH1 0x20 MUL ADD MLOAD DUP6 PUSH1 0x20 ADD MLOAD PUSH1 0x6 PUSH1 0x8 DUP2 LT PUSH2 0x10FA JUMPI INVALID JUMPDEST PUSH1 0x20 MUL ADD MLOAD XOR DUP6 PUSH1 0x20 ADD MLOAD PUSH1 0x6 PUSH1 0x8 DUP2 LT PUSH2 0x1111 JUMPI INVALID JUMPDEST PUSH1 0x20 MUL ADD SWAP1 PUSH8 0xFFFFFFFFFFFFFFFF AND SWAP1 DUP2 PUSH8 0xFFFFFFFFFFFFFFFF AND DUP2 MSTORE POP POP DUP1 PUSH1 0x1 PUSH1 0x2 DUP2 LT PUSH2 0x113D JUMPI INVALID JUMPDEST PUSH1 0x20 MUL ADD MLOAD DUP6 PUSH1 0x20 ADD MLOAD PUSH1 0x7 PUSH1 0x8 DUP2 LT PUSH2 0x1153 JUMPI INVALID JUMPDEST PUSH1 0x20 MUL ADD MLOAD XOR DUP6 PUSH1 0x20 ADD MLOAD PUSH1 0x7 PUSH1 0x8 DUP2 LT PUSH2 0x116A JUMPI INVALID JUMPDEST PUSH1 0x20 MUL ADD SWAP1 PUSH8 0xFFFFFFFFFFFFFFFF AND SWAP1 DUP2 PUSH8 0xFFFFFFFFFFFFFFFF AND DUP2 MSTORE POP POP DUP4 PUSH8 0xFFFFFFFFFFFFFFFF AND DUP6 PUSH1 0x80 ADD DUP2 DUP2 MSTORE POP POP PUSH1 0x0 DUP4 MLOAD GT ISZERO PUSH2 0x11D3 JUMPI PUSH2 0x11B1 DUP6 DUP5 PUSH2 0x11DA JUMP JUMPDEST PUSH1 0x80 DUP6 PUSH1 0x60 ADD SWAP1 PUSH8 0xFFFFFFFFFFFFFFFF AND SWAP1 DUP2 PUSH8 0xFFFFFFFFFFFFFFFF AND DUP2 MSTORE POP POP JUMPDEST POP POP POP POP POP JUMP JUMPDEST PUSH1 0x0 JUMPDEST DUP2 MLOAD DUP2 LT ISZERO PUSH2 0x12E1 JUMPI PUSH1 0x80 DUP4 PUSH1 0x60 ADD MLOAD PUSH8 0xFFFFFFFFFFFFFFFF AND EQ ISZERO PUSH2 0x126E JUMPI DUP3 PUSH1 0x60 ADD MLOAD PUSH8 0xFFFFFFFFFFFFFFFF AND DUP4 PUSH1 0x40 ADD DUP2 DUP2 MLOAD ADD SWAP2 POP SWAP1 PUSH16 0xFFFFFFFFFFFFFFFFFFFFFFFFFFFFFFFF AND SWAP1 DUP2 PUSH16 0xFFFFFFFFFFFFFFFFFFFFFFFFFFFFFFFF AND DUP2 MSTORE POP POP PUSH2 0x124C DUP4 PUSH1 0x0 PUSH2 0x1437 JUMP JUMPDEST PUSH1 0x0 DUP4 PUSH1 0x60 ADD SWAP1 PUSH8 0xFFFFFFFFFFFFFFFF AND SWAP1 DUP2 PUSH8 0xFFFFFFFFFFFFFFFF AND DUP2 MSTORE POP POP JUMPDEST PUSH1 0x0 DUP4 PUSH1 0x60 ADD DUP1 MLOAD DUP1 SWAP2 SWAP1 PUSH1 0x1 ADD PUSH8 0xFFFFFFFFFFFFFFFF AND PUSH8 0xFFFFFFFFFFFFFFFF AND DUP2 MSTORE POP PUSH8 0xFFFFFFFFFFFFFFFF AND SWAP1 POP PUSH2 0x12A7 PUSH2 0x2BE3 JUMP JUMPDEST DUP5 PUSH1 0x0 ADD MLOAD SWAP1 POP PUSH1 0x0 DUP5 DUP5 DUP2 MLOAD DUP2 LT PUSH2 0x12BC JUMPI INVALID JUMPDEST PUSH1 0x20 ADD ADD MLOAD PUSH1 0xF8 SHR PUSH1 0xF8 SHL PUSH1 0xF8 SHR SWAP1 POP DUP1 DUP4 DUP4 ADD MSTORE8 POP POP POP DUP1 DUP1 PUSH1 0x1 ADD SWAP2 POP POP PUSH2 0x11DD JUMP JUMPDEST POP POP POP JUMP JUMPDEST DUP2 PUSH1 0x60 ADD MLOAD PUSH8 0xFFFFFFFFFFFFFFFF AND DUP3 PUSH1 0x40 ADD DUP2 DUP2 MLOAD ADD SWAP2 POP SWAP1 PUSH16 0xFFFFFFFFFFFFFFFFFFFFFFFFFFFFFFFF AND SWAP1 DUP2 PUSH16 0xFFFFFFFFFFFFFFFFFFFFFFFFFFFFFFFF AND DUP2 MSTORE POP POP PUSH2 0x1335 DUP3 PUSH1 0x1 PUSH2 0x1437 JUMP JUMPDEST PUSH1 0x0 JUMPDEST PUSH1 0x8 DUP4 PUSH1 0x80 ADD MLOAD DUP2 PUSH2 0x1346 JUMPI INVALID JUMPDEST DIV DUP2 LT ISZERO PUSH2 0x13A3 JUMPI PUSH2 0x136B DUP4 PUSH1 0x20 ADD MLOAD DUP3 PUSH1 0x8 DUP2 LT PUSH2 0x1361 JUMPI INVALID JUMPDEST PUSH1 0x20 MUL ADD MLOAD PUSH2 0x973 JUMP JUMPDEST DUP3 DUP3 PUSH1 0x8 DUP2 LT PUSH2 0x1377 JUMPI INVALID JUMPDEST PUSH1 0x20 MUL ADD SWAP1 PUSH8 0xFFFFFFFFFFFFFFFF AND SWAP1 DUP2 PUSH8 0xFFFFFFFFFFFFFFFF AND DUP2 MSTORE POP POP DUP1 DUP1 PUSH1 0x1 ADD SWAP2 POP POP PUSH2 0x1338 JUMP JUMPDEST POP PUSH1 0x40 DUP3 PUSH1 0x80 ADD MLOAD LT ISZERO PUSH2 0x1433 JUMPI PUSH2 0x13F9 PUSH2 0x13DF DUP4 PUSH1 0x20 ADD MLOAD PUSH1 0x8 DUP6 PUSH1 0x80 ADD MLOAD DUP2 PUSH2 0x13CA JUMPI INVALID JUMPDEST DIV PUSH1 0x8 DUP2 LT PUSH2 0x13D5 JUMPI INVALID JUMPDEST PUSH1 0x20 MUL ADD MLOAD PUSH2 0x973 JUMP JUMPDEST PUSH1 0x8 DUP5 PUSH1 0x80 ADD MLOAD DUP2 PUSH2 0x13ED JUMPI INVALID JUMPDEST MOD PUSH1 0x8 MUL PUSH1 0x40 SUB PUSH2 0xEAE JUMP JUMPDEST DUP2 PUSH1 0x8 DUP5 PUSH1 0x80 ADD MLOAD DUP2 PUSH2 0x1408 JUMPI INVALID JUMPDEST DIV PUSH1 0x8 DUP2 LT PUSH2 0x1413 JUMPI INVALID JUMPDEST PUSH1 0x20 MUL ADD SWAP1 PUSH8 0xFFFFFFFFFFFFFFFF AND SWAP1 DUP2 PUSH8 0xFFFFFFFFFFFFFFFF AND DUP2 MSTORE POP POP JUMPDEST POP POP JUMP JUMPDEST PUSH2 0x143F PUSH2 0x2C05 JUMP JUMPDEST PUSH2 0x1447 PUSH2 0x2C05 JUMP JUMPDEST PUSH1 0x0 JUMPDEST PUSH1 0x8 DUP2 LT ISZERO PUSH2 0x14FB JUMPI DUP5 PUSH1 0x20 ADD MLOAD DUP2 PUSH1 0x8 DUP2 LT PUSH2 0x1463 JUMPI INVALID JUMPDEST PUSH1 0x20 MUL ADD MLOAD DUP4 DUP3 PUSH1 0x10 DUP2 LT PUSH2 0x1474 JUMPI INVALID JUMPDEST PUSH1 0x20 MUL ADD SWAP1 PUSH8 0xFFFFFFFFFFFFFFFF AND SWAP1 DUP2 PUSH8 0xFFFFFFFFFFFFFFFF AND DUP2 MSTORE POP POP PUSH1 0x0 DUP2 PUSH1 0x8 DUP2 LT PUSH2 0x14A0 JUMPI INVALID JUMPDEST PUSH1 0x4 SWAP2 DUP3 DUP3 DIV ADD SWAP2 SWAP1 MOD PUSH1 0x8 MUL SWAP1 SLOAD SWAP1 PUSH2 0x100 EXP SWAP1 DIV PUSH8 0xFFFFFFFFFFFFFFFF AND DUP4 PUSH1 0x8 DUP4 ADD PUSH1 0x10 DUP2 LT PUSH2 0x14CF JUMPI INVALID JUMPDEST PUSH1 0x20 MUL ADD SWAP1 PUSH8 0xFFFFFFFFFFFFFFFF AND SWAP1 DUP2 PUSH8 0xFFFFFFFFFFFFFFFF AND DUP2 MSTORE POP POP DUP1 DUP1 PUSH1 0x1 ADD SWAP2 POP POP PUSH2 0x144A JUMP JUMPDEST POP PUSH9 0x10000000000000000 DUP5 PUSH1 0x40 ADD MLOAD PUSH16 0xFFFFFFFFFFFFFFFFFFFFFFFFFFFFFFFF AND DUP2 PUSH2 0x1524 JUMPI INVALID JUMPDEST MOD DUP3 PUSH1 0xC PUSH1 0x10 DUP2 LT PUSH2 0x1532 JUMPI INVALID JUMPDEST PUSH1 0x20 MUL ADD MLOAD XOR DUP3 PUSH1 0xC PUSH1 0x10 DUP2 LT PUSH2 0x1545 JUMPI INVALID JUMPDEST PUSH1 0x20 MUL ADD SWAP1 PUSH8 0xFFFFFFFFFFFFFFFF AND SWAP1 DUP2 PUSH8 0xFFFFFFFFFFFFFFFF AND DUP2 MSTORE POP POP PUSH9 0x10000000000000000 DUP5 PUSH1 0x40 ADD MLOAD PUSH16 0xFFFFFFFFFFFFFFFFFFFFFFFFFFFFFFFF AND DUP2 PUSH2 0x158C JUMPI INVALID JUMPDEST DIV DUP3 PUSH1 0xD PUSH1 0x10 DUP2 LT PUSH2 0x159A JUMPI INVALID JUMPDEST PUSH1 0x20 MUL ADD MLOAD XOR DUP3 PUSH1 0xD PUSH1 0x10 DUP2 LT PUSH2 0x15AD JUMPI INVALID JUMPDEST PUSH1 0x20 MUL ADD SWAP1 PUSH8 0xFFFFFFFFFFFFFFFF AND SWAP1 DUP2 PUSH8 0xFFFFFFFFFFFFFFFF AND DUP2 MSTORE POP POP DUP3 ISZERO PUSH2 0x1612 JUMPI DUP2 PUSH1 0xE PUSH1 0x10 DUP2 LT PUSH2 0x15DF JUMPI INVALID JUMPDEST PUSH1 0x20 MUL ADD MLOAD NOT DUP3 PUSH1 0xE PUSH1 0x10 DUP2 LT PUSH2 0x15F2 JUMPI INVALID JUMPDEST PUSH1 0x20 MUL ADD SWAP1 PUSH8 0xFFFFFFFFFFFFFFFF AND SWAP1 DUP2 PUSH8 0xFFFFFFFFFFFFFFFF AND DUP2 MSTORE POP POP JUMPDEST PUSH1 0x0 DUP1 PUSH1 0x0 JUMPDEST PUSH1 0x10 DUP2 LT ISZERO PUSH2 0x16B9 JUMPI PUSH1 0x0 PUSH1 0x4 DUP3 DUP2 PUSH2 0x162D JUMPI INVALID JUMPDEST MOD SWAP1 POP PUSH1 0x0 SWAP4 POP PUSH1 0x0 DUP2 EQ ISZERO PUSH2 0x165F JUMPI DUP8 PUSH1 0x0 ADD MLOAD PUSH1 0x4 DUP4 DUP2 PUSH2 0x164C JUMPI INVALID JUMPDEST DIV PUSH1 0x4 DUP2 LT PUSH2 0x1657 JUMPI INVALID JUMPDEST PUSH1 0x20 MUL ADD MLOAD SWAP3 POP JUMPDEST PUSH8 0xFFFFFFFFFFFFFFFF DUP2 PUSH1 0x3 SUB PUSH1 0x40 MUL PUSH1 0x2 EXP DUP5 DIV AND SWAP4 POP PUSH2 0x1680 DUP5 PUSH2 0x973 JUMP JUMPDEST DUP6 DUP4 PUSH1 0x10 DUP2 LT PUSH2 0x168C JUMPI INVALID JUMPDEST PUSH1 0x20 MUL ADD SWAP1 PUSH8 0xFFFFFFFFFFFFFFFF AND SWAP1 DUP2 PUSH8 0xFFFFFFFFFFFFFFFF AND DUP2 MSTORE POP POP POP DUP1 DUP1 PUSH1 0x1 ADD SWAP2 POP POP PUSH2 0x1618 JUMP JUMPDEST POP PUSH2 0x16EF DUP5 PUSH1 0x0 PUSH1 0x4 PUSH1 0x8 PUSH1 0xC DUP9 PUSH1 0x0 PUSH1 0x10 DUP2 LT PUSH2 0x16D3 JUMPI INVALID JUMPDEST PUSH1 0x20 MUL ADD MLOAD DUP10 PUSH1 0x1 PUSH1 0x10 DUP2 LT PUSH2 0x16E5 JUMPI INVALID JUMPDEST PUSH1 0x20 MUL ADD MLOAD PUSH2 0xCDA JUMP JUMPDEST PUSH2 0x1724 DUP5 PUSH1 0x1 PUSH1 0x5 PUSH1 0x9 PUSH1 0xD DUP9 PUSH1 0x2 PUSH1 0x10 DUP2 LT PUSH2 0x1708 JUMPI INVALID JUMPDEST PUSH1 0x20 MUL ADD MLOAD DUP10 PUSH1 0x3 PUSH1 0x10 DUP2 LT PUSH2 0x171A JUMPI INVALID JUMPDEST PUSH1 0x20 MUL ADD MLOAD PUSH2 0xCDA JUMP JUMPDEST PUSH2 0x1759 DUP5 PUSH1 0x2 PUSH1 0x6 PUSH1 0xA PUSH1 0xE DUP9 PUSH1 0x4 PUSH1 0x10 DUP2 LT PUSH2 0x173D JUMPI INVALID JUMPDEST PUSH1 0x20 MUL ADD MLOAD DUP10 PUSH1 0x5 PUSH1 0x10 DUP2 LT PUSH2 0x174F JUMPI INVALID JUMPDEST PUSH1 0x20 MUL ADD MLOAD PUSH2 0xCDA JUMP JUMPDEST PUSH2 0x178E DUP5 PUSH1 0x3 PUSH1 0x7 PUSH1 0xB PUSH1 0xF DUP9 PUSH1 0x6 PUSH1 0x10 DUP2 LT PUSH2 0x1772 JUMPI INVALID JUMPDEST PUSH1 0x20 MUL ADD MLOAD DUP10 PUSH1 0x7 PUSH1 0x10 DUP2 LT PUSH2 0x1784 JUMPI INVALID JUMPDEST PUSH1 0x20 MUL ADD MLOAD PUSH2 0xCDA JUMP JUMPDEST PUSH2 0x17C3 DUP5 PUSH1 0x0 PUSH1 0x5 PUSH1 0xA PUSH1 0xF DUP9 PUSH1 0x8 PUSH1 0x10 DUP2 LT PUSH2 0x17A7 JUMPI INVALID JUMPDEST PUSH1 0x20 MUL ADD MLOAD DUP10 PUSH1 0x9 PUSH1 0x10 DUP2 LT PUSH2 0x17B9 JUMPI INVALID JUMPDEST PUSH1 0x20 MUL ADD MLOAD PUSH2 0xCDA JUMP JUMPDEST PUSH2 0x17F8 DUP5 PUSH1 0x1 PUSH1 0x6 PUSH1 0xB PUSH1 0xC DUP9 PUSH1 0xA PUSH1 0x10 DUP2 LT PUSH2 0x17DC JUMPI INVALID JUMPDEST PUSH1 0x20 MUL ADD MLOAD DUP10 PUSH1 0xB PUSH1 0x10 DUP2 LT PUSH2 0x17EE JUMPI INVALID JUMPDEST PUSH1 0x20 MUL ADD MLOAD PUSH2 0xCDA JUMP JUMPDEST PUSH2 0x182D DUP5 PUSH1 0x2 PUSH1 0x7 PUSH1 0x8 PUSH1 0xD DUP9 PUSH1 0xC PUSH1 0x10 DUP2 LT PUSH2 0x1811 JUMPI INVALID JUMPDEST PUSH1 0x20 MUL ADD MLOAD DUP10 PUSH1 0xD PUSH1 0x10 DUP2 LT PUSH2 0x1823 JUMPI INVALID JUMPDEST PUSH1 0x20 MUL ADD MLOAD PUSH2 0xCDA JUMP JUMPDEST PUSH2 0x1862 DUP5 PUSH1 0x3 PUSH1 0x4 PUSH1 0x9 PUSH1 0xE DUP9 PUSH1 0xE PUSH1 0x10 DUP2 LT PUSH2 0x1846 JUMPI INVALID JUMPDEST PUSH1 0x20 MUL ADD MLOAD DUP10 PUSH1 0xF PUSH1 0x10 DUP2 LT PUSH2 0x1858 JUMPI INVALID JUMPDEST PUSH1 0x20 MUL ADD MLOAD PUSH2 0xCDA JUMP JUMPDEST PUSH2 0x1897 DUP5 PUSH1 0x0 PUSH1 0x4 PUSH1 0x8 PUSH1 0xC DUP9 PUSH1 0xE PUSH1 0x10 DUP2 LT PUSH2 0x187B JUMPI INVALID JUMPDEST PUSH1 0x20 MUL ADD MLOAD DUP10 PUSH1 0xA PUSH1 0x10 DUP2 LT PUSH2 0x188D JUMPI INVALID JUMPDEST PUSH1 0x20 MUL ADD MLOAD PUSH2 0xCDA JUMP JUMPDEST PUSH2 0x18CC DUP5 PUSH1 0x1 PUSH1 0x5 PUSH1 0x9 PUSH1 0xD DUP9 PUSH1 0x4 PUSH1 0x10 DUP2 LT PUSH2 0x18B0 JUMPI INVALID JUMPDEST PUSH1 0x20 MUL ADD MLOAD DUP10 PUSH1 0x8 PUSH1 0x10 DUP2 LT PUSH2 0x18C2 JUMPI INVALID JUMPDEST PUSH1 0x20 MUL ADD MLOAD PUSH2 0xCDA JUMP JUMPDEST PUSH2 0x1901 DUP5 PUSH1 0x2 PUSH1 0x6 PUSH1 0xA PUSH1 0xE DUP9 PUSH1 0x9 PUSH1 0x10 DUP2 LT PUSH2 0x18E5 JUMPI INVALID JUMPDEST PUSH1 0x20 MUL ADD MLOAD DUP10 PUSH1 0xF PUSH1 0x10 DUP2 LT PUSH2 0x18F7 JUMPI INVALID JUMPDEST PUSH1 0x20 MUL ADD MLOAD PUSH2 0xCDA JUMP JUMPDEST PUSH2 0x1936 DUP5 PUSH1 0x3 PUSH1 0x7 PUSH1 0xB PUSH1 0xF DUP9 PUSH1 0xD PUSH1 0x10 DUP2 LT PUSH2 0x191A JUMPI INVALID JUMPDEST PUSH1 0x20 MUL ADD MLOAD DUP10 PUSH1 0x6 PUSH1 0x10 DUP2 LT PUSH2 0x192C JUMPI INVALID JUMPDEST PUSH1 0x20 MUL ADD MLOAD PUSH2 0xCDA JUMP JUMPDEST PUSH2 0x196B DUP5 PUSH1 0x0 PUSH1 0x5 PUSH1 0xA PUSH1 0xF DUP9 PUSH1 0x1 PUSH1 0x10 DUP2 LT PUSH2 0x194F JUMPI INVALID JUMPDEST PUSH1 0x20 MUL ADD MLOAD DUP10 PUSH1 0xC PUSH1 0x10 DUP2 LT PUSH2 0x1961 JUMPI INVALID JUMPDEST PUSH1 0x20 MUL ADD MLOAD PUSH2 0xCDA JUMP JUMPDEST PUSH2 0x19A0 DUP5 PUSH1 0x1 PUSH1 0x6 PUSH1 0xB PUSH1 0xC DUP9 PUSH1 0x0 PUSH1 0x10 DUP2 LT PUSH2 0x1984 JUMPI INVALID JUMPDEST PUSH1 0x20 MUL ADD MLOAD DUP10 PUSH1 0x2 PUSH1 0x10 DUP2 LT PUSH2 0x1996 JUMPI INVALID JUMPDEST PUSH1 0x20 MUL ADD MLOAD PUSH2 0xCDA JUMP JUMPDEST PUSH2 0x19D5 DUP5 PUSH1 0x2 PUSH1 0x7 PUSH1 0x8 PUSH1 0xD DUP9 PUSH1 0xB PUSH1 0x10 DUP2 LT PUSH2 0x19B9 JUMPI INVALID JUMPDEST PUSH1 0x20 MUL ADD MLOAD DUP10 PUSH1 0x7 PUSH1 0x10 DUP2 LT PUSH2 0x19CB JUMPI INVALID JUMPDEST PUSH1 0x20 MUL ADD MLOAD PUSH2 0xCDA JUMP JUMPDEST PUSH2 0x1A0A DUP5 PUSH1 0x3 PUSH1 0x4 PUSH1 0x9 PUSH1 0xE DUP9 PUSH1 0x5 PUSH1 0x10 DUP2 LT PUSH2 0x19EE JUMPI INVALID JUMPDEST PUSH1 0x20 MUL ADD MLOAD DUP10 PUSH1 0x3 PUSH1 0x10 DUP2 LT PUSH2 0x1A00 JUMPI INVALID JUMPDEST PUSH1 0x20 MUL ADD MLOAD PUSH2 0xCDA JUMP JUMPDEST PUSH2 0x1A3F DUP5 PUSH1 0x0 PUSH1 0x4 PUSH1 0x8 PUSH1 0xC DUP9 PUSH1 0xB PUSH1 0x10 DUP2 LT PUSH2 0x1A23 JUMPI INVALID JUMPDEST PUSH1 0x20 MUL ADD MLOAD DUP10 PUSH1 0x8 PUSH1 0x10 DUP2 LT PUSH2 0x1A35 JUMPI INVALID JUMPDEST PUSH1 0x20 MUL ADD MLOAD PUSH2 0xCDA JUMP JUMPDEST PUSH2 0x1A74 DUP5 PUSH1 0x1 PUSH1 0x5 PUSH1 0x9 PUSH1 0xD DUP9 PUSH1 0xC PUSH1 0x10 DUP2 LT PUSH2 0x1A58 JUMPI INVALID JUMPDEST PUSH1 0x20 MUL ADD MLOAD DUP10 PUSH1 0x0 PUSH1 0x10 DUP2 LT PUSH2 0x1A6A JUMPI INVALID JUMPDEST PUSH1 0x20 MUL ADD MLOAD PUSH2 0xCDA JUMP JUMPDEST PUSH2 0x1AA9 DUP5 PUSH1 0x2 PUSH1 0x6 PUSH1 0xA PUSH1 0xE DUP9 PUSH1 0x5 PUSH1 0x10 DUP2 LT PUSH2 0x1A8D JUMPI INVALID JUMPDEST PUSH1 0x20 MUL ADD MLOAD DUP10 PUSH1 0x2 PUSH1 0x10 DUP2 LT PUSH2 0x1A9F JUMPI INVALID JUMPDEST PUSH1 0x20 MUL ADD MLOAD PUSH2 0xCDA JUMP JUMPDEST PUSH2 0x1ADE DUP5 PUSH1 0x3 PUSH1 0x7 PUSH1 0xB PUSH1 0xF DUP9 PUSH1 0xF PUSH1 0x10 DUP2 LT PUSH2 0x1AC2 JUMPI INVALID JUMPDEST PUSH1 0x20 MUL ADD MLOAD DUP10 PUSH1 0xD PUSH1 0x10 DUP2 LT PUSH2 0x1AD4 JUMPI INVALID JUMPDEST PUSH1 0x20 MUL ADD MLOAD PUSH2 0xCDA JUMP JUMPDEST PUSH2 0x1B13 DUP5 PUSH1 0x0 PUSH1 0x5 PUSH1 0xA PUSH1 0xF DUP9 PUSH1 0xA PUSH1 0x10 DUP2 LT PUSH2 0x1AF7 JUMPI INVALID JUMPDEST PUSH1 0x20 MUL ADD MLOAD DUP10 PUSH1 0xE PUSH1 0x10 DUP2 LT PUSH2 0x1B09 JUMPI INVALID JUMPDEST PUSH1 0x20 MUL ADD MLOAD PUSH2 0xCDA JUMP JUMPDEST PUSH2 0x1B48 DUP5 PUSH1 0x1 PUSH1 0x6 PUSH1 0xB PUSH1 0xC DUP9 PUSH1 0x3 PUSH1 0x10 DUP2 LT PUSH2 0x1B2C JUMPI INVALID JUMPDEST PUSH1 0x20 MUL ADD MLOAD DUP10 PUSH1 0x6 PUSH1 0x10 DUP2 LT PUSH2 0x1B3E JUMPI INVALID JUMPDEST PUSH1 0x20 MUL ADD MLOAD PUSH2 0xCDA JUMP JUMPDEST PUSH2 0x1B7D DUP5 PUSH1 0x2 PUSH1 0x7 PUSH1 0x8 PUSH1 0xD DUP9 PUSH1 0x7 PUSH1 0x10 DUP2 LT PUSH2 0x1B61 JUMPI INVALID JUMPDEST PUSH1 0x20 MUL ADD MLOAD DUP10 PUSH1 0x1 PUSH1 0x10 DUP2 LT PUSH2 0x1B73 JUMPI INVALID JUMPDEST PUSH1 0x20 MUL ADD MLOAD PUSH2 0xCDA JUMP JUMPDEST PUSH2 0x1BB2 DUP5 PUSH1 0x3 PUSH1 0x4 PUSH1 0x9 PUSH1 0xE DUP9 PUSH1 0x9 PUSH1 0x10 DUP2 LT PUSH2 0x1B96 JUMPI INVALID JUMPDEST PUSH1 0x20 MUL ADD MLOAD DUP10 PUSH1 0x4 PUSH1 0x10 DUP2 LT PUSH2 0x1BA8 JUMPI INVALID JUMPDEST PUSH1 0x20 MUL ADD MLOAD PUSH2 0xCDA JUMP JUMPDEST PUSH2 0x1BE7 DUP5 PUSH1 0x0 PUSH1 0x4 PUSH1 0x8 PUSH1 0xC DUP9 PUSH1 0x7 PUSH1 0x10 DUP2 LT PUSH2 0x1BCB JUMPI INVALID JUMPDEST PUSH1 0x20 MUL ADD MLOAD DUP10 PUSH1 0x9 PUSH1 0x10 DUP2 LT PUSH2 0x1BDD JUMPI INVALID JUMPDEST PUSH1 0x20 MUL ADD MLOAD PUSH2 0xCDA JUMP JUMPDEST PUSH2 0x1C1C DUP5 PUSH1 0x1 PUSH1 0x5 PUSH1 0x9 PUSH1 0xD DUP9 PUSH1 0x3 PUSH1 0x10 DUP2 LT PUSH2 0x1C00 JUMPI INVALID JUMPDEST PUSH1 0x20 MUL ADD MLOAD DUP10 PUSH1 0x1 PUSH1 0x10 DUP2 LT PUSH2 0x1C12 JUMPI INVALID JUMPDEST PUSH1 0x20 MUL ADD MLOAD PUSH2 0xCDA JUMP JUMPDEST PUSH2 0x1C51 DUP5 PUSH1 0x2 PUSH1 0x6 PUSH1 0xA PUSH1 0xE DUP9 PUSH1 0xD PUSH1 0x10 DUP2 LT PUSH2 0x1C35 JUMPI INVALID JUMPDEST PUSH1 0x20 MUL ADD MLOAD DUP10 PUSH1 0xC PUSH1 0x10 DUP2 LT PUSH2 0x1C47 JUMPI INVALID JUMPDEST PUSH1 0x20 MUL ADD MLOAD PUSH2 0xCDA JUMP JUMPDEST PUSH2 0x1C86 DUP5 PUSH1 0x3 PUSH1 0x7 PUSH1 0xB PUSH1 0xF DUP9 PUSH1 0xB PUSH1 0x10 DUP2 LT PUSH2 0x1C6A JUMPI INVALID JUMPDEST PUSH1 0x20 MUL ADD MLOAD DUP10 PUSH1 0xE PUSH1 0x10 DUP2 LT PUSH2 0x1C7C JUMPI INVALID JUMPDEST PUSH1 0x20 MUL ADD MLOAD PUSH2 0xCDA JUMP JUMPDEST PUSH2 0x1CBB DUP5 PUSH1 0x0 PUSH1 0x5 PUSH1 0xA PUSH1 0xF DUP9 PUSH1 0x2 PUSH1 0x10 DUP2 LT PUSH2 0x1C9F JUMPI INVALID JUMPDEST PUSH1 0x20 MUL ADD MLOAD DUP10 PUSH1 0x6 PUSH1 0x10 DUP2 LT PUSH2 0x1CB1 JUMPI INVALID JUMPDEST PUSH1 0x20 MUL ADD MLOAD PUSH2 0xCDA JUMP JUMPDEST PUSH2 0x1CF0 DUP5 PUSH1 0x1 PUSH1 0x6 PUSH1 0xB PUSH1 0xC DUP9 PUSH1 0x5 PUSH1 0x10 DUP2 LT PUSH2 0x1CD4 JUMPI INVALID JUMPDEST PUSH1 0x20 MUL ADD MLOAD DUP10 PUSH1 0xA PUSH1 0x10 DUP2 LT PUSH2 0x1CE6 JUMPI INVALID JUMPDEST PUSH1 0x20 MUL ADD MLOAD PUSH2 0xCDA JUMP JUMPDEST PUSH2 0x1D25 DUP5 PUSH1 0x2 PUSH1 0x7 PUSH1 0x8 PUSH1 0xD DUP9 PUSH1 0x4 PUSH1 0x10 DUP2 LT PUSH2 0x1D09 JUMPI INVALID JUMPDEST PUSH1 0x20 MUL ADD MLOAD DUP10 PUSH1 0x0 PUSH1 0x10 DUP2 LT PUSH2 0x1D1B JUMPI INVALID JUMPDEST PUSH1 0x20 MUL ADD MLOAD PUSH2 0xCDA JUMP JUMPDEST PUSH2 0x1D5A DUP5 PUSH1 0x3 PUSH1 0x4 PUSH1 0x9 PUSH1 0xE DUP9 PUSH1 0xF PUSH1 0x10 DUP2 LT PUSH2 0x1D3E JUMPI INVALID JUMPDEST PUSH1 0x20 MUL ADD MLOAD DUP10 PUSH1 0x8 PUSH1 0x10 DUP2 LT PUSH2 0x1D50 JUMPI INVALID JUMPDEST PUSH1 0x20 MUL ADD MLOAD PUSH2 0xCDA JUMP JUMPDEST PUSH2 0x1D8F DUP5 PUSH1 0x0 PUSH1 0x4 PUSH1 0x8 PUSH1 0xC DUP9 PUSH1 0x9 PUSH1 0x10 DUP2 LT PUSH2 0x1D73 JUMPI INVALID JUMPDEST PUSH1 0x20 MUL ADD MLOAD DUP10 PUSH1 0x0 PUSH1 0x10 DUP2 LT PUSH2 0x1D85 JUMPI INVALID JUMPDEST PUSH1 0x20 MUL ADD MLOAD PUSH2 0xCDA JUMP JUMPDEST PUSH2 0x1DC4 DUP5 PUSH1 0x1 PUSH1 0x5 PUSH1 0x9 PUSH1 0xD DUP9 PUSH1 0x5 PUSH1 0x10 DUP2 LT PUSH2 0x1DA8 JUMPI INVALID JUMPDEST PUSH1 0x20 MUL ADD MLOAD DUP10 PUSH1 0x7 PUSH1 0x10 DUP2 LT PUSH2 0x1DBA JUMPI INVALID JUMPDEST PUSH1 0x20 MUL ADD MLOAD PUSH2 0xCDA JUMP JUMPDEST PUSH2 0x1DF9 DUP5 PUSH1 0x2 PUSH1 0x6 PUSH1 0xA PUSH1 0xE DUP9 PUSH1 0x2 PUSH1 0x10 DUP2 LT PUSH2 0x1DDD JUMPI INVALID JUMPDEST PUSH1 0x20 MUL ADD MLOAD DUP10 PUSH1 0x4 PUSH1 0x10 DUP2 LT PUSH2 0x1DEF JUMPI INVALID JUMPDEST PUSH1 0x20 MUL ADD MLOAD PUSH2 0xCDA JUMP JUMPDEST PUSH2 0x1E2E DUP5 PUSH1 0x3 PUSH1 0x7 PUSH1 0xB PUSH1 0xF DUP9 PUSH1 0xA PUSH1 0x10 DUP2 LT PUSH2 0x1E12 JUMPI INVALID JUMPDEST PUSH1 0x20 MUL ADD MLOAD DUP10 PUSH1 0xF PUSH1 0x10 DUP2 LT PUSH2 0x1E24 JUMPI INVALID JUMPDEST PUSH1 0x20 MUL ADD MLOAD PUSH2 0xCDA JUMP JUMPDEST PUSH2 0x1E63 DUP5 PUSH1 0x0 PUSH1 0x5 PUSH1 0xA PUSH1 0xF DUP9 PUSH1 0xE PUSH1 0x10 DUP2 LT PUSH2 0x1E47 JUMPI INVALID JUMPDEST PUSH1 0x20 MUL ADD MLOAD DUP10 PUSH1 0x1 PUSH1 0x10 DUP2 LT PUSH2 0x1E59 JUMPI INVALID JUMPDEST PUSH1 0x20 MUL ADD MLOAD PUSH2 0xCDA JUMP JUMPDEST PUSH2 0x1E98 DUP5 PUSH1 0x1 PUSH1 0x6 PUSH1 0xB PUSH1 0xC DUP9 PUSH1 0xB PUSH1 0x10 DUP2 LT PUSH2 0x1E7C JUMPI INVALID JUMPDEST PUSH1 0x20 MUL ADD MLOAD DUP10 PUSH1 0xC PUSH1 0x10 DUP2 LT PUSH2 0x1E8E JUMPI INVALID JUMPDEST PUSH1 0x20 MUL ADD MLOAD PUSH2 0xCDA JUMP JUMPDEST PUSH2 0x1ECD DUP5 PUSH1 0x2 PUSH1 0x7 PUSH1 0x8 PUSH1 0xD DUP9 PUSH1 0x6 PUSH1 0x10 DUP2 LT PUSH2 0x1EB1 JUMPI INVALID JUMPDEST PUSH1 0x20 MUL ADD MLOAD DUP10 PUSH1 0x8 PUSH1 0x10 DUP2 LT PUSH2 0x1EC3 JUMPI INVALID JUMPDEST PUSH1 0x20 MUL ADD MLOAD PUSH2 0xCDA JUMP JUMPDEST PUSH2 0x1F02 DUP5 PUSH1 0x3 PUSH1 0x4 PUSH1 0x9 PUSH1 0xE DUP9 PUSH1 0x3 PUSH1 0x10 DUP2 LT PUSH2 0x1EE6 JUMPI INVALID JUMPDEST PUSH1 0x20 MUL ADD MLOAD DUP10 PUSH1 0xD PUSH1 0x10 DUP2 LT PUSH2 0x1EF8 JUMPI INVALID JUMPDEST PUSH1 0x20 MUL ADD MLOAD PUSH2 0xCDA JUMP JUMPDEST PUSH2 0x1F37 DUP5 PUSH1 0x0 PUSH1 0x4 PUSH1 0x8 PUSH1 0xC DUP9 PUSH1 0x2 PUSH1 0x10 DUP2 LT PUSH2 0x1F1B JUMPI INVALID JUMPDEST PUSH1 0x20 MUL ADD MLOAD DUP10 PUSH1 0xC PUSH1 0x10 DUP2 LT PUSH2 0x1F2D JUMPI INVALID JUMPDEST PUSH1 0x20 MUL ADD MLOAD PUSH2 0xCDA JUMP JUMPDEST PUSH2 0x1F6C DUP5 PUSH1 0x1 PUSH1 0x5 PUSH1 0x9 PUSH1 0xD DUP9 PUSH1 0x6 PUSH1 0x10 DUP2 LT PUSH2 0x1F50 JUMPI INVALID JUMPDEST PUSH1 0x20 MUL ADD MLOAD DUP10 PUSH1 0xA PUSH1 0x10 DUP2 LT PUSH2 0x1F62 JUMPI INVALID JUMPDEST PUSH1 0x20 MUL ADD MLOAD PUSH2 0xCDA JUMP JUMPDEST PUSH2 0x1FA1 DUP5 PUSH1 0x2 PUSH1 0x6 PUSH1 0xA PUSH1 0xE DUP9 PUSH1 0x0 PUSH1 0x10 DUP2 LT PUSH2 0x1F85 JUMPI INVALID JUMPDEST PUSH1 0x20 MUL ADD MLOAD DUP10 PUSH1 0xB PUSH1 0x10 DUP2 LT PUSH2 0x1F97 JUMPI INVALID JUMPDEST PUSH1 0x20 MUL ADD MLOAD PUSH2 0xCDA JUMP JUMPDEST PUSH2 0x1FD6 DUP5 PUSH1 0x3 PUSH1 0x7 PUSH1 0xB PUSH1 0xF DUP9 PUSH1 0x8 PUSH1 0x10 DUP2 LT PUSH2 0x1FBA JUMPI INVALID JUMPDEST PUSH1 0x20 MUL ADD MLOAD DUP10 PUSH1 0x3 PUSH1 0x10 DUP2 LT PUSH2 0x1FCC JUMPI INVALID JUMPDEST PUSH1 0x20 MUL ADD MLOAD PUSH2 0xCDA JUMP JUMPDEST PUSH2 0x200B DUP5 PUSH1 0x0 PUSH1 0x5 PUSH1 0xA PUSH1 0xF DUP9 PUSH1 0x4 PUSH1 0x10 DUP2 LT PUSH2 0x1FEF JUMPI INVALID JUMPDEST PUSH1 0x20 MUL ADD MLOAD DUP10 PUSH1 0xD PUSH1 0x10 DUP2 LT PUSH2 0x2001 JUMPI INVALID JUMPDEST PUSH1 0x20 MUL ADD MLOAD PUSH2 0xCDA JUMP JUMPDEST PUSH2 0x2040 DUP5 PUSH1 0x1 PUSH1 0x6 PUSH1 0xB PUSH1 0xC DUP9 PUSH1 0x7 PUSH1 0x10 DUP2 LT PUSH2 0x2024 JUMPI INVALID JUMPDEST PUSH1 0x20 MUL ADD MLOAD DUP10 PUSH1 0x5 PUSH1 0x10 DUP2 LT PUSH2 0x2036 JUMPI INVALID JUMPDEST PUSH1 0x20 MUL ADD MLOAD PUSH2 0xCDA JUMP JUMPDEST PUSH2 0x2075 DUP5 PUSH1 0x2 PUSH1 0x7 PUSH1 0x8 PUSH1 0xD DUP9 PUSH1 0xF PUSH1 0x10 DUP2 LT PUSH2 0x2059 JUMPI INVALID JUMPDEST PUSH1 0x20 MUL ADD MLOAD DUP10 PUSH1 0xE PUSH1 0x10 DUP2 LT PUSH2 0x206B JUMPI INVALID JUMPDEST PUSH1 0x20 MUL ADD MLOAD PUSH2 0xCDA JUMP JUMPDEST PUSH2 0x20AA DUP5 PUSH1 0x3 PUSH1 0x4 PUSH1 0x9 PUSH1 0xE DUP9 PUSH1 0x1 PUSH1 0x10 DUP2 LT PUSH2 0x208E JUMPI INVALID JUMPDEST PUSH1 0x20 MUL ADD MLOAD DUP10 PUSH1 0x9 PUSH1 0x10 DUP2 LT PUSH2 0x20A0 JUMPI INVALID JUMPDEST PUSH1 0x20 MUL ADD MLOAD PUSH2 0xCDA JUMP JUMPDEST PUSH2 0x20DF DUP5 PUSH1 0x0 PUSH1 0x4 PUSH1 0x8 PUSH1 0xC DUP9 PUSH1 0xC PUSH1 0x10 DUP2 LT PUSH2 0x20C3 JUMPI INVALID JUMPDEST PUSH1 0x20 MUL ADD MLOAD DUP10 PUSH1 0x5 PUSH1 0x10 DUP2 LT PUSH2 0x20D5 JUMPI INVALID JUMPDEST PUSH1 0x20 MUL ADD MLOAD PUSH2 0xCDA JUMP JUMPDEST PUSH2 0x2114 DUP5 PUSH1 0x1 PUSH1 0x5 PUSH1 0x9 PUSH1 0xD DUP9 PUSH1 0x1 PUSH1 0x10 DUP2 LT PUSH2 0x20F8 JUMPI INVALID JUMPDEST PUSH1 0x20 MUL ADD MLOAD DUP10 PUSH1 0xF PUSH1 0x10 DUP2 LT PUSH2 0x210A JUMPI INVALID JUMPDEST PUSH1 0x20 MUL ADD MLOAD PUSH2 0xCDA JUMP JUMPDEST PUSH2 0x2149 DUP5 PUSH1 0x2 PUSH1 0x6 PUSH1 0xA PUSH1 0xE DUP9 PUSH1 0xE PUSH1 0x10 DUP2 LT PUSH2 0x212D JUMPI INVALID JUMPDEST PUSH1 0x20 MUL ADD MLOAD DUP10 PUSH1 0xD PUSH1 0x10 DUP2 LT PUSH2 0x213F JUMPI INVALID JUMPDEST PUSH1 0x20 MUL ADD MLOAD PUSH2 0xCDA JUMP JUMPDEST PUSH2 0x217E DUP5 PUSH1 0x3 PUSH1 0x7 PUSH1 0xB PUSH1 0xF DUP9 PUSH1 0x4 PUSH1 0x10 DUP2 LT PUSH2 0x2162 JUMPI INVALID JUMPDEST PUSH1 0x20 MUL ADD MLOAD DUP10 PUSH1 0xA PUSH1 0x10 DUP2 LT PUSH2 0x2174 JUMPI INVALID JUMPDEST PUSH1 0x20 MUL ADD MLOAD PUSH2 0xCDA JUMP JUMPDEST PUSH2 0x21B3 DUP5 PUSH1 0x0 PUSH1 0x5 PUSH1 0xA PUSH1 0xF DUP9 PUSH1 0x0 PUSH1 0x10 DUP2 LT PUSH2 0x2197 JUMPI INVALID JUMPDEST PUSH1 0x20 MUL ADD MLOAD DUP10 PUSH1 0x7 PUSH1 0x10 DUP2 LT PUSH2 0x21A9 JUMPI INVALID JUMPDEST PUSH1 0x20 MUL ADD MLOAD PUSH2 0xCDA JUMP JUMPDEST PUSH2 0x21E8 DUP5 PUSH1 0x1 PUSH1 0x6 PUSH1 0xB PUSH1 0xC DUP9 PUSH1 0x6 PUSH1 0x10 DUP2 LT PUSH2 0x21CC JUMPI INVALID JUMPDEST PUSH1 0x20 MUL ADD MLOAD DUP10 PUSH1 0x3 PUSH1 0x10 DUP2 LT PUSH2 0x21DE JUMPI INVALID JUMPDEST PUSH1 0x20 MUL ADD MLOAD PUSH2 0xCDA JUMP JUMPDEST PUSH2 0x221D DUP5 PUSH1 0x2 PUSH1 0x7 PUSH1 0x8 PUSH1 0xD DUP9 PUSH1 0x9 PUSH1 0x10 DUP2 LT PUSH2 0x2201 JUMPI INVALID JUMPDEST PUSH1 0x20 MUL ADD MLOAD DUP10 PUSH1 0x2 PUSH1 0x10 DUP2 LT PUSH2 0x2213 JUMPI INVALID JUMPDEST PUSH1 0x20 MUL ADD MLOAD PUSH2 0xCDA JUMP JUMPDEST PUSH2 0x2252 DUP5 PUSH1 0x3 PUSH1 0x4 PUSH1 0x9 PUSH1 0xE DUP9 PUSH1 0x8 PUSH1 0x10 DUP2 LT PUSH2 0x2236 JUMPI INVALID JUMPDEST PUSH1 0x20 MUL ADD MLOAD DUP10 PUSH1 0xB PUSH1 0x10 DUP2 LT PUSH2 0x2248 JUMPI INVALID JUMPDEST PUSH1 0x20 MUL ADD MLOAD PUSH2 0xCDA JUMP JUMPDEST PUSH2 0x2287 DUP5 PUSH1 0x0 PUSH1 0x4 PUSH1 0x8 PUSH1 0xC DUP9 PUSH1 0xD PUSH1 0x10 DUP2 LT PUSH2 0x226B JUMPI INVALID JUMPDEST PUSH1 0x20 MUL ADD MLOAD DUP10 PUSH1 0xB PUSH1 0x10 DUP2 LT PUSH2 0x227D JUMPI INVALID JUMPDEST PUSH1 0x20 MUL ADD MLOAD PUSH2 0xCDA JUMP JUMPDEST PUSH2 0x22BC DUP5 PUSH1 0x1 PUSH1 0x5 PUSH1 0x9 PUSH1 0xD DUP9 PUSH1 0x7 PUSH1 0x10 DUP2 LT PUSH2 0x22A0 JUMPI INVALID JUMPDEST PUSH1 0x20 MUL ADD MLOAD DUP10 PUSH1 0xE PUSH1 0x10 DUP2 LT PUSH2 0x22B2 JUMPI INVALID JUMPDEST PUSH1 0x20 MUL ADD MLOAD PUSH2 0xCDA JUMP JUMPDEST PUSH2 0x22F1 DUP5 PUSH1 0x2 PUSH1 0x6 PUSH1 0xA PUSH1 0xE DUP9 PUSH1 0xC PUSH1 0x10 DUP2 LT PUSH2 0x22D5 JUMPI INVALID JUMPDEST PUSH1 0x20 MUL ADD MLOAD DUP10 PUSH1 0x1 PUSH1 0x10 DUP2 LT PUSH2 0x22E7 JUMPI INVALID JUMPDEST PUSH1 0x20 MUL ADD MLOAD PUSH2 0xCDA JUMP JUMPDEST PUSH2 0x2326 DUP5 PUSH1 0x3 PUSH1 0x7 PUSH1 0xB PUSH1 0xF DUP9 PUSH1 0x3 PUSH1 0x10 DUP2 LT PUSH2 0x230A JUMPI INVALID JUMPDEST PUSH1 0x20 MUL ADD MLOAD DUP10 PUSH1 0x9 PUSH1 0x10 DUP2 LT PUSH2 0x231C JUMPI INVALID JUMPDEST PUSH1 0x20 MUL ADD MLOAD PUSH2 0xCDA JUMP JUMPDEST PUSH2 0x235B DUP5 PUSH1 0x0 PUSH1 0x5 PUSH1 0xA PUSH1 0xF DUP9 PUSH1 0x5 PUSH1 0x10 DUP2 LT PUSH2 0x233F JUMPI INVALID JUMPDEST PUSH1 0x20 MUL ADD MLOAD DUP10 PUSH1 0x0 PUSH1 0x10 DUP2 LT PUSH2 0x2351 JUMPI INVALID JUMPDEST PUSH1 0x20 MUL ADD MLOAD PUSH2 0xCDA JUMP JUMPDEST PUSH2 0x2390 DUP5 PUSH1 0x1 PUSH1 0x6 PUSH1 0xB PUSH1 0xC DUP9 PUSH1 0xF PUSH1 0x10 DUP2 LT PUSH2 0x2374 JUMPI INVALID JUMPDEST PUSH1 0x20 MUL ADD MLOAD DUP10 PUSH1 0x4 PUSH1 0x10 DUP2 LT PUSH2 0x2386 JUMPI INVALID JUMPDEST PUSH1 0x20 MUL ADD MLOAD PUSH2 0xCDA JUMP JUMPDEST PUSH2 0x23C5 DUP5 PUSH1 0x2 PUSH1 0x7 PUSH1 0x8 PUSH1 0xD DUP9 PUSH1 0x8 PUSH1 0x10 DUP2 LT PUSH2 0x23A9 JUMPI INVALID JUMPDEST PUSH1 0x20 MUL ADD MLOAD DUP10 PUSH1 0x6 PUSH1 0x10 DUP2 LT PUSH2 0x23BB JUMPI INVALID JUMPDEST PUSH1 0x20 MUL ADD MLOAD PUSH2 0xCDA JUMP JUMPDEST PUSH2 0x23FA DUP5 PUSH1 0x3 PUSH1 0x4 PUSH1 0x9 PUSH1 0xE DUP9 PUSH1 0x2 PUSH1 0x10 DUP2 LT PUSH2 0x23DE JUMPI INVALID JUMPDEST PUSH1 0x20 MUL ADD MLOAD DUP10 PUSH1 0xA PUSH1 0x10 DUP2 LT PUSH2 0x23F0 JUMPI INVALID JUMPDEST PUSH1 0x20 MUL ADD MLOAD PUSH2 0xCDA JUMP JUMPDEST PUSH2 0x242F DUP5 PUSH1 0x0 PUSH1 0x4 PUSH1 0x8 PUSH1 0xC DUP9 PUSH1 0x6 PUSH1 0x10 DUP2 LT PUSH2 0x2413 JUMPI INVALID JUMPDEST PUSH1 0x20 MUL ADD MLOAD DUP10 PUSH1 0xF PUSH1 0x10 DUP2 LT PUSH2 0x2425 JUMPI INVALID JUMPDEST PUSH1 0x20 MUL ADD MLOAD PUSH2 0xCDA JUMP JUMPDEST PUSH2 0x2464 DUP5 PUSH1 0x1 PUSH1 0x5 PUSH1 0x9 PUSH1 0xD DUP9 PUSH1 0xE PUSH1 0x10 DUP2 LT PUSH2 0x2448 JUMPI INVALID JUMPDEST PUSH1 0x20 MUL ADD MLOAD DUP10 PUSH1 0x9 PUSH1 0x10 DUP2 LT PUSH2 0x245A JUMPI INVALID JUMPDEST PUSH1 0x20 MUL ADD MLOAD PUSH2 0xCDA JUMP JUMPDEST PUSH2 0x2499 DUP5 PUSH1 0x2 PUSH1 0x6 PUSH1 0xA PUSH1 0xE DUP9 PUSH1 0xB PUSH1 0x10 DUP2 LT PUSH2 0x247D JUMPI INVALID JUMPDEST PUSH1 0x20 MUL ADD MLOAD DUP10 PUSH1 0x3 PUSH1 0x10 DUP2 LT PUSH2 0x248F JUMPI INVALID JUMPDEST PUSH1 0x20 MUL ADD MLOAD PUSH2 0xCDA JUMP JUMPDEST PUSH2 0x24CE DUP5 PUSH1 0x3 PUSH1 0x7 PUSH1 0xB PUSH1 0xF DUP9 PUSH1 0x0 PUSH1 0x10 DUP2 LT PUSH2 0x24B2 JUMPI INVALID JUMPDEST PUSH1 0x20 MUL ADD MLOAD DUP10 PUSH1 0x8 PUSH1 0x10 DUP2 LT PUSH2 0x24C4 JUMPI INVALID JUMPDEST PUSH1 0x20 MUL ADD MLOAD PUSH2 0xCDA JUMP JUMPDEST PUSH2 0x2503 DUP5 PUSH1 0x0 PUSH1 0x5 PUSH1 0xA PUSH1 0xF DUP9 PUSH1 0xC PUSH1 0x10 DUP2 LT PUSH2 0x24E7 JUMPI INVALID JUMPDEST PUSH1 0x20 MUL ADD MLOAD DUP10 PUSH1 0x2 PUSH1 0x10 DUP2 LT PUSH2 0x24F9 JUMPI INVALID JUMPDEST PUSH1 0x20 MUL ADD MLOAD PUSH2 0xCDA JUMP JUMPDEST PUSH2 0x2538 DUP5 PUSH1 0x1 PUSH1 0x6 PUSH1 0xB PUSH1 0xC DUP9 PUSH1 0xD PUSH1 0x10 DUP2 LT PUSH2 0x251C JUMPI INVALID JUMPDEST PUSH1 0x20 MUL ADD MLOAD DUP10 PUSH1 0x7 PUSH1 0x10 DUP2 LT PUSH2 0x252E JUMPI INVALID JUMPDEST PUSH1 0x20 MUL ADD MLOAD PUSH2 0xCDA JUMP JUMPDEST PUSH2 0x256D DUP5 PUSH1 0x2 PUSH1 0x7 PUSH1 0x8 PUSH1 0xD DUP9 PUSH1 0x1 PUSH1 0x10 DUP2 LT PUSH2 0x2551 JUMPI INVALID JUMPDEST PUSH1 0x20 MUL ADD MLOAD DUP10 PUSH1 0x4 PUSH1 0x10 DUP2 LT PUSH2 0x2563 JUMPI INVALID JUMPDEST PUSH1 0x20 MUL ADD MLOAD PUSH2 0xCDA JUMP JUMPDEST PUSH2 0x25A2 DUP5 PUSH1 0x3 PUSH1 0x4 PUSH1 0x9 PUSH1 0xE DUP9 PUSH1 0xA PUSH1 0x10 DUP2 LT PUSH2 0x2586 JUMPI INVALID JUMPDEST PUSH1 0x20 MUL ADD MLOAD DUP10 PUSH1 0x5 PUSH1 0x10 DUP2 LT PUSH2 0x2598 JUMPI INVALID JUMPDEST PUSH1 0x20 MUL ADD MLOAD PUSH2 0xCDA JUMP JUMPDEST PUSH2 0x25D7 DUP5 PUSH1 0x0 PUSH1 0x4 PUSH1 0x8 PUSH1 0xC DUP9 PUSH1 0xA PUSH1 0x10 DUP2 LT PUSH2 0x25BB JUMPI INVALID JUMPDEST PUSH1 0x20 MUL ADD MLOAD DUP10 PUSH1 0x2 PUSH1 0x10 DUP2 LT PUSH2 0x25CD JUMPI INVALID JUMPDEST PUSH1 0x20 MUL ADD MLOAD PUSH2 0xCDA JUMP JUMPDEST PUSH2 0x260C DUP5 PUSH1 0x1 PUSH1 0x5 PUSH1 0x9 PUSH1 0xD DUP9 PUSH1 0x8 PUSH1 0x10 DUP2 LT PUSH2 0x25F0 JUMPI INVALID JUMPDEST PUSH1 0x20 MUL ADD MLOAD DUP10 PUSH1 0x4 PUSH1 0x10 DUP2 LT PUSH2 0x2602 JUMPI INVALID JUMPDEST PUSH1 0x20 MUL ADD MLOAD PUSH2 0xCDA JUMP JUMPDEST PUSH2 0x2641 DUP5 PUSH1 0x2 PUSH1 0x6 PUSH1 0xA PUSH1 0xE DUP9 PUSH1 0x7 PUSH1 0x10 DUP2 LT PUSH2 0x2625 JUMPI INVALID JUMPDEST PUSH1 0x20 MUL ADD MLOAD DUP10 PUSH1 0x6 PUSH1 0x10 DUP2 LT PUSH2 0x2637 JUMPI INVALID JUMPDEST PUSH1 0x20 MUL ADD MLOAD PUSH2 0xCDA JUMP JUMPDEST PUSH2 0x2676 DUP5 PUSH1 0x3 PUSH1 0x7 PUSH1 0xB PUSH1 0xF DUP9 PUSH1 0x1 PUSH1 0x10 DUP2 LT PUSH2 0x265A JUMPI INVALID JUMPDEST PUSH1 0x20 MUL ADD MLOAD DUP10 PUSH1 0x5 PUSH1 0x10 DUP2 LT PUSH2 0x266C JUMPI INVALID JUMPDEST PUSH1 0x20 MUL ADD MLOAD PUSH2 0xCDA JUMP JUMPDEST PUSH2 0x26AB DUP5 PUSH1 0x0 PUSH1 0x5 PUSH1 0xA PUSH1 0xF DUP9 PUSH1 0xF PUSH1 0x10 DUP2 LT PUSH2 0x268F JUMPI INVALID JUMPDEST PUSH1 0x20 MUL ADD MLOAD DUP10 PUSH1 0xB PUSH1 0x10 DUP2 LT PUSH2 0x26A1 JUMPI INVALID JUMPDEST PUSH1 0x20 MUL ADD MLOAD PUSH2 0xCDA JUMP JUMPDEST PUSH2 0x26E0 DUP5 PUSH1 0x1 PUSH1 0x6 PUSH1 0xB PUSH1 0xC DUP9 PUSH1 0x9 PUSH1 0x10 DUP2 LT PUSH2 0x26C4 JUMPI INVALID JUMPDEST PUSH1 0x20 MUL ADD MLOAD DUP10 PUSH1 0xE PUSH1 0x10 DUP2 LT PUSH2 0x26D6 JUMPI INVALID JUMPDEST PUSH1 0x20 MUL ADD MLOAD PUSH2 0xCDA JUMP JUMPDEST PUSH2 0x2715 DUP5 PUSH1 0x2 PUSH1 0x7 PUSH1 0x8 PUSH1 0xD DUP9 PUSH1 0x3 PUSH1 0x10 DUP2 LT PUSH2 0x26F9 JUMPI INVALID JUMPDEST PUSH1 0x20 MUL ADD MLOAD DUP10 PUSH1 0xC PUSH1 0x10 DUP2 LT PUSH2 0x270B JUMPI INVALID JUMPDEST PUSH1 0x20 MUL ADD MLOAD PUSH2 0xCDA JUMP JUMPDEST PUSH2 0x274A DUP5 PUSH1 0x3 PUSH1 0x4 PUSH1 0x9 PUSH1 0xE DUP9 PUSH1 0xD PUSH1 0x10 DUP2 LT PUSH2 0x272E JUMPI INVALID JUMPDEST PUSH1 0x20 MUL ADD MLOAD DUP10 PUSH1 0x0 PUSH1 0x10 DUP2 LT PUSH2 0x2740 JUMPI INVALID JUMPDEST PUSH1 0x20 MUL ADD MLOAD PUSH2 0xCDA JUMP JUMPDEST PUSH2 0x277F DUP5 PUSH1 0x0 PUSH1 0x4 PUSH1 0x8 PUSH1 0xC DUP9 PUSH1 0x0 PUSH1 0x10 DUP2 LT PUSH2 0x2763 JUMPI INVALID JUMPDEST PUSH1 0x20 MUL ADD MLOAD DUP10 PUSH1 0x1 PUSH1 0x10 DUP2 LT PUSH2 0x2775 JUMPI INVALID JUMPDEST PUSH1 0x20 MUL ADD MLOAD PUSH2 0xCDA JUMP JUMPDEST PUSH2 0x27B4 DUP5 PUSH1 0x1 PUSH1 0x5 PUSH1 0x9 PUSH1 0xD DUP9 PUSH1 0x2 PUSH1 0x10 DUP2 LT PUSH2 0x2798 JUMPI INVALID JUMPDEST PUSH1 0x20 MUL ADD MLOAD DUP10 PUSH1 0x3 PUSH1 0x10 DUP2 LT PUSH2 0x27AA JUMPI INVALID JUMPDEST PUSH1 0x20 MUL ADD MLOAD PUSH2 0xCDA JUMP JUMPDEST PUSH2 0x27E9 DUP5 PUSH1 0x2 PUSH1 0x6 PUSH1 0xA PUSH1 0xE DUP9 PUSH1 0x4 PUSH1 0x10 DUP2 LT PUSH2 0x27CD JUMPI INVALID JUMPDEST PUSH1 0x20 MUL ADD MLOAD DUP10 PUSH1 0x5 PUSH1 0x10 DUP2 LT PUSH2 0x27DF JUMPI INVALID JUMPDEST PUSH1 0x20 MUL ADD MLOAD PUSH2 0xCDA JUMP JUMPDEST PUSH2 0x281E DUP5 PUSH1 0x3 PUSH1 0x7 PUSH1 0xB PUSH1 0xF DUP9 PUSH1 0x6 PUSH1 0x10 DUP2 LT PUSH2 0x2802 JUMPI INVALID JUMPDEST PUSH1 0x20 MUL ADD MLOAD DUP10 PUSH1 0x7 PUSH1 0x10 DUP2 LT PUSH2 0x2814 JUMPI INVALID JUMPDEST PUSH1 0x20 MUL ADD MLOAD PUSH2 0xCDA JUMP JUMPDEST PUSH2 0x2853 DUP5 PUSH1 0x0 PUSH1 0x5 PUSH1 0xA PUSH1 0xF DUP9 PUSH1 0x8 PUSH1 0x10 DUP2 LT PUSH2 0x2837 JUMPI INVALID JUMPDEST PUSH1 0x20 MUL ADD MLOAD DUP10 PUSH1 0x9 PUSH1 0x10 DUP2 LT PUSH2 0x2849 JUMPI INVALID JUMPDEST PUSH1 0x20 MUL ADD MLOAD PUSH2 0xCDA JUMP JUMPDEST PUSH2 0x2888 DUP5 PUSH1 0x1 PUSH1 0x6 PUSH1 0xB PUSH1 0xC DUP9 PUSH1 0xA PUSH1 0x10 DUP2 LT PUSH2 0x286C JUMPI INVALID JUMPDEST PUSH1 0x20 MUL ADD MLOAD DUP10 PUSH1 0xB PUSH1 0x10 DUP2 LT PUSH2 0x287E JUMPI INVALID JUMPDEST PUSH1 0x20 MUL ADD MLOAD PUSH2 0xCDA JUMP JUMPDEST PUSH2 0x28BD DUP5 PUSH1 0x2 PUSH1 0x7 PUSH1 0x8 PUSH1 0xD DUP9 PUSH1 0xC PUSH1 0x10 DUP2 LT PUSH2 0x28A1 JUMPI INVALID JUMPDEST PUSH1 0x20 MUL ADD MLOAD DUP10 PUSH1 0xD PUSH1 0x10 DUP2 LT PUSH2 0x28B3 JUMPI INVALID JUMPDEST PUSH1 0x20 MUL ADD MLOAD PUSH2 0xCDA JUMP JUMPDEST PUSH2 0x28F2 DUP5 PUSH1 0x3 PUSH1 0x4 PUSH1 0x9 PUSH1 0xE DUP9 PUSH1 0xE PUSH1 0x10 DUP2 LT PUSH2 0x28D6 JUMPI INVALID JUMPDEST PUSH1 0x20 MUL ADD MLOAD DUP10 PUSH1 0xF PUSH1 0x10 DUP2 LT PUSH2 0x28E8 JUMPI INVALID JUMPDEST PUSH1 0x20 MUL ADD MLOAD PUSH2 0xCDA JUMP JUMPDEST PUSH2 0x2927 DUP5 PUSH1 0x0 PUSH1 0x4 PUSH1 0x8 PUSH1 0xC DUP9 PUSH1 0xE PUSH1 0x10 DUP2 LT PUSH2 0x290B JUMPI INVALID JUMPDEST PUSH1 0x20 MUL ADD MLOAD DUP10 PUSH1 0xA PUSH1 0x10 DUP2 LT PUSH2 0x291D JUMPI INVALID JUMPDEST PUSH1 0x20 MUL ADD MLOAD PUSH2 0xCDA JUMP JUMPDEST PUSH2 0x295C DUP5 PUSH1 0x1 PUSH1 0x5 PUSH1 0x9 PUSH1 0xD DUP9 PUSH1 0x4 PUSH1 0x10 DUP2 LT PUSH2 0x2940 JUMPI INVALID JUMPDEST PUSH1 0x20 MUL ADD MLOAD DUP10 PUSH1 0x8 PUSH1 0x10 DUP2 LT PUSH2 0x2952 JUMPI INVALID JUMPDEST PUSH1 0x20 MUL ADD MLOAD PUSH2 0xCDA JUMP JUMPDEST PUSH2 0x2991 DUP5 PUSH1 0x2 PUSH1 0x6 PUSH1 0xA PUSH1 0xE DUP9 PUSH1 0x9 PUSH1 0x10 DUP2 LT PUSH2 0x2975 JUMPI INVALID JUMPDEST PUSH1 0x20 MUL ADD MLOAD DUP10 PUSH1 0xF PUSH1 0x10 DUP2 LT PUSH2 0x2987 JUMPI INVALID JUMPDEST PUSH1 0x20 MUL ADD MLOAD PUSH2 0xCDA JUMP JUMPDEST PUSH2 0x29C6 DUP5 PUSH1 0x3 PUSH1 0x7 PUSH1 0xB PUSH1 0xF DUP9 PUSH1 0xD PUSH1 0x10 DUP2 LT PUSH2 0x29AA JUMPI INVALID JUMPDEST PUSH1 0x20 MUL ADD MLOAD DUP10 PUSH1 0x6 PUSH1 0x10 DUP2 LT PUSH2 0x29BC JUMPI INVALID JUMPDEST PUSH1 0x20 MUL ADD MLOAD PUSH2 0xCDA JUMP JUMPDEST PUSH2 0x29FB DUP5 PUSH1 0x0 PUSH1 0x5 PUSH1 0xA PUSH1 0xF DUP9 PUSH1 0x1 PUSH1 0x10 DUP2 LT PUSH2 0x29DF JUMPI INVALID JUMPDEST PUSH1 0x20 MUL ADD MLOAD DUP10 PUSH1 0xC PUSH1 0x10 DUP2 LT PUSH2 0x29F1 JUMPI INVALID JUMPDEST PUSH1 0x20 MUL ADD MLOAD PUSH2 0xCDA JUMP JUMPDEST PUSH2 0x2A30 DUP5 PUSH1 0x1 PUSH1 0x6 PUSH1 0xB PUSH1 0xC DUP9 PUSH1 0x0 PUSH1 0x10 DUP2 LT PUSH2 0x2A14 JUMPI INVALID JUMPDEST PUSH1 0x20 MUL ADD MLOAD DUP10 PUSH1 0x2 PUSH1 0x10 DUP2 LT PUSH2 0x2A26 JUMPI INVALID JUMPDEST PUSH1 0x20 MUL ADD MLOAD PUSH2 0xCDA JUMP JUMPDEST PUSH2 0x2A65 DUP5 PUSH1 0x2 PUSH1 0x7 PUSH1 0x8 PUSH1 0xD DUP9 PUSH1 0xB PUSH1 0x10 DUP2 LT PUSH2 0x2A49 JUMPI INVALID JUMPDEST PUSH1 0x20 MUL ADD MLOAD DUP10 PUSH1 0x7 PUSH1 0x10 DUP2 LT PUSH2 0x2A5B JUMPI INVALID JUMPDEST PUSH1 0x20 MUL ADD MLOAD PUSH2 0xCDA JUMP JUMPDEST PUSH2 0x2A9A DUP5 PUSH1 0x3 PUSH1 0x4 PUSH1 0x9 PUSH1 0xE DUP9 PUSH1 0x5 PUSH1 0x10 DUP2 LT PUSH2 0x2A7E JUMPI INVALID JUMPDEST PUSH1 0x20 MUL ADD MLOAD DUP10 PUSH1 0x3 PUSH1 0x10 DUP2 LT PUSH2 0x2A90 JUMPI INVALID JUMPDEST PUSH1 0x20 MUL ADD MLOAD PUSH2 0xCDA JUMP JUMPDEST PUSH1 0x0 JUMPDEST PUSH1 0x8 DUP2 LT ISZERO PUSH2 0x2B1C JUMPI DUP5 PUSH1 0x8 DUP3 ADD PUSH1 0x10 DUP2 LT PUSH2 0x2AB5 JUMPI INVALID JUMPDEST PUSH1 0x20 MUL ADD MLOAD DUP6 DUP3 PUSH1 0x10 DUP2 LT PUSH2 0x2AC6 JUMPI INVALID JUMPDEST PUSH1 0x20 MUL ADD MLOAD DUP9 PUSH1 0x20 ADD MLOAD DUP4 PUSH1 0x8 DUP2 LT PUSH2 0x2ADB JUMPI INVALID JUMPDEST PUSH1 0x20 MUL ADD MLOAD XOR XOR DUP8 PUSH1 0x20 ADD MLOAD DUP3 PUSH1 0x8 DUP2 LT PUSH2 0x2AF2 JUMPI INVALID JUMPDEST PUSH1 0x20 MUL ADD SWAP1 PUSH8 0xFFFFFFFFFFFFFFFF AND SWAP1 DUP2 PUSH8 0xFFFFFFFFFFFFFFFF AND DUP2 MSTORE POP POP DUP1 PUSH1 0x1 ADD SWAP1 POP PUSH2 0x2A9D JUMP JUMPDEST POP POP POP POP POP POP POP JUMP JUMPDEST PUSH1 0x40 MLOAD DUP1 PUSH2 0x100 ADD PUSH1 0x40 MSTORE DUP1 PUSH1 0x8 SWAP1 PUSH1 0x20 DUP3 MUL DUP1 CALLDATASIZE DUP4 CALLDATACOPY DUP1 DUP3 ADD SWAP2 POP POP SWAP1 POP POP SWAP1 JUMP JUMPDEST PUSH1 0x40 MLOAD DUP1 PUSH1 0xA0 ADD PUSH1 0x40 MSTORE DUP1 PUSH2 0x2B5B PUSH2 0x2BE3 JUMP JUMPDEST DUP2 MSTORE PUSH1 0x20 ADD PUSH2 0x2B68 PUSH2 0x2B25 JUMP JUMPDEST DUP2 MSTORE PUSH1 0x20 ADD PUSH1 0x0 PUSH16 0xFFFFFFFFFFFFFFFFFFFFFFFFFFFFFFFF AND DUP2 MSTORE PUSH1 0x20 ADD PUSH1 0x0 PUSH8 0xFFFFFFFFFFFFFFFF AND DUP2 MSTORE PUSH1 0x20 ADD PUSH1 0x0 DUP2 MSTORE POP SWAP1 JUMP JUMPDEST PUSH1 0x40 MLOAD DUP1 PUSH1 0x40 ADD PUSH1 0x40 MSTORE DUP1 PUSH1 0x2 SWAP1 PUSH1 0x20 DUP3 MUL DUP1 CALLDATASIZE DUP4 CALLDATACOPY DUP1 DUP3 ADD SWAP2 POP POP SWAP1 POP POP SWAP1 JUMP JUMPDEST PUSH1 0x40 MLOAD DUP1 PUSH1 0x40 ADD PUSH1 0x40 MSTORE DUP1 PUSH1 0x2 SWAP1 PUSH1 0x20 DUP3 MUL DUP1 CALLDATASIZE DUP4 CALLDATACOPY DUP1 DUP3 ADD SWAP2 POP POP SWAP1 POP POP SWAP1 JUMP JUMPDEST PUSH1 0x40 MLOAD DUP1 PUSH1 0x80 ADD PUSH1 0x40 MSTORE DUP1 PUSH1 0x4 SWAP1 PUSH1 0x20 DUP3 MUL DUP1 CALLDATASIZE DUP4 CALLDATACOPY DUP1 DUP3 ADD SWAP2 POP POP SWAP1 POP POP SWAP1 JUMP JUMPDEST PUSH1 0x40 MLOAD DUP1 PUSH2 0x200 ADD PUSH1 0x40 MSTORE DUP1 PUSH1 0x10 SWAP1 PUSH1 0x20 DUP3 MUL DUP1 CALLDATASIZE DUP4 CALLDATACOPY DUP1 DUP3 ADD SWAP2 POP POP SWAP1 POP POP SWAP1 JUMP INVALID 0x4F PUSH22 0x746C656E206D75737420626520677265617465722074 PUSH9 0x616E203020616E6420 PUSH13 0x657373207468616E203634A264 PUSH10 0x70667358221220FE109A ORIGIN LOG0 0xC 0xAA 0x29 0xA9 ADD PUSH4 0x56C07C1D 0xD5 DUP13 0x2B 0x4B 0xD0 CHAINID DIFFICULTY SELFBALANCE MOD PUSH20 0x6B2BFF1FA601A664736F6C634300060C00330000 "
		},
		"gasEstimates": {
			"creation": {
				"codeDepositCost": "1264600",
				"executionCost": "infinite",
				"totalCost": "infinite"
			},
			"external": {
				"bytesToBytes32(bytes)": "infinite",
				"checkHashInRoot(bytes32,bytes32,uint256,bytes32[])": "infinite",
				"create64Hash(bytes,bytes)": "infinite",
				"createHash(bytes,bytes)": "infinite",
				"createHash(bytes,bytes,bool)": "infinite",
				"predictedRootHash(bytes32,uint256,bytes32[])": "infinite",
				"reverseBytes(bytes32)": "infinite"
			}
		},
		"methodIdentifiers": {
			"bytesToBytes32(bytes)": "bfe370d9",
			"checkHashInRoot(bytes32,bytes32,uint256,bytes32[])": "82577c56",
			"create64Hash(bytes,bytes)": "c984bae8",
			"createHash(bytes,bytes)": "fe5320bf",
			"createHash(bytes,bytes,bool)": "95c12f53",
			"predictedRootHash(bytes32,uint256,bytes32[])": "0a01b9b0",
			"reverseBytes(bytes32)": "2f0da104"
		}
	},
	"abi": [
		{
			"inputs": [],
			"stateMutability": "nonpayable",
			"type": "constructor"
		},
		{
			"anonymous": false,
			"inputs": [
				{
					"indexed": false,
					"internalType": "bytes32",
					"name": "newHash",
					"type": "bytes32"
				},
				{
					"indexed": false,
					"internalType": "uint8",
					"name": "eventType",
					"type": "uint8"
				}
			],
			"name": "HashEvent",
			"type": "event"
		},
		{
			"anonymous": false,
			"inputs": [
				{
					"indexed": false,
					"internalType": "bytes",
					"name": "joinedValue",
					"type": "bytes"
				},
				{
					"indexed": false,
					"internalType": "uint8",
					"name": "eventType",
					"type": "uint8"
				}
			],
			"name": "JoinEvent",
			"type": "event"
		},
		{
			"inputs": [
				{
					"internalType": "bytes",
					"name": "source",
					"type": "bytes"
				}
			],
			"name": "bytesToBytes32",
			"outputs": [
				{
					"internalType": "bytes32",
					"name": "result",
					"type": "bytes32"
				}
			],
			"stateMutability": "pure",
			"type": "function"
		},
		{
			"inputs": [
				{
					"internalType": "bytes32",
					"name": "_mmrRoot",
					"type": "bytes32"
				},
				{
					"internalType": "bytes32",
					"name": "_hashToCheck",
					"type": "bytes32"
				},
				{
					"internalType": "uint256",
					"name": "_hashIndex",
					"type": "uint256"
				},
				{
					"internalType": "bytes32[]",
					"name": "_branch",
					"type": "bytes32[]"
				}
			],
			"name": "checkHashInRoot",
			"outputs": [
				{
					"internalType": "bool",
					"name": "",
					"type": "bool"
				}
			],
			"stateMutability": "nonpayable",
			"type": "function"
		},
		{
			"inputs": [
				{
					"internalType": "bytes",
					"name": "testString",
					"type": "bytes"
				},
				{
					"internalType": "bytes",
					"name": "key",
					"type": "bytes"
				}
			],
			"name": "create64Hash",
			"outputs": [
				{
					"internalType": "bytes",
					"name": "",
					"type": "bytes"
				}
			],
			"stateMutability": "nonpayable",
			"type": "function"
		},
		{
			"inputs": [
				{
					"internalType": "bytes",
					"name": "toHash",
					"type": "bytes"
				},
				{
					"internalType": "bytes",
					"name": "personalisation",
					"type": "bytes"
				},
				{
					"internalType": "bool",
					"name": "flipped",
					"type": "bool"
				}
			],
			"name": "createHash",
			"outputs": [
				{
					"internalType": "bytes32",
					"name": "",
					"type": "bytes32"
				}
			],
			"stateMutability": "nonpayable",
			"type": "function"
		},
		{
			"inputs": [
				{
					"internalType": "bytes",
					"name": "toHash",
					"type": "bytes"
				},
				{
					"internalType": "bytes",
					"name": "personalisation",
					"type": "bytes"
				}
			],
			"name": "createHash",
			"outputs": [
				{
					"internalType": "bytes32",
					"name": "",
					"type": "bytes32"
				}
			],
			"stateMutability": "nonpayable",
			"type": "function"
		},
		{
			"inputs": [
				{
					"internalType": "bytes32",
					"name": "_hashToCheck",
					"type": "bytes32"
				},
				{
					"internalType": "uint256",
					"name": "_hashIndex",
					"type": "uint256"
				},
				{
					"internalType": "bytes32[]",
					"name": "_branch",
					"type": "bytes32[]"
				}
			],
			"name": "predictedRootHash",
			"outputs": [
				{
					"internalType": "bytes32",
					"name": "",
					"type": "bytes32"
				}
			],
			"stateMutability": "nonpayable",
			"type": "function"
		},
		{
			"inputs": [
				{
					"internalType": "bytes32",
					"name": "_bytes32",
					"type": "bytes32"
				}
			],
			"name": "reverseBytes",
			"outputs": [
				{
					"internalType": "bytes32",
					"name": "",
					"type": "bytes32"
				}
			],
			"stateMutability": "pure",
			"type": "function"
		}
	]
}