{
	"data": {
		"bytecode": {
			"linkReferences": {},
			"object": "608060405234801561001057600080fd5b5061074e806100206000396000f3fe608060405234801561001057600080fd5b506004361061002b5760003560e01c80632f000b6c14610030575b600080fd5b61004a6004803603810190610045919061055c565b610060565b60405161005791906105ac565b60405180910390f35b60008061007d6040518060200160405280600081525060206100a4565b905061009c61009584836100bd90919063ffffffff16565b60006101fd565b915050919050565b6100ac6104d3565b6100b7818484610272565b92915050565b606060008251905060008114806100df57506000608082816100db57fe5b0614155b156101485761014583608083816100f257fe5b0660800367ffffffffffffffff8111801561010c57600080fd5b506040519080825280601f01601f19166020018201604052801561013f5781602001600182028036833780820191505090505b50610306565b92505b6000608084518161015557fe5b061461015d57fe5b61016a8484836001610390565b600084600001519050846020015167ffffffffffffffff8111801561018e57600080fd5b506040519080825280601f01601f1916602001820160405280156101c15781602001600182028036833780820191505090505b5092506020856020015114156101e057602481015160208401526101f5565b60248101516020840152604481015160408401525b505092915050565b60008060005b6020811015610267576008810260ff60f81b8683601f0387018151811061022657fe5b602001015160f81c60f81b167effffffffffffffffffffffffffffffffffffffffffffffffffffffffffffff1916901c821791508080600101915050610203565b508091505092915050565b80836020018181525050600083604001818152505060405180610100016040528060d5815260200161064460d5913983600001819052506000836000015190506000835190506024820180518460f81b8360f01b17808218915081835250505060008111156102ff57604081146102e857600080fd5b60808451146102f357fe5b6102fe85858361047f565b5b5050505050565b6060806040519050835180825260208201818101602087015b8183101561033c578051835260208301925060208101905061031f565b50855192508351830184528091508282019050602086015b818310156103715780518352602083019250602081019050610354565b50601f19601f8851850115830101166040525050508091505092915050565b600084600001519050600085604001519050600060648301905060006020870190506000875190505b600081111561046a576080811061042657815183526020820191508151602084015260208201915081516040840152602082019150815160608401526020820191506080810390506080871015610414578684019350610421565b6080870396506080840193505b61042b565b600080fd5b60ff841660e486015360ff8460081c1660e586015360ff8460101c1660e6860153600081141561045c578560f48601535b610465896104a9565b6103b9565b83896040018181525050505050505050505050565b6000608083518161048c57fe5b061461049757600080fd5b6104a48383836000610390565b505050565b6000816000015190506020810160406004820160d5836009600019fa6104ce57600080fd5b505050565b60405180606001604052806060815260200160008152602001600081525090565b6000610507610502846105f8565b6105c7565b90508281526020810184848401111561051f57600080fd5b61052a848285610632565b509392505050565b600082601f83011261054357600080fd5b81356105538482602086016104f4565b91505092915050565b60006020828403121561056e57600080fd5b600082013567ffffffffffffffff81111561058857600080fd5b61059484828501610532565b91505092915050565b6105a681610628565b82525050565b60006020820190506105c1600083018461059d565b92915050565b6000604051905081810181811067ffffffffffffffff821117156105ee576105ed610641565b5b8060405250919050565b600067ffffffffffffffff82111561061357610612610641565b5b601f19601f8301169050602081019050919050565b6000819050919050565b82818337600083830152505050565bfefe0000000c08c9bdf267e6096a3ba7ca8485ae67bb2bf894fe72f36e3cf1361d5f3af54fa5d182e6ad7f520e511f6c3e2b8c68059b3dd8338ed89de6791854126751ac933300000000000000000000000000000000000000000000000000000000000000000000000000000000000000000000000000000000000000000000000000000000000000000000000000000000000000000000000000000000000000000000000000000000000000000000000000000000000000000000000000000000000000000000000000000000000000000000000000a264697066735822122023ef4480eb9e39199a3defc09e544b01875660a465ebca76ebf7e188d009380164736f6c63430007060033",
			"opcodes": "PUSH1 0x80 PUSH1 0x40 MSTORE CALLVALUE DUP1 ISZERO PUSH2 0x10 JUMPI PUSH1 0x0 DUP1 REVERT JUMPDEST POP PUSH2 0x74E DUP1 PUSH2 0x20 PUSH1 0x0 CODECOPY PUSH1 0x0 RETURN INVALID PUSH1 0x80 PUSH1 0x40 MSTORE CALLVALUE DUP1 ISZERO PUSH2 0x10 JUMPI PUSH1 0x0 DUP1 REVERT JUMPDEST POP PUSH1 0x4 CALLDATASIZE LT PUSH2 0x2B JUMPI PUSH1 0x0 CALLDATALOAD PUSH1 0xE0 SHR DUP1 PUSH4 0x2F000B6C EQ PUSH2 0x30 JUMPI JUMPDEST PUSH1 0x0 DUP1 REVERT JUMPDEST PUSH2 0x4A PUSH1 0x4 DUP1 CALLDATASIZE SUB DUP2 ADD SWAP1 PUSH2 0x45 SWAP2 SWAP1 PUSH2 0x55C JUMP JUMPDEST PUSH2 0x60 JUMP JUMPDEST PUSH1 0x40 MLOAD PUSH2 0x57 SWAP2 SWAP1 PUSH2 0x5AC JUMP JUMPDEST PUSH1 0x40 MLOAD DUP1 SWAP2 SUB SWAP1 RETURN JUMPDEST PUSH1 0x0 DUP1 PUSH2 0x7D PUSH1 0x40 MLOAD DUP1 PUSH1 0x20 ADD PUSH1 0x40 MSTORE DUP1 PUSH1 0x0 DUP2 MSTORE POP PUSH1 0x20 PUSH2 0xA4 JUMP JUMPDEST SWAP1 POP PUSH2 0x9C PUSH2 0x95 DUP5 DUP4 PUSH2 0xBD SWAP1 SWAP2 SWAP1 PUSH4 0xFFFFFFFF AND JUMP JUMPDEST PUSH1 0x0 PUSH2 0x1FD JUMP JUMPDEST SWAP2 POP POP SWAP2 SWAP1 POP JUMP JUMPDEST PUSH2 0xAC PUSH2 0x4D3 JUMP JUMPDEST PUSH2 0xB7 DUP2 DUP5 DUP5 PUSH2 0x272 JUMP JUMPDEST SWAP3 SWAP2 POP POP JUMP JUMPDEST PUSH1 0x60 PUSH1 0x0 DUP3 MLOAD SWAP1 POP PUSH1 0x0 DUP2 EQ DUP1 PUSH2 0xDF JUMPI POP PUSH1 0x0 PUSH1 0x80 DUP3 DUP2 PUSH2 0xDB JUMPI INVALID JUMPDEST MOD EQ ISZERO JUMPDEST ISZERO PUSH2 0x148 JUMPI PUSH2 0x145 DUP4 PUSH1 0x80 DUP4 DUP2 PUSH2 0xF2 JUMPI INVALID JUMPDEST MOD PUSH1 0x80 SUB PUSH8 0xFFFFFFFFFFFFFFFF DUP2 GT DUP1 ISZERO PUSH2 0x10C JUMPI PUSH1 0x0 DUP1 REVERT JUMPDEST POP PUSH1 0x40 MLOAD SWAP1 DUP1 DUP3 MSTORE DUP1 PUSH1 0x1F ADD PUSH1 0x1F NOT AND PUSH1 0x20 ADD DUP3 ADD PUSH1 0x40 MSTORE DUP1 ISZERO PUSH2 0x13F JUMPI DUP2 PUSH1 0x20 ADD PUSH1 0x1 DUP3 MUL DUP1 CALLDATASIZE DUP4 CALLDATACOPY DUP1 DUP3 ADD SWAP2 POP POP SWAP1 POP JUMPDEST POP PUSH2 0x306 JUMP JUMPDEST SWAP3 POP JUMPDEST PUSH1 0x0 PUSH1 0x80 DUP5 MLOAD DUP2 PUSH2 0x155 JUMPI INVALID JUMPDEST MOD EQ PUSH2 0x15D JUMPI INVALID JUMPDEST PUSH2 0x16A DUP5 DUP5 DUP4 PUSH1 0x1 PUSH2 0x390 JUMP JUMPDEST PUSH1 0x0 DUP5 PUSH1 0x0 ADD MLOAD SWAP1 POP DUP5 PUSH1 0x20 ADD MLOAD PUSH8 0xFFFFFFFFFFFFFFFF DUP2 GT DUP1 ISZERO PUSH2 0x18E JUMPI PUSH1 0x0 DUP1 REVERT JUMPDEST POP PUSH1 0x40 MLOAD SWAP1 DUP1 DUP3 MSTORE DUP1 PUSH1 0x1F ADD PUSH1 0x1F NOT AND PUSH1 0x20 ADD DUP3 ADD PUSH1 0x40 MSTORE DUP1 ISZERO PUSH2 0x1C1 JUMPI DUP2 PUSH1 0x20 ADD PUSH1 0x1 DUP3 MUL DUP1 CALLDATASIZE DUP4 CALLDATACOPY DUP1 DUP3 ADD SWAP2 POP POP SWAP1 POP JUMPDEST POP SWAP3 POP PUSH1 0x20 DUP6 PUSH1 0x20 ADD MLOAD EQ ISZERO PUSH2 0x1E0 JUMPI PUSH1 0x24 DUP2 ADD MLOAD PUSH1 0x20 DUP5 ADD MSTORE PUSH2 0x1F5 JUMP JUMPDEST PUSH1 0x24 DUP2 ADD MLOAD PUSH1 0x20 DUP5 ADD MSTORE PUSH1 0x44 DUP2 ADD MLOAD PUSH1 0x40 DUP5 ADD MSTORE JUMPDEST POP POP SWAP3 SWAP2 POP POP JUMP JUMPDEST PUSH1 0x0 DUP1 PUSH1 0x0 JUMPDEST PUSH1 0x20 DUP2 LT ISZERO PUSH2 0x267 JUMPI PUSH1 0x8 DUP2 MUL PUSH1 0xFF PUSH1 0xF8 SHL DUP7 DUP4 PUSH1 0x1F SUB DUP8 ADD DUP2 MLOAD DUP2 LT PUSH2 0x226 JUMPI INVALID JUMPDEST PUSH1 0x20 ADD ADD MLOAD PUSH1 0xF8 SHR PUSH1 0xF8 SHL AND PUSH31 0xFFFFFFFFFFFFFFFFFFFFFFFFFFFFFFFFFFFFFFFFFFFFFFFFFFFFFFFFFFFFFF NOT AND SWAP1 SHR DUP3 OR SWAP2 POP DUP1 DUP1 PUSH1 0x1 ADD SWAP2 POP POP PUSH2 0x203 JUMP JUMPDEST POP DUP1 SWAP2 POP POP SWAP3 SWAP2 POP POP JUMP JUMPDEST DUP1 DUP4 PUSH1 0x20 ADD DUP2 DUP2 MSTORE POP POP PUSH1 0x0 DUP4 PUSH1 0x40 ADD DUP2 DUP2 MSTORE POP POP PUSH1 0x40 MLOAD DUP1 PUSH2 0x100 ADD PUSH1 0x40 MSTORE DUP1 PUSH1 0xD5 DUP2 MSTORE PUSH1 0x20 ADD PUSH2 0x644 PUSH1 0xD5 SWAP2 CODECOPY DUP4 PUSH1 0x0 ADD DUP2 SWAP1 MSTORE POP PUSH1 0x0 DUP4 PUSH1 0x0 ADD MLOAD SWAP1 POP PUSH1 0x0 DUP4 MLOAD SWAP1 POP PUSH1 0x24 DUP3 ADD DUP1 MLOAD DUP5 PUSH1 0xF8 SHL DUP4 PUSH1 0xF0 SHL OR DUP1 DUP3 XOR SWAP2 POP DUP2 DUP4 MSTORE POP POP POP PUSH1 0x0 DUP2 GT ISZERO PUSH2 0x2FF JUMPI PUSH1 0x40 DUP2 EQ PUSH2 0x2E8 JUMPI PUSH1 0x0 DUP1 REVERT JUMPDEST PUSH1 0x80 DUP5 MLOAD EQ PUSH2 0x2F3 JUMPI INVALID JUMPDEST PUSH2 0x2FE DUP6 DUP6 DUP4 PUSH2 0x47F JUMP JUMPDEST JUMPDEST POP POP POP POP POP JUMP JUMPDEST PUSH1 0x60 DUP1 PUSH1 0x40 MLOAD SWAP1 POP DUP4 MLOAD DUP1 DUP3 MSTORE PUSH1 0x20 DUP3 ADD DUP2 DUP2 ADD PUSH1 0x20 DUP8 ADD JUMPDEST DUP2 DUP4 LT ISZERO PUSH2 0x33C JUMPI DUP1 MLOAD DUP4 MSTORE PUSH1 0x20 DUP4 ADD SWAP3 POP PUSH1 0x20 DUP2 ADD SWAP1 POP PUSH2 0x31F JUMP JUMPDEST POP DUP6 MLOAD SWAP3 POP DUP4 MLOAD DUP4 ADD DUP5 MSTORE DUP1 SWAP2 POP DUP3 DUP3 ADD SWAP1 POP PUSH1 0x20 DUP7 ADD JUMPDEST DUP2 DUP4 LT ISZERO PUSH2 0x371 JUMPI DUP1 MLOAD DUP4 MSTORE PUSH1 0x20 DUP4 ADD SWAP3 POP PUSH1 0x20 DUP2 ADD SWAP1 POP PUSH2 0x354 JUMP JUMPDEST POP PUSH1 0x1F NOT PUSH1 0x1F DUP9 MLOAD DUP6 ADD ISZERO DUP4 ADD ADD AND PUSH1 0x40 MSTORE POP POP POP DUP1 SWAP2 POP POP SWAP3 SWAP2 POP POP JUMP JUMPDEST PUSH1 0x0 DUP5 PUSH1 0x0 ADD MLOAD SWAP1 POP PUSH1 0x0 DUP6 PUSH1 0x40 ADD MLOAD SWAP1 POP PUSH1 0x0 PUSH1 0x64 DUP4 ADD SWAP1 POP PUSH1 0x0 PUSH1 0x20 DUP8 ADD SWAP1 POP PUSH1 0x0 DUP8 MLOAD SWAP1 POP JUMPDEST PUSH1 0x0 DUP2 GT ISZERO PUSH2 0x46A JUMPI PUSH1 0x80 DUP2 LT PUSH2 0x426 JUMPI DUP2 MLOAD DUP4 MSTORE PUSH1 0x20 DUP3 ADD SWAP2 POP DUP2 MLOAD PUSH1 0x20 DUP5 ADD MSTORE PUSH1 0x20 DUP3 ADD SWAP2 POP DUP2 MLOAD PUSH1 0x40 DUP5 ADD MSTORE PUSH1 0x20 DUP3 ADD SWAP2 POP DUP2 MLOAD PUSH1 0x60 DUP5 ADD MSTORE PUSH1 0x20 DUP3 ADD SWAP2 POP PUSH1 0x80 DUP2 SUB SWAP1 POP PUSH1 0x80 DUP8 LT ISZERO PUSH2 0x414 JUMPI DUP7 DUP5 ADD SWAP4 POP PUSH2 0x421 JUMP JUMPDEST PUSH1 0x80 DUP8 SUB SWAP7 POP PUSH1 0x80 DUP5 ADD SWAP4 POP JUMPDEST PUSH2 0x42B JUMP JUMPDEST PUSH1 0x0 DUP1 REVERT JUMPDEST PUSH1 0xFF DUP5 AND PUSH1 0xE4 DUP7 ADD MSTORE8 PUSH1 0xFF DUP5 PUSH1 0x8 SHR AND PUSH1 0xE5 DUP7 ADD MSTORE8 PUSH1 0xFF DUP5 PUSH1 0x10 SHR AND PUSH1 0xE6 DUP7 ADD MSTORE8 PUSH1 0x0 DUP2 EQ ISZERO PUSH2 0x45C JUMPI DUP6 PUSH1 0xF4 DUP7 ADD MSTORE8 JUMPDEST PUSH2 0x465 DUP10 PUSH2 0x4A9 JUMP JUMPDEST PUSH2 0x3B9 JUMP JUMPDEST DUP4 DUP10 PUSH1 0x40 ADD DUP2 DUP2 MSTORE POP POP POP POP POP POP POP POP POP POP POP JUMP JUMPDEST PUSH1 0x0 PUSH1 0x80 DUP4 MLOAD DUP2 PUSH2 0x48C JUMPI INVALID JUMPDEST MOD EQ PUSH2 0x497 JUMPI PUSH1 0x0 DUP1 REVERT JUMPDEST PUSH2 0x4A4 DUP4 DUP4 DUP4 PUSH1 0x0 PUSH2 0x390 JUMP JUMPDEST POP POP POP JUMP JUMPDEST PUSH1 0x0 DUP2 PUSH1 0x0 ADD MLOAD SWAP1 POP PUSH1 0x20 DUP2 ADD PUSH1 0x40 PUSH1 0x4 DUP3 ADD PUSH1 0xD5 DUP4 PUSH1 0x9 PUSH1 0x0 NOT STATICCALL PUSH2 0x4CE JUMPI PUSH1 0x0 DUP1 REVERT JUMPDEST POP POP POP JUMP JUMPDEST PUSH1 0x40 MLOAD DUP1 PUSH1 0x60 ADD PUSH1 0x40 MSTORE DUP1 PUSH1 0x60 DUP2 MSTORE PUSH1 0x20 ADD PUSH1 0x0 DUP2 MSTORE PUSH1 0x20 ADD PUSH1 0x0 DUP2 MSTORE POP SWAP1 JUMP JUMPDEST PUSH1 0x0 PUSH2 0x507 PUSH2 0x502 DUP5 PUSH2 0x5F8 JUMP JUMPDEST PUSH2 0x5C7 JUMP JUMPDEST SWAP1 POP DUP3 DUP2 MSTORE PUSH1 0x20 DUP2 ADD DUP5 DUP5 DUP5 ADD GT ISZERO PUSH2 0x51F JUMPI PUSH1 0x0 DUP1 REVERT JUMPDEST PUSH2 0x52A DUP5 DUP3 DUP6 PUSH2 0x632 JUMP JUMPDEST POP SWAP4 SWAP3 POP POP POP JUMP JUMPDEST PUSH1 0x0 DUP3 PUSH1 0x1F DUP4 ADD SLT PUSH2 0x543 JUMPI PUSH1 0x0 DUP1 REVERT JUMPDEST DUP2 CALLDATALOAD PUSH2 0x553 DUP5 DUP3 PUSH1 0x20 DUP7 ADD PUSH2 0x4F4 JUMP JUMPDEST SWAP2 POP POP SWAP3 SWAP2 POP POP JUMP JUMPDEST PUSH1 0x0 PUSH1 0x20 DUP3 DUP5 SUB SLT ISZERO PUSH2 0x56E JUMPI PUSH1 0x0 DUP1 REVERT JUMPDEST PUSH1 0x0 DUP3 ADD CALLDATALOAD PUSH8 0xFFFFFFFFFFFFFFFF DUP2 GT ISZERO PUSH2 0x588 JUMPI PUSH1 0x0 DUP1 REVERT JUMPDEST PUSH2 0x594 DUP5 DUP3 DUP6 ADD PUSH2 0x532 JUMP JUMPDEST SWAP2 POP POP SWAP3 SWAP2 POP POP JUMP JUMPDEST PUSH2 0x5A6 DUP2 PUSH2 0x628 JUMP JUMPDEST DUP3 MSTORE POP POP JUMP JUMPDEST PUSH1 0x0 PUSH1 0x20 DUP3 ADD SWAP1 POP PUSH2 0x5C1 PUSH1 0x0 DUP4 ADD DUP5 PUSH2 0x59D JUMP JUMPDEST SWAP3 SWAP2 POP POP JUMP JUMPDEST PUSH1 0x0 PUSH1 0x40 MLOAD SWAP1 POP DUP2 DUP2 ADD DUP2 DUP2 LT PUSH8 0xFFFFFFFFFFFFFFFF DUP3 GT OR ISZERO PUSH2 0x5EE JUMPI PUSH2 0x5ED PUSH2 0x641 JUMP JUMPDEST JUMPDEST DUP1 PUSH1 0x40 MSTORE POP SWAP2 SWAP1 POP JUMP JUMPDEST PUSH1 0x0 PUSH8 0xFFFFFFFFFFFFFFFF DUP3 GT ISZERO PUSH2 0x613 JUMPI PUSH2 0x612 PUSH2 0x641 JUMP JUMPDEST JUMPDEST PUSH1 0x1F NOT PUSH1 0x1F DUP4 ADD AND SWAP1 POP PUSH1 0x20 DUP2 ADD SWAP1 POP SWAP2 SWAP1 POP JUMP JUMPDEST PUSH1 0x0 DUP2 SWAP1 POP SWAP2 SWAP1 POP JUMP JUMPDEST DUP3 DUP2 DUP4 CALLDATACOPY PUSH1 0x0 DUP4 DUP4 ADD MSTORE POP POP POP JUMP JUMPDEST INVALID INVALID STOP STOP STOP 0xC ADDMOD 0xC9 0xBD CALLCODE PUSH8 0xE6096A3BA7CA8485 0xAE PUSH8 0xBB2BF894FE72F36E EXTCODECOPY CALL CALLDATASIZE SAR 0x5F GASPRICE CREATE2 0x4F 0xA5 0xD1 DUP3 0xE6 0xAD PUSH32 0x520E511F6C3E2B8C68059B3DD8338ED89DE6791854126751AC93330000000000 STOP STOP STOP STOP STOP STOP STOP STOP STOP STOP STOP STOP STOP STOP STOP STOP STOP STOP STOP STOP STOP STOP STOP STOP STOP STOP STOP STOP STOP STOP STOP STOP STOP STOP STOP STOP STOP STOP STOP STOP STOP STOP STOP STOP STOP STOP STOP STOP STOP STOP STOP STOP STOP STOP STOP STOP STOP STOP STOP STOP STOP STOP STOP STOP STOP STOP STOP STOP STOP STOP STOP STOP STOP STOP STOP STOP STOP STOP STOP STOP STOP STOP STOP STOP STOP STOP STOP STOP STOP STOP STOP STOP STOP STOP STOP STOP STOP STOP STOP STOP STOP STOP STOP STOP STOP STOP STOP STOP STOP STOP STOP STOP STOP STOP STOP STOP STOP STOP STOP STOP STOP STOP STOP STOP STOP STOP STOP STOP STOP STOP STOP STOP STOP STOP STOP STOP STOP STOP STOP STOP LOG2 PUSH5 0x6970667358 0x22 SLT KECCAK256 0x23 0xEF DIFFICULTY DUP1 0xEB SWAP15 CODECOPY NOT SWAP11 RETURNDATASIZE 0xEF 0xC0 SWAP15 SLOAD 0x4B ADD DUP8 JUMP PUSH1 0xA4 PUSH6 0xEBCA76EBF7E1 DUP9 0xD0 MULMOD CODESIZE ADD PUSH5 0x736F6C6343 STOP SMOD MOD STOP CALLER "
		},
		"gasEstimates": {
			"creation": {
				"codeDepositCost": "374000",
				"executionCost": "411",
				"totalCost": "374411"
			},
			"external": {
				"blake2b(bytes)": "infinite"
			},
			"internal": {
				"bytesToBytes32(bytes memory,uint256)": "infinite"
			}
		},
		"methodIdentifiers": {
			"blake2b(bytes)": "2f000b6c"
		}
	},
	"abi": [
		{
			"inputs": [
				{
					"internalType": "bytes",
					"name": "input",
					"type": "bytes"
				}
			],
			"name": "blake2b",
			"outputs": [
				{
					"internalType": "bytes32",
					"name": "",
					"type": "bytes32"
				}
			],
			"stateMutability": "view",
			"type": "function"
		}
	]
}