{
	"data": {
		"bytecode": {
			"linkReferences": {
				"contracts/MMR/VerusBlake2b.sol": {
					"VerusBlake2b": [
						{
							"length": 20,
							"start": 5374
						},
						{
							"length": 20,
							"start": 10242
						},
						{
							"length": 20,
							"start": 10549
						}
					]
				},
				"contracts/MMR/VerusMMR.sol": {
					"VerusMMR": [
						{
							"length": 20,
							"start": 4952
						}
					]
				}
			},
			"object": "60e06040523480156200001157600080fd5b5060405162004d8d38038062004d8d833981810160405281019062000037919062000146565b8273ffffffffffffffffffffffffffffffffffffffff1660808173ffffffffffffffffffffffffffffffffffffffff16815250508173ffffffffffffffffffffffffffffffffffffffff1660a08173ffffffffffffffffffffffffffffffffffffffff16815250508073ffffffffffffffffffffffffffffffffffffffff1660c08173ffffffffffffffffffffffffffffffffffffffff1681525050505050620001a2565b600080fd5b600073ffffffffffffffffffffffffffffffffffffffff82169050919050565b60006200010e82620000e1565b9050919050565b620001208162000101565b81146200012c57600080fd5b50565b600081519050620001408162000115565b92915050565b600080600060608486031215620001625762000161620000dc565b5b600062000172868287016200012f565b935050602062000185868287016200012f565b925050604062000198868287016200012f565b9150509250925092565b60805160a05160c051614bb7620001d66000396000610a9901526000505060008181610af001526116d30152614bb76000f3fe608060405234801561001057600080fd5b50600436106101f05760003560e01c80638da5cb5b1161010f578063cecb3043116100a2578063d798342211610071578063d7983422146106d7578063dce1f74d14610708578063e4c63f4714610739578063fc8027d814610757576101f0565b8063cecb304314610617578063d2784ad814610647578063d4ed19ac14610677578063d625f56d146106a7576101f0565b8063b17f15a2116100de578063b17f15a214610565578063c03d426814610599578063c36b4d1e146105b7578063c7946e6d146105e7576101f0565b80638da5cb5b146104c85780639a70b466146104e65780639ead722214610504578063a34ccc2014610534576101f0565b8063530f278f116101875780636bb67073116101565780636bb67073146104185780636d4b76d5146104485780638491fbaa146104785780638c7982f814610496576101f0565b8063530f278f14610366578063538c3c5c146103965780635dfbd918146103b4578063683d8cbb146103e5576101f0565b8063474da79a116101c3578063474da79a146102b75780634a262b28146102e75780634b7ea401146103185780635112ba9814610336576101f0565b80630f031f65146101f557806323c8504d14610225578063250dea5314610255578063327d426314610287575b600080fd5b61020f600480360381019061020a9190612d20565b610787565b60405161021c9190612de6565b60405180910390f35b61023f600480360381019061023a9190612d20565b610827565b60405161024c9190612e21565b60405180910390f35b61026f600480360381019061026a9190612e9a565b61083f565b60405161027e93929190612ef2565b60405180910390f35b6102a1600480360381019061029c9190612d20565b6108b6565b6040516102ae9190612f44565b60405180910390f35b6102d160048036038101906102cc9190612f8b565b6108d6565b6040516102de9190612fb8565b60405180910390f35b61030160048036038101906102fc9190613144565b610915565b60405161030f9291906131f8565b60405180910390f35b610320610ba1565b60405161032d9190613221565b60405180910390f35b610350600480360381019061034b919061323c565b610bb4565b60405161035d9190612e21565b60405180910390f35b610380600480360381019061037b9190612f8b565b610bd9565b60405161038d9190612e21565b60405180910390f35b61039e610bf1565b6040516103ab919061329f565b60405180910390f35b6103ce60048036038101906103c991906132ba565b610c0b565b6040516103dc929190613325565b60405180910390f35b6103ff60048036038101906103fa9190612d20565b610c65565b60405161040f949392919061335d565b60405180910390f35b610432600480360381019061042d9190612d20565b610cb5565b60405161043f9190612f44565b60405180910390f35b610462600480360381019061045d9190612f8b565b610cd5565b60405161046f9190612fb8565b60405180910390f35b610480610d14565b60405161048d9190612f44565b60405180910390f35b6104b060048036038101906104ab9190612f8b565b610d27565b6040516104bf939291906133a2565b60405180910390f35b6104d0610d65565b6040516104dd9190612fb8565b60405180910390f35b6104ee610d8b565b6040516104fb91906133d9565b60405180910390f35b61051e60048036038101906105199190612f8b565b610d91565b60405161052b9190612fb8565b60405180910390f35b61054e60048036038101906105499190613454565b610dd0565b60405161055c9291906134cc565b60405180910390f35b61057f600480360381019061057a9190612e9a565b610ef6565b60405161059095949392919061354a565b60405180910390f35b6105a1610fe1565b6040516105ae919061329f565b60405180910390f35b6105d160048036038101906105cc9190612f8b565b610ffb565b6040516105de9190612de6565b60405180910390f35b61060160048036038101906105fc9190612f8b565b6110a7565b60405161060e9190612fb8565b60405180910390f35b610631600480360381019061062c91906135a4565b6110dd565b60405161063e91906135d1565b60405180910390f35b610661600480360381019061065c919061378d565b611124565b60405161066e91906133d9565b60405180910390f35b610691600480360381019061068c91906137e9565b6113d8565b60405161069e9190613a05565b60405180910390f35b6106c160048036038101906106bc9190613b74565b611db5565b6040516106ce91906133d9565b60405180910390f35b6106f160048036038101906106ec9190613e99565b611e0f565b6040516106ff9291906131f8565b60405180910390f35b610722600480360381019061071d9190613f21565b61231a565b604051610730929190613f90565b60405180910390f35b610741612562565b60405161074e91906133d9565b60405180910390f35b610771600480360381019061076c9190613fb9565b6125fd565b60405161077e91906133d9565b60405180910390f35b600860205280600052604060002060009150905080546107a690614031565b80601f01602080910402602001604051908101604052809291908181526020018280546107d290614031565b801561081f5780601f106107f45761010080835404028352916020019161081f565b820191906000526020600020905b81548152906001019060200180831161080257829003601f168201915b505050505081565b600a6020528060005260406000206000915090505481565b60756020528060005260406000206000915090508060000160009054906101000a900473ffffffffffffffffffffffffffffffffffffffff16908060010160009054906101000a900473ffffffffffffffffffffffffffffffffffffffff16908060010160149054906101000a900460ff16905083565b60026020528060005260406000206000915054906101000a900460ff1681565b600d81815481106108e657600080fd5b906000526020600020016000915054906101000a900473ffffffffffffffffffffffffffffffffffffffff1681565b6000806000806000806000808a8c0151945060208b019a508a8c0151955060148b019a508a8c0151935060148b019a5060018b019a508a8c0151915060018b019a5060ff8b8d015116600081111561097357808c019b508b8d015197505b50604060ff166040831660ff1614156109b85760018b6109939190614092565b9a506109a08c8c8961231a565b809850819c50505060018b6109b591906140cc565b9a505b60088b019a508a8c015192506109d48c8c63ffffffff16610c0b565b8163ffffffff169150809c5081925050506109ee836110dd565b925060608363ffffffff166fffffffffffffffffffffffffffffffff16901b81179050610a218c8c63ffffffff16610c0b565b809c50819450505060208363ffffffff166fffffffffffffffffffffffffffffffff16901b8117905060408963ffffffff166fffffffffffffffffffffffffffffffff16901b8117905060018b019a508a8c0151915060018260ff161415610a8d57600860148c01019a505b858a148015610ae757507f000000000000000000000000000000000000000000000000000000000000000073ffffffffffffffffffffffffffffffffffffffff168573ffffffffffffffffffffffffffffffffffffffff16145b8015610b3e57507f000000000000000000000000000000000000000000000000000000000000000073ffffffffffffffffffffffffffffffffffffffff168473ffffffffffffffffffffffffffffffffffffffff16145b610b7d576040517f08c379a0000000000000000000000000000000000000000000000000000000008152600401610b7490614172565b60405180910390fd5b806fffffffffffffffffffffffffffffffff16975050505050505094509492505050565b607360009054906101000a900460ff1681565b600b602052816000526040600020602052806000526040600020600091509150505481565b60016020528060005260406000206000915090505481565b600760089054906101000a900467ffffffffffffffff1681565b6000806000600a8401846001860193505b81811015610c5b57838701519250600181019050607f83168560071b179450608080841614610c4a57610c5b565b600185019450600184019350610c1c565b5050509250929050565b60046020528060005260406000206000915090508060000154908060010154908060020160009054906101000a900463ffffffff16908060020160049054906101000a900463ffffffff16905084565b60746020528060005260406000206000915054906101000a900460ff1681565b60778181548110610ce557600080fd5b906000526020600020016000915054906101000a900473ffffffffffffffffffffffffffffffffffffffff1681565b600760109054906101000a900460ff1681565b60006020528060005260406000206000915090508060000154908060010154908060020160009054906101000a900467ffffffffffffffff16905083565b607960009054906101000a900473ffffffffffffffffffffffffffffffffffffffff1681565b60065481565b60058181548110610da157600080fd5b906000526020600020016000915054906101000a900473ffffffffffffffffffffffffffffffffffffffff1681565b6000806000808585810190610de59190613e99565b915091506000806000806000610dfb8787611e0f565b80935081945050508290506000610e11886125fd565b90506000801b811415610e59576040517f08c379a0000000000000000000000000000000000000000000000000000000008152600401610e50906141de565b60405180910390fd5b600360ff168860000151604001515114610e7257600080fd5b610e8481896000015160400151611db5565b9450610e8e612562565b95506000801b851480610ea15750858514155b15610ee1576040517f08c379a0000000000000000000000000000000000000000000000000000000008152600401610ed89061424a565b60405180910390fd5b81839950995050505050505050509250929050565b60036020528060005260406000206000915090508060000160009054906101000a900473ffffffffffffffffffffffffffffffffffffffff16908060000160149054906101000a900460ff1690806001015490806002018054610f5890614031565b80601f0160208091040260200160405190810160405280929190818152602001828054610f8490614031565b8015610fd15780601f10610fa657610100808354040283529160200191610fd1565b820191906000526020600020905b815481529060010190602001808311610fb457829003601f168201915b5050505050908060030154905085565b600760009054906101000a900467ffffffffffffffff1681565b6078818154811061100b57600080fd5b90600052602060002001600091509050805461102690614031565b80601f016020809104026020016040519081016040528092919081815260200182805461105290614031565b801561109f5780601f106110745761010080835404028352916020019161109f565b820191906000526020600020905b81548152906001019060200180831161108257829003601f168201915b505050505081565b600f81606481106110b757600080fd5b016000915054906101000a900473ffffffffffffffffffffffffffffffffffffffff1681565b6000600862ff00ff831663ffffffff16901b600863ff00ff00841663ffffffff16901c17915060108263ffffffff16901b60108363ffffffff16901c179150819050919050565b6000808260800151511161116d576040517f08c379a0000000000000000000000000000000000000000000000000000000008152600401611164906142b6565b60405180910390fd5b6000826080015151905060008490506060600073__$ad19100ed076f9c5518cb8405b1c3e1ae9$__636d48bb8d8760200151886040015189606001516040518463ffffffff1660e01b81526004016111c793929190614320565b60206040518083038186803b1580156111df57600080fd5b505af41580156111f3573d6000803e3d6000fd5b505050506040513d601f19601f820116820180604052508101906112179190614383565b67ffffffffffffffff16905060005b848110156113ca5760006001831611156112e2578787608001518281518110611252576112516143b0565b5b6020026020010151141561129b576040517f08c379a000000000000000000000000000000000000000000000000000000000815260040161129290614451565b60405180910390fd5b866080015181815181106112b2576112b16143b0565b5b6020026020010151846040516020016112cc929190614492565b6040516020818303038152906040529250611325565b83876080015182815181106112fa576112f96143b0565b5b6020026020010151604051602001611313929190614492565b60405160208183030381529060405292505b8273__$24338d23a70bdd67ae4c511f87804f9b9d$__632cd0cff290916040518263ffffffff1660e01b815260040161135e9190614508565b60206040518083038186803b15801561137657600080fd5b505af415801561138a573d6000803e3d6000fd5b505050506040513d601f19601f820116820180604052508101906113ae919061453f565b9350600182901c915080806113c29061456c565b915050611226565b508294505050505092915050565b6060600060058054905090506113ec612be2565b6000806001846113fc91906145b5565b90506000871015801561140e57508387105b15611417578691505b818611801561142557508386105b1561142e578590505b60006001838361143e91906145b5565b61144891906145e9565b67ffffffffffffffff81111561146157611460612fdd565b5b60405190808252806020026020018201604052801561149a57816020015b611487612c2a565b81526020019060019003908161147f5790505b50905060005b828411611da6576000600585815481106114bd576114bc6143b0565b5b9060005260206000200160009054906101000a900473ffffffffffffffffffffffffffffffffffffffff169050600360008273ffffffffffffffffffffffffffffffffffffffff1673ffffffffffffffffffffffffffffffffffffffff1681526020019081526020016000206040518060a00160405290816000820160009054906101000a900473ffffffffffffffffffffffffffffffffffffffff1673ffffffffffffffffffffffffffffffffffffffff1673ffffffffffffffffffffffffffffffffffffffff1681526020016000820160149054906101000a900460ff1660ff1660ff168152602001600182015481526020016002820180546115c190614031565b80601f01602080910402602001604051908101604052809291908181526020018280546115ed90614031565b801561163a5780601f1061160f5761010080835404028352916020019161163a565b820191906000526020600020905b81548152906001019060200180831161161d57829003601f168201915b50505050508152602001600382015481525050955080838381518110611663576116626143b0565b5b60200260200101516000019073ffffffffffffffffffffffffffffffffffffffff16908173ffffffffffffffffffffffffffffffffffffffff168152505085602001518383815181106116b9576116b86143b0565b5b60200260200101516060019060ff16908160ff16815250507f000000000000000000000000000000000000000000000000000000000000000073ffffffffffffffffffffffffffffffffffffffff168173ffffffffffffffffffffffffffffffffffffffff1614156117fc57600083838151811061173a576117396143b0565b5b60200260200101516020019073ffffffffffffffffffffffffffffffffffffffff16908173ffffffffffffffffffffffffffffffffffffffff168152505085606001518383815181106117905761178f6143b0565b5b6020026020010151608001819052506040518060400160405280600381526020017f45544800000000000000000000000000000000000000000000000000000000008152508383815181106117e8576117e76143b0565b5b602002602001015160a00181905250611d84565b602063ffffffff166020876020015160ff161663ffffffff161415611c7b578560000151838381518110611833576118326143b0565b5b60200260200101516020019073ffffffffffffffffffffffffffffffffffffffff16908173ffffffffffffffffffffffffffffffffffffffff16815250506060866060015190507f2e00000000000000000000000000000000000000000000000000000000000000816001815181106118af576118ae6143b0565b5b602001015160f81c60f81b7effffffffffffffffffffffffffffffffffffffffffffffffffffffffffffff191614801561194857507f2e0000000000000000000000000000000000000000000000000000000000000081600281518110611919576119186143b0565b5b602001015160f81c60f81b7effffffffffffffffffffffffffffffffffffffffffffffffffffffffffffff1916145b80156119b357507f2e0000000000000000000000000000000000000000000000000000000000000081600381518110611984576119836143b0565b5b602001015160f81c60f81b7effffffffffffffffffffffffffffffffffffffffffffffffffffffffffffff1916145b15611a26576119c787600001516014612846565b6119df8260058085516119da91906145b5565b612ac4565b6040516020016119f092919061474f565b604051602081830303815290604052848481518110611a1257611a116143b0565b5b602002602001015160800181905250611a4e565b8660600151848481518110611a3e57611a3d6143b0565b5b6020026020010151608001819052505b600080886000015173ffffffffffffffffffffffffffffffffffffffff166040516024016040516020818303038152906040527f95d89b41000000000000000000000000000000000000000000000000000000007bffffffffffffffffffffffffffffffffffffffffffffffffffffffff19166020820180517bffffffffffffffffffffffffffffffffffffffffffffffffffffffff8381831617835250505050604051611afc9190614789565b6000604051808303816000865af19150503d8060008114611b39576040519150601f19603f3d011682016040523d82523d6000602084013e611b3e565b606091505b5091509150818015611b51575060408151115b15611b915780806020019051810190611b6a9190614841565b868681518110611b7d57611b7c6143b0565b5b602002602001015160a00181905250611c73565b602081511415611c2457611bfd8160008060f81b84600381518110611bb957611bb86143b0565b5b602001015160f81c60f81b7effffffffffffffffffffffffffffffffffffffffffffffffffffffffffffff191614611bf2576004611bf5565b60035b60ff16612ac4565b868681518110611c1057611c0f6143b0565b5b602002602001015160a00181905250611c72565b611c4f868681518110611c3a57611c396143b0565b5b60200260200101516080015160036004612ac4565b868681518110611c6257611c616143b0565b5b602002602001015160a001819052505b5b505050611d83565b608063ffffffff166080876020015160ff161663ffffffff161480611cb65750601063ffffffff166010876020015160ff161663ffffffff16145b80611cd75750604063ffffffff166040876020015160ff161663ffffffff16145b15611d82578560000151838381518110611cf457611cf36143b0565b5b60200260200101516020019073ffffffffffffffffffffffffffffffffffffffff16908173ffffffffffffffffffffffffffffffffffffffff16815250508560600151838381518110611d4a57611d496143b0565b5b6020026020010151608001819052508560800151838381518110611d7157611d706143b0565b5b602002602001015160c00181815250505b5b5b8180611d8f9061456c565b925050508380611d9e9061456c565b9450506114a0565b81965050505050505092915050565b60008083905060005b8351811015611e0457611def82858381518110611dde57611ddd6143b0565b5b602002602001015160200151611124565b91508080611dfc9061456c565b915050611dbe565b508091505092915050565b600080600160ff16846000015160600151600081518110611e3357611e326143b0565b5b60200260200101516000015160ff1614611e75576000808167ffffffffffffffff169150806fffffffffffffffffffffffffffffffff16905091509150612313565b6000600190505b8460000151606001515181101561230a57600463ffffffff168560000151606001518281518110611eb057611eaf6143b0565b5b60200260200101516000015160ff1614611ec9576122f7565b60008560000151606001518281518110611ee657611ee56143b0565b5b60200260200101516040015190506000806000808960000151606001518681518110611f1557611f146143b0565b5b602002602001015160600151600081518110611f3457611f336143b0565b5b602002602001015160200151602001519050611f4e612cac565b600d6001600a811115611f6457611f6361488a565b5b81548110611f7557611f746143b0565b5b9060005260206000200160009054906101000a900473ffffffffffffffffffffffffffffffffffffffff1673ffffffffffffffffffffffffffffffffffffffff1663ec9bb1a08760096040518363ffffffff1660e01b8152600401611fdb9291906148b9565b604080518083038186803b158015611ff257600080fd5b505afa158015612006573d6000803e3d6000fd5b505050506040513d601f19601f8201168201806040525081019061202a919061494e565b9050600d6001600a8111156120425761204161488a565b5b81548110612053576120526143b0565b5b9060005260206000200160009054906101000a900473ffffffffffffffffffffffffffffffffffffffff1673ffffffffffffffffffffffffffffffffffffffff1663ec9bb1a08783600001516040518363ffffffff1660e01b81526004016120bc9291906148b9565b604080518083038186803b1580156120d357600080fd5b505afa1580156120e7573d6000803e3d6000fd5b505050506040513d601f19601f8201168201806040525081019061210b919061494e565b90506000816020015167ffffffffffffffff1614806121385750604b816020015167ffffffffffffffff16115b15612172576000808167ffffffffffffffff169150806fffffffffffffffffffffffffffffffff1690509850985050505050505050612313565b8060200151816000015163ffffffff1661218c919061497b565b945084860151935060018501945084860151925060018501945060cc63ffffffff168460ff161415806121df5750604c63ffffffff168360ff16141580156121de5750604d63ffffffff168360ff1614155b5b15612219576000808167ffffffffffffffff169150806fffffffffffffffffffffffffffffffff1690509850985050505050505050612313565b604c63ffffffff168360ff1614156122365760018501945061223d565b6002850194505b60028561224a9190614092565b9450848601519350600c60ff168460ff1614612295576000808167ffffffffffffffff169150806fffffffffffffffffffffffffffffffff1690509850985050505050505050612313565b6018856122a29190614092565b94508486015192506019856122b79190614092565b9450604d63ffffffff168360ff1614156122db576001856122d89190614092565b94505b6122e786868c85610915565b9850985050505050505050612313565b80806123029061456c565b915050611e7c565b50600080915091505b9250929050565b600080612325612cac565b600d6001600a81111561233b5761233a61488a565b5b8154811061234c5761234b6143b0565b5b9060005260206000200160009054906101000a900473ffffffffffffffffffffffffffffffffffffffff1673ffffffffffffffffffffffffffffffffffffffff1663ec9bb1a087876040518363ffffffff1660e01b81526004016123b19291906148b9565b604080518083038186803b1580156123c857600080fd5b505afa1580156123dc573d6000803e3d6000fd5b505050506040513d601f19601f82011682018060405250810190612400919061494e565b9050806000015194506000816020015167ffffffffffffffff16905060005b8181101561255157600d6001600a81111561243d5761243c61488a565b5b8154811061244e5761244d6143b0565b5b9060005260206000200160009054906101000a900473ffffffffffffffffffffffffffffffffffffffff1673ffffffffffffffffffffffffffffffffffffffff1663ec9bb1a089896040518363ffffffff1660e01b81526004016124b39291906148b9565b604080518083038186803b1580156124ca57600080fd5b505afa1580156124de573d6000803e3d6000fd5b505050506040513d601f19601f82011682018060405250810190612502919061494e565b9250601660ff16836020015167ffffffffffffffff161415612528576016878901015195505b8260200151836000015161253c9190614092565b965080806125499061456c565b91505061241f565b508585935093505050935093915050565b600080607860008154811061257a576125796143b0565b5b906000526020600020019050600081805461259490614031565b905014156125a8576000801b9150506125fa565b60008060008360208201526002602080830120015460e01c9150600960008363ffffffff1660001b81526020019081526020016000209350836020820152600060208083012001549250829450505050505b90565b600080600083600001516060015160008151811061261e5761261d6143b0565b5b60200260200101516040015173__$24338d23a70bdd67ae4c511f87804f9b9d$__632cd0cff290916040518263ffffffff1660e01b81526004016126629190614508565b60206040518083038186803b15801561267a57600080fd5b505af415801561268e573d6000803e3d6000fd5b505050506040513d601f19601f820116820180604052508101906126b2919061453f565b9150600160ff168460000151606001516000815181106126d5576126d46143b0565b5b60200260200101516000015160ff16141561271e5761271b8285600001516060015160008151811061270a576127096143b0565b5b602002602001015160600151611db5565b92505b6000600190505b8460000151606001515181101561283e578460000151606001518181518110612751576127506143b0565b5b60200260200101516040015173__$24338d23a70bdd67ae4c511f87804f9b9d$__632cd0cff290916040518263ffffffff1660e01b81526004016127959190614508565b60206040518083038186803b1580156127ad57600080fd5b505af41580156127c1573d6000803e3d6000fd5b505050506040513d601f19601f820116820180604052508101906127e5919061453f565b9250612817838660000151606001518381518110612806576128056143b0565b5b602002602001015160600151611db5565b915081841461282b576000801b935061283e565b80806128369061456c565b915050612725565b505050919050565b60606000600283600261285991906149b9565b61286391906145e9565b67ffffffffffffffff81111561287c5761287b612fdd565b5b6040519080825280601f01601f1916602001820160405280156128ae5781602001600182028036833780820191505090505b5090507f3000000000000000000000000000000000000000000000000000000000000000816000815181106128e6576128e56143b0565b5b60200101907effffffffffffffffffffffffffffffffffffffffffffffffffffffffffffff1916908160001a9053507f78000000000000000000000000000000000000000000000000000000000000008160018151811061294a576129496143b0565b5b60200101907effffffffffffffffffffffffffffffffffffffffffffffffffffffffffffff1916908160001a9053506000600184600261298a91906149b9565b61299491906145e9565b90505b6001811115612a60577f3031323334353637383961626364656600000000000000000000000000000000600f861673ffffffffffffffffffffffffffffffffffffffff16601081106129ec576129eb6143b0565b5b1a60f81b828281518110612a0357612a026143b0565b5b60200101907effffffffffffffffffffffffffffffffffffffffffffffffffffffffffffff1916908160001a90535060048573ffffffffffffffffffffffffffffffffffffffff16901c945080612a5990614a13565b9050612997565b5060008473ffffffffffffffffffffffffffffffffffffffff1614612aba576040517f08c379a0000000000000000000000000000000000000000000000000000000008152600401612ab190614a89565b60405180910390fd5b8091505092915050565b606081601f83612ad491906145e9565b1015612b15576040517f08c379a0000000000000000000000000000000000000000000000000000000008152600401612b0c90614af5565b60405180910390fd5b8183612b2191906145e9565b84511015612b64576040517f08c379a0000000000000000000000000000000000000000000000000000000008152600401612b5b90614b61565b60405180910390fd5b6060821560008114612b855760405191506000825260208201604052612bd6565b6040519150601f8416801560200281840101858101878315602002848b0101015b81831015612bc35780518352602083019250602081019050612ba6565b50868552601f19601f8301166040525050505b50809150509392505050565b6040518060a00160405280600073ffffffffffffffffffffffffffffffffffffffff168152602001600060ff1681526020016000815260200160608152602001600081525090565b6040518060e00160405280600073ffffffffffffffffffffffffffffffffffffffff168152602001600073ffffffffffffffffffffffffffffffffffffffff168152602001600073ffffffffffffffffffffffffffffffffffffffff168152602001600060ff1681526020016060815260200160608152602001600081525090565b6040518060400160405280600063ffffffff168152602001600067ffffffffffffffff1681525090565b6000604051905090565b600080fd5b600080fd5b6000819050919050565b612cfd81612cea565b8114612d0857600080fd5b50565b600081359050612d1a81612cf4565b92915050565b600060208284031215612d3657612d35612ce0565b5b6000612d4484828501612d0b565b91505092915050565b600081519050919050565b600082825260208201905092915050565b60005b83811015612d87578082015181840152602081019050612d6c565b83811115612d96576000848401525b50505050565b6000601f19601f8301169050919050565b6000612db882612d4d565b612dc28185612d58565b9350612dd2818560208601612d69565b612ddb81612d9c565b840191505092915050565b60006020820190508181036000830152612e008184612dad565b905092915050565b6000819050919050565b612e1b81612e08565b82525050565b6000602082019050612e366000830184612e12565b92915050565b600073ffffffffffffffffffffffffffffffffffffffff82169050919050565b6000612e6782612e3c565b9050919050565b612e7781612e5c565b8114612e8257600080fd5b50565b600081359050612e9481612e6e565b92915050565b600060208284031215612eb057612eaf612ce0565b5b6000612ebe84828501612e85565b91505092915050565b612ed081612e5c565b82525050565b600060ff82169050919050565b612eec81612ed6565b82525050565b6000606082019050612f076000830186612ec7565b612f146020830185612ec7565b612f216040830184612ee3565b949350505050565b60008115159050919050565b612f3e81612f29565b82525050565b6000602082019050612f596000830184612f35565b92915050565b612f6881612e08565b8114612f7357600080fd5b50565b600081359050612f8581612f5f565b92915050565b600060208284031215612fa157612fa0612ce0565b5b6000612faf84828501612f76565b91505092915050565b6000602082019050612fcd6000830184612ec7565b92915050565b600080fd5b600080fd5b7f4e487b7100000000000000000000000000000000000000000000000000000000600052604160045260246000fd5b61301582612d9c565b810181811067ffffffffffffffff8211171561303457613033612fdd565b5b80604052505050565b6000613047612cd6565b9050613053828261300c565b919050565b600067ffffffffffffffff82111561307357613072612fdd565b5b61307c82612d9c565b9050602081019050919050565b82818337600083830152505050565b60006130ab6130a684613058565b61303d565b9050828152602081018484840111156130c7576130c6612fd8565b5b6130d2848285613089565b509392505050565b600082601f8301126130ef576130ee612fd3565b5b81356130ff848260208601613098565b91505092915050565b600063ffffffff82169050919050565b61312181613108565b811461312c57600080fd5b50565b60008135905061313e81613118565b92915050565b6000806000806080858703121561315e5761315d612ce0565b5b600085013567ffffffffffffffff81111561317c5761317b612ce5565b5b613188878288016130da565b94505060206131998782880161312f565b93505060406131aa87828801612d0b565b92505060606131bb8782880161312f565b91505092959194509250565b600075ffffffffffffffffffffffffffffffffffffffffffff82169050919050565b6131f2816131c7565b82525050565b600060408201905061320d6000830185612e12565b61321a60208301846131e9565b9392505050565b60006020820190506132366000830184612ee3565b92915050565b6000806040838503121561325357613252612ce0565b5b600061326185828601612d0b565b925050602061327285828601612e85565b9150509250929050565b600067ffffffffffffffff82169050919050565b6132998161327c565b82525050565b60006020820190506132b46000830184613290565b92915050565b600080604083850312156132d1576132d0612ce0565b5b600083013567ffffffffffffffff8111156132ef576132ee612ce5565b5b6132fb858286016130da565b925050602061330c85828601612f76565b9150509250929050565b61331f81613108565b82525050565b600060408201905061333a6000830185613316565b6133476020830184613316565b9392505050565b61335781612cea565b82525050565b6000608082019050613372600083018761334e565b61337f602083018661334e565b61338c6040830185613316565b6133996060830184613316565b95945050505050565b60006060820190506133b7600083018661334e565b6133c4602083018561334e565b6133d16040830184613290565b949350505050565b60006020820190506133ee600083018461334e565b92915050565b600080fd5b600080fd5b60008083601f84011261341457613413612fd3565b5b8235905067ffffffffffffffff811115613431576134306133f4565b5b60208301915083600182028301111561344d5761344c6133f9565b5b9250929050565b6000806020838503121561346b5761346a612ce0565b5b600083013567ffffffffffffffff81111561348957613488612ce5565b5b613495858286016133fe565b92509250509250929050565b60006fffffffffffffffffffffffffffffffff82169050919050565b6134c6816134a1565b82525050565b60006040820190506134e160008301856134bd565b6134ee60208301846131e9565b9392505050565b600081519050919050565b600082825260208201905092915050565b600061351c826134f5565b6135268185613500565b9350613536818560208601612d69565b61353f81612d9c565b840191505092915050565b600060a08201905061355f6000830188612ec7565b61356c6020830187612ee3565b6135796040830186612e12565b818103606083015261358b8185613511565b905061359a6080830184612e12565b9695505050505050565b6000602082840312156135ba576135b9612ce0565b5b60006135c88482850161312f565b91505092915050565b60006020820190506135e66000830184613316565b92915050565b600080fd5b600080fd5b6135ff81612ed6565b811461360a57600080fd5b50565b60008135905061361c816135f6565b92915050565b600067ffffffffffffffff82111561363d5761363c612fdd565b5b602082029050602081019050919050565b600061366161365c84613622565b61303d565b90508083825260208201905060208402830185811115613684576136836133f9565b5b835b818110156136ad57806136998882612d0b565b845260208401935050602081019050613686565b5050509392505050565b600082601f8301126136cc576136cb612fd3565b5b81356136dc84826020860161364e565b91505092915050565b600060a082840312156136fb576136fa6135ec565b5b61370560a061303d565b905060006137158482850161360d565b60008301525060206137298482850161312f565b602083015250604061373d8482850161312f565b60408301525060606137518482850161360d565b606083015250608082013567ffffffffffffffff811115613775576137746135f1565b5b613781848285016136b7565b60808301525092915050565b600080604083850312156137a4576137a3612ce0565b5b60006137b285828601612d0b565b925050602083013567ffffffffffffffff8111156137d3576137d2612ce5565b5b6137df858286016136e5565b9150509250929050565b60008060408385031215613800576137ff612ce0565b5b600061380e85828601612f76565b925050602061381f85828601612f76565b9150509250929050565b600081519050919050565b600082825260208201905092915050565b6000819050602082019050919050565b61385e81612e5c565b82525050565b61386d81612ed6565b82525050565b600082825260208201905092915050565b600061388f826134f5565b6138998185613873565b93506138a9818560208601612d69565b6138b281612d9c565b840191505092915050565b6138c681612e08565b82525050565b600060e0830160008301516138e46000860182613855565b5060208301516138f76020860182613855565b50604083015161390a6040860182613855565b50606083015161391d6060860182613864565b50608083015184820360808601526139358282613884565b91505060a083015184820360a086015261394f8282613884565b91505060c083015161396460c08601826138bd565b508091505092915050565b600061397b83836138cc565b905092915050565b6000602082019050919050565b600061399b82613829565b6139a58185613834565b9350836020820285016139b785613845565b8060005b858110156139f357848403895281516139d4858261396f565b94506139df83613983565b925060208a019950506001810190506139bb565b50829750879550505050505092915050565b60006020820190508181036000830152613a1f8184613990565b905092915050565b600067ffffffffffffffff821115613a4257613a41612fdd565b5b602082029050602081019050919050565b600060408284031215613a6957613a686135ec565b5b613a73604061303d565b90506000613a838482850161360d565b600083015250602082013567ffffffffffffffff811115613aa757613aa66135f1565b5b613ab3848285016136e5565b60208301525092915050565b6000613ad2613acd84613a27565b61303d565b90508083825260208201905060208402830185811115613af557613af46133f9565b5b835b81811015613b3c57803567ffffffffffffffff811115613b1a57613b19612fd3565b5b808601613b278982613a53565b85526020850194505050602081019050613af7565b5050509392505050565b600082601f830112613b5b57613b5a612fd3565b5b8135613b6b848260208601613abf565b91505092915050565b60008060408385031215613b8b57613b8a612ce0565b5b6000613b9985828601612d0b565b925050602083013567ffffffffffffffff811115613bba57613bb9612ce5565b5b613bc685828601613b46565b9150509250929050565b600067ffffffffffffffff821115613beb57613bea612fdd565b5b602082029050602081019050919050565b600060808284031215613c1257613c116135ec565b5b613c1c608061303d565b90506000613c2c8482850161360d565b6000830152506020613c408482850161360d565b602083015250604082013567ffffffffffffffff811115613c6457613c636135f1565b5b613c70848285016130da565b604083015250606082013567ffffffffffffffff811115613c9457613c936135f1565b5b613ca084828501613b46565b60608301525092915050565b6000613cbf613cba84613bd0565b61303d565b90508083825260208201905060208402830185811115613ce257613ce16133f9565b5b835b81811015613d2957803567ffffffffffffffff811115613d0757613d06612fd3565b5b808601613d148982613bfc565b85526020850194505050602081019050613ce4565b5050509392505050565b600082601f830112613d4857613d47612fd3565b5b8135613d58848260208601613cac565b91505092915050565b600060808284031215613d7757613d766135ec565b5b613d81608061303d565b90506000613d918482850161360d565b6000830152506020613da58482850161360d565b602083015250604082013567ffffffffffffffff811115613dc957613dc86135f1565b5b613dd584828501613b46565b604083015250606082013567ffffffffffffffff811115613df957613df86135f1565b5b613e0584828501613d33565b60608301525092915050565b600060408284031215613e2757613e266135ec565b5b613e31604061303d565b9050600082013567ffffffffffffffff811115613e5157613e506135f1565b5b613e5d84828501613d61565b600083015250602082013567ffffffffffffffff811115613e8157613e806135f1565b5b613e8d848285016130da565b60208301525092915050565b60008060408385031215613eb057613eaf612ce0565b5b600083013567ffffffffffffffff811115613ece57613ecd612ce5565b5b613eda85828601613e11565b9250506020613eeb85828601612d0b565b9150509250929050565b613efe816131c7565b8114613f0957600080fd5b50565b600081359050613f1b81613ef5565b92915050565b600080600060608486031215613f3a57613f39612ce0565b5b600084013567ffffffffffffffff811115613f5857613f57612ce5565b5b613f64868287016130da565b9350506020613f758682870161312f565b9250506040613f8686828701613f0c565b9150509250925092565b6000604082019050613fa56000830185613316565b613fb260208301846131e9565b9392505050565b600060208284031215613fcf57613fce612ce0565b5b600082013567ffffffffffffffff811115613fed57613fec612ce5565b5b613ff984828501613e11565b91505092915050565b7f4e487b7100000000000000000000000000000000000000000000000000000000600052602260045260246000fd5b6000600282049050600182168061404957607f821691505b6020821081141561405d5761405c614002565b5b50919050565b7f4e487b7100000000000000000000000000000000000000000000000000000000600052601160045260246000fd5b600061409d82613108565b91506140a883613108565b92508263ffffffff038211156140c1576140c0614063565b5b828201905092915050565b60006140d782613108565b91506140e283613108565b9250828210156140f5576140f4614063565b5b828203905092915050565b7f43434520696e666f726d6174696f6e20646f6573206e6f7420636865636b6f7560008201527f7400000000000000000000000000000000000000000000000000000000000000602082015250565b600061415c602183613500565b915061416782614100565b604082019050919050565b6000602082019050818103600083015261418b8161414f565b9050919050565b7f436f6d706f6e656e747320646f206e6f742076616c6964617465000000000000600082015250565b60006141c8601a83613500565b91506141d382614192565b602082019050919050565b600060208201905081810360008301526141f7816141bb565b9050919050565b7f5374617465726f6f7420646f6573206e6f74206d617463680000000000000000600082015250565b6000614234601883613500565b915061423f826141fe565b602082019050919050565b6000602082019050818103600083015261426381614227565b9050919050565b7f4272616e6368206d757374206265206c6f6e676572207468616e203000000000600082015250565b60006142a0601c83613500565b91506142ab8261426a565b602082019050919050565b600060208201905081810360008301526142cf81614293565b9050919050565b6000819050919050565b60006142fb6142f66142f184613108565b6142d6565b61327c565b9050919050565b61430b816142e0565b82525050565b61431a81612ed6565b82525050565b60006060820190506143356000830186614302565b6143426020830185614302565b61434f6040830184614311565b949350505050565b6143608161327c565b811461436b57600080fd5b50565b60008151905061437d81614357565b92915050565b60006020828403121561439957614398612ce0565b5b60006143a78482850161436e565b91505092915050565b7f4e487b7100000000000000000000000000000000000000000000000000000000600052603260045260246000fd5b7f56616c75652063616e20626520657175616c20746f206e6f646520627574206e60008201527f65766572206f6e20746865207269676874000000000000000000000000000000602082015250565b600061443b603183613500565b9150614446826143df565b604082019050919050565b6000602082019050818103600083015261446a8161442e565b9050919050565b6000819050919050565b61448c61448782612cea565b614471565b82525050565b600061449e828561447b565b6020820191506144ae828461447b565b6020820191508190509392505050565b600082825260208201905092915050565b60006144da82612d4d565b6144e481856144be565b93506144f4818560208601612d69565b6144fd81612d9c565b840191505092915050565b6000602082019050818103600083015261452281846144cf565b905092915050565b60008151905061453981612cf4565b92915050565b60006020828403121561455557614554612ce0565b5b60006145638482850161452a565b91505092915050565b600061457782612e08565b91507fffffffffffffffffffffffffffffffffffffffffffffffffffffffffffffffff8214156145aa576145a9614063565b5b600182019050919050565b60006145c082612e08565b91506145cb83612e08565b9250828210156145de576145dd614063565b5b828203905092915050565b60006145f482612e08565b91506145ff83612e08565b9250827fffffffffffffffffffffffffffffffffffffffffffffffffffffffffffffffff0382111561463457614633614063565b5b828201905092915050565b600081905092915050565b7f5b00000000000000000000000000000000000000000000000000000000000000600082015250565b600061468060018361463f565b915061468b8261464a565b600182019050919050565b60006146a1826134f5565b6146ab818561463f565b93506146bb818560208601612d69565b80840191505092915050565b7f5d00000000000000000000000000000000000000000000000000000000000000600082015250565b60006146fd60018361463f565b9150614708826146c7565b600182019050919050565b600081905092915050565b600061472982612d4d565b6147338185614713565b9350614743818560208601612d69565b80840191505092915050565b600061475a82614673565b91506147668285614696565b9150614771826146f0565b915061477d828461471e565b91508190509392505050565b6000614795828461471e565b915081905092915050565b600067ffffffffffffffff8211156147bb576147ba612fdd565b5b6147c482612d9c565b9050602081019050919050565b60006147e46147df846147a0565b61303d565b905082815260208101848484011115614800576147ff612fd8565b5b61480b848285612d69565b509392505050565b600082601f83011261482857614827612fd3565b5b81516148388482602086016147d1565b91505092915050565b60006020828403121561485757614856612ce0565b5b600082015167ffffffffffffffff81111561487557614874612ce5565b5b61488184828501614813565b91505092915050565b7f4e487b7100000000000000000000000000000000000000000000000000000000600052602160045260246000fd5b600060408201905081810360008301526148d38185612dad565b90506148e26020830184613316565b9392505050565b6000815190506148f881613118565b92915050565b600060408284031215614914576149136135ec565b5b61491e604061303d565b9050600061492e848285016148e9565b60008301525060206149428482850161436e565b60208301525092915050565b60006040828403121561496457614963612ce0565b5b6000614972848285016148fe565b91505092915050565b60006149868261327c565b91506149918361327c565b92508267ffffffffffffffff038211156149ae576149ad614063565b5b828201905092915050565b60006149c482612e08565b91506149cf83612e08565b9250817fffffffffffffffffffffffffffffffffffffffffffffffffffffffffffffffff0483118215151615614a0857614a07614063565b5b828202905092915050565b6000614a1e82612e08565b91506000821415614a3257614a31614063565b5b600182039050919050565b7f537472696e67733a20686578206c656e67746820696e73756666696369656e74600082015250565b6000614a73602083613500565b9150614a7e82614a3d565b602082019050919050565b60006020820190508181036000830152614aa281614a66565b9050919050565b7f736c6963655f6f766572666c6f77000000000000000000000000000000000000600082015250565b6000614adf600e83613500565b9150614aea82614aa9565b602082019050919050565b60006020820190508181036000830152614b0e81614ad2565b9050919050565b7f736c6963655f6f75744f66426f756e6473000000000000000000000000000000600082015250565b6000614b4b601183613500565b9150614b5682614b15565b602082019050919050565b60006020820190508181036000830152614b7a81614b3e565b905091905056fea2646970667358221220f983369a0efe7371f5a6cccaf68f48ad008060a42a00add17331a526b902b0da64736f6c63430008090033",
			"opcodes": "PUSH1 0xE0 PUSH1 0x40 MSTORE CALLVALUE DUP1 ISZERO PUSH3 0x11 JUMPI PUSH1 0x0 DUP1 REVERT JUMPDEST POP PUSH1 0x40 MLOAD PUSH3 0x4D8D CODESIZE SUB DUP1 PUSH3 0x4D8D DUP4 CODECOPY DUP2 DUP2 ADD PUSH1 0x40 MSTORE DUP2 ADD SWAP1 PUSH3 0x37 SWAP2 SWAP1 PUSH3 0x146 JUMP JUMPDEST DUP3 PUSH20 0xFFFFFFFFFFFFFFFFFFFFFFFFFFFFFFFFFFFFFFFF AND PUSH1 0x80 DUP2 PUSH20 0xFFFFFFFFFFFFFFFFFFFFFFFFFFFFFFFFFFFFFFFF AND DUP2 MSTORE POP POP DUP2 PUSH20 0xFFFFFFFFFFFFFFFFFFFFFFFFFFFFFFFFFFFFFFFF AND PUSH1 0xA0 DUP2 PUSH20 0xFFFFFFFFFFFFFFFFFFFFFFFFFFFFFFFFFFFFFFFF AND DUP2 MSTORE POP POP DUP1 PUSH20 0xFFFFFFFFFFFFFFFFFFFFFFFFFFFFFFFFFFFFFFFF AND PUSH1 0xC0 DUP2 PUSH20 0xFFFFFFFFFFFFFFFFFFFFFFFFFFFFFFFFFFFFFFFF AND DUP2 MSTORE POP POP POP POP POP PUSH3 0x1A2 JUMP JUMPDEST PUSH1 0x0 DUP1 REVERT JUMPDEST PUSH1 0x0 PUSH20 0xFFFFFFFFFFFFFFFFFFFFFFFFFFFFFFFFFFFFFFFF DUP3 AND SWAP1 POP SWAP2 SWAP1 POP JUMP JUMPDEST PUSH1 0x0 PUSH3 0x10E DUP3 PUSH3 0xE1 JUMP JUMPDEST SWAP1 POP SWAP2 SWAP1 POP JUMP JUMPDEST PUSH3 0x120 DUP2 PUSH3 0x101 JUMP JUMPDEST DUP2 EQ PUSH3 0x12C JUMPI PUSH1 0x0 DUP1 REVERT JUMPDEST POP JUMP JUMPDEST PUSH1 0x0 DUP2 MLOAD SWAP1 POP PUSH3 0x140 DUP2 PUSH3 0x115 JUMP JUMPDEST SWAP3 SWAP2 POP POP JUMP JUMPDEST PUSH1 0x0 DUP1 PUSH1 0x0 PUSH1 0x60 DUP5 DUP7 SUB SLT ISZERO PUSH3 0x162 JUMPI PUSH3 0x161 PUSH3 0xDC JUMP JUMPDEST JUMPDEST PUSH1 0x0 PUSH3 0x172 DUP7 DUP3 DUP8 ADD PUSH3 0x12F JUMP JUMPDEST SWAP4 POP POP PUSH1 0x20 PUSH3 0x185 DUP7 DUP3 DUP8 ADD PUSH3 0x12F JUMP JUMPDEST SWAP3 POP POP PUSH1 0x40 PUSH3 0x198 DUP7 DUP3 DUP8 ADD PUSH3 0x12F JUMP JUMPDEST SWAP2 POP POP SWAP3 POP SWAP3 POP SWAP3 JUMP JUMPDEST PUSH1 0x80 MLOAD PUSH1 0xA0 MLOAD PUSH1 0xC0 MLOAD PUSH2 0x4BB7 PUSH3 0x1D6 PUSH1 0x0 CODECOPY PUSH1 0x0 PUSH2 0xA99 ADD MSTORE PUSH1 0x0 POP POP PUSH1 0x0 DUP2 DUP2 PUSH2 0xAF0 ADD MSTORE PUSH2 0x16D3 ADD MSTORE PUSH2 0x4BB7 PUSH1 0x0 RETURN INVALID PUSH1 0x80 PUSH1 0x40 MSTORE CALLVALUE DUP1 ISZERO PUSH2 0x10 JUMPI PUSH1 0x0 DUP1 REVERT JUMPDEST POP PUSH1 0x4 CALLDATASIZE LT PUSH2 0x1F0 JUMPI PUSH1 0x0 CALLDATALOAD PUSH1 0xE0 SHR DUP1 PUSH4 0x8DA5CB5B GT PUSH2 0x10F JUMPI DUP1 PUSH4 0xCECB3043 GT PUSH2 0xA2 JUMPI DUP1 PUSH4 0xD7983422 GT PUSH2 0x71 JUMPI DUP1 PUSH4 0xD7983422 EQ PUSH2 0x6D7 JUMPI DUP1 PUSH4 0xDCE1F74D EQ PUSH2 0x708 JUMPI DUP1 PUSH4 0xE4C63F47 EQ PUSH2 0x739 JUMPI DUP1 PUSH4 0xFC8027D8 EQ PUSH2 0x757 JUMPI PUSH2 0x1F0 JUMP JUMPDEST DUP1 PUSH4 0xCECB3043 EQ PUSH2 0x617 JUMPI DUP1 PUSH4 0xD2784AD8 EQ PUSH2 0x647 JUMPI DUP1 PUSH4 0xD4ED19AC EQ PUSH2 0x677 JUMPI DUP1 PUSH4 0xD625F56D EQ PUSH2 0x6A7 JUMPI PUSH2 0x1F0 JUMP JUMPDEST DUP1 PUSH4 0xB17F15A2 GT PUSH2 0xDE JUMPI DUP1 PUSH4 0xB17F15A2 EQ PUSH2 0x565 JUMPI DUP1 PUSH4 0xC03D4268 EQ PUSH2 0x599 JUMPI DUP1 PUSH4 0xC36B4D1E EQ PUSH2 0x5B7 JUMPI DUP1 PUSH4 0xC7946E6D EQ PUSH2 0x5E7 JUMPI PUSH2 0x1F0 JUMP JUMPDEST DUP1 PUSH4 0x8DA5CB5B EQ PUSH2 0x4C8 JUMPI DUP1 PUSH4 0x9A70B466 EQ PUSH2 0x4E6 JUMPI DUP1 PUSH4 0x9EAD7222 EQ PUSH2 0x504 JUMPI DUP1 PUSH4 0xA34CCC20 EQ PUSH2 0x534 JUMPI PUSH2 0x1F0 JUMP JUMPDEST DUP1 PUSH4 0x530F278F GT PUSH2 0x187 JUMPI DUP1 PUSH4 0x6BB67073 GT PUSH2 0x156 JUMPI DUP1 PUSH4 0x6BB67073 EQ PUSH2 0x418 JUMPI DUP1 PUSH4 0x6D4B76D5 EQ PUSH2 0x448 JUMPI DUP1 PUSH4 0x8491FBAA EQ PUSH2 0x478 JUMPI DUP1 PUSH4 0x8C7982F8 EQ PUSH2 0x496 JUMPI PUSH2 0x1F0 JUMP JUMPDEST DUP1 PUSH4 0x530F278F EQ PUSH2 0x366 JUMPI DUP1 PUSH4 0x538C3C5C EQ PUSH2 0x396 JUMPI DUP1 PUSH4 0x5DFBD918 EQ PUSH2 0x3B4 JUMPI DUP1 PUSH4 0x683D8CBB EQ PUSH2 0x3E5 JUMPI PUSH2 0x1F0 JUMP JUMPDEST DUP1 PUSH4 0x474DA79A GT PUSH2 0x1C3 JUMPI DUP1 PUSH4 0x474DA79A EQ PUSH2 0x2B7 JUMPI DUP1 PUSH4 0x4A262B28 EQ PUSH2 0x2E7 JUMPI DUP1 PUSH4 0x4B7EA401 EQ PUSH2 0x318 JUMPI DUP1 PUSH4 0x5112BA98 EQ PUSH2 0x336 JUMPI PUSH2 0x1F0 JUMP JUMPDEST DUP1 PUSH4 0xF031F65 EQ PUSH2 0x1F5 JUMPI DUP1 PUSH4 0x23C8504D EQ PUSH2 0x225 JUMPI DUP1 PUSH4 0x250DEA53 EQ PUSH2 0x255 JUMPI DUP1 PUSH4 0x327D4263 EQ PUSH2 0x287 JUMPI JUMPDEST PUSH1 0x0 DUP1 REVERT JUMPDEST PUSH2 0x20F PUSH1 0x4 DUP1 CALLDATASIZE SUB DUP2 ADD SWAP1 PUSH2 0x20A SWAP2 SWAP1 PUSH2 0x2D20 JUMP JUMPDEST PUSH2 0x787 JUMP JUMPDEST PUSH1 0x40 MLOAD PUSH2 0x21C SWAP2 SWAP1 PUSH2 0x2DE6 JUMP JUMPDEST PUSH1 0x40 MLOAD DUP1 SWAP2 SUB SWAP1 RETURN JUMPDEST PUSH2 0x23F PUSH1 0x4 DUP1 CALLDATASIZE SUB DUP2 ADD SWAP1 PUSH2 0x23A SWAP2 SWAP1 PUSH2 0x2D20 JUMP JUMPDEST PUSH2 0x827 JUMP JUMPDEST PUSH1 0x40 MLOAD PUSH2 0x24C SWAP2 SWAP1 PUSH2 0x2E21 JUMP JUMPDEST PUSH1 0x40 MLOAD DUP1 SWAP2 SUB SWAP1 RETURN JUMPDEST PUSH2 0x26F PUSH1 0x4 DUP1 CALLDATASIZE SUB DUP2 ADD SWAP1 PUSH2 0x26A SWAP2 SWAP1 PUSH2 0x2E9A JUMP JUMPDEST PUSH2 0x83F JUMP JUMPDEST PUSH1 0x40 MLOAD PUSH2 0x27E SWAP4 SWAP3 SWAP2 SWAP1 PUSH2 0x2EF2 JUMP JUMPDEST PUSH1 0x40 MLOAD DUP1 SWAP2 SUB SWAP1 RETURN JUMPDEST PUSH2 0x2A1 PUSH1 0x4 DUP1 CALLDATASIZE SUB DUP2 ADD SWAP1 PUSH2 0x29C SWAP2 SWAP1 PUSH2 0x2D20 JUMP JUMPDEST PUSH2 0x8B6 JUMP JUMPDEST PUSH1 0x40 MLOAD PUSH2 0x2AE SWAP2 SWAP1 PUSH2 0x2F44 JUMP JUMPDEST PUSH1 0x40 MLOAD DUP1 SWAP2 SUB SWAP1 RETURN JUMPDEST PUSH2 0x2D1 PUSH1 0x4 DUP1 CALLDATASIZE SUB DUP2 ADD SWAP1 PUSH2 0x2CC SWAP2 SWAP1 PUSH2 0x2F8B JUMP JUMPDEST PUSH2 0x8D6 JUMP JUMPDEST PUSH1 0x40 MLOAD PUSH2 0x2DE SWAP2 SWAP1 PUSH2 0x2FB8 JUMP JUMPDEST PUSH1 0x40 MLOAD DUP1 SWAP2 SUB SWAP1 RETURN JUMPDEST PUSH2 0x301 PUSH1 0x4 DUP1 CALLDATASIZE SUB DUP2 ADD SWAP1 PUSH2 0x2FC SWAP2 SWAP1 PUSH2 0x3144 JUMP JUMPDEST PUSH2 0x915 JUMP JUMPDEST PUSH1 0x40 MLOAD PUSH2 0x30F SWAP3 SWAP2 SWAP1 PUSH2 0x31F8 JUMP JUMPDEST PUSH1 0x40 MLOAD DUP1 SWAP2 SUB SWAP1 RETURN JUMPDEST PUSH2 0x320 PUSH2 0xBA1 JUMP JUMPDEST PUSH1 0x40 MLOAD PUSH2 0x32D SWAP2 SWAP1 PUSH2 0x3221 JUMP JUMPDEST PUSH1 0x40 MLOAD DUP1 SWAP2 SUB SWAP1 RETURN JUMPDEST PUSH2 0x350 PUSH1 0x4 DUP1 CALLDATASIZE SUB DUP2 ADD SWAP1 PUSH2 0x34B SWAP2 SWAP1 PUSH2 0x323C JUMP JUMPDEST PUSH2 0xBB4 JUMP JUMPDEST PUSH1 0x40 MLOAD PUSH2 0x35D SWAP2 SWAP1 PUSH2 0x2E21 JUMP JUMPDEST PUSH1 0x40 MLOAD DUP1 SWAP2 SUB SWAP1 RETURN JUMPDEST PUSH2 0x380 PUSH1 0x4 DUP1 CALLDATASIZE SUB DUP2 ADD SWAP1 PUSH2 0x37B SWAP2 SWAP1 PUSH2 0x2F8B JUMP JUMPDEST PUSH2 0xBD9 JUMP JUMPDEST PUSH1 0x40 MLOAD PUSH2 0x38D SWAP2 SWAP1 PUSH2 0x2E21 JUMP JUMPDEST PUSH1 0x40 MLOAD DUP1 SWAP2 SUB SWAP1 RETURN JUMPDEST PUSH2 0x39E PUSH2 0xBF1 JUMP JUMPDEST PUSH1 0x40 MLOAD PUSH2 0x3AB SWAP2 SWAP1 PUSH2 0x329F JUMP JUMPDEST PUSH1 0x40 MLOAD DUP1 SWAP2 SUB SWAP1 RETURN JUMPDEST PUSH2 0x3CE PUSH1 0x4 DUP1 CALLDATASIZE SUB DUP2 ADD SWAP1 PUSH2 0x3C9 SWAP2 SWAP1 PUSH2 0x32BA JUMP JUMPDEST PUSH2 0xC0B JUMP JUMPDEST PUSH1 0x40 MLOAD PUSH2 0x3DC SWAP3 SWAP2 SWAP1 PUSH2 0x3325 JUMP JUMPDEST PUSH1 0x40 MLOAD DUP1 SWAP2 SUB SWAP1 RETURN JUMPDEST PUSH2 0x3FF PUSH1 0x4 DUP1 CALLDATASIZE SUB DUP2 ADD SWAP1 PUSH2 0x3FA SWAP2 SWAP1 PUSH2 0x2D20 JUMP JUMPDEST PUSH2 0xC65 JUMP JUMPDEST PUSH1 0x40 MLOAD PUSH2 0x40F SWAP5 SWAP4 SWAP3 SWAP2 SWAP1 PUSH2 0x335D JUMP JUMPDEST PUSH1 0x40 MLOAD DUP1 SWAP2 SUB SWAP1 RETURN JUMPDEST PUSH2 0x432 PUSH1 0x4 DUP1 CALLDATASIZE SUB DUP2 ADD SWAP1 PUSH2 0x42D SWAP2 SWAP1 PUSH2 0x2D20 JUMP JUMPDEST PUSH2 0xCB5 JUMP JUMPDEST PUSH1 0x40 MLOAD PUSH2 0x43F SWAP2 SWAP1 PUSH2 0x2F44 JUMP JUMPDEST PUSH1 0x40 MLOAD DUP1 SWAP2 SUB SWAP1 RETURN JUMPDEST PUSH2 0x462 PUSH1 0x4 DUP1 CALLDATASIZE SUB DUP2 ADD SWAP1 PUSH2 0x45D SWAP2 SWAP1 PUSH2 0x2F8B JUMP JUMPDEST PUSH2 0xCD5 JUMP JUMPDEST PUSH1 0x40 MLOAD PUSH2 0x46F SWAP2 SWAP1 PUSH2 0x2FB8 JUMP JUMPDEST PUSH1 0x40 MLOAD DUP1 SWAP2 SUB SWAP1 RETURN JUMPDEST PUSH2 0x480 PUSH2 0xD14 JUMP JUMPDEST PUSH1 0x40 MLOAD PUSH2 0x48D SWAP2 SWAP1 PUSH2 0x2F44 JUMP JUMPDEST PUSH1 0x40 MLOAD DUP1 SWAP2 SUB SWAP1 RETURN JUMPDEST PUSH2 0x4B0 PUSH1 0x4 DUP1 CALLDATASIZE SUB DUP2 ADD SWAP1 PUSH2 0x4AB SWAP2 SWAP1 PUSH2 0x2F8B JUMP JUMPDEST PUSH2 0xD27 JUMP JUMPDEST PUSH1 0x40 MLOAD PUSH2 0x4BF SWAP4 SWAP3 SWAP2 SWAP1 PUSH2 0x33A2 JUMP JUMPDEST PUSH1 0x40 MLOAD DUP1 SWAP2 SUB SWAP1 RETURN JUMPDEST PUSH2 0x4D0 PUSH2 0xD65 JUMP JUMPDEST PUSH1 0x40 MLOAD PUSH2 0x4DD SWAP2 SWAP1 PUSH2 0x2FB8 JUMP JUMPDEST PUSH1 0x40 MLOAD DUP1 SWAP2 SUB SWAP1 RETURN JUMPDEST PUSH2 0x4EE PUSH2 0xD8B JUMP JUMPDEST PUSH1 0x40 MLOAD PUSH2 0x4FB SWAP2 SWAP1 PUSH2 0x33D9 JUMP JUMPDEST PUSH1 0x40 MLOAD DUP1 SWAP2 SUB SWAP1 RETURN JUMPDEST PUSH2 0x51E PUSH1 0x4 DUP1 CALLDATASIZE SUB DUP2 ADD SWAP1 PUSH2 0x519 SWAP2 SWAP1 PUSH2 0x2F8B JUMP JUMPDEST PUSH2 0xD91 JUMP JUMPDEST PUSH1 0x40 MLOAD PUSH2 0x52B SWAP2 SWAP1 PUSH2 0x2FB8 JUMP JUMPDEST PUSH1 0x40 MLOAD DUP1 SWAP2 SUB SWAP1 RETURN JUMPDEST PUSH2 0x54E PUSH1 0x4 DUP1 CALLDATASIZE SUB DUP2 ADD SWAP1 PUSH2 0x549 SWAP2 SWAP1 PUSH2 0x3454 JUMP JUMPDEST PUSH2 0xDD0 JUMP JUMPDEST PUSH1 0x40 MLOAD PUSH2 0x55C SWAP3 SWAP2 SWAP1 PUSH2 0x34CC JUMP JUMPDEST PUSH1 0x40 MLOAD DUP1 SWAP2 SUB SWAP1 RETURN JUMPDEST PUSH2 0x57F PUSH1 0x4 DUP1 CALLDATASIZE SUB DUP2 ADD SWAP1 PUSH2 0x57A SWAP2 SWAP1 PUSH2 0x2E9A JUMP JUMPDEST PUSH2 0xEF6 JUMP JUMPDEST PUSH1 0x40 MLOAD PUSH2 0x590 SWAP6 SWAP5 SWAP4 SWAP3 SWAP2 SWAP1 PUSH2 0x354A JUMP JUMPDEST PUSH1 0x40 MLOAD DUP1 SWAP2 SUB SWAP1 RETURN JUMPDEST PUSH2 0x5A1 PUSH2 0xFE1 JUMP JUMPDEST PUSH1 0x40 MLOAD PUSH2 0x5AE SWAP2 SWAP1 PUSH2 0x329F JUMP JUMPDEST PUSH1 0x40 MLOAD DUP1 SWAP2 SUB SWAP1 RETURN JUMPDEST PUSH2 0x5D1 PUSH1 0x4 DUP1 CALLDATASIZE SUB DUP2 ADD SWAP1 PUSH2 0x5CC SWAP2 SWAP1 PUSH2 0x2F8B JUMP JUMPDEST PUSH2 0xFFB JUMP JUMPDEST PUSH1 0x40 MLOAD PUSH2 0x5DE SWAP2 SWAP1 PUSH2 0x2DE6 JUMP JUMPDEST PUSH1 0x40 MLOAD DUP1 SWAP2 SUB SWAP1 RETURN JUMPDEST PUSH2 0x601 PUSH1 0x4 DUP1 CALLDATASIZE SUB DUP2 ADD SWAP1 PUSH2 0x5FC SWAP2 SWAP1 PUSH2 0x2F8B JUMP JUMPDEST PUSH2 0x10A7 JUMP JUMPDEST PUSH1 0x40 MLOAD PUSH2 0x60E SWAP2 SWAP1 PUSH2 0x2FB8 JUMP JUMPDEST PUSH1 0x40 MLOAD DUP1 SWAP2 SUB SWAP1 RETURN JUMPDEST PUSH2 0x631 PUSH1 0x4 DUP1 CALLDATASIZE SUB DUP2 ADD SWAP1 PUSH2 0x62C SWAP2 SWAP1 PUSH2 0x35A4 JUMP JUMPDEST PUSH2 0x10DD JUMP JUMPDEST PUSH1 0x40 MLOAD PUSH2 0x63E SWAP2 SWAP1 PUSH2 0x35D1 JUMP JUMPDEST PUSH1 0x40 MLOAD DUP1 SWAP2 SUB SWAP1 RETURN JUMPDEST PUSH2 0x661 PUSH1 0x4 DUP1 CALLDATASIZE SUB DUP2 ADD SWAP1 PUSH2 0x65C SWAP2 SWAP1 PUSH2 0x378D JUMP JUMPDEST PUSH2 0x1124 JUMP JUMPDEST PUSH1 0x40 MLOAD PUSH2 0x66E SWAP2 SWAP1 PUSH2 0x33D9 JUMP JUMPDEST PUSH1 0x40 MLOAD DUP1 SWAP2 SUB SWAP1 RETURN JUMPDEST PUSH2 0x691 PUSH1 0x4 DUP1 CALLDATASIZE SUB DUP2 ADD SWAP1 PUSH2 0x68C SWAP2 SWAP1 PUSH2 0x37E9 JUMP JUMPDEST PUSH2 0x13D8 JUMP JUMPDEST PUSH1 0x40 MLOAD PUSH2 0x69E SWAP2 SWAP1 PUSH2 0x3A05 JUMP JUMPDEST PUSH1 0x40 MLOAD DUP1 SWAP2 SUB SWAP1 RETURN JUMPDEST PUSH2 0x6C1 PUSH1 0x4 DUP1 CALLDATASIZE SUB DUP2 ADD SWAP1 PUSH2 0x6BC SWAP2 SWAP1 PUSH2 0x3B74 JUMP JUMPDEST PUSH2 0x1DB5 JUMP JUMPDEST PUSH1 0x40 MLOAD PUSH2 0x6CE SWAP2 SWAP1 PUSH2 0x33D9 JUMP JUMPDEST PUSH1 0x40 MLOAD DUP1 SWAP2 SUB SWAP1 RETURN JUMPDEST PUSH2 0x6F1 PUSH1 0x4 DUP1 CALLDATASIZE SUB DUP2 ADD SWAP1 PUSH2 0x6EC SWAP2 SWAP1 PUSH2 0x3E99 JUMP JUMPDEST PUSH2 0x1E0F JUMP JUMPDEST PUSH1 0x40 MLOAD PUSH2 0x6FF SWAP3 SWAP2 SWAP1 PUSH2 0x31F8 JUMP JUMPDEST PUSH1 0x40 MLOAD DUP1 SWAP2 SUB SWAP1 RETURN JUMPDEST PUSH2 0x722 PUSH1 0x4 DUP1 CALLDATASIZE SUB DUP2 ADD SWAP1 PUSH2 0x71D SWAP2 SWAP1 PUSH2 0x3F21 JUMP JUMPDEST PUSH2 0x231A JUMP JUMPDEST PUSH1 0x40 MLOAD PUSH2 0x730 SWAP3 SWAP2 SWAP1 PUSH2 0x3F90 JUMP JUMPDEST PUSH1 0x40 MLOAD DUP1 SWAP2 SUB SWAP1 RETURN JUMPDEST PUSH2 0x741 PUSH2 0x2562 JUMP JUMPDEST PUSH1 0x40 MLOAD PUSH2 0x74E SWAP2 SWAP1 PUSH2 0x33D9 JUMP JUMPDEST PUSH1 0x40 MLOAD DUP1 SWAP2 SUB SWAP1 RETURN JUMPDEST PUSH2 0x771 PUSH1 0x4 DUP1 CALLDATASIZE SUB DUP2 ADD SWAP1 PUSH2 0x76C SWAP2 SWAP1 PUSH2 0x3FB9 JUMP JUMPDEST PUSH2 0x25FD JUMP JUMPDEST PUSH1 0x40 MLOAD PUSH2 0x77E SWAP2 SWAP1 PUSH2 0x33D9 JUMP JUMPDEST PUSH1 0x40 MLOAD DUP1 SWAP2 SUB SWAP1 RETURN JUMPDEST PUSH1 0x8 PUSH1 0x20 MSTORE DUP1 PUSH1 0x0 MSTORE PUSH1 0x40 PUSH1 0x0 KECCAK256 PUSH1 0x0 SWAP2 POP SWAP1 POP DUP1 SLOAD PUSH2 0x7A6 SWAP1 PUSH2 0x4031 JUMP JUMPDEST DUP1 PUSH1 0x1F ADD PUSH1 0x20 DUP1 SWAP2 DIV MUL PUSH1 0x20 ADD PUSH1 0x40 MLOAD SWAP1 DUP2 ADD PUSH1 0x40 MSTORE DUP1 SWAP3 SWAP2 SWAP1 DUP2 DUP2 MSTORE PUSH1 0x20 ADD DUP3 DUP1 SLOAD PUSH2 0x7D2 SWAP1 PUSH2 0x4031 JUMP JUMPDEST DUP1 ISZERO PUSH2 0x81F JUMPI DUP1 PUSH1 0x1F LT PUSH2 0x7F4 JUMPI PUSH2 0x100 DUP1 DUP4 SLOAD DIV MUL DUP4 MSTORE SWAP2 PUSH1 0x20 ADD SWAP2 PUSH2 0x81F JUMP JUMPDEST DUP3 ADD SWAP2 SWAP1 PUSH1 0x0 MSTORE PUSH1 0x20 PUSH1 0x0 KECCAK256 SWAP1 JUMPDEST DUP2 SLOAD DUP2 MSTORE SWAP1 PUSH1 0x1 ADD SWAP1 PUSH1 0x20 ADD DUP1 DUP4 GT PUSH2 0x802 JUMPI DUP3 SWAP1 SUB PUSH1 0x1F AND DUP3 ADD SWAP2 JUMPDEST POP POP POP POP POP DUP2 JUMP JUMPDEST PUSH1 0xA PUSH1 0x20 MSTORE DUP1 PUSH1 0x0 MSTORE PUSH1 0x40 PUSH1 0x0 KECCAK256 PUSH1 0x0 SWAP2 POP SWAP1 POP SLOAD DUP2 JUMP JUMPDEST PUSH1 0x75 PUSH1 0x20 MSTORE DUP1 PUSH1 0x0 MSTORE PUSH1 0x40 PUSH1 0x0 KECCAK256 PUSH1 0x0 SWAP2 POP SWAP1 POP DUP1 PUSH1 0x0 ADD PUSH1 0x0 SWAP1 SLOAD SWAP1 PUSH2 0x100 EXP SWAP1 DIV PUSH20 0xFFFFFFFFFFFFFFFFFFFFFFFFFFFFFFFFFFFFFFFF AND SWAP1 DUP1 PUSH1 0x1 ADD PUSH1 0x0 SWAP1 SLOAD SWAP1 PUSH2 0x100 EXP SWAP1 DIV PUSH20 0xFFFFFFFFFFFFFFFFFFFFFFFFFFFFFFFFFFFFFFFF AND SWAP1 DUP1 PUSH1 0x1 ADD PUSH1 0x14 SWAP1 SLOAD SWAP1 PUSH2 0x100 EXP SWAP1 DIV PUSH1 0xFF AND SWAP1 POP DUP4 JUMP JUMPDEST PUSH1 0x2 PUSH1 0x20 MSTORE DUP1 PUSH1 0x0 MSTORE PUSH1 0x40 PUSH1 0x0 KECCAK256 PUSH1 0x0 SWAP2 POP SLOAD SWAP1 PUSH2 0x100 EXP SWAP1 DIV PUSH1 0xFF AND DUP2 JUMP JUMPDEST PUSH1 0xD DUP2 DUP2 SLOAD DUP2 LT PUSH2 0x8E6 JUMPI PUSH1 0x0 DUP1 REVERT JUMPDEST SWAP1 PUSH1 0x0 MSTORE PUSH1 0x20 PUSH1 0x0 KECCAK256 ADD PUSH1 0x0 SWAP2 POP SLOAD SWAP1 PUSH2 0x100 EXP SWAP1 DIV PUSH20 0xFFFFFFFFFFFFFFFFFFFFFFFFFFFFFFFFFFFFFFFF AND DUP2 JUMP JUMPDEST PUSH1 0x0 DUP1 PUSH1 0x0 DUP1 PUSH1 0x0 DUP1 PUSH1 0x0 DUP1 DUP11 DUP13 ADD MLOAD SWAP5 POP PUSH1 0x20 DUP12 ADD SWAP11 POP DUP11 DUP13 ADD MLOAD SWAP6 POP PUSH1 0x14 DUP12 ADD SWAP11 POP DUP11 DUP13 ADD MLOAD SWAP4 POP PUSH1 0x14 DUP12 ADD SWAP11 POP PUSH1 0x1 DUP12 ADD SWAP11 POP DUP11 DUP13 ADD MLOAD SWAP2 POP PUSH1 0x1 DUP12 ADD SWAP11 POP PUSH1 0xFF DUP12 DUP14 ADD MLOAD AND PUSH1 0x0 DUP2 GT ISZERO PUSH2 0x973 JUMPI DUP1 DUP13 ADD SWAP12 POP DUP12 DUP14 ADD MLOAD SWAP8 POP JUMPDEST POP PUSH1 0x40 PUSH1 0xFF AND PUSH1 0x40 DUP4 AND PUSH1 0xFF AND EQ ISZERO PUSH2 0x9B8 JUMPI PUSH1 0x1 DUP12 PUSH2 0x993 SWAP2 SWAP1 PUSH2 0x4092 JUMP JUMPDEST SWAP11 POP PUSH2 0x9A0 DUP13 DUP13 DUP10 PUSH2 0x231A JUMP JUMPDEST DUP1 SWAP9 POP DUP2 SWAP13 POP POP POP PUSH1 0x1 DUP12 PUSH2 0x9B5 SWAP2 SWAP1 PUSH2 0x40CC JUMP JUMPDEST SWAP11 POP JUMPDEST PUSH1 0x8 DUP12 ADD SWAP11 POP DUP11 DUP13 ADD MLOAD SWAP3 POP PUSH2 0x9D4 DUP13 DUP13 PUSH4 0xFFFFFFFF AND PUSH2 0xC0B JUMP JUMPDEST DUP2 PUSH4 0xFFFFFFFF AND SWAP2 POP DUP1 SWAP13 POP DUP2 SWAP3 POP POP POP PUSH2 0x9EE DUP4 PUSH2 0x10DD JUMP JUMPDEST SWAP3 POP PUSH1 0x60 DUP4 PUSH4 0xFFFFFFFF AND PUSH16 0xFFFFFFFFFFFFFFFFFFFFFFFFFFFFFFFF AND SWAP1 SHL DUP2 OR SWAP1 POP PUSH2 0xA21 DUP13 DUP13 PUSH4 0xFFFFFFFF AND PUSH2 0xC0B JUMP JUMPDEST DUP1 SWAP13 POP DUP2 SWAP5 POP POP POP PUSH1 0x20 DUP4 PUSH4 0xFFFFFFFF AND PUSH16 0xFFFFFFFFFFFFFFFFFFFFFFFFFFFFFFFF AND SWAP1 SHL DUP2 OR SWAP1 POP PUSH1 0x40 DUP10 PUSH4 0xFFFFFFFF AND PUSH16 0xFFFFFFFFFFFFFFFFFFFFFFFFFFFFFFFF AND SWAP1 SHL DUP2 OR SWAP1 POP PUSH1 0x1 DUP12 ADD SWAP11 POP DUP11 DUP13 ADD MLOAD SWAP2 POP PUSH1 0x1 DUP3 PUSH1 0xFF AND EQ ISZERO PUSH2 0xA8D JUMPI PUSH1 0x8 PUSH1 0x14 DUP13 ADD ADD SWAP11 POP JUMPDEST DUP6 DUP11 EQ DUP1 ISZERO PUSH2 0xAE7 JUMPI POP PUSH32 0x0 PUSH20 0xFFFFFFFFFFFFFFFFFFFFFFFFFFFFFFFFFFFFFFFF AND DUP6 PUSH20 0xFFFFFFFFFFFFFFFFFFFFFFFFFFFFFFFFFFFFFFFF AND EQ JUMPDEST DUP1 ISZERO PUSH2 0xB3E JUMPI POP PUSH32 0x0 PUSH20 0xFFFFFFFFFFFFFFFFFFFFFFFFFFFFFFFFFFFFFFFF AND DUP5 PUSH20 0xFFFFFFFFFFFFFFFFFFFFFFFFFFFFFFFFFFFFFFFF AND EQ JUMPDEST PUSH2 0xB7D JUMPI PUSH1 0x40 MLOAD PUSH32 0x8C379A000000000000000000000000000000000000000000000000000000000 DUP2 MSTORE PUSH1 0x4 ADD PUSH2 0xB74 SWAP1 PUSH2 0x4172 JUMP JUMPDEST PUSH1 0x40 MLOAD DUP1 SWAP2 SUB SWAP1 REVERT JUMPDEST DUP1 PUSH16 0xFFFFFFFFFFFFFFFFFFFFFFFFFFFFFFFF AND SWAP8 POP POP POP POP POP POP POP SWAP5 POP SWAP5 SWAP3 POP POP POP JUMP JUMPDEST PUSH1 0x73 PUSH1 0x0 SWAP1 SLOAD SWAP1 PUSH2 0x100 EXP SWAP1 DIV PUSH1 0xFF AND DUP2 JUMP JUMPDEST PUSH1 0xB PUSH1 0x20 MSTORE DUP2 PUSH1 0x0 MSTORE PUSH1 0x40 PUSH1 0x0 KECCAK256 PUSH1 0x20 MSTORE DUP1 PUSH1 0x0 MSTORE PUSH1 0x40 PUSH1 0x0 KECCAK256 PUSH1 0x0 SWAP2 POP SWAP2 POP POP SLOAD DUP2 JUMP JUMPDEST PUSH1 0x1 PUSH1 0x20 MSTORE DUP1 PUSH1 0x0 MSTORE PUSH1 0x40 PUSH1 0x0 KECCAK256 PUSH1 0x0 SWAP2 POP SWAP1 POP SLOAD DUP2 JUMP JUMPDEST PUSH1 0x7 PUSH1 0x8 SWAP1 SLOAD SWAP1 PUSH2 0x100 EXP SWAP1 DIV PUSH8 0xFFFFFFFFFFFFFFFF AND DUP2 JUMP JUMPDEST PUSH1 0x0 DUP1 PUSH1 0x0 PUSH1 0xA DUP5 ADD DUP5 PUSH1 0x1 DUP7 ADD SWAP4 POP JUMPDEST DUP2 DUP2 LT ISZERO PUSH2 0xC5B JUMPI DUP4 DUP8 ADD MLOAD SWAP3 POP PUSH1 0x1 DUP2 ADD SWAP1 POP PUSH1 0x7F DUP4 AND DUP6 PUSH1 0x7 SHL OR SWAP5 POP PUSH1 0x80 DUP1 DUP5 AND EQ PUSH2 0xC4A JUMPI PUSH2 0xC5B JUMP JUMPDEST PUSH1 0x1 DUP6 ADD SWAP5 POP PUSH1 0x1 DUP5 ADD SWAP4 POP PUSH2 0xC1C JUMP JUMPDEST POP POP POP SWAP3 POP SWAP3 SWAP1 POP JUMP JUMPDEST PUSH1 0x4 PUSH1 0x20 MSTORE DUP1 PUSH1 0x0 MSTORE PUSH1 0x40 PUSH1 0x0 KECCAK256 PUSH1 0x0 SWAP2 POP SWAP1 POP DUP1 PUSH1 0x0 ADD SLOAD SWAP1 DUP1 PUSH1 0x1 ADD SLOAD SWAP1 DUP1 PUSH1 0x2 ADD PUSH1 0x0 SWAP1 SLOAD SWAP1 PUSH2 0x100 EXP SWAP1 DIV PUSH4 0xFFFFFFFF AND SWAP1 DUP1 PUSH1 0x2 ADD PUSH1 0x4 SWAP1 SLOAD SWAP1 PUSH2 0x100 EXP SWAP1 DIV PUSH4 0xFFFFFFFF AND SWAP1 POP DUP5 JUMP JUMPDEST PUSH1 0x74 PUSH1 0x20 MSTORE DUP1 PUSH1 0x0 MSTORE PUSH1 0x40 PUSH1 0x0 KECCAK256 PUSH1 0x0 SWAP2 POP SLOAD SWAP1 PUSH2 0x100 EXP SWAP1 DIV PUSH1 0xFF AND DUP2 JUMP JUMPDEST PUSH1 0x77 DUP2 DUP2 SLOAD DUP2 LT PUSH2 0xCE5 JUMPI PUSH1 0x0 DUP1 REVERT JUMPDEST SWAP1 PUSH1 0x0 MSTORE PUSH1 0x20 PUSH1 0x0 KECCAK256 ADD PUSH1 0x0 SWAP2 POP SLOAD SWAP1 PUSH2 0x100 EXP SWAP1 DIV PUSH20 0xFFFFFFFFFFFFFFFFFFFFFFFFFFFFFFFFFFFFFFFF AND DUP2 JUMP JUMPDEST PUSH1 0x7 PUSH1 0x10 SWAP1 SLOAD SWAP1 PUSH2 0x100 EXP SWAP1 DIV PUSH1 0xFF AND DUP2 JUMP JUMPDEST PUSH1 0x0 PUSH1 0x20 MSTORE DUP1 PUSH1 0x0 MSTORE PUSH1 0x40 PUSH1 0x0 KECCAK256 PUSH1 0x0 SWAP2 POP SWAP1 POP DUP1 PUSH1 0x0 ADD SLOAD SWAP1 DUP1 PUSH1 0x1 ADD SLOAD SWAP1 DUP1 PUSH1 0x2 ADD PUSH1 0x0 SWAP1 SLOAD SWAP1 PUSH2 0x100 EXP SWAP1 DIV PUSH8 0xFFFFFFFFFFFFFFFF AND SWAP1 POP DUP4 JUMP JUMPDEST PUSH1 0x79 PUSH1 0x0 SWAP1 SLOAD SWAP1 PUSH2 0x100 EXP SWAP1 DIV PUSH20 0xFFFFFFFFFFFFFFFFFFFFFFFFFFFFFFFFFFFFFFFF AND DUP2 JUMP JUMPDEST PUSH1 0x6 SLOAD DUP2 JUMP JUMPDEST PUSH1 0x5 DUP2 DUP2 SLOAD DUP2 LT PUSH2 0xDA1 JUMPI PUSH1 0x0 DUP1 REVERT JUMPDEST SWAP1 PUSH1 0x0 MSTORE PUSH1 0x20 PUSH1 0x0 KECCAK256 ADD PUSH1 0x0 SWAP2 POP SLOAD SWAP1 PUSH2 0x100 EXP SWAP1 DIV PUSH20 0xFFFFFFFFFFFFFFFFFFFFFFFFFFFFFFFFFFFFFFFF AND DUP2 JUMP JUMPDEST PUSH1 0x0 DUP1 PUSH1 0x0 DUP1 DUP6 DUP6 DUP2 ADD SWAP1 PUSH2 0xDE5 SWAP2 SWAP1 PUSH2 0x3E99 JUMP JUMPDEST SWAP2 POP SWAP2 POP PUSH1 0x0 DUP1 PUSH1 0x0 DUP1 PUSH1 0x0 PUSH2 0xDFB DUP8 DUP8 PUSH2 0x1E0F JUMP JUMPDEST DUP1 SWAP4 POP DUP2 SWAP5 POP POP POP DUP3 SWAP1 POP PUSH1 0x0 PUSH2 0xE11 DUP9 PUSH2 0x25FD JUMP JUMPDEST SWAP1 POP PUSH1 0x0 DUP1 SHL DUP2 EQ ISZERO PUSH2 0xE59 JUMPI PUSH1 0x40 MLOAD PUSH32 0x8C379A000000000000000000000000000000000000000000000000000000000 DUP2 MSTORE PUSH1 0x4 ADD PUSH2 0xE50 SWAP1 PUSH2 0x41DE JUMP JUMPDEST PUSH1 0x40 MLOAD DUP1 SWAP2 SUB SWAP1 REVERT JUMPDEST PUSH1 0x3 PUSH1 0xFF AND DUP9 PUSH1 0x0 ADD MLOAD PUSH1 0x40 ADD MLOAD MLOAD EQ PUSH2 0xE72 JUMPI PUSH1 0x0 DUP1 REVERT JUMPDEST PUSH2 0xE84 DUP2 DUP10 PUSH1 0x0 ADD MLOAD PUSH1 0x40 ADD MLOAD PUSH2 0x1DB5 JUMP JUMPDEST SWAP5 POP PUSH2 0xE8E PUSH2 0x2562 JUMP JUMPDEST SWAP6 POP PUSH1 0x0 DUP1 SHL DUP6 EQ DUP1 PUSH2 0xEA1 JUMPI POP DUP6 DUP6 EQ ISZERO JUMPDEST ISZERO PUSH2 0xEE1 JUMPI PUSH1 0x40 MLOAD PUSH32 0x8C379A000000000000000000000000000000000000000000000000000000000 DUP2 MSTORE PUSH1 0x4 ADD PUSH2 0xED8 SWAP1 PUSH2 0x424A JUMP JUMPDEST PUSH1 0x40 MLOAD DUP1 SWAP2 SUB SWAP1 REVERT JUMPDEST DUP2 DUP4 SWAP10 POP SWAP10 POP POP POP POP POP POP POP POP POP SWAP3 POP SWAP3 SWAP1 POP JUMP JUMPDEST PUSH1 0x3 PUSH1 0x20 MSTORE DUP1 PUSH1 0x0 MSTORE PUSH1 0x40 PUSH1 0x0 KECCAK256 PUSH1 0x0 SWAP2 POP SWAP1 POP DUP1 PUSH1 0x0 ADD PUSH1 0x0 SWAP1 SLOAD SWAP1 PUSH2 0x100 EXP SWAP1 DIV PUSH20 0xFFFFFFFFFFFFFFFFFFFFFFFFFFFFFFFFFFFFFFFF AND SWAP1 DUP1 PUSH1 0x0 ADD PUSH1 0x14 SWAP1 SLOAD SWAP1 PUSH2 0x100 EXP SWAP1 DIV PUSH1 0xFF AND SWAP1 DUP1 PUSH1 0x1 ADD SLOAD SWAP1 DUP1 PUSH1 0x2 ADD DUP1 SLOAD PUSH2 0xF58 SWAP1 PUSH2 0x4031 JUMP JUMPDEST DUP1 PUSH1 0x1F ADD PUSH1 0x20 DUP1 SWAP2 DIV MUL PUSH1 0x20 ADD PUSH1 0x40 MLOAD SWAP1 DUP2 ADD PUSH1 0x40 MSTORE DUP1 SWAP3 SWAP2 SWAP1 DUP2 DUP2 MSTORE PUSH1 0x20 ADD DUP3 DUP1 SLOAD PUSH2 0xF84 SWAP1 PUSH2 0x4031 JUMP JUMPDEST DUP1 ISZERO PUSH2 0xFD1 JUMPI DUP1 PUSH1 0x1F LT PUSH2 0xFA6 JUMPI PUSH2 0x100 DUP1 DUP4 SLOAD DIV MUL DUP4 MSTORE SWAP2 PUSH1 0x20 ADD SWAP2 PUSH2 0xFD1 JUMP JUMPDEST DUP3 ADD SWAP2 SWAP1 PUSH1 0x0 MSTORE PUSH1 0x20 PUSH1 0x0 KECCAK256 SWAP1 JUMPDEST DUP2 SLOAD DUP2 MSTORE SWAP1 PUSH1 0x1 ADD SWAP1 PUSH1 0x20 ADD DUP1 DUP4 GT PUSH2 0xFB4 JUMPI DUP3 SWAP1 SUB PUSH1 0x1F AND DUP3 ADD SWAP2 JUMPDEST POP POP POP POP POP SWAP1 DUP1 PUSH1 0x3 ADD SLOAD SWAP1 POP DUP6 JUMP JUMPDEST PUSH1 0x7 PUSH1 0x0 SWAP1 SLOAD SWAP1 PUSH2 0x100 EXP SWAP1 DIV PUSH8 0xFFFFFFFFFFFFFFFF AND DUP2 JUMP JUMPDEST PUSH1 0x78 DUP2 DUP2 SLOAD DUP2 LT PUSH2 0x100B JUMPI PUSH1 0x0 DUP1 REVERT JUMPDEST SWAP1 PUSH1 0x0 MSTORE PUSH1 0x20 PUSH1 0x0 KECCAK256 ADD PUSH1 0x0 SWAP2 POP SWAP1 POP DUP1 SLOAD PUSH2 0x1026 SWAP1 PUSH2 0x4031 JUMP JUMPDEST DUP1 PUSH1 0x1F ADD PUSH1 0x20 DUP1 SWAP2 DIV MUL PUSH1 0x20 ADD PUSH1 0x40 MLOAD SWAP1 DUP2 ADD PUSH1 0x40 MSTORE DUP1 SWAP3 SWAP2 SWAP1 DUP2 DUP2 MSTORE PUSH1 0x20 ADD DUP3 DUP1 SLOAD PUSH2 0x1052 SWAP1 PUSH2 0x4031 JUMP JUMPDEST DUP1 ISZERO PUSH2 0x109F JUMPI DUP1 PUSH1 0x1F LT PUSH2 0x1074 JUMPI PUSH2 0x100 DUP1 DUP4 SLOAD DIV MUL DUP4 MSTORE SWAP2 PUSH1 0x20 ADD SWAP2 PUSH2 0x109F JUMP JUMPDEST DUP3 ADD SWAP2 SWAP1 PUSH1 0x0 MSTORE PUSH1 0x20 PUSH1 0x0 KECCAK256 SWAP1 JUMPDEST DUP2 SLOAD DUP2 MSTORE SWAP1 PUSH1 0x1 ADD SWAP1 PUSH1 0x20 ADD DUP1 DUP4 GT PUSH2 0x1082 JUMPI DUP3 SWAP1 SUB PUSH1 0x1F AND DUP3 ADD SWAP2 JUMPDEST POP POP POP POP POP DUP2 JUMP JUMPDEST PUSH1 0xF DUP2 PUSH1 0x64 DUP2 LT PUSH2 0x10B7 JUMPI PUSH1 0x0 DUP1 REVERT JUMPDEST ADD PUSH1 0x0 SWAP2 POP SLOAD SWAP1 PUSH2 0x100 EXP SWAP1 DIV PUSH20 0xFFFFFFFFFFFFFFFFFFFFFFFFFFFFFFFFFFFFFFFF AND DUP2 JUMP JUMPDEST PUSH1 0x0 PUSH1 0x8 PUSH3 0xFF00FF DUP4 AND PUSH4 0xFFFFFFFF AND SWAP1 SHL PUSH1 0x8 PUSH4 0xFF00FF00 DUP5 AND PUSH4 0xFFFFFFFF AND SWAP1 SHR OR SWAP2 POP PUSH1 0x10 DUP3 PUSH4 0xFFFFFFFF AND SWAP1 SHL PUSH1 0x10 DUP4 PUSH4 0xFFFFFFFF AND SWAP1 SHR OR SWAP2 POP DUP2 SWAP1 POP SWAP2 SWAP1 POP JUMP JUMPDEST PUSH1 0x0 DUP1 DUP3 PUSH1 0x80 ADD MLOAD MLOAD GT PUSH2 0x116D JUMPI PUSH1 0x40 MLOAD PUSH32 0x8C379A000000000000000000000000000000000000000000000000000000000 DUP2 MSTORE PUSH1 0x4 ADD PUSH2 0x1164 SWAP1 PUSH2 0x42B6 JUMP JUMPDEST PUSH1 0x40 MLOAD DUP1 SWAP2 SUB SWAP1 REVERT JUMPDEST PUSH1 0x0 DUP3 PUSH1 0x80 ADD MLOAD MLOAD SWAP1 POP PUSH1 0x0 DUP5 SWAP1 POP PUSH1 0x60 PUSH1 0x0 PUSH20 0x0 PUSH4 0x6D48BB8D DUP8 PUSH1 0x20 ADD MLOAD DUP9 PUSH1 0x40 ADD MLOAD DUP10 PUSH1 0x60 ADD MLOAD PUSH1 0x40 MLOAD DUP5 PUSH4 0xFFFFFFFF AND PUSH1 0xE0 SHL DUP2 MSTORE PUSH1 0x4 ADD PUSH2 0x11C7 SWAP4 SWAP3 SWAP2 SWAP1 PUSH2 0x4320 JUMP JUMPDEST PUSH1 0x20 PUSH1 0x40 MLOAD DUP1 DUP4 SUB DUP2 DUP7 DUP1 EXTCODESIZE ISZERO DUP1 ISZERO PUSH2 0x11DF JUMPI PUSH1 0x0 DUP1 REVERT JUMPDEST POP GAS DELEGATECALL ISZERO DUP1 ISZERO PUSH2 0x11F3 JUMPI RETURNDATASIZE PUSH1 0x0 DUP1 RETURNDATACOPY RETURNDATASIZE PUSH1 0x0 REVERT JUMPDEST POP POP POP POP PUSH1 0x40 MLOAD RETURNDATASIZE PUSH1 0x1F NOT PUSH1 0x1F DUP3 ADD AND DUP3 ADD DUP1 PUSH1 0x40 MSTORE POP DUP2 ADD SWAP1 PUSH2 0x1217 SWAP2 SWAP1 PUSH2 0x4383 JUMP JUMPDEST PUSH8 0xFFFFFFFFFFFFFFFF AND SWAP1 POP PUSH1 0x0 JUMPDEST DUP5 DUP2 LT ISZERO PUSH2 0x13CA JUMPI PUSH1 0x0 PUSH1 0x1 DUP4 AND GT ISZERO PUSH2 0x12E2 JUMPI DUP8 DUP8 PUSH1 0x80 ADD MLOAD DUP3 DUP2 MLOAD DUP2 LT PUSH2 0x1252 JUMPI PUSH2 0x1251 PUSH2 0x43B0 JUMP JUMPDEST JUMPDEST PUSH1 0x20 MUL PUSH1 0x20 ADD ADD MLOAD EQ ISZERO PUSH2 0x129B JUMPI PUSH1 0x40 MLOAD PUSH32 0x8C379A000000000000000000000000000000000000000000000000000000000 DUP2 MSTORE PUSH1 0x4 ADD PUSH2 0x1292 SWAP1 PUSH2 0x4451 JUMP JUMPDEST PUSH1 0x40 MLOAD DUP1 SWAP2 SUB SWAP1 REVERT JUMPDEST DUP7 PUSH1 0x80 ADD MLOAD DUP2 DUP2 MLOAD DUP2 LT PUSH2 0x12B2 JUMPI PUSH2 0x12B1 PUSH2 0x43B0 JUMP JUMPDEST JUMPDEST PUSH1 0x20 MUL PUSH1 0x20 ADD ADD MLOAD DUP5 PUSH1 0x40 MLOAD PUSH1 0x20 ADD PUSH2 0x12CC SWAP3 SWAP2 SWAP1 PUSH2 0x4492 JUMP JUMPDEST PUSH1 0x40 MLOAD PUSH1 0x20 DUP2 DUP4 SUB SUB DUP2 MSTORE SWAP1 PUSH1 0x40 MSTORE SWAP3 POP PUSH2 0x1325 JUMP JUMPDEST DUP4 DUP8 PUSH1 0x80 ADD MLOAD DUP3 DUP2 MLOAD DUP2 LT PUSH2 0x12FA JUMPI PUSH2 0x12F9 PUSH2 0x43B0 JUMP JUMPDEST JUMPDEST PUSH1 0x20 MUL PUSH1 0x20 ADD ADD MLOAD PUSH1 0x40 MLOAD PUSH1 0x20 ADD PUSH2 0x1313 SWAP3 SWAP2 SWAP1 PUSH2 0x4492 JUMP JUMPDEST PUSH1 0x40 MLOAD PUSH1 0x20 DUP2 DUP4 SUB SUB DUP2 MSTORE SWAP1 PUSH1 0x40 MSTORE SWAP3 POP JUMPDEST DUP3 PUSH20 0x0 PUSH4 0x2CD0CFF2 SWAP1 SWAP2 PUSH1 0x40 MLOAD DUP3 PUSH4 0xFFFFFFFF AND PUSH1 0xE0 SHL DUP2 MSTORE PUSH1 0x4 ADD PUSH2 0x135E SWAP2 SWAP1 PUSH2 0x4508 JUMP JUMPDEST PUSH1 0x20 PUSH1 0x40 MLOAD DUP1 DUP4 SUB DUP2 DUP7 DUP1 EXTCODESIZE ISZERO DUP1 ISZERO PUSH2 0x1376 JUMPI PUSH1 0x0 DUP1 REVERT JUMPDEST POP GAS DELEGATECALL ISZERO DUP1 ISZERO PUSH2 0x138A JUMPI RETURNDATASIZE PUSH1 0x0 DUP1 RETURNDATACOPY RETURNDATASIZE PUSH1 0x0 REVERT JUMPDEST POP POP POP POP PUSH1 0x40 MLOAD RETURNDATASIZE PUSH1 0x1F NOT PUSH1 0x1F DUP3 ADD AND DUP3 ADD DUP1 PUSH1 0x40 MSTORE POP DUP2 ADD SWAP1 PUSH2 0x13AE SWAP2 SWAP1 PUSH2 0x453F JUMP JUMPDEST SWAP4 POP PUSH1 0x1 DUP3 SWAP1 SHR SWAP2 POP DUP1 DUP1 PUSH2 0x13C2 SWAP1 PUSH2 0x456C JUMP JUMPDEST SWAP2 POP POP PUSH2 0x1226 JUMP JUMPDEST POP DUP3 SWAP5 POP POP POP POP POP SWAP3 SWAP2 POP POP JUMP JUMPDEST PUSH1 0x60 PUSH1 0x0 PUSH1 0x5 DUP1 SLOAD SWAP1 POP SWAP1 POP PUSH2 0x13EC PUSH2 0x2BE2 JUMP JUMPDEST PUSH1 0x0 DUP1 PUSH1 0x1 DUP5 PUSH2 0x13FC SWAP2 SWAP1 PUSH2 0x45B5 JUMP JUMPDEST SWAP1 POP PUSH1 0x0 DUP8 LT ISZERO DUP1 ISZERO PUSH2 0x140E JUMPI POP DUP4 DUP8 LT JUMPDEST ISZERO PUSH2 0x1417 JUMPI DUP7 SWAP2 POP JUMPDEST DUP2 DUP7 GT DUP1 ISZERO PUSH2 0x1425 JUMPI POP DUP4 DUP7 LT JUMPDEST ISZERO PUSH2 0x142E JUMPI DUP6 SWAP1 POP JUMPDEST PUSH1 0x0 PUSH1 0x1 DUP4 DUP4 PUSH2 0x143E SWAP2 SWAP1 PUSH2 0x45B5 JUMP JUMPDEST PUSH2 0x1448 SWAP2 SWAP1 PUSH2 0x45E9 JUMP JUMPDEST PUSH8 0xFFFFFFFFFFFFFFFF DUP2 GT ISZERO PUSH2 0x1461 JUMPI PUSH2 0x1460 PUSH2 0x2FDD JUMP JUMPDEST JUMPDEST PUSH1 0x40 MLOAD SWAP1 DUP1 DUP3 MSTORE DUP1 PUSH1 0x20 MUL PUSH1 0x20 ADD DUP3 ADD PUSH1 0x40 MSTORE DUP1 ISZERO PUSH2 0x149A JUMPI DUP2 PUSH1 0x20 ADD JUMPDEST PUSH2 0x1487 PUSH2 0x2C2A JUMP JUMPDEST DUP2 MSTORE PUSH1 0x20 ADD SWAP1 PUSH1 0x1 SWAP1 SUB SWAP1 DUP2 PUSH2 0x147F JUMPI SWAP1 POP JUMPDEST POP SWAP1 POP PUSH1 0x0 JUMPDEST DUP3 DUP5 GT PUSH2 0x1DA6 JUMPI PUSH1 0x0 PUSH1 0x5 DUP6 DUP2 SLOAD DUP2 LT PUSH2 0x14BD JUMPI PUSH2 0x14BC PUSH2 0x43B0 JUMP JUMPDEST JUMPDEST SWAP1 PUSH1 0x0 MSTORE PUSH1 0x20 PUSH1 0x0 KECCAK256 ADD PUSH1 0x0 SWAP1 SLOAD SWAP1 PUSH2 0x100 EXP SWAP1 DIV PUSH20 0xFFFFFFFFFFFFFFFFFFFFFFFFFFFFFFFFFFFFFFFF AND SWAP1 POP PUSH1 0x3 PUSH1 0x0 DUP3 PUSH20 0xFFFFFFFFFFFFFFFFFFFFFFFFFFFFFFFFFFFFFFFF AND PUSH20 0xFFFFFFFFFFFFFFFFFFFFFFFFFFFFFFFFFFFFFFFF AND DUP2 MSTORE PUSH1 0x20 ADD SWAP1 DUP2 MSTORE PUSH1 0x20 ADD PUSH1 0x0 KECCAK256 PUSH1 0x40 MLOAD DUP1 PUSH1 0xA0 ADD PUSH1 0x40 MSTORE SWAP1 DUP2 PUSH1 0x0 DUP3 ADD PUSH1 0x0 SWAP1 SLOAD SWAP1 PUSH2 0x100 EXP SWAP1 DIV PUSH20 0xFFFFFFFFFFFFFFFFFFFFFFFFFFFFFFFFFFFFFFFF AND PUSH20 0xFFFFFFFFFFFFFFFFFFFFFFFFFFFFFFFFFFFFFFFF AND PUSH20 0xFFFFFFFFFFFFFFFFFFFFFFFFFFFFFFFFFFFFFFFF AND DUP2 MSTORE PUSH1 0x20 ADD PUSH1 0x0 DUP3 ADD PUSH1 0x14 SWAP1 SLOAD SWAP1 PUSH2 0x100 EXP SWAP1 DIV PUSH1 0xFF AND PUSH1 0xFF AND PUSH1 0xFF AND DUP2 MSTORE PUSH1 0x20 ADD PUSH1 0x1 DUP3 ADD SLOAD DUP2 MSTORE PUSH1 0x20 ADD PUSH1 0x2 DUP3 ADD DUP1 SLOAD PUSH2 0x15C1 SWAP1 PUSH2 0x4031 JUMP JUMPDEST DUP1 PUSH1 0x1F ADD PUSH1 0x20 DUP1 SWAP2 DIV MUL PUSH1 0x20 ADD PUSH1 0x40 MLOAD SWAP1 DUP2 ADD PUSH1 0x40 MSTORE DUP1 SWAP3 SWAP2 SWAP1 DUP2 DUP2 MSTORE PUSH1 0x20 ADD DUP3 DUP1 SLOAD PUSH2 0x15ED SWAP1 PUSH2 0x4031 JUMP JUMPDEST DUP1 ISZERO PUSH2 0x163A JUMPI DUP1 PUSH1 0x1F LT PUSH2 0x160F JUMPI PUSH2 0x100 DUP1 DUP4 SLOAD DIV MUL DUP4 MSTORE SWAP2 PUSH1 0x20 ADD SWAP2 PUSH2 0x163A JUMP JUMPDEST DUP3 ADD SWAP2 SWAP1 PUSH1 0x0 MSTORE PUSH1 0x20 PUSH1 0x0 KECCAK256 SWAP1 JUMPDEST DUP2 SLOAD DUP2 MSTORE SWAP1 PUSH1 0x1 ADD SWAP1 PUSH1 0x20 ADD DUP1 DUP4 GT PUSH2 0x161D JUMPI DUP3 SWAP1 SUB PUSH1 0x1F AND DUP3 ADD SWAP2 JUMPDEST POP POP POP POP POP DUP2 MSTORE PUSH1 0x20 ADD PUSH1 0x3 DUP3 ADD SLOAD DUP2 MSTORE POP POP SWAP6 POP DUP1 DUP4 DUP4 DUP2 MLOAD DUP2 LT PUSH2 0x1663 JUMPI PUSH2 0x1662 PUSH2 0x43B0 JUMP JUMPDEST JUMPDEST PUSH1 0x20 MUL PUSH1 0x20 ADD ADD MLOAD PUSH1 0x0 ADD SWAP1 PUSH20 0xFFFFFFFFFFFFFFFFFFFFFFFFFFFFFFFFFFFFFFFF AND SWAP1 DUP2 PUSH20 0xFFFFFFFFFFFFFFFFFFFFFFFFFFFFFFFFFFFFFFFF AND DUP2 MSTORE POP POP DUP6 PUSH1 0x20 ADD MLOAD DUP4 DUP4 DUP2 MLOAD DUP2 LT PUSH2 0x16B9 JUMPI PUSH2 0x16B8 PUSH2 0x43B0 JUMP JUMPDEST JUMPDEST PUSH1 0x20 MUL PUSH1 0x20 ADD ADD MLOAD PUSH1 0x60 ADD SWAP1 PUSH1 0xFF AND SWAP1 DUP2 PUSH1 0xFF AND DUP2 MSTORE POP POP PUSH32 0x0 PUSH20 0xFFFFFFFFFFFFFFFFFFFFFFFFFFFFFFFFFFFFFFFF AND DUP2 PUSH20 0xFFFFFFFFFFFFFFFFFFFFFFFFFFFFFFFFFFFFFFFF AND EQ ISZERO PUSH2 0x17FC JUMPI PUSH1 0x0 DUP4 DUP4 DUP2 MLOAD DUP2 LT PUSH2 0x173A JUMPI PUSH2 0x1739 PUSH2 0x43B0 JUMP JUMPDEST JUMPDEST PUSH1 0x20 MUL PUSH1 0x20 ADD ADD MLOAD PUSH1 0x20 ADD SWAP1 PUSH20 0xFFFFFFFFFFFFFFFFFFFFFFFFFFFFFFFFFFFFFFFF AND SWAP1 DUP2 PUSH20 0xFFFFFFFFFFFFFFFFFFFFFFFFFFFFFFFFFFFFFFFF AND DUP2 MSTORE POP POP DUP6 PUSH1 0x60 ADD MLOAD DUP4 DUP4 DUP2 MLOAD DUP2 LT PUSH2 0x1790 JUMPI PUSH2 0x178F PUSH2 0x43B0 JUMP JUMPDEST JUMPDEST PUSH1 0x20 MUL PUSH1 0x20 ADD ADD MLOAD PUSH1 0x80 ADD DUP2 SWAP1 MSTORE POP PUSH1 0x40 MLOAD DUP1 PUSH1 0x40 ADD PUSH1 0x40 MSTORE DUP1 PUSH1 0x3 DUP2 MSTORE PUSH1 0x20 ADD PUSH32 0x4554480000000000000000000000000000000000000000000000000000000000 DUP2 MSTORE POP DUP4 DUP4 DUP2 MLOAD DUP2 LT PUSH2 0x17E8 JUMPI PUSH2 0x17E7 PUSH2 0x43B0 JUMP JUMPDEST JUMPDEST PUSH1 0x20 MUL PUSH1 0x20 ADD ADD MLOAD PUSH1 0xA0 ADD DUP2 SWAP1 MSTORE POP PUSH2 0x1D84 JUMP JUMPDEST PUSH1 0x20 PUSH4 0xFFFFFFFF AND PUSH1 0x20 DUP8 PUSH1 0x20 ADD MLOAD PUSH1 0xFF AND AND PUSH4 0xFFFFFFFF AND EQ ISZERO PUSH2 0x1C7B JUMPI DUP6 PUSH1 0x0 ADD MLOAD DUP4 DUP4 DUP2 MLOAD DUP2 LT PUSH2 0x1833 JUMPI PUSH2 0x1832 PUSH2 0x43B0 JUMP JUMPDEST JUMPDEST PUSH1 0x20 MUL PUSH1 0x20 ADD ADD MLOAD PUSH1 0x20 ADD SWAP1 PUSH20 0xFFFFFFFFFFFFFFFFFFFFFFFFFFFFFFFFFFFFFFFF AND SWAP1 DUP2 PUSH20 0xFFFFFFFFFFFFFFFFFFFFFFFFFFFFFFFFFFFFFFFF AND DUP2 MSTORE POP POP PUSH1 0x60 DUP7 PUSH1 0x60 ADD MLOAD SWAP1 POP PUSH32 0x2E00000000000000000000000000000000000000000000000000000000000000 DUP2 PUSH1 0x1 DUP2 MLOAD DUP2 LT PUSH2 0x18AF JUMPI PUSH2 0x18AE PUSH2 0x43B0 JUMP JUMPDEST JUMPDEST PUSH1 0x20 ADD ADD MLOAD PUSH1 0xF8 SHR PUSH1 0xF8 SHL PUSH31 0xFFFFFFFFFFFFFFFFFFFFFFFFFFFFFFFFFFFFFFFFFFFFFFFFFFFFFFFFFFFFFF NOT AND EQ DUP1 ISZERO PUSH2 0x1948 JUMPI POP PUSH32 0x2E00000000000000000000000000000000000000000000000000000000000000 DUP2 PUSH1 0x2 DUP2 MLOAD DUP2 LT PUSH2 0x1919 JUMPI PUSH2 0x1918 PUSH2 0x43B0 JUMP JUMPDEST JUMPDEST PUSH1 0x20 ADD ADD MLOAD PUSH1 0xF8 SHR PUSH1 0xF8 SHL PUSH31 0xFFFFFFFFFFFFFFFFFFFFFFFFFFFFFFFFFFFFFFFFFFFFFFFFFFFFFFFFFFFFFF NOT AND EQ JUMPDEST DUP1 ISZERO PUSH2 0x19B3 JUMPI POP PUSH32 0x2E00000000000000000000000000000000000000000000000000000000000000 DUP2 PUSH1 0x3 DUP2 MLOAD DUP2 LT PUSH2 0x1984 JUMPI PUSH2 0x1983 PUSH2 0x43B0 JUMP JUMPDEST JUMPDEST PUSH1 0x20 ADD ADD MLOAD PUSH1 0xF8 SHR PUSH1 0xF8 SHL PUSH31 0xFFFFFFFFFFFFFFFFFFFFFFFFFFFFFFFFFFFFFFFFFFFFFFFFFFFFFFFFFFFFFF NOT AND EQ JUMPDEST ISZERO PUSH2 0x1A26 JUMPI PUSH2 0x19C7 DUP8 PUSH1 0x0 ADD MLOAD PUSH1 0x14 PUSH2 0x2846 JUMP JUMPDEST PUSH2 0x19DF DUP3 PUSH1 0x5 DUP1 DUP6 MLOAD PUSH2 0x19DA SWAP2 SWAP1 PUSH2 0x45B5 JUMP JUMPDEST PUSH2 0x2AC4 JUMP JUMPDEST PUSH1 0x40 MLOAD PUSH1 0x20 ADD PUSH2 0x19F0 SWAP3 SWAP2 SWAP1 PUSH2 0x474F JUMP JUMPDEST PUSH1 0x40 MLOAD PUSH1 0x20 DUP2 DUP4 SUB SUB DUP2 MSTORE SWAP1 PUSH1 0x40 MSTORE DUP5 DUP5 DUP2 MLOAD DUP2 LT PUSH2 0x1A12 JUMPI PUSH2 0x1A11 PUSH2 0x43B0 JUMP JUMPDEST JUMPDEST PUSH1 0x20 MUL PUSH1 0x20 ADD ADD MLOAD PUSH1 0x80 ADD DUP2 SWAP1 MSTORE POP PUSH2 0x1A4E JUMP JUMPDEST DUP7 PUSH1 0x60 ADD MLOAD DUP5 DUP5 DUP2 MLOAD DUP2 LT PUSH2 0x1A3E JUMPI PUSH2 0x1A3D PUSH2 0x43B0 JUMP JUMPDEST JUMPDEST PUSH1 0x20 MUL PUSH1 0x20 ADD ADD MLOAD PUSH1 0x80 ADD DUP2 SWAP1 MSTORE POP JUMPDEST PUSH1 0x0 DUP1 DUP9 PUSH1 0x0 ADD MLOAD PUSH20 0xFFFFFFFFFFFFFFFFFFFFFFFFFFFFFFFFFFFFFFFF AND PUSH1 0x40 MLOAD PUSH1 0x24 ADD PUSH1 0x40 MLOAD PUSH1 0x20 DUP2 DUP4 SUB SUB DUP2 MSTORE SWAP1 PUSH1 0x40 MSTORE PUSH32 0x95D89B4100000000000000000000000000000000000000000000000000000000 PUSH28 0xFFFFFFFFFFFFFFFFFFFFFFFFFFFFFFFFFFFFFFFFFFFFFFFFFFFFFFFF NOT AND PUSH1 0x20 DUP3 ADD DUP1 MLOAD PUSH28 0xFFFFFFFFFFFFFFFFFFFFFFFFFFFFFFFFFFFFFFFFFFFFFFFFFFFFFFFF DUP4 DUP2 DUP4 AND OR DUP4 MSTORE POP POP POP POP PUSH1 0x40 MLOAD PUSH2 0x1AFC SWAP2 SWAP1 PUSH2 0x4789 JUMP JUMPDEST PUSH1 0x0 PUSH1 0x40 MLOAD DUP1 DUP4 SUB DUP2 PUSH1 0x0 DUP7 GAS CALL SWAP2 POP POP RETURNDATASIZE DUP1 PUSH1 0x0 DUP2 EQ PUSH2 0x1B39 JUMPI PUSH1 0x40 MLOAD SWAP2 POP PUSH1 0x1F NOT PUSH1 0x3F RETURNDATASIZE ADD AND DUP3 ADD PUSH1 0x40 MSTORE RETURNDATASIZE DUP3 MSTORE RETURNDATASIZE PUSH1 0x0 PUSH1 0x20 DUP5 ADD RETURNDATACOPY PUSH2 0x1B3E JUMP JUMPDEST PUSH1 0x60 SWAP2 POP JUMPDEST POP SWAP2 POP SWAP2 POP DUP2 DUP1 ISZERO PUSH2 0x1B51 JUMPI POP PUSH1 0x40 DUP2 MLOAD GT JUMPDEST ISZERO PUSH2 0x1B91 JUMPI DUP1 DUP1 PUSH1 0x20 ADD SWAP1 MLOAD DUP2 ADD SWAP1 PUSH2 0x1B6A SWAP2 SWAP1 PUSH2 0x4841 JUMP JUMPDEST DUP7 DUP7 DUP2 MLOAD DUP2 LT PUSH2 0x1B7D JUMPI PUSH2 0x1B7C PUSH2 0x43B0 JUMP JUMPDEST JUMPDEST PUSH1 0x20 MUL PUSH1 0x20 ADD ADD MLOAD PUSH1 0xA0 ADD DUP2 SWAP1 MSTORE POP PUSH2 0x1C73 JUMP JUMPDEST PUSH1 0x20 DUP2 MLOAD EQ ISZERO PUSH2 0x1C24 JUMPI PUSH2 0x1BFD DUP2 PUSH1 0x0 DUP1 PUSH1 0xF8 SHL DUP5 PUSH1 0x3 DUP2 MLOAD DUP2 LT PUSH2 0x1BB9 JUMPI PUSH2 0x1BB8 PUSH2 0x43B0 JUMP JUMPDEST JUMPDEST PUSH1 0x20 ADD ADD MLOAD PUSH1 0xF8 SHR PUSH1 0xF8 SHL PUSH31 0xFFFFFFFFFFFFFFFFFFFFFFFFFFFFFFFFFFFFFFFFFFFFFFFFFFFFFFFFFFFFFF NOT AND EQ PUSH2 0x1BF2 JUMPI PUSH1 0x4 PUSH2 0x1BF5 JUMP JUMPDEST PUSH1 0x3 JUMPDEST PUSH1 0xFF AND PUSH2 0x2AC4 JUMP JUMPDEST DUP7 DUP7 DUP2 MLOAD DUP2 LT PUSH2 0x1C10 JUMPI PUSH2 0x1C0F PUSH2 0x43B0 JUMP JUMPDEST JUMPDEST PUSH1 0x20 MUL PUSH1 0x20 ADD ADD MLOAD PUSH1 0xA0 ADD DUP2 SWAP1 MSTORE POP PUSH2 0x1C72 JUMP JUMPDEST PUSH2 0x1C4F DUP7 DUP7 DUP2 MLOAD DUP2 LT PUSH2 0x1C3A JUMPI PUSH2 0x1C39 PUSH2 0x43B0 JUMP JUMPDEST JUMPDEST PUSH1 0x20 MUL PUSH1 0x20 ADD ADD MLOAD PUSH1 0x80 ADD MLOAD PUSH1 0x3 PUSH1 0x4 PUSH2 0x2AC4 JUMP JUMPDEST DUP7 DUP7 DUP2 MLOAD DUP2 LT PUSH2 0x1C62 JUMPI PUSH2 0x1C61 PUSH2 0x43B0 JUMP JUMPDEST JUMPDEST PUSH1 0x20 MUL PUSH1 0x20 ADD ADD MLOAD PUSH1 0xA0 ADD DUP2 SWAP1 MSTORE POP JUMPDEST JUMPDEST POP POP POP PUSH2 0x1D83 JUMP JUMPDEST PUSH1 0x80 PUSH4 0xFFFFFFFF AND PUSH1 0x80 DUP8 PUSH1 0x20 ADD MLOAD PUSH1 0xFF AND AND PUSH4 0xFFFFFFFF AND EQ DUP1 PUSH2 0x1CB6 JUMPI POP PUSH1 0x10 PUSH4 0xFFFFFFFF AND PUSH1 0x10 DUP8 PUSH1 0x20 ADD MLOAD PUSH1 0xFF AND AND PUSH4 0xFFFFFFFF AND EQ JUMPDEST DUP1 PUSH2 0x1CD7 JUMPI POP PUSH1 0x40 PUSH4 0xFFFFFFFF AND PUSH1 0x40 DUP8 PUSH1 0x20 ADD MLOAD PUSH1 0xFF AND AND PUSH4 0xFFFFFFFF AND EQ JUMPDEST ISZERO PUSH2 0x1D82 JUMPI DUP6 PUSH1 0x0 ADD MLOAD DUP4 DUP4 DUP2 MLOAD DUP2 LT PUSH2 0x1CF4 JUMPI PUSH2 0x1CF3 PUSH2 0x43B0 JUMP JUMPDEST JUMPDEST PUSH1 0x20 MUL PUSH1 0x20 ADD ADD MLOAD PUSH1 0x20 ADD SWAP1 PUSH20 0xFFFFFFFFFFFFFFFFFFFFFFFFFFFFFFFFFFFFFFFF AND SWAP1 DUP2 PUSH20 0xFFFFFFFFFFFFFFFFFFFFFFFFFFFFFFFFFFFFFFFF AND DUP2 MSTORE POP POP DUP6 PUSH1 0x60 ADD MLOAD DUP4 DUP4 DUP2 MLOAD DUP2 LT PUSH2 0x1D4A JUMPI PUSH2 0x1D49 PUSH2 0x43B0 JUMP JUMPDEST JUMPDEST PUSH1 0x20 MUL PUSH1 0x20 ADD ADD MLOAD PUSH1 0x80 ADD DUP2 SWAP1 MSTORE POP DUP6 PUSH1 0x80 ADD MLOAD DUP4 DUP4 DUP2 MLOAD DUP2 LT PUSH2 0x1D71 JUMPI PUSH2 0x1D70 PUSH2 0x43B0 JUMP JUMPDEST JUMPDEST PUSH1 0x20 MUL PUSH1 0x20 ADD ADD MLOAD PUSH1 0xC0 ADD DUP2 DUP2 MSTORE POP POP JUMPDEST JUMPDEST JUMPDEST DUP2 DUP1 PUSH2 0x1D8F SWAP1 PUSH2 0x456C JUMP JUMPDEST SWAP3 POP POP POP DUP4 DUP1 PUSH2 0x1D9E SWAP1 PUSH2 0x456C JUMP JUMPDEST SWAP5 POP POP PUSH2 0x14A0 JUMP JUMPDEST DUP2 SWAP7 POP POP POP POP POP POP POP SWAP3 SWAP2 POP POP JUMP JUMPDEST PUSH1 0x0 DUP1 DUP4 SWAP1 POP PUSH1 0x0 JUMPDEST DUP4 MLOAD DUP2 LT ISZERO PUSH2 0x1E04 JUMPI PUSH2 0x1DEF DUP3 DUP6 DUP4 DUP2 MLOAD DUP2 LT PUSH2 0x1DDE JUMPI PUSH2 0x1DDD PUSH2 0x43B0 JUMP JUMPDEST JUMPDEST PUSH1 0x20 MUL PUSH1 0x20 ADD ADD MLOAD PUSH1 0x20 ADD MLOAD PUSH2 0x1124 JUMP JUMPDEST SWAP2 POP DUP1 DUP1 PUSH2 0x1DFC SWAP1 PUSH2 0x456C JUMP JUMPDEST SWAP2 POP POP PUSH2 0x1DBE JUMP JUMPDEST POP DUP1 SWAP2 POP POP SWAP3 SWAP2 POP POP JUMP JUMPDEST PUSH1 0x0 DUP1 PUSH1 0x1 PUSH1 0xFF AND DUP5 PUSH1 0x0 ADD MLOAD PUSH1 0x60 ADD MLOAD PUSH1 0x0 DUP2 MLOAD DUP2 LT PUSH2 0x1E33 JUMPI PUSH2 0x1E32 PUSH2 0x43B0 JUMP JUMPDEST JUMPDEST PUSH1 0x20 MUL PUSH1 0x20 ADD ADD MLOAD PUSH1 0x0 ADD MLOAD PUSH1 0xFF AND EQ PUSH2 0x1E75 JUMPI PUSH1 0x0 DUP1 DUP2 PUSH8 0xFFFFFFFFFFFFFFFF AND SWAP2 POP DUP1 PUSH16 0xFFFFFFFFFFFFFFFFFFFFFFFFFFFFFFFF AND SWAP1 POP SWAP2 POP SWAP2 POP PUSH2 0x2313 JUMP JUMPDEST PUSH1 0x0 PUSH1 0x1 SWAP1 POP JUMPDEST DUP5 PUSH1 0x0 ADD MLOAD PUSH1 0x60 ADD MLOAD MLOAD DUP2 LT ISZERO PUSH2 0x230A JUMPI PUSH1 0x4 PUSH4 0xFFFFFFFF AND DUP6 PUSH1 0x0 ADD MLOAD PUSH1 0x60 ADD MLOAD DUP3 DUP2 MLOAD DUP2 LT PUSH2 0x1EB0 JUMPI PUSH2 0x1EAF PUSH2 0x43B0 JUMP JUMPDEST JUMPDEST PUSH1 0x20 MUL PUSH1 0x20 ADD ADD MLOAD PUSH1 0x0 ADD MLOAD PUSH1 0xFF AND EQ PUSH2 0x1EC9 JUMPI PUSH2 0x22F7 JUMP JUMPDEST PUSH1 0x0 DUP6 PUSH1 0x0 ADD MLOAD PUSH1 0x60 ADD MLOAD DUP3 DUP2 MLOAD DUP2 LT PUSH2 0x1EE6 JUMPI PUSH2 0x1EE5 PUSH2 0x43B0 JUMP JUMPDEST JUMPDEST PUSH1 0x20 MUL PUSH1 0x20 ADD ADD MLOAD PUSH1 0x40 ADD MLOAD SWAP1 POP PUSH1 0x0 DUP1 PUSH1 0x0 DUP1 DUP10 PUSH1 0x0 ADD MLOAD PUSH1 0x60 ADD MLOAD DUP7 DUP2 MLOAD DUP2 LT PUSH2 0x1F15 JUMPI PUSH2 0x1F14 PUSH2 0x43B0 JUMP JUMPDEST JUMPDEST PUSH1 0x20 MUL PUSH1 0x20 ADD ADD MLOAD PUSH1 0x60 ADD MLOAD PUSH1 0x0 DUP2 MLOAD DUP2 LT PUSH2 0x1F34 JUMPI PUSH2 0x1F33 PUSH2 0x43B0 JUMP JUMPDEST JUMPDEST PUSH1 0x20 MUL PUSH1 0x20 ADD ADD MLOAD PUSH1 0x20 ADD MLOAD PUSH1 0x20 ADD MLOAD SWAP1 POP PUSH2 0x1F4E PUSH2 0x2CAC JUMP JUMPDEST PUSH1 0xD PUSH1 0x1 PUSH1 0xA DUP2 GT ISZERO PUSH2 0x1F64 JUMPI PUSH2 0x1F63 PUSH2 0x488A JUMP JUMPDEST JUMPDEST DUP2 SLOAD DUP2 LT PUSH2 0x1F75 JUMPI PUSH2 0x1F74 PUSH2 0x43B0 JUMP JUMPDEST JUMPDEST SWAP1 PUSH1 0x0 MSTORE PUSH1 0x20 PUSH1 0x0 KECCAK256 ADD PUSH1 0x0 SWAP1 SLOAD SWAP1 PUSH2 0x100 EXP SWAP1 DIV PUSH20 0xFFFFFFFFFFFFFFFFFFFFFFFFFFFFFFFFFFFFFFFF AND PUSH20 0xFFFFFFFFFFFFFFFFFFFFFFFFFFFFFFFFFFFFFFFF AND PUSH4 0xEC9BB1A0 DUP8 PUSH1 0x9 PUSH1 0x40 MLOAD DUP4 PUSH4 0xFFFFFFFF AND PUSH1 0xE0 SHL DUP2 MSTORE PUSH1 0x4 ADD PUSH2 0x1FDB SWAP3 SWAP2 SWAP1 PUSH2 0x48B9 JUMP JUMPDEST PUSH1 0x40 DUP1 MLOAD DUP1 DUP4 SUB DUP2 DUP7 DUP1 EXTCODESIZE ISZERO DUP1 ISZERO PUSH2 0x1FF2 JUMPI PUSH1 0x0 DUP1 REVERT JUMPDEST POP GAS STATICCALL ISZERO DUP1 ISZERO PUSH2 0x2006 JUMPI RETURNDATASIZE PUSH1 0x0 DUP1 RETURNDATACOPY RETURNDATASIZE PUSH1 0x0 REVERT JUMPDEST POP POP POP POP PUSH1 0x40 MLOAD RETURNDATASIZE PUSH1 0x1F NOT PUSH1 0x1F DUP3 ADD AND DUP3 ADD DUP1 PUSH1 0x40 MSTORE POP DUP2 ADD SWAP1 PUSH2 0x202A SWAP2 SWAP1 PUSH2 0x494E JUMP JUMPDEST SWAP1 POP PUSH1 0xD PUSH1 0x1 PUSH1 0xA DUP2 GT ISZERO PUSH2 0x2042 JUMPI PUSH2 0x2041 PUSH2 0x488A JUMP JUMPDEST JUMPDEST DUP2 SLOAD DUP2 LT PUSH2 0x2053 JUMPI PUSH2 0x2052 PUSH2 0x43B0 JUMP JUMPDEST JUMPDEST SWAP1 PUSH1 0x0 MSTORE PUSH1 0x20 PUSH1 0x0 KECCAK256 ADD PUSH1 0x0 SWAP1 SLOAD SWAP1 PUSH2 0x100 EXP SWAP1 DIV PUSH20 0xFFFFFFFFFFFFFFFFFFFFFFFFFFFFFFFFFFFFFFFF AND PUSH20 0xFFFFFFFFFFFFFFFFFFFFFFFFFFFFFFFFFFFFFFFF AND PUSH4 0xEC9BB1A0 DUP8 DUP4 PUSH1 0x0 ADD MLOAD PUSH1 0x40 MLOAD DUP4 PUSH4 0xFFFFFFFF AND PUSH1 0xE0 SHL DUP2 MSTORE PUSH1 0x4 ADD PUSH2 0x20BC SWAP3 SWAP2 SWAP1 PUSH2 0x48B9 JUMP JUMPDEST PUSH1 0x40 DUP1 MLOAD DUP1 DUP4 SUB DUP2 DUP7 DUP1 EXTCODESIZE ISZERO DUP1 ISZERO PUSH2 0x20D3 JUMPI PUSH1 0x0 DUP1 REVERT JUMPDEST POP GAS STATICCALL ISZERO DUP1 ISZERO PUSH2 0x20E7 JUMPI RETURNDATASIZE PUSH1 0x0 DUP1 RETURNDATACOPY RETURNDATASIZE PUSH1 0x0 REVERT JUMPDEST POP POP POP POP PUSH1 0x40 MLOAD RETURNDATASIZE PUSH1 0x1F NOT PUSH1 0x1F DUP3 ADD AND DUP3 ADD DUP1 PUSH1 0x40 MSTORE POP DUP2 ADD SWAP1 PUSH2 0x210B SWAP2 SWAP1 PUSH2 0x494E JUMP JUMPDEST SWAP1 POP PUSH1 0x0 DUP2 PUSH1 0x20 ADD MLOAD PUSH8 0xFFFFFFFFFFFFFFFF AND EQ DUP1 PUSH2 0x2138 JUMPI POP PUSH1 0x4B DUP2 PUSH1 0x20 ADD MLOAD PUSH8 0xFFFFFFFFFFFFFFFF AND GT JUMPDEST ISZERO PUSH2 0x2172 JUMPI PUSH1 0x0 DUP1 DUP2 PUSH8 0xFFFFFFFFFFFFFFFF AND SWAP2 POP DUP1 PUSH16 0xFFFFFFFFFFFFFFFFFFFFFFFFFFFFFFFF AND SWAP1 POP SWAP9 POP SWAP9 POP POP POP POP POP POP POP POP PUSH2 0x2313 JUMP JUMPDEST DUP1 PUSH1 0x20 ADD MLOAD DUP2 PUSH1 0x0 ADD MLOAD PUSH4 0xFFFFFFFF AND PUSH2 0x218C SWAP2 SWAP1 PUSH2 0x497B JUMP JUMPDEST SWAP5 POP DUP5 DUP7 ADD MLOAD SWAP4 POP PUSH1 0x1 DUP6 ADD SWAP5 POP DUP5 DUP7 ADD MLOAD SWAP3 POP PUSH1 0x1 DUP6 ADD SWAP5 POP PUSH1 0xCC PUSH4 0xFFFFFFFF AND DUP5 PUSH1 0xFF AND EQ ISZERO DUP1 PUSH2 0x21DF JUMPI POP PUSH1 0x4C PUSH4 0xFFFFFFFF AND DUP4 PUSH1 0xFF AND EQ ISZERO DUP1 ISZERO PUSH2 0x21DE JUMPI POP PUSH1 0x4D PUSH4 0xFFFFFFFF AND DUP4 PUSH1 0xFF AND EQ ISZERO JUMPDEST JUMPDEST ISZERO PUSH2 0x2219 JUMPI PUSH1 0x0 DUP1 DUP2 PUSH8 0xFFFFFFFFFFFFFFFF AND SWAP2 POP DUP1 PUSH16 0xFFFFFFFFFFFFFFFFFFFFFFFFFFFFFFFF AND SWAP1 POP SWAP9 POP SWAP9 POP POP POP POP POP POP POP POP PUSH2 0x2313 JUMP JUMPDEST PUSH1 0x4C PUSH4 0xFFFFFFFF AND DUP4 PUSH1 0xFF AND EQ ISZERO PUSH2 0x2236 JUMPI PUSH1 0x1 DUP6 ADD SWAP5 POP PUSH2 0x223D JUMP JUMPDEST PUSH1 0x2 DUP6 ADD SWAP5 POP JUMPDEST PUSH1 0x2 DUP6 PUSH2 0x224A SWAP2 SWAP1 PUSH2 0x4092 JUMP JUMPDEST SWAP5 POP DUP5 DUP7 ADD MLOAD SWAP4 POP PUSH1 0xC PUSH1 0xFF AND DUP5 PUSH1 0xFF AND EQ PUSH2 0x2295 JUMPI PUSH1 0x0 DUP1 DUP2 PUSH8 0xFFFFFFFFFFFFFFFF AND SWAP2 POP DUP1 PUSH16 0xFFFFFFFFFFFFFFFFFFFFFFFFFFFFFFFF AND SWAP1 POP SWAP9 POP SWAP9 POP POP POP POP POP POP POP POP PUSH2 0x2313 JUMP JUMPDEST PUSH1 0x18 DUP6 PUSH2 0x22A2 SWAP2 SWAP1 PUSH2 0x4092 JUMP JUMPDEST SWAP5 POP DUP5 DUP7 ADD MLOAD SWAP3 POP PUSH1 0x19 DUP6 PUSH2 0x22B7 SWAP2 SWAP1 PUSH2 0x4092 JUMP JUMPDEST SWAP5 POP PUSH1 0x4D PUSH4 0xFFFFFFFF AND DUP4 PUSH1 0xFF AND EQ ISZERO PUSH2 0x22DB JUMPI PUSH1 0x1 DUP6 PUSH2 0x22D8 SWAP2 SWAP1 PUSH2 0x4092 JUMP JUMPDEST SWAP5 POP JUMPDEST PUSH2 0x22E7 DUP7 DUP7 DUP13 DUP6 PUSH2 0x915 JUMP JUMPDEST SWAP9 POP SWAP9 POP POP POP POP POP POP POP POP PUSH2 0x2313 JUMP JUMPDEST DUP1 DUP1 PUSH2 0x2302 SWAP1 PUSH2 0x456C JUMP JUMPDEST SWAP2 POP POP PUSH2 0x1E7C JUMP JUMPDEST POP PUSH1 0x0 DUP1 SWAP2 POP SWAP2 POP JUMPDEST SWAP3 POP SWAP3 SWAP1 POP JUMP JUMPDEST PUSH1 0x0 DUP1 PUSH2 0x2325 PUSH2 0x2CAC JUMP JUMPDEST PUSH1 0xD PUSH1 0x1 PUSH1 0xA DUP2 GT ISZERO PUSH2 0x233B JUMPI PUSH2 0x233A PUSH2 0x488A JUMP JUMPDEST JUMPDEST DUP2 SLOAD DUP2 LT PUSH2 0x234C JUMPI PUSH2 0x234B PUSH2 0x43B0 JUMP JUMPDEST JUMPDEST SWAP1 PUSH1 0x0 MSTORE PUSH1 0x20 PUSH1 0x0 KECCAK256 ADD PUSH1 0x0 SWAP1 SLOAD SWAP1 PUSH2 0x100 EXP SWAP1 DIV PUSH20 0xFFFFFFFFFFFFFFFFFFFFFFFFFFFFFFFFFFFFFFFF AND PUSH20 0xFFFFFFFFFFFFFFFFFFFFFFFFFFFFFFFFFFFFFFFF AND PUSH4 0xEC9BB1A0 DUP8 DUP8 PUSH1 0x40 MLOAD DUP4 PUSH4 0xFFFFFFFF AND PUSH1 0xE0 SHL DUP2 MSTORE PUSH1 0x4 ADD PUSH2 0x23B1 SWAP3 SWAP2 SWAP1 PUSH2 0x48B9 JUMP JUMPDEST PUSH1 0x40 DUP1 MLOAD DUP1 DUP4 SUB DUP2 DUP7 DUP1 EXTCODESIZE ISZERO DUP1 ISZERO PUSH2 0x23C8 JUMPI PUSH1 0x0 DUP1 REVERT JUMPDEST POP GAS STATICCALL ISZERO DUP1 ISZERO PUSH2 0x23DC JUMPI RETURNDATASIZE PUSH1 0x0 DUP1 RETURNDATACOPY RETURNDATASIZE PUSH1 0x0 REVERT JUMPDEST POP POP POP POP PUSH1 0x40 MLOAD RETURNDATASIZE PUSH1 0x1F NOT PUSH1 0x1F DUP3 ADD AND DUP3 ADD DUP1 PUSH1 0x40 MSTORE POP DUP2 ADD SWAP1 PUSH2 0x2400 SWAP2 SWAP1 PUSH2 0x494E JUMP JUMPDEST SWAP1 POP DUP1 PUSH1 0x0 ADD MLOAD SWAP5 POP PUSH1 0x0 DUP2 PUSH1 0x20 ADD MLOAD PUSH8 0xFFFFFFFFFFFFFFFF AND SWAP1 POP PUSH1 0x0 JUMPDEST DUP2 DUP2 LT ISZERO PUSH2 0x2551 JUMPI PUSH1 0xD PUSH1 0x1 PUSH1 0xA DUP2 GT ISZERO PUSH2 0x243D JUMPI PUSH2 0x243C PUSH2 0x488A JUMP JUMPDEST JUMPDEST DUP2 SLOAD DUP2 LT PUSH2 0x244E JUMPI PUSH2 0x244D PUSH2 0x43B0 JUMP JUMPDEST JUMPDEST SWAP1 PUSH1 0x0 MSTORE PUSH1 0x20 PUSH1 0x0 KECCAK256 ADD PUSH1 0x0 SWAP1 SLOAD SWAP1 PUSH2 0x100 EXP SWAP1 DIV PUSH20 0xFFFFFFFFFFFFFFFFFFFFFFFFFFFFFFFFFFFFFFFF AND PUSH20 0xFFFFFFFFFFFFFFFFFFFFFFFFFFFFFFFFFFFFFFFF AND PUSH4 0xEC9BB1A0 DUP10 DUP10 PUSH1 0x40 MLOAD DUP4 PUSH4 0xFFFFFFFF AND PUSH1 0xE0 SHL DUP2 MSTORE PUSH1 0x4 ADD PUSH2 0x24B3 SWAP3 SWAP2 SWAP1 PUSH2 0x48B9 JUMP JUMPDEST PUSH1 0x40 DUP1 MLOAD DUP1 DUP4 SUB DUP2 DUP7 DUP1 EXTCODESIZE ISZERO DUP1 ISZERO PUSH2 0x24CA JUMPI PUSH1 0x0 DUP1 REVERT JUMPDEST POP GAS STATICCALL ISZERO DUP1 ISZERO PUSH2 0x24DE JUMPI RETURNDATASIZE PUSH1 0x0 DUP1 RETURNDATACOPY RETURNDATASIZE PUSH1 0x0 REVERT JUMPDEST POP POP POP POP PUSH1 0x40 MLOAD RETURNDATASIZE PUSH1 0x1F NOT PUSH1 0x1F DUP3 ADD AND DUP3 ADD DUP1 PUSH1 0x40 MSTORE POP DUP2 ADD SWAP1 PUSH2 0x2502 SWAP2 SWAP1 PUSH2 0x494E JUMP JUMPDEST SWAP3 POP PUSH1 0x16 PUSH1 0xFF AND DUP4 PUSH1 0x20 ADD MLOAD PUSH8 0xFFFFFFFFFFFFFFFF AND EQ ISZERO PUSH2 0x2528 JUMPI PUSH1 0x16 DUP8 DUP10 ADD ADD MLOAD SWAP6 POP JUMPDEST DUP3 PUSH1 0x20 ADD MLOAD DUP4 PUSH1 0x0 ADD MLOAD PUSH2 0x253C SWAP2 SWAP1 PUSH2 0x4092 JUMP JUMPDEST SWAP7 POP DUP1 DUP1 PUSH2 0x2549 SWAP1 PUSH2 0x456C JUMP JUMPDEST SWAP2 POP POP PUSH2 0x241F JUMP JUMPDEST POP DUP6 DUP6 SWAP4 POP SWAP4 POP POP POP SWAP4 POP SWAP4 SWAP2 POP POP JUMP JUMPDEST PUSH1 0x0 DUP1 PUSH1 0x78 PUSH1 0x0 DUP2 SLOAD DUP2 LT PUSH2 0x257A JUMPI PUSH2 0x2579 PUSH2 0x43B0 JUMP JUMPDEST JUMPDEST SWAP1 PUSH1 0x0 MSTORE PUSH1 0x20 PUSH1 0x0 KECCAK256 ADD SWAP1 POP PUSH1 0x0 DUP2 DUP1 SLOAD PUSH2 0x2594 SWAP1 PUSH2 0x4031 JUMP JUMPDEST SWAP1 POP EQ ISZERO PUSH2 0x25A8 JUMPI PUSH1 0x0 DUP1 SHL SWAP2 POP POP PUSH2 0x25FA JUMP JUMPDEST PUSH1 0x0 DUP1 PUSH1 0x0 DUP4 PUSH1 0x20 DUP3 ADD MSTORE PUSH1 0x2 PUSH1 0x20 DUP1 DUP4 ADD KECCAK256 ADD SLOAD PUSH1 0xE0 SHR SWAP2 POP PUSH1 0x9 PUSH1 0x0 DUP4 PUSH4 0xFFFFFFFF AND PUSH1 0x0 SHL DUP2 MSTORE PUSH1 0x20 ADD SWAP1 DUP2 MSTORE PUSH1 0x20 ADD PUSH1 0x0 KECCAK256 SWAP4 POP DUP4 PUSH1 0x20 DUP3 ADD MSTORE PUSH1 0x0 PUSH1 0x20 DUP1 DUP4 ADD KECCAK256 ADD SLOAD SWAP3 POP DUP3 SWAP5 POP POP POP POP POP JUMPDEST SWAP1 JUMP JUMPDEST PUSH1 0x0 DUP1 PUSH1 0x0 DUP4 PUSH1 0x0 ADD MLOAD PUSH1 0x60 ADD MLOAD PUSH1 0x0 DUP2 MLOAD DUP2 LT PUSH2 0x261E JUMPI PUSH2 0x261D PUSH2 0x43B0 JUMP JUMPDEST JUMPDEST PUSH1 0x20 MUL PUSH1 0x20 ADD ADD MLOAD PUSH1 0x40 ADD MLOAD PUSH20 0x0 PUSH4 0x2CD0CFF2 SWAP1 SWAP2 PUSH1 0x40 MLOAD DUP3 PUSH4 0xFFFFFFFF AND PUSH1 0xE0 SHL DUP2 MSTORE PUSH1 0x4 ADD PUSH2 0x2662 SWAP2 SWAP1 PUSH2 0x4508 JUMP JUMPDEST PUSH1 0x20 PUSH1 0x40 MLOAD DUP1 DUP4 SUB DUP2 DUP7 DUP1 EXTCODESIZE ISZERO DUP1 ISZERO PUSH2 0x267A JUMPI PUSH1 0x0 DUP1 REVERT JUMPDEST POP GAS DELEGATECALL ISZERO DUP1 ISZERO PUSH2 0x268E JUMPI RETURNDATASIZE PUSH1 0x0 DUP1 RETURNDATACOPY RETURNDATASIZE PUSH1 0x0 REVERT JUMPDEST POP POP POP POP PUSH1 0x40 MLOAD RETURNDATASIZE PUSH1 0x1F NOT PUSH1 0x1F DUP3 ADD AND DUP3 ADD DUP1 PUSH1 0x40 MSTORE POP DUP2 ADD SWAP1 PUSH2 0x26B2 SWAP2 SWAP1 PUSH2 0x453F JUMP JUMPDEST SWAP2 POP PUSH1 0x1 PUSH1 0xFF AND DUP5 PUSH1 0x0 ADD MLOAD PUSH1 0x60 ADD MLOAD PUSH1 0x0 DUP2 MLOAD DUP2 LT PUSH2 0x26D5 JUMPI PUSH2 0x26D4 PUSH2 0x43B0 JUMP JUMPDEST JUMPDEST PUSH1 0x20 MUL PUSH1 0x20 ADD ADD MLOAD PUSH1 0x0 ADD MLOAD PUSH1 0xFF AND EQ ISZERO PUSH2 0x271E JUMPI PUSH2 0x271B DUP3 DUP6 PUSH1 0x0 ADD MLOAD PUSH1 0x60 ADD MLOAD PUSH1 0x0 DUP2 MLOAD DUP2 LT PUSH2 0x270A JUMPI PUSH2 0x2709 PUSH2 0x43B0 JUMP JUMPDEST JUMPDEST PUSH1 0x20 MUL PUSH1 0x20 ADD ADD MLOAD PUSH1 0x60 ADD MLOAD PUSH2 0x1DB5 JUMP JUMPDEST SWAP3 POP JUMPDEST PUSH1 0x0 PUSH1 0x1 SWAP1 POP JUMPDEST DUP5 PUSH1 0x0 ADD MLOAD PUSH1 0x60 ADD MLOAD MLOAD DUP2 LT ISZERO PUSH2 0x283E JUMPI DUP5 PUSH1 0x0 ADD MLOAD PUSH1 0x60 ADD MLOAD DUP2 DUP2 MLOAD DUP2 LT PUSH2 0x2751 JUMPI PUSH2 0x2750 PUSH2 0x43B0 JUMP JUMPDEST JUMPDEST PUSH1 0x20 MUL PUSH1 0x20 ADD ADD MLOAD PUSH1 0x40 ADD MLOAD PUSH20 0x0 PUSH4 0x2CD0CFF2 SWAP1 SWAP2 PUSH1 0x40 MLOAD DUP3 PUSH4 0xFFFFFFFF AND PUSH1 0xE0 SHL DUP2 MSTORE PUSH1 0x4 ADD PUSH2 0x2795 SWAP2 SWAP1 PUSH2 0x4508 JUMP JUMPDEST PUSH1 0x20 PUSH1 0x40 MLOAD DUP1 DUP4 SUB DUP2 DUP7 DUP1 EXTCODESIZE ISZERO DUP1 ISZERO PUSH2 0x27AD JUMPI PUSH1 0x0 DUP1 REVERT JUMPDEST POP GAS DELEGATECALL ISZERO DUP1 ISZERO PUSH2 0x27C1 JUMPI RETURNDATASIZE PUSH1 0x0 DUP1 RETURNDATACOPY RETURNDATASIZE PUSH1 0x0 REVERT JUMPDEST POP POP POP POP PUSH1 0x40 MLOAD RETURNDATASIZE PUSH1 0x1F NOT PUSH1 0x1F DUP3 ADD AND DUP3 ADD DUP1 PUSH1 0x40 MSTORE POP DUP2 ADD SWAP1 PUSH2 0x27E5 SWAP2 SWAP1 PUSH2 0x453F JUMP JUMPDEST SWAP3 POP PUSH2 0x2817 DUP4 DUP7 PUSH1 0x0 ADD MLOAD PUSH1 0x60 ADD MLOAD DUP4 DUP2 MLOAD DUP2 LT PUSH2 0x2806 JUMPI PUSH2 0x2805 PUSH2 0x43B0 JUMP JUMPDEST JUMPDEST PUSH1 0x20 MUL PUSH1 0x20 ADD ADD MLOAD PUSH1 0x60 ADD MLOAD PUSH2 0x1DB5 JUMP JUMPDEST SWAP2 POP DUP2 DUP5 EQ PUSH2 0x282B JUMPI PUSH1 0x0 DUP1 SHL SWAP4 POP PUSH2 0x283E JUMP JUMPDEST DUP1 DUP1 PUSH2 0x2836 SWAP1 PUSH2 0x456C JUMP JUMPDEST SWAP2 POP POP PUSH2 0x2725 JUMP JUMPDEST POP POP POP SWAP2 SWAP1 POP JUMP JUMPDEST PUSH1 0x60 PUSH1 0x0 PUSH1 0x2 DUP4 PUSH1 0x2 PUSH2 0x2859 SWAP2 SWAP1 PUSH2 0x49B9 JUMP JUMPDEST PUSH2 0x2863 SWAP2 SWAP1 PUSH2 0x45E9 JUMP JUMPDEST PUSH8 0xFFFFFFFFFFFFFFFF DUP2 GT ISZERO PUSH2 0x287C JUMPI PUSH2 0x287B PUSH2 0x2FDD JUMP JUMPDEST JUMPDEST PUSH1 0x40 MLOAD SWAP1 DUP1 DUP3 MSTORE DUP1 PUSH1 0x1F ADD PUSH1 0x1F NOT AND PUSH1 0x20 ADD DUP3 ADD PUSH1 0x40 MSTORE DUP1 ISZERO PUSH2 0x28AE JUMPI DUP2 PUSH1 0x20 ADD PUSH1 0x1 DUP3 MUL DUP1 CALLDATASIZE DUP4 CALLDATACOPY DUP1 DUP3 ADD SWAP2 POP POP SWAP1 POP JUMPDEST POP SWAP1 POP PUSH32 0x3000000000000000000000000000000000000000000000000000000000000000 DUP2 PUSH1 0x0 DUP2 MLOAD DUP2 LT PUSH2 0x28E6 JUMPI PUSH2 0x28E5 PUSH2 0x43B0 JUMP JUMPDEST JUMPDEST PUSH1 0x20 ADD ADD SWAP1 PUSH31 0xFFFFFFFFFFFFFFFFFFFFFFFFFFFFFFFFFFFFFFFFFFFFFFFFFFFFFFFFFFFFFF NOT AND SWAP1 DUP2 PUSH1 0x0 BYTE SWAP1 MSTORE8 POP PUSH32 0x7800000000000000000000000000000000000000000000000000000000000000 DUP2 PUSH1 0x1 DUP2 MLOAD DUP2 LT PUSH2 0x294A JUMPI PUSH2 0x2949 PUSH2 0x43B0 JUMP JUMPDEST JUMPDEST PUSH1 0x20 ADD ADD SWAP1 PUSH31 0xFFFFFFFFFFFFFFFFFFFFFFFFFFFFFFFFFFFFFFFFFFFFFFFFFFFFFFFFFFFFFF NOT AND SWAP1 DUP2 PUSH1 0x0 BYTE SWAP1 MSTORE8 POP PUSH1 0x0 PUSH1 0x1 DUP5 PUSH1 0x2 PUSH2 0x298A SWAP2 SWAP1 PUSH2 0x49B9 JUMP JUMPDEST PUSH2 0x2994 SWAP2 SWAP1 PUSH2 0x45E9 JUMP JUMPDEST SWAP1 POP JUMPDEST PUSH1 0x1 DUP2 GT ISZERO PUSH2 0x2A60 JUMPI PUSH32 0x3031323334353637383961626364656600000000000000000000000000000000 PUSH1 0xF DUP7 AND PUSH20 0xFFFFFFFFFFFFFFFFFFFFFFFFFFFFFFFFFFFFFFFF AND PUSH1 0x10 DUP2 LT PUSH2 0x29EC JUMPI PUSH2 0x29EB PUSH2 0x43B0 JUMP JUMPDEST JUMPDEST BYTE PUSH1 0xF8 SHL DUP3 DUP3 DUP2 MLOAD DUP2 LT PUSH2 0x2A03 JUMPI PUSH2 0x2A02 PUSH2 0x43B0 JUMP JUMPDEST JUMPDEST PUSH1 0x20 ADD ADD SWAP1 PUSH31 0xFFFFFFFFFFFFFFFFFFFFFFFFFFFFFFFFFFFFFFFFFFFFFFFFFFFFFFFFFFFFFF NOT AND SWAP1 DUP2 PUSH1 0x0 BYTE SWAP1 MSTORE8 POP PUSH1 0x4 DUP6 PUSH20 0xFFFFFFFFFFFFFFFFFFFFFFFFFFFFFFFFFFFFFFFF AND SWAP1 SHR SWAP5 POP DUP1 PUSH2 0x2A59 SWAP1 PUSH2 0x4A13 JUMP JUMPDEST SWAP1 POP PUSH2 0x2997 JUMP JUMPDEST POP PUSH1 0x0 DUP5 PUSH20 0xFFFFFFFFFFFFFFFFFFFFFFFFFFFFFFFFFFFFFFFF AND EQ PUSH2 0x2ABA JUMPI PUSH1 0x40 MLOAD PUSH32 0x8C379A000000000000000000000000000000000000000000000000000000000 DUP2 MSTORE PUSH1 0x4 ADD PUSH2 0x2AB1 SWAP1 PUSH2 0x4A89 JUMP JUMPDEST PUSH1 0x40 MLOAD DUP1 SWAP2 SUB SWAP1 REVERT JUMPDEST DUP1 SWAP2 POP POP SWAP3 SWAP2 POP POP JUMP JUMPDEST PUSH1 0x60 DUP2 PUSH1 0x1F DUP4 PUSH2 0x2AD4 SWAP2 SWAP1 PUSH2 0x45E9 JUMP JUMPDEST LT ISZERO PUSH2 0x2B15 JUMPI PUSH1 0x40 MLOAD PUSH32 0x8C379A000000000000000000000000000000000000000000000000000000000 DUP2 MSTORE PUSH1 0x4 ADD PUSH2 0x2B0C SWAP1 PUSH2 0x4AF5 JUMP JUMPDEST PUSH1 0x40 MLOAD DUP1 SWAP2 SUB SWAP1 REVERT JUMPDEST DUP2 DUP4 PUSH2 0x2B21 SWAP2 SWAP1 PUSH2 0x45E9 JUMP JUMPDEST DUP5 MLOAD LT ISZERO PUSH2 0x2B64 JUMPI PUSH1 0x40 MLOAD PUSH32 0x8C379A000000000000000000000000000000000000000000000000000000000 DUP2 MSTORE PUSH1 0x4 ADD PUSH2 0x2B5B SWAP1 PUSH2 0x4B61 JUMP JUMPDEST PUSH1 0x40 MLOAD DUP1 SWAP2 SUB SWAP1 REVERT JUMPDEST PUSH1 0x60 DUP3 ISZERO PUSH1 0x0 DUP2 EQ PUSH2 0x2B85 JUMPI PUSH1 0x40 MLOAD SWAP2 POP PUSH1 0x0 DUP3 MSTORE PUSH1 0x20 DUP3 ADD PUSH1 0x40 MSTORE PUSH2 0x2BD6 JUMP JUMPDEST PUSH1 0x40 MLOAD SWAP2 POP PUSH1 0x1F DUP5 AND DUP1 ISZERO PUSH1 0x20 MUL DUP2 DUP5 ADD ADD DUP6 DUP2 ADD DUP8 DUP4 ISZERO PUSH1 0x20 MUL DUP5 DUP12 ADD ADD ADD JUMPDEST DUP2 DUP4 LT ISZERO PUSH2 0x2BC3 JUMPI DUP1 MLOAD DUP4 MSTORE PUSH1 0x20 DUP4 ADD SWAP3 POP PUSH1 0x20 DUP2 ADD SWAP1 POP PUSH2 0x2BA6 JUMP JUMPDEST POP DUP7 DUP6 MSTORE PUSH1 0x1F NOT PUSH1 0x1F DUP4 ADD AND PUSH1 0x40 MSTORE POP POP POP JUMPDEST POP DUP1 SWAP2 POP POP SWAP4 SWAP3 POP POP POP JUMP JUMPDEST PUSH1 0x40 MLOAD DUP1 PUSH1 0xA0 ADD PUSH1 0x40 MSTORE DUP1 PUSH1 0x0 PUSH20 0xFFFFFFFFFFFFFFFFFFFFFFFFFFFFFFFFFFFFFFFF AND DUP2 MSTORE PUSH1 0x20 ADD PUSH1 0x0 PUSH1 0xFF AND DUP2 MSTORE PUSH1 0x20 ADD PUSH1 0x0 DUP2 MSTORE PUSH1 0x20 ADD PUSH1 0x60 DUP2 MSTORE PUSH1 0x20 ADD PUSH1 0x0 DUP2 MSTORE POP SWAP1 JUMP JUMPDEST PUSH1 0x40 MLOAD DUP1 PUSH1 0xE0 ADD PUSH1 0x40 MSTORE DUP1 PUSH1 0x0 PUSH20 0xFFFFFFFFFFFFFFFFFFFFFFFFFFFFFFFFFFFFFFFF AND DUP2 MSTORE PUSH1 0x20 ADD PUSH1 0x0 PUSH20 0xFFFFFFFFFFFFFFFFFFFFFFFFFFFFFFFFFFFFFFFF AND DUP2 MSTORE PUSH1 0x20 ADD PUSH1 0x0 PUSH20 0xFFFFFFFFFFFFFFFFFFFFFFFFFFFFFFFFFFFFFFFF AND DUP2 MSTORE PUSH1 0x20 ADD PUSH1 0x0 PUSH1 0xFF AND DUP2 MSTORE PUSH1 0x20 ADD PUSH1 0x60 DUP2 MSTORE PUSH1 0x20 ADD PUSH1 0x60 DUP2 MSTORE PUSH1 0x20 ADD PUSH1 0x0 DUP2 MSTORE POP SWAP1 JUMP JUMPDEST PUSH1 0x40 MLOAD DUP1 PUSH1 0x40 ADD PUSH1 0x40 MSTORE DUP1 PUSH1 0x0 PUSH4 0xFFFFFFFF AND DUP2 MSTORE PUSH1 0x20 ADD PUSH1 0x0 PUSH8 0xFFFFFFFFFFFFFFFF AND DUP2 MSTORE POP SWAP1 JUMP JUMPDEST PUSH1 0x0 PUSH1 0x40 MLOAD SWAP1 POP SWAP1 JUMP JUMPDEST PUSH1 0x0 DUP1 REVERT JUMPDEST PUSH1 0x0 DUP1 REVERT JUMPDEST PUSH1 0x0 DUP2 SWAP1 POP SWAP2 SWAP1 POP JUMP JUMPDEST PUSH2 0x2CFD DUP2 PUSH2 0x2CEA JUMP JUMPDEST DUP2 EQ PUSH2 0x2D08 JUMPI PUSH1 0x0 DUP1 REVERT JUMPDEST POP JUMP JUMPDEST PUSH1 0x0 DUP2 CALLDATALOAD SWAP1 POP PUSH2 0x2D1A DUP2 PUSH2 0x2CF4 JUMP JUMPDEST SWAP3 SWAP2 POP POP JUMP JUMPDEST PUSH1 0x0 PUSH1 0x20 DUP3 DUP5 SUB SLT ISZERO PUSH2 0x2D36 JUMPI PUSH2 0x2D35 PUSH2 0x2CE0 JUMP JUMPDEST JUMPDEST PUSH1 0x0 PUSH2 0x2D44 DUP5 DUP3 DUP6 ADD PUSH2 0x2D0B JUMP JUMPDEST SWAP2 POP POP SWAP3 SWAP2 POP POP JUMP JUMPDEST PUSH1 0x0 DUP2 MLOAD SWAP1 POP SWAP2 SWAP1 POP JUMP JUMPDEST PUSH1 0x0 DUP3 DUP3 MSTORE PUSH1 0x20 DUP3 ADD SWAP1 POP SWAP3 SWAP2 POP POP JUMP JUMPDEST PUSH1 0x0 JUMPDEST DUP4 DUP2 LT ISZERO PUSH2 0x2D87 JUMPI DUP1 DUP3 ADD MLOAD DUP2 DUP5 ADD MSTORE PUSH1 0x20 DUP2 ADD SWAP1 POP PUSH2 0x2D6C JUMP JUMPDEST DUP4 DUP2 GT ISZERO PUSH2 0x2D96 JUMPI PUSH1 0x0 DUP5 DUP5 ADD MSTORE JUMPDEST POP POP POP POP JUMP JUMPDEST PUSH1 0x0 PUSH1 0x1F NOT PUSH1 0x1F DUP4 ADD AND SWAP1 POP SWAP2 SWAP1 POP JUMP JUMPDEST PUSH1 0x0 PUSH2 0x2DB8 DUP3 PUSH2 0x2D4D JUMP JUMPDEST PUSH2 0x2DC2 DUP2 DUP6 PUSH2 0x2D58 JUMP JUMPDEST SWAP4 POP PUSH2 0x2DD2 DUP2 DUP6 PUSH1 0x20 DUP7 ADD PUSH2 0x2D69 JUMP JUMPDEST PUSH2 0x2DDB DUP2 PUSH2 0x2D9C JUMP JUMPDEST DUP5 ADD SWAP2 POP POP SWAP3 SWAP2 POP POP JUMP JUMPDEST PUSH1 0x0 PUSH1 0x20 DUP3 ADD SWAP1 POP DUP2 DUP2 SUB PUSH1 0x0 DUP4 ADD MSTORE PUSH2 0x2E00 DUP2 DUP5 PUSH2 0x2DAD JUMP JUMPDEST SWAP1 POP SWAP3 SWAP2 POP POP JUMP JUMPDEST PUSH1 0x0 DUP2 SWAP1 POP SWAP2 SWAP1 POP JUMP JUMPDEST PUSH2 0x2E1B DUP2 PUSH2 0x2E08 JUMP JUMPDEST DUP3 MSTORE POP POP JUMP JUMPDEST PUSH1 0x0 PUSH1 0x20 DUP3 ADD SWAP1 POP PUSH2 0x2E36 PUSH1 0x0 DUP4 ADD DUP5 PUSH2 0x2E12 JUMP JUMPDEST SWAP3 SWAP2 POP POP JUMP JUMPDEST PUSH1 0x0 PUSH20 0xFFFFFFFFFFFFFFFFFFFFFFFFFFFFFFFFFFFFFFFF DUP3 AND SWAP1 POP SWAP2 SWAP1 POP JUMP JUMPDEST PUSH1 0x0 PUSH2 0x2E67 DUP3 PUSH2 0x2E3C JUMP JUMPDEST SWAP1 POP SWAP2 SWAP1 POP JUMP JUMPDEST PUSH2 0x2E77 DUP2 PUSH2 0x2E5C JUMP JUMPDEST DUP2 EQ PUSH2 0x2E82 JUMPI PUSH1 0x0 DUP1 REVERT JUMPDEST POP JUMP JUMPDEST PUSH1 0x0 DUP2 CALLDATALOAD SWAP1 POP PUSH2 0x2E94 DUP2 PUSH2 0x2E6E JUMP JUMPDEST SWAP3 SWAP2 POP POP JUMP JUMPDEST PUSH1 0x0 PUSH1 0x20 DUP3 DUP5 SUB SLT ISZERO PUSH2 0x2EB0 JUMPI PUSH2 0x2EAF PUSH2 0x2CE0 JUMP JUMPDEST JUMPDEST PUSH1 0x0 PUSH2 0x2EBE DUP5 DUP3 DUP6 ADD PUSH2 0x2E85 JUMP JUMPDEST SWAP2 POP POP SWAP3 SWAP2 POP POP JUMP JUMPDEST PUSH2 0x2ED0 DUP2 PUSH2 0x2E5C JUMP JUMPDEST DUP3 MSTORE POP POP JUMP JUMPDEST PUSH1 0x0 PUSH1 0xFF DUP3 AND SWAP1 POP SWAP2 SWAP1 POP JUMP JUMPDEST PUSH2 0x2EEC DUP2 PUSH2 0x2ED6 JUMP JUMPDEST DUP3 MSTORE POP POP JUMP JUMPDEST PUSH1 0x0 PUSH1 0x60 DUP3 ADD SWAP1 POP PUSH2 0x2F07 PUSH1 0x0 DUP4 ADD DUP7 PUSH2 0x2EC7 JUMP JUMPDEST PUSH2 0x2F14 PUSH1 0x20 DUP4 ADD DUP6 PUSH2 0x2EC7 JUMP JUMPDEST PUSH2 0x2F21 PUSH1 0x40 DUP4 ADD DUP5 PUSH2 0x2EE3 JUMP JUMPDEST SWAP5 SWAP4 POP POP POP POP JUMP JUMPDEST PUSH1 0x0 DUP2 ISZERO ISZERO SWAP1 POP SWAP2 SWAP1 POP JUMP JUMPDEST PUSH2 0x2F3E DUP2 PUSH2 0x2F29 JUMP JUMPDEST DUP3 MSTORE POP POP JUMP JUMPDEST PUSH1 0x0 PUSH1 0x20 DUP3 ADD SWAP1 POP PUSH2 0x2F59 PUSH1 0x0 DUP4 ADD DUP5 PUSH2 0x2F35 JUMP JUMPDEST SWAP3 SWAP2 POP POP JUMP JUMPDEST PUSH2 0x2F68 DUP2 PUSH2 0x2E08 JUMP JUMPDEST DUP2 EQ PUSH2 0x2F73 JUMPI PUSH1 0x0 DUP1 REVERT JUMPDEST POP JUMP JUMPDEST PUSH1 0x0 DUP2 CALLDATALOAD SWAP1 POP PUSH2 0x2F85 DUP2 PUSH2 0x2F5F JUMP JUMPDEST SWAP3 SWAP2 POP POP JUMP JUMPDEST PUSH1 0x0 PUSH1 0x20 DUP3 DUP5 SUB SLT ISZERO PUSH2 0x2FA1 JUMPI PUSH2 0x2FA0 PUSH2 0x2CE0 JUMP JUMPDEST JUMPDEST PUSH1 0x0 PUSH2 0x2FAF DUP5 DUP3 DUP6 ADD PUSH2 0x2F76 JUMP JUMPDEST SWAP2 POP POP SWAP3 SWAP2 POP POP JUMP JUMPDEST PUSH1 0x0 PUSH1 0x20 DUP3 ADD SWAP1 POP PUSH2 0x2FCD PUSH1 0x0 DUP4 ADD DUP5 PUSH2 0x2EC7 JUMP JUMPDEST SWAP3 SWAP2 POP POP JUMP JUMPDEST PUSH1 0x0 DUP1 REVERT JUMPDEST PUSH1 0x0 DUP1 REVERT JUMPDEST PUSH32 0x4E487B7100000000000000000000000000000000000000000000000000000000 PUSH1 0x0 MSTORE PUSH1 0x41 PUSH1 0x4 MSTORE PUSH1 0x24 PUSH1 0x0 REVERT JUMPDEST PUSH2 0x3015 DUP3 PUSH2 0x2D9C JUMP JUMPDEST DUP2 ADD DUP2 DUP2 LT PUSH8 0xFFFFFFFFFFFFFFFF DUP3 GT OR ISZERO PUSH2 0x3034 JUMPI PUSH2 0x3033 PUSH2 0x2FDD JUMP JUMPDEST JUMPDEST DUP1 PUSH1 0x40 MSTORE POP POP POP JUMP JUMPDEST PUSH1 0x0 PUSH2 0x3047 PUSH2 0x2CD6 JUMP JUMPDEST SWAP1 POP PUSH2 0x3053 DUP3 DUP3 PUSH2 0x300C JUMP JUMPDEST SWAP2 SWAP1 POP JUMP JUMPDEST PUSH1 0x0 PUSH8 0xFFFFFFFFFFFFFFFF DUP3 GT ISZERO PUSH2 0x3073 JUMPI PUSH2 0x3072 PUSH2 0x2FDD JUMP JUMPDEST JUMPDEST PUSH2 0x307C DUP3 PUSH2 0x2D9C JUMP JUMPDEST SWAP1 POP PUSH1 0x20 DUP2 ADD SWAP1 POP SWAP2 SWAP1 POP JUMP JUMPDEST DUP3 DUP2 DUP4 CALLDATACOPY PUSH1 0x0 DUP4 DUP4 ADD MSTORE POP POP POP JUMP JUMPDEST PUSH1 0x0 PUSH2 0x30AB PUSH2 0x30A6 DUP5 PUSH2 0x3058 JUMP JUMPDEST PUSH2 0x303D JUMP JUMPDEST SWAP1 POP DUP3 DUP2 MSTORE PUSH1 0x20 DUP2 ADD DUP5 DUP5 DUP5 ADD GT ISZERO PUSH2 0x30C7 JUMPI PUSH2 0x30C6 PUSH2 0x2FD8 JUMP JUMPDEST JUMPDEST PUSH2 0x30D2 DUP5 DUP3 DUP6 PUSH2 0x3089 JUMP JUMPDEST POP SWAP4 SWAP3 POP POP POP JUMP JUMPDEST PUSH1 0x0 DUP3 PUSH1 0x1F DUP4 ADD SLT PUSH2 0x30EF JUMPI PUSH2 0x30EE PUSH2 0x2FD3 JUMP JUMPDEST JUMPDEST DUP2 CALLDATALOAD PUSH2 0x30FF DUP5 DUP3 PUSH1 0x20 DUP7 ADD PUSH2 0x3098 JUMP JUMPDEST SWAP2 POP POP SWAP3 SWAP2 POP POP JUMP JUMPDEST PUSH1 0x0 PUSH4 0xFFFFFFFF DUP3 AND SWAP1 POP SWAP2 SWAP1 POP JUMP JUMPDEST PUSH2 0x3121 DUP2 PUSH2 0x3108 JUMP JUMPDEST DUP2 EQ PUSH2 0x312C JUMPI PUSH1 0x0 DUP1 REVERT JUMPDEST POP JUMP JUMPDEST PUSH1 0x0 DUP2 CALLDATALOAD SWAP1 POP PUSH2 0x313E DUP2 PUSH2 0x3118 JUMP JUMPDEST SWAP3 SWAP2 POP POP JUMP JUMPDEST PUSH1 0x0 DUP1 PUSH1 0x0 DUP1 PUSH1 0x80 DUP6 DUP8 SUB SLT ISZERO PUSH2 0x315E JUMPI PUSH2 0x315D PUSH2 0x2CE0 JUMP JUMPDEST JUMPDEST PUSH1 0x0 DUP6 ADD CALLDATALOAD PUSH8 0xFFFFFFFFFFFFFFFF DUP2 GT ISZERO PUSH2 0x317C JUMPI PUSH2 0x317B PUSH2 0x2CE5 JUMP JUMPDEST JUMPDEST PUSH2 0x3188 DUP8 DUP3 DUP9 ADD PUSH2 0x30DA JUMP JUMPDEST SWAP5 POP POP PUSH1 0x20 PUSH2 0x3199 DUP8 DUP3 DUP9 ADD PUSH2 0x312F JUMP JUMPDEST SWAP4 POP POP PUSH1 0x40 PUSH2 0x31AA DUP8 DUP3 DUP9 ADD PUSH2 0x2D0B JUMP JUMPDEST SWAP3 POP POP PUSH1 0x60 PUSH2 0x31BB DUP8 DUP3 DUP9 ADD PUSH2 0x312F JUMP JUMPDEST SWAP2 POP POP SWAP3 SWAP6 SWAP2 SWAP5 POP SWAP3 POP JUMP JUMPDEST PUSH1 0x0 PUSH22 0xFFFFFFFFFFFFFFFFFFFFFFFFFFFFFFFFFFFFFFFFFFFF DUP3 AND SWAP1 POP SWAP2 SWAP1 POP JUMP JUMPDEST PUSH2 0x31F2 DUP2 PUSH2 0x31C7 JUMP JUMPDEST DUP3 MSTORE POP POP JUMP JUMPDEST PUSH1 0x0 PUSH1 0x40 DUP3 ADD SWAP1 POP PUSH2 0x320D PUSH1 0x0 DUP4 ADD DUP6 PUSH2 0x2E12 JUMP JUMPDEST PUSH2 0x321A PUSH1 0x20 DUP4 ADD DUP5 PUSH2 0x31E9 JUMP JUMPDEST SWAP4 SWAP3 POP POP POP JUMP JUMPDEST PUSH1 0x0 PUSH1 0x20 DUP3 ADD SWAP1 POP PUSH2 0x3236 PUSH1 0x0 DUP4 ADD DUP5 PUSH2 0x2EE3 JUMP JUMPDEST SWAP3 SWAP2 POP POP JUMP JUMPDEST PUSH1 0x0 DUP1 PUSH1 0x40 DUP4 DUP6 SUB SLT ISZERO PUSH2 0x3253 JUMPI PUSH2 0x3252 PUSH2 0x2CE0 JUMP JUMPDEST JUMPDEST PUSH1 0x0 PUSH2 0x3261 DUP6 DUP3 DUP7 ADD PUSH2 0x2D0B JUMP JUMPDEST SWAP3 POP POP PUSH1 0x20 PUSH2 0x3272 DUP6 DUP3 DUP7 ADD PUSH2 0x2E85 JUMP JUMPDEST SWAP2 POP POP SWAP3 POP SWAP3 SWAP1 POP JUMP JUMPDEST PUSH1 0x0 PUSH8 0xFFFFFFFFFFFFFFFF DUP3 AND SWAP1 POP SWAP2 SWAP1 POP JUMP JUMPDEST PUSH2 0x3299 DUP2 PUSH2 0x327C JUMP JUMPDEST DUP3 MSTORE POP POP JUMP JUMPDEST PUSH1 0x0 PUSH1 0x20 DUP3 ADD SWAP1 POP PUSH2 0x32B4 PUSH1 0x0 DUP4 ADD DUP5 PUSH2 0x3290 JUMP JUMPDEST SWAP3 SWAP2 POP POP JUMP JUMPDEST PUSH1 0x0 DUP1 PUSH1 0x40 DUP4 DUP6 SUB SLT ISZERO PUSH2 0x32D1 JUMPI PUSH2 0x32D0 PUSH2 0x2CE0 JUMP JUMPDEST JUMPDEST PUSH1 0x0 DUP4 ADD CALLDATALOAD PUSH8 0xFFFFFFFFFFFFFFFF DUP2 GT ISZERO PUSH2 0x32EF JUMPI PUSH2 0x32EE PUSH2 0x2CE5 JUMP JUMPDEST JUMPDEST PUSH2 0x32FB DUP6 DUP3 DUP7 ADD PUSH2 0x30DA JUMP JUMPDEST SWAP3 POP POP PUSH1 0x20 PUSH2 0x330C DUP6 DUP3 DUP7 ADD PUSH2 0x2F76 JUMP JUMPDEST SWAP2 POP POP SWAP3 POP SWAP3 SWAP1 POP JUMP JUMPDEST PUSH2 0x331F DUP2 PUSH2 0x3108 JUMP JUMPDEST DUP3 MSTORE POP POP JUMP JUMPDEST PUSH1 0x0 PUSH1 0x40 DUP3 ADD SWAP1 POP PUSH2 0x333A PUSH1 0x0 DUP4 ADD DUP6 PUSH2 0x3316 JUMP JUMPDEST PUSH2 0x3347 PUSH1 0x20 DUP4 ADD DUP5 PUSH2 0x3316 JUMP JUMPDEST SWAP4 SWAP3 POP POP POP JUMP JUMPDEST PUSH2 0x3357 DUP2 PUSH2 0x2CEA JUMP JUMPDEST DUP3 MSTORE POP POP JUMP JUMPDEST PUSH1 0x0 PUSH1 0x80 DUP3 ADD SWAP1 POP PUSH2 0x3372 PUSH1 0x0 DUP4 ADD DUP8 PUSH2 0x334E JUMP JUMPDEST PUSH2 0x337F PUSH1 0x20 DUP4 ADD DUP7 PUSH2 0x334E JUMP JUMPDEST PUSH2 0x338C PUSH1 0x40 DUP4 ADD DUP6 PUSH2 0x3316 JUMP JUMPDEST PUSH2 0x3399 PUSH1 0x60 DUP4 ADD DUP5 PUSH2 0x3316 JUMP JUMPDEST SWAP6 SWAP5 POP POP POP POP POP JUMP JUMPDEST PUSH1 0x0 PUSH1 0x60 DUP3 ADD SWAP1 POP PUSH2 0x33B7 PUSH1 0x0 DUP4 ADD DUP7 PUSH2 0x334E JUMP JUMPDEST PUSH2 0x33C4 PUSH1 0x20 DUP4 ADD DUP6 PUSH2 0x334E JUMP JUMPDEST PUSH2 0x33D1 PUSH1 0x40 DUP4 ADD DUP5 PUSH2 0x3290 JUMP JUMPDEST SWAP5 SWAP4 POP POP POP POP JUMP JUMPDEST PUSH1 0x0 PUSH1 0x20 DUP3 ADD SWAP1 POP PUSH2 0x33EE PUSH1 0x0 DUP4 ADD DUP5 PUSH2 0x334E JUMP JUMPDEST SWAP3 SWAP2 POP POP JUMP JUMPDEST PUSH1 0x0 DUP1 REVERT JUMPDEST PUSH1 0x0 DUP1 REVERT JUMPDEST PUSH1 0x0 DUP1 DUP4 PUSH1 0x1F DUP5 ADD SLT PUSH2 0x3414 JUMPI PUSH2 0x3413 PUSH2 0x2FD3 JUMP JUMPDEST JUMPDEST DUP3 CALLDATALOAD SWAP1 POP PUSH8 0xFFFFFFFFFFFFFFFF DUP2 GT ISZERO PUSH2 0x3431 JUMPI PUSH2 0x3430 PUSH2 0x33F4 JUMP JUMPDEST JUMPDEST PUSH1 0x20 DUP4 ADD SWAP2 POP DUP4 PUSH1 0x1 DUP3 MUL DUP4 ADD GT ISZERO PUSH2 0x344D JUMPI PUSH2 0x344C PUSH2 0x33F9 JUMP JUMPDEST JUMPDEST SWAP3 POP SWAP3 SWAP1 POP JUMP JUMPDEST PUSH1 0x0 DUP1 PUSH1 0x20 DUP4 DUP6 SUB SLT ISZERO PUSH2 0x346B JUMPI PUSH2 0x346A PUSH2 0x2CE0 JUMP JUMPDEST JUMPDEST PUSH1 0x0 DUP4 ADD CALLDATALOAD PUSH8 0xFFFFFFFFFFFFFFFF DUP2 GT ISZERO PUSH2 0x3489 JUMPI PUSH2 0x3488 PUSH2 0x2CE5 JUMP JUMPDEST JUMPDEST PUSH2 0x3495 DUP6 DUP3 DUP7 ADD PUSH2 0x33FE JUMP JUMPDEST SWAP3 POP SWAP3 POP POP SWAP3 POP SWAP3 SWAP1 POP JUMP JUMPDEST PUSH1 0x0 PUSH16 0xFFFFFFFFFFFFFFFFFFFFFFFFFFFFFFFF DUP3 AND SWAP1 POP SWAP2 SWAP1 POP JUMP JUMPDEST PUSH2 0x34C6 DUP2 PUSH2 0x34A1 JUMP JUMPDEST DUP3 MSTORE POP POP JUMP JUMPDEST PUSH1 0x0 PUSH1 0x40 DUP3 ADD SWAP1 POP PUSH2 0x34E1 PUSH1 0x0 DUP4 ADD DUP6 PUSH2 0x34BD JUMP JUMPDEST PUSH2 0x34EE PUSH1 0x20 DUP4 ADD DUP5 PUSH2 0x31E9 JUMP JUMPDEST SWAP4 SWAP3 POP POP POP JUMP JUMPDEST PUSH1 0x0 DUP2 MLOAD SWAP1 POP SWAP2 SWAP1 POP JUMP JUMPDEST PUSH1 0x0 DUP3 DUP3 MSTORE PUSH1 0x20 DUP3 ADD SWAP1 POP SWAP3 SWAP2 POP POP JUMP JUMPDEST PUSH1 0x0 PUSH2 0x351C DUP3 PUSH2 0x34F5 JUMP JUMPDEST PUSH2 0x3526 DUP2 DUP6 PUSH2 0x3500 JUMP JUMPDEST SWAP4 POP PUSH2 0x3536 DUP2 DUP6 PUSH1 0x20 DUP7 ADD PUSH2 0x2D69 JUMP JUMPDEST PUSH2 0x353F DUP2 PUSH2 0x2D9C JUMP JUMPDEST DUP5 ADD SWAP2 POP POP SWAP3 SWAP2 POP POP JUMP JUMPDEST PUSH1 0x0 PUSH1 0xA0 DUP3 ADD SWAP1 POP PUSH2 0x355F PUSH1 0x0 DUP4 ADD DUP9 PUSH2 0x2EC7 JUMP JUMPDEST PUSH2 0x356C PUSH1 0x20 DUP4 ADD DUP8 PUSH2 0x2EE3 JUMP JUMPDEST PUSH2 0x3579 PUSH1 0x40 DUP4 ADD DUP7 PUSH2 0x2E12 JUMP JUMPDEST DUP2 DUP2 SUB PUSH1 0x60 DUP4 ADD MSTORE PUSH2 0x358B DUP2 DUP6 PUSH2 0x3511 JUMP JUMPDEST SWAP1 POP PUSH2 0x359A PUSH1 0x80 DUP4 ADD DUP5 PUSH2 0x2E12 JUMP JUMPDEST SWAP7 SWAP6 POP POP POP POP POP POP JUMP JUMPDEST PUSH1 0x0 PUSH1 0x20 DUP3 DUP5 SUB SLT ISZERO PUSH2 0x35BA JUMPI PUSH2 0x35B9 PUSH2 0x2CE0 JUMP JUMPDEST JUMPDEST PUSH1 0x0 PUSH2 0x35C8 DUP5 DUP3 DUP6 ADD PUSH2 0x312F JUMP JUMPDEST SWAP2 POP POP SWAP3 SWAP2 POP POP JUMP JUMPDEST PUSH1 0x0 PUSH1 0x20 DUP3 ADD SWAP1 POP PUSH2 0x35E6 PUSH1 0x0 DUP4 ADD DUP5 PUSH2 0x3316 JUMP JUMPDEST SWAP3 SWAP2 POP POP JUMP JUMPDEST PUSH1 0x0 DUP1 REVERT JUMPDEST PUSH1 0x0 DUP1 REVERT JUMPDEST PUSH2 0x35FF DUP2 PUSH2 0x2ED6 JUMP JUMPDEST DUP2 EQ PUSH2 0x360A JUMPI PUSH1 0x0 DUP1 REVERT JUMPDEST POP JUMP JUMPDEST PUSH1 0x0 DUP2 CALLDATALOAD SWAP1 POP PUSH2 0x361C DUP2 PUSH2 0x35F6 JUMP JUMPDEST SWAP3 SWAP2 POP POP JUMP JUMPDEST PUSH1 0x0 PUSH8 0xFFFFFFFFFFFFFFFF DUP3 GT ISZERO PUSH2 0x363D JUMPI PUSH2 0x363C PUSH2 0x2FDD JUMP JUMPDEST JUMPDEST PUSH1 0x20 DUP3 MUL SWAP1 POP PUSH1 0x20 DUP2 ADD SWAP1 POP SWAP2 SWAP1 POP JUMP JUMPDEST PUSH1 0x0 PUSH2 0x3661 PUSH2 0x365C DUP5 PUSH2 0x3622 JUMP JUMPDEST PUSH2 0x303D JUMP JUMPDEST SWAP1 POP DUP1 DUP4 DUP3 MSTORE PUSH1 0x20 DUP3 ADD SWAP1 POP PUSH1 0x20 DUP5 MUL DUP4 ADD DUP6 DUP2 GT ISZERO PUSH2 0x3684 JUMPI PUSH2 0x3683 PUSH2 0x33F9 JUMP JUMPDEST JUMPDEST DUP4 JUMPDEST DUP2 DUP2 LT ISZERO PUSH2 0x36AD JUMPI DUP1 PUSH2 0x3699 DUP9 DUP3 PUSH2 0x2D0B JUMP JUMPDEST DUP5 MSTORE PUSH1 0x20 DUP5 ADD SWAP4 POP POP PUSH1 0x20 DUP2 ADD SWAP1 POP PUSH2 0x3686 JUMP JUMPDEST POP POP POP SWAP4 SWAP3 POP POP POP JUMP JUMPDEST PUSH1 0x0 DUP3 PUSH1 0x1F DUP4 ADD SLT PUSH2 0x36CC JUMPI PUSH2 0x36CB PUSH2 0x2FD3 JUMP JUMPDEST JUMPDEST DUP2 CALLDATALOAD PUSH2 0x36DC DUP5 DUP3 PUSH1 0x20 DUP7 ADD PUSH2 0x364E JUMP JUMPDEST SWAP2 POP POP SWAP3 SWAP2 POP POP JUMP JUMPDEST PUSH1 0x0 PUSH1 0xA0 DUP3 DUP5 SUB SLT ISZERO PUSH2 0x36FB JUMPI PUSH2 0x36FA PUSH2 0x35EC JUMP JUMPDEST JUMPDEST PUSH2 0x3705 PUSH1 0xA0 PUSH2 0x303D JUMP JUMPDEST SWAP1 POP PUSH1 0x0 PUSH2 0x3715 DUP5 DUP3 DUP6 ADD PUSH2 0x360D JUMP JUMPDEST PUSH1 0x0 DUP4 ADD MSTORE POP PUSH1 0x20 PUSH2 0x3729 DUP5 DUP3 DUP6 ADD PUSH2 0x312F JUMP JUMPDEST PUSH1 0x20 DUP4 ADD MSTORE POP PUSH1 0x40 PUSH2 0x373D DUP5 DUP3 DUP6 ADD PUSH2 0x312F JUMP JUMPDEST PUSH1 0x40 DUP4 ADD MSTORE POP PUSH1 0x60 PUSH2 0x3751 DUP5 DUP3 DUP6 ADD PUSH2 0x360D JUMP JUMPDEST PUSH1 0x60 DUP4 ADD MSTORE POP PUSH1 0x80 DUP3 ADD CALLDATALOAD PUSH8 0xFFFFFFFFFFFFFFFF DUP2 GT ISZERO PUSH2 0x3775 JUMPI PUSH2 0x3774 PUSH2 0x35F1 JUMP JUMPDEST JUMPDEST PUSH2 0x3781 DUP5 DUP3 DUP6 ADD PUSH2 0x36B7 JUMP JUMPDEST PUSH1 0x80 DUP4 ADD MSTORE POP SWAP3 SWAP2 POP POP JUMP JUMPDEST PUSH1 0x0 DUP1 PUSH1 0x40 DUP4 DUP6 SUB SLT ISZERO PUSH2 0x37A4 JUMPI PUSH2 0x37A3 PUSH2 0x2CE0 JUMP JUMPDEST JUMPDEST PUSH1 0x0 PUSH2 0x37B2 DUP6 DUP3 DUP7 ADD PUSH2 0x2D0B JUMP JUMPDEST SWAP3 POP POP PUSH1 0x20 DUP4 ADD CALLDATALOAD PUSH8 0xFFFFFFFFFFFFFFFF DUP2 GT ISZERO PUSH2 0x37D3 JUMPI PUSH2 0x37D2 PUSH2 0x2CE5 JUMP JUMPDEST JUMPDEST PUSH2 0x37DF DUP6 DUP3 DUP7 ADD PUSH2 0x36E5 JUMP JUMPDEST SWAP2 POP POP SWAP3 POP SWAP3 SWAP1 POP JUMP JUMPDEST PUSH1 0x0 DUP1 PUSH1 0x40 DUP4 DUP6 SUB SLT ISZERO PUSH2 0x3800 JUMPI PUSH2 0x37FF PUSH2 0x2CE0 JUMP JUMPDEST JUMPDEST PUSH1 0x0 PUSH2 0x380E DUP6 DUP3 DUP7 ADD PUSH2 0x2F76 JUMP JUMPDEST SWAP3 POP POP PUSH1 0x20 PUSH2 0x381F DUP6 DUP3 DUP7 ADD PUSH2 0x2F76 JUMP JUMPDEST SWAP2 POP POP SWAP3 POP SWAP3 SWAP1 POP JUMP JUMPDEST PUSH1 0x0 DUP2 MLOAD SWAP1 POP SWAP2 SWAP1 POP JUMP JUMPDEST PUSH1 0x0 DUP3 DUP3 MSTORE PUSH1 0x20 DUP3 ADD SWAP1 POP SWAP3 SWAP2 POP POP JUMP JUMPDEST PUSH1 0x0 DUP2 SWAP1 POP PUSH1 0x20 DUP3 ADD SWAP1 POP SWAP2 SWAP1 POP JUMP JUMPDEST PUSH2 0x385E DUP2 PUSH2 0x2E5C JUMP JUMPDEST DUP3 MSTORE POP POP JUMP JUMPDEST PUSH2 0x386D DUP2 PUSH2 0x2ED6 JUMP JUMPDEST DUP3 MSTORE POP POP JUMP JUMPDEST PUSH1 0x0 DUP3 DUP3 MSTORE PUSH1 0x20 DUP3 ADD SWAP1 POP SWAP3 SWAP2 POP POP JUMP JUMPDEST PUSH1 0x0 PUSH2 0x388F DUP3 PUSH2 0x34F5 JUMP JUMPDEST PUSH2 0x3899 DUP2 DUP6 PUSH2 0x3873 JUMP JUMPDEST SWAP4 POP PUSH2 0x38A9 DUP2 DUP6 PUSH1 0x20 DUP7 ADD PUSH2 0x2D69 JUMP JUMPDEST PUSH2 0x38B2 DUP2 PUSH2 0x2D9C JUMP JUMPDEST DUP5 ADD SWAP2 POP POP SWAP3 SWAP2 POP POP JUMP JUMPDEST PUSH2 0x38C6 DUP2 PUSH2 0x2E08 JUMP JUMPDEST DUP3 MSTORE POP POP JUMP JUMPDEST PUSH1 0x0 PUSH1 0xE0 DUP4 ADD PUSH1 0x0 DUP4 ADD MLOAD PUSH2 0x38E4 PUSH1 0x0 DUP7 ADD DUP3 PUSH2 0x3855 JUMP JUMPDEST POP PUSH1 0x20 DUP4 ADD MLOAD PUSH2 0x38F7 PUSH1 0x20 DUP7 ADD DUP3 PUSH2 0x3855 JUMP JUMPDEST POP PUSH1 0x40 DUP4 ADD MLOAD PUSH2 0x390A PUSH1 0x40 DUP7 ADD DUP3 PUSH2 0x3855 JUMP JUMPDEST POP PUSH1 0x60 DUP4 ADD MLOAD PUSH2 0x391D PUSH1 0x60 DUP7 ADD DUP3 PUSH2 0x3864 JUMP JUMPDEST POP PUSH1 0x80 DUP4 ADD MLOAD DUP5 DUP3 SUB PUSH1 0x80 DUP7 ADD MSTORE PUSH2 0x3935 DUP3 DUP3 PUSH2 0x3884 JUMP JUMPDEST SWAP2 POP POP PUSH1 0xA0 DUP4 ADD MLOAD DUP5 DUP3 SUB PUSH1 0xA0 DUP7 ADD MSTORE PUSH2 0x394F DUP3 DUP3 PUSH2 0x3884 JUMP JUMPDEST SWAP2 POP POP PUSH1 0xC0 DUP4 ADD MLOAD PUSH2 0x3964 PUSH1 0xC0 DUP7 ADD DUP3 PUSH2 0x38BD JUMP JUMPDEST POP DUP1 SWAP2 POP POP SWAP3 SWAP2 POP POP JUMP JUMPDEST PUSH1 0x0 PUSH2 0x397B DUP4 DUP4 PUSH2 0x38CC JUMP JUMPDEST SWAP1 POP SWAP3 SWAP2 POP POP JUMP JUMPDEST PUSH1 0x0 PUSH1 0x20 DUP3 ADD SWAP1 POP SWAP2 SWAP1 POP JUMP JUMPDEST PUSH1 0x0 PUSH2 0x399B DUP3 PUSH2 0x3829 JUMP JUMPDEST PUSH2 0x39A5 DUP2 DUP6 PUSH2 0x3834 JUMP JUMPDEST SWAP4 POP DUP4 PUSH1 0x20 DUP3 MUL DUP6 ADD PUSH2 0x39B7 DUP6 PUSH2 0x3845 JUMP JUMPDEST DUP1 PUSH1 0x0 JUMPDEST DUP6 DUP2 LT ISZERO PUSH2 0x39F3 JUMPI DUP5 DUP5 SUB DUP10 MSTORE DUP2 MLOAD PUSH2 0x39D4 DUP6 DUP3 PUSH2 0x396F JUMP JUMPDEST SWAP5 POP PUSH2 0x39DF DUP4 PUSH2 0x3983 JUMP JUMPDEST SWAP3 POP PUSH1 0x20 DUP11 ADD SWAP10 POP POP PUSH1 0x1 DUP2 ADD SWAP1 POP PUSH2 0x39BB JUMP JUMPDEST POP DUP3 SWAP8 POP DUP8 SWAP6 POP POP POP POP POP POP SWAP3 SWAP2 POP POP JUMP JUMPDEST PUSH1 0x0 PUSH1 0x20 DUP3 ADD SWAP1 POP DUP2 DUP2 SUB PUSH1 0x0 DUP4 ADD MSTORE PUSH2 0x3A1F DUP2 DUP5 PUSH2 0x3990 JUMP JUMPDEST SWAP1 POP SWAP3 SWAP2 POP POP JUMP JUMPDEST PUSH1 0x0 PUSH8 0xFFFFFFFFFFFFFFFF DUP3 GT ISZERO PUSH2 0x3A42 JUMPI PUSH2 0x3A41 PUSH2 0x2FDD JUMP JUMPDEST JUMPDEST PUSH1 0x20 DUP3 MUL SWAP1 POP PUSH1 0x20 DUP2 ADD SWAP1 POP SWAP2 SWAP1 POP JUMP JUMPDEST PUSH1 0x0 PUSH1 0x40 DUP3 DUP5 SUB SLT ISZERO PUSH2 0x3A69 JUMPI PUSH2 0x3A68 PUSH2 0x35EC JUMP JUMPDEST JUMPDEST PUSH2 0x3A73 PUSH1 0x40 PUSH2 0x303D JUMP JUMPDEST SWAP1 POP PUSH1 0x0 PUSH2 0x3A83 DUP5 DUP3 DUP6 ADD PUSH2 0x360D JUMP JUMPDEST PUSH1 0x0 DUP4 ADD MSTORE POP PUSH1 0x20 DUP3 ADD CALLDATALOAD PUSH8 0xFFFFFFFFFFFFFFFF DUP2 GT ISZERO PUSH2 0x3AA7 JUMPI PUSH2 0x3AA6 PUSH2 0x35F1 JUMP JUMPDEST JUMPDEST PUSH2 0x3AB3 DUP5 DUP3 DUP6 ADD PUSH2 0x36E5 JUMP JUMPDEST PUSH1 0x20 DUP4 ADD MSTORE POP SWAP3 SWAP2 POP POP JUMP JUMPDEST PUSH1 0x0 PUSH2 0x3AD2 PUSH2 0x3ACD DUP5 PUSH2 0x3A27 JUMP JUMPDEST PUSH2 0x303D JUMP JUMPDEST SWAP1 POP DUP1 DUP4 DUP3 MSTORE PUSH1 0x20 DUP3 ADD SWAP1 POP PUSH1 0x20 DUP5 MUL DUP4 ADD DUP6 DUP2 GT ISZERO PUSH2 0x3AF5 JUMPI PUSH2 0x3AF4 PUSH2 0x33F9 JUMP JUMPDEST JUMPDEST DUP4 JUMPDEST DUP2 DUP2 LT ISZERO PUSH2 0x3B3C JUMPI DUP1 CALLDATALOAD PUSH8 0xFFFFFFFFFFFFFFFF DUP2 GT ISZERO PUSH2 0x3B1A JUMPI PUSH2 0x3B19 PUSH2 0x2FD3 JUMP JUMPDEST JUMPDEST DUP1 DUP7 ADD PUSH2 0x3B27 DUP10 DUP3 PUSH2 0x3A53 JUMP JUMPDEST DUP6 MSTORE PUSH1 0x20 DUP6 ADD SWAP5 POP POP POP PUSH1 0x20 DUP2 ADD SWAP1 POP PUSH2 0x3AF7 JUMP JUMPDEST POP POP POP SWAP4 SWAP3 POP POP POP JUMP JUMPDEST PUSH1 0x0 DUP3 PUSH1 0x1F DUP4 ADD SLT PUSH2 0x3B5B JUMPI PUSH2 0x3B5A PUSH2 0x2FD3 JUMP JUMPDEST JUMPDEST DUP2 CALLDATALOAD PUSH2 0x3B6B DUP5 DUP3 PUSH1 0x20 DUP7 ADD PUSH2 0x3ABF JUMP JUMPDEST SWAP2 POP POP SWAP3 SWAP2 POP POP JUMP JUMPDEST PUSH1 0x0 DUP1 PUSH1 0x40 DUP4 DUP6 SUB SLT ISZERO PUSH2 0x3B8B JUMPI PUSH2 0x3B8A PUSH2 0x2CE0 JUMP JUMPDEST JUMPDEST PUSH1 0x0 PUSH2 0x3B99 DUP6 DUP3 DUP7 ADD PUSH2 0x2D0B JUMP JUMPDEST SWAP3 POP POP PUSH1 0x20 DUP4 ADD CALLDATALOAD PUSH8 0xFFFFFFFFFFFFFFFF DUP2 GT ISZERO PUSH2 0x3BBA JUMPI PUSH2 0x3BB9 PUSH2 0x2CE5 JUMP JUMPDEST JUMPDEST PUSH2 0x3BC6 DUP6 DUP3 DUP7 ADD PUSH2 0x3B46 JUMP JUMPDEST SWAP2 POP POP SWAP3 POP SWAP3 SWAP1 POP JUMP JUMPDEST PUSH1 0x0 PUSH8 0xFFFFFFFFFFFFFFFF DUP3 GT ISZERO PUSH2 0x3BEB JUMPI PUSH2 0x3BEA PUSH2 0x2FDD JUMP JUMPDEST JUMPDEST PUSH1 0x20 DUP3 MUL SWAP1 POP PUSH1 0x20 DUP2 ADD SWAP1 POP SWAP2 SWAP1 POP JUMP JUMPDEST PUSH1 0x0 PUSH1 0x80 DUP3 DUP5 SUB SLT ISZERO PUSH2 0x3C12 JUMPI PUSH2 0x3C11 PUSH2 0x35EC JUMP JUMPDEST JUMPDEST PUSH2 0x3C1C PUSH1 0x80 PUSH2 0x303D JUMP JUMPDEST SWAP1 POP PUSH1 0x0 PUSH2 0x3C2C DUP5 DUP3 DUP6 ADD PUSH2 0x360D JUMP JUMPDEST PUSH1 0x0 DUP4 ADD MSTORE POP PUSH1 0x20 PUSH2 0x3C40 DUP5 DUP3 DUP6 ADD PUSH2 0x360D JUMP JUMPDEST PUSH1 0x20 DUP4 ADD MSTORE POP PUSH1 0x40 DUP3 ADD CALLDATALOAD PUSH8 0xFFFFFFFFFFFFFFFF DUP2 GT ISZERO PUSH2 0x3C64 JUMPI PUSH2 0x3C63 PUSH2 0x35F1 JUMP JUMPDEST JUMPDEST PUSH2 0x3C70 DUP5 DUP3 DUP6 ADD PUSH2 0x30DA JUMP JUMPDEST PUSH1 0x40 DUP4 ADD MSTORE POP PUSH1 0x60 DUP3 ADD CALLDATALOAD PUSH8 0xFFFFFFFFFFFFFFFF DUP2 GT ISZERO PUSH2 0x3C94 JUMPI PUSH2 0x3C93 PUSH2 0x35F1 JUMP JUMPDEST JUMPDEST PUSH2 0x3CA0 DUP5 DUP3 DUP6 ADD PUSH2 0x3B46 JUMP JUMPDEST PUSH1 0x60 DUP4 ADD MSTORE POP SWAP3 SWAP2 POP POP JUMP JUMPDEST PUSH1 0x0 PUSH2 0x3CBF PUSH2 0x3CBA DUP5 PUSH2 0x3BD0 JUMP JUMPDEST PUSH2 0x303D JUMP JUMPDEST SWAP1 POP DUP1 DUP4 DUP3 MSTORE PUSH1 0x20 DUP3 ADD SWAP1 POP PUSH1 0x20 DUP5 MUL DUP4 ADD DUP6 DUP2 GT ISZERO PUSH2 0x3CE2 JUMPI PUSH2 0x3CE1 PUSH2 0x33F9 JUMP JUMPDEST JUMPDEST DUP4 JUMPDEST DUP2 DUP2 LT ISZERO PUSH2 0x3D29 JUMPI DUP1 CALLDATALOAD PUSH8 0xFFFFFFFFFFFFFFFF DUP2 GT ISZERO PUSH2 0x3D07 JUMPI PUSH2 0x3D06 PUSH2 0x2FD3 JUMP JUMPDEST JUMPDEST DUP1 DUP7 ADD PUSH2 0x3D14 DUP10 DUP3 PUSH2 0x3BFC JUMP JUMPDEST DUP6 MSTORE PUSH1 0x20 DUP6 ADD SWAP5 POP POP POP PUSH1 0x20 DUP2 ADD SWAP1 POP PUSH2 0x3CE4 JUMP JUMPDEST POP POP POP SWAP4 SWAP3 POP POP POP JUMP JUMPDEST PUSH1 0x0 DUP3 PUSH1 0x1F DUP4 ADD SLT PUSH2 0x3D48 JUMPI PUSH2 0x3D47 PUSH2 0x2FD3 JUMP JUMPDEST JUMPDEST DUP2 CALLDATALOAD PUSH2 0x3D58 DUP5 DUP3 PUSH1 0x20 DUP7 ADD PUSH2 0x3CAC JUMP JUMPDEST SWAP2 POP POP SWAP3 SWAP2 POP POP JUMP JUMPDEST PUSH1 0x0 PUSH1 0x80 DUP3 DUP5 SUB SLT ISZERO PUSH2 0x3D77 JUMPI PUSH2 0x3D76 PUSH2 0x35EC JUMP JUMPDEST JUMPDEST PUSH2 0x3D81 PUSH1 0x80 PUSH2 0x303D JUMP JUMPDEST SWAP1 POP PUSH1 0x0 PUSH2 0x3D91 DUP5 DUP3 DUP6 ADD PUSH2 0x360D JUMP JUMPDEST PUSH1 0x0 DUP4 ADD MSTORE POP PUSH1 0x20 PUSH2 0x3DA5 DUP5 DUP3 DUP6 ADD PUSH2 0x360D JUMP JUMPDEST PUSH1 0x20 DUP4 ADD MSTORE POP PUSH1 0x40 DUP3 ADD CALLDATALOAD PUSH8 0xFFFFFFFFFFFFFFFF DUP2 GT ISZERO PUSH2 0x3DC9 JUMPI PUSH2 0x3DC8 PUSH2 0x35F1 JUMP JUMPDEST JUMPDEST PUSH2 0x3DD5 DUP5 DUP3 DUP6 ADD PUSH2 0x3B46 JUMP JUMPDEST PUSH1 0x40 DUP4 ADD MSTORE POP PUSH1 0x60 DUP3 ADD CALLDATALOAD PUSH8 0xFFFFFFFFFFFFFFFF DUP2 GT ISZERO PUSH2 0x3DF9 JUMPI PUSH2 0x3DF8 PUSH2 0x35F1 JUMP JUMPDEST JUMPDEST PUSH2 0x3E05 DUP5 DUP3 DUP6 ADD PUSH2 0x3D33 JUMP JUMPDEST PUSH1 0x60 DUP4 ADD MSTORE POP SWAP3 SWAP2 POP POP JUMP JUMPDEST PUSH1 0x0 PUSH1 0x40 DUP3 DUP5 SUB SLT ISZERO PUSH2 0x3E27 JUMPI PUSH2 0x3E26 PUSH2 0x35EC JUMP JUMPDEST JUMPDEST PUSH2 0x3E31 PUSH1 0x40 PUSH2 0x303D JUMP JUMPDEST SWAP1 POP PUSH1 0x0 DUP3 ADD CALLDATALOAD PUSH8 0xFFFFFFFFFFFFFFFF DUP2 GT ISZERO PUSH2 0x3E51 JUMPI PUSH2 0x3E50 PUSH2 0x35F1 JUMP JUMPDEST JUMPDEST PUSH2 0x3E5D DUP5 DUP3 DUP6 ADD PUSH2 0x3D61 JUMP JUMPDEST PUSH1 0x0 DUP4 ADD MSTORE POP PUSH1 0x20 DUP3 ADD CALLDATALOAD PUSH8 0xFFFFFFFFFFFFFFFF DUP2 GT ISZERO PUSH2 0x3E81 JUMPI PUSH2 0x3E80 PUSH2 0x35F1 JUMP JUMPDEST JUMPDEST PUSH2 0x3E8D DUP5 DUP3 DUP6 ADD PUSH2 0x30DA JUMP JUMPDEST PUSH1 0x20 DUP4 ADD MSTORE POP SWAP3 SWAP2 POP POP JUMP JUMPDEST PUSH1 0x0 DUP1 PUSH1 0x40 DUP4 DUP6 SUB SLT ISZERO PUSH2 0x3EB0 JUMPI PUSH2 0x3EAF PUSH2 0x2CE0 JUMP JUMPDEST JUMPDEST PUSH1 0x0 DUP4 ADD CALLDATALOAD PUSH8 0xFFFFFFFFFFFFFFFF DUP2 GT ISZERO PUSH2 0x3ECE JUMPI PUSH2 0x3ECD PUSH2 0x2CE5 JUMP JUMPDEST JUMPDEST PUSH2 0x3EDA DUP6 DUP3 DUP7 ADD PUSH2 0x3E11 JUMP JUMPDEST SWAP3 POP POP PUSH1 0x20 PUSH2 0x3EEB DUP6 DUP3 DUP7 ADD PUSH2 0x2D0B JUMP JUMPDEST SWAP2 POP POP SWAP3 POP SWAP3 SWAP1 POP JUMP JUMPDEST PUSH2 0x3EFE DUP2 PUSH2 0x31C7 JUMP JUMPDEST DUP2 EQ PUSH2 0x3F09 JUMPI PUSH1 0x0 DUP1 REVERT JUMPDEST POP JUMP JUMPDEST PUSH1 0x0 DUP2 CALLDATALOAD SWAP1 POP PUSH2 0x3F1B DUP2 PUSH2 0x3EF5 JUMP JUMPDEST SWAP3 SWAP2 POP POP JUMP JUMPDEST PUSH1 0x0 DUP1 PUSH1 0x0 PUSH1 0x60 DUP5 DUP7 SUB SLT ISZERO PUSH2 0x3F3A JUMPI PUSH2 0x3F39 PUSH2 0x2CE0 JUMP JUMPDEST JUMPDEST PUSH1 0x0 DUP5 ADD CALLDATALOAD PUSH8 0xFFFFFFFFFFFFFFFF DUP2 GT ISZERO PUSH2 0x3F58 JUMPI PUSH2 0x3F57 PUSH2 0x2CE5 JUMP JUMPDEST JUMPDEST PUSH2 0x3F64 DUP7 DUP3 DUP8 ADD PUSH2 0x30DA JUMP JUMPDEST SWAP4 POP POP PUSH1 0x20 PUSH2 0x3F75 DUP7 DUP3 DUP8 ADD PUSH2 0x312F JUMP JUMPDEST SWAP3 POP POP PUSH1 0x40 PUSH2 0x3F86 DUP7 DUP3 DUP8 ADD PUSH2 0x3F0C JUMP JUMPDEST SWAP2 POP POP SWAP3 POP SWAP3 POP SWAP3 JUMP JUMPDEST PUSH1 0x0 PUSH1 0x40 DUP3 ADD SWAP1 POP PUSH2 0x3FA5 PUSH1 0x0 DUP4 ADD DUP6 PUSH2 0x3316 JUMP JUMPDEST PUSH2 0x3FB2 PUSH1 0x20 DUP4 ADD DUP5 PUSH2 0x31E9 JUMP JUMPDEST SWAP4 SWAP3 POP POP POP JUMP JUMPDEST PUSH1 0x0 PUSH1 0x20 DUP3 DUP5 SUB SLT ISZERO PUSH2 0x3FCF JUMPI PUSH2 0x3FCE PUSH2 0x2CE0 JUMP JUMPDEST JUMPDEST PUSH1 0x0 DUP3 ADD CALLDATALOAD PUSH8 0xFFFFFFFFFFFFFFFF DUP2 GT ISZERO PUSH2 0x3FED JUMPI PUSH2 0x3FEC PUSH2 0x2CE5 JUMP JUMPDEST JUMPDEST PUSH2 0x3FF9 DUP5 DUP3 DUP6 ADD PUSH2 0x3E11 JUMP JUMPDEST SWAP2 POP POP SWAP3 SWAP2 POP POP JUMP JUMPDEST PUSH32 0x4E487B7100000000000000000000000000000000000000000000000000000000 PUSH1 0x0 MSTORE PUSH1 0x22 PUSH1 0x4 MSTORE PUSH1 0x24 PUSH1 0x0 REVERT JUMPDEST PUSH1 0x0 PUSH1 0x2 DUP3 DIV SWAP1 POP PUSH1 0x1 DUP3 AND DUP1 PUSH2 0x4049 JUMPI PUSH1 0x7F DUP3 AND SWAP2 POP JUMPDEST PUSH1 0x20 DUP3 LT DUP2 EQ ISZERO PUSH2 0x405D JUMPI PUSH2 0x405C PUSH2 0x4002 JUMP JUMPDEST JUMPDEST POP SWAP2 SWAP1 POP JUMP JUMPDEST PUSH32 0x4E487B7100000000000000000000000000000000000000000000000000000000 PUSH1 0x0 MSTORE PUSH1 0x11 PUSH1 0x4 MSTORE PUSH1 0x24 PUSH1 0x0 REVERT JUMPDEST PUSH1 0x0 PUSH2 0x409D DUP3 PUSH2 0x3108 JUMP JUMPDEST SWAP2 POP PUSH2 0x40A8 DUP4 PUSH2 0x3108 JUMP JUMPDEST SWAP3 POP DUP3 PUSH4 0xFFFFFFFF SUB DUP3 GT ISZERO PUSH2 0x40C1 JUMPI PUSH2 0x40C0 PUSH2 0x4063 JUMP JUMPDEST JUMPDEST DUP3 DUP3 ADD SWAP1 POP SWAP3 SWAP2 POP POP JUMP JUMPDEST PUSH1 0x0 PUSH2 0x40D7 DUP3 PUSH2 0x3108 JUMP JUMPDEST SWAP2 POP PUSH2 0x40E2 DUP4 PUSH2 0x3108 JUMP JUMPDEST SWAP3 POP DUP3 DUP3 LT ISZERO PUSH2 0x40F5 JUMPI PUSH2 0x40F4 PUSH2 0x4063 JUMP JUMPDEST JUMPDEST DUP3 DUP3 SUB SWAP1 POP SWAP3 SWAP2 POP POP JUMP JUMPDEST PUSH32 0x43434520696E666F726D6174696F6E20646F6573206E6F7420636865636B6F75 PUSH1 0x0 DUP3 ADD MSTORE PUSH32 0x7400000000000000000000000000000000000000000000000000000000000000 PUSH1 0x20 DUP3 ADD MSTORE POP JUMP JUMPDEST PUSH1 0x0 PUSH2 0x415C PUSH1 0x21 DUP4 PUSH2 0x3500 JUMP JUMPDEST SWAP2 POP PUSH2 0x4167 DUP3 PUSH2 0x4100 JUMP JUMPDEST PUSH1 0x40 DUP3 ADD SWAP1 POP SWAP2 SWAP1 POP JUMP JUMPDEST PUSH1 0x0 PUSH1 0x20 DUP3 ADD SWAP1 POP DUP2 DUP2 SUB PUSH1 0x0 DUP4 ADD MSTORE PUSH2 0x418B DUP2 PUSH2 0x414F JUMP JUMPDEST SWAP1 POP SWAP2 SWAP1 POP JUMP JUMPDEST PUSH32 0x436F6D706F6E656E747320646F206E6F742076616C6964617465000000000000 PUSH1 0x0 DUP3 ADD MSTORE POP JUMP JUMPDEST PUSH1 0x0 PUSH2 0x41C8 PUSH1 0x1A DUP4 PUSH2 0x3500 JUMP JUMPDEST SWAP2 POP PUSH2 0x41D3 DUP3 PUSH2 0x4192 JUMP JUMPDEST PUSH1 0x20 DUP3 ADD SWAP1 POP SWAP2 SWAP1 POP JUMP JUMPDEST PUSH1 0x0 PUSH1 0x20 DUP3 ADD SWAP1 POP DUP2 DUP2 SUB PUSH1 0x0 DUP4 ADD MSTORE PUSH2 0x41F7 DUP2 PUSH2 0x41BB JUMP JUMPDEST SWAP1 POP SWAP2 SWAP1 POP JUMP JUMPDEST PUSH32 0x5374617465726F6F7420646F6573206E6F74206D617463680000000000000000 PUSH1 0x0 DUP3 ADD MSTORE POP JUMP JUMPDEST PUSH1 0x0 PUSH2 0x4234 PUSH1 0x18 DUP4 PUSH2 0x3500 JUMP JUMPDEST SWAP2 POP PUSH2 0x423F DUP3 PUSH2 0x41FE JUMP JUMPDEST PUSH1 0x20 DUP3 ADD SWAP1 POP SWAP2 SWAP1 POP JUMP JUMPDEST PUSH1 0x0 PUSH1 0x20 DUP3 ADD SWAP1 POP DUP2 DUP2 SUB PUSH1 0x0 DUP4 ADD MSTORE PUSH2 0x4263 DUP2 PUSH2 0x4227 JUMP JUMPDEST SWAP1 POP SWAP2 SWAP1 POP JUMP JUMPDEST PUSH32 0x4272616E6368206D757374206265206C6F6E676572207468616E203000000000 PUSH1 0x0 DUP3 ADD MSTORE POP JUMP JUMPDEST PUSH1 0x0 PUSH2 0x42A0 PUSH1 0x1C DUP4 PUSH2 0x3500 JUMP JUMPDEST SWAP2 POP PUSH2 0x42AB DUP3 PUSH2 0x426A JUMP JUMPDEST PUSH1 0x20 DUP3 ADD SWAP1 POP SWAP2 SWAP1 POP JUMP JUMPDEST PUSH1 0x0 PUSH1 0x20 DUP3 ADD SWAP1 POP DUP2 DUP2 SUB PUSH1 0x0 DUP4 ADD MSTORE PUSH2 0x42CF DUP2 PUSH2 0x4293 JUMP JUMPDEST SWAP1 POP SWAP2 SWAP1 POP JUMP JUMPDEST PUSH1 0x0 DUP2 SWAP1 POP SWAP2 SWAP1 POP JUMP JUMPDEST PUSH1 0x0 PUSH2 0x42FB PUSH2 0x42F6 PUSH2 0x42F1 DUP5 PUSH2 0x3108 JUMP JUMPDEST PUSH2 0x42D6 JUMP JUMPDEST PUSH2 0x327C JUMP JUMPDEST SWAP1 POP SWAP2 SWAP1 POP JUMP JUMPDEST PUSH2 0x430B DUP2 PUSH2 0x42E0 JUMP JUMPDEST DUP3 MSTORE POP POP JUMP JUMPDEST PUSH2 0x431A DUP2 PUSH2 0x2ED6 JUMP JUMPDEST DUP3 MSTORE POP POP JUMP JUMPDEST PUSH1 0x0 PUSH1 0x60 DUP3 ADD SWAP1 POP PUSH2 0x4335 PUSH1 0x0 DUP4 ADD DUP7 PUSH2 0x4302 JUMP JUMPDEST PUSH2 0x4342 PUSH1 0x20 DUP4 ADD DUP6 PUSH2 0x4302 JUMP JUMPDEST PUSH2 0x434F PUSH1 0x40 DUP4 ADD DUP5 PUSH2 0x4311 JUMP JUMPDEST SWAP5 SWAP4 POP POP POP POP JUMP JUMPDEST PUSH2 0x4360 DUP2 PUSH2 0x327C JUMP JUMPDEST DUP2 EQ PUSH2 0x436B JUMPI PUSH1 0x0 DUP1 REVERT JUMPDEST POP JUMP JUMPDEST PUSH1 0x0 DUP2 MLOAD SWAP1 POP PUSH2 0x437D DUP2 PUSH2 0x4357 JUMP JUMPDEST SWAP3 SWAP2 POP POP JUMP JUMPDEST PUSH1 0x0 PUSH1 0x20 DUP3 DUP5 SUB SLT ISZERO PUSH2 0x4399 JUMPI PUSH2 0x4398 PUSH2 0x2CE0 JUMP JUMPDEST JUMPDEST PUSH1 0x0 PUSH2 0x43A7 DUP5 DUP3 DUP6 ADD PUSH2 0x436E JUMP JUMPDEST SWAP2 POP POP SWAP3 SWAP2 POP POP JUMP JUMPDEST PUSH32 0x4E487B7100000000000000000000000000000000000000000000000000000000 PUSH1 0x0 MSTORE PUSH1 0x32 PUSH1 0x4 MSTORE PUSH1 0x24 PUSH1 0x0 REVERT JUMPDEST PUSH32 0x56616C75652063616E20626520657175616C20746F206E6F646520627574206E PUSH1 0x0 DUP3 ADD MSTORE PUSH32 0x65766572206F6E20746865207269676874000000000000000000000000000000 PUSH1 0x20 DUP3 ADD MSTORE POP JUMP JUMPDEST PUSH1 0x0 PUSH2 0x443B PUSH1 0x31 DUP4 PUSH2 0x3500 JUMP JUMPDEST SWAP2 POP PUSH2 0x4446 DUP3 PUSH2 0x43DF JUMP JUMPDEST PUSH1 0x40 DUP3 ADD SWAP1 POP SWAP2 SWAP1 POP JUMP JUMPDEST PUSH1 0x0 PUSH1 0x20 DUP3 ADD SWAP1 POP DUP2 DUP2 SUB PUSH1 0x0 DUP4 ADD MSTORE PUSH2 0x446A DUP2 PUSH2 0x442E JUMP JUMPDEST SWAP1 POP SWAP2 SWAP1 POP JUMP JUMPDEST PUSH1 0x0 DUP2 SWAP1 POP SWAP2 SWAP1 POP JUMP JUMPDEST PUSH2 0x448C PUSH2 0x4487 DUP3 PUSH2 0x2CEA JUMP JUMPDEST PUSH2 0x4471 JUMP JUMPDEST DUP3 MSTORE POP POP JUMP JUMPDEST PUSH1 0x0 PUSH2 0x449E DUP3 DUP6 PUSH2 0x447B JUMP JUMPDEST PUSH1 0x20 DUP3 ADD SWAP2 POP PUSH2 0x44AE DUP3 DUP5 PUSH2 0x447B JUMP JUMPDEST PUSH1 0x20 DUP3 ADD SWAP2 POP DUP2 SWAP1 POP SWAP4 SWAP3 POP POP POP JUMP JUMPDEST PUSH1 0x0 DUP3 DUP3 MSTORE PUSH1 0x20 DUP3 ADD SWAP1 POP SWAP3 SWAP2 POP POP JUMP JUMPDEST PUSH1 0x0 PUSH2 0x44DA DUP3 PUSH2 0x2D4D JUMP JUMPDEST PUSH2 0x44E4 DUP2 DUP6 PUSH2 0x44BE JUMP JUMPDEST SWAP4 POP PUSH2 0x44F4 DUP2 DUP6 PUSH1 0x20 DUP7 ADD PUSH2 0x2D69 JUMP JUMPDEST PUSH2 0x44FD DUP2 PUSH2 0x2D9C JUMP JUMPDEST DUP5 ADD SWAP2 POP POP SWAP3 SWAP2 POP POP JUMP JUMPDEST PUSH1 0x0 PUSH1 0x20 DUP3 ADD SWAP1 POP DUP2 DUP2 SUB PUSH1 0x0 DUP4 ADD MSTORE PUSH2 0x4522 DUP2 DUP5 PUSH2 0x44CF JUMP JUMPDEST SWAP1 POP SWAP3 SWAP2 POP POP JUMP JUMPDEST PUSH1 0x0 DUP2 MLOAD SWAP1 POP PUSH2 0x4539 DUP2 PUSH2 0x2CF4 JUMP JUMPDEST SWAP3 SWAP2 POP POP JUMP JUMPDEST PUSH1 0x0 PUSH1 0x20 DUP3 DUP5 SUB SLT ISZERO PUSH2 0x4555 JUMPI PUSH2 0x4554 PUSH2 0x2CE0 JUMP JUMPDEST JUMPDEST PUSH1 0x0 PUSH2 0x4563 DUP5 DUP3 DUP6 ADD PUSH2 0x452A JUMP JUMPDEST SWAP2 POP POP SWAP3 SWAP2 POP POP JUMP JUMPDEST PUSH1 0x0 PUSH2 0x4577 DUP3 PUSH2 0x2E08 JUMP JUMPDEST SWAP2 POP PUSH32 0xFFFFFFFFFFFFFFFFFFFFFFFFFFFFFFFFFFFFFFFFFFFFFFFFFFFFFFFFFFFFFFFF DUP3 EQ ISZERO PUSH2 0x45AA JUMPI PUSH2 0x45A9 PUSH2 0x4063 JUMP JUMPDEST JUMPDEST PUSH1 0x1 DUP3 ADD SWAP1 POP SWAP2 SWAP1 POP JUMP JUMPDEST PUSH1 0x0 PUSH2 0x45C0 DUP3 PUSH2 0x2E08 JUMP JUMPDEST SWAP2 POP PUSH2 0x45CB DUP4 PUSH2 0x2E08 JUMP JUMPDEST SWAP3 POP DUP3 DUP3 LT ISZERO PUSH2 0x45DE JUMPI PUSH2 0x45DD PUSH2 0x4063 JUMP JUMPDEST JUMPDEST DUP3 DUP3 SUB SWAP1 POP SWAP3 SWAP2 POP POP JUMP JUMPDEST PUSH1 0x0 PUSH2 0x45F4 DUP3 PUSH2 0x2E08 JUMP JUMPDEST SWAP2 POP PUSH2 0x45FF DUP4 PUSH2 0x2E08 JUMP JUMPDEST SWAP3 POP DUP3 PUSH32 0xFFFFFFFFFFFFFFFFFFFFFFFFFFFFFFFFFFFFFFFFFFFFFFFFFFFFFFFFFFFFFFFF SUB DUP3 GT ISZERO PUSH2 0x4634 JUMPI PUSH2 0x4633 PUSH2 0x4063 JUMP JUMPDEST JUMPDEST DUP3 DUP3 ADD SWAP1 POP SWAP3 SWAP2 POP POP JUMP JUMPDEST PUSH1 0x0 DUP2 SWAP1 POP SWAP3 SWAP2 POP POP JUMP JUMPDEST PUSH32 0x5B00000000000000000000000000000000000000000000000000000000000000 PUSH1 0x0 DUP3 ADD MSTORE POP JUMP JUMPDEST PUSH1 0x0 PUSH2 0x4680 PUSH1 0x1 DUP4 PUSH2 0x463F JUMP JUMPDEST SWAP2 POP PUSH2 0x468B DUP3 PUSH2 0x464A JUMP JUMPDEST PUSH1 0x1 DUP3 ADD SWAP1 POP SWAP2 SWAP1 POP JUMP JUMPDEST PUSH1 0x0 PUSH2 0x46A1 DUP3 PUSH2 0x34F5 JUMP JUMPDEST PUSH2 0x46AB DUP2 DUP6 PUSH2 0x463F JUMP JUMPDEST SWAP4 POP PUSH2 0x46BB DUP2 DUP6 PUSH1 0x20 DUP7 ADD PUSH2 0x2D69 JUMP JUMPDEST DUP1 DUP5 ADD SWAP2 POP POP SWAP3 SWAP2 POP POP JUMP JUMPDEST PUSH32 0x5D00000000000000000000000000000000000000000000000000000000000000 PUSH1 0x0 DUP3 ADD MSTORE POP JUMP JUMPDEST PUSH1 0x0 PUSH2 0x46FD PUSH1 0x1 DUP4 PUSH2 0x463F JUMP JUMPDEST SWAP2 POP PUSH2 0x4708 DUP3 PUSH2 0x46C7 JUMP JUMPDEST PUSH1 0x1 DUP3 ADD SWAP1 POP SWAP2 SWAP1 POP JUMP JUMPDEST PUSH1 0x0 DUP2 SWAP1 POP SWAP3 SWAP2 POP POP JUMP JUMPDEST PUSH1 0x0 PUSH2 0x4729 DUP3 PUSH2 0x2D4D JUMP JUMPDEST PUSH2 0x4733 DUP2 DUP6 PUSH2 0x4713 JUMP JUMPDEST SWAP4 POP PUSH2 0x4743 DUP2 DUP6 PUSH1 0x20 DUP7 ADD PUSH2 0x2D69 JUMP JUMPDEST DUP1 DUP5 ADD SWAP2 POP POP SWAP3 SWAP2 POP POP JUMP JUMPDEST PUSH1 0x0 PUSH2 0x475A DUP3 PUSH2 0x4673 JUMP JUMPDEST SWAP2 POP PUSH2 0x4766 DUP3 DUP6 PUSH2 0x4696 JUMP JUMPDEST SWAP2 POP PUSH2 0x4771 DUP3 PUSH2 0x46F0 JUMP JUMPDEST SWAP2 POP PUSH2 0x477D DUP3 DUP5 PUSH2 0x471E JUMP JUMPDEST SWAP2 POP DUP2 SWAP1 POP SWAP4 SWAP3 POP POP POP JUMP JUMPDEST PUSH1 0x0 PUSH2 0x4795 DUP3 DUP5 PUSH2 0x471E JUMP JUMPDEST SWAP2 POP DUP2 SWAP1 POP SWAP3 SWAP2 POP POP JUMP JUMPDEST PUSH1 0x0 PUSH8 0xFFFFFFFFFFFFFFFF DUP3 GT ISZERO PUSH2 0x47BB JUMPI PUSH2 0x47BA PUSH2 0x2FDD JUMP JUMPDEST JUMPDEST PUSH2 0x47C4 DUP3 PUSH2 0x2D9C JUMP JUMPDEST SWAP1 POP PUSH1 0x20 DUP2 ADD SWAP1 POP SWAP2 SWAP1 POP JUMP JUMPDEST PUSH1 0x0 PUSH2 0x47E4 PUSH2 0x47DF DUP5 PUSH2 0x47A0 JUMP JUMPDEST PUSH2 0x303D JUMP JUMPDEST SWAP1 POP DUP3 DUP2 MSTORE PUSH1 0x20 DUP2 ADD DUP5 DUP5 DUP5 ADD GT ISZERO PUSH2 0x4800 JUMPI PUSH2 0x47FF PUSH2 0x2FD8 JUMP JUMPDEST JUMPDEST PUSH2 0x480B DUP5 DUP3 DUP6 PUSH2 0x2D69 JUMP JUMPDEST POP SWAP4 SWAP3 POP POP POP JUMP JUMPDEST PUSH1 0x0 DUP3 PUSH1 0x1F DUP4 ADD SLT PUSH2 0x4828 JUMPI PUSH2 0x4827 PUSH2 0x2FD3 JUMP JUMPDEST JUMPDEST DUP2 MLOAD PUSH2 0x4838 DUP5 DUP3 PUSH1 0x20 DUP7 ADD PUSH2 0x47D1 JUMP JUMPDEST SWAP2 POP POP SWAP3 SWAP2 POP POP JUMP JUMPDEST PUSH1 0x0 PUSH1 0x20 DUP3 DUP5 SUB SLT ISZERO PUSH2 0x4857 JUMPI PUSH2 0x4856 PUSH2 0x2CE0 JUMP JUMPDEST JUMPDEST PUSH1 0x0 DUP3 ADD MLOAD PUSH8 0xFFFFFFFFFFFFFFFF DUP2 GT ISZERO PUSH2 0x4875 JUMPI PUSH2 0x4874 PUSH2 0x2CE5 JUMP JUMPDEST JUMPDEST PUSH2 0x4881 DUP5 DUP3 DUP6 ADD PUSH2 0x4813 JUMP JUMPDEST SWAP2 POP POP SWAP3 SWAP2 POP POP JUMP JUMPDEST PUSH32 0x4E487B7100000000000000000000000000000000000000000000000000000000 PUSH1 0x0 MSTORE PUSH1 0x21 PUSH1 0x4 MSTORE PUSH1 0x24 PUSH1 0x0 REVERT JUMPDEST PUSH1 0x0 PUSH1 0x40 DUP3 ADD SWAP1 POP DUP2 DUP2 SUB PUSH1 0x0 DUP4 ADD MSTORE PUSH2 0x48D3 DUP2 DUP6 PUSH2 0x2DAD JUMP JUMPDEST SWAP1 POP PUSH2 0x48E2 PUSH1 0x20 DUP4 ADD DUP5 PUSH2 0x3316 JUMP JUMPDEST SWAP4 SWAP3 POP POP POP JUMP JUMPDEST PUSH1 0x0 DUP2 MLOAD SWAP1 POP PUSH2 0x48F8 DUP2 PUSH2 0x3118 JUMP JUMPDEST SWAP3 SWAP2 POP POP JUMP JUMPDEST PUSH1 0x0 PUSH1 0x40 DUP3 DUP5 SUB SLT ISZERO PUSH2 0x4914 JUMPI PUSH2 0x4913 PUSH2 0x35EC JUMP JUMPDEST JUMPDEST PUSH2 0x491E PUSH1 0x40 PUSH2 0x303D JUMP JUMPDEST SWAP1 POP PUSH1 0x0 PUSH2 0x492E DUP5 DUP3 DUP6 ADD PUSH2 0x48E9 JUMP JUMPDEST PUSH1 0x0 DUP4 ADD MSTORE POP PUSH1 0x20 PUSH2 0x4942 DUP5 DUP3 DUP6 ADD PUSH2 0x436E JUMP JUMPDEST PUSH1 0x20 DUP4 ADD MSTORE POP SWAP3 SWAP2 POP POP JUMP JUMPDEST PUSH1 0x0 PUSH1 0x40 DUP3 DUP5 SUB SLT ISZERO PUSH2 0x4964 JUMPI PUSH2 0x4963 PUSH2 0x2CE0 JUMP JUMPDEST JUMPDEST PUSH1 0x0 PUSH2 0x4972 DUP5 DUP3 DUP6 ADD PUSH2 0x48FE JUMP JUMPDEST SWAP2 POP POP SWAP3 SWAP2 POP POP JUMP JUMPDEST PUSH1 0x0 PUSH2 0x4986 DUP3 PUSH2 0x327C JUMP JUMPDEST SWAP2 POP PUSH2 0x4991 DUP4 PUSH2 0x327C JUMP JUMPDEST SWAP3 POP DUP3 PUSH8 0xFFFFFFFFFFFFFFFF SUB DUP3 GT ISZERO PUSH2 0x49AE JUMPI PUSH2 0x49AD PUSH2 0x4063 JUMP JUMPDEST JUMPDEST DUP3 DUP3 ADD SWAP1 POP SWAP3 SWAP2 POP POP JUMP JUMPDEST PUSH1 0x0 PUSH2 0x49C4 DUP3 PUSH2 0x2E08 JUMP JUMPDEST SWAP2 POP PUSH2 0x49CF DUP4 PUSH2 0x2E08 JUMP JUMPDEST SWAP3 POP DUP2 PUSH32 0xFFFFFFFFFFFFFFFFFFFFFFFFFFFFFFFFFFFFFFFFFFFFFFFFFFFFFFFFFFFFFFFF DIV DUP4 GT DUP3 ISZERO ISZERO AND ISZERO PUSH2 0x4A08 JUMPI PUSH2 0x4A07 PUSH2 0x4063 JUMP JUMPDEST JUMPDEST DUP3 DUP3 MUL SWAP1 POP SWAP3 SWAP2 POP POP JUMP JUMPDEST PUSH1 0x0 PUSH2 0x4A1E DUP3 PUSH2 0x2E08 JUMP JUMPDEST SWAP2 POP PUSH1 0x0 DUP3 EQ ISZERO PUSH2 0x4A32 JUMPI PUSH2 0x4A31 PUSH2 0x4063 JUMP JUMPDEST JUMPDEST PUSH1 0x1 DUP3 SUB SWAP1 POP SWAP2 SWAP1 POP JUMP JUMPDEST PUSH32 0x537472696E67733A20686578206C656E67746820696E73756666696369656E74 PUSH1 0x0 DUP3 ADD MSTORE POP JUMP JUMPDEST PUSH1 0x0 PUSH2 0x4A73 PUSH1 0x20 DUP4 PUSH2 0x3500 JUMP JUMPDEST SWAP2 POP PUSH2 0x4A7E DUP3 PUSH2 0x4A3D JUMP JUMPDEST PUSH1 0x20 DUP3 ADD SWAP1 POP SWAP2 SWAP1 POP JUMP JUMPDEST PUSH1 0x0 PUSH1 0x20 DUP3 ADD SWAP1 POP DUP2 DUP2 SUB PUSH1 0x0 DUP4 ADD MSTORE PUSH2 0x4AA2 DUP2 PUSH2 0x4A66 JUMP JUMPDEST SWAP1 POP SWAP2 SWAP1 POP JUMP JUMPDEST PUSH32 0x736C6963655F6F766572666C6F77000000000000000000000000000000000000 PUSH1 0x0 DUP3 ADD MSTORE POP JUMP JUMPDEST PUSH1 0x0 PUSH2 0x4ADF PUSH1 0xE DUP4 PUSH2 0x3500 JUMP JUMPDEST SWAP2 POP PUSH2 0x4AEA DUP3 PUSH2 0x4AA9 JUMP JUMPDEST PUSH1 0x20 DUP3 ADD SWAP1 POP SWAP2 SWAP1 POP JUMP JUMPDEST PUSH1 0x0 PUSH1 0x20 DUP3 ADD SWAP1 POP DUP2 DUP2 SUB PUSH1 0x0 DUP4 ADD MSTORE PUSH2 0x4B0E DUP2 PUSH2 0x4AD2 JUMP JUMPDEST SWAP1 POP SWAP2 SWAP1 POP JUMP JUMPDEST PUSH32 0x736C6963655F6F75744F66426F756E6473000000000000000000000000000000 PUSH1 0x0 DUP3 ADD MSTORE POP JUMP JUMPDEST PUSH1 0x0 PUSH2 0x4B4B PUSH1 0x11 DUP4 PUSH2 0x3500 JUMP JUMPDEST SWAP2 POP PUSH2 0x4B56 DUP3 PUSH2 0x4B15 JUMP JUMPDEST PUSH1 0x20 DUP3 ADD SWAP1 POP SWAP2 SWAP1 POP JUMP JUMPDEST PUSH1 0x0 PUSH1 0x20 DUP3 ADD SWAP1 POP DUP2 DUP2 SUB PUSH1 0x0 DUP4 ADD MSTORE PUSH2 0x4B7A DUP2 PUSH2 0x4B3E JUMP JUMPDEST SWAP1 POP SWAP2 SWAP1 POP JUMP INVALID LOG2 PUSH5 0x6970667358 0x22 SLT KECCAK256 0xF9 DUP4 CALLDATASIZE SWAP11 0xE INVALID PUSH20 0x71F5A6CCCAF68F48AD008060A42A00ADD17331A5 0x26 0xB9 MUL 0xB0 0xDA PUSH5 0x736F6C6343 STOP ADDMOD MULMOD STOP CALLER "
		},
		"gasEstimates": {
			"creation": {
				"codeDepositCost": "3876600",
				"executionCost": "infinite",
				"totalCost": "infinite"
			},
			"external": {
				"_readyExports(uint256)": "infinite",
				"bestForks(uint256)": "infinite",
				"bridgeConverterActive()": "2610",
				"cceLastEndHeight()": "2589",
				"cceLastStartHeight()": "2538",
				"checkBranch(bytes32,(uint8,uint32,uint32,uint8,bytes32[]))": "infinite",
				"checkCCEValues(bytes,uint32,bytes32,uint32)": "infinite",
				"checkExportAndTransfers(((uint8,uint8,(uint8,(uint8,uint32,uint32,uint8,bytes32[]))[],(uint8,uint8,bytes,(uint8,(uint8,uint32,uint32,uint8,bytes32[]))[])[]),bytes),bytes32)": "infinite",
				"checkProof(bytes32,(uint8,(uint8,uint32,uint32,uint8,bytes32[]))[])": "infinite",
				"claimableFees(bytes32)": "2834",
				"contracts(uint256)": "5002",
				"exportHeights(uint256)": "infinite",
				"getLastConfirmedVRSCStateRoot()": "9348",
				"getTokenList(uint256,uint256)": "infinite",
				"lastImportInfo(bytes32)": "infinite",
				"lastTxIdImport()": "2497",
				"notaries(uint256)": "5023",
				"notaryAddressMapping(address)": "infinite",
				"owner()": "2560",
				"processedTxids(bytes32)": "2909",
				"proveComponents(((uint8,uint8,(uint8,(uint8,uint32,uint32,uint8,bytes32[]))[],(uint8,uint8,bytes,(uint8,(uint8,uint32,uint32,uint8,bytes32[]))[])[]),bytes))": "infinite",
				"proveImports(bytes)": "infinite",
				"readAuxDest(bytes,uint32,uint176)": "infinite",
				"readVarint(bytes,uint256)": "infinite",
				"refunds(bytes32,address)": "3162",
				"rollingUpgradeVotes(uint256)": "2916",
				"rollingVoteIndex()": "2561",
				"saltsUsed(bytes32)": "2841",
				"serializeUint32(uint32)": "infinite",
				"storageGlobal(bytes32)": "infinite",
				"tokenList(uint256)": "5046",
				"verusToERC20mapping(address)": "infinite"
			},
			"internal": {
				"slice(bytes memory,uint256,uint256)": "infinite",
				"toHexString(uint160,uint256)": "infinite"
			}
		},
		"methodIdentifiers": {
			"_readyExports(uint256)": "8c7982f8",
			"bestForks(uint256)": "c36b4d1e",
			"bridgeConverterActive()": "8491fbaa",
			"cceLastEndHeight()": "538c3c5c",
			"cceLastStartHeight()": "c03d4268",
			"checkBranch(bytes32,(uint8,uint32,uint32,uint8,bytes32[]))": "d2784ad8",
			"checkCCEValues(bytes,uint32,bytes32,uint32)": "4a262b28",
			"checkExportAndTransfers(((uint8,uint8,(uint8,(uint8,uint32,uint32,uint8,bytes32[]))[],(uint8,uint8,bytes,(uint8,(uint8,uint32,uint32,uint8,bytes32[]))[])[]),bytes),bytes32)": "d7983422",
			"checkProof(bytes32,(uint8,(uint8,uint32,uint32,uint8,bytes32[]))[])": "d625f56d",
			"claimableFees(bytes32)": "23c8504d",
			"contracts(uint256)": "474da79a",
			"exportHeights(uint256)": "530f278f",
			"getLastConfirmedVRSCStateRoot()": "e4c63f47",
			"getTokenList(uint256,uint256)": "d4ed19ac",
			"lastImportInfo(bytes32)": "683d8cbb",
			"lastTxIdImport()": "9a70b466",
			"notaries(uint256)": "6d4b76d5",
			"notaryAddressMapping(address)": "250dea53",
			"owner()": "8da5cb5b",
			"processedTxids(bytes32)": "327d4263",
			"proveComponents(((uint8,uint8,(uint8,(uint8,uint32,uint32,uint8,bytes32[]))[],(uint8,uint8,bytes,(uint8,(uint8,uint32,uint32,uint8,bytes32[]))[])[]),bytes))": "fc8027d8",
			"proveImports(bytes)": "a34ccc20",
			"readAuxDest(bytes,uint32,uint176)": "dce1f74d",
			"readVarint(bytes,uint256)": "5dfbd918",
			"refunds(bytes32,address)": "5112ba98",
			"rollingUpgradeVotes(uint256)": "c7946e6d",
			"rollingVoteIndex()": "4b7ea401",
			"saltsUsed(bytes32)": "6bb67073",
			"serializeUint32(uint32)": "cecb3043",
			"storageGlobal(bytes32)": "0f031f65",
			"tokenList(uint256)": "9ead7222",
			"verusToERC20mapping(address)": "b17f15a2"
		}
	},
	"abi": [
		{
			"inputs": [
				{
					"internalType": "address",
					"name": "vETH",
					"type": "address"
				},
				{
					"internalType": "address",
					"name": "Bridge",
					"type": "address"
				},
				{
					"internalType": "address",
					"name": "Verus",
					"type": "address"
				}
			],
			"stateMutability": "nonpayable",
			"type": "constructor"
		},
		{
			"inputs": [
				{
					"internalType": "uint256",
					"name": "",
					"type": "uint256"
				}
			],
			"name": "_readyExports",
			"outputs": [
				{
					"internalType": "bytes32",
					"name": "exportHash",
					"type": "bytes32"
				},
				{
					"internalType": "bytes32",
					"name": "prevExportHash",
					"type": "bytes32"
				},
				{
					"internalType": "uint64",
					"name": "endHeight",
					"type": "uint64"
				}
			],
			"stateMutability": "view",
			"type": "function"
		},
		{
			"inputs": [
				{
					"internalType": "uint256",
					"name": "",
					"type": "uint256"
				}
			],
			"name": "bestForks",
			"outputs": [
				{
					"internalType": "bytes",
					"name": "",
					"type": "bytes"
				}
			],
			"stateMutability": "view",
			"type": "function"
		},
		{
			"inputs": [],
			"name": "bridgeConverterActive",
			"outputs": [
				{
					"internalType": "bool",
					"name": "",
					"type": "bool"
				}
			],
			"stateMutability": "view",
			"type": "function"
		},
		{
			"inputs": [],
			"name": "cceLastEndHeight",
			"outputs": [
				{
					"internalType": "uint64",
					"name": "",
					"type": "uint64"
				}
			],
			"stateMutability": "view",
			"type": "function"
		},
		{
			"inputs": [],
			"name": "cceLastStartHeight",
			"outputs": [
				{
					"internalType": "uint64",
					"name": "",
					"type": "uint64"
				}
			],
			"stateMutability": "view",
			"type": "function"
		},
		{
			"inputs": [
				{
					"internalType": "bytes32",
					"name": "_hashToCheck",
					"type": "bytes32"
				},
				{
					"components": [
						{
							"internalType": "uint8",
							"name": "CMerkleBranchBase",
							"type": "uint8"
						},
						{
							"internalType": "uint32",
							"name": "nIndex",
							"type": "uint32"
						},
						{
							"internalType": "uint32",
							"name": "nSize",
							"type": "uint32"
						},
						{
							"internalType": "uint8",
							"name": "extraHashes",
							"type": "uint8"
						},
						{
							"internalType": "bytes32[]",
							"name": "branch",
							"type": "bytes32[]"
						}
					],
					"internalType": "struct VerusObjects.CMerkleBranch",
					"name": "_branch",
					"type": "tuple"
				}
			],
			"name": "checkBranch",
			"outputs": [
				{
					"internalType": "bytes32",
					"name": "",
					"type": "bytes32"
				}
			],
			"stateMutability": "view",
			"type": "function"
		},
		{
			"inputs": [
				{
					"internalType": "bytes",
					"name": "firstObj",
					"type": "bytes"
				},
				{
					"internalType": "uint32",
					"name": "nextOffset",
					"type": "uint32"
				},
				{
					"internalType": "bytes32",
					"name": "hashedTransfers",
					"type": "bytes32"
				},
				{
					"internalType": "uint32",
					"name": "nIndex",
					"type": "uint32"
				}
			],
			"name": "checkCCEValues",
			"outputs": [
				{
					"internalType": "uint256",
					"name": "tmpPacked",
					"type": "uint256"
				},
				{
					"internalType": "uint176",
					"name": "exporter",
					"type": "uint176"
				}
			],
			"stateMutability": "view",
			"type": "function"
		},
		{
			"inputs": [
				{
					"components": [
						{
							"components": [
								{
									"internalType": "uint8",
									"name": "version",
									"type": "uint8"
								},
								{
									"internalType": "uint8",
									"name": "typeC",
									"type": "uint8"
								},
								{
									"components": [
										{
											"internalType": "uint8",
											"name": "branchType",
											"type": "uint8"
										},
										{
											"components": [
												{
													"internalType": "uint8",
													"name": "CMerkleBranchBase",
													"type": "uint8"
												},
												{
													"internalType": "uint32",
													"name": "nIndex",
													"type": "uint32"
												},
												{
													"internalType": "uint32",
													"name": "nSize",
													"type": "uint32"
												},
												{
													"internalType": "uint8",
													"name": "extraHashes",
													"type": "uint8"
												},
												{
													"internalType": "bytes32[]",
													"name": "branch",
													"type": "bytes32[]"
												}
											],
											"internalType": "struct VerusObjects.CMerkleBranch",
											"name": "proofSequence",
											"type": "tuple"
										}
									],
									"internalType": "struct VerusObjects.CTXProof[]",
									"name": "txproof",
									"type": "tuple[]"
								},
								{
									"components": [
										{
											"internalType": "uint8",
											"name": "elType",
											"type": "uint8"
										},
										{
											"internalType": "uint8",
											"name": "elIdx",
											"type": "uint8"
										},
										{
											"internalType": "bytes",
											"name": "elVchObj",
											"type": "bytes"
										},
										{
											"components": [
												{
													"internalType": "uint8",
													"name": "branchType",
													"type": "uint8"
												},
												{
													"components": [
														{
															"internalType": "uint8",
															"name": "CMerkleBranchBase",
															"type": "uint8"
														},
														{
															"internalType": "uint32",
															"name": "nIndex",
															"type": "uint32"
														},
														{
															"internalType": "uint32",
															"name": "nSize",
															"type": "uint32"
														},
														{
															"internalType": "uint8",
															"name": "extraHashes",
															"type": "uint8"
														},
														{
															"internalType": "bytes32[]",
															"name": "branch",
															"type": "bytes32[]"
														}
													],
													"internalType": "struct VerusObjects.CMerkleBranch",
													"name": "proofSequence",
													"type": "tuple"
												}
											],
											"internalType": "struct VerusObjects.CTXProof[]",
											"name": "elProof",
											"type": "tuple[]"
										}
									],
									"internalType": "struct VerusObjects.CComponents[]",
									"name": "components",
									"type": "tuple[]"
								}
							],
							"internalType": "struct VerusObjects.CPtransactionproof",
							"name": "partialtransactionproof",
							"type": "tuple"
						},
						{
							"internalType": "bytes",
							"name": "serializedTransfers",
							"type": "bytes"
						}
					],
					"internalType": "struct VerusObjects.CReserveTransferImport",
					"name": "_import",
					"type": "tuple"
				},
				{
					"internalType": "bytes32",
					"name": "hashedTransfers",
					"type": "bytes32"
				}
			],
			"name": "checkExportAndTransfers",
			"outputs": [
				{
					"internalType": "uint256",
					"name": "",
					"type": "uint256"
				},
				{
					"internalType": "uint176",
					"name": "",
					"type": "uint176"
				}
			],
			"stateMutability": "view",
			"type": "function"
		},
		{
			"inputs": [
				{
					"internalType": "bytes32",
					"name": "hashToProve",
					"type": "bytes32"
				},
				{
					"components": [
						{
							"internalType": "uint8",
							"name": "branchType",
							"type": "uint8"
						},
						{
							"components": [
								{
									"internalType": "uint8",
									"name": "CMerkleBranchBase",
									"type": "uint8"
								},
								{
									"internalType": "uint32",
									"name": "nIndex",
									"type": "uint32"
								},
								{
									"internalType": "uint32",
									"name": "nSize",
									"type": "uint32"
								},
								{
									"internalType": "uint8",
									"name": "extraHashes",
									"type": "uint8"
								},
								{
									"internalType": "bytes32[]",
									"name": "branch",
									"type": "bytes32[]"
								}
							],
							"internalType": "struct VerusObjects.CMerkleBranch",
							"name": "proofSequence",
							"type": "tuple"
						}
					],
					"internalType": "struct VerusObjects.CTXProof[]",
					"name": "_branches",
					"type": "tuple[]"
				}
			],
			"name": "checkProof",
			"outputs": [
				{
					"internalType": "bytes32",
					"name": "",
					"type": "bytes32"
				}
			],
			"stateMutability": "view",
			"type": "function"
		},
		{
			"inputs": [
				{
					"internalType": "bytes32",
					"name": "",
					"type": "bytes32"
				}
			],
			"name": "claimableFees",
			"outputs": [
				{
					"internalType": "uint256",
					"name": "",
					"type": "uint256"
				}
			],
			"stateMutability": "view",
			"type": "function"
		},
		{
			"inputs": [
				{
					"internalType": "uint256",
					"name": "",
					"type": "uint256"
				}
			],
			"name": "contracts",
			"outputs": [
				{
					"internalType": "address",
					"name": "",
					"type": "address"
				}
			],
			"stateMutability": "view",
			"type": "function"
		},
		{
			"inputs": [
				{
					"internalType": "uint256",
					"name": "",
					"type": "uint256"
				}
			],
			"name": "exportHeights",
			"outputs": [
				{
					"internalType": "uint256",
					"name": "",
					"type": "uint256"
				}
			],
			"stateMutability": "view",
			"type": "function"
		},
		{
			"inputs": [],
			"name": "getLastConfirmedVRSCStateRoot",
			"outputs": [
				{
					"internalType": "bytes32",
					"name": "",
					"type": "bytes32"
				}
			],
			"stateMutability": "view",
			"type": "function"
		},
		{
			"inputs": [
				{
					"internalType": "uint256",
					"name": "start",
					"type": "uint256"
				},
				{
					"internalType": "uint256",
					"name": "end",
					"type": "uint256"
				}
			],
			"name": "getTokenList",
			"outputs": [
				{
					"components": [
						{
							"internalType": "address",
							"name": "iaddress",
							"type": "address"
						},
						{
							"internalType": "address",
							"name": "erc20ContractAddress",
							"type": "address"
						},
						{
							"internalType": "address",
							"name": "launchSystemID",
							"type": "address"
						},
						{
							"internalType": "uint8",
							"name": "flags",
							"type": "uint8"
						},
						{
							"internalType": "string",
							"name": "name",
							"type": "string"
						},
						{
							"internalType": "string",
							"name": "ticker",
							"type": "string"
						},
						{
							"internalType": "uint256",
							"name": "tokenID",
							"type": "uint256"
						}
					],
					"internalType": "struct VerusObjects.setupToken[]",
					"name": "",
					"type": "tuple[]"
				}
			],
			"stateMutability": "nonpayable",
			"type": "function"
		},
		{
			"inputs": [
				{
					"internalType": "bytes32",
					"name": "",
					"type": "bytes32"
				}
			],
			"name": "lastImportInfo",
			"outputs": [
				{
					"internalType": "bytes32",
					"name": "hashOfTransfers",
					"type": "bytes32"
				},
				{
					"internalType": "bytes32",
					"name": "exporttxid",
					"type": "bytes32"
				},
				{
					"internalType": "uint32",
					"name": "exporttxoutnum",
					"type": "uint32"
				},
				{
					"internalType": "uint32",
					"name": "height",
					"type": "uint32"
				}
			],
			"stateMutability": "view",
			"type": "function"
		},
		{
			"inputs": [],
			"name": "lastTxIdImport",
			"outputs": [
				{
					"internalType": "bytes32",
					"name": "",
					"type": "bytes32"
				}
			],
			"stateMutability": "view",
			"type": "function"
		},
		{
			"inputs": [
				{
					"internalType": "uint256",
					"name": "",
					"type": "uint256"
				}
			],
			"name": "notaries",
			"outputs": [
				{
					"internalType": "address",
					"name": "",
					"type": "address"
				}
			],
			"stateMutability": "view",
			"type": "function"
		},
		{
			"inputs": [
				{
					"internalType": "address",
					"name": "",
					"type": "address"
				}
			],
			"name": "notaryAddressMapping",
			"outputs": [
				{
					"internalType": "address",
					"name": "main",
					"type": "address"
				},
				{
					"internalType": "address",
					"name": "recovery",
					"type": "address"
				},
				{
					"internalType": "uint8",
					"name": "state",
					"type": "uint8"
				}
			],
			"stateMutability": "view",
			"type": "function"
		},
		{
			"inputs": [],
			"name": "owner",
			"outputs": [
				{
					"internalType": "address",
					"name": "",
					"type": "address"
				}
			],
			"stateMutability": "view",
			"type": "function"
		},
		{
			"inputs": [
				{
					"internalType": "bytes32",
					"name": "",
					"type": "bytes32"
				}
			],
			"name": "processedTxids",
			"outputs": [
				{
					"internalType": "bool",
					"name": "",
					"type": "bool"
				}
			],
			"stateMutability": "view",
			"type": "function"
		},
		{
			"inputs": [
				{
					"components": [
						{
							"components": [
								{
									"internalType": "uint8",
									"name": "version",
									"type": "uint8"
								},
								{
									"internalType": "uint8",
									"name": "typeC",
									"type": "uint8"
								},
								{
									"components": [
										{
											"internalType": "uint8",
											"name": "branchType",
											"type": "uint8"
										},
										{
											"components": [
												{
													"internalType": "uint8",
													"name": "CMerkleBranchBase",
													"type": "uint8"
												},
												{
													"internalType": "uint32",
													"name": "nIndex",
													"type": "uint32"
												},
												{
													"internalType": "uint32",
													"name": "nSize",
													"type": "uint32"
												},
												{
													"internalType": "uint8",
													"name": "extraHashes",
													"type": "uint8"
												},
												{
													"internalType": "bytes32[]",
													"name": "branch",
													"type": "bytes32[]"
												}
											],
											"internalType": "struct VerusObjects.CMerkleBranch",
											"name": "proofSequence",
											"type": "tuple"
										}
									],
									"internalType": "struct VerusObjects.CTXProof[]",
									"name": "txproof",
									"type": "tuple[]"
								},
								{
									"components": [
										{
											"internalType": "uint8",
											"name": "elType",
											"type": "uint8"
										},
										{
											"internalType": "uint8",
											"name": "elIdx",
											"type": "uint8"
										},
										{
											"internalType": "bytes",
											"name": "elVchObj",
											"type": "bytes"
										},
										{
											"components": [
												{
													"internalType": "uint8",
													"name": "branchType",
													"type": "uint8"
												},
												{
													"components": [
														{
															"internalType": "uint8",
															"name": "CMerkleBranchBase",
															"type": "uint8"
														},
														{
															"internalType": "uint32",
															"name": "nIndex",
															"type": "uint32"
														},
														{
															"internalType": "uint32",
															"name": "nSize",
															"type": "uint32"
														},
														{
															"internalType": "uint8",
															"name": "extraHashes",
															"type": "uint8"
														},
														{
															"internalType": "bytes32[]",
															"name": "branch",
															"type": "bytes32[]"
														}
													],
													"internalType": "struct VerusObjects.CMerkleBranch",
													"name": "proofSequence",
													"type": "tuple"
												}
											],
											"internalType": "struct VerusObjects.CTXProof[]",
											"name": "elProof",
											"type": "tuple[]"
										}
									],
									"internalType": "struct VerusObjects.CComponents[]",
									"name": "components",
									"type": "tuple[]"
								}
							],
							"internalType": "struct VerusObjects.CPtransactionproof",
							"name": "partialtransactionproof",
							"type": "tuple"
						},
						{
							"internalType": "bytes",
							"name": "serializedTransfers",
							"type": "bytes"
						}
					],
					"internalType": "struct VerusObjects.CReserveTransferImport",
					"name": "_import",
					"type": "tuple"
				}
			],
			"name": "proveComponents",
			"outputs": [
				{
					"internalType": "bytes32",
					"name": "txRoot",
					"type": "bytes32"
				}
			],
			"stateMutability": "view",
			"type": "function"
		},
		{
			"inputs": [
				{
					"internalType": "bytes",
					"name": "dataIn",
					"type": "bytes"
				}
			],
			"name": "proveImports",
			"outputs": [
				{
					"internalType": "uint128",
					"name": "",
					"type": "uint128"
				},
				{
					"internalType": "uint176",
					"name": "",
					"type": "uint176"
				}
			],
			"stateMutability": "view",
			"type": "function"
		},
		{
			"inputs": [
				{
					"internalType": "bytes",
					"name": "firstObj",
					"type": "bytes"
				},
				{
					"internalType": "uint32",
					"name": "nextOffset",
					"type": "uint32"
				},
				{
					"internalType": "uint176",
					"name": "exporter",
					"type": "uint176"
				}
			],
			"name": "readAuxDest",
			"outputs": [
				{
					"internalType": "uint32",
					"name": "",
					"type": "uint32"
				},
				{
					"internalType": "uint176",
					"name": "",
					"type": "uint176"
				}
			],
			"stateMutability": "view",
			"type": "function"
		},
		{
			"inputs": [
				{
					"internalType": "bytes",
					"name": "buf",
					"type": "bytes"
				},
				{
					"internalType": "uint256",
					"name": "idx",
					"type": "uint256"
				}
			],
			"name": "readVarint",
			"outputs": [
				{
					"internalType": "uint32",
					"name": "v",
					"type": "uint32"
				},
				{
					"internalType": "uint32",
					"name": "retidx",
					"type": "uint32"
				}
			],
			"stateMutability": "pure",
			"type": "function"
		},
		{
			"inputs": [
				{
					"internalType": "bytes32",
					"name": "",
					"type": "bytes32"
				},
				{
					"internalType": "address",
					"name": "",
					"type": "address"
				}
			],
			"name": "refunds",
			"outputs": [
				{
					"internalType": "uint256",
					"name": "",
					"type": "uint256"
				}
			],
			"stateMutability": "view",
			"type": "function"
		},
		{
			"inputs": [
				{
					"internalType": "uint256",
					"name": "",
					"type": "uint256"
				}
			],
			"name": "rollingUpgradeVotes",
			"outputs": [
				{
					"internalType": "address",
					"name": "",
					"type": "address"
				}
			],
			"stateMutability": "view",
			"type": "function"
		},
		{
			"inputs": [],
			"name": "rollingVoteIndex",
			"outputs": [
				{
					"internalType": "uint8",
					"name": "",
					"type": "uint8"
				}
			],
			"stateMutability": "view",
			"type": "function"
		},
		{
			"inputs": [
				{
					"internalType": "bytes32",
					"name": "",
					"type": "bytes32"
				}
			],
			"name": "saltsUsed",
			"outputs": [
				{
					"internalType": "bool",
					"name": "",
					"type": "bool"
				}
			],
			"stateMutability": "view",
			"type": "function"
		},
		{
			"inputs": [
				{
					"internalType": "uint32",
					"name": "number",
					"type": "uint32"
				}
			],
			"name": "serializeUint32",
			"outputs": [
				{
					"internalType": "uint32",
					"name": "",
					"type": "uint32"
				}
			],
			"stateMutability": "pure",
			"type": "function"
		},
		{
			"inputs": [
				{
					"internalType": "bytes32",
					"name": "",
					"type": "bytes32"
				}
			],
			"name": "storageGlobal",
			"outputs": [
				{
					"internalType": "bytes",
					"name": "",
					"type": "bytes"
				}
			],
			"stateMutability": "view",
			"type": "function"
		},
		{
			"inputs": [
				{
					"internalType": "uint256",
					"name": "",
					"type": "uint256"
				}
			],
			"name": "tokenList",
			"outputs": [
				{
					"internalType": "address",
					"name": "",
					"type": "address"
				}
			],
			"stateMutability": "view",
			"type": "function"
		},
		{
			"inputs": [
				{
					"internalType": "address",
					"name": "",
					"type": "address"
				}
			],
			"name": "verusToERC20mapping",
			"outputs": [
				{
					"internalType": "address",
					"name": "erc20ContractAddress",
					"type": "address"
				},
				{
					"internalType": "uint8",
					"name": "flags",
					"type": "uint8"
				},
				{
					"internalType": "uint256",
					"name": "tokenIndex",
					"type": "uint256"
				},
				{
					"internalType": "string",
					"name": "name",
					"type": "string"
				},
				{
					"internalType": "uint256",
					"name": "tokenID",
					"type": "uint256"
				}
			],
			"stateMutability": "view",
			"type": "function"
		}
	]
}