{
	"data": {
		"bytecode": {
			"linkReferences": {
				"contracts/MMR/VerusBlake2b.sol": {
					"VerusBlake2b": [
						{
							"length": 20,
							"start": 5374
						},
						{
							"length": 20,
							"start": 10191
						},
						{
							"length": 20,
							"start": 10498
						}
					]
				},
				"contracts/MMR/VerusMMR.sol": {
					"VerusMMR": [
						{
							"length": 20,
							"start": 4952
						}
					]
				}
			},
			"object": "60e06040523480156200001157600080fd5b5060405162004d5a38038062004d5a833981810160405281019062000037919062000146565b8273ffffffffffffffffffffffffffffffffffffffff1660808173ffffffffffffffffffffffffffffffffffffffff16815250508173ffffffffffffffffffffffffffffffffffffffff1660a08173ffffffffffffffffffffffffffffffffffffffff16815250508073ffffffffffffffffffffffffffffffffffffffff1660c08173ffffffffffffffffffffffffffffffffffffffff1681525050505050620001a2565b600080fd5b600073ffffffffffffffffffffffffffffffffffffffff82169050919050565b60006200010e82620000e1565b9050919050565b620001208162000101565b81146200012c57600080fd5b50565b600081519050620001408162000115565b92915050565b600080600060608486031215620001625762000161620000dc565b5b600062000172868287016200012f565b935050602062000185868287016200012f565b925050604062000198868287016200012f565b9150509250925092565b60805160a05160c051614b84620001d66000396000610a9901526000505060008181610af001526116af0152614b846000f3fe608060405234801561001057600080fd5b50600436106101f05760003560e01c80638da5cb5b1161010f578063cecb3043116100a2578063d798342211610071578063d7983422146106d7578063dce1f74d14610708578063e4c63f4714610739578063fc8027d814610757576101f0565b8063cecb304314610617578063d2784ad814610647578063d4ed19ac14610677578063d625f56d146106a7576101f0565b8063b17f15a2116100de578063b17f15a214610565578063c03d426814610599578063c36b4d1e146105b7578063c7946e6d146105e7576101f0565b80638da5cb5b146104c85780639a70b466146104e65780639ead722214610504578063a34ccc2014610534576101f0565b8063530f278f116101875780636bb67073116101565780636bb67073146104185780636d4b76d5146104485780638491fbaa146104785780638c7982f814610496576101f0565b8063530f278f14610366578063538c3c5c146103965780635dfbd918146103b4578063683d8cbb146103e5576101f0565b8063474da79a116101c3578063474da79a146102b75780634a262b28146102e75780634b7ea401146103185780635112ba9814610336576101f0565b80630f031f65146101f557806323c8504d14610225578063250dea5314610255578063327d426314610287575b600080fd5b61020f600480360381019061020a9190612ced565b610787565b60405161021c9190612db3565b60405180910390f35b61023f600480360381019061023a9190612ced565b610827565b60405161024c9190612dee565b60405180910390f35b61026f600480360381019061026a9190612e67565b61083f565b60405161027e93929190612ebf565b60405180910390f35b6102a1600480360381019061029c9190612ced565b6108b6565b6040516102ae9190612f11565b60405180910390f35b6102d160048036038101906102cc9190612f58565b6108d6565b6040516102de9190612f85565b60405180910390f35b61030160048036038101906102fc9190613111565b610915565b60405161030f9291906131c5565b60405180910390f35b610320610ba1565b60405161032d91906131ee565b60405180910390f35b610350600480360381019061034b9190613209565b610bb4565b60405161035d9190612dee565b60405180910390f35b610380600480360381019061037b9190612f58565b610bd9565b60405161038d9190612dee565b60405180910390f35b61039e610bf1565b6040516103ab919061326c565b60405180910390f35b6103ce60048036038101906103c99190613287565b610c0b565b6040516103dc9291906132f2565b60405180910390f35b6103ff60048036038101906103fa9190612ced565b610c65565b60405161040f949392919061332a565b60405180910390f35b610432600480360381019061042d9190612ced565b610cb5565b60405161043f9190612f11565b60405180910390f35b610462600480360381019061045d9190612f58565b610cd5565b60405161046f9190612f85565b60405180910390f35b610480610d14565b60405161048d9190612f11565b60405180910390f35b6104b060048036038101906104ab9190612f58565b610d27565b6040516104bf9392919061336f565b60405180910390f35b6104d0610d65565b6040516104dd9190612f85565b60405180910390f35b6104ee610d8b565b6040516104fb91906133a6565b60405180910390f35b61051e60048036038101906105199190612f58565b610d91565b60405161052b9190612f85565b60405180910390f35b61054e60048036038101906105499190613421565b610dd0565b60405161055c929190613499565b60405180910390f35b61057f600480360381019061057a9190612e67565b610ef6565b604051610590959493929190613517565b60405180910390f35b6105a1610fe1565b6040516105ae919061326c565b60405180910390f35b6105d160048036038101906105cc9190612f58565b610ffb565b6040516105de9190612db3565b60405180910390f35b61060160048036038101906105fc9190612f58565b6110a7565b60405161060e9190612f85565b60405180910390f35b610631600480360381019061062c9190613571565b6110dd565b60405161063e919061359e565b60405180910390f35b610661600480360381019061065c919061375a565b611124565b60405161066e91906133a6565b60405180910390f35b610691600480360381019061068c91906137b6565b6113d8565b60405161069e91906139d2565b60405180910390f35b6106c160048036038101906106bc9190613b41565b611d82565b6040516106ce91906133a6565b60405180910390f35b6106f160048036038101906106ec9190613e66565b611ddc565b6040516106ff9291906131c5565b60405180910390f35b610722600480360381019061071d9190613eee565b6122e7565b604051610730929190613f5d565b60405180910390f35b61074161252f565b60405161074e91906133a6565b60405180910390f35b610771600480360381019061076c9190613f86565b6125ca565b60405161077e91906133a6565b60405180910390f35b600860205280600052604060002060009150905080546107a690613ffe565b80601f01602080910402602001604051908101604052809291908181526020018280546107d290613ffe565b801561081f5780601f106107f45761010080835404028352916020019161081f565b820191906000526020600020905b81548152906001019060200180831161080257829003601f168201915b505050505081565b600a6020528060005260406000206000915090505481565b60756020528060005260406000206000915090508060000160009054906101000a900473ffffffffffffffffffffffffffffffffffffffff16908060010160009054906101000a900473ffffffffffffffffffffffffffffffffffffffff16908060010160149054906101000a900460ff16905083565b60026020528060005260406000206000915054906101000a900460ff1681565b600d81815481106108e657600080fd5b906000526020600020016000915054906101000a900473ffffffffffffffffffffffffffffffffffffffff1681565b6000806000806000806000808a8c0151945060208b019a508a8c0151955060148b019a508a8c0151935060148b019a5060018b019a508a8c0151915060018b019a5060ff8b8d015116600081111561097357808c019b508b8d015197505b50604060ff166040831660ff1614156109b85760018b610993919061405f565b9a506109a08c8c896122e7565b809850819c50505060018b6109b59190614099565b9a505b60088b019a508a8c015192506109d48c8c63ffffffff16610c0b565b8163ffffffff169150809c5081925050506109ee836110dd565b925060608363ffffffff166fffffffffffffffffffffffffffffffff16901b81179050610a218c8c63ffffffff16610c0b565b809c50819450505060208363ffffffff166fffffffffffffffffffffffffffffffff16901b8117905060408963ffffffff166fffffffffffffffffffffffffffffffff16901b8117905060018b019a508a8c0151915060018260ff161415610a8d57600860148c01019a505b858a148015610ae757507f000000000000000000000000000000000000000000000000000000000000000073ffffffffffffffffffffffffffffffffffffffff168573ffffffffffffffffffffffffffffffffffffffff16145b8015610b3e57507f000000000000000000000000000000000000000000000000000000000000000073ffffffffffffffffffffffffffffffffffffffff168473ffffffffffffffffffffffffffffffffffffffff16145b610b7d576040517f08c379a0000000000000000000000000000000000000000000000000000000008152600401610b749061413f565b60405180910390fd5b806fffffffffffffffffffffffffffffffff16975050505050505094509492505050565b607360009054906101000a900460ff1681565b600b602052816000526040600020602052806000526040600020600091509150505481565b60016020528060005260406000206000915090505481565b600760089054906101000a900467ffffffffffffffff1681565b6000806000600a8401846001860193505b81811015610c5b57838701519250600181019050607f83168560071b179450608080841614610c4a57610c5b565b600185019450600184019350610c1c565b5050509250929050565b60046020528060005260406000206000915090508060000154908060010154908060020160009054906101000a900463ffffffff16908060020160049054906101000a900463ffffffff16905084565b60746020528060005260406000206000915054906101000a900460ff1681565b60778181548110610ce557600080fd5b906000526020600020016000915054906101000a900473ffffffffffffffffffffffffffffffffffffffff1681565b600760109054906101000a900460ff1681565b60006020528060005260406000206000915090508060000154908060010154908060020160009054906101000a900467ffffffffffffffff16905083565b607960009054906101000a900473ffffffffffffffffffffffffffffffffffffffff1681565b60065481565b60058181548110610da157600080fd5b906000526020600020016000915054906101000a900473ffffffffffffffffffffffffffffffffffffffff1681565b6000806000808585810190610de59190613e66565b915091506000806000806000610dfb8787611ddc565b80935081945050508290506000610e11886125ca565b90506000801b811415610e59576040517f08c379a0000000000000000000000000000000000000000000000000000000008152600401610e50906141ab565b60405180910390fd5b600360ff168860000151604001515114610e7257600080fd5b610e8481896000015160400151611d82565b9450610e8e61252f565b95506000801b851480610ea15750858514155b15610ee1576040517f08c379a0000000000000000000000000000000000000000000000000000000008152600401610ed890614217565b60405180910390fd5b81839950995050505050505050509250929050565b60036020528060005260406000206000915090508060000160009054906101000a900473ffffffffffffffffffffffffffffffffffffffff16908060000160149054906101000a900460ff1690806001015490806002018054610f5890613ffe565b80601f0160208091040260200160405190810160405280929190818152602001828054610f8490613ffe565b8015610fd15780601f10610fa657610100808354040283529160200191610fd1565b820191906000526020600020905b815481529060010190602001808311610fb457829003601f168201915b5050505050908060030154905085565b600760009054906101000a900467ffffffffffffffff1681565b6078818154811061100b57600080fd5b90600052602060002001600091509050805461102690613ffe565b80601f016020809104026020016040519081016040528092919081815260200182805461105290613ffe565b801561109f5780601f106110745761010080835404028352916020019161109f565b820191906000526020600020905b81548152906001019060200180831161108257829003601f168201915b505050505081565b600f81606481106110b757600080fd5b016000915054906101000a900473ffffffffffffffffffffffffffffffffffffffff1681565b6000600862ff00ff831663ffffffff16901b600863ff00ff00841663ffffffff16901c17915060108263ffffffff16901b60108363ffffffff16901c179150819050919050565b6000808260800151511161116d576040517f08c379a000000000000000000000000000000000000000000000000000000000815260040161116490614283565b60405180910390fd5b6000826080015151905060008490506060600073__$ad19100ed076f9c5518cb8405b1c3e1ae9$__636d48bb8d8760200151886040015189606001516040518463ffffffff1660e01b81526004016111c7939291906142ed565b60206040518083038186803b1580156111df57600080fd5b505af41580156111f3573d6000803e3d6000fd5b505050506040513d601f19601f820116820180604052508101906112179190614350565b67ffffffffffffffff16905060005b848110156113ca5760006001831611156112e25787876080015182815181106112525761125161437d565b5b6020026020010151141561129b576040517f08c379a00000000000000000000000000000000000000000000000000000000081526004016112929061441e565b60405180910390fd5b866080015181815181106112b2576112b161437d565b5b6020026020010151846040516020016112cc92919061445f565b6040516020818303038152906040529250611325565b83876080015182815181106112fa576112f961437d565b5b602002602001015160405160200161131392919061445f565b60405160208183030381529060405292505b8273__$24338d23a70bdd67ae4c511f87804f9b9d$__632cd0cff290916040518263ffffffff1660e01b815260040161135e91906144d5565b60206040518083038186803b15801561137657600080fd5b505af415801561138a573d6000803e3d6000fd5b505050506040513d601f19601f820116820180604052508101906113ae919061450c565b9350600182901c915080806113c290614539565b915050611226565b508294505050505092915050565b60606000600580549050905060008167ffffffffffffffff811115611400576113ff612faa565b5b60405190808252806020026020018201604052801561143957816020015b611426612baf565b81526020019060019003908161141e5790505b509050611444612c31565b6000808490506000881015801561145a57508488105b15611463578791505b818711801561147157508487105b1561147a578690505b5b80821015611d74576000600583815481106114995761149861437d565b5b9060005260206000200160009054906101000a900473ffffffffffffffffffffffffffffffffffffffff169050600360008273ffffffffffffffffffffffffffffffffffffffff1673ffffffffffffffffffffffffffffffffffffffff1681526020019081526020016000206040518060a00160405290816000820160009054906101000a900473ffffffffffffffffffffffffffffffffffffffff1673ffffffffffffffffffffffffffffffffffffffff1673ffffffffffffffffffffffffffffffffffffffff1681526020016000820160149054906101000a900460ff1660ff1660ff1681526020016001820154815260200160028201805461159d90613ffe565b80601f01602080910402602001604051908101604052809291908181526020018280546115c990613ffe565b80156116165780601f106115eb57610100808354040283529160200191611616565b820191906000526020600020905b8154815290600101906020018083116115f957829003601f168201915b5050505050815260200160038201548152505093508085848151811061163f5761163e61437d565b5b60200260200101516000019073ffffffffffffffffffffffffffffffffffffffff16908173ffffffffffffffffffffffffffffffffffffffff168152505083602001518584815181106116955761169461437d565b5b60200260200101516060019060ff16908160ff16815250507f000000000000000000000000000000000000000000000000000000000000000073ffffffffffffffffffffffffffffffffffffffff168173ffffffffffffffffffffffffffffffffffffffff1614156117d85760008584815181106117165761171561437d565b5b60200260200101516020019073ffffffffffffffffffffffffffffffffffffffff16908173ffffffffffffffffffffffffffffffffffffffff1681525050836060015185848151811061176c5761176b61437d565b5b6020026020010151608001819052506040518060400160405280600381526020017f45544800000000000000000000000000000000000000000000000000000000008152508584815181106117c4576117c361437d565b5b602002602001015160a00181905250611d60565b602063ffffffff166020856020015160ff161663ffffffff161415611c5757836000015185848151811061180f5761180e61437d565b5b60200260200101516020019073ffffffffffffffffffffffffffffffffffffffff16908173ffffffffffffffffffffffffffffffffffffffff16815250506060846060015190507f2e000000000000000000000000000000000000000000000000000000000000008160018151811061188b5761188a61437d565b5b602001015160f81c60f81b7effffffffffffffffffffffffffffffffffffffffffffffffffffffffffffff191614801561192457507f2e00000000000000000000000000000000000000000000000000000000000000816002815181106118f5576118f461437d565b5b602001015160f81c60f81b7effffffffffffffffffffffffffffffffffffffffffffffffffffffffffffff1916145b801561198f57507f2e00000000000000000000000000000000000000000000000000000000000000816003815181106119605761195f61437d565b5b602001015160f81c60f81b7effffffffffffffffffffffffffffffffffffffffffffffffffffffffffffff1916145b15611a02576119a385600001516014612813565b6119bb8260058085516119b69190614582565b612a91565b6040516020016119cc9291906146c6565b6040516020818303038152906040528685815181106119ee576119ed61437d565b5b602002602001015160800181905250611a2a565b8460600151868581518110611a1a57611a1961437d565b5b6020026020010151608001819052505b600080866000015173ffffffffffffffffffffffffffffffffffffffff166040516024016040516020818303038152906040527f95d89b41000000000000000000000000000000000000000000000000000000007bffffffffffffffffffffffffffffffffffffffffffffffffffffffff19166020820180517bffffffffffffffffffffffffffffffffffffffffffffffffffffffff8381831617835250505050604051611ad89190614700565b6000604051808303816000865af19150503d8060008114611b15576040519150601f19603f3d011682016040523d82523d6000602084013e611b1a565b606091505b5091509150818015611b2d575060408151115b15611b6d5780806020019051810190611b4691906147b8565b888781518110611b5957611b5861437d565b5b602002602001015160a00181905250611c4f565b602081511415611c0057611bd98160008060f81b84600381518110611b9557611b9461437d565b5b602001015160f81c60f81b7effffffffffffffffffffffffffffffffffffffffffffffffffffffffffffff191614611bce576004611bd1565b60035b60ff16612a91565b888781518110611bec57611beb61437d565b5b602002602001015160a00181905250611c4e565b611c2b888781518110611c1657611c1561437d565b5b60200260200101516080015160036004612a91565b888781518110611c3e57611c3d61437d565b5b602002602001015160a001819052505b5b505050611d5f565b608063ffffffff166080856020015160ff161663ffffffff161480611c925750601063ffffffff166010856020015160ff161663ffffffff16145b80611cb35750604063ffffffff166040856020015160ff161663ffffffff16145b15611d5e578360000151858481518110611cd057611ccf61437d565b5b60200260200101516020019073ffffffffffffffffffffffffffffffffffffffff16908173ffffffffffffffffffffffffffffffffffffffff16815250508360600151858481518110611d2657611d2561437d565b5b6020026020010151608001819052508360800151858481518110611d4d57611d4c61437d565b5b602002602001015160c00181815250505b5b5b508180611d6c90614539565b92505061147b565b839550505050505092915050565b60008083905060005b8351811015611dd157611dbc82858381518110611dab57611daa61437d565b5b602002602001015160200151611124565b91508080611dc990614539565b915050611d8b565b508091505092915050565b600080600160ff16846000015160600151600081518110611e0057611dff61437d565b5b60200260200101516000015160ff1614611e42576000808167ffffffffffffffff169150806fffffffffffffffffffffffffffffffff169050915091506122e0565b6000600190505b846000015160600151518110156122d757600463ffffffff168560000151606001518281518110611e7d57611e7c61437d565b5b60200260200101516000015160ff1614611e96576122c4565b60008560000151606001518281518110611eb357611eb261437d565b5b60200260200101516040015190506000806000808960000151606001518681518110611ee257611ee161437d565b5b602002602001015160600151600081518110611f0157611f0061437d565b5b602002602001015160200151602001519050611f1b612c79565b600d6001600a811115611f3157611f30614801565b5b81548110611f4257611f4161437d565b5b9060005260206000200160009054906101000a900473ffffffffffffffffffffffffffffffffffffffff1673ffffffffffffffffffffffffffffffffffffffff1663ec9bb1a08760096040518363ffffffff1660e01b8152600401611fa8929190614830565b604080518083038186803b158015611fbf57600080fd5b505afa158015611fd3573d6000803e3d6000fd5b505050506040513d601f19601f82011682018060405250810190611ff791906148c5565b9050600d6001600a81111561200f5761200e614801565b5b815481106120205761201f61437d565b5b9060005260206000200160009054906101000a900473ffffffffffffffffffffffffffffffffffffffff1673ffffffffffffffffffffffffffffffffffffffff1663ec9bb1a08783600001516040518363ffffffff1660e01b8152600401612089929190614830565b604080518083038186803b1580156120a057600080fd5b505afa1580156120b4573d6000803e3d6000fd5b505050506040513d601f19601f820116820180604052508101906120d891906148c5565b90506000816020015167ffffffffffffffff1614806121055750604b816020015167ffffffffffffffff16115b1561213f576000808167ffffffffffffffff169150806fffffffffffffffffffffffffffffffff16905098509850505050505050506122e0565b8060200151816000015163ffffffff1661215991906148f2565b945084860151935060018501945084860151925060018501945060cc63ffffffff168460ff161415806121ac5750604c63ffffffff168360ff16141580156121ab5750604d63ffffffff168360ff1614155b5b156121e6576000808167ffffffffffffffff169150806fffffffffffffffffffffffffffffffff16905098509850505050505050506122e0565b604c63ffffffff168360ff1614156122035760018501945061220a565b6002850194505b600285612217919061405f565b9450848601519350600c60ff168460ff1614612262576000808167ffffffffffffffff169150806fffffffffffffffffffffffffffffffff16905098509850505050505050506122e0565b60188561226f919061405f565b9450848601519250601985612284919061405f565b9450604d63ffffffff168360ff1614156122a8576001856122a5919061405f565b94505b6122b486868c85610915565b98509850505050505050506122e0565b80806122cf90614539565b915050611e49565b50600080915091505b9250929050565b6000806122f2612c79565b600d6001600a81111561230857612307614801565b5b815481106123195761231861437d565b5b9060005260206000200160009054906101000a900473ffffffffffffffffffffffffffffffffffffffff1673ffffffffffffffffffffffffffffffffffffffff1663ec9bb1a087876040518363ffffffff1660e01b815260040161237e929190614830565b604080518083038186803b15801561239557600080fd5b505afa1580156123a9573d6000803e3d6000fd5b505050506040513d601f19601f820116820180604052508101906123cd91906148c5565b9050806000015194506000816020015167ffffffffffffffff16905060005b8181101561251e57600d6001600a81111561240a57612409614801565b5b8154811061241b5761241a61437d565b5b9060005260206000200160009054906101000a900473ffffffffffffffffffffffffffffffffffffffff1673ffffffffffffffffffffffffffffffffffffffff1663ec9bb1a089896040518363ffffffff1660e01b8152600401612480929190614830565b604080518083038186803b15801561249757600080fd5b505afa1580156124ab573d6000803e3d6000fd5b505050506040513d601f19601f820116820180604052508101906124cf91906148c5565b9250601660ff16836020015167ffffffffffffffff1614156124f5576016878901015195505b82602001518360000151612509919061405f565b9650808061251690614539565b9150506123ec565b508585935093505050935093915050565b60008060786000815481106125475761254661437d565b5b906000526020600020019050600081805461256190613ffe565b90501415612575576000801b9150506125c7565b60008060008360208201526002602080830120015460e01c9150600960008363ffffffff1660001b81526020019081526020016000209350836020820152600060208083012001549250829450505050505b90565b60008060008360000151606001516000815181106125eb576125ea61437d565b5b60200260200101516040015173__$24338d23a70bdd67ae4c511f87804f9b9d$__632cd0cff290916040518263ffffffff1660e01b815260040161262f91906144d5565b60206040518083038186803b15801561264757600080fd5b505af415801561265b573d6000803e3d6000fd5b505050506040513d601f19601f8201168201806040525081019061267f919061450c565b9150600160ff168460000151606001516000815181106126a2576126a161437d565b5b60200260200101516000015160ff1614156126eb576126e8828560000151606001516000815181106126d7576126d661437d565b5b602002602001015160600151611d82565b92505b6000600190505b8460000151606001515181101561280b57846000015160600151818151811061271e5761271d61437d565b5b60200260200101516040015173__$24338d23a70bdd67ae4c511f87804f9b9d$__632cd0cff290916040518263ffffffff1660e01b815260040161276291906144d5565b60206040518083038186803b15801561277a57600080fd5b505af415801561278e573d6000803e3d6000fd5b505050506040513d601f19601f820116820180604052508101906127b2919061450c565b92506127e48386600001516060015183815181106127d3576127d261437d565b5b602002602001015160600151611d82565b91508184146127f8576000801b935061280b565b808061280390614539565b9150506126f2565b505050919050565b6060600060028360026128269190614930565b612830919061498a565b67ffffffffffffffff81111561284957612848612faa565b5b6040519080825280601f01601f19166020018201604052801561287b5781602001600182028036833780820191505090505b5090507f3000000000000000000000000000000000000000000000000000000000000000816000815181106128b3576128b261437d565b5b60200101907effffffffffffffffffffffffffffffffffffffffffffffffffffffffffffff1916908160001a9053507f7800000000000000000000000000000000000000000000000000000000000000816001815181106129175761291661437d565b5b60200101907effffffffffffffffffffffffffffffffffffffffffffffffffffffffffffff1916908160001a905350600060018460026129579190614930565b612961919061498a565b90505b6001811115612a2d577f3031323334353637383961626364656600000000000000000000000000000000600f861673ffffffffffffffffffffffffffffffffffffffff16601081106129b9576129b861437d565b5b1a60f81b8282815181106129d0576129cf61437d565b5b60200101907effffffffffffffffffffffffffffffffffffffffffffffffffffffffffffff1916908160001a90535060048573ffffffffffffffffffffffffffffffffffffffff16901c945080612a26906149e0565b9050612964565b5060008473ffffffffffffffffffffffffffffffffffffffff1614612a87576040517f08c379a0000000000000000000000000000000000000000000000000000000008152600401612a7e90614a56565b60405180910390fd5b8091505092915050565b606081601f83612aa1919061498a565b1015612ae2576040517f08c379a0000000000000000000000000000000000000000000000000000000008152600401612ad990614ac2565b60405180910390fd5b8183612aee919061498a565b84511015612b31576040517f08c379a0000000000000000000000000000000000000000000000000000000008152600401612b2890614b2e565b60405180910390fd5b6060821560008114612b525760405191506000825260208201604052612ba3565b6040519150601f8416801560200281840101858101878315602002848b0101015b81831015612b905780518352602083019250602081019050612b73565b50868552601f19601f8301166040525050505b50809150509392505050565b6040518060e00160405280600073ffffffffffffffffffffffffffffffffffffffff168152602001600073ffffffffffffffffffffffffffffffffffffffff168152602001600073ffffffffffffffffffffffffffffffffffffffff168152602001600060ff1681526020016060815260200160608152602001600081525090565b6040518060a00160405280600073ffffffffffffffffffffffffffffffffffffffff168152602001600060ff1681526020016000815260200160608152602001600081525090565b6040518060400160405280600063ffffffff168152602001600067ffffffffffffffff1681525090565b6000604051905090565b600080fd5b600080fd5b6000819050919050565b612cca81612cb7565b8114612cd557600080fd5b50565b600081359050612ce781612cc1565b92915050565b600060208284031215612d0357612d02612cad565b5b6000612d1184828501612cd8565b91505092915050565b600081519050919050565b600082825260208201905092915050565b60005b83811015612d54578082015181840152602081019050612d39565b83811115612d63576000848401525b50505050565b6000601f19601f8301169050919050565b6000612d8582612d1a565b612d8f8185612d25565b9350612d9f818560208601612d36565b612da881612d69565b840191505092915050565b60006020820190508181036000830152612dcd8184612d7a565b905092915050565b6000819050919050565b612de881612dd5565b82525050565b6000602082019050612e036000830184612ddf565b92915050565b600073ffffffffffffffffffffffffffffffffffffffff82169050919050565b6000612e3482612e09565b9050919050565b612e4481612e29565b8114612e4f57600080fd5b50565b600081359050612e6181612e3b565b92915050565b600060208284031215612e7d57612e7c612cad565b5b6000612e8b84828501612e52565b91505092915050565b612e9d81612e29565b82525050565b600060ff82169050919050565b612eb981612ea3565b82525050565b6000606082019050612ed46000830186612e94565b612ee16020830185612e94565b612eee6040830184612eb0565b949350505050565b60008115159050919050565b612f0b81612ef6565b82525050565b6000602082019050612f266000830184612f02565b92915050565b612f3581612dd5565b8114612f4057600080fd5b50565b600081359050612f5281612f2c565b92915050565b600060208284031215612f6e57612f6d612cad565b5b6000612f7c84828501612f43565b91505092915050565b6000602082019050612f9a6000830184612e94565b92915050565b600080fd5b600080fd5b7f4e487b7100000000000000000000000000000000000000000000000000000000600052604160045260246000fd5b612fe282612d69565b810181811067ffffffffffffffff8211171561300157613000612faa565b5b80604052505050565b6000613014612ca3565b90506130208282612fd9565b919050565b600067ffffffffffffffff8211156130405761303f612faa565b5b61304982612d69565b9050602081019050919050565b82818337600083830152505050565b600061307861307384613025565b61300a565b90508281526020810184848401111561309457613093612fa5565b5b61309f848285613056565b509392505050565b600082601f8301126130bc576130bb612fa0565b5b81356130cc848260208601613065565b91505092915050565b600063ffffffff82169050919050565b6130ee816130d5565b81146130f957600080fd5b50565b60008135905061310b816130e5565b92915050565b6000806000806080858703121561312b5761312a612cad565b5b600085013567ffffffffffffffff81111561314957613148612cb2565b5b613155878288016130a7565b9450506020613166878288016130fc565b935050604061317787828801612cd8565b9250506060613188878288016130fc565b91505092959194509250565b600075ffffffffffffffffffffffffffffffffffffffffffff82169050919050565b6131bf81613194565b82525050565b60006040820190506131da6000830185612ddf565b6131e760208301846131b6565b9392505050565b60006020820190506132036000830184612eb0565b92915050565b600080604083850312156132205761321f612cad565b5b600061322e85828601612cd8565b925050602061323f85828601612e52565b9150509250929050565b600067ffffffffffffffff82169050919050565b61326681613249565b82525050565b6000602082019050613281600083018461325d565b92915050565b6000806040838503121561329e5761329d612cad565b5b600083013567ffffffffffffffff8111156132bc576132bb612cb2565b5b6132c8858286016130a7565b92505060206132d985828601612f43565b9150509250929050565b6132ec816130d5565b82525050565b600060408201905061330760008301856132e3565b61331460208301846132e3565b9392505050565b61332481612cb7565b82525050565b600060808201905061333f600083018761331b565b61334c602083018661331b565b61335960408301856132e3565b61336660608301846132e3565b95945050505050565b6000606082019050613384600083018661331b565b613391602083018561331b565b61339e604083018461325d565b949350505050565b60006020820190506133bb600083018461331b565b92915050565b600080fd5b600080fd5b60008083601f8401126133e1576133e0612fa0565b5b8235905067ffffffffffffffff8111156133fe576133fd6133c1565b5b60208301915083600182028301111561341a576134196133c6565b5b9250929050565b6000806020838503121561343857613437612cad565b5b600083013567ffffffffffffffff81111561345657613455612cb2565b5b613462858286016133cb565b92509250509250929050565b60006fffffffffffffffffffffffffffffffff82169050919050565b6134938161346e565b82525050565b60006040820190506134ae600083018561348a565b6134bb60208301846131b6565b9392505050565b600081519050919050565b600082825260208201905092915050565b60006134e9826134c2565b6134f381856134cd565b9350613503818560208601612d36565b61350c81612d69565b840191505092915050565b600060a08201905061352c6000830188612e94565b6135396020830187612eb0565b6135466040830186612ddf565b818103606083015261355881856134de565b90506135676080830184612ddf565b9695505050505050565b60006020828403121561358757613586612cad565b5b6000613595848285016130fc565b91505092915050565b60006020820190506135b360008301846132e3565b92915050565b600080fd5b600080fd5b6135cc81612ea3565b81146135d757600080fd5b50565b6000813590506135e9816135c3565b92915050565b600067ffffffffffffffff82111561360a57613609612faa565b5b602082029050602081019050919050565b600061362e613629846135ef565b61300a565b90508083825260208201905060208402830185811115613651576136506133c6565b5b835b8181101561367a57806136668882612cd8565b845260208401935050602081019050613653565b5050509392505050565b600082601f83011261369957613698612fa0565b5b81356136a984826020860161361b565b91505092915050565b600060a082840312156136c8576136c76135b9565b5b6136d260a061300a565b905060006136e2848285016135da565b60008301525060206136f6848285016130fc565b602083015250604061370a848285016130fc565b604083015250606061371e848285016135da565b606083015250608082013567ffffffffffffffff811115613742576137416135be565b5b61374e84828501613684565b60808301525092915050565b6000806040838503121561377157613770612cad565b5b600061377f85828601612cd8565b925050602083013567ffffffffffffffff8111156137a05761379f612cb2565b5b6137ac858286016136b2565b9150509250929050565b600080604083850312156137cd576137cc612cad565b5b60006137db85828601612f43565b92505060206137ec85828601612f43565b9150509250929050565b600081519050919050565b600082825260208201905092915050565b6000819050602082019050919050565b61382b81612e29565b82525050565b61383a81612ea3565b82525050565b600082825260208201905092915050565b600061385c826134c2565b6138668185613840565b9350613876818560208601612d36565b61387f81612d69565b840191505092915050565b61389381612dd5565b82525050565b600060e0830160008301516138b16000860182613822565b5060208301516138c46020860182613822565b5060408301516138d76040860182613822565b5060608301516138ea6060860182613831565b50608083015184820360808601526139028282613851565b91505060a083015184820360a086015261391c8282613851565b91505060c083015161393160c086018261388a565b508091505092915050565b60006139488383613899565b905092915050565b6000602082019050919050565b6000613968826137f6565b6139728185613801565b93508360208202850161398485613812565b8060005b858110156139c057848403895281516139a1858261393c565b94506139ac83613950565b925060208a01995050600181019050613988565b50829750879550505050505092915050565b600060208201905081810360008301526139ec818461395d565b905092915050565b600067ffffffffffffffff821115613a0f57613a0e612faa565b5b602082029050602081019050919050565b600060408284031215613a3657613a356135b9565b5b613a40604061300a565b90506000613a50848285016135da565b600083015250602082013567ffffffffffffffff811115613a7457613a736135be565b5b613a80848285016136b2565b60208301525092915050565b6000613a9f613a9a846139f4565b61300a565b90508083825260208201905060208402830185811115613ac257613ac16133c6565b5b835b81811015613b0957803567ffffffffffffffff811115613ae757613ae6612fa0565b5b808601613af48982613a20565b85526020850194505050602081019050613ac4565b5050509392505050565b600082601f830112613b2857613b27612fa0565b5b8135613b38848260208601613a8c565b91505092915050565b60008060408385031215613b5857613b57612cad565b5b6000613b6685828601612cd8565b925050602083013567ffffffffffffffff811115613b8757613b86612cb2565b5b613b9385828601613b13565b9150509250929050565b600067ffffffffffffffff821115613bb857613bb7612faa565b5b602082029050602081019050919050565b600060808284031215613bdf57613bde6135b9565b5b613be9608061300a565b90506000613bf9848285016135da565b6000830152506020613c0d848285016135da565b602083015250604082013567ffffffffffffffff811115613c3157613c306135be565b5b613c3d848285016130a7565b604083015250606082013567ffffffffffffffff811115613c6157613c606135be565b5b613c6d84828501613b13565b60608301525092915050565b6000613c8c613c8784613b9d565b61300a565b90508083825260208201905060208402830185811115613caf57613cae6133c6565b5b835b81811015613cf657803567ffffffffffffffff811115613cd457613cd3612fa0565b5b808601613ce18982613bc9565b85526020850194505050602081019050613cb1565b5050509392505050565b600082601f830112613d1557613d14612fa0565b5b8135613d25848260208601613c79565b91505092915050565b600060808284031215613d4457613d436135b9565b5b613d4e608061300a565b90506000613d5e848285016135da565b6000830152506020613d72848285016135da565b602083015250604082013567ffffffffffffffff811115613d9657613d956135be565b5b613da284828501613b13565b604083015250606082013567ffffffffffffffff811115613dc657613dc56135be565b5b613dd284828501613d00565b60608301525092915050565b600060408284031215613df457613df36135b9565b5b613dfe604061300a565b9050600082013567ffffffffffffffff811115613e1e57613e1d6135be565b5b613e2a84828501613d2e565b600083015250602082013567ffffffffffffffff811115613e4e57613e4d6135be565b5b613e5a848285016130a7565b60208301525092915050565b60008060408385031215613e7d57613e7c612cad565b5b600083013567ffffffffffffffff811115613e9b57613e9a612cb2565b5b613ea785828601613dde565b9250506020613eb885828601612cd8565b9150509250929050565b613ecb81613194565b8114613ed657600080fd5b50565b600081359050613ee881613ec2565b92915050565b600080600060608486031215613f0757613f06612cad565b5b600084013567ffffffffffffffff811115613f2557613f24612cb2565b5b613f31868287016130a7565b9350506020613f42868287016130fc565b9250506040613f5386828701613ed9565b9150509250925092565b6000604082019050613f7260008301856132e3565b613f7f60208301846131b6565b9392505050565b600060208284031215613f9c57613f9b612cad565b5b600082013567ffffffffffffffff811115613fba57613fb9612cb2565b5b613fc684828501613dde565b91505092915050565b7f4e487b7100000000000000000000000000000000000000000000000000000000600052602260045260246000fd5b6000600282049050600182168061401657607f821691505b6020821081141561402a57614029613fcf565b5b50919050565b7f4e487b7100000000000000000000000000000000000000000000000000000000600052601160045260246000fd5b600061406a826130d5565b9150614075836130d5565b92508263ffffffff0382111561408e5761408d614030565b5b828201905092915050565b60006140a4826130d5565b91506140af836130d5565b9250828210156140c2576140c1614030565b5b828203905092915050565b7f43434520696e666f726d6174696f6e20646f6573206e6f7420636865636b6f7560008201527f7400000000000000000000000000000000000000000000000000000000000000602082015250565b60006141296021836134cd565b9150614134826140cd565b604082019050919050565b600060208201905081810360008301526141588161411c565b9050919050565b7f436f6d706f6e656e747320646f206e6f742076616c6964617465000000000000600082015250565b6000614195601a836134cd565b91506141a08261415f565b602082019050919050565b600060208201905081810360008301526141c481614188565b9050919050565b7f5374617465726f6f7420646f6573206e6f74206d617463680000000000000000600082015250565b60006142016018836134cd565b915061420c826141cb565b602082019050919050565b60006020820190508181036000830152614230816141f4565b9050919050565b7f4272616e6368206d757374206265206c6f6e676572207468616e203000000000600082015250565b600061426d601c836134cd565b915061427882614237565b602082019050919050565b6000602082019050818103600083015261429c81614260565b9050919050565b6000819050919050565b60006142c86142c36142be846130d5565b6142a3565b613249565b9050919050565b6142d8816142ad565b82525050565b6142e781612ea3565b82525050565b600060608201905061430260008301866142cf565b61430f60208301856142cf565b61431c60408301846142de565b949350505050565b61432d81613249565b811461433857600080fd5b50565b60008151905061434a81614324565b92915050565b60006020828403121561436657614365612cad565b5b60006143748482850161433b565b91505092915050565b7f4e487b7100000000000000000000000000000000000000000000000000000000600052603260045260246000fd5b7f56616c75652063616e20626520657175616c20746f206e6f646520627574206e60008201527f65766572206f6e20746865207269676874000000000000000000000000000000602082015250565b60006144086031836134cd565b9150614413826143ac565b604082019050919050565b60006020820190508181036000830152614437816143fb565b9050919050565b6000819050919050565b61445961445482612cb7565b61443e565b82525050565b600061446b8285614448565b60208201915061447b8284614448565b6020820191508190509392505050565b600082825260208201905092915050565b60006144a782612d1a565b6144b1818561448b565b93506144c1818560208601612d36565b6144ca81612d69565b840191505092915050565b600060208201905081810360008301526144ef818461449c565b905092915050565b60008151905061450681612cc1565b92915050565b60006020828403121561452257614521612cad565b5b6000614530848285016144f7565b91505092915050565b600061454482612dd5565b91507fffffffffffffffffffffffffffffffffffffffffffffffffffffffffffffffff82141561457757614576614030565b5b600182019050919050565b600061458d82612dd5565b915061459883612dd5565b9250828210156145ab576145aa614030565b5b828203905092915050565b600081905092915050565b7f5b00000000000000000000000000000000000000000000000000000000000000600082015250565b60006145f76001836145b6565b9150614602826145c1565b600182019050919050565b6000614618826134c2565b61462281856145b6565b9350614632818560208601612d36565b80840191505092915050565b7f5d00000000000000000000000000000000000000000000000000000000000000600082015250565b60006146746001836145b6565b915061467f8261463e565b600182019050919050565b600081905092915050565b60006146a082612d1a565b6146aa818561468a565b93506146ba818560208601612d36565b80840191505092915050565b60006146d1826145ea565b91506146dd828561460d565b91506146e882614667565b91506146f48284614695565b91508190509392505050565b600061470c8284614695565b915081905092915050565b600067ffffffffffffffff82111561473257614731612faa565b5b61473b82612d69565b9050602081019050919050565b600061475b61475684614717565b61300a565b90508281526020810184848401111561477757614776612fa5565b5b614782848285612d36565b509392505050565b600082601f83011261479f5761479e612fa0565b5b81516147af848260208601614748565b91505092915050565b6000602082840312156147ce576147cd612cad565b5b600082015167ffffffffffffffff8111156147ec576147eb612cb2565b5b6147f88482850161478a565b91505092915050565b7f4e487b7100000000000000000000000000000000000000000000000000000000600052602160045260246000fd5b6000604082019050818103600083015261484a8185612d7a565b905061485960208301846132e3565b9392505050565b60008151905061486f816130e5565b92915050565b60006040828403121561488b5761488a6135b9565b5b614895604061300a565b905060006148a584828501614860565b60008301525060206148b98482850161433b565b60208301525092915050565b6000604082840312156148db576148da612cad565b5b60006148e984828501614875565b91505092915050565b60006148fd82613249565b915061490883613249565b92508267ffffffffffffffff0382111561492557614924614030565b5b828201905092915050565b600061493b82612dd5565b915061494683612dd5565b9250817fffffffffffffffffffffffffffffffffffffffffffffffffffffffffffffffff048311821515161561497f5761497e614030565b5b828202905092915050565b600061499582612dd5565b91506149a083612dd5565b9250827fffffffffffffffffffffffffffffffffffffffffffffffffffffffffffffffff038211156149d5576149d4614030565b5b828201905092915050565b60006149eb82612dd5565b915060008214156149ff576149fe614030565b5b600182039050919050565b7f537472696e67733a20686578206c656e67746820696e73756666696369656e74600082015250565b6000614a406020836134cd565b9150614a4b82614a0a565b602082019050919050565b60006020820190508181036000830152614a6f81614a33565b9050919050565b7f736c6963655f6f766572666c6f77000000000000000000000000000000000000600082015250565b6000614aac600e836134cd565b9150614ab782614a76565b602082019050919050565b60006020820190508181036000830152614adb81614a9f565b9050919050565b7f736c6963655f6f75744f66426f756e6473000000000000000000000000000000600082015250565b6000614b186011836134cd565b9150614b2382614ae2565b602082019050919050565b60006020820190508181036000830152614b4781614b0b565b905091905056fea26469706673582212202a1e4d62b1d879da670e20d0f8834ad65cb7fa376a2b41a144b7e432222b6bfb64736f6c63430008090033",
			"opcodes": "PUSH1 0xE0 PUSH1 0x40 MSTORE CALLVALUE DUP1 ISZERO PUSH3 0x11 JUMPI PUSH1 0x0 DUP1 REVERT JUMPDEST POP PUSH1 0x40 MLOAD PUSH3 0x4D5A CODESIZE SUB DUP1 PUSH3 0x4D5A DUP4 CODECOPY DUP2 DUP2 ADD PUSH1 0x40 MSTORE DUP2 ADD SWAP1 PUSH3 0x37 SWAP2 SWAP1 PUSH3 0x146 JUMP JUMPDEST DUP3 PUSH20 0xFFFFFFFFFFFFFFFFFFFFFFFFFFFFFFFFFFFFFFFF AND PUSH1 0x80 DUP2 PUSH20 0xFFFFFFFFFFFFFFFFFFFFFFFFFFFFFFFFFFFFFFFF AND DUP2 MSTORE POP POP DUP2 PUSH20 0xFFFFFFFFFFFFFFFFFFFFFFFFFFFFFFFFFFFFFFFF AND PUSH1 0xA0 DUP2 PUSH20 0xFFFFFFFFFFFFFFFFFFFFFFFFFFFFFFFFFFFFFFFF AND DUP2 MSTORE POP POP DUP1 PUSH20 0xFFFFFFFFFFFFFFFFFFFFFFFFFFFFFFFFFFFFFFFF AND PUSH1 0xC0 DUP2 PUSH20 0xFFFFFFFFFFFFFFFFFFFFFFFFFFFFFFFFFFFFFFFF AND DUP2 MSTORE POP POP POP POP POP PUSH3 0x1A2 JUMP JUMPDEST PUSH1 0x0 DUP1 REVERT JUMPDEST PUSH1 0x0 PUSH20 0xFFFFFFFFFFFFFFFFFFFFFFFFFFFFFFFFFFFFFFFF DUP3 AND SWAP1 POP SWAP2 SWAP1 POP JUMP JUMPDEST PUSH1 0x0 PUSH3 0x10E DUP3 PUSH3 0xE1 JUMP JUMPDEST SWAP1 POP SWAP2 SWAP1 POP JUMP JUMPDEST PUSH3 0x120 DUP2 PUSH3 0x101 JUMP JUMPDEST DUP2 EQ PUSH3 0x12C JUMPI PUSH1 0x0 DUP1 REVERT JUMPDEST POP JUMP JUMPDEST PUSH1 0x0 DUP2 MLOAD SWAP1 POP PUSH3 0x140 DUP2 PUSH3 0x115 JUMP JUMPDEST SWAP3 SWAP2 POP POP JUMP JUMPDEST PUSH1 0x0 DUP1 PUSH1 0x0 PUSH1 0x60 DUP5 DUP7 SUB SLT ISZERO PUSH3 0x162 JUMPI PUSH3 0x161 PUSH3 0xDC JUMP JUMPDEST JUMPDEST PUSH1 0x0 PUSH3 0x172 DUP7 DUP3 DUP8 ADD PUSH3 0x12F JUMP JUMPDEST SWAP4 POP POP PUSH1 0x20 PUSH3 0x185 DUP7 DUP3 DUP8 ADD PUSH3 0x12F JUMP JUMPDEST SWAP3 POP POP PUSH1 0x40 PUSH3 0x198 DUP7 DUP3 DUP8 ADD PUSH3 0x12F JUMP JUMPDEST SWAP2 POP POP SWAP3 POP SWAP3 POP SWAP3 JUMP JUMPDEST PUSH1 0x80 MLOAD PUSH1 0xA0 MLOAD PUSH1 0xC0 MLOAD PUSH2 0x4B84 PUSH3 0x1D6 PUSH1 0x0 CODECOPY PUSH1 0x0 PUSH2 0xA99 ADD MSTORE PUSH1 0x0 POP POP PUSH1 0x0 DUP2 DUP2 PUSH2 0xAF0 ADD MSTORE PUSH2 0x16AF ADD MSTORE PUSH2 0x4B84 PUSH1 0x0 RETURN INVALID PUSH1 0x80 PUSH1 0x40 MSTORE CALLVALUE DUP1 ISZERO PUSH2 0x10 JUMPI PUSH1 0x0 DUP1 REVERT JUMPDEST POP PUSH1 0x4 CALLDATASIZE LT PUSH2 0x1F0 JUMPI PUSH1 0x0 CALLDATALOAD PUSH1 0xE0 SHR DUP1 PUSH4 0x8DA5CB5B GT PUSH2 0x10F JUMPI DUP1 PUSH4 0xCECB3043 GT PUSH2 0xA2 JUMPI DUP1 PUSH4 0xD7983422 GT PUSH2 0x71 JUMPI DUP1 PUSH4 0xD7983422 EQ PUSH2 0x6D7 JUMPI DUP1 PUSH4 0xDCE1F74D EQ PUSH2 0x708 JUMPI DUP1 PUSH4 0xE4C63F47 EQ PUSH2 0x739 JUMPI DUP1 PUSH4 0xFC8027D8 EQ PUSH2 0x757 JUMPI PUSH2 0x1F0 JUMP JUMPDEST DUP1 PUSH4 0xCECB3043 EQ PUSH2 0x617 JUMPI DUP1 PUSH4 0xD2784AD8 EQ PUSH2 0x647 JUMPI DUP1 PUSH4 0xD4ED19AC EQ PUSH2 0x677 JUMPI DUP1 PUSH4 0xD625F56D EQ PUSH2 0x6A7 JUMPI PUSH2 0x1F0 JUMP JUMPDEST DUP1 PUSH4 0xB17F15A2 GT PUSH2 0xDE JUMPI DUP1 PUSH4 0xB17F15A2 EQ PUSH2 0x565 JUMPI DUP1 PUSH4 0xC03D4268 EQ PUSH2 0x599 JUMPI DUP1 PUSH4 0xC36B4D1E EQ PUSH2 0x5B7 JUMPI DUP1 PUSH4 0xC7946E6D EQ PUSH2 0x5E7 JUMPI PUSH2 0x1F0 JUMP JUMPDEST DUP1 PUSH4 0x8DA5CB5B EQ PUSH2 0x4C8 JUMPI DUP1 PUSH4 0x9A70B466 EQ PUSH2 0x4E6 JUMPI DUP1 PUSH4 0x9EAD7222 EQ PUSH2 0x504 JUMPI DUP1 PUSH4 0xA34CCC20 EQ PUSH2 0x534 JUMPI PUSH2 0x1F0 JUMP JUMPDEST DUP1 PUSH4 0x530F278F GT PUSH2 0x187 JUMPI DUP1 PUSH4 0x6BB67073 GT PUSH2 0x156 JUMPI DUP1 PUSH4 0x6BB67073 EQ PUSH2 0x418 JUMPI DUP1 PUSH4 0x6D4B76D5 EQ PUSH2 0x448 JUMPI DUP1 PUSH4 0x8491FBAA EQ PUSH2 0x478 JUMPI DUP1 PUSH4 0x8C7982F8 EQ PUSH2 0x496 JUMPI PUSH2 0x1F0 JUMP JUMPDEST DUP1 PUSH4 0x530F278F EQ PUSH2 0x366 JUMPI DUP1 PUSH4 0x538C3C5C EQ PUSH2 0x396 JUMPI DUP1 PUSH4 0x5DFBD918 EQ PUSH2 0x3B4 JUMPI DUP1 PUSH4 0x683D8CBB EQ PUSH2 0x3E5 JUMPI PUSH2 0x1F0 JUMP JUMPDEST DUP1 PUSH4 0x474DA79A GT PUSH2 0x1C3 JUMPI DUP1 PUSH4 0x474DA79A EQ PUSH2 0x2B7 JUMPI DUP1 PUSH4 0x4A262B28 EQ PUSH2 0x2E7 JUMPI DUP1 PUSH4 0x4B7EA401 EQ PUSH2 0x318 JUMPI DUP1 PUSH4 0x5112BA98 EQ PUSH2 0x336 JUMPI PUSH2 0x1F0 JUMP JUMPDEST DUP1 PUSH4 0xF031F65 EQ PUSH2 0x1F5 JUMPI DUP1 PUSH4 0x23C8504D EQ PUSH2 0x225 JUMPI DUP1 PUSH4 0x250DEA53 EQ PUSH2 0x255 JUMPI DUP1 PUSH4 0x327D4263 EQ PUSH2 0x287 JUMPI JUMPDEST PUSH1 0x0 DUP1 REVERT JUMPDEST PUSH2 0x20F PUSH1 0x4 DUP1 CALLDATASIZE SUB DUP2 ADD SWAP1 PUSH2 0x20A SWAP2 SWAP1 PUSH2 0x2CED JUMP JUMPDEST PUSH2 0x787 JUMP JUMPDEST PUSH1 0x40 MLOAD PUSH2 0x21C SWAP2 SWAP1 PUSH2 0x2DB3 JUMP JUMPDEST PUSH1 0x40 MLOAD DUP1 SWAP2 SUB SWAP1 RETURN JUMPDEST PUSH2 0x23F PUSH1 0x4 DUP1 CALLDATASIZE SUB DUP2 ADD SWAP1 PUSH2 0x23A SWAP2 SWAP1 PUSH2 0x2CED JUMP JUMPDEST PUSH2 0x827 JUMP JUMPDEST PUSH1 0x40 MLOAD PUSH2 0x24C SWAP2 SWAP1 PUSH2 0x2DEE JUMP JUMPDEST PUSH1 0x40 MLOAD DUP1 SWAP2 SUB SWAP1 RETURN JUMPDEST PUSH2 0x26F PUSH1 0x4 DUP1 CALLDATASIZE SUB DUP2 ADD SWAP1 PUSH2 0x26A SWAP2 SWAP1 PUSH2 0x2E67 JUMP JUMPDEST PUSH2 0x83F JUMP JUMPDEST PUSH1 0x40 MLOAD PUSH2 0x27E SWAP4 SWAP3 SWAP2 SWAP1 PUSH2 0x2EBF JUMP JUMPDEST PUSH1 0x40 MLOAD DUP1 SWAP2 SUB SWAP1 RETURN JUMPDEST PUSH2 0x2A1 PUSH1 0x4 DUP1 CALLDATASIZE SUB DUP2 ADD SWAP1 PUSH2 0x29C SWAP2 SWAP1 PUSH2 0x2CED JUMP JUMPDEST PUSH2 0x8B6 JUMP JUMPDEST PUSH1 0x40 MLOAD PUSH2 0x2AE SWAP2 SWAP1 PUSH2 0x2F11 JUMP JUMPDEST PUSH1 0x40 MLOAD DUP1 SWAP2 SUB SWAP1 RETURN JUMPDEST PUSH2 0x2D1 PUSH1 0x4 DUP1 CALLDATASIZE SUB DUP2 ADD SWAP1 PUSH2 0x2CC SWAP2 SWAP1 PUSH2 0x2F58 JUMP JUMPDEST PUSH2 0x8D6 JUMP JUMPDEST PUSH1 0x40 MLOAD PUSH2 0x2DE SWAP2 SWAP1 PUSH2 0x2F85 JUMP JUMPDEST PUSH1 0x40 MLOAD DUP1 SWAP2 SUB SWAP1 RETURN JUMPDEST PUSH2 0x301 PUSH1 0x4 DUP1 CALLDATASIZE SUB DUP2 ADD SWAP1 PUSH2 0x2FC SWAP2 SWAP1 PUSH2 0x3111 JUMP JUMPDEST PUSH2 0x915 JUMP JUMPDEST PUSH1 0x40 MLOAD PUSH2 0x30F SWAP3 SWAP2 SWAP1 PUSH2 0x31C5 JUMP JUMPDEST PUSH1 0x40 MLOAD DUP1 SWAP2 SUB SWAP1 RETURN JUMPDEST PUSH2 0x320 PUSH2 0xBA1 JUMP JUMPDEST PUSH1 0x40 MLOAD PUSH2 0x32D SWAP2 SWAP1 PUSH2 0x31EE JUMP JUMPDEST PUSH1 0x40 MLOAD DUP1 SWAP2 SUB SWAP1 RETURN JUMPDEST PUSH2 0x350 PUSH1 0x4 DUP1 CALLDATASIZE SUB DUP2 ADD SWAP1 PUSH2 0x34B SWAP2 SWAP1 PUSH2 0x3209 JUMP JUMPDEST PUSH2 0xBB4 JUMP JUMPDEST PUSH1 0x40 MLOAD PUSH2 0x35D SWAP2 SWAP1 PUSH2 0x2DEE JUMP JUMPDEST PUSH1 0x40 MLOAD DUP1 SWAP2 SUB SWAP1 RETURN JUMPDEST PUSH2 0x380 PUSH1 0x4 DUP1 CALLDATASIZE SUB DUP2 ADD SWAP1 PUSH2 0x37B SWAP2 SWAP1 PUSH2 0x2F58 JUMP JUMPDEST PUSH2 0xBD9 JUMP JUMPDEST PUSH1 0x40 MLOAD PUSH2 0x38D SWAP2 SWAP1 PUSH2 0x2DEE JUMP JUMPDEST PUSH1 0x40 MLOAD DUP1 SWAP2 SUB SWAP1 RETURN JUMPDEST PUSH2 0x39E PUSH2 0xBF1 JUMP JUMPDEST PUSH1 0x40 MLOAD PUSH2 0x3AB SWAP2 SWAP1 PUSH2 0x326C JUMP JUMPDEST PUSH1 0x40 MLOAD DUP1 SWAP2 SUB SWAP1 RETURN JUMPDEST PUSH2 0x3CE PUSH1 0x4 DUP1 CALLDATASIZE SUB DUP2 ADD SWAP1 PUSH2 0x3C9 SWAP2 SWAP1 PUSH2 0x3287 JUMP JUMPDEST PUSH2 0xC0B JUMP JUMPDEST PUSH1 0x40 MLOAD PUSH2 0x3DC SWAP3 SWAP2 SWAP1 PUSH2 0x32F2 JUMP JUMPDEST PUSH1 0x40 MLOAD DUP1 SWAP2 SUB SWAP1 RETURN JUMPDEST PUSH2 0x3FF PUSH1 0x4 DUP1 CALLDATASIZE SUB DUP2 ADD SWAP1 PUSH2 0x3FA SWAP2 SWAP1 PUSH2 0x2CED JUMP JUMPDEST PUSH2 0xC65 JUMP JUMPDEST PUSH1 0x40 MLOAD PUSH2 0x40F SWAP5 SWAP4 SWAP3 SWAP2 SWAP1 PUSH2 0x332A JUMP JUMPDEST PUSH1 0x40 MLOAD DUP1 SWAP2 SUB SWAP1 RETURN JUMPDEST PUSH2 0x432 PUSH1 0x4 DUP1 CALLDATASIZE SUB DUP2 ADD SWAP1 PUSH2 0x42D SWAP2 SWAP1 PUSH2 0x2CED JUMP JUMPDEST PUSH2 0xCB5 JUMP JUMPDEST PUSH1 0x40 MLOAD PUSH2 0x43F SWAP2 SWAP1 PUSH2 0x2F11 JUMP JUMPDEST PUSH1 0x40 MLOAD DUP1 SWAP2 SUB SWAP1 RETURN JUMPDEST PUSH2 0x462 PUSH1 0x4 DUP1 CALLDATASIZE SUB DUP2 ADD SWAP1 PUSH2 0x45D SWAP2 SWAP1 PUSH2 0x2F58 JUMP JUMPDEST PUSH2 0xCD5 JUMP JUMPDEST PUSH1 0x40 MLOAD PUSH2 0x46F SWAP2 SWAP1 PUSH2 0x2F85 JUMP JUMPDEST PUSH1 0x40 MLOAD DUP1 SWAP2 SUB SWAP1 RETURN JUMPDEST PUSH2 0x480 PUSH2 0xD14 JUMP JUMPDEST PUSH1 0x40 MLOAD PUSH2 0x48D SWAP2 SWAP1 PUSH2 0x2F11 JUMP JUMPDEST PUSH1 0x40 MLOAD DUP1 SWAP2 SUB SWAP1 RETURN JUMPDEST PUSH2 0x4B0 PUSH1 0x4 DUP1 CALLDATASIZE SUB DUP2 ADD SWAP1 PUSH2 0x4AB SWAP2 SWAP1 PUSH2 0x2F58 JUMP JUMPDEST PUSH2 0xD27 JUMP JUMPDEST PUSH1 0x40 MLOAD PUSH2 0x4BF SWAP4 SWAP3 SWAP2 SWAP1 PUSH2 0x336F JUMP JUMPDEST PUSH1 0x40 MLOAD DUP1 SWAP2 SUB SWAP1 RETURN JUMPDEST PUSH2 0x4D0 PUSH2 0xD65 JUMP JUMPDEST PUSH1 0x40 MLOAD PUSH2 0x4DD SWAP2 SWAP1 PUSH2 0x2F85 JUMP JUMPDEST PUSH1 0x40 MLOAD DUP1 SWAP2 SUB SWAP1 RETURN JUMPDEST PUSH2 0x4EE PUSH2 0xD8B JUMP JUMPDEST PUSH1 0x40 MLOAD PUSH2 0x4FB SWAP2 SWAP1 PUSH2 0x33A6 JUMP JUMPDEST PUSH1 0x40 MLOAD DUP1 SWAP2 SUB SWAP1 RETURN JUMPDEST PUSH2 0x51E PUSH1 0x4 DUP1 CALLDATASIZE SUB DUP2 ADD SWAP1 PUSH2 0x519 SWAP2 SWAP1 PUSH2 0x2F58 JUMP JUMPDEST PUSH2 0xD91 JUMP JUMPDEST PUSH1 0x40 MLOAD PUSH2 0x52B SWAP2 SWAP1 PUSH2 0x2F85 JUMP JUMPDEST PUSH1 0x40 MLOAD DUP1 SWAP2 SUB SWAP1 RETURN JUMPDEST PUSH2 0x54E PUSH1 0x4 DUP1 CALLDATASIZE SUB DUP2 ADD SWAP1 PUSH2 0x549 SWAP2 SWAP1 PUSH2 0x3421 JUMP JUMPDEST PUSH2 0xDD0 JUMP JUMPDEST PUSH1 0x40 MLOAD PUSH2 0x55C SWAP3 SWAP2 SWAP1 PUSH2 0x3499 JUMP JUMPDEST PUSH1 0x40 MLOAD DUP1 SWAP2 SUB SWAP1 RETURN JUMPDEST PUSH2 0x57F PUSH1 0x4 DUP1 CALLDATASIZE SUB DUP2 ADD SWAP1 PUSH2 0x57A SWAP2 SWAP1 PUSH2 0x2E67 JUMP JUMPDEST PUSH2 0xEF6 JUMP JUMPDEST PUSH1 0x40 MLOAD PUSH2 0x590 SWAP6 SWAP5 SWAP4 SWAP3 SWAP2 SWAP1 PUSH2 0x3517 JUMP JUMPDEST PUSH1 0x40 MLOAD DUP1 SWAP2 SUB SWAP1 RETURN JUMPDEST PUSH2 0x5A1 PUSH2 0xFE1 JUMP JUMPDEST PUSH1 0x40 MLOAD PUSH2 0x5AE SWAP2 SWAP1 PUSH2 0x326C JUMP JUMPDEST PUSH1 0x40 MLOAD DUP1 SWAP2 SUB SWAP1 RETURN JUMPDEST PUSH2 0x5D1 PUSH1 0x4 DUP1 CALLDATASIZE SUB DUP2 ADD SWAP1 PUSH2 0x5CC SWAP2 SWAP1 PUSH2 0x2F58 JUMP JUMPDEST PUSH2 0xFFB JUMP JUMPDEST PUSH1 0x40 MLOAD PUSH2 0x5DE SWAP2 SWAP1 PUSH2 0x2DB3 JUMP JUMPDEST PUSH1 0x40 MLOAD DUP1 SWAP2 SUB SWAP1 RETURN JUMPDEST PUSH2 0x601 PUSH1 0x4 DUP1 CALLDATASIZE SUB DUP2 ADD SWAP1 PUSH2 0x5FC SWAP2 SWAP1 PUSH2 0x2F58 JUMP JUMPDEST PUSH2 0x10A7 JUMP JUMPDEST PUSH1 0x40 MLOAD PUSH2 0x60E SWAP2 SWAP1 PUSH2 0x2F85 JUMP JUMPDEST PUSH1 0x40 MLOAD DUP1 SWAP2 SUB SWAP1 RETURN JUMPDEST PUSH2 0x631 PUSH1 0x4 DUP1 CALLDATASIZE SUB DUP2 ADD SWAP1 PUSH2 0x62C SWAP2 SWAP1 PUSH2 0x3571 JUMP JUMPDEST PUSH2 0x10DD JUMP JUMPDEST PUSH1 0x40 MLOAD PUSH2 0x63E SWAP2 SWAP1 PUSH2 0x359E JUMP JUMPDEST PUSH1 0x40 MLOAD DUP1 SWAP2 SUB SWAP1 RETURN JUMPDEST PUSH2 0x661 PUSH1 0x4 DUP1 CALLDATASIZE SUB DUP2 ADD SWAP1 PUSH2 0x65C SWAP2 SWAP1 PUSH2 0x375A JUMP JUMPDEST PUSH2 0x1124 JUMP JUMPDEST PUSH1 0x40 MLOAD PUSH2 0x66E SWAP2 SWAP1 PUSH2 0x33A6 JUMP JUMPDEST PUSH1 0x40 MLOAD DUP1 SWAP2 SUB SWAP1 RETURN JUMPDEST PUSH2 0x691 PUSH1 0x4 DUP1 CALLDATASIZE SUB DUP2 ADD SWAP1 PUSH2 0x68C SWAP2 SWAP1 PUSH2 0x37B6 JUMP JUMPDEST PUSH2 0x13D8 JUMP JUMPDEST PUSH1 0x40 MLOAD PUSH2 0x69E SWAP2 SWAP1 PUSH2 0x39D2 JUMP JUMPDEST PUSH1 0x40 MLOAD DUP1 SWAP2 SUB SWAP1 RETURN JUMPDEST PUSH2 0x6C1 PUSH1 0x4 DUP1 CALLDATASIZE SUB DUP2 ADD SWAP1 PUSH2 0x6BC SWAP2 SWAP1 PUSH2 0x3B41 JUMP JUMPDEST PUSH2 0x1D82 JUMP JUMPDEST PUSH1 0x40 MLOAD PUSH2 0x6CE SWAP2 SWAP1 PUSH2 0x33A6 JUMP JUMPDEST PUSH1 0x40 MLOAD DUP1 SWAP2 SUB SWAP1 RETURN JUMPDEST PUSH2 0x6F1 PUSH1 0x4 DUP1 CALLDATASIZE SUB DUP2 ADD SWAP1 PUSH2 0x6EC SWAP2 SWAP1 PUSH2 0x3E66 JUMP JUMPDEST PUSH2 0x1DDC JUMP JUMPDEST PUSH1 0x40 MLOAD PUSH2 0x6FF SWAP3 SWAP2 SWAP1 PUSH2 0x31C5 JUMP JUMPDEST PUSH1 0x40 MLOAD DUP1 SWAP2 SUB SWAP1 RETURN JUMPDEST PUSH2 0x722 PUSH1 0x4 DUP1 CALLDATASIZE SUB DUP2 ADD SWAP1 PUSH2 0x71D SWAP2 SWAP1 PUSH2 0x3EEE JUMP JUMPDEST PUSH2 0x22E7 JUMP JUMPDEST PUSH1 0x40 MLOAD PUSH2 0x730 SWAP3 SWAP2 SWAP1 PUSH2 0x3F5D JUMP JUMPDEST PUSH1 0x40 MLOAD DUP1 SWAP2 SUB SWAP1 RETURN JUMPDEST PUSH2 0x741 PUSH2 0x252F JUMP JUMPDEST PUSH1 0x40 MLOAD PUSH2 0x74E SWAP2 SWAP1 PUSH2 0x33A6 JUMP JUMPDEST PUSH1 0x40 MLOAD DUP1 SWAP2 SUB SWAP1 RETURN JUMPDEST PUSH2 0x771 PUSH1 0x4 DUP1 CALLDATASIZE SUB DUP2 ADD SWAP1 PUSH2 0x76C SWAP2 SWAP1 PUSH2 0x3F86 JUMP JUMPDEST PUSH2 0x25CA JUMP JUMPDEST PUSH1 0x40 MLOAD PUSH2 0x77E SWAP2 SWAP1 PUSH2 0x33A6 JUMP JUMPDEST PUSH1 0x40 MLOAD DUP1 SWAP2 SUB SWAP1 RETURN JUMPDEST PUSH1 0x8 PUSH1 0x20 MSTORE DUP1 PUSH1 0x0 MSTORE PUSH1 0x40 PUSH1 0x0 KECCAK256 PUSH1 0x0 SWAP2 POP SWAP1 POP DUP1 SLOAD PUSH2 0x7A6 SWAP1 PUSH2 0x3FFE JUMP JUMPDEST DUP1 PUSH1 0x1F ADD PUSH1 0x20 DUP1 SWAP2 DIV MUL PUSH1 0x20 ADD PUSH1 0x40 MLOAD SWAP1 DUP2 ADD PUSH1 0x40 MSTORE DUP1 SWAP3 SWAP2 SWAP1 DUP2 DUP2 MSTORE PUSH1 0x20 ADD DUP3 DUP1 SLOAD PUSH2 0x7D2 SWAP1 PUSH2 0x3FFE JUMP JUMPDEST DUP1 ISZERO PUSH2 0x81F JUMPI DUP1 PUSH1 0x1F LT PUSH2 0x7F4 JUMPI PUSH2 0x100 DUP1 DUP4 SLOAD DIV MUL DUP4 MSTORE SWAP2 PUSH1 0x20 ADD SWAP2 PUSH2 0x81F JUMP JUMPDEST DUP3 ADD SWAP2 SWAP1 PUSH1 0x0 MSTORE PUSH1 0x20 PUSH1 0x0 KECCAK256 SWAP1 JUMPDEST DUP2 SLOAD DUP2 MSTORE SWAP1 PUSH1 0x1 ADD SWAP1 PUSH1 0x20 ADD DUP1 DUP4 GT PUSH2 0x802 JUMPI DUP3 SWAP1 SUB PUSH1 0x1F AND DUP3 ADD SWAP2 JUMPDEST POP POP POP POP POP DUP2 JUMP JUMPDEST PUSH1 0xA PUSH1 0x20 MSTORE DUP1 PUSH1 0x0 MSTORE PUSH1 0x40 PUSH1 0x0 KECCAK256 PUSH1 0x0 SWAP2 POP SWAP1 POP SLOAD DUP2 JUMP JUMPDEST PUSH1 0x75 PUSH1 0x20 MSTORE DUP1 PUSH1 0x0 MSTORE PUSH1 0x40 PUSH1 0x0 KECCAK256 PUSH1 0x0 SWAP2 POP SWAP1 POP DUP1 PUSH1 0x0 ADD PUSH1 0x0 SWAP1 SLOAD SWAP1 PUSH2 0x100 EXP SWAP1 DIV PUSH20 0xFFFFFFFFFFFFFFFFFFFFFFFFFFFFFFFFFFFFFFFF AND SWAP1 DUP1 PUSH1 0x1 ADD PUSH1 0x0 SWAP1 SLOAD SWAP1 PUSH2 0x100 EXP SWAP1 DIV PUSH20 0xFFFFFFFFFFFFFFFFFFFFFFFFFFFFFFFFFFFFFFFF AND SWAP1 DUP1 PUSH1 0x1 ADD PUSH1 0x14 SWAP1 SLOAD SWAP1 PUSH2 0x100 EXP SWAP1 DIV PUSH1 0xFF AND SWAP1 POP DUP4 JUMP JUMPDEST PUSH1 0x2 PUSH1 0x20 MSTORE DUP1 PUSH1 0x0 MSTORE PUSH1 0x40 PUSH1 0x0 KECCAK256 PUSH1 0x0 SWAP2 POP SLOAD SWAP1 PUSH2 0x100 EXP SWAP1 DIV PUSH1 0xFF AND DUP2 JUMP JUMPDEST PUSH1 0xD DUP2 DUP2 SLOAD DUP2 LT PUSH2 0x8E6 JUMPI PUSH1 0x0 DUP1 REVERT JUMPDEST SWAP1 PUSH1 0x0 MSTORE PUSH1 0x20 PUSH1 0x0 KECCAK256 ADD PUSH1 0x0 SWAP2 POP SLOAD SWAP1 PUSH2 0x100 EXP SWAP1 DIV PUSH20 0xFFFFFFFFFFFFFFFFFFFFFFFFFFFFFFFFFFFFFFFF AND DUP2 JUMP JUMPDEST PUSH1 0x0 DUP1 PUSH1 0x0 DUP1 PUSH1 0x0 DUP1 PUSH1 0x0 DUP1 DUP11 DUP13 ADD MLOAD SWAP5 POP PUSH1 0x20 DUP12 ADD SWAP11 POP DUP11 DUP13 ADD MLOAD SWAP6 POP PUSH1 0x14 DUP12 ADD SWAP11 POP DUP11 DUP13 ADD MLOAD SWAP4 POP PUSH1 0x14 DUP12 ADD SWAP11 POP PUSH1 0x1 DUP12 ADD SWAP11 POP DUP11 DUP13 ADD MLOAD SWAP2 POP PUSH1 0x1 DUP12 ADD SWAP11 POP PUSH1 0xFF DUP12 DUP14 ADD MLOAD AND PUSH1 0x0 DUP2 GT ISZERO PUSH2 0x973 JUMPI DUP1 DUP13 ADD SWAP12 POP DUP12 DUP14 ADD MLOAD SWAP8 POP JUMPDEST POP PUSH1 0x40 PUSH1 0xFF AND PUSH1 0x40 DUP4 AND PUSH1 0xFF AND EQ ISZERO PUSH2 0x9B8 JUMPI PUSH1 0x1 DUP12 PUSH2 0x993 SWAP2 SWAP1 PUSH2 0x405F JUMP JUMPDEST SWAP11 POP PUSH2 0x9A0 DUP13 DUP13 DUP10 PUSH2 0x22E7 JUMP JUMPDEST DUP1 SWAP9 POP DUP2 SWAP13 POP POP POP PUSH1 0x1 DUP12 PUSH2 0x9B5 SWAP2 SWAP1 PUSH2 0x4099 JUMP JUMPDEST SWAP11 POP JUMPDEST PUSH1 0x8 DUP12 ADD SWAP11 POP DUP11 DUP13 ADD MLOAD SWAP3 POP PUSH2 0x9D4 DUP13 DUP13 PUSH4 0xFFFFFFFF AND PUSH2 0xC0B JUMP JUMPDEST DUP2 PUSH4 0xFFFFFFFF AND SWAP2 POP DUP1 SWAP13 POP DUP2 SWAP3 POP POP POP PUSH2 0x9EE DUP4 PUSH2 0x10DD JUMP JUMPDEST SWAP3 POP PUSH1 0x60 DUP4 PUSH4 0xFFFFFFFF AND PUSH16 0xFFFFFFFFFFFFFFFFFFFFFFFFFFFFFFFF AND SWAP1 SHL DUP2 OR SWAP1 POP PUSH2 0xA21 DUP13 DUP13 PUSH4 0xFFFFFFFF AND PUSH2 0xC0B JUMP JUMPDEST DUP1 SWAP13 POP DUP2 SWAP5 POP POP POP PUSH1 0x20 DUP4 PUSH4 0xFFFFFFFF AND PUSH16 0xFFFFFFFFFFFFFFFFFFFFFFFFFFFFFFFF AND SWAP1 SHL DUP2 OR SWAP1 POP PUSH1 0x40 DUP10 PUSH4 0xFFFFFFFF AND PUSH16 0xFFFFFFFFFFFFFFFFFFFFFFFFFFFFFFFF AND SWAP1 SHL DUP2 OR SWAP1 POP PUSH1 0x1 DUP12 ADD SWAP11 POP DUP11 DUP13 ADD MLOAD SWAP2 POP PUSH1 0x1 DUP3 PUSH1 0xFF AND EQ ISZERO PUSH2 0xA8D JUMPI PUSH1 0x8 PUSH1 0x14 DUP13 ADD ADD SWAP11 POP JUMPDEST DUP6 DUP11 EQ DUP1 ISZERO PUSH2 0xAE7 JUMPI POP PUSH32 0x0 PUSH20 0xFFFFFFFFFFFFFFFFFFFFFFFFFFFFFFFFFFFFFFFF AND DUP6 PUSH20 0xFFFFFFFFFFFFFFFFFFFFFFFFFFFFFFFFFFFFFFFF AND EQ JUMPDEST DUP1 ISZERO PUSH2 0xB3E JUMPI POP PUSH32 0x0 PUSH20 0xFFFFFFFFFFFFFFFFFFFFFFFFFFFFFFFFFFFFFFFF AND DUP5 PUSH20 0xFFFFFFFFFFFFFFFFFFFFFFFFFFFFFFFFFFFFFFFF AND EQ JUMPDEST PUSH2 0xB7D JUMPI PUSH1 0x40 MLOAD PUSH32 0x8C379A000000000000000000000000000000000000000000000000000000000 DUP2 MSTORE PUSH1 0x4 ADD PUSH2 0xB74 SWAP1 PUSH2 0x413F JUMP JUMPDEST PUSH1 0x40 MLOAD DUP1 SWAP2 SUB SWAP1 REVERT JUMPDEST DUP1 PUSH16 0xFFFFFFFFFFFFFFFFFFFFFFFFFFFFFFFF AND SWAP8 POP POP POP POP POP POP POP SWAP5 POP SWAP5 SWAP3 POP POP POP JUMP JUMPDEST PUSH1 0x73 PUSH1 0x0 SWAP1 SLOAD SWAP1 PUSH2 0x100 EXP SWAP1 DIV PUSH1 0xFF AND DUP2 JUMP JUMPDEST PUSH1 0xB PUSH1 0x20 MSTORE DUP2 PUSH1 0x0 MSTORE PUSH1 0x40 PUSH1 0x0 KECCAK256 PUSH1 0x20 MSTORE DUP1 PUSH1 0x0 MSTORE PUSH1 0x40 PUSH1 0x0 KECCAK256 PUSH1 0x0 SWAP2 POP SWAP2 POP POP SLOAD DUP2 JUMP JUMPDEST PUSH1 0x1 PUSH1 0x20 MSTORE DUP1 PUSH1 0x0 MSTORE PUSH1 0x40 PUSH1 0x0 KECCAK256 PUSH1 0x0 SWAP2 POP SWAP1 POP SLOAD DUP2 JUMP JUMPDEST PUSH1 0x7 PUSH1 0x8 SWAP1 SLOAD SWAP1 PUSH2 0x100 EXP SWAP1 DIV PUSH8 0xFFFFFFFFFFFFFFFF AND DUP2 JUMP JUMPDEST PUSH1 0x0 DUP1 PUSH1 0x0 PUSH1 0xA DUP5 ADD DUP5 PUSH1 0x1 DUP7 ADD SWAP4 POP JUMPDEST DUP2 DUP2 LT ISZERO PUSH2 0xC5B JUMPI DUP4 DUP8 ADD MLOAD SWAP3 POP PUSH1 0x1 DUP2 ADD SWAP1 POP PUSH1 0x7F DUP4 AND DUP6 PUSH1 0x7 SHL OR SWAP5 POP PUSH1 0x80 DUP1 DUP5 AND EQ PUSH2 0xC4A JUMPI PUSH2 0xC5B JUMP JUMPDEST PUSH1 0x1 DUP6 ADD SWAP5 POP PUSH1 0x1 DUP5 ADD SWAP4 POP PUSH2 0xC1C JUMP JUMPDEST POP POP POP SWAP3 POP SWAP3 SWAP1 POP JUMP JUMPDEST PUSH1 0x4 PUSH1 0x20 MSTORE DUP1 PUSH1 0x0 MSTORE PUSH1 0x40 PUSH1 0x0 KECCAK256 PUSH1 0x0 SWAP2 POP SWAP1 POP DUP1 PUSH1 0x0 ADD SLOAD SWAP1 DUP1 PUSH1 0x1 ADD SLOAD SWAP1 DUP1 PUSH1 0x2 ADD PUSH1 0x0 SWAP1 SLOAD SWAP1 PUSH2 0x100 EXP SWAP1 DIV PUSH4 0xFFFFFFFF AND SWAP1 DUP1 PUSH1 0x2 ADD PUSH1 0x4 SWAP1 SLOAD SWAP1 PUSH2 0x100 EXP SWAP1 DIV PUSH4 0xFFFFFFFF AND SWAP1 POP DUP5 JUMP JUMPDEST PUSH1 0x74 PUSH1 0x20 MSTORE DUP1 PUSH1 0x0 MSTORE PUSH1 0x40 PUSH1 0x0 KECCAK256 PUSH1 0x0 SWAP2 POP SLOAD SWAP1 PUSH2 0x100 EXP SWAP1 DIV PUSH1 0xFF AND DUP2 JUMP JUMPDEST PUSH1 0x77 DUP2 DUP2 SLOAD DUP2 LT PUSH2 0xCE5 JUMPI PUSH1 0x0 DUP1 REVERT JUMPDEST SWAP1 PUSH1 0x0 MSTORE PUSH1 0x20 PUSH1 0x0 KECCAK256 ADD PUSH1 0x0 SWAP2 POP SLOAD SWAP1 PUSH2 0x100 EXP SWAP1 DIV PUSH20 0xFFFFFFFFFFFFFFFFFFFFFFFFFFFFFFFFFFFFFFFF AND DUP2 JUMP JUMPDEST PUSH1 0x7 PUSH1 0x10 SWAP1 SLOAD SWAP1 PUSH2 0x100 EXP SWAP1 DIV PUSH1 0xFF AND DUP2 JUMP JUMPDEST PUSH1 0x0 PUSH1 0x20 MSTORE DUP1 PUSH1 0x0 MSTORE PUSH1 0x40 PUSH1 0x0 KECCAK256 PUSH1 0x0 SWAP2 POP SWAP1 POP DUP1 PUSH1 0x0 ADD SLOAD SWAP1 DUP1 PUSH1 0x1 ADD SLOAD SWAP1 DUP1 PUSH1 0x2 ADD PUSH1 0x0 SWAP1 SLOAD SWAP1 PUSH2 0x100 EXP SWAP1 DIV PUSH8 0xFFFFFFFFFFFFFFFF AND SWAP1 POP DUP4 JUMP JUMPDEST PUSH1 0x79 PUSH1 0x0 SWAP1 SLOAD SWAP1 PUSH2 0x100 EXP SWAP1 DIV PUSH20 0xFFFFFFFFFFFFFFFFFFFFFFFFFFFFFFFFFFFFFFFF AND DUP2 JUMP JUMPDEST PUSH1 0x6 SLOAD DUP2 JUMP JUMPDEST PUSH1 0x5 DUP2 DUP2 SLOAD DUP2 LT PUSH2 0xDA1 JUMPI PUSH1 0x0 DUP1 REVERT JUMPDEST SWAP1 PUSH1 0x0 MSTORE PUSH1 0x20 PUSH1 0x0 KECCAK256 ADD PUSH1 0x0 SWAP2 POP SLOAD SWAP1 PUSH2 0x100 EXP SWAP1 DIV PUSH20 0xFFFFFFFFFFFFFFFFFFFFFFFFFFFFFFFFFFFFFFFF AND DUP2 JUMP JUMPDEST PUSH1 0x0 DUP1 PUSH1 0x0 DUP1 DUP6 DUP6 DUP2 ADD SWAP1 PUSH2 0xDE5 SWAP2 SWAP1 PUSH2 0x3E66 JUMP JUMPDEST SWAP2 POP SWAP2 POP PUSH1 0x0 DUP1 PUSH1 0x0 DUP1 PUSH1 0x0 PUSH2 0xDFB DUP8 DUP8 PUSH2 0x1DDC JUMP JUMPDEST DUP1 SWAP4 POP DUP2 SWAP5 POP POP POP DUP3 SWAP1 POP PUSH1 0x0 PUSH2 0xE11 DUP9 PUSH2 0x25CA JUMP JUMPDEST SWAP1 POP PUSH1 0x0 DUP1 SHL DUP2 EQ ISZERO PUSH2 0xE59 JUMPI PUSH1 0x40 MLOAD PUSH32 0x8C379A000000000000000000000000000000000000000000000000000000000 DUP2 MSTORE PUSH1 0x4 ADD PUSH2 0xE50 SWAP1 PUSH2 0x41AB JUMP JUMPDEST PUSH1 0x40 MLOAD DUP1 SWAP2 SUB SWAP1 REVERT JUMPDEST PUSH1 0x3 PUSH1 0xFF AND DUP9 PUSH1 0x0 ADD MLOAD PUSH1 0x40 ADD MLOAD MLOAD EQ PUSH2 0xE72 JUMPI PUSH1 0x0 DUP1 REVERT JUMPDEST PUSH2 0xE84 DUP2 DUP10 PUSH1 0x0 ADD MLOAD PUSH1 0x40 ADD MLOAD PUSH2 0x1D82 JUMP JUMPDEST SWAP5 POP PUSH2 0xE8E PUSH2 0x252F JUMP JUMPDEST SWAP6 POP PUSH1 0x0 DUP1 SHL DUP6 EQ DUP1 PUSH2 0xEA1 JUMPI POP DUP6 DUP6 EQ ISZERO JUMPDEST ISZERO PUSH2 0xEE1 JUMPI PUSH1 0x40 MLOAD PUSH32 0x8C379A000000000000000000000000000000000000000000000000000000000 DUP2 MSTORE PUSH1 0x4 ADD PUSH2 0xED8 SWAP1 PUSH2 0x4217 JUMP JUMPDEST PUSH1 0x40 MLOAD DUP1 SWAP2 SUB SWAP1 REVERT JUMPDEST DUP2 DUP4 SWAP10 POP SWAP10 POP POP POP POP POP POP POP POP POP SWAP3 POP SWAP3 SWAP1 POP JUMP JUMPDEST PUSH1 0x3 PUSH1 0x20 MSTORE DUP1 PUSH1 0x0 MSTORE PUSH1 0x40 PUSH1 0x0 KECCAK256 PUSH1 0x0 SWAP2 POP SWAP1 POP DUP1 PUSH1 0x0 ADD PUSH1 0x0 SWAP1 SLOAD SWAP1 PUSH2 0x100 EXP SWAP1 DIV PUSH20 0xFFFFFFFFFFFFFFFFFFFFFFFFFFFFFFFFFFFFFFFF AND SWAP1 DUP1 PUSH1 0x0 ADD PUSH1 0x14 SWAP1 SLOAD SWAP1 PUSH2 0x100 EXP SWAP1 DIV PUSH1 0xFF AND SWAP1 DUP1 PUSH1 0x1 ADD SLOAD SWAP1 DUP1 PUSH1 0x2 ADD DUP1 SLOAD PUSH2 0xF58 SWAP1 PUSH2 0x3FFE JUMP JUMPDEST DUP1 PUSH1 0x1F ADD PUSH1 0x20 DUP1 SWAP2 DIV MUL PUSH1 0x20 ADD PUSH1 0x40 MLOAD SWAP1 DUP2 ADD PUSH1 0x40 MSTORE DUP1 SWAP3 SWAP2 SWAP1 DUP2 DUP2 MSTORE PUSH1 0x20 ADD DUP3 DUP1 SLOAD PUSH2 0xF84 SWAP1 PUSH2 0x3FFE JUMP JUMPDEST DUP1 ISZERO PUSH2 0xFD1 JUMPI DUP1 PUSH1 0x1F LT PUSH2 0xFA6 JUMPI PUSH2 0x100 DUP1 DUP4 SLOAD DIV MUL DUP4 MSTORE SWAP2 PUSH1 0x20 ADD SWAP2 PUSH2 0xFD1 JUMP JUMPDEST DUP3 ADD SWAP2 SWAP1 PUSH1 0x0 MSTORE PUSH1 0x20 PUSH1 0x0 KECCAK256 SWAP1 JUMPDEST DUP2 SLOAD DUP2 MSTORE SWAP1 PUSH1 0x1 ADD SWAP1 PUSH1 0x20 ADD DUP1 DUP4 GT PUSH2 0xFB4 JUMPI DUP3 SWAP1 SUB PUSH1 0x1F AND DUP3 ADD SWAP2 JUMPDEST POP POP POP POP POP SWAP1 DUP1 PUSH1 0x3 ADD SLOAD SWAP1 POP DUP6 JUMP JUMPDEST PUSH1 0x7 PUSH1 0x0 SWAP1 SLOAD SWAP1 PUSH2 0x100 EXP SWAP1 DIV PUSH8 0xFFFFFFFFFFFFFFFF AND DUP2 JUMP JUMPDEST PUSH1 0x78 DUP2 DUP2 SLOAD DUP2 LT PUSH2 0x100B JUMPI PUSH1 0x0 DUP1 REVERT JUMPDEST SWAP1 PUSH1 0x0 MSTORE PUSH1 0x20 PUSH1 0x0 KECCAK256 ADD PUSH1 0x0 SWAP2 POP SWAP1 POP DUP1 SLOAD PUSH2 0x1026 SWAP1 PUSH2 0x3FFE JUMP JUMPDEST DUP1 PUSH1 0x1F ADD PUSH1 0x20 DUP1 SWAP2 DIV MUL PUSH1 0x20 ADD PUSH1 0x40 MLOAD SWAP1 DUP2 ADD PUSH1 0x40 MSTORE DUP1 SWAP3 SWAP2 SWAP1 DUP2 DUP2 MSTORE PUSH1 0x20 ADD DUP3 DUP1 SLOAD PUSH2 0x1052 SWAP1 PUSH2 0x3FFE JUMP JUMPDEST DUP1 ISZERO PUSH2 0x109F JUMPI DUP1 PUSH1 0x1F LT PUSH2 0x1074 JUMPI PUSH2 0x100 DUP1 DUP4 SLOAD DIV MUL DUP4 MSTORE SWAP2 PUSH1 0x20 ADD SWAP2 PUSH2 0x109F JUMP JUMPDEST DUP3 ADD SWAP2 SWAP1 PUSH1 0x0 MSTORE PUSH1 0x20 PUSH1 0x0 KECCAK256 SWAP1 JUMPDEST DUP2 SLOAD DUP2 MSTORE SWAP1 PUSH1 0x1 ADD SWAP1 PUSH1 0x20 ADD DUP1 DUP4 GT PUSH2 0x1082 JUMPI DUP3 SWAP1 SUB PUSH1 0x1F AND DUP3 ADD SWAP2 JUMPDEST POP POP POP POP POP DUP2 JUMP JUMPDEST PUSH1 0xF DUP2 PUSH1 0x64 DUP2 LT PUSH2 0x10B7 JUMPI PUSH1 0x0 DUP1 REVERT JUMPDEST ADD PUSH1 0x0 SWAP2 POP SLOAD SWAP1 PUSH2 0x100 EXP SWAP1 DIV PUSH20 0xFFFFFFFFFFFFFFFFFFFFFFFFFFFFFFFFFFFFFFFF AND DUP2 JUMP JUMPDEST PUSH1 0x0 PUSH1 0x8 PUSH3 0xFF00FF DUP4 AND PUSH4 0xFFFFFFFF AND SWAP1 SHL PUSH1 0x8 PUSH4 0xFF00FF00 DUP5 AND PUSH4 0xFFFFFFFF AND SWAP1 SHR OR SWAP2 POP PUSH1 0x10 DUP3 PUSH4 0xFFFFFFFF AND SWAP1 SHL PUSH1 0x10 DUP4 PUSH4 0xFFFFFFFF AND SWAP1 SHR OR SWAP2 POP DUP2 SWAP1 POP SWAP2 SWAP1 POP JUMP JUMPDEST PUSH1 0x0 DUP1 DUP3 PUSH1 0x80 ADD MLOAD MLOAD GT PUSH2 0x116D JUMPI PUSH1 0x40 MLOAD PUSH32 0x8C379A000000000000000000000000000000000000000000000000000000000 DUP2 MSTORE PUSH1 0x4 ADD PUSH2 0x1164 SWAP1 PUSH2 0x4283 JUMP JUMPDEST PUSH1 0x40 MLOAD DUP1 SWAP2 SUB SWAP1 REVERT JUMPDEST PUSH1 0x0 DUP3 PUSH1 0x80 ADD MLOAD MLOAD SWAP1 POP PUSH1 0x0 DUP5 SWAP1 POP PUSH1 0x60 PUSH1 0x0 PUSH20 0x0 PUSH4 0x6D48BB8D DUP8 PUSH1 0x20 ADD MLOAD DUP9 PUSH1 0x40 ADD MLOAD DUP10 PUSH1 0x60 ADD MLOAD PUSH1 0x40 MLOAD DUP5 PUSH4 0xFFFFFFFF AND PUSH1 0xE0 SHL DUP2 MSTORE PUSH1 0x4 ADD PUSH2 0x11C7 SWAP4 SWAP3 SWAP2 SWAP1 PUSH2 0x42ED JUMP JUMPDEST PUSH1 0x20 PUSH1 0x40 MLOAD DUP1 DUP4 SUB DUP2 DUP7 DUP1 EXTCODESIZE ISZERO DUP1 ISZERO PUSH2 0x11DF JUMPI PUSH1 0x0 DUP1 REVERT JUMPDEST POP GAS DELEGATECALL ISZERO DUP1 ISZERO PUSH2 0x11F3 JUMPI RETURNDATASIZE PUSH1 0x0 DUP1 RETURNDATACOPY RETURNDATASIZE PUSH1 0x0 REVERT JUMPDEST POP POP POP POP PUSH1 0x40 MLOAD RETURNDATASIZE PUSH1 0x1F NOT PUSH1 0x1F DUP3 ADD AND DUP3 ADD DUP1 PUSH1 0x40 MSTORE POP DUP2 ADD SWAP1 PUSH2 0x1217 SWAP2 SWAP1 PUSH2 0x4350 JUMP JUMPDEST PUSH8 0xFFFFFFFFFFFFFFFF AND SWAP1 POP PUSH1 0x0 JUMPDEST DUP5 DUP2 LT ISZERO PUSH2 0x13CA JUMPI PUSH1 0x0 PUSH1 0x1 DUP4 AND GT ISZERO PUSH2 0x12E2 JUMPI DUP8 DUP8 PUSH1 0x80 ADD MLOAD DUP3 DUP2 MLOAD DUP2 LT PUSH2 0x1252 JUMPI PUSH2 0x1251 PUSH2 0x437D JUMP JUMPDEST JUMPDEST PUSH1 0x20 MUL PUSH1 0x20 ADD ADD MLOAD EQ ISZERO PUSH2 0x129B JUMPI PUSH1 0x40 MLOAD PUSH32 0x8C379A000000000000000000000000000000000000000000000000000000000 DUP2 MSTORE PUSH1 0x4 ADD PUSH2 0x1292 SWAP1 PUSH2 0x441E JUMP JUMPDEST PUSH1 0x40 MLOAD DUP1 SWAP2 SUB SWAP1 REVERT JUMPDEST DUP7 PUSH1 0x80 ADD MLOAD DUP2 DUP2 MLOAD DUP2 LT PUSH2 0x12B2 JUMPI PUSH2 0x12B1 PUSH2 0x437D JUMP JUMPDEST JUMPDEST PUSH1 0x20 MUL PUSH1 0x20 ADD ADD MLOAD DUP5 PUSH1 0x40 MLOAD PUSH1 0x20 ADD PUSH2 0x12CC SWAP3 SWAP2 SWAP1 PUSH2 0x445F JUMP JUMPDEST PUSH1 0x40 MLOAD PUSH1 0x20 DUP2 DUP4 SUB SUB DUP2 MSTORE SWAP1 PUSH1 0x40 MSTORE SWAP3 POP PUSH2 0x1325 JUMP JUMPDEST DUP4 DUP8 PUSH1 0x80 ADD MLOAD DUP3 DUP2 MLOAD DUP2 LT PUSH2 0x12FA JUMPI PUSH2 0x12F9 PUSH2 0x437D JUMP JUMPDEST JUMPDEST PUSH1 0x20 MUL PUSH1 0x20 ADD ADD MLOAD PUSH1 0x40 MLOAD PUSH1 0x20 ADD PUSH2 0x1313 SWAP3 SWAP2 SWAP1 PUSH2 0x445F JUMP JUMPDEST PUSH1 0x40 MLOAD PUSH1 0x20 DUP2 DUP4 SUB SUB DUP2 MSTORE SWAP1 PUSH1 0x40 MSTORE SWAP3 POP JUMPDEST DUP3 PUSH20 0x0 PUSH4 0x2CD0CFF2 SWAP1 SWAP2 PUSH1 0x40 MLOAD DUP3 PUSH4 0xFFFFFFFF AND PUSH1 0xE0 SHL DUP2 MSTORE PUSH1 0x4 ADD PUSH2 0x135E SWAP2 SWAP1 PUSH2 0x44D5 JUMP JUMPDEST PUSH1 0x20 PUSH1 0x40 MLOAD DUP1 DUP4 SUB DUP2 DUP7 DUP1 EXTCODESIZE ISZERO DUP1 ISZERO PUSH2 0x1376 JUMPI PUSH1 0x0 DUP1 REVERT JUMPDEST POP GAS DELEGATECALL ISZERO DUP1 ISZERO PUSH2 0x138A JUMPI RETURNDATASIZE PUSH1 0x0 DUP1 RETURNDATACOPY RETURNDATASIZE PUSH1 0x0 REVERT JUMPDEST POP POP POP POP PUSH1 0x40 MLOAD RETURNDATASIZE PUSH1 0x1F NOT PUSH1 0x1F DUP3 ADD AND DUP3 ADD DUP1 PUSH1 0x40 MSTORE POP DUP2 ADD SWAP1 PUSH2 0x13AE SWAP2 SWAP1 PUSH2 0x450C JUMP JUMPDEST SWAP4 POP PUSH1 0x1 DUP3 SWAP1 SHR SWAP2 POP DUP1 DUP1 PUSH2 0x13C2 SWAP1 PUSH2 0x4539 JUMP JUMPDEST SWAP2 POP POP PUSH2 0x1226 JUMP JUMPDEST POP DUP3 SWAP5 POP POP POP POP POP SWAP3 SWAP2 POP POP JUMP JUMPDEST PUSH1 0x60 PUSH1 0x0 PUSH1 0x5 DUP1 SLOAD SWAP1 POP SWAP1 POP PUSH1 0x0 DUP2 PUSH8 0xFFFFFFFFFFFFFFFF DUP2 GT ISZERO PUSH2 0x1400 JUMPI PUSH2 0x13FF PUSH2 0x2FAA JUMP JUMPDEST JUMPDEST PUSH1 0x40 MLOAD SWAP1 DUP1 DUP3 MSTORE DUP1 PUSH1 0x20 MUL PUSH1 0x20 ADD DUP3 ADD PUSH1 0x40 MSTORE DUP1 ISZERO PUSH2 0x1439 JUMPI DUP2 PUSH1 0x20 ADD JUMPDEST PUSH2 0x1426 PUSH2 0x2BAF JUMP JUMPDEST DUP2 MSTORE PUSH1 0x20 ADD SWAP1 PUSH1 0x1 SWAP1 SUB SWAP1 DUP2 PUSH2 0x141E JUMPI SWAP1 POP JUMPDEST POP SWAP1 POP PUSH2 0x1444 PUSH2 0x2C31 JUMP JUMPDEST PUSH1 0x0 DUP1 DUP5 SWAP1 POP PUSH1 0x0 DUP9 LT ISZERO DUP1 ISZERO PUSH2 0x145A JUMPI POP DUP5 DUP9 LT JUMPDEST ISZERO PUSH2 0x1463 JUMPI DUP8 SWAP2 POP JUMPDEST DUP2 DUP8 GT DUP1 ISZERO PUSH2 0x1471 JUMPI POP DUP5 DUP8 LT JUMPDEST ISZERO PUSH2 0x147A JUMPI DUP7 SWAP1 POP JUMPDEST JUMPDEST DUP1 DUP3 LT ISZERO PUSH2 0x1D74 JUMPI PUSH1 0x0 PUSH1 0x5 DUP4 DUP2 SLOAD DUP2 LT PUSH2 0x1499 JUMPI PUSH2 0x1498 PUSH2 0x437D JUMP JUMPDEST JUMPDEST SWAP1 PUSH1 0x0 MSTORE PUSH1 0x20 PUSH1 0x0 KECCAK256 ADD PUSH1 0x0 SWAP1 SLOAD SWAP1 PUSH2 0x100 EXP SWAP1 DIV PUSH20 0xFFFFFFFFFFFFFFFFFFFFFFFFFFFFFFFFFFFFFFFF AND SWAP1 POP PUSH1 0x3 PUSH1 0x0 DUP3 PUSH20 0xFFFFFFFFFFFFFFFFFFFFFFFFFFFFFFFFFFFFFFFF AND PUSH20 0xFFFFFFFFFFFFFFFFFFFFFFFFFFFFFFFFFFFFFFFF AND DUP2 MSTORE PUSH1 0x20 ADD SWAP1 DUP2 MSTORE PUSH1 0x20 ADD PUSH1 0x0 KECCAK256 PUSH1 0x40 MLOAD DUP1 PUSH1 0xA0 ADD PUSH1 0x40 MSTORE SWAP1 DUP2 PUSH1 0x0 DUP3 ADD PUSH1 0x0 SWAP1 SLOAD SWAP1 PUSH2 0x100 EXP SWAP1 DIV PUSH20 0xFFFFFFFFFFFFFFFFFFFFFFFFFFFFFFFFFFFFFFFF AND PUSH20 0xFFFFFFFFFFFFFFFFFFFFFFFFFFFFFFFFFFFFFFFF AND PUSH20 0xFFFFFFFFFFFFFFFFFFFFFFFFFFFFFFFFFFFFFFFF AND DUP2 MSTORE PUSH1 0x20 ADD PUSH1 0x0 DUP3 ADD PUSH1 0x14 SWAP1 SLOAD SWAP1 PUSH2 0x100 EXP SWAP1 DIV PUSH1 0xFF AND PUSH1 0xFF AND PUSH1 0xFF AND DUP2 MSTORE PUSH1 0x20 ADD PUSH1 0x1 DUP3 ADD SLOAD DUP2 MSTORE PUSH1 0x20 ADD PUSH1 0x2 DUP3 ADD DUP1 SLOAD PUSH2 0x159D SWAP1 PUSH2 0x3FFE JUMP JUMPDEST DUP1 PUSH1 0x1F ADD PUSH1 0x20 DUP1 SWAP2 DIV MUL PUSH1 0x20 ADD PUSH1 0x40 MLOAD SWAP1 DUP2 ADD PUSH1 0x40 MSTORE DUP1 SWAP3 SWAP2 SWAP1 DUP2 DUP2 MSTORE PUSH1 0x20 ADD DUP3 DUP1 SLOAD PUSH2 0x15C9 SWAP1 PUSH2 0x3FFE JUMP JUMPDEST DUP1 ISZERO PUSH2 0x1616 JUMPI DUP1 PUSH1 0x1F LT PUSH2 0x15EB JUMPI PUSH2 0x100 DUP1 DUP4 SLOAD DIV MUL DUP4 MSTORE SWAP2 PUSH1 0x20 ADD SWAP2 PUSH2 0x1616 JUMP JUMPDEST DUP3 ADD SWAP2 SWAP1 PUSH1 0x0 MSTORE PUSH1 0x20 PUSH1 0x0 KECCAK256 SWAP1 JUMPDEST DUP2 SLOAD DUP2 MSTORE SWAP1 PUSH1 0x1 ADD SWAP1 PUSH1 0x20 ADD DUP1 DUP4 GT PUSH2 0x15F9 JUMPI DUP3 SWAP1 SUB PUSH1 0x1F AND DUP3 ADD SWAP2 JUMPDEST POP POP POP POP POP DUP2 MSTORE PUSH1 0x20 ADD PUSH1 0x3 DUP3 ADD SLOAD DUP2 MSTORE POP POP SWAP4 POP DUP1 DUP6 DUP5 DUP2 MLOAD DUP2 LT PUSH2 0x163F JUMPI PUSH2 0x163E PUSH2 0x437D JUMP JUMPDEST JUMPDEST PUSH1 0x20 MUL PUSH1 0x20 ADD ADD MLOAD PUSH1 0x0 ADD SWAP1 PUSH20 0xFFFFFFFFFFFFFFFFFFFFFFFFFFFFFFFFFFFFFFFF AND SWAP1 DUP2 PUSH20 0xFFFFFFFFFFFFFFFFFFFFFFFFFFFFFFFFFFFFFFFF AND DUP2 MSTORE POP POP DUP4 PUSH1 0x20 ADD MLOAD DUP6 DUP5 DUP2 MLOAD DUP2 LT PUSH2 0x1695 JUMPI PUSH2 0x1694 PUSH2 0x437D JUMP JUMPDEST JUMPDEST PUSH1 0x20 MUL PUSH1 0x20 ADD ADD MLOAD PUSH1 0x60 ADD SWAP1 PUSH1 0xFF AND SWAP1 DUP2 PUSH1 0xFF AND DUP2 MSTORE POP POP PUSH32 0x0 PUSH20 0xFFFFFFFFFFFFFFFFFFFFFFFFFFFFFFFFFFFFFFFF AND DUP2 PUSH20 0xFFFFFFFFFFFFFFFFFFFFFFFFFFFFFFFFFFFFFFFF AND EQ ISZERO PUSH2 0x17D8 JUMPI PUSH1 0x0 DUP6 DUP5 DUP2 MLOAD DUP2 LT PUSH2 0x1716 JUMPI PUSH2 0x1715 PUSH2 0x437D JUMP JUMPDEST JUMPDEST PUSH1 0x20 MUL PUSH1 0x20 ADD ADD MLOAD PUSH1 0x20 ADD SWAP1 PUSH20 0xFFFFFFFFFFFFFFFFFFFFFFFFFFFFFFFFFFFFFFFF AND SWAP1 DUP2 PUSH20 0xFFFFFFFFFFFFFFFFFFFFFFFFFFFFFFFFFFFFFFFF AND DUP2 MSTORE POP POP DUP4 PUSH1 0x60 ADD MLOAD DUP6 DUP5 DUP2 MLOAD DUP2 LT PUSH2 0x176C JUMPI PUSH2 0x176B PUSH2 0x437D JUMP JUMPDEST JUMPDEST PUSH1 0x20 MUL PUSH1 0x20 ADD ADD MLOAD PUSH1 0x80 ADD DUP2 SWAP1 MSTORE POP PUSH1 0x40 MLOAD DUP1 PUSH1 0x40 ADD PUSH1 0x40 MSTORE DUP1 PUSH1 0x3 DUP2 MSTORE PUSH1 0x20 ADD PUSH32 0x4554480000000000000000000000000000000000000000000000000000000000 DUP2 MSTORE POP DUP6 DUP5 DUP2 MLOAD DUP2 LT PUSH2 0x17C4 JUMPI PUSH2 0x17C3 PUSH2 0x437D JUMP JUMPDEST JUMPDEST PUSH1 0x20 MUL PUSH1 0x20 ADD ADD MLOAD PUSH1 0xA0 ADD DUP2 SWAP1 MSTORE POP PUSH2 0x1D60 JUMP JUMPDEST PUSH1 0x20 PUSH4 0xFFFFFFFF AND PUSH1 0x20 DUP6 PUSH1 0x20 ADD MLOAD PUSH1 0xFF AND AND PUSH4 0xFFFFFFFF AND EQ ISZERO PUSH2 0x1C57 JUMPI DUP4 PUSH1 0x0 ADD MLOAD DUP6 DUP5 DUP2 MLOAD DUP2 LT PUSH2 0x180F JUMPI PUSH2 0x180E PUSH2 0x437D JUMP JUMPDEST JUMPDEST PUSH1 0x20 MUL PUSH1 0x20 ADD ADD MLOAD PUSH1 0x20 ADD SWAP1 PUSH20 0xFFFFFFFFFFFFFFFFFFFFFFFFFFFFFFFFFFFFFFFF AND SWAP1 DUP2 PUSH20 0xFFFFFFFFFFFFFFFFFFFFFFFFFFFFFFFFFFFFFFFF AND DUP2 MSTORE POP POP PUSH1 0x60 DUP5 PUSH1 0x60 ADD MLOAD SWAP1 POP PUSH32 0x2E00000000000000000000000000000000000000000000000000000000000000 DUP2 PUSH1 0x1 DUP2 MLOAD DUP2 LT PUSH2 0x188B JUMPI PUSH2 0x188A PUSH2 0x437D JUMP JUMPDEST JUMPDEST PUSH1 0x20 ADD ADD MLOAD PUSH1 0xF8 SHR PUSH1 0xF8 SHL PUSH31 0xFFFFFFFFFFFFFFFFFFFFFFFFFFFFFFFFFFFFFFFFFFFFFFFFFFFFFFFFFFFFFF NOT AND EQ DUP1 ISZERO PUSH2 0x1924 JUMPI POP PUSH32 0x2E00000000000000000000000000000000000000000000000000000000000000 DUP2 PUSH1 0x2 DUP2 MLOAD DUP2 LT PUSH2 0x18F5 JUMPI PUSH2 0x18F4 PUSH2 0x437D JUMP JUMPDEST JUMPDEST PUSH1 0x20 ADD ADD MLOAD PUSH1 0xF8 SHR PUSH1 0xF8 SHL PUSH31 0xFFFFFFFFFFFFFFFFFFFFFFFFFFFFFFFFFFFFFFFFFFFFFFFFFFFFFFFFFFFFFF NOT AND EQ JUMPDEST DUP1 ISZERO PUSH2 0x198F JUMPI POP PUSH32 0x2E00000000000000000000000000000000000000000000000000000000000000 DUP2 PUSH1 0x3 DUP2 MLOAD DUP2 LT PUSH2 0x1960 JUMPI PUSH2 0x195F PUSH2 0x437D JUMP JUMPDEST JUMPDEST PUSH1 0x20 ADD ADD MLOAD PUSH1 0xF8 SHR PUSH1 0xF8 SHL PUSH31 0xFFFFFFFFFFFFFFFFFFFFFFFFFFFFFFFFFFFFFFFFFFFFFFFFFFFFFFFFFFFFFF NOT AND EQ JUMPDEST ISZERO PUSH2 0x1A02 JUMPI PUSH2 0x19A3 DUP6 PUSH1 0x0 ADD MLOAD PUSH1 0x14 PUSH2 0x2813 JUMP JUMPDEST PUSH2 0x19BB DUP3 PUSH1 0x5 DUP1 DUP6 MLOAD PUSH2 0x19B6 SWAP2 SWAP1 PUSH2 0x4582 JUMP JUMPDEST PUSH2 0x2A91 JUMP JUMPDEST PUSH1 0x40 MLOAD PUSH1 0x20 ADD PUSH2 0x19CC SWAP3 SWAP2 SWAP1 PUSH2 0x46C6 JUMP JUMPDEST PUSH1 0x40 MLOAD PUSH1 0x20 DUP2 DUP4 SUB SUB DUP2 MSTORE SWAP1 PUSH1 0x40 MSTORE DUP7 DUP6 DUP2 MLOAD DUP2 LT PUSH2 0x19EE JUMPI PUSH2 0x19ED PUSH2 0x437D JUMP JUMPDEST JUMPDEST PUSH1 0x20 MUL PUSH1 0x20 ADD ADD MLOAD PUSH1 0x80 ADD DUP2 SWAP1 MSTORE POP PUSH2 0x1A2A JUMP JUMPDEST DUP5 PUSH1 0x60 ADD MLOAD DUP7 DUP6 DUP2 MLOAD DUP2 LT PUSH2 0x1A1A JUMPI PUSH2 0x1A19 PUSH2 0x437D JUMP JUMPDEST JUMPDEST PUSH1 0x20 MUL PUSH1 0x20 ADD ADD MLOAD PUSH1 0x80 ADD DUP2 SWAP1 MSTORE POP JUMPDEST PUSH1 0x0 DUP1 DUP7 PUSH1 0x0 ADD MLOAD PUSH20 0xFFFFFFFFFFFFFFFFFFFFFFFFFFFFFFFFFFFFFFFF AND PUSH1 0x40 MLOAD PUSH1 0x24 ADD PUSH1 0x40 MLOAD PUSH1 0x20 DUP2 DUP4 SUB SUB DUP2 MSTORE SWAP1 PUSH1 0x40 MSTORE PUSH32 0x95D89B4100000000000000000000000000000000000000000000000000000000 PUSH28 0xFFFFFFFFFFFFFFFFFFFFFFFFFFFFFFFFFFFFFFFFFFFFFFFFFFFFFFFF NOT AND PUSH1 0x20 DUP3 ADD DUP1 MLOAD PUSH28 0xFFFFFFFFFFFFFFFFFFFFFFFFFFFFFFFFFFFFFFFFFFFFFFFFFFFFFFFF DUP4 DUP2 DUP4 AND OR DUP4 MSTORE POP POP POP POP PUSH1 0x40 MLOAD PUSH2 0x1AD8 SWAP2 SWAP1 PUSH2 0x4700 JUMP JUMPDEST PUSH1 0x0 PUSH1 0x40 MLOAD DUP1 DUP4 SUB DUP2 PUSH1 0x0 DUP7 GAS CALL SWAP2 POP POP RETURNDATASIZE DUP1 PUSH1 0x0 DUP2 EQ PUSH2 0x1B15 JUMPI PUSH1 0x40 MLOAD SWAP2 POP PUSH1 0x1F NOT PUSH1 0x3F RETURNDATASIZE ADD AND DUP3 ADD PUSH1 0x40 MSTORE RETURNDATASIZE DUP3 MSTORE RETURNDATASIZE PUSH1 0x0 PUSH1 0x20 DUP5 ADD RETURNDATACOPY PUSH2 0x1B1A JUMP JUMPDEST PUSH1 0x60 SWAP2 POP JUMPDEST POP SWAP2 POP SWAP2 POP DUP2 DUP1 ISZERO PUSH2 0x1B2D JUMPI POP PUSH1 0x40 DUP2 MLOAD GT JUMPDEST ISZERO PUSH2 0x1B6D JUMPI DUP1 DUP1 PUSH1 0x20 ADD SWAP1 MLOAD DUP2 ADD SWAP1 PUSH2 0x1B46 SWAP2 SWAP1 PUSH2 0x47B8 JUMP JUMPDEST DUP9 DUP8 DUP2 MLOAD DUP2 LT PUSH2 0x1B59 JUMPI PUSH2 0x1B58 PUSH2 0x437D JUMP JUMPDEST JUMPDEST PUSH1 0x20 MUL PUSH1 0x20 ADD ADD MLOAD PUSH1 0xA0 ADD DUP2 SWAP1 MSTORE POP PUSH2 0x1C4F JUMP JUMPDEST PUSH1 0x20 DUP2 MLOAD EQ ISZERO PUSH2 0x1C00 JUMPI PUSH2 0x1BD9 DUP2 PUSH1 0x0 DUP1 PUSH1 0xF8 SHL DUP5 PUSH1 0x3 DUP2 MLOAD DUP2 LT PUSH2 0x1B95 JUMPI PUSH2 0x1B94 PUSH2 0x437D JUMP JUMPDEST JUMPDEST PUSH1 0x20 ADD ADD MLOAD PUSH1 0xF8 SHR PUSH1 0xF8 SHL PUSH31 0xFFFFFFFFFFFFFFFFFFFFFFFFFFFFFFFFFFFFFFFFFFFFFFFFFFFFFFFFFFFFFF NOT AND EQ PUSH2 0x1BCE JUMPI PUSH1 0x4 PUSH2 0x1BD1 JUMP JUMPDEST PUSH1 0x3 JUMPDEST PUSH1 0xFF AND PUSH2 0x2A91 JUMP JUMPDEST DUP9 DUP8 DUP2 MLOAD DUP2 LT PUSH2 0x1BEC JUMPI PUSH2 0x1BEB PUSH2 0x437D JUMP JUMPDEST JUMPDEST PUSH1 0x20 MUL PUSH1 0x20 ADD ADD MLOAD PUSH1 0xA0 ADD DUP2 SWAP1 MSTORE POP PUSH2 0x1C4E JUMP JUMPDEST PUSH2 0x1C2B DUP9 DUP8 DUP2 MLOAD DUP2 LT PUSH2 0x1C16 JUMPI PUSH2 0x1C15 PUSH2 0x437D JUMP JUMPDEST JUMPDEST PUSH1 0x20 MUL PUSH1 0x20 ADD ADD MLOAD PUSH1 0x80 ADD MLOAD PUSH1 0x3 PUSH1 0x4 PUSH2 0x2A91 JUMP JUMPDEST DUP9 DUP8 DUP2 MLOAD DUP2 LT PUSH2 0x1C3E JUMPI PUSH2 0x1C3D PUSH2 0x437D JUMP JUMPDEST JUMPDEST PUSH1 0x20 MUL PUSH1 0x20 ADD ADD MLOAD PUSH1 0xA0 ADD DUP2 SWAP1 MSTORE POP JUMPDEST JUMPDEST POP POP POP PUSH2 0x1D5F JUMP JUMPDEST PUSH1 0x80 PUSH4 0xFFFFFFFF AND PUSH1 0x80 DUP6 PUSH1 0x20 ADD MLOAD PUSH1 0xFF AND AND PUSH4 0xFFFFFFFF AND EQ DUP1 PUSH2 0x1C92 JUMPI POP PUSH1 0x10 PUSH4 0xFFFFFFFF AND PUSH1 0x10 DUP6 PUSH1 0x20 ADD MLOAD PUSH1 0xFF AND AND PUSH4 0xFFFFFFFF AND EQ JUMPDEST DUP1 PUSH2 0x1CB3 JUMPI POP PUSH1 0x40 PUSH4 0xFFFFFFFF AND PUSH1 0x40 DUP6 PUSH1 0x20 ADD MLOAD PUSH1 0xFF AND AND PUSH4 0xFFFFFFFF AND EQ JUMPDEST ISZERO PUSH2 0x1D5E JUMPI DUP4 PUSH1 0x0 ADD MLOAD DUP6 DUP5 DUP2 MLOAD DUP2 LT PUSH2 0x1CD0 JUMPI PUSH2 0x1CCF PUSH2 0x437D JUMP JUMPDEST JUMPDEST PUSH1 0x20 MUL PUSH1 0x20 ADD ADD MLOAD PUSH1 0x20 ADD SWAP1 PUSH20 0xFFFFFFFFFFFFFFFFFFFFFFFFFFFFFFFFFFFFFFFF AND SWAP1 DUP2 PUSH20 0xFFFFFFFFFFFFFFFFFFFFFFFFFFFFFFFFFFFFFFFF AND DUP2 MSTORE POP POP DUP4 PUSH1 0x60 ADD MLOAD DUP6 DUP5 DUP2 MLOAD DUP2 LT PUSH2 0x1D26 JUMPI PUSH2 0x1D25 PUSH2 0x437D JUMP JUMPDEST JUMPDEST PUSH1 0x20 MUL PUSH1 0x20 ADD ADD MLOAD PUSH1 0x80 ADD DUP2 SWAP1 MSTORE POP DUP4 PUSH1 0x80 ADD MLOAD DUP6 DUP5 DUP2 MLOAD DUP2 LT PUSH2 0x1D4D JUMPI PUSH2 0x1D4C PUSH2 0x437D JUMP JUMPDEST JUMPDEST PUSH1 0x20 MUL PUSH1 0x20 ADD ADD MLOAD PUSH1 0xC0 ADD DUP2 DUP2 MSTORE POP POP JUMPDEST JUMPDEST JUMPDEST POP DUP2 DUP1 PUSH2 0x1D6C SWAP1 PUSH2 0x4539 JUMP JUMPDEST SWAP3 POP POP PUSH2 0x147B JUMP JUMPDEST DUP4 SWAP6 POP POP POP POP POP POP SWAP3 SWAP2 POP POP JUMP JUMPDEST PUSH1 0x0 DUP1 DUP4 SWAP1 POP PUSH1 0x0 JUMPDEST DUP4 MLOAD DUP2 LT ISZERO PUSH2 0x1DD1 JUMPI PUSH2 0x1DBC DUP3 DUP6 DUP4 DUP2 MLOAD DUP2 LT PUSH2 0x1DAB JUMPI PUSH2 0x1DAA PUSH2 0x437D JUMP JUMPDEST JUMPDEST PUSH1 0x20 MUL PUSH1 0x20 ADD ADD MLOAD PUSH1 0x20 ADD MLOAD PUSH2 0x1124 JUMP JUMPDEST SWAP2 POP DUP1 DUP1 PUSH2 0x1DC9 SWAP1 PUSH2 0x4539 JUMP JUMPDEST SWAP2 POP POP PUSH2 0x1D8B JUMP JUMPDEST POP DUP1 SWAP2 POP POP SWAP3 SWAP2 POP POP JUMP JUMPDEST PUSH1 0x0 DUP1 PUSH1 0x1 PUSH1 0xFF AND DUP5 PUSH1 0x0 ADD MLOAD PUSH1 0x60 ADD MLOAD PUSH1 0x0 DUP2 MLOAD DUP2 LT PUSH2 0x1E00 JUMPI PUSH2 0x1DFF PUSH2 0x437D JUMP JUMPDEST JUMPDEST PUSH1 0x20 MUL PUSH1 0x20 ADD ADD MLOAD PUSH1 0x0 ADD MLOAD PUSH1 0xFF AND EQ PUSH2 0x1E42 JUMPI PUSH1 0x0 DUP1 DUP2 PUSH8 0xFFFFFFFFFFFFFFFF AND SWAP2 POP DUP1 PUSH16 0xFFFFFFFFFFFFFFFFFFFFFFFFFFFFFFFF AND SWAP1 POP SWAP2 POP SWAP2 POP PUSH2 0x22E0 JUMP JUMPDEST PUSH1 0x0 PUSH1 0x1 SWAP1 POP JUMPDEST DUP5 PUSH1 0x0 ADD MLOAD PUSH1 0x60 ADD MLOAD MLOAD DUP2 LT ISZERO PUSH2 0x22D7 JUMPI PUSH1 0x4 PUSH4 0xFFFFFFFF AND DUP6 PUSH1 0x0 ADD MLOAD PUSH1 0x60 ADD MLOAD DUP3 DUP2 MLOAD DUP2 LT PUSH2 0x1E7D JUMPI PUSH2 0x1E7C PUSH2 0x437D JUMP JUMPDEST JUMPDEST PUSH1 0x20 MUL PUSH1 0x20 ADD ADD MLOAD PUSH1 0x0 ADD MLOAD PUSH1 0xFF AND EQ PUSH2 0x1E96 JUMPI PUSH2 0x22C4 JUMP JUMPDEST PUSH1 0x0 DUP6 PUSH1 0x0 ADD MLOAD PUSH1 0x60 ADD MLOAD DUP3 DUP2 MLOAD DUP2 LT PUSH2 0x1EB3 JUMPI PUSH2 0x1EB2 PUSH2 0x437D JUMP JUMPDEST JUMPDEST PUSH1 0x20 MUL PUSH1 0x20 ADD ADD MLOAD PUSH1 0x40 ADD MLOAD SWAP1 POP PUSH1 0x0 DUP1 PUSH1 0x0 DUP1 DUP10 PUSH1 0x0 ADD MLOAD PUSH1 0x60 ADD MLOAD DUP7 DUP2 MLOAD DUP2 LT PUSH2 0x1EE2 JUMPI PUSH2 0x1EE1 PUSH2 0x437D JUMP JUMPDEST JUMPDEST PUSH1 0x20 MUL PUSH1 0x20 ADD ADD MLOAD PUSH1 0x60 ADD MLOAD PUSH1 0x0 DUP2 MLOAD DUP2 LT PUSH2 0x1F01 JUMPI PUSH2 0x1F00 PUSH2 0x437D JUMP JUMPDEST JUMPDEST PUSH1 0x20 MUL PUSH1 0x20 ADD ADD MLOAD PUSH1 0x20 ADD MLOAD PUSH1 0x20 ADD MLOAD SWAP1 POP PUSH2 0x1F1B PUSH2 0x2C79 JUMP JUMPDEST PUSH1 0xD PUSH1 0x1 PUSH1 0xA DUP2 GT ISZERO PUSH2 0x1F31 JUMPI PUSH2 0x1F30 PUSH2 0x4801 JUMP JUMPDEST JUMPDEST DUP2 SLOAD DUP2 LT PUSH2 0x1F42 JUMPI PUSH2 0x1F41 PUSH2 0x437D JUMP JUMPDEST JUMPDEST SWAP1 PUSH1 0x0 MSTORE PUSH1 0x20 PUSH1 0x0 KECCAK256 ADD PUSH1 0x0 SWAP1 SLOAD SWAP1 PUSH2 0x100 EXP SWAP1 DIV PUSH20 0xFFFFFFFFFFFFFFFFFFFFFFFFFFFFFFFFFFFFFFFF AND PUSH20 0xFFFFFFFFFFFFFFFFFFFFFFFFFFFFFFFFFFFFFFFF AND PUSH4 0xEC9BB1A0 DUP8 PUSH1 0x9 PUSH1 0x40 MLOAD DUP4 PUSH4 0xFFFFFFFF AND PUSH1 0xE0 SHL DUP2 MSTORE PUSH1 0x4 ADD PUSH2 0x1FA8 SWAP3 SWAP2 SWAP1 PUSH2 0x4830 JUMP JUMPDEST PUSH1 0x40 DUP1 MLOAD DUP1 DUP4 SUB DUP2 DUP7 DUP1 EXTCODESIZE ISZERO DUP1 ISZERO PUSH2 0x1FBF JUMPI PUSH1 0x0 DUP1 REVERT JUMPDEST POP GAS STATICCALL ISZERO DUP1 ISZERO PUSH2 0x1FD3 JUMPI RETURNDATASIZE PUSH1 0x0 DUP1 RETURNDATACOPY RETURNDATASIZE PUSH1 0x0 REVERT JUMPDEST POP POP POP POP PUSH1 0x40 MLOAD RETURNDATASIZE PUSH1 0x1F NOT PUSH1 0x1F DUP3 ADD AND DUP3 ADD DUP1 PUSH1 0x40 MSTORE POP DUP2 ADD SWAP1 PUSH2 0x1FF7 SWAP2 SWAP1 PUSH2 0x48C5 JUMP JUMPDEST SWAP1 POP PUSH1 0xD PUSH1 0x1 PUSH1 0xA DUP2 GT ISZERO PUSH2 0x200F JUMPI PUSH2 0x200E PUSH2 0x4801 JUMP JUMPDEST JUMPDEST DUP2 SLOAD DUP2 LT PUSH2 0x2020 JUMPI PUSH2 0x201F PUSH2 0x437D JUMP JUMPDEST JUMPDEST SWAP1 PUSH1 0x0 MSTORE PUSH1 0x20 PUSH1 0x0 KECCAK256 ADD PUSH1 0x0 SWAP1 SLOAD SWAP1 PUSH2 0x100 EXP SWAP1 DIV PUSH20 0xFFFFFFFFFFFFFFFFFFFFFFFFFFFFFFFFFFFFFFFF AND PUSH20 0xFFFFFFFFFFFFFFFFFFFFFFFFFFFFFFFFFFFFFFFF AND PUSH4 0xEC9BB1A0 DUP8 DUP4 PUSH1 0x0 ADD MLOAD PUSH1 0x40 MLOAD DUP4 PUSH4 0xFFFFFFFF AND PUSH1 0xE0 SHL DUP2 MSTORE PUSH1 0x4 ADD PUSH2 0x2089 SWAP3 SWAP2 SWAP1 PUSH2 0x4830 JUMP JUMPDEST PUSH1 0x40 DUP1 MLOAD DUP1 DUP4 SUB DUP2 DUP7 DUP1 EXTCODESIZE ISZERO DUP1 ISZERO PUSH2 0x20A0 JUMPI PUSH1 0x0 DUP1 REVERT JUMPDEST POP GAS STATICCALL ISZERO DUP1 ISZERO PUSH2 0x20B4 JUMPI RETURNDATASIZE PUSH1 0x0 DUP1 RETURNDATACOPY RETURNDATASIZE PUSH1 0x0 REVERT JUMPDEST POP POP POP POP PUSH1 0x40 MLOAD RETURNDATASIZE PUSH1 0x1F NOT PUSH1 0x1F DUP3 ADD AND DUP3 ADD DUP1 PUSH1 0x40 MSTORE POP DUP2 ADD SWAP1 PUSH2 0x20D8 SWAP2 SWAP1 PUSH2 0x48C5 JUMP JUMPDEST SWAP1 POP PUSH1 0x0 DUP2 PUSH1 0x20 ADD MLOAD PUSH8 0xFFFFFFFFFFFFFFFF AND EQ DUP1 PUSH2 0x2105 JUMPI POP PUSH1 0x4B DUP2 PUSH1 0x20 ADD MLOAD PUSH8 0xFFFFFFFFFFFFFFFF AND GT JUMPDEST ISZERO PUSH2 0x213F JUMPI PUSH1 0x0 DUP1 DUP2 PUSH8 0xFFFFFFFFFFFFFFFF AND SWAP2 POP DUP1 PUSH16 0xFFFFFFFFFFFFFFFFFFFFFFFFFFFFFFFF AND SWAP1 POP SWAP9 POP SWAP9 POP POP POP POP POP POP POP POP PUSH2 0x22E0 JUMP JUMPDEST DUP1 PUSH1 0x20 ADD MLOAD DUP2 PUSH1 0x0 ADD MLOAD PUSH4 0xFFFFFFFF AND PUSH2 0x2159 SWAP2 SWAP1 PUSH2 0x48F2 JUMP JUMPDEST SWAP5 POP DUP5 DUP7 ADD MLOAD SWAP4 POP PUSH1 0x1 DUP6 ADD SWAP5 POP DUP5 DUP7 ADD MLOAD SWAP3 POP PUSH1 0x1 DUP6 ADD SWAP5 POP PUSH1 0xCC PUSH4 0xFFFFFFFF AND DUP5 PUSH1 0xFF AND EQ ISZERO DUP1 PUSH2 0x21AC JUMPI POP PUSH1 0x4C PUSH4 0xFFFFFFFF AND DUP4 PUSH1 0xFF AND EQ ISZERO DUP1 ISZERO PUSH2 0x21AB JUMPI POP PUSH1 0x4D PUSH4 0xFFFFFFFF AND DUP4 PUSH1 0xFF AND EQ ISZERO JUMPDEST JUMPDEST ISZERO PUSH2 0x21E6 JUMPI PUSH1 0x0 DUP1 DUP2 PUSH8 0xFFFFFFFFFFFFFFFF AND SWAP2 POP DUP1 PUSH16 0xFFFFFFFFFFFFFFFFFFFFFFFFFFFFFFFF AND SWAP1 POP SWAP9 POP SWAP9 POP POP POP POP POP POP POP POP PUSH2 0x22E0 JUMP JUMPDEST PUSH1 0x4C PUSH4 0xFFFFFFFF AND DUP4 PUSH1 0xFF AND EQ ISZERO PUSH2 0x2203 JUMPI PUSH1 0x1 DUP6 ADD SWAP5 POP PUSH2 0x220A JUMP JUMPDEST PUSH1 0x2 DUP6 ADD SWAP5 POP JUMPDEST PUSH1 0x2 DUP6 PUSH2 0x2217 SWAP2 SWAP1 PUSH2 0x405F JUMP JUMPDEST SWAP5 POP DUP5 DUP7 ADD MLOAD SWAP4 POP PUSH1 0xC PUSH1 0xFF AND DUP5 PUSH1 0xFF AND EQ PUSH2 0x2262 JUMPI PUSH1 0x0 DUP1 DUP2 PUSH8 0xFFFFFFFFFFFFFFFF AND SWAP2 POP DUP1 PUSH16 0xFFFFFFFFFFFFFFFFFFFFFFFFFFFFFFFF AND SWAP1 POP SWAP9 POP SWAP9 POP POP POP POP POP POP POP POP PUSH2 0x22E0 JUMP JUMPDEST PUSH1 0x18 DUP6 PUSH2 0x226F SWAP2 SWAP1 PUSH2 0x405F JUMP JUMPDEST SWAP5 POP DUP5 DUP7 ADD MLOAD SWAP3 POP PUSH1 0x19 DUP6 PUSH2 0x2284 SWAP2 SWAP1 PUSH2 0x405F JUMP JUMPDEST SWAP5 POP PUSH1 0x4D PUSH4 0xFFFFFFFF AND DUP4 PUSH1 0xFF AND EQ ISZERO PUSH2 0x22A8 JUMPI PUSH1 0x1 DUP6 PUSH2 0x22A5 SWAP2 SWAP1 PUSH2 0x405F JUMP JUMPDEST SWAP5 POP JUMPDEST PUSH2 0x22B4 DUP7 DUP7 DUP13 DUP6 PUSH2 0x915 JUMP JUMPDEST SWAP9 POP SWAP9 POP POP POP POP POP POP POP POP PUSH2 0x22E0 JUMP JUMPDEST DUP1 DUP1 PUSH2 0x22CF SWAP1 PUSH2 0x4539 JUMP JUMPDEST SWAP2 POP POP PUSH2 0x1E49 JUMP JUMPDEST POP PUSH1 0x0 DUP1 SWAP2 POP SWAP2 POP JUMPDEST SWAP3 POP SWAP3 SWAP1 POP JUMP JUMPDEST PUSH1 0x0 DUP1 PUSH2 0x22F2 PUSH2 0x2C79 JUMP JUMPDEST PUSH1 0xD PUSH1 0x1 PUSH1 0xA DUP2 GT ISZERO PUSH2 0x2308 JUMPI PUSH2 0x2307 PUSH2 0x4801 JUMP JUMPDEST JUMPDEST DUP2 SLOAD DUP2 LT PUSH2 0x2319 JUMPI PUSH2 0x2318 PUSH2 0x437D JUMP JUMPDEST JUMPDEST SWAP1 PUSH1 0x0 MSTORE PUSH1 0x20 PUSH1 0x0 KECCAK256 ADD PUSH1 0x0 SWAP1 SLOAD SWAP1 PUSH2 0x100 EXP SWAP1 DIV PUSH20 0xFFFFFFFFFFFFFFFFFFFFFFFFFFFFFFFFFFFFFFFF AND PUSH20 0xFFFFFFFFFFFFFFFFFFFFFFFFFFFFFFFFFFFFFFFF AND PUSH4 0xEC9BB1A0 DUP8 DUP8 PUSH1 0x40 MLOAD DUP4 PUSH4 0xFFFFFFFF AND PUSH1 0xE0 SHL DUP2 MSTORE PUSH1 0x4 ADD PUSH2 0x237E SWAP3 SWAP2 SWAP1 PUSH2 0x4830 JUMP JUMPDEST PUSH1 0x40 DUP1 MLOAD DUP1 DUP4 SUB DUP2 DUP7 DUP1 EXTCODESIZE ISZERO DUP1 ISZERO PUSH2 0x2395 JUMPI PUSH1 0x0 DUP1 REVERT JUMPDEST POP GAS STATICCALL ISZERO DUP1 ISZERO PUSH2 0x23A9 JUMPI RETURNDATASIZE PUSH1 0x0 DUP1 RETURNDATACOPY RETURNDATASIZE PUSH1 0x0 REVERT JUMPDEST POP POP POP POP PUSH1 0x40 MLOAD RETURNDATASIZE PUSH1 0x1F NOT PUSH1 0x1F DUP3 ADD AND DUP3 ADD DUP1 PUSH1 0x40 MSTORE POP DUP2 ADD SWAP1 PUSH2 0x23CD SWAP2 SWAP1 PUSH2 0x48C5 JUMP JUMPDEST SWAP1 POP DUP1 PUSH1 0x0 ADD MLOAD SWAP5 POP PUSH1 0x0 DUP2 PUSH1 0x20 ADD MLOAD PUSH8 0xFFFFFFFFFFFFFFFF AND SWAP1 POP PUSH1 0x0 JUMPDEST DUP2 DUP2 LT ISZERO PUSH2 0x251E JUMPI PUSH1 0xD PUSH1 0x1 PUSH1 0xA DUP2 GT ISZERO PUSH2 0x240A JUMPI PUSH2 0x2409 PUSH2 0x4801 JUMP JUMPDEST JUMPDEST DUP2 SLOAD DUP2 LT PUSH2 0x241B JUMPI PUSH2 0x241A PUSH2 0x437D JUMP JUMPDEST JUMPDEST SWAP1 PUSH1 0x0 MSTORE PUSH1 0x20 PUSH1 0x0 KECCAK256 ADD PUSH1 0x0 SWAP1 SLOAD SWAP1 PUSH2 0x100 EXP SWAP1 DIV PUSH20 0xFFFFFFFFFFFFFFFFFFFFFFFFFFFFFFFFFFFFFFFF AND PUSH20 0xFFFFFFFFFFFFFFFFFFFFFFFFFFFFFFFFFFFFFFFF AND PUSH4 0xEC9BB1A0 DUP10 DUP10 PUSH1 0x40 MLOAD DUP4 PUSH4 0xFFFFFFFF AND PUSH1 0xE0 SHL DUP2 MSTORE PUSH1 0x4 ADD PUSH2 0x2480 SWAP3 SWAP2 SWAP1 PUSH2 0x4830 JUMP JUMPDEST PUSH1 0x40 DUP1 MLOAD DUP1 DUP4 SUB DUP2 DUP7 DUP1 EXTCODESIZE ISZERO DUP1 ISZERO PUSH2 0x2497 JUMPI PUSH1 0x0 DUP1 REVERT JUMPDEST POP GAS STATICCALL ISZERO DUP1 ISZERO PUSH2 0x24AB JUMPI RETURNDATASIZE PUSH1 0x0 DUP1 RETURNDATACOPY RETURNDATASIZE PUSH1 0x0 REVERT JUMPDEST POP POP POP POP PUSH1 0x40 MLOAD RETURNDATASIZE PUSH1 0x1F NOT PUSH1 0x1F DUP3 ADD AND DUP3 ADD DUP1 PUSH1 0x40 MSTORE POP DUP2 ADD SWAP1 PUSH2 0x24CF SWAP2 SWAP1 PUSH2 0x48C5 JUMP JUMPDEST SWAP3 POP PUSH1 0x16 PUSH1 0xFF AND DUP4 PUSH1 0x20 ADD MLOAD PUSH8 0xFFFFFFFFFFFFFFFF AND EQ ISZERO PUSH2 0x24F5 JUMPI PUSH1 0x16 DUP8 DUP10 ADD ADD MLOAD SWAP6 POP JUMPDEST DUP3 PUSH1 0x20 ADD MLOAD DUP4 PUSH1 0x0 ADD MLOAD PUSH2 0x2509 SWAP2 SWAP1 PUSH2 0x405F JUMP JUMPDEST SWAP7 POP DUP1 DUP1 PUSH2 0x2516 SWAP1 PUSH2 0x4539 JUMP JUMPDEST SWAP2 POP POP PUSH2 0x23EC JUMP JUMPDEST POP DUP6 DUP6 SWAP4 POP SWAP4 POP POP POP SWAP4 POP SWAP4 SWAP2 POP POP JUMP JUMPDEST PUSH1 0x0 DUP1 PUSH1 0x78 PUSH1 0x0 DUP2 SLOAD DUP2 LT PUSH2 0x2547 JUMPI PUSH2 0x2546 PUSH2 0x437D JUMP JUMPDEST JUMPDEST SWAP1 PUSH1 0x0 MSTORE PUSH1 0x20 PUSH1 0x0 KECCAK256 ADD SWAP1 POP PUSH1 0x0 DUP2 DUP1 SLOAD PUSH2 0x2561 SWAP1 PUSH2 0x3FFE JUMP JUMPDEST SWAP1 POP EQ ISZERO PUSH2 0x2575 JUMPI PUSH1 0x0 DUP1 SHL SWAP2 POP POP PUSH2 0x25C7 JUMP JUMPDEST PUSH1 0x0 DUP1 PUSH1 0x0 DUP4 PUSH1 0x20 DUP3 ADD MSTORE PUSH1 0x2 PUSH1 0x20 DUP1 DUP4 ADD KECCAK256 ADD SLOAD PUSH1 0xE0 SHR SWAP2 POP PUSH1 0x9 PUSH1 0x0 DUP4 PUSH4 0xFFFFFFFF AND PUSH1 0x0 SHL DUP2 MSTORE PUSH1 0x20 ADD SWAP1 DUP2 MSTORE PUSH1 0x20 ADD PUSH1 0x0 KECCAK256 SWAP4 POP DUP4 PUSH1 0x20 DUP3 ADD MSTORE PUSH1 0x0 PUSH1 0x20 DUP1 DUP4 ADD KECCAK256 ADD SLOAD SWAP3 POP DUP3 SWAP5 POP POP POP POP POP JUMPDEST SWAP1 JUMP JUMPDEST PUSH1 0x0 DUP1 PUSH1 0x0 DUP4 PUSH1 0x0 ADD MLOAD PUSH1 0x60 ADD MLOAD PUSH1 0x0 DUP2 MLOAD DUP2 LT PUSH2 0x25EB JUMPI PUSH2 0x25EA PUSH2 0x437D JUMP JUMPDEST JUMPDEST PUSH1 0x20 MUL PUSH1 0x20 ADD ADD MLOAD PUSH1 0x40 ADD MLOAD PUSH20 0x0 PUSH4 0x2CD0CFF2 SWAP1 SWAP2 PUSH1 0x40 MLOAD DUP3 PUSH4 0xFFFFFFFF AND PUSH1 0xE0 SHL DUP2 MSTORE PUSH1 0x4 ADD PUSH2 0x262F SWAP2 SWAP1 PUSH2 0x44D5 JUMP JUMPDEST PUSH1 0x20 PUSH1 0x40 MLOAD DUP1 DUP4 SUB DUP2 DUP7 DUP1 EXTCODESIZE ISZERO DUP1 ISZERO PUSH2 0x2647 JUMPI PUSH1 0x0 DUP1 REVERT JUMPDEST POP GAS DELEGATECALL ISZERO DUP1 ISZERO PUSH2 0x265B JUMPI RETURNDATASIZE PUSH1 0x0 DUP1 RETURNDATACOPY RETURNDATASIZE PUSH1 0x0 REVERT JUMPDEST POP POP POP POP PUSH1 0x40 MLOAD RETURNDATASIZE PUSH1 0x1F NOT PUSH1 0x1F DUP3 ADD AND DUP3 ADD DUP1 PUSH1 0x40 MSTORE POP DUP2 ADD SWAP1 PUSH2 0x267F SWAP2 SWAP1 PUSH2 0x450C JUMP JUMPDEST SWAP2 POP PUSH1 0x1 PUSH1 0xFF AND DUP5 PUSH1 0x0 ADD MLOAD PUSH1 0x60 ADD MLOAD PUSH1 0x0 DUP2 MLOAD DUP2 LT PUSH2 0x26A2 JUMPI PUSH2 0x26A1 PUSH2 0x437D JUMP JUMPDEST JUMPDEST PUSH1 0x20 MUL PUSH1 0x20 ADD ADD MLOAD PUSH1 0x0 ADD MLOAD PUSH1 0xFF AND EQ ISZERO PUSH2 0x26EB JUMPI PUSH2 0x26E8 DUP3 DUP6 PUSH1 0x0 ADD MLOAD PUSH1 0x60 ADD MLOAD PUSH1 0x0 DUP2 MLOAD DUP2 LT PUSH2 0x26D7 JUMPI PUSH2 0x26D6 PUSH2 0x437D JUMP JUMPDEST JUMPDEST PUSH1 0x20 MUL PUSH1 0x20 ADD ADD MLOAD PUSH1 0x60 ADD MLOAD PUSH2 0x1D82 JUMP JUMPDEST SWAP3 POP JUMPDEST PUSH1 0x0 PUSH1 0x1 SWAP1 POP JUMPDEST DUP5 PUSH1 0x0 ADD MLOAD PUSH1 0x60 ADD MLOAD MLOAD DUP2 LT ISZERO PUSH2 0x280B JUMPI DUP5 PUSH1 0x0 ADD MLOAD PUSH1 0x60 ADD MLOAD DUP2 DUP2 MLOAD DUP2 LT PUSH2 0x271E JUMPI PUSH2 0x271D PUSH2 0x437D JUMP JUMPDEST JUMPDEST PUSH1 0x20 MUL PUSH1 0x20 ADD ADD MLOAD PUSH1 0x40 ADD MLOAD PUSH20 0x0 PUSH4 0x2CD0CFF2 SWAP1 SWAP2 PUSH1 0x40 MLOAD DUP3 PUSH4 0xFFFFFFFF AND PUSH1 0xE0 SHL DUP2 MSTORE PUSH1 0x4 ADD PUSH2 0x2762 SWAP2 SWAP1 PUSH2 0x44D5 JUMP JUMPDEST PUSH1 0x20 PUSH1 0x40 MLOAD DUP1 DUP4 SUB DUP2 DUP7 DUP1 EXTCODESIZE ISZERO DUP1 ISZERO PUSH2 0x277A JUMPI PUSH1 0x0 DUP1 REVERT JUMPDEST POP GAS DELEGATECALL ISZERO DUP1 ISZERO PUSH2 0x278E JUMPI RETURNDATASIZE PUSH1 0x0 DUP1 RETURNDATACOPY RETURNDATASIZE PUSH1 0x0 REVERT JUMPDEST POP POP POP POP PUSH1 0x40 MLOAD RETURNDATASIZE PUSH1 0x1F NOT PUSH1 0x1F DUP3 ADD AND DUP3 ADD DUP1 PUSH1 0x40 MSTORE POP DUP2 ADD SWAP1 PUSH2 0x27B2 SWAP2 SWAP1 PUSH2 0x450C JUMP JUMPDEST SWAP3 POP PUSH2 0x27E4 DUP4 DUP7 PUSH1 0x0 ADD MLOAD PUSH1 0x60 ADD MLOAD DUP4 DUP2 MLOAD DUP2 LT PUSH2 0x27D3 JUMPI PUSH2 0x27D2 PUSH2 0x437D JUMP JUMPDEST JUMPDEST PUSH1 0x20 MUL PUSH1 0x20 ADD ADD MLOAD PUSH1 0x60 ADD MLOAD PUSH2 0x1D82 JUMP JUMPDEST SWAP2 POP DUP2 DUP5 EQ PUSH2 0x27F8 JUMPI PUSH1 0x0 DUP1 SHL SWAP4 POP PUSH2 0x280B JUMP JUMPDEST DUP1 DUP1 PUSH2 0x2803 SWAP1 PUSH2 0x4539 JUMP JUMPDEST SWAP2 POP POP PUSH2 0x26F2 JUMP JUMPDEST POP POP POP SWAP2 SWAP1 POP JUMP JUMPDEST PUSH1 0x60 PUSH1 0x0 PUSH1 0x2 DUP4 PUSH1 0x2 PUSH2 0x2826 SWAP2 SWAP1 PUSH2 0x4930 JUMP JUMPDEST PUSH2 0x2830 SWAP2 SWAP1 PUSH2 0x498A JUMP JUMPDEST PUSH8 0xFFFFFFFFFFFFFFFF DUP2 GT ISZERO PUSH2 0x2849 JUMPI PUSH2 0x2848 PUSH2 0x2FAA JUMP JUMPDEST JUMPDEST PUSH1 0x40 MLOAD SWAP1 DUP1 DUP3 MSTORE DUP1 PUSH1 0x1F ADD PUSH1 0x1F NOT AND PUSH1 0x20 ADD DUP3 ADD PUSH1 0x40 MSTORE DUP1 ISZERO PUSH2 0x287B JUMPI DUP2 PUSH1 0x20 ADD PUSH1 0x1 DUP3 MUL DUP1 CALLDATASIZE DUP4 CALLDATACOPY DUP1 DUP3 ADD SWAP2 POP POP SWAP1 POP JUMPDEST POP SWAP1 POP PUSH32 0x3000000000000000000000000000000000000000000000000000000000000000 DUP2 PUSH1 0x0 DUP2 MLOAD DUP2 LT PUSH2 0x28B3 JUMPI PUSH2 0x28B2 PUSH2 0x437D JUMP JUMPDEST JUMPDEST PUSH1 0x20 ADD ADD SWAP1 PUSH31 0xFFFFFFFFFFFFFFFFFFFFFFFFFFFFFFFFFFFFFFFFFFFFFFFFFFFFFFFFFFFFFF NOT AND SWAP1 DUP2 PUSH1 0x0 BYTE SWAP1 MSTORE8 POP PUSH32 0x7800000000000000000000000000000000000000000000000000000000000000 DUP2 PUSH1 0x1 DUP2 MLOAD DUP2 LT PUSH2 0x2917 JUMPI PUSH2 0x2916 PUSH2 0x437D JUMP JUMPDEST JUMPDEST PUSH1 0x20 ADD ADD SWAP1 PUSH31 0xFFFFFFFFFFFFFFFFFFFFFFFFFFFFFFFFFFFFFFFFFFFFFFFFFFFFFFFFFFFFFF NOT AND SWAP1 DUP2 PUSH1 0x0 BYTE SWAP1 MSTORE8 POP PUSH1 0x0 PUSH1 0x1 DUP5 PUSH1 0x2 PUSH2 0x2957 SWAP2 SWAP1 PUSH2 0x4930 JUMP JUMPDEST PUSH2 0x2961 SWAP2 SWAP1 PUSH2 0x498A JUMP JUMPDEST SWAP1 POP JUMPDEST PUSH1 0x1 DUP2 GT ISZERO PUSH2 0x2A2D JUMPI PUSH32 0x3031323334353637383961626364656600000000000000000000000000000000 PUSH1 0xF DUP7 AND PUSH20 0xFFFFFFFFFFFFFFFFFFFFFFFFFFFFFFFFFFFFFFFF AND PUSH1 0x10 DUP2 LT PUSH2 0x29B9 JUMPI PUSH2 0x29B8 PUSH2 0x437D JUMP JUMPDEST JUMPDEST BYTE PUSH1 0xF8 SHL DUP3 DUP3 DUP2 MLOAD DUP2 LT PUSH2 0x29D0 JUMPI PUSH2 0x29CF PUSH2 0x437D JUMP JUMPDEST JUMPDEST PUSH1 0x20 ADD ADD SWAP1 PUSH31 0xFFFFFFFFFFFFFFFFFFFFFFFFFFFFFFFFFFFFFFFFFFFFFFFFFFFFFFFFFFFFFF NOT AND SWAP1 DUP2 PUSH1 0x0 BYTE SWAP1 MSTORE8 POP PUSH1 0x4 DUP6 PUSH20 0xFFFFFFFFFFFFFFFFFFFFFFFFFFFFFFFFFFFFFFFF AND SWAP1 SHR SWAP5 POP DUP1 PUSH2 0x2A26 SWAP1 PUSH2 0x49E0 JUMP JUMPDEST SWAP1 POP PUSH2 0x2964 JUMP JUMPDEST POP PUSH1 0x0 DUP5 PUSH20 0xFFFFFFFFFFFFFFFFFFFFFFFFFFFFFFFFFFFFFFFF AND EQ PUSH2 0x2A87 JUMPI PUSH1 0x40 MLOAD PUSH32 0x8C379A000000000000000000000000000000000000000000000000000000000 DUP2 MSTORE PUSH1 0x4 ADD PUSH2 0x2A7E SWAP1 PUSH2 0x4A56 JUMP JUMPDEST PUSH1 0x40 MLOAD DUP1 SWAP2 SUB SWAP1 REVERT JUMPDEST DUP1 SWAP2 POP POP SWAP3 SWAP2 POP POP JUMP JUMPDEST PUSH1 0x60 DUP2 PUSH1 0x1F DUP4 PUSH2 0x2AA1 SWAP2 SWAP1 PUSH2 0x498A JUMP JUMPDEST LT ISZERO PUSH2 0x2AE2 JUMPI PUSH1 0x40 MLOAD PUSH32 0x8C379A000000000000000000000000000000000000000000000000000000000 DUP2 MSTORE PUSH1 0x4 ADD PUSH2 0x2AD9 SWAP1 PUSH2 0x4AC2 JUMP JUMPDEST PUSH1 0x40 MLOAD DUP1 SWAP2 SUB SWAP1 REVERT JUMPDEST DUP2 DUP4 PUSH2 0x2AEE SWAP2 SWAP1 PUSH2 0x498A JUMP JUMPDEST DUP5 MLOAD LT ISZERO PUSH2 0x2B31 JUMPI PUSH1 0x40 MLOAD PUSH32 0x8C379A000000000000000000000000000000000000000000000000000000000 DUP2 MSTORE PUSH1 0x4 ADD PUSH2 0x2B28 SWAP1 PUSH2 0x4B2E JUMP JUMPDEST PUSH1 0x40 MLOAD DUP1 SWAP2 SUB SWAP1 REVERT JUMPDEST PUSH1 0x60 DUP3 ISZERO PUSH1 0x0 DUP2 EQ PUSH2 0x2B52 JUMPI PUSH1 0x40 MLOAD SWAP2 POP PUSH1 0x0 DUP3 MSTORE PUSH1 0x20 DUP3 ADD PUSH1 0x40 MSTORE PUSH2 0x2BA3 JUMP JUMPDEST PUSH1 0x40 MLOAD SWAP2 POP PUSH1 0x1F DUP5 AND DUP1 ISZERO PUSH1 0x20 MUL DUP2 DUP5 ADD ADD DUP6 DUP2 ADD DUP8 DUP4 ISZERO PUSH1 0x20 MUL DUP5 DUP12 ADD ADD ADD JUMPDEST DUP2 DUP4 LT ISZERO PUSH2 0x2B90 JUMPI DUP1 MLOAD DUP4 MSTORE PUSH1 0x20 DUP4 ADD SWAP3 POP PUSH1 0x20 DUP2 ADD SWAP1 POP PUSH2 0x2B73 JUMP JUMPDEST POP DUP7 DUP6 MSTORE PUSH1 0x1F NOT PUSH1 0x1F DUP4 ADD AND PUSH1 0x40 MSTORE POP POP POP JUMPDEST POP DUP1 SWAP2 POP POP SWAP4 SWAP3 POP POP POP JUMP JUMPDEST PUSH1 0x40 MLOAD DUP1 PUSH1 0xE0 ADD PUSH1 0x40 MSTORE DUP1 PUSH1 0x0 PUSH20 0xFFFFFFFFFFFFFFFFFFFFFFFFFFFFFFFFFFFFFFFF AND DUP2 MSTORE PUSH1 0x20 ADD PUSH1 0x0 PUSH20 0xFFFFFFFFFFFFFFFFFFFFFFFFFFFFFFFFFFFFFFFF AND DUP2 MSTORE PUSH1 0x20 ADD PUSH1 0x0 PUSH20 0xFFFFFFFFFFFFFFFFFFFFFFFFFFFFFFFFFFFFFFFF AND DUP2 MSTORE PUSH1 0x20 ADD PUSH1 0x0 PUSH1 0xFF AND DUP2 MSTORE PUSH1 0x20 ADD PUSH1 0x60 DUP2 MSTORE PUSH1 0x20 ADD PUSH1 0x60 DUP2 MSTORE PUSH1 0x20 ADD PUSH1 0x0 DUP2 MSTORE POP SWAP1 JUMP JUMPDEST PUSH1 0x40 MLOAD DUP1 PUSH1 0xA0 ADD PUSH1 0x40 MSTORE DUP1 PUSH1 0x0 PUSH20 0xFFFFFFFFFFFFFFFFFFFFFFFFFFFFFFFFFFFFFFFF AND DUP2 MSTORE PUSH1 0x20 ADD PUSH1 0x0 PUSH1 0xFF AND DUP2 MSTORE PUSH1 0x20 ADD PUSH1 0x0 DUP2 MSTORE PUSH1 0x20 ADD PUSH1 0x60 DUP2 MSTORE PUSH1 0x20 ADD PUSH1 0x0 DUP2 MSTORE POP SWAP1 JUMP JUMPDEST PUSH1 0x40 MLOAD DUP1 PUSH1 0x40 ADD PUSH1 0x40 MSTORE DUP1 PUSH1 0x0 PUSH4 0xFFFFFFFF AND DUP2 MSTORE PUSH1 0x20 ADD PUSH1 0x0 PUSH8 0xFFFFFFFFFFFFFFFF AND DUP2 MSTORE POP SWAP1 JUMP JUMPDEST PUSH1 0x0 PUSH1 0x40 MLOAD SWAP1 POP SWAP1 JUMP JUMPDEST PUSH1 0x0 DUP1 REVERT JUMPDEST PUSH1 0x0 DUP1 REVERT JUMPDEST PUSH1 0x0 DUP2 SWAP1 POP SWAP2 SWAP1 POP JUMP JUMPDEST PUSH2 0x2CCA DUP2 PUSH2 0x2CB7 JUMP JUMPDEST DUP2 EQ PUSH2 0x2CD5 JUMPI PUSH1 0x0 DUP1 REVERT JUMPDEST POP JUMP JUMPDEST PUSH1 0x0 DUP2 CALLDATALOAD SWAP1 POP PUSH2 0x2CE7 DUP2 PUSH2 0x2CC1 JUMP JUMPDEST SWAP3 SWAP2 POP POP JUMP JUMPDEST PUSH1 0x0 PUSH1 0x20 DUP3 DUP5 SUB SLT ISZERO PUSH2 0x2D03 JUMPI PUSH2 0x2D02 PUSH2 0x2CAD JUMP JUMPDEST JUMPDEST PUSH1 0x0 PUSH2 0x2D11 DUP5 DUP3 DUP6 ADD PUSH2 0x2CD8 JUMP JUMPDEST SWAP2 POP POP SWAP3 SWAP2 POP POP JUMP JUMPDEST PUSH1 0x0 DUP2 MLOAD SWAP1 POP SWAP2 SWAP1 POP JUMP JUMPDEST PUSH1 0x0 DUP3 DUP3 MSTORE PUSH1 0x20 DUP3 ADD SWAP1 POP SWAP3 SWAP2 POP POP JUMP JUMPDEST PUSH1 0x0 JUMPDEST DUP4 DUP2 LT ISZERO PUSH2 0x2D54 JUMPI DUP1 DUP3 ADD MLOAD DUP2 DUP5 ADD MSTORE PUSH1 0x20 DUP2 ADD SWAP1 POP PUSH2 0x2D39 JUMP JUMPDEST DUP4 DUP2 GT ISZERO PUSH2 0x2D63 JUMPI PUSH1 0x0 DUP5 DUP5 ADD MSTORE JUMPDEST POP POP POP POP JUMP JUMPDEST PUSH1 0x0 PUSH1 0x1F NOT PUSH1 0x1F DUP4 ADD AND SWAP1 POP SWAP2 SWAP1 POP JUMP JUMPDEST PUSH1 0x0 PUSH2 0x2D85 DUP3 PUSH2 0x2D1A JUMP JUMPDEST PUSH2 0x2D8F DUP2 DUP6 PUSH2 0x2D25 JUMP JUMPDEST SWAP4 POP PUSH2 0x2D9F DUP2 DUP6 PUSH1 0x20 DUP7 ADD PUSH2 0x2D36 JUMP JUMPDEST PUSH2 0x2DA8 DUP2 PUSH2 0x2D69 JUMP JUMPDEST DUP5 ADD SWAP2 POP POP SWAP3 SWAP2 POP POP JUMP JUMPDEST PUSH1 0x0 PUSH1 0x20 DUP3 ADD SWAP1 POP DUP2 DUP2 SUB PUSH1 0x0 DUP4 ADD MSTORE PUSH2 0x2DCD DUP2 DUP5 PUSH2 0x2D7A JUMP JUMPDEST SWAP1 POP SWAP3 SWAP2 POP POP JUMP JUMPDEST PUSH1 0x0 DUP2 SWAP1 POP SWAP2 SWAP1 POP JUMP JUMPDEST PUSH2 0x2DE8 DUP2 PUSH2 0x2DD5 JUMP JUMPDEST DUP3 MSTORE POP POP JUMP JUMPDEST PUSH1 0x0 PUSH1 0x20 DUP3 ADD SWAP1 POP PUSH2 0x2E03 PUSH1 0x0 DUP4 ADD DUP5 PUSH2 0x2DDF JUMP JUMPDEST SWAP3 SWAP2 POP POP JUMP JUMPDEST PUSH1 0x0 PUSH20 0xFFFFFFFFFFFFFFFFFFFFFFFFFFFFFFFFFFFFFFFF DUP3 AND SWAP1 POP SWAP2 SWAP1 POP JUMP JUMPDEST PUSH1 0x0 PUSH2 0x2E34 DUP3 PUSH2 0x2E09 JUMP JUMPDEST SWAP1 POP SWAP2 SWAP1 POP JUMP JUMPDEST PUSH2 0x2E44 DUP2 PUSH2 0x2E29 JUMP JUMPDEST DUP2 EQ PUSH2 0x2E4F JUMPI PUSH1 0x0 DUP1 REVERT JUMPDEST POP JUMP JUMPDEST PUSH1 0x0 DUP2 CALLDATALOAD SWAP1 POP PUSH2 0x2E61 DUP2 PUSH2 0x2E3B JUMP JUMPDEST SWAP3 SWAP2 POP POP JUMP JUMPDEST PUSH1 0x0 PUSH1 0x20 DUP3 DUP5 SUB SLT ISZERO PUSH2 0x2E7D JUMPI PUSH2 0x2E7C PUSH2 0x2CAD JUMP JUMPDEST JUMPDEST PUSH1 0x0 PUSH2 0x2E8B DUP5 DUP3 DUP6 ADD PUSH2 0x2E52 JUMP JUMPDEST SWAP2 POP POP SWAP3 SWAP2 POP POP JUMP JUMPDEST PUSH2 0x2E9D DUP2 PUSH2 0x2E29 JUMP JUMPDEST DUP3 MSTORE POP POP JUMP JUMPDEST PUSH1 0x0 PUSH1 0xFF DUP3 AND SWAP1 POP SWAP2 SWAP1 POP JUMP JUMPDEST PUSH2 0x2EB9 DUP2 PUSH2 0x2EA3 JUMP JUMPDEST DUP3 MSTORE POP POP JUMP JUMPDEST PUSH1 0x0 PUSH1 0x60 DUP3 ADD SWAP1 POP PUSH2 0x2ED4 PUSH1 0x0 DUP4 ADD DUP7 PUSH2 0x2E94 JUMP JUMPDEST PUSH2 0x2EE1 PUSH1 0x20 DUP4 ADD DUP6 PUSH2 0x2E94 JUMP JUMPDEST PUSH2 0x2EEE PUSH1 0x40 DUP4 ADD DUP5 PUSH2 0x2EB0 JUMP JUMPDEST SWAP5 SWAP4 POP POP POP POP JUMP JUMPDEST PUSH1 0x0 DUP2 ISZERO ISZERO SWAP1 POP SWAP2 SWAP1 POP JUMP JUMPDEST PUSH2 0x2F0B DUP2 PUSH2 0x2EF6 JUMP JUMPDEST DUP3 MSTORE POP POP JUMP JUMPDEST PUSH1 0x0 PUSH1 0x20 DUP3 ADD SWAP1 POP PUSH2 0x2F26 PUSH1 0x0 DUP4 ADD DUP5 PUSH2 0x2F02 JUMP JUMPDEST SWAP3 SWAP2 POP POP JUMP JUMPDEST PUSH2 0x2F35 DUP2 PUSH2 0x2DD5 JUMP JUMPDEST DUP2 EQ PUSH2 0x2F40 JUMPI PUSH1 0x0 DUP1 REVERT JUMPDEST POP JUMP JUMPDEST PUSH1 0x0 DUP2 CALLDATALOAD SWAP1 POP PUSH2 0x2F52 DUP2 PUSH2 0x2F2C JUMP JUMPDEST SWAP3 SWAP2 POP POP JUMP JUMPDEST PUSH1 0x0 PUSH1 0x20 DUP3 DUP5 SUB SLT ISZERO PUSH2 0x2F6E JUMPI PUSH2 0x2F6D PUSH2 0x2CAD JUMP JUMPDEST JUMPDEST PUSH1 0x0 PUSH2 0x2F7C DUP5 DUP3 DUP6 ADD PUSH2 0x2F43 JUMP JUMPDEST SWAP2 POP POP SWAP3 SWAP2 POP POP JUMP JUMPDEST PUSH1 0x0 PUSH1 0x20 DUP3 ADD SWAP1 POP PUSH2 0x2F9A PUSH1 0x0 DUP4 ADD DUP5 PUSH2 0x2E94 JUMP JUMPDEST SWAP3 SWAP2 POP POP JUMP JUMPDEST PUSH1 0x0 DUP1 REVERT JUMPDEST PUSH1 0x0 DUP1 REVERT JUMPDEST PUSH32 0x4E487B7100000000000000000000000000000000000000000000000000000000 PUSH1 0x0 MSTORE PUSH1 0x41 PUSH1 0x4 MSTORE PUSH1 0x24 PUSH1 0x0 REVERT JUMPDEST PUSH2 0x2FE2 DUP3 PUSH2 0x2D69 JUMP JUMPDEST DUP2 ADD DUP2 DUP2 LT PUSH8 0xFFFFFFFFFFFFFFFF DUP3 GT OR ISZERO PUSH2 0x3001 JUMPI PUSH2 0x3000 PUSH2 0x2FAA JUMP JUMPDEST JUMPDEST DUP1 PUSH1 0x40 MSTORE POP POP POP JUMP JUMPDEST PUSH1 0x0 PUSH2 0x3014 PUSH2 0x2CA3 JUMP JUMPDEST SWAP1 POP PUSH2 0x3020 DUP3 DUP3 PUSH2 0x2FD9 JUMP JUMPDEST SWAP2 SWAP1 POP JUMP JUMPDEST PUSH1 0x0 PUSH8 0xFFFFFFFFFFFFFFFF DUP3 GT ISZERO PUSH2 0x3040 JUMPI PUSH2 0x303F PUSH2 0x2FAA JUMP JUMPDEST JUMPDEST PUSH2 0x3049 DUP3 PUSH2 0x2D69 JUMP JUMPDEST SWAP1 POP PUSH1 0x20 DUP2 ADD SWAP1 POP SWAP2 SWAP1 POP JUMP JUMPDEST DUP3 DUP2 DUP4 CALLDATACOPY PUSH1 0x0 DUP4 DUP4 ADD MSTORE POP POP POP JUMP JUMPDEST PUSH1 0x0 PUSH2 0x3078 PUSH2 0x3073 DUP5 PUSH2 0x3025 JUMP JUMPDEST PUSH2 0x300A JUMP JUMPDEST SWAP1 POP DUP3 DUP2 MSTORE PUSH1 0x20 DUP2 ADD DUP5 DUP5 DUP5 ADD GT ISZERO PUSH2 0x3094 JUMPI PUSH2 0x3093 PUSH2 0x2FA5 JUMP JUMPDEST JUMPDEST PUSH2 0x309F DUP5 DUP3 DUP6 PUSH2 0x3056 JUMP JUMPDEST POP SWAP4 SWAP3 POP POP POP JUMP JUMPDEST PUSH1 0x0 DUP3 PUSH1 0x1F DUP4 ADD SLT PUSH2 0x30BC JUMPI PUSH2 0x30BB PUSH2 0x2FA0 JUMP JUMPDEST JUMPDEST DUP2 CALLDATALOAD PUSH2 0x30CC DUP5 DUP3 PUSH1 0x20 DUP7 ADD PUSH2 0x3065 JUMP JUMPDEST SWAP2 POP POP SWAP3 SWAP2 POP POP JUMP JUMPDEST PUSH1 0x0 PUSH4 0xFFFFFFFF DUP3 AND SWAP1 POP SWAP2 SWAP1 POP JUMP JUMPDEST PUSH2 0x30EE DUP2 PUSH2 0x30D5 JUMP JUMPDEST DUP2 EQ PUSH2 0x30F9 JUMPI PUSH1 0x0 DUP1 REVERT JUMPDEST POP JUMP JUMPDEST PUSH1 0x0 DUP2 CALLDATALOAD SWAP1 POP PUSH2 0x310B DUP2 PUSH2 0x30E5 JUMP JUMPDEST SWAP3 SWAP2 POP POP JUMP JUMPDEST PUSH1 0x0 DUP1 PUSH1 0x0 DUP1 PUSH1 0x80 DUP6 DUP8 SUB SLT ISZERO PUSH2 0x312B JUMPI PUSH2 0x312A PUSH2 0x2CAD JUMP JUMPDEST JUMPDEST PUSH1 0x0 DUP6 ADD CALLDATALOAD PUSH8 0xFFFFFFFFFFFFFFFF DUP2 GT ISZERO PUSH2 0x3149 JUMPI PUSH2 0x3148 PUSH2 0x2CB2 JUMP JUMPDEST JUMPDEST PUSH2 0x3155 DUP8 DUP3 DUP9 ADD PUSH2 0x30A7 JUMP JUMPDEST SWAP5 POP POP PUSH1 0x20 PUSH2 0x3166 DUP8 DUP3 DUP9 ADD PUSH2 0x30FC JUMP JUMPDEST SWAP4 POP POP PUSH1 0x40 PUSH2 0x3177 DUP8 DUP3 DUP9 ADD PUSH2 0x2CD8 JUMP JUMPDEST SWAP3 POP POP PUSH1 0x60 PUSH2 0x3188 DUP8 DUP3 DUP9 ADD PUSH2 0x30FC JUMP JUMPDEST SWAP2 POP POP SWAP3 SWAP6 SWAP2 SWAP5 POP SWAP3 POP JUMP JUMPDEST PUSH1 0x0 PUSH22 0xFFFFFFFFFFFFFFFFFFFFFFFFFFFFFFFFFFFFFFFFFFFF DUP3 AND SWAP1 POP SWAP2 SWAP1 POP JUMP JUMPDEST PUSH2 0x31BF DUP2 PUSH2 0x3194 JUMP JUMPDEST DUP3 MSTORE POP POP JUMP JUMPDEST PUSH1 0x0 PUSH1 0x40 DUP3 ADD SWAP1 POP PUSH2 0x31DA PUSH1 0x0 DUP4 ADD DUP6 PUSH2 0x2DDF JUMP JUMPDEST PUSH2 0x31E7 PUSH1 0x20 DUP4 ADD DUP5 PUSH2 0x31B6 JUMP JUMPDEST SWAP4 SWAP3 POP POP POP JUMP JUMPDEST PUSH1 0x0 PUSH1 0x20 DUP3 ADD SWAP1 POP PUSH2 0x3203 PUSH1 0x0 DUP4 ADD DUP5 PUSH2 0x2EB0 JUMP JUMPDEST SWAP3 SWAP2 POP POP JUMP JUMPDEST PUSH1 0x0 DUP1 PUSH1 0x40 DUP4 DUP6 SUB SLT ISZERO PUSH2 0x3220 JUMPI PUSH2 0x321F PUSH2 0x2CAD JUMP JUMPDEST JUMPDEST PUSH1 0x0 PUSH2 0x322E DUP6 DUP3 DUP7 ADD PUSH2 0x2CD8 JUMP JUMPDEST SWAP3 POP POP PUSH1 0x20 PUSH2 0x323F DUP6 DUP3 DUP7 ADD PUSH2 0x2E52 JUMP JUMPDEST SWAP2 POP POP SWAP3 POP SWAP3 SWAP1 POP JUMP JUMPDEST PUSH1 0x0 PUSH8 0xFFFFFFFFFFFFFFFF DUP3 AND SWAP1 POP SWAP2 SWAP1 POP JUMP JUMPDEST PUSH2 0x3266 DUP2 PUSH2 0x3249 JUMP JUMPDEST DUP3 MSTORE POP POP JUMP JUMPDEST PUSH1 0x0 PUSH1 0x20 DUP3 ADD SWAP1 POP PUSH2 0x3281 PUSH1 0x0 DUP4 ADD DUP5 PUSH2 0x325D JUMP JUMPDEST SWAP3 SWAP2 POP POP JUMP JUMPDEST PUSH1 0x0 DUP1 PUSH1 0x40 DUP4 DUP6 SUB SLT ISZERO PUSH2 0x329E JUMPI PUSH2 0x329D PUSH2 0x2CAD JUMP JUMPDEST JUMPDEST PUSH1 0x0 DUP4 ADD CALLDATALOAD PUSH8 0xFFFFFFFFFFFFFFFF DUP2 GT ISZERO PUSH2 0x32BC JUMPI PUSH2 0x32BB PUSH2 0x2CB2 JUMP JUMPDEST JUMPDEST PUSH2 0x32C8 DUP6 DUP3 DUP7 ADD PUSH2 0x30A7 JUMP JUMPDEST SWAP3 POP POP PUSH1 0x20 PUSH2 0x32D9 DUP6 DUP3 DUP7 ADD PUSH2 0x2F43 JUMP JUMPDEST SWAP2 POP POP SWAP3 POP SWAP3 SWAP1 POP JUMP JUMPDEST PUSH2 0x32EC DUP2 PUSH2 0x30D5 JUMP JUMPDEST DUP3 MSTORE POP POP JUMP JUMPDEST PUSH1 0x0 PUSH1 0x40 DUP3 ADD SWAP1 POP PUSH2 0x3307 PUSH1 0x0 DUP4 ADD DUP6 PUSH2 0x32E3 JUMP JUMPDEST PUSH2 0x3314 PUSH1 0x20 DUP4 ADD DUP5 PUSH2 0x32E3 JUMP JUMPDEST SWAP4 SWAP3 POP POP POP JUMP JUMPDEST PUSH2 0x3324 DUP2 PUSH2 0x2CB7 JUMP JUMPDEST DUP3 MSTORE POP POP JUMP JUMPDEST PUSH1 0x0 PUSH1 0x80 DUP3 ADD SWAP1 POP PUSH2 0x333F PUSH1 0x0 DUP4 ADD DUP8 PUSH2 0x331B JUMP JUMPDEST PUSH2 0x334C PUSH1 0x20 DUP4 ADD DUP7 PUSH2 0x331B JUMP JUMPDEST PUSH2 0x3359 PUSH1 0x40 DUP4 ADD DUP6 PUSH2 0x32E3 JUMP JUMPDEST PUSH2 0x3366 PUSH1 0x60 DUP4 ADD DUP5 PUSH2 0x32E3 JUMP JUMPDEST SWAP6 SWAP5 POP POP POP POP POP JUMP JUMPDEST PUSH1 0x0 PUSH1 0x60 DUP3 ADD SWAP1 POP PUSH2 0x3384 PUSH1 0x0 DUP4 ADD DUP7 PUSH2 0x331B JUMP JUMPDEST PUSH2 0x3391 PUSH1 0x20 DUP4 ADD DUP6 PUSH2 0x331B JUMP JUMPDEST PUSH2 0x339E PUSH1 0x40 DUP4 ADD DUP5 PUSH2 0x325D JUMP JUMPDEST SWAP5 SWAP4 POP POP POP POP JUMP JUMPDEST PUSH1 0x0 PUSH1 0x20 DUP3 ADD SWAP1 POP PUSH2 0x33BB PUSH1 0x0 DUP4 ADD DUP5 PUSH2 0x331B JUMP JUMPDEST SWAP3 SWAP2 POP POP JUMP JUMPDEST PUSH1 0x0 DUP1 REVERT JUMPDEST PUSH1 0x0 DUP1 REVERT JUMPDEST PUSH1 0x0 DUP1 DUP4 PUSH1 0x1F DUP5 ADD SLT PUSH2 0x33E1 JUMPI PUSH2 0x33E0 PUSH2 0x2FA0 JUMP JUMPDEST JUMPDEST DUP3 CALLDATALOAD SWAP1 POP PUSH8 0xFFFFFFFFFFFFFFFF DUP2 GT ISZERO PUSH2 0x33FE JUMPI PUSH2 0x33FD PUSH2 0x33C1 JUMP JUMPDEST JUMPDEST PUSH1 0x20 DUP4 ADD SWAP2 POP DUP4 PUSH1 0x1 DUP3 MUL DUP4 ADD GT ISZERO PUSH2 0x341A JUMPI PUSH2 0x3419 PUSH2 0x33C6 JUMP JUMPDEST JUMPDEST SWAP3 POP SWAP3 SWAP1 POP JUMP JUMPDEST PUSH1 0x0 DUP1 PUSH1 0x20 DUP4 DUP6 SUB SLT ISZERO PUSH2 0x3438 JUMPI PUSH2 0x3437 PUSH2 0x2CAD JUMP JUMPDEST JUMPDEST PUSH1 0x0 DUP4 ADD CALLDATALOAD PUSH8 0xFFFFFFFFFFFFFFFF DUP2 GT ISZERO PUSH2 0x3456 JUMPI PUSH2 0x3455 PUSH2 0x2CB2 JUMP JUMPDEST JUMPDEST PUSH2 0x3462 DUP6 DUP3 DUP7 ADD PUSH2 0x33CB JUMP JUMPDEST SWAP3 POP SWAP3 POP POP SWAP3 POP SWAP3 SWAP1 POP JUMP JUMPDEST PUSH1 0x0 PUSH16 0xFFFFFFFFFFFFFFFFFFFFFFFFFFFFFFFF DUP3 AND SWAP1 POP SWAP2 SWAP1 POP JUMP JUMPDEST PUSH2 0x3493 DUP2 PUSH2 0x346E JUMP JUMPDEST DUP3 MSTORE POP POP JUMP JUMPDEST PUSH1 0x0 PUSH1 0x40 DUP3 ADD SWAP1 POP PUSH2 0x34AE PUSH1 0x0 DUP4 ADD DUP6 PUSH2 0x348A JUMP JUMPDEST PUSH2 0x34BB PUSH1 0x20 DUP4 ADD DUP5 PUSH2 0x31B6 JUMP JUMPDEST SWAP4 SWAP3 POP POP POP JUMP JUMPDEST PUSH1 0x0 DUP2 MLOAD SWAP1 POP SWAP2 SWAP1 POP JUMP JUMPDEST PUSH1 0x0 DUP3 DUP3 MSTORE PUSH1 0x20 DUP3 ADD SWAP1 POP SWAP3 SWAP2 POP POP JUMP JUMPDEST PUSH1 0x0 PUSH2 0x34E9 DUP3 PUSH2 0x34C2 JUMP JUMPDEST PUSH2 0x34F3 DUP2 DUP6 PUSH2 0x34CD JUMP JUMPDEST SWAP4 POP PUSH2 0x3503 DUP2 DUP6 PUSH1 0x20 DUP7 ADD PUSH2 0x2D36 JUMP JUMPDEST PUSH2 0x350C DUP2 PUSH2 0x2D69 JUMP JUMPDEST DUP5 ADD SWAP2 POP POP SWAP3 SWAP2 POP POP JUMP JUMPDEST PUSH1 0x0 PUSH1 0xA0 DUP3 ADD SWAP1 POP PUSH2 0x352C PUSH1 0x0 DUP4 ADD DUP9 PUSH2 0x2E94 JUMP JUMPDEST PUSH2 0x3539 PUSH1 0x20 DUP4 ADD DUP8 PUSH2 0x2EB0 JUMP JUMPDEST PUSH2 0x3546 PUSH1 0x40 DUP4 ADD DUP7 PUSH2 0x2DDF JUMP JUMPDEST DUP2 DUP2 SUB PUSH1 0x60 DUP4 ADD MSTORE PUSH2 0x3558 DUP2 DUP6 PUSH2 0x34DE JUMP JUMPDEST SWAP1 POP PUSH2 0x3567 PUSH1 0x80 DUP4 ADD DUP5 PUSH2 0x2DDF JUMP JUMPDEST SWAP7 SWAP6 POP POP POP POP POP POP JUMP JUMPDEST PUSH1 0x0 PUSH1 0x20 DUP3 DUP5 SUB SLT ISZERO PUSH2 0x3587 JUMPI PUSH2 0x3586 PUSH2 0x2CAD JUMP JUMPDEST JUMPDEST PUSH1 0x0 PUSH2 0x3595 DUP5 DUP3 DUP6 ADD PUSH2 0x30FC JUMP JUMPDEST SWAP2 POP POP SWAP3 SWAP2 POP POP JUMP JUMPDEST PUSH1 0x0 PUSH1 0x20 DUP3 ADD SWAP1 POP PUSH2 0x35B3 PUSH1 0x0 DUP4 ADD DUP5 PUSH2 0x32E3 JUMP JUMPDEST SWAP3 SWAP2 POP POP JUMP JUMPDEST PUSH1 0x0 DUP1 REVERT JUMPDEST PUSH1 0x0 DUP1 REVERT JUMPDEST PUSH2 0x35CC DUP2 PUSH2 0x2EA3 JUMP JUMPDEST DUP2 EQ PUSH2 0x35D7 JUMPI PUSH1 0x0 DUP1 REVERT JUMPDEST POP JUMP JUMPDEST PUSH1 0x0 DUP2 CALLDATALOAD SWAP1 POP PUSH2 0x35E9 DUP2 PUSH2 0x35C3 JUMP JUMPDEST SWAP3 SWAP2 POP POP JUMP JUMPDEST PUSH1 0x0 PUSH8 0xFFFFFFFFFFFFFFFF DUP3 GT ISZERO PUSH2 0x360A JUMPI PUSH2 0x3609 PUSH2 0x2FAA JUMP JUMPDEST JUMPDEST PUSH1 0x20 DUP3 MUL SWAP1 POP PUSH1 0x20 DUP2 ADD SWAP1 POP SWAP2 SWAP1 POP JUMP JUMPDEST PUSH1 0x0 PUSH2 0x362E PUSH2 0x3629 DUP5 PUSH2 0x35EF JUMP JUMPDEST PUSH2 0x300A JUMP JUMPDEST SWAP1 POP DUP1 DUP4 DUP3 MSTORE PUSH1 0x20 DUP3 ADD SWAP1 POP PUSH1 0x20 DUP5 MUL DUP4 ADD DUP6 DUP2 GT ISZERO PUSH2 0x3651 JUMPI PUSH2 0x3650 PUSH2 0x33C6 JUMP JUMPDEST JUMPDEST DUP4 JUMPDEST DUP2 DUP2 LT ISZERO PUSH2 0x367A JUMPI DUP1 PUSH2 0x3666 DUP9 DUP3 PUSH2 0x2CD8 JUMP JUMPDEST DUP5 MSTORE PUSH1 0x20 DUP5 ADD SWAP4 POP POP PUSH1 0x20 DUP2 ADD SWAP1 POP PUSH2 0x3653 JUMP JUMPDEST POP POP POP SWAP4 SWAP3 POP POP POP JUMP JUMPDEST PUSH1 0x0 DUP3 PUSH1 0x1F DUP4 ADD SLT PUSH2 0x3699 JUMPI PUSH2 0x3698 PUSH2 0x2FA0 JUMP JUMPDEST JUMPDEST DUP2 CALLDATALOAD PUSH2 0x36A9 DUP5 DUP3 PUSH1 0x20 DUP7 ADD PUSH2 0x361B JUMP JUMPDEST SWAP2 POP POP SWAP3 SWAP2 POP POP JUMP JUMPDEST PUSH1 0x0 PUSH1 0xA0 DUP3 DUP5 SUB SLT ISZERO PUSH2 0x36C8 JUMPI PUSH2 0x36C7 PUSH2 0x35B9 JUMP JUMPDEST JUMPDEST PUSH2 0x36D2 PUSH1 0xA0 PUSH2 0x300A JUMP JUMPDEST SWAP1 POP PUSH1 0x0 PUSH2 0x36E2 DUP5 DUP3 DUP6 ADD PUSH2 0x35DA JUMP JUMPDEST PUSH1 0x0 DUP4 ADD MSTORE POP PUSH1 0x20 PUSH2 0x36F6 DUP5 DUP3 DUP6 ADD PUSH2 0x30FC JUMP JUMPDEST PUSH1 0x20 DUP4 ADD MSTORE POP PUSH1 0x40 PUSH2 0x370A DUP5 DUP3 DUP6 ADD PUSH2 0x30FC JUMP JUMPDEST PUSH1 0x40 DUP4 ADD MSTORE POP PUSH1 0x60 PUSH2 0x371E DUP5 DUP3 DUP6 ADD PUSH2 0x35DA JUMP JUMPDEST PUSH1 0x60 DUP4 ADD MSTORE POP PUSH1 0x80 DUP3 ADD CALLDATALOAD PUSH8 0xFFFFFFFFFFFFFFFF DUP2 GT ISZERO PUSH2 0x3742 JUMPI PUSH2 0x3741 PUSH2 0x35BE JUMP JUMPDEST JUMPDEST PUSH2 0x374E DUP5 DUP3 DUP6 ADD PUSH2 0x3684 JUMP JUMPDEST PUSH1 0x80 DUP4 ADD MSTORE POP SWAP3 SWAP2 POP POP JUMP JUMPDEST PUSH1 0x0 DUP1 PUSH1 0x40 DUP4 DUP6 SUB SLT ISZERO PUSH2 0x3771 JUMPI PUSH2 0x3770 PUSH2 0x2CAD JUMP JUMPDEST JUMPDEST PUSH1 0x0 PUSH2 0x377F DUP6 DUP3 DUP7 ADD PUSH2 0x2CD8 JUMP JUMPDEST SWAP3 POP POP PUSH1 0x20 DUP4 ADD CALLDATALOAD PUSH8 0xFFFFFFFFFFFFFFFF DUP2 GT ISZERO PUSH2 0x37A0 JUMPI PUSH2 0x379F PUSH2 0x2CB2 JUMP JUMPDEST JUMPDEST PUSH2 0x37AC DUP6 DUP3 DUP7 ADD PUSH2 0x36B2 JUMP JUMPDEST SWAP2 POP POP SWAP3 POP SWAP3 SWAP1 POP JUMP JUMPDEST PUSH1 0x0 DUP1 PUSH1 0x40 DUP4 DUP6 SUB SLT ISZERO PUSH2 0x37CD JUMPI PUSH2 0x37CC PUSH2 0x2CAD JUMP JUMPDEST JUMPDEST PUSH1 0x0 PUSH2 0x37DB DUP6 DUP3 DUP7 ADD PUSH2 0x2F43 JUMP JUMPDEST SWAP3 POP POP PUSH1 0x20 PUSH2 0x37EC DUP6 DUP3 DUP7 ADD PUSH2 0x2F43 JUMP JUMPDEST SWAP2 POP POP SWAP3 POP SWAP3 SWAP1 POP JUMP JUMPDEST PUSH1 0x0 DUP2 MLOAD SWAP1 POP SWAP2 SWAP1 POP JUMP JUMPDEST PUSH1 0x0 DUP3 DUP3 MSTORE PUSH1 0x20 DUP3 ADD SWAP1 POP SWAP3 SWAP2 POP POP JUMP JUMPDEST PUSH1 0x0 DUP2 SWAP1 POP PUSH1 0x20 DUP3 ADD SWAP1 POP SWAP2 SWAP1 POP JUMP JUMPDEST PUSH2 0x382B DUP2 PUSH2 0x2E29 JUMP JUMPDEST DUP3 MSTORE POP POP JUMP JUMPDEST PUSH2 0x383A DUP2 PUSH2 0x2EA3 JUMP JUMPDEST DUP3 MSTORE POP POP JUMP JUMPDEST PUSH1 0x0 DUP3 DUP3 MSTORE PUSH1 0x20 DUP3 ADD SWAP1 POP SWAP3 SWAP2 POP POP JUMP JUMPDEST PUSH1 0x0 PUSH2 0x385C DUP3 PUSH2 0x34C2 JUMP JUMPDEST PUSH2 0x3866 DUP2 DUP6 PUSH2 0x3840 JUMP JUMPDEST SWAP4 POP PUSH2 0x3876 DUP2 DUP6 PUSH1 0x20 DUP7 ADD PUSH2 0x2D36 JUMP JUMPDEST PUSH2 0x387F DUP2 PUSH2 0x2D69 JUMP JUMPDEST DUP5 ADD SWAP2 POP POP SWAP3 SWAP2 POP POP JUMP JUMPDEST PUSH2 0x3893 DUP2 PUSH2 0x2DD5 JUMP JUMPDEST DUP3 MSTORE POP POP JUMP JUMPDEST PUSH1 0x0 PUSH1 0xE0 DUP4 ADD PUSH1 0x0 DUP4 ADD MLOAD PUSH2 0x38B1 PUSH1 0x0 DUP7 ADD DUP3 PUSH2 0x3822 JUMP JUMPDEST POP PUSH1 0x20 DUP4 ADD MLOAD PUSH2 0x38C4 PUSH1 0x20 DUP7 ADD DUP3 PUSH2 0x3822 JUMP JUMPDEST POP PUSH1 0x40 DUP4 ADD MLOAD PUSH2 0x38D7 PUSH1 0x40 DUP7 ADD DUP3 PUSH2 0x3822 JUMP JUMPDEST POP PUSH1 0x60 DUP4 ADD MLOAD PUSH2 0x38EA PUSH1 0x60 DUP7 ADD DUP3 PUSH2 0x3831 JUMP JUMPDEST POP PUSH1 0x80 DUP4 ADD MLOAD DUP5 DUP3 SUB PUSH1 0x80 DUP7 ADD MSTORE PUSH2 0x3902 DUP3 DUP3 PUSH2 0x3851 JUMP JUMPDEST SWAP2 POP POP PUSH1 0xA0 DUP4 ADD MLOAD DUP5 DUP3 SUB PUSH1 0xA0 DUP7 ADD MSTORE PUSH2 0x391C DUP3 DUP3 PUSH2 0x3851 JUMP JUMPDEST SWAP2 POP POP PUSH1 0xC0 DUP4 ADD MLOAD PUSH2 0x3931 PUSH1 0xC0 DUP7 ADD DUP3 PUSH2 0x388A JUMP JUMPDEST POP DUP1 SWAP2 POP POP SWAP3 SWAP2 POP POP JUMP JUMPDEST PUSH1 0x0 PUSH2 0x3948 DUP4 DUP4 PUSH2 0x3899 JUMP JUMPDEST SWAP1 POP SWAP3 SWAP2 POP POP JUMP JUMPDEST PUSH1 0x0 PUSH1 0x20 DUP3 ADD SWAP1 POP SWAP2 SWAP1 POP JUMP JUMPDEST PUSH1 0x0 PUSH2 0x3968 DUP3 PUSH2 0x37F6 JUMP JUMPDEST PUSH2 0x3972 DUP2 DUP6 PUSH2 0x3801 JUMP JUMPDEST SWAP4 POP DUP4 PUSH1 0x20 DUP3 MUL DUP6 ADD PUSH2 0x3984 DUP6 PUSH2 0x3812 JUMP JUMPDEST DUP1 PUSH1 0x0 JUMPDEST DUP6 DUP2 LT ISZERO PUSH2 0x39C0 JUMPI DUP5 DUP5 SUB DUP10 MSTORE DUP2 MLOAD PUSH2 0x39A1 DUP6 DUP3 PUSH2 0x393C JUMP JUMPDEST SWAP5 POP PUSH2 0x39AC DUP4 PUSH2 0x3950 JUMP JUMPDEST SWAP3 POP PUSH1 0x20 DUP11 ADD SWAP10 POP POP PUSH1 0x1 DUP2 ADD SWAP1 POP PUSH2 0x3988 JUMP JUMPDEST POP DUP3 SWAP8 POP DUP8 SWAP6 POP POP POP POP POP POP SWAP3 SWAP2 POP POP JUMP JUMPDEST PUSH1 0x0 PUSH1 0x20 DUP3 ADD SWAP1 POP DUP2 DUP2 SUB PUSH1 0x0 DUP4 ADD MSTORE PUSH2 0x39EC DUP2 DUP5 PUSH2 0x395D JUMP JUMPDEST SWAP1 POP SWAP3 SWAP2 POP POP JUMP JUMPDEST PUSH1 0x0 PUSH8 0xFFFFFFFFFFFFFFFF DUP3 GT ISZERO PUSH2 0x3A0F JUMPI PUSH2 0x3A0E PUSH2 0x2FAA JUMP JUMPDEST JUMPDEST PUSH1 0x20 DUP3 MUL SWAP1 POP PUSH1 0x20 DUP2 ADD SWAP1 POP SWAP2 SWAP1 POP JUMP JUMPDEST PUSH1 0x0 PUSH1 0x40 DUP3 DUP5 SUB SLT ISZERO PUSH2 0x3A36 JUMPI PUSH2 0x3A35 PUSH2 0x35B9 JUMP JUMPDEST JUMPDEST PUSH2 0x3A40 PUSH1 0x40 PUSH2 0x300A JUMP JUMPDEST SWAP1 POP PUSH1 0x0 PUSH2 0x3A50 DUP5 DUP3 DUP6 ADD PUSH2 0x35DA JUMP JUMPDEST PUSH1 0x0 DUP4 ADD MSTORE POP PUSH1 0x20 DUP3 ADD CALLDATALOAD PUSH8 0xFFFFFFFFFFFFFFFF DUP2 GT ISZERO PUSH2 0x3A74 JUMPI PUSH2 0x3A73 PUSH2 0x35BE JUMP JUMPDEST JUMPDEST PUSH2 0x3A80 DUP5 DUP3 DUP6 ADD PUSH2 0x36B2 JUMP JUMPDEST PUSH1 0x20 DUP4 ADD MSTORE POP SWAP3 SWAP2 POP POP JUMP JUMPDEST PUSH1 0x0 PUSH2 0x3A9F PUSH2 0x3A9A DUP5 PUSH2 0x39F4 JUMP JUMPDEST PUSH2 0x300A JUMP JUMPDEST SWAP1 POP DUP1 DUP4 DUP3 MSTORE PUSH1 0x20 DUP3 ADD SWAP1 POP PUSH1 0x20 DUP5 MUL DUP4 ADD DUP6 DUP2 GT ISZERO PUSH2 0x3AC2 JUMPI PUSH2 0x3AC1 PUSH2 0x33C6 JUMP JUMPDEST JUMPDEST DUP4 JUMPDEST DUP2 DUP2 LT ISZERO PUSH2 0x3B09 JUMPI DUP1 CALLDATALOAD PUSH8 0xFFFFFFFFFFFFFFFF DUP2 GT ISZERO PUSH2 0x3AE7 JUMPI PUSH2 0x3AE6 PUSH2 0x2FA0 JUMP JUMPDEST JUMPDEST DUP1 DUP7 ADD PUSH2 0x3AF4 DUP10 DUP3 PUSH2 0x3A20 JUMP JUMPDEST DUP6 MSTORE PUSH1 0x20 DUP6 ADD SWAP5 POP POP POP PUSH1 0x20 DUP2 ADD SWAP1 POP PUSH2 0x3AC4 JUMP JUMPDEST POP POP POP SWAP4 SWAP3 POP POP POP JUMP JUMPDEST PUSH1 0x0 DUP3 PUSH1 0x1F DUP4 ADD SLT PUSH2 0x3B28 JUMPI PUSH2 0x3B27 PUSH2 0x2FA0 JUMP JUMPDEST JUMPDEST DUP2 CALLDATALOAD PUSH2 0x3B38 DUP5 DUP3 PUSH1 0x20 DUP7 ADD PUSH2 0x3A8C JUMP JUMPDEST SWAP2 POP POP SWAP3 SWAP2 POP POP JUMP JUMPDEST PUSH1 0x0 DUP1 PUSH1 0x40 DUP4 DUP6 SUB SLT ISZERO PUSH2 0x3B58 JUMPI PUSH2 0x3B57 PUSH2 0x2CAD JUMP JUMPDEST JUMPDEST PUSH1 0x0 PUSH2 0x3B66 DUP6 DUP3 DUP7 ADD PUSH2 0x2CD8 JUMP JUMPDEST SWAP3 POP POP PUSH1 0x20 DUP4 ADD CALLDATALOAD PUSH8 0xFFFFFFFFFFFFFFFF DUP2 GT ISZERO PUSH2 0x3B87 JUMPI PUSH2 0x3B86 PUSH2 0x2CB2 JUMP JUMPDEST JUMPDEST PUSH2 0x3B93 DUP6 DUP3 DUP7 ADD PUSH2 0x3B13 JUMP JUMPDEST SWAP2 POP POP SWAP3 POP SWAP3 SWAP1 POP JUMP JUMPDEST PUSH1 0x0 PUSH8 0xFFFFFFFFFFFFFFFF DUP3 GT ISZERO PUSH2 0x3BB8 JUMPI PUSH2 0x3BB7 PUSH2 0x2FAA JUMP JUMPDEST JUMPDEST PUSH1 0x20 DUP3 MUL SWAP1 POP PUSH1 0x20 DUP2 ADD SWAP1 POP SWAP2 SWAP1 POP JUMP JUMPDEST PUSH1 0x0 PUSH1 0x80 DUP3 DUP5 SUB SLT ISZERO PUSH2 0x3BDF JUMPI PUSH2 0x3BDE PUSH2 0x35B9 JUMP JUMPDEST JUMPDEST PUSH2 0x3BE9 PUSH1 0x80 PUSH2 0x300A JUMP JUMPDEST SWAP1 POP PUSH1 0x0 PUSH2 0x3BF9 DUP5 DUP3 DUP6 ADD PUSH2 0x35DA JUMP JUMPDEST PUSH1 0x0 DUP4 ADD MSTORE POP PUSH1 0x20 PUSH2 0x3C0D DUP5 DUP3 DUP6 ADD PUSH2 0x35DA JUMP JUMPDEST PUSH1 0x20 DUP4 ADD MSTORE POP PUSH1 0x40 DUP3 ADD CALLDATALOAD PUSH8 0xFFFFFFFFFFFFFFFF DUP2 GT ISZERO PUSH2 0x3C31 JUMPI PUSH2 0x3C30 PUSH2 0x35BE JUMP JUMPDEST JUMPDEST PUSH2 0x3C3D DUP5 DUP3 DUP6 ADD PUSH2 0x30A7 JUMP JUMPDEST PUSH1 0x40 DUP4 ADD MSTORE POP PUSH1 0x60 DUP3 ADD CALLDATALOAD PUSH8 0xFFFFFFFFFFFFFFFF DUP2 GT ISZERO PUSH2 0x3C61 JUMPI PUSH2 0x3C60 PUSH2 0x35BE JUMP JUMPDEST JUMPDEST PUSH2 0x3C6D DUP5 DUP3 DUP6 ADD PUSH2 0x3B13 JUMP JUMPDEST PUSH1 0x60 DUP4 ADD MSTORE POP SWAP3 SWAP2 POP POP JUMP JUMPDEST PUSH1 0x0 PUSH2 0x3C8C PUSH2 0x3C87 DUP5 PUSH2 0x3B9D JUMP JUMPDEST PUSH2 0x300A JUMP JUMPDEST SWAP1 POP DUP1 DUP4 DUP3 MSTORE PUSH1 0x20 DUP3 ADD SWAP1 POP PUSH1 0x20 DUP5 MUL DUP4 ADD DUP6 DUP2 GT ISZERO PUSH2 0x3CAF JUMPI PUSH2 0x3CAE PUSH2 0x33C6 JUMP JUMPDEST JUMPDEST DUP4 JUMPDEST DUP2 DUP2 LT ISZERO PUSH2 0x3CF6 JUMPI DUP1 CALLDATALOAD PUSH8 0xFFFFFFFFFFFFFFFF DUP2 GT ISZERO PUSH2 0x3CD4 JUMPI PUSH2 0x3CD3 PUSH2 0x2FA0 JUMP JUMPDEST JUMPDEST DUP1 DUP7 ADD PUSH2 0x3CE1 DUP10 DUP3 PUSH2 0x3BC9 JUMP JUMPDEST DUP6 MSTORE PUSH1 0x20 DUP6 ADD SWAP5 POP POP POP PUSH1 0x20 DUP2 ADD SWAP1 POP PUSH2 0x3CB1 JUMP JUMPDEST POP POP POP SWAP4 SWAP3 POP POP POP JUMP JUMPDEST PUSH1 0x0 DUP3 PUSH1 0x1F DUP4 ADD SLT PUSH2 0x3D15 JUMPI PUSH2 0x3D14 PUSH2 0x2FA0 JUMP JUMPDEST JUMPDEST DUP2 CALLDATALOAD PUSH2 0x3D25 DUP5 DUP3 PUSH1 0x20 DUP7 ADD PUSH2 0x3C79 JUMP JUMPDEST SWAP2 POP POP SWAP3 SWAP2 POP POP JUMP JUMPDEST PUSH1 0x0 PUSH1 0x80 DUP3 DUP5 SUB SLT ISZERO PUSH2 0x3D44 JUMPI PUSH2 0x3D43 PUSH2 0x35B9 JUMP JUMPDEST JUMPDEST PUSH2 0x3D4E PUSH1 0x80 PUSH2 0x300A JUMP JUMPDEST SWAP1 POP PUSH1 0x0 PUSH2 0x3D5E DUP5 DUP3 DUP6 ADD PUSH2 0x35DA JUMP JUMPDEST PUSH1 0x0 DUP4 ADD MSTORE POP PUSH1 0x20 PUSH2 0x3D72 DUP5 DUP3 DUP6 ADD PUSH2 0x35DA JUMP JUMPDEST PUSH1 0x20 DUP4 ADD MSTORE POP PUSH1 0x40 DUP3 ADD CALLDATALOAD PUSH8 0xFFFFFFFFFFFFFFFF DUP2 GT ISZERO PUSH2 0x3D96 JUMPI PUSH2 0x3D95 PUSH2 0x35BE JUMP JUMPDEST JUMPDEST PUSH2 0x3DA2 DUP5 DUP3 DUP6 ADD PUSH2 0x3B13 JUMP JUMPDEST PUSH1 0x40 DUP4 ADD MSTORE POP PUSH1 0x60 DUP3 ADD CALLDATALOAD PUSH8 0xFFFFFFFFFFFFFFFF DUP2 GT ISZERO PUSH2 0x3DC6 JUMPI PUSH2 0x3DC5 PUSH2 0x35BE JUMP JUMPDEST JUMPDEST PUSH2 0x3DD2 DUP5 DUP3 DUP6 ADD PUSH2 0x3D00 JUMP JUMPDEST PUSH1 0x60 DUP4 ADD MSTORE POP SWAP3 SWAP2 POP POP JUMP JUMPDEST PUSH1 0x0 PUSH1 0x40 DUP3 DUP5 SUB SLT ISZERO PUSH2 0x3DF4 JUMPI PUSH2 0x3DF3 PUSH2 0x35B9 JUMP JUMPDEST JUMPDEST PUSH2 0x3DFE PUSH1 0x40 PUSH2 0x300A JUMP JUMPDEST SWAP1 POP PUSH1 0x0 DUP3 ADD CALLDATALOAD PUSH8 0xFFFFFFFFFFFFFFFF DUP2 GT ISZERO PUSH2 0x3E1E JUMPI PUSH2 0x3E1D PUSH2 0x35BE JUMP JUMPDEST JUMPDEST PUSH2 0x3E2A DUP5 DUP3 DUP6 ADD PUSH2 0x3D2E JUMP JUMPDEST PUSH1 0x0 DUP4 ADD MSTORE POP PUSH1 0x20 DUP3 ADD CALLDATALOAD PUSH8 0xFFFFFFFFFFFFFFFF DUP2 GT ISZERO PUSH2 0x3E4E JUMPI PUSH2 0x3E4D PUSH2 0x35BE JUMP JUMPDEST JUMPDEST PUSH2 0x3E5A DUP5 DUP3 DUP6 ADD PUSH2 0x30A7 JUMP JUMPDEST PUSH1 0x20 DUP4 ADD MSTORE POP SWAP3 SWAP2 POP POP JUMP JUMPDEST PUSH1 0x0 DUP1 PUSH1 0x40 DUP4 DUP6 SUB SLT ISZERO PUSH2 0x3E7D JUMPI PUSH2 0x3E7C PUSH2 0x2CAD JUMP JUMPDEST JUMPDEST PUSH1 0x0 DUP4 ADD CALLDATALOAD PUSH8 0xFFFFFFFFFFFFFFFF DUP2 GT ISZERO PUSH2 0x3E9B JUMPI PUSH2 0x3E9A PUSH2 0x2CB2 JUMP JUMPDEST JUMPDEST PUSH2 0x3EA7 DUP6 DUP3 DUP7 ADD PUSH2 0x3DDE JUMP JUMPDEST SWAP3 POP POP PUSH1 0x20 PUSH2 0x3EB8 DUP6 DUP3 DUP7 ADD PUSH2 0x2CD8 JUMP JUMPDEST SWAP2 POP POP SWAP3 POP SWAP3 SWAP1 POP JUMP JUMPDEST PUSH2 0x3ECB DUP2 PUSH2 0x3194 JUMP JUMPDEST DUP2 EQ PUSH2 0x3ED6 JUMPI PUSH1 0x0 DUP1 REVERT JUMPDEST POP JUMP JUMPDEST PUSH1 0x0 DUP2 CALLDATALOAD SWAP1 POP PUSH2 0x3EE8 DUP2 PUSH2 0x3EC2 JUMP JUMPDEST SWAP3 SWAP2 POP POP JUMP JUMPDEST PUSH1 0x0 DUP1 PUSH1 0x0 PUSH1 0x60 DUP5 DUP7 SUB SLT ISZERO PUSH2 0x3F07 JUMPI PUSH2 0x3F06 PUSH2 0x2CAD JUMP JUMPDEST JUMPDEST PUSH1 0x0 DUP5 ADD CALLDATALOAD PUSH8 0xFFFFFFFFFFFFFFFF DUP2 GT ISZERO PUSH2 0x3F25 JUMPI PUSH2 0x3F24 PUSH2 0x2CB2 JUMP JUMPDEST JUMPDEST PUSH2 0x3F31 DUP7 DUP3 DUP8 ADD PUSH2 0x30A7 JUMP JUMPDEST SWAP4 POP POP PUSH1 0x20 PUSH2 0x3F42 DUP7 DUP3 DUP8 ADD PUSH2 0x30FC JUMP JUMPDEST SWAP3 POP POP PUSH1 0x40 PUSH2 0x3F53 DUP7 DUP3 DUP8 ADD PUSH2 0x3ED9 JUMP JUMPDEST SWAP2 POP POP SWAP3 POP SWAP3 POP SWAP3 JUMP JUMPDEST PUSH1 0x0 PUSH1 0x40 DUP3 ADD SWAP1 POP PUSH2 0x3F72 PUSH1 0x0 DUP4 ADD DUP6 PUSH2 0x32E3 JUMP JUMPDEST PUSH2 0x3F7F PUSH1 0x20 DUP4 ADD DUP5 PUSH2 0x31B6 JUMP JUMPDEST SWAP4 SWAP3 POP POP POP JUMP JUMPDEST PUSH1 0x0 PUSH1 0x20 DUP3 DUP5 SUB SLT ISZERO PUSH2 0x3F9C JUMPI PUSH2 0x3F9B PUSH2 0x2CAD JUMP JUMPDEST JUMPDEST PUSH1 0x0 DUP3 ADD CALLDATALOAD PUSH8 0xFFFFFFFFFFFFFFFF DUP2 GT ISZERO PUSH2 0x3FBA JUMPI PUSH2 0x3FB9 PUSH2 0x2CB2 JUMP JUMPDEST JUMPDEST PUSH2 0x3FC6 DUP5 DUP3 DUP6 ADD PUSH2 0x3DDE JUMP JUMPDEST SWAP2 POP POP SWAP3 SWAP2 POP POP JUMP JUMPDEST PUSH32 0x4E487B7100000000000000000000000000000000000000000000000000000000 PUSH1 0x0 MSTORE PUSH1 0x22 PUSH1 0x4 MSTORE PUSH1 0x24 PUSH1 0x0 REVERT JUMPDEST PUSH1 0x0 PUSH1 0x2 DUP3 DIV SWAP1 POP PUSH1 0x1 DUP3 AND DUP1 PUSH2 0x4016 JUMPI PUSH1 0x7F DUP3 AND SWAP2 POP JUMPDEST PUSH1 0x20 DUP3 LT DUP2 EQ ISZERO PUSH2 0x402A JUMPI PUSH2 0x4029 PUSH2 0x3FCF JUMP JUMPDEST JUMPDEST POP SWAP2 SWAP1 POP JUMP JUMPDEST PUSH32 0x4E487B7100000000000000000000000000000000000000000000000000000000 PUSH1 0x0 MSTORE PUSH1 0x11 PUSH1 0x4 MSTORE PUSH1 0x24 PUSH1 0x0 REVERT JUMPDEST PUSH1 0x0 PUSH2 0x406A DUP3 PUSH2 0x30D5 JUMP JUMPDEST SWAP2 POP PUSH2 0x4075 DUP4 PUSH2 0x30D5 JUMP JUMPDEST SWAP3 POP DUP3 PUSH4 0xFFFFFFFF SUB DUP3 GT ISZERO PUSH2 0x408E JUMPI PUSH2 0x408D PUSH2 0x4030 JUMP JUMPDEST JUMPDEST DUP3 DUP3 ADD SWAP1 POP SWAP3 SWAP2 POP POP JUMP JUMPDEST PUSH1 0x0 PUSH2 0x40A4 DUP3 PUSH2 0x30D5 JUMP JUMPDEST SWAP2 POP PUSH2 0x40AF DUP4 PUSH2 0x30D5 JUMP JUMPDEST SWAP3 POP DUP3 DUP3 LT ISZERO PUSH2 0x40C2 JUMPI PUSH2 0x40C1 PUSH2 0x4030 JUMP JUMPDEST JUMPDEST DUP3 DUP3 SUB SWAP1 POP SWAP3 SWAP2 POP POP JUMP JUMPDEST PUSH32 0x43434520696E666F726D6174696F6E20646F6573206E6F7420636865636B6F75 PUSH1 0x0 DUP3 ADD MSTORE PUSH32 0x7400000000000000000000000000000000000000000000000000000000000000 PUSH1 0x20 DUP3 ADD MSTORE POP JUMP JUMPDEST PUSH1 0x0 PUSH2 0x4129 PUSH1 0x21 DUP4 PUSH2 0x34CD JUMP JUMPDEST SWAP2 POP PUSH2 0x4134 DUP3 PUSH2 0x40CD JUMP JUMPDEST PUSH1 0x40 DUP3 ADD SWAP1 POP SWAP2 SWAP1 POP JUMP JUMPDEST PUSH1 0x0 PUSH1 0x20 DUP3 ADD SWAP1 POP DUP2 DUP2 SUB PUSH1 0x0 DUP4 ADD MSTORE PUSH2 0x4158 DUP2 PUSH2 0x411C JUMP JUMPDEST SWAP1 POP SWAP2 SWAP1 POP JUMP JUMPDEST PUSH32 0x436F6D706F6E656E747320646F206E6F742076616C6964617465000000000000 PUSH1 0x0 DUP3 ADD MSTORE POP JUMP JUMPDEST PUSH1 0x0 PUSH2 0x4195 PUSH1 0x1A DUP4 PUSH2 0x34CD JUMP JUMPDEST SWAP2 POP PUSH2 0x41A0 DUP3 PUSH2 0x415F JUMP JUMPDEST PUSH1 0x20 DUP3 ADD SWAP1 POP SWAP2 SWAP1 POP JUMP JUMPDEST PUSH1 0x0 PUSH1 0x20 DUP3 ADD SWAP1 POP DUP2 DUP2 SUB PUSH1 0x0 DUP4 ADD MSTORE PUSH2 0x41C4 DUP2 PUSH2 0x4188 JUMP JUMPDEST SWAP1 POP SWAP2 SWAP1 POP JUMP JUMPDEST PUSH32 0x5374617465726F6F7420646F6573206E6F74206D617463680000000000000000 PUSH1 0x0 DUP3 ADD MSTORE POP JUMP JUMPDEST PUSH1 0x0 PUSH2 0x4201 PUSH1 0x18 DUP4 PUSH2 0x34CD JUMP JUMPDEST SWAP2 POP PUSH2 0x420C DUP3 PUSH2 0x41CB JUMP JUMPDEST PUSH1 0x20 DUP3 ADD SWAP1 POP SWAP2 SWAP1 POP JUMP JUMPDEST PUSH1 0x0 PUSH1 0x20 DUP3 ADD SWAP1 POP DUP2 DUP2 SUB PUSH1 0x0 DUP4 ADD MSTORE PUSH2 0x4230 DUP2 PUSH2 0x41F4 JUMP JUMPDEST SWAP1 POP SWAP2 SWAP1 POP JUMP JUMPDEST PUSH32 0x4272616E6368206D757374206265206C6F6E676572207468616E203000000000 PUSH1 0x0 DUP3 ADD MSTORE POP JUMP JUMPDEST PUSH1 0x0 PUSH2 0x426D PUSH1 0x1C DUP4 PUSH2 0x34CD JUMP JUMPDEST SWAP2 POP PUSH2 0x4278 DUP3 PUSH2 0x4237 JUMP JUMPDEST PUSH1 0x20 DUP3 ADD SWAP1 POP SWAP2 SWAP1 POP JUMP JUMPDEST PUSH1 0x0 PUSH1 0x20 DUP3 ADD SWAP1 POP DUP2 DUP2 SUB PUSH1 0x0 DUP4 ADD MSTORE PUSH2 0x429C DUP2 PUSH2 0x4260 JUMP JUMPDEST SWAP1 POP SWAP2 SWAP1 POP JUMP JUMPDEST PUSH1 0x0 DUP2 SWAP1 POP SWAP2 SWAP1 POP JUMP JUMPDEST PUSH1 0x0 PUSH2 0x42C8 PUSH2 0x42C3 PUSH2 0x42BE DUP5 PUSH2 0x30D5 JUMP JUMPDEST PUSH2 0x42A3 JUMP JUMPDEST PUSH2 0x3249 JUMP JUMPDEST SWAP1 POP SWAP2 SWAP1 POP JUMP JUMPDEST PUSH2 0x42D8 DUP2 PUSH2 0x42AD JUMP JUMPDEST DUP3 MSTORE POP POP JUMP JUMPDEST PUSH2 0x42E7 DUP2 PUSH2 0x2EA3 JUMP JUMPDEST DUP3 MSTORE POP POP JUMP JUMPDEST PUSH1 0x0 PUSH1 0x60 DUP3 ADD SWAP1 POP PUSH2 0x4302 PUSH1 0x0 DUP4 ADD DUP7 PUSH2 0x42CF JUMP JUMPDEST PUSH2 0x430F PUSH1 0x20 DUP4 ADD DUP6 PUSH2 0x42CF JUMP JUMPDEST PUSH2 0x431C PUSH1 0x40 DUP4 ADD DUP5 PUSH2 0x42DE JUMP JUMPDEST SWAP5 SWAP4 POP POP POP POP JUMP JUMPDEST PUSH2 0x432D DUP2 PUSH2 0x3249 JUMP JUMPDEST DUP2 EQ PUSH2 0x4338 JUMPI PUSH1 0x0 DUP1 REVERT JUMPDEST POP JUMP JUMPDEST PUSH1 0x0 DUP2 MLOAD SWAP1 POP PUSH2 0x434A DUP2 PUSH2 0x4324 JUMP JUMPDEST SWAP3 SWAP2 POP POP JUMP JUMPDEST PUSH1 0x0 PUSH1 0x20 DUP3 DUP5 SUB SLT ISZERO PUSH2 0x4366 JUMPI PUSH2 0x4365 PUSH2 0x2CAD JUMP JUMPDEST JUMPDEST PUSH1 0x0 PUSH2 0x4374 DUP5 DUP3 DUP6 ADD PUSH2 0x433B JUMP JUMPDEST SWAP2 POP POP SWAP3 SWAP2 POP POP JUMP JUMPDEST PUSH32 0x4E487B7100000000000000000000000000000000000000000000000000000000 PUSH1 0x0 MSTORE PUSH1 0x32 PUSH1 0x4 MSTORE PUSH1 0x24 PUSH1 0x0 REVERT JUMPDEST PUSH32 0x56616C75652063616E20626520657175616C20746F206E6F646520627574206E PUSH1 0x0 DUP3 ADD MSTORE PUSH32 0x65766572206F6E20746865207269676874000000000000000000000000000000 PUSH1 0x20 DUP3 ADD MSTORE POP JUMP JUMPDEST PUSH1 0x0 PUSH2 0x4408 PUSH1 0x31 DUP4 PUSH2 0x34CD JUMP JUMPDEST SWAP2 POP PUSH2 0x4413 DUP3 PUSH2 0x43AC JUMP JUMPDEST PUSH1 0x40 DUP3 ADD SWAP1 POP SWAP2 SWAP1 POP JUMP JUMPDEST PUSH1 0x0 PUSH1 0x20 DUP3 ADD SWAP1 POP DUP2 DUP2 SUB PUSH1 0x0 DUP4 ADD MSTORE PUSH2 0x4437 DUP2 PUSH2 0x43FB JUMP JUMPDEST SWAP1 POP SWAP2 SWAP1 POP JUMP JUMPDEST PUSH1 0x0 DUP2 SWAP1 POP SWAP2 SWAP1 POP JUMP JUMPDEST PUSH2 0x4459 PUSH2 0x4454 DUP3 PUSH2 0x2CB7 JUMP JUMPDEST PUSH2 0x443E JUMP JUMPDEST DUP3 MSTORE POP POP JUMP JUMPDEST PUSH1 0x0 PUSH2 0x446B DUP3 DUP6 PUSH2 0x4448 JUMP JUMPDEST PUSH1 0x20 DUP3 ADD SWAP2 POP PUSH2 0x447B DUP3 DUP5 PUSH2 0x4448 JUMP JUMPDEST PUSH1 0x20 DUP3 ADD SWAP2 POP DUP2 SWAP1 POP SWAP4 SWAP3 POP POP POP JUMP JUMPDEST PUSH1 0x0 DUP3 DUP3 MSTORE PUSH1 0x20 DUP3 ADD SWAP1 POP SWAP3 SWAP2 POP POP JUMP JUMPDEST PUSH1 0x0 PUSH2 0x44A7 DUP3 PUSH2 0x2D1A JUMP JUMPDEST PUSH2 0x44B1 DUP2 DUP6 PUSH2 0x448B JUMP JUMPDEST SWAP4 POP PUSH2 0x44C1 DUP2 DUP6 PUSH1 0x20 DUP7 ADD PUSH2 0x2D36 JUMP JUMPDEST PUSH2 0x44CA DUP2 PUSH2 0x2D69 JUMP JUMPDEST DUP5 ADD SWAP2 POP POP SWAP3 SWAP2 POP POP JUMP JUMPDEST PUSH1 0x0 PUSH1 0x20 DUP3 ADD SWAP1 POP DUP2 DUP2 SUB PUSH1 0x0 DUP4 ADD MSTORE PUSH2 0x44EF DUP2 DUP5 PUSH2 0x449C JUMP JUMPDEST SWAP1 POP SWAP3 SWAP2 POP POP JUMP JUMPDEST PUSH1 0x0 DUP2 MLOAD SWAP1 POP PUSH2 0x4506 DUP2 PUSH2 0x2CC1 JUMP JUMPDEST SWAP3 SWAP2 POP POP JUMP JUMPDEST PUSH1 0x0 PUSH1 0x20 DUP3 DUP5 SUB SLT ISZERO PUSH2 0x4522 JUMPI PUSH2 0x4521 PUSH2 0x2CAD JUMP JUMPDEST JUMPDEST PUSH1 0x0 PUSH2 0x4530 DUP5 DUP3 DUP6 ADD PUSH2 0x44F7 JUMP JUMPDEST SWAP2 POP POP SWAP3 SWAP2 POP POP JUMP JUMPDEST PUSH1 0x0 PUSH2 0x4544 DUP3 PUSH2 0x2DD5 JUMP JUMPDEST SWAP2 POP PUSH32 0xFFFFFFFFFFFFFFFFFFFFFFFFFFFFFFFFFFFFFFFFFFFFFFFFFFFFFFFFFFFFFFFF DUP3 EQ ISZERO PUSH2 0x4577 JUMPI PUSH2 0x4576 PUSH2 0x4030 JUMP JUMPDEST JUMPDEST PUSH1 0x1 DUP3 ADD SWAP1 POP SWAP2 SWAP1 POP JUMP JUMPDEST PUSH1 0x0 PUSH2 0x458D DUP3 PUSH2 0x2DD5 JUMP JUMPDEST SWAP2 POP PUSH2 0x4598 DUP4 PUSH2 0x2DD5 JUMP JUMPDEST SWAP3 POP DUP3 DUP3 LT ISZERO PUSH2 0x45AB JUMPI PUSH2 0x45AA PUSH2 0x4030 JUMP JUMPDEST JUMPDEST DUP3 DUP3 SUB SWAP1 POP SWAP3 SWAP2 POP POP JUMP JUMPDEST PUSH1 0x0 DUP2 SWAP1 POP SWAP3 SWAP2 POP POP JUMP JUMPDEST PUSH32 0x5B00000000000000000000000000000000000000000000000000000000000000 PUSH1 0x0 DUP3 ADD MSTORE POP JUMP JUMPDEST PUSH1 0x0 PUSH2 0x45F7 PUSH1 0x1 DUP4 PUSH2 0x45B6 JUMP JUMPDEST SWAP2 POP PUSH2 0x4602 DUP3 PUSH2 0x45C1 JUMP JUMPDEST PUSH1 0x1 DUP3 ADD SWAP1 POP SWAP2 SWAP1 POP JUMP JUMPDEST PUSH1 0x0 PUSH2 0x4618 DUP3 PUSH2 0x34C2 JUMP JUMPDEST PUSH2 0x4622 DUP2 DUP6 PUSH2 0x45B6 JUMP JUMPDEST SWAP4 POP PUSH2 0x4632 DUP2 DUP6 PUSH1 0x20 DUP7 ADD PUSH2 0x2D36 JUMP JUMPDEST DUP1 DUP5 ADD SWAP2 POP POP SWAP3 SWAP2 POP POP JUMP JUMPDEST PUSH32 0x5D00000000000000000000000000000000000000000000000000000000000000 PUSH1 0x0 DUP3 ADD MSTORE POP JUMP JUMPDEST PUSH1 0x0 PUSH2 0x4674 PUSH1 0x1 DUP4 PUSH2 0x45B6 JUMP JUMPDEST SWAP2 POP PUSH2 0x467F DUP3 PUSH2 0x463E JUMP JUMPDEST PUSH1 0x1 DUP3 ADD SWAP1 POP SWAP2 SWAP1 POP JUMP JUMPDEST PUSH1 0x0 DUP2 SWAP1 POP SWAP3 SWAP2 POP POP JUMP JUMPDEST PUSH1 0x0 PUSH2 0x46A0 DUP3 PUSH2 0x2D1A JUMP JUMPDEST PUSH2 0x46AA DUP2 DUP6 PUSH2 0x468A JUMP JUMPDEST SWAP4 POP PUSH2 0x46BA DUP2 DUP6 PUSH1 0x20 DUP7 ADD PUSH2 0x2D36 JUMP JUMPDEST DUP1 DUP5 ADD SWAP2 POP POP SWAP3 SWAP2 POP POP JUMP JUMPDEST PUSH1 0x0 PUSH2 0x46D1 DUP3 PUSH2 0x45EA JUMP JUMPDEST SWAP2 POP PUSH2 0x46DD DUP3 DUP6 PUSH2 0x460D JUMP JUMPDEST SWAP2 POP PUSH2 0x46E8 DUP3 PUSH2 0x4667 JUMP JUMPDEST SWAP2 POP PUSH2 0x46F4 DUP3 DUP5 PUSH2 0x4695 JUMP JUMPDEST SWAP2 POP DUP2 SWAP1 POP SWAP4 SWAP3 POP POP POP JUMP JUMPDEST PUSH1 0x0 PUSH2 0x470C DUP3 DUP5 PUSH2 0x4695 JUMP JUMPDEST SWAP2 POP DUP2 SWAP1 POP SWAP3 SWAP2 POP POP JUMP JUMPDEST PUSH1 0x0 PUSH8 0xFFFFFFFFFFFFFFFF DUP3 GT ISZERO PUSH2 0x4732 JUMPI PUSH2 0x4731 PUSH2 0x2FAA JUMP JUMPDEST JUMPDEST PUSH2 0x473B DUP3 PUSH2 0x2D69 JUMP JUMPDEST SWAP1 POP PUSH1 0x20 DUP2 ADD SWAP1 POP SWAP2 SWAP1 POP JUMP JUMPDEST PUSH1 0x0 PUSH2 0x475B PUSH2 0x4756 DUP5 PUSH2 0x4717 JUMP JUMPDEST PUSH2 0x300A JUMP JUMPDEST SWAP1 POP DUP3 DUP2 MSTORE PUSH1 0x20 DUP2 ADD DUP5 DUP5 DUP5 ADD GT ISZERO PUSH2 0x4777 JUMPI PUSH2 0x4776 PUSH2 0x2FA5 JUMP JUMPDEST JUMPDEST PUSH2 0x4782 DUP5 DUP3 DUP6 PUSH2 0x2D36 JUMP JUMPDEST POP SWAP4 SWAP3 POP POP POP JUMP JUMPDEST PUSH1 0x0 DUP3 PUSH1 0x1F DUP4 ADD SLT PUSH2 0x479F JUMPI PUSH2 0x479E PUSH2 0x2FA0 JUMP JUMPDEST JUMPDEST DUP2 MLOAD PUSH2 0x47AF DUP5 DUP3 PUSH1 0x20 DUP7 ADD PUSH2 0x4748 JUMP JUMPDEST SWAP2 POP POP SWAP3 SWAP2 POP POP JUMP JUMPDEST PUSH1 0x0 PUSH1 0x20 DUP3 DUP5 SUB SLT ISZERO PUSH2 0x47CE JUMPI PUSH2 0x47CD PUSH2 0x2CAD JUMP JUMPDEST JUMPDEST PUSH1 0x0 DUP3 ADD MLOAD PUSH8 0xFFFFFFFFFFFFFFFF DUP2 GT ISZERO PUSH2 0x47EC JUMPI PUSH2 0x47EB PUSH2 0x2CB2 JUMP JUMPDEST JUMPDEST PUSH2 0x47F8 DUP5 DUP3 DUP6 ADD PUSH2 0x478A JUMP JUMPDEST SWAP2 POP POP SWAP3 SWAP2 POP POP JUMP JUMPDEST PUSH32 0x4E487B7100000000000000000000000000000000000000000000000000000000 PUSH1 0x0 MSTORE PUSH1 0x21 PUSH1 0x4 MSTORE PUSH1 0x24 PUSH1 0x0 REVERT JUMPDEST PUSH1 0x0 PUSH1 0x40 DUP3 ADD SWAP1 POP DUP2 DUP2 SUB PUSH1 0x0 DUP4 ADD MSTORE PUSH2 0x484A DUP2 DUP6 PUSH2 0x2D7A JUMP JUMPDEST SWAP1 POP PUSH2 0x4859 PUSH1 0x20 DUP4 ADD DUP5 PUSH2 0x32E3 JUMP JUMPDEST SWAP4 SWAP3 POP POP POP JUMP JUMPDEST PUSH1 0x0 DUP2 MLOAD SWAP1 POP PUSH2 0x486F DUP2 PUSH2 0x30E5 JUMP JUMPDEST SWAP3 SWAP2 POP POP JUMP JUMPDEST PUSH1 0x0 PUSH1 0x40 DUP3 DUP5 SUB SLT ISZERO PUSH2 0x488B JUMPI PUSH2 0x488A PUSH2 0x35B9 JUMP JUMPDEST JUMPDEST PUSH2 0x4895 PUSH1 0x40 PUSH2 0x300A JUMP JUMPDEST SWAP1 POP PUSH1 0x0 PUSH2 0x48A5 DUP5 DUP3 DUP6 ADD PUSH2 0x4860 JUMP JUMPDEST PUSH1 0x0 DUP4 ADD MSTORE POP PUSH1 0x20 PUSH2 0x48B9 DUP5 DUP3 DUP6 ADD PUSH2 0x433B JUMP JUMPDEST PUSH1 0x20 DUP4 ADD MSTORE POP SWAP3 SWAP2 POP POP JUMP JUMPDEST PUSH1 0x0 PUSH1 0x40 DUP3 DUP5 SUB SLT ISZERO PUSH2 0x48DB JUMPI PUSH2 0x48DA PUSH2 0x2CAD JUMP JUMPDEST JUMPDEST PUSH1 0x0 PUSH2 0x48E9 DUP5 DUP3 DUP6 ADD PUSH2 0x4875 JUMP JUMPDEST SWAP2 POP POP SWAP3 SWAP2 POP POP JUMP JUMPDEST PUSH1 0x0 PUSH2 0x48FD DUP3 PUSH2 0x3249 JUMP JUMPDEST SWAP2 POP PUSH2 0x4908 DUP4 PUSH2 0x3249 JUMP JUMPDEST SWAP3 POP DUP3 PUSH8 0xFFFFFFFFFFFFFFFF SUB DUP3 GT ISZERO PUSH2 0x4925 JUMPI PUSH2 0x4924 PUSH2 0x4030 JUMP JUMPDEST JUMPDEST DUP3 DUP3 ADD SWAP1 POP SWAP3 SWAP2 POP POP JUMP JUMPDEST PUSH1 0x0 PUSH2 0x493B DUP3 PUSH2 0x2DD5 JUMP JUMPDEST SWAP2 POP PUSH2 0x4946 DUP4 PUSH2 0x2DD5 JUMP JUMPDEST SWAP3 POP DUP2 PUSH32 0xFFFFFFFFFFFFFFFFFFFFFFFFFFFFFFFFFFFFFFFFFFFFFFFFFFFFFFFFFFFFFFFF DIV DUP4 GT DUP3 ISZERO ISZERO AND ISZERO PUSH2 0x497F JUMPI PUSH2 0x497E PUSH2 0x4030 JUMP JUMPDEST JUMPDEST DUP3 DUP3 MUL SWAP1 POP SWAP3 SWAP2 POP POP JUMP JUMPDEST PUSH1 0x0 PUSH2 0x4995 DUP3 PUSH2 0x2DD5 JUMP JUMPDEST SWAP2 POP PUSH2 0x49A0 DUP4 PUSH2 0x2DD5 JUMP JUMPDEST SWAP3 POP DUP3 PUSH32 0xFFFFFFFFFFFFFFFFFFFFFFFFFFFFFFFFFFFFFFFFFFFFFFFFFFFFFFFFFFFFFFFF SUB DUP3 GT ISZERO PUSH2 0x49D5 JUMPI PUSH2 0x49D4 PUSH2 0x4030 JUMP JUMPDEST JUMPDEST DUP3 DUP3 ADD SWAP1 POP SWAP3 SWAP2 POP POP JUMP JUMPDEST PUSH1 0x0 PUSH2 0x49EB DUP3 PUSH2 0x2DD5 JUMP JUMPDEST SWAP2 POP PUSH1 0x0 DUP3 EQ ISZERO PUSH2 0x49FF JUMPI PUSH2 0x49FE PUSH2 0x4030 JUMP JUMPDEST JUMPDEST PUSH1 0x1 DUP3 SUB SWAP1 POP SWAP2 SWAP1 POP JUMP JUMPDEST PUSH32 0x537472696E67733A20686578206C656E67746820696E73756666696369656E74 PUSH1 0x0 DUP3 ADD MSTORE POP JUMP JUMPDEST PUSH1 0x0 PUSH2 0x4A40 PUSH1 0x20 DUP4 PUSH2 0x34CD JUMP JUMPDEST SWAP2 POP PUSH2 0x4A4B DUP3 PUSH2 0x4A0A JUMP JUMPDEST PUSH1 0x20 DUP3 ADD SWAP1 POP SWAP2 SWAP1 POP JUMP JUMPDEST PUSH1 0x0 PUSH1 0x20 DUP3 ADD SWAP1 POP DUP2 DUP2 SUB PUSH1 0x0 DUP4 ADD MSTORE PUSH2 0x4A6F DUP2 PUSH2 0x4A33 JUMP JUMPDEST SWAP1 POP SWAP2 SWAP1 POP JUMP JUMPDEST PUSH32 0x736C6963655F6F766572666C6F77000000000000000000000000000000000000 PUSH1 0x0 DUP3 ADD MSTORE POP JUMP JUMPDEST PUSH1 0x0 PUSH2 0x4AAC PUSH1 0xE DUP4 PUSH2 0x34CD JUMP JUMPDEST SWAP2 POP PUSH2 0x4AB7 DUP3 PUSH2 0x4A76 JUMP JUMPDEST PUSH1 0x20 DUP3 ADD SWAP1 POP SWAP2 SWAP1 POP JUMP JUMPDEST PUSH1 0x0 PUSH1 0x20 DUP3 ADD SWAP1 POP DUP2 DUP2 SUB PUSH1 0x0 DUP4 ADD MSTORE PUSH2 0x4ADB DUP2 PUSH2 0x4A9F JUMP JUMPDEST SWAP1 POP SWAP2 SWAP1 POP JUMP JUMPDEST PUSH32 0x736C6963655F6F75744F66426F756E6473000000000000000000000000000000 PUSH1 0x0 DUP3 ADD MSTORE POP JUMP JUMPDEST PUSH1 0x0 PUSH2 0x4B18 PUSH1 0x11 DUP4 PUSH2 0x34CD JUMP JUMPDEST SWAP2 POP PUSH2 0x4B23 DUP3 PUSH2 0x4AE2 JUMP JUMPDEST PUSH1 0x20 DUP3 ADD SWAP1 POP SWAP2 SWAP1 POP JUMP JUMPDEST PUSH1 0x0 PUSH1 0x20 DUP3 ADD SWAP1 POP DUP2 DUP2 SUB PUSH1 0x0 DUP4 ADD MSTORE PUSH2 0x4B47 DUP2 PUSH2 0x4B0B JUMP JUMPDEST SWAP1 POP SWAP2 SWAP1 POP JUMP INVALID LOG2 PUSH5 0x6970667358 0x22 SLT KECCAK256 0x2A 0x1E 0x4D PUSH3 0xB1D879 0xDA PUSH8 0xE20D0F8834AD65C 0xB7 STATICCALL CALLDATACOPY PUSH11 0x2B41A144B7E432222B6BFB PUSH5 0x736F6C6343 STOP ADDMOD MULMOD STOP CALLER "
		},
		"gasEstimates": {
			"creation": {
				"codeDepositCost": "3866400",
				"executionCost": "infinite",
				"totalCost": "infinite"
			},
			"external": {
				"_readyExports(uint256)": "infinite",
				"bestForks(uint256)": "infinite",
				"bridgeConverterActive()": "2610",
				"cceLastEndHeight()": "2589",
				"cceLastStartHeight()": "2538",
				"checkBranch(bytes32,(uint8,uint32,uint32,uint8,bytes32[]))": "infinite",
				"checkCCEValues(bytes,uint32,bytes32,uint32)": "infinite",
				"checkExportAndTransfers(((uint8,uint8,(uint8,(uint8,uint32,uint32,uint8,bytes32[]))[],(uint8,uint8,bytes,(uint8,(uint8,uint32,uint32,uint8,bytes32[]))[])[]),bytes),bytes32)": "infinite",
				"checkProof(bytes32,(uint8,(uint8,uint32,uint32,uint8,bytes32[]))[])": "infinite",
				"claimableFees(bytes32)": "2834",
				"contracts(uint256)": "5002",
				"exportHeights(uint256)": "infinite",
				"getLastConfirmedVRSCStateRoot()": "9348",
				"getTokenList(uint256,uint256)": "infinite",
				"lastImportInfo(bytes32)": "infinite",
				"lastTxIdImport()": "2497",
				"notaries(uint256)": "5023",
				"notaryAddressMapping(address)": "infinite",
				"owner()": "2560",
				"processedTxids(bytes32)": "2909",
				"proveComponents(((uint8,uint8,(uint8,(uint8,uint32,uint32,uint8,bytes32[]))[],(uint8,uint8,bytes,(uint8,(uint8,uint32,uint32,uint8,bytes32[]))[])[]),bytes))": "infinite",
				"proveImports(bytes)": "infinite",
				"readAuxDest(bytes,uint32,uint176)": "infinite",
				"readVarint(bytes,uint256)": "infinite",
				"refunds(bytes32,address)": "3162",
				"rollingUpgradeVotes(uint256)": "2916",
				"rollingVoteIndex()": "2561",
				"saltsUsed(bytes32)": "2841",
				"serializeUint32(uint32)": "infinite",
				"storageGlobal(bytes32)": "infinite",
				"tokenList(uint256)": "5046",
				"verusToERC20mapping(address)": "infinite"
			},
			"internal": {
				"slice(bytes memory,uint256,uint256)": "infinite",
				"toHexString(uint160,uint256)": "infinite"
			}
		},
		"methodIdentifiers": {
			"_readyExports(uint256)": "8c7982f8",
			"bestForks(uint256)": "c36b4d1e",
			"bridgeConverterActive()": "8491fbaa",
			"cceLastEndHeight()": "538c3c5c",
			"cceLastStartHeight()": "c03d4268",
			"checkBranch(bytes32,(uint8,uint32,uint32,uint8,bytes32[]))": "d2784ad8",
			"checkCCEValues(bytes,uint32,bytes32,uint32)": "4a262b28",
			"checkExportAndTransfers(((uint8,uint8,(uint8,(uint8,uint32,uint32,uint8,bytes32[]))[],(uint8,uint8,bytes,(uint8,(uint8,uint32,uint32,uint8,bytes32[]))[])[]),bytes),bytes32)": "d7983422",
			"checkProof(bytes32,(uint8,(uint8,uint32,uint32,uint8,bytes32[]))[])": "d625f56d",
			"claimableFees(bytes32)": "23c8504d",
			"contracts(uint256)": "474da79a",
			"exportHeights(uint256)": "530f278f",
			"getLastConfirmedVRSCStateRoot()": "e4c63f47",
			"getTokenList(uint256,uint256)": "d4ed19ac",
			"lastImportInfo(bytes32)": "683d8cbb",
			"lastTxIdImport()": "9a70b466",
			"notaries(uint256)": "6d4b76d5",
			"notaryAddressMapping(address)": "250dea53",
			"owner()": "8da5cb5b",
			"processedTxids(bytes32)": "327d4263",
			"proveComponents(((uint8,uint8,(uint8,(uint8,uint32,uint32,uint8,bytes32[]))[],(uint8,uint8,bytes,(uint8,(uint8,uint32,uint32,uint8,bytes32[]))[])[]),bytes))": "fc8027d8",
			"proveImports(bytes)": "a34ccc20",
			"readAuxDest(bytes,uint32,uint176)": "dce1f74d",
			"readVarint(bytes,uint256)": "5dfbd918",
			"refunds(bytes32,address)": "5112ba98",
			"rollingUpgradeVotes(uint256)": "c7946e6d",
			"rollingVoteIndex()": "4b7ea401",
			"saltsUsed(bytes32)": "6bb67073",
			"serializeUint32(uint32)": "cecb3043",
			"storageGlobal(bytes32)": "0f031f65",
			"tokenList(uint256)": "9ead7222",
			"verusToERC20mapping(address)": "b17f15a2"
		}
	},
	"abi": [
		{
			"inputs": [
				{
					"internalType": "address",
					"name": "vETH",
					"type": "address"
				},
				{
					"internalType": "address",
					"name": "Bridge",
					"type": "address"
				},
				{
					"internalType": "address",
					"name": "Verus",
					"type": "address"
				}
			],
			"stateMutability": "nonpayable",
			"type": "constructor"
		},
		{
			"inputs": [
				{
					"internalType": "uint256",
					"name": "",
					"type": "uint256"
				}
			],
			"name": "_readyExports",
			"outputs": [
				{
					"internalType": "bytes32",
					"name": "exportHash",
					"type": "bytes32"
				},
				{
					"internalType": "bytes32",
					"name": "prevExportHash",
					"type": "bytes32"
				},
				{
					"internalType": "uint64",
					"name": "endHeight",
					"type": "uint64"
				}
			],
			"stateMutability": "view",
			"type": "function"
		},
		{
			"inputs": [
				{
					"internalType": "uint256",
					"name": "",
					"type": "uint256"
				}
			],
			"name": "bestForks",
			"outputs": [
				{
					"internalType": "bytes",
					"name": "",
					"type": "bytes"
				}
			],
			"stateMutability": "view",
			"type": "function"
		},
		{
			"inputs": [],
			"name": "bridgeConverterActive",
			"outputs": [
				{
					"internalType": "bool",
					"name": "",
					"type": "bool"
				}
			],
			"stateMutability": "view",
			"type": "function"
		},
		{
			"inputs": [],
			"name": "cceLastEndHeight",
			"outputs": [
				{
					"internalType": "uint64",
					"name": "",
					"type": "uint64"
				}
			],
			"stateMutability": "view",
			"type": "function"
		},
		{
			"inputs": [],
			"name": "cceLastStartHeight",
			"outputs": [
				{
					"internalType": "uint64",
					"name": "",
					"type": "uint64"
				}
			],
			"stateMutability": "view",
			"type": "function"
		},
		{
			"inputs": [
				{
					"internalType": "bytes32",
					"name": "_hashToCheck",
					"type": "bytes32"
				},
				{
					"components": [
						{
							"internalType": "uint8",
							"name": "CMerkleBranchBase",
							"type": "uint8"
						},
						{
							"internalType": "uint32",
							"name": "nIndex",
							"type": "uint32"
						},
						{
							"internalType": "uint32",
							"name": "nSize",
							"type": "uint32"
						},
						{
							"internalType": "uint8",
							"name": "extraHashes",
							"type": "uint8"
						},
						{
							"internalType": "bytes32[]",
							"name": "branch",
							"type": "bytes32[]"
						}
					],
					"internalType": "struct VerusObjects.CMerkleBranch",
					"name": "_branch",
					"type": "tuple"
				}
			],
			"name": "checkBranch",
			"outputs": [
				{
					"internalType": "bytes32",
					"name": "",
					"type": "bytes32"
				}
			],
			"stateMutability": "view",
			"type": "function"
		},
		{
			"inputs": [
				{
					"internalType": "bytes",
					"name": "firstObj",
					"type": "bytes"
				},
				{
					"internalType": "uint32",
					"name": "nextOffset",
					"type": "uint32"
				},
				{
					"internalType": "bytes32",
					"name": "hashedTransfers",
					"type": "bytes32"
				},
				{
					"internalType": "uint32",
					"name": "nIndex",
					"type": "uint32"
				}
			],
			"name": "checkCCEValues",
			"outputs": [
				{
					"internalType": "uint256",
					"name": "tmpPacked",
					"type": "uint256"
				},
				{
					"internalType": "uint176",
					"name": "exporter",
					"type": "uint176"
				}
			],
			"stateMutability": "view",
			"type": "function"
		},
		{
			"inputs": [
				{
					"components": [
						{
							"components": [
								{
									"internalType": "uint8",
									"name": "version",
									"type": "uint8"
								},
								{
									"internalType": "uint8",
									"name": "typeC",
									"type": "uint8"
								},
								{
									"components": [
										{
											"internalType": "uint8",
											"name": "branchType",
											"type": "uint8"
										},
										{
											"components": [
												{
													"internalType": "uint8",
													"name": "CMerkleBranchBase",
													"type": "uint8"
												},
												{
													"internalType": "uint32",
													"name": "nIndex",
													"type": "uint32"
												},
												{
													"internalType": "uint32",
													"name": "nSize",
													"type": "uint32"
												},
												{
													"internalType": "uint8",
													"name": "extraHashes",
													"type": "uint8"
												},
												{
													"internalType": "bytes32[]",
													"name": "branch",
													"type": "bytes32[]"
												}
											],
											"internalType": "struct VerusObjects.CMerkleBranch",
											"name": "proofSequence",
											"type": "tuple"
										}
									],
									"internalType": "struct VerusObjects.CTXProof[]",
									"name": "txproof",
									"type": "tuple[]"
								},
								{
									"components": [
										{
											"internalType": "uint8",
											"name": "elType",
											"type": "uint8"
										},
										{
											"internalType": "uint8",
											"name": "elIdx",
											"type": "uint8"
										},
										{
											"internalType": "bytes",
											"name": "elVchObj",
											"type": "bytes"
										},
										{
											"components": [
												{
													"internalType": "uint8",
													"name": "branchType",
													"type": "uint8"
												},
												{
													"components": [
														{
															"internalType": "uint8",
															"name": "CMerkleBranchBase",
															"type": "uint8"
														},
														{
															"internalType": "uint32",
															"name": "nIndex",
															"type": "uint32"
														},
														{
															"internalType": "uint32",
															"name": "nSize",
															"type": "uint32"
														},
														{
															"internalType": "uint8",
															"name": "extraHashes",
															"type": "uint8"
														},
														{
															"internalType": "bytes32[]",
															"name": "branch",
															"type": "bytes32[]"
														}
													],
													"internalType": "struct VerusObjects.CMerkleBranch",
													"name": "proofSequence",
													"type": "tuple"
												}
											],
											"internalType": "struct VerusObjects.CTXProof[]",
											"name": "elProof",
											"type": "tuple[]"
										}
									],
									"internalType": "struct VerusObjects.CComponents[]",
									"name": "components",
									"type": "tuple[]"
								}
							],
							"internalType": "struct VerusObjects.CPtransactionproof",
							"name": "partialtransactionproof",
							"type": "tuple"
						},
						{
							"internalType": "bytes",
							"name": "serializedTransfers",
							"type": "bytes"
						}
					],
					"internalType": "struct VerusObjects.CReserveTransferImport",
					"name": "_import",
					"type": "tuple"
				},
				{
					"internalType": "bytes32",
					"name": "hashedTransfers",
					"type": "bytes32"
				}
			],
			"name": "checkExportAndTransfers",
			"outputs": [
				{
					"internalType": "uint256",
					"name": "",
					"type": "uint256"
				},
				{
					"internalType": "uint176",
					"name": "",
					"type": "uint176"
				}
			],
			"stateMutability": "view",
			"type": "function"
		},
		{
			"inputs": [
				{
					"internalType": "bytes32",
					"name": "hashToProve",
					"type": "bytes32"
				},
				{
					"components": [
						{
							"internalType": "uint8",
							"name": "branchType",
							"type": "uint8"
						},
						{
							"components": [
								{
									"internalType": "uint8",
									"name": "CMerkleBranchBase",
									"type": "uint8"
								},
								{
									"internalType": "uint32",
									"name": "nIndex",
									"type": "uint32"
								},
								{
									"internalType": "uint32",
									"name": "nSize",
									"type": "uint32"
								},
								{
									"internalType": "uint8",
									"name": "extraHashes",
									"type": "uint8"
								},
								{
									"internalType": "bytes32[]",
									"name": "branch",
									"type": "bytes32[]"
								}
							],
							"internalType": "struct VerusObjects.CMerkleBranch",
							"name": "proofSequence",
							"type": "tuple"
						}
					],
					"internalType": "struct VerusObjects.CTXProof[]",
					"name": "_branches",
					"type": "tuple[]"
				}
			],
			"name": "checkProof",
			"outputs": [
				{
					"internalType": "bytes32",
					"name": "",
					"type": "bytes32"
				}
			],
			"stateMutability": "view",
			"type": "function"
		},
		{
			"inputs": [
				{
					"internalType": "bytes32",
					"name": "",
					"type": "bytes32"
				}
			],
			"name": "claimableFees",
			"outputs": [
				{
					"internalType": "uint256",
					"name": "",
					"type": "uint256"
				}
			],
			"stateMutability": "view",
			"type": "function"
		},
		{
			"inputs": [
				{
					"internalType": "uint256",
					"name": "",
					"type": "uint256"
				}
			],
			"name": "contracts",
			"outputs": [
				{
					"internalType": "address",
					"name": "",
					"type": "address"
				}
			],
			"stateMutability": "view",
			"type": "function"
		},
		{
			"inputs": [
				{
					"internalType": "uint256",
					"name": "",
					"type": "uint256"
				}
			],
			"name": "exportHeights",
			"outputs": [
				{
					"internalType": "uint256",
					"name": "",
					"type": "uint256"
				}
			],
			"stateMutability": "view",
			"type": "function"
		},
		{
			"inputs": [],
			"name": "getLastConfirmedVRSCStateRoot",
			"outputs": [
				{
					"internalType": "bytes32",
					"name": "",
					"type": "bytes32"
				}
			],
			"stateMutability": "view",
			"type": "function"
		},
		{
			"inputs": [
				{
					"internalType": "uint256",
					"name": "start",
					"type": "uint256"
				},
				{
					"internalType": "uint256",
					"name": "end",
					"type": "uint256"
				}
			],
			"name": "getTokenList",
			"outputs": [
				{
					"components": [
						{
							"internalType": "address",
							"name": "iaddress",
							"type": "address"
						},
						{
							"internalType": "address",
							"name": "erc20ContractAddress",
							"type": "address"
						},
						{
							"internalType": "address",
							"name": "launchSystemID",
							"type": "address"
						},
						{
							"internalType": "uint8",
							"name": "flags",
							"type": "uint8"
						},
						{
							"internalType": "string",
							"name": "name",
							"type": "string"
						},
						{
							"internalType": "string",
							"name": "ticker",
							"type": "string"
						},
						{
							"internalType": "uint256",
							"name": "tokenID",
							"type": "uint256"
						}
					],
					"internalType": "struct VerusObjects.setupToken[]",
					"name": "",
					"type": "tuple[]"
				}
			],
			"stateMutability": "nonpayable",
			"type": "function"
		},
		{
			"inputs": [
				{
					"internalType": "bytes32",
					"name": "",
					"type": "bytes32"
				}
			],
			"name": "lastImportInfo",
			"outputs": [
				{
					"internalType": "bytes32",
					"name": "hashOfTransfers",
					"type": "bytes32"
				},
				{
					"internalType": "bytes32",
					"name": "exporttxid",
					"type": "bytes32"
				},
				{
					"internalType": "uint32",
					"name": "exporttxoutnum",
					"type": "uint32"
				},
				{
					"internalType": "uint32",
					"name": "height",
					"type": "uint32"
				}
			],
			"stateMutability": "view",
			"type": "function"
		},
		{
			"inputs": [],
			"name": "lastTxIdImport",
			"outputs": [
				{
					"internalType": "bytes32",
					"name": "",
					"type": "bytes32"
				}
			],
			"stateMutability": "view",
			"type": "function"
		},
		{
			"inputs": [
				{
					"internalType": "uint256",
					"name": "",
					"type": "uint256"
				}
			],
			"name": "notaries",
			"outputs": [
				{
					"internalType": "address",
					"name": "",
					"type": "address"
				}
			],
			"stateMutability": "view",
			"type": "function"
		},
		{
			"inputs": [
				{
					"internalType": "address",
					"name": "",
					"type": "address"
				}
			],
			"name": "notaryAddressMapping",
			"outputs": [
				{
					"internalType": "address",
					"name": "main",
					"type": "address"
				},
				{
					"internalType": "address",
					"name": "recovery",
					"type": "address"
				},
				{
					"internalType": "uint8",
					"name": "state",
					"type": "uint8"
				}
			],
			"stateMutability": "view",
			"type": "function"
		},
		{
			"inputs": [],
			"name": "owner",
			"outputs": [
				{
					"internalType": "address",
					"name": "",
					"type": "address"
				}
			],
			"stateMutability": "view",
			"type": "function"
		},
		{
			"inputs": [
				{
					"internalType": "bytes32",
					"name": "",
					"type": "bytes32"
				}
			],
			"name": "processedTxids",
			"outputs": [
				{
					"internalType": "bool",
					"name": "",
					"type": "bool"
				}
			],
			"stateMutability": "view",
			"type": "function"
		},
		{
			"inputs": [
				{
					"components": [
						{
							"components": [
								{
									"internalType": "uint8",
									"name": "version",
									"type": "uint8"
								},
								{
									"internalType": "uint8",
									"name": "typeC",
									"type": "uint8"
								},
								{
									"components": [
										{
											"internalType": "uint8",
											"name": "branchType",
											"type": "uint8"
										},
										{
											"components": [
												{
													"internalType": "uint8",
													"name": "CMerkleBranchBase",
													"type": "uint8"
												},
												{
													"internalType": "uint32",
													"name": "nIndex",
													"type": "uint32"
												},
												{
													"internalType": "uint32",
													"name": "nSize",
													"type": "uint32"
												},
												{
													"internalType": "uint8",
													"name": "extraHashes",
													"type": "uint8"
												},
												{
													"internalType": "bytes32[]",
													"name": "branch",
													"type": "bytes32[]"
												}
											],
											"internalType": "struct VerusObjects.CMerkleBranch",
											"name": "proofSequence",
											"type": "tuple"
										}
									],
									"internalType": "struct VerusObjects.CTXProof[]",
									"name": "txproof",
									"type": "tuple[]"
								},
								{
									"components": [
										{
											"internalType": "uint8",
											"name": "elType",
											"type": "uint8"
										},
										{
											"internalType": "uint8",
											"name": "elIdx",
											"type": "uint8"
										},
										{
											"internalType": "bytes",
											"name": "elVchObj",
											"type": "bytes"
										},
										{
											"components": [
												{
													"internalType": "uint8",
													"name": "branchType",
													"type": "uint8"
												},
												{
													"components": [
														{
															"internalType": "uint8",
															"name": "CMerkleBranchBase",
															"type": "uint8"
														},
														{
															"internalType": "uint32",
															"name": "nIndex",
															"type": "uint32"
														},
														{
															"internalType": "uint32",
															"name": "nSize",
															"type": "uint32"
														},
														{
															"internalType": "uint8",
															"name": "extraHashes",
															"type": "uint8"
														},
														{
															"internalType": "bytes32[]",
															"name": "branch",
															"type": "bytes32[]"
														}
													],
													"internalType": "struct VerusObjects.CMerkleBranch",
													"name": "proofSequence",
													"type": "tuple"
												}
											],
											"internalType": "struct VerusObjects.CTXProof[]",
											"name": "elProof",
											"type": "tuple[]"
										}
									],
									"internalType": "struct VerusObjects.CComponents[]",
									"name": "components",
									"type": "tuple[]"
								}
							],
							"internalType": "struct VerusObjects.CPtransactionproof",
							"name": "partialtransactionproof",
							"type": "tuple"
						},
						{
							"internalType": "bytes",
							"name": "serializedTransfers",
							"type": "bytes"
						}
					],
					"internalType": "struct VerusObjects.CReserveTransferImport",
					"name": "_import",
					"type": "tuple"
				}
			],
			"name": "proveComponents",
			"outputs": [
				{
					"internalType": "bytes32",
					"name": "txRoot",
					"type": "bytes32"
				}
			],
			"stateMutability": "view",
			"type": "function"
		},
		{
			"inputs": [
				{
					"internalType": "bytes",
					"name": "dataIn",
					"type": "bytes"
				}
			],
			"name": "proveImports",
			"outputs": [
				{
					"internalType": "uint128",
					"name": "",
					"type": "uint128"
				},
				{
					"internalType": "uint176",
					"name": "",
					"type": "uint176"
				}
			],
			"stateMutability": "view",
			"type": "function"
		},
		{
			"inputs": [
				{
					"internalType": "bytes",
					"name": "firstObj",
					"type": "bytes"
				},
				{
					"internalType": "uint32",
					"name": "nextOffset",
					"type": "uint32"
				},
				{
					"internalType": "uint176",
					"name": "exporter",
					"type": "uint176"
				}
			],
			"name": "readAuxDest",
			"outputs": [
				{
					"internalType": "uint32",
					"name": "",
					"type": "uint32"
				},
				{
					"internalType": "uint176",
					"name": "",
					"type": "uint176"
				}
			],
			"stateMutability": "view",
			"type": "function"
		},
		{
			"inputs": [
				{
					"internalType": "bytes",
					"name": "buf",
					"type": "bytes"
				},
				{
					"internalType": "uint256",
					"name": "idx",
					"type": "uint256"
				}
			],
			"name": "readVarint",
			"outputs": [
				{
					"internalType": "uint32",
					"name": "v",
					"type": "uint32"
				},
				{
					"internalType": "uint32",
					"name": "retidx",
					"type": "uint32"
				}
			],
			"stateMutability": "pure",
			"type": "function"
		},
		{
			"inputs": [
				{
					"internalType": "bytes32",
					"name": "",
					"type": "bytes32"
				},
				{
					"internalType": "address",
					"name": "",
					"type": "address"
				}
			],
			"name": "refunds",
			"outputs": [
				{
					"internalType": "uint256",
					"name": "",
					"type": "uint256"
				}
			],
			"stateMutability": "view",
			"type": "function"
		},
		{
			"inputs": [
				{
					"internalType": "uint256",
					"name": "",
					"type": "uint256"
				}
			],
			"name": "rollingUpgradeVotes",
			"outputs": [
				{
					"internalType": "address",
					"name": "",
					"type": "address"
				}
			],
			"stateMutability": "view",
			"type": "function"
		},
		{
			"inputs": [],
			"name": "rollingVoteIndex",
			"outputs": [
				{
					"internalType": "uint8",
					"name": "",
					"type": "uint8"
				}
			],
			"stateMutability": "view",
			"type": "function"
		},
		{
			"inputs": [
				{
					"internalType": "bytes32",
					"name": "",
					"type": "bytes32"
				}
			],
			"name": "saltsUsed",
			"outputs": [
				{
					"internalType": "bool",
					"name": "",
					"type": "bool"
				}
			],
			"stateMutability": "view",
			"type": "function"
		},
		{
			"inputs": [
				{
					"internalType": "uint32",
					"name": "number",
					"type": "uint32"
				}
			],
			"name": "serializeUint32",
			"outputs": [
				{
					"internalType": "uint32",
					"name": "",
					"type": "uint32"
				}
			],
			"stateMutability": "pure",
			"type": "function"
		},
		{
			"inputs": [
				{
					"internalType": "bytes32",
					"name": "",
					"type": "bytes32"
				}
			],
			"name": "storageGlobal",
			"outputs": [
				{
					"internalType": "bytes",
					"name": "",
					"type": "bytes"
				}
			],
			"stateMutability": "view",
			"type": "function"
		},
		{
			"inputs": [
				{
					"internalType": "uint256",
					"name": "",
					"type": "uint256"
				}
			],
			"name": "tokenList",
			"outputs": [
				{
					"internalType": "address",
					"name": "",
					"type": "address"
				}
			],
			"stateMutability": "view",
			"type": "function"
		},
		{
			"inputs": [
				{
					"internalType": "address",
					"name": "",
					"type": "address"
				}
			],
			"name": "verusToERC20mapping",
			"outputs": [
				{
					"internalType": "address",
					"name": "erc20ContractAddress",
					"type": "address"
				},
				{
					"internalType": "uint8",
					"name": "flags",
					"type": "uint8"
				},
				{
					"internalType": "uint256",
					"name": "tokenIndex",
					"type": "uint256"
				},
				{
					"internalType": "string",
					"name": "name",
					"type": "string"
				},
				{
					"internalType": "uint256",
					"name": "tokenID",
					"type": "uint256"
				}
			],
			"stateMutability": "view",
			"type": "function"
		}
	]
}