{
	"data": {
		"bytecode": {
			"linkReferences": {},
			"object": "60806040523480156200001157600080fd5b50604051620026c2380380620026c283398181016040528101906200003791906200011a565b81600160006101000a81548173ffffffffffffffffffffffffffffffffffffffff021916908373ffffffffffffffffffffffffffffffffffffffff16021790555080600360006101000a81548173ffffffffffffffffffffffffffffffffffffffff021916908373ffffffffffffffffffffffffffffffffffffffff16021790555082600260006101000a81548173ffffffffffffffffffffffffffffffffffffffff021916908373ffffffffffffffffffffffffffffffffffffffff160217905550505050620001be565b6000815190506200011481620001a4565b92915050565b6000806000606084860312156200013057600080fd5b6000620001408682870162000103565b9350506020620001538682870162000103565b9250506040620001668682870162000103565b9150509250925092565b60006200017d8262000184565b9050919050565b600073ffffffffffffffffffffffffffffffffffffffff82169050919050565b620001af8162000170565b8114620001bb57600080fd5b50565b6124f480620001ce6000396000f3fe608060405234801561001057600080fd5b50600436106100cf5760003560e01c80638f1db79b1161008c578063b740965f11610066578063b740965f14610260578063bc736c141461027e578063c1d71858146102ae578063f8ba7192146102cc576100cf565b80638f1db79b146101e25780638f59b004146102005780639940b14014610230576100cf565b80631b51ae44146100d45780632a44f15314610104578063317e325b146101345780633192148c146101525780635981d41b146101825780637f7ee3ef146101b2575b600080fd5b6100ee60048036038101906100e99190611ba8565b6102fc565b6040516100fb919061206e565b60405180910390f35b61011e60048036038101906101199190611ba8565b61034f565b60405161012b9190612053565b60405180910390f35b61013c6104a4565b6040516101499190612089565b60405180910390f35b61016c60048036038101906101679190611be9565b610542565b604051610179919061206e565b60405180910390f35b61019c60048036038101906101979190611b13565b610566565b6040516101a9919061206e565b60405180910390f35b6101cc60048036038101906101c79190611a2c565b6107d9565b6040516101d9919061206e565b60405180910390f35b6101ea6108a1565b6040516101f79190612053565b60405180910390f35b61021a60048036038101906102159190611ba8565b6108b4565b6040516102279190612053565b60405180910390f35b61024a60048036038101906102459190611ba8565b610a44565b604051610257919061206e565b60405180910390f35b610268610cb7565b604051610275919061206e565b60405180910390f35b61029860048036038101906102939190611a6d565b610cbd565b6040516102a5919061206e565b60405180910390f35b6102b6610cd5565b6040516102c3919061206e565b60405180910390f35b6102e660048036038101906102e19190611abf565b610cdb565b6040516102f3919061206e565b60405180910390f35b60008060001b905061030d8261034f565b6103165761034a565b600061032183610a44565b90506000801b811415610334575061034a565b61034681846080015160400151610cdb565b9150505b919050565b60008061035f8360a001516107d9565b90506000836080015160600151600185608001516060015151038151811061038357fe5b60200260200101516080015163ffffffff169050600084608001516060015160018660800151606001515103815181106103b957fe5b60200260200101516040015190506000600160009054906101000a900473ffffffffffffffffffffffffffffffffffffffff1673ffffffffffffffffffffffffffffffffffffffff1663bfe370d961041384866020610d28565b6040518263ffffffff1660e01b815260040161042f9190612089565b60206040518083038186803b15801561044757600080fd5b505afa15801561045b573d6000803e3d6000fd5b505050506040513d601f19601f8201168201806040525081019061047f9190611a96565b90508084141561049657600194505050505061049f565b60009450505050505b919050565b60078054600181600116156101000203166002900480601f01602080910402602001604051908101604052809291908181526020018280546001816001161561010002031660029004801561053a5780601f1061050f5761010080835404028352916020019161053a565b820191906000526020600020905b81548152906001019060200180831161051d57829003601f168201915b505050505081565b6004818154811061055257600080fd5b906000526020600020016000915090505481565b600080826020015163ffffffff1610156105b5576040517f08c379a00000000000000000000000000000000000000000000000000000000081526004016105ac9061212b565b60405180910390fd5b6000826060015151116105fd576040517f08c379a00000000000000000000000000000000000000000000000000000000081526004016105f4906120ab565b60405180910390fd5b60008260600151519050600084905060606000856020015163ffffffff16905060005b848110156107cb5760006001831611156106ce57878760600151828151811061064557fe5b6020026020010151141561068e576040517f08c379a0000000000000000000000000000000000000000000000000000000008152600401610685906120eb565b60405180910390fd5b8660600151818151811061069e57fe5b6020026020010151846040516020016106b8929190611ff7565b604051602081830303815290604052925061070a565b83876060015182815181106106df57fe5b60200260200101516040516020016106f8929190611ff7565b60405160208183030381529060405292505b600160009054906101000a900473ffffffffffffffffffffffffffffffffffffffff1673ffffffffffffffffffffffffffffffffffffffff16632cd0cff2846040518263ffffffff1660e01b81526004016107659190612089565b60206040518083038186803b15801561077d57600080fd5b505afa158015610791573d6000803e3d6000fd5b505050506040513d601f19601f820116820180604052508101906107b59190611a96565b9350600182901c91508080600101915050610620565b508294505050505092915050565b600080600360009054906101000a900473ffffffffffffffffffffffffffffffffffffffff1673ffffffffffffffffffffffffffffffffffffffff16632a4edd708460006040518363ffffffff1660e01b815260040161083a929190612023565b60006040518083038186803b15801561085257600080fd5b505afa158015610866573d6000803e3d6000fd5b505050506040513d6000823e3d601f19601f8201168201806040525081019061088f9190611b67565b90508080519060200120915050919050565b600860009054906101000a900460ff1681565b6000806108c0836102fc565b90506000600260009054906101000a900473ffffffffffffffffffffffffffffffffffffffff1673ffffffffffffffffffffffffffffffffffffffff16634b60ae636040518163ffffffff1660e01b815260040160206040518083038186803b15801561092c57600080fd5b505afa158015610940573d6000803e3d6000fd5b505050506040513d601f19601f820116820180604052508101906109649190611c12565b9050628db51590506000610a21600260009054906101000a900473ffffffffffffffffffffffffffffffffffffffff1673ffffffffffffffffffffffffffffffffffffffff1663e7b3c875846040518263ffffffff1660e01b81526004016109cc919061214b565b60206040518083038186803b1580156109e457600080fd5b505afa1580156109f8573d6000803e3d6000fd5b505050506040513d601f19601f82011682018060405250810190610a1c9190611a96565b610cbd565b905080831415610a375760019350505050610a3f565b600093505050505b919050565b600080600080846080015160600151511115610b8157600160009054906101000a900473ffffffffffffffffffffffffffffffffffffffff1673ffffffffffffffffffffffffffffffffffffffff16632cd0cff2856080015160600151600081518110610aad57fe5b6020026020010151604001516040518263ffffffff1660e01b8152600401610ad59190612089565b60206040518083038186803b158015610aed57600080fd5b505afa158015610b01573d6000803e3d6000fd5b505050506040513d601f19601f82011682018060405250810190610b259190611a96565b91506001846080015160600151600081518110610b3e57fe5b60200260200101516000015160ff161415610b8057610b7d82856080015160600151600081518110610b6c57fe5b602002602001015160600151610cdb565b92505b5b6000600190505b84608001516060015151811015610caf57600160009054906101000a900473ffffffffffffffffffffffffffffffffffffffff1673ffffffffffffffffffffffffffffffffffffffff16632cd0cff28660800151606001518381518110610beb57fe5b6020026020010151604001516040518263ffffffff1660e01b8152600401610c139190612089565b60206040518083038186803b158015610c2b57600080fd5b505afa158015610c3f573d6000803e3d6000fd5b505050506040513d601f19601f82011682018060405250810190610c639190611a96565b9250610c8e838660800151606001518381518110610c7d57fe5b602002602001015160600151610cdb565b9150818414610ca2576000801b9350610caf565b8080600101915050610b88565b505050919050565b60055481565b6000610ccb8260001c610e34565b60001b9050919050565b60065481565b60008083905060005b8351811015610d1d57610d0e82858381518110610cfd57fe5b602002602001015160200151610566565b91508080600101915050610ce4565b508091505092915050565b606081601f83011015610d70576040517f08c379a0000000000000000000000000000000000000000000000000000000008152600401610d67906120cb565b60405180910390fd5b81830184511015610db6576040517f08c379a0000000000000000000000000000000000000000000000000000000008152600401610dad9061210b565b60405180910390fd5b6060821560008114610dd75760405191506000825260208201604052610e28565b6040519150601f8416801560200281840101858101878315602002848b0101015b81831015610e155780518352602083019250602081019050610df8565b50868552601f19601f8301166040525050505b50809150509392505050565b600081905060087eff00ff00ff00ff00ff00ff00ff00ff00ff00ff00ff00ff00ff00ff00ff00ff8216901b60087fff00ff00ff00ff00ff00ff00ff00ff00ff00ff00ff00ff00ff00ff00ff00ff008316901c17905060107dffff0000ffff0000ffff0000ffff0000ffff0000ffff0000ffff0000ffff8216901b60107fffff0000ffff0000ffff0000ffff0000ffff0000ffff0000ffff0000ffff00008316901c17905060207bffffffff00000000ffffffff00000000ffffffff00000000ffffffff8216901b60207fffffffff00000000ffffffff00000000ffffffff00000000ffffffff000000008316901c179050604077ffffffffffffffff0000000000000000ffffffffffffffff8216901b60407fffffffffffffffff0000000000000000ffffffffffffffff00000000000000008316901c179050608081901b608082901c179050919050565b6000610f93610f8e84612197565b612166565b90508083825260208201905082856020860282011115610fb257600080fd5b60005b85811015610fe25781610fc888826112e3565b845260208401935060208301925050600181019050610fb5565b5050509392505050565b6000610fff610ffa846121c3565b612166565b9050808382526020820190508260005b8581101561103f57813585016110258882611376565b84526020840193506020830192505060018101905061100f565b5050509392505050565b600061105c611057846121ef565b612166565b9050808382526020820190508285604086028201111561107b57600080fd5b60005b858110156110ab578161109188826115c0565b84526020840193506040830192505060018101905061107e565b5050509392505050565b60006110c86110c38461221b565b612166565b90508083825260208201905082856101608602820111156110e857600080fd5b60005b8581101561111957816110fe8882611820565b845260208401935061016083019250506001810190506110eb565b5050509392505050565b600061113661113184612247565b612166565b9050808382526020820190508260005b85811015611176578135850161115c88826118fe565b845260208401935060208301925050600181019050611146565b5050509392505050565b600061119361118e84612273565b612166565b9050828152602081018484840111156111ab57600080fd5b6111b68482856123a7565b509392505050565b60006111d16111cc84612273565b612166565b9050828152602081018484840111156111e957600080fd5b6111f48482856123b6565b509392505050565b60008135905061120b81612406565b92915050565b600082601f83011261122257600080fd5b8135611232848260208601610f80565b91505092915050565b600082601f83011261124c57600080fd5b813561125c848260208601610fec565b91505092915050565b600082601f83011261127657600080fd5b8135611286848260208601611049565b91505092915050565b600082601f8301126112a057600080fd5b81356112b08482602086016110b5565b91505092915050565b600082601f8301126112ca57600080fd5b81356112da848260208601611123565b91505092915050565b6000813590506112f28161241d565b92915050565b6000815190506113078161241d565b92915050565b600082601f83011261131e57600080fd5b813561132e848260208601611180565b91505092915050565b600082601f83011261134857600080fd5b81516113588482602086016111be565b91505092915050565b60008135905061137081612434565b92915050565b600060a0828403121561138857600080fd5b61139260a0612166565b905060006113a284828501611a17565b60008301525060206113b684828501611a17565b602083015250604082013567ffffffffffffffff8111156113d657600080fd5b6113e28482850161130d565b604083015250606082013567ffffffffffffffff81111561140257600080fd5b61140e848285016112b9565b6060830152506080611422848285016119d8565b60808301525092915050565b60006101e0828403121561144157600080fd5b61144c6101c0612166565b9050600061145c848285016119ae565b6000830152506020611470848285016119ae565b6020830152506040611484848285016111fc565b6040830152506060611498848285016119d8565b60608301525060806114ac848285016119d8565b60808301525060a06114c0848285016111fc565b60a08301525060c06114d4848285016111fc565b60c08301525060e06114e8848285016119d8565b60e08301525061010082013567ffffffffffffffff81111561150957600080fd5b61151584828501611265565b6101008301525061012082013567ffffffffffffffff81111561153757600080fd5b61154384828501611265565b61012083015250610140611559848285016112e3565b6101408301525061016082013567ffffffffffffffff81111561157b57600080fd5b61158784828501611265565b6101608301525061018061159d84828501611962565b610180830152506101c06115b384828501611361565b6101a08301525092915050565b6000604082840312156115d257600080fd5b6115dc6040612166565b905060006115ec848285016111fc565b600083015250602061160084828501611a02565b60208301525092915050565b60006080828403121561161e57600080fd5b6116286080612166565b9050600061163884828501611a17565b600083015250602061164c848285016119d8565b6020830152506040611660848285016119d8565b604083015250606082013567ffffffffffffffff81111561168057600080fd5b61168c84828501611211565b60608301525092915050565b6000608082840312156116aa57600080fd5b6116b46080612166565b905060006116c484828501611a17565b60008301525060206116d884828501611a17565b602083015250604082013567ffffffffffffffff8111156116f857600080fd5b611704848285016112b9565b604083015250606082013567ffffffffffffffff81111561172457600080fd5b6117308482850161123b565b60608301525092915050565b600060c0828403121561174e57600080fd5b61175860c0612166565b90506000611768848285016119c3565b600083015250602061177c848285016112e3565b6020830152506040611790848285016119c3565b604083015250606082013567ffffffffffffffff8111156117b057600080fd5b6117bc8482850161142e565b606083015250608082013567ffffffffffffffff8111156117dc57600080fd5b6117e884828501611698565b60808301525060a082013567ffffffffffffffff81111561180857600080fd5b6118148482850161128f565b60a08301525092915050565b6000610160828403121561183357600080fd5b61183e610120612166565b9050600061184e848285016119d8565b6000830152506020611862848285016115c0565b6020830152506060611876848285016119d8565b604083015250608061188a848285016111fc565b60608301525060a061189e848285016119c3565b60808301525060c06118b284828501611962565b60a0830152506101006118c7848285016111fc565b60c0830152506101206118dc848285016111fc565b60e0830152506101406118f1848285016111fc565b6101008301525092915050565b60006040828403121561191057600080fd5b61191a6040612166565b9050600061192a84828501611a17565b600083015250602082013567ffffffffffffffff81111561194a57600080fd5b6119568482850161160c565b60208301525092915050565b60006040828403121561197457600080fd5b61197e6040612166565b9050600061198e84828501611a17565b60008301525060206119a2848285016111fc565b60208301525092915050565b6000813590506119bd8161244b565b92915050565b6000813590506119d281612462565b92915050565b6000813590506119e781612479565b92915050565b6000815190506119fc81612479565b92915050565b600081359050611a1181612490565b92915050565b600081359050611a26816124a7565b92915050565b600060208284031215611a3e57600080fd5b600082013567ffffffffffffffff811115611a5857600080fd5b611a648482850161128f565b91505092915050565b600060208284031215611a7f57600080fd5b6000611a8d848285016112e3565b91505092915050565b600060208284031215611aa857600080fd5b6000611ab6848285016112f8565b91505092915050565b60008060408385031215611ad257600080fd5b6000611ae0858286016112e3565b925050602083013567ffffffffffffffff811115611afd57600080fd5b611b09858286016112b9565b9150509250929050565b60008060408385031215611b2657600080fd5b6000611b34858286016112e3565b925050602083013567ffffffffffffffff811115611b5157600080fd5b611b5d8582860161160c565b9150509250929050565b600060208284031215611b7957600080fd5b600082015167ffffffffffffffff811115611b9357600080fd5b611b9f84828501611337565b91505092915050565b600060208284031215611bba57600080fd5b600082013567ffffffffffffffff811115611bd457600080fd5b611be08482850161173c565b91505092915050565b600060208284031215611bfb57600080fd5b6000611c09848285016119c3565b91505092915050565b600060208284031215611c2457600080fd5b6000611c32848285016119ed565b91505092915050565b6000611c478383611ec4565b6101608301905092915050565b611c5d81612309565b82525050565b6000611c6e826122b3565b611c7881856122d6565b9350611c83836122a3565b8060005b83811015611cb4578151611c9b8882611c3b565b9750611ca6836122c9565b925050600181019050611c87565b5085935050505092915050565b611cca8161231b565b82525050565b611cd981612327565b82525050565b611cf0611ceb82612327565b6123e9565b82525050565b6000611d01826122be565b611d0b81856122e7565b9350611d1b8185602086016123b6565b611d24816123f5565b840191505092915050565b6000611d3c601c836122f8565b91507f4272616e6368206d757374206265206c6f6e676572207468616e2030000000006000830152602082019050919050565b6000611d7c600e836122f8565b91507f736c6963655f6f766572666c6f770000000000000000000000000000000000006000830152602082019050919050565b6000611dbc6031836122f8565b91507f56616c75652063616e20626520657175616c20746f206e6f646520627574206e60008301527f65766572206f6e207468652072696768740000000000000000000000000000006020830152604082019050919050565b6000611e226011836122f8565b91507f736c6963655f6f75744f66426f756e64730000000000000000000000000000006000830152602082019050919050565b6000611e62601b836122f8565b91507f496e6465782063616e6e6f74206265206c657373207468616e203000000000006000830152602082019050919050565b604082016000820151611eab6000850182611c54565b506020820151611ebe6020850182611fd9565b50505050565b61016082016000820151611edb6000850182611fbb565b506020820151611eee6020850182611e95565b506040820151611f016060850182611fbb565b506060820151611f146080850182611c54565b506080820151611f2760a0850182611fac565b5060a0820151611f3a60c0850182611f7d565b5060c0820151611f4e610100850182611c54565b5060e0820151611f62610120850182611c54565b50610100820151611f77610140850182611c54565b50505050565b604082016000820151611f936000850182611fe8565b506020820151611fa66020850182611c54565b50505050565b611fb58161236c565b82525050565b611fc481612376565b82525050565b611fd381612376565b82525050565b611fe281612386565b82525050565b611ff18161239a565b82525050565b60006120038285611cdf565b6020820191506120138284611cdf565b6020820191508190509392505050565b6000604082019050818103600083015261203d8185611c63565b905061204c6020830184611cc1565b9392505050565b60006020820190506120686000830184611cc1565b92915050565b60006020820190506120836000830184611cd0565b92915050565b600060208201905081810360008301526120a38184611cf6565b905092915050565b600060208201905081810360008301526120c481611d2f565b9050919050565b600060208201905081810360008301526120e481611d6f565b9050919050565b6000602082019050818103600083015261210481611daf565b9050919050565b6000602082019050818103600083015261212481611e15565b9050919050565b6000602082019050818103600083015261214481611e55565b9050919050565b60006020820190506121606000830184611fca565b92915050565b6000604051905081810181811067ffffffffffffffff8211171561218d5761218c6123f3565b5b8060405250919050565b600067ffffffffffffffff8211156121b2576121b16123f3565b5b602082029050602081019050919050565b600067ffffffffffffffff8211156121de576121dd6123f3565b5b602082029050602081019050919050565b600067ffffffffffffffff82111561220a576122096123f3565b5b602082029050602081019050919050565b600067ffffffffffffffff821115612236576122356123f3565b5b602082029050602081019050919050565b600067ffffffffffffffff821115612262576122616123f3565b5b602082029050602081019050919050565b600067ffffffffffffffff82111561228e5761228d6123f3565b5b601f19601f8301169050602081019050919050565b6000819050602082019050919050565b600081519050919050565b600081519050919050565b6000602082019050919050565b600082825260208201905092915050565b600082825260208201905092915050565b600082825260208201905092915050565b60006123148261234c565b9050919050565b60008115159050919050565b6000819050919050565b60008160030b9050919050565b600061ffff82169050919050565b600073ffffffffffffffffffffffffffffffffffffffff82169050919050565b6000819050919050565b600063ffffffff82169050919050565b600067ffffffffffffffff82169050919050565b600060ff82169050919050565b82818337600083830152505050565b60005b838110156123d45780820151818401526020810190506123b9565b838111156123e3576000848401525b50505050565b6000819050919050565bfe5b6000601f19601f8301169050919050565b61240f81612309565b811461241a57600080fd5b50565b61242681612327565b811461243157600080fd5b50565b61243d81612331565b811461244857600080fd5b50565b6124548161233e565b811461245f57600080fd5b50565b61246b8161236c565b811461247657600080fd5b50565b61248281612376565b811461248d57600080fd5b50565b61249981612386565b81146124a457600080fd5b50565b6124b08161239a565b81146124bb57600080fd5b5056fea264697066735822122074a4e9712c684c15aab69a1f534c1372bfdb5738a4afcda80dab9bfe0ff4f43a64736f6c63430007060033",
			"opcodes": "PUSH1 0x80 PUSH1 0x40 MSTORE CALLVALUE DUP1 ISZERO PUSH3 0x11 JUMPI PUSH1 0x0 DUP1 REVERT JUMPDEST POP PUSH1 0x40 MLOAD PUSH3 0x26C2 CODESIZE SUB DUP1 PUSH3 0x26C2 DUP4 CODECOPY DUP2 DUP2 ADD PUSH1 0x40 MSTORE DUP2 ADD SWAP1 PUSH3 0x37 SWAP2 SWAP1 PUSH3 0x11A JUMP JUMPDEST DUP2 PUSH1 0x1 PUSH1 0x0 PUSH2 0x100 EXP DUP2 SLOAD DUP2 PUSH20 0xFFFFFFFFFFFFFFFFFFFFFFFFFFFFFFFFFFFFFFFF MUL NOT AND SWAP1 DUP4 PUSH20 0xFFFFFFFFFFFFFFFFFFFFFFFFFFFFFFFFFFFFFFFF AND MUL OR SWAP1 SSTORE POP DUP1 PUSH1 0x3 PUSH1 0x0 PUSH2 0x100 EXP DUP2 SLOAD DUP2 PUSH20 0xFFFFFFFFFFFFFFFFFFFFFFFFFFFFFFFFFFFFFFFF MUL NOT AND SWAP1 DUP4 PUSH20 0xFFFFFFFFFFFFFFFFFFFFFFFFFFFFFFFFFFFFFFFF AND MUL OR SWAP1 SSTORE POP DUP3 PUSH1 0x2 PUSH1 0x0 PUSH2 0x100 EXP DUP2 SLOAD DUP2 PUSH20 0xFFFFFFFFFFFFFFFFFFFFFFFFFFFFFFFFFFFFFFFF MUL NOT AND SWAP1 DUP4 PUSH20 0xFFFFFFFFFFFFFFFFFFFFFFFFFFFFFFFFFFFFFFFF AND MUL OR SWAP1 SSTORE POP POP POP POP PUSH3 0x1BE JUMP JUMPDEST PUSH1 0x0 DUP2 MLOAD SWAP1 POP PUSH3 0x114 DUP2 PUSH3 0x1A4 JUMP JUMPDEST SWAP3 SWAP2 POP POP JUMP JUMPDEST PUSH1 0x0 DUP1 PUSH1 0x0 PUSH1 0x60 DUP5 DUP7 SUB SLT ISZERO PUSH3 0x130 JUMPI PUSH1 0x0 DUP1 REVERT JUMPDEST PUSH1 0x0 PUSH3 0x140 DUP7 DUP3 DUP8 ADD PUSH3 0x103 JUMP JUMPDEST SWAP4 POP POP PUSH1 0x20 PUSH3 0x153 DUP7 DUP3 DUP8 ADD PUSH3 0x103 JUMP JUMPDEST SWAP3 POP POP PUSH1 0x40 PUSH3 0x166 DUP7 DUP3 DUP8 ADD PUSH3 0x103 JUMP JUMPDEST SWAP2 POP POP SWAP3 POP SWAP3 POP SWAP3 JUMP JUMPDEST PUSH1 0x0 PUSH3 0x17D DUP3 PUSH3 0x184 JUMP JUMPDEST SWAP1 POP SWAP2 SWAP1 POP JUMP JUMPDEST PUSH1 0x0 PUSH20 0xFFFFFFFFFFFFFFFFFFFFFFFFFFFFFFFFFFFFFFFF DUP3 AND SWAP1 POP SWAP2 SWAP1 POP JUMP JUMPDEST PUSH3 0x1AF DUP2 PUSH3 0x170 JUMP JUMPDEST DUP2 EQ PUSH3 0x1BB JUMPI PUSH1 0x0 DUP1 REVERT JUMPDEST POP JUMP JUMPDEST PUSH2 0x24F4 DUP1 PUSH3 0x1CE PUSH1 0x0 CODECOPY PUSH1 0x0 RETURN INVALID PUSH1 0x80 PUSH1 0x40 MSTORE CALLVALUE DUP1 ISZERO PUSH2 0x10 JUMPI PUSH1 0x0 DUP1 REVERT JUMPDEST POP PUSH1 0x4 CALLDATASIZE LT PUSH2 0xCF JUMPI PUSH1 0x0 CALLDATALOAD PUSH1 0xE0 SHR DUP1 PUSH4 0x8F1DB79B GT PUSH2 0x8C JUMPI DUP1 PUSH4 0xB740965F GT PUSH2 0x66 JUMPI DUP1 PUSH4 0xB740965F EQ PUSH2 0x260 JUMPI DUP1 PUSH4 0xBC736C14 EQ PUSH2 0x27E JUMPI DUP1 PUSH4 0xC1D71858 EQ PUSH2 0x2AE JUMPI DUP1 PUSH4 0xF8BA7192 EQ PUSH2 0x2CC JUMPI PUSH2 0xCF JUMP JUMPDEST DUP1 PUSH4 0x8F1DB79B EQ PUSH2 0x1E2 JUMPI DUP1 PUSH4 0x8F59B004 EQ PUSH2 0x200 JUMPI DUP1 PUSH4 0x9940B140 EQ PUSH2 0x230 JUMPI PUSH2 0xCF JUMP JUMPDEST DUP1 PUSH4 0x1B51AE44 EQ PUSH2 0xD4 JUMPI DUP1 PUSH4 0x2A44F153 EQ PUSH2 0x104 JUMPI DUP1 PUSH4 0x317E325B EQ PUSH2 0x134 JUMPI DUP1 PUSH4 0x3192148C EQ PUSH2 0x152 JUMPI DUP1 PUSH4 0x5981D41B EQ PUSH2 0x182 JUMPI DUP1 PUSH4 0x7F7EE3EF EQ PUSH2 0x1B2 JUMPI JUMPDEST PUSH1 0x0 DUP1 REVERT JUMPDEST PUSH2 0xEE PUSH1 0x4 DUP1 CALLDATASIZE SUB DUP2 ADD SWAP1 PUSH2 0xE9 SWAP2 SWAP1 PUSH2 0x1BA8 JUMP JUMPDEST PUSH2 0x2FC JUMP JUMPDEST PUSH1 0x40 MLOAD PUSH2 0xFB SWAP2 SWAP1 PUSH2 0x206E JUMP JUMPDEST PUSH1 0x40 MLOAD DUP1 SWAP2 SUB SWAP1 RETURN JUMPDEST PUSH2 0x11E PUSH1 0x4 DUP1 CALLDATASIZE SUB DUP2 ADD SWAP1 PUSH2 0x119 SWAP2 SWAP1 PUSH2 0x1BA8 JUMP JUMPDEST PUSH2 0x34F JUMP JUMPDEST PUSH1 0x40 MLOAD PUSH2 0x12B SWAP2 SWAP1 PUSH2 0x2053 JUMP JUMPDEST PUSH1 0x40 MLOAD DUP1 SWAP2 SUB SWAP1 RETURN JUMPDEST PUSH2 0x13C PUSH2 0x4A4 JUMP JUMPDEST PUSH1 0x40 MLOAD PUSH2 0x149 SWAP2 SWAP1 PUSH2 0x2089 JUMP JUMPDEST PUSH1 0x40 MLOAD DUP1 SWAP2 SUB SWAP1 RETURN JUMPDEST PUSH2 0x16C PUSH1 0x4 DUP1 CALLDATASIZE SUB DUP2 ADD SWAP1 PUSH2 0x167 SWAP2 SWAP1 PUSH2 0x1BE9 JUMP JUMPDEST PUSH2 0x542 JUMP JUMPDEST PUSH1 0x40 MLOAD PUSH2 0x179 SWAP2 SWAP1 PUSH2 0x206E JUMP JUMPDEST PUSH1 0x40 MLOAD DUP1 SWAP2 SUB SWAP1 RETURN JUMPDEST PUSH2 0x19C PUSH1 0x4 DUP1 CALLDATASIZE SUB DUP2 ADD SWAP1 PUSH2 0x197 SWAP2 SWAP1 PUSH2 0x1B13 JUMP JUMPDEST PUSH2 0x566 JUMP JUMPDEST PUSH1 0x40 MLOAD PUSH2 0x1A9 SWAP2 SWAP1 PUSH2 0x206E JUMP JUMPDEST PUSH1 0x40 MLOAD DUP1 SWAP2 SUB SWAP1 RETURN JUMPDEST PUSH2 0x1CC PUSH1 0x4 DUP1 CALLDATASIZE SUB DUP2 ADD SWAP1 PUSH2 0x1C7 SWAP2 SWAP1 PUSH2 0x1A2C JUMP JUMPDEST PUSH2 0x7D9 JUMP JUMPDEST PUSH1 0x40 MLOAD PUSH2 0x1D9 SWAP2 SWAP1 PUSH2 0x206E JUMP JUMPDEST PUSH1 0x40 MLOAD DUP1 SWAP2 SUB SWAP1 RETURN JUMPDEST PUSH2 0x1EA PUSH2 0x8A1 JUMP JUMPDEST PUSH1 0x40 MLOAD PUSH2 0x1F7 SWAP2 SWAP1 PUSH2 0x2053 JUMP JUMPDEST PUSH1 0x40 MLOAD DUP1 SWAP2 SUB SWAP1 RETURN JUMPDEST PUSH2 0x21A PUSH1 0x4 DUP1 CALLDATASIZE SUB DUP2 ADD SWAP1 PUSH2 0x215 SWAP2 SWAP1 PUSH2 0x1BA8 JUMP JUMPDEST PUSH2 0x8B4 JUMP JUMPDEST PUSH1 0x40 MLOAD PUSH2 0x227 SWAP2 SWAP1 PUSH2 0x2053 JUMP JUMPDEST PUSH1 0x40 MLOAD DUP1 SWAP2 SUB SWAP1 RETURN JUMPDEST PUSH2 0x24A PUSH1 0x4 DUP1 CALLDATASIZE SUB DUP2 ADD SWAP1 PUSH2 0x245 SWAP2 SWAP1 PUSH2 0x1BA8 JUMP JUMPDEST PUSH2 0xA44 JUMP JUMPDEST PUSH1 0x40 MLOAD PUSH2 0x257 SWAP2 SWAP1 PUSH2 0x206E JUMP JUMPDEST PUSH1 0x40 MLOAD DUP1 SWAP2 SUB SWAP1 RETURN JUMPDEST PUSH2 0x268 PUSH2 0xCB7 JUMP JUMPDEST PUSH1 0x40 MLOAD PUSH2 0x275 SWAP2 SWAP1 PUSH2 0x206E JUMP JUMPDEST PUSH1 0x40 MLOAD DUP1 SWAP2 SUB SWAP1 RETURN JUMPDEST PUSH2 0x298 PUSH1 0x4 DUP1 CALLDATASIZE SUB DUP2 ADD SWAP1 PUSH2 0x293 SWAP2 SWAP1 PUSH2 0x1A6D JUMP JUMPDEST PUSH2 0xCBD JUMP JUMPDEST PUSH1 0x40 MLOAD PUSH2 0x2A5 SWAP2 SWAP1 PUSH2 0x206E JUMP JUMPDEST PUSH1 0x40 MLOAD DUP1 SWAP2 SUB SWAP1 RETURN JUMPDEST PUSH2 0x2B6 PUSH2 0xCD5 JUMP JUMPDEST PUSH1 0x40 MLOAD PUSH2 0x2C3 SWAP2 SWAP1 PUSH2 0x206E JUMP JUMPDEST PUSH1 0x40 MLOAD DUP1 SWAP2 SUB SWAP1 RETURN JUMPDEST PUSH2 0x2E6 PUSH1 0x4 DUP1 CALLDATASIZE SUB DUP2 ADD SWAP1 PUSH2 0x2E1 SWAP2 SWAP1 PUSH2 0x1ABF JUMP JUMPDEST PUSH2 0xCDB JUMP JUMPDEST PUSH1 0x40 MLOAD PUSH2 0x2F3 SWAP2 SWAP1 PUSH2 0x206E JUMP JUMPDEST PUSH1 0x40 MLOAD DUP1 SWAP2 SUB SWAP1 RETURN JUMPDEST PUSH1 0x0 DUP1 PUSH1 0x0 SHL SWAP1 POP PUSH2 0x30D DUP3 PUSH2 0x34F JUMP JUMPDEST PUSH2 0x316 JUMPI PUSH2 0x34A JUMP JUMPDEST PUSH1 0x0 PUSH2 0x321 DUP4 PUSH2 0xA44 JUMP JUMPDEST SWAP1 POP PUSH1 0x0 DUP1 SHL DUP2 EQ ISZERO PUSH2 0x334 JUMPI POP PUSH2 0x34A JUMP JUMPDEST PUSH2 0x346 DUP2 DUP5 PUSH1 0x80 ADD MLOAD PUSH1 0x40 ADD MLOAD PUSH2 0xCDB JUMP JUMPDEST SWAP2 POP POP JUMPDEST SWAP2 SWAP1 POP JUMP JUMPDEST PUSH1 0x0 DUP1 PUSH2 0x35F DUP4 PUSH1 0xA0 ADD MLOAD PUSH2 0x7D9 JUMP JUMPDEST SWAP1 POP PUSH1 0x0 DUP4 PUSH1 0x80 ADD MLOAD PUSH1 0x60 ADD MLOAD PUSH1 0x1 DUP6 PUSH1 0x80 ADD MLOAD PUSH1 0x60 ADD MLOAD MLOAD SUB DUP2 MLOAD DUP2 LT PUSH2 0x383 JUMPI INVALID JUMPDEST PUSH1 0x20 MUL PUSH1 0x20 ADD ADD MLOAD PUSH1 0x80 ADD MLOAD PUSH4 0xFFFFFFFF AND SWAP1 POP PUSH1 0x0 DUP5 PUSH1 0x80 ADD MLOAD PUSH1 0x60 ADD MLOAD PUSH1 0x1 DUP7 PUSH1 0x80 ADD MLOAD PUSH1 0x60 ADD MLOAD MLOAD SUB DUP2 MLOAD DUP2 LT PUSH2 0x3B9 JUMPI INVALID JUMPDEST PUSH1 0x20 MUL PUSH1 0x20 ADD ADD MLOAD PUSH1 0x40 ADD MLOAD SWAP1 POP PUSH1 0x0 PUSH1 0x1 PUSH1 0x0 SWAP1 SLOAD SWAP1 PUSH2 0x100 EXP SWAP1 DIV PUSH20 0xFFFFFFFFFFFFFFFFFFFFFFFFFFFFFFFFFFFFFFFF AND PUSH20 0xFFFFFFFFFFFFFFFFFFFFFFFFFFFFFFFFFFFFFFFF AND PUSH4 0xBFE370D9 PUSH2 0x413 DUP5 DUP7 PUSH1 0x20 PUSH2 0xD28 JUMP JUMPDEST PUSH1 0x40 MLOAD DUP3 PUSH4 0xFFFFFFFF AND PUSH1 0xE0 SHL DUP2 MSTORE PUSH1 0x4 ADD PUSH2 0x42F SWAP2 SWAP1 PUSH2 0x2089 JUMP JUMPDEST PUSH1 0x20 PUSH1 0x40 MLOAD DUP1 DUP4 SUB DUP2 DUP7 DUP1 EXTCODESIZE ISZERO DUP1 ISZERO PUSH2 0x447 JUMPI PUSH1 0x0 DUP1 REVERT JUMPDEST POP GAS STATICCALL ISZERO DUP1 ISZERO PUSH2 0x45B JUMPI RETURNDATASIZE PUSH1 0x0 DUP1 RETURNDATACOPY RETURNDATASIZE PUSH1 0x0 REVERT JUMPDEST POP POP POP POP PUSH1 0x40 MLOAD RETURNDATASIZE PUSH1 0x1F NOT PUSH1 0x1F DUP3 ADD AND DUP3 ADD DUP1 PUSH1 0x40 MSTORE POP DUP2 ADD SWAP1 PUSH2 0x47F SWAP2 SWAP1 PUSH2 0x1A96 JUMP JUMPDEST SWAP1 POP DUP1 DUP5 EQ ISZERO PUSH2 0x496 JUMPI PUSH1 0x1 SWAP5 POP POP POP POP POP PUSH2 0x49F JUMP JUMPDEST PUSH1 0x0 SWAP5 POP POP POP POP POP JUMPDEST SWAP2 SWAP1 POP JUMP JUMPDEST PUSH1 0x7 DUP1 SLOAD PUSH1 0x1 DUP2 PUSH1 0x1 AND ISZERO PUSH2 0x100 MUL SUB AND PUSH1 0x2 SWAP1 DIV DUP1 PUSH1 0x1F ADD PUSH1 0x20 DUP1 SWAP2 DIV MUL PUSH1 0x20 ADD PUSH1 0x40 MLOAD SWAP1 DUP2 ADD PUSH1 0x40 MSTORE DUP1 SWAP3 SWAP2 SWAP1 DUP2 DUP2 MSTORE PUSH1 0x20 ADD DUP3 DUP1 SLOAD PUSH1 0x1 DUP2 PUSH1 0x1 AND ISZERO PUSH2 0x100 MUL SUB AND PUSH1 0x2 SWAP1 DIV DUP1 ISZERO PUSH2 0x53A JUMPI DUP1 PUSH1 0x1F LT PUSH2 0x50F JUMPI PUSH2 0x100 DUP1 DUP4 SLOAD DIV MUL DUP4 MSTORE SWAP2 PUSH1 0x20 ADD SWAP2 PUSH2 0x53A JUMP JUMPDEST DUP3 ADD SWAP2 SWAP1 PUSH1 0x0 MSTORE PUSH1 0x20 PUSH1 0x0 KECCAK256 SWAP1 JUMPDEST DUP2 SLOAD DUP2 MSTORE SWAP1 PUSH1 0x1 ADD SWAP1 PUSH1 0x20 ADD DUP1 DUP4 GT PUSH2 0x51D JUMPI DUP3 SWAP1 SUB PUSH1 0x1F AND DUP3 ADD SWAP2 JUMPDEST POP POP POP POP POP DUP2 JUMP JUMPDEST PUSH1 0x4 DUP2 DUP2 SLOAD DUP2 LT PUSH2 0x552 JUMPI PUSH1 0x0 DUP1 REVERT JUMPDEST SWAP1 PUSH1 0x0 MSTORE PUSH1 0x20 PUSH1 0x0 KECCAK256 ADD PUSH1 0x0 SWAP2 POP SWAP1 POP SLOAD DUP2 JUMP JUMPDEST PUSH1 0x0 DUP1 DUP3 PUSH1 0x20 ADD MLOAD PUSH4 0xFFFFFFFF AND LT ISZERO PUSH2 0x5B5 JUMPI PUSH1 0x40 MLOAD PUSH32 0x8C379A000000000000000000000000000000000000000000000000000000000 DUP2 MSTORE PUSH1 0x4 ADD PUSH2 0x5AC SWAP1 PUSH2 0x212B JUMP JUMPDEST PUSH1 0x40 MLOAD DUP1 SWAP2 SUB SWAP1 REVERT JUMPDEST PUSH1 0x0 DUP3 PUSH1 0x60 ADD MLOAD MLOAD GT PUSH2 0x5FD JUMPI PUSH1 0x40 MLOAD PUSH32 0x8C379A000000000000000000000000000000000000000000000000000000000 DUP2 MSTORE PUSH1 0x4 ADD PUSH2 0x5F4 SWAP1 PUSH2 0x20AB JUMP JUMPDEST PUSH1 0x40 MLOAD DUP1 SWAP2 SUB SWAP1 REVERT JUMPDEST PUSH1 0x0 DUP3 PUSH1 0x60 ADD MLOAD MLOAD SWAP1 POP PUSH1 0x0 DUP5 SWAP1 POP PUSH1 0x60 PUSH1 0x0 DUP6 PUSH1 0x20 ADD MLOAD PUSH4 0xFFFFFFFF AND SWAP1 POP PUSH1 0x0 JUMPDEST DUP5 DUP2 LT ISZERO PUSH2 0x7CB JUMPI PUSH1 0x0 PUSH1 0x1 DUP4 AND GT ISZERO PUSH2 0x6CE JUMPI DUP8 DUP8 PUSH1 0x60 ADD MLOAD DUP3 DUP2 MLOAD DUP2 LT PUSH2 0x645 JUMPI INVALID JUMPDEST PUSH1 0x20 MUL PUSH1 0x20 ADD ADD MLOAD EQ ISZERO PUSH2 0x68E JUMPI PUSH1 0x40 MLOAD PUSH32 0x8C379A000000000000000000000000000000000000000000000000000000000 DUP2 MSTORE PUSH1 0x4 ADD PUSH2 0x685 SWAP1 PUSH2 0x20EB JUMP JUMPDEST PUSH1 0x40 MLOAD DUP1 SWAP2 SUB SWAP1 REVERT JUMPDEST DUP7 PUSH1 0x60 ADD MLOAD DUP2 DUP2 MLOAD DUP2 LT PUSH2 0x69E JUMPI INVALID JUMPDEST PUSH1 0x20 MUL PUSH1 0x20 ADD ADD MLOAD DUP5 PUSH1 0x40 MLOAD PUSH1 0x20 ADD PUSH2 0x6B8 SWAP3 SWAP2 SWAP1 PUSH2 0x1FF7 JUMP JUMPDEST PUSH1 0x40 MLOAD PUSH1 0x20 DUP2 DUP4 SUB SUB DUP2 MSTORE SWAP1 PUSH1 0x40 MSTORE SWAP3 POP PUSH2 0x70A JUMP JUMPDEST DUP4 DUP8 PUSH1 0x60 ADD MLOAD DUP3 DUP2 MLOAD DUP2 LT PUSH2 0x6DF JUMPI INVALID JUMPDEST PUSH1 0x20 MUL PUSH1 0x20 ADD ADD MLOAD PUSH1 0x40 MLOAD PUSH1 0x20 ADD PUSH2 0x6F8 SWAP3 SWAP2 SWAP1 PUSH2 0x1FF7 JUMP JUMPDEST PUSH1 0x40 MLOAD PUSH1 0x20 DUP2 DUP4 SUB SUB DUP2 MSTORE SWAP1 PUSH1 0x40 MSTORE SWAP3 POP JUMPDEST PUSH1 0x1 PUSH1 0x0 SWAP1 SLOAD SWAP1 PUSH2 0x100 EXP SWAP1 DIV PUSH20 0xFFFFFFFFFFFFFFFFFFFFFFFFFFFFFFFFFFFFFFFF AND PUSH20 0xFFFFFFFFFFFFFFFFFFFFFFFFFFFFFFFFFFFFFFFF AND PUSH4 0x2CD0CFF2 DUP5 PUSH1 0x40 MLOAD DUP3 PUSH4 0xFFFFFFFF AND PUSH1 0xE0 SHL DUP2 MSTORE PUSH1 0x4 ADD PUSH2 0x765 SWAP2 SWAP1 PUSH2 0x2089 JUMP JUMPDEST PUSH1 0x20 PUSH1 0x40 MLOAD DUP1 DUP4 SUB DUP2 DUP7 DUP1 EXTCODESIZE ISZERO DUP1 ISZERO PUSH2 0x77D JUMPI PUSH1 0x0 DUP1 REVERT JUMPDEST POP GAS STATICCALL ISZERO DUP1 ISZERO PUSH2 0x791 JUMPI RETURNDATASIZE PUSH1 0x0 DUP1 RETURNDATACOPY RETURNDATASIZE PUSH1 0x0 REVERT JUMPDEST POP POP POP POP PUSH1 0x40 MLOAD RETURNDATASIZE PUSH1 0x1F NOT PUSH1 0x1F DUP3 ADD AND DUP3 ADD DUP1 PUSH1 0x40 MSTORE POP DUP2 ADD SWAP1 PUSH2 0x7B5 SWAP2 SWAP1 PUSH2 0x1A96 JUMP JUMPDEST SWAP4 POP PUSH1 0x1 DUP3 SWAP1 SHR SWAP2 POP DUP1 DUP1 PUSH1 0x1 ADD SWAP2 POP POP PUSH2 0x620 JUMP JUMPDEST POP DUP3 SWAP5 POP POP POP POP POP SWAP3 SWAP2 POP POP JUMP JUMPDEST PUSH1 0x0 DUP1 PUSH1 0x3 PUSH1 0x0 SWAP1 SLOAD SWAP1 PUSH2 0x100 EXP SWAP1 DIV PUSH20 0xFFFFFFFFFFFFFFFFFFFFFFFFFFFFFFFFFFFFFFFF AND PUSH20 0xFFFFFFFFFFFFFFFFFFFFFFFFFFFFFFFFFFFFFFFF AND PUSH4 0x2A4EDD70 DUP5 PUSH1 0x0 PUSH1 0x40 MLOAD DUP4 PUSH4 0xFFFFFFFF AND PUSH1 0xE0 SHL DUP2 MSTORE PUSH1 0x4 ADD PUSH2 0x83A SWAP3 SWAP2 SWAP1 PUSH2 0x2023 JUMP JUMPDEST PUSH1 0x0 PUSH1 0x40 MLOAD DUP1 DUP4 SUB DUP2 DUP7 DUP1 EXTCODESIZE ISZERO DUP1 ISZERO PUSH2 0x852 JUMPI PUSH1 0x0 DUP1 REVERT JUMPDEST POP GAS STATICCALL ISZERO DUP1 ISZERO PUSH2 0x866 JUMPI RETURNDATASIZE PUSH1 0x0 DUP1 RETURNDATACOPY RETURNDATASIZE PUSH1 0x0 REVERT JUMPDEST POP POP POP POP PUSH1 0x40 MLOAD RETURNDATASIZE PUSH1 0x0 DUP3 RETURNDATACOPY RETURNDATASIZE PUSH1 0x1F NOT PUSH1 0x1F DUP3 ADD AND DUP3 ADD DUP1 PUSH1 0x40 MSTORE POP DUP2 ADD SWAP1 PUSH2 0x88F SWAP2 SWAP1 PUSH2 0x1B67 JUMP JUMPDEST SWAP1 POP DUP1 DUP1 MLOAD SWAP1 PUSH1 0x20 ADD KECCAK256 SWAP2 POP POP SWAP2 SWAP1 POP JUMP JUMPDEST PUSH1 0x8 PUSH1 0x0 SWAP1 SLOAD SWAP1 PUSH2 0x100 EXP SWAP1 DIV PUSH1 0xFF AND DUP2 JUMP JUMPDEST PUSH1 0x0 DUP1 PUSH2 0x8C0 DUP4 PUSH2 0x2FC JUMP JUMPDEST SWAP1 POP PUSH1 0x0 PUSH1 0x2 PUSH1 0x0 SWAP1 SLOAD SWAP1 PUSH2 0x100 EXP SWAP1 DIV PUSH20 0xFFFFFFFFFFFFFFFFFFFFFFFFFFFFFFFFFFFFFFFF AND PUSH20 0xFFFFFFFFFFFFFFFFFFFFFFFFFFFFFFFFFFFFFFFF AND PUSH4 0x4B60AE63 PUSH1 0x40 MLOAD DUP2 PUSH4 0xFFFFFFFF AND PUSH1 0xE0 SHL DUP2 MSTORE PUSH1 0x4 ADD PUSH1 0x20 PUSH1 0x40 MLOAD DUP1 DUP4 SUB DUP2 DUP7 DUP1 EXTCODESIZE ISZERO DUP1 ISZERO PUSH2 0x92C JUMPI PUSH1 0x0 DUP1 REVERT JUMPDEST POP GAS STATICCALL ISZERO DUP1 ISZERO PUSH2 0x940 JUMPI RETURNDATASIZE PUSH1 0x0 DUP1 RETURNDATACOPY RETURNDATASIZE PUSH1 0x0 REVERT JUMPDEST POP POP POP POP PUSH1 0x40 MLOAD RETURNDATASIZE PUSH1 0x1F NOT PUSH1 0x1F DUP3 ADD AND DUP3 ADD DUP1 PUSH1 0x40 MSTORE POP DUP2 ADD SWAP1 PUSH2 0x964 SWAP2 SWAP1 PUSH2 0x1C12 JUMP JUMPDEST SWAP1 POP PUSH3 0x8DB515 SWAP1 POP PUSH1 0x0 PUSH2 0xA21 PUSH1 0x2 PUSH1 0x0 SWAP1 SLOAD SWAP1 PUSH2 0x100 EXP SWAP1 DIV PUSH20 0xFFFFFFFFFFFFFFFFFFFFFFFFFFFFFFFFFFFFFFFF AND PUSH20 0xFFFFFFFFFFFFFFFFFFFFFFFFFFFFFFFFFFFFFFFF AND PUSH4 0xE7B3C875 DUP5 PUSH1 0x40 MLOAD DUP3 PUSH4 0xFFFFFFFF AND PUSH1 0xE0 SHL DUP2 MSTORE PUSH1 0x4 ADD PUSH2 0x9CC SWAP2 SWAP1 PUSH2 0x214B JUMP JUMPDEST PUSH1 0x20 PUSH1 0x40 MLOAD DUP1 DUP4 SUB DUP2 DUP7 DUP1 EXTCODESIZE ISZERO DUP1 ISZERO PUSH2 0x9E4 JUMPI PUSH1 0x0 DUP1 REVERT JUMPDEST POP GAS STATICCALL ISZERO DUP1 ISZERO PUSH2 0x9F8 JUMPI RETURNDATASIZE PUSH1 0x0 DUP1 RETURNDATACOPY RETURNDATASIZE PUSH1 0x0 REVERT JUMPDEST POP POP POP POP PUSH1 0x40 MLOAD RETURNDATASIZE PUSH1 0x1F NOT PUSH1 0x1F DUP3 ADD AND DUP3 ADD DUP1 PUSH1 0x40 MSTORE POP DUP2 ADD SWAP1 PUSH2 0xA1C SWAP2 SWAP1 PUSH2 0x1A96 JUMP JUMPDEST PUSH2 0xCBD JUMP JUMPDEST SWAP1 POP DUP1 DUP4 EQ ISZERO PUSH2 0xA37 JUMPI PUSH1 0x1 SWAP4 POP POP POP POP PUSH2 0xA3F JUMP JUMPDEST PUSH1 0x0 SWAP4 POP POP POP POP JUMPDEST SWAP2 SWAP1 POP JUMP JUMPDEST PUSH1 0x0 DUP1 PUSH1 0x0 DUP1 DUP5 PUSH1 0x80 ADD MLOAD PUSH1 0x60 ADD MLOAD MLOAD GT ISZERO PUSH2 0xB81 JUMPI PUSH1 0x1 PUSH1 0x0 SWAP1 SLOAD SWAP1 PUSH2 0x100 EXP SWAP1 DIV PUSH20 0xFFFFFFFFFFFFFFFFFFFFFFFFFFFFFFFFFFFFFFFF AND PUSH20 0xFFFFFFFFFFFFFFFFFFFFFFFFFFFFFFFFFFFFFFFF AND PUSH4 0x2CD0CFF2 DUP6 PUSH1 0x80 ADD MLOAD PUSH1 0x60 ADD MLOAD PUSH1 0x0 DUP2 MLOAD DUP2 LT PUSH2 0xAAD JUMPI INVALID JUMPDEST PUSH1 0x20 MUL PUSH1 0x20 ADD ADD MLOAD PUSH1 0x40 ADD MLOAD PUSH1 0x40 MLOAD DUP3 PUSH4 0xFFFFFFFF AND PUSH1 0xE0 SHL DUP2 MSTORE PUSH1 0x4 ADD PUSH2 0xAD5 SWAP2 SWAP1 PUSH2 0x2089 JUMP JUMPDEST PUSH1 0x20 PUSH1 0x40 MLOAD DUP1 DUP4 SUB DUP2 DUP7 DUP1 EXTCODESIZE ISZERO DUP1 ISZERO PUSH2 0xAED JUMPI PUSH1 0x0 DUP1 REVERT JUMPDEST POP GAS STATICCALL ISZERO DUP1 ISZERO PUSH2 0xB01 JUMPI RETURNDATASIZE PUSH1 0x0 DUP1 RETURNDATACOPY RETURNDATASIZE PUSH1 0x0 REVERT JUMPDEST POP POP POP POP PUSH1 0x40 MLOAD RETURNDATASIZE PUSH1 0x1F NOT PUSH1 0x1F DUP3 ADD AND DUP3 ADD DUP1 PUSH1 0x40 MSTORE POP DUP2 ADD SWAP1 PUSH2 0xB25 SWAP2 SWAP1 PUSH2 0x1A96 JUMP JUMPDEST SWAP2 POP PUSH1 0x1 DUP5 PUSH1 0x80 ADD MLOAD PUSH1 0x60 ADD MLOAD PUSH1 0x0 DUP2 MLOAD DUP2 LT PUSH2 0xB3E JUMPI INVALID JUMPDEST PUSH1 0x20 MUL PUSH1 0x20 ADD ADD MLOAD PUSH1 0x0 ADD MLOAD PUSH1 0xFF AND EQ ISZERO PUSH2 0xB80 JUMPI PUSH2 0xB7D DUP3 DUP6 PUSH1 0x80 ADD MLOAD PUSH1 0x60 ADD MLOAD PUSH1 0x0 DUP2 MLOAD DUP2 LT PUSH2 0xB6C JUMPI INVALID JUMPDEST PUSH1 0x20 MUL PUSH1 0x20 ADD ADD MLOAD PUSH1 0x60 ADD MLOAD PUSH2 0xCDB JUMP JUMPDEST SWAP3 POP JUMPDEST JUMPDEST PUSH1 0x0 PUSH1 0x1 SWAP1 POP JUMPDEST DUP5 PUSH1 0x80 ADD MLOAD PUSH1 0x60 ADD MLOAD MLOAD DUP2 LT ISZERO PUSH2 0xCAF JUMPI PUSH1 0x1 PUSH1 0x0 SWAP1 SLOAD SWAP1 PUSH2 0x100 EXP SWAP1 DIV PUSH20 0xFFFFFFFFFFFFFFFFFFFFFFFFFFFFFFFFFFFFFFFF AND PUSH20 0xFFFFFFFFFFFFFFFFFFFFFFFFFFFFFFFFFFFFFFFF AND PUSH4 0x2CD0CFF2 DUP7 PUSH1 0x80 ADD MLOAD PUSH1 0x60 ADD MLOAD DUP4 DUP2 MLOAD DUP2 LT PUSH2 0xBEB JUMPI INVALID JUMPDEST PUSH1 0x20 MUL PUSH1 0x20 ADD ADD MLOAD PUSH1 0x40 ADD MLOAD PUSH1 0x40 MLOAD DUP3 PUSH4 0xFFFFFFFF AND PUSH1 0xE0 SHL DUP2 MSTORE PUSH1 0x4 ADD PUSH2 0xC13 SWAP2 SWAP1 PUSH2 0x2089 JUMP JUMPDEST PUSH1 0x20 PUSH1 0x40 MLOAD DUP1 DUP4 SUB DUP2 DUP7 DUP1 EXTCODESIZE ISZERO DUP1 ISZERO PUSH2 0xC2B JUMPI PUSH1 0x0 DUP1 REVERT JUMPDEST POP GAS STATICCALL ISZERO DUP1 ISZERO PUSH2 0xC3F JUMPI RETURNDATASIZE PUSH1 0x0 DUP1 RETURNDATACOPY RETURNDATASIZE PUSH1 0x0 REVERT JUMPDEST POP POP POP POP PUSH1 0x40 MLOAD RETURNDATASIZE PUSH1 0x1F NOT PUSH1 0x1F DUP3 ADD AND DUP3 ADD DUP1 PUSH1 0x40 MSTORE POP DUP2 ADD SWAP1 PUSH2 0xC63 SWAP2 SWAP1 PUSH2 0x1A96 JUMP JUMPDEST SWAP3 POP PUSH2 0xC8E DUP4 DUP7 PUSH1 0x80 ADD MLOAD PUSH1 0x60 ADD MLOAD DUP4 DUP2 MLOAD DUP2 LT PUSH2 0xC7D JUMPI INVALID JUMPDEST PUSH1 0x20 MUL PUSH1 0x20 ADD ADD MLOAD PUSH1 0x60 ADD MLOAD PUSH2 0xCDB JUMP JUMPDEST SWAP2 POP DUP2 DUP5 EQ PUSH2 0xCA2 JUMPI PUSH1 0x0 DUP1 SHL SWAP4 POP PUSH2 0xCAF JUMP JUMPDEST DUP1 DUP1 PUSH1 0x1 ADD SWAP2 POP POP PUSH2 0xB88 JUMP JUMPDEST POP POP POP SWAP2 SWAP1 POP JUMP JUMPDEST PUSH1 0x5 SLOAD DUP2 JUMP JUMPDEST PUSH1 0x0 PUSH2 0xCCB DUP3 PUSH1 0x0 SHR PUSH2 0xE34 JUMP JUMPDEST PUSH1 0x0 SHL SWAP1 POP SWAP2 SWAP1 POP JUMP JUMPDEST PUSH1 0x6 SLOAD DUP2 JUMP JUMPDEST PUSH1 0x0 DUP1 DUP4 SWAP1 POP PUSH1 0x0 JUMPDEST DUP4 MLOAD DUP2 LT ISZERO PUSH2 0xD1D JUMPI PUSH2 0xD0E DUP3 DUP6 DUP4 DUP2 MLOAD DUP2 LT PUSH2 0xCFD JUMPI INVALID JUMPDEST PUSH1 0x20 MUL PUSH1 0x20 ADD ADD MLOAD PUSH1 0x20 ADD MLOAD PUSH2 0x566 JUMP JUMPDEST SWAP2 POP DUP1 DUP1 PUSH1 0x1 ADD SWAP2 POP POP PUSH2 0xCE4 JUMP JUMPDEST POP DUP1 SWAP2 POP POP SWAP3 SWAP2 POP POP JUMP JUMPDEST PUSH1 0x60 DUP2 PUSH1 0x1F DUP4 ADD LT ISZERO PUSH2 0xD70 JUMPI PUSH1 0x40 MLOAD PUSH32 0x8C379A000000000000000000000000000000000000000000000000000000000 DUP2 MSTORE PUSH1 0x4 ADD PUSH2 0xD67 SWAP1 PUSH2 0x20CB JUMP JUMPDEST PUSH1 0x40 MLOAD DUP1 SWAP2 SUB SWAP1 REVERT JUMPDEST DUP2 DUP4 ADD DUP5 MLOAD LT ISZERO PUSH2 0xDB6 JUMPI PUSH1 0x40 MLOAD PUSH32 0x8C379A000000000000000000000000000000000000000000000000000000000 DUP2 MSTORE PUSH1 0x4 ADD PUSH2 0xDAD SWAP1 PUSH2 0x210B JUMP JUMPDEST PUSH1 0x40 MLOAD DUP1 SWAP2 SUB SWAP1 REVERT JUMPDEST PUSH1 0x60 DUP3 ISZERO PUSH1 0x0 DUP2 EQ PUSH2 0xDD7 JUMPI PUSH1 0x40 MLOAD SWAP2 POP PUSH1 0x0 DUP3 MSTORE PUSH1 0x20 DUP3 ADD PUSH1 0x40 MSTORE PUSH2 0xE28 JUMP JUMPDEST PUSH1 0x40 MLOAD SWAP2 POP PUSH1 0x1F DUP5 AND DUP1 ISZERO PUSH1 0x20 MUL DUP2 DUP5 ADD ADD DUP6 DUP2 ADD DUP8 DUP4 ISZERO PUSH1 0x20 MUL DUP5 DUP12 ADD ADD ADD JUMPDEST DUP2 DUP4 LT ISZERO PUSH2 0xE15 JUMPI DUP1 MLOAD DUP4 MSTORE PUSH1 0x20 DUP4 ADD SWAP3 POP PUSH1 0x20 DUP2 ADD SWAP1 POP PUSH2 0xDF8 JUMP JUMPDEST POP DUP7 DUP6 MSTORE PUSH1 0x1F NOT PUSH1 0x1F DUP4 ADD AND PUSH1 0x40 MSTORE POP POP POP JUMPDEST POP DUP1 SWAP2 POP POP SWAP4 SWAP3 POP POP POP JUMP JUMPDEST PUSH1 0x0 DUP2 SWAP1 POP PUSH1 0x8 PUSH31 0xFF00FF00FF00FF00FF00FF00FF00FF00FF00FF00FF00FF00FF00FF00FF00FF DUP3 AND SWAP1 SHL PUSH1 0x8 PUSH32 0xFF00FF00FF00FF00FF00FF00FF00FF00FF00FF00FF00FF00FF00FF00FF00FF00 DUP4 AND SWAP1 SHR OR SWAP1 POP PUSH1 0x10 PUSH30 0xFFFF0000FFFF0000FFFF0000FFFF0000FFFF0000FFFF0000FFFF0000FFFF DUP3 AND SWAP1 SHL PUSH1 0x10 PUSH32 0xFFFF0000FFFF0000FFFF0000FFFF0000FFFF0000FFFF0000FFFF0000FFFF0000 DUP4 AND SWAP1 SHR OR SWAP1 POP PUSH1 0x20 PUSH28 0xFFFFFFFF00000000FFFFFFFF00000000FFFFFFFF00000000FFFFFFFF DUP3 AND SWAP1 SHL PUSH1 0x20 PUSH32 0xFFFFFFFF00000000FFFFFFFF00000000FFFFFFFF00000000FFFFFFFF00000000 DUP4 AND SWAP1 SHR OR SWAP1 POP PUSH1 0x40 PUSH24 0xFFFFFFFFFFFFFFFF0000000000000000FFFFFFFFFFFFFFFF DUP3 AND SWAP1 SHL PUSH1 0x40 PUSH32 0xFFFFFFFFFFFFFFFF0000000000000000FFFFFFFFFFFFFFFF0000000000000000 DUP4 AND SWAP1 SHR OR SWAP1 POP PUSH1 0x80 DUP2 SWAP1 SHL PUSH1 0x80 DUP3 SWAP1 SHR OR SWAP1 POP SWAP2 SWAP1 POP JUMP JUMPDEST PUSH1 0x0 PUSH2 0xF93 PUSH2 0xF8E DUP5 PUSH2 0x2197 JUMP JUMPDEST PUSH2 0x2166 JUMP JUMPDEST SWAP1 POP DUP1 DUP4 DUP3 MSTORE PUSH1 0x20 DUP3 ADD SWAP1 POP DUP3 DUP6 PUSH1 0x20 DUP7 MUL DUP3 ADD GT ISZERO PUSH2 0xFB2 JUMPI PUSH1 0x0 DUP1 REVERT JUMPDEST PUSH1 0x0 JUMPDEST DUP6 DUP2 LT ISZERO PUSH2 0xFE2 JUMPI DUP2 PUSH2 0xFC8 DUP9 DUP3 PUSH2 0x12E3 JUMP JUMPDEST DUP5 MSTORE PUSH1 0x20 DUP5 ADD SWAP4 POP PUSH1 0x20 DUP4 ADD SWAP3 POP POP PUSH1 0x1 DUP2 ADD SWAP1 POP PUSH2 0xFB5 JUMP JUMPDEST POP POP POP SWAP4 SWAP3 POP POP POP JUMP JUMPDEST PUSH1 0x0 PUSH2 0xFFF PUSH2 0xFFA DUP5 PUSH2 0x21C3 JUMP JUMPDEST PUSH2 0x2166 JUMP JUMPDEST SWAP1 POP DUP1 DUP4 DUP3 MSTORE PUSH1 0x20 DUP3 ADD SWAP1 POP DUP3 PUSH1 0x0 JUMPDEST DUP6 DUP2 LT ISZERO PUSH2 0x103F JUMPI DUP2 CALLDATALOAD DUP6 ADD PUSH2 0x1025 DUP9 DUP3 PUSH2 0x1376 JUMP JUMPDEST DUP5 MSTORE PUSH1 0x20 DUP5 ADD SWAP4 POP PUSH1 0x20 DUP4 ADD SWAP3 POP POP PUSH1 0x1 DUP2 ADD SWAP1 POP PUSH2 0x100F JUMP JUMPDEST POP POP POP SWAP4 SWAP3 POP POP POP JUMP JUMPDEST PUSH1 0x0 PUSH2 0x105C PUSH2 0x1057 DUP5 PUSH2 0x21EF JUMP JUMPDEST PUSH2 0x2166 JUMP JUMPDEST SWAP1 POP DUP1 DUP4 DUP3 MSTORE PUSH1 0x20 DUP3 ADD SWAP1 POP DUP3 DUP6 PUSH1 0x40 DUP7 MUL DUP3 ADD GT ISZERO PUSH2 0x107B JUMPI PUSH1 0x0 DUP1 REVERT JUMPDEST PUSH1 0x0 JUMPDEST DUP6 DUP2 LT ISZERO PUSH2 0x10AB JUMPI DUP2 PUSH2 0x1091 DUP9 DUP3 PUSH2 0x15C0 JUMP JUMPDEST DUP5 MSTORE PUSH1 0x20 DUP5 ADD SWAP4 POP PUSH1 0x40 DUP4 ADD SWAP3 POP POP PUSH1 0x1 DUP2 ADD SWAP1 POP PUSH2 0x107E JUMP JUMPDEST POP POP POP SWAP4 SWAP3 POP POP POP JUMP JUMPDEST PUSH1 0x0 PUSH2 0x10C8 PUSH2 0x10C3 DUP5 PUSH2 0x221B JUMP JUMPDEST PUSH2 0x2166 JUMP JUMPDEST SWAP1 POP DUP1 DUP4 DUP3 MSTORE PUSH1 0x20 DUP3 ADD SWAP1 POP DUP3 DUP6 PUSH2 0x160 DUP7 MUL DUP3 ADD GT ISZERO PUSH2 0x10E8 JUMPI PUSH1 0x0 DUP1 REVERT JUMPDEST PUSH1 0x0 JUMPDEST DUP6 DUP2 LT ISZERO PUSH2 0x1119 JUMPI DUP2 PUSH2 0x10FE DUP9 DUP3 PUSH2 0x1820 JUMP JUMPDEST DUP5 MSTORE PUSH1 0x20 DUP5 ADD SWAP4 POP PUSH2 0x160 DUP4 ADD SWAP3 POP POP PUSH1 0x1 DUP2 ADD SWAP1 POP PUSH2 0x10EB JUMP JUMPDEST POP POP POP SWAP4 SWAP3 POP POP POP JUMP JUMPDEST PUSH1 0x0 PUSH2 0x1136 PUSH2 0x1131 DUP5 PUSH2 0x2247 JUMP JUMPDEST PUSH2 0x2166 JUMP JUMPDEST SWAP1 POP DUP1 DUP4 DUP3 MSTORE PUSH1 0x20 DUP3 ADD SWAP1 POP DUP3 PUSH1 0x0 JUMPDEST DUP6 DUP2 LT ISZERO PUSH2 0x1176 JUMPI DUP2 CALLDATALOAD DUP6 ADD PUSH2 0x115C DUP9 DUP3 PUSH2 0x18FE JUMP JUMPDEST DUP5 MSTORE PUSH1 0x20 DUP5 ADD SWAP4 POP PUSH1 0x20 DUP4 ADD SWAP3 POP POP PUSH1 0x1 DUP2 ADD SWAP1 POP PUSH2 0x1146 JUMP JUMPDEST POP POP POP SWAP4 SWAP3 POP POP POP JUMP JUMPDEST PUSH1 0x0 PUSH2 0x1193 PUSH2 0x118E DUP5 PUSH2 0x2273 JUMP JUMPDEST PUSH2 0x2166 JUMP JUMPDEST SWAP1 POP DUP3 DUP2 MSTORE PUSH1 0x20 DUP2 ADD DUP5 DUP5 DUP5 ADD GT ISZERO PUSH2 0x11AB JUMPI PUSH1 0x0 DUP1 REVERT JUMPDEST PUSH2 0x11B6 DUP5 DUP3 DUP6 PUSH2 0x23A7 JUMP JUMPDEST POP SWAP4 SWAP3 POP POP POP JUMP JUMPDEST PUSH1 0x0 PUSH2 0x11D1 PUSH2 0x11CC DUP5 PUSH2 0x2273 JUMP JUMPDEST PUSH2 0x2166 JUMP JUMPDEST SWAP1 POP DUP3 DUP2 MSTORE PUSH1 0x20 DUP2 ADD DUP5 DUP5 DUP5 ADD GT ISZERO PUSH2 0x11E9 JUMPI PUSH1 0x0 DUP1 REVERT JUMPDEST PUSH2 0x11F4 DUP5 DUP3 DUP6 PUSH2 0x23B6 JUMP JUMPDEST POP SWAP4 SWAP3 POP POP POP JUMP JUMPDEST PUSH1 0x0 DUP2 CALLDATALOAD SWAP1 POP PUSH2 0x120B DUP2 PUSH2 0x2406 JUMP JUMPDEST SWAP3 SWAP2 POP POP JUMP JUMPDEST PUSH1 0x0 DUP3 PUSH1 0x1F DUP4 ADD SLT PUSH2 0x1222 JUMPI PUSH1 0x0 DUP1 REVERT JUMPDEST DUP2 CALLDATALOAD PUSH2 0x1232 DUP5 DUP3 PUSH1 0x20 DUP7 ADD PUSH2 0xF80 JUMP JUMPDEST SWAP2 POP POP SWAP3 SWAP2 POP POP JUMP JUMPDEST PUSH1 0x0 DUP3 PUSH1 0x1F DUP4 ADD SLT PUSH2 0x124C JUMPI PUSH1 0x0 DUP1 REVERT JUMPDEST DUP2 CALLDATALOAD PUSH2 0x125C DUP5 DUP3 PUSH1 0x20 DUP7 ADD PUSH2 0xFEC JUMP JUMPDEST SWAP2 POP POP SWAP3 SWAP2 POP POP JUMP JUMPDEST PUSH1 0x0 DUP3 PUSH1 0x1F DUP4 ADD SLT PUSH2 0x1276 JUMPI PUSH1 0x0 DUP1 REVERT JUMPDEST DUP2 CALLDATALOAD PUSH2 0x1286 DUP5 DUP3 PUSH1 0x20 DUP7 ADD PUSH2 0x1049 JUMP JUMPDEST SWAP2 POP POP SWAP3 SWAP2 POP POP JUMP JUMPDEST PUSH1 0x0 DUP3 PUSH1 0x1F DUP4 ADD SLT PUSH2 0x12A0 JUMPI PUSH1 0x0 DUP1 REVERT JUMPDEST DUP2 CALLDATALOAD PUSH2 0x12B0 DUP5 DUP3 PUSH1 0x20 DUP7 ADD PUSH2 0x10B5 JUMP JUMPDEST SWAP2 POP POP SWAP3 SWAP2 POP POP JUMP JUMPDEST PUSH1 0x0 DUP3 PUSH1 0x1F DUP4 ADD SLT PUSH2 0x12CA JUMPI PUSH1 0x0 DUP1 REVERT JUMPDEST DUP2 CALLDATALOAD PUSH2 0x12DA DUP5 DUP3 PUSH1 0x20 DUP7 ADD PUSH2 0x1123 JUMP JUMPDEST SWAP2 POP POP SWAP3 SWAP2 POP POP JUMP JUMPDEST PUSH1 0x0 DUP2 CALLDATALOAD SWAP1 POP PUSH2 0x12F2 DUP2 PUSH2 0x241D JUMP JUMPDEST SWAP3 SWAP2 POP POP JUMP JUMPDEST PUSH1 0x0 DUP2 MLOAD SWAP1 POP PUSH2 0x1307 DUP2 PUSH2 0x241D JUMP JUMPDEST SWAP3 SWAP2 POP POP JUMP JUMPDEST PUSH1 0x0 DUP3 PUSH1 0x1F DUP4 ADD SLT PUSH2 0x131E JUMPI PUSH1 0x0 DUP1 REVERT JUMPDEST DUP2 CALLDATALOAD PUSH2 0x132E DUP5 DUP3 PUSH1 0x20 DUP7 ADD PUSH2 0x1180 JUMP JUMPDEST SWAP2 POP POP SWAP3 SWAP2 POP POP JUMP JUMPDEST PUSH1 0x0 DUP3 PUSH1 0x1F DUP4 ADD SLT PUSH2 0x1348 JUMPI PUSH1 0x0 DUP1 REVERT JUMPDEST DUP2 MLOAD PUSH2 0x1358 DUP5 DUP3 PUSH1 0x20 DUP7 ADD PUSH2 0x11BE JUMP JUMPDEST SWAP2 POP POP SWAP3 SWAP2 POP POP JUMP JUMPDEST PUSH1 0x0 DUP2 CALLDATALOAD SWAP1 POP PUSH2 0x1370 DUP2 PUSH2 0x2434 JUMP JUMPDEST SWAP3 SWAP2 POP POP JUMP JUMPDEST PUSH1 0x0 PUSH1 0xA0 DUP3 DUP5 SUB SLT ISZERO PUSH2 0x1388 JUMPI PUSH1 0x0 DUP1 REVERT JUMPDEST PUSH2 0x1392 PUSH1 0xA0 PUSH2 0x2166 JUMP JUMPDEST SWAP1 POP PUSH1 0x0 PUSH2 0x13A2 DUP5 DUP3 DUP6 ADD PUSH2 0x1A17 JUMP JUMPDEST PUSH1 0x0 DUP4 ADD MSTORE POP PUSH1 0x20 PUSH2 0x13B6 DUP5 DUP3 DUP6 ADD PUSH2 0x1A17 JUMP JUMPDEST PUSH1 0x20 DUP4 ADD MSTORE POP PUSH1 0x40 DUP3 ADD CALLDATALOAD PUSH8 0xFFFFFFFFFFFFFFFF DUP2 GT ISZERO PUSH2 0x13D6 JUMPI PUSH1 0x0 DUP1 REVERT JUMPDEST PUSH2 0x13E2 DUP5 DUP3 DUP6 ADD PUSH2 0x130D JUMP JUMPDEST PUSH1 0x40 DUP4 ADD MSTORE POP PUSH1 0x60 DUP3 ADD CALLDATALOAD PUSH8 0xFFFFFFFFFFFFFFFF DUP2 GT ISZERO PUSH2 0x1402 JUMPI PUSH1 0x0 DUP1 REVERT JUMPDEST PUSH2 0x140E DUP5 DUP3 DUP6 ADD PUSH2 0x12B9 JUMP JUMPDEST PUSH1 0x60 DUP4 ADD MSTORE POP PUSH1 0x80 PUSH2 0x1422 DUP5 DUP3 DUP6 ADD PUSH2 0x19D8 JUMP JUMPDEST PUSH1 0x80 DUP4 ADD MSTORE POP SWAP3 SWAP2 POP POP JUMP JUMPDEST PUSH1 0x0 PUSH2 0x1E0 DUP3 DUP5 SUB SLT ISZERO PUSH2 0x1441 JUMPI PUSH1 0x0 DUP1 REVERT JUMPDEST PUSH2 0x144C PUSH2 0x1C0 PUSH2 0x2166 JUMP JUMPDEST SWAP1 POP PUSH1 0x0 PUSH2 0x145C DUP5 DUP3 DUP6 ADD PUSH2 0x19AE JUMP JUMPDEST PUSH1 0x0 DUP4 ADD MSTORE POP PUSH1 0x20 PUSH2 0x1470 DUP5 DUP3 DUP6 ADD PUSH2 0x19AE JUMP JUMPDEST PUSH1 0x20 DUP4 ADD MSTORE POP PUSH1 0x40 PUSH2 0x1484 DUP5 DUP3 DUP6 ADD PUSH2 0x11FC JUMP JUMPDEST PUSH1 0x40 DUP4 ADD MSTORE POP PUSH1 0x60 PUSH2 0x1498 DUP5 DUP3 DUP6 ADD PUSH2 0x19D8 JUMP JUMPDEST PUSH1 0x60 DUP4 ADD MSTORE POP PUSH1 0x80 PUSH2 0x14AC DUP5 DUP3 DUP6 ADD PUSH2 0x19D8 JUMP JUMPDEST PUSH1 0x80 DUP4 ADD MSTORE POP PUSH1 0xA0 PUSH2 0x14C0 DUP5 DUP3 DUP6 ADD PUSH2 0x11FC JUMP JUMPDEST PUSH1 0xA0 DUP4 ADD MSTORE POP PUSH1 0xC0 PUSH2 0x14D4 DUP5 DUP3 DUP6 ADD PUSH2 0x11FC JUMP JUMPDEST PUSH1 0xC0 DUP4 ADD MSTORE POP PUSH1 0xE0 PUSH2 0x14E8 DUP5 DUP3 DUP6 ADD PUSH2 0x19D8 JUMP JUMPDEST PUSH1 0xE0 DUP4 ADD MSTORE POP PUSH2 0x100 DUP3 ADD CALLDATALOAD PUSH8 0xFFFFFFFFFFFFFFFF DUP2 GT ISZERO PUSH2 0x1509 JUMPI PUSH1 0x0 DUP1 REVERT JUMPDEST PUSH2 0x1515 DUP5 DUP3 DUP6 ADD PUSH2 0x1265 JUMP JUMPDEST PUSH2 0x100 DUP4 ADD MSTORE POP PUSH2 0x120 DUP3 ADD CALLDATALOAD PUSH8 0xFFFFFFFFFFFFFFFF DUP2 GT ISZERO PUSH2 0x1537 JUMPI PUSH1 0x0 DUP1 REVERT JUMPDEST PUSH2 0x1543 DUP5 DUP3 DUP6 ADD PUSH2 0x1265 JUMP JUMPDEST PUSH2 0x120 DUP4 ADD MSTORE POP PUSH2 0x140 PUSH2 0x1559 DUP5 DUP3 DUP6 ADD PUSH2 0x12E3 JUMP JUMPDEST PUSH2 0x140 DUP4 ADD MSTORE POP PUSH2 0x160 DUP3 ADD CALLDATALOAD PUSH8 0xFFFFFFFFFFFFFFFF DUP2 GT ISZERO PUSH2 0x157B JUMPI PUSH1 0x0 DUP1 REVERT JUMPDEST PUSH2 0x1587 DUP5 DUP3 DUP6 ADD PUSH2 0x1265 JUMP JUMPDEST PUSH2 0x160 DUP4 ADD MSTORE POP PUSH2 0x180 PUSH2 0x159D DUP5 DUP3 DUP6 ADD PUSH2 0x1962 JUMP JUMPDEST PUSH2 0x180 DUP4 ADD MSTORE POP PUSH2 0x1C0 PUSH2 0x15B3 DUP5 DUP3 DUP6 ADD PUSH2 0x1361 JUMP JUMPDEST PUSH2 0x1A0 DUP4 ADD MSTORE POP SWAP3 SWAP2 POP POP JUMP JUMPDEST PUSH1 0x0 PUSH1 0x40 DUP3 DUP5 SUB SLT ISZERO PUSH2 0x15D2 JUMPI PUSH1 0x0 DUP1 REVERT JUMPDEST PUSH2 0x15DC PUSH1 0x40 PUSH2 0x2166 JUMP JUMPDEST SWAP1 POP PUSH1 0x0 PUSH2 0x15EC DUP5 DUP3 DUP6 ADD PUSH2 0x11FC JUMP JUMPDEST PUSH1 0x0 DUP4 ADD MSTORE POP PUSH1 0x20 PUSH2 0x1600 DUP5 DUP3 DUP6 ADD PUSH2 0x1A02 JUMP JUMPDEST PUSH1 0x20 DUP4 ADD MSTORE POP SWAP3 SWAP2 POP POP JUMP JUMPDEST PUSH1 0x0 PUSH1 0x80 DUP3 DUP5 SUB SLT ISZERO PUSH2 0x161E JUMPI PUSH1 0x0 DUP1 REVERT JUMPDEST PUSH2 0x1628 PUSH1 0x80 PUSH2 0x2166 JUMP JUMPDEST SWAP1 POP PUSH1 0x0 PUSH2 0x1638 DUP5 DUP3 DUP6 ADD PUSH2 0x1A17 JUMP JUMPDEST PUSH1 0x0 DUP4 ADD MSTORE POP PUSH1 0x20 PUSH2 0x164C DUP5 DUP3 DUP6 ADD PUSH2 0x19D8 JUMP JUMPDEST PUSH1 0x20 DUP4 ADD MSTORE POP PUSH1 0x40 PUSH2 0x1660 DUP5 DUP3 DUP6 ADD PUSH2 0x19D8 JUMP JUMPDEST PUSH1 0x40 DUP4 ADD MSTORE POP PUSH1 0x60 DUP3 ADD CALLDATALOAD PUSH8 0xFFFFFFFFFFFFFFFF DUP2 GT ISZERO PUSH2 0x1680 JUMPI PUSH1 0x0 DUP1 REVERT JUMPDEST PUSH2 0x168C DUP5 DUP3 DUP6 ADD PUSH2 0x1211 JUMP JUMPDEST PUSH1 0x60 DUP4 ADD MSTORE POP SWAP3 SWAP2 POP POP JUMP JUMPDEST PUSH1 0x0 PUSH1 0x80 DUP3 DUP5 SUB SLT ISZERO PUSH2 0x16AA JUMPI PUSH1 0x0 DUP1 REVERT JUMPDEST PUSH2 0x16B4 PUSH1 0x80 PUSH2 0x2166 JUMP JUMPDEST SWAP1 POP PUSH1 0x0 PUSH2 0x16C4 DUP5 DUP3 DUP6 ADD PUSH2 0x1A17 JUMP JUMPDEST PUSH1 0x0 DUP4 ADD MSTORE POP PUSH1 0x20 PUSH2 0x16D8 DUP5 DUP3 DUP6 ADD PUSH2 0x1A17 JUMP JUMPDEST PUSH1 0x20 DUP4 ADD MSTORE POP PUSH1 0x40 DUP3 ADD CALLDATALOAD PUSH8 0xFFFFFFFFFFFFFFFF DUP2 GT ISZERO PUSH2 0x16F8 JUMPI PUSH1 0x0 DUP1 REVERT JUMPDEST PUSH2 0x1704 DUP5 DUP3 DUP6 ADD PUSH2 0x12B9 JUMP JUMPDEST PUSH1 0x40 DUP4 ADD MSTORE POP PUSH1 0x60 DUP3 ADD CALLDATALOAD PUSH8 0xFFFFFFFFFFFFFFFF DUP2 GT ISZERO PUSH2 0x1724 JUMPI PUSH1 0x0 DUP1 REVERT JUMPDEST PUSH2 0x1730 DUP5 DUP3 DUP6 ADD PUSH2 0x123B JUMP JUMPDEST PUSH1 0x60 DUP4 ADD MSTORE POP SWAP3 SWAP2 POP POP JUMP JUMPDEST PUSH1 0x0 PUSH1 0xC0 DUP3 DUP5 SUB SLT ISZERO PUSH2 0x174E JUMPI PUSH1 0x0 DUP1 REVERT JUMPDEST PUSH2 0x1758 PUSH1 0xC0 PUSH2 0x2166 JUMP JUMPDEST SWAP1 POP PUSH1 0x0 PUSH2 0x1768 DUP5 DUP3 DUP6 ADD PUSH2 0x19C3 JUMP JUMPDEST PUSH1 0x0 DUP4 ADD MSTORE POP PUSH1 0x20 PUSH2 0x177C DUP5 DUP3 DUP6 ADD PUSH2 0x12E3 JUMP JUMPDEST PUSH1 0x20 DUP4 ADD MSTORE POP PUSH1 0x40 PUSH2 0x1790 DUP5 DUP3 DUP6 ADD PUSH2 0x19C3 JUMP JUMPDEST PUSH1 0x40 DUP4 ADD MSTORE POP PUSH1 0x60 DUP3 ADD CALLDATALOAD PUSH8 0xFFFFFFFFFFFFFFFF DUP2 GT ISZERO PUSH2 0x17B0 JUMPI PUSH1 0x0 DUP1 REVERT JUMPDEST PUSH2 0x17BC DUP5 DUP3 DUP6 ADD PUSH2 0x142E JUMP JUMPDEST PUSH1 0x60 DUP4 ADD MSTORE POP PUSH1 0x80 DUP3 ADD CALLDATALOAD PUSH8 0xFFFFFFFFFFFFFFFF DUP2 GT ISZERO PUSH2 0x17DC JUMPI PUSH1 0x0 DUP1 REVERT JUMPDEST PUSH2 0x17E8 DUP5 DUP3 DUP6 ADD PUSH2 0x1698 JUMP JUMPDEST PUSH1 0x80 DUP4 ADD MSTORE POP PUSH1 0xA0 DUP3 ADD CALLDATALOAD PUSH8 0xFFFFFFFFFFFFFFFF DUP2 GT ISZERO PUSH2 0x1808 JUMPI PUSH1 0x0 DUP1 REVERT JUMPDEST PUSH2 0x1814 DUP5 DUP3 DUP6 ADD PUSH2 0x128F JUMP JUMPDEST PUSH1 0xA0 DUP4 ADD MSTORE POP SWAP3 SWAP2 POP POP JUMP JUMPDEST PUSH1 0x0 PUSH2 0x160 DUP3 DUP5 SUB SLT ISZERO PUSH2 0x1833 JUMPI PUSH1 0x0 DUP1 REVERT JUMPDEST PUSH2 0x183E PUSH2 0x120 PUSH2 0x2166 JUMP JUMPDEST SWAP1 POP PUSH1 0x0 PUSH2 0x184E DUP5 DUP3 DUP6 ADD PUSH2 0x19D8 JUMP JUMPDEST PUSH1 0x0 DUP4 ADD MSTORE POP PUSH1 0x20 PUSH2 0x1862 DUP5 DUP3 DUP6 ADD PUSH2 0x15C0 JUMP JUMPDEST PUSH1 0x20 DUP4 ADD MSTORE POP PUSH1 0x60 PUSH2 0x1876 DUP5 DUP3 DUP6 ADD PUSH2 0x19D8 JUMP JUMPDEST PUSH1 0x40 DUP4 ADD MSTORE POP PUSH1 0x80 PUSH2 0x188A DUP5 DUP3 DUP6 ADD PUSH2 0x11FC JUMP JUMPDEST PUSH1 0x60 DUP4 ADD MSTORE POP PUSH1 0xA0 PUSH2 0x189E DUP5 DUP3 DUP6 ADD PUSH2 0x19C3 JUMP JUMPDEST PUSH1 0x80 DUP4 ADD MSTORE POP PUSH1 0xC0 PUSH2 0x18B2 DUP5 DUP3 DUP6 ADD PUSH2 0x1962 JUMP JUMPDEST PUSH1 0xA0 DUP4 ADD MSTORE POP PUSH2 0x100 PUSH2 0x18C7 DUP5 DUP3 DUP6 ADD PUSH2 0x11FC JUMP JUMPDEST PUSH1 0xC0 DUP4 ADD MSTORE POP PUSH2 0x120 PUSH2 0x18DC DUP5 DUP3 DUP6 ADD PUSH2 0x11FC JUMP JUMPDEST PUSH1 0xE0 DUP4 ADD MSTORE POP PUSH2 0x140 PUSH2 0x18F1 DUP5 DUP3 DUP6 ADD PUSH2 0x11FC JUMP JUMPDEST PUSH2 0x100 DUP4 ADD MSTORE POP SWAP3 SWAP2 POP POP JUMP JUMPDEST PUSH1 0x0 PUSH1 0x40 DUP3 DUP5 SUB SLT ISZERO PUSH2 0x1910 JUMPI PUSH1 0x0 DUP1 REVERT JUMPDEST PUSH2 0x191A PUSH1 0x40 PUSH2 0x2166 JUMP JUMPDEST SWAP1 POP PUSH1 0x0 PUSH2 0x192A DUP5 DUP3 DUP6 ADD PUSH2 0x1A17 JUMP JUMPDEST PUSH1 0x0 DUP4 ADD MSTORE POP PUSH1 0x20 DUP3 ADD CALLDATALOAD PUSH8 0xFFFFFFFFFFFFFFFF DUP2 GT ISZERO PUSH2 0x194A JUMPI PUSH1 0x0 DUP1 REVERT JUMPDEST PUSH2 0x1956 DUP5 DUP3 DUP6 ADD PUSH2 0x160C JUMP JUMPDEST PUSH1 0x20 DUP4 ADD MSTORE POP SWAP3 SWAP2 POP POP JUMP JUMPDEST PUSH1 0x0 PUSH1 0x40 DUP3 DUP5 SUB SLT ISZERO PUSH2 0x1974 JUMPI PUSH1 0x0 DUP1 REVERT JUMPDEST PUSH2 0x197E PUSH1 0x40 PUSH2 0x2166 JUMP JUMPDEST SWAP1 POP PUSH1 0x0 PUSH2 0x198E DUP5 DUP3 DUP6 ADD PUSH2 0x1A17 JUMP JUMPDEST PUSH1 0x0 DUP4 ADD MSTORE POP PUSH1 0x20 PUSH2 0x19A2 DUP5 DUP3 DUP6 ADD PUSH2 0x11FC JUMP JUMPDEST PUSH1 0x20 DUP4 ADD MSTORE POP SWAP3 SWAP2 POP POP JUMP JUMPDEST PUSH1 0x0 DUP2 CALLDATALOAD SWAP1 POP PUSH2 0x19BD DUP2 PUSH2 0x244B JUMP JUMPDEST SWAP3 SWAP2 POP POP JUMP JUMPDEST PUSH1 0x0 DUP2 CALLDATALOAD SWAP1 POP PUSH2 0x19D2 DUP2 PUSH2 0x2462 JUMP JUMPDEST SWAP3 SWAP2 POP POP JUMP JUMPDEST PUSH1 0x0 DUP2 CALLDATALOAD SWAP1 POP PUSH2 0x19E7 DUP2 PUSH2 0x2479 JUMP JUMPDEST SWAP3 SWAP2 POP POP JUMP JUMPDEST PUSH1 0x0 DUP2 MLOAD SWAP1 POP PUSH2 0x19FC DUP2 PUSH2 0x2479 JUMP JUMPDEST SWAP3 SWAP2 POP POP JUMP JUMPDEST PUSH1 0x0 DUP2 CALLDATALOAD SWAP1 POP PUSH2 0x1A11 DUP2 PUSH2 0x2490 JUMP JUMPDEST SWAP3 SWAP2 POP POP JUMP JUMPDEST PUSH1 0x0 DUP2 CALLDATALOAD SWAP1 POP PUSH2 0x1A26 DUP2 PUSH2 0x24A7 JUMP JUMPDEST SWAP3 SWAP2 POP POP JUMP JUMPDEST PUSH1 0x0 PUSH1 0x20 DUP3 DUP5 SUB SLT ISZERO PUSH2 0x1A3E JUMPI PUSH1 0x0 DUP1 REVERT JUMPDEST PUSH1 0x0 DUP3 ADD CALLDATALOAD PUSH8 0xFFFFFFFFFFFFFFFF DUP2 GT ISZERO PUSH2 0x1A58 JUMPI PUSH1 0x0 DUP1 REVERT JUMPDEST PUSH2 0x1A64 DUP5 DUP3 DUP6 ADD PUSH2 0x128F JUMP JUMPDEST SWAP2 POP POP SWAP3 SWAP2 POP POP JUMP JUMPDEST PUSH1 0x0 PUSH1 0x20 DUP3 DUP5 SUB SLT ISZERO PUSH2 0x1A7F JUMPI PUSH1 0x0 DUP1 REVERT JUMPDEST PUSH1 0x0 PUSH2 0x1A8D DUP5 DUP3 DUP6 ADD PUSH2 0x12E3 JUMP JUMPDEST SWAP2 POP POP SWAP3 SWAP2 POP POP JUMP JUMPDEST PUSH1 0x0 PUSH1 0x20 DUP3 DUP5 SUB SLT ISZERO PUSH2 0x1AA8 JUMPI PUSH1 0x0 DUP1 REVERT JUMPDEST PUSH1 0x0 PUSH2 0x1AB6 DUP5 DUP3 DUP6 ADD PUSH2 0x12F8 JUMP JUMPDEST SWAP2 POP POP SWAP3 SWAP2 POP POP JUMP JUMPDEST PUSH1 0x0 DUP1 PUSH1 0x40 DUP4 DUP6 SUB SLT ISZERO PUSH2 0x1AD2 JUMPI PUSH1 0x0 DUP1 REVERT JUMPDEST PUSH1 0x0 PUSH2 0x1AE0 DUP6 DUP3 DUP7 ADD PUSH2 0x12E3 JUMP JUMPDEST SWAP3 POP POP PUSH1 0x20 DUP4 ADD CALLDATALOAD PUSH8 0xFFFFFFFFFFFFFFFF DUP2 GT ISZERO PUSH2 0x1AFD JUMPI PUSH1 0x0 DUP1 REVERT JUMPDEST PUSH2 0x1B09 DUP6 DUP3 DUP7 ADD PUSH2 0x12B9 JUMP JUMPDEST SWAP2 POP POP SWAP3 POP SWAP3 SWAP1 POP JUMP JUMPDEST PUSH1 0x0 DUP1 PUSH1 0x40 DUP4 DUP6 SUB SLT ISZERO PUSH2 0x1B26 JUMPI PUSH1 0x0 DUP1 REVERT JUMPDEST PUSH1 0x0 PUSH2 0x1B34 DUP6 DUP3 DUP7 ADD PUSH2 0x12E3 JUMP JUMPDEST SWAP3 POP POP PUSH1 0x20 DUP4 ADD CALLDATALOAD PUSH8 0xFFFFFFFFFFFFFFFF DUP2 GT ISZERO PUSH2 0x1B51 JUMPI PUSH1 0x0 DUP1 REVERT JUMPDEST PUSH2 0x1B5D DUP6 DUP3 DUP7 ADD PUSH2 0x160C JUMP JUMPDEST SWAP2 POP POP SWAP3 POP SWAP3 SWAP1 POP JUMP JUMPDEST PUSH1 0x0 PUSH1 0x20 DUP3 DUP5 SUB SLT ISZERO PUSH2 0x1B79 JUMPI PUSH1 0x0 DUP1 REVERT JUMPDEST PUSH1 0x0 DUP3 ADD MLOAD PUSH8 0xFFFFFFFFFFFFFFFF DUP2 GT ISZERO PUSH2 0x1B93 JUMPI PUSH1 0x0 DUP1 REVERT JUMPDEST PUSH2 0x1B9F DUP5 DUP3 DUP6 ADD PUSH2 0x1337 JUMP JUMPDEST SWAP2 POP POP SWAP3 SWAP2 POP POP JUMP JUMPDEST PUSH1 0x0 PUSH1 0x20 DUP3 DUP5 SUB SLT ISZERO PUSH2 0x1BBA JUMPI PUSH1 0x0 DUP1 REVERT JUMPDEST PUSH1 0x0 DUP3 ADD CALLDATALOAD PUSH8 0xFFFFFFFFFFFFFFFF DUP2 GT ISZERO PUSH2 0x1BD4 JUMPI PUSH1 0x0 DUP1 REVERT JUMPDEST PUSH2 0x1BE0 DUP5 DUP3 DUP6 ADD PUSH2 0x173C JUMP JUMPDEST SWAP2 POP POP SWAP3 SWAP2 POP POP JUMP JUMPDEST PUSH1 0x0 PUSH1 0x20 DUP3 DUP5 SUB SLT ISZERO PUSH2 0x1BFB JUMPI PUSH1 0x0 DUP1 REVERT JUMPDEST PUSH1 0x0 PUSH2 0x1C09 DUP5 DUP3 DUP6 ADD PUSH2 0x19C3 JUMP JUMPDEST SWAP2 POP POP SWAP3 SWAP2 POP POP JUMP JUMPDEST PUSH1 0x0 PUSH1 0x20 DUP3 DUP5 SUB SLT ISZERO PUSH2 0x1C24 JUMPI PUSH1 0x0 DUP1 REVERT JUMPDEST PUSH1 0x0 PUSH2 0x1C32 DUP5 DUP3 DUP6 ADD PUSH2 0x19ED JUMP JUMPDEST SWAP2 POP POP SWAP3 SWAP2 POP POP JUMP JUMPDEST PUSH1 0x0 PUSH2 0x1C47 DUP4 DUP4 PUSH2 0x1EC4 JUMP JUMPDEST PUSH2 0x160 DUP4 ADD SWAP1 POP SWAP3 SWAP2 POP POP JUMP JUMPDEST PUSH2 0x1C5D DUP2 PUSH2 0x2309 JUMP JUMPDEST DUP3 MSTORE POP POP JUMP JUMPDEST PUSH1 0x0 PUSH2 0x1C6E DUP3 PUSH2 0x22B3 JUMP JUMPDEST PUSH2 0x1C78 DUP2 DUP6 PUSH2 0x22D6 JUMP JUMPDEST SWAP4 POP PUSH2 0x1C83 DUP4 PUSH2 0x22A3 JUMP JUMPDEST DUP1 PUSH1 0x0 JUMPDEST DUP4 DUP2 LT ISZERO PUSH2 0x1CB4 JUMPI DUP2 MLOAD PUSH2 0x1C9B DUP9 DUP3 PUSH2 0x1C3B JUMP JUMPDEST SWAP8 POP PUSH2 0x1CA6 DUP4 PUSH2 0x22C9 JUMP JUMPDEST SWAP3 POP POP PUSH1 0x1 DUP2 ADD SWAP1 POP PUSH2 0x1C87 JUMP JUMPDEST POP DUP6 SWAP4 POP POP POP POP SWAP3 SWAP2 POP POP JUMP JUMPDEST PUSH2 0x1CCA DUP2 PUSH2 0x231B JUMP JUMPDEST DUP3 MSTORE POP POP JUMP JUMPDEST PUSH2 0x1CD9 DUP2 PUSH2 0x2327 JUMP JUMPDEST DUP3 MSTORE POP POP JUMP JUMPDEST PUSH2 0x1CF0 PUSH2 0x1CEB DUP3 PUSH2 0x2327 JUMP JUMPDEST PUSH2 0x23E9 JUMP JUMPDEST DUP3 MSTORE POP POP JUMP JUMPDEST PUSH1 0x0 PUSH2 0x1D01 DUP3 PUSH2 0x22BE JUMP JUMPDEST PUSH2 0x1D0B DUP2 DUP6 PUSH2 0x22E7 JUMP JUMPDEST SWAP4 POP PUSH2 0x1D1B DUP2 DUP6 PUSH1 0x20 DUP7 ADD PUSH2 0x23B6 JUMP JUMPDEST PUSH2 0x1D24 DUP2 PUSH2 0x23F5 JUMP JUMPDEST DUP5 ADD SWAP2 POP POP SWAP3 SWAP2 POP POP JUMP JUMPDEST PUSH1 0x0 PUSH2 0x1D3C PUSH1 0x1C DUP4 PUSH2 0x22F8 JUMP JUMPDEST SWAP2 POP PUSH32 0x4272616E6368206D757374206265206C6F6E676572207468616E203000000000 PUSH1 0x0 DUP4 ADD MSTORE PUSH1 0x20 DUP3 ADD SWAP1 POP SWAP2 SWAP1 POP JUMP JUMPDEST PUSH1 0x0 PUSH2 0x1D7C PUSH1 0xE DUP4 PUSH2 0x22F8 JUMP JUMPDEST SWAP2 POP PUSH32 0x736C6963655F6F766572666C6F77000000000000000000000000000000000000 PUSH1 0x0 DUP4 ADD MSTORE PUSH1 0x20 DUP3 ADD SWAP1 POP SWAP2 SWAP1 POP JUMP JUMPDEST PUSH1 0x0 PUSH2 0x1DBC PUSH1 0x31 DUP4 PUSH2 0x22F8 JUMP JUMPDEST SWAP2 POP PUSH32 0x56616C75652063616E20626520657175616C20746F206E6F646520627574206E PUSH1 0x0 DUP4 ADD MSTORE PUSH32 0x65766572206F6E20746865207269676874000000000000000000000000000000 PUSH1 0x20 DUP4 ADD MSTORE PUSH1 0x40 DUP3 ADD SWAP1 POP SWAP2 SWAP1 POP JUMP JUMPDEST PUSH1 0x0 PUSH2 0x1E22 PUSH1 0x11 DUP4 PUSH2 0x22F8 JUMP JUMPDEST SWAP2 POP PUSH32 0x736C6963655F6F75744F66426F756E6473000000000000000000000000000000 PUSH1 0x0 DUP4 ADD MSTORE PUSH1 0x20 DUP3 ADD SWAP1 POP SWAP2 SWAP1 POP JUMP JUMPDEST PUSH1 0x0 PUSH2 0x1E62 PUSH1 0x1B DUP4 PUSH2 0x22F8 JUMP JUMPDEST SWAP2 POP PUSH32 0x496E6465782063616E6E6F74206265206C657373207468616E20300000000000 PUSH1 0x0 DUP4 ADD MSTORE PUSH1 0x20 DUP3 ADD SWAP1 POP SWAP2 SWAP1 POP JUMP JUMPDEST PUSH1 0x40 DUP3 ADD PUSH1 0x0 DUP3 ADD MLOAD PUSH2 0x1EAB PUSH1 0x0 DUP6 ADD DUP3 PUSH2 0x1C54 JUMP JUMPDEST POP PUSH1 0x20 DUP3 ADD MLOAD PUSH2 0x1EBE PUSH1 0x20 DUP6 ADD DUP3 PUSH2 0x1FD9 JUMP JUMPDEST POP POP POP POP JUMP JUMPDEST PUSH2 0x160 DUP3 ADD PUSH1 0x0 DUP3 ADD MLOAD PUSH2 0x1EDB PUSH1 0x0 DUP6 ADD DUP3 PUSH2 0x1FBB JUMP JUMPDEST POP PUSH1 0x20 DUP3 ADD MLOAD PUSH2 0x1EEE PUSH1 0x20 DUP6 ADD DUP3 PUSH2 0x1E95 JUMP JUMPDEST POP PUSH1 0x40 DUP3 ADD MLOAD PUSH2 0x1F01 PUSH1 0x60 DUP6 ADD DUP3 PUSH2 0x1FBB JUMP JUMPDEST POP PUSH1 0x60 DUP3 ADD MLOAD PUSH2 0x1F14 PUSH1 0x80 DUP6 ADD DUP3 PUSH2 0x1C54 JUMP JUMPDEST POP PUSH1 0x80 DUP3 ADD MLOAD PUSH2 0x1F27 PUSH1 0xA0 DUP6 ADD DUP3 PUSH2 0x1FAC JUMP JUMPDEST POP PUSH1 0xA0 DUP3 ADD MLOAD PUSH2 0x1F3A PUSH1 0xC0 DUP6 ADD DUP3 PUSH2 0x1F7D JUMP JUMPDEST POP PUSH1 0xC0 DUP3 ADD MLOAD PUSH2 0x1F4E PUSH2 0x100 DUP6 ADD DUP3 PUSH2 0x1C54 JUMP JUMPDEST POP PUSH1 0xE0 DUP3 ADD MLOAD PUSH2 0x1F62 PUSH2 0x120 DUP6 ADD DUP3 PUSH2 0x1C54 JUMP JUMPDEST POP PUSH2 0x100 DUP3 ADD MLOAD PUSH2 0x1F77 PUSH2 0x140 DUP6 ADD DUP3 PUSH2 0x1C54 JUMP JUMPDEST POP POP POP POP JUMP JUMPDEST PUSH1 0x40 DUP3 ADD PUSH1 0x0 DUP3 ADD MLOAD PUSH2 0x1F93 PUSH1 0x0 DUP6 ADD DUP3 PUSH2 0x1FE8 JUMP JUMPDEST POP PUSH1 0x20 DUP3 ADD MLOAD PUSH2 0x1FA6 PUSH1 0x20 DUP6 ADD DUP3 PUSH2 0x1C54 JUMP JUMPDEST POP POP POP POP JUMP JUMPDEST PUSH2 0x1FB5 DUP2 PUSH2 0x236C JUMP JUMPDEST DUP3 MSTORE POP POP JUMP JUMPDEST PUSH2 0x1FC4 DUP2 PUSH2 0x2376 JUMP JUMPDEST DUP3 MSTORE POP POP JUMP JUMPDEST PUSH2 0x1FD3 DUP2 PUSH2 0x2376 JUMP JUMPDEST DUP3 MSTORE POP POP JUMP JUMPDEST PUSH2 0x1FE2 DUP2 PUSH2 0x2386 JUMP JUMPDEST DUP3 MSTORE POP POP JUMP JUMPDEST PUSH2 0x1FF1 DUP2 PUSH2 0x239A JUMP JUMPDEST DUP3 MSTORE POP POP JUMP JUMPDEST PUSH1 0x0 PUSH2 0x2003 DUP3 DUP6 PUSH2 0x1CDF JUMP JUMPDEST PUSH1 0x20 DUP3 ADD SWAP2 POP PUSH2 0x2013 DUP3 DUP5 PUSH2 0x1CDF JUMP JUMPDEST PUSH1 0x20 DUP3 ADD SWAP2 POP DUP2 SWAP1 POP SWAP4 SWAP3 POP POP POP JUMP JUMPDEST PUSH1 0x0 PUSH1 0x40 DUP3 ADD SWAP1 POP DUP2 DUP2 SUB PUSH1 0x0 DUP4 ADD MSTORE PUSH2 0x203D DUP2 DUP6 PUSH2 0x1C63 JUMP JUMPDEST SWAP1 POP PUSH2 0x204C PUSH1 0x20 DUP4 ADD DUP5 PUSH2 0x1CC1 JUMP JUMPDEST SWAP4 SWAP3 POP POP POP JUMP JUMPDEST PUSH1 0x0 PUSH1 0x20 DUP3 ADD SWAP1 POP PUSH2 0x2068 PUSH1 0x0 DUP4 ADD DUP5 PUSH2 0x1CC1 JUMP JUMPDEST SWAP3 SWAP2 POP POP JUMP JUMPDEST PUSH1 0x0 PUSH1 0x20 DUP3 ADD SWAP1 POP PUSH2 0x2083 PUSH1 0x0 DUP4 ADD DUP5 PUSH2 0x1CD0 JUMP JUMPDEST SWAP3 SWAP2 POP POP JUMP JUMPDEST PUSH1 0x0 PUSH1 0x20 DUP3 ADD SWAP1 POP DUP2 DUP2 SUB PUSH1 0x0 DUP4 ADD MSTORE PUSH2 0x20A3 DUP2 DUP5 PUSH2 0x1CF6 JUMP JUMPDEST SWAP1 POP SWAP3 SWAP2 POP POP JUMP JUMPDEST PUSH1 0x0 PUSH1 0x20 DUP3 ADD SWAP1 POP DUP2 DUP2 SUB PUSH1 0x0 DUP4 ADD MSTORE PUSH2 0x20C4 DUP2 PUSH2 0x1D2F JUMP JUMPDEST SWAP1 POP SWAP2 SWAP1 POP JUMP JUMPDEST PUSH1 0x0 PUSH1 0x20 DUP3 ADD SWAP1 POP DUP2 DUP2 SUB PUSH1 0x0 DUP4 ADD MSTORE PUSH2 0x20E4 DUP2 PUSH2 0x1D6F JUMP JUMPDEST SWAP1 POP SWAP2 SWAP1 POP JUMP JUMPDEST PUSH1 0x0 PUSH1 0x20 DUP3 ADD SWAP1 POP DUP2 DUP2 SUB PUSH1 0x0 DUP4 ADD MSTORE PUSH2 0x2104 DUP2 PUSH2 0x1DAF JUMP JUMPDEST SWAP1 POP SWAP2 SWAP1 POP JUMP JUMPDEST PUSH1 0x0 PUSH1 0x20 DUP3 ADD SWAP1 POP DUP2 DUP2 SUB PUSH1 0x0 DUP4 ADD MSTORE PUSH2 0x2124 DUP2 PUSH2 0x1E15 JUMP JUMPDEST SWAP1 POP SWAP2 SWAP1 POP JUMP JUMPDEST PUSH1 0x0 PUSH1 0x20 DUP3 ADD SWAP1 POP DUP2 DUP2 SUB PUSH1 0x0 DUP4 ADD MSTORE PUSH2 0x2144 DUP2 PUSH2 0x1E55 JUMP JUMPDEST SWAP1 POP SWAP2 SWAP1 POP JUMP JUMPDEST PUSH1 0x0 PUSH1 0x20 DUP3 ADD SWAP1 POP PUSH2 0x2160 PUSH1 0x0 DUP4 ADD DUP5 PUSH2 0x1FCA JUMP JUMPDEST SWAP3 SWAP2 POP POP JUMP JUMPDEST PUSH1 0x0 PUSH1 0x40 MLOAD SWAP1 POP DUP2 DUP2 ADD DUP2 DUP2 LT PUSH8 0xFFFFFFFFFFFFFFFF DUP3 GT OR ISZERO PUSH2 0x218D JUMPI PUSH2 0x218C PUSH2 0x23F3 JUMP JUMPDEST JUMPDEST DUP1 PUSH1 0x40 MSTORE POP SWAP2 SWAP1 POP JUMP JUMPDEST PUSH1 0x0 PUSH8 0xFFFFFFFFFFFFFFFF DUP3 GT ISZERO PUSH2 0x21B2 JUMPI PUSH2 0x21B1 PUSH2 0x23F3 JUMP JUMPDEST JUMPDEST PUSH1 0x20 DUP3 MUL SWAP1 POP PUSH1 0x20 DUP2 ADD SWAP1 POP SWAP2 SWAP1 POP JUMP JUMPDEST PUSH1 0x0 PUSH8 0xFFFFFFFFFFFFFFFF DUP3 GT ISZERO PUSH2 0x21DE JUMPI PUSH2 0x21DD PUSH2 0x23F3 JUMP JUMPDEST JUMPDEST PUSH1 0x20 DUP3 MUL SWAP1 POP PUSH1 0x20 DUP2 ADD SWAP1 POP SWAP2 SWAP1 POP JUMP JUMPDEST PUSH1 0x0 PUSH8 0xFFFFFFFFFFFFFFFF DUP3 GT ISZERO PUSH2 0x220A JUMPI PUSH2 0x2209 PUSH2 0x23F3 JUMP JUMPDEST JUMPDEST PUSH1 0x20 DUP3 MUL SWAP1 POP PUSH1 0x20 DUP2 ADD SWAP1 POP SWAP2 SWAP1 POP JUMP JUMPDEST PUSH1 0x0 PUSH8 0xFFFFFFFFFFFFFFFF DUP3 GT ISZERO PUSH2 0x2236 JUMPI PUSH2 0x2235 PUSH2 0x23F3 JUMP JUMPDEST JUMPDEST PUSH1 0x20 DUP3 MUL SWAP1 POP PUSH1 0x20 DUP2 ADD SWAP1 POP SWAP2 SWAP1 POP JUMP JUMPDEST PUSH1 0x0 PUSH8 0xFFFFFFFFFFFFFFFF DUP3 GT ISZERO PUSH2 0x2262 JUMPI PUSH2 0x2261 PUSH2 0x23F3 JUMP JUMPDEST JUMPDEST PUSH1 0x20 DUP3 MUL SWAP1 POP PUSH1 0x20 DUP2 ADD SWAP1 POP SWAP2 SWAP1 POP JUMP JUMPDEST PUSH1 0x0 PUSH8 0xFFFFFFFFFFFFFFFF DUP3 GT ISZERO PUSH2 0x228E JUMPI PUSH2 0x228D PUSH2 0x23F3 JUMP JUMPDEST JUMPDEST PUSH1 0x1F NOT PUSH1 0x1F DUP4 ADD AND SWAP1 POP PUSH1 0x20 DUP2 ADD SWAP1 POP SWAP2 SWAP1 POP JUMP JUMPDEST PUSH1 0x0 DUP2 SWAP1 POP PUSH1 0x20 DUP3 ADD SWAP1 POP SWAP2 SWAP1 POP JUMP JUMPDEST PUSH1 0x0 DUP2 MLOAD SWAP1 POP SWAP2 SWAP1 POP JUMP JUMPDEST PUSH1 0x0 DUP2 MLOAD SWAP1 POP SWAP2 SWAP1 POP JUMP JUMPDEST PUSH1 0x0 PUSH1 0x20 DUP3 ADD SWAP1 POP SWAP2 SWAP1 POP JUMP JUMPDEST PUSH1 0x0 DUP3 DUP3 MSTORE PUSH1 0x20 DUP3 ADD SWAP1 POP SWAP3 SWAP2 POP POP JUMP JUMPDEST PUSH1 0x0 DUP3 DUP3 MSTORE PUSH1 0x20 DUP3 ADD SWAP1 POP SWAP3 SWAP2 POP POP JUMP JUMPDEST PUSH1 0x0 DUP3 DUP3 MSTORE PUSH1 0x20 DUP3 ADD SWAP1 POP SWAP3 SWAP2 POP POP JUMP JUMPDEST PUSH1 0x0 PUSH2 0x2314 DUP3 PUSH2 0x234C JUMP JUMPDEST SWAP1 POP SWAP2 SWAP1 POP JUMP JUMPDEST PUSH1 0x0 DUP2 ISZERO ISZERO SWAP1 POP SWAP2 SWAP1 POP JUMP JUMPDEST PUSH1 0x0 DUP2 SWAP1 POP SWAP2 SWAP1 POP JUMP JUMPDEST PUSH1 0x0 DUP2 PUSH1 0x3 SIGNEXTEND SWAP1 POP SWAP2 SWAP1 POP JUMP JUMPDEST PUSH1 0x0 PUSH2 0xFFFF DUP3 AND SWAP1 POP SWAP2 SWAP1 POP JUMP JUMPDEST PUSH1 0x0 PUSH20 0xFFFFFFFFFFFFFFFFFFFFFFFFFFFFFFFFFFFFFFFF DUP3 AND SWAP1 POP SWAP2 SWAP1 POP JUMP JUMPDEST PUSH1 0x0 DUP2 SWAP1 POP SWAP2 SWAP1 POP JUMP JUMPDEST PUSH1 0x0 PUSH4 0xFFFFFFFF DUP3 AND SWAP1 POP SWAP2 SWAP1 POP JUMP JUMPDEST PUSH1 0x0 PUSH8 0xFFFFFFFFFFFFFFFF DUP3 AND SWAP1 POP SWAP2 SWAP1 POP JUMP JUMPDEST PUSH1 0x0 PUSH1 0xFF DUP3 AND SWAP1 POP SWAP2 SWAP1 POP JUMP JUMPDEST DUP3 DUP2 DUP4 CALLDATACOPY PUSH1 0x0 DUP4 DUP4 ADD MSTORE POP POP POP JUMP JUMPDEST PUSH1 0x0 JUMPDEST DUP4 DUP2 LT ISZERO PUSH2 0x23D4 JUMPI DUP1 DUP3 ADD MLOAD DUP2 DUP5 ADD MSTORE PUSH1 0x20 DUP2 ADD SWAP1 POP PUSH2 0x23B9 JUMP JUMPDEST DUP4 DUP2 GT ISZERO PUSH2 0x23E3 JUMPI PUSH1 0x0 DUP5 DUP5 ADD MSTORE JUMPDEST POP POP POP POP JUMP JUMPDEST PUSH1 0x0 DUP2 SWAP1 POP SWAP2 SWAP1 POP JUMP JUMPDEST INVALID JUMPDEST PUSH1 0x0 PUSH1 0x1F NOT PUSH1 0x1F DUP4 ADD AND SWAP1 POP SWAP2 SWAP1 POP JUMP JUMPDEST PUSH2 0x240F DUP2 PUSH2 0x2309 JUMP JUMPDEST DUP2 EQ PUSH2 0x241A JUMPI PUSH1 0x0 DUP1 REVERT JUMPDEST POP JUMP JUMPDEST PUSH2 0x2426 DUP2 PUSH2 0x2327 JUMP JUMPDEST DUP2 EQ PUSH2 0x2431 JUMPI PUSH1 0x0 DUP1 REVERT JUMPDEST POP JUMP JUMPDEST PUSH2 0x243D DUP2 PUSH2 0x2331 JUMP JUMPDEST DUP2 EQ PUSH2 0x2448 JUMPI PUSH1 0x0 DUP1 REVERT JUMPDEST POP JUMP JUMPDEST PUSH2 0x2454 DUP2 PUSH2 0x233E JUMP JUMPDEST DUP2 EQ PUSH2 0x245F JUMPI PUSH1 0x0 DUP1 REVERT JUMPDEST POP JUMP JUMPDEST PUSH2 0x246B DUP2 PUSH2 0x236C JUMP JUMPDEST DUP2 EQ PUSH2 0x2476 JUMPI PUSH1 0x0 DUP1 REVERT JUMPDEST POP JUMP JUMPDEST PUSH2 0x2482 DUP2 PUSH2 0x2376 JUMP JUMPDEST DUP2 EQ PUSH2 0x248D JUMPI PUSH1 0x0 DUP1 REVERT JUMPDEST POP JUMP JUMPDEST PUSH2 0x2499 DUP2 PUSH2 0x2386 JUMP JUMPDEST DUP2 EQ PUSH2 0x24A4 JUMPI PUSH1 0x0 DUP1 REVERT JUMPDEST POP JUMP JUMPDEST PUSH2 0x24B0 DUP2 PUSH2 0x239A JUMP JUMPDEST DUP2 EQ PUSH2 0x24BB JUMPI PUSH1 0x0 DUP1 REVERT JUMPDEST POP JUMP INVALID LOG2 PUSH5 0x6970667358 0x22 SLT KECCAK256 PUSH21 0xA4E9712C684C15AAB69A1F534C1372BFDB5738A4AF 0xCD 0xA8 0xD 0xAB SWAP12 INVALID 0xF DELEGATECALL DELEGATECALL GASPRICE PUSH5 0x736F6C6343 STOP SMOD MOD STOP CALLER "
		},
		"gasEstimates": {
			"creation": {
				"codeDepositCost": "1892000",
				"executionCost": "infinite",
				"totalCost": "infinite"
			},
			"external": {
				"checkBranch(bytes32,(uint8,uint32,uint32,bytes32[]))": "infinite",
				"checkProof(bytes32,(uint8,(uint8,uint32,uint32,bytes32[]))[])": "infinite",
				"checkTransfers((uint256,bytes32,uint256,(uint16,uint16,address,uint32,uint32,address,address,uint32,(address,uint64)[],(address,uint64)[],bytes32,(address,uint64)[],(uint8,address),int32),(uint8,uint8,(uint8,(uint8,uint32,uint32,bytes32[]))[],(uint8,uint8,bytes,(uint8,(uint8,uint32,uint32,bytes32[]))[],uint32)[]),(uint32,(address,uint64),uint32,address,uint256,(uint8,address),address,address,address)[]))": "infinite",
				"computedValues(uint256)": "2349",
				"flipBytes32(bytes32)": "infinite",
				"hashTransfers((uint32,(address,uint64),uint32,address,uint256,(uint8,address),address,address,address)[])": "infinite",
				"proveComponents((uint256,bytes32,uint256,(uint16,uint16,address,uint32,uint32,address,address,uint32,(address,uint64)[],(address,uint64)[],bytes32,(address,uint64)[],(uint8,address),int32),(uint8,uint8,(uint8,(uint8,uint32,uint32,bytes32[]))[],(uint8,uint8,bytes,(uint8,(uint8,uint32,uint32,bytes32[]))[],uint32)[]),(uint32,(address,uint64),uint32,address,uint256,(uint8,address),address,address,address)[]))": "infinite",
				"proveImports((uint256,bytes32,uint256,(uint16,uint16,address,uint32,uint32,address,address,uint32,(address,uint64)[],(address,uint64)[],bytes32,(address,uint64)[],(uint8,address),int32),(uint8,uint8,(uint8,(uint8,uint32,uint32,bytes32[]))[],(uint8,uint8,bytes,(uint8,(uint8,uint32,uint32,bytes32[]))[],uint32)[]),(uint32,(address,uint64),uint32,address,uint256,(uint8,address),address,address,address)[]))": "infinite",
				"proveTransaction((uint256,bytes32,uint256,(uint16,uint16,address,uint32,uint32,address,address,uint32,(address,uint64)[],(address,uint64)[],bytes32,(address,uint64)[],(uint8,address),int32),(uint8,uint8,(uint8,(uint8,uint32,uint32,bytes32[]))[],(uint8,uint8,bytes,(uint8,(uint8,uint32,uint32,bytes32[]))[],uint32)[]),(uint32,(address,uint64),uint32,address,uint256,(uint8,address),address,address,address)[]))": "infinite",
				"testHashedTransfers()": "1151",
				"testResult()": "1194",
				"testTransfers()": "infinite",
				"txValue()": "1195"
			},
			"internal": {
				"reverseuint256(uint256)": "236",
				"slice(bytes memory,uint256,uint256)": "infinite"
			}
		},
		"methodIdentifiers": {
			"checkBranch(bytes32,(uint8,uint32,uint32,bytes32[]))": "5981d41b",
			"checkProof(bytes32,(uint8,(uint8,uint32,uint32,bytes32[]))[])": "f8ba7192",
			"checkTransfers((uint256,bytes32,uint256,(uint16,uint16,address,uint32,uint32,address,address,uint32,(address,uint64)[],(address,uint64)[],bytes32,(address,uint64)[],(uint8,address),int32),(uint8,uint8,(uint8,(uint8,uint32,uint32,bytes32[]))[],(uint8,uint8,bytes,(uint8,(uint8,uint32,uint32,bytes32[]))[],uint32)[]),(uint32,(address,uint64),uint32,address,uint256,(uint8,address),address,address,address)[]))": "2a44f153",
			"computedValues(uint256)": "3192148c",
			"flipBytes32(bytes32)": "bc736c14",
			"hashTransfers((uint32,(address,uint64),uint32,address,uint256,(uint8,address),address,address,address)[])": "7f7ee3ef",
			"proveComponents((uint256,bytes32,uint256,(uint16,uint16,address,uint32,uint32,address,address,uint32,(address,uint64)[],(address,uint64)[],bytes32,(address,uint64)[],(uint8,address),int32),(uint8,uint8,(uint8,(uint8,uint32,uint32,bytes32[]))[],(uint8,uint8,bytes,(uint8,(uint8,uint32,uint32,bytes32[]))[],uint32)[]),(uint32,(address,uint64),uint32,address,uint256,(uint8,address),address,address,address)[]))": "9940b140",
			"proveImports((uint256,bytes32,uint256,(uint16,uint16,address,uint32,uint32,address,address,uint32,(address,uint64)[],(address,uint64)[],bytes32,(address,uint64)[],(uint8,address),int32),(uint8,uint8,(uint8,(uint8,uint32,uint32,bytes32[]))[],(uint8,uint8,bytes,(uint8,(uint8,uint32,uint32,bytes32[]))[],uint32)[]),(uint32,(address,uint64),uint32,address,uint256,(uint8,address),address,address,address)[]))": "8f59b004",
			"proveTransaction((uint256,bytes32,uint256,(uint16,uint16,address,uint32,uint32,address,address,uint32,(address,uint64)[],(address,uint64)[],bytes32,(address,uint64)[],(uint8,address),int32),(uint8,uint8,(uint8,(uint8,uint32,uint32,bytes32[]))[],(uint8,uint8,bytes,(uint8,(uint8,uint32,uint32,bytes32[]))[],uint32)[]),(uint32,(address,uint64),uint32,address,uint256,(uint8,address),address,address,address)[]))": "1b51ae44",
			"testHashedTransfers()": "b740965f",
			"testResult()": "8f1db79b",
			"testTransfers()": "317e325b",
			"txValue()": "c1d71858"
		}
	},
	"abi": [
		{
			"inputs": [
				{
					"internalType": "address",
					"name": "notarizerAddress",
					"type": "address"
				},
				{
					"internalType": "address",
					"name": "verusBLAKE2b",
					"type": "address"
				},
				{
					"internalType": "address",
					"name": "verusSerializerAddress",
					"type": "address"
				}
			],
			"stateMutability": "nonpayable",
			"type": "constructor"
		},
		{
			"anonymous": false,
			"inputs": [
				{
					"indexed": false,
					"internalType": "bytes32",
					"name": "newHash",
					"type": "bytes32"
				},
				{
					"indexed": false,
					"internalType": "uint8",
					"name": "eventType",
					"type": "uint8"
				}
			],
			"name": "HashEvent",
			"type": "event"
		},
		{
			"inputs": [
				{
					"internalType": "bytes32",
					"name": "_hashToCheck",
					"type": "bytes32"
				},
				{
					"components": [
						{
							"internalType": "uint8",
							"name": "CMerkleBranchBase",
							"type": "uint8"
						},
						{
							"internalType": "uint32",
							"name": "nIndex",
							"type": "uint32"
						},
						{
							"internalType": "uint32",
							"name": "nSize",
							"type": "uint32"
						},
						{
							"internalType": "bytes32[]",
							"name": "branch",
							"type": "bytes32[]"
						}
					],
					"internalType": "struct VerusObjects.CMerkleBranch",
					"name": "_branch",
					"type": "tuple"
				}
			],
			"name": "checkBranch",
			"outputs": [
				{
					"internalType": "bytes32",
					"name": "",
					"type": "bytes32"
				}
			],
			"stateMutability": "view",
			"type": "function"
		},
		{
			"inputs": [
				{
					"internalType": "bytes32",
					"name": "hashToProve",
					"type": "bytes32"
				},
				{
					"components": [
						{
							"internalType": "uint8",
							"name": "branchType",
							"type": "uint8"
						},
						{
							"components": [
								{
									"internalType": "uint8",
									"name": "CMerkleBranchBase",
									"type": "uint8"
								},
								{
									"internalType": "uint32",
									"name": "nIndex",
									"type": "uint32"
								},
								{
									"internalType": "uint32",
									"name": "nSize",
									"type": "uint32"
								},
								{
									"internalType": "bytes32[]",
									"name": "branch",
									"type": "bytes32[]"
								}
							],
							"internalType": "struct VerusObjects.CMerkleBranch",
							"name": "proofSequence",
							"type": "tuple"
						}
					],
					"internalType": "struct VerusObjects.CTXProof[]",
					"name": "_branches",
					"type": "tuple[]"
				}
			],
			"name": "checkProof",
			"outputs": [
				{
					"internalType": "bytes32",
					"name": "",
					"type": "bytes32"
				}
			],
			"stateMutability": "view",
			"type": "function"
		},
		{
			"inputs": [
				{
					"components": [
						{
							"internalType": "uint256",
							"name": "height",
							"type": "uint256"
						},
						{
							"internalType": "bytes32",
							"name": "txid",
							"type": "bytes32"
						},
						{
							"internalType": "uint256",
							"name": "txoutnum",
							"type": "uint256"
						},
						{
							"components": [
								{
									"internalType": "uint16",
									"name": "version",
									"type": "uint16"
								},
								{
									"internalType": "uint16",
									"name": "flags",
									"type": "uint16"
								},
								{
									"internalType": "address",
									"name": "sourcesystemid",
									"type": "address"
								},
								{
									"internalType": "uint32",
									"name": "sourceheightstart",
									"type": "uint32"
								},
								{
									"internalType": "uint32",
									"name": "sourceheightend",
									"type": "uint32"
								},
								{
									"internalType": "address",
									"name": "destinationsystemid",
									"type": "address"
								},
								{
									"internalType": "address",
									"name": "destinationcurrencyid",
									"type": "address"
								},
								{
									"internalType": "uint32",
									"name": "numinputs",
									"type": "uint32"
								},
								{
									"components": [
										{
											"internalType": "address",
											"name": "currency",
											"type": "address"
										},
										{
											"internalType": "uint64",
											"name": "amount",
											"type": "uint64"
										}
									],
									"internalType": "struct VerusObjects.CCurrencyValueMap[]",
									"name": "totalamounts",
									"type": "tuple[]"
								},
								{
									"components": [
										{
											"internalType": "address",
											"name": "currency",
											"type": "address"
										},
										{
											"internalType": "uint64",
											"name": "amount",
											"type": "uint64"
										}
									],
									"internalType": "struct VerusObjects.CCurrencyValueMap[]",
									"name": "totalfees",
									"type": "tuple[]"
								},
								{
									"internalType": "bytes32",
									"name": "hashtransfers",
									"type": "bytes32"
								},
								{
									"components": [
										{
											"internalType": "address",
											"name": "currency",
											"type": "address"
										},
										{
											"internalType": "uint64",
											"name": "amount",
											"type": "uint64"
										}
									],
									"internalType": "struct VerusObjects.CCurrencyValueMap[]",
									"name": "totalburned",
									"type": "tuple[]"
								},
								{
									"components": [
										{
											"internalType": "uint8",
											"name": "destinationtype",
											"type": "uint8"
										},
										{
											"internalType": "address",
											"name": "destinationaddress",
											"type": "address"
										}
									],
									"internalType": "struct VerusObjectsCommon.CTransferDestination",
									"name": "rewardaddress",
									"type": "tuple"
								},
								{
									"internalType": "int32",
									"name": "firstinput",
									"type": "int32"
								}
							],
							"internalType": "struct VerusObjects.CCrossChainExport",
							"name": "exportinfo",
							"type": "tuple"
						},
						{
							"components": [
								{
									"internalType": "uint8",
									"name": "version",
									"type": "uint8"
								},
								{
									"internalType": "uint8",
									"name": "typeC",
									"type": "uint8"
								},
								{
									"components": [
										{
											"internalType": "uint8",
											"name": "branchType",
											"type": "uint8"
										},
										{
											"components": [
												{
													"internalType": "uint8",
													"name": "CMerkleBranchBase",
													"type": "uint8"
												},
												{
													"internalType": "uint32",
													"name": "nIndex",
													"type": "uint32"
												},
												{
													"internalType": "uint32",
													"name": "nSize",
													"type": "uint32"
												},
												{
													"internalType": "bytes32[]",
													"name": "branch",
													"type": "bytes32[]"
												}
											],
											"internalType": "struct VerusObjects.CMerkleBranch",
											"name": "proofSequence",
											"type": "tuple"
										}
									],
									"internalType": "struct VerusObjects.CTXProof[]",
									"name": "txproof",
									"type": "tuple[]"
								},
								{
									"components": [
										{
											"internalType": "uint8",
											"name": "elType",
											"type": "uint8"
										},
										{
											"internalType": "uint8",
											"name": "elIdx",
											"type": "uint8"
										},
										{
											"internalType": "bytes",
											"name": "elVchObj",
											"type": "bytes"
										},
										{
											"components": [
												{
													"internalType": "uint8",
													"name": "branchType",
													"type": "uint8"
												},
												{
													"components": [
														{
															"internalType": "uint8",
															"name": "CMerkleBranchBase",
															"type": "uint8"
														},
														{
															"internalType": "uint32",
															"name": "nIndex",
															"type": "uint32"
														},
														{
															"internalType": "uint32",
															"name": "nSize",
															"type": "uint32"
														},
														{
															"internalType": "bytes32[]",
															"name": "branch",
															"type": "bytes32[]"
														}
													],
													"internalType": "struct VerusObjects.CMerkleBranch",
													"name": "proofSequence",
													"type": "tuple"
												}
											],
											"internalType": "struct VerusObjects.CTXProof[]",
											"name": "elProof",
											"type": "tuple[]"
										},
										{
											"internalType": "uint32",
											"name": "VchObjIndex",
											"type": "uint32"
										}
									],
									"internalType": "struct VerusObjects.CComponents[]",
									"name": "components",
									"type": "tuple[]"
								}
							],
							"internalType": "struct VerusObjects.CPtransactionproof",
							"name": "partialtransactionproof",
							"type": "tuple"
						},
						{
							"components": [
								{
									"internalType": "uint32",
									"name": "version",
									"type": "uint32"
								},
								{
									"components": [
										{
											"internalType": "address",
											"name": "currency",
											"type": "address"
										},
										{
											"internalType": "uint64",
											"name": "amount",
											"type": "uint64"
										}
									],
									"internalType": "struct VerusObjects.CCurrencyValueMap",
									"name": "currencyvalue",
									"type": "tuple"
								},
								{
									"internalType": "uint32",
									"name": "flags",
									"type": "uint32"
								},
								{
									"internalType": "address",
									"name": "feecurrencyid",
									"type": "address"
								},
								{
									"internalType": "uint256",
									"name": "fees",
									"type": "uint256"
								},
								{
									"components": [
										{
											"internalType": "uint8",
											"name": "destinationtype",
											"type": "uint8"
										},
										{
											"internalType": "address",
											"name": "destinationaddress",
											"type": "address"
										}
									],
									"internalType": "struct VerusObjectsCommon.CTransferDestination",
									"name": "destination",
									"type": "tuple"
								},
								{
									"internalType": "address",
									"name": "destcurrencyid",
									"type": "address"
								},
								{
									"internalType": "address",
									"name": "destsystemid",
									"type": "address"
								},
								{
									"internalType": "address",
									"name": "secondreserveid",
									"type": "address"
								}
							],
							"internalType": "struct VerusObjects.CReserveTransfer[]",
							"name": "transfers",
							"type": "tuple[]"
						}
					],
					"internalType": "struct VerusObjects.CReserveTransferImport",
					"name": "_import",
					"type": "tuple"
				}
			],
			"name": "checkTransfers",
			"outputs": [
				{
					"internalType": "bool",
					"name": "",
					"type": "bool"
				}
			],
			"stateMutability": "view",
			"type": "function"
		},
		{
			"inputs": [
				{
					"internalType": "uint256",
					"name": "",
					"type": "uint256"
				}
			],
			"name": "computedValues",
			"outputs": [
				{
					"internalType": "bytes32",
					"name": "",
					"type": "bytes32"
				}
			],
			"stateMutability": "view",
			"type": "function"
		},
		{
			"inputs": [
				{
					"internalType": "bytes32",
					"name": "input",
					"type": "bytes32"
				}
			],
			"name": "flipBytes32",
			"outputs": [
				{
					"internalType": "bytes32",
					"name": "",
					"type": "bytes32"
				}
			],
			"stateMutability": "pure",
			"type": "function"
		},
		{
			"inputs": [
				{
					"components": [
						{
							"internalType": "uint32",
							"name": "version",
							"type": "uint32"
						},
						{
							"components": [
								{
									"internalType": "address",
									"name": "currency",
									"type": "address"
								},
								{
									"internalType": "uint64",
									"name": "amount",
									"type": "uint64"
								}
							],
							"internalType": "struct VerusObjects.CCurrencyValueMap",
							"name": "currencyvalue",
							"type": "tuple"
						},
						{
							"internalType": "uint32",
							"name": "flags",
							"type": "uint32"
						},
						{
							"internalType": "address",
							"name": "feecurrencyid",
							"type": "address"
						},
						{
							"internalType": "uint256",
							"name": "fees",
							"type": "uint256"
						},
						{
							"components": [
								{
									"internalType": "uint8",
									"name": "destinationtype",
									"type": "uint8"
								},
								{
									"internalType": "address",
									"name": "destinationaddress",
									"type": "address"
								}
							],
							"internalType": "struct VerusObjectsCommon.CTransferDestination",
							"name": "destination",
							"type": "tuple"
						},
						{
							"internalType": "address",
							"name": "destcurrencyid",
							"type": "address"
						},
						{
							"internalType": "address",
							"name": "destsystemid",
							"type": "address"
						},
						{
							"internalType": "address",
							"name": "secondreserveid",
							"type": "address"
						}
					],
					"internalType": "struct VerusObjects.CReserveTransfer[]",
					"name": "_transfers",
					"type": "tuple[]"
				}
			],
			"name": "hashTransfers",
			"outputs": [
				{
					"internalType": "bytes32",
					"name": "",
					"type": "bytes32"
				}
			],
			"stateMutability": "view",
			"type": "function"
		},
		{
			"inputs": [
				{
					"components": [
						{
							"internalType": "uint256",
							"name": "height",
							"type": "uint256"
						},
						{
							"internalType": "bytes32",
							"name": "txid",
							"type": "bytes32"
						},
						{
							"internalType": "uint256",
							"name": "txoutnum",
							"type": "uint256"
						},
						{
							"components": [
								{
									"internalType": "uint16",
									"name": "version",
									"type": "uint16"
								},
								{
									"internalType": "uint16",
									"name": "flags",
									"type": "uint16"
								},
								{
									"internalType": "address",
									"name": "sourcesystemid",
									"type": "address"
								},
								{
									"internalType": "uint32",
									"name": "sourceheightstart",
									"type": "uint32"
								},
								{
									"internalType": "uint32",
									"name": "sourceheightend",
									"type": "uint32"
								},
								{
									"internalType": "address",
									"name": "destinationsystemid",
									"type": "address"
								},
								{
									"internalType": "address",
									"name": "destinationcurrencyid",
									"type": "address"
								},
								{
									"internalType": "uint32",
									"name": "numinputs",
									"type": "uint32"
								},
								{
									"components": [
										{
											"internalType": "address",
											"name": "currency",
											"type": "address"
										},
										{
											"internalType": "uint64",
											"name": "amount",
											"type": "uint64"
										}
									],
									"internalType": "struct VerusObjects.CCurrencyValueMap[]",
									"name": "totalamounts",
									"type": "tuple[]"
								},
								{
									"components": [
										{
											"internalType": "address",
											"name": "currency",
											"type": "address"
										},
										{
											"internalType": "uint64",
											"name": "amount",
											"type": "uint64"
										}
									],
									"internalType": "struct VerusObjects.CCurrencyValueMap[]",
									"name": "totalfees",
									"type": "tuple[]"
								},
								{
									"internalType": "bytes32",
									"name": "hashtransfers",
									"type": "bytes32"
								},
								{
									"components": [
										{
											"internalType": "address",
											"name": "currency",
											"type": "address"
										},
										{
											"internalType": "uint64",
											"name": "amount",
											"type": "uint64"
										}
									],
									"internalType": "struct VerusObjects.CCurrencyValueMap[]",
									"name": "totalburned",
									"type": "tuple[]"
								},
								{
									"components": [
										{
											"internalType": "uint8",
											"name": "destinationtype",
											"type": "uint8"
										},
										{
											"internalType": "address",
											"name": "destinationaddress",
											"type": "address"
										}
									],
									"internalType": "struct VerusObjectsCommon.CTransferDestination",
									"name": "rewardaddress",
									"type": "tuple"
								},
								{
									"internalType": "int32",
									"name": "firstinput",
									"type": "int32"
								}
							],
							"internalType": "struct VerusObjects.CCrossChainExport",
							"name": "exportinfo",
							"type": "tuple"
						},
						{
							"components": [
								{
									"internalType": "uint8",
									"name": "version",
									"type": "uint8"
								},
								{
									"internalType": "uint8",
									"name": "typeC",
									"type": "uint8"
								},
								{
									"components": [
										{
											"internalType": "uint8",
											"name": "branchType",
											"type": "uint8"
										},
										{
											"components": [
												{
													"internalType": "uint8",
													"name": "CMerkleBranchBase",
													"type": "uint8"
												},
												{
													"internalType": "uint32",
													"name": "nIndex",
													"type": "uint32"
												},
												{
													"internalType": "uint32",
													"name": "nSize",
													"type": "uint32"
												},
												{
													"internalType": "bytes32[]",
													"name": "branch",
													"type": "bytes32[]"
												}
											],
											"internalType": "struct VerusObjects.CMerkleBranch",
											"name": "proofSequence",
											"type": "tuple"
										}
									],
									"internalType": "struct VerusObjects.CTXProof[]",
									"name": "txproof",
									"type": "tuple[]"
								},
								{
									"components": [
										{
											"internalType": "uint8",
											"name": "elType",
											"type": "uint8"
										},
										{
											"internalType": "uint8",
											"name": "elIdx",
											"type": "uint8"
										},
										{
											"internalType": "bytes",
											"name": "elVchObj",
											"type": "bytes"
										},
										{
											"components": [
												{
													"internalType": "uint8",
													"name": "branchType",
													"type": "uint8"
												},
												{
													"components": [
														{
															"internalType": "uint8",
															"name": "CMerkleBranchBase",
															"type": "uint8"
														},
														{
															"internalType": "uint32",
															"name": "nIndex",
															"type": "uint32"
														},
														{
															"internalType": "uint32",
															"name": "nSize",
															"type": "uint32"
														},
														{
															"internalType": "bytes32[]",
															"name": "branch",
															"type": "bytes32[]"
														}
													],
													"internalType": "struct VerusObjects.CMerkleBranch",
													"name": "proofSequence",
													"type": "tuple"
												}
											],
											"internalType": "struct VerusObjects.CTXProof[]",
											"name": "elProof",
											"type": "tuple[]"
										},
										{
											"internalType": "uint32",
											"name": "VchObjIndex",
											"type": "uint32"
										}
									],
									"internalType": "struct VerusObjects.CComponents[]",
									"name": "components",
									"type": "tuple[]"
								}
							],
							"internalType": "struct VerusObjects.CPtransactionproof",
							"name": "partialtransactionproof",
							"type": "tuple"
						},
						{
							"components": [
								{
									"internalType": "uint32",
									"name": "version",
									"type": "uint32"
								},
								{
									"components": [
										{
											"internalType": "address",
											"name": "currency",
											"type": "address"
										},
										{
											"internalType": "uint64",
											"name": "amount",
											"type": "uint64"
										}
									],
									"internalType": "struct VerusObjects.CCurrencyValueMap",
									"name": "currencyvalue",
									"type": "tuple"
								},
								{
									"internalType": "uint32",
									"name": "flags",
									"type": "uint32"
								},
								{
									"internalType": "address",
									"name": "feecurrencyid",
									"type": "address"
								},
								{
									"internalType": "uint256",
									"name": "fees",
									"type": "uint256"
								},
								{
									"components": [
										{
											"internalType": "uint8",
											"name": "destinationtype",
											"type": "uint8"
										},
										{
											"internalType": "address",
											"name": "destinationaddress",
											"type": "address"
										}
									],
									"internalType": "struct VerusObjectsCommon.CTransferDestination",
									"name": "destination",
									"type": "tuple"
								},
								{
									"internalType": "address",
									"name": "destcurrencyid",
									"type": "address"
								},
								{
									"internalType": "address",
									"name": "destsystemid",
									"type": "address"
								},
								{
									"internalType": "address",
									"name": "secondreserveid",
									"type": "address"
								}
							],
							"internalType": "struct VerusObjects.CReserveTransfer[]",
							"name": "transfers",
							"type": "tuple[]"
						}
					],
					"internalType": "struct VerusObjects.CReserveTransferImport",
					"name": "_import",
					"type": "tuple"
				}
			],
			"name": "proveComponents",
			"outputs": [
				{
					"internalType": "bytes32",
					"name": "txRoot",
					"type": "bytes32"
				}
			],
			"stateMutability": "view",
			"type": "function"
		},
		{
			"inputs": [
				{
					"components": [
						{
							"internalType": "uint256",
							"name": "height",
							"type": "uint256"
						},
						{
							"internalType": "bytes32",
							"name": "txid",
							"type": "bytes32"
						},
						{
							"internalType": "uint256",
							"name": "txoutnum",
							"type": "uint256"
						},
						{
							"components": [
								{
									"internalType": "uint16",
									"name": "version",
									"type": "uint16"
								},
								{
									"internalType": "uint16",
									"name": "flags",
									"type": "uint16"
								},
								{
									"internalType": "address",
									"name": "sourcesystemid",
									"type": "address"
								},
								{
									"internalType": "uint32",
									"name": "sourceheightstart",
									"type": "uint32"
								},
								{
									"internalType": "uint32",
									"name": "sourceheightend",
									"type": "uint32"
								},
								{
									"internalType": "address",
									"name": "destinationsystemid",
									"type": "address"
								},
								{
									"internalType": "address",
									"name": "destinationcurrencyid",
									"type": "address"
								},
								{
									"internalType": "uint32",
									"name": "numinputs",
									"type": "uint32"
								},
								{
									"components": [
										{
											"internalType": "address",
											"name": "currency",
											"type": "address"
										},
										{
											"internalType": "uint64",
											"name": "amount",
											"type": "uint64"
										}
									],
									"internalType": "struct VerusObjects.CCurrencyValueMap[]",
									"name": "totalamounts",
									"type": "tuple[]"
								},
								{
									"components": [
										{
											"internalType": "address",
											"name": "currency",
											"type": "address"
										},
										{
											"internalType": "uint64",
											"name": "amount",
											"type": "uint64"
										}
									],
									"internalType": "struct VerusObjects.CCurrencyValueMap[]",
									"name": "totalfees",
									"type": "tuple[]"
								},
								{
									"internalType": "bytes32",
									"name": "hashtransfers",
									"type": "bytes32"
								},
								{
									"components": [
										{
											"internalType": "address",
											"name": "currency",
											"type": "address"
										},
										{
											"internalType": "uint64",
											"name": "amount",
											"type": "uint64"
										}
									],
									"internalType": "struct VerusObjects.CCurrencyValueMap[]",
									"name": "totalburned",
									"type": "tuple[]"
								},
								{
									"components": [
										{
											"internalType": "uint8",
											"name": "destinationtype",
											"type": "uint8"
										},
										{
											"internalType": "address",
											"name": "destinationaddress",
											"type": "address"
										}
									],
									"internalType": "struct VerusObjectsCommon.CTransferDestination",
									"name": "rewardaddress",
									"type": "tuple"
								},
								{
									"internalType": "int32",
									"name": "firstinput",
									"type": "int32"
								}
							],
							"internalType": "struct VerusObjects.CCrossChainExport",
							"name": "exportinfo",
							"type": "tuple"
						},
						{
							"components": [
								{
									"internalType": "uint8",
									"name": "version",
									"type": "uint8"
								},
								{
									"internalType": "uint8",
									"name": "typeC",
									"type": "uint8"
								},
								{
									"components": [
										{
											"internalType": "uint8",
											"name": "branchType",
											"type": "uint8"
										},
										{
											"components": [
												{
													"internalType": "uint8",
													"name": "CMerkleBranchBase",
													"type": "uint8"
												},
												{
													"internalType": "uint32",
													"name": "nIndex",
													"type": "uint32"
												},
												{
													"internalType": "uint32",
													"name": "nSize",
													"type": "uint32"
												},
												{
													"internalType": "bytes32[]",
													"name": "branch",
													"type": "bytes32[]"
												}
											],
											"internalType": "struct VerusObjects.CMerkleBranch",
											"name": "proofSequence",
											"type": "tuple"
										}
									],
									"internalType": "struct VerusObjects.CTXProof[]",
									"name": "txproof",
									"type": "tuple[]"
								},
								{
									"components": [
										{
											"internalType": "uint8",
											"name": "elType",
											"type": "uint8"
										},
										{
											"internalType": "uint8",
											"name": "elIdx",
											"type": "uint8"
										},
										{
											"internalType": "bytes",
											"name": "elVchObj",
											"type": "bytes"
										},
										{
											"components": [
												{
													"internalType": "uint8",
													"name": "branchType",
													"type": "uint8"
												},
												{
													"components": [
														{
															"internalType": "uint8",
															"name": "CMerkleBranchBase",
															"type": "uint8"
														},
														{
															"internalType": "uint32",
															"name": "nIndex",
															"type": "uint32"
														},
														{
															"internalType": "uint32",
															"name": "nSize",
															"type": "uint32"
														},
														{
															"internalType": "bytes32[]",
															"name": "branch",
															"type": "bytes32[]"
														}
													],
													"internalType": "struct VerusObjects.CMerkleBranch",
													"name": "proofSequence",
													"type": "tuple"
												}
											],
											"internalType": "struct VerusObjects.CTXProof[]",
											"name": "elProof",
											"type": "tuple[]"
										},
										{
											"internalType": "uint32",
											"name": "VchObjIndex",
											"type": "uint32"
										}
									],
									"internalType": "struct VerusObjects.CComponents[]",
									"name": "components",
									"type": "tuple[]"
								}
							],
							"internalType": "struct VerusObjects.CPtransactionproof",
							"name": "partialtransactionproof",
							"type": "tuple"
						},
						{
							"components": [
								{
									"internalType": "uint32",
									"name": "version",
									"type": "uint32"
								},
								{
									"components": [
										{
											"internalType": "address",
											"name": "currency",
											"type": "address"
										},
										{
											"internalType": "uint64",
											"name": "amount",
											"type": "uint64"
										}
									],
									"internalType": "struct VerusObjects.CCurrencyValueMap",
									"name": "currencyvalue",
									"type": "tuple"
								},
								{
									"internalType": "uint32",
									"name": "flags",
									"type": "uint32"
								},
								{
									"internalType": "address",
									"name": "feecurrencyid",
									"type": "address"
								},
								{
									"internalType": "uint256",
									"name": "fees",
									"type": "uint256"
								},
								{
									"components": [
										{
											"internalType": "uint8",
											"name": "destinationtype",
											"type": "uint8"
										},
										{
											"internalType": "address",
											"name": "destinationaddress",
											"type": "address"
										}
									],
									"internalType": "struct VerusObjectsCommon.CTransferDestination",
									"name": "destination",
									"type": "tuple"
								},
								{
									"internalType": "address",
									"name": "destcurrencyid",
									"type": "address"
								},
								{
									"internalType": "address",
									"name": "destsystemid",
									"type": "address"
								},
								{
									"internalType": "address",
									"name": "secondreserveid",
									"type": "address"
								}
							],
							"internalType": "struct VerusObjects.CReserveTransfer[]",
							"name": "transfers",
							"type": "tuple[]"
						}
					],
					"internalType": "struct VerusObjects.CReserveTransferImport",
					"name": "_import",
					"type": "tuple"
				}
			],
			"name": "proveImports",
			"outputs": [
				{
					"internalType": "bool",
					"name": "",
					"type": "bool"
				}
			],
			"stateMutability": "view",
			"type": "function"
		},
		{
			"inputs": [
				{
					"components": [
						{
							"internalType": "uint256",
							"name": "height",
							"type": "uint256"
						},
						{
							"internalType": "bytes32",
							"name": "txid",
							"type": "bytes32"
						},
						{
							"internalType": "uint256",
							"name": "txoutnum",
							"type": "uint256"
						},
						{
							"components": [
								{
									"internalType": "uint16",
									"name": "version",
									"type": "uint16"
								},
								{
									"internalType": "uint16",
									"name": "flags",
									"type": "uint16"
								},
								{
									"internalType": "address",
									"name": "sourcesystemid",
									"type": "address"
								},
								{
									"internalType": "uint32",
									"name": "sourceheightstart",
									"type": "uint32"
								},
								{
									"internalType": "uint32",
									"name": "sourceheightend",
									"type": "uint32"
								},
								{
									"internalType": "address",
									"name": "destinationsystemid",
									"type": "address"
								},
								{
									"internalType": "address",
									"name": "destinationcurrencyid",
									"type": "address"
								},
								{
									"internalType": "uint32",
									"name": "numinputs",
									"type": "uint32"
								},
								{
									"components": [
										{
											"internalType": "address",
											"name": "currency",
											"type": "address"
										},
										{
											"internalType": "uint64",
											"name": "amount",
											"type": "uint64"
										}
									],
									"internalType": "struct VerusObjects.CCurrencyValueMap[]",
									"name": "totalamounts",
									"type": "tuple[]"
								},
								{
									"components": [
										{
											"internalType": "address",
											"name": "currency",
											"type": "address"
										},
										{
											"internalType": "uint64",
											"name": "amount",
											"type": "uint64"
										}
									],
									"internalType": "struct VerusObjects.CCurrencyValueMap[]",
									"name": "totalfees",
									"type": "tuple[]"
								},
								{
									"internalType": "bytes32",
									"name": "hashtransfers",
									"type": "bytes32"
								},
								{
									"components": [
										{
											"internalType": "address",
											"name": "currency",
											"type": "address"
										},
										{
											"internalType": "uint64",
											"name": "amount",
											"type": "uint64"
										}
									],
									"internalType": "struct VerusObjects.CCurrencyValueMap[]",
									"name": "totalburned",
									"type": "tuple[]"
								},
								{
									"components": [
										{
											"internalType": "uint8",
											"name": "destinationtype",
											"type": "uint8"
										},
										{
											"internalType": "address",
											"name": "destinationaddress",
											"type": "address"
										}
									],
									"internalType": "struct VerusObjectsCommon.CTransferDestination",
									"name": "rewardaddress",
									"type": "tuple"
								},
								{
									"internalType": "int32",
									"name": "firstinput",
									"type": "int32"
								}
							],
							"internalType": "struct VerusObjects.CCrossChainExport",
							"name": "exportinfo",
							"type": "tuple"
						},
						{
							"components": [
								{
									"internalType": "uint8",
									"name": "version",
									"type": "uint8"
								},
								{
									"internalType": "uint8",
									"name": "typeC",
									"type": "uint8"
								},
								{
									"components": [
										{
											"internalType": "uint8",
											"name": "branchType",
											"type": "uint8"
										},
										{
											"components": [
												{
													"internalType": "uint8",
													"name": "CMerkleBranchBase",
													"type": "uint8"
												},
												{
													"internalType": "uint32",
													"name": "nIndex",
													"type": "uint32"
												},
												{
													"internalType": "uint32",
													"name": "nSize",
													"type": "uint32"
												},
												{
													"internalType": "bytes32[]",
													"name": "branch",
													"type": "bytes32[]"
												}
											],
											"internalType": "struct VerusObjects.CMerkleBranch",
											"name": "proofSequence",
											"type": "tuple"
										}
									],
									"internalType": "struct VerusObjects.CTXProof[]",
									"name": "txproof",
									"type": "tuple[]"
								},
								{
									"components": [
										{
											"internalType": "uint8",
											"name": "elType",
											"type": "uint8"
										},
										{
											"internalType": "uint8",
											"name": "elIdx",
											"type": "uint8"
										},
										{
											"internalType": "bytes",
											"name": "elVchObj",
											"type": "bytes"
										},
										{
											"components": [
												{
													"internalType": "uint8",
													"name": "branchType",
													"type": "uint8"
												},
												{
													"components": [
														{
															"internalType": "uint8",
															"name": "CMerkleBranchBase",
															"type": "uint8"
														},
														{
															"internalType": "uint32",
															"name": "nIndex",
															"type": "uint32"
														},
														{
															"internalType": "uint32",
															"name": "nSize",
															"type": "uint32"
														},
														{
															"internalType": "bytes32[]",
															"name": "branch",
															"type": "bytes32[]"
														}
													],
													"internalType": "struct VerusObjects.CMerkleBranch",
													"name": "proofSequence",
													"type": "tuple"
												}
											],
											"internalType": "struct VerusObjects.CTXProof[]",
											"name": "elProof",
											"type": "tuple[]"
										},
										{
											"internalType": "uint32",
											"name": "VchObjIndex",
											"type": "uint32"
										}
									],
									"internalType": "struct VerusObjects.CComponents[]",
									"name": "components",
									"type": "tuple[]"
								}
							],
							"internalType": "struct VerusObjects.CPtransactionproof",
							"name": "partialtransactionproof",
							"type": "tuple"
						},
						{
							"components": [
								{
									"internalType": "uint32",
									"name": "version",
									"type": "uint32"
								},
								{
									"components": [
										{
											"internalType": "address",
											"name": "currency",
											"type": "address"
										},
										{
											"internalType": "uint64",
											"name": "amount",
											"type": "uint64"
										}
									],
									"internalType": "struct VerusObjects.CCurrencyValueMap",
									"name": "currencyvalue",
									"type": "tuple"
								},
								{
									"internalType": "uint32",
									"name": "flags",
									"type": "uint32"
								},
								{
									"internalType": "address",
									"name": "feecurrencyid",
									"type": "address"
								},
								{
									"internalType": "uint256",
									"name": "fees",
									"type": "uint256"
								},
								{
									"components": [
										{
											"internalType": "uint8",
											"name": "destinationtype",
											"type": "uint8"
										},
										{
											"internalType": "address",
											"name": "destinationaddress",
											"type": "address"
										}
									],
									"internalType": "struct VerusObjectsCommon.CTransferDestination",
									"name": "destination",
									"type": "tuple"
								},
								{
									"internalType": "address",
									"name": "destcurrencyid",
									"type": "address"
								},
								{
									"internalType": "address",
									"name": "destsystemid",
									"type": "address"
								},
								{
									"internalType": "address",
									"name": "secondreserveid",
									"type": "address"
								}
							],
							"internalType": "struct VerusObjects.CReserveTransfer[]",
							"name": "transfers",
							"type": "tuple[]"
						}
					],
					"internalType": "struct VerusObjects.CReserveTransferImport",
					"name": "_import",
					"type": "tuple"
				}
			],
			"name": "proveTransaction",
			"outputs": [
				{
					"internalType": "bytes32",
					"name": "stateRoot",
					"type": "bytes32"
				}
			],
			"stateMutability": "view",
			"type": "function"
		},
		{
			"inputs": [],
			"name": "testHashedTransfers",
			"outputs": [
				{
					"internalType": "bytes32",
					"name": "",
					"type": "bytes32"
				}
			],
			"stateMutability": "view",
			"type": "function"
		},
		{
			"inputs": [],
			"name": "testResult",
			"outputs": [
				{
					"internalType": "bool",
					"name": "",
					"type": "bool"
				}
			],
			"stateMutability": "view",
			"type": "function"
		},
		{
			"inputs": [],
			"name": "testTransfers",
			"outputs": [
				{
					"internalType": "bytes",
					"name": "",
					"type": "bytes"
				}
			],
			"stateMutability": "view",
			"type": "function"
		},
		{
			"inputs": [],
			"name": "txValue",
			"outputs": [
				{
					"internalType": "bytes32",
					"name": "",
					"type": "bytes32"
				}
			],
			"stateMutability": "view",
			"type": "function"
		}
	]
}