{
	"data": {
		"bytecode": {
			"linkReferences": {},
			"object": "608060405234801561001057600080fd5b5061085f806100206000396000f3fe608060405234801561001057600080fd5b50600436106100415760003560e01c80632cd0cff2146100465780635358493914610076578063bfe370d9146100a6575b600080fd5b610060600480360381019061005b91906105f8565b6100d6565b60405161006d919061069c565b60405180910390f35b610090600480360381019061008b9190610639565b61011a565b60405161009d919061069c565b60405180910390f35b6100c060048036038101906100bb91906105f8565b61018c565b6040516100cd919061069c565b60405180910390f35b6000806100f36040518060200160405280600081525060206101a0565b905061011261010b84836101b990919063ffffffff16565b600061011a565b915050919050565b60008060005b6020811015610181576008810260ff60f81b868387018151811061014057fe5b602001015160f81c60f81b167effffffffffffffffffffffffffffffffffffffffffffffffffffffffffffff1916901c821791508080600101915050610120565b508091505092915050565b600061019982600061011a565b9050919050565b6101a861055a565b6101b38184846102f9565b92915050565b606060008251905060008114806101db57506000608082816101d757fe5b0614155b156102445761024183608083816101ee57fe5b0660800367ffffffffffffffff8111801561020857600080fd5b506040519080825280601f01601f19166020018201604052801561023b5781602001600182028036833780820191505090505b5061038d565b92505b6000608084518161025157fe5b061461025957fe5b6102668484836001610417565b600084600001519050846020015167ffffffffffffffff8111801561028a57600080fd5b506040519080825280601f01601f1916602001820160405280156102bd5781602001600182028036833780820191505090505b5092506020856020015114156102dc57602481015160208401526102f1565b60248101516020840152604481015160408401525b505092915050565b80836020018181525050600083604001818152505060405180610100016040528060d5815260200161075560d5913983600001819052506000836000015190506000835190506024820180518460f81b8360f01b1780821891508183525050506000811115610386576040811461036f57600080fd5b608084511461037a57fe5b610385858583610506565b5b5050505050565b6060806040519050835180825260208201818101602087015b818310156103c357805183526020830192506020810190506103a6565b50855192508351830184528091508282019050602086015b818310156103f857805183526020830192506020810190506103db565b50601f19601f8851850115830101166040525050508091505092915050565b600084600001519050600085604001519050600060648301905060006020870190506000875190505b60008111156104f157608081106104ad5781518352602082019150815160208401526020820191508151604084015260208201915081516060840152602082019150608081039050608087101561049b5786840193506104a8565b6080870396506080840193505b6104b2565b600080fd5b60ff841660e486015360ff8460081c1660e586015360ff8460101c1660e686015360008114156104e3578560f48601535b6104ec89610530565b610440565b83896040018181525050505050505050505050565b6000608083518161051357fe5b061461051e57600080fd5b61052b8383836000610417565b505050565b6000816000015190506020810160406004820160d5836009600019fa61055557600080fd5b505050565b60405180606001604052806060815260200160008152602001600081525090565b600061058e610589846106e8565b6106b7565b9050828152602081018484840111156105a657600080fd5b6105b184828561072c565b509392505050565b600082601f8301126105ca57600080fd5b81356105da84826020860161057b565b91505092915050565b6000813590506105f28161073d565b92915050565b60006020828403121561060a57600080fd5b600082013567ffffffffffffffff81111561062457600080fd5b610630848285016105b9565b91505092915050565b6000806040838503121561064c57600080fd5b600083013567ffffffffffffffff81111561066657600080fd5b610672858286016105b9565b9250506020610683858286016105e3565b9150509250929050565b61069681610718565b82525050565b60006020820190506106b1600083018461068d565b92915050565b6000604051905081810181811067ffffffffffffffff821117156106de576106dd61073b565b5b8060405250919050565b600067ffffffffffffffff8211156107035761070261073b565b5b601f19601f8301169050602081019050919050565b6000819050919050565b6000819050919050565b82818337600083830152505050565bfe5b61074681610722565b811461075157600080fd5b5056fe0000000c08c9bdf267e6096a3ba7ca8485ae67bb2bf894fe72f36e3cf1361d5f3af54fa5d182e6ad7f520e511f6c3e2b8c68059b3dd8338ed89de6791854126751ac933300000000000000000000000000000000000000000000000000000000000000000000000000000000000000000000000000000000000000000000000000000000000000000000000000000000000000000000000000000000000000000000000000000000000000000000000000000000000000000000000000000000000000000000000000000000000000000000000000a2646970667358221220cddd55219b181c64a1122c6114689cf4a0bcb58c675c82e747b5d3c18d17beb664736f6c63430007060033",
			"opcodes": "PUSH1 0x80 PUSH1 0x40 MSTORE CALLVALUE DUP1 ISZERO PUSH2 0x10 JUMPI PUSH1 0x0 DUP1 REVERT JUMPDEST POP PUSH2 0x85F DUP1 PUSH2 0x20 PUSH1 0x0 CODECOPY PUSH1 0x0 RETURN INVALID PUSH1 0x80 PUSH1 0x40 MSTORE CALLVALUE DUP1 ISZERO PUSH2 0x10 JUMPI PUSH1 0x0 DUP1 REVERT JUMPDEST POP PUSH1 0x4 CALLDATASIZE LT PUSH2 0x41 JUMPI PUSH1 0x0 CALLDATALOAD PUSH1 0xE0 SHR DUP1 PUSH4 0x2CD0CFF2 EQ PUSH2 0x46 JUMPI DUP1 PUSH4 0x53584939 EQ PUSH2 0x76 JUMPI DUP1 PUSH4 0xBFE370D9 EQ PUSH2 0xA6 JUMPI JUMPDEST PUSH1 0x0 DUP1 REVERT JUMPDEST PUSH2 0x60 PUSH1 0x4 DUP1 CALLDATASIZE SUB DUP2 ADD SWAP1 PUSH2 0x5B SWAP2 SWAP1 PUSH2 0x5F8 JUMP JUMPDEST PUSH2 0xD6 JUMP JUMPDEST PUSH1 0x40 MLOAD PUSH2 0x6D SWAP2 SWAP1 PUSH2 0x69C JUMP JUMPDEST PUSH1 0x40 MLOAD DUP1 SWAP2 SUB SWAP1 RETURN JUMPDEST PUSH2 0x90 PUSH1 0x4 DUP1 CALLDATASIZE SUB DUP2 ADD SWAP1 PUSH2 0x8B SWAP2 SWAP1 PUSH2 0x639 JUMP JUMPDEST PUSH2 0x11A JUMP JUMPDEST PUSH1 0x40 MLOAD PUSH2 0x9D SWAP2 SWAP1 PUSH2 0x69C JUMP JUMPDEST PUSH1 0x40 MLOAD DUP1 SWAP2 SUB SWAP1 RETURN JUMPDEST PUSH2 0xC0 PUSH1 0x4 DUP1 CALLDATASIZE SUB DUP2 ADD SWAP1 PUSH2 0xBB SWAP2 SWAP1 PUSH2 0x5F8 JUMP JUMPDEST PUSH2 0x18C JUMP JUMPDEST PUSH1 0x40 MLOAD PUSH2 0xCD SWAP2 SWAP1 PUSH2 0x69C JUMP JUMPDEST PUSH1 0x40 MLOAD DUP1 SWAP2 SUB SWAP1 RETURN JUMPDEST PUSH1 0x0 DUP1 PUSH2 0xF3 PUSH1 0x40 MLOAD DUP1 PUSH1 0x20 ADD PUSH1 0x40 MSTORE DUP1 PUSH1 0x0 DUP2 MSTORE POP PUSH1 0x20 PUSH2 0x1A0 JUMP JUMPDEST SWAP1 POP PUSH2 0x112 PUSH2 0x10B DUP5 DUP4 PUSH2 0x1B9 SWAP1 SWAP2 SWAP1 PUSH4 0xFFFFFFFF AND JUMP JUMPDEST PUSH1 0x0 PUSH2 0x11A JUMP JUMPDEST SWAP2 POP POP SWAP2 SWAP1 POP JUMP JUMPDEST PUSH1 0x0 DUP1 PUSH1 0x0 JUMPDEST PUSH1 0x20 DUP2 LT ISZERO PUSH2 0x181 JUMPI PUSH1 0x8 DUP2 MUL PUSH1 0xFF PUSH1 0xF8 SHL DUP7 DUP4 DUP8 ADD DUP2 MLOAD DUP2 LT PUSH2 0x140 JUMPI INVALID JUMPDEST PUSH1 0x20 ADD ADD MLOAD PUSH1 0xF8 SHR PUSH1 0xF8 SHL AND PUSH31 0xFFFFFFFFFFFFFFFFFFFFFFFFFFFFFFFFFFFFFFFFFFFFFFFFFFFFFFFFFFFFFF NOT AND SWAP1 SHR DUP3 OR SWAP2 POP DUP1 DUP1 PUSH1 0x1 ADD SWAP2 POP POP PUSH2 0x120 JUMP JUMPDEST POP DUP1 SWAP2 POP POP SWAP3 SWAP2 POP POP JUMP JUMPDEST PUSH1 0x0 PUSH2 0x199 DUP3 PUSH1 0x0 PUSH2 0x11A JUMP JUMPDEST SWAP1 POP SWAP2 SWAP1 POP JUMP JUMPDEST PUSH2 0x1A8 PUSH2 0x55A JUMP JUMPDEST PUSH2 0x1B3 DUP2 DUP5 DUP5 PUSH2 0x2F9 JUMP JUMPDEST SWAP3 SWAP2 POP POP JUMP JUMPDEST PUSH1 0x60 PUSH1 0x0 DUP3 MLOAD SWAP1 POP PUSH1 0x0 DUP2 EQ DUP1 PUSH2 0x1DB JUMPI POP PUSH1 0x0 PUSH1 0x80 DUP3 DUP2 PUSH2 0x1D7 JUMPI INVALID JUMPDEST MOD EQ ISZERO JUMPDEST ISZERO PUSH2 0x244 JUMPI PUSH2 0x241 DUP4 PUSH1 0x80 DUP4 DUP2 PUSH2 0x1EE JUMPI INVALID JUMPDEST MOD PUSH1 0x80 SUB PUSH8 0xFFFFFFFFFFFFFFFF DUP2 GT DUP1 ISZERO PUSH2 0x208 JUMPI PUSH1 0x0 DUP1 REVERT JUMPDEST POP PUSH1 0x40 MLOAD SWAP1 DUP1 DUP3 MSTORE DUP1 PUSH1 0x1F ADD PUSH1 0x1F NOT AND PUSH1 0x20 ADD DUP3 ADD PUSH1 0x40 MSTORE DUP1 ISZERO PUSH2 0x23B JUMPI DUP2 PUSH1 0x20 ADD PUSH1 0x1 DUP3 MUL DUP1 CALLDATASIZE DUP4 CALLDATACOPY DUP1 DUP3 ADD SWAP2 POP POP SWAP1 POP JUMPDEST POP PUSH2 0x38D JUMP JUMPDEST SWAP3 POP JUMPDEST PUSH1 0x0 PUSH1 0x80 DUP5 MLOAD DUP2 PUSH2 0x251 JUMPI INVALID JUMPDEST MOD EQ PUSH2 0x259 JUMPI INVALID JUMPDEST PUSH2 0x266 DUP5 DUP5 DUP4 PUSH1 0x1 PUSH2 0x417 JUMP JUMPDEST PUSH1 0x0 DUP5 PUSH1 0x0 ADD MLOAD SWAP1 POP DUP5 PUSH1 0x20 ADD MLOAD PUSH8 0xFFFFFFFFFFFFFFFF DUP2 GT DUP1 ISZERO PUSH2 0x28A JUMPI PUSH1 0x0 DUP1 REVERT JUMPDEST POP PUSH1 0x40 MLOAD SWAP1 DUP1 DUP3 MSTORE DUP1 PUSH1 0x1F ADD PUSH1 0x1F NOT AND PUSH1 0x20 ADD DUP3 ADD PUSH1 0x40 MSTORE DUP1 ISZERO PUSH2 0x2BD JUMPI DUP2 PUSH1 0x20 ADD PUSH1 0x1 DUP3 MUL DUP1 CALLDATASIZE DUP4 CALLDATACOPY DUP1 DUP3 ADD SWAP2 POP POP SWAP1 POP JUMPDEST POP SWAP3 POP PUSH1 0x20 DUP6 PUSH1 0x20 ADD MLOAD EQ ISZERO PUSH2 0x2DC JUMPI PUSH1 0x24 DUP2 ADD MLOAD PUSH1 0x20 DUP5 ADD MSTORE PUSH2 0x2F1 JUMP JUMPDEST PUSH1 0x24 DUP2 ADD MLOAD PUSH1 0x20 DUP5 ADD MSTORE PUSH1 0x44 DUP2 ADD MLOAD PUSH1 0x40 DUP5 ADD MSTORE JUMPDEST POP POP SWAP3 SWAP2 POP POP JUMP JUMPDEST DUP1 DUP4 PUSH1 0x20 ADD DUP2 DUP2 MSTORE POP POP PUSH1 0x0 DUP4 PUSH1 0x40 ADD DUP2 DUP2 MSTORE POP POP PUSH1 0x40 MLOAD DUP1 PUSH2 0x100 ADD PUSH1 0x40 MSTORE DUP1 PUSH1 0xD5 DUP2 MSTORE PUSH1 0x20 ADD PUSH2 0x755 PUSH1 0xD5 SWAP2 CODECOPY DUP4 PUSH1 0x0 ADD DUP2 SWAP1 MSTORE POP PUSH1 0x0 DUP4 PUSH1 0x0 ADD MLOAD SWAP1 POP PUSH1 0x0 DUP4 MLOAD SWAP1 POP PUSH1 0x24 DUP3 ADD DUP1 MLOAD DUP5 PUSH1 0xF8 SHL DUP4 PUSH1 0xF0 SHL OR DUP1 DUP3 XOR SWAP2 POP DUP2 DUP4 MSTORE POP POP POP PUSH1 0x0 DUP2 GT ISZERO PUSH2 0x386 JUMPI PUSH1 0x40 DUP2 EQ PUSH2 0x36F JUMPI PUSH1 0x0 DUP1 REVERT JUMPDEST PUSH1 0x80 DUP5 MLOAD EQ PUSH2 0x37A JUMPI INVALID JUMPDEST PUSH2 0x385 DUP6 DUP6 DUP4 PUSH2 0x506 JUMP JUMPDEST JUMPDEST POP POP POP POP POP JUMP JUMPDEST PUSH1 0x60 DUP1 PUSH1 0x40 MLOAD SWAP1 POP DUP4 MLOAD DUP1 DUP3 MSTORE PUSH1 0x20 DUP3 ADD DUP2 DUP2 ADD PUSH1 0x20 DUP8 ADD JUMPDEST DUP2 DUP4 LT ISZERO PUSH2 0x3C3 JUMPI DUP1 MLOAD DUP4 MSTORE PUSH1 0x20 DUP4 ADD SWAP3 POP PUSH1 0x20 DUP2 ADD SWAP1 POP PUSH2 0x3A6 JUMP JUMPDEST POP DUP6 MLOAD SWAP3 POP DUP4 MLOAD DUP4 ADD DUP5 MSTORE DUP1 SWAP2 POP DUP3 DUP3 ADD SWAP1 POP PUSH1 0x20 DUP7 ADD JUMPDEST DUP2 DUP4 LT ISZERO PUSH2 0x3F8 JUMPI DUP1 MLOAD DUP4 MSTORE PUSH1 0x20 DUP4 ADD SWAP3 POP PUSH1 0x20 DUP2 ADD SWAP1 POP PUSH2 0x3DB JUMP JUMPDEST POP PUSH1 0x1F NOT PUSH1 0x1F DUP9 MLOAD DUP6 ADD ISZERO DUP4 ADD ADD AND PUSH1 0x40 MSTORE POP POP POP DUP1 SWAP2 POP POP SWAP3 SWAP2 POP POP JUMP JUMPDEST PUSH1 0x0 DUP5 PUSH1 0x0 ADD MLOAD SWAP1 POP PUSH1 0x0 DUP6 PUSH1 0x40 ADD MLOAD SWAP1 POP PUSH1 0x0 PUSH1 0x64 DUP4 ADD SWAP1 POP PUSH1 0x0 PUSH1 0x20 DUP8 ADD SWAP1 POP PUSH1 0x0 DUP8 MLOAD SWAP1 POP JUMPDEST PUSH1 0x0 DUP2 GT ISZERO PUSH2 0x4F1 JUMPI PUSH1 0x80 DUP2 LT PUSH2 0x4AD JUMPI DUP2 MLOAD DUP4 MSTORE PUSH1 0x20 DUP3 ADD SWAP2 POP DUP2 MLOAD PUSH1 0x20 DUP5 ADD MSTORE PUSH1 0x20 DUP3 ADD SWAP2 POP DUP2 MLOAD PUSH1 0x40 DUP5 ADD MSTORE PUSH1 0x20 DUP3 ADD SWAP2 POP DUP2 MLOAD PUSH1 0x60 DUP5 ADD MSTORE PUSH1 0x20 DUP3 ADD SWAP2 POP PUSH1 0x80 DUP2 SUB SWAP1 POP PUSH1 0x80 DUP8 LT ISZERO PUSH2 0x49B JUMPI DUP7 DUP5 ADD SWAP4 POP PUSH2 0x4A8 JUMP JUMPDEST PUSH1 0x80 DUP8 SUB SWAP7 POP PUSH1 0x80 DUP5 ADD SWAP4 POP JUMPDEST PUSH2 0x4B2 JUMP JUMPDEST PUSH1 0x0 DUP1 REVERT JUMPDEST PUSH1 0xFF DUP5 AND PUSH1 0xE4 DUP7 ADD MSTORE8 PUSH1 0xFF DUP5 PUSH1 0x8 SHR AND PUSH1 0xE5 DUP7 ADD MSTORE8 PUSH1 0xFF DUP5 PUSH1 0x10 SHR AND PUSH1 0xE6 DUP7 ADD MSTORE8 PUSH1 0x0 DUP2 EQ ISZERO PUSH2 0x4E3 JUMPI DUP6 PUSH1 0xF4 DUP7 ADD MSTORE8 JUMPDEST PUSH2 0x4EC DUP10 PUSH2 0x530 JUMP JUMPDEST PUSH2 0x440 JUMP JUMPDEST DUP4 DUP10 PUSH1 0x40 ADD DUP2 DUP2 MSTORE POP POP POP POP POP POP POP POP POP POP POP JUMP JUMPDEST PUSH1 0x0 PUSH1 0x80 DUP4 MLOAD DUP2 PUSH2 0x513 JUMPI INVALID JUMPDEST MOD EQ PUSH2 0x51E JUMPI PUSH1 0x0 DUP1 REVERT JUMPDEST PUSH2 0x52B DUP4 DUP4 DUP4 PUSH1 0x0 PUSH2 0x417 JUMP JUMPDEST POP POP POP JUMP JUMPDEST PUSH1 0x0 DUP2 PUSH1 0x0 ADD MLOAD SWAP1 POP PUSH1 0x20 DUP2 ADD PUSH1 0x40 PUSH1 0x4 DUP3 ADD PUSH1 0xD5 DUP4 PUSH1 0x9 PUSH1 0x0 NOT STATICCALL PUSH2 0x555 JUMPI PUSH1 0x0 DUP1 REVERT JUMPDEST POP POP POP JUMP JUMPDEST PUSH1 0x40 MLOAD DUP1 PUSH1 0x60 ADD PUSH1 0x40 MSTORE DUP1 PUSH1 0x60 DUP2 MSTORE PUSH1 0x20 ADD PUSH1 0x0 DUP2 MSTORE PUSH1 0x20 ADD PUSH1 0x0 DUP2 MSTORE POP SWAP1 JUMP JUMPDEST PUSH1 0x0 PUSH2 0x58E PUSH2 0x589 DUP5 PUSH2 0x6E8 JUMP JUMPDEST PUSH2 0x6B7 JUMP JUMPDEST SWAP1 POP DUP3 DUP2 MSTORE PUSH1 0x20 DUP2 ADD DUP5 DUP5 DUP5 ADD GT ISZERO PUSH2 0x5A6 JUMPI PUSH1 0x0 DUP1 REVERT JUMPDEST PUSH2 0x5B1 DUP5 DUP3 DUP6 PUSH2 0x72C JUMP JUMPDEST POP SWAP4 SWAP3 POP POP POP JUMP JUMPDEST PUSH1 0x0 DUP3 PUSH1 0x1F DUP4 ADD SLT PUSH2 0x5CA JUMPI PUSH1 0x0 DUP1 REVERT JUMPDEST DUP2 CALLDATALOAD PUSH2 0x5DA DUP5 DUP3 PUSH1 0x20 DUP7 ADD PUSH2 0x57B JUMP JUMPDEST SWAP2 POP POP SWAP3 SWAP2 POP POP JUMP JUMPDEST PUSH1 0x0 DUP2 CALLDATALOAD SWAP1 POP PUSH2 0x5F2 DUP2 PUSH2 0x73D JUMP JUMPDEST SWAP3 SWAP2 POP POP JUMP JUMPDEST PUSH1 0x0 PUSH1 0x20 DUP3 DUP5 SUB SLT ISZERO PUSH2 0x60A JUMPI PUSH1 0x0 DUP1 REVERT JUMPDEST PUSH1 0x0 DUP3 ADD CALLDATALOAD PUSH8 0xFFFFFFFFFFFFFFFF DUP2 GT ISZERO PUSH2 0x624 JUMPI PUSH1 0x0 DUP1 REVERT JUMPDEST PUSH2 0x630 DUP5 DUP3 DUP6 ADD PUSH2 0x5B9 JUMP JUMPDEST SWAP2 POP POP SWAP3 SWAP2 POP POP JUMP JUMPDEST PUSH1 0x0 DUP1 PUSH1 0x40 DUP4 DUP6 SUB SLT ISZERO PUSH2 0x64C JUMPI PUSH1 0x0 DUP1 REVERT JUMPDEST PUSH1 0x0 DUP4 ADD CALLDATALOAD PUSH8 0xFFFFFFFFFFFFFFFF DUP2 GT ISZERO PUSH2 0x666 JUMPI PUSH1 0x0 DUP1 REVERT JUMPDEST PUSH2 0x672 DUP6 DUP3 DUP7 ADD PUSH2 0x5B9 JUMP JUMPDEST SWAP3 POP POP PUSH1 0x20 PUSH2 0x683 DUP6 DUP3 DUP7 ADD PUSH2 0x5E3 JUMP JUMPDEST SWAP2 POP POP SWAP3 POP SWAP3 SWAP1 POP JUMP JUMPDEST PUSH2 0x696 DUP2 PUSH2 0x718 JUMP JUMPDEST DUP3 MSTORE POP POP JUMP JUMPDEST PUSH1 0x0 PUSH1 0x20 DUP3 ADD SWAP1 POP PUSH2 0x6B1 PUSH1 0x0 DUP4 ADD DUP5 PUSH2 0x68D JUMP JUMPDEST SWAP3 SWAP2 POP POP JUMP JUMPDEST PUSH1 0x0 PUSH1 0x40 MLOAD SWAP1 POP DUP2 DUP2 ADD DUP2 DUP2 LT PUSH8 0xFFFFFFFFFFFFFFFF DUP3 GT OR ISZERO PUSH2 0x6DE JUMPI PUSH2 0x6DD PUSH2 0x73B JUMP JUMPDEST JUMPDEST DUP1 PUSH1 0x40 MSTORE POP SWAP2 SWAP1 POP JUMP JUMPDEST PUSH1 0x0 PUSH8 0xFFFFFFFFFFFFFFFF DUP3 GT ISZERO PUSH2 0x703 JUMPI PUSH2 0x702 PUSH2 0x73B JUMP JUMPDEST JUMPDEST PUSH1 0x1F NOT PUSH1 0x1F DUP4 ADD AND SWAP1 POP PUSH1 0x20 DUP2 ADD SWAP1 POP SWAP2 SWAP1 POP JUMP JUMPDEST PUSH1 0x0 DUP2 SWAP1 POP SWAP2 SWAP1 POP JUMP JUMPDEST PUSH1 0x0 DUP2 SWAP1 POP SWAP2 SWAP1 POP JUMP JUMPDEST DUP3 DUP2 DUP4 CALLDATACOPY PUSH1 0x0 DUP4 DUP4 ADD MSTORE POP POP POP JUMP JUMPDEST INVALID JUMPDEST PUSH2 0x746 DUP2 PUSH2 0x722 JUMP JUMPDEST DUP2 EQ PUSH2 0x751 JUMPI PUSH1 0x0 DUP1 REVERT JUMPDEST POP JUMP INVALID STOP STOP STOP 0xC ADDMOD 0xC9 0xBD CALLCODE PUSH8 0xE6096A3BA7CA8485 0xAE PUSH8 0xBB2BF894FE72F36E EXTCODECOPY CALL CALLDATASIZE SAR 0x5F GASPRICE CREATE2 0x4F 0xA5 0xD1 DUP3 0xE6 0xAD PUSH32 0x520E511F6C3E2B8C68059B3DD8338ED89DE6791854126751AC93330000000000 STOP STOP STOP STOP STOP STOP STOP STOP STOP STOP STOP STOP STOP STOP STOP STOP STOP STOP STOP STOP STOP STOP STOP STOP STOP STOP STOP STOP STOP STOP STOP STOP STOP STOP STOP STOP STOP STOP STOP STOP STOP STOP STOP STOP STOP STOP STOP STOP STOP STOP STOP STOP STOP STOP STOP STOP STOP STOP STOP STOP STOP STOP STOP STOP STOP STOP STOP STOP STOP STOP STOP STOP STOP STOP STOP STOP STOP STOP STOP STOP STOP STOP STOP STOP STOP STOP STOP STOP STOP STOP STOP STOP STOP STOP STOP STOP STOP STOP STOP STOP STOP STOP STOP STOP STOP STOP STOP STOP STOP STOP STOP STOP STOP STOP STOP STOP STOP STOP STOP STOP STOP STOP STOP STOP STOP STOP STOP STOP STOP STOP STOP STOP STOP STOP STOP STOP STOP STOP STOP STOP LOG2 PUSH5 0x6970667358 0x22 SLT KECCAK256 0xCD 0xDD SSTORE 0x21 SWAP12 XOR SHR PUSH5 0xA1122C6114 PUSH9 0x9CF4A0BCB58C675C82 0xE7 SELFBALANCE 0xB5 0xD3 0xC1 DUP14 OR 0xBE 0xB6 PUSH5 0x736F6C6343 STOP SMOD MOD STOP CALLER "
		},
		"gasEstimates": {
			"creation": {
				"codeDepositCost": "428600",
				"executionCost": "461",
				"totalCost": "429061"
			},
			"external": {
				"bytesToBytes32(bytes)": "infinite",
				"bytesToBytes32(bytes,uint256)": "infinite",
				"createHash(bytes)": "infinite"
			}
		},
		"methodIdentifiers": {
			"bytesToBytes32(bytes)": "bfe370d9",
			"bytesToBytes32(bytes,uint256)": "53584939",
			"createHash(bytes)": "2cd0cff2"
		}
	},
	"abi": [
		{
			"inputs": [
				{
					"internalType": "bytes",
					"name": "b",
					"type": "bytes"
				},
				{
					"internalType": "uint256",
					"name": "offset",
					"type": "uint256"
				}
			],
			"name": "bytesToBytes32",
			"outputs": [
				{
					"internalType": "bytes32",
					"name": "",
					"type": "bytes32"
				}
			],
			"stateMutability": "pure",
			"type": "function"
		},
		{
			"inputs": [
				{
					"internalType": "bytes",
					"name": "b",
					"type": "bytes"
				}
			],
			"name": "bytesToBytes32",
			"outputs": [
				{
					"internalType": "bytes32",
					"name": "",
					"type": "bytes32"
				}
			],
			"stateMutability": "pure",
			"type": "function"
		},
		{
			"inputs": [
				{
					"internalType": "bytes",
					"name": "input",
					"type": "bytes"
				}
			],
			"name": "createHash",
			"outputs": [
				{
					"internalType": "bytes32",
					"name": "",
					"type": "bytes32"
				}
			],
			"stateMutability": "view",
			"type": "function"
		}
	]
}