{
	"data": {
		"bytecode": {
			"linkReferences": {},
			"object": "60e06040523480156200001157600080fd5b506040516200619a3803806200619a833981810160405281019062000037919062000147565b8373ffffffffffffffffffffffffffffffffffffffff1660808173ffffffffffffffffffffffffffffffffffffffff16815250508173ffffffffffffffffffffffffffffffffffffffff1660a08173ffffffffffffffffffffffffffffffffffffffff16815250508073ffffffffffffffffffffffffffffffffffffffff1660c08173ffffffffffffffffffffffffffffffffffffffff168152505050505050620001b9565b600080fd5b600073ffffffffffffffffffffffffffffffffffffffff82169050919050565b60006200010f82620000e2565b9050919050565b620001218162000102565b81146200012d57600080fd5b50565b600081519050620001418162000116565b92915050565b60008060008060808587031215620001645762000163620000dd565b5b6000620001748782880162000130565b9450506020620001878782880162000130565b93505060406200019a8782880162000130565b9250506060620001ad8782880162000130565b91505092959194509250565b60805160a05160c051615fb1620001e96000396000611e8e01526000611b32015260006113220152615fb16000f3fe60806040523480156200001157600080fd5b5060043610620001785760003560e01c80636bb6707311620000d55780639a70b46611620000875780639a70b46614620004eb5780639ead7222146200050d578063b17f15a21462000543578063c03d4268146200057d578063c36b4d1e146200059f578063c7946e6d14620005d55762000178565b80636bb6707314620003cc5780636d4b76d51462000402578063841a550e14620004385780638491fbaa146200046f5780638c7982f814620004915780638da5cb5b14620004c95762000178565b80635112ba98116200012f5780635112ba9814620002af578063530f278f14620002e5578063538c3c5c146200031b5780635d0f1f3e146200033d5780635fd4b08a146200035d578063683d8cbb14620003935762000178565b80630f031f65146200017d57806323c8504d14620001b3578063250dea5314620001e9578063327d42631462000221578063474da79a14620002575780634b7ea401146200028d575b600080fd5b6200019b6004803603810190620001959190620024e1565b6200060b565b604051620001aa9190620025b7565b60405180910390f35b620001d16004803603810190620001cb9190620024e1565b620006b3565b604051620001e09190620025f6565b60405180910390f35b62000207600480360381019062000201919062002678565b620006cb565b6040516200021893929190620026d9565b60405180910390f35b6200023f6004803603810190620002399190620024e1565b62000742565b6040516200024e919062002733565b60405180910390f35b6200027560048036038101906200026f919062002781565b62000762565b604051620002849190620027b3565b60405180910390f35b62000297620007a2565b604051620002a69190620027d0565b60405180910390f35b620002cd6004803603810190620002c79190620027ed565b620007b5565b604051620002dc9190620025f6565b60405180910390f35b620003036004803603810190620002fd919062002781565b620007da565b604051620003129190620025f6565b60405180910390f35b62000325620007f2565b60405162000334919062002859565b60405180910390f35b6200035b6004803603810190620003559190620029f8565b6200080c565b005b6200037b600480360381019062000375919062002678565b62000b04565b6040516200038a919062002b2f565b60405180910390f35b620003b16004803603810190620003ab9190620024e1565b62000c2d565b604051620003c3949392919062002b85565b60405180910390f35b620003ea6004803603810190620003e49190620024e1565b62000c7d565b604051620003f9919062002733565b60405180910390f35b6200042060048036038101906200041a919062002781565b62000c9d565b6040516200042f9190620027b3565b60405180910390f35b62000456600480360381019062000450919062002c3b565b62000cdd565b6040516200046692919062002ca5565b60405180910390f35b6200047962000e49565b60405162000488919062002733565b60405180910390f35b620004af6004803603810190620004a9919062002781565b62000e5c565b604051620004c09392919062002cd9565b60405180910390f35b620004d362000e9a565b604051620004e29190620027b3565b60405180910390f35b620004f562000ec0565b60405162000504919062002d16565b60405180910390f35b6200052b600480360381019062000525919062002781565b62000ec6565b6040516200053a9190620027b3565b60405180910390f35b6200056160048036038101906200055b919062002678565b62000f06565b6040516200057495949392919062002d33565b60405180910390f35b6200058762000ff9565b60405162000596919062002859565b60405180910390f35b620005bd6004803603810190620005b7919062002781565b62001013565b604051620005cc9190620025b7565b60405180910390f35b620005f36004803603810190620005ed919062002781565b620010c8565b604051620006029190620027b3565b60405180910390f35b600860205280600052604060002060009150905080546200062c9062002dc6565b80601f01602080910402602001604051908101604052809291908181526020018280546200065a9062002dc6565b8015620006ab5780601f106200067f57610100808354040283529160200191620006ab565b820191906000526020600020905b8154815290600101906020018083116200068d57829003601f168201915b505050505081565b600a6020528060005260406000206000915090505481565b60756020528060005260406000206000915090508060000160009054906101000a900473ffffffffffffffffffffffffffffffffffffffff16908060010160009054906101000a900473ffffffffffffffffffffffffffffffffffffffff16908060010160149054906101000a900460ff16905083565b60026020528060005260406000206000915054906101000a900460ff1681565b600d81815481106200077357600080fd5b906000526020600020016000915054906101000a900473ffffffffffffffffffffffffffffffffffffffff1681565b607360009054906101000a900460ff1681565b600b602052816000526040600020602052806000526040600020600091509150505481565b60016020528060005260406000206000915090505481565b600760089054906101000a900467ffffffffffffffff1681565b6000600263ffffffff1660028460ff161663ffffffff1614156200097657602063ffffffff1660208460ff161663ffffffff1614156200088f576000858560405162000858906200238c565b6200086592919062002dfc565b604051809103906000f08015801562000882573d6000803e3d6000fd5b5090508091505062000970565b608063ffffffff1660808460ff161663ffffffff1614156200096f57600360006005600060ff1681548110620008ca57620008c962002e37565b5b9060005260206000200160009054906101000a900473ffffffffffffffffffffffffffffffffffffffff1673ffffffffffffffffffffffffffffffffffffffff1673ffffffffffffffffffffffffffffffffffffffff16815260200190815260200160002060000160009054906101000a900473ffffffffffffffffffffffffffffffffffffffff1690508673ffffffffffffffffffffffffffffffffffffffff1691505b5b6200097a565b8590505b6005879080600181540180825580915050600190039060005260206000200160009091909190916101000a81548173ffffffffffffffffffffffffffffffffffffffff021916908373ffffffffffffffffffffffffffffffffffffffff1602179055506040518060a001604052808273ffffffffffffffffffffffffffffffffffffffff1681526020018460ff1681526020016000815260200186815260200183815250600360008973ffffffffffffffffffffffffffffffffffffffff1673ffffffffffffffffffffffffffffffffffffffff16815260200190815260200160002060008201518160000160006101000a81548173ffffffffffffffffffffffffffffffffffffffff021916908373ffffffffffffffffffffffffffffffffffffffff16021790555060208201518160000160146101000a81548160ff021916908360ff16021790555060408201518160010155606082015181600201908051906020019062000aed9291906200239a565b506080820151816003015590505050505050505050565b606060006306fdde0360e01b9050600080602067ffffffffffffffff81111562000b335762000b3262002880565b5b6040519080825280601f01601f19166020018201604052801562000b665781602001600182028036833780820191505090505b509350604051600084825260608260208460008b611388f162000b8857600080fd5b81519350837f06fdde0300000000000000000000000000000000000000000000000000000000811462000c06576000811462000c0b576020811462000c10575b600062000bfd5760ff856008840260f8031c1693508362000be95762000bfd565b836020830188015360018201915062000bc8565b81875262000c22565b600080fd5b600080fd5b60208301518752604083015160208801525b505050505050919050565b60046020528060005260406000206000915090508060000154908060010154908060020160009054906101000a900463ffffffff16908060020160049054906101000a900463ffffffff16905084565b60746020528060005260406000206000915054906101000a900460ff1681565b6077818154811062000cae57600080fd5b906000526020600020016000915054906101000a900473ffffffffffffffffffffffffffffffffffffffff1681565b6060600060608060606000600d6001600a81111562000d015762000d0062002e66565b5b8154811062000d155762000d1462002e37565b5b9060005260206000200160009054906101000a900473ffffffffffffffffffffffffffffffffffffffff1673ffffffffffffffffffffffffffffffffffffffff16639d56cf898a8a8a6040518463ffffffff1660e01b815260040162000d7e9392919062002ec8565b60006040518083038186803b15801562000d9757600080fd5b505afa15801562000dac573d6000803e3d6000fd5b505050506040513d6000823e3d601f19601f8201168201806040525081019062000dd791906200341b565b809550819450829650839750505050508260028151811062000dfe5762000dfd62002e37565b5b602002602001015160000151945062000e188483620010ff565b9550600060188263ffffffff16901c60ff16111562000e3d5762000e3c8362001756565b5b50505050935093915050565b600760109054906101000a900460ff1681565b60006020528060005260406000206000915090508060000154908060010154908060020160009054906101000a900467ffffffffffffffff16905083565b607960009054906101000a900473ffffffffffffffffffffffffffffffffffffffff1681565b60065481565b6005818154811062000ed757600080fd5b906000526020600020016000915054906101000a900473ffffffffffffffffffffffffffffffffffffffff1681565b60036020528060005260406000206000915090508060000160009054906101000a900473ffffffffffffffffffffffffffffffffffffffff16908060000160149054906101000a900460ff169080600101549080600201805462000f6a9062002dc6565b80601f016020809104026020016040519081016040528092919081815260200182805462000f989062002dc6565b801562000fe95780601f1062000fbd5761010080835404028352916020019162000fe9565b820191906000526020600020905b81548152906001019060200180831162000fcb57829003601f168201915b5050505050908060030154905085565b600760009054906101000a900467ffffffffffffffff1681565b607881815481106200102457600080fd5b906000526020600020016000915090508054620010419062002dc6565b80601f01602080910402602001604051908101604052809291908181526020018280546200106f9062002dc6565b8015620010c05780601f106200109457610100808354040283529160200191620010c0565b820191906000526020600020905b815481529060010190602001808311620010a257829003601f168201915b505050505081565b600f8160648110620010d957600080fd5b016000915054906101000a900473ffffffffffffffffffffffffffffffffffffffff1681565b606060005b83518110156200174f5760008060006200111d6200242b565b600060a060ff168987815181106200113a576200113962002e37565b5b602002602001015160000151901c945088868151811062001160576200115f62002e37565b5b6020026020010151602001519350600360008a888151811062001188576200118762002e37565b5b60200260200101516000015173ffffffffffffffffffffffffffffffffffffffff1673ffffffffffffffffffffffffffffffffffffffff1681526020019081526020016000206040518060a00160405290816000820160009054906101000a900473ffffffffffffffffffffffffffffffffffffffff1673ffffffffffffffffffffffffffffffffffffffff1673ffffffffffffffffffffffffffffffffffffffff1681526020016000820160149054906101000a900460ff1660ff1660ff16815260200160018201548152602001600282018054620012689062002dc6565b80601f0160208091040260200160405190810160405280929190818152602001828054620012969062002dc6565b8015620012e75780601f10620012bb57610100808354040283529160200191620012e7565b820191906000526020600020905b815481529060010190602001808311620012c957829003601f168201915b50505050508152602001600382015481525050915088868151811062001312576200131162002e37565b5b60200260200101516000015192507f000000000000000000000000000000000000000000000000000000000000000073ffffffffffffffffffffffffffffffffffffffff168373ffffffffffffffffffffffffffffffffffffffff1614156200139457600160058111156200138c576200138b62002e66565b5b905062001584565b602063ffffffff166020836020015160ff161663ffffffff161415620013fb57600263ffffffff166002836020015160ff161663ffffffff1614620013db576002620013de565b60035b6005811115620013f357620013f262002e66565b5b905062001583565b600163ffffffff166001836020015160ff161663ffffffff161415620014bc57608063ffffffff166080836020015160ff161663ffffffff1614156200145a576004600581111562001452576200145162002e66565b5b9050620014b6565b601063ffffffff166010836020015160ff161663ffffffff161480620014965750604063ffffffff166040836020015160ff161663ffffffff16145b15620014b557600580811115620014b257620014b162002e66565b5b90505b5b62001582565b608063ffffffff166080836020015160ff161663ffffffff16148015620014f95750600263ffffffff166002836020015160ff161663ffffffff16145b1562001581576000826000015190508073ffffffffffffffffffffffffffffffffffffffff1663fa8509c8858560600151886040518463ffffffff1660e01b81526004016200154b93929190620034ea565b600060405180830381600087803b1580156200156657600080fd5b505af11580156200157b573d6000803e3d6000fd5b50505050505b5b5b5b600060058111156200159b576200159a62002e66565b5b60ff168160ff161115620015cd57620015ca8260000151858767ffffffffffffffff1684866080015162001cff565b90505b600160ff168160ff16148015620015ee575060008567ffffffffffffffff16115b156200164157868887815181106200160b576200160a62002e37565b5b602002602001015186856040516020016200162a949392919062003638565b604051602081830303815290604052965062001734565b600260ff168160ff161415620016bc578467ffffffffffffffff16600360008573ffffffffffffffffffffffffffffffffffffffff1673ffffffffffffffffffffffffffffffffffffffff1681526020019081526020016000206003016000828254620016af9190620036b9565b9250508190555062001733565b600360ff168160ff16141562001732578467ffffffffffffffff16600360008573ffffffffffffffffffffffffffffffffffffffff1673ffffffffffffffffffffffffffffffffffffffff16815260200190815260200160002060010160008282546200172a9190620036f4565b925050819055505b5b5b50505050508080620017469062003751565b91505062001104565b5092915050565b60005b815181101562001cfb576000600360008484815181106200177f576200177e62002e37565b5b60200260200101516040015173ffffffffffffffffffffffffffffffffffffffff1673ffffffffffffffffffffffffffffffffffffffff16815260200190815260200160002060000160149054906101000a900460ff1660ff161180620018335750600073ffffffffffffffffffffffffffffffffffffffff168282815181106200180f576200180e62002e37565b5b60200260200101516040015173ffffffffffffffffffffffffffffffffffffffff16145b156200183f5762001ce5565b600d6001600a81111562001858576200185762002e66565b5b815481106200186c576200186b62002e37565b5b9060005260206000200160009054906101000a900473ffffffffffffffffffffffffffffffffffffffff1673ffffffffffffffffffffffffffffffffffffffff1663dd4693bb838381518110620018c857620018c762002e37565b5b60200260200101516040518263ffffffff1660e01b8152600401620018ee9190620038b9565b60006040518083038186803b1580156200190757600080fd5b505afa1580156200191c573d6000803e3d6000fd5b505050506060600163ffffffff16601060406001171784848151811062001948576200194762002e37565b5b60200260200101516080015160ff161663ffffffff16141562001ae957600d6000600a8111156200197e576200197d62002e66565b5b8154811062001992576200199162002e37565b5b9060005260206000200160009054906101000a900473ffffffffffffffffffffffffffffffffffffffff1673ffffffffffffffffffffffffffffffffffffffff16635fd4b08a848481518110620019ee57620019ed62002e37565b5b6020026020010151602001516040518263ffffffff1660e01b815260040162001a189190620027b3565b60006040518083038186803b15801562001a3157600080fd5b505afa92505050801562001a6a57506040513d6000823e3d601f19601f8201168201806040525081019062001a679190620038dd565b60015b62001aad576040518060400160405280600381526020017f2e2e2e0000000000000000000000000000000000000000000000000000000000815250905062001ab2565b809150505b60008151141562001ac4575062001ce5565b8060405160200162001ad7919062003a10565b60405160208183030381529060405290505b8083838151811062001b005762001aff62002e37565b5b602002602001015160a0015160405160200162001b1f92919062003a43565b60405160208183030381529060405290507f000000000000000000000000000000000000000000000000000000000000000073ffffffffffffffffffffffffffffffffffffffff1683838151811062001b7d5762001b7c62002e37565b5b60200260200101516060015173ffffffffffffffffffffffffffffffffffffffff161462001c2e57806003600085858151811062001bc05762001bbf62002e37565b5b60200260200101516060015173ffffffffffffffffffffffffffffffffffffffff1673ffffffffffffffffffffffffffffffffffffffff16815260200190815260200160002060020160405160200162001c1c92919062003b5b565b60405160208183030381529060405290505b62001ce383838151811062001c485762001c4762002e37565b5b60200260200101516040015184848151811062001c6a5762001c6962002e37565b5b6020026020010151602001518386868151811062001c8d5762001c8c62002e37565b5b602002602001015160a0015187878151811062001caf5762001cae62002e37565b5b60200260200101516080015188888151811062001cd15762001cd062002e37565b5b6020026020010151600001516200080c565b505b808062001cf29062003751565b91505062001759565b5050565b60006001600581111562001d185762001d1762002e66565b5b60ff168360ff16141562001d85578473ffffffffffffffffffffffffffffffffffffffff166108fc6402540be4008662001d53919062003b90565b9081150290604051600060405180830381858888f1935050505062001d7a57600162001d7d565b60065b9050620022f5565b6000806002600581111562001d9f5762001d9e62002e66565b5b60ff168560ff16148062001dce57506003600581111562001dc55762001dc462002e66565b5b60ff168560ff16145b1562001e675787915062001e64868373ffffffffffffffffffffffffffffffffffffffff1663313ce5676040518163ffffffff1660e01b815260040160206040518083038186803b15801562001e2357600080fd5b505afa15801562001e38573d6000803e3d6000fd5b505050506040513d601f19601f8201168201806040525081019062001e5e919062003bf1565b620022fe565b90505b6002600581111562001e7e5762001e7d62002e66565b5b60ff168560ff161415620020ef577f000000000000000000000000000000000000000000000000000000000000000073ffffffffffffffffffffffffffffffffffffffff168873ffffffffffffffffffffffffffffffffffffffff16141562002042576000600d6003600a81111562001efc5762001efb62002e66565b5b8154811062001f105762001f0f62002e37565b5b9060005260206000200160009054906101000a900473ffffffffffffffffffffffffffffffffffffffff16905060008173ffffffffffffffffffffffffffffffffffffffff1663ef693bed60e01b8a8560405160240162001f7392919062003c23565b604051602081830303815290604052907bffffffffffffffffffffffffffffffffffffffffffffffffffffffff19166020820180517bffffffffffffffffffffffffffffffffffffffffffffffffffffffff838183161783525050505060405162001fdf919062003c50565b600060405180830381855af49150503d80600081146200201c576040519150601f19603f3d011682016040523d82523d6000602084013e62002021565b606091505b50509050806200203357600162002036565b60025b945050505050620022f5565b8173ffffffffffffffffffffffffffffffffffffffff1663a9059cbb88836040518363ffffffff1660e01b81526004016200207f92919062003c23565b602060405180830381600087803b1580156200209a57600080fd5b505af1158015620020af573d6000803e3d6000fd5b505050506040513d601f19601f82011682018060405250810190620020d5919062003c9a565b620020e2576001620020e5565b60025b92505050620022f5565b6003600581111562002106576200210562002e66565b5b60ff168560ff16141562002191578173ffffffffffffffffffffffffffffffffffffffff166340c10f1988836040518363ffffffff1660e01b81526004016200215192919062003c23565b600060405180830381600087803b1580156200216c57600080fd5b505af115801562002181573d6000803e3d6000fd5b50505050600592505050620022f5565b60046005811115620021a857620021a762002e66565b5b60ff168560ff1614156200223f578773ffffffffffffffffffffffffffffffffffffffff166323b872dd3089876040518463ffffffff1660e01b8152600401620021f59392919062003ccc565b600060405180830381600087803b1580156200221057600080fd5b505af192505050801562002222575060015b6200223357600192505050620022f5565b600492505050620022f5565b60058081111562002255576200225462002e66565b5b60ff168560ff161415620022ee578773ffffffffffffffffffffffffffffffffffffffff1663f242432a3089878a6040518563ffffffff1660e01b8152600401620022a4949392919062003d33565b600060405180830381600087803b158015620022bf57600080fd5b505af1925050508015620022d1575060015b620022e257600192505050620022f5565b600392505050620022f5565b6001925050505b95945050505050565b600080600a905060088360ff161115620023475760088362002321919062003d95565b905080600a62002332919062003f24565b846200233f919062003b90565b915062002385565b60088360ff161015620023845782600862002363919062003d95565b905080600a62002374919062003f24565b8462002381919062003fa4565b91505b5b5092915050565b611f9f8062003fdd83390190565b828054620023a89062002dc6565b90600052602060002090601f016020900481019282620023cc576000855562002418565b82601f10620023e757805160ff191683800117855562002418565b8280016001018555821562002418579182015b8281111562002417578251825591602001919060010190620023fa565b5b50905062002427919062002473565b5090565b6040518060a00160405280600073ffffffffffffffffffffffffffffffffffffffff168152602001600060ff1681526020016000815260200160608152602001600081525090565b5b808211156200248e57600081600090555060010162002474565b5090565b6000604051905090565b600080fd5b600080fd5b6000819050919050565b620024bb81620024a6565b8114620024c757600080fd5b50565b600081359050620024db81620024b0565b92915050565b600060208284031215620024fa57620024f96200249c565b5b60006200250a84828501620024ca565b91505092915050565b600081519050919050565b600082825260208201905092915050565b60005b838110156200254f57808201518184015260208101905062002532565b838111156200255f576000848401525b50505050565b6000601f19601f8301169050919050565b6000620025838262002513565b6200258f81856200251e565b9350620025a18185602086016200252f565b620025ac8162002565565b840191505092915050565b60006020820190508181036000830152620025d3818462002576565b905092915050565b6000819050919050565b620025f081620025db565b82525050565b60006020820190506200260d6000830184620025e5565b92915050565b600073ffffffffffffffffffffffffffffffffffffffff82169050919050565b6000620026408262002613565b9050919050565b620026528162002633565b81146200265e57600080fd5b50565b600081359050620026728162002647565b92915050565b6000602082840312156200269157620026906200249c565b5b6000620026a18482850162002661565b91505092915050565b620026b58162002633565b82525050565b600060ff82169050919050565b620026d381620026bb565b82525050565b6000606082019050620026f06000830186620026aa565b620026ff6020830185620026aa565b6200270e6040830184620026c8565b949350505050565b60008115159050919050565b6200272d8162002716565b82525050565b60006020820190506200274a600083018462002722565b92915050565b6200275b81620025db565b81146200276757600080fd5b50565b6000813590506200277b8162002750565b92915050565b6000602082840312156200279a57620027996200249c565b5b6000620027aa848285016200276a565b91505092915050565b6000602082019050620027ca6000830184620026aa565b92915050565b6000602082019050620027e76000830184620026c8565b92915050565b600080604083850312156200280757620028066200249c565b5b60006200281785828601620024ca565b92505060206200282a8582860162002661565b9150509250929050565b600067ffffffffffffffff82169050919050565b620028538162002834565b82525050565b600060208201905062002870600083018462002848565b92915050565b600080fd5b600080fd5b7f4e487b7100000000000000000000000000000000000000000000000000000000600052604160045260246000fd5b620028ba8262002565565b810181811067ffffffffffffffff82111715620028dc57620028db62002880565b5b80604052505050565b6000620028f162002492565b9050620028ff8282620028af565b919050565b600067ffffffffffffffff82111562002922576200292162002880565b5b6200292d8262002565565b9050602081019050919050565b82818337600083830152505050565b6000620029606200295a8462002904565b620028e5565b9050828152602081018484840111156200297f576200297e6200287b565b5b6200298c8482856200293a565b509392505050565b600082601f830112620029ac57620029ab62002876565b5b8135620029be84826020860162002949565b91505092915050565b620029d281620026bb565b8114620029de57600080fd5b50565b600081359050620029f281620029c7565b92915050565b60008060008060008060c0878903121562002a185762002a176200249c565b5b600062002a2889828a0162002661565b965050602062002a3b89828a0162002661565b955050604087013567ffffffffffffffff81111562002a5f5762002a5e620024a1565b5b62002a6d89828a0162002994565b945050606087013567ffffffffffffffff81111562002a915762002a90620024a1565b5b62002a9f89828a0162002994565b935050608062002ab289828a01620029e1565b92505060a062002ac589828a016200276a565b9150509295509295509295565b600081519050919050565b600082825260208201905092915050565b600062002afb8262002ad2565b62002b07818562002add565b935062002b198185602086016200252f565b62002b248162002565565b840191505092915050565b6000602082019050818103600083015262002b4b818462002aee565b905092915050565b62002b5e81620024a6565b82525050565b600063ffffffff82169050919050565b62002b7f8162002b64565b82525050565b600060808201905062002b9c600083018762002b53565b62002bab602083018662002b53565b62002bba604083018562002b74565b62002bc9606083018462002b74565b95945050505050565b600080fd5b600080fd5b60008083601f84011262002bf55762002bf462002876565b5b8235905067ffffffffffffffff81111562002c155762002c1462002bd2565b5b60208301915083600182028301111562002c345762002c3362002bd7565b5b9250929050565b60008060006040848603121562002c575762002c566200249c565b5b600084013567ffffffffffffffff81111562002c785762002c77620024a1565b5b62002c868682870162002bdc565b9350935050602062002c9b86828701620029e1565b9150509250925092565b6000604082019050818103600083015262002cc1818562002576565b905062002cd2602083018462002848565b9392505050565b600060608201905062002cf0600083018662002b53565b62002cff602083018562002b53565b62002d0e604083018462002848565b949350505050565b600060208201905062002d2d600083018462002b53565b92915050565b600060a08201905062002d4a6000830188620026aa565b62002d596020830187620026c8565b62002d686040830186620025e5565b818103606083015262002d7c818562002aee565b905062002d8d6080830184620025e5565b9695505050505050565b7f4e487b7100000000000000000000000000000000000000000000000000000000600052602260045260246000fd5b6000600282049050600182168062002ddf57607f821691505b6020821081141562002df65762002df562002d97565b5b50919050565b6000604082019050818103600083015262002e18818562002aee565b9050818103602083015262002e2e818462002aee565b90509392505050565b7f4e487b7100000000000000000000000000000000000000000000000000000000600052603260045260246000fd5b7f4e487b7100000000000000000000000000000000000000000000000000000000600052602160045260246000fd5b600062002ea383856200251e565b935062002eb28385846200293a565b62002ebd8362002565565b840190509392505050565b6000604082019050818103600083015262002ee581858762002e95565b905062002ef66020830184620026c8565b949350505050565b600067ffffffffffffffff82111562002f1c5762002f1b62002880565b5b602082029050602081019050919050565b600080fd5b600080fd5b60008151905062002f488162002750565b92915050565b60006040828403121562002f675762002f6662002f2d565b5b62002f736040620028e5565b9050600062002f858482850162002f37565b600083015250602062002f9b8482850162002f37565b60208301525092915050565b600062002fbe62002fb88462002efe565b620028e5565b9050808382526020820190506040840283018581111562002fe45762002fe362002bd7565b5b835b8181101562003011578062002ffc888262002f4e565b84526020840193505060408101905062002fe6565b5050509392505050565b600082601f83011262003033576200303262002876565b5b81516200304584826020860162002fa7565b91505092915050565b600067ffffffffffffffff8211156200306c576200306b62002880565b5b602082029050602081019050919050565b6000815190506200308e8162002647565b92915050565b600081519050620030a581620029c7565b92915050565b6000620030c2620030bc8462002904565b620028e5565b905082815260208101848484011115620030e157620030e06200287b565b5b620030ee8482856200252f565b509392505050565b600082601f8301126200310e576200310d62002876565b5b815162003120848260208601620030ab565b91505092915050565b600060c0828403121562003142576200314162002f2d565b5b6200314e60c0620028e5565b90506000620031608482850162002f37565b600083015250602062003176848285016200307d565b60208301525060406200318c848285016200307d565b6040830152506060620031a2848285016200307d565b6060830152506080620031b88482850162003094565b60808301525060a082015167ffffffffffffffff811115620031df57620031de62002f32565b5b620031ed84828501620030f6565b60a08301525092915050565b6000620032106200320a846200304e565b620028e5565b9050808382526020820190506020840283018581111562003236576200323562002bd7565b5b835b818110156200328457805167ffffffffffffffff8111156200325f576200325e62002876565b5b8086016200326e898262003129565b8552602085019450505060208101905062003238565b5050509392505050565b600082601f830112620032a657620032a562002876565b5b8151620032b8848260208601620031f9565b91505092915050565b620032cc8162002b64565b8114620032d857600080fd5b50565b600081519050620032ec81620032c1565b92915050565b600067ffffffffffffffff82111562003310576200330f62002880565b5b602082029050602081019050919050565b600075ffffffffffffffffffffffffffffffffffffffffffff82169050919050565b6200334e8162003321565b81146200335a57600080fd5b50565b6000815190506200336e8162003343565b92915050565b60006200338b6200338584620032f2565b620028e5565b90508083825260208201905060208402830185811115620033b157620033b062002bd7565b5b835b81811015620033de5780620033c988826200335d565b845260208401935050602081019050620033b3565b5050509392505050565b600082601f8301126200340057620033ff62002876565b5b81516200341284826020860162003374565b91505092915050565b600080600080608085870312156200343857620034376200249c565b5b600085015167ffffffffffffffff811115620034595762003458620024a1565b5b62003467878288016200301b565b945050602085015167ffffffffffffffff8111156200348b576200348a620024a1565b5b62003499878288016200328e565b9350506040620034ac87828801620032db565b925050606085015167ffffffffffffffff811115620034d057620034cf620024a1565b5b620034de87828801620033e8565b91505092959194509250565b6000606082019050620035016000830186620026aa565b818103602083015262003515818562002aee565b9050620035266040830184620026aa565b949350505050565b600081905092915050565b6000620035468262002513565b6200355281856200352e565b9350620035648185602086016200252f565b80840191505092915050565b60008160501b9050919050565b60006200358a8262003570565b9050919050565b620035a6620035a08262003321565b6200357d565b82525050565b60008160c01b9050919050565b6000620035c682620035ac565b9050919050565b620035e2620035dc8262002834565b620035b9565b82525050565b60008160601b9050919050565b60006200360282620035e8565b9050919050565b60006200361682620035f5565b9050919050565b620036326200362c8262002633565b62003609565b82525050565b600062003646828762003539565b915062003654828662003591565b601682019150620036668285620035cd565b6008820191506200367882846200361d565b60148201915081905095945050505050565b7f4e487b7100000000000000000000000000000000000000000000000000000000600052601160045260246000fd5b6000620036c682620025db565b9150620036d383620025db565b925082821015620036e957620036e86200368a565b5b828203905092915050565b60006200370182620025db565b91506200370e83620025db565b9250827fffffffffffffffffffffffffffffffffffffffffffffffffffffffffffffffff038211156200374657620037456200368a565b5b828201905092915050565b60006200375e82620025db565b91507fffffffffffffffffffffffffffffffffffffffffffffffffffffffffffffffff8214156200379457620037936200368a565b5b600182019050919050565b620037aa81620025db565b82525050565b620037bb8162002633565b82525050565b620037cc81620026bb565b82525050565b600082825260208201905092915050565b6000620037f08262002ad2565b620037fc8185620037d2565b93506200380e8185602086016200252f565b620038198162002565565b840191505092915050565b600060c0830160008301516200383e60008601826200379f565b506020830151620038536020860182620037b0565b506040830151620038686040860182620037b0565b5060608301516200387d6060860182620037b0565b506080830151620038926080860182620037c1565b5060a083015184820360a0860152620038ac8282620037e3565b9150508091505092915050565b60006020820190508181036000830152620038d5818462003824565b905092915050565b600060208284031215620038f657620038f56200249c565b5b600082015167ffffffffffffffff811115620039175762003916620024a1565b5b6200392584828501620030f6565b91505092915050565b600081905092915050565b7f5b00000000000000000000000000000000000000000000000000000000000000600082015250565b6000620039716001836200392e565b91506200397e8262003939565b600182019050919050565b6000620039968262002ad2565b620039a281856200392e565b9350620039b48185602086016200252f565b80840191505092915050565b7f5d20617320000000000000000000000000000000000000000000000000000000600082015250565b6000620039f86005836200392e565b915062003a0582620039c0565b600582019050919050565b600062003a1d8262003962565b915062003a2b828462003989565b915062003a3882620039e9565b915081905092915050565b600062003a51828562003989565b915062003a5f828462003989565b91508190509392505050565b7f2e00000000000000000000000000000000000000000000000000000000000000600082015250565b600062003aa36001836200392e565b915062003ab08262003a6b565b600182019050919050565b60008190508160005260206000209050919050565b6000815462003adf8162002dc6565b62003aeb81866200392e565b9450600182166000811462003b09576001811462003b1b5762003b52565b60ff1983168652818601935062003b52565b62003b268562003abb565b60005b8381101562003b4a5781548189015260018201915060208101905062003b29565b838801955050505b50505092915050565b600062003b69828562003989565b915062003b768262003a94565b915062003b84828462003ad0565b91508190509392505050565b600062003b9d82620025db565b915062003baa83620025db565b9250817fffffffffffffffffffffffffffffffffffffffffffffffffffffffffffffffff048311821515161562003be65762003be56200368a565b5b828202905092915050565b60006020828403121562003c0a5762003c096200249c565b5b600062003c1a8482850162003094565b91505092915050565b600060408201905062003c3a6000830185620026aa565b62003c496020830184620025e5565b9392505050565b600062003c5e828462003539565b915081905092915050565b62003c748162002716565b811462003c8057600080fd5b50565b60008151905062003c948162003c69565b92915050565b60006020828403121562003cb35762003cb26200249c565b5b600062003cc38482850162003c83565b91505092915050565b600060608201905062003ce36000830186620026aa565b62003cf26020830185620026aa565b62003d016040830184620025e5565b949350505050565b50565b600062003d1b6000836200251e565b915062003d288262003d09565b600082019050919050565b600060a08201905062003d4a6000830187620026aa565b62003d596020830186620026aa565b62003d686040830185620025e5565b62003d776060830184620025e5565b818103608083015262003d8a8162003d0c565b905095945050505050565b600062003da282620026bb565b915062003daf83620026bb565b92508282101562003dc55762003dc46200368a565b5b828203905092915050565b60008160011c9050919050565b6000808291508390505b600185111562003e2f5780860481111562003e075762003e066200368a565b5b600185161562003e175780820291505b808102905062003e278562003dd0565b945062003de7565b94509492505050565b60008262003e4a576001905062003f1d565b8162003e5a576000905062003f1d565b816001811462003e73576002811462003e7e5762003eb4565b600191505062003f1d565b60ff84111562003e935762003e926200368a565b5b8360020a91508482111562003ead5762003eac6200368a565b5b5062003f1d565b5060208310610133831016604e8410600b841016171562003eee5782820a90508381111562003ee85762003ee76200368a565b5b62003f1d565b62003efd848484600162003ddd565b9250905081840481111562003f175762003f166200368a565b5b81810290505b9392505050565b600062003f3182620025db565b915062003f3e83620026bb565b925062003f6d7fffffffffffffffffffffffffffffffffffffffffffffffffffffffffffffffff848462003e38565b905092915050565b7f4e487b7100000000000000000000000000000000000000000000000000000000600052601260045260246000fd5b600062003fb182620025db565b915062003fbe83620025db565b92508262003fd15762003fd062003f75565b5b82820490509291505056fe60806040523480156200001157600080fd5b5060405162001f9f38038062001f9f833981810160405281019062000037919062000303565b8181816003908051906020019062000051929190620000b6565b5080600490805190602001906200006a929190620000b6565b50505033600560006101000a81548173ffffffffffffffffffffffffffffffffffffffff021916908373ffffffffffffffffffffffffffffffffffffffff1602179055505050620003ed565b828054620000c490620003b7565b90600052602060002090601f016020900481019282620000e8576000855562000134565b82601f106200010357805160ff191683800117855562000134565b8280016001018555821562000134579182015b828111156200013357825182559160200191906001019062000116565b5b50905062000143919062000147565b5090565b5b808211156200016257600081600090555060010162000148565b5090565b6000604051905090565b600080fd5b600080fd5b600080fd5b600080fd5b6000601f19601f8301169050919050565b7f4e487b7100000000000000000000000000000000000000000000000000000000600052604160045260246000fd5b620001cf8262000184565b810181811067ffffffffffffffff82111715620001f157620001f062000195565b5b80604052505050565b60006200020662000166565b9050620002148282620001c4565b919050565b600067ffffffffffffffff82111562000237576200023662000195565b5b620002428262000184565b9050602081019050919050565b60005b838110156200026f57808201518184015260208101905062000252565b838111156200027f576000848401525b50505050565b60006200029c620002968462000219565b620001fa565b905082815260208101848484011115620002bb57620002ba6200017f565b5b620002c88482856200024f565b509392505050565b600082601f830112620002e857620002e76200017a565b5b8151620002fa84826020860162000285565b91505092915050565b600080604083850312156200031d576200031c62000170565b5b600083015167ffffffffffffffff8111156200033e576200033d62000175565b5b6200034c85828601620002d0565b925050602083015167ffffffffffffffff81111562000370576200036f62000175565b5b6200037e85828601620002d0565b9150509250929050565b7f4e487b7100000000000000000000000000000000000000000000000000000000600052602260045260246000fd5b60006002820490506001821680620003d057607f821691505b60208210811415620003e757620003e662000388565b5b50919050565b611ba280620003fd6000396000f3fe608060405234801561001057600080fd5b50600436106100ea5760003560e01c806342966c681161008c57806395d89b411161006657806395d89b411461025d578063a457c2d71461027b578063a9059cbb146102ab578063dd62ed3e146102db576100ea565b806342966c68146101f5578063662e4ee41461021157806370a082311461022d576100ea565b806323b872dd116100c857806323b872dd1461015b578063313ce5671461018b57806339509351146101a957806340c10f19146101d9576100ea565b806306fdde03146100ef578063095ea7b31461010d57806318160ddd1461013d575b600080fd5b6100f761030b565b60405161010491906110e9565b60405180910390f35b610127600480360381019061012291906111a4565b61039d565b60405161013491906111ff565b60405180910390f35b6101456103c0565b6040516101529190611229565b60405180910390f35b61017560048036038101906101709190611244565b6103ca565b60405161018291906111ff565b60405180910390f35b6101936103f9565b6040516101a091906112b3565b60405180910390f35b6101c360048036038101906101be91906111a4565b610402565b6040516101d091906111ff565b60405180910390f35b6101f360048036038101906101ee91906111a4565b610439565b005b61020f600480360381019061020a91906112ce565b6104d7565b005b61022b600480360381019061022691906112fb565b61057b565b005b610247600480360381019061024291906112fb565b61064f565b6040516102549190611229565b60405180910390f35b610265610697565b60405161027291906110e9565b60405180910390f35b610295600480360381019061029091906111a4565b610729565b6040516102a291906111ff565b60405180910390f35b6102c560048036038101906102c091906111a4565b6107a0565b6040516102d291906111ff565b60405180910390f35b6102f560048036038101906102f09190611328565b6107c3565b6040516103029190611229565b60405180910390f35b60606003805461031a90611397565b80601f016020809104026020016040519081016040528092919081815260200182805461034690611397565b80156103935780601f1061036857610100808354040283529160200191610393565b820191906000526020600020905b81548152906001019060200180831161037657829003601f168201915b5050505050905090565b6000806103a861084a565b90506103b5818585610852565b600191505092915050565b6000600254905090565b6000806103d561084a565b90506103e2858285610a1d565b6103ed858585610aa9565b60019150509392505050565b60006012905090565b60008061040d61084a565b905061042e81858561041f85896107c3565b61042991906113f8565b610852565b600191505092915050565b600560009054906101000a900473ffffffffffffffffffffffffffffffffffffffff1673ffffffffffffffffffffffffffffffffffffffff163373ffffffffffffffffffffffffffffffffffffffff16146104c9576040517f08c379a00000000000000000000000000000000000000000000000000000000081526004016104c0906114c0565b60405180910390fd5b6104d38282610d21565b5050565b600560009054906101000a900473ffffffffffffffffffffffffffffffffffffffff1673ffffffffffffffffffffffffffffffffffffffff163373ffffffffffffffffffffffffffffffffffffffff1614610567576040517f08c379a000000000000000000000000000000000000000000000000000000000815260040161055e90611552565b60405180910390fd5b61057861057261084a565b82610e78565b50565b600560009054906101000a900473ffffffffffffffffffffffffffffffffffffffff1673ffffffffffffffffffffffffffffffffffffffff163373ffffffffffffffffffffffffffffffffffffffff161461060b576040517f08c379a0000000000000000000000000000000000000000000000000000000008152600401610602906115e4565b60405180910390fd5b80600560006101000a81548173ffffffffffffffffffffffffffffffffffffffff021916908373ffffffffffffffffffffffffffffffffffffffff16021790555050565b60008060008373ffffffffffffffffffffffffffffffffffffffff1673ffffffffffffffffffffffffffffffffffffffff168152602001908152602001600020549050919050565b6060600480546106a690611397565b80601f01602080910402602001604051908101604052809291908181526020018280546106d290611397565b801561071f5780601f106106f45761010080835404028352916020019161071f565b820191906000526020600020905b81548152906001019060200180831161070257829003601f168201915b5050505050905090565b60008061073461084a565b9050600061074282866107c3565b905083811015610787576040517f08c379a000000000000000000000000000000000000000000000000000000000815260040161077e90611676565b60405180910390fd5b6107948286868403610852565b60019250505092915050565b6000806107ab61084a565b90506107b8818585610aa9565b600191505092915050565b6000600160008473ffffffffffffffffffffffffffffffffffffffff1673ffffffffffffffffffffffffffffffffffffffff16815260200190815260200160002060008373ffffffffffffffffffffffffffffffffffffffff1673ffffffffffffffffffffffffffffffffffffffff16815260200190815260200160002054905092915050565b600033905090565b600073ffffffffffffffffffffffffffffffffffffffff168373ffffffffffffffffffffffffffffffffffffffff1614156108c2576040517f08c379a00000000000000000000000000000000000000000000000000000000081526004016108b990611708565b60405180910390fd5b600073ffffffffffffffffffffffffffffffffffffffff168273ffffffffffffffffffffffffffffffffffffffff161415610932576040517f08c379a00000000000000000000000000000000000000000000000000000000081526004016109299061179a565b60405180910390fd5b80600160008573ffffffffffffffffffffffffffffffffffffffff1673ffffffffffffffffffffffffffffffffffffffff16815260200190815260200160002060008473ffffffffffffffffffffffffffffffffffffffff1673ffffffffffffffffffffffffffffffffffffffff168152602001908152602001600020819055508173ffffffffffffffffffffffffffffffffffffffff168373ffffffffffffffffffffffffffffffffffffffff167f8c5be1e5ebec7d5bd14f71427d1e84f3dd0314c0f7b2291e5b200ac8c7c3b92583604051610a109190611229565b60405180910390a3505050565b6000610a2984846107c3565b90507fffffffffffffffffffffffffffffffffffffffffffffffffffffffffffffffff8114610aa35781811015610a95576040517f08c379a0000000000000000000000000000000000000000000000000000000008152600401610a8c90611806565b60405180910390fd5b610aa28484848403610852565b5b50505050565b600073ffffffffffffffffffffffffffffffffffffffff168373ffffffffffffffffffffffffffffffffffffffff161415610b19576040517f08c379a0000000000000000000000000000000000000000000000000000000008152600401610b1090611898565b60405180910390fd5b600073ffffffffffffffffffffffffffffffffffffffff168273ffffffffffffffffffffffffffffffffffffffff161415610b89576040517f08c379a0000000000000000000000000000000000000000000000000000000008152600401610b809061192a565b60405180910390fd5b610b94838383611046565b60008060008573ffffffffffffffffffffffffffffffffffffffff1673ffffffffffffffffffffffffffffffffffffffff16815260200190815260200160002054905081811015610c1a576040517f08c379a0000000000000000000000000000000000000000000000000000000008152600401610c11906119bc565b60405180910390fd5b8181036000808673ffffffffffffffffffffffffffffffffffffffff1673ffffffffffffffffffffffffffffffffffffffff16815260200190815260200160002081905550816000808573ffffffffffffffffffffffffffffffffffffffff1673ffffffffffffffffffffffffffffffffffffffff168152602001908152602001600020600082825401925050819055508273ffffffffffffffffffffffffffffffffffffffff168473ffffffffffffffffffffffffffffffffffffffff167fddf252ad1be2c89b69c2b068fc378daa952ba7f163c4a11628f55a4df523b3ef84604051610d089190611229565b60405180910390a3610d1b84848461104b565b50505050565b600073ffffffffffffffffffffffffffffffffffffffff168273ffffffffffffffffffffffffffffffffffffffff161415610d91576040517f08c379a0000000000000000000000000000000000000000000000000000000008152600401610d8890611a28565b60405180910390fd5b610d9d60008383611046565b8060026000828254610daf91906113f8565b92505081905550806000808473ffffffffffffffffffffffffffffffffffffffff1673ffffffffffffffffffffffffffffffffffffffff168152602001908152602001600020600082825401925050819055508173ffffffffffffffffffffffffffffffffffffffff16600073ffffffffffffffffffffffffffffffffffffffff167fddf252ad1be2c89b69c2b068fc378daa952ba7f163c4a11628f55a4df523b3ef83604051610e609190611229565b60405180910390a3610e746000838361104b565b5050565b600073ffffffffffffffffffffffffffffffffffffffff168273ffffffffffffffffffffffffffffffffffffffff161415610ee8576040517f08c379a0000000000000000000000000000000000000000000000000000000008152600401610edf90611aba565b60405180910390fd5b610ef482600083611046565b60008060008473ffffffffffffffffffffffffffffffffffffffff1673ffffffffffffffffffffffffffffffffffffffff16815260200190815260200160002054905081811015610f7a576040517f08c379a0000000000000000000000000000000000000000000000000000000008152600401610f7190611b4c565b60405180910390fd5b8181036000808573ffffffffffffffffffffffffffffffffffffffff1673ffffffffffffffffffffffffffffffffffffffff1681526020019081526020016000208190555081600260008282540392505081905550600073ffffffffffffffffffffffffffffffffffffffff168373ffffffffffffffffffffffffffffffffffffffff167fddf252ad1be2c89b69c2b068fc378daa952ba7f163c4a11628f55a4df523b3ef8460405161102d9190611229565b60405180910390a36110418360008461104b565b505050565b505050565b505050565b600081519050919050565b600082825260208201905092915050565b60005b8381101561108a57808201518184015260208101905061106f565b83811115611099576000848401525b50505050565b6000601f19601f8301169050919050565b60006110bb82611050565b6110c5818561105b565b93506110d581856020860161106c565b6110de8161109f565b840191505092915050565b6000602082019050818103600083015261110381846110b0565b905092915050565b600080fd5b600073ffffffffffffffffffffffffffffffffffffffff82169050919050565b600061113b82611110565b9050919050565b61114b81611130565b811461115657600080fd5b50565b60008135905061116881611142565b92915050565b6000819050919050565b6111818161116e565b811461118c57600080fd5b50565b60008135905061119e81611178565b92915050565b600080604083850312156111bb576111ba61110b565b5b60006111c985828601611159565b92505060206111da8582860161118f565b9150509250929050565b60008115159050919050565b6111f9816111e4565b82525050565b600060208201905061121460008301846111f0565b92915050565b6112238161116e565b82525050565b600060208201905061123e600083018461121a565b92915050565b60008060006060848603121561125d5761125c61110b565b5b600061126b86828701611159565b935050602061127c86828701611159565b925050604061128d8682870161118f565b9150509250925092565b600060ff82169050919050565b6112ad81611297565b82525050565b60006020820190506112c860008301846112a4565b92915050565b6000602082840312156112e4576112e361110b565b5b60006112f28482850161118f565b91505092915050565b6000602082840312156113115761131061110b565b5b600061131f84828501611159565b91505092915050565b6000806040838503121561133f5761133e61110b565b5b600061134d85828601611159565b925050602061135e85828601611159565b9150509250929050565b7f4e487b7100000000000000000000000000000000000000000000000000000000600052602260045260246000fd5b600060028204905060018216806113af57607f821691505b602082108114156113c3576113c2611368565b5b50919050565b7f4e487b7100000000000000000000000000000000000000000000000000000000600052601160045260246000fd5b60006114038261116e565b915061140e8361116e565b9250827fffffffffffffffffffffffffffffffffffffffffffffffffffffffffffffffff03821115611443576114426113c9565b5b828201905092915050565b7f4f6e6c792074686520636f6e7472616374206f776e65722063616e204d696e7460008201527f20546f6b656e7300000000000000000000000000000000000000000000000000602082015250565b60006114aa60278361105b565b91506114b58261144e565b604082019050919050565b600060208201905081810360008301526114d98161149d565b9050919050565b7f4f6e6c792074686520636f6e7472616374206f776e65722063616e204275726e60008201527f20546f6b656e7300000000000000000000000000000000000000000000000000602082015250565b600061153c60278361105b565b9150611547826114e0565b604082019050919050565b6000602082019050818103600083015261156b8161152f565b9050919050565b7f4f6e6c792074686520636f6e7472616374206f776e65722063616e207570646160008201527f746520746865206f776e65720000000000000000000000000000000000000000602082015250565b60006115ce602c8361105b565b91506115d982611572565b604082019050919050565b600060208201905081810360008301526115fd816115c1565b9050919050565b7f45524332303a2064656372656173656420616c6c6f77616e63652062656c6f7760008201527f207a65726f000000000000000000000000000000000000000000000000000000602082015250565b600061166060258361105b565b915061166b82611604565b604082019050919050565b6000602082019050818103600083015261168f81611653565b9050919050565b7f45524332303a20617070726f76652066726f6d20746865207a65726f2061646460008201527f7265737300000000000000000000000000000000000000000000000000000000602082015250565b60006116f260248361105b565b91506116fd82611696565b604082019050919050565b60006020820190508181036000830152611721816116e5565b9050919050565b7f45524332303a20617070726f766520746f20746865207a65726f20616464726560008201527f7373000000000000000000000000000000000000000000000000000000000000602082015250565b600061178460228361105b565b915061178f82611728565b604082019050919050565b600060208201905081810360008301526117b381611777565b9050919050565b7f45524332303a20696e73756666696369656e7420616c6c6f77616e6365000000600082015250565b60006117f0601d8361105b565b91506117fb826117ba565b602082019050919050565b6000602082019050818103600083015261181f816117e3565b9050919050565b7f45524332303a207472616e736665722066726f6d20746865207a65726f20616460008201527f6472657373000000000000000000000000000000000000000000000000000000602082015250565b600061188260258361105b565b915061188d82611826565b604082019050919050565b600060208201905081810360008301526118b181611875565b9050919050565b7f45524332303a207472616e7366657220746f20746865207a65726f206164647260008201527f6573730000000000000000000000000000000000000000000000000000000000602082015250565b600061191460238361105b565b915061191f826118b8565b604082019050919050565b6000602082019050818103600083015261194381611907565b9050919050565b7f45524332303a207472616e7366657220616d6f756e742065786365656473206260008201527f616c616e63650000000000000000000000000000000000000000000000000000602082015250565b60006119a660268361105b565b91506119b18261194a565b604082019050919050565b600060208201905081810360008301526119d581611999565b9050919050565b7f45524332303a206d696e7420746f20746865207a65726f206164647265737300600082015250565b6000611a12601f8361105b565b9150611a1d826119dc565b602082019050919050565b60006020820190508181036000830152611a4181611a05565b9050919050565b7f45524332303a206275726e2066726f6d20746865207a65726f2061646472657360008201527f7300000000000000000000000000000000000000000000000000000000000000602082015250565b6000611aa460218361105b565b9150611aaf82611a48565b604082019050919050565b60006020820190508181036000830152611ad381611a97565b9050919050565b7f45524332303a206275726e20616d6f756e7420657863656564732062616c616e60008201527f6365000000000000000000000000000000000000000000000000000000000000602082015250565b6000611b3660228361105b565b9150611b4182611ada565b604082019050919050565b60006020820190508181036000830152611b6581611b29565b905091905056fea264697066735822122098274e4365e4c26b5d51b07481f39e96556acada36e11ff0e078694b34bddc8164736f6c63430008090033a2646970667358221220a5fa2da51d1f0c42008c4d3ae2cfc57fc5ad03b48d3954ef83c9bb1181877cb564736f6c63430008090033",
			"opcodes": "PUSH1 0xE0 PUSH1 0x40 MSTORE CALLVALUE DUP1 ISZERO PUSH3 0x11 JUMPI PUSH1 0x0 DUP1 REVERT JUMPDEST POP PUSH1 0x40 MLOAD PUSH3 0x619A CODESIZE SUB DUP1 PUSH3 0x619A DUP4 CODECOPY DUP2 DUP2 ADD PUSH1 0x40 MSTORE DUP2 ADD SWAP1 PUSH3 0x37 SWAP2 SWAP1 PUSH3 0x147 JUMP JUMPDEST DUP4 PUSH20 0xFFFFFFFFFFFFFFFFFFFFFFFFFFFFFFFFFFFFFFFF AND PUSH1 0x80 DUP2 PUSH20 0xFFFFFFFFFFFFFFFFFFFFFFFFFFFFFFFFFFFFFFFF AND DUP2 MSTORE POP POP DUP2 PUSH20 0xFFFFFFFFFFFFFFFFFFFFFFFFFFFFFFFFFFFFFFFF AND PUSH1 0xA0 DUP2 PUSH20 0xFFFFFFFFFFFFFFFFFFFFFFFFFFFFFFFFFFFFFFFF AND DUP2 MSTORE POP POP DUP1 PUSH20 0xFFFFFFFFFFFFFFFFFFFFFFFFFFFFFFFFFFFFFFFF AND PUSH1 0xC0 DUP2 PUSH20 0xFFFFFFFFFFFFFFFFFFFFFFFFFFFFFFFFFFFFFFFF AND DUP2 MSTORE POP POP POP POP POP POP PUSH3 0x1B9 JUMP JUMPDEST PUSH1 0x0 DUP1 REVERT JUMPDEST PUSH1 0x0 PUSH20 0xFFFFFFFFFFFFFFFFFFFFFFFFFFFFFFFFFFFFFFFF DUP3 AND SWAP1 POP SWAP2 SWAP1 POP JUMP JUMPDEST PUSH1 0x0 PUSH3 0x10F DUP3 PUSH3 0xE2 JUMP JUMPDEST SWAP1 POP SWAP2 SWAP1 POP JUMP JUMPDEST PUSH3 0x121 DUP2 PUSH3 0x102 JUMP JUMPDEST DUP2 EQ PUSH3 0x12D JUMPI PUSH1 0x0 DUP1 REVERT JUMPDEST POP JUMP JUMPDEST PUSH1 0x0 DUP2 MLOAD SWAP1 POP PUSH3 0x141 DUP2 PUSH3 0x116 JUMP JUMPDEST SWAP3 SWAP2 POP POP JUMP JUMPDEST PUSH1 0x0 DUP1 PUSH1 0x0 DUP1 PUSH1 0x80 DUP6 DUP8 SUB SLT ISZERO PUSH3 0x164 JUMPI PUSH3 0x163 PUSH3 0xDD JUMP JUMPDEST JUMPDEST PUSH1 0x0 PUSH3 0x174 DUP8 DUP3 DUP9 ADD PUSH3 0x130 JUMP JUMPDEST SWAP5 POP POP PUSH1 0x20 PUSH3 0x187 DUP8 DUP3 DUP9 ADD PUSH3 0x130 JUMP JUMPDEST SWAP4 POP POP PUSH1 0x40 PUSH3 0x19A DUP8 DUP3 DUP9 ADD PUSH3 0x130 JUMP JUMPDEST SWAP3 POP POP PUSH1 0x60 PUSH3 0x1AD DUP8 DUP3 DUP9 ADD PUSH3 0x130 JUMP JUMPDEST SWAP2 POP POP SWAP3 SWAP6 SWAP2 SWAP5 POP SWAP3 POP JUMP JUMPDEST PUSH1 0x80 MLOAD PUSH1 0xA0 MLOAD PUSH1 0xC0 MLOAD PUSH2 0x5FB1 PUSH3 0x1E9 PUSH1 0x0 CODECOPY PUSH1 0x0 PUSH2 0x1E8E ADD MSTORE PUSH1 0x0 PUSH2 0x1B32 ADD MSTORE PUSH1 0x0 PUSH2 0x1322 ADD MSTORE PUSH2 0x5FB1 PUSH1 0x0 RETURN INVALID PUSH1 0x80 PUSH1 0x40 MSTORE CALLVALUE DUP1 ISZERO PUSH3 0x11 JUMPI PUSH1 0x0 DUP1 REVERT JUMPDEST POP PUSH1 0x4 CALLDATASIZE LT PUSH3 0x178 JUMPI PUSH1 0x0 CALLDATALOAD PUSH1 0xE0 SHR DUP1 PUSH4 0x6BB67073 GT PUSH3 0xD5 JUMPI DUP1 PUSH4 0x9A70B466 GT PUSH3 0x87 JUMPI DUP1 PUSH4 0x9A70B466 EQ PUSH3 0x4EB JUMPI DUP1 PUSH4 0x9EAD7222 EQ PUSH3 0x50D JUMPI DUP1 PUSH4 0xB17F15A2 EQ PUSH3 0x543 JUMPI DUP1 PUSH4 0xC03D4268 EQ PUSH3 0x57D JUMPI DUP1 PUSH4 0xC36B4D1E EQ PUSH3 0x59F JUMPI DUP1 PUSH4 0xC7946E6D EQ PUSH3 0x5D5 JUMPI PUSH3 0x178 JUMP JUMPDEST DUP1 PUSH4 0x6BB67073 EQ PUSH3 0x3CC JUMPI DUP1 PUSH4 0x6D4B76D5 EQ PUSH3 0x402 JUMPI DUP1 PUSH4 0x841A550E EQ PUSH3 0x438 JUMPI DUP1 PUSH4 0x8491FBAA EQ PUSH3 0x46F JUMPI DUP1 PUSH4 0x8C7982F8 EQ PUSH3 0x491 JUMPI DUP1 PUSH4 0x8DA5CB5B EQ PUSH3 0x4C9 JUMPI PUSH3 0x178 JUMP JUMPDEST DUP1 PUSH4 0x5112BA98 GT PUSH3 0x12F JUMPI DUP1 PUSH4 0x5112BA98 EQ PUSH3 0x2AF JUMPI DUP1 PUSH4 0x530F278F EQ PUSH3 0x2E5 JUMPI DUP1 PUSH4 0x538C3C5C EQ PUSH3 0x31B JUMPI DUP1 PUSH4 0x5D0F1F3E EQ PUSH3 0x33D JUMPI DUP1 PUSH4 0x5FD4B08A EQ PUSH3 0x35D JUMPI DUP1 PUSH4 0x683D8CBB EQ PUSH3 0x393 JUMPI PUSH3 0x178 JUMP JUMPDEST DUP1 PUSH4 0xF031F65 EQ PUSH3 0x17D JUMPI DUP1 PUSH4 0x23C8504D EQ PUSH3 0x1B3 JUMPI DUP1 PUSH4 0x250DEA53 EQ PUSH3 0x1E9 JUMPI DUP1 PUSH4 0x327D4263 EQ PUSH3 0x221 JUMPI DUP1 PUSH4 0x474DA79A EQ PUSH3 0x257 JUMPI DUP1 PUSH4 0x4B7EA401 EQ PUSH3 0x28D JUMPI JUMPDEST PUSH1 0x0 DUP1 REVERT JUMPDEST PUSH3 0x19B PUSH1 0x4 DUP1 CALLDATASIZE SUB DUP2 ADD SWAP1 PUSH3 0x195 SWAP2 SWAP1 PUSH3 0x24E1 JUMP JUMPDEST PUSH3 0x60B JUMP JUMPDEST PUSH1 0x40 MLOAD PUSH3 0x1AA SWAP2 SWAP1 PUSH3 0x25B7 JUMP JUMPDEST PUSH1 0x40 MLOAD DUP1 SWAP2 SUB SWAP1 RETURN JUMPDEST PUSH3 0x1D1 PUSH1 0x4 DUP1 CALLDATASIZE SUB DUP2 ADD SWAP1 PUSH3 0x1CB SWAP2 SWAP1 PUSH3 0x24E1 JUMP JUMPDEST PUSH3 0x6B3 JUMP JUMPDEST PUSH1 0x40 MLOAD PUSH3 0x1E0 SWAP2 SWAP1 PUSH3 0x25F6 JUMP JUMPDEST PUSH1 0x40 MLOAD DUP1 SWAP2 SUB SWAP1 RETURN JUMPDEST PUSH3 0x207 PUSH1 0x4 DUP1 CALLDATASIZE SUB DUP2 ADD SWAP1 PUSH3 0x201 SWAP2 SWAP1 PUSH3 0x2678 JUMP JUMPDEST PUSH3 0x6CB JUMP JUMPDEST PUSH1 0x40 MLOAD PUSH3 0x218 SWAP4 SWAP3 SWAP2 SWAP1 PUSH3 0x26D9 JUMP JUMPDEST PUSH1 0x40 MLOAD DUP1 SWAP2 SUB SWAP1 RETURN JUMPDEST PUSH3 0x23F PUSH1 0x4 DUP1 CALLDATASIZE SUB DUP2 ADD SWAP1 PUSH3 0x239 SWAP2 SWAP1 PUSH3 0x24E1 JUMP JUMPDEST PUSH3 0x742 JUMP JUMPDEST PUSH1 0x40 MLOAD PUSH3 0x24E SWAP2 SWAP1 PUSH3 0x2733 JUMP JUMPDEST PUSH1 0x40 MLOAD DUP1 SWAP2 SUB SWAP1 RETURN JUMPDEST PUSH3 0x275 PUSH1 0x4 DUP1 CALLDATASIZE SUB DUP2 ADD SWAP1 PUSH3 0x26F SWAP2 SWAP1 PUSH3 0x2781 JUMP JUMPDEST PUSH3 0x762 JUMP JUMPDEST PUSH1 0x40 MLOAD PUSH3 0x284 SWAP2 SWAP1 PUSH3 0x27B3 JUMP JUMPDEST PUSH1 0x40 MLOAD DUP1 SWAP2 SUB SWAP1 RETURN JUMPDEST PUSH3 0x297 PUSH3 0x7A2 JUMP JUMPDEST PUSH1 0x40 MLOAD PUSH3 0x2A6 SWAP2 SWAP1 PUSH3 0x27D0 JUMP JUMPDEST PUSH1 0x40 MLOAD DUP1 SWAP2 SUB SWAP1 RETURN JUMPDEST PUSH3 0x2CD PUSH1 0x4 DUP1 CALLDATASIZE SUB DUP2 ADD SWAP1 PUSH3 0x2C7 SWAP2 SWAP1 PUSH3 0x27ED JUMP JUMPDEST PUSH3 0x7B5 JUMP JUMPDEST PUSH1 0x40 MLOAD PUSH3 0x2DC SWAP2 SWAP1 PUSH3 0x25F6 JUMP JUMPDEST PUSH1 0x40 MLOAD DUP1 SWAP2 SUB SWAP1 RETURN JUMPDEST PUSH3 0x303 PUSH1 0x4 DUP1 CALLDATASIZE SUB DUP2 ADD SWAP1 PUSH3 0x2FD SWAP2 SWAP1 PUSH3 0x2781 JUMP JUMPDEST PUSH3 0x7DA JUMP JUMPDEST PUSH1 0x40 MLOAD PUSH3 0x312 SWAP2 SWAP1 PUSH3 0x25F6 JUMP JUMPDEST PUSH1 0x40 MLOAD DUP1 SWAP2 SUB SWAP1 RETURN JUMPDEST PUSH3 0x325 PUSH3 0x7F2 JUMP JUMPDEST PUSH1 0x40 MLOAD PUSH3 0x334 SWAP2 SWAP1 PUSH3 0x2859 JUMP JUMPDEST PUSH1 0x40 MLOAD DUP1 SWAP2 SUB SWAP1 RETURN JUMPDEST PUSH3 0x35B PUSH1 0x4 DUP1 CALLDATASIZE SUB DUP2 ADD SWAP1 PUSH3 0x355 SWAP2 SWAP1 PUSH3 0x29F8 JUMP JUMPDEST PUSH3 0x80C JUMP JUMPDEST STOP JUMPDEST PUSH3 0x37B PUSH1 0x4 DUP1 CALLDATASIZE SUB DUP2 ADD SWAP1 PUSH3 0x375 SWAP2 SWAP1 PUSH3 0x2678 JUMP JUMPDEST PUSH3 0xB04 JUMP JUMPDEST PUSH1 0x40 MLOAD PUSH3 0x38A SWAP2 SWAP1 PUSH3 0x2B2F JUMP JUMPDEST PUSH1 0x40 MLOAD DUP1 SWAP2 SUB SWAP1 RETURN JUMPDEST PUSH3 0x3B1 PUSH1 0x4 DUP1 CALLDATASIZE SUB DUP2 ADD SWAP1 PUSH3 0x3AB SWAP2 SWAP1 PUSH3 0x24E1 JUMP JUMPDEST PUSH3 0xC2D JUMP JUMPDEST PUSH1 0x40 MLOAD PUSH3 0x3C3 SWAP5 SWAP4 SWAP3 SWAP2 SWAP1 PUSH3 0x2B85 JUMP JUMPDEST PUSH1 0x40 MLOAD DUP1 SWAP2 SUB SWAP1 RETURN JUMPDEST PUSH3 0x3EA PUSH1 0x4 DUP1 CALLDATASIZE SUB DUP2 ADD SWAP1 PUSH3 0x3E4 SWAP2 SWAP1 PUSH3 0x24E1 JUMP JUMPDEST PUSH3 0xC7D JUMP JUMPDEST PUSH1 0x40 MLOAD PUSH3 0x3F9 SWAP2 SWAP1 PUSH3 0x2733 JUMP JUMPDEST PUSH1 0x40 MLOAD DUP1 SWAP2 SUB SWAP1 RETURN JUMPDEST PUSH3 0x420 PUSH1 0x4 DUP1 CALLDATASIZE SUB DUP2 ADD SWAP1 PUSH3 0x41A SWAP2 SWAP1 PUSH3 0x2781 JUMP JUMPDEST PUSH3 0xC9D JUMP JUMPDEST PUSH1 0x40 MLOAD PUSH3 0x42F SWAP2 SWAP1 PUSH3 0x27B3 JUMP JUMPDEST PUSH1 0x40 MLOAD DUP1 SWAP2 SUB SWAP1 RETURN JUMPDEST PUSH3 0x456 PUSH1 0x4 DUP1 CALLDATASIZE SUB DUP2 ADD SWAP1 PUSH3 0x450 SWAP2 SWAP1 PUSH3 0x2C3B JUMP JUMPDEST PUSH3 0xCDD JUMP JUMPDEST PUSH1 0x40 MLOAD PUSH3 0x466 SWAP3 SWAP2 SWAP1 PUSH3 0x2CA5 JUMP JUMPDEST PUSH1 0x40 MLOAD DUP1 SWAP2 SUB SWAP1 RETURN JUMPDEST PUSH3 0x479 PUSH3 0xE49 JUMP JUMPDEST PUSH1 0x40 MLOAD PUSH3 0x488 SWAP2 SWAP1 PUSH3 0x2733 JUMP JUMPDEST PUSH1 0x40 MLOAD DUP1 SWAP2 SUB SWAP1 RETURN JUMPDEST PUSH3 0x4AF PUSH1 0x4 DUP1 CALLDATASIZE SUB DUP2 ADD SWAP1 PUSH3 0x4A9 SWAP2 SWAP1 PUSH3 0x2781 JUMP JUMPDEST PUSH3 0xE5C JUMP JUMPDEST PUSH1 0x40 MLOAD PUSH3 0x4C0 SWAP4 SWAP3 SWAP2 SWAP1 PUSH3 0x2CD9 JUMP JUMPDEST PUSH1 0x40 MLOAD DUP1 SWAP2 SUB SWAP1 RETURN JUMPDEST PUSH3 0x4D3 PUSH3 0xE9A JUMP JUMPDEST PUSH1 0x40 MLOAD PUSH3 0x4E2 SWAP2 SWAP1 PUSH3 0x27B3 JUMP JUMPDEST PUSH1 0x40 MLOAD DUP1 SWAP2 SUB SWAP1 RETURN JUMPDEST PUSH3 0x4F5 PUSH3 0xEC0 JUMP JUMPDEST PUSH1 0x40 MLOAD PUSH3 0x504 SWAP2 SWAP1 PUSH3 0x2D16 JUMP JUMPDEST PUSH1 0x40 MLOAD DUP1 SWAP2 SUB SWAP1 RETURN JUMPDEST PUSH3 0x52B PUSH1 0x4 DUP1 CALLDATASIZE SUB DUP2 ADD SWAP1 PUSH3 0x525 SWAP2 SWAP1 PUSH3 0x2781 JUMP JUMPDEST PUSH3 0xEC6 JUMP JUMPDEST PUSH1 0x40 MLOAD PUSH3 0x53A SWAP2 SWAP1 PUSH3 0x27B3 JUMP JUMPDEST PUSH1 0x40 MLOAD DUP1 SWAP2 SUB SWAP1 RETURN JUMPDEST PUSH3 0x561 PUSH1 0x4 DUP1 CALLDATASIZE SUB DUP2 ADD SWAP1 PUSH3 0x55B SWAP2 SWAP1 PUSH3 0x2678 JUMP JUMPDEST PUSH3 0xF06 JUMP JUMPDEST PUSH1 0x40 MLOAD PUSH3 0x574 SWAP6 SWAP5 SWAP4 SWAP3 SWAP2 SWAP1 PUSH3 0x2D33 JUMP JUMPDEST PUSH1 0x40 MLOAD DUP1 SWAP2 SUB SWAP1 RETURN JUMPDEST PUSH3 0x587 PUSH3 0xFF9 JUMP JUMPDEST PUSH1 0x40 MLOAD PUSH3 0x596 SWAP2 SWAP1 PUSH3 0x2859 JUMP JUMPDEST PUSH1 0x40 MLOAD DUP1 SWAP2 SUB SWAP1 RETURN JUMPDEST PUSH3 0x5BD PUSH1 0x4 DUP1 CALLDATASIZE SUB DUP2 ADD SWAP1 PUSH3 0x5B7 SWAP2 SWAP1 PUSH3 0x2781 JUMP JUMPDEST PUSH3 0x1013 JUMP JUMPDEST PUSH1 0x40 MLOAD PUSH3 0x5CC SWAP2 SWAP1 PUSH3 0x25B7 JUMP JUMPDEST PUSH1 0x40 MLOAD DUP1 SWAP2 SUB SWAP1 RETURN JUMPDEST PUSH3 0x5F3 PUSH1 0x4 DUP1 CALLDATASIZE SUB DUP2 ADD SWAP1 PUSH3 0x5ED SWAP2 SWAP1 PUSH3 0x2781 JUMP JUMPDEST PUSH3 0x10C8 JUMP JUMPDEST PUSH1 0x40 MLOAD PUSH3 0x602 SWAP2 SWAP1 PUSH3 0x27B3 JUMP JUMPDEST PUSH1 0x40 MLOAD DUP1 SWAP2 SUB SWAP1 RETURN JUMPDEST PUSH1 0x8 PUSH1 0x20 MSTORE DUP1 PUSH1 0x0 MSTORE PUSH1 0x40 PUSH1 0x0 KECCAK256 PUSH1 0x0 SWAP2 POP SWAP1 POP DUP1 SLOAD PUSH3 0x62C SWAP1 PUSH3 0x2DC6 JUMP JUMPDEST DUP1 PUSH1 0x1F ADD PUSH1 0x20 DUP1 SWAP2 DIV MUL PUSH1 0x20 ADD PUSH1 0x40 MLOAD SWAP1 DUP2 ADD PUSH1 0x40 MSTORE DUP1 SWAP3 SWAP2 SWAP1 DUP2 DUP2 MSTORE PUSH1 0x20 ADD DUP3 DUP1 SLOAD PUSH3 0x65A SWAP1 PUSH3 0x2DC6 JUMP JUMPDEST DUP1 ISZERO PUSH3 0x6AB JUMPI DUP1 PUSH1 0x1F LT PUSH3 0x67F JUMPI PUSH2 0x100 DUP1 DUP4 SLOAD DIV MUL DUP4 MSTORE SWAP2 PUSH1 0x20 ADD SWAP2 PUSH3 0x6AB JUMP JUMPDEST DUP3 ADD SWAP2 SWAP1 PUSH1 0x0 MSTORE PUSH1 0x20 PUSH1 0x0 KECCAK256 SWAP1 JUMPDEST DUP2 SLOAD DUP2 MSTORE SWAP1 PUSH1 0x1 ADD SWAP1 PUSH1 0x20 ADD DUP1 DUP4 GT PUSH3 0x68D JUMPI DUP3 SWAP1 SUB PUSH1 0x1F AND DUP3 ADD SWAP2 JUMPDEST POP POP POP POP POP DUP2 JUMP JUMPDEST PUSH1 0xA PUSH1 0x20 MSTORE DUP1 PUSH1 0x0 MSTORE PUSH1 0x40 PUSH1 0x0 KECCAK256 PUSH1 0x0 SWAP2 POP SWAP1 POP SLOAD DUP2 JUMP JUMPDEST PUSH1 0x75 PUSH1 0x20 MSTORE DUP1 PUSH1 0x0 MSTORE PUSH1 0x40 PUSH1 0x0 KECCAK256 PUSH1 0x0 SWAP2 POP SWAP1 POP DUP1 PUSH1 0x0 ADD PUSH1 0x0 SWAP1 SLOAD SWAP1 PUSH2 0x100 EXP SWAP1 DIV PUSH20 0xFFFFFFFFFFFFFFFFFFFFFFFFFFFFFFFFFFFFFFFF AND SWAP1 DUP1 PUSH1 0x1 ADD PUSH1 0x0 SWAP1 SLOAD SWAP1 PUSH2 0x100 EXP SWAP1 DIV PUSH20 0xFFFFFFFFFFFFFFFFFFFFFFFFFFFFFFFFFFFFFFFF AND SWAP1 DUP1 PUSH1 0x1 ADD PUSH1 0x14 SWAP1 SLOAD SWAP1 PUSH2 0x100 EXP SWAP1 DIV PUSH1 0xFF AND SWAP1 POP DUP4 JUMP JUMPDEST PUSH1 0x2 PUSH1 0x20 MSTORE DUP1 PUSH1 0x0 MSTORE PUSH1 0x40 PUSH1 0x0 KECCAK256 PUSH1 0x0 SWAP2 POP SLOAD SWAP1 PUSH2 0x100 EXP SWAP1 DIV PUSH1 0xFF AND DUP2 JUMP JUMPDEST PUSH1 0xD DUP2 DUP2 SLOAD DUP2 LT PUSH3 0x773 JUMPI PUSH1 0x0 DUP1 REVERT JUMPDEST SWAP1 PUSH1 0x0 MSTORE PUSH1 0x20 PUSH1 0x0 KECCAK256 ADD PUSH1 0x0 SWAP2 POP SLOAD SWAP1 PUSH2 0x100 EXP SWAP1 DIV PUSH20 0xFFFFFFFFFFFFFFFFFFFFFFFFFFFFFFFFFFFFFFFF AND DUP2 JUMP JUMPDEST PUSH1 0x73 PUSH1 0x0 SWAP1 SLOAD SWAP1 PUSH2 0x100 EXP SWAP1 DIV PUSH1 0xFF AND DUP2 JUMP JUMPDEST PUSH1 0xB PUSH1 0x20 MSTORE DUP2 PUSH1 0x0 MSTORE PUSH1 0x40 PUSH1 0x0 KECCAK256 PUSH1 0x20 MSTORE DUP1 PUSH1 0x0 MSTORE PUSH1 0x40 PUSH1 0x0 KECCAK256 PUSH1 0x0 SWAP2 POP SWAP2 POP POP SLOAD DUP2 JUMP JUMPDEST PUSH1 0x1 PUSH1 0x20 MSTORE DUP1 PUSH1 0x0 MSTORE PUSH1 0x40 PUSH1 0x0 KECCAK256 PUSH1 0x0 SWAP2 POP SWAP1 POP SLOAD DUP2 JUMP JUMPDEST PUSH1 0x7 PUSH1 0x8 SWAP1 SLOAD SWAP1 PUSH2 0x100 EXP SWAP1 DIV PUSH8 0xFFFFFFFFFFFFFFFF AND DUP2 JUMP JUMPDEST PUSH1 0x0 PUSH1 0x2 PUSH4 0xFFFFFFFF AND PUSH1 0x2 DUP5 PUSH1 0xFF AND AND PUSH4 0xFFFFFFFF AND EQ ISZERO PUSH3 0x976 JUMPI PUSH1 0x20 PUSH4 0xFFFFFFFF AND PUSH1 0x20 DUP5 PUSH1 0xFF AND AND PUSH4 0xFFFFFFFF AND EQ ISZERO PUSH3 0x88F JUMPI PUSH1 0x0 DUP6 DUP6 PUSH1 0x40 MLOAD PUSH3 0x858 SWAP1 PUSH3 0x238C JUMP JUMPDEST PUSH3 0x865 SWAP3 SWAP2 SWAP1 PUSH3 0x2DFC JUMP JUMPDEST PUSH1 0x40 MLOAD DUP1 SWAP2 SUB SWAP1 PUSH1 0x0 CREATE DUP1 ISZERO DUP1 ISZERO PUSH3 0x882 JUMPI RETURNDATASIZE PUSH1 0x0 DUP1 RETURNDATACOPY RETURNDATASIZE PUSH1 0x0 REVERT JUMPDEST POP SWAP1 POP DUP1 SWAP2 POP POP PUSH3 0x970 JUMP JUMPDEST PUSH1 0x80 PUSH4 0xFFFFFFFF AND PUSH1 0x80 DUP5 PUSH1 0xFF AND AND PUSH4 0xFFFFFFFF AND EQ ISZERO PUSH3 0x96F JUMPI PUSH1 0x3 PUSH1 0x0 PUSH1 0x5 PUSH1 0x0 PUSH1 0xFF AND DUP2 SLOAD DUP2 LT PUSH3 0x8CA JUMPI PUSH3 0x8C9 PUSH3 0x2E37 JUMP JUMPDEST JUMPDEST SWAP1 PUSH1 0x0 MSTORE PUSH1 0x20 PUSH1 0x0 KECCAK256 ADD PUSH1 0x0 SWAP1 SLOAD SWAP1 PUSH2 0x100 EXP SWAP1 DIV PUSH20 0xFFFFFFFFFFFFFFFFFFFFFFFFFFFFFFFFFFFFFFFF AND PUSH20 0xFFFFFFFFFFFFFFFFFFFFFFFFFFFFFFFFFFFFFFFF AND PUSH20 0xFFFFFFFFFFFFFFFFFFFFFFFFFFFFFFFFFFFFFFFF AND DUP2 MSTORE PUSH1 0x20 ADD SWAP1 DUP2 MSTORE PUSH1 0x20 ADD PUSH1 0x0 KECCAK256 PUSH1 0x0 ADD PUSH1 0x0 SWAP1 SLOAD SWAP1 PUSH2 0x100 EXP SWAP1 DIV PUSH20 0xFFFFFFFFFFFFFFFFFFFFFFFFFFFFFFFFFFFFFFFF AND SWAP1 POP DUP7 PUSH20 0xFFFFFFFFFFFFFFFFFFFFFFFFFFFFFFFFFFFFFFFF AND SWAP2 POP JUMPDEST JUMPDEST PUSH3 0x97A JUMP JUMPDEST DUP6 SWAP1 POP JUMPDEST PUSH1 0x5 DUP8 SWAP1 DUP1 PUSH1 0x1 DUP2 SLOAD ADD DUP1 DUP3 SSTORE DUP1 SWAP2 POP POP PUSH1 0x1 SWAP1 SUB SWAP1 PUSH1 0x0 MSTORE PUSH1 0x20 PUSH1 0x0 KECCAK256 ADD PUSH1 0x0 SWAP1 SWAP2 SWAP1 SWAP2 SWAP1 SWAP2 PUSH2 0x100 EXP DUP2 SLOAD DUP2 PUSH20 0xFFFFFFFFFFFFFFFFFFFFFFFFFFFFFFFFFFFFFFFF MUL NOT AND SWAP1 DUP4 PUSH20 0xFFFFFFFFFFFFFFFFFFFFFFFFFFFFFFFFFFFFFFFF AND MUL OR SWAP1 SSTORE POP PUSH1 0x40 MLOAD DUP1 PUSH1 0xA0 ADD PUSH1 0x40 MSTORE DUP1 DUP3 PUSH20 0xFFFFFFFFFFFFFFFFFFFFFFFFFFFFFFFFFFFFFFFF AND DUP2 MSTORE PUSH1 0x20 ADD DUP5 PUSH1 0xFF AND DUP2 MSTORE PUSH1 0x20 ADD PUSH1 0x0 DUP2 MSTORE PUSH1 0x20 ADD DUP7 DUP2 MSTORE PUSH1 0x20 ADD DUP4 DUP2 MSTORE POP PUSH1 0x3 PUSH1 0x0 DUP10 PUSH20 0xFFFFFFFFFFFFFFFFFFFFFFFFFFFFFFFFFFFFFFFF AND PUSH20 0xFFFFFFFFFFFFFFFFFFFFFFFFFFFFFFFFFFFFFFFF AND DUP2 MSTORE PUSH1 0x20 ADD SWAP1 DUP2 MSTORE PUSH1 0x20 ADD PUSH1 0x0 KECCAK256 PUSH1 0x0 DUP3 ADD MLOAD DUP2 PUSH1 0x0 ADD PUSH1 0x0 PUSH2 0x100 EXP DUP2 SLOAD DUP2 PUSH20 0xFFFFFFFFFFFFFFFFFFFFFFFFFFFFFFFFFFFFFFFF MUL NOT AND SWAP1 DUP4 PUSH20 0xFFFFFFFFFFFFFFFFFFFFFFFFFFFFFFFFFFFFFFFF AND MUL OR SWAP1 SSTORE POP PUSH1 0x20 DUP3 ADD MLOAD DUP2 PUSH1 0x0 ADD PUSH1 0x14 PUSH2 0x100 EXP DUP2 SLOAD DUP2 PUSH1 0xFF MUL NOT AND SWAP1 DUP4 PUSH1 0xFF AND MUL OR SWAP1 SSTORE POP PUSH1 0x40 DUP3 ADD MLOAD DUP2 PUSH1 0x1 ADD SSTORE PUSH1 0x60 DUP3 ADD MLOAD DUP2 PUSH1 0x2 ADD SWAP1 DUP1 MLOAD SWAP1 PUSH1 0x20 ADD SWAP1 PUSH3 0xAED SWAP3 SWAP2 SWAP1 PUSH3 0x239A JUMP JUMPDEST POP PUSH1 0x80 DUP3 ADD MLOAD DUP2 PUSH1 0x3 ADD SSTORE SWAP1 POP POP POP POP POP POP POP POP POP JUMP JUMPDEST PUSH1 0x60 PUSH1 0x0 PUSH4 0x6FDDE03 PUSH1 0xE0 SHL SWAP1 POP PUSH1 0x0 DUP1 PUSH1 0x20 PUSH8 0xFFFFFFFFFFFFFFFF DUP2 GT ISZERO PUSH3 0xB33 JUMPI PUSH3 0xB32 PUSH3 0x2880 JUMP JUMPDEST JUMPDEST PUSH1 0x40 MLOAD SWAP1 DUP1 DUP3 MSTORE DUP1 PUSH1 0x1F ADD PUSH1 0x1F NOT AND PUSH1 0x20 ADD DUP3 ADD PUSH1 0x40 MSTORE DUP1 ISZERO PUSH3 0xB66 JUMPI DUP2 PUSH1 0x20 ADD PUSH1 0x1 DUP3 MUL DUP1 CALLDATASIZE DUP4 CALLDATACOPY DUP1 DUP3 ADD SWAP2 POP POP SWAP1 POP JUMPDEST POP SWAP4 POP PUSH1 0x40 MLOAD PUSH1 0x0 DUP5 DUP3 MSTORE PUSH1 0x60 DUP3 PUSH1 0x20 DUP5 PUSH1 0x0 DUP12 PUSH2 0x1388 CALL PUSH3 0xB88 JUMPI PUSH1 0x0 DUP1 REVERT JUMPDEST DUP2 MLOAD SWAP4 POP DUP4 PUSH32 0x6FDDE0300000000000000000000000000000000000000000000000000000000 DUP2 EQ PUSH3 0xC06 JUMPI PUSH1 0x0 DUP2 EQ PUSH3 0xC0B JUMPI PUSH1 0x20 DUP2 EQ PUSH3 0xC10 JUMPI JUMPDEST PUSH1 0x0 PUSH3 0xBFD JUMPI PUSH1 0xFF DUP6 PUSH1 0x8 DUP5 MUL PUSH1 0xF8 SUB SHR AND SWAP4 POP DUP4 PUSH3 0xBE9 JUMPI PUSH3 0xBFD JUMP JUMPDEST DUP4 PUSH1 0x20 DUP4 ADD DUP9 ADD MSTORE8 PUSH1 0x1 DUP3 ADD SWAP2 POP PUSH3 0xBC8 JUMP JUMPDEST DUP2 DUP8 MSTORE PUSH3 0xC22 JUMP JUMPDEST PUSH1 0x0 DUP1 REVERT JUMPDEST PUSH1 0x0 DUP1 REVERT JUMPDEST PUSH1 0x20 DUP4 ADD MLOAD DUP8 MSTORE PUSH1 0x40 DUP4 ADD MLOAD PUSH1 0x20 DUP9 ADD MSTORE JUMPDEST POP POP POP POP POP POP SWAP2 SWAP1 POP JUMP JUMPDEST PUSH1 0x4 PUSH1 0x20 MSTORE DUP1 PUSH1 0x0 MSTORE PUSH1 0x40 PUSH1 0x0 KECCAK256 PUSH1 0x0 SWAP2 POP SWAP1 POP DUP1 PUSH1 0x0 ADD SLOAD SWAP1 DUP1 PUSH1 0x1 ADD SLOAD SWAP1 DUP1 PUSH1 0x2 ADD PUSH1 0x0 SWAP1 SLOAD SWAP1 PUSH2 0x100 EXP SWAP1 DIV PUSH4 0xFFFFFFFF AND SWAP1 DUP1 PUSH1 0x2 ADD PUSH1 0x4 SWAP1 SLOAD SWAP1 PUSH2 0x100 EXP SWAP1 DIV PUSH4 0xFFFFFFFF AND SWAP1 POP DUP5 JUMP JUMPDEST PUSH1 0x74 PUSH1 0x20 MSTORE DUP1 PUSH1 0x0 MSTORE PUSH1 0x40 PUSH1 0x0 KECCAK256 PUSH1 0x0 SWAP2 POP SLOAD SWAP1 PUSH2 0x100 EXP SWAP1 DIV PUSH1 0xFF AND DUP2 JUMP JUMPDEST PUSH1 0x77 DUP2 DUP2 SLOAD DUP2 LT PUSH3 0xCAE JUMPI PUSH1 0x0 DUP1 REVERT JUMPDEST SWAP1 PUSH1 0x0 MSTORE PUSH1 0x20 PUSH1 0x0 KECCAK256 ADD PUSH1 0x0 SWAP2 POP SLOAD SWAP1 PUSH2 0x100 EXP SWAP1 DIV PUSH20 0xFFFFFFFFFFFFFFFFFFFFFFFFFFFFFFFFFFFFFFFF AND DUP2 JUMP JUMPDEST PUSH1 0x60 PUSH1 0x0 PUSH1 0x60 DUP1 PUSH1 0x60 PUSH1 0x0 PUSH1 0xD PUSH1 0x1 PUSH1 0xA DUP2 GT ISZERO PUSH3 0xD01 JUMPI PUSH3 0xD00 PUSH3 0x2E66 JUMP JUMPDEST JUMPDEST DUP2 SLOAD DUP2 LT PUSH3 0xD15 JUMPI PUSH3 0xD14 PUSH3 0x2E37 JUMP JUMPDEST JUMPDEST SWAP1 PUSH1 0x0 MSTORE PUSH1 0x20 PUSH1 0x0 KECCAK256 ADD PUSH1 0x0 SWAP1 SLOAD SWAP1 PUSH2 0x100 EXP SWAP1 DIV PUSH20 0xFFFFFFFFFFFFFFFFFFFFFFFFFFFFFFFFFFFFFFFF AND PUSH20 0xFFFFFFFFFFFFFFFFFFFFFFFFFFFFFFFFFFFFFFFF AND PUSH4 0x9D56CF89 DUP11 DUP11 DUP11 PUSH1 0x40 MLOAD DUP5 PUSH4 0xFFFFFFFF AND PUSH1 0xE0 SHL DUP2 MSTORE PUSH1 0x4 ADD PUSH3 0xD7E SWAP4 SWAP3 SWAP2 SWAP1 PUSH3 0x2EC8 JUMP JUMPDEST PUSH1 0x0 PUSH1 0x40 MLOAD DUP1 DUP4 SUB DUP2 DUP7 DUP1 EXTCODESIZE ISZERO DUP1 ISZERO PUSH3 0xD97 JUMPI PUSH1 0x0 DUP1 REVERT JUMPDEST POP GAS STATICCALL ISZERO DUP1 ISZERO PUSH3 0xDAC JUMPI RETURNDATASIZE PUSH1 0x0 DUP1 RETURNDATACOPY RETURNDATASIZE PUSH1 0x0 REVERT JUMPDEST POP POP POP POP PUSH1 0x40 MLOAD RETURNDATASIZE PUSH1 0x0 DUP3 RETURNDATACOPY RETURNDATASIZE PUSH1 0x1F NOT PUSH1 0x1F DUP3 ADD AND DUP3 ADD DUP1 PUSH1 0x40 MSTORE POP DUP2 ADD SWAP1 PUSH3 0xDD7 SWAP2 SWAP1 PUSH3 0x341B JUMP JUMPDEST DUP1 SWAP6 POP DUP2 SWAP5 POP DUP3 SWAP7 POP DUP4 SWAP8 POP POP POP POP POP DUP3 PUSH1 0x2 DUP2 MLOAD DUP2 LT PUSH3 0xDFE JUMPI PUSH3 0xDFD PUSH3 0x2E37 JUMP JUMPDEST JUMPDEST PUSH1 0x20 MUL PUSH1 0x20 ADD ADD MLOAD PUSH1 0x0 ADD MLOAD SWAP5 POP PUSH3 0xE18 DUP5 DUP4 PUSH3 0x10FF JUMP JUMPDEST SWAP6 POP PUSH1 0x0 PUSH1 0x18 DUP3 PUSH4 0xFFFFFFFF AND SWAP1 SHR PUSH1 0xFF AND GT ISZERO PUSH3 0xE3D JUMPI PUSH3 0xE3C DUP4 PUSH3 0x1756 JUMP JUMPDEST JUMPDEST POP POP POP POP SWAP4 POP SWAP4 SWAP2 POP POP JUMP JUMPDEST PUSH1 0x7 PUSH1 0x10 SWAP1 SLOAD SWAP1 PUSH2 0x100 EXP SWAP1 DIV PUSH1 0xFF AND DUP2 JUMP JUMPDEST PUSH1 0x0 PUSH1 0x20 MSTORE DUP1 PUSH1 0x0 MSTORE PUSH1 0x40 PUSH1 0x0 KECCAK256 PUSH1 0x0 SWAP2 POP SWAP1 POP DUP1 PUSH1 0x0 ADD SLOAD SWAP1 DUP1 PUSH1 0x1 ADD SLOAD SWAP1 DUP1 PUSH1 0x2 ADD PUSH1 0x0 SWAP1 SLOAD SWAP1 PUSH2 0x100 EXP SWAP1 DIV PUSH8 0xFFFFFFFFFFFFFFFF AND SWAP1 POP DUP4 JUMP JUMPDEST PUSH1 0x79 PUSH1 0x0 SWAP1 SLOAD SWAP1 PUSH2 0x100 EXP SWAP1 DIV PUSH20 0xFFFFFFFFFFFFFFFFFFFFFFFFFFFFFFFFFFFFFFFF AND DUP2 JUMP JUMPDEST PUSH1 0x6 SLOAD DUP2 JUMP JUMPDEST PUSH1 0x5 DUP2 DUP2 SLOAD DUP2 LT PUSH3 0xED7 JUMPI PUSH1 0x0 DUP1 REVERT JUMPDEST SWAP1 PUSH1 0x0 MSTORE PUSH1 0x20 PUSH1 0x0 KECCAK256 ADD PUSH1 0x0 SWAP2 POP SLOAD SWAP1 PUSH2 0x100 EXP SWAP1 DIV PUSH20 0xFFFFFFFFFFFFFFFFFFFFFFFFFFFFFFFFFFFFFFFF AND DUP2 JUMP JUMPDEST PUSH1 0x3 PUSH1 0x20 MSTORE DUP1 PUSH1 0x0 MSTORE PUSH1 0x40 PUSH1 0x0 KECCAK256 PUSH1 0x0 SWAP2 POP SWAP1 POP DUP1 PUSH1 0x0 ADD PUSH1 0x0 SWAP1 SLOAD SWAP1 PUSH2 0x100 EXP SWAP1 DIV PUSH20 0xFFFFFFFFFFFFFFFFFFFFFFFFFFFFFFFFFFFFFFFF AND SWAP1 DUP1 PUSH1 0x0 ADD PUSH1 0x14 SWAP1 SLOAD SWAP1 PUSH2 0x100 EXP SWAP1 DIV PUSH1 0xFF AND SWAP1 DUP1 PUSH1 0x1 ADD SLOAD SWAP1 DUP1 PUSH1 0x2 ADD DUP1 SLOAD PUSH3 0xF6A SWAP1 PUSH3 0x2DC6 JUMP JUMPDEST DUP1 PUSH1 0x1F ADD PUSH1 0x20 DUP1 SWAP2 DIV MUL PUSH1 0x20 ADD PUSH1 0x40 MLOAD SWAP1 DUP2 ADD PUSH1 0x40 MSTORE DUP1 SWAP3 SWAP2 SWAP1 DUP2 DUP2 MSTORE PUSH1 0x20 ADD DUP3 DUP1 SLOAD PUSH3 0xF98 SWAP1 PUSH3 0x2DC6 JUMP JUMPDEST DUP1 ISZERO PUSH3 0xFE9 JUMPI DUP1 PUSH1 0x1F LT PUSH3 0xFBD JUMPI PUSH2 0x100 DUP1 DUP4 SLOAD DIV MUL DUP4 MSTORE SWAP2 PUSH1 0x20 ADD SWAP2 PUSH3 0xFE9 JUMP JUMPDEST DUP3 ADD SWAP2 SWAP1 PUSH1 0x0 MSTORE PUSH1 0x20 PUSH1 0x0 KECCAK256 SWAP1 JUMPDEST DUP2 SLOAD DUP2 MSTORE SWAP1 PUSH1 0x1 ADD SWAP1 PUSH1 0x20 ADD DUP1 DUP4 GT PUSH3 0xFCB JUMPI DUP3 SWAP1 SUB PUSH1 0x1F AND DUP3 ADD SWAP2 JUMPDEST POP POP POP POP POP SWAP1 DUP1 PUSH1 0x3 ADD SLOAD SWAP1 POP DUP6 JUMP JUMPDEST PUSH1 0x7 PUSH1 0x0 SWAP1 SLOAD SWAP1 PUSH2 0x100 EXP SWAP1 DIV PUSH8 0xFFFFFFFFFFFFFFFF AND DUP2 JUMP JUMPDEST PUSH1 0x78 DUP2 DUP2 SLOAD DUP2 LT PUSH3 0x1024 JUMPI PUSH1 0x0 DUP1 REVERT JUMPDEST SWAP1 PUSH1 0x0 MSTORE PUSH1 0x20 PUSH1 0x0 KECCAK256 ADD PUSH1 0x0 SWAP2 POP SWAP1 POP DUP1 SLOAD PUSH3 0x1041 SWAP1 PUSH3 0x2DC6 JUMP JUMPDEST DUP1 PUSH1 0x1F ADD PUSH1 0x20 DUP1 SWAP2 DIV MUL PUSH1 0x20 ADD PUSH1 0x40 MLOAD SWAP1 DUP2 ADD PUSH1 0x40 MSTORE DUP1 SWAP3 SWAP2 SWAP1 DUP2 DUP2 MSTORE PUSH1 0x20 ADD DUP3 DUP1 SLOAD PUSH3 0x106F SWAP1 PUSH3 0x2DC6 JUMP JUMPDEST DUP1 ISZERO PUSH3 0x10C0 JUMPI DUP1 PUSH1 0x1F LT PUSH3 0x1094 JUMPI PUSH2 0x100 DUP1 DUP4 SLOAD DIV MUL DUP4 MSTORE SWAP2 PUSH1 0x20 ADD SWAP2 PUSH3 0x10C0 JUMP JUMPDEST DUP3 ADD SWAP2 SWAP1 PUSH1 0x0 MSTORE PUSH1 0x20 PUSH1 0x0 KECCAK256 SWAP1 JUMPDEST DUP2 SLOAD DUP2 MSTORE SWAP1 PUSH1 0x1 ADD SWAP1 PUSH1 0x20 ADD DUP1 DUP4 GT PUSH3 0x10A2 JUMPI DUP3 SWAP1 SUB PUSH1 0x1F AND DUP3 ADD SWAP2 JUMPDEST POP POP POP POP POP DUP2 JUMP JUMPDEST PUSH1 0xF DUP2 PUSH1 0x64 DUP2 LT PUSH3 0x10D9 JUMPI PUSH1 0x0 DUP1 REVERT JUMPDEST ADD PUSH1 0x0 SWAP2 POP SLOAD SWAP1 PUSH2 0x100 EXP SWAP1 DIV PUSH20 0xFFFFFFFFFFFFFFFFFFFFFFFFFFFFFFFFFFFFFFFF AND DUP2 JUMP JUMPDEST PUSH1 0x60 PUSH1 0x0 JUMPDEST DUP4 MLOAD DUP2 LT ISZERO PUSH3 0x174F JUMPI PUSH1 0x0 DUP1 PUSH1 0x0 PUSH3 0x111D PUSH3 0x242B JUMP JUMPDEST PUSH1 0x0 PUSH1 0xA0 PUSH1 0xFF AND DUP10 DUP8 DUP2 MLOAD DUP2 LT PUSH3 0x113A JUMPI PUSH3 0x1139 PUSH3 0x2E37 JUMP JUMPDEST JUMPDEST PUSH1 0x20 MUL PUSH1 0x20 ADD ADD MLOAD PUSH1 0x0 ADD MLOAD SWAP1 SHR SWAP5 POP DUP9 DUP7 DUP2 MLOAD DUP2 LT PUSH3 0x1160 JUMPI PUSH3 0x115F PUSH3 0x2E37 JUMP JUMPDEST JUMPDEST PUSH1 0x20 MUL PUSH1 0x20 ADD ADD MLOAD PUSH1 0x20 ADD MLOAD SWAP4 POP PUSH1 0x3 PUSH1 0x0 DUP11 DUP9 DUP2 MLOAD DUP2 LT PUSH3 0x1188 JUMPI PUSH3 0x1187 PUSH3 0x2E37 JUMP JUMPDEST JUMPDEST PUSH1 0x20 MUL PUSH1 0x20 ADD ADD MLOAD PUSH1 0x0 ADD MLOAD PUSH20 0xFFFFFFFFFFFFFFFFFFFFFFFFFFFFFFFFFFFFFFFF AND PUSH20 0xFFFFFFFFFFFFFFFFFFFFFFFFFFFFFFFFFFFFFFFF AND DUP2 MSTORE PUSH1 0x20 ADD SWAP1 DUP2 MSTORE PUSH1 0x20 ADD PUSH1 0x0 KECCAK256 PUSH1 0x40 MLOAD DUP1 PUSH1 0xA0 ADD PUSH1 0x40 MSTORE SWAP1 DUP2 PUSH1 0x0 DUP3 ADD PUSH1 0x0 SWAP1 SLOAD SWAP1 PUSH2 0x100 EXP SWAP1 DIV PUSH20 0xFFFFFFFFFFFFFFFFFFFFFFFFFFFFFFFFFFFFFFFF AND PUSH20 0xFFFFFFFFFFFFFFFFFFFFFFFFFFFFFFFFFFFFFFFF AND PUSH20 0xFFFFFFFFFFFFFFFFFFFFFFFFFFFFFFFFFFFFFFFF AND DUP2 MSTORE PUSH1 0x20 ADD PUSH1 0x0 DUP3 ADD PUSH1 0x14 SWAP1 SLOAD SWAP1 PUSH2 0x100 EXP SWAP1 DIV PUSH1 0xFF AND PUSH1 0xFF AND PUSH1 0xFF AND DUP2 MSTORE PUSH1 0x20 ADD PUSH1 0x1 DUP3 ADD SLOAD DUP2 MSTORE PUSH1 0x20 ADD PUSH1 0x2 DUP3 ADD DUP1 SLOAD PUSH3 0x1268 SWAP1 PUSH3 0x2DC6 JUMP JUMPDEST DUP1 PUSH1 0x1F ADD PUSH1 0x20 DUP1 SWAP2 DIV MUL PUSH1 0x20 ADD PUSH1 0x40 MLOAD SWAP1 DUP2 ADD PUSH1 0x40 MSTORE DUP1 SWAP3 SWAP2 SWAP1 DUP2 DUP2 MSTORE PUSH1 0x20 ADD DUP3 DUP1 SLOAD PUSH3 0x1296 SWAP1 PUSH3 0x2DC6 JUMP JUMPDEST DUP1 ISZERO PUSH3 0x12E7 JUMPI DUP1 PUSH1 0x1F LT PUSH3 0x12BB JUMPI PUSH2 0x100 DUP1 DUP4 SLOAD DIV MUL DUP4 MSTORE SWAP2 PUSH1 0x20 ADD SWAP2 PUSH3 0x12E7 JUMP JUMPDEST DUP3 ADD SWAP2 SWAP1 PUSH1 0x0 MSTORE PUSH1 0x20 PUSH1 0x0 KECCAK256 SWAP1 JUMPDEST DUP2 SLOAD DUP2 MSTORE SWAP1 PUSH1 0x1 ADD SWAP1 PUSH1 0x20 ADD DUP1 DUP4 GT PUSH3 0x12C9 JUMPI DUP3 SWAP1 SUB PUSH1 0x1F AND DUP3 ADD SWAP2 JUMPDEST POP POP POP POP POP DUP2 MSTORE PUSH1 0x20 ADD PUSH1 0x3 DUP3 ADD SLOAD DUP2 MSTORE POP POP SWAP2 POP DUP9 DUP7 DUP2 MLOAD DUP2 LT PUSH3 0x1312 JUMPI PUSH3 0x1311 PUSH3 0x2E37 JUMP JUMPDEST JUMPDEST PUSH1 0x20 MUL PUSH1 0x20 ADD ADD MLOAD PUSH1 0x0 ADD MLOAD SWAP3 POP PUSH32 0x0 PUSH20 0xFFFFFFFFFFFFFFFFFFFFFFFFFFFFFFFFFFFFFFFF AND DUP4 PUSH20 0xFFFFFFFFFFFFFFFFFFFFFFFFFFFFFFFFFFFFFFFF AND EQ ISZERO PUSH3 0x1394 JUMPI PUSH1 0x1 PUSH1 0x5 DUP2 GT ISZERO PUSH3 0x138C JUMPI PUSH3 0x138B PUSH3 0x2E66 JUMP JUMPDEST JUMPDEST SWAP1 POP PUSH3 0x1584 JUMP JUMPDEST PUSH1 0x20 PUSH4 0xFFFFFFFF AND PUSH1 0x20 DUP4 PUSH1 0x20 ADD MLOAD PUSH1 0xFF AND AND PUSH4 0xFFFFFFFF AND EQ ISZERO PUSH3 0x13FB JUMPI PUSH1 0x2 PUSH4 0xFFFFFFFF AND PUSH1 0x2 DUP4 PUSH1 0x20 ADD MLOAD PUSH1 0xFF AND AND PUSH4 0xFFFFFFFF AND EQ PUSH3 0x13DB JUMPI PUSH1 0x2 PUSH3 0x13DE JUMP JUMPDEST PUSH1 0x3 JUMPDEST PUSH1 0x5 DUP2 GT ISZERO PUSH3 0x13F3 JUMPI PUSH3 0x13F2 PUSH3 0x2E66 JUMP JUMPDEST JUMPDEST SWAP1 POP PUSH3 0x1583 JUMP JUMPDEST PUSH1 0x1 PUSH4 0xFFFFFFFF AND PUSH1 0x1 DUP4 PUSH1 0x20 ADD MLOAD PUSH1 0xFF AND AND PUSH4 0xFFFFFFFF AND EQ ISZERO PUSH3 0x14BC JUMPI PUSH1 0x80 PUSH4 0xFFFFFFFF AND PUSH1 0x80 DUP4 PUSH1 0x20 ADD MLOAD PUSH1 0xFF AND AND PUSH4 0xFFFFFFFF AND EQ ISZERO PUSH3 0x145A JUMPI PUSH1 0x4 PUSH1 0x5 DUP2 GT ISZERO PUSH3 0x1452 JUMPI PUSH3 0x1451 PUSH3 0x2E66 JUMP JUMPDEST JUMPDEST SWAP1 POP PUSH3 0x14B6 JUMP JUMPDEST PUSH1 0x10 PUSH4 0xFFFFFFFF AND PUSH1 0x10 DUP4 PUSH1 0x20 ADD MLOAD PUSH1 0xFF AND AND PUSH4 0xFFFFFFFF AND EQ DUP1 PUSH3 0x1496 JUMPI POP PUSH1 0x40 PUSH4 0xFFFFFFFF AND PUSH1 0x40 DUP4 PUSH1 0x20 ADD MLOAD PUSH1 0xFF AND AND PUSH4 0xFFFFFFFF AND EQ JUMPDEST ISZERO PUSH3 0x14B5 JUMPI PUSH1 0x5 DUP1 DUP2 GT ISZERO PUSH3 0x14B2 JUMPI PUSH3 0x14B1 PUSH3 0x2E66 JUMP JUMPDEST JUMPDEST SWAP1 POP JUMPDEST JUMPDEST PUSH3 0x1582 JUMP JUMPDEST PUSH1 0x80 PUSH4 0xFFFFFFFF AND PUSH1 0x80 DUP4 PUSH1 0x20 ADD MLOAD PUSH1 0xFF AND AND PUSH4 0xFFFFFFFF AND EQ DUP1 ISZERO PUSH3 0x14F9 JUMPI POP PUSH1 0x2 PUSH4 0xFFFFFFFF AND PUSH1 0x2 DUP4 PUSH1 0x20 ADD MLOAD PUSH1 0xFF AND AND PUSH4 0xFFFFFFFF AND EQ JUMPDEST ISZERO PUSH3 0x1581 JUMPI PUSH1 0x0 DUP3 PUSH1 0x0 ADD MLOAD SWAP1 POP DUP1 PUSH20 0xFFFFFFFFFFFFFFFFFFFFFFFFFFFFFFFFFFFFFFFF AND PUSH4 0xFA8509C8 DUP6 DUP6 PUSH1 0x60 ADD MLOAD DUP9 PUSH1 0x40 MLOAD DUP5 PUSH4 0xFFFFFFFF AND PUSH1 0xE0 SHL DUP2 MSTORE PUSH1 0x4 ADD PUSH3 0x154B SWAP4 SWAP3 SWAP2 SWAP1 PUSH3 0x34EA JUMP JUMPDEST PUSH1 0x0 PUSH1 0x40 MLOAD DUP1 DUP4 SUB DUP2 PUSH1 0x0 DUP8 DUP1 EXTCODESIZE ISZERO DUP1 ISZERO PUSH3 0x1566 JUMPI PUSH1 0x0 DUP1 REVERT JUMPDEST POP GAS CALL ISZERO DUP1 ISZERO PUSH3 0x157B JUMPI RETURNDATASIZE PUSH1 0x0 DUP1 RETURNDATACOPY RETURNDATASIZE PUSH1 0x0 REVERT JUMPDEST POP POP POP POP POP JUMPDEST JUMPDEST JUMPDEST JUMPDEST PUSH1 0x0 PUSH1 0x5 DUP2 GT ISZERO PUSH3 0x159B JUMPI PUSH3 0x159A PUSH3 0x2E66 JUMP JUMPDEST JUMPDEST PUSH1 0xFF AND DUP2 PUSH1 0xFF AND GT ISZERO PUSH3 0x15CD JUMPI PUSH3 0x15CA DUP3 PUSH1 0x0 ADD MLOAD DUP6 DUP8 PUSH8 0xFFFFFFFFFFFFFFFF AND DUP5 DUP7 PUSH1 0x80 ADD MLOAD PUSH3 0x1CFF JUMP JUMPDEST SWAP1 POP JUMPDEST PUSH1 0x1 PUSH1 0xFF AND DUP2 PUSH1 0xFF AND EQ DUP1 ISZERO PUSH3 0x15EE JUMPI POP PUSH1 0x0 DUP6 PUSH8 0xFFFFFFFFFFFFFFFF AND GT JUMPDEST ISZERO PUSH3 0x1641 JUMPI DUP7 DUP9 DUP8 DUP2 MLOAD DUP2 LT PUSH3 0x160B JUMPI PUSH3 0x160A PUSH3 0x2E37 JUMP JUMPDEST JUMPDEST PUSH1 0x20 MUL PUSH1 0x20 ADD ADD MLOAD DUP7 DUP6 PUSH1 0x40 MLOAD PUSH1 0x20 ADD PUSH3 0x162A SWAP5 SWAP4 SWAP3 SWAP2 SWAP1 PUSH3 0x3638 JUMP JUMPDEST PUSH1 0x40 MLOAD PUSH1 0x20 DUP2 DUP4 SUB SUB DUP2 MSTORE SWAP1 PUSH1 0x40 MSTORE SWAP7 POP PUSH3 0x1734 JUMP JUMPDEST PUSH1 0x2 PUSH1 0xFF AND DUP2 PUSH1 0xFF AND EQ ISZERO PUSH3 0x16BC JUMPI DUP5 PUSH8 0xFFFFFFFFFFFFFFFF AND PUSH1 0x3 PUSH1 0x0 DUP6 PUSH20 0xFFFFFFFFFFFFFFFFFFFFFFFFFFFFFFFFFFFFFFFF AND PUSH20 0xFFFFFFFFFFFFFFFFFFFFFFFFFFFFFFFFFFFFFFFF AND DUP2 MSTORE PUSH1 0x20 ADD SWAP1 DUP2 MSTORE PUSH1 0x20 ADD PUSH1 0x0 KECCAK256 PUSH1 0x3 ADD PUSH1 0x0 DUP3 DUP3 SLOAD PUSH3 0x16AF SWAP2 SWAP1 PUSH3 0x36B9 JUMP JUMPDEST SWAP3 POP POP DUP2 SWAP1 SSTORE POP PUSH3 0x1733 JUMP JUMPDEST PUSH1 0x3 PUSH1 0xFF AND DUP2 PUSH1 0xFF AND EQ ISZERO PUSH3 0x1732 JUMPI DUP5 PUSH8 0xFFFFFFFFFFFFFFFF AND PUSH1 0x3 PUSH1 0x0 DUP6 PUSH20 0xFFFFFFFFFFFFFFFFFFFFFFFFFFFFFFFFFFFFFFFF AND PUSH20 0xFFFFFFFFFFFFFFFFFFFFFFFFFFFFFFFFFFFFFFFF AND DUP2 MSTORE PUSH1 0x20 ADD SWAP1 DUP2 MSTORE PUSH1 0x20 ADD PUSH1 0x0 KECCAK256 PUSH1 0x1 ADD PUSH1 0x0 DUP3 DUP3 SLOAD PUSH3 0x172A SWAP2 SWAP1 PUSH3 0x36F4 JUMP JUMPDEST SWAP3 POP POP DUP2 SWAP1 SSTORE POP JUMPDEST JUMPDEST JUMPDEST POP POP POP POP POP DUP1 DUP1 PUSH3 0x1746 SWAP1 PUSH3 0x3751 JUMP JUMPDEST SWAP2 POP POP PUSH3 0x1104 JUMP JUMPDEST POP SWAP3 SWAP2 POP POP JUMP JUMPDEST PUSH1 0x0 JUMPDEST DUP2 MLOAD DUP2 LT ISZERO PUSH3 0x1CFB JUMPI PUSH1 0x0 PUSH1 0x3 PUSH1 0x0 DUP5 DUP5 DUP2 MLOAD DUP2 LT PUSH3 0x177F JUMPI PUSH3 0x177E PUSH3 0x2E37 JUMP JUMPDEST JUMPDEST PUSH1 0x20 MUL PUSH1 0x20 ADD ADD MLOAD PUSH1 0x40 ADD MLOAD PUSH20 0xFFFFFFFFFFFFFFFFFFFFFFFFFFFFFFFFFFFFFFFF AND PUSH20 0xFFFFFFFFFFFFFFFFFFFFFFFFFFFFFFFFFFFFFFFF AND DUP2 MSTORE PUSH1 0x20 ADD SWAP1 DUP2 MSTORE PUSH1 0x20 ADD PUSH1 0x0 KECCAK256 PUSH1 0x0 ADD PUSH1 0x14 SWAP1 SLOAD SWAP1 PUSH2 0x100 EXP SWAP1 DIV PUSH1 0xFF AND PUSH1 0xFF AND GT DUP1 PUSH3 0x1833 JUMPI POP PUSH1 0x0 PUSH20 0xFFFFFFFFFFFFFFFFFFFFFFFFFFFFFFFFFFFFFFFF AND DUP3 DUP3 DUP2 MLOAD DUP2 LT PUSH3 0x180F JUMPI PUSH3 0x180E PUSH3 0x2E37 JUMP JUMPDEST JUMPDEST PUSH1 0x20 MUL PUSH1 0x20 ADD ADD MLOAD PUSH1 0x40 ADD MLOAD PUSH20 0xFFFFFFFFFFFFFFFFFFFFFFFFFFFFFFFFFFFFFFFF AND EQ JUMPDEST ISZERO PUSH3 0x183F JUMPI PUSH3 0x1CE5 JUMP JUMPDEST PUSH1 0xD PUSH1 0x1 PUSH1 0xA DUP2 GT ISZERO PUSH3 0x1858 JUMPI PUSH3 0x1857 PUSH3 0x2E66 JUMP JUMPDEST JUMPDEST DUP2 SLOAD DUP2 LT PUSH3 0x186C JUMPI PUSH3 0x186B PUSH3 0x2E37 JUMP JUMPDEST JUMPDEST SWAP1 PUSH1 0x0 MSTORE PUSH1 0x20 PUSH1 0x0 KECCAK256 ADD PUSH1 0x0 SWAP1 SLOAD SWAP1 PUSH2 0x100 EXP SWAP1 DIV PUSH20 0xFFFFFFFFFFFFFFFFFFFFFFFFFFFFFFFFFFFFFFFF AND PUSH20 0xFFFFFFFFFFFFFFFFFFFFFFFFFFFFFFFFFFFFFFFF AND PUSH4 0xDD4693BB DUP4 DUP4 DUP2 MLOAD DUP2 LT PUSH3 0x18C8 JUMPI PUSH3 0x18C7 PUSH3 0x2E37 JUMP JUMPDEST JUMPDEST PUSH1 0x20 MUL PUSH1 0x20 ADD ADD MLOAD PUSH1 0x40 MLOAD DUP3 PUSH4 0xFFFFFFFF AND PUSH1 0xE0 SHL DUP2 MSTORE PUSH1 0x4 ADD PUSH3 0x18EE SWAP2 SWAP1 PUSH3 0x38B9 JUMP JUMPDEST PUSH1 0x0 PUSH1 0x40 MLOAD DUP1 DUP4 SUB DUP2 DUP7 DUP1 EXTCODESIZE ISZERO DUP1 ISZERO PUSH3 0x1907 JUMPI PUSH1 0x0 DUP1 REVERT JUMPDEST POP GAS STATICCALL ISZERO DUP1 ISZERO PUSH3 0x191C JUMPI RETURNDATASIZE PUSH1 0x0 DUP1 RETURNDATACOPY RETURNDATASIZE PUSH1 0x0 REVERT JUMPDEST POP POP POP POP PUSH1 0x60 PUSH1 0x1 PUSH4 0xFFFFFFFF AND PUSH1 0x10 PUSH1 0x40 PUSH1 0x1 OR OR DUP5 DUP5 DUP2 MLOAD DUP2 LT PUSH3 0x1948 JUMPI PUSH3 0x1947 PUSH3 0x2E37 JUMP JUMPDEST JUMPDEST PUSH1 0x20 MUL PUSH1 0x20 ADD ADD MLOAD PUSH1 0x80 ADD MLOAD PUSH1 0xFF AND AND PUSH4 0xFFFFFFFF AND EQ ISZERO PUSH3 0x1AE9 JUMPI PUSH1 0xD PUSH1 0x0 PUSH1 0xA DUP2 GT ISZERO PUSH3 0x197E JUMPI PUSH3 0x197D PUSH3 0x2E66 JUMP JUMPDEST JUMPDEST DUP2 SLOAD DUP2 LT PUSH3 0x1992 JUMPI PUSH3 0x1991 PUSH3 0x2E37 JUMP JUMPDEST JUMPDEST SWAP1 PUSH1 0x0 MSTORE PUSH1 0x20 PUSH1 0x0 KECCAK256 ADD PUSH1 0x0 SWAP1 SLOAD SWAP1 PUSH2 0x100 EXP SWAP1 DIV PUSH20 0xFFFFFFFFFFFFFFFFFFFFFFFFFFFFFFFFFFFFFFFF AND PUSH20 0xFFFFFFFFFFFFFFFFFFFFFFFFFFFFFFFFFFFFFFFF AND PUSH4 0x5FD4B08A DUP5 DUP5 DUP2 MLOAD DUP2 LT PUSH3 0x19EE JUMPI PUSH3 0x19ED PUSH3 0x2E37 JUMP JUMPDEST JUMPDEST PUSH1 0x20 MUL PUSH1 0x20 ADD ADD MLOAD PUSH1 0x20 ADD MLOAD PUSH1 0x40 MLOAD DUP3 PUSH4 0xFFFFFFFF AND PUSH1 0xE0 SHL DUP2 MSTORE PUSH1 0x4 ADD PUSH3 0x1A18 SWAP2 SWAP1 PUSH3 0x27B3 JUMP JUMPDEST PUSH1 0x0 PUSH1 0x40 MLOAD DUP1 DUP4 SUB DUP2 DUP7 DUP1 EXTCODESIZE ISZERO DUP1 ISZERO PUSH3 0x1A31 JUMPI PUSH1 0x0 DUP1 REVERT JUMPDEST POP GAS STATICCALL SWAP3 POP POP POP DUP1 ISZERO PUSH3 0x1A6A JUMPI POP PUSH1 0x40 MLOAD RETURNDATASIZE PUSH1 0x0 DUP3 RETURNDATACOPY RETURNDATASIZE PUSH1 0x1F NOT PUSH1 0x1F DUP3 ADD AND DUP3 ADD DUP1 PUSH1 0x40 MSTORE POP DUP2 ADD SWAP1 PUSH3 0x1A67 SWAP2 SWAP1 PUSH3 0x38DD JUMP JUMPDEST PUSH1 0x1 JUMPDEST PUSH3 0x1AAD JUMPI PUSH1 0x40 MLOAD DUP1 PUSH1 0x40 ADD PUSH1 0x40 MSTORE DUP1 PUSH1 0x3 DUP2 MSTORE PUSH1 0x20 ADD PUSH32 0x2E2E2E0000000000000000000000000000000000000000000000000000000000 DUP2 MSTORE POP SWAP1 POP PUSH3 0x1AB2 JUMP JUMPDEST DUP1 SWAP2 POP POP JUMPDEST PUSH1 0x0 DUP2 MLOAD EQ ISZERO PUSH3 0x1AC4 JUMPI POP PUSH3 0x1CE5 JUMP JUMPDEST DUP1 PUSH1 0x40 MLOAD PUSH1 0x20 ADD PUSH3 0x1AD7 SWAP2 SWAP1 PUSH3 0x3A10 JUMP JUMPDEST PUSH1 0x40 MLOAD PUSH1 0x20 DUP2 DUP4 SUB SUB DUP2 MSTORE SWAP1 PUSH1 0x40 MSTORE SWAP1 POP JUMPDEST DUP1 DUP4 DUP4 DUP2 MLOAD DUP2 LT PUSH3 0x1B00 JUMPI PUSH3 0x1AFF PUSH3 0x2E37 JUMP JUMPDEST JUMPDEST PUSH1 0x20 MUL PUSH1 0x20 ADD ADD MLOAD PUSH1 0xA0 ADD MLOAD PUSH1 0x40 MLOAD PUSH1 0x20 ADD PUSH3 0x1B1F SWAP3 SWAP2 SWAP1 PUSH3 0x3A43 JUMP JUMPDEST PUSH1 0x40 MLOAD PUSH1 0x20 DUP2 DUP4 SUB SUB DUP2 MSTORE SWAP1 PUSH1 0x40 MSTORE SWAP1 POP PUSH32 0x0 PUSH20 0xFFFFFFFFFFFFFFFFFFFFFFFFFFFFFFFFFFFFFFFF AND DUP4 DUP4 DUP2 MLOAD DUP2 LT PUSH3 0x1B7D JUMPI PUSH3 0x1B7C PUSH3 0x2E37 JUMP JUMPDEST JUMPDEST PUSH1 0x20 MUL PUSH1 0x20 ADD ADD MLOAD PUSH1 0x60 ADD MLOAD PUSH20 0xFFFFFFFFFFFFFFFFFFFFFFFFFFFFFFFFFFFFFFFF AND EQ PUSH3 0x1C2E JUMPI DUP1 PUSH1 0x3 PUSH1 0x0 DUP6 DUP6 DUP2 MLOAD DUP2 LT PUSH3 0x1BC0 JUMPI PUSH3 0x1BBF PUSH3 0x2E37 JUMP JUMPDEST JUMPDEST PUSH1 0x20 MUL PUSH1 0x20 ADD ADD MLOAD PUSH1 0x60 ADD MLOAD PUSH20 0xFFFFFFFFFFFFFFFFFFFFFFFFFFFFFFFFFFFFFFFF AND PUSH20 0xFFFFFFFFFFFFFFFFFFFFFFFFFFFFFFFFFFFFFFFF AND DUP2 MSTORE PUSH1 0x20 ADD SWAP1 DUP2 MSTORE PUSH1 0x20 ADD PUSH1 0x0 KECCAK256 PUSH1 0x2 ADD PUSH1 0x40 MLOAD PUSH1 0x20 ADD PUSH3 0x1C1C SWAP3 SWAP2 SWAP1 PUSH3 0x3B5B JUMP JUMPDEST PUSH1 0x40 MLOAD PUSH1 0x20 DUP2 DUP4 SUB SUB DUP2 MSTORE SWAP1 PUSH1 0x40 MSTORE SWAP1 POP JUMPDEST PUSH3 0x1CE3 DUP4 DUP4 DUP2 MLOAD DUP2 LT PUSH3 0x1C48 JUMPI PUSH3 0x1C47 PUSH3 0x2E37 JUMP JUMPDEST JUMPDEST PUSH1 0x20 MUL PUSH1 0x20 ADD ADD MLOAD PUSH1 0x40 ADD MLOAD DUP5 DUP5 DUP2 MLOAD DUP2 LT PUSH3 0x1C6A JUMPI PUSH3 0x1C69 PUSH3 0x2E37 JUMP JUMPDEST JUMPDEST PUSH1 0x20 MUL PUSH1 0x20 ADD ADD MLOAD PUSH1 0x20 ADD MLOAD DUP4 DUP7 DUP7 DUP2 MLOAD DUP2 LT PUSH3 0x1C8D JUMPI PUSH3 0x1C8C PUSH3 0x2E37 JUMP JUMPDEST JUMPDEST PUSH1 0x20 MUL PUSH1 0x20 ADD ADD MLOAD PUSH1 0xA0 ADD MLOAD DUP8 DUP8 DUP2 MLOAD DUP2 LT PUSH3 0x1CAF JUMPI PUSH3 0x1CAE PUSH3 0x2E37 JUMP JUMPDEST JUMPDEST PUSH1 0x20 MUL PUSH1 0x20 ADD ADD MLOAD PUSH1 0x80 ADD MLOAD DUP9 DUP9 DUP2 MLOAD DUP2 LT PUSH3 0x1CD1 JUMPI PUSH3 0x1CD0 PUSH3 0x2E37 JUMP JUMPDEST JUMPDEST PUSH1 0x20 MUL PUSH1 0x20 ADD ADD MLOAD PUSH1 0x0 ADD MLOAD PUSH3 0x80C JUMP JUMPDEST POP JUMPDEST DUP1 DUP1 PUSH3 0x1CF2 SWAP1 PUSH3 0x3751 JUMP JUMPDEST SWAP2 POP POP PUSH3 0x1759 JUMP JUMPDEST POP POP JUMP JUMPDEST PUSH1 0x0 PUSH1 0x1 PUSH1 0x5 DUP2 GT ISZERO PUSH3 0x1D18 JUMPI PUSH3 0x1D17 PUSH3 0x2E66 JUMP JUMPDEST JUMPDEST PUSH1 0xFF AND DUP4 PUSH1 0xFF AND EQ ISZERO PUSH3 0x1D85 JUMPI DUP5 PUSH20 0xFFFFFFFFFFFFFFFFFFFFFFFFFFFFFFFFFFFFFFFF AND PUSH2 0x8FC PUSH5 0x2540BE400 DUP7 PUSH3 0x1D53 SWAP2 SWAP1 PUSH3 0x3B90 JUMP JUMPDEST SWAP1 DUP2 ISZERO MUL SWAP1 PUSH1 0x40 MLOAD PUSH1 0x0 PUSH1 0x40 MLOAD DUP1 DUP4 SUB DUP2 DUP6 DUP9 DUP9 CALL SWAP4 POP POP POP POP PUSH3 0x1D7A JUMPI PUSH1 0x1 PUSH3 0x1D7D JUMP JUMPDEST PUSH1 0x6 JUMPDEST SWAP1 POP PUSH3 0x22F5 JUMP JUMPDEST PUSH1 0x0 DUP1 PUSH1 0x2 PUSH1 0x5 DUP2 GT ISZERO PUSH3 0x1D9F JUMPI PUSH3 0x1D9E PUSH3 0x2E66 JUMP JUMPDEST JUMPDEST PUSH1 0xFF AND DUP6 PUSH1 0xFF AND EQ DUP1 PUSH3 0x1DCE JUMPI POP PUSH1 0x3 PUSH1 0x5 DUP2 GT ISZERO PUSH3 0x1DC5 JUMPI PUSH3 0x1DC4 PUSH3 0x2E66 JUMP JUMPDEST JUMPDEST PUSH1 0xFF AND DUP6 PUSH1 0xFF AND EQ JUMPDEST ISZERO PUSH3 0x1E67 JUMPI DUP8 SWAP2 POP PUSH3 0x1E64 DUP7 DUP4 PUSH20 0xFFFFFFFFFFFFFFFFFFFFFFFFFFFFFFFFFFFFFFFF AND PUSH4 0x313CE567 PUSH1 0x40 MLOAD DUP2 PUSH4 0xFFFFFFFF AND PUSH1 0xE0 SHL DUP2 MSTORE PUSH1 0x4 ADD PUSH1 0x20 PUSH1 0x40 MLOAD DUP1 DUP4 SUB DUP2 DUP7 DUP1 EXTCODESIZE ISZERO DUP1 ISZERO PUSH3 0x1E23 JUMPI PUSH1 0x0 DUP1 REVERT JUMPDEST POP GAS STATICCALL ISZERO DUP1 ISZERO PUSH3 0x1E38 JUMPI RETURNDATASIZE PUSH1 0x0 DUP1 RETURNDATACOPY RETURNDATASIZE PUSH1 0x0 REVERT JUMPDEST POP POP POP POP PUSH1 0x40 MLOAD RETURNDATASIZE PUSH1 0x1F NOT PUSH1 0x1F DUP3 ADD AND DUP3 ADD DUP1 PUSH1 0x40 MSTORE POP DUP2 ADD SWAP1 PUSH3 0x1E5E SWAP2 SWAP1 PUSH3 0x3BF1 JUMP JUMPDEST PUSH3 0x22FE JUMP JUMPDEST SWAP1 POP JUMPDEST PUSH1 0x2 PUSH1 0x5 DUP2 GT ISZERO PUSH3 0x1E7E JUMPI PUSH3 0x1E7D PUSH3 0x2E66 JUMP JUMPDEST JUMPDEST PUSH1 0xFF AND DUP6 PUSH1 0xFF AND EQ ISZERO PUSH3 0x20EF JUMPI PUSH32 0x0 PUSH20 0xFFFFFFFFFFFFFFFFFFFFFFFFFFFFFFFFFFFFFFFF AND DUP9 PUSH20 0xFFFFFFFFFFFFFFFFFFFFFFFFFFFFFFFFFFFFFFFF AND EQ ISZERO PUSH3 0x2042 JUMPI PUSH1 0x0 PUSH1 0xD PUSH1 0x3 PUSH1 0xA DUP2 GT ISZERO PUSH3 0x1EFC JUMPI PUSH3 0x1EFB PUSH3 0x2E66 JUMP JUMPDEST JUMPDEST DUP2 SLOAD DUP2 LT PUSH3 0x1F10 JUMPI PUSH3 0x1F0F PUSH3 0x2E37 JUMP JUMPDEST JUMPDEST SWAP1 PUSH1 0x0 MSTORE PUSH1 0x20 PUSH1 0x0 KECCAK256 ADD PUSH1 0x0 SWAP1 SLOAD SWAP1 PUSH2 0x100 EXP SWAP1 DIV PUSH20 0xFFFFFFFFFFFFFFFFFFFFFFFFFFFFFFFFFFFFFFFF AND SWAP1 POP PUSH1 0x0 DUP2 PUSH20 0xFFFFFFFFFFFFFFFFFFFFFFFFFFFFFFFFFFFFFFFF AND PUSH4 0xEF693BED PUSH1 0xE0 SHL DUP11 DUP6 PUSH1 0x40 MLOAD PUSH1 0x24 ADD PUSH3 0x1F73 SWAP3 SWAP2 SWAP1 PUSH3 0x3C23 JUMP JUMPDEST PUSH1 0x40 MLOAD PUSH1 0x20 DUP2 DUP4 SUB SUB DUP2 MSTORE SWAP1 PUSH1 0x40 MSTORE SWAP1 PUSH28 0xFFFFFFFFFFFFFFFFFFFFFFFFFFFFFFFFFFFFFFFFFFFFFFFFFFFFFFFF NOT AND PUSH1 0x20 DUP3 ADD DUP1 MLOAD PUSH28 0xFFFFFFFFFFFFFFFFFFFFFFFFFFFFFFFFFFFFFFFFFFFFFFFFFFFFFFFF DUP4 DUP2 DUP4 AND OR DUP4 MSTORE POP POP POP POP PUSH1 0x40 MLOAD PUSH3 0x1FDF SWAP2 SWAP1 PUSH3 0x3C50 JUMP JUMPDEST PUSH1 0x0 PUSH1 0x40 MLOAD DUP1 DUP4 SUB DUP2 DUP6 GAS DELEGATECALL SWAP2 POP POP RETURNDATASIZE DUP1 PUSH1 0x0 DUP2 EQ PUSH3 0x201C JUMPI PUSH1 0x40 MLOAD SWAP2 POP PUSH1 0x1F NOT PUSH1 0x3F RETURNDATASIZE ADD AND DUP3 ADD PUSH1 0x40 MSTORE RETURNDATASIZE DUP3 MSTORE RETURNDATASIZE PUSH1 0x0 PUSH1 0x20 DUP5 ADD RETURNDATACOPY PUSH3 0x2021 JUMP JUMPDEST PUSH1 0x60 SWAP2 POP JUMPDEST POP POP SWAP1 POP DUP1 PUSH3 0x2033 JUMPI PUSH1 0x1 PUSH3 0x2036 JUMP JUMPDEST PUSH1 0x2 JUMPDEST SWAP5 POP POP POP POP POP PUSH3 0x22F5 JUMP JUMPDEST DUP2 PUSH20 0xFFFFFFFFFFFFFFFFFFFFFFFFFFFFFFFFFFFFFFFF AND PUSH4 0xA9059CBB DUP9 DUP4 PUSH1 0x40 MLOAD DUP4 PUSH4 0xFFFFFFFF AND PUSH1 0xE0 SHL DUP2 MSTORE PUSH1 0x4 ADD PUSH3 0x207F SWAP3 SWAP2 SWAP1 PUSH3 0x3C23 JUMP JUMPDEST PUSH1 0x20 PUSH1 0x40 MLOAD DUP1 DUP4 SUB DUP2 PUSH1 0x0 DUP8 DUP1 EXTCODESIZE ISZERO DUP1 ISZERO PUSH3 0x209A JUMPI PUSH1 0x0 DUP1 REVERT JUMPDEST POP GAS CALL ISZERO DUP1 ISZERO PUSH3 0x20AF JUMPI RETURNDATASIZE PUSH1 0x0 DUP1 RETURNDATACOPY RETURNDATASIZE PUSH1 0x0 REVERT JUMPDEST POP POP POP POP PUSH1 0x40 MLOAD RETURNDATASIZE PUSH1 0x1F NOT PUSH1 0x1F DUP3 ADD AND DUP3 ADD DUP1 PUSH1 0x40 MSTORE POP DUP2 ADD SWAP1 PUSH3 0x20D5 SWAP2 SWAP1 PUSH3 0x3C9A JUMP JUMPDEST PUSH3 0x20E2 JUMPI PUSH1 0x1 PUSH3 0x20E5 JUMP JUMPDEST PUSH1 0x2 JUMPDEST SWAP3 POP POP POP PUSH3 0x22F5 JUMP JUMPDEST PUSH1 0x3 PUSH1 0x5 DUP2 GT ISZERO PUSH3 0x2106 JUMPI PUSH3 0x2105 PUSH3 0x2E66 JUMP JUMPDEST JUMPDEST PUSH1 0xFF AND DUP6 PUSH1 0xFF AND EQ ISZERO PUSH3 0x2191 JUMPI DUP2 PUSH20 0xFFFFFFFFFFFFFFFFFFFFFFFFFFFFFFFFFFFFFFFF AND PUSH4 0x40C10F19 DUP9 DUP4 PUSH1 0x40 MLOAD DUP4 PUSH4 0xFFFFFFFF AND PUSH1 0xE0 SHL DUP2 MSTORE PUSH1 0x4 ADD PUSH3 0x2151 SWAP3 SWAP2 SWAP1 PUSH3 0x3C23 JUMP JUMPDEST PUSH1 0x0 PUSH1 0x40 MLOAD DUP1 DUP4 SUB DUP2 PUSH1 0x0 DUP8 DUP1 EXTCODESIZE ISZERO DUP1 ISZERO PUSH3 0x216C JUMPI PUSH1 0x0 DUP1 REVERT JUMPDEST POP GAS CALL ISZERO DUP1 ISZERO PUSH3 0x2181 JUMPI RETURNDATASIZE PUSH1 0x0 DUP1 RETURNDATACOPY RETURNDATASIZE PUSH1 0x0 REVERT JUMPDEST POP POP POP POP PUSH1 0x5 SWAP3 POP POP POP PUSH3 0x22F5 JUMP JUMPDEST PUSH1 0x4 PUSH1 0x5 DUP2 GT ISZERO PUSH3 0x21A8 JUMPI PUSH3 0x21A7 PUSH3 0x2E66 JUMP JUMPDEST JUMPDEST PUSH1 0xFF AND DUP6 PUSH1 0xFF AND EQ ISZERO PUSH3 0x223F JUMPI DUP8 PUSH20 0xFFFFFFFFFFFFFFFFFFFFFFFFFFFFFFFFFFFFFFFF AND PUSH4 0x23B872DD ADDRESS DUP10 DUP8 PUSH1 0x40 MLOAD DUP5 PUSH4 0xFFFFFFFF AND PUSH1 0xE0 SHL DUP2 MSTORE PUSH1 0x4 ADD PUSH3 0x21F5 SWAP4 SWAP3 SWAP2 SWAP1 PUSH3 0x3CCC JUMP JUMPDEST PUSH1 0x0 PUSH1 0x40 MLOAD DUP1 DUP4 SUB DUP2 PUSH1 0x0 DUP8 DUP1 EXTCODESIZE ISZERO DUP1 ISZERO PUSH3 0x2210 JUMPI PUSH1 0x0 DUP1 REVERT JUMPDEST POP GAS CALL SWAP3 POP POP POP DUP1 ISZERO PUSH3 0x2222 JUMPI POP PUSH1 0x1 JUMPDEST PUSH3 0x2233 JUMPI PUSH1 0x1 SWAP3 POP POP POP PUSH3 0x22F5 JUMP JUMPDEST PUSH1 0x4 SWAP3 POP POP POP PUSH3 0x22F5 JUMP JUMPDEST PUSH1 0x5 DUP1 DUP2 GT ISZERO PUSH3 0x2255 JUMPI PUSH3 0x2254 PUSH3 0x2E66 JUMP JUMPDEST JUMPDEST PUSH1 0xFF AND DUP6 PUSH1 0xFF AND EQ ISZERO PUSH3 0x22EE JUMPI DUP8 PUSH20 0xFFFFFFFFFFFFFFFFFFFFFFFFFFFFFFFFFFFFFFFF AND PUSH4 0xF242432A ADDRESS DUP10 DUP8 DUP11 PUSH1 0x40 MLOAD DUP6 PUSH4 0xFFFFFFFF AND PUSH1 0xE0 SHL DUP2 MSTORE PUSH1 0x4 ADD PUSH3 0x22A4 SWAP5 SWAP4 SWAP3 SWAP2 SWAP1 PUSH3 0x3D33 JUMP JUMPDEST PUSH1 0x0 PUSH1 0x40 MLOAD DUP1 DUP4 SUB DUP2 PUSH1 0x0 DUP8 DUP1 EXTCODESIZE ISZERO DUP1 ISZERO PUSH3 0x22BF JUMPI PUSH1 0x0 DUP1 REVERT JUMPDEST POP GAS CALL SWAP3 POP POP POP DUP1 ISZERO PUSH3 0x22D1 JUMPI POP PUSH1 0x1 JUMPDEST PUSH3 0x22E2 JUMPI PUSH1 0x1 SWAP3 POP POP POP PUSH3 0x22F5 JUMP JUMPDEST PUSH1 0x3 SWAP3 POP POP POP PUSH3 0x22F5 JUMP JUMPDEST PUSH1 0x1 SWAP3 POP POP POP JUMPDEST SWAP6 SWAP5 POP POP POP POP POP JUMP JUMPDEST PUSH1 0x0 DUP1 PUSH1 0xA SWAP1 POP PUSH1 0x8 DUP4 PUSH1 0xFF AND GT ISZERO PUSH3 0x2347 JUMPI PUSH1 0x8 DUP4 PUSH3 0x2321 SWAP2 SWAP1 PUSH3 0x3D95 JUMP JUMPDEST SWAP1 POP DUP1 PUSH1 0xA PUSH3 0x2332 SWAP2 SWAP1 PUSH3 0x3F24 JUMP JUMPDEST DUP5 PUSH3 0x233F SWAP2 SWAP1 PUSH3 0x3B90 JUMP JUMPDEST SWAP2 POP PUSH3 0x2385 JUMP JUMPDEST PUSH1 0x8 DUP4 PUSH1 0xFF AND LT ISZERO PUSH3 0x2384 JUMPI DUP3 PUSH1 0x8 PUSH3 0x2363 SWAP2 SWAP1 PUSH3 0x3D95 JUMP JUMPDEST SWAP1 POP DUP1 PUSH1 0xA PUSH3 0x2374 SWAP2 SWAP1 PUSH3 0x3F24 JUMP JUMPDEST DUP5 PUSH3 0x2381 SWAP2 SWAP1 PUSH3 0x3FA4 JUMP JUMPDEST SWAP2 POP JUMPDEST JUMPDEST POP SWAP3 SWAP2 POP POP JUMP JUMPDEST PUSH2 0x1F9F DUP1 PUSH3 0x3FDD DUP4 CODECOPY ADD SWAP1 JUMP JUMPDEST DUP3 DUP1 SLOAD PUSH3 0x23A8 SWAP1 PUSH3 0x2DC6 JUMP JUMPDEST SWAP1 PUSH1 0x0 MSTORE PUSH1 0x20 PUSH1 0x0 KECCAK256 SWAP1 PUSH1 0x1F ADD PUSH1 0x20 SWAP1 DIV DUP2 ADD SWAP3 DUP3 PUSH3 0x23CC JUMPI PUSH1 0x0 DUP6 SSTORE PUSH3 0x2418 JUMP JUMPDEST DUP3 PUSH1 0x1F LT PUSH3 0x23E7 JUMPI DUP1 MLOAD PUSH1 0xFF NOT AND DUP4 DUP1 ADD OR DUP6 SSTORE PUSH3 0x2418 JUMP JUMPDEST DUP3 DUP1 ADD PUSH1 0x1 ADD DUP6 SSTORE DUP3 ISZERO PUSH3 0x2418 JUMPI SWAP2 DUP3 ADD JUMPDEST DUP3 DUP2 GT ISZERO PUSH3 0x2417 JUMPI DUP3 MLOAD DUP3 SSTORE SWAP2 PUSH1 0x20 ADD SWAP2 SWAP1 PUSH1 0x1 ADD SWAP1 PUSH3 0x23FA JUMP JUMPDEST JUMPDEST POP SWAP1 POP PUSH3 0x2427 SWAP2 SWAP1 PUSH3 0x2473 JUMP JUMPDEST POP SWAP1 JUMP JUMPDEST PUSH1 0x40 MLOAD DUP1 PUSH1 0xA0 ADD PUSH1 0x40 MSTORE DUP1 PUSH1 0x0 PUSH20 0xFFFFFFFFFFFFFFFFFFFFFFFFFFFFFFFFFFFFFFFF AND DUP2 MSTORE PUSH1 0x20 ADD PUSH1 0x0 PUSH1 0xFF AND DUP2 MSTORE PUSH1 0x20 ADD PUSH1 0x0 DUP2 MSTORE PUSH1 0x20 ADD PUSH1 0x60 DUP2 MSTORE PUSH1 0x20 ADD PUSH1 0x0 DUP2 MSTORE POP SWAP1 JUMP JUMPDEST JUMPDEST DUP1 DUP3 GT ISZERO PUSH3 0x248E JUMPI PUSH1 0x0 DUP2 PUSH1 0x0 SWAP1 SSTORE POP PUSH1 0x1 ADD PUSH3 0x2474 JUMP JUMPDEST POP SWAP1 JUMP JUMPDEST PUSH1 0x0 PUSH1 0x40 MLOAD SWAP1 POP SWAP1 JUMP JUMPDEST PUSH1 0x0 DUP1 REVERT JUMPDEST PUSH1 0x0 DUP1 REVERT JUMPDEST PUSH1 0x0 DUP2 SWAP1 POP SWAP2 SWAP1 POP JUMP JUMPDEST PUSH3 0x24BB DUP2 PUSH3 0x24A6 JUMP JUMPDEST DUP2 EQ PUSH3 0x24C7 JUMPI PUSH1 0x0 DUP1 REVERT JUMPDEST POP JUMP JUMPDEST PUSH1 0x0 DUP2 CALLDATALOAD SWAP1 POP PUSH3 0x24DB DUP2 PUSH3 0x24B0 JUMP JUMPDEST SWAP3 SWAP2 POP POP JUMP JUMPDEST PUSH1 0x0 PUSH1 0x20 DUP3 DUP5 SUB SLT ISZERO PUSH3 0x24FA JUMPI PUSH3 0x24F9 PUSH3 0x249C JUMP JUMPDEST JUMPDEST PUSH1 0x0 PUSH3 0x250A DUP5 DUP3 DUP6 ADD PUSH3 0x24CA JUMP JUMPDEST SWAP2 POP POP SWAP3 SWAP2 POP POP JUMP JUMPDEST PUSH1 0x0 DUP2 MLOAD SWAP1 POP SWAP2 SWAP1 POP JUMP JUMPDEST PUSH1 0x0 DUP3 DUP3 MSTORE PUSH1 0x20 DUP3 ADD SWAP1 POP SWAP3 SWAP2 POP POP JUMP JUMPDEST PUSH1 0x0 JUMPDEST DUP4 DUP2 LT ISZERO PUSH3 0x254F JUMPI DUP1 DUP3 ADD MLOAD DUP2 DUP5 ADD MSTORE PUSH1 0x20 DUP2 ADD SWAP1 POP PUSH3 0x2532 JUMP JUMPDEST DUP4 DUP2 GT ISZERO PUSH3 0x255F JUMPI PUSH1 0x0 DUP5 DUP5 ADD MSTORE JUMPDEST POP POP POP POP JUMP JUMPDEST PUSH1 0x0 PUSH1 0x1F NOT PUSH1 0x1F DUP4 ADD AND SWAP1 POP SWAP2 SWAP1 POP JUMP JUMPDEST PUSH1 0x0 PUSH3 0x2583 DUP3 PUSH3 0x2513 JUMP JUMPDEST PUSH3 0x258F DUP2 DUP6 PUSH3 0x251E JUMP JUMPDEST SWAP4 POP PUSH3 0x25A1 DUP2 DUP6 PUSH1 0x20 DUP7 ADD PUSH3 0x252F JUMP JUMPDEST PUSH3 0x25AC DUP2 PUSH3 0x2565 JUMP JUMPDEST DUP5 ADD SWAP2 POP POP SWAP3 SWAP2 POP POP JUMP JUMPDEST PUSH1 0x0 PUSH1 0x20 DUP3 ADD SWAP1 POP DUP2 DUP2 SUB PUSH1 0x0 DUP4 ADD MSTORE PUSH3 0x25D3 DUP2 DUP5 PUSH3 0x2576 JUMP JUMPDEST SWAP1 POP SWAP3 SWAP2 POP POP JUMP JUMPDEST PUSH1 0x0 DUP2 SWAP1 POP SWAP2 SWAP1 POP JUMP JUMPDEST PUSH3 0x25F0 DUP2 PUSH3 0x25DB JUMP JUMPDEST DUP3 MSTORE POP POP JUMP JUMPDEST PUSH1 0x0 PUSH1 0x20 DUP3 ADD SWAP1 POP PUSH3 0x260D PUSH1 0x0 DUP4 ADD DUP5 PUSH3 0x25E5 JUMP JUMPDEST SWAP3 SWAP2 POP POP JUMP JUMPDEST PUSH1 0x0 PUSH20 0xFFFFFFFFFFFFFFFFFFFFFFFFFFFFFFFFFFFFFFFF DUP3 AND SWAP1 POP SWAP2 SWAP1 POP JUMP JUMPDEST PUSH1 0x0 PUSH3 0x2640 DUP3 PUSH3 0x2613 JUMP JUMPDEST SWAP1 POP SWAP2 SWAP1 POP JUMP JUMPDEST PUSH3 0x2652 DUP2 PUSH3 0x2633 JUMP JUMPDEST DUP2 EQ PUSH3 0x265E JUMPI PUSH1 0x0 DUP1 REVERT JUMPDEST POP JUMP JUMPDEST PUSH1 0x0 DUP2 CALLDATALOAD SWAP1 POP PUSH3 0x2672 DUP2 PUSH3 0x2647 JUMP JUMPDEST SWAP3 SWAP2 POP POP JUMP JUMPDEST PUSH1 0x0 PUSH1 0x20 DUP3 DUP5 SUB SLT ISZERO PUSH3 0x2691 JUMPI PUSH3 0x2690 PUSH3 0x249C JUMP JUMPDEST JUMPDEST PUSH1 0x0 PUSH3 0x26A1 DUP5 DUP3 DUP6 ADD PUSH3 0x2661 JUMP JUMPDEST SWAP2 POP POP SWAP3 SWAP2 POP POP JUMP JUMPDEST PUSH3 0x26B5 DUP2 PUSH3 0x2633 JUMP JUMPDEST DUP3 MSTORE POP POP JUMP JUMPDEST PUSH1 0x0 PUSH1 0xFF DUP3 AND SWAP1 POP SWAP2 SWAP1 POP JUMP JUMPDEST PUSH3 0x26D3 DUP2 PUSH3 0x26BB JUMP JUMPDEST DUP3 MSTORE POP POP JUMP JUMPDEST PUSH1 0x0 PUSH1 0x60 DUP3 ADD SWAP1 POP PUSH3 0x26F0 PUSH1 0x0 DUP4 ADD DUP7 PUSH3 0x26AA JUMP JUMPDEST PUSH3 0x26FF PUSH1 0x20 DUP4 ADD DUP6 PUSH3 0x26AA JUMP JUMPDEST PUSH3 0x270E PUSH1 0x40 DUP4 ADD DUP5 PUSH3 0x26C8 JUMP JUMPDEST SWAP5 SWAP4 POP POP POP POP JUMP JUMPDEST PUSH1 0x0 DUP2 ISZERO ISZERO SWAP1 POP SWAP2 SWAP1 POP JUMP JUMPDEST PUSH3 0x272D DUP2 PUSH3 0x2716 JUMP JUMPDEST DUP3 MSTORE POP POP JUMP JUMPDEST PUSH1 0x0 PUSH1 0x20 DUP3 ADD SWAP1 POP PUSH3 0x274A PUSH1 0x0 DUP4 ADD DUP5 PUSH3 0x2722 JUMP JUMPDEST SWAP3 SWAP2 POP POP JUMP JUMPDEST PUSH3 0x275B DUP2 PUSH3 0x25DB JUMP JUMPDEST DUP2 EQ PUSH3 0x2767 JUMPI PUSH1 0x0 DUP1 REVERT JUMPDEST POP JUMP JUMPDEST PUSH1 0x0 DUP2 CALLDATALOAD SWAP1 POP PUSH3 0x277B DUP2 PUSH3 0x2750 JUMP JUMPDEST SWAP3 SWAP2 POP POP JUMP JUMPDEST PUSH1 0x0 PUSH1 0x20 DUP3 DUP5 SUB SLT ISZERO PUSH3 0x279A JUMPI PUSH3 0x2799 PUSH3 0x249C JUMP JUMPDEST JUMPDEST PUSH1 0x0 PUSH3 0x27AA DUP5 DUP3 DUP6 ADD PUSH3 0x276A JUMP JUMPDEST SWAP2 POP POP SWAP3 SWAP2 POP POP JUMP JUMPDEST PUSH1 0x0 PUSH1 0x20 DUP3 ADD SWAP1 POP PUSH3 0x27CA PUSH1 0x0 DUP4 ADD DUP5 PUSH3 0x26AA JUMP JUMPDEST SWAP3 SWAP2 POP POP JUMP JUMPDEST PUSH1 0x0 PUSH1 0x20 DUP3 ADD SWAP1 POP PUSH3 0x27E7 PUSH1 0x0 DUP4 ADD DUP5 PUSH3 0x26C8 JUMP JUMPDEST SWAP3 SWAP2 POP POP JUMP JUMPDEST PUSH1 0x0 DUP1 PUSH1 0x40 DUP4 DUP6 SUB SLT ISZERO PUSH3 0x2807 JUMPI PUSH3 0x2806 PUSH3 0x249C JUMP JUMPDEST JUMPDEST PUSH1 0x0 PUSH3 0x2817 DUP6 DUP3 DUP7 ADD PUSH3 0x24CA JUMP JUMPDEST SWAP3 POP POP PUSH1 0x20 PUSH3 0x282A DUP6 DUP3 DUP7 ADD PUSH3 0x2661 JUMP JUMPDEST SWAP2 POP POP SWAP3 POP SWAP3 SWAP1 POP JUMP JUMPDEST PUSH1 0x0 PUSH8 0xFFFFFFFFFFFFFFFF DUP3 AND SWAP1 POP SWAP2 SWAP1 POP JUMP JUMPDEST PUSH3 0x2853 DUP2 PUSH3 0x2834 JUMP JUMPDEST DUP3 MSTORE POP POP JUMP JUMPDEST PUSH1 0x0 PUSH1 0x20 DUP3 ADD SWAP1 POP PUSH3 0x2870 PUSH1 0x0 DUP4 ADD DUP5 PUSH3 0x2848 JUMP JUMPDEST SWAP3 SWAP2 POP POP JUMP JUMPDEST PUSH1 0x0 DUP1 REVERT JUMPDEST PUSH1 0x0 DUP1 REVERT JUMPDEST PUSH32 0x4E487B7100000000000000000000000000000000000000000000000000000000 PUSH1 0x0 MSTORE PUSH1 0x41 PUSH1 0x4 MSTORE PUSH1 0x24 PUSH1 0x0 REVERT JUMPDEST PUSH3 0x28BA DUP3 PUSH3 0x2565 JUMP JUMPDEST DUP2 ADD DUP2 DUP2 LT PUSH8 0xFFFFFFFFFFFFFFFF DUP3 GT OR ISZERO PUSH3 0x28DC JUMPI PUSH3 0x28DB PUSH3 0x2880 JUMP JUMPDEST JUMPDEST DUP1 PUSH1 0x40 MSTORE POP POP POP JUMP JUMPDEST PUSH1 0x0 PUSH3 0x28F1 PUSH3 0x2492 JUMP JUMPDEST SWAP1 POP PUSH3 0x28FF DUP3 DUP3 PUSH3 0x28AF JUMP JUMPDEST SWAP2 SWAP1 POP JUMP JUMPDEST PUSH1 0x0 PUSH8 0xFFFFFFFFFFFFFFFF DUP3 GT ISZERO PUSH3 0x2922 JUMPI PUSH3 0x2921 PUSH3 0x2880 JUMP JUMPDEST JUMPDEST PUSH3 0x292D DUP3 PUSH3 0x2565 JUMP JUMPDEST SWAP1 POP PUSH1 0x20 DUP2 ADD SWAP1 POP SWAP2 SWAP1 POP JUMP JUMPDEST DUP3 DUP2 DUP4 CALLDATACOPY PUSH1 0x0 DUP4 DUP4 ADD MSTORE POP POP POP JUMP JUMPDEST PUSH1 0x0 PUSH3 0x2960 PUSH3 0x295A DUP5 PUSH3 0x2904 JUMP JUMPDEST PUSH3 0x28E5 JUMP JUMPDEST SWAP1 POP DUP3 DUP2 MSTORE PUSH1 0x20 DUP2 ADD DUP5 DUP5 DUP5 ADD GT ISZERO PUSH3 0x297F JUMPI PUSH3 0x297E PUSH3 0x287B JUMP JUMPDEST JUMPDEST PUSH3 0x298C DUP5 DUP3 DUP6 PUSH3 0x293A JUMP JUMPDEST POP SWAP4 SWAP3 POP POP POP JUMP JUMPDEST PUSH1 0x0 DUP3 PUSH1 0x1F DUP4 ADD SLT PUSH3 0x29AC JUMPI PUSH3 0x29AB PUSH3 0x2876 JUMP JUMPDEST JUMPDEST DUP2 CALLDATALOAD PUSH3 0x29BE DUP5 DUP3 PUSH1 0x20 DUP7 ADD PUSH3 0x2949 JUMP JUMPDEST SWAP2 POP POP SWAP3 SWAP2 POP POP JUMP JUMPDEST PUSH3 0x29D2 DUP2 PUSH3 0x26BB JUMP JUMPDEST DUP2 EQ PUSH3 0x29DE JUMPI PUSH1 0x0 DUP1 REVERT JUMPDEST POP JUMP JUMPDEST PUSH1 0x0 DUP2 CALLDATALOAD SWAP1 POP PUSH3 0x29F2 DUP2 PUSH3 0x29C7 JUMP JUMPDEST SWAP3 SWAP2 POP POP JUMP JUMPDEST PUSH1 0x0 DUP1 PUSH1 0x0 DUP1 PUSH1 0x0 DUP1 PUSH1 0xC0 DUP8 DUP10 SUB SLT ISZERO PUSH3 0x2A18 JUMPI PUSH3 0x2A17 PUSH3 0x249C JUMP JUMPDEST JUMPDEST PUSH1 0x0 PUSH3 0x2A28 DUP10 DUP3 DUP11 ADD PUSH3 0x2661 JUMP JUMPDEST SWAP7 POP POP PUSH1 0x20 PUSH3 0x2A3B DUP10 DUP3 DUP11 ADD PUSH3 0x2661 JUMP JUMPDEST SWAP6 POP POP PUSH1 0x40 DUP8 ADD CALLDATALOAD PUSH8 0xFFFFFFFFFFFFFFFF DUP2 GT ISZERO PUSH3 0x2A5F JUMPI PUSH3 0x2A5E PUSH3 0x24A1 JUMP JUMPDEST JUMPDEST PUSH3 0x2A6D DUP10 DUP3 DUP11 ADD PUSH3 0x2994 JUMP JUMPDEST SWAP5 POP POP PUSH1 0x60 DUP8 ADD CALLDATALOAD PUSH8 0xFFFFFFFFFFFFFFFF DUP2 GT ISZERO PUSH3 0x2A91 JUMPI PUSH3 0x2A90 PUSH3 0x24A1 JUMP JUMPDEST JUMPDEST PUSH3 0x2A9F DUP10 DUP3 DUP11 ADD PUSH3 0x2994 JUMP JUMPDEST SWAP4 POP POP PUSH1 0x80 PUSH3 0x2AB2 DUP10 DUP3 DUP11 ADD PUSH3 0x29E1 JUMP JUMPDEST SWAP3 POP POP PUSH1 0xA0 PUSH3 0x2AC5 DUP10 DUP3 DUP11 ADD PUSH3 0x276A JUMP JUMPDEST SWAP2 POP POP SWAP3 SWAP6 POP SWAP3 SWAP6 POP SWAP3 SWAP6 JUMP JUMPDEST PUSH1 0x0 DUP2 MLOAD SWAP1 POP SWAP2 SWAP1 POP JUMP JUMPDEST PUSH1 0x0 DUP3 DUP3 MSTORE PUSH1 0x20 DUP3 ADD SWAP1 POP SWAP3 SWAP2 POP POP JUMP JUMPDEST PUSH1 0x0 PUSH3 0x2AFB DUP3 PUSH3 0x2AD2 JUMP JUMPDEST PUSH3 0x2B07 DUP2 DUP6 PUSH3 0x2ADD JUMP JUMPDEST SWAP4 POP PUSH3 0x2B19 DUP2 DUP6 PUSH1 0x20 DUP7 ADD PUSH3 0x252F JUMP JUMPDEST PUSH3 0x2B24 DUP2 PUSH3 0x2565 JUMP JUMPDEST DUP5 ADD SWAP2 POP POP SWAP3 SWAP2 POP POP JUMP JUMPDEST PUSH1 0x0 PUSH1 0x20 DUP3 ADD SWAP1 POP DUP2 DUP2 SUB PUSH1 0x0 DUP4 ADD MSTORE PUSH3 0x2B4B DUP2 DUP5 PUSH3 0x2AEE JUMP JUMPDEST SWAP1 POP SWAP3 SWAP2 POP POP JUMP JUMPDEST PUSH3 0x2B5E DUP2 PUSH3 0x24A6 JUMP JUMPDEST DUP3 MSTORE POP POP JUMP JUMPDEST PUSH1 0x0 PUSH4 0xFFFFFFFF DUP3 AND SWAP1 POP SWAP2 SWAP1 POP JUMP JUMPDEST PUSH3 0x2B7F DUP2 PUSH3 0x2B64 JUMP JUMPDEST DUP3 MSTORE POP POP JUMP JUMPDEST PUSH1 0x0 PUSH1 0x80 DUP3 ADD SWAP1 POP PUSH3 0x2B9C PUSH1 0x0 DUP4 ADD DUP8 PUSH3 0x2B53 JUMP JUMPDEST PUSH3 0x2BAB PUSH1 0x20 DUP4 ADD DUP7 PUSH3 0x2B53 JUMP JUMPDEST PUSH3 0x2BBA PUSH1 0x40 DUP4 ADD DUP6 PUSH3 0x2B74 JUMP JUMPDEST PUSH3 0x2BC9 PUSH1 0x60 DUP4 ADD DUP5 PUSH3 0x2B74 JUMP JUMPDEST SWAP6 SWAP5 POP POP POP POP POP JUMP JUMPDEST PUSH1 0x0 DUP1 REVERT JUMPDEST PUSH1 0x0 DUP1 REVERT JUMPDEST PUSH1 0x0 DUP1 DUP4 PUSH1 0x1F DUP5 ADD SLT PUSH3 0x2BF5 JUMPI PUSH3 0x2BF4 PUSH3 0x2876 JUMP JUMPDEST JUMPDEST DUP3 CALLDATALOAD SWAP1 POP PUSH8 0xFFFFFFFFFFFFFFFF DUP2 GT ISZERO PUSH3 0x2C15 JUMPI PUSH3 0x2C14 PUSH3 0x2BD2 JUMP JUMPDEST JUMPDEST PUSH1 0x20 DUP4 ADD SWAP2 POP DUP4 PUSH1 0x1 DUP3 MUL DUP4 ADD GT ISZERO PUSH3 0x2C34 JUMPI PUSH3 0x2C33 PUSH3 0x2BD7 JUMP JUMPDEST JUMPDEST SWAP3 POP SWAP3 SWAP1 POP JUMP JUMPDEST PUSH1 0x0 DUP1 PUSH1 0x0 PUSH1 0x40 DUP5 DUP7 SUB SLT ISZERO PUSH3 0x2C57 JUMPI PUSH3 0x2C56 PUSH3 0x249C JUMP JUMPDEST JUMPDEST PUSH1 0x0 DUP5 ADD CALLDATALOAD PUSH8 0xFFFFFFFFFFFFFFFF DUP2 GT ISZERO PUSH3 0x2C78 JUMPI PUSH3 0x2C77 PUSH3 0x24A1 JUMP JUMPDEST JUMPDEST PUSH3 0x2C86 DUP7 DUP3 DUP8 ADD PUSH3 0x2BDC JUMP JUMPDEST SWAP4 POP SWAP4 POP POP PUSH1 0x20 PUSH3 0x2C9B DUP7 DUP3 DUP8 ADD PUSH3 0x29E1 JUMP JUMPDEST SWAP2 POP POP SWAP3 POP SWAP3 POP SWAP3 JUMP JUMPDEST PUSH1 0x0 PUSH1 0x40 DUP3 ADD SWAP1 POP DUP2 DUP2 SUB PUSH1 0x0 DUP4 ADD MSTORE PUSH3 0x2CC1 DUP2 DUP6 PUSH3 0x2576 JUMP JUMPDEST SWAP1 POP PUSH3 0x2CD2 PUSH1 0x20 DUP4 ADD DUP5 PUSH3 0x2848 JUMP JUMPDEST SWAP4 SWAP3 POP POP POP JUMP JUMPDEST PUSH1 0x0 PUSH1 0x60 DUP3 ADD SWAP1 POP PUSH3 0x2CF0 PUSH1 0x0 DUP4 ADD DUP7 PUSH3 0x2B53 JUMP JUMPDEST PUSH3 0x2CFF PUSH1 0x20 DUP4 ADD DUP6 PUSH3 0x2B53 JUMP JUMPDEST PUSH3 0x2D0E PUSH1 0x40 DUP4 ADD DUP5 PUSH3 0x2848 JUMP JUMPDEST SWAP5 SWAP4 POP POP POP POP JUMP JUMPDEST PUSH1 0x0 PUSH1 0x20 DUP3 ADD SWAP1 POP PUSH3 0x2D2D PUSH1 0x0 DUP4 ADD DUP5 PUSH3 0x2B53 JUMP JUMPDEST SWAP3 SWAP2 POP POP JUMP JUMPDEST PUSH1 0x0 PUSH1 0xA0 DUP3 ADD SWAP1 POP PUSH3 0x2D4A PUSH1 0x0 DUP4 ADD DUP9 PUSH3 0x26AA JUMP JUMPDEST PUSH3 0x2D59 PUSH1 0x20 DUP4 ADD DUP8 PUSH3 0x26C8 JUMP JUMPDEST PUSH3 0x2D68 PUSH1 0x40 DUP4 ADD DUP7 PUSH3 0x25E5 JUMP JUMPDEST DUP2 DUP2 SUB PUSH1 0x60 DUP4 ADD MSTORE PUSH3 0x2D7C DUP2 DUP6 PUSH3 0x2AEE JUMP JUMPDEST SWAP1 POP PUSH3 0x2D8D PUSH1 0x80 DUP4 ADD DUP5 PUSH3 0x25E5 JUMP JUMPDEST SWAP7 SWAP6 POP POP POP POP POP POP JUMP JUMPDEST PUSH32 0x4E487B7100000000000000000000000000000000000000000000000000000000 PUSH1 0x0 MSTORE PUSH1 0x22 PUSH1 0x4 MSTORE PUSH1 0x24 PUSH1 0x0 REVERT JUMPDEST PUSH1 0x0 PUSH1 0x2 DUP3 DIV SWAP1 POP PUSH1 0x1 DUP3 AND DUP1 PUSH3 0x2DDF JUMPI PUSH1 0x7F DUP3 AND SWAP2 POP JUMPDEST PUSH1 0x20 DUP3 LT DUP2 EQ ISZERO PUSH3 0x2DF6 JUMPI PUSH3 0x2DF5 PUSH3 0x2D97 JUMP JUMPDEST JUMPDEST POP SWAP2 SWAP1 POP JUMP JUMPDEST PUSH1 0x0 PUSH1 0x40 DUP3 ADD SWAP1 POP DUP2 DUP2 SUB PUSH1 0x0 DUP4 ADD MSTORE PUSH3 0x2E18 DUP2 DUP6 PUSH3 0x2AEE JUMP JUMPDEST SWAP1 POP DUP2 DUP2 SUB PUSH1 0x20 DUP4 ADD MSTORE PUSH3 0x2E2E DUP2 DUP5 PUSH3 0x2AEE JUMP JUMPDEST SWAP1 POP SWAP4 SWAP3 POP POP POP JUMP JUMPDEST PUSH32 0x4E487B7100000000000000000000000000000000000000000000000000000000 PUSH1 0x0 MSTORE PUSH1 0x32 PUSH1 0x4 MSTORE PUSH1 0x24 PUSH1 0x0 REVERT JUMPDEST PUSH32 0x4E487B7100000000000000000000000000000000000000000000000000000000 PUSH1 0x0 MSTORE PUSH1 0x21 PUSH1 0x4 MSTORE PUSH1 0x24 PUSH1 0x0 REVERT JUMPDEST PUSH1 0x0 PUSH3 0x2EA3 DUP4 DUP6 PUSH3 0x251E JUMP JUMPDEST SWAP4 POP PUSH3 0x2EB2 DUP4 DUP6 DUP5 PUSH3 0x293A JUMP JUMPDEST PUSH3 0x2EBD DUP4 PUSH3 0x2565 JUMP JUMPDEST DUP5 ADD SWAP1 POP SWAP4 SWAP3 POP POP POP JUMP JUMPDEST PUSH1 0x0 PUSH1 0x40 DUP3 ADD SWAP1 POP DUP2 DUP2 SUB PUSH1 0x0 DUP4 ADD MSTORE PUSH3 0x2EE5 DUP2 DUP6 DUP8 PUSH3 0x2E95 JUMP JUMPDEST SWAP1 POP PUSH3 0x2EF6 PUSH1 0x20 DUP4 ADD DUP5 PUSH3 0x26C8 JUMP JUMPDEST SWAP5 SWAP4 POP POP POP POP JUMP JUMPDEST PUSH1 0x0 PUSH8 0xFFFFFFFFFFFFFFFF DUP3 GT ISZERO PUSH3 0x2F1C JUMPI PUSH3 0x2F1B PUSH3 0x2880 JUMP JUMPDEST JUMPDEST PUSH1 0x20 DUP3 MUL SWAP1 POP PUSH1 0x20 DUP2 ADD SWAP1 POP SWAP2 SWAP1 POP JUMP JUMPDEST PUSH1 0x0 DUP1 REVERT JUMPDEST PUSH1 0x0 DUP1 REVERT JUMPDEST PUSH1 0x0 DUP2 MLOAD SWAP1 POP PUSH3 0x2F48 DUP2 PUSH3 0x2750 JUMP JUMPDEST SWAP3 SWAP2 POP POP JUMP JUMPDEST PUSH1 0x0 PUSH1 0x40 DUP3 DUP5 SUB SLT ISZERO PUSH3 0x2F67 JUMPI PUSH3 0x2F66 PUSH3 0x2F2D JUMP JUMPDEST JUMPDEST PUSH3 0x2F73 PUSH1 0x40 PUSH3 0x28E5 JUMP JUMPDEST SWAP1 POP PUSH1 0x0 PUSH3 0x2F85 DUP5 DUP3 DUP6 ADD PUSH3 0x2F37 JUMP JUMPDEST PUSH1 0x0 DUP4 ADD MSTORE POP PUSH1 0x20 PUSH3 0x2F9B DUP5 DUP3 DUP6 ADD PUSH3 0x2F37 JUMP JUMPDEST PUSH1 0x20 DUP4 ADD MSTORE POP SWAP3 SWAP2 POP POP JUMP JUMPDEST PUSH1 0x0 PUSH3 0x2FBE PUSH3 0x2FB8 DUP5 PUSH3 0x2EFE JUMP JUMPDEST PUSH3 0x28E5 JUMP JUMPDEST SWAP1 POP DUP1 DUP4 DUP3 MSTORE PUSH1 0x20 DUP3 ADD SWAP1 POP PUSH1 0x40 DUP5 MUL DUP4 ADD DUP6 DUP2 GT ISZERO PUSH3 0x2FE4 JUMPI PUSH3 0x2FE3 PUSH3 0x2BD7 JUMP JUMPDEST JUMPDEST DUP4 JUMPDEST DUP2 DUP2 LT ISZERO PUSH3 0x3011 JUMPI DUP1 PUSH3 0x2FFC DUP9 DUP3 PUSH3 0x2F4E JUMP JUMPDEST DUP5 MSTORE PUSH1 0x20 DUP5 ADD SWAP4 POP POP PUSH1 0x40 DUP2 ADD SWAP1 POP PUSH3 0x2FE6 JUMP JUMPDEST POP POP POP SWAP4 SWAP3 POP POP POP JUMP JUMPDEST PUSH1 0x0 DUP3 PUSH1 0x1F DUP4 ADD SLT PUSH3 0x3033 JUMPI PUSH3 0x3032 PUSH3 0x2876 JUMP JUMPDEST JUMPDEST DUP2 MLOAD PUSH3 0x3045 DUP5 DUP3 PUSH1 0x20 DUP7 ADD PUSH3 0x2FA7 JUMP JUMPDEST SWAP2 POP POP SWAP3 SWAP2 POP POP JUMP JUMPDEST PUSH1 0x0 PUSH8 0xFFFFFFFFFFFFFFFF DUP3 GT ISZERO PUSH3 0x306C JUMPI PUSH3 0x306B PUSH3 0x2880 JUMP JUMPDEST JUMPDEST PUSH1 0x20 DUP3 MUL SWAP1 POP PUSH1 0x20 DUP2 ADD SWAP1 POP SWAP2 SWAP1 POP JUMP JUMPDEST PUSH1 0x0 DUP2 MLOAD SWAP1 POP PUSH3 0x308E DUP2 PUSH3 0x2647 JUMP JUMPDEST SWAP3 SWAP2 POP POP JUMP JUMPDEST PUSH1 0x0 DUP2 MLOAD SWAP1 POP PUSH3 0x30A5 DUP2 PUSH3 0x29C7 JUMP JUMPDEST SWAP3 SWAP2 POP POP JUMP JUMPDEST PUSH1 0x0 PUSH3 0x30C2 PUSH3 0x30BC DUP5 PUSH3 0x2904 JUMP JUMPDEST PUSH3 0x28E5 JUMP JUMPDEST SWAP1 POP DUP3 DUP2 MSTORE PUSH1 0x20 DUP2 ADD DUP5 DUP5 DUP5 ADD GT ISZERO PUSH3 0x30E1 JUMPI PUSH3 0x30E0 PUSH3 0x287B JUMP JUMPDEST JUMPDEST PUSH3 0x30EE DUP5 DUP3 DUP6 PUSH3 0x252F JUMP JUMPDEST POP SWAP4 SWAP3 POP POP POP JUMP JUMPDEST PUSH1 0x0 DUP3 PUSH1 0x1F DUP4 ADD SLT PUSH3 0x310E JUMPI PUSH3 0x310D PUSH3 0x2876 JUMP JUMPDEST JUMPDEST DUP2 MLOAD PUSH3 0x3120 DUP5 DUP3 PUSH1 0x20 DUP7 ADD PUSH3 0x30AB JUMP JUMPDEST SWAP2 POP POP SWAP3 SWAP2 POP POP JUMP JUMPDEST PUSH1 0x0 PUSH1 0xC0 DUP3 DUP5 SUB SLT ISZERO PUSH3 0x3142 JUMPI PUSH3 0x3141 PUSH3 0x2F2D JUMP JUMPDEST JUMPDEST PUSH3 0x314E PUSH1 0xC0 PUSH3 0x28E5 JUMP JUMPDEST SWAP1 POP PUSH1 0x0 PUSH3 0x3160 DUP5 DUP3 DUP6 ADD PUSH3 0x2F37 JUMP JUMPDEST PUSH1 0x0 DUP4 ADD MSTORE POP PUSH1 0x20 PUSH3 0x3176 DUP5 DUP3 DUP6 ADD PUSH3 0x307D JUMP JUMPDEST PUSH1 0x20 DUP4 ADD MSTORE POP PUSH1 0x40 PUSH3 0x318C DUP5 DUP3 DUP6 ADD PUSH3 0x307D JUMP JUMPDEST PUSH1 0x40 DUP4 ADD MSTORE POP PUSH1 0x60 PUSH3 0x31A2 DUP5 DUP3 DUP6 ADD PUSH3 0x307D JUMP JUMPDEST PUSH1 0x60 DUP4 ADD MSTORE POP PUSH1 0x80 PUSH3 0x31B8 DUP5 DUP3 DUP6 ADD PUSH3 0x3094 JUMP JUMPDEST PUSH1 0x80 DUP4 ADD MSTORE POP PUSH1 0xA0 DUP3 ADD MLOAD PUSH8 0xFFFFFFFFFFFFFFFF DUP2 GT ISZERO PUSH3 0x31DF JUMPI PUSH3 0x31DE PUSH3 0x2F32 JUMP JUMPDEST JUMPDEST PUSH3 0x31ED DUP5 DUP3 DUP6 ADD PUSH3 0x30F6 JUMP JUMPDEST PUSH1 0xA0 DUP4 ADD MSTORE POP SWAP3 SWAP2 POP POP JUMP JUMPDEST PUSH1 0x0 PUSH3 0x3210 PUSH3 0x320A DUP5 PUSH3 0x304E JUMP JUMPDEST PUSH3 0x28E5 JUMP JUMPDEST SWAP1 POP DUP1 DUP4 DUP3 MSTORE PUSH1 0x20 DUP3 ADD SWAP1 POP PUSH1 0x20 DUP5 MUL DUP4 ADD DUP6 DUP2 GT ISZERO PUSH3 0x3236 JUMPI PUSH3 0x3235 PUSH3 0x2BD7 JUMP JUMPDEST JUMPDEST DUP4 JUMPDEST DUP2 DUP2 LT ISZERO PUSH3 0x3284 JUMPI DUP1 MLOAD PUSH8 0xFFFFFFFFFFFFFFFF DUP2 GT ISZERO PUSH3 0x325F JUMPI PUSH3 0x325E PUSH3 0x2876 JUMP JUMPDEST JUMPDEST DUP1 DUP7 ADD PUSH3 0x326E DUP10 DUP3 PUSH3 0x3129 JUMP JUMPDEST DUP6 MSTORE PUSH1 0x20 DUP6 ADD SWAP5 POP POP POP PUSH1 0x20 DUP2 ADD SWAP1 POP PUSH3 0x3238 JUMP JUMPDEST POP POP POP SWAP4 SWAP3 POP POP POP JUMP JUMPDEST PUSH1 0x0 DUP3 PUSH1 0x1F DUP4 ADD SLT PUSH3 0x32A6 JUMPI PUSH3 0x32A5 PUSH3 0x2876 JUMP JUMPDEST JUMPDEST DUP2 MLOAD PUSH3 0x32B8 DUP5 DUP3 PUSH1 0x20 DUP7 ADD PUSH3 0x31F9 JUMP JUMPDEST SWAP2 POP POP SWAP3 SWAP2 POP POP JUMP JUMPDEST PUSH3 0x32CC DUP2 PUSH3 0x2B64 JUMP JUMPDEST DUP2 EQ PUSH3 0x32D8 JUMPI PUSH1 0x0 DUP1 REVERT JUMPDEST POP JUMP JUMPDEST PUSH1 0x0 DUP2 MLOAD SWAP1 POP PUSH3 0x32EC DUP2 PUSH3 0x32C1 JUMP JUMPDEST SWAP3 SWAP2 POP POP JUMP JUMPDEST PUSH1 0x0 PUSH8 0xFFFFFFFFFFFFFFFF DUP3 GT ISZERO PUSH3 0x3310 JUMPI PUSH3 0x330F PUSH3 0x2880 JUMP JUMPDEST JUMPDEST PUSH1 0x20 DUP3 MUL SWAP1 POP PUSH1 0x20 DUP2 ADD SWAP1 POP SWAP2 SWAP1 POP JUMP JUMPDEST PUSH1 0x0 PUSH22 0xFFFFFFFFFFFFFFFFFFFFFFFFFFFFFFFFFFFFFFFFFFFF DUP3 AND SWAP1 POP SWAP2 SWAP1 POP JUMP JUMPDEST PUSH3 0x334E DUP2 PUSH3 0x3321 JUMP JUMPDEST DUP2 EQ PUSH3 0x335A JUMPI PUSH1 0x0 DUP1 REVERT JUMPDEST POP JUMP JUMPDEST PUSH1 0x0 DUP2 MLOAD SWAP1 POP PUSH3 0x336E DUP2 PUSH3 0x3343 JUMP JUMPDEST SWAP3 SWAP2 POP POP JUMP JUMPDEST PUSH1 0x0 PUSH3 0x338B PUSH3 0x3385 DUP5 PUSH3 0x32F2 JUMP JUMPDEST PUSH3 0x28E5 JUMP JUMPDEST SWAP1 POP DUP1 DUP4 DUP3 MSTORE PUSH1 0x20 DUP3 ADD SWAP1 POP PUSH1 0x20 DUP5 MUL DUP4 ADD DUP6 DUP2 GT ISZERO PUSH3 0x33B1 JUMPI PUSH3 0x33B0 PUSH3 0x2BD7 JUMP JUMPDEST JUMPDEST DUP4 JUMPDEST DUP2 DUP2 LT ISZERO PUSH3 0x33DE JUMPI DUP1 PUSH3 0x33C9 DUP9 DUP3 PUSH3 0x335D JUMP JUMPDEST DUP5 MSTORE PUSH1 0x20 DUP5 ADD SWAP4 POP POP PUSH1 0x20 DUP2 ADD SWAP1 POP PUSH3 0x33B3 JUMP JUMPDEST POP POP POP SWAP4 SWAP3 POP POP POP JUMP JUMPDEST PUSH1 0x0 DUP3 PUSH1 0x1F DUP4 ADD SLT PUSH3 0x3400 JUMPI PUSH3 0x33FF PUSH3 0x2876 JUMP JUMPDEST JUMPDEST DUP2 MLOAD PUSH3 0x3412 DUP5 DUP3 PUSH1 0x20 DUP7 ADD PUSH3 0x3374 JUMP JUMPDEST SWAP2 POP POP SWAP3 SWAP2 POP POP JUMP JUMPDEST PUSH1 0x0 DUP1 PUSH1 0x0 DUP1 PUSH1 0x80 DUP6 DUP8 SUB SLT ISZERO PUSH3 0x3438 JUMPI PUSH3 0x3437 PUSH3 0x249C JUMP JUMPDEST JUMPDEST PUSH1 0x0 DUP6 ADD MLOAD PUSH8 0xFFFFFFFFFFFFFFFF DUP2 GT ISZERO PUSH3 0x3459 JUMPI PUSH3 0x3458 PUSH3 0x24A1 JUMP JUMPDEST JUMPDEST PUSH3 0x3467 DUP8 DUP3 DUP9 ADD PUSH3 0x301B JUMP JUMPDEST SWAP5 POP POP PUSH1 0x20 DUP6 ADD MLOAD PUSH8 0xFFFFFFFFFFFFFFFF DUP2 GT ISZERO PUSH3 0x348B JUMPI PUSH3 0x348A PUSH3 0x24A1 JUMP JUMPDEST JUMPDEST PUSH3 0x3499 DUP8 DUP3 DUP9 ADD PUSH3 0x328E JUMP JUMPDEST SWAP4 POP POP PUSH1 0x40 PUSH3 0x34AC DUP8 DUP3 DUP9 ADD PUSH3 0x32DB JUMP JUMPDEST SWAP3 POP POP PUSH1 0x60 DUP6 ADD MLOAD PUSH8 0xFFFFFFFFFFFFFFFF DUP2 GT ISZERO PUSH3 0x34D0 JUMPI PUSH3 0x34CF PUSH3 0x24A1 JUMP JUMPDEST JUMPDEST PUSH3 0x34DE DUP8 DUP3 DUP9 ADD PUSH3 0x33E8 JUMP JUMPDEST SWAP2 POP POP SWAP3 SWAP6 SWAP2 SWAP5 POP SWAP3 POP JUMP JUMPDEST PUSH1 0x0 PUSH1 0x60 DUP3 ADD SWAP1 POP PUSH3 0x3501 PUSH1 0x0 DUP4 ADD DUP7 PUSH3 0x26AA JUMP JUMPDEST DUP2 DUP2 SUB PUSH1 0x20 DUP4 ADD MSTORE PUSH3 0x3515 DUP2 DUP6 PUSH3 0x2AEE JUMP JUMPDEST SWAP1 POP PUSH3 0x3526 PUSH1 0x40 DUP4 ADD DUP5 PUSH3 0x26AA JUMP JUMPDEST SWAP5 SWAP4 POP POP POP POP JUMP JUMPDEST PUSH1 0x0 DUP2 SWAP1 POP SWAP3 SWAP2 POP POP JUMP JUMPDEST PUSH1 0x0 PUSH3 0x3546 DUP3 PUSH3 0x2513 JUMP JUMPDEST PUSH3 0x3552 DUP2 DUP6 PUSH3 0x352E JUMP JUMPDEST SWAP4 POP PUSH3 0x3564 DUP2 DUP6 PUSH1 0x20 DUP7 ADD PUSH3 0x252F JUMP JUMPDEST DUP1 DUP5 ADD SWAP2 POP POP SWAP3 SWAP2 POP POP JUMP JUMPDEST PUSH1 0x0 DUP2 PUSH1 0x50 SHL SWAP1 POP SWAP2 SWAP1 POP JUMP JUMPDEST PUSH1 0x0 PUSH3 0x358A DUP3 PUSH3 0x3570 JUMP JUMPDEST SWAP1 POP SWAP2 SWAP1 POP JUMP JUMPDEST PUSH3 0x35A6 PUSH3 0x35A0 DUP3 PUSH3 0x3321 JUMP JUMPDEST PUSH3 0x357D JUMP JUMPDEST DUP3 MSTORE POP POP JUMP JUMPDEST PUSH1 0x0 DUP2 PUSH1 0xC0 SHL SWAP1 POP SWAP2 SWAP1 POP JUMP JUMPDEST PUSH1 0x0 PUSH3 0x35C6 DUP3 PUSH3 0x35AC JUMP JUMPDEST SWAP1 POP SWAP2 SWAP1 POP JUMP JUMPDEST PUSH3 0x35E2 PUSH3 0x35DC DUP3 PUSH3 0x2834 JUMP JUMPDEST PUSH3 0x35B9 JUMP JUMPDEST DUP3 MSTORE POP POP JUMP JUMPDEST PUSH1 0x0 DUP2 PUSH1 0x60 SHL SWAP1 POP SWAP2 SWAP1 POP JUMP JUMPDEST PUSH1 0x0 PUSH3 0x3602 DUP3 PUSH3 0x35E8 JUMP JUMPDEST SWAP1 POP SWAP2 SWAP1 POP JUMP JUMPDEST PUSH1 0x0 PUSH3 0x3616 DUP3 PUSH3 0x35F5 JUMP JUMPDEST SWAP1 POP SWAP2 SWAP1 POP JUMP JUMPDEST PUSH3 0x3632 PUSH3 0x362C DUP3 PUSH3 0x2633 JUMP JUMPDEST PUSH3 0x3609 JUMP JUMPDEST DUP3 MSTORE POP POP JUMP JUMPDEST PUSH1 0x0 PUSH3 0x3646 DUP3 DUP8 PUSH3 0x3539 JUMP JUMPDEST SWAP2 POP PUSH3 0x3654 DUP3 DUP7 PUSH3 0x3591 JUMP JUMPDEST PUSH1 0x16 DUP3 ADD SWAP2 POP PUSH3 0x3666 DUP3 DUP6 PUSH3 0x35CD JUMP JUMPDEST PUSH1 0x8 DUP3 ADD SWAP2 POP PUSH3 0x3678 DUP3 DUP5 PUSH3 0x361D JUMP JUMPDEST PUSH1 0x14 DUP3 ADD SWAP2 POP DUP2 SWAP1 POP SWAP6 SWAP5 POP POP POP POP POP JUMP JUMPDEST PUSH32 0x4E487B7100000000000000000000000000000000000000000000000000000000 PUSH1 0x0 MSTORE PUSH1 0x11 PUSH1 0x4 MSTORE PUSH1 0x24 PUSH1 0x0 REVERT JUMPDEST PUSH1 0x0 PUSH3 0x36C6 DUP3 PUSH3 0x25DB JUMP JUMPDEST SWAP2 POP PUSH3 0x36D3 DUP4 PUSH3 0x25DB JUMP JUMPDEST SWAP3 POP DUP3 DUP3 LT ISZERO PUSH3 0x36E9 JUMPI PUSH3 0x36E8 PUSH3 0x368A JUMP JUMPDEST JUMPDEST DUP3 DUP3 SUB SWAP1 POP SWAP3 SWAP2 POP POP JUMP JUMPDEST PUSH1 0x0 PUSH3 0x3701 DUP3 PUSH3 0x25DB JUMP JUMPDEST SWAP2 POP PUSH3 0x370E DUP4 PUSH3 0x25DB JUMP JUMPDEST SWAP3 POP DUP3 PUSH32 0xFFFFFFFFFFFFFFFFFFFFFFFFFFFFFFFFFFFFFFFFFFFFFFFFFFFFFFFFFFFFFFFF SUB DUP3 GT ISZERO PUSH3 0x3746 JUMPI PUSH3 0x3745 PUSH3 0x368A JUMP JUMPDEST JUMPDEST DUP3 DUP3 ADD SWAP1 POP SWAP3 SWAP2 POP POP JUMP JUMPDEST PUSH1 0x0 PUSH3 0x375E DUP3 PUSH3 0x25DB JUMP JUMPDEST SWAP2 POP PUSH32 0xFFFFFFFFFFFFFFFFFFFFFFFFFFFFFFFFFFFFFFFFFFFFFFFFFFFFFFFFFFFFFFFF DUP3 EQ ISZERO PUSH3 0x3794 JUMPI PUSH3 0x3793 PUSH3 0x368A JUMP JUMPDEST JUMPDEST PUSH1 0x1 DUP3 ADD SWAP1 POP SWAP2 SWAP1 POP JUMP JUMPDEST PUSH3 0x37AA DUP2 PUSH3 0x25DB JUMP JUMPDEST DUP3 MSTORE POP POP JUMP JUMPDEST PUSH3 0x37BB DUP2 PUSH3 0x2633 JUMP JUMPDEST DUP3 MSTORE POP POP JUMP JUMPDEST PUSH3 0x37CC DUP2 PUSH3 0x26BB JUMP JUMPDEST DUP3 MSTORE POP POP JUMP JUMPDEST PUSH1 0x0 DUP3 DUP3 MSTORE PUSH1 0x20 DUP3 ADD SWAP1 POP SWAP3 SWAP2 POP POP JUMP JUMPDEST PUSH1 0x0 PUSH3 0x37F0 DUP3 PUSH3 0x2AD2 JUMP JUMPDEST PUSH3 0x37FC DUP2 DUP6 PUSH3 0x37D2 JUMP JUMPDEST SWAP4 POP PUSH3 0x380E DUP2 DUP6 PUSH1 0x20 DUP7 ADD PUSH3 0x252F JUMP JUMPDEST PUSH3 0x3819 DUP2 PUSH3 0x2565 JUMP JUMPDEST DUP5 ADD SWAP2 POP POP SWAP3 SWAP2 POP POP JUMP JUMPDEST PUSH1 0x0 PUSH1 0xC0 DUP4 ADD PUSH1 0x0 DUP4 ADD MLOAD PUSH3 0x383E PUSH1 0x0 DUP7 ADD DUP3 PUSH3 0x379F JUMP JUMPDEST POP PUSH1 0x20 DUP4 ADD MLOAD PUSH3 0x3853 PUSH1 0x20 DUP7 ADD DUP3 PUSH3 0x37B0 JUMP JUMPDEST POP PUSH1 0x40 DUP4 ADD MLOAD PUSH3 0x3868 PUSH1 0x40 DUP7 ADD DUP3 PUSH3 0x37B0 JUMP JUMPDEST POP PUSH1 0x60 DUP4 ADD MLOAD PUSH3 0x387D PUSH1 0x60 DUP7 ADD DUP3 PUSH3 0x37B0 JUMP JUMPDEST POP PUSH1 0x80 DUP4 ADD MLOAD PUSH3 0x3892 PUSH1 0x80 DUP7 ADD DUP3 PUSH3 0x37C1 JUMP JUMPDEST POP PUSH1 0xA0 DUP4 ADD MLOAD DUP5 DUP3 SUB PUSH1 0xA0 DUP7 ADD MSTORE PUSH3 0x38AC DUP3 DUP3 PUSH3 0x37E3 JUMP JUMPDEST SWAP2 POP POP DUP1 SWAP2 POP POP SWAP3 SWAP2 POP POP JUMP JUMPDEST PUSH1 0x0 PUSH1 0x20 DUP3 ADD SWAP1 POP DUP2 DUP2 SUB PUSH1 0x0 DUP4 ADD MSTORE PUSH3 0x38D5 DUP2 DUP5 PUSH3 0x3824 JUMP JUMPDEST SWAP1 POP SWAP3 SWAP2 POP POP JUMP JUMPDEST PUSH1 0x0 PUSH1 0x20 DUP3 DUP5 SUB SLT ISZERO PUSH3 0x38F6 JUMPI PUSH3 0x38F5 PUSH3 0x249C JUMP JUMPDEST JUMPDEST PUSH1 0x0 DUP3 ADD MLOAD PUSH8 0xFFFFFFFFFFFFFFFF DUP2 GT ISZERO PUSH3 0x3917 JUMPI PUSH3 0x3916 PUSH3 0x24A1 JUMP JUMPDEST JUMPDEST PUSH3 0x3925 DUP5 DUP3 DUP6 ADD PUSH3 0x30F6 JUMP JUMPDEST SWAP2 POP POP SWAP3 SWAP2 POP POP JUMP JUMPDEST PUSH1 0x0 DUP2 SWAP1 POP SWAP3 SWAP2 POP POP JUMP JUMPDEST PUSH32 0x5B00000000000000000000000000000000000000000000000000000000000000 PUSH1 0x0 DUP3 ADD MSTORE POP JUMP JUMPDEST PUSH1 0x0 PUSH3 0x3971 PUSH1 0x1 DUP4 PUSH3 0x392E JUMP JUMPDEST SWAP2 POP PUSH3 0x397E DUP3 PUSH3 0x3939 JUMP JUMPDEST PUSH1 0x1 DUP3 ADD SWAP1 POP SWAP2 SWAP1 POP JUMP JUMPDEST PUSH1 0x0 PUSH3 0x3996 DUP3 PUSH3 0x2AD2 JUMP JUMPDEST PUSH3 0x39A2 DUP2 DUP6 PUSH3 0x392E JUMP JUMPDEST SWAP4 POP PUSH3 0x39B4 DUP2 DUP6 PUSH1 0x20 DUP7 ADD PUSH3 0x252F JUMP JUMPDEST DUP1 DUP5 ADD SWAP2 POP POP SWAP3 SWAP2 POP POP JUMP JUMPDEST PUSH32 0x5D20617320000000000000000000000000000000000000000000000000000000 PUSH1 0x0 DUP3 ADD MSTORE POP JUMP JUMPDEST PUSH1 0x0 PUSH3 0x39F8 PUSH1 0x5 DUP4 PUSH3 0x392E JUMP JUMPDEST SWAP2 POP PUSH3 0x3A05 DUP3 PUSH3 0x39C0 JUMP JUMPDEST PUSH1 0x5 DUP3 ADD SWAP1 POP SWAP2 SWAP1 POP JUMP JUMPDEST PUSH1 0x0 PUSH3 0x3A1D DUP3 PUSH3 0x3962 JUMP JUMPDEST SWAP2 POP PUSH3 0x3A2B DUP3 DUP5 PUSH3 0x3989 JUMP JUMPDEST SWAP2 POP PUSH3 0x3A38 DUP3 PUSH3 0x39E9 JUMP JUMPDEST SWAP2 POP DUP2 SWAP1 POP SWAP3 SWAP2 POP POP JUMP JUMPDEST PUSH1 0x0 PUSH3 0x3A51 DUP3 DUP6 PUSH3 0x3989 JUMP JUMPDEST SWAP2 POP PUSH3 0x3A5F DUP3 DUP5 PUSH3 0x3989 JUMP JUMPDEST SWAP2 POP DUP2 SWAP1 POP SWAP4 SWAP3 POP POP POP JUMP JUMPDEST PUSH32 0x2E00000000000000000000000000000000000000000000000000000000000000 PUSH1 0x0 DUP3 ADD MSTORE POP JUMP JUMPDEST PUSH1 0x0 PUSH3 0x3AA3 PUSH1 0x1 DUP4 PUSH3 0x392E JUMP JUMPDEST SWAP2 POP PUSH3 0x3AB0 DUP3 PUSH3 0x3A6B JUMP JUMPDEST PUSH1 0x1 DUP3 ADD SWAP1 POP SWAP2 SWAP1 POP JUMP JUMPDEST PUSH1 0x0 DUP2 SWAP1 POP DUP2 PUSH1 0x0 MSTORE PUSH1 0x20 PUSH1 0x0 KECCAK256 SWAP1 POP SWAP2 SWAP1 POP JUMP JUMPDEST PUSH1 0x0 DUP2 SLOAD PUSH3 0x3ADF DUP2 PUSH3 0x2DC6 JUMP JUMPDEST PUSH3 0x3AEB DUP2 DUP7 PUSH3 0x392E JUMP JUMPDEST SWAP5 POP PUSH1 0x1 DUP3 AND PUSH1 0x0 DUP2 EQ PUSH3 0x3B09 JUMPI PUSH1 0x1 DUP2 EQ PUSH3 0x3B1B JUMPI PUSH3 0x3B52 JUMP JUMPDEST PUSH1 0xFF NOT DUP4 AND DUP7 MSTORE DUP2 DUP7 ADD SWAP4 POP PUSH3 0x3B52 JUMP JUMPDEST PUSH3 0x3B26 DUP6 PUSH3 0x3ABB JUMP JUMPDEST PUSH1 0x0 JUMPDEST DUP4 DUP2 LT ISZERO PUSH3 0x3B4A JUMPI DUP2 SLOAD DUP2 DUP10 ADD MSTORE PUSH1 0x1 DUP3 ADD SWAP2 POP PUSH1 0x20 DUP2 ADD SWAP1 POP PUSH3 0x3B29 JUMP JUMPDEST DUP4 DUP9 ADD SWAP6 POP POP POP JUMPDEST POP POP POP SWAP3 SWAP2 POP POP JUMP JUMPDEST PUSH1 0x0 PUSH3 0x3B69 DUP3 DUP6 PUSH3 0x3989 JUMP JUMPDEST SWAP2 POP PUSH3 0x3B76 DUP3 PUSH3 0x3A94 JUMP JUMPDEST SWAP2 POP PUSH3 0x3B84 DUP3 DUP5 PUSH3 0x3AD0 JUMP JUMPDEST SWAP2 POP DUP2 SWAP1 POP SWAP4 SWAP3 POP POP POP JUMP JUMPDEST PUSH1 0x0 PUSH3 0x3B9D DUP3 PUSH3 0x25DB JUMP JUMPDEST SWAP2 POP PUSH3 0x3BAA DUP4 PUSH3 0x25DB JUMP JUMPDEST SWAP3 POP DUP2 PUSH32 0xFFFFFFFFFFFFFFFFFFFFFFFFFFFFFFFFFFFFFFFFFFFFFFFFFFFFFFFFFFFFFFFF DIV DUP4 GT DUP3 ISZERO ISZERO AND ISZERO PUSH3 0x3BE6 JUMPI PUSH3 0x3BE5 PUSH3 0x368A JUMP JUMPDEST JUMPDEST DUP3 DUP3 MUL SWAP1 POP SWAP3 SWAP2 POP POP JUMP JUMPDEST PUSH1 0x0 PUSH1 0x20 DUP3 DUP5 SUB SLT ISZERO PUSH3 0x3C0A JUMPI PUSH3 0x3C09 PUSH3 0x249C JUMP JUMPDEST JUMPDEST PUSH1 0x0 PUSH3 0x3C1A DUP5 DUP3 DUP6 ADD PUSH3 0x3094 JUMP JUMPDEST SWAP2 POP POP SWAP3 SWAP2 POP POP JUMP JUMPDEST PUSH1 0x0 PUSH1 0x40 DUP3 ADD SWAP1 POP PUSH3 0x3C3A PUSH1 0x0 DUP4 ADD DUP6 PUSH3 0x26AA JUMP JUMPDEST PUSH3 0x3C49 PUSH1 0x20 DUP4 ADD DUP5 PUSH3 0x25E5 JUMP JUMPDEST SWAP4 SWAP3 POP POP POP JUMP JUMPDEST PUSH1 0x0 PUSH3 0x3C5E DUP3 DUP5 PUSH3 0x3539 JUMP JUMPDEST SWAP2 POP DUP2 SWAP1 POP SWAP3 SWAP2 POP POP JUMP JUMPDEST PUSH3 0x3C74 DUP2 PUSH3 0x2716 JUMP JUMPDEST DUP2 EQ PUSH3 0x3C80 JUMPI PUSH1 0x0 DUP1 REVERT JUMPDEST POP JUMP JUMPDEST PUSH1 0x0 DUP2 MLOAD SWAP1 POP PUSH3 0x3C94 DUP2 PUSH3 0x3C69 JUMP JUMPDEST SWAP3 SWAP2 POP POP JUMP JUMPDEST PUSH1 0x0 PUSH1 0x20 DUP3 DUP5 SUB SLT ISZERO PUSH3 0x3CB3 JUMPI PUSH3 0x3CB2 PUSH3 0x249C JUMP JUMPDEST JUMPDEST PUSH1 0x0 PUSH3 0x3CC3 DUP5 DUP3 DUP6 ADD PUSH3 0x3C83 JUMP JUMPDEST SWAP2 POP POP SWAP3 SWAP2 POP POP JUMP JUMPDEST PUSH1 0x0 PUSH1 0x60 DUP3 ADD SWAP1 POP PUSH3 0x3CE3 PUSH1 0x0 DUP4 ADD DUP7 PUSH3 0x26AA JUMP JUMPDEST PUSH3 0x3CF2 PUSH1 0x20 DUP4 ADD DUP6 PUSH3 0x26AA JUMP JUMPDEST PUSH3 0x3D01 PUSH1 0x40 DUP4 ADD DUP5 PUSH3 0x25E5 JUMP JUMPDEST SWAP5 SWAP4 POP POP POP POP JUMP JUMPDEST POP JUMP JUMPDEST PUSH1 0x0 PUSH3 0x3D1B PUSH1 0x0 DUP4 PUSH3 0x251E JUMP JUMPDEST SWAP2 POP PUSH3 0x3D28 DUP3 PUSH3 0x3D09 JUMP JUMPDEST PUSH1 0x0 DUP3 ADD SWAP1 POP SWAP2 SWAP1 POP JUMP JUMPDEST PUSH1 0x0 PUSH1 0xA0 DUP3 ADD SWAP1 POP PUSH3 0x3D4A PUSH1 0x0 DUP4 ADD DUP8 PUSH3 0x26AA JUMP JUMPDEST PUSH3 0x3D59 PUSH1 0x20 DUP4 ADD DUP7 PUSH3 0x26AA JUMP JUMPDEST PUSH3 0x3D68 PUSH1 0x40 DUP4 ADD DUP6 PUSH3 0x25E5 JUMP JUMPDEST PUSH3 0x3D77 PUSH1 0x60 DUP4 ADD DUP5 PUSH3 0x25E5 JUMP JUMPDEST DUP2 DUP2 SUB PUSH1 0x80 DUP4 ADD MSTORE PUSH3 0x3D8A DUP2 PUSH3 0x3D0C JUMP JUMPDEST SWAP1 POP SWAP6 SWAP5 POP POP POP POP POP JUMP JUMPDEST PUSH1 0x0 PUSH3 0x3DA2 DUP3 PUSH3 0x26BB JUMP JUMPDEST SWAP2 POP PUSH3 0x3DAF DUP4 PUSH3 0x26BB JUMP JUMPDEST SWAP3 POP DUP3 DUP3 LT ISZERO PUSH3 0x3DC5 JUMPI PUSH3 0x3DC4 PUSH3 0x368A JUMP JUMPDEST JUMPDEST DUP3 DUP3 SUB SWAP1 POP SWAP3 SWAP2 POP POP JUMP JUMPDEST PUSH1 0x0 DUP2 PUSH1 0x1 SHR SWAP1 POP SWAP2 SWAP1 POP JUMP JUMPDEST PUSH1 0x0 DUP1 DUP3 SWAP2 POP DUP4 SWAP1 POP JUMPDEST PUSH1 0x1 DUP6 GT ISZERO PUSH3 0x3E2F JUMPI DUP1 DUP7 DIV DUP2 GT ISZERO PUSH3 0x3E07 JUMPI PUSH3 0x3E06 PUSH3 0x368A JUMP JUMPDEST JUMPDEST PUSH1 0x1 DUP6 AND ISZERO PUSH3 0x3E17 JUMPI DUP1 DUP3 MUL SWAP2 POP JUMPDEST DUP1 DUP2 MUL SWAP1 POP PUSH3 0x3E27 DUP6 PUSH3 0x3DD0 JUMP JUMPDEST SWAP5 POP PUSH3 0x3DE7 JUMP JUMPDEST SWAP5 POP SWAP5 SWAP3 POP POP POP JUMP JUMPDEST PUSH1 0x0 DUP3 PUSH3 0x3E4A JUMPI PUSH1 0x1 SWAP1 POP PUSH3 0x3F1D JUMP JUMPDEST DUP2 PUSH3 0x3E5A JUMPI PUSH1 0x0 SWAP1 POP PUSH3 0x3F1D JUMP JUMPDEST DUP2 PUSH1 0x1 DUP2 EQ PUSH3 0x3E73 JUMPI PUSH1 0x2 DUP2 EQ PUSH3 0x3E7E JUMPI PUSH3 0x3EB4 JUMP JUMPDEST PUSH1 0x1 SWAP2 POP POP PUSH3 0x3F1D JUMP JUMPDEST PUSH1 0xFF DUP5 GT ISZERO PUSH3 0x3E93 JUMPI PUSH3 0x3E92 PUSH3 0x368A JUMP JUMPDEST JUMPDEST DUP4 PUSH1 0x2 EXP SWAP2 POP DUP5 DUP3 GT ISZERO PUSH3 0x3EAD JUMPI PUSH3 0x3EAC PUSH3 0x368A JUMP JUMPDEST JUMPDEST POP PUSH3 0x3F1D JUMP JUMPDEST POP PUSH1 0x20 DUP4 LT PUSH2 0x133 DUP4 LT AND PUSH1 0x4E DUP5 LT PUSH1 0xB DUP5 LT AND OR ISZERO PUSH3 0x3EEE JUMPI DUP3 DUP3 EXP SWAP1 POP DUP4 DUP2 GT ISZERO PUSH3 0x3EE8 JUMPI PUSH3 0x3EE7 PUSH3 0x368A JUMP JUMPDEST JUMPDEST PUSH3 0x3F1D JUMP JUMPDEST PUSH3 0x3EFD DUP5 DUP5 DUP5 PUSH1 0x1 PUSH3 0x3DDD JUMP JUMPDEST SWAP3 POP SWAP1 POP DUP2 DUP5 DIV DUP2 GT ISZERO PUSH3 0x3F17 JUMPI PUSH3 0x3F16 PUSH3 0x368A JUMP JUMPDEST JUMPDEST DUP2 DUP2 MUL SWAP1 POP JUMPDEST SWAP4 SWAP3 POP POP POP JUMP JUMPDEST PUSH1 0x0 PUSH3 0x3F31 DUP3 PUSH3 0x25DB JUMP JUMPDEST SWAP2 POP PUSH3 0x3F3E DUP4 PUSH3 0x26BB JUMP JUMPDEST SWAP3 POP PUSH3 0x3F6D PUSH32 0xFFFFFFFFFFFFFFFFFFFFFFFFFFFFFFFFFFFFFFFFFFFFFFFFFFFFFFFFFFFFFFFF DUP5 DUP5 PUSH3 0x3E38 JUMP JUMPDEST SWAP1 POP SWAP3 SWAP2 POP POP JUMP JUMPDEST PUSH32 0x4E487B7100000000000000000000000000000000000000000000000000000000 PUSH1 0x0 MSTORE PUSH1 0x12 PUSH1 0x4 MSTORE PUSH1 0x24 PUSH1 0x0 REVERT JUMPDEST PUSH1 0x0 PUSH3 0x3FB1 DUP3 PUSH3 0x25DB JUMP JUMPDEST SWAP2 POP PUSH3 0x3FBE DUP4 PUSH3 0x25DB JUMP JUMPDEST SWAP3 POP DUP3 PUSH3 0x3FD1 JUMPI PUSH3 0x3FD0 PUSH3 0x3F75 JUMP JUMPDEST JUMPDEST DUP3 DUP3 DIV SWAP1 POP SWAP3 SWAP2 POP POP JUMP INVALID PUSH1 0x80 PUSH1 0x40 MSTORE CALLVALUE DUP1 ISZERO PUSH3 0x11 JUMPI PUSH1 0x0 DUP1 REVERT JUMPDEST POP PUSH1 0x40 MLOAD PUSH3 0x1F9F CODESIZE SUB DUP1 PUSH3 0x1F9F DUP4 CODECOPY DUP2 DUP2 ADD PUSH1 0x40 MSTORE DUP2 ADD SWAP1 PUSH3 0x37 SWAP2 SWAP1 PUSH3 0x303 JUMP JUMPDEST DUP2 DUP2 DUP2 PUSH1 0x3 SWAP1 DUP1 MLOAD SWAP1 PUSH1 0x20 ADD SWAP1 PUSH3 0x51 SWAP3 SWAP2 SWAP1 PUSH3 0xB6 JUMP JUMPDEST POP DUP1 PUSH1 0x4 SWAP1 DUP1 MLOAD SWAP1 PUSH1 0x20 ADD SWAP1 PUSH3 0x6A SWAP3 SWAP2 SWAP1 PUSH3 0xB6 JUMP JUMPDEST POP POP POP CALLER PUSH1 0x5 PUSH1 0x0 PUSH2 0x100 EXP DUP2 SLOAD DUP2 PUSH20 0xFFFFFFFFFFFFFFFFFFFFFFFFFFFFFFFFFFFFFFFF MUL NOT AND SWAP1 DUP4 PUSH20 0xFFFFFFFFFFFFFFFFFFFFFFFFFFFFFFFFFFFFFFFF AND MUL OR SWAP1 SSTORE POP POP POP PUSH3 0x3ED JUMP JUMPDEST DUP3 DUP1 SLOAD PUSH3 0xC4 SWAP1 PUSH3 0x3B7 JUMP JUMPDEST SWAP1 PUSH1 0x0 MSTORE PUSH1 0x20 PUSH1 0x0 KECCAK256 SWAP1 PUSH1 0x1F ADD PUSH1 0x20 SWAP1 DIV DUP2 ADD SWAP3 DUP3 PUSH3 0xE8 JUMPI PUSH1 0x0 DUP6 SSTORE PUSH3 0x134 JUMP JUMPDEST DUP3 PUSH1 0x1F LT PUSH3 0x103 JUMPI DUP1 MLOAD PUSH1 0xFF NOT AND DUP4 DUP1 ADD OR DUP6 SSTORE PUSH3 0x134 JUMP JUMPDEST DUP3 DUP1 ADD PUSH1 0x1 ADD DUP6 SSTORE DUP3 ISZERO PUSH3 0x134 JUMPI SWAP2 DUP3 ADD JUMPDEST DUP3 DUP2 GT ISZERO PUSH3 0x133 JUMPI DUP3 MLOAD DUP3 SSTORE SWAP2 PUSH1 0x20 ADD SWAP2 SWAP1 PUSH1 0x1 ADD SWAP1 PUSH3 0x116 JUMP JUMPDEST JUMPDEST POP SWAP1 POP PUSH3 0x143 SWAP2 SWAP1 PUSH3 0x147 JUMP JUMPDEST POP SWAP1 JUMP JUMPDEST JUMPDEST DUP1 DUP3 GT ISZERO PUSH3 0x162 JUMPI PUSH1 0x0 DUP2 PUSH1 0x0 SWAP1 SSTORE POP PUSH1 0x1 ADD PUSH3 0x148 JUMP JUMPDEST POP SWAP1 JUMP JUMPDEST PUSH1 0x0 PUSH1 0x40 MLOAD SWAP1 POP SWAP1 JUMP JUMPDEST PUSH1 0x0 DUP1 REVERT JUMPDEST PUSH1 0x0 DUP1 REVERT JUMPDEST PUSH1 0x0 DUP1 REVERT JUMPDEST PUSH1 0x0 DUP1 REVERT JUMPDEST PUSH1 0x0 PUSH1 0x1F NOT PUSH1 0x1F DUP4 ADD AND SWAP1 POP SWAP2 SWAP1 POP JUMP JUMPDEST PUSH32 0x4E487B7100000000000000000000000000000000000000000000000000000000 PUSH1 0x0 MSTORE PUSH1 0x41 PUSH1 0x4 MSTORE PUSH1 0x24 PUSH1 0x0 REVERT JUMPDEST PUSH3 0x1CF DUP3 PUSH3 0x184 JUMP JUMPDEST DUP2 ADD DUP2 DUP2 LT PUSH8 0xFFFFFFFFFFFFFFFF DUP3 GT OR ISZERO PUSH3 0x1F1 JUMPI PUSH3 0x1F0 PUSH3 0x195 JUMP JUMPDEST JUMPDEST DUP1 PUSH1 0x40 MSTORE POP POP POP JUMP JUMPDEST PUSH1 0x0 PUSH3 0x206 PUSH3 0x166 JUMP JUMPDEST SWAP1 POP PUSH3 0x214 DUP3 DUP3 PUSH3 0x1C4 JUMP JUMPDEST SWAP2 SWAP1 POP JUMP JUMPDEST PUSH1 0x0 PUSH8 0xFFFFFFFFFFFFFFFF DUP3 GT ISZERO PUSH3 0x237 JUMPI PUSH3 0x236 PUSH3 0x195 JUMP JUMPDEST JUMPDEST PUSH3 0x242 DUP3 PUSH3 0x184 JUMP JUMPDEST SWAP1 POP PUSH1 0x20 DUP2 ADD SWAP1 POP SWAP2 SWAP1 POP JUMP JUMPDEST PUSH1 0x0 JUMPDEST DUP4 DUP2 LT ISZERO PUSH3 0x26F JUMPI DUP1 DUP3 ADD MLOAD DUP2 DUP5 ADD MSTORE PUSH1 0x20 DUP2 ADD SWAP1 POP PUSH3 0x252 JUMP JUMPDEST DUP4 DUP2 GT ISZERO PUSH3 0x27F JUMPI PUSH1 0x0 DUP5 DUP5 ADD MSTORE JUMPDEST POP POP POP POP JUMP JUMPDEST PUSH1 0x0 PUSH3 0x29C PUSH3 0x296 DUP5 PUSH3 0x219 JUMP JUMPDEST PUSH3 0x1FA JUMP JUMPDEST SWAP1 POP DUP3 DUP2 MSTORE PUSH1 0x20 DUP2 ADD DUP5 DUP5 DUP5 ADD GT ISZERO PUSH3 0x2BB JUMPI PUSH3 0x2BA PUSH3 0x17F JUMP JUMPDEST JUMPDEST PUSH3 0x2C8 DUP5 DUP3 DUP6 PUSH3 0x24F JUMP JUMPDEST POP SWAP4 SWAP3 POP POP POP JUMP JUMPDEST PUSH1 0x0 DUP3 PUSH1 0x1F DUP4 ADD SLT PUSH3 0x2E8 JUMPI PUSH3 0x2E7 PUSH3 0x17A JUMP JUMPDEST JUMPDEST DUP2 MLOAD PUSH3 0x2FA DUP5 DUP3 PUSH1 0x20 DUP7 ADD PUSH3 0x285 JUMP JUMPDEST SWAP2 POP POP SWAP3 SWAP2 POP POP JUMP JUMPDEST PUSH1 0x0 DUP1 PUSH1 0x40 DUP4 DUP6 SUB SLT ISZERO PUSH3 0x31D JUMPI PUSH3 0x31C PUSH3 0x170 JUMP JUMPDEST JUMPDEST PUSH1 0x0 DUP4 ADD MLOAD PUSH8 0xFFFFFFFFFFFFFFFF DUP2 GT ISZERO PUSH3 0x33E JUMPI PUSH3 0x33D PUSH3 0x175 JUMP JUMPDEST JUMPDEST PUSH3 0x34C DUP6 DUP3 DUP7 ADD PUSH3 0x2D0 JUMP JUMPDEST SWAP3 POP POP PUSH1 0x20 DUP4 ADD MLOAD PUSH8 0xFFFFFFFFFFFFFFFF DUP2 GT ISZERO PUSH3 0x370 JUMPI PUSH3 0x36F PUSH3 0x175 JUMP JUMPDEST JUMPDEST PUSH3 0x37E DUP6 DUP3 DUP7 ADD PUSH3 0x2D0 JUMP JUMPDEST SWAP2 POP POP SWAP3 POP SWAP3 SWAP1 POP JUMP JUMPDEST PUSH32 0x4E487B7100000000000000000000000000000000000000000000000000000000 PUSH1 0x0 MSTORE PUSH1 0x22 PUSH1 0x4 MSTORE PUSH1 0x24 PUSH1 0x0 REVERT JUMPDEST PUSH1 0x0 PUSH1 0x2 DUP3 DIV SWAP1 POP PUSH1 0x1 DUP3 AND DUP1 PUSH3 0x3D0 JUMPI PUSH1 0x7F DUP3 AND SWAP2 POP JUMPDEST PUSH1 0x20 DUP3 LT DUP2 EQ ISZERO PUSH3 0x3E7 JUMPI PUSH3 0x3E6 PUSH3 0x388 JUMP JUMPDEST JUMPDEST POP SWAP2 SWAP1 POP JUMP JUMPDEST PUSH2 0x1BA2 DUP1 PUSH3 0x3FD PUSH1 0x0 CODECOPY PUSH1 0x0 RETURN INVALID PUSH1 0x80 PUSH1 0x40 MSTORE CALLVALUE DUP1 ISZERO PUSH2 0x10 JUMPI PUSH1 0x0 DUP1 REVERT JUMPDEST POP PUSH1 0x4 CALLDATASIZE LT PUSH2 0xEA JUMPI PUSH1 0x0 CALLDATALOAD PUSH1 0xE0 SHR DUP1 PUSH4 0x42966C68 GT PUSH2 0x8C JUMPI DUP1 PUSH4 0x95D89B41 GT PUSH2 0x66 JUMPI DUP1 PUSH4 0x95D89B41 EQ PUSH2 0x25D JUMPI DUP1 PUSH4 0xA457C2D7 EQ PUSH2 0x27B JUMPI DUP1 PUSH4 0xA9059CBB EQ PUSH2 0x2AB JUMPI DUP1 PUSH4 0xDD62ED3E EQ PUSH2 0x2DB JUMPI PUSH2 0xEA JUMP JUMPDEST DUP1 PUSH4 0x42966C68 EQ PUSH2 0x1F5 JUMPI DUP1 PUSH4 0x662E4EE4 EQ PUSH2 0x211 JUMPI DUP1 PUSH4 0x70A08231 EQ PUSH2 0x22D JUMPI PUSH2 0xEA JUMP JUMPDEST DUP1 PUSH4 0x23B872DD GT PUSH2 0xC8 JUMPI DUP1 PUSH4 0x23B872DD EQ PUSH2 0x15B JUMPI DUP1 PUSH4 0x313CE567 EQ PUSH2 0x18B JUMPI DUP1 PUSH4 0x39509351 EQ PUSH2 0x1A9 JUMPI DUP1 PUSH4 0x40C10F19 EQ PUSH2 0x1D9 JUMPI PUSH2 0xEA JUMP JUMPDEST DUP1 PUSH4 0x6FDDE03 EQ PUSH2 0xEF JUMPI DUP1 PUSH4 0x95EA7B3 EQ PUSH2 0x10D JUMPI DUP1 PUSH4 0x18160DDD EQ PUSH2 0x13D JUMPI JUMPDEST PUSH1 0x0 DUP1 REVERT JUMPDEST PUSH2 0xF7 PUSH2 0x30B JUMP JUMPDEST PUSH1 0x40 MLOAD PUSH2 0x104 SWAP2 SWAP1 PUSH2 0x10E9 JUMP JUMPDEST PUSH1 0x40 MLOAD DUP1 SWAP2 SUB SWAP1 RETURN JUMPDEST PUSH2 0x127 PUSH1 0x4 DUP1 CALLDATASIZE SUB DUP2 ADD SWAP1 PUSH2 0x122 SWAP2 SWAP1 PUSH2 0x11A4 JUMP JUMPDEST PUSH2 0x39D JUMP JUMPDEST PUSH1 0x40 MLOAD PUSH2 0x134 SWAP2 SWAP1 PUSH2 0x11FF JUMP JUMPDEST PUSH1 0x40 MLOAD DUP1 SWAP2 SUB SWAP1 RETURN JUMPDEST PUSH2 0x145 PUSH2 0x3C0 JUMP JUMPDEST PUSH1 0x40 MLOAD PUSH2 0x152 SWAP2 SWAP1 PUSH2 0x1229 JUMP JUMPDEST PUSH1 0x40 MLOAD DUP1 SWAP2 SUB SWAP1 RETURN JUMPDEST PUSH2 0x175 PUSH1 0x4 DUP1 CALLDATASIZE SUB DUP2 ADD SWAP1 PUSH2 0x170 SWAP2 SWAP1 PUSH2 0x1244 JUMP JUMPDEST PUSH2 0x3CA JUMP JUMPDEST PUSH1 0x40 MLOAD PUSH2 0x182 SWAP2 SWAP1 PUSH2 0x11FF JUMP JUMPDEST PUSH1 0x40 MLOAD DUP1 SWAP2 SUB SWAP1 RETURN JUMPDEST PUSH2 0x193 PUSH2 0x3F9 JUMP JUMPDEST PUSH1 0x40 MLOAD PUSH2 0x1A0 SWAP2 SWAP1 PUSH2 0x12B3 JUMP JUMPDEST PUSH1 0x40 MLOAD DUP1 SWAP2 SUB SWAP1 RETURN JUMPDEST PUSH2 0x1C3 PUSH1 0x4 DUP1 CALLDATASIZE SUB DUP2 ADD SWAP1 PUSH2 0x1BE SWAP2 SWAP1 PUSH2 0x11A4 JUMP JUMPDEST PUSH2 0x402 JUMP JUMPDEST PUSH1 0x40 MLOAD PUSH2 0x1D0 SWAP2 SWAP1 PUSH2 0x11FF JUMP JUMPDEST PUSH1 0x40 MLOAD DUP1 SWAP2 SUB SWAP1 RETURN JUMPDEST PUSH2 0x1F3 PUSH1 0x4 DUP1 CALLDATASIZE SUB DUP2 ADD SWAP1 PUSH2 0x1EE SWAP2 SWAP1 PUSH2 0x11A4 JUMP JUMPDEST PUSH2 0x439 JUMP JUMPDEST STOP JUMPDEST PUSH2 0x20F PUSH1 0x4 DUP1 CALLDATASIZE SUB DUP2 ADD SWAP1 PUSH2 0x20A SWAP2 SWAP1 PUSH2 0x12CE JUMP JUMPDEST PUSH2 0x4D7 JUMP JUMPDEST STOP JUMPDEST PUSH2 0x22B PUSH1 0x4 DUP1 CALLDATASIZE SUB DUP2 ADD SWAP1 PUSH2 0x226 SWAP2 SWAP1 PUSH2 0x12FB JUMP JUMPDEST PUSH2 0x57B JUMP JUMPDEST STOP JUMPDEST PUSH2 0x247 PUSH1 0x4 DUP1 CALLDATASIZE SUB DUP2 ADD SWAP1 PUSH2 0x242 SWAP2 SWAP1 PUSH2 0x12FB JUMP JUMPDEST PUSH2 0x64F JUMP JUMPDEST PUSH1 0x40 MLOAD PUSH2 0x254 SWAP2 SWAP1 PUSH2 0x1229 JUMP JUMPDEST PUSH1 0x40 MLOAD DUP1 SWAP2 SUB SWAP1 RETURN JUMPDEST PUSH2 0x265 PUSH2 0x697 JUMP JUMPDEST PUSH1 0x40 MLOAD PUSH2 0x272 SWAP2 SWAP1 PUSH2 0x10E9 JUMP JUMPDEST PUSH1 0x40 MLOAD DUP1 SWAP2 SUB SWAP1 RETURN JUMPDEST PUSH2 0x295 PUSH1 0x4 DUP1 CALLDATASIZE SUB DUP2 ADD SWAP1 PUSH2 0x290 SWAP2 SWAP1 PUSH2 0x11A4 JUMP JUMPDEST PUSH2 0x729 JUMP JUMPDEST PUSH1 0x40 MLOAD PUSH2 0x2A2 SWAP2 SWAP1 PUSH2 0x11FF JUMP JUMPDEST PUSH1 0x40 MLOAD DUP1 SWAP2 SUB SWAP1 RETURN JUMPDEST PUSH2 0x2C5 PUSH1 0x4 DUP1 CALLDATASIZE SUB DUP2 ADD SWAP1 PUSH2 0x2C0 SWAP2 SWAP1 PUSH2 0x11A4 JUMP JUMPDEST PUSH2 0x7A0 JUMP JUMPDEST PUSH1 0x40 MLOAD PUSH2 0x2D2 SWAP2 SWAP1 PUSH2 0x11FF JUMP JUMPDEST PUSH1 0x40 MLOAD DUP1 SWAP2 SUB SWAP1 RETURN JUMPDEST PUSH2 0x2F5 PUSH1 0x4 DUP1 CALLDATASIZE SUB DUP2 ADD SWAP1 PUSH2 0x2F0 SWAP2 SWAP1 PUSH2 0x1328 JUMP JUMPDEST PUSH2 0x7C3 JUMP JUMPDEST PUSH1 0x40 MLOAD PUSH2 0x302 SWAP2 SWAP1 PUSH2 0x1229 JUMP JUMPDEST PUSH1 0x40 MLOAD DUP1 SWAP2 SUB SWAP1 RETURN JUMPDEST PUSH1 0x60 PUSH1 0x3 DUP1 SLOAD PUSH2 0x31A SWAP1 PUSH2 0x1397 JUMP JUMPDEST DUP1 PUSH1 0x1F ADD PUSH1 0x20 DUP1 SWAP2 DIV MUL PUSH1 0x20 ADD PUSH1 0x40 MLOAD SWAP1 DUP2 ADD PUSH1 0x40 MSTORE DUP1 SWAP3 SWAP2 SWAP1 DUP2 DUP2 MSTORE PUSH1 0x20 ADD DUP3 DUP1 SLOAD PUSH2 0x346 SWAP1 PUSH2 0x1397 JUMP JUMPDEST DUP1 ISZERO PUSH2 0x393 JUMPI DUP1 PUSH1 0x1F LT PUSH2 0x368 JUMPI PUSH2 0x100 DUP1 DUP4 SLOAD DIV MUL DUP4 MSTORE SWAP2 PUSH1 0x20 ADD SWAP2 PUSH2 0x393 JUMP JUMPDEST DUP3 ADD SWAP2 SWAP1 PUSH1 0x0 MSTORE PUSH1 0x20 PUSH1 0x0 KECCAK256 SWAP1 JUMPDEST DUP2 SLOAD DUP2 MSTORE SWAP1 PUSH1 0x1 ADD SWAP1 PUSH1 0x20 ADD DUP1 DUP4 GT PUSH2 0x376 JUMPI DUP3 SWAP1 SUB PUSH1 0x1F AND DUP3 ADD SWAP2 JUMPDEST POP POP POP POP POP SWAP1 POP SWAP1 JUMP JUMPDEST PUSH1 0x0 DUP1 PUSH2 0x3A8 PUSH2 0x84A JUMP JUMPDEST SWAP1 POP PUSH2 0x3B5 DUP2 DUP6 DUP6 PUSH2 0x852 JUMP JUMPDEST PUSH1 0x1 SWAP2 POP POP SWAP3 SWAP2 POP POP JUMP JUMPDEST PUSH1 0x0 PUSH1 0x2 SLOAD SWAP1 POP SWAP1 JUMP JUMPDEST PUSH1 0x0 DUP1 PUSH2 0x3D5 PUSH2 0x84A JUMP JUMPDEST SWAP1 POP PUSH2 0x3E2 DUP6 DUP3 DUP6 PUSH2 0xA1D JUMP JUMPDEST PUSH2 0x3ED DUP6 DUP6 DUP6 PUSH2 0xAA9 JUMP JUMPDEST PUSH1 0x1 SWAP2 POP POP SWAP4 SWAP3 POP POP POP JUMP JUMPDEST PUSH1 0x0 PUSH1 0x12 SWAP1 POP SWAP1 JUMP JUMPDEST PUSH1 0x0 DUP1 PUSH2 0x40D PUSH2 0x84A JUMP JUMPDEST SWAP1 POP PUSH2 0x42E DUP2 DUP6 DUP6 PUSH2 0x41F DUP6 DUP10 PUSH2 0x7C3 JUMP JUMPDEST PUSH2 0x429 SWAP2 SWAP1 PUSH2 0x13F8 JUMP JUMPDEST PUSH2 0x852 JUMP JUMPDEST PUSH1 0x1 SWAP2 POP POP SWAP3 SWAP2 POP POP JUMP JUMPDEST PUSH1 0x5 PUSH1 0x0 SWAP1 SLOAD SWAP1 PUSH2 0x100 EXP SWAP1 DIV PUSH20 0xFFFFFFFFFFFFFFFFFFFFFFFFFFFFFFFFFFFFFFFF AND PUSH20 0xFFFFFFFFFFFFFFFFFFFFFFFFFFFFFFFFFFFFFFFF AND CALLER PUSH20 0xFFFFFFFFFFFFFFFFFFFFFFFFFFFFFFFFFFFFFFFF AND EQ PUSH2 0x4C9 JUMPI PUSH1 0x40 MLOAD PUSH32 0x8C379A000000000000000000000000000000000000000000000000000000000 DUP2 MSTORE PUSH1 0x4 ADD PUSH2 0x4C0 SWAP1 PUSH2 0x14C0 JUMP JUMPDEST PUSH1 0x40 MLOAD DUP1 SWAP2 SUB SWAP1 REVERT JUMPDEST PUSH2 0x4D3 DUP3 DUP3 PUSH2 0xD21 JUMP JUMPDEST POP POP JUMP JUMPDEST PUSH1 0x5 PUSH1 0x0 SWAP1 SLOAD SWAP1 PUSH2 0x100 EXP SWAP1 DIV PUSH20 0xFFFFFFFFFFFFFFFFFFFFFFFFFFFFFFFFFFFFFFFF AND PUSH20 0xFFFFFFFFFFFFFFFFFFFFFFFFFFFFFFFFFFFFFFFF AND CALLER PUSH20 0xFFFFFFFFFFFFFFFFFFFFFFFFFFFFFFFFFFFFFFFF AND EQ PUSH2 0x567 JUMPI PUSH1 0x40 MLOAD PUSH32 0x8C379A000000000000000000000000000000000000000000000000000000000 DUP2 MSTORE PUSH1 0x4 ADD PUSH2 0x55E SWAP1 PUSH2 0x1552 JUMP JUMPDEST PUSH1 0x40 MLOAD DUP1 SWAP2 SUB SWAP1 REVERT JUMPDEST PUSH2 0x578 PUSH2 0x572 PUSH2 0x84A JUMP JUMPDEST DUP3 PUSH2 0xE78 JUMP JUMPDEST POP JUMP JUMPDEST PUSH1 0x5 PUSH1 0x0 SWAP1 SLOAD SWAP1 PUSH2 0x100 EXP SWAP1 DIV PUSH20 0xFFFFFFFFFFFFFFFFFFFFFFFFFFFFFFFFFFFFFFFF AND PUSH20 0xFFFFFFFFFFFFFFFFFFFFFFFFFFFFFFFFFFFFFFFF AND CALLER PUSH20 0xFFFFFFFFFFFFFFFFFFFFFFFFFFFFFFFFFFFFFFFF AND EQ PUSH2 0x60B JUMPI PUSH1 0x40 MLOAD PUSH32 0x8C379A000000000000000000000000000000000000000000000000000000000 DUP2 MSTORE PUSH1 0x4 ADD PUSH2 0x602 SWAP1 PUSH2 0x15E4 JUMP JUMPDEST PUSH1 0x40 MLOAD DUP1 SWAP2 SUB SWAP1 REVERT JUMPDEST DUP1 PUSH1 0x5 PUSH1 0x0 PUSH2 0x100 EXP DUP2 SLOAD DUP2 PUSH20 0xFFFFFFFFFFFFFFFFFFFFFFFFFFFFFFFFFFFFFFFF MUL NOT AND SWAP1 DUP4 PUSH20 0xFFFFFFFFFFFFFFFFFFFFFFFFFFFFFFFFFFFFFFFF AND MUL OR SWAP1 SSTORE POP POP JUMP JUMPDEST PUSH1 0x0 DUP1 PUSH1 0x0 DUP4 PUSH20 0xFFFFFFFFFFFFFFFFFFFFFFFFFFFFFFFFFFFFFFFF AND PUSH20 0xFFFFFFFFFFFFFFFFFFFFFFFFFFFFFFFFFFFFFFFF AND DUP2 MSTORE PUSH1 0x20 ADD SWAP1 DUP2 MSTORE PUSH1 0x20 ADD PUSH1 0x0 KECCAK256 SLOAD SWAP1 POP SWAP2 SWAP1 POP JUMP JUMPDEST PUSH1 0x60 PUSH1 0x4 DUP1 SLOAD PUSH2 0x6A6 SWAP1 PUSH2 0x1397 JUMP JUMPDEST DUP1 PUSH1 0x1F ADD PUSH1 0x20 DUP1 SWAP2 DIV MUL PUSH1 0x20 ADD PUSH1 0x40 MLOAD SWAP1 DUP2 ADD PUSH1 0x40 MSTORE DUP1 SWAP3 SWAP2 SWAP1 DUP2 DUP2 MSTORE PUSH1 0x20 ADD DUP3 DUP1 SLOAD PUSH2 0x6D2 SWAP1 PUSH2 0x1397 JUMP JUMPDEST DUP1 ISZERO PUSH2 0x71F JUMPI DUP1 PUSH1 0x1F LT PUSH2 0x6F4 JUMPI PUSH2 0x100 DUP1 DUP4 SLOAD DIV MUL DUP4 MSTORE SWAP2 PUSH1 0x20 ADD SWAP2 PUSH2 0x71F JUMP JUMPDEST DUP3 ADD SWAP2 SWAP1 PUSH1 0x0 MSTORE PUSH1 0x20 PUSH1 0x0 KECCAK256 SWAP1 JUMPDEST DUP2 SLOAD DUP2 MSTORE SWAP1 PUSH1 0x1 ADD SWAP1 PUSH1 0x20 ADD DUP1 DUP4 GT PUSH2 0x702 JUMPI DUP3 SWAP1 SUB PUSH1 0x1F AND DUP3 ADD SWAP2 JUMPDEST POP POP POP POP POP SWAP1 POP SWAP1 JUMP JUMPDEST PUSH1 0x0 DUP1 PUSH2 0x734 PUSH2 0x84A JUMP JUMPDEST SWAP1 POP PUSH1 0x0 PUSH2 0x742 DUP3 DUP7 PUSH2 0x7C3 JUMP JUMPDEST SWAP1 POP DUP4 DUP2 LT ISZERO PUSH2 0x787 JUMPI PUSH1 0x40 MLOAD PUSH32 0x8C379A000000000000000000000000000000000000000000000000000000000 DUP2 MSTORE PUSH1 0x4 ADD PUSH2 0x77E SWAP1 PUSH2 0x1676 JUMP JUMPDEST PUSH1 0x40 MLOAD DUP1 SWAP2 SUB SWAP1 REVERT JUMPDEST PUSH2 0x794 DUP3 DUP7 DUP7 DUP5 SUB PUSH2 0x852 JUMP JUMPDEST PUSH1 0x1 SWAP3 POP POP POP SWAP3 SWAP2 POP POP JUMP JUMPDEST PUSH1 0x0 DUP1 PUSH2 0x7AB PUSH2 0x84A JUMP JUMPDEST SWAP1 POP PUSH2 0x7B8 DUP2 DUP6 DUP6 PUSH2 0xAA9 JUMP JUMPDEST PUSH1 0x1 SWAP2 POP POP SWAP3 SWAP2 POP POP JUMP JUMPDEST PUSH1 0x0 PUSH1 0x1 PUSH1 0x0 DUP5 PUSH20 0xFFFFFFFFFFFFFFFFFFFFFFFFFFFFFFFFFFFFFFFF AND PUSH20 0xFFFFFFFFFFFFFFFFFFFFFFFFFFFFFFFFFFFFFFFF AND DUP2 MSTORE PUSH1 0x20 ADD SWAP1 DUP2 MSTORE PUSH1 0x20 ADD PUSH1 0x0 KECCAK256 PUSH1 0x0 DUP4 PUSH20 0xFFFFFFFFFFFFFFFFFFFFFFFFFFFFFFFFFFFFFFFF AND PUSH20 0xFFFFFFFFFFFFFFFFFFFFFFFFFFFFFFFFFFFFFFFF AND DUP2 MSTORE PUSH1 0x20 ADD SWAP1 DUP2 MSTORE PUSH1 0x20 ADD PUSH1 0x0 KECCAK256 SLOAD SWAP1 POP SWAP3 SWAP2 POP POP JUMP JUMPDEST PUSH1 0x0 CALLER SWAP1 POP SWAP1 JUMP JUMPDEST PUSH1 0x0 PUSH20 0xFFFFFFFFFFFFFFFFFFFFFFFFFFFFFFFFFFFFFFFF AND DUP4 PUSH20 0xFFFFFFFFFFFFFFFFFFFFFFFFFFFFFFFFFFFFFFFF AND EQ ISZERO PUSH2 0x8C2 JUMPI PUSH1 0x40 MLOAD PUSH32 0x8C379A000000000000000000000000000000000000000000000000000000000 DUP2 MSTORE PUSH1 0x4 ADD PUSH2 0x8B9 SWAP1 PUSH2 0x1708 JUMP JUMPDEST PUSH1 0x40 MLOAD DUP1 SWAP2 SUB SWAP1 REVERT JUMPDEST PUSH1 0x0 PUSH20 0xFFFFFFFFFFFFFFFFFFFFFFFFFFFFFFFFFFFFFFFF AND DUP3 PUSH20 0xFFFFFFFFFFFFFFFFFFFFFFFFFFFFFFFFFFFFFFFF AND EQ ISZERO PUSH2 0x932 JUMPI PUSH1 0x40 MLOAD PUSH32 0x8C379A000000000000000000000000000000000000000000000000000000000 DUP2 MSTORE PUSH1 0x4 ADD PUSH2 0x929 SWAP1 PUSH2 0x179A JUMP JUMPDEST PUSH1 0x40 MLOAD DUP1 SWAP2 SUB SWAP1 REVERT JUMPDEST DUP1 PUSH1 0x1 PUSH1 0x0 DUP6 PUSH20 0xFFFFFFFFFFFFFFFFFFFFFFFFFFFFFFFFFFFFFFFF AND PUSH20 0xFFFFFFFFFFFFFFFFFFFFFFFFFFFFFFFFFFFFFFFF AND DUP2 MSTORE PUSH1 0x20 ADD SWAP1 DUP2 MSTORE PUSH1 0x20 ADD PUSH1 0x0 KECCAK256 PUSH1 0x0 DUP5 PUSH20 0xFFFFFFFFFFFFFFFFFFFFFFFFFFFFFFFFFFFFFFFF AND PUSH20 0xFFFFFFFFFFFFFFFFFFFFFFFFFFFFFFFFFFFFFFFF AND DUP2 MSTORE PUSH1 0x20 ADD SWAP1 DUP2 MSTORE PUSH1 0x20 ADD PUSH1 0x0 KECCAK256 DUP2 SWAP1 SSTORE POP DUP2 PUSH20 0xFFFFFFFFFFFFFFFFFFFFFFFFFFFFFFFFFFFFFFFF AND DUP4 PUSH20 0xFFFFFFFFFFFFFFFFFFFFFFFFFFFFFFFFFFFFFFFF AND PUSH32 0x8C5BE1E5EBEC7D5BD14F71427D1E84F3DD0314C0F7B2291E5B200AC8C7C3B925 DUP4 PUSH1 0x40 MLOAD PUSH2 0xA10 SWAP2 SWAP1 PUSH2 0x1229 JUMP JUMPDEST PUSH1 0x40 MLOAD DUP1 SWAP2 SUB SWAP1 LOG3 POP POP POP JUMP JUMPDEST PUSH1 0x0 PUSH2 0xA29 DUP5 DUP5 PUSH2 0x7C3 JUMP JUMPDEST SWAP1 POP PUSH32 0xFFFFFFFFFFFFFFFFFFFFFFFFFFFFFFFFFFFFFFFFFFFFFFFFFFFFFFFFFFFFFFFF DUP2 EQ PUSH2 0xAA3 JUMPI DUP2 DUP2 LT ISZERO PUSH2 0xA95 JUMPI PUSH1 0x40 MLOAD PUSH32 0x8C379A000000000000000000000000000000000000000000000000000000000 DUP2 MSTORE PUSH1 0x4 ADD PUSH2 0xA8C SWAP1 PUSH2 0x1806 JUMP JUMPDEST PUSH1 0x40 MLOAD DUP1 SWAP2 SUB SWAP1 REVERT JUMPDEST PUSH2 0xAA2 DUP5 DUP5 DUP5 DUP5 SUB PUSH2 0x852 JUMP JUMPDEST JUMPDEST POP POP POP POP JUMP JUMPDEST PUSH1 0x0 PUSH20 0xFFFFFFFFFFFFFFFFFFFFFFFFFFFFFFFFFFFFFFFF AND DUP4 PUSH20 0xFFFFFFFFFFFFFFFFFFFFFFFFFFFFFFFFFFFFFFFF AND EQ ISZERO PUSH2 0xB19 JUMPI PUSH1 0x40 MLOAD PUSH32 0x8C379A000000000000000000000000000000000000000000000000000000000 DUP2 MSTORE PUSH1 0x4 ADD PUSH2 0xB10 SWAP1 PUSH2 0x1898 JUMP JUMPDEST PUSH1 0x40 MLOAD DUP1 SWAP2 SUB SWAP1 REVERT JUMPDEST PUSH1 0x0 PUSH20 0xFFFFFFFFFFFFFFFFFFFFFFFFFFFFFFFFFFFFFFFF AND DUP3 PUSH20 0xFFFFFFFFFFFFFFFFFFFFFFFFFFFFFFFFFFFFFFFF AND EQ ISZERO PUSH2 0xB89 JUMPI PUSH1 0x40 MLOAD PUSH32 0x8C379A000000000000000000000000000000000000000000000000000000000 DUP2 MSTORE PUSH1 0x4 ADD PUSH2 0xB80 SWAP1 PUSH2 0x192A JUMP JUMPDEST PUSH1 0x40 MLOAD DUP1 SWAP2 SUB SWAP1 REVERT JUMPDEST PUSH2 0xB94 DUP4 DUP4 DUP4 PUSH2 0x1046 JUMP JUMPDEST PUSH1 0x0 DUP1 PUSH1 0x0 DUP6 PUSH20 0xFFFFFFFFFFFFFFFFFFFFFFFFFFFFFFFFFFFFFFFF AND PUSH20 0xFFFFFFFFFFFFFFFFFFFFFFFFFFFFFFFFFFFFFFFF AND DUP2 MSTORE PUSH1 0x20 ADD SWAP1 DUP2 MSTORE PUSH1 0x20 ADD PUSH1 0x0 KECCAK256 SLOAD SWAP1 POP DUP2 DUP2 LT ISZERO PUSH2 0xC1A JUMPI PUSH1 0x40 MLOAD PUSH32 0x8C379A000000000000000000000000000000000000000000000000000000000 DUP2 MSTORE PUSH1 0x4 ADD PUSH2 0xC11 SWAP1 PUSH2 0x19BC JUMP JUMPDEST PUSH1 0x40 MLOAD DUP1 SWAP2 SUB SWAP1 REVERT JUMPDEST DUP2 DUP2 SUB PUSH1 0x0 DUP1 DUP7 PUSH20 0xFFFFFFFFFFFFFFFFFFFFFFFFFFFFFFFFFFFFFFFF AND PUSH20 0xFFFFFFFFFFFFFFFFFFFFFFFFFFFFFFFFFFFFFFFF AND DUP2 MSTORE PUSH1 0x20 ADD SWAP1 DUP2 MSTORE PUSH1 0x20 ADD PUSH1 0x0 KECCAK256 DUP2 SWAP1 SSTORE POP DUP2 PUSH1 0x0 DUP1 DUP6 PUSH20 0xFFFFFFFFFFFFFFFFFFFFFFFFFFFFFFFFFFFFFFFF AND PUSH20 0xFFFFFFFFFFFFFFFFFFFFFFFFFFFFFFFFFFFFFFFF AND DUP2 MSTORE PUSH1 0x20 ADD SWAP1 DUP2 MSTORE PUSH1 0x20 ADD PUSH1 0x0 KECCAK256 PUSH1 0x0 DUP3 DUP3 SLOAD ADD SWAP3 POP POP DUP2 SWAP1 SSTORE POP DUP3 PUSH20 0xFFFFFFFFFFFFFFFFFFFFFFFFFFFFFFFFFFFFFFFF AND DUP5 PUSH20 0xFFFFFFFFFFFFFFFFFFFFFFFFFFFFFFFFFFFFFFFF AND PUSH32 0xDDF252AD1BE2C89B69C2B068FC378DAA952BA7F163C4A11628F55A4DF523B3EF DUP5 PUSH1 0x40 MLOAD PUSH2 0xD08 SWAP2 SWAP1 PUSH2 0x1229 JUMP JUMPDEST PUSH1 0x40 MLOAD DUP1 SWAP2 SUB SWAP1 LOG3 PUSH2 0xD1B DUP5 DUP5 DUP5 PUSH2 0x104B JUMP JUMPDEST POP POP POP POP JUMP JUMPDEST PUSH1 0x0 PUSH20 0xFFFFFFFFFFFFFFFFFFFFFFFFFFFFFFFFFFFFFFFF AND DUP3 PUSH20 0xFFFFFFFFFFFFFFFFFFFFFFFFFFFFFFFFFFFFFFFF AND EQ ISZERO PUSH2 0xD91 JUMPI PUSH1 0x40 MLOAD PUSH32 0x8C379A000000000000000000000000000000000000000000000000000000000 DUP2 MSTORE PUSH1 0x4 ADD PUSH2 0xD88 SWAP1 PUSH2 0x1A28 JUMP JUMPDEST PUSH1 0x40 MLOAD DUP1 SWAP2 SUB SWAP1 REVERT JUMPDEST PUSH2 0xD9D PUSH1 0x0 DUP4 DUP4 PUSH2 0x1046 JUMP JUMPDEST DUP1 PUSH1 0x2 PUSH1 0x0 DUP3 DUP3 SLOAD PUSH2 0xDAF SWAP2 SWAP1 PUSH2 0x13F8 JUMP JUMPDEST SWAP3 POP POP DUP2 SWAP1 SSTORE POP DUP1 PUSH1 0x0 DUP1 DUP5 PUSH20 0xFFFFFFFFFFFFFFFFFFFFFFFFFFFFFFFFFFFFFFFF AND PUSH20 0xFFFFFFFFFFFFFFFFFFFFFFFFFFFFFFFFFFFFFFFF AND DUP2 MSTORE PUSH1 0x20 ADD SWAP1 DUP2 MSTORE PUSH1 0x20 ADD PUSH1 0x0 KECCAK256 PUSH1 0x0 DUP3 DUP3 SLOAD ADD SWAP3 POP POP DUP2 SWAP1 SSTORE POP DUP2 PUSH20 0xFFFFFFFFFFFFFFFFFFFFFFFFFFFFFFFFFFFFFFFF AND PUSH1 0x0 PUSH20 0xFFFFFFFFFFFFFFFFFFFFFFFFFFFFFFFFFFFFFFFF AND PUSH32 0xDDF252AD1BE2C89B69C2B068FC378DAA952BA7F163C4A11628F55A4DF523B3EF DUP4 PUSH1 0x40 MLOAD PUSH2 0xE60 SWAP2 SWAP1 PUSH2 0x1229 JUMP JUMPDEST PUSH1 0x40 MLOAD DUP1 SWAP2 SUB SWAP1 LOG3 PUSH2 0xE74 PUSH1 0x0 DUP4 DUP4 PUSH2 0x104B JUMP JUMPDEST POP POP JUMP JUMPDEST PUSH1 0x0 PUSH20 0xFFFFFFFFFFFFFFFFFFFFFFFFFFFFFFFFFFFFFFFF AND DUP3 PUSH20 0xFFFFFFFFFFFFFFFFFFFFFFFFFFFFFFFFFFFFFFFF AND EQ ISZERO PUSH2 0xEE8 JUMPI PUSH1 0x40 MLOAD PUSH32 0x8C379A000000000000000000000000000000000000000000000000000000000 DUP2 MSTORE PUSH1 0x4 ADD PUSH2 0xEDF SWAP1 PUSH2 0x1ABA JUMP JUMPDEST PUSH1 0x40 MLOAD DUP1 SWAP2 SUB SWAP1 REVERT JUMPDEST PUSH2 0xEF4 DUP3 PUSH1 0x0 DUP4 PUSH2 0x1046 JUMP JUMPDEST PUSH1 0x0 DUP1 PUSH1 0x0 DUP5 PUSH20 0xFFFFFFFFFFFFFFFFFFFFFFFFFFFFFFFFFFFFFFFF AND PUSH20 0xFFFFFFFFFFFFFFFFFFFFFFFFFFFFFFFFFFFFFFFF AND DUP2 MSTORE PUSH1 0x20 ADD SWAP1 DUP2 MSTORE PUSH1 0x20 ADD PUSH1 0x0 KECCAK256 SLOAD SWAP1 POP DUP2 DUP2 LT ISZERO PUSH2 0xF7A JUMPI PUSH1 0x40 MLOAD PUSH32 0x8C379A000000000000000000000000000000000000000000000000000000000 DUP2 MSTORE PUSH1 0x4 ADD PUSH2 0xF71 SWAP1 PUSH2 0x1B4C JUMP JUMPDEST PUSH1 0x40 MLOAD DUP1 SWAP2 SUB SWAP1 REVERT JUMPDEST DUP2 DUP2 SUB PUSH1 0x0 DUP1 DUP6 PUSH20 0xFFFFFFFFFFFFFFFFFFFFFFFFFFFFFFFFFFFFFFFF AND PUSH20 0xFFFFFFFFFFFFFFFFFFFFFFFFFFFFFFFFFFFFFFFF AND DUP2 MSTORE PUSH1 0x20 ADD SWAP1 DUP2 MSTORE PUSH1 0x20 ADD PUSH1 0x0 KECCAK256 DUP2 SWAP1 SSTORE POP DUP2 PUSH1 0x2 PUSH1 0x0 DUP3 DUP3 SLOAD SUB SWAP3 POP POP DUP2 SWAP1 SSTORE POP PUSH1 0x0 PUSH20 0xFFFFFFFFFFFFFFFFFFFFFFFFFFFFFFFFFFFFFFFF AND DUP4 PUSH20 0xFFFFFFFFFFFFFFFFFFFFFFFFFFFFFFFFFFFFFFFF AND PUSH32 0xDDF252AD1BE2C89B69C2B068FC378DAA952BA7F163C4A11628F55A4DF523B3EF DUP5 PUSH1 0x40 MLOAD PUSH2 0x102D SWAP2 SWAP1 PUSH2 0x1229 JUMP JUMPDEST PUSH1 0x40 MLOAD DUP1 SWAP2 SUB SWAP1 LOG3 PUSH2 0x1041 DUP4 PUSH1 0x0 DUP5 PUSH2 0x104B JUMP JUMPDEST POP POP POP JUMP JUMPDEST POP POP POP JUMP JUMPDEST POP POP POP JUMP JUMPDEST PUSH1 0x0 DUP2 MLOAD SWAP1 POP SWAP2 SWAP1 POP JUMP JUMPDEST PUSH1 0x0 DUP3 DUP3 MSTORE PUSH1 0x20 DUP3 ADD SWAP1 POP SWAP3 SWAP2 POP POP JUMP JUMPDEST PUSH1 0x0 JUMPDEST DUP4 DUP2 LT ISZERO PUSH2 0x108A JUMPI DUP1 DUP3 ADD MLOAD DUP2 DUP5 ADD MSTORE PUSH1 0x20 DUP2 ADD SWAP1 POP PUSH2 0x106F JUMP JUMPDEST DUP4 DUP2 GT ISZERO PUSH2 0x1099 JUMPI PUSH1 0x0 DUP5 DUP5 ADD MSTORE JUMPDEST POP POP POP POP JUMP JUMPDEST PUSH1 0x0 PUSH1 0x1F NOT PUSH1 0x1F DUP4 ADD AND SWAP1 POP SWAP2 SWAP1 POP JUMP JUMPDEST PUSH1 0x0 PUSH2 0x10BB DUP3 PUSH2 0x1050 JUMP JUMPDEST PUSH2 0x10C5 DUP2 DUP6 PUSH2 0x105B JUMP JUMPDEST SWAP4 POP PUSH2 0x10D5 DUP2 DUP6 PUSH1 0x20 DUP7 ADD PUSH2 0x106C JUMP JUMPDEST PUSH2 0x10DE DUP2 PUSH2 0x109F JUMP JUMPDEST DUP5 ADD SWAP2 POP POP SWAP3 SWAP2 POP POP JUMP JUMPDEST PUSH1 0x0 PUSH1 0x20 DUP3 ADD SWAP1 POP DUP2 DUP2 SUB PUSH1 0x0 DUP4 ADD MSTORE PUSH2 0x1103 DUP2 DUP5 PUSH2 0x10B0 JUMP JUMPDEST SWAP1 POP SWAP3 SWAP2 POP POP JUMP JUMPDEST PUSH1 0x0 DUP1 REVERT JUMPDEST PUSH1 0x0 PUSH20 0xFFFFFFFFFFFFFFFFFFFFFFFFFFFFFFFFFFFFFFFF DUP3 AND SWAP1 POP SWAP2 SWAP1 POP JUMP JUMPDEST PUSH1 0x0 PUSH2 0x113B DUP3 PUSH2 0x1110 JUMP JUMPDEST SWAP1 POP SWAP2 SWAP1 POP JUMP JUMPDEST PUSH2 0x114B DUP2 PUSH2 0x1130 JUMP JUMPDEST DUP2 EQ PUSH2 0x1156 JUMPI PUSH1 0x0 DUP1 REVERT JUMPDEST POP JUMP JUMPDEST PUSH1 0x0 DUP2 CALLDATALOAD SWAP1 POP PUSH2 0x1168 DUP2 PUSH2 0x1142 JUMP JUMPDEST SWAP3 SWAP2 POP POP JUMP JUMPDEST PUSH1 0x0 DUP2 SWAP1 POP SWAP2 SWAP1 POP JUMP JUMPDEST PUSH2 0x1181 DUP2 PUSH2 0x116E JUMP JUMPDEST DUP2 EQ PUSH2 0x118C JUMPI PUSH1 0x0 DUP1 REVERT JUMPDEST POP JUMP JUMPDEST PUSH1 0x0 DUP2 CALLDATALOAD SWAP1 POP PUSH2 0x119E DUP2 PUSH2 0x1178 JUMP JUMPDEST SWAP3 SWAP2 POP POP JUMP JUMPDEST PUSH1 0x0 DUP1 PUSH1 0x40 DUP4 DUP6 SUB SLT ISZERO PUSH2 0x11BB JUMPI PUSH2 0x11BA PUSH2 0x110B JUMP JUMPDEST JUMPDEST PUSH1 0x0 PUSH2 0x11C9 DUP6 DUP3 DUP7 ADD PUSH2 0x1159 JUMP JUMPDEST SWAP3 POP POP PUSH1 0x20 PUSH2 0x11DA DUP6 DUP3 DUP7 ADD PUSH2 0x118F JUMP JUMPDEST SWAP2 POP POP SWAP3 POP SWAP3 SWAP1 POP JUMP JUMPDEST PUSH1 0x0 DUP2 ISZERO ISZERO SWAP1 POP SWAP2 SWAP1 POP JUMP JUMPDEST PUSH2 0x11F9 DUP2 PUSH2 0x11E4 JUMP JUMPDEST DUP3 MSTORE POP POP JUMP JUMPDEST PUSH1 0x0 PUSH1 0x20 DUP3 ADD SWAP1 POP PUSH2 0x1214 PUSH1 0x0 DUP4 ADD DUP5 PUSH2 0x11F0 JUMP JUMPDEST SWAP3 SWAP2 POP POP JUMP JUMPDEST PUSH2 0x1223 DUP2 PUSH2 0x116E JUMP JUMPDEST DUP3 MSTORE POP POP JUMP JUMPDEST PUSH1 0x0 PUSH1 0x20 DUP3 ADD SWAP1 POP PUSH2 0x123E PUSH1 0x0 DUP4 ADD DUP5 PUSH2 0x121A JUMP JUMPDEST SWAP3 SWAP2 POP POP JUMP JUMPDEST PUSH1 0x0 DUP1 PUSH1 0x0 PUSH1 0x60 DUP5 DUP7 SUB SLT ISZERO PUSH2 0x125D JUMPI PUSH2 0x125C PUSH2 0x110B JUMP JUMPDEST JUMPDEST PUSH1 0x0 PUSH2 0x126B DUP7 DUP3 DUP8 ADD PUSH2 0x1159 JUMP JUMPDEST SWAP4 POP POP PUSH1 0x20 PUSH2 0x127C DUP7 DUP3 DUP8 ADD PUSH2 0x1159 JUMP JUMPDEST SWAP3 POP POP PUSH1 0x40 PUSH2 0x128D DUP7 DUP3 DUP8 ADD PUSH2 0x118F JUMP JUMPDEST SWAP2 POP POP SWAP3 POP SWAP3 POP SWAP3 JUMP JUMPDEST PUSH1 0x0 PUSH1 0xFF DUP3 AND SWAP1 POP SWAP2 SWAP1 POP JUMP JUMPDEST PUSH2 0x12AD DUP2 PUSH2 0x1297 JUMP JUMPDEST DUP3 MSTORE POP POP JUMP JUMPDEST PUSH1 0x0 PUSH1 0x20 DUP3 ADD SWAP1 POP PUSH2 0x12C8 PUSH1 0x0 DUP4 ADD DUP5 PUSH2 0x12A4 JUMP JUMPDEST SWAP3 SWAP2 POP POP JUMP JUMPDEST PUSH1 0x0 PUSH1 0x20 DUP3 DUP5 SUB SLT ISZERO PUSH2 0x12E4 JUMPI PUSH2 0x12E3 PUSH2 0x110B JUMP JUMPDEST JUMPDEST PUSH1 0x0 PUSH2 0x12F2 DUP5 DUP3 DUP6 ADD PUSH2 0x118F JUMP JUMPDEST SWAP2 POP POP SWAP3 SWAP2 POP POP JUMP JUMPDEST PUSH1 0x0 PUSH1 0x20 DUP3 DUP5 SUB SLT ISZERO PUSH2 0x1311 JUMPI PUSH2 0x1310 PUSH2 0x110B JUMP JUMPDEST JUMPDEST PUSH1 0x0 PUSH2 0x131F DUP5 DUP3 DUP6 ADD PUSH2 0x1159 JUMP JUMPDEST SWAP2 POP POP SWAP3 SWAP2 POP POP JUMP JUMPDEST PUSH1 0x0 DUP1 PUSH1 0x40 DUP4 DUP6 SUB SLT ISZERO PUSH2 0x133F JUMPI PUSH2 0x133E PUSH2 0x110B JUMP JUMPDEST JUMPDEST PUSH1 0x0 PUSH2 0x134D DUP6 DUP3 DUP7 ADD PUSH2 0x1159 JUMP JUMPDEST SWAP3 POP POP PUSH1 0x20 PUSH2 0x135E DUP6 DUP3 DUP7 ADD PUSH2 0x1159 JUMP JUMPDEST SWAP2 POP POP SWAP3 POP SWAP3 SWAP1 POP JUMP JUMPDEST PUSH32 0x4E487B7100000000000000000000000000000000000000000000000000000000 PUSH1 0x0 MSTORE PUSH1 0x22 PUSH1 0x4 MSTORE PUSH1 0x24 PUSH1 0x0 REVERT JUMPDEST PUSH1 0x0 PUSH1 0x2 DUP3 DIV SWAP1 POP PUSH1 0x1 DUP3 AND DUP1 PUSH2 0x13AF JUMPI PUSH1 0x7F DUP3 AND SWAP2 POP JUMPDEST PUSH1 0x20 DUP3 LT DUP2 EQ ISZERO PUSH2 0x13C3 JUMPI PUSH2 0x13C2 PUSH2 0x1368 JUMP JUMPDEST JUMPDEST POP SWAP2 SWAP1 POP JUMP JUMPDEST PUSH32 0x4E487B7100000000000000000000000000000000000000000000000000000000 PUSH1 0x0 MSTORE PUSH1 0x11 PUSH1 0x4 MSTORE PUSH1 0x24 PUSH1 0x0 REVERT JUMPDEST PUSH1 0x0 PUSH2 0x1403 DUP3 PUSH2 0x116E JUMP JUMPDEST SWAP2 POP PUSH2 0x140E DUP4 PUSH2 0x116E JUMP JUMPDEST SWAP3 POP DUP3 PUSH32 0xFFFFFFFFFFFFFFFFFFFFFFFFFFFFFFFFFFFFFFFFFFFFFFFFFFFFFFFFFFFFFFFF SUB DUP3 GT ISZERO PUSH2 0x1443 JUMPI PUSH2 0x1442 PUSH2 0x13C9 JUMP JUMPDEST JUMPDEST DUP3 DUP3 ADD SWAP1 POP SWAP3 SWAP2 POP POP JUMP JUMPDEST PUSH32 0x4F6E6C792074686520636F6E7472616374206F776E65722063616E204D696E74 PUSH1 0x0 DUP3 ADD MSTORE PUSH32 0x20546F6B656E7300000000000000000000000000000000000000000000000000 PUSH1 0x20 DUP3 ADD MSTORE POP JUMP JUMPDEST PUSH1 0x0 PUSH2 0x14AA PUSH1 0x27 DUP4 PUSH2 0x105B JUMP JUMPDEST SWAP2 POP PUSH2 0x14B5 DUP3 PUSH2 0x144E JUMP JUMPDEST PUSH1 0x40 DUP3 ADD SWAP1 POP SWAP2 SWAP1 POP JUMP JUMPDEST PUSH1 0x0 PUSH1 0x20 DUP3 ADD SWAP1 POP DUP2 DUP2 SUB PUSH1 0x0 DUP4 ADD MSTORE PUSH2 0x14D9 DUP2 PUSH2 0x149D JUMP JUMPDEST SWAP1 POP SWAP2 SWAP1 POP JUMP JUMPDEST PUSH32 0x4F6E6C792074686520636F6E7472616374206F776E65722063616E204275726E PUSH1 0x0 DUP3 ADD MSTORE PUSH32 0x20546F6B656E7300000000000000000000000000000000000000000000000000 PUSH1 0x20 DUP3 ADD MSTORE POP JUMP JUMPDEST PUSH1 0x0 PUSH2 0x153C PUSH1 0x27 DUP4 PUSH2 0x105B JUMP JUMPDEST SWAP2 POP PUSH2 0x1547 DUP3 PUSH2 0x14E0 JUMP JUMPDEST PUSH1 0x40 DUP3 ADD SWAP1 POP SWAP2 SWAP1 POP JUMP JUMPDEST PUSH1 0x0 PUSH1 0x20 DUP3 ADD SWAP1 POP DUP2 DUP2 SUB PUSH1 0x0 DUP4 ADD MSTORE PUSH2 0x156B DUP2 PUSH2 0x152F JUMP JUMPDEST SWAP1 POP SWAP2 SWAP1 POP JUMP JUMPDEST PUSH32 0x4F6E6C792074686520636F6E7472616374206F776E65722063616E2075706461 PUSH1 0x0 DUP3 ADD MSTORE PUSH32 0x746520746865206F776E65720000000000000000000000000000000000000000 PUSH1 0x20 DUP3 ADD MSTORE POP JUMP JUMPDEST PUSH1 0x0 PUSH2 0x15CE PUSH1 0x2C DUP4 PUSH2 0x105B JUMP JUMPDEST SWAP2 POP PUSH2 0x15D9 DUP3 PUSH2 0x1572 JUMP JUMPDEST PUSH1 0x40 DUP3 ADD SWAP1 POP SWAP2 SWAP1 POP JUMP JUMPDEST PUSH1 0x0 PUSH1 0x20 DUP3 ADD SWAP1 POP DUP2 DUP2 SUB PUSH1 0x0 DUP4 ADD MSTORE PUSH2 0x15FD DUP2 PUSH2 0x15C1 JUMP JUMPDEST SWAP1 POP SWAP2 SWAP1 POP JUMP JUMPDEST PUSH32 0x45524332303A2064656372656173656420616C6C6F77616E63652062656C6F77 PUSH1 0x0 DUP3 ADD MSTORE PUSH32 0x207A65726F000000000000000000000000000000000000000000000000000000 PUSH1 0x20 DUP3 ADD MSTORE POP JUMP JUMPDEST PUSH1 0x0 PUSH2 0x1660 PUSH1 0x25 DUP4 PUSH2 0x105B JUMP JUMPDEST SWAP2 POP PUSH2 0x166B DUP3 PUSH2 0x1604 JUMP JUMPDEST PUSH1 0x40 DUP3 ADD SWAP1 POP SWAP2 SWAP1 POP JUMP JUMPDEST PUSH1 0x0 PUSH1 0x20 DUP3 ADD SWAP1 POP DUP2 DUP2 SUB PUSH1 0x0 DUP4 ADD MSTORE PUSH2 0x168F DUP2 PUSH2 0x1653 JUMP JUMPDEST SWAP1 POP SWAP2 SWAP1 POP JUMP JUMPDEST PUSH32 0x45524332303A20617070726F76652066726F6D20746865207A65726F20616464 PUSH1 0x0 DUP3 ADD MSTORE PUSH32 0x7265737300000000000000000000000000000000000000000000000000000000 PUSH1 0x20 DUP3 ADD MSTORE POP JUMP JUMPDEST PUSH1 0x0 PUSH2 0x16F2 PUSH1 0x24 DUP4 PUSH2 0x105B JUMP JUMPDEST SWAP2 POP PUSH2 0x16FD DUP3 PUSH2 0x1696 JUMP JUMPDEST PUSH1 0x40 DUP3 ADD SWAP1 POP SWAP2 SWAP1 POP JUMP JUMPDEST PUSH1 0x0 PUSH1 0x20 DUP3 ADD SWAP1 POP DUP2 DUP2 SUB PUSH1 0x0 DUP4 ADD MSTORE PUSH2 0x1721 DUP2 PUSH2 0x16E5 JUMP JUMPDEST SWAP1 POP SWAP2 SWAP1 POP JUMP JUMPDEST PUSH32 0x45524332303A20617070726F766520746F20746865207A65726F206164647265 PUSH1 0x0 DUP3 ADD MSTORE PUSH32 0x7373000000000000000000000000000000000000000000000000000000000000 PUSH1 0x20 DUP3 ADD MSTORE POP JUMP JUMPDEST PUSH1 0x0 PUSH2 0x1784 PUSH1 0x22 DUP4 PUSH2 0x105B JUMP JUMPDEST SWAP2 POP PUSH2 0x178F DUP3 PUSH2 0x1728 JUMP JUMPDEST PUSH1 0x40 DUP3 ADD SWAP1 POP SWAP2 SWAP1 POP JUMP JUMPDEST PUSH1 0x0 PUSH1 0x20 DUP3 ADD SWAP1 POP DUP2 DUP2 SUB PUSH1 0x0 DUP4 ADD MSTORE PUSH2 0x17B3 DUP2 PUSH2 0x1777 JUMP JUMPDEST SWAP1 POP SWAP2 SWAP1 POP JUMP JUMPDEST PUSH32 0x45524332303A20696E73756666696369656E7420616C6C6F77616E6365000000 PUSH1 0x0 DUP3 ADD MSTORE POP JUMP JUMPDEST PUSH1 0x0 PUSH2 0x17F0 PUSH1 0x1D DUP4 PUSH2 0x105B JUMP JUMPDEST SWAP2 POP PUSH2 0x17FB DUP3 PUSH2 0x17BA JUMP JUMPDEST PUSH1 0x20 DUP3 ADD SWAP1 POP SWAP2 SWAP1 POP JUMP JUMPDEST PUSH1 0x0 PUSH1 0x20 DUP3 ADD SWAP1 POP DUP2 DUP2 SUB PUSH1 0x0 DUP4 ADD MSTORE PUSH2 0x181F DUP2 PUSH2 0x17E3 JUMP JUMPDEST SWAP1 POP SWAP2 SWAP1 POP JUMP JUMPDEST PUSH32 0x45524332303A207472616E736665722066726F6D20746865207A65726F206164 PUSH1 0x0 DUP3 ADD MSTORE PUSH32 0x6472657373000000000000000000000000000000000000000000000000000000 PUSH1 0x20 DUP3 ADD MSTORE POP JUMP JUMPDEST PUSH1 0x0 PUSH2 0x1882 PUSH1 0x25 DUP4 PUSH2 0x105B JUMP JUMPDEST SWAP2 POP PUSH2 0x188D DUP3 PUSH2 0x1826 JUMP JUMPDEST PUSH1 0x40 DUP3 ADD SWAP1 POP SWAP2 SWAP1 POP JUMP JUMPDEST PUSH1 0x0 PUSH1 0x20 DUP3 ADD SWAP1 POP DUP2 DUP2 SUB PUSH1 0x0 DUP4 ADD MSTORE PUSH2 0x18B1 DUP2 PUSH2 0x1875 JUMP JUMPDEST SWAP1 POP SWAP2 SWAP1 POP JUMP JUMPDEST PUSH32 0x45524332303A207472616E7366657220746F20746865207A65726F2061646472 PUSH1 0x0 DUP3 ADD MSTORE PUSH32 0x6573730000000000000000000000000000000000000000000000000000000000 PUSH1 0x20 DUP3 ADD MSTORE POP JUMP JUMPDEST PUSH1 0x0 PUSH2 0x1914 PUSH1 0x23 DUP4 PUSH2 0x105B JUMP JUMPDEST SWAP2 POP PUSH2 0x191F DUP3 PUSH2 0x18B8 JUMP JUMPDEST PUSH1 0x40 DUP3 ADD SWAP1 POP SWAP2 SWAP1 POP JUMP JUMPDEST PUSH1 0x0 PUSH1 0x20 DUP3 ADD SWAP1 POP DUP2 DUP2 SUB PUSH1 0x0 DUP4 ADD MSTORE PUSH2 0x1943 DUP2 PUSH2 0x1907 JUMP JUMPDEST SWAP1 POP SWAP2 SWAP1 POP JUMP JUMPDEST PUSH32 0x45524332303A207472616E7366657220616D6F756E7420657863656564732062 PUSH1 0x0 DUP3 ADD MSTORE PUSH32 0x616C616E63650000000000000000000000000000000000000000000000000000 PUSH1 0x20 DUP3 ADD MSTORE POP JUMP JUMPDEST PUSH1 0x0 PUSH2 0x19A6 PUSH1 0x26 DUP4 PUSH2 0x105B JUMP JUMPDEST SWAP2 POP PUSH2 0x19B1 DUP3 PUSH2 0x194A JUMP JUMPDEST PUSH1 0x40 DUP3 ADD SWAP1 POP SWAP2 SWAP1 POP JUMP JUMPDEST PUSH1 0x0 PUSH1 0x20 DUP3 ADD SWAP1 POP DUP2 DUP2 SUB PUSH1 0x0 DUP4 ADD MSTORE PUSH2 0x19D5 DUP2 PUSH2 0x1999 JUMP JUMPDEST SWAP1 POP SWAP2 SWAP1 POP JUMP JUMPDEST PUSH32 0x45524332303A206D696E7420746F20746865207A65726F206164647265737300 PUSH1 0x0 DUP3 ADD MSTORE POP JUMP JUMPDEST PUSH1 0x0 PUSH2 0x1A12 PUSH1 0x1F DUP4 PUSH2 0x105B JUMP JUMPDEST SWAP2 POP PUSH2 0x1A1D DUP3 PUSH2 0x19DC JUMP JUMPDEST PUSH1 0x20 DUP3 ADD SWAP1 POP SWAP2 SWAP1 POP JUMP JUMPDEST PUSH1 0x0 PUSH1 0x20 DUP3 ADD SWAP1 POP DUP2 DUP2 SUB PUSH1 0x0 DUP4 ADD MSTORE PUSH2 0x1A41 DUP2 PUSH2 0x1A05 JUMP JUMPDEST SWAP1 POP SWAP2 SWAP1 POP JUMP JUMPDEST PUSH32 0x45524332303A206275726E2066726F6D20746865207A65726F20616464726573 PUSH1 0x0 DUP3 ADD MSTORE PUSH32 0x7300000000000000000000000000000000000000000000000000000000000000 PUSH1 0x20 DUP3 ADD MSTORE POP JUMP JUMPDEST PUSH1 0x0 PUSH2 0x1AA4 PUSH1 0x21 DUP4 PUSH2 0x105B JUMP JUMPDEST SWAP2 POP PUSH2 0x1AAF DUP3 PUSH2 0x1A48 JUMP JUMPDEST PUSH1 0x40 DUP3 ADD SWAP1 POP SWAP2 SWAP1 POP JUMP JUMPDEST PUSH1 0x0 PUSH1 0x20 DUP3 ADD SWAP1 POP DUP2 DUP2 SUB PUSH1 0x0 DUP4 ADD MSTORE PUSH2 0x1AD3 DUP2 PUSH2 0x1A97 JUMP JUMPDEST SWAP1 POP SWAP2 SWAP1 POP JUMP JUMPDEST PUSH32 0x45524332303A206275726E20616D6F756E7420657863656564732062616C616E PUSH1 0x0 DUP3 ADD MSTORE PUSH32 0x6365000000000000000000000000000000000000000000000000000000000000 PUSH1 0x20 DUP3 ADD MSTORE POP JUMP JUMPDEST PUSH1 0x0 PUSH2 0x1B36 PUSH1 0x22 DUP4 PUSH2 0x105B JUMP JUMPDEST SWAP2 POP PUSH2 0x1B41 DUP3 PUSH2 0x1ADA JUMP JUMPDEST PUSH1 0x40 DUP3 ADD SWAP1 POP SWAP2 SWAP1 POP JUMP JUMPDEST PUSH1 0x0 PUSH1 0x20 DUP3 ADD SWAP1 POP DUP2 DUP2 SUB PUSH1 0x0 DUP4 ADD MSTORE PUSH2 0x1B65 DUP2 PUSH2 0x1B29 JUMP JUMPDEST SWAP1 POP SWAP2 SWAP1 POP JUMP INVALID LOG2 PUSH5 0x6970667358 0x22 SLT KECCAK256 SWAP9 0x27 0x4E NUMBER PUSH6 0xE4C26B5D51B0 PUSH21 0x81F39E96556ACADA36E11FF0E078694B34BDDC8164 PUSH20 0x6F6C63430008090033A2646970667358221220A5 STATICCALL 0x2D 0xA5 SAR 0x1F 0xC TIMESTAMP STOP DUP13 0x4D GASPRICE 0xE2 0xCF 0xC5 PUSH32 0xC5AD03B48D3954EF83C9BB1181877CB564736F6C634300080900330000000000 "
		},
		"gasEstimates": {
			"creation": {
				"codeDepositCost": "4899400",
				"executionCost": "infinite",
				"totalCost": "infinite"
			},
			"external": {
				"_readyExports(uint256)": "infinite",
				"bestForks(uint256)": "infinite",
				"bridgeConverterActive()": "2610",
				"cceLastEndHeight()": "2588",
				"cceLastStartHeight()": "2559",
				"claimableFees(bytes32)": "2811",
				"contracts(uint256)": "5068",
				"exportHeights(uint256)": "infinite",
				"getName(address)": "infinite",
				"lastImportInfo(bytes32)": "infinite",
				"lastTxIdImport()": "2451",
				"notaries(uint256)": "5001",
				"notaryAddressMapping(address)": "infinite",
				"owner()": "2647",
				"processTransactions(bytes,uint8)": "infinite",
				"processedTxids(bytes32)": "2886",
				"recordToken(address,address,string,string,uint8,uint256)": "infinite",
				"refunds(bytes32,address)": "3073",
				"rollingUpgradeVotes(uint256)": "2937",
				"rollingVoteIndex()": "2605",
				"saltsUsed(bytes32)": "2819",
				"storageGlobal(bytes32)": "infinite",
				"tokenList(uint256)": "5000",
				"verusToERC20mapping(address)": "infinite"
			},
			"internal": {
				"convertFromVerusNumber(uint256,uint8)": "infinite",
				"importTransactions(struct VerusObjects.PackedSend memory[] memory,uint176[] memory)": "infinite",
				"launchToken(struct VerusObjects.PackedCurrencyLaunch memory[] memory)": "infinite",
				"sendCurrencyToETHAddress(address,address,uint256,uint8,uint256)": "infinite"
			}
		},
		"methodIdentifiers": {
			"_readyExports(uint256)": "8c7982f8",
			"bestForks(uint256)": "c36b4d1e",
			"bridgeConverterActive()": "8491fbaa",
			"cceLastEndHeight()": "538c3c5c",
			"cceLastStartHeight()": "c03d4268",
			"claimableFees(bytes32)": "23c8504d",
			"contracts(uint256)": "474da79a",
			"exportHeights(uint256)": "530f278f",
			"getName(address)": "5fd4b08a",
			"lastImportInfo(bytes32)": "683d8cbb",
			"lastTxIdImport()": "9a70b466",
			"notaries(uint256)": "6d4b76d5",
			"notaryAddressMapping(address)": "250dea53",
			"owner()": "8da5cb5b",
			"processTransactions(bytes,uint8)": "841a550e",
			"processedTxids(bytes32)": "327d4263",
			"recordToken(address,address,string,string,uint8,uint256)": "5d0f1f3e",
			"refunds(bytes32,address)": "5112ba98",
			"rollingUpgradeVotes(uint256)": "c7946e6d",
			"rollingVoteIndex()": "4b7ea401",
			"saltsUsed(bytes32)": "6bb67073",
			"storageGlobal(bytes32)": "0f031f65",
			"tokenList(uint256)": "9ead7222",
			"verusToERC20mapping(address)": "b17f15a2"
		}
	},
	"abi": [
		{
			"inputs": [
				{
					"internalType": "address",
					"name": "vETH",
					"type": "address"
				},
				{
					"internalType": "address",
					"name": "",
					"type": "address"
				},
				{
					"internalType": "address",
					"name": "Verus",
					"type": "address"
				},
				{
					"internalType": "address",
					"name": "DaiERC20Address",
					"type": "address"
				}
			],
			"stateMutability": "nonpayable",
			"type": "constructor"
		},
		{
			"inputs": [
				{
					"internalType": "uint256",
					"name": "",
					"type": "uint256"
				}
			],
			"name": "_readyExports",
			"outputs": [
				{
					"internalType": "bytes32",
					"name": "exportHash",
					"type": "bytes32"
				},
				{
					"internalType": "bytes32",
					"name": "prevExportHash",
					"type": "bytes32"
				},
				{
					"internalType": "uint64",
					"name": "endHeight",
					"type": "uint64"
				}
			],
			"stateMutability": "view",
			"type": "function"
		},
		{
			"inputs": [
				{
					"internalType": "uint256",
					"name": "",
					"type": "uint256"
				}
			],
			"name": "bestForks",
			"outputs": [
				{
					"internalType": "bytes",
					"name": "",
					"type": "bytes"
				}
			],
			"stateMutability": "view",
			"type": "function"
		},
		{
			"inputs": [],
			"name": "bridgeConverterActive",
			"outputs": [
				{
					"internalType": "bool",
					"name": "",
					"type": "bool"
				}
			],
			"stateMutability": "view",
			"type": "function"
		},
		{
			"inputs": [],
			"name": "cceLastEndHeight",
			"outputs": [
				{
					"internalType": "uint64",
					"name": "",
					"type": "uint64"
				}
			],
			"stateMutability": "view",
			"type": "function"
		},
		{
			"inputs": [],
			"name": "cceLastStartHeight",
			"outputs": [
				{
					"internalType": "uint64",
					"name": "",
					"type": "uint64"
				}
			],
			"stateMutability": "view",
			"type": "function"
		},
		{
			"inputs": [
				{
					"internalType": "bytes32",
					"name": "",
					"type": "bytes32"
				}
			],
			"name": "claimableFees",
			"outputs": [
				{
					"internalType": "uint256",
					"name": "",
					"type": "uint256"
				}
			],
			"stateMutability": "view",
			"type": "function"
		},
		{
			"inputs": [
				{
					"internalType": "uint256",
					"name": "",
					"type": "uint256"
				}
			],
			"name": "contracts",
			"outputs": [
				{
					"internalType": "address",
					"name": "",
					"type": "address"
				}
			],
			"stateMutability": "view",
			"type": "function"
		},
		{
			"inputs": [
				{
					"internalType": "uint256",
					"name": "",
					"type": "uint256"
				}
			],
			"name": "exportHeights",
			"outputs": [
				{
					"internalType": "uint256",
					"name": "",
					"type": "uint256"
				}
			],
			"stateMutability": "view",
			"type": "function"
		},
		{
			"inputs": [
				{
					"internalType": "address",
					"name": "cont",
					"type": "address"
				}
			],
			"name": "getName",
			"outputs": [
				{
					"internalType": "string",
					"name": "ret",
					"type": "string"
				}
			],
			"stateMutability": "nonpayable",
			"type": "function"
		},
		{
			"inputs": [
				{
					"internalType": "bytes32",
					"name": "",
					"type": "bytes32"
				}
			],
			"name": "lastImportInfo",
			"outputs": [
				{
					"internalType": "bytes32",
					"name": "hashOfTransfers",
					"type": "bytes32"
				},
				{
					"internalType": "bytes32",
					"name": "exporttxid",
					"type": "bytes32"
				},
				{
					"internalType": "uint32",
					"name": "exporttxoutnum",
					"type": "uint32"
				},
				{
					"internalType": "uint32",
					"name": "height",
					"type": "uint32"
				}
			],
			"stateMutability": "view",
			"type": "function"
		},
		{
			"inputs": [],
			"name": "lastTxIdImport",
			"outputs": [
				{
					"internalType": "bytes32",
					"name": "",
					"type": "bytes32"
				}
			],
			"stateMutability": "view",
			"type": "function"
		},
		{
			"inputs": [
				{
					"internalType": "uint256",
					"name": "",
					"type": "uint256"
				}
			],
			"name": "notaries",
			"outputs": [
				{
					"internalType": "address",
					"name": "",
					"type": "address"
				}
			],
			"stateMutability": "view",
			"type": "function"
		},
		{
			"inputs": [
				{
					"internalType": "address",
					"name": "",
					"type": "address"
				}
			],
			"name": "notaryAddressMapping",
			"outputs": [
				{
					"internalType": "address",
					"name": "main",
					"type": "address"
				},
				{
					"internalType": "address",
					"name": "recovery",
					"type": "address"
				},
				{
					"internalType": "uint8",
					"name": "state",
					"type": "uint8"
				}
			],
			"stateMutability": "view",
			"type": "function"
		},
		{
			"inputs": [],
			"name": "owner",
			"outputs": [
				{
					"internalType": "address",
					"name": "",
					"type": "address"
				}
			],
			"stateMutability": "view",
			"type": "function"
		},
		{
			"inputs": [
				{
					"internalType": "bytes",
					"name": "serializedTransfers",
					"type": "bytes"
				},
				{
					"internalType": "uint8",
					"name": "numberOfTransfers",
					"type": "uint8"
				}
			],
			"name": "processTransactions",
			"outputs": [
				{
					"internalType": "bytes",
					"name": "refundsData",
					"type": "bytes"
				},
				{
					"internalType": "uint64",
					"name": "fees",
					"type": "uint64"
				}
			],
			"stateMutability": "nonpayable",
			"type": "function"
		},
		{
			"inputs": [
				{
					"internalType": "bytes32",
					"name": "",
					"type": "bytes32"
				}
			],
			"name": "processedTxids",
			"outputs": [
				{
					"internalType": "bool",
					"name": "",
					"type": "bool"
				}
			],
			"stateMutability": "view",
			"type": "function"
		},
		{
			"inputs": [
				{
					"internalType": "address",
					"name": "_iaddress",
					"type": "address"
				},
				{
					"internalType": "address",
					"name": "ethContractAddress",
					"type": "address"
				},
				{
					"internalType": "string",
					"name": "name",
					"type": "string"
				},
				{
					"internalType": "string",
					"name": "ticker",
					"type": "string"
				},
				{
					"internalType": "uint8",
					"name": "flags",
					"type": "uint8"
				},
				{
					"internalType": "uint256",
					"name": "tokenID",
					"type": "uint256"
				}
			],
			"name": "recordToken",
			"outputs": [],
			"stateMutability": "nonpayable",
			"type": "function"
		},
		{
			"inputs": [
				{
					"internalType": "bytes32",
					"name": "",
					"type": "bytes32"
				},
				{
					"internalType": "address",
					"name": "",
					"type": "address"
				}
			],
			"name": "refunds",
			"outputs": [
				{
					"internalType": "uint256",
					"name": "",
					"type": "uint256"
				}
			],
			"stateMutability": "view",
			"type": "function"
		},
		{
			"inputs": [
				{
					"internalType": "uint256",
					"name": "",
					"type": "uint256"
				}
			],
			"name": "rollingUpgradeVotes",
			"outputs": [
				{
					"internalType": "address",
					"name": "",
					"type": "address"
				}
			],
			"stateMutability": "view",
			"type": "function"
		},
		{
			"inputs": [],
			"name": "rollingVoteIndex",
			"outputs": [
				{
					"internalType": "uint8",
					"name": "",
					"type": "uint8"
				}
			],
			"stateMutability": "view",
			"type": "function"
		},
		{
			"inputs": [
				{
					"internalType": "bytes32",
					"name": "",
					"type": "bytes32"
				}
			],
			"name": "saltsUsed",
			"outputs": [
				{
					"internalType": "bool",
					"name": "",
					"type": "bool"
				}
			],
			"stateMutability": "view",
			"type": "function"
		},
		{
			"inputs": [
				{
					"internalType": "bytes32",
					"name": "",
					"type": "bytes32"
				}
			],
			"name": "storageGlobal",
			"outputs": [
				{
					"internalType": "bytes",
					"name": "",
					"type": "bytes"
				}
			],
			"stateMutability": "view",
			"type": "function"
		},
		{
			"inputs": [
				{
					"internalType": "uint256",
					"name": "",
					"type": "uint256"
				}
			],
			"name": "tokenList",
			"outputs": [
				{
					"internalType": "address",
					"name": "",
					"type": "address"
				}
			],
			"stateMutability": "view",
			"type": "function"
		},
		{
			"inputs": [
				{
					"internalType": "address",
					"name": "",
					"type": "address"
				}
			],
			"name": "verusToERC20mapping",
			"outputs": [
				{
					"internalType": "address",
					"name": "erc20ContractAddress",
					"type": "address"
				},
				{
					"internalType": "uint8",
					"name": "flags",
					"type": "uint8"
				},
				{
					"internalType": "uint256",
					"name": "tokenIndex",
					"type": "uint256"
				},
				{
					"internalType": "string",
					"name": "name",
					"type": "string"
				},
				{
					"internalType": "uint256",
					"name": "tokenID",
					"type": "uint256"
				}
			],
			"stateMutability": "view",
			"type": "function"
		}
	]
}