{
	"data": {
		"bytecode": {
			"linkReferences": {},
			"object": "60806040526000600660146101000a81548160ff02191690831515021790555060006008553480156200003157600080fd5b5060405162006c2038038062006c208339818101604052810190620000579190620005c8565b33600660006101000a81548173ffffffffffffffffffffffffffffffffffffffff021916908373ffffffffffffffffffffffffffffffffffffffff16021790555080600560006101000a81548173ffffffffffffffffffffffffffffffffffffffff021916908373ffffffffffffffffffffffffffffffffffffffff160217905550600560009054906101000a900473ffffffffffffffffffffffffffffffffffffffff1673ffffffffffffffffffffffffffffffffffffffff1663f4e5699160026040518263ffffffff1660e01b815260040162000137919062000605565b60206040518083038186803b1580156200015057600080fd5b505afa15801562000165573d6000803e3d6000fd5b505050506040513d601f19601f820116820180604052508101906200018b9190620005c8565b600260006101000a81548173ffffffffffffffffffffffffffffffffffffffff021916908373ffffffffffffffffffffffffffffffffffffffff160217905550600560009054906101000a900473ffffffffffffffffffffffffffffffffffffffff1673ffffffffffffffffffffffffffffffffffffffff1663f4e5699160006040518263ffffffff1660e01b815260040162000229919062000605565b60206040518083038186803b1580156200024257600080fd5b505afa15801562000257573d6000803e3d6000fd5b505050506040513d601f19601f820116820180604052508101906200027d9190620005c8565b6000806101000a81548173ffffffffffffffffffffffffffffffffffffffff021916908373ffffffffffffffffffffffffffffffffffffffff160217905550600560009054906101000a900473ffffffffffffffffffffffffffffffffffffffff1673ffffffffffffffffffffffffffffffffffffffff1663f4e5699160016040518263ffffffff1660e01b81526004016200031a919062000605565b60206040518083038186803b1580156200033357600080fd5b505afa15801562000348573d6000803e3d6000fd5b505050506040513d601f19601f820116820180604052508101906200036e9190620005c8565b600160006101000a81548173ffffffffffffffffffffffffffffffffffffffff021916908373ffffffffffffffffffffffffffffffffffffffff160217905550600560009054906101000a900473ffffffffffffffffffffffffffffffffffffffff1673ffffffffffffffffffffffffffffffffffffffff1663f4e5699160046040518263ffffffff1660e01b81526004016200040c919062000605565b60206040518083038186803b1580156200042557600080fd5b505afa1580156200043a573d6000803e3d6000fd5b505050506040513d601f19601f82011682018060405250810190620004609190620005c8565b600360006101000a81548173ffffffffffffffffffffffffffffffffffffffff021916908373ffffffffffffffffffffffffffffffffffffffff160217905550600560009054906101000a900473ffffffffffffffffffffffffffffffffffffffff1673ffffffffffffffffffffffffffffffffffffffff1663f4e5699160036040518263ffffffff1660e01b8152600401620004fe919062000605565b60206040518083038186803b1580156200051757600080fd5b505afa1580156200052c573d6000803e3d6000fd5b505050506040513d601f19601f82011682018060405250810190620005529190620005c8565b600460006101000a81548173ffffffffffffffffffffffffffffffffffffffff021916908373ffffffffffffffffffffffffffffffffffffffff1602179055506000600c600001819055506000801b600c6001018190555050620006b2565b600081519050620005c28162000698565b92915050565b600060208284031215620005db57600080fd5b6000620005eb84828501620005b1565b91505092915050565b620005ff816200066b565b82525050565b60006020820190506200061c6000830184620005f4565b92915050565b60006200062f826200064b565b9050919050565b6000819050620006468262000681565b919050565b600073ffffffffffffffffffffffffffffffffffffffff82169050919050565b6000620006788262000636565b9050919050565bfe5b600781106200069557620006946200067f565b5b50565b620006a38162000622565b8114620006af57600080fd5b50565b61655e80620006c26000396000f3fe6080604052600436106100f35760003560e01c80637e3e661b1161008a578063e45b909d11610059578063e45b909d14610361578063e4804abc1461039e578063e4f30a9f146103db578063f76b96bb14610406576100f3565b80637e3e661b146102785780639deae284146102bd578063b85c0acb146102e6578063c17a4eef14610323576100f3565b80632a9e72a6116100c65780632a9e72a614610195578063327d4263146101d257806332db77231461020f5780635f2edcbe1461024c576100f3565b80630e136b19146100f85780631549a18914610123578063231b02681461013f57806326976e3f1461016a575b600080fd5b34801561010457600080fd5b5061010d610431565b60405161011a9190615bea565b60405180910390f35b61013d60048036038101906101389190614a31565b610444565b005b34801561014b57600080fd5b506101546115ec565b6040516101619190615ca8565b60405180910390f35b34801561017657600080fd5b5061017f6115f2565b60405161018c9190615a72565b60405180910390f35b3480156101a157600080fd5b506101bc60048036038101906101b79190614a85565b611618565b6040516101c99190615c86565b60405180910390f35b3480156101de57600080fd5b506101f960048036038101906101f4919061491c565b611a0b565b6040516102069190615bea565b60405180910390f35b34801561021b57600080fd5b50610236600480360381019061023191906149f0565b611a2b565b6040516102439190615bea565b60405180910390f35b34801561025857600080fd5b50610261612397565b60405161026f929190615d3e565b60405180910390f35b34801561028457600080fd5b5061029f600480360381019061029a9190614ad7565b6123a9565b6040516102b499989796959493929190615d90565b60405180910390f35b3480156102c957600080fd5b506102e460048036038101906102df91906148b2565b61261b565b005b3480156102f257600080fd5b5061030d60048036038101906103089190614871565b612655565b60405161031a9190615b76565b60405180910390f35b34801561032f57600080fd5b5061034a60048036038101906103459190614a85565b612740565b604051610358929190615d15565b60405180910390f35b34801561036d57600080fd5b5061038860048036038101906103839190614a85565b612771565b6040516103959190615c05565b60405180910390f35b3480156103aa57600080fd5b506103c560048036038101906103c09190614ad7565b612795565b6040516103d29190615b98565b60405180910390f35b3480156103e757600080fd5b506103f06128c4565b6040516103fd9190615ca8565b60405180910390f35b34801561041257600080fd5b5061041b6128ce565b6040516104289190615ca8565b60405180910390f35b600660149054906101000a900460ff1681565b6000655af3107a400090506000621e84809050600f600043815260200190815260200160002060010160009054906101000a900460ff161561052a576000600f60004381526020019081526020016000206000015490508460c0015173ffffffffffffffffffffffffffffffffffffffff16600b82815481106104c357fe5b906000526020600020016000815481106104d957fe5b906000526020600020906009020160060160009054906101000a900473ffffffffffffffffffffffffffffffffffffffff1673ffffffffffffffffffffffffffffffffffffffff161461052857fe5b505b600560009054906101000a900473ffffffffffffffffffffffffffffffffffffffff1673ffffffffffffffffffffffffffffffffffffffff166305f88a8a856080015186606001516040518363ffffffff1660e01b815260040161058f929190615cc3565b60206040518083038186803b1580156105a757600080fd5b505afa1580156105bb573d6000803e3d6000fd5b505050506040513d601f19601f820116820180604052508101906105df91906148f3565b1561071a57600560009054906101000a900473ffffffffffffffffffffffffffffffffffffffff1673ffffffffffffffffffffffffffffffffffffffff16635b7be18a621e8480600560009054906101000a900473ffffffffffffffffffffffffffffffffffffffff1673ffffffffffffffffffffffffffffffffffffffff166323845e4b6040518163ffffffff1660e01b815260040160206040518083038186803b15801561068e57600080fd5b505afa1580156106a2573d6000803e3d6000fd5b505050506040513d601f19601f820116820180604052508101906106c69190614aae565b036040518263ffffffff1660e01b81526004016106e39190615ca8565b600060405180830381600087803b1580156106fd57600080fd5b505af1158015610711573d6000803e3d6000fd5b50505050610cba565b73a6ef9ea235635e328124ff3429db9f9e91b64e2d73ffffffffffffffffffffffffffffffffffffffff16846060015173ffffffffffffffffffffffffffffffffffffffff1614806107af57507367460c2f56774ed27eeb8685f29f6cec0b090b0073ffffffffffffffffffffffffffffffffffffffff16846060015173ffffffffffffffffffffffffffffffffffffffff16145b6107b557fe5b73a6ef9ea235635e328124ff3429db9f9e91b64e2d73ffffffffffffffffffffffffffffffffffffffff16846060015173ffffffffffffffffffffffffffffffffffffffff161415610ba85760008060009054906101000a900473ffffffffffffffffffffffffffffffffffffffff1673ffffffffffffffffffffffffffffffffffffffff1663f79338de86606001516040518263ffffffff1660e01b81526004016108619190615a72565b60206040518083038186803b15801561087957600080fd5b505afa15801561088d573d6000803e3d6000fd5b505050506040513d601f19601f820116820180604052508101906108b19190614986565b905060008173ffffffffffffffffffffffffffffffffffffffff1663dd62ed3e33306040518363ffffffff1660e01b81526004016108f0929190615a8d565b60206040518083038186803b15801561090857600080fd5b505afa15801561091c573d6000803e3d6000fd5b505050506040513d601f19601f820116820180604052508101906109409190614aae565b9050600560009054906101000a900473ffffffffffffffffffffffffffffffffffffffff1673ffffffffffffffffffffffffffffffffffffffff1663d5b91a928460126040518363ffffffff1660e01b81526004016109a0929190615d67565b60206040518083038186803b1580156109b857600080fd5b505afa1580156109cc573d6000803e3d6000fd5b505050506040513d601f19601f820116820180604052508101906109f09190614aae565b8110156109f957fe5b8173ffffffffffffffffffffffffffffffffffffffff166323b872dd3330600560009054906101000a900473ffffffffffffffffffffffffffffffffffffffff1673ffffffffffffffffffffffffffffffffffffffff1663d5b91a928860126040518363ffffffff1660e01b8152600401610a75929190615d67565b60206040518083038186803b158015610a8d57600080fd5b505afa158015610aa1573d6000803e3d6000fd5b505050506040513d601f19601f82011682018060405250810190610ac59190614aae565b6040518463ffffffff1660e01b8152600401610ae393929190615ab6565b602060405180830381600087803b158015610afd57600080fd5b505af1158015610b11573d6000803e3d6000fd5b505050506040513d601f19601f82011682018060405250810190610b3591906148f3565b508173ffffffffffffffffffffffffffffffffffffffff166342966c68846040518263ffffffff1660e01b8152600401610b6f9190615ca8565b600060405180830381600087803b158015610b8957600080fd5b505af1158015610b9d573d6000803e3d6000fd5b505050505050610cb9565b7367460c2f56774ed27eeb8685f29f6cec0b090b0073ffffffffffffffffffffffffffffffffffffffff16846060015173ffffffffffffffffffffffffffffffffffffffff161415610cb857600382029150600560009054906101000a900473ffffffffffffffffffffffffffffffffffffffff1673ffffffffffffffffffffffffffffffffffffffff1663d5b91a92856080015160126040518363ffffffff1660e01b8152600401610c5c929190615d67565b60206040518083038186803b158015610c7457600080fd5b505afa158015610c88573d6000803e3d6000fd5b505050506040513d601f19601f82011682018060405250810190610cac9190614aae565b8201831015610cb757fe5b5b5b5b7367460c2f56774ed27eeb8685f29f6cec0b090b0073ffffffffffffffffffffffffffffffffffffffff1684602001516000015173ffffffffffffffffffffffffffffffffffffffff161461128f57600560009054906101000a900473ffffffffffffffffffffffffffffffffffffffff1673ffffffffffffffffffffffffffffffffffffffff1663717aa9cd84600560009054906101000a900473ffffffffffffffffffffffffffffffffffffffff1673ffffffffffffffffffffffffffffffffffffffff16639105f2456040518163ffffffff1660e01b815260040160206040518083038186803b158015610db057600080fd5b505afa158015610dc4573d6000803e3d6000fd5b505050506040513d601f19601f82011682018060405250810190610de89190614aae565b016040518263ffffffff1660e01b8152600401610e059190615ca8565b600060405180830381600087803b158015610e1f57600080fd5b505af1158015610e33573d6000803e3d6000fd5b5050505060008060009054906101000a900473ffffffffffffffffffffffffffffffffffffffff1673ffffffffffffffffffffffffffffffffffffffff1663f79338de8660200151600001516040518263ffffffff1660e01b8152600401610e9b9190615a72565b60206040518083038186803b158015610eb357600080fd5b505afa158015610ec7573d6000803e3d6000fd5b505050506040513d601f19601f82011682018060405250810190610eeb9190614986565b905060008173ffffffffffffffffffffffffffffffffffffffff1663dd62ed3e33306040518363ffffffff1660e01b8152600401610f2a929190615a8d565b60206040518083038186803b158015610f4257600080fd5b505afa158015610f56573d6000803e3d6000fd5b505050506040513d601f19601f82011682018060405250810190610f7a9190614aae565b90506000600560009054906101000a900473ffffffffffffffffffffffffffffffffffffffff1673ffffffffffffffffffffffffffffffffffffffff1663d5b91a928860200151602001518573ffffffffffffffffffffffffffffffffffffffff1663313ce5676040518163ffffffff1660e01b815260040160206040518083038186803b15801561100b57600080fd5b505afa15801561101f573d6000803e3d6000fd5b505050506040513d601f19601f820116820180604052508101906110439190614b3c565b6040518363ffffffff1660e01b8152600401611060929190615e25565b60206040518083038186803b15801561107857600080fd5b505afa15801561108c573d6000803e3d6000fd5b505050506040513d601f19601f820116820180604052508101906110b09190614aae565b9050808210156110bc57fe5b8273ffffffffffffffffffffffffffffffffffffffff166323b872dd3330846040518463ffffffff1660e01b81526004016110f993929190615ab6565b602060405180830381600087803b15801561111357600080fd5b505af1158015611127573d6000803e3d6000fd5b505050506040513d601f19601f8201168201806040525081019061114b91906148f3565b508273ffffffffffffffffffffffffffffffffffffffff1663095ea7b360008054906101000a900473ffffffffffffffffffffffffffffffffffffffff16836040518363ffffffff1660e01b81526004016111a7929190615b16565b602060405180830381600087803b1580156111c157600080fd5b505af11580156111d5573d6000803e3d6000fd5b505050506040513d601f19601f820116820180604052508101906111f991906148f3565b5060008054906101000a900473ffffffffffffffffffffffffffffffffffffffff1673ffffffffffffffffffffffffffffffffffffffff16639033ef3f84836040518363ffffffff1660e01b8152600401611255929190615b16565b600060405180830381600087803b15801561126f57600080fd5b505af1158015611283573d6000803e3d6000fd5b505050505050506115dd565b600560009054906101000a900473ffffffffffffffffffffffffffffffffffffffff1673ffffffffffffffffffffffffffffffffffffffff166338eb07e1655af3107a4000850360126040518363ffffffff1660e01b81526004016112f5929190615d67565b60206040518083038186803b15801561130d57600080fd5b505afa158015611321573d6000803e3d6000fd5b505050506040513d601f19601f820116820180604052508101906113459190614aae565b84602001516020019067ffffffffffffffff16908167ffffffffffffffff1681525050600560009054906101000a900473ffffffffffffffffffffffffffffffffffffffff1673ffffffffffffffffffffffffffffffffffffffff1663dd1a8f9085602001516020015167ffffffffffffffff16600560009054906101000a900473ffffffffffffffffffffffffffffffffffffffff1673ffffffffffffffffffffffffffffffffffffffff16633e15102e6040518163ffffffff1660e01b815260040160206040518083038186803b15801561142157600080fd5b505afa158015611435573d6000803e3d6000fd5b505050506040513d601f19601f820116820180604052508101906114599190614aae565b016040518263ffffffff1660e01b81526004016114769190615ca8565b600060405180830381600087803b15801561149057600080fd5b505af11580156114a4573d6000803e3d6000fd5b50505050600560009054906101000a900473ffffffffffffffffffffffffffffffffffffffff1673ffffffffffffffffffffffffffffffffffffffff1663717aa9cd655af3107a4000600560009054906101000a900473ffffffffffffffffffffffffffffffffffffffff1673ffffffffffffffffffffffffffffffffffffffff16639105f2456040518163ffffffff1660e01b815260040160206040518083038186803b15801561155557600080fd5b505afa158015611569573d6000803e3d6000fd5b505050506040513d601f19601f8201168201806040525081019061158d9190614aae565b016040518263ffffffff1660e01b81526004016115aa9190615ca8565b600060405180830381600087803b1580156115c457600080fd5b505af11580156115d8573d6000803e3d6000fd5b505050505b6115e6846128d4565b50505050565b60085481565b600760009054906101000a900473ffffffffffffffffffffffffffffffffffffffff1681565b6116206132a7565b6000600f6000848152602001908152602001600020600001549050600060405180608001604052808381526020018581526020016009848154811061166157fe5b90600052602060002001548152602001600b848154811061167e57fe5b90600052602060002001805480602002602001604051908101604052809291908181526020016000905b828210156119f85783829060005260206000209060090201604051806101200160405290816000820160009054906101000a900463ffffffff1663ffffffff1663ffffffff168152602001600182016040518060400160405290816000820160009054906101000a900473ffffffffffffffffffffffffffffffffffffffff1673ffffffffffffffffffffffffffffffffffffffff1673ffffffffffffffffffffffffffffffffffffffff1681526020016000820160149054906101000a900467ffffffffffffffff1667ffffffffffffffff1667ffffffffffffffff168152505081526020016002820160009054906101000a900463ffffffff1663ffffffff1663ffffffff1681526020016002820160049054906101000a900473ffffffffffffffffffffffffffffffffffffffff1673ffffffffffffffffffffffffffffffffffffffff1673ffffffffffffffffffffffffffffffffffffffff16815260200160038201548152602001600482016040518060400160405290816000820160009054906101000a900460ff1660ff1660ff168152602001600182018054600181600116156101000203166002900480601f0160208091040260200160405190810160405280929190818152602001828054600181600116156101000203166002900480156118da5780601f106118af576101008083540402835291602001916118da565b820191906000526020600020905b8154815290600101906020018083116118bd57829003601f168201915b50505050508152505081526020016006820160009054906101000a900473ffffffffffffffffffffffffffffffffffffffff1673ffffffffffffffffffffffffffffffffffffffff1673ffffffffffffffffffffffffffffffffffffffff1681526020016007820160009054906101000a900473ffffffffffffffffffffffffffffffffffffffff1673ffffffffffffffffffffffffffffffffffffffff1673ffffffffffffffffffffffffffffffffffffffff1681526020016008820160009054906101000a900473ffffffffffffffffffffffffffffffffffffffff1673ffffffffffffffffffffffffffffffffffffffff1673ffffffffffffffffffffffffffffffffffffffff1681525050815260200190600101906116a8565b5050505081525090508092505050919050565b600e6020528060005260406000206000915054906101000a900460ff1681565b6000806000836080015160600151600081518110611a4557fe5b60200260200101516040015190506020810151915060011515600e600084815260200190815260200160002060009054906101000a900460ff1615151415611a9257600092505050612392565b6000600260009054906101000a900473ffffffffffffffffffffffffffffffffffffffff1673ffffffffffffffffffffffffffffffffffffffff16630cd5756d866040518263ffffffff1660e01b8152600401611aef9190615c64565b60206040518083038186803b158015611b0757600080fd5b505afa158015611b1b573d6000803e3d6000fd5b505050506040513d601f19601f82011682018060405250810190611b3f91906148f3565b905080611b4857fe5b6001600e600085815260200190815260200160002060006101000a81548160ff02191690831515021790555084600001516010541015611b8e5784600001516010819055505b600080600090505b8660a001515181101561238857600560009054906101000a900473ffffffffffffffffffffffffffffffffffffffff1673ffffffffffffffffffffffffffffffffffffffff1663d5b91a928860a001518381518110611bf157fe5b6020026020010151602001516020015167ffffffffffffffff1660126040518363ffffffff1660e01b8152600401611c2a929190615d67565b60206040518083038186803b158015611c4257600080fd5b505afa158015611c56573d6000803e3d6000fd5b505050506040513d601f19601f82011682018060405250810190611c7a9190614aae565b915061200063ffffffff166120008860a001518381518110611c9857fe5b6020026020010151604001511663ffffffff1614612148577367460c2f56774ed27eeb8685f29f6cec0b090b0073ffffffffffffffffffffffffffffffffffffffff168760a001518281518110611ceb57fe5b6020026020010151602001516000015173ffffffffffffffffffffffffffffffffffffffff161415611fac5747821115611d2157fe5b600560009054906101000a900473ffffffffffffffffffffffffffffffffffffffff1673ffffffffffffffffffffffffffffffffffffffff16633436860283600560009054906101000a900473ffffffffffffffffffffffffffffffffffffffff1673ffffffffffffffffffffffffffffffffffffffff166342526e4e8b60a001518681518110611dae57fe5b602002602001015160a00151602001516040518263ffffffff1660e01b8152600401611dda9190615c20565b60206040518083038186803b158015611df257600080fd5b505afa158015611e06573d6000803e3d6000fd5b505050506040513d601f19601f82011682018060405250810190611e2a9190614848565b6040518363ffffffff1660e01b8152600401611e47929190615cec565b600060405180830381600087803b158015611e6157600080fd5b505af1158015611e75573d6000803e3d6000fd5b50505050600560009054906101000a900473ffffffffffffffffffffffffffffffffffffffff1673ffffffffffffffffffffffffffffffffffffffff1663dd1a8f9083600560009054906101000a900473ffffffffffffffffffffffffffffffffffffffff1673ffffffffffffffffffffffffffffffffffffffff16633e15102e6040518163ffffffff1660e01b815260040160206040518083038186803b158015611f2057600080fd5b505afa158015611f34573d6000803e3d6000fd5b505050506040513d601f19601f82011682018060405250810190611f589190614aae565b036040518263ffffffff1660e01b8152600401611f759190615ca8565b600060405180830381600087803b158015611f8f57600080fd5b505af1158015611fa3573d6000803e3d6000fd5b50505050612143565b60008054906101000a900473ffffffffffffffffffffffffffffffffffffffff1673ffffffffffffffffffffffffffffffffffffffff1663abe900e48860a001518381518110611ff857fe5b602002602001015160200151600001518960a00151848151811061201857fe5b60200260200101516020015160200151600560009054906101000a900473ffffffffffffffffffffffffffffffffffffffff1673ffffffffffffffffffffffffffffffffffffffff166342526e4e8c60a00151878151811061207657fe5b602002602001015160a00151602001516040518263ffffffff1660e01b81526004016120a29190615c20565b60206040518083038186803b1580156120ba57600080fd5b505afa1580156120ce573d6000803e3d6000fd5b505050506040513d601f19601f820116820180604052508101906120f29190614848565b6040518463ffffffff1660e01b815260040161211093929190615b3f565b600060405180830381600087803b15801561212a57600080fd5b505af115801561213e573d6000803e3d6000fd5b505050505b612246565b600660ff1660068860a00151838151811061215f57fe5b602002602001015160a00151600001511660ff1614156122455760008054906101000a900473ffffffffffffffffffffffffffffffffffffffff1673ffffffffffffffffffffffffffffffffffffffff16639257dfee8860a0015183815181106121c557fe5b602002602001015160a00151602001516040518263ffffffff1660e01b81526004016121f19190615c20565b602060405180830381600087803b15801561220b57600080fd5b505af115801561221f573d6000803e3d6000fd5b505050506040513d601f19601f820116820180604052508101906122439190614848565b505b5b60008760a00151828151811061225857fe5b6020026020010151608001511180156122cb57507367460c2f56774ed27eeb8685f29f6cec0b090b0073ffffffffffffffffffffffffffffffffffffffff168760a0015182815181106122a757fe5b60200260200101516060015173ffffffffffffffffffffffffffffffffffffffff16145b1561237b57600560009054906101000a900473ffffffffffffffffffffffffffffffffffffffff1673ffffffffffffffffffffffffffffffffffffffff1663fc3cc653338960a00151848151811061231f57fe5b6020026020010151608001516040518363ffffffff1660e01b8152600401612348929190615aed565b600060405180830381600087803b15801561236257600080fd5b505af1158015612376573d6000803e3d6000fd5b505050505b8080600101915050611b96565b5060019450505050505b919050565b600c8060000154908060010154905082565b600b82815481106123b957600080fd5b9060005260206000200181815481106123d157600080fd5b9060005260206000209060090201600091509150508060000160009054906101000a900463ffffffff1690806001016040518060400160405290816000820160009054906101000a900473ffffffffffffffffffffffffffffffffffffffff1673ffffffffffffffffffffffffffffffffffffffff1673ffffffffffffffffffffffffffffffffffffffff1681526020016000820160149054906101000a900467ffffffffffffffff1667ffffffffffffffff1667ffffffffffffffff1681525050908060020160009054906101000a900463ffffffff16908060020160049054906101000a900473ffffffffffffffffffffffffffffffffffffffff1690806003015490806004016040518060400160405290816000820160009054906101000a900460ff1660ff1660ff168152602001600182018054600181600116156101000203166002900480601f01602080910402602001604051908101604052809291908181526020018280546001816001161561010002031660029004801561259b5780601f106125705761010080835404028352916020019161259b565b820191906000526020600020905b81548152906001019060200180831161257e57829003601f168201915b505050505081525050908060060160009054906101000a900473ffffffffffffffffffffffffffffffffffffffff16908060070160009054906101000a900473ffffffffffffffffffffffffffffffffffffffff16908060080160009054906101000a900473ffffffffffffffffffffffffffffffffffffffff16905089565b60005b81518110156126515761264382828151811061263657fe5b6020026020010151611a2b565b50808060010191505061261e565b5050565b60606000825167ffffffffffffffff8111801561267157600080fd5b506040519080825280602002602001820160405280156126a05781602001602082028036833780820191505090505b509050600080600090505b84518110156127355760011515600e60008784815181106126c857fe5b6020026020010151815260200190815260200160002060009054906101000a900460ff16151514612728578481815181106126ff57fe5b602002602001015183838151811061271357fe5b60200260200101818152505081806001019250505b80806001019150506126ab565b508192505050919050565b600f6020528060005260406000206000915090508060000154908060010160009054906101000a900460ff16905082565b6009818154811061278157600080fd5b906000526020600020016000915090505481565b606060006008548410156127a95760085493505b60008490505b8381116127f357600f600082815260200190815260200160002060010160009054906101000a900460ff16156127e6576001820191505b80806001019150506127af565b5060008167ffffffffffffffff8111801561280d57600080fd5b5060405190808252806020026020018201604052801561284757816020015b6128346132a7565b81526020019060019003908161282c5790505b5090506000808690505b8581116128b757600f600082815260200190815260200160002060010160009054906101000a900460ff16156128aa5761288a81611618565b83838151811061289657fe5b602002602001018190525081806001019250505b8080600101915050612851565b5081935050505092915050565b6000601054905090565b60105481565b6000439050600080600f600084815260200190815260200160002060010160009054906101000a900460ff1615612ba957600f6000848152602001908152602001600020600001549150600b828154811061292b57fe5b9060005260206000200184908060018154018082558091505060019003906000526020600020906009020160009091909190915060008201518160000160006101000a81548163ffffffff021916908363ffffffff16021790555060208201518160010160008201518160000160006101000a81548173ffffffffffffffffffffffffffffffffffffffff021916908373ffffffffffffffffffffffffffffffffffffffff16021790555060208201518160000160146101000a81548167ffffffffffffffff021916908367ffffffffffffffff160217905550505060408201518160020160006101000a81548163ffffffff021916908363ffffffff16021790555060608201518160020160046101000a81548173ffffffffffffffffffffffffffffffffffffffff021916908373ffffffffffffffffffffffffffffffffffffffff1602179055506080820151816003015560a08201518160040160008201518160000160006101000a81548160ff021916908360ff1602179055506020820151816001019080519060200190612ac59291906132d2565b50505060c08201518160060160006101000a81548173ffffffffffffffffffffffffffffffffffffffff021916908373ffffffffffffffffffffffffffffffffffffffff16021790555060e08201518160070160006101000a81548173ffffffffffffffffffffffffffffffffffffffff021916908373ffffffffffffffffffffffffffffffffffffffff1602179055506101008201518160080160006101000a81548173ffffffffffffffffffffffffffffffffffffffff021916908373ffffffffffffffffffffffffffffffffffffffff160217905550505060009050612ec1565b600a84908060018154018082558091505060019003906000526020600020906009020160009091909190915060008201518160000160006101000a81548163ffffffff021916908363ffffffff16021790555060208201518160010160008201518160000160006101000a81548173ffffffffffffffffffffffffffffffffffffffff021916908373ffffffffffffffffffffffffffffffffffffffff16021790555060208201518160000160146101000a81548167ffffffffffffffff021916908367ffffffffffffffff160217905550505060408201518160020160006101000a81548163ffffffff021916908363ffffffff16021790555060608201518160020160046101000a81548173ffffffffffffffffffffffffffffffffffffffff021916908373ffffffffffffffffffffffffffffffffffffffff1602179055506080820151816003015560a08201518160040160008201518160000160006101000a81548160ff021916908360ff1602179055506020820151816001019080519060200190612d3b9291906132d2565b50505060c08201518160060160006101000a81548173ffffffffffffffffffffffffffffffffffffffff021916908373ffffffffffffffffffffffffffffffffffffffff16021790555060e08201518160070160006101000a81548173ffffffffffffffffffffffffffffffffffffffff021916908373ffffffffffffffffffffffffffffffffffffffff1602179055506101008201518160080160006101000a81548173ffffffffffffffffffffffffffffffffffffffff021916908373ffffffffffffffffffffffffffffffffffffffff1602179055505050600b805490509150600b600a90806001815401808255809150506001900390600052602060002001600090919091909150908054612e55929190613360565b50604051806040016040528083815260200160011515815250600f60008581526020019081526020016000206000820151816000015560208201518160010160006101000a81548160ff021916908315150217905550905050600a6000612ebc91906136e0565b600190505b6000600360009054906101000a900473ffffffffffffffffffffffffffffffffffffffff1673ffffffffffffffffffffffffffffffffffffffff16630bd4cec373ffece948b8a38bbcc813411d2597f7f8485a06896040518263ffffffff1660e01b8152600401612f329190615a72565b60206040518083038186803b158015612f4a57600080fd5b505afa158015612f5e573d6000803e3d6000fd5b505050506040513d601f19601f82011682018060405250810190612f829190614b13565b63ffffffff16600010801561306057504363ffffffff16600360009054906101000a900473ffffffffffffffffffffffffffffffffffffffff1673ffffffffffffffffffffffffffffffffffffffff16630bd4cec373ffece948b8a38bbcc813411d2597f7f8485a06896040518263ffffffff1660e01b81526004016130089190615a72565b60206040518083038186803b15801561302057600080fd5b505afa158015613034573d6000803e3d6000fd5b505050506040513d601f19601f820116820180604052508101906130589190614b13565b63ffffffff16105b90506000600160009054906101000a900473ffffffffffffffffffffffffffffffffffffffff1673ffffffffffffffffffffffffffffffffffffffff16636003992a600460009054906101000a900473ffffffffffffffffffffffffffffffffffffffff1673ffffffffffffffffffffffffffffffffffffffff1663bb6ff4b6600b88815481106130ed57fe5b90600052602060002001866040518363ffffffff1660e01b8152600401613115929190615bba565b600060405180830381600087803b15801561312f57600080fd5b505af1158015613143573d6000803e3d6000fd5b505050506040513d6000823e3d601f19601f8201168201806040525081019061316c91906149af565b6040518263ffffffff1660e01b81526004016131889190615c42565b60006040518083038186803b1580156131a057600080fd5b505afa1580156131b4573d6000803e3d6000fd5b505050506040513d6000823e3d601f19601f820116820180604052508101906131dd9190614945565b90506000806000801b90506000861461320e576009600187038154811061320057fe5b906000526020600020015490505b8281604051602001613221929190615a4a565b604051602081830303815290604052805190602001209150841561326d57600982908060018154018082558091505060019003906000526020600020016000909190919091505561328a565b816009878154811061327b57fe5b90600052602060002001819055505b6000600854141561329d57866008819055505b5050505050505050565b6040518060800160405280600081526020016000815260200160008019168152602001606081525090565b828054600181600116156101000203166002900490600052602060002090601f016020900481019282613308576000855561334f565b82601f1061332157805160ff191683800117855561334f565b8280016001018555821561334f579182015b8281111561334e578251825591602001919060010190613333565b5b50905061335c9190613704565b5090565b8280548282559060005260206000209060090281019282156136cf5760005260206000209160090282015b828111156136ce5782826000820160009054906101000a900463ffffffff168160000160006101000a81548163ffffffff021916908363ffffffff16021790555060018201816001016000820160009054906101000a900473ffffffffffffffffffffffffffffffffffffffff168160000160006101000a81548173ffffffffffffffffffffffffffffffffffffffff021916908373ffffffffffffffffffffffffffffffffffffffff1602179055506000820160149054906101000a900467ffffffffffffffff168160000160146101000a81548167ffffffffffffffff021916908367ffffffffffffffff16021790555050506002820160009054906101000a900463ffffffff168160020160006101000a81548163ffffffff021916908363ffffffff1602179055506002820160049054906101000a900473ffffffffffffffffffffffffffffffffffffffff168160020160046101000a81548173ffffffffffffffffffffffffffffffffffffffff021916908373ffffffffffffffffffffffffffffffffffffffff1602179055506003820154816003015560048201816004016000820160009054906101000a900460ff168160000160006101000a81548160ff021916908360ff16021790555060018201816001019080546001816001161561010002031660029004613585929190613721565b5050506006820160009054906101000a900473ffffffffffffffffffffffffffffffffffffffff168160060160006101000a81548173ffffffffffffffffffffffffffffffffffffffff021916908373ffffffffffffffffffffffffffffffffffffffff1602179055506007820160009054906101000a900473ffffffffffffffffffffffffffffffffffffffff168160070160006101000a81548173ffffffffffffffffffffffffffffffffffffffff021916908373ffffffffffffffffffffffffffffffffffffffff1602179055506008820160009054906101000a900473ffffffffffffffffffffffffffffffffffffffff168160080160006101000a81548173ffffffffffffffffffffffffffffffffffffffff021916908373ffffffffffffffffffffffffffffffffffffffff16021790555050509160090191906009019061338b565b5b5090506136dc91906137b6565b5090565b508054600082556009029060005260206000209081019061370191906137b6565b50565b5b8082111561371d576000816000905550600101613705565b5090565b828054600181600116156101000203166002900490600052602060002090601f01602090048101928261375757600085556137a5565b82601f1061376857805485556137a5565b828001600101855582156137a557600052602060002091601f016020900482015b828111156137a4578254825591600101919060010190613789565b5b5090506137b29190613704565b5090565b5b8082111561390f57600080820160006101000a81549063ffffffff021916905560018201600080820160006101000a81549073ffffffffffffffffffffffffffffffffffffffff02191690556000820160146101000a81549067ffffffffffffffff021916905550506002820160006101000a81549063ffffffff02191690556002820160046101000a81549073ffffffffffffffffffffffffffffffffffffffff0219169055600382016000905560048201600080820160006101000a81549060ff021916905560018201600061388f9190613913565b50506006820160006101000a81549073ffffffffffffffffffffffffffffffffffffffff02191690556007820160006101000a81549073ffffffffffffffffffffffffffffffffffffffff02191690556008820160006101000a81549073ffffffffffffffffffffffffffffffffffffffff0219169055506009016137b7565b5090565b50805460018160011615610100020316600290046000825580601f106139395750613958565b601f0160209004906000526020600020908101906139579190613704565b5b50565b600061396e61396984615e7f565b615e4e565b9050808382526020820190508285602086028201111561398d57600080fd5b60005b858110156139bd57816139a38882613df4565b845260208401935060208301925050600181019050613990565b5050509392505050565b60006139da6139d584615eab565b615e4e565b9050808382526020820190508260005b85811015613a1a5781358501613a008882613eb1565b8452602084019350602083019250506001810190506139ea565b5050509392505050565b6000613a37613a3284615ed7565b615e4e565b90508083825260208201905082856040860282011115613a5657600080fd5b60005b85811015613a865781613a6c88826142a9565b845260208401935060408301925050600181019050613a59565b5050509392505050565b6000613aa3613a9e84615ed7565b615e4e565b90508083825260208201905082856040860282011115613ac257600080fd5b60005b85811015613af25781613ad888826142f5565b845260208401935060408301925050600181019050613ac5565b5050509392505050565b6000613b0f613b0a84615f03565b615e4e565b9050808382526020820190508260005b85811015613b4f5781358501613b358882614471565b845260208401935060208301925050600181019050613b1f565b5050509392505050565b6000613b6c613b6784615f2f565b615e4e565b9050808382526020820190508260005b85811015613bac5781358501613b928882614555565b845260208401935060208301925050600181019050613b7c565b5050509392505050565b6000613bc9613bc484615f5b565b615e4e565b9050808382526020820190508260005b85811015613c095781358501613bef888261464a565b845260208401935060208301925050600181019050613bd9565b5050509392505050565b6000613c26613c2184615f87565b615e4e565b905082815260208101848484011115613c3e57600080fd5b613c49848285616320565b509392505050565b6000613c64613c5f84615f87565b615e4e565b905082815260208101848484011115613c7c57600080fd5b613c8784828561632f565b509392505050565b600081359050613c9e81616442565b92915050565b600081519050613cb381616442565b92915050565b600082601f830112613cca57600080fd5b8135613cda84826020860161395b565b91505092915050565b600082601f830112613cf457600080fd5b8135613d048482602086016139c7565b91505092915050565b600082601f830112613d1e57600080fd5b8135613d2e848260208601613a24565b91505092915050565b600082601f830112613d4857600080fd5b8151613d58848260208601613a90565b91505092915050565b600082601f830112613d7257600080fd5b8135613d82848260208601613afc565b91505092915050565b600082601f830112613d9c57600080fd5b8135613dac848260208601613b59565b91505092915050565b600082601f830112613dc657600080fd5b8135613dd6848260208601613bb6565b91505092915050565b600081519050613dee81616459565b92915050565b600081359050613e0381616470565b92915050565b600081519050613e1881616470565b92915050565b600082601f830112613e2f57600080fd5b8135613e3f848260208601613c13565b91505092915050565b600082601f830112613e5957600080fd5b8151613e69848260208601613c51565b91505092915050565b600081519050613e8181616487565b92915050565b600081359050613e968161649e565b92915050565b600081519050613eab8161649e565b92915050565b600060808284031215613ec357600080fd5b613ecd6080615e4e565b90506000613edd8482850161481e565b6000830152506020613ef18482850161481e565b602083015250604082013567ffffffffffffffff811115613f1157600080fd5b613f1d84828501613e1e565b604083015250606082013567ffffffffffffffff811115613f3d57600080fd5b613f4984828501613db5565b60608301525092915050565b60006101c08284031215613f6857600080fd5b613f736101c0615e4e565b90506000613f8384828501614776565b6000830152506020613f9784828501614776565b6020830152506040613fab84828501613c8f565b6040830152506060613fbf84828501613df4565b6060830152506080613fd3848285016147ca565b60808301525060a0613fe7848285016147ca565b60a08301525060c0613ffb84828501613c8f565b60c08301525060e061400f84828501613c8f565b60e083015250610100614024848285016147ca565b6101008301525061012082013567ffffffffffffffff81111561404657600080fd5b61405284828501613d0d565b6101208301525061014082013567ffffffffffffffff81111561407457600080fd5b61408084828501613d0d565b6101408301525061016082013567ffffffffffffffff8111156140a257600080fd5b6140ae84828501613d0d565b6101608301525061018082013567ffffffffffffffff8111156140d057600080fd5b6140dc848285016146ae565b610180830152506101a06140f284828501613e87565b6101a08301525092915050565b60006101c0828403121561411257600080fd5b61411d6101c0615e4e565b9050600061412d8482850161478b565b60008301525060206141418482850161478b565b602083015250604061415584828501613ca4565b604083015250606061416984828501613e09565b606083015250608061417d848285016147df565b60808301525060a0614191848285016147df565b60a08301525060c06141a584828501613ca4565b60c08301525060e06141b984828501613ca4565b60e0830152506101006141ce848285016147df565b6101008301525061012082015167ffffffffffffffff8111156141f057600080fd5b6141fc84828501613d37565b6101208301525061014082015167ffffffffffffffff81111561421e57600080fd5b61422a84828501613d37565b6101408301525061016082015167ffffffffffffffff81111561424c57600080fd5b61425884828501613d37565b6101608301525061018082015167ffffffffffffffff81111561427a57600080fd5b61428684828501614712565b610180830152506101a061429c84828501613e9c565b6101a08301525092915050565b6000604082840312156142bb57600080fd5b6142c56040615e4e565b905060006142d584828501613c8f565b60008301525060206142e9848285016147f4565b60208301525092915050565b60006040828403121561430757600080fd5b6143116040615e4e565b9050600061432184828501613ca4565b600083015250602061433584828501614809565b60208301525092915050565b60006080828403121561435357600080fd5b61435d6080615e4e565b9050600061436d8482850161481e565b6000830152506020614381848285016147ca565b6020830152506040614395848285016147ca565b604083015250606082013567ffffffffffffffff8111156143b557600080fd5b6143c184828501613cb9565b60608301525092915050565b6000608082840312156143df57600080fd5b6143e96080615e4e565b905060006143f98482850161481e565b600083015250602061440d8482850161481e565b602083015250604082013567ffffffffffffffff81111561442d57600080fd5b61443984828501613db5565b604083015250606082013567ffffffffffffffff81111561445957600080fd5b61446584828501613ce3565b60608301525092915050565b600060c0828403121561448357600080fd5b61448d60c0615e4e565b9050600061449d848285016147a0565b60008301525060206144b184828501613df4565b60208301525060406144c5848285016147a0565b604083015250606082013567ffffffffffffffff8111156144e557600080fd5b6144f184828501613f55565b606083015250608082013567ffffffffffffffff81111561451157600080fd5b61451d848285016143cd565b60808301525060a082013567ffffffffffffffff81111561453d57600080fd5b61454984828501613d8b565b60a08301525092915050565b6000610140828403121561456857600080fd5b614573610120615e4e565b90506000614583848285016147ca565b6000830152506020614597848285016142a9565b60208301525060606145ab848285016147ca565b60408301525060806145bf84828501613c8f565b60608301525060a06145d3848285016147a0565b60808301525060c082013567ffffffffffffffff8111156145f357600080fd5b6145ff848285016146ae565b60a08301525060e061461384828501613c8f565b60c08301525061010061462884828501613c8f565b60e08301525061012061463d84828501613c8f565b6101008301525092915050565b60006040828403121561465c57600080fd5b6146666040615e4e565b905060006146768482850161481e565b600083015250602082013567ffffffffffffffff81111561469657600080fd5b6146a284828501614341565b60208301525092915050565b6000604082840312156146c057600080fd5b6146ca6040615e4e565b905060006146da8482850161481e565b600083015250602082013567ffffffffffffffff8111156146fa57600080fd5b61470684828501613e1e565b60208301525092915050565b60006040828403121561472457600080fd5b61472e6040615e4e565b9050600061473e84828501614833565b600083015250602082015167ffffffffffffffff81111561475e57600080fd5b61476a84828501613e48565b60208301525092915050565b600081359050614785816164b5565b92915050565b60008151905061479a816164b5565b92915050565b6000813590506147af816164cc565b92915050565b6000815190506147c4816164cc565b92915050565b6000813590506147d9816164e3565b92915050565b6000815190506147ee816164e3565b92915050565b600081359050614803816164fa565b92915050565b600081519050614818816164fa565b92915050565b60008135905061482d81616511565b92915050565b60008151905061484281616511565b92915050565b60006020828403121561485a57600080fd5b600061486884828501613ca4565b91505092915050565b60006020828403121561488357600080fd5b600082013567ffffffffffffffff81111561489d57600080fd5b6148a984828501613cb9565b91505092915050565b6000602082840312156148c457600080fd5b600082013567ffffffffffffffff8111156148de57600080fd5b6148ea84828501613d61565b91505092915050565b60006020828403121561490557600080fd5b600061491384828501613ddf565b91505092915050565b60006020828403121561492e57600080fd5b600061493c84828501613df4565b91505092915050565b60006020828403121561495757600080fd5b600082015167ffffffffffffffff81111561497157600080fd5b61497d84828501613e48565b91505092915050565b60006020828403121561499857600080fd5b60006149a684828501613e72565b91505092915050565b6000602082840312156149c157600080fd5b600082015167ffffffffffffffff8111156149db57600080fd5b6149e7848285016140ff565b91505092915050565b600060208284031215614a0257600080fd5b600082013567ffffffffffffffff811115614a1c57600080fd5b614a2884828501614471565b91505092915050565b60008060408385031215614a4457600080fd5b600083013567ffffffffffffffff811115614a5e57600080fd5b614a6a85828601614555565b9250506020614a7b858286016147a0565b9150509250929050565b600060208284031215614a9757600080fd5b6000614aa5848285016147a0565b91505092915050565b600060208284031215614ac057600080fd5b6000614ace848285016147b5565b91505092915050565b60008060408385031215614aea57600080fd5b6000614af8858286016147a0565b9250506020614b09858286016147a0565b9150509250929050565b600060208284031215614b2557600080fd5b6000614b33848285016147df565b91505092915050565b600060208284031215614b4e57600080fd5b6000614b5c84828501614833565b91505092915050565b6000614b718383614fa6565b60208301905092915050565b6000614b89838361512b565b905092915050565b6000614b9d838361541b565b60408301905092915050565b6000614bb5838361561d565b905092915050565b6000614bc983836156e3565b905092915050565b6000614bdd83836157a9565b905092915050565b6000614bf183836158b4565b905092915050565b614c02816162c6565b82525050565b614c1181616216565b82525050565b614c2081616204565b82525050565b614c2f81616204565b82525050565b6000614c4082616041565b614c4a81856160f4565b9350614c5583615fb7565b8060005b83811015614c86578151614c6d8882614b65565b9750614c7883616099565b925050600181019050614c59565b5085935050505092915050565b6000614c9e82616041565b614ca88185616105565b9350614cb383615fb7565b8060005b83811015614ce4578151614ccb8882614b65565b9750614cd683616099565b925050600181019050614cb7565b5085935050505092915050565b6000614cfc8261604c565b614d068185616116565b935083602082028501614d1885615fc7565b8060005b85811015614d545784840389528151614d358582614b7d565b9450614d40836160a6565b925060208a01995050600181019050614d1c565b50829750879550505050505092915050565b6000614d7182616057565b614d7b8185616127565b9350614d8683615fd7565b8060005b83811015614db7578151614d9e8882614b91565b9750614da9836160b3565b925050600181019050614d8a565b5085935050505092915050565b6000614dcf82616062565b614dd98185616138565b935083602082028501614deb85615fe7565b8060005b85811015614e275784840389528151614e088582614ba9565b9450614e13836160c0565b925060208a01995050600181019050614def565b50829750879550505050505092915050565b6000614e448261606d565b614e4e8185616149565b935083602082028501614e6085615ff7565b8060005b85811015614e9c5784840389528151614e7d8582614bbd565b9450614e88836160cd565b925060208a01995050600181019050614e64565b50829750879550505050505092915050565b6000614eb982616078565b614ec3818561615a565b935083602082028501614ed585616007565b8060005b85811015614f1057848403895281614ef18582614bd1565b9450614efc836160da565b925060208a01995050600181019050614ed9565b50829750879550505050505092915050565b6000614f2d82616083565b614f37818561616b565b935083602082028501614f498561601c565b8060005b85811015614f855784840389528151614f668582614be5565b9450614f71836160e7565b925060208a01995050600181019050614f4d565b50829750879550505050505092915050565b614fa081616228565b82525050565b614faf81616234565b82525050565b614fbe81616234565b82525050565b614fd5614fd082616234565b6163fe565b82525050565b6000614fe68261608e565b614ff0818561617c565b935061500081856020860161632f565b6150098161640a565b840191505092915050565b600061501f8261608e565b615029818561618d565b935061503981856020860161632f565b6150428161640a565b840191505092915050565b60006150588261608e565b615062818561619e565b935061507281856020860161632f565b80840191505092915050565b60008154600181166000811461509b57600181146150c157615105565b607f60028304166150ac818761617c565b955060ff198316865260208601935050615105565b600282046150cf818761617c565b95506150da8561602c565b60005b828110156150fc578154818901526001820191506020810190506150dd565b80880195505050505b505092915050565b61511681616250565b82525050565b615125816162d8565b82525050565b60006080830160008301516151436000860182615a2c565b5060208301516151566020860182615a2c565b506040830151848203604086015261516e8282614fdb565b915050606083015184820360608601526151888282614f22565b9150508091505092915050565b60006101c0830160008301516151ae60008601826159b4565b5060208301516151c160208601826159b4565b5060408301516151d46040860182614c17565b5060608301516151e76060860182614fa6565b5060808301516151fa60808601826159e1565b5060a083015161520d60a08601826159e1565b5060c083015161522060c0860182614c17565b5060e083015161523360e0860182614c17565b506101008301516152486101008601826159e1565b506101208301518482036101208601526152628282614d66565b91505061014083015184820361014086015261527e8282614d66565b91505061016083015184820361016086015261529a8282614d66565b9150506101808301518482036101808601526152b682826158f1565b9150506101a08301516152cd6101a086018261510d565b508091505092915050565b60006101c0830160008301516152f160008601826159b4565b50602083015161530460208601826159b4565b5060408301516153176040860182614c17565b50606083015161532a6060860182614fa6565b50608083015161533d60808601826159e1565b5060a083015161535060a08601826159e1565b5060c083015161536360c0860182614c17565b5060e083015161537660e0860182614c17565b5061010083015161538b6101008601826159e1565b506101208301518482036101208601526153a58282614d66565b9150506101408301518482036101408601526153c18282614d66565b9150506101608301518482036101608601526153dd8282614d66565b9150506101808301518482036101808601526153f982826158f1565b9150506101a08301516154106101a086018261510d565b508091505092915050565b6040820160008201516154316000850182614c17565b5060208201516154446020850182615a0e565b50505050565b6040820160008201516154606000850182614c17565b5060208201516154736020850182615a0e565b50505050565b60408201600080830154905061548e81616362565b61549b6000860182614c17565b506154a5816163ca565b6154b26020860182615a0e565b5050505050565b60006080830160008301516154d16000860182615a2c565b5060208301516154e460208601826159e1565b5060408301516154f760408601826159e1565b506060830151848203606086015261550f8282614c35565b9150508091505092915050565b60006080830160008301516155346000860182615a2c565b5060208301516155476020860182615a2c565b506040830151848203604086015261555f8282614f22565b915050606083015184820360608601526155798282614cf1565b9150508091505092915050565b600060c08301600083015161559e60008601826159c3565b5060208301516155b16020860182614fa6565b5060408301516155c460408601826159c3565b50606083015184820360608601526155dc8282615195565b915050608083015184820360808601526155f6828261551c565b91505060a083015184820360a08601526156108282614e39565b9150508091505092915050565b600060808301600083015161563560008601826159c3565b50602083015161564860208601826159c3565b50604083015161565b6040860182614fa6565b50606083015184820360608601526156738282614e39565b9150508091505092915050565b600060808301600083015161569860008601826159c3565b5060208301516156ab60208601826159c3565b5060408301516156be6040860182614fa6565b50606083015184820360608601526156d68282614e39565b9150508091505092915050565b6000610140830160008301516156fc60008601826159e1565b50602083015161570f602086018261541b565b50604083015161572260608601826159e1565b5060608301516157356080860182614c17565b50608083015161574860a08601826159c3565b5060a083015184820360c086015261576082826158f1565b91505060c083015161577560e0860182614c17565b5060e0830151615789610100860182614c17565b5061010083015161579e610120860182614c17565b508091505092915050565b6000610140830160008084015490506157c181616396565b6157ce60008701826159e1565b50600184016157e06020870182615479565b50600284015490506157f181616396565b6157fe60608701826159e1565b50615808816163e4565b6158156080870182614c17565b50600384015490506158268161637c565b61583360a08701826159c3565b506004840185830360c087015261584a838261596b565b9250506006840154905061585d81616362565b61586a60e0870182614c17565b506007840154905061587b81616362565b615889610100870182614c17565b506008840154905061589a81616362565b6158a8610120870182614c17565b50819250505092915050565b60006040830160008301516158cc6000860182615a2c565b50602083015184820360208601526158e482826154b9565b9150508091505092915050565b60006040830160008301516159096000860182615a2c565b50602083015184820360208601526159218282614fdb565b9150508091505092915050565b60006040830160008301516159466000860182615a2c565b506020830151848203602086015261595e8282614fdb565b9150508091505092915050565b6000604083016000808401549050615982816163b0565b61598f6000870182615a2c565b506001840185830360208701526159a6838261507e565b925050819250505092915050565b6159bd8161625d565b82525050565b6159cc8161628b565b82525050565b6159db8161628b565b82525050565b6159ea81616295565b82525050565b6159f981616295565b82525050565b615a088161630e565b82525050565b615a17816162a5565b82525050565b615a26816162a5565b82525050565b615a35816162b9565b82525050565b615a44816162b9565b82525050565b6000615a56828561504d565b9150615a628284614fc4565b6020820191508190509392505050565b6000602082019050615a876000830184614c26565b92915050565b6000604082019050615aa26000830185614bf9565b615aaf6020830184614c26565b9392505050565b6000606082019050615acb6000830186614bf9565b615ad86020830185614c26565b615ae560408301846159d2565b949350505050565b6000604082019050615b026000830185614bf9565b615b0f60208301846159d2565b9392505050565b6000604082019050615b2b6000830185614c26565b615b3860208301846159d2565b9392505050565b6000606082019050615b546000830186614c26565b615b616020830185615a1d565b615b6e6040830184614c26565b949350505050565b60006020820190508181036000830152615b908184614c93565b905092915050565b60006020820190508181036000830152615bb28184614dc4565b905092915050565b60006040820190508181036000830152615bd48185614eae565b9050615be36020830184614f97565b9392505050565b6000602082019050615bff6000830184614f97565b92915050565b6000602082019050615c1a6000830184614fb5565b92915050565b60006020820190508181036000830152615c3a8184615014565b905092915050565b60006020820190508181036000830152615c5c81846152d8565b905092915050565b60006020820190508181036000830152615c7e8184615586565b905092915050565b60006020820190508181036000830152615ca08184615680565b905092915050565b6000602082019050615cbd60008301846159d2565b92915050565b6000604082019050615cd860008301856159d2565b615ce56020830184614c26565b9392505050565b6000604082019050615d0160008301856159d2565b615d0e6020830184614c08565b9392505050565b6000604082019050615d2a60008301856159d2565b615d376020830184614f97565b9392505050565b6000604082019050615d5360008301856159d2565b615d606020830184614fb5565b9392505050565b6000604082019050615d7c60008301856159d2565b615d89602083018461511c565b9392505050565b600061014082019050615da6600083018c6159f0565b615db3602083018b61544a565b615dc0606083018a6159f0565b615dcd6080830189614c26565b615dda60a08301886159d2565b81810360c0830152615dec818761592e565b9050615dfb60e0830186614c26565b615e09610100830185614c26565b615e17610120830184614c26565b9a9950505050505050505050565b6000604082019050615e3a60008301856159ff565b615e476020830184615a3b565b9392505050565b6000604051905081810181811067ffffffffffffffff82111715615e7557615e74616408565b5b8060405250919050565b600067ffffffffffffffff821115615e9a57615e99616408565b5b602082029050602081019050919050565b600067ffffffffffffffff821115615ec657615ec5616408565b5b602082029050602081019050919050565b600067ffffffffffffffff821115615ef257615ef1616408565b5b602082029050602081019050919050565b600067ffffffffffffffff821115615f1e57615f1d616408565b5b602082029050602081019050919050565b600067ffffffffffffffff821115615f4a57615f49616408565b5b602082029050602081019050919050565b600067ffffffffffffffff821115615f7657615f75616408565b5b602082029050602081019050919050565b600067ffffffffffffffff821115615fa257615fa1616408565b5b601f19601f8301169050602081019050919050565b6000819050602082019050919050565b6000819050602082019050919050565b6000819050602082019050919050565b6000819050602082019050919050565b6000819050602082019050919050565b60008190508160005260206000209050919050565b6000819050602082019050919050565b60008190508160005260206000209050919050565b600081519050919050565b600081519050919050565b600081519050919050565b600081519050919050565b600081519050919050565b600081549050919050565b600081519050919050565b600081519050919050565b6000602082019050919050565b6000602082019050919050565b6000602082019050919050565b6000602082019050919050565b6000602082019050919050565b6000600982019050919050565b6000602082019050919050565b600082825260208201905092915050565b600082825260208201905092915050565b600082825260208201905092915050565b600082825260208201905092915050565b600082825260208201905092915050565b600082825260208201905092915050565b600082825260208201905092915050565b600082825260208201905092915050565b600082825260208201905092915050565b600082825260208201905092915050565b600081905092915050565b600073ffffffffffffffffffffffffffffffffffffffff82169050919050565b6000819050919050565b600063ffffffff82169050919050565b600067ffffffffffffffff82169050919050565b600060ff82169050919050565b600061620f8261626b565b9050919050565b60006162218261626b565b9050919050565b60008115159050919050565b6000819050919050565b600061624982616204565b9050919050565b60008160030b9050919050565b600061ffff82169050919050565b600073ffffffffffffffffffffffffffffffffffffffff82169050919050565b6000819050919050565b600063ffffffff82169050919050565b600067ffffffffffffffff82169050919050565b600060ff82169050919050565b60006162d1826162ea565b9050919050565b60006162e3826162b9565b9050919050565b60006162f5826162fc565b9050919050565b60006163078261626b565b9050919050565b6000616319826162a5565b9050919050565b82818337600083830152505050565b60005b8381101561634d578082015181840152602081019050616332565b8381111561635c576000848401525b50505050565b60006163756163708361641b565b6161a9565b9050919050565b600061638f61638a8361641b565b6161c9565b9050919050565b60006163a96163a48361641b565b6161d3565b9050919050565b60006163c36163be8361641b565b6161f7565b9050919050565b60006163dd6163d883616428565b6161e3565b9050919050565b60006163f76163f283616435565b6161a9565b9050919050565b6000819050919050565bfe5b6000601f19601f8301169050919050565b60008160001c9050919050565b60008160a01c9050919050565b60008160201c9050919050565b61644b81616204565b811461645657600080fd5b50565b61646281616228565b811461646d57600080fd5b50565b61647981616234565b811461648457600080fd5b50565b6164908161623e565b811461649b57600080fd5b50565b6164a781616250565b81146164b257600080fd5b50565b6164be8161625d565b81146164c957600080fd5b50565b6164d58161628b565b81146164e057600080fd5b50565b6164ec81616295565b81146164f757600080fd5b50565b616503816162a5565b811461650e57600080fd5b50565b61651a816162b9565b811461652557600080fd5b5056fea2646970667358221220d4100827031412dd6ea045e5373a4147aa1b8997adbbe5059913a67a3daaf85b64736f6c63430007060033",
			"opcodes": "PUSH1 0x80 PUSH1 0x40 MSTORE PUSH1 0x0 PUSH1 0x6 PUSH1 0x14 PUSH2 0x100 EXP DUP2 SLOAD DUP2 PUSH1 0xFF MUL NOT AND SWAP1 DUP4 ISZERO ISZERO MUL OR SWAP1 SSTORE POP PUSH1 0x0 PUSH1 0x8 SSTORE CALLVALUE DUP1 ISZERO PUSH3 0x31 JUMPI PUSH1 0x0 DUP1 REVERT JUMPDEST POP PUSH1 0x40 MLOAD PUSH3 0x6C20 CODESIZE SUB DUP1 PUSH3 0x6C20 DUP4 CODECOPY DUP2 DUP2 ADD PUSH1 0x40 MSTORE DUP2 ADD SWAP1 PUSH3 0x57 SWAP2 SWAP1 PUSH3 0x5C8 JUMP JUMPDEST CALLER PUSH1 0x6 PUSH1 0x0 PUSH2 0x100 EXP DUP2 SLOAD DUP2 PUSH20 0xFFFFFFFFFFFFFFFFFFFFFFFFFFFFFFFFFFFFFFFF MUL NOT AND SWAP1 DUP4 PUSH20 0xFFFFFFFFFFFFFFFFFFFFFFFFFFFFFFFFFFFFFFFF AND MUL OR SWAP1 SSTORE POP DUP1 PUSH1 0x5 PUSH1 0x0 PUSH2 0x100 EXP DUP2 SLOAD DUP2 PUSH20 0xFFFFFFFFFFFFFFFFFFFFFFFFFFFFFFFFFFFFFFFF MUL NOT AND SWAP1 DUP4 PUSH20 0xFFFFFFFFFFFFFFFFFFFFFFFFFFFFFFFFFFFFFFFF AND MUL OR SWAP1 SSTORE POP PUSH1 0x5 PUSH1 0x0 SWAP1 SLOAD SWAP1 PUSH2 0x100 EXP SWAP1 DIV PUSH20 0xFFFFFFFFFFFFFFFFFFFFFFFFFFFFFFFFFFFFFFFF AND PUSH20 0xFFFFFFFFFFFFFFFFFFFFFFFFFFFFFFFFFFFFFFFF AND PUSH4 0xF4E56991 PUSH1 0x2 PUSH1 0x40 MLOAD DUP3 PUSH4 0xFFFFFFFF AND PUSH1 0xE0 SHL DUP2 MSTORE PUSH1 0x4 ADD PUSH3 0x137 SWAP2 SWAP1 PUSH3 0x605 JUMP JUMPDEST PUSH1 0x20 PUSH1 0x40 MLOAD DUP1 DUP4 SUB DUP2 DUP7 DUP1 EXTCODESIZE ISZERO DUP1 ISZERO PUSH3 0x150 JUMPI PUSH1 0x0 DUP1 REVERT JUMPDEST POP GAS STATICCALL ISZERO DUP1 ISZERO PUSH3 0x165 JUMPI RETURNDATASIZE PUSH1 0x0 DUP1 RETURNDATACOPY RETURNDATASIZE PUSH1 0x0 REVERT JUMPDEST POP POP POP POP PUSH1 0x40 MLOAD RETURNDATASIZE PUSH1 0x1F NOT PUSH1 0x1F DUP3 ADD AND DUP3 ADD DUP1 PUSH1 0x40 MSTORE POP DUP2 ADD SWAP1 PUSH3 0x18B SWAP2 SWAP1 PUSH3 0x5C8 JUMP JUMPDEST PUSH1 0x2 PUSH1 0x0 PUSH2 0x100 EXP DUP2 SLOAD DUP2 PUSH20 0xFFFFFFFFFFFFFFFFFFFFFFFFFFFFFFFFFFFFFFFF MUL NOT AND SWAP1 DUP4 PUSH20 0xFFFFFFFFFFFFFFFFFFFFFFFFFFFFFFFFFFFFFFFF AND MUL OR SWAP1 SSTORE POP PUSH1 0x5 PUSH1 0x0 SWAP1 SLOAD SWAP1 PUSH2 0x100 EXP SWAP1 DIV PUSH20 0xFFFFFFFFFFFFFFFFFFFFFFFFFFFFFFFFFFFFFFFF AND PUSH20 0xFFFFFFFFFFFFFFFFFFFFFFFFFFFFFFFFFFFFFFFF AND PUSH4 0xF4E56991 PUSH1 0x0 PUSH1 0x40 MLOAD DUP3 PUSH4 0xFFFFFFFF AND PUSH1 0xE0 SHL DUP2 MSTORE PUSH1 0x4 ADD PUSH3 0x229 SWAP2 SWAP1 PUSH3 0x605 JUMP JUMPDEST PUSH1 0x20 PUSH1 0x40 MLOAD DUP1 DUP4 SUB DUP2 DUP7 DUP1 EXTCODESIZE ISZERO DUP1 ISZERO PUSH3 0x242 JUMPI PUSH1 0x0 DUP1 REVERT JUMPDEST POP GAS STATICCALL ISZERO DUP1 ISZERO PUSH3 0x257 JUMPI RETURNDATASIZE PUSH1 0x0 DUP1 RETURNDATACOPY RETURNDATASIZE PUSH1 0x0 REVERT JUMPDEST POP POP POP POP PUSH1 0x40 MLOAD RETURNDATASIZE PUSH1 0x1F NOT PUSH1 0x1F DUP3 ADD AND DUP3 ADD DUP1 PUSH1 0x40 MSTORE POP DUP2 ADD SWAP1 PUSH3 0x27D SWAP2 SWAP1 PUSH3 0x5C8 JUMP JUMPDEST PUSH1 0x0 DUP1 PUSH2 0x100 EXP DUP2 SLOAD DUP2 PUSH20 0xFFFFFFFFFFFFFFFFFFFFFFFFFFFFFFFFFFFFFFFF MUL NOT AND SWAP1 DUP4 PUSH20 0xFFFFFFFFFFFFFFFFFFFFFFFFFFFFFFFFFFFFFFFF AND MUL OR SWAP1 SSTORE POP PUSH1 0x5 PUSH1 0x0 SWAP1 SLOAD SWAP1 PUSH2 0x100 EXP SWAP1 DIV PUSH20 0xFFFFFFFFFFFFFFFFFFFFFFFFFFFFFFFFFFFFFFFF AND PUSH20 0xFFFFFFFFFFFFFFFFFFFFFFFFFFFFFFFFFFFFFFFF AND PUSH4 0xF4E56991 PUSH1 0x1 PUSH1 0x40 MLOAD DUP3 PUSH4 0xFFFFFFFF AND PUSH1 0xE0 SHL DUP2 MSTORE PUSH1 0x4 ADD PUSH3 0x31A SWAP2 SWAP1 PUSH3 0x605 JUMP JUMPDEST PUSH1 0x20 PUSH1 0x40 MLOAD DUP1 DUP4 SUB DUP2 DUP7 DUP1 EXTCODESIZE ISZERO DUP1 ISZERO PUSH3 0x333 JUMPI PUSH1 0x0 DUP1 REVERT JUMPDEST POP GAS STATICCALL ISZERO DUP1 ISZERO PUSH3 0x348 JUMPI RETURNDATASIZE PUSH1 0x0 DUP1 RETURNDATACOPY RETURNDATASIZE PUSH1 0x0 REVERT JUMPDEST POP POP POP POP PUSH1 0x40 MLOAD RETURNDATASIZE PUSH1 0x1F NOT PUSH1 0x1F DUP3 ADD AND DUP3 ADD DUP1 PUSH1 0x40 MSTORE POP DUP2 ADD SWAP1 PUSH3 0x36E SWAP2 SWAP1 PUSH3 0x5C8 JUMP JUMPDEST PUSH1 0x1 PUSH1 0x0 PUSH2 0x100 EXP DUP2 SLOAD DUP2 PUSH20 0xFFFFFFFFFFFFFFFFFFFFFFFFFFFFFFFFFFFFFFFF MUL NOT AND SWAP1 DUP4 PUSH20 0xFFFFFFFFFFFFFFFFFFFFFFFFFFFFFFFFFFFFFFFF AND MUL OR SWAP1 SSTORE POP PUSH1 0x5 PUSH1 0x0 SWAP1 SLOAD SWAP1 PUSH2 0x100 EXP SWAP1 DIV PUSH20 0xFFFFFFFFFFFFFFFFFFFFFFFFFFFFFFFFFFFFFFFF AND PUSH20 0xFFFFFFFFFFFFFFFFFFFFFFFFFFFFFFFFFFFFFFFF AND PUSH4 0xF4E56991 PUSH1 0x4 PUSH1 0x40 MLOAD DUP3 PUSH4 0xFFFFFFFF AND PUSH1 0xE0 SHL DUP2 MSTORE PUSH1 0x4 ADD PUSH3 0x40C SWAP2 SWAP1 PUSH3 0x605 JUMP JUMPDEST PUSH1 0x20 PUSH1 0x40 MLOAD DUP1 DUP4 SUB DUP2 DUP7 DUP1 EXTCODESIZE ISZERO DUP1 ISZERO PUSH3 0x425 JUMPI PUSH1 0x0 DUP1 REVERT JUMPDEST POP GAS STATICCALL ISZERO DUP1 ISZERO PUSH3 0x43A JUMPI RETURNDATASIZE PUSH1 0x0 DUP1 RETURNDATACOPY RETURNDATASIZE PUSH1 0x0 REVERT JUMPDEST POP POP POP POP PUSH1 0x40 MLOAD RETURNDATASIZE PUSH1 0x1F NOT PUSH1 0x1F DUP3 ADD AND DUP3 ADD DUP1 PUSH1 0x40 MSTORE POP DUP2 ADD SWAP1 PUSH3 0x460 SWAP2 SWAP1 PUSH3 0x5C8 JUMP JUMPDEST PUSH1 0x3 PUSH1 0x0 PUSH2 0x100 EXP DUP2 SLOAD DUP2 PUSH20 0xFFFFFFFFFFFFFFFFFFFFFFFFFFFFFFFFFFFFFFFF MUL NOT AND SWAP1 DUP4 PUSH20 0xFFFFFFFFFFFFFFFFFFFFFFFFFFFFFFFFFFFFFFFF AND MUL OR SWAP1 SSTORE POP PUSH1 0x5 PUSH1 0x0 SWAP1 SLOAD SWAP1 PUSH2 0x100 EXP SWAP1 DIV PUSH20 0xFFFFFFFFFFFFFFFFFFFFFFFFFFFFFFFFFFFFFFFF AND PUSH20 0xFFFFFFFFFFFFFFFFFFFFFFFFFFFFFFFFFFFFFFFF AND PUSH4 0xF4E56991 PUSH1 0x3 PUSH1 0x40 MLOAD DUP3 PUSH4 0xFFFFFFFF AND PUSH1 0xE0 SHL DUP2 MSTORE PUSH1 0x4 ADD PUSH3 0x4FE SWAP2 SWAP1 PUSH3 0x605 JUMP JUMPDEST PUSH1 0x20 PUSH1 0x40 MLOAD DUP1 DUP4 SUB DUP2 DUP7 DUP1 EXTCODESIZE ISZERO DUP1 ISZERO PUSH3 0x517 JUMPI PUSH1 0x0 DUP1 REVERT JUMPDEST POP GAS STATICCALL ISZERO DUP1 ISZERO PUSH3 0x52C JUMPI RETURNDATASIZE PUSH1 0x0 DUP1 RETURNDATACOPY RETURNDATASIZE PUSH1 0x0 REVERT JUMPDEST POP POP POP POP PUSH1 0x40 MLOAD RETURNDATASIZE PUSH1 0x1F NOT PUSH1 0x1F DUP3 ADD AND DUP3 ADD DUP1 PUSH1 0x40 MSTORE POP DUP2 ADD SWAP1 PUSH3 0x552 SWAP2 SWAP1 PUSH3 0x5C8 JUMP JUMPDEST PUSH1 0x4 PUSH1 0x0 PUSH2 0x100 EXP DUP2 SLOAD DUP2 PUSH20 0xFFFFFFFFFFFFFFFFFFFFFFFFFFFFFFFFFFFFFFFF MUL NOT AND SWAP1 DUP4 PUSH20 0xFFFFFFFFFFFFFFFFFFFFFFFFFFFFFFFFFFFFFFFF AND MUL OR SWAP1 SSTORE POP PUSH1 0x0 PUSH1 0xC PUSH1 0x0 ADD DUP2 SWAP1 SSTORE POP PUSH1 0x0 DUP1 SHL PUSH1 0xC PUSH1 0x1 ADD DUP2 SWAP1 SSTORE POP POP PUSH3 0x6B2 JUMP JUMPDEST PUSH1 0x0 DUP2 MLOAD SWAP1 POP PUSH3 0x5C2 DUP2 PUSH3 0x698 JUMP JUMPDEST SWAP3 SWAP2 POP POP JUMP JUMPDEST PUSH1 0x0 PUSH1 0x20 DUP3 DUP5 SUB SLT ISZERO PUSH3 0x5DB JUMPI PUSH1 0x0 DUP1 REVERT JUMPDEST PUSH1 0x0 PUSH3 0x5EB DUP5 DUP3 DUP6 ADD PUSH3 0x5B1 JUMP JUMPDEST SWAP2 POP POP SWAP3 SWAP2 POP POP JUMP JUMPDEST PUSH3 0x5FF DUP2 PUSH3 0x66B JUMP JUMPDEST DUP3 MSTORE POP POP JUMP JUMPDEST PUSH1 0x0 PUSH1 0x20 DUP3 ADD SWAP1 POP PUSH3 0x61C PUSH1 0x0 DUP4 ADD DUP5 PUSH3 0x5F4 JUMP JUMPDEST SWAP3 SWAP2 POP POP JUMP JUMPDEST PUSH1 0x0 PUSH3 0x62F DUP3 PUSH3 0x64B JUMP JUMPDEST SWAP1 POP SWAP2 SWAP1 POP JUMP JUMPDEST PUSH1 0x0 DUP2 SWAP1 POP PUSH3 0x646 DUP3 PUSH3 0x681 JUMP JUMPDEST SWAP2 SWAP1 POP JUMP JUMPDEST PUSH1 0x0 PUSH20 0xFFFFFFFFFFFFFFFFFFFFFFFFFFFFFFFFFFFFFFFF DUP3 AND SWAP1 POP SWAP2 SWAP1 POP JUMP JUMPDEST PUSH1 0x0 PUSH3 0x678 DUP3 PUSH3 0x636 JUMP JUMPDEST SWAP1 POP SWAP2 SWAP1 POP JUMP JUMPDEST INVALID JUMPDEST PUSH1 0x7 DUP2 LT PUSH3 0x695 JUMPI PUSH3 0x694 PUSH3 0x67F JUMP JUMPDEST JUMPDEST POP JUMP JUMPDEST PUSH3 0x6A3 DUP2 PUSH3 0x622 JUMP JUMPDEST DUP2 EQ PUSH3 0x6AF JUMPI PUSH1 0x0 DUP1 REVERT JUMPDEST POP JUMP JUMPDEST PUSH2 0x655E DUP1 PUSH3 0x6C2 PUSH1 0x0 CODECOPY PUSH1 0x0 RETURN INVALID PUSH1 0x80 PUSH1 0x40 MSTORE PUSH1 0x4 CALLDATASIZE LT PUSH2 0xF3 JUMPI PUSH1 0x0 CALLDATALOAD PUSH1 0xE0 SHR DUP1 PUSH4 0x7E3E661B GT PUSH2 0x8A JUMPI DUP1 PUSH4 0xE45B909D GT PUSH2 0x59 JUMPI DUP1 PUSH4 0xE45B909D EQ PUSH2 0x361 JUMPI DUP1 PUSH4 0xE4804ABC EQ PUSH2 0x39E JUMPI DUP1 PUSH4 0xE4F30A9F EQ PUSH2 0x3DB JUMPI DUP1 PUSH4 0xF76B96BB EQ PUSH2 0x406 JUMPI PUSH2 0xF3 JUMP JUMPDEST DUP1 PUSH4 0x7E3E661B EQ PUSH2 0x278 JUMPI DUP1 PUSH4 0x9DEAE284 EQ PUSH2 0x2BD JUMPI DUP1 PUSH4 0xB85C0ACB EQ PUSH2 0x2E6 JUMPI DUP1 PUSH4 0xC17A4EEF EQ PUSH2 0x323 JUMPI PUSH2 0xF3 JUMP JUMPDEST DUP1 PUSH4 0x2A9E72A6 GT PUSH2 0xC6 JUMPI DUP1 PUSH4 0x2A9E72A6 EQ PUSH2 0x195 JUMPI DUP1 PUSH4 0x327D4263 EQ PUSH2 0x1D2 JUMPI DUP1 PUSH4 0x32DB7723 EQ PUSH2 0x20F JUMPI DUP1 PUSH4 0x5F2EDCBE EQ PUSH2 0x24C JUMPI PUSH2 0xF3 JUMP JUMPDEST DUP1 PUSH4 0xE136B19 EQ PUSH2 0xF8 JUMPI DUP1 PUSH4 0x1549A189 EQ PUSH2 0x123 JUMPI DUP1 PUSH4 0x231B0268 EQ PUSH2 0x13F JUMPI DUP1 PUSH4 0x26976E3F EQ PUSH2 0x16A JUMPI JUMPDEST PUSH1 0x0 DUP1 REVERT JUMPDEST CALLVALUE DUP1 ISZERO PUSH2 0x104 JUMPI PUSH1 0x0 DUP1 REVERT JUMPDEST POP PUSH2 0x10D PUSH2 0x431 JUMP JUMPDEST PUSH1 0x40 MLOAD PUSH2 0x11A SWAP2 SWAP1 PUSH2 0x5BEA JUMP JUMPDEST PUSH1 0x40 MLOAD DUP1 SWAP2 SUB SWAP1 RETURN JUMPDEST PUSH2 0x13D PUSH1 0x4 DUP1 CALLDATASIZE SUB DUP2 ADD SWAP1 PUSH2 0x138 SWAP2 SWAP1 PUSH2 0x4A31 JUMP JUMPDEST PUSH2 0x444 JUMP JUMPDEST STOP JUMPDEST CALLVALUE DUP1 ISZERO PUSH2 0x14B JUMPI PUSH1 0x0 DUP1 REVERT JUMPDEST POP PUSH2 0x154 PUSH2 0x15EC JUMP JUMPDEST PUSH1 0x40 MLOAD PUSH2 0x161 SWAP2 SWAP1 PUSH2 0x5CA8 JUMP JUMPDEST PUSH1 0x40 MLOAD DUP1 SWAP2 SUB SWAP1 RETURN JUMPDEST CALLVALUE DUP1 ISZERO PUSH2 0x176 JUMPI PUSH1 0x0 DUP1 REVERT JUMPDEST POP PUSH2 0x17F PUSH2 0x15F2 JUMP JUMPDEST PUSH1 0x40 MLOAD PUSH2 0x18C SWAP2 SWAP1 PUSH2 0x5A72 JUMP JUMPDEST PUSH1 0x40 MLOAD DUP1 SWAP2 SUB SWAP1 RETURN JUMPDEST CALLVALUE DUP1 ISZERO PUSH2 0x1A1 JUMPI PUSH1 0x0 DUP1 REVERT JUMPDEST POP PUSH2 0x1BC PUSH1 0x4 DUP1 CALLDATASIZE SUB DUP2 ADD SWAP1 PUSH2 0x1B7 SWAP2 SWAP1 PUSH2 0x4A85 JUMP JUMPDEST PUSH2 0x1618 JUMP JUMPDEST PUSH1 0x40 MLOAD PUSH2 0x1C9 SWAP2 SWAP1 PUSH2 0x5C86 JUMP JUMPDEST PUSH1 0x40 MLOAD DUP1 SWAP2 SUB SWAP1 RETURN JUMPDEST CALLVALUE DUP1 ISZERO PUSH2 0x1DE JUMPI PUSH1 0x0 DUP1 REVERT JUMPDEST POP PUSH2 0x1F9 PUSH1 0x4 DUP1 CALLDATASIZE SUB DUP2 ADD SWAP1 PUSH2 0x1F4 SWAP2 SWAP1 PUSH2 0x491C JUMP JUMPDEST PUSH2 0x1A0B JUMP JUMPDEST PUSH1 0x40 MLOAD PUSH2 0x206 SWAP2 SWAP1 PUSH2 0x5BEA JUMP JUMPDEST PUSH1 0x40 MLOAD DUP1 SWAP2 SUB SWAP1 RETURN JUMPDEST CALLVALUE DUP1 ISZERO PUSH2 0x21B JUMPI PUSH1 0x0 DUP1 REVERT JUMPDEST POP PUSH2 0x236 PUSH1 0x4 DUP1 CALLDATASIZE SUB DUP2 ADD SWAP1 PUSH2 0x231 SWAP2 SWAP1 PUSH2 0x49F0 JUMP JUMPDEST PUSH2 0x1A2B JUMP JUMPDEST PUSH1 0x40 MLOAD PUSH2 0x243 SWAP2 SWAP1 PUSH2 0x5BEA JUMP JUMPDEST PUSH1 0x40 MLOAD DUP1 SWAP2 SUB SWAP1 RETURN JUMPDEST CALLVALUE DUP1 ISZERO PUSH2 0x258 JUMPI PUSH1 0x0 DUP1 REVERT JUMPDEST POP PUSH2 0x261 PUSH2 0x2397 JUMP JUMPDEST PUSH1 0x40 MLOAD PUSH2 0x26F SWAP3 SWAP2 SWAP1 PUSH2 0x5D3E JUMP JUMPDEST PUSH1 0x40 MLOAD DUP1 SWAP2 SUB SWAP1 RETURN JUMPDEST CALLVALUE DUP1 ISZERO PUSH2 0x284 JUMPI PUSH1 0x0 DUP1 REVERT JUMPDEST POP PUSH2 0x29F PUSH1 0x4 DUP1 CALLDATASIZE SUB DUP2 ADD SWAP1 PUSH2 0x29A SWAP2 SWAP1 PUSH2 0x4AD7 JUMP JUMPDEST PUSH2 0x23A9 JUMP JUMPDEST PUSH1 0x40 MLOAD PUSH2 0x2B4 SWAP10 SWAP9 SWAP8 SWAP7 SWAP6 SWAP5 SWAP4 SWAP3 SWAP2 SWAP1 PUSH2 0x5D90 JUMP JUMPDEST PUSH1 0x40 MLOAD DUP1 SWAP2 SUB SWAP1 RETURN JUMPDEST CALLVALUE DUP1 ISZERO PUSH2 0x2C9 JUMPI PUSH1 0x0 DUP1 REVERT JUMPDEST POP PUSH2 0x2E4 PUSH1 0x4 DUP1 CALLDATASIZE SUB DUP2 ADD SWAP1 PUSH2 0x2DF SWAP2 SWAP1 PUSH2 0x48B2 JUMP JUMPDEST PUSH2 0x261B JUMP JUMPDEST STOP JUMPDEST CALLVALUE DUP1 ISZERO PUSH2 0x2F2 JUMPI PUSH1 0x0 DUP1 REVERT JUMPDEST POP PUSH2 0x30D PUSH1 0x4 DUP1 CALLDATASIZE SUB DUP2 ADD SWAP1 PUSH2 0x308 SWAP2 SWAP1 PUSH2 0x4871 JUMP JUMPDEST PUSH2 0x2655 JUMP JUMPDEST PUSH1 0x40 MLOAD PUSH2 0x31A SWAP2 SWAP1 PUSH2 0x5B76 JUMP JUMPDEST PUSH1 0x40 MLOAD DUP1 SWAP2 SUB SWAP1 RETURN JUMPDEST CALLVALUE DUP1 ISZERO PUSH2 0x32F JUMPI PUSH1 0x0 DUP1 REVERT JUMPDEST POP PUSH2 0x34A PUSH1 0x4 DUP1 CALLDATASIZE SUB DUP2 ADD SWAP1 PUSH2 0x345 SWAP2 SWAP1 PUSH2 0x4A85 JUMP JUMPDEST PUSH2 0x2740 JUMP JUMPDEST PUSH1 0x40 MLOAD PUSH2 0x358 SWAP3 SWAP2 SWAP1 PUSH2 0x5D15 JUMP JUMPDEST PUSH1 0x40 MLOAD DUP1 SWAP2 SUB SWAP1 RETURN JUMPDEST CALLVALUE DUP1 ISZERO PUSH2 0x36D JUMPI PUSH1 0x0 DUP1 REVERT JUMPDEST POP PUSH2 0x388 PUSH1 0x4 DUP1 CALLDATASIZE SUB DUP2 ADD SWAP1 PUSH2 0x383 SWAP2 SWAP1 PUSH2 0x4A85 JUMP JUMPDEST PUSH2 0x2771 JUMP JUMPDEST PUSH1 0x40 MLOAD PUSH2 0x395 SWAP2 SWAP1 PUSH2 0x5C05 JUMP JUMPDEST PUSH1 0x40 MLOAD DUP1 SWAP2 SUB SWAP1 RETURN JUMPDEST CALLVALUE DUP1 ISZERO PUSH2 0x3AA JUMPI PUSH1 0x0 DUP1 REVERT JUMPDEST POP PUSH2 0x3C5 PUSH1 0x4 DUP1 CALLDATASIZE SUB DUP2 ADD SWAP1 PUSH2 0x3C0 SWAP2 SWAP1 PUSH2 0x4AD7 JUMP JUMPDEST PUSH2 0x2795 JUMP JUMPDEST PUSH1 0x40 MLOAD PUSH2 0x3D2 SWAP2 SWAP1 PUSH2 0x5B98 JUMP JUMPDEST PUSH1 0x40 MLOAD DUP1 SWAP2 SUB SWAP1 RETURN JUMPDEST CALLVALUE DUP1 ISZERO PUSH2 0x3E7 JUMPI PUSH1 0x0 DUP1 REVERT JUMPDEST POP PUSH2 0x3F0 PUSH2 0x28C4 JUMP JUMPDEST PUSH1 0x40 MLOAD PUSH2 0x3FD SWAP2 SWAP1 PUSH2 0x5CA8 JUMP JUMPDEST PUSH1 0x40 MLOAD DUP1 SWAP2 SUB SWAP1 RETURN JUMPDEST CALLVALUE DUP1 ISZERO PUSH2 0x412 JUMPI PUSH1 0x0 DUP1 REVERT JUMPDEST POP PUSH2 0x41B PUSH2 0x28CE JUMP JUMPDEST PUSH1 0x40 MLOAD PUSH2 0x428 SWAP2 SWAP1 PUSH2 0x5CA8 JUMP JUMPDEST PUSH1 0x40 MLOAD DUP1 SWAP2 SUB SWAP1 RETURN JUMPDEST PUSH1 0x6 PUSH1 0x14 SWAP1 SLOAD SWAP1 PUSH2 0x100 EXP SWAP1 DIV PUSH1 0xFF AND DUP2 JUMP JUMPDEST PUSH1 0x0 PUSH6 0x5AF3107A4000 SWAP1 POP PUSH1 0x0 PUSH3 0x1E8480 SWAP1 POP PUSH1 0xF PUSH1 0x0 NUMBER DUP2 MSTORE PUSH1 0x20 ADD SWAP1 DUP2 MSTORE PUSH1 0x20 ADD PUSH1 0x0 KECCAK256 PUSH1 0x1 ADD PUSH1 0x0 SWAP1 SLOAD SWAP1 PUSH2 0x100 EXP SWAP1 DIV PUSH1 0xFF AND ISZERO PUSH2 0x52A JUMPI PUSH1 0x0 PUSH1 0xF PUSH1 0x0 NUMBER DUP2 MSTORE PUSH1 0x20 ADD SWAP1 DUP2 MSTORE PUSH1 0x20 ADD PUSH1 0x0 KECCAK256 PUSH1 0x0 ADD SLOAD SWAP1 POP DUP5 PUSH1 0xC0 ADD MLOAD PUSH20 0xFFFFFFFFFFFFFFFFFFFFFFFFFFFFFFFFFFFFFFFF AND PUSH1 0xB DUP3 DUP2 SLOAD DUP2 LT PUSH2 0x4C3 JUMPI INVALID JUMPDEST SWAP1 PUSH1 0x0 MSTORE PUSH1 0x20 PUSH1 0x0 KECCAK256 ADD PUSH1 0x0 DUP2 SLOAD DUP2 LT PUSH2 0x4D9 JUMPI INVALID JUMPDEST SWAP1 PUSH1 0x0 MSTORE PUSH1 0x20 PUSH1 0x0 KECCAK256 SWAP1 PUSH1 0x9 MUL ADD PUSH1 0x6 ADD PUSH1 0x0 SWAP1 SLOAD SWAP1 PUSH2 0x100 EXP SWAP1 DIV PUSH20 0xFFFFFFFFFFFFFFFFFFFFFFFFFFFFFFFFFFFFFFFF AND PUSH20 0xFFFFFFFFFFFFFFFFFFFFFFFFFFFFFFFFFFFFFFFF AND EQ PUSH2 0x528 JUMPI INVALID JUMPDEST POP JUMPDEST PUSH1 0x5 PUSH1 0x0 SWAP1 SLOAD SWAP1 PUSH2 0x100 EXP SWAP1 DIV PUSH20 0xFFFFFFFFFFFFFFFFFFFFFFFFFFFFFFFFFFFFFFFF AND PUSH20 0xFFFFFFFFFFFFFFFFFFFFFFFFFFFFFFFFFFFFFFFF AND PUSH4 0x5F88A8A DUP6 PUSH1 0x80 ADD MLOAD DUP7 PUSH1 0x60 ADD MLOAD PUSH1 0x40 MLOAD DUP4 PUSH4 0xFFFFFFFF AND PUSH1 0xE0 SHL DUP2 MSTORE PUSH1 0x4 ADD PUSH2 0x58F SWAP3 SWAP2 SWAP1 PUSH2 0x5CC3 JUMP JUMPDEST PUSH1 0x20 PUSH1 0x40 MLOAD DUP1 DUP4 SUB DUP2 DUP7 DUP1 EXTCODESIZE ISZERO DUP1 ISZERO PUSH2 0x5A7 JUMPI PUSH1 0x0 DUP1 REVERT JUMPDEST POP GAS STATICCALL ISZERO DUP1 ISZERO PUSH2 0x5BB JUMPI RETURNDATASIZE PUSH1 0x0 DUP1 RETURNDATACOPY RETURNDATASIZE PUSH1 0x0 REVERT JUMPDEST POP POP POP POP PUSH1 0x40 MLOAD RETURNDATASIZE PUSH1 0x1F NOT PUSH1 0x1F DUP3 ADD AND DUP3 ADD DUP1 PUSH1 0x40 MSTORE POP DUP2 ADD SWAP1 PUSH2 0x5DF SWAP2 SWAP1 PUSH2 0x48F3 JUMP JUMPDEST ISZERO PUSH2 0x71A JUMPI PUSH1 0x5 PUSH1 0x0 SWAP1 SLOAD SWAP1 PUSH2 0x100 EXP SWAP1 DIV PUSH20 0xFFFFFFFFFFFFFFFFFFFFFFFFFFFFFFFFFFFFFFFF AND PUSH20 0xFFFFFFFFFFFFFFFFFFFFFFFFFFFFFFFFFFFFFFFF AND PUSH4 0x5B7BE18A PUSH3 0x1E8480 PUSH1 0x5 PUSH1 0x0 SWAP1 SLOAD SWAP1 PUSH2 0x100 EXP SWAP1 DIV PUSH20 0xFFFFFFFFFFFFFFFFFFFFFFFFFFFFFFFFFFFFFFFF AND PUSH20 0xFFFFFFFFFFFFFFFFFFFFFFFFFFFFFFFFFFFFFFFF AND PUSH4 0x23845E4B PUSH1 0x40 MLOAD DUP2 PUSH4 0xFFFFFFFF AND PUSH1 0xE0 SHL DUP2 MSTORE PUSH1 0x4 ADD PUSH1 0x20 PUSH1 0x40 MLOAD DUP1 DUP4 SUB DUP2 DUP7 DUP1 EXTCODESIZE ISZERO DUP1 ISZERO PUSH2 0x68E JUMPI PUSH1 0x0 DUP1 REVERT JUMPDEST POP GAS STATICCALL ISZERO DUP1 ISZERO PUSH2 0x6A2 JUMPI RETURNDATASIZE PUSH1 0x0 DUP1 RETURNDATACOPY RETURNDATASIZE PUSH1 0x0 REVERT JUMPDEST POP POP POP POP PUSH1 0x40 MLOAD RETURNDATASIZE PUSH1 0x1F NOT PUSH1 0x1F DUP3 ADD AND DUP3 ADD DUP1 PUSH1 0x40 MSTORE POP DUP2 ADD SWAP1 PUSH2 0x6C6 SWAP2 SWAP1 PUSH2 0x4AAE JUMP JUMPDEST SUB PUSH1 0x40 MLOAD DUP3 PUSH4 0xFFFFFFFF AND PUSH1 0xE0 SHL DUP2 MSTORE PUSH1 0x4 ADD PUSH2 0x6E3 SWAP2 SWAP1 PUSH2 0x5CA8 JUMP JUMPDEST PUSH1 0x0 PUSH1 0x40 MLOAD DUP1 DUP4 SUB DUP2 PUSH1 0x0 DUP8 DUP1 EXTCODESIZE ISZERO DUP1 ISZERO PUSH2 0x6FD JUMPI PUSH1 0x0 DUP1 REVERT JUMPDEST POP GAS CALL ISZERO DUP1 ISZERO PUSH2 0x711 JUMPI RETURNDATASIZE PUSH1 0x0 DUP1 RETURNDATACOPY RETURNDATASIZE PUSH1 0x0 REVERT JUMPDEST POP POP POP POP PUSH2 0xCBA JUMP JUMPDEST PUSH20 0xA6EF9EA235635E328124FF3429DB9F9E91B64E2D PUSH20 0xFFFFFFFFFFFFFFFFFFFFFFFFFFFFFFFFFFFFFFFF AND DUP5 PUSH1 0x60 ADD MLOAD PUSH20 0xFFFFFFFFFFFFFFFFFFFFFFFFFFFFFFFFFFFFFFFF AND EQ DUP1 PUSH2 0x7AF JUMPI POP PUSH20 0x67460C2F56774ED27EEB8685F29F6CEC0B090B00 PUSH20 0xFFFFFFFFFFFFFFFFFFFFFFFFFFFFFFFFFFFFFFFF AND DUP5 PUSH1 0x60 ADD MLOAD PUSH20 0xFFFFFFFFFFFFFFFFFFFFFFFFFFFFFFFFFFFFFFFF AND EQ JUMPDEST PUSH2 0x7B5 JUMPI INVALID JUMPDEST PUSH20 0xA6EF9EA235635E328124FF3429DB9F9E91B64E2D PUSH20 0xFFFFFFFFFFFFFFFFFFFFFFFFFFFFFFFFFFFFFFFF AND DUP5 PUSH1 0x60 ADD MLOAD PUSH20 0xFFFFFFFFFFFFFFFFFFFFFFFFFFFFFFFFFFFFFFFF AND EQ ISZERO PUSH2 0xBA8 JUMPI PUSH1 0x0 DUP1 PUSH1 0x0 SWAP1 SLOAD SWAP1 PUSH2 0x100 EXP SWAP1 DIV PUSH20 0xFFFFFFFFFFFFFFFFFFFFFFFFFFFFFFFFFFFFFFFF AND PUSH20 0xFFFFFFFFFFFFFFFFFFFFFFFFFFFFFFFFFFFFFFFF AND PUSH4 0xF79338DE DUP7 PUSH1 0x60 ADD MLOAD PUSH1 0x40 MLOAD DUP3 PUSH4 0xFFFFFFFF AND PUSH1 0xE0 SHL DUP2 MSTORE PUSH1 0x4 ADD PUSH2 0x861 SWAP2 SWAP1 PUSH2 0x5A72 JUMP JUMPDEST PUSH1 0x20 PUSH1 0x40 MLOAD DUP1 DUP4 SUB DUP2 DUP7 DUP1 EXTCODESIZE ISZERO DUP1 ISZERO PUSH2 0x879 JUMPI PUSH1 0x0 DUP1 REVERT JUMPDEST POP GAS STATICCALL ISZERO DUP1 ISZERO PUSH2 0x88D JUMPI RETURNDATASIZE PUSH1 0x0 DUP1 RETURNDATACOPY RETURNDATASIZE PUSH1 0x0 REVERT JUMPDEST POP POP POP POP PUSH1 0x40 MLOAD RETURNDATASIZE PUSH1 0x1F NOT PUSH1 0x1F DUP3 ADD AND DUP3 ADD DUP1 PUSH1 0x40 MSTORE POP DUP2 ADD SWAP1 PUSH2 0x8B1 SWAP2 SWAP1 PUSH2 0x4986 JUMP JUMPDEST SWAP1 POP PUSH1 0x0 DUP2 PUSH20 0xFFFFFFFFFFFFFFFFFFFFFFFFFFFFFFFFFFFFFFFF AND PUSH4 0xDD62ED3E CALLER ADDRESS PUSH1 0x40 MLOAD DUP4 PUSH4 0xFFFFFFFF AND PUSH1 0xE0 SHL DUP2 MSTORE PUSH1 0x4 ADD PUSH2 0x8F0 SWAP3 SWAP2 SWAP1 PUSH2 0x5A8D JUMP JUMPDEST PUSH1 0x20 PUSH1 0x40 MLOAD DUP1 DUP4 SUB DUP2 DUP7 DUP1 EXTCODESIZE ISZERO DUP1 ISZERO PUSH2 0x908 JUMPI PUSH1 0x0 DUP1 REVERT JUMPDEST POP GAS STATICCALL ISZERO DUP1 ISZERO PUSH2 0x91C JUMPI RETURNDATASIZE PUSH1 0x0 DUP1 RETURNDATACOPY RETURNDATASIZE PUSH1 0x0 REVERT JUMPDEST POP POP POP POP PUSH1 0x40 MLOAD RETURNDATASIZE PUSH1 0x1F NOT PUSH1 0x1F DUP3 ADD AND DUP3 ADD DUP1 PUSH1 0x40 MSTORE POP DUP2 ADD SWAP1 PUSH2 0x940 SWAP2 SWAP1 PUSH2 0x4AAE JUMP JUMPDEST SWAP1 POP PUSH1 0x5 PUSH1 0x0 SWAP1 SLOAD SWAP1 PUSH2 0x100 EXP SWAP1 DIV PUSH20 0xFFFFFFFFFFFFFFFFFFFFFFFFFFFFFFFFFFFFFFFF AND PUSH20 0xFFFFFFFFFFFFFFFFFFFFFFFFFFFFFFFFFFFFFFFF AND PUSH4 0xD5B91A92 DUP5 PUSH1 0x12 PUSH1 0x40 MLOAD DUP4 PUSH4 0xFFFFFFFF AND PUSH1 0xE0 SHL DUP2 MSTORE PUSH1 0x4 ADD PUSH2 0x9A0 SWAP3 SWAP2 SWAP1 PUSH2 0x5D67 JUMP JUMPDEST PUSH1 0x20 PUSH1 0x40 MLOAD DUP1 DUP4 SUB DUP2 DUP7 DUP1 EXTCODESIZE ISZERO DUP1 ISZERO PUSH2 0x9B8 JUMPI PUSH1 0x0 DUP1 REVERT JUMPDEST POP GAS STATICCALL ISZERO DUP1 ISZERO PUSH2 0x9CC JUMPI RETURNDATASIZE PUSH1 0x0 DUP1 RETURNDATACOPY RETURNDATASIZE PUSH1 0x0 REVERT JUMPDEST POP POP POP POP PUSH1 0x40 MLOAD RETURNDATASIZE PUSH1 0x1F NOT PUSH1 0x1F DUP3 ADD AND DUP3 ADD DUP1 PUSH1 0x40 MSTORE POP DUP2 ADD SWAP1 PUSH2 0x9F0 SWAP2 SWAP1 PUSH2 0x4AAE JUMP JUMPDEST DUP2 LT ISZERO PUSH2 0x9F9 JUMPI INVALID JUMPDEST DUP2 PUSH20 0xFFFFFFFFFFFFFFFFFFFFFFFFFFFFFFFFFFFFFFFF AND PUSH4 0x23B872DD CALLER ADDRESS PUSH1 0x5 PUSH1 0x0 SWAP1 SLOAD SWAP1 PUSH2 0x100 EXP SWAP1 DIV PUSH20 0xFFFFFFFFFFFFFFFFFFFFFFFFFFFFFFFFFFFFFFFF AND PUSH20 0xFFFFFFFFFFFFFFFFFFFFFFFFFFFFFFFFFFFFFFFF AND PUSH4 0xD5B91A92 DUP9 PUSH1 0x12 PUSH1 0x40 MLOAD DUP4 PUSH4 0xFFFFFFFF AND PUSH1 0xE0 SHL DUP2 MSTORE PUSH1 0x4 ADD PUSH2 0xA75 SWAP3 SWAP2 SWAP1 PUSH2 0x5D67 JUMP JUMPDEST PUSH1 0x20 PUSH1 0x40 MLOAD DUP1 DUP4 SUB DUP2 DUP7 DUP1 EXTCODESIZE ISZERO DUP1 ISZERO PUSH2 0xA8D JUMPI PUSH1 0x0 DUP1 REVERT JUMPDEST POP GAS STATICCALL ISZERO DUP1 ISZERO PUSH2 0xAA1 JUMPI RETURNDATASIZE PUSH1 0x0 DUP1 RETURNDATACOPY RETURNDATASIZE PUSH1 0x0 REVERT JUMPDEST POP POP POP POP PUSH1 0x40 MLOAD RETURNDATASIZE PUSH1 0x1F NOT PUSH1 0x1F DUP3 ADD AND DUP3 ADD DUP1 PUSH1 0x40 MSTORE POP DUP2 ADD SWAP1 PUSH2 0xAC5 SWAP2 SWAP1 PUSH2 0x4AAE JUMP JUMPDEST PUSH1 0x40 MLOAD DUP5 PUSH4 0xFFFFFFFF AND PUSH1 0xE0 SHL DUP2 MSTORE PUSH1 0x4 ADD PUSH2 0xAE3 SWAP4 SWAP3 SWAP2 SWAP1 PUSH2 0x5AB6 JUMP JUMPDEST PUSH1 0x20 PUSH1 0x40 MLOAD DUP1 DUP4 SUB DUP2 PUSH1 0x0 DUP8 DUP1 EXTCODESIZE ISZERO DUP1 ISZERO PUSH2 0xAFD JUMPI PUSH1 0x0 DUP1 REVERT JUMPDEST POP GAS CALL ISZERO DUP1 ISZERO PUSH2 0xB11 JUMPI RETURNDATASIZE PUSH1 0x0 DUP1 RETURNDATACOPY RETURNDATASIZE PUSH1 0x0 REVERT JUMPDEST POP POP POP POP PUSH1 0x40 MLOAD RETURNDATASIZE PUSH1 0x1F NOT PUSH1 0x1F DUP3 ADD AND DUP3 ADD DUP1 PUSH1 0x40 MSTORE POP DUP2 ADD SWAP1 PUSH2 0xB35 SWAP2 SWAP1 PUSH2 0x48F3 JUMP JUMPDEST POP DUP2 PUSH20 0xFFFFFFFFFFFFFFFFFFFFFFFFFFFFFFFFFFFFFFFF AND PUSH4 0x42966C68 DUP5 PUSH1 0x40 MLOAD DUP3 PUSH4 0xFFFFFFFF AND PUSH1 0xE0 SHL DUP2 MSTORE PUSH1 0x4 ADD PUSH2 0xB6F SWAP2 SWAP1 PUSH2 0x5CA8 JUMP JUMPDEST PUSH1 0x0 PUSH1 0x40 MLOAD DUP1 DUP4 SUB DUP2 PUSH1 0x0 DUP8 DUP1 EXTCODESIZE ISZERO DUP1 ISZERO PUSH2 0xB89 JUMPI PUSH1 0x0 DUP1 REVERT JUMPDEST POP GAS CALL ISZERO DUP1 ISZERO PUSH2 0xB9D JUMPI RETURNDATASIZE PUSH1 0x0 DUP1 RETURNDATACOPY RETURNDATASIZE PUSH1 0x0 REVERT JUMPDEST POP POP POP POP POP POP PUSH2 0xCB9 JUMP JUMPDEST PUSH20 0x67460C2F56774ED27EEB8685F29F6CEC0B090B00 PUSH20 0xFFFFFFFFFFFFFFFFFFFFFFFFFFFFFFFFFFFFFFFF AND DUP5 PUSH1 0x60 ADD MLOAD PUSH20 0xFFFFFFFFFFFFFFFFFFFFFFFFFFFFFFFFFFFFFFFF AND EQ ISZERO PUSH2 0xCB8 JUMPI PUSH1 0x3 DUP3 MUL SWAP2 POP PUSH1 0x5 PUSH1 0x0 SWAP1 SLOAD SWAP1 PUSH2 0x100 EXP SWAP1 DIV PUSH20 0xFFFFFFFFFFFFFFFFFFFFFFFFFFFFFFFFFFFFFFFF AND PUSH20 0xFFFFFFFFFFFFFFFFFFFFFFFFFFFFFFFFFFFFFFFF AND PUSH4 0xD5B91A92 DUP6 PUSH1 0x80 ADD MLOAD PUSH1 0x12 PUSH1 0x40 MLOAD DUP4 PUSH4 0xFFFFFFFF AND PUSH1 0xE0 SHL DUP2 MSTORE PUSH1 0x4 ADD PUSH2 0xC5C SWAP3 SWAP2 SWAP1 PUSH2 0x5D67 JUMP JUMPDEST PUSH1 0x20 PUSH1 0x40 MLOAD DUP1 DUP4 SUB DUP2 DUP7 DUP1 EXTCODESIZE ISZERO DUP1 ISZERO PUSH2 0xC74 JUMPI PUSH1 0x0 DUP1 REVERT JUMPDEST POP GAS STATICCALL ISZERO DUP1 ISZERO PUSH2 0xC88 JUMPI RETURNDATASIZE PUSH1 0x0 DUP1 RETURNDATACOPY RETURNDATASIZE PUSH1 0x0 REVERT JUMPDEST POP POP POP POP PUSH1 0x40 MLOAD RETURNDATASIZE PUSH1 0x1F NOT PUSH1 0x1F DUP3 ADD AND DUP3 ADD DUP1 PUSH1 0x40 MSTORE POP DUP2 ADD SWAP1 PUSH2 0xCAC SWAP2 SWAP1 PUSH2 0x4AAE JUMP JUMPDEST DUP3 ADD DUP4 LT ISZERO PUSH2 0xCB7 JUMPI INVALID JUMPDEST JUMPDEST JUMPDEST JUMPDEST PUSH20 0x67460C2F56774ED27EEB8685F29F6CEC0B090B00 PUSH20 0xFFFFFFFFFFFFFFFFFFFFFFFFFFFFFFFFFFFFFFFF AND DUP5 PUSH1 0x20 ADD MLOAD PUSH1 0x0 ADD MLOAD PUSH20 0xFFFFFFFFFFFFFFFFFFFFFFFFFFFFFFFFFFFFFFFF AND EQ PUSH2 0x128F JUMPI PUSH1 0x5 PUSH1 0x0 SWAP1 SLOAD SWAP1 PUSH2 0x100 EXP SWAP1 DIV PUSH20 0xFFFFFFFFFFFFFFFFFFFFFFFFFFFFFFFFFFFFFFFF AND PUSH20 0xFFFFFFFFFFFFFFFFFFFFFFFFFFFFFFFFFFFFFFFF AND PUSH4 0x717AA9CD DUP5 PUSH1 0x5 PUSH1 0x0 SWAP1 SLOAD SWAP1 PUSH2 0x100 EXP SWAP1 DIV PUSH20 0xFFFFFFFFFFFFFFFFFFFFFFFFFFFFFFFFFFFFFFFF AND PUSH20 0xFFFFFFFFFFFFFFFFFFFFFFFFFFFFFFFFFFFFFFFF AND PUSH4 0x9105F245 PUSH1 0x40 MLOAD DUP2 PUSH4 0xFFFFFFFF AND PUSH1 0xE0 SHL DUP2 MSTORE PUSH1 0x4 ADD PUSH1 0x20 PUSH1 0x40 MLOAD DUP1 DUP4 SUB DUP2 DUP7 DUP1 EXTCODESIZE ISZERO DUP1 ISZERO PUSH2 0xDB0 JUMPI PUSH1 0x0 DUP1 REVERT JUMPDEST POP GAS STATICCALL ISZERO DUP1 ISZERO PUSH2 0xDC4 JUMPI RETURNDATASIZE PUSH1 0x0 DUP1 RETURNDATACOPY RETURNDATASIZE PUSH1 0x0 REVERT JUMPDEST POP POP POP POP PUSH1 0x40 MLOAD RETURNDATASIZE PUSH1 0x1F NOT PUSH1 0x1F DUP3 ADD AND DUP3 ADD DUP1 PUSH1 0x40 MSTORE POP DUP2 ADD SWAP1 PUSH2 0xDE8 SWAP2 SWAP1 PUSH2 0x4AAE JUMP JUMPDEST ADD PUSH1 0x40 MLOAD DUP3 PUSH4 0xFFFFFFFF AND PUSH1 0xE0 SHL DUP2 MSTORE PUSH1 0x4 ADD PUSH2 0xE05 SWAP2 SWAP1 PUSH2 0x5CA8 JUMP JUMPDEST PUSH1 0x0 PUSH1 0x40 MLOAD DUP1 DUP4 SUB DUP2 PUSH1 0x0 DUP8 DUP1 EXTCODESIZE ISZERO DUP1 ISZERO PUSH2 0xE1F JUMPI PUSH1 0x0 DUP1 REVERT JUMPDEST POP GAS CALL ISZERO DUP1 ISZERO PUSH2 0xE33 JUMPI RETURNDATASIZE PUSH1 0x0 DUP1 RETURNDATACOPY RETURNDATASIZE PUSH1 0x0 REVERT JUMPDEST POP POP POP POP PUSH1 0x0 DUP1 PUSH1 0x0 SWAP1 SLOAD SWAP1 PUSH2 0x100 EXP SWAP1 DIV PUSH20 0xFFFFFFFFFFFFFFFFFFFFFFFFFFFFFFFFFFFFFFFF AND PUSH20 0xFFFFFFFFFFFFFFFFFFFFFFFFFFFFFFFFFFFFFFFF AND PUSH4 0xF79338DE DUP7 PUSH1 0x20 ADD MLOAD PUSH1 0x0 ADD MLOAD PUSH1 0x40 MLOAD DUP3 PUSH4 0xFFFFFFFF AND PUSH1 0xE0 SHL DUP2 MSTORE PUSH1 0x4 ADD PUSH2 0xE9B SWAP2 SWAP1 PUSH2 0x5A72 JUMP JUMPDEST PUSH1 0x20 PUSH1 0x40 MLOAD DUP1 DUP4 SUB DUP2 DUP7 DUP1 EXTCODESIZE ISZERO DUP1 ISZERO PUSH2 0xEB3 JUMPI PUSH1 0x0 DUP1 REVERT JUMPDEST POP GAS STATICCALL ISZERO DUP1 ISZERO PUSH2 0xEC7 JUMPI RETURNDATASIZE PUSH1 0x0 DUP1 RETURNDATACOPY RETURNDATASIZE PUSH1 0x0 REVERT JUMPDEST POP POP POP POP PUSH1 0x40 MLOAD RETURNDATASIZE PUSH1 0x1F NOT PUSH1 0x1F DUP3 ADD AND DUP3 ADD DUP1 PUSH1 0x40 MSTORE POP DUP2 ADD SWAP1 PUSH2 0xEEB SWAP2 SWAP1 PUSH2 0x4986 JUMP JUMPDEST SWAP1 POP PUSH1 0x0 DUP2 PUSH20 0xFFFFFFFFFFFFFFFFFFFFFFFFFFFFFFFFFFFFFFFF AND PUSH4 0xDD62ED3E CALLER ADDRESS PUSH1 0x40 MLOAD DUP4 PUSH4 0xFFFFFFFF AND PUSH1 0xE0 SHL DUP2 MSTORE PUSH1 0x4 ADD PUSH2 0xF2A SWAP3 SWAP2 SWAP1 PUSH2 0x5A8D JUMP JUMPDEST PUSH1 0x20 PUSH1 0x40 MLOAD DUP1 DUP4 SUB DUP2 DUP7 DUP1 EXTCODESIZE ISZERO DUP1 ISZERO PUSH2 0xF42 JUMPI PUSH1 0x0 DUP1 REVERT JUMPDEST POP GAS STATICCALL ISZERO DUP1 ISZERO PUSH2 0xF56 JUMPI RETURNDATASIZE PUSH1 0x0 DUP1 RETURNDATACOPY RETURNDATASIZE PUSH1 0x0 REVERT JUMPDEST POP POP POP POP PUSH1 0x40 MLOAD RETURNDATASIZE PUSH1 0x1F NOT PUSH1 0x1F DUP3 ADD AND DUP3 ADD DUP1 PUSH1 0x40 MSTORE POP DUP2 ADD SWAP1 PUSH2 0xF7A SWAP2 SWAP1 PUSH2 0x4AAE JUMP JUMPDEST SWAP1 POP PUSH1 0x0 PUSH1 0x5 PUSH1 0x0 SWAP1 SLOAD SWAP1 PUSH2 0x100 EXP SWAP1 DIV PUSH20 0xFFFFFFFFFFFFFFFFFFFFFFFFFFFFFFFFFFFFFFFF AND PUSH20 0xFFFFFFFFFFFFFFFFFFFFFFFFFFFFFFFFFFFFFFFF AND PUSH4 0xD5B91A92 DUP9 PUSH1 0x20 ADD MLOAD PUSH1 0x20 ADD MLOAD DUP6 PUSH20 0xFFFFFFFFFFFFFFFFFFFFFFFFFFFFFFFFFFFFFFFF AND PUSH4 0x313CE567 PUSH1 0x40 MLOAD DUP2 PUSH4 0xFFFFFFFF AND PUSH1 0xE0 SHL DUP2 MSTORE PUSH1 0x4 ADD PUSH1 0x20 PUSH1 0x40 MLOAD DUP1 DUP4 SUB DUP2 DUP7 DUP1 EXTCODESIZE ISZERO DUP1 ISZERO PUSH2 0x100B JUMPI PUSH1 0x0 DUP1 REVERT JUMPDEST POP GAS STATICCALL ISZERO DUP1 ISZERO PUSH2 0x101F JUMPI RETURNDATASIZE PUSH1 0x0 DUP1 RETURNDATACOPY RETURNDATASIZE PUSH1 0x0 REVERT JUMPDEST POP POP POP POP PUSH1 0x40 MLOAD RETURNDATASIZE PUSH1 0x1F NOT PUSH1 0x1F DUP3 ADD AND DUP3 ADD DUP1 PUSH1 0x40 MSTORE POP DUP2 ADD SWAP1 PUSH2 0x1043 SWAP2 SWAP1 PUSH2 0x4B3C JUMP JUMPDEST PUSH1 0x40 MLOAD DUP4 PUSH4 0xFFFFFFFF AND PUSH1 0xE0 SHL DUP2 MSTORE PUSH1 0x4 ADD PUSH2 0x1060 SWAP3 SWAP2 SWAP1 PUSH2 0x5E25 JUMP JUMPDEST PUSH1 0x20 PUSH1 0x40 MLOAD DUP1 DUP4 SUB DUP2 DUP7 DUP1 EXTCODESIZE ISZERO DUP1 ISZERO PUSH2 0x1078 JUMPI PUSH1 0x0 DUP1 REVERT JUMPDEST POP GAS STATICCALL ISZERO DUP1 ISZERO PUSH2 0x108C JUMPI RETURNDATASIZE PUSH1 0x0 DUP1 RETURNDATACOPY RETURNDATASIZE PUSH1 0x0 REVERT JUMPDEST POP POP POP POP PUSH1 0x40 MLOAD RETURNDATASIZE PUSH1 0x1F NOT PUSH1 0x1F DUP3 ADD AND DUP3 ADD DUP1 PUSH1 0x40 MSTORE POP DUP2 ADD SWAP1 PUSH2 0x10B0 SWAP2 SWAP1 PUSH2 0x4AAE JUMP JUMPDEST SWAP1 POP DUP1 DUP3 LT ISZERO PUSH2 0x10BC JUMPI INVALID JUMPDEST DUP3 PUSH20 0xFFFFFFFFFFFFFFFFFFFFFFFFFFFFFFFFFFFFFFFF AND PUSH4 0x23B872DD CALLER ADDRESS DUP5 PUSH1 0x40 MLOAD DUP5 PUSH4 0xFFFFFFFF AND PUSH1 0xE0 SHL DUP2 MSTORE PUSH1 0x4 ADD PUSH2 0x10F9 SWAP4 SWAP3 SWAP2 SWAP1 PUSH2 0x5AB6 JUMP JUMPDEST PUSH1 0x20 PUSH1 0x40 MLOAD DUP1 DUP4 SUB DUP2 PUSH1 0x0 DUP8 DUP1 EXTCODESIZE ISZERO DUP1 ISZERO PUSH2 0x1113 JUMPI PUSH1 0x0 DUP1 REVERT JUMPDEST POP GAS CALL ISZERO DUP1 ISZERO PUSH2 0x1127 JUMPI RETURNDATASIZE PUSH1 0x0 DUP1 RETURNDATACOPY RETURNDATASIZE PUSH1 0x0 REVERT JUMPDEST POP POP POP POP PUSH1 0x40 MLOAD RETURNDATASIZE PUSH1 0x1F NOT PUSH1 0x1F DUP3 ADD AND DUP3 ADD DUP1 PUSH1 0x40 MSTORE POP DUP2 ADD SWAP1 PUSH2 0x114B SWAP2 SWAP1 PUSH2 0x48F3 JUMP JUMPDEST POP DUP3 PUSH20 0xFFFFFFFFFFFFFFFFFFFFFFFFFFFFFFFFFFFFFFFF AND PUSH4 0x95EA7B3 PUSH1 0x0 DUP1 SLOAD SWAP1 PUSH2 0x100 EXP SWAP1 DIV PUSH20 0xFFFFFFFFFFFFFFFFFFFFFFFFFFFFFFFFFFFFFFFF AND DUP4 PUSH1 0x40 MLOAD DUP4 PUSH4 0xFFFFFFFF AND PUSH1 0xE0 SHL DUP2 MSTORE PUSH1 0x4 ADD PUSH2 0x11A7 SWAP3 SWAP2 SWAP1 PUSH2 0x5B16 JUMP JUMPDEST PUSH1 0x20 PUSH1 0x40 MLOAD DUP1 DUP4 SUB DUP2 PUSH1 0x0 DUP8 DUP1 EXTCODESIZE ISZERO DUP1 ISZERO PUSH2 0x11C1 JUMPI PUSH1 0x0 DUP1 REVERT JUMPDEST POP GAS CALL ISZERO DUP1 ISZERO PUSH2 0x11D5 JUMPI RETURNDATASIZE PUSH1 0x0 DUP1 RETURNDATACOPY RETURNDATASIZE PUSH1 0x0 REVERT JUMPDEST POP POP POP POP PUSH1 0x40 MLOAD RETURNDATASIZE PUSH1 0x1F NOT PUSH1 0x1F DUP3 ADD AND DUP3 ADD DUP1 PUSH1 0x40 MSTORE POP DUP2 ADD SWAP1 PUSH2 0x11F9 SWAP2 SWAP1 PUSH2 0x48F3 JUMP JUMPDEST POP PUSH1 0x0 DUP1 SLOAD SWAP1 PUSH2 0x100 EXP SWAP1 DIV PUSH20 0xFFFFFFFFFFFFFFFFFFFFFFFFFFFFFFFFFFFFFFFF AND PUSH20 0xFFFFFFFFFFFFFFFFFFFFFFFFFFFFFFFFFFFFFFFF AND PUSH4 0x9033EF3F DUP5 DUP4 PUSH1 0x40 MLOAD DUP4 PUSH4 0xFFFFFFFF AND PUSH1 0xE0 SHL DUP2 MSTORE PUSH1 0x4 ADD PUSH2 0x1255 SWAP3 SWAP2 SWAP1 PUSH2 0x5B16 JUMP JUMPDEST PUSH1 0x0 PUSH1 0x40 MLOAD DUP1 DUP4 SUB DUP2 PUSH1 0x0 DUP8 DUP1 EXTCODESIZE ISZERO DUP1 ISZERO PUSH2 0x126F JUMPI PUSH1 0x0 DUP1 REVERT JUMPDEST POP GAS CALL ISZERO DUP1 ISZERO PUSH2 0x1283 JUMPI RETURNDATASIZE PUSH1 0x0 DUP1 RETURNDATACOPY RETURNDATASIZE PUSH1 0x0 REVERT JUMPDEST POP POP POP POP POP POP POP PUSH2 0x15DD JUMP JUMPDEST PUSH1 0x5 PUSH1 0x0 SWAP1 SLOAD SWAP1 PUSH2 0x100 EXP SWAP1 DIV PUSH20 0xFFFFFFFFFFFFFFFFFFFFFFFFFFFFFFFFFFFFFFFF AND PUSH20 0xFFFFFFFFFFFFFFFFFFFFFFFFFFFFFFFFFFFFFFFF AND PUSH4 0x38EB07E1 PUSH6 0x5AF3107A4000 DUP6 SUB PUSH1 0x12 PUSH1 0x40 MLOAD DUP4 PUSH4 0xFFFFFFFF AND PUSH1 0xE0 SHL DUP2 MSTORE PUSH1 0x4 ADD PUSH2 0x12F5 SWAP3 SWAP2 SWAP1 PUSH2 0x5D67 JUMP JUMPDEST PUSH1 0x20 PUSH1 0x40 MLOAD DUP1 DUP4 SUB DUP2 DUP7 DUP1 EXTCODESIZE ISZERO DUP1 ISZERO PUSH2 0x130D JUMPI PUSH1 0x0 DUP1 REVERT JUMPDEST POP GAS STATICCALL ISZERO DUP1 ISZERO PUSH2 0x1321 JUMPI RETURNDATASIZE PUSH1 0x0 DUP1 RETURNDATACOPY RETURNDATASIZE PUSH1 0x0 REVERT JUMPDEST POP POP POP POP PUSH1 0x40 MLOAD RETURNDATASIZE PUSH1 0x1F NOT PUSH1 0x1F DUP3 ADD AND DUP3 ADD DUP1 PUSH1 0x40 MSTORE POP DUP2 ADD SWAP1 PUSH2 0x1345 SWAP2 SWAP1 PUSH2 0x4AAE JUMP JUMPDEST DUP5 PUSH1 0x20 ADD MLOAD PUSH1 0x20 ADD SWAP1 PUSH8 0xFFFFFFFFFFFFFFFF AND SWAP1 DUP2 PUSH8 0xFFFFFFFFFFFFFFFF AND DUP2 MSTORE POP POP PUSH1 0x5 PUSH1 0x0 SWAP1 SLOAD SWAP1 PUSH2 0x100 EXP SWAP1 DIV PUSH20 0xFFFFFFFFFFFFFFFFFFFFFFFFFFFFFFFFFFFFFFFF AND PUSH20 0xFFFFFFFFFFFFFFFFFFFFFFFFFFFFFFFFFFFFFFFF AND PUSH4 0xDD1A8F90 DUP6 PUSH1 0x20 ADD MLOAD PUSH1 0x20 ADD MLOAD PUSH8 0xFFFFFFFFFFFFFFFF AND PUSH1 0x5 PUSH1 0x0 SWAP1 SLOAD SWAP1 PUSH2 0x100 EXP SWAP1 DIV PUSH20 0xFFFFFFFFFFFFFFFFFFFFFFFFFFFFFFFFFFFFFFFF AND PUSH20 0xFFFFFFFFFFFFFFFFFFFFFFFFFFFFFFFFFFFFFFFF AND PUSH4 0x3E15102E PUSH1 0x40 MLOAD DUP2 PUSH4 0xFFFFFFFF AND PUSH1 0xE0 SHL DUP2 MSTORE PUSH1 0x4 ADD PUSH1 0x20 PUSH1 0x40 MLOAD DUP1 DUP4 SUB DUP2 DUP7 DUP1 EXTCODESIZE ISZERO DUP1 ISZERO PUSH2 0x1421 JUMPI PUSH1 0x0 DUP1 REVERT JUMPDEST POP GAS STATICCALL ISZERO DUP1 ISZERO PUSH2 0x1435 JUMPI RETURNDATASIZE PUSH1 0x0 DUP1 RETURNDATACOPY RETURNDATASIZE PUSH1 0x0 REVERT JUMPDEST POP POP POP POP PUSH1 0x40 MLOAD RETURNDATASIZE PUSH1 0x1F NOT PUSH1 0x1F DUP3 ADD AND DUP3 ADD DUP1 PUSH1 0x40 MSTORE POP DUP2 ADD SWAP1 PUSH2 0x1459 SWAP2 SWAP1 PUSH2 0x4AAE JUMP JUMPDEST ADD PUSH1 0x40 MLOAD DUP3 PUSH4 0xFFFFFFFF AND PUSH1 0xE0 SHL DUP2 MSTORE PUSH1 0x4 ADD PUSH2 0x1476 SWAP2 SWAP1 PUSH2 0x5CA8 JUMP JUMPDEST PUSH1 0x0 PUSH1 0x40 MLOAD DUP1 DUP4 SUB DUP2 PUSH1 0x0 DUP8 DUP1 EXTCODESIZE ISZERO DUP1 ISZERO PUSH2 0x1490 JUMPI PUSH1 0x0 DUP1 REVERT JUMPDEST POP GAS CALL ISZERO DUP1 ISZERO PUSH2 0x14A4 JUMPI RETURNDATASIZE PUSH1 0x0 DUP1 RETURNDATACOPY RETURNDATASIZE PUSH1 0x0 REVERT JUMPDEST POP POP POP POP PUSH1 0x5 PUSH1 0x0 SWAP1 SLOAD SWAP1 PUSH2 0x100 EXP SWAP1 DIV PUSH20 0xFFFFFFFFFFFFFFFFFFFFFFFFFFFFFFFFFFFFFFFF AND PUSH20 0xFFFFFFFFFFFFFFFFFFFFFFFFFFFFFFFFFFFFFFFF AND PUSH4 0x717AA9CD PUSH6 0x5AF3107A4000 PUSH1 0x5 PUSH1 0x0 SWAP1 SLOAD SWAP1 PUSH2 0x100 EXP SWAP1 DIV PUSH20 0xFFFFFFFFFFFFFFFFFFFFFFFFFFFFFFFFFFFFFFFF AND PUSH20 0xFFFFFFFFFFFFFFFFFFFFFFFFFFFFFFFFFFFFFFFF AND PUSH4 0x9105F245 PUSH1 0x40 MLOAD DUP2 PUSH4 0xFFFFFFFF AND PUSH1 0xE0 SHL DUP2 MSTORE PUSH1 0x4 ADD PUSH1 0x20 PUSH1 0x40 MLOAD DUP1 DUP4 SUB DUP2 DUP7 DUP1 EXTCODESIZE ISZERO DUP1 ISZERO PUSH2 0x1555 JUMPI PUSH1 0x0 DUP1 REVERT JUMPDEST POP GAS STATICCALL ISZERO DUP1 ISZERO PUSH2 0x1569 JUMPI RETURNDATASIZE PUSH1 0x0 DUP1 RETURNDATACOPY RETURNDATASIZE PUSH1 0x0 REVERT JUMPDEST POP POP POP POP PUSH1 0x40 MLOAD RETURNDATASIZE PUSH1 0x1F NOT PUSH1 0x1F DUP3 ADD AND DUP3 ADD DUP1 PUSH1 0x40 MSTORE POP DUP2 ADD SWAP1 PUSH2 0x158D SWAP2 SWAP1 PUSH2 0x4AAE JUMP JUMPDEST ADD PUSH1 0x40 MLOAD DUP3 PUSH4 0xFFFFFFFF AND PUSH1 0xE0 SHL DUP2 MSTORE PUSH1 0x4 ADD PUSH2 0x15AA SWAP2 SWAP1 PUSH2 0x5CA8 JUMP JUMPDEST PUSH1 0x0 PUSH1 0x40 MLOAD DUP1 DUP4 SUB DUP2 PUSH1 0x0 DUP8 DUP1 EXTCODESIZE ISZERO DUP1 ISZERO PUSH2 0x15C4 JUMPI PUSH1 0x0 DUP1 REVERT JUMPDEST POP GAS CALL ISZERO DUP1 ISZERO PUSH2 0x15D8 JUMPI RETURNDATASIZE PUSH1 0x0 DUP1 RETURNDATACOPY RETURNDATASIZE PUSH1 0x0 REVERT JUMPDEST POP POP POP POP JUMPDEST PUSH2 0x15E6 DUP5 PUSH2 0x28D4 JUMP JUMPDEST POP POP POP POP JUMP JUMPDEST PUSH1 0x8 SLOAD DUP2 JUMP JUMPDEST PUSH1 0x7 PUSH1 0x0 SWAP1 SLOAD SWAP1 PUSH2 0x100 EXP SWAP1 DIV PUSH20 0xFFFFFFFFFFFFFFFFFFFFFFFFFFFFFFFFFFFFFFFF AND DUP2 JUMP JUMPDEST PUSH2 0x1620 PUSH2 0x32A7 JUMP JUMPDEST PUSH1 0x0 PUSH1 0xF PUSH1 0x0 DUP5 DUP2 MSTORE PUSH1 0x20 ADD SWAP1 DUP2 MSTORE PUSH1 0x20 ADD PUSH1 0x0 KECCAK256 PUSH1 0x0 ADD SLOAD SWAP1 POP PUSH1 0x0 PUSH1 0x40 MLOAD DUP1 PUSH1 0x80 ADD PUSH1 0x40 MSTORE DUP1 DUP4 DUP2 MSTORE PUSH1 0x20 ADD DUP6 DUP2 MSTORE PUSH1 0x20 ADD PUSH1 0x9 DUP5 DUP2 SLOAD DUP2 LT PUSH2 0x1661 JUMPI INVALID JUMPDEST SWAP1 PUSH1 0x0 MSTORE PUSH1 0x20 PUSH1 0x0 KECCAK256 ADD SLOAD DUP2 MSTORE PUSH1 0x20 ADD PUSH1 0xB DUP5 DUP2 SLOAD DUP2 LT PUSH2 0x167E JUMPI INVALID JUMPDEST SWAP1 PUSH1 0x0 MSTORE PUSH1 0x20 PUSH1 0x0 KECCAK256 ADD DUP1 SLOAD DUP1 PUSH1 0x20 MUL PUSH1 0x20 ADD PUSH1 0x40 MLOAD SWAP1 DUP2 ADD PUSH1 0x40 MSTORE DUP1 SWAP3 SWAP2 SWAP1 DUP2 DUP2 MSTORE PUSH1 0x20 ADD PUSH1 0x0 SWAP1 JUMPDEST DUP3 DUP3 LT ISZERO PUSH2 0x19F8 JUMPI DUP4 DUP3 SWAP1 PUSH1 0x0 MSTORE PUSH1 0x20 PUSH1 0x0 KECCAK256 SWAP1 PUSH1 0x9 MUL ADD PUSH1 0x40 MLOAD DUP1 PUSH2 0x120 ADD PUSH1 0x40 MSTORE SWAP1 DUP2 PUSH1 0x0 DUP3 ADD PUSH1 0x0 SWAP1 SLOAD SWAP1 PUSH2 0x100 EXP SWAP1 DIV PUSH4 0xFFFFFFFF AND PUSH4 0xFFFFFFFF AND PUSH4 0xFFFFFFFF AND DUP2 MSTORE PUSH1 0x20 ADD PUSH1 0x1 DUP3 ADD PUSH1 0x40 MLOAD DUP1 PUSH1 0x40 ADD PUSH1 0x40 MSTORE SWAP1 DUP2 PUSH1 0x0 DUP3 ADD PUSH1 0x0 SWAP1 SLOAD SWAP1 PUSH2 0x100 EXP SWAP1 DIV PUSH20 0xFFFFFFFFFFFFFFFFFFFFFFFFFFFFFFFFFFFFFFFF AND PUSH20 0xFFFFFFFFFFFFFFFFFFFFFFFFFFFFFFFFFFFFFFFF AND PUSH20 0xFFFFFFFFFFFFFFFFFFFFFFFFFFFFFFFFFFFFFFFF AND DUP2 MSTORE PUSH1 0x20 ADD PUSH1 0x0 DUP3 ADD PUSH1 0x14 SWAP1 SLOAD SWAP1 PUSH2 0x100 EXP SWAP1 DIV PUSH8 0xFFFFFFFFFFFFFFFF AND PUSH8 0xFFFFFFFFFFFFFFFF AND PUSH8 0xFFFFFFFFFFFFFFFF AND DUP2 MSTORE POP POP DUP2 MSTORE PUSH1 0x20 ADD PUSH1 0x2 DUP3 ADD PUSH1 0x0 SWAP1 SLOAD SWAP1 PUSH2 0x100 EXP SWAP1 DIV PUSH4 0xFFFFFFFF AND PUSH4 0xFFFFFFFF AND PUSH4 0xFFFFFFFF AND DUP2 MSTORE PUSH1 0x20 ADD PUSH1 0x2 DUP3 ADD PUSH1 0x4 SWAP1 SLOAD SWAP1 PUSH2 0x100 EXP SWAP1 DIV PUSH20 0xFFFFFFFFFFFFFFFFFFFFFFFFFFFFFFFFFFFFFFFF AND PUSH20 0xFFFFFFFFFFFFFFFFFFFFFFFFFFFFFFFFFFFFFFFF AND PUSH20 0xFFFFFFFFFFFFFFFFFFFFFFFFFFFFFFFFFFFFFFFF AND DUP2 MSTORE PUSH1 0x20 ADD PUSH1 0x3 DUP3 ADD SLOAD DUP2 MSTORE PUSH1 0x20 ADD PUSH1 0x4 DUP3 ADD PUSH1 0x40 MLOAD DUP1 PUSH1 0x40 ADD PUSH1 0x40 MSTORE SWAP1 DUP2 PUSH1 0x0 DUP3 ADD PUSH1 0x0 SWAP1 SLOAD SWAP1 PUSH2 0x100 EXP SWAP1 DIV PUSH1 0xFF AND PUSH1 0xFF AND PUSH1 0xFF AND DUP2 MSTORE PUSH1 0x20 ADD PUSH1 0x1 DUP3 ADD DUP1 SLOAD PUSH1 0x1 DUP2 PUSH1 0x1 AND ISZERO PUSH2 0x100 MUL SUB AND PUSH1 0x2 SWAP1 DIV DUP1 PUSH1 0x1F ADD PUSH1 0x20 DUP1 SWAP2 DIV MUL PUSH1 0x20 ADD PUSH1 0x40 MLOAD SWAP1 DUP2 ADD PUSH1 0x40 MSTORE DUP1 SWAP3 SWAP2 SWAP1 DUP2 DUP2 MSTORE PUSH1 0x20 ADD DUP3 DUP1 SLOAD PUSH1 0x1 DUP2 PUSH1 0x1 AND ISZERO PUSH2 0x100 MUL SUB AND PUSH1 0x2 SWAP1 DIV DUP1 ISZERO PUSH2 0x18DA JUMPI DUP1 PUSH1 0x1F LT PUSH2 0x18AF JUMPI PUSH2 0x100 DUP1 DUP4 SLOAD DIV MUL DUP4 MSTORE SWAP2 PUSH1 0x20 ADD SWAP2 PUSH2 0x18DA JUMP JUMPDEST DUP3 ADD SWAP2 SWAP1 PUSH1 0x0 MSTORE PUSH1 0x20 PUSH1 0x0 KECCAK256 SWAP1 JUMPDEST DUP2 SLOAD DUP2 MSTORE SWAP1 PUSH1 0x1 ADD SWAP1 PUSH1 0x20 ADD DUP1 DUP4 GT PUSH2 0x18BD JUMPI DUP3 SWAP1 SUB PUSH1 0x1F AND DUP3 ADD SWAP2 JUMPDEST POP POP POP POP POP DUP2 MSTORE POP POP DUP2 MSTORE PUSH1 0x20 ADD PUSH1 0x6 DUP3 ADD PUSH1 0x0 SWAP1 SLOAD SWAP1 PUSH2 0x100 EXP SWAP1 DIV PUSH20 0xFFFFFFFFFFFFFFFFFFFFFFFFFFFFFFFFFFFFFFFF AND PUSH20 0xFFFFFFFFFFFFFFFFFFFFFFFFFFFFFFFFFFFFFFFF AND PUSH20 0xFFFFFFFFFFFFFFFFFFFFFFFFFFFFFFFFFFFFFFFF AND DUP2 MSTORE PUSH1 0x20 ADD PUSH1 0x7 DUP3 ADD PUSH1 0x0 SWAP1 SLOAD SWAP1 PUSH2 0x100 EXP SWAP1 DIV PUSH20 0xFFFFFFFFFFFFFFFFFFFFFFFFFFFFFFFFFFFFFFFF AND PUSH20 0xFFFFFFFFFFFFFFFFFFFFFFFFFFFFFFFFFFFFFFFF AND PUSH20 0xFFFFFFFFFFFFFFFFFFFFFFFFFFFFFFFFFFFFFFFF AND DUP2 MSTORE PUSH1 0x20 ADD PUSH1 0x8 DUP3 ADD PUSH1 0x0 SWAP1 SLOAD SWAP1 PUSH2 0x100 EXP SWAP1 DIV PUSH20 0xFFFFFFFFFFFFFFFFFFFFFFFFFFFFFFFFFFFFFFFF AND PUSH20 0xFFFFFFFFFFFFFFFFFFFFFFFFFFFFFFFFFFFFFFFF AND PUSH20 0xFFFFFFFFFFFFFFFFFFFFFFFFFFFFFFFFFFFFFFFF AND DUP2 MSTORE POP POP DUP2 MSTORE PUSH1 0x20 ADD SWAP1 PUSH1 0x1 ADD SWAP1 PUSH2 0x16A8 JUMP JUMPDEST POP POP POP POP DUP2 MSTORE POP SWAP1 POP DUP1 SWAP3 POP POP POP SWAP2 SWAP1 POP JUMP JUMPDEST PUSH1 0xE PUSH1 0x20 MSTORE DUP1 PUSH1 0x0 MSTORE PUSH1 0x40 PUSH1 0x0 KECCAK256 PUSH1 0x0 SWAP2 POP SLOAD SWAP1 PUSH2 0x100 EXP SWAP1 DIV PUSH1 0xFF AND DUP2 JUMP JUMPDEST PUSH1 0x0 DUP1 PUSH1 0x0 DUP4 PUSH1 0x80 ADD MLOAD PUSH1 0x60 ADD MLOAD PUSH1 0x0 DUP2 MLOAD DUP2 LT PUSH2 0x1A45 JUMPI INVALID JUMPDEST PUSH1 0x20 MUL PUSH1 0x20 ADD ADD MLOAD PUSH1 0x40 ADD MLOAD SWAP1 POP PUSH1 0x20 DUP2 ADD MLOAD SWAP2 POP PUSH1 0x1 ISZERO ISZERO PUSH1 0xE PUSH1 0x0 DUP5 DUP2 MSTORE PUSH1 0x20 ADD SWAP1 DUP2 MSTORE PUSH1 0x20 ADD PUSH1 0x0 KECCAK256 PUSH1 0x0 SWAP1 SLOAD SWAP1 PUSH2 0x100 EXP SWAP1 DIV PUSH1 0xFF AND ISZERO ISZERO EQ ISZERO PUSH2 0x1A92 JUMPI PUSH1 0x0 SWAP3 POP POP POP PUSH2 0x2392 JUMP JUMPDEST PUSH1 0x0 PUSH1 0x2 PUSH1 0x0 SWAP1 SLOAD SWAP1 PUSH2 0x100 EXP SWAP1 DIV PUSH20 0xFFFFFFFFFFFFFFFFFFFFFFFFFFFFFFFFFFFFFFFF AND PUSH20 0xFFFFFFFFFFFFFFFFFFFFFFFFFFFFFFFFFFFFFFFF AND PUSH4 0xCD5756D DUP7 PUSH1 0x40 MLOAD DUP3 PUSH4 0xFFFFFFFF AND PUSH1 0xE0 SHL DUP2 MSTORE PUSH1 0x4 ADD PUSH2 0x1AEF SWAP2 SWAP1 PUSH2 0x5C64 JUMP JUMPDEST PUSH1 0x20 PUSH1 0x40 MLOAD DUP1 DUP4 SUB DUP2 DUP7 DUP1 EXTCODESIZE ISZERO DUP1 ISZERO PUSH2 0x1B07 JUMPI PUSH1 0x0 DUP1 REVERT JUMPDEST POP GAS STATICCALL ISZERO DUP1 ISZERO PUSH2 0x1B1B JUMPI RETURNDATASIZE PUSH1 0x0 DUP1 RETURNDATACOPY RETURNDATASIZE PUSH1 0x0 REVERT JUMPDEST POP POP POP POP PUSH1 0x40 MLOAD RETURNDATASIZE PUSH1 0x1F NOT PUSH1 0x1F DUP3 ADD AND DUP3 ADD DUP1 PUSH1 0x40 MSTORE POP DUP2 ADD SWAP1 PUSH2 0x1B3F SWAP2 SWAP1 PUSH2 0x48F3 JUMP JUMPDEST SWAP1 POP DUP1 PUSH2 0x1B48 JUMPI INVALID JUMPDEST PUSH1 0x1 PUSH1 0xE PUSH1 0x0 DUP6 DUP2 MSTORE PUSH1 0x20 ADD SWAP1 DUP2 MSTORE PUSH1 0x20 ADD PUSH1 0x0 KECCAK256 PUSH1 0x0 PUSH2 0x100 EXP DUP2 SLOAD DUP2 PUSH1 0xFF MUL NOT AND SWAP1 DUP4 ISZERO ISZERO MUL OR SWAP1 SSTORE POP DUP5 PUSH1 0x0 ADD MLOAD PUSH1 0x10 SLOAD LT ISZERO PUSH2 0x1B8E JUMPI DUP5 PUSH1 0x0 ADD MLOAD PUSH1 0x10 DUP2 SWAP1 SSTORE POP JUMPDEST PUSH1 0x0 DUP1 PUSH1 0x0 SWAP1 POP JUMPDEST DUP7 PUSH1 0xA0 ADD MLOAD MLOAD DUP2 LT ISZERO PUSH2 0x2388 JUMPI PUSH1 0x5 PUSH1 0x0 SWAP1 SLOAD SWAP1 PUSH2 0x100 EXP SWAP1 DIV PUSH20 0xFFFFFFFFFFFFFFFFFFFFFFFFFFFFFFFFFFFFFFFF AND PUSH20 0xFFFFFFFFFFFFFFFFFFFFFFFFFFFFFFFFFFFFFFFF AND PUSH4 0xD5B91A92 DUP9 PUSH1 0xA0 ADD MLOAD DUP4 DUP2 MLOAD DUP2 LT PUSH2 0x1BF1 JUMPI INVALID JUMPDEST PUSH1 0x20 MUL PUSH1 0x20 ADD ADD MLOAD PUSH1 0x20 ADD MLOAD PUSH1 0x20 ADD MLOAD PUSH8 0xFFFFFFFFFFFFFFFF AND PUSH1 0x12 PUSH1 0x40 MLOAD DUP4 PUSH4 0xFFFFFFFF AND PUSH1 0xE0 SHL DUP2 MSTORE PUSH1 0x4 ADD PUSH2 0x1C2A SWAP3 SWAP2 SWAP1 PUSH2 0x5D67 JUMP JUMPDEST PUSH1 0x20 PUSH1 0x40 MLOAD DUP1 DUP4 SUB DUP2 DUP7 DUP1 EXTCODESIZE ISZERO DUP1 ISZERO PUSH2 0x1C42 JUMPI PUSH1 0x0 DUP1 REVERT JUMPDEST POP GAS STATICCALL ISZERO DUP1 ISZERO PUSH2 0x1C56 JUMPI RETURNDATASIZE PUSH1 0x0 DUP1 RETURNDATACOPY RETURNDATASIZE PUSH1 0x0 REVERT JUMPDEST POP POP POP POP PUSH1 0x40 MLOAD RETURNDATASIZE PUSH1 0x1F NOT PUSH1 0x1F DUP3 ADD AND DUP3 ADD DUP1 PUSH1 0x40 MSTORE POP DUP2 ADD SWAP1 PUSH2 0x1C7A SWAP2 SWAP1 PUSH2 0x4AAE JUMP JUMPDEST SWAP2 POP PUSH2 0x2000 PUSH4 0xFFFFFFFF AND PUSH2 0x2000 DUP9 PUSH1 0xA0 ADD MLOAD DUP4 DUP2 MLOAD DUP2 LT PUSH2 0x1C98 JUMPI INVALID JUMPDEST PUSH1 0x20 MUL PUSH1 0x20 ADD ADD MLOAD PUSH1 0x40 ADD MLOAD AND PUSH4 0xFFFFFFFF AND EQ PUSH2 0x2148 JUMPI PUSH20 0x67460C2F56774ED27EEB8685F29F6CEC0B090B00 PUSH20 0xFFFFFFFFFFFFFFFFFFFFFFFFFFFFFFFFFFFFFFFF AND DUP8 PUSH1 0xA0 ADD MLOAD DUP3 DUP2 MLOAD DUP2 LT PUSH2 0x1CEB JUMPI INVALID JUMPDEST PUSH1 0x20 MUL PUSH1 0x20 ADD ADD MLOAD PUSH1 0x20 ADD MLOAD PUSH1 0x0 ADD MLOAD PUSH20 0xFFFFFFFFFFFFFFFFFFFFFFFFFFFFFFFFFFFFFFFF AND EQ ISZERO PUSH2 0x1FAC JUMPI SELFBALANCE DUP3 GT ISZERO PUSH2 0x1D21 JUMPI INVALID JUMPDEST PUSH1 0x5 PUSH1 0x0 SWAP1 SLOAD SWAP1 PUSH2 0x100 EXP SWAP1 DIV PUSH20 0xFFFFFFFFFFFFFFFFFFFFFFFFFFFFFFFFFFFFFFFF AND PUSH20 0xFFFFFFFFFFFFFFFFFFFFFFFFFFFFFFFFFFFFFFFF AND PUSH4 0x34368602 DUP4 PUSH1 0x5 PUSH1 0x0 SWAP1 SLOAD SWAP1 PUSH2 0x100 EXP SWAP1 DIV PUSH20 0xFFFFFFFFFFFFFFFFFFFFFFFFFFFFFFFFFFFFFFFF AND PUSH20 0xFFFFFFFFFFFFFFFFFFFFFFFFFFFFFFFFFFFFFFFF AND PUSH4 0x42526E4E DUP12 PUSH1 0xA0 ADD MLOAD DUP7 DUP2 MLOAD DUP2 LT PUSH2 0x1DAE JUMPI INVALID JUMPDEST PUSH1 0x20 MUL PUSH1 0x20 ADD ADD MLOAD PUSH1 0xA0 ADD MLOAD PUSH1 0x20 ADD MLOAD PUSH1 0x40 MLOAD DUP3 PUSH4 0xFFFFFFFF AND PUSH1 0xE0 SHL DUP2 MSTORE PUSH1 0x4 ADD PUSH2 0x1DDA SWAP2 SWAP1 PUSH2 0x5C20 JUMP JUMPDEST PUSH1 0x20 PUSH1 0x40 MLOAD DUP1 DUP4 SUB DUP2 DUP7 DUP1 EXTCODESIZE ISZERO DUP1 ISZERO PUSH2 0x1DF2 JUMPI PUSH1 0x0 DUP1 REVERT JUMPDEST POP GAS STATICCALL ISZERO DUP1 ISZERO PUSH2 0x1E06 JUMPI RETURNDATASIZE PUSH1 0x0 DUP1 RETURNDATACOPY RETURNDATASIZE PUSH1 0x0 REVERT JUMPDEST POP POP POP POP PUSH1 0x40 MLOAD RETURNDATASIZE PUSH1 0x1F NOT PUSH1 0x1F DUP3 ADD AND DUP3 ADD DUP1 PUSH1 0x40 MSTORE POP DUP2 ADD SWAP1 PUSH2 0x1E2A SWAP2 SWAP1 PUSH2 0x4848 JUMP JUMPDEST PUSH1 0x40 MLOAD DUP4 PUSH4 0xFFFFFFFF AND PUSH1 0xE0 SHL DUP2 MSTORE PUSH1 0x4 ADD PUSH2 0x1E47 SWAP3 SWAP2 SWAP1 PUSH2 0x5CEC JUMP JUMPDEST PUSH1 0x0 PUSH1 0x40 MLOAD DUP1 DUP4 SUB DUP2 PUSH1 0x0 DUP8 DUP1 EXTCODESIZE ISZERO DUP1 ISZERO PUSH2 0x1E61 JUMPI PUSH1 0x0 DUP1 REVERT JUMPDEST POP GAS CALL ISZERO DUP1 ISZERO PUSH2 0x1E75 JUMPI RETURNDATASIZE PUSH1 0x0 DUP1 RETURNDATACOPY RETURNDATASIZE PUSH1 0x0 REVERT JUMPDEST POP POP POP POP PUSH1 0x5 PUSH1 0x0 SWAP1 SLOAD SWAP1 PUSH2 0x100 EXP SWAP1 DIV PUSH20 0xFFFFFFFFFFFFFFFFFFFFFFFFFFFFFFFFFFFFFFFF AND PUSH20 0xFFFFFFFFFFFFFFFFFFFFFFFFFFFFFFFFFFFFFFFF AND PUSH4 0xDD1A8F90 DUP4 PUSH1 0x5 PUSH1 0x0 SWAP1 SLOAD SWAP1 PUSH2 0x100 EXP SWAP1 DIV PUSH20 0xFFFFFFFFFFFFFFFFFFFFFFFFFFFFFFFFFFFFFFFF AND PUSH20 0xFFFFFFFFFFFFFFFFFFFFFFFFFFFFFFFFFFFFFFFF AND PUSH4 0x3E15102E PUSH1 0x40 MLOAD DUP2 PUSH4 0xFFFFFFFF AND PUSH1 0xE0 SHL DUP2 MSTORE PUSH1 0x4 ADD PUSH1 0x20 PUSH1 0x40 MLOAD DUP1 DUP4 SUB DUP2 DUP7 DUP1 EXTCODESIZE ISZERO DUP1 ISZERO PUSH2 0x1F20 JUMPI PUSH1 0x0 DUP1 REVERT JUMPDEST POP GAS STATICCALL ISZERO DUP1 ISZERO PUSH2 0x1F34 JUMPI RETURNDATASIZE PUSH1 0x0 DUP1 RETURNDATACOPY RETURNDATASIZE PUSH1 0x0 REVERT JUMPDEST POP POP POP POP PUSH1 0x40 MLOAD RETURNDATASIZE PUSH1 0x1F NOT PUSH1 0x1F DUP3 ADD AND DUP3 ADD DUP1 PUSH1 0x40 MSTORE POP DUP2 ADD SWAP1 PUSH2 0x1F58 SWAP2 SWAP1 PUSH2 0x4AAE JUMP JUMPDEST SUB PUSH1 0x40 MLOAD DUP3 PUSH4 0xFFFFFFFF AND PUSH1 0xE0 SHL DUP2 MSTORE PUSH1 0x4 ADD PUSH2 0x1F75 SWAP2 SWAP1 PUSH2 0x5CA8 JUMP JUMPDEST PUSH1 0x0 PUSH1 0x40 MLOAD DUP1 DUP4 SUB DUP2 PUSH1 0x0 DUP8 DUP1 EXTCODESIZE ISZERO DUP1 ISZERO PUSH2 0x1F8F JUMPI PUSH1 0x0 DUP1 REVERT JUMPDEST POP GAS CALL ISZERO DUP1 ISZERO PUSH2 0x1FA3 JUMPI RETURNDATASIZE PUSH1 0x0 DUP1 RETURNDATACOPY RETURNDATASIZE PUSH1 0x0 REVERT JUMPDEST POP POP POP POP PUSH2 0x2143 JUMP JUMPDEST PUSH1 0x0 DUP1 SLOAD SWAP1 PUSH2 0x100 EXP SWAP1 DIV PUSH20 0xFFFFFFFFFFFFFFFFFFFFFFFFFFFFFFFFFFFFFFFF AND PUSH20 0xFFFFFFFFFFFFFFFFFFFFFFFFFFFFFFFFFFFFFFFF AND PUSH4 0xABE900E4 DUP9 PUSH1 0xA0 ADD MLOAD DUP4 DUP2 MLOAD DUP2 LT PUSH2 0x1FF8 JUMPI INVALID JUMPDEST PUSH1 0x20 MUL PUSH1 0x20 ADD ADD MLOAD PUSH1 0x20 ADD MLOAD PUSH1 0x0 ADD MLOAD DUP10 PUSH1 0xA0 ADD MLOAD DUP5 DUP2 MLOAD DUP2 LT PUSH2 0x2018 JUMPI INVALID JUMPDEST PUSH1 0x20 MUL PUSH1 0x20 ADD ADD MLOAD PUSH1 0x20 ADD MLOAD PUSH1 0x20 ADD MLOAD PUSH1 0x5 PUSH1 0x0 SWAP1 SLOAD SWAP1 PUSH2 0x100 EXP SWAP1 DIV PUSH20 0xFFFFFFFFFFFFFFFFFFFFFFFFFFFFFFFFFFFFFFFF AND PUSH20 0xFFFFFFFFFFFFFFFFFFFFFFFFFFFFFFFFFFFFFFFF AND PUSH4 0x42526E4E DUP13 PUSH1 0xA0 ADD MLOAD DUP8 DUP2 MLOAD DUP2 LT PUSH2 0x2076 JUMPI INVALID JUMPDEST PUSH1 0x20 MUL PUSH1 0x20 ADD ADD MLOAD PUSH1 0xA0 ADD MLOAD PUSH1 0x20 ADD MLOAD PUSH1 0x40 MLOAD DUP3 PUSH4 0xFFFFFFFF AND PUSH1 0xE0 SHL DUP2 MSTORE PUSH1 0x4 ADD PUSH2 0x20A2 SWAP2 SWAP1 PUSH2 0x5C20 JUMP JUMPDEST PUSH1 0x20 PUSH1 0x40 MLOAD DUP1 DUP4 SUB DUP2 DUP7 DUP1 EXTCODESIZE ISZERO DUP1 ISZERO PUSH2 0x20BA JUMPI PUSH1 0x0 DUP1 REVERT JUMPDEST POP GAS STATICCALL ISZERO DUP1 ISZERO PUSH2 0x20CE JUMPI RETURNDATASIZE PUSH1 0x0 DUP1 RETURNDATACOPY RETURNDATASIZE PUSH1 0x0 REVERT JUMPDEST POP POP POP POP PUSH1 0x40 MLOAD RETURNDATASIZE PUSH1 0x1F NOT PUSH1 0x1F DUP3 ADD AND DUP3 ADD DUP1 PUSH1 0x40 MSTORE POP DUP2 ADD SWAP1 PUSH2 0x20F2 SWAP2 SWAP1 PUSH2 0x4848 JUMP JUMPDEST PUSH1 0x40 MLOAD DUP5 PUSH4 0xFFFFFFFF AND PUSH1 0xE0 SHL DUP2 MSTORE PUSH1 0x4 ADD PUSH2 0x2110 SWAP4 SWAP3 SWAP2 SWAP1 PUSH2 0x5B3F JUMP JUMPDEST PUSH1 0x0 PUSH1 0x40 MLOAD DUP1 DUP4 SUB DUP2 PUSH1 0x0 DUP8 DUP1 EXTCODESIZE ISZERO DUP1 ISZERO PUSH2 0x212A JUMPI PUSH1 0x0 DUP1 REVERT JUMPDEST POP GAS CALL ISZERO DUP1 ISZERO PUSH2 0x213E JUMPI RETURNDATASIZE PUSH1 0x0 DUP1 RETURNDATACOPY RETURNDATASIZE PUSH1 0x0 REVERT JUMPDEST POP POP POP POP JUMPDEST PUSH2 0x2246 JUMP JUMPDEST PUSH1 0x6 PUSH1 0xFF AND PUSH1 0x6 DUP9 PUSH1 0xA0 ADD MLOAD DUP4 DUP2 MLOAD DUP2 LT PUSH2 0x215F JUMPI INVALID JUMPDEST PUSH1 0x20 MUL PUSH1 0x20 ADD ADD MLOAD PUSH1 0xA0 ADD MLOAD PUSH1 0x0 ADD MLOAD AND PUSH1 0xFF AND EQ ISZERO PUSH2 0x2245 JUMPI PUSH1 0x0 DUP1 SLOAD SWAP1 PUSH2 0x100 EXP SWAP1 DIV PUSH20 0xFFFFFFFFFFFFFFFFFFFFFFFFFFFFFFFFFFFFFFFF AND PUSH20 0xFFFFFFFFFFFFFFFFFFFFFFFFFFFFFFFFFFFFFFFF AND PUSH4 0x9257DFEE DUP9 PUSH1 0xA0 ADD MLOAD DUP4 DUP2 MLOAD DUP2 LT PUSH2 0x21C5 JUMPI INVALID JUMPDEST PUSH1 0x20 MUL PUSH1 0x20 ADD ADD MLOAD PUSH1 0xA0 ADD MLOAD PUSH1 0x20 ADD MLOAD PUSH1 0x40 MLOAD DUP3 PUSH4 0xFFFFFFFF AND PUSH1 0xE0 SHL DUP2 MSTORE PUSH1 0x4 ADD PUSH2 0x21F1 SWAP2 SWAP1 PUSH2 0x5C20 JUMP JUMPDEST PUSH1 0x20 PUSH1 0x40 MLOAD DUP1 DUP4 SUB DUP2 PUSH1 0x0 DUP8 DUP1 EXTCODESIZE ISZERO DUP1 ISZERO PUSH2 0x220B JUMPI PUSH1 0x0 DUP1 REVERT JUMPDEST POP GAS CALL ISZERO DUP1 ISZERO PUSH2 0x221F JUMPI RETURNDATASIZE PUSH1 0x0 DUP1 RETURNDATACOPY RETURNDATASIZE PUSH1 0x0 REVERT JUMPDEST POP POP POP POP PUSH1 0x40 MLOAD RETURNDATASIZE PUSH1 0x1F NOT PUSH1 0x1F DUP3 ADD AND DUP3 ADD DUP1 PUSH1 0x40 MSTORE POP DUP2 ADD SWAP1 PUSH2 0x2243 SWAP2 SWAP1 PUSH2 0x4848 JUMP JUMPDEST POP JUMPDEST JUMPDEST PUSH1 0x0 DUP8 PUSH1 0xA0 ADD MLOAD DUP3 DUP2 MLOAD DUP2 LT PUSH2 0x2258 JUMPI INVALID JUMPDEST PUSH1 0x20 MUL PUSH1 0x20 ADD ADD MLOAD PUSH1 0x80 ADD MLOAD GT DUP1 ISZERO PUSH2 0x22CB JUMPI POP PUSH20 0x67460C2F56774ED27EEB8685F29F6CEC0B090B00 PUSH20 0xFFFFFFFFFFFFFFFFFFFFFFFFFFFFFFFFFFFFFFFF AND DUP8 PUSH1 0xA0 ADD MLOAD DUP3 DUP2 MLOAD DUP2 LT PUSH2 0x22A7 JUMPI INVALID JUMPDEST PUSH1 0x20 MUL PUSH1 0x20 ADD ADD MLOAD PUSH1 0x60 ADD MLOAD PUSH20 0xFFFFFFFFFFFFFFFFFFFFFFFFFFFFFFFFFFFFFFFF AND EQ JUMPDEST ISZERO PUSH2 0x237B JUMPI PUSH1 0x5 PUSH1 0x0 SWAP1 SLOAD SWAP1 PUSH2 0x100 EXP SWAP1 DIV PUSH20 0xFFFFFFFFFFFFFFFFFFFFFFFFFFFFFFFFFFFFFFFF AND PUSH20 0xFFFFFFFFFFFFFFFFFFFFFFFFFFFFFFFFFFFFFFFF AND PUSH4 0xFC3CC653 CALLER DUP10 PUSH1 0xA0 ADD MLOAD DUP5 DUP2 MLOAD DUP2 LT PUSH2 0x231F JUMPI INVALID JUMPDEST PUSH1 0x20 MUL PUSH1 0x20 ADD ADD MLOAD PUSH1 0x80 ADD MLOAD PUSH1 0x40 MLOAD DUP4 PUSH4 0xFFFFFFFF AND PUSH1 0xE0 SHL DUP2 MSTORE PUSH1 0x4 ADD PUSH2 0x2348 SWAP3 SWAP2 SWAP1 PUSH2 0x5AED JUMP JUMPDEST PUSH1 0x0 PUSH1 0x40 MLOAD DUP1 DUP4 SUB DUP2 PUSH1 0x0 DUP8 DUP1 EXTCODESIZE ISZERO DUP1 ISZERO PUSH2 0x2362 JUMPI PUSH1 0x0 DUP1 REVERT JUMPDEST POP GAS CALL ISZERO DUP1 ISZERO PUSH2 0x2376 JUMPI RETURNDATASIZE PUSH1 0x0 DUP1 RETURNDATACOPY RETURNDATASIZE PUSH1 0x0 REVERT JUMPDEST POP POP POP POP JUMPDEST DUP1 DUP1 PUSH1 0x1 ADD SWAP2 POP POP PUSH2 0x1B96 JUMP JUMPDEST POP PUSH1 0x1 SWAP5 POP POP POP POP POP JUMPDEST SWAP2 SWAP1 POP JUMP JUMPDEST PUSH1 0xC DUP1 PUSH1 0x0 ADD SLOAD SWAP1 DUP1 PUSH1 0x1 ADD SLOAD SWAP1 POP DUP3 JUMP JUMPDEST PUSH1 0xB DUP3 DUP2 SLOAD DUP2 LT PUSH2 0x23B9 JUMPI PUSH1 0x0 DUP1 REVERT JUMPDEST SWAP1 PUSH1 0x0 MSTORE PUSH1 0x20 PUSH1 0x0 KECCAK256 ADD DUP2 DUP2 SLOAD DUP2 LT PUSH2 0x23D1 JUMPI PUSH1 0x0 DUP1 REVERT JUMPDEST SWAP1 PUSH1 0x0 MSTORE PUSH1 0x20 PUSH1 0x0 KECCAK256 SWAP1 PUSH1 0x9 MUL ADD PUSH1 0x0 SWAP2 POP SWAP2 POP POP DUP1 PUSH1 0x0 ADD PUSH1 0x0 SWAP1 SLOAD SWAP1 PUSH2 0x100 EXP SWAP1 DIV PUSH4 0xFFFFFFFF AND SWAP1 DUP1 PUSH1 0x1 ADD PUSH1 0x40 MLOAD DUP1 PUSH1 0x40 ADD PUSH1 0x40 MSTORE SWAP1 DUP2 PUSH1 0x0 DUP3 ADD PUSH1 0x0 SWAP1 SLOAD SWAP1 PUSH2 0x100 EXP SWAP1 DIV PUSH20 0xFFFFFFFFFFFFFFFFFFFFFFFFFFFFFFFFFFFFFFFF AND PUSH20 0xFFFFFFFFFFFFFFFFFFFFFFFFFFFFFFFFFFFFFFFF AND PUSH20 0xFFFFFFFFFFFFFFFFFFFFFFFFFFFFFFFFFFFFFFFF AND DUP2 MSTORE PUSH1 0x20 ADD PUSH1 0x0 DUP3 ADD PUSH1 0x14 SWAP1 SLOAD SWAP1 PUSH2 0x100 EXP SWAP1 DIV PUSH8 0xFFFFFFFFFFFFFFFF AND PUSH8 0xFFFFFFFFFFFFFFFF AND PUSH8 0xFFFFFFFFFFFFFFFF AND DUP2 MSTORE POP POP SWAP1 DUP1 PUSH1 0x2 ADD PUSH1 0x0 SWAP1 SLOAD SWAP1 PUSH2 0x100 EXP SWAP1 DIV PUSH4 0xFFFFFFFF AND SWAP1 DUP1 PUSH1 0x2 ADD PUSH1 0x4 SWAP1 SLOAD SWAP1 PUSH2 0x100 EXP SWAP1 DIV PUSH20 0xFFFFFFFFFFFFFFFFFFFFFFFFFFFFFFFFFFFFFFFF AND SWAP1 DUP1 PUSH1 0x3 ADD SLOAD SWAP1 DUP1 PUSH1 0x4 ADD PUSH1 0x40 MLOAD DUP1 PUSH1 0x40 ADD PUSH1 0x40 MSTORE SWAP1 DUP2 PUSH1 0x0 DUP3 ADD PUSH1 0x0 SWAP1 SLOAD SWAP1 PUSH2 0x100 EXP SWAP1 DIV PUSH1 0xFF AND PUSH1 0xFF AND PUSH1 0xFF AND DUP2 MSTORE PUSH1 0x20 ADD PUSH1 0x1 DUP3 ADD DUP1 SLOAD PUSH1 0x1 DUP2 PUSH1 0x1 AND ISZERO PUSH2 0x100 MUL SUB AND PUSH1 0x2 SWAP1 DIV DUP1 PUSH1 0x1F ADD PUSH1 0x20 DUP1 SWAP2 DIV MUL PUSH1 0x20 ADD PUSH1 0x40 MLOAD SWAP1 DUP2 ADD PUSH1 0x40 MSTORE DUP1 SWAP3 SWAP2 SWAP1 DUP2 DUP2 MSTORE PUSH1 0x20 ADD DUP3 DUP1 SLOAD PUSH1 0x1 DUP2 PUSH1 0x1 AND ISZERO PUSH2 0x100 MUL SUB AND PUSH1 0x2 SWAP1 DIV DUP1 ISZERO PUSH2 0x259B JUMPI DUP1 PUSH1 0x1F LT PUSH2 0x2570 JUMPI PUSH2 0x100 DUP1 DUP4 SLOAD DIV MUL DUP4 MSTORE SWAP2 PUSH1 0x20 ADD SWAP2 PUSH2 0x259B JUMP JUMPDEST DUP3 ADD SWAP2 SWAP1 PUSH1 0x0 MSTORE PUSH1 0x20 PUSH1 0x0 KECCAK256 SWAP1 JUMPDEST DUP2 SLOAD DUP2 MSTORE SWAP1 PUSH1 0x1 ADD SWAP1 PUSH1 0x20 ADD DUP1 DUP4 GT PUSH2 0x257E JUMPI DUP3 SWAP1 SUB PUSH1 0x1F AND DUP3 ADD SWAP2 JUMPDEST POP POP POP POP POP DUP2 MSTORE POP POP SWAP1 DUP1 PUSH1 0x6 ADD PUSH1 0x0 SWAP1 SLOAD SWAP1 PUSH2 0x100 EXP SWAP1 DIV PUSH20 0xFFFFFFFFFFFFFFFFFFFFFFFFFFFFFFFFFFFFFFFF AND SWAP1 DUP1 PUSH1 0x7 ADD PUSH1 0x0 SWAP1 SLOAD SWAP1 PUSH2 0x100 EXP SWAP1 DIV PUSH20 0xFFFFFFFFFFFFFFFFFFFFFFFFFFFFFFFFFFFFFFFF AND SWAP1 DUP1 PUSH1 0x8 ADD PUSH1 0x0 SWAP1 SLOAD SWAP1 PUSH2 0x100 EXP SWAP1 DIV PUSH20 0xFFFFFFFFFFFFFFFFFFFFFFFFFFFFFFFFFFFFFFFF AND SWAP1 POP DUP10 JUMP JUMPDEST PUSH1 0x0 JUMPDEST DUP2 MLOAD DUP2 LT ISZERO PUSH2 0x2651 JUMPI PUSH2 0x2643 DUP3 DUP3 DUP2 MLOAD DUP2 LT PUSH2 0x2636 JUMPI INVALID JUMPDEST PUSH1 0x20 MUL PUSH1 0x20 ADD ADD MLOAD PUSH2 0x1A2B JUMP JUMPDEST POP DUP1 DUP1 PUSH1 0x1 ADD SWAP2 POP POP PUSH2 0x261E JUMP JUMPDEST POP POP JUMP JUMPDEST PUSH1 0x60 PUSH1 0x0 DUP3 MLOAD PUSH8 0xFFFFFFFFFFFFFFFF DUP2 GT DUP1 ISZERO PUSH2 0x2671 JUMPI PUSH1 0x0 DUP1 REVERT JUMPDEST POP PUSH1 0x40 MLOAD SWAP1 DUP1 DUP3 MSTORE DUP1 PUSH1 0x20 MUL PUSH1 0x20 ADD DUP3 ADD PUSH1 0x40 MSTORE DUP1 ISZERO PUSH2 0x26A0 JUMPI DUP2 PUSH1 0x20 ADD PUSH1 0x20 DUP3 MUL DUP1 CALLDATASIZE DUP4 CALLDATACOPY DUP1 DUP3 ADD SWAP2 POP POP SWAP1 POP JUMPDEST POP SWAP1 POP PUSH1 0x0 DUP1 PUSH1 0x0 SWAP1 POP JUMPDEST DUP5 MLOAD DUP2 LT ISZERO PUSH2 0x2735 JUMPI PUSH1 0x1 ISZERO ISZERO PUSH1 0xE PUSH1 0x0 DUP8 DUP5 DUP2 MLOAD DUP2 LT PUSH2 0x26C8 JUMPI INVALID JUMPDEST PUSH1 0x20 MUL PUSH1 0x20 ADD ADD MLOAD DUP2 MSTORE PUSH1 0x20 ADD SWAP1 DUP2 MSTORE PUSH1 0x20 ADD PUSH1 0x0 KECCAK256 PUSH1 0x0 SWAP1 SLOAD SWAP1 PUSH2 0x100 EXP SWAP1 DIV PUSH1 0xFF AND ISZERO ISZERO EQ PUSH2 0x2728 JUMPI DUP5 DUP2 DUP2 MLOAD DUP2 LT PUSH2 0x26FF JUMPI INVALID JUMPDEST PUSH1 0x20 MUL PUSH1 0x20 ADD ADD MLOAD DUP4 DUP4 DUP2 MLOAD DUP2 LT PUSH2 0x2713 JUMPI INVALID JUMPDEST PUSH1 0x20 MUL PUSH1 0x20 ADD ADD DUP2 DUP2 MSTORE POP POP DUP2 DUP1 PUSH1 0x1 ADD SWAP3 POP POP JUMPDEST DUP1 DUP1 PUSH1 0x1 ADD SWAP2 POP POP PUSH2 0x26AB JUMP JUMPDEST POP DUP2 SWAP3 POP POP POP SWAP2 SWAP1 POP JUMP JUMPDEST PUSH1 0xF PUSH1 0x20 MSTORE DUP1 PUSH1 0x0 MSTORE PUSH1 0x40 PUSH1 0x0 KECCAK256 PUSH1 0x0 SWAP2 POP SWAP1 POP DUP1 PUSH1 0x0 ADD SLOAD SWAP1 DUP1 PUSH1 0x1 ADD PUSH1 0x0 SWAP1 SLOAD SWAP1 PUSH2 0x100 EXP SWAP1 DIV PUSH1 0xFF AND SWAP1 POP DUP3 JUMP JUMPDEST PUSH1 0x9 DUP2 DUP2 SLOAD DUP2 LT PUSH2 0x2781 JUMPI PUSH1 0x0 DUP1 REVERT JUMPDEST SWAP1 PUSH1 0x0 MSTORE PUSH1 0x20 PUSH1 0x0 KECCAK256 ADD PUSH1 0x0 SWAP2 POP SWAP1 POP SLOAD DUP2 JUMP JUMPDEST PUSH1 0x60 PUSH1 0x0 PUSH1 0x8 SLOAD DUP5 LT ISZERO PUSH2 0x27A9 JUMPI PUSH1 0x8 SLOAD SWAP4 POP JUMPDEST PUSH1 0x0 DUP5 SWAP1 POP JUMPDEST DUP4 DUP2 GT PUSH2 0x27F3 JUMPI PUSH1 0xF PUSH1 0x0 DUP3 DUP2 MSTORE PUSH1 0x20 ADD SWAP1 DUP2 MSTORE PUSH1 0x20 ADD PUSH1 0x0 KECCAK256 PUSH1 0x1 ADD PUSH1 0x0 SWAP1 SLOAD SWAP1 PUSH2 0x100 EXP SWAP1 DIV PUSH1 0xFF AND ISZERO PUSH2 0x27E6 JUMPI PUSH1 0x1 DUP3 ADD SWAP2 POP JUMPDEST DUP1 DUP1 PUSH1 0x1 ADD SWAP2 POP POP PUSH2 0x27AF JUMP JUMPDEST POP PUSH1 0x0 DUP2 PUSH8 0xFFFFFFFFFFFFFFFF DUP2 GT DUP1 ISZERO PUSH2 0x280D JUMPI PUSH1 0x0 DUP1 REVERT JUMPDEST POP PUSH1 0x40 MLOAD SWAP1 DUP1 DUP3 MSTORE DUP1 PUSH1 0x20 MUL PUSH1 0x20 ADD DUP3 ADD PUSH1 0x40 MSTORE DUP1 ISZERO PUSH2 0x2847 JUMPI DUP2 PUSH1 0x20 ADD JUMPDEST PUSH2 0x2834 PUSH2 0x32A7 JUMP JUMPDEST DUP2 MSTORE PUSH1 0x20 ADD SWAP1 PUSH1 0x1 SWAP1 SUB SWAP1 DUP2 PUSH2 0x282C JUMPI SWAP1 POP JUMPDEST POP SWAP1 POP PUSH1 0x0 DUP1 DUP7 SWAP1 POP JUMPDEST DUP6 DUP2 GT PUSH2 0x28B7 JUMPI PUSH1 0xF PUSH1 0x0 DUP3 DUP2 MSTORE PUSH1 0x20 ADD SWAP1 DUP2 MSTORE PUSH1 0x20 ADD PUSH1 0x0 KECCAK256 PUSH1 0x1 ADD PUSH1 0x0 SWAP1 SLOAD SWAP1 PUSH2 0x100 EXP SWAP1 DIV PUSH1 0xFF AND ISZERO PUSH2 0x28AA JUMPI PUSH2 0x288A DUP2 PUSH2 0x1618 JUMP JUMPDEST DUP4 DUP4 DUP2 MLOAD DUP2 LT PUSH2 0x2896 JUMPI INVALID JUMPDEST PUSH1 0x20 MUL PUSH1 0x20 ADD ADD DUP2 SWAP1 MSTORE POP DUP2 DUP1 PUSH1 0x1 ADD SWAP3 POP POP JUMPDEST DUP1 DUP1 PUSH1 0x1 ADD SWAP2 POP POP PUSH2 0x2851 JUMP JUMPDEST POP DUP2 SWAP4 POP POP POP POP SWAP3 SWAP2 POP POP JUMP JUMPDEST PUSH1 0x0 PUSH1 0x10 SLOAD SWAP1 POP SWAP1 JUMP JUMPDEST PUSH1 0x10 SLOAD DUP2 JUMP JUMPDEST PUSH1 0x0 NUMBER SWAP1 POP PUSH1 0x0 DUP1 PUSH1 0xF PUSH1 0x0 DUP5 DUP2 MSTORE PUSH1 0x20 ADD SWAP1 DUP2 MSTORE PUSH1 0x20 ADD PUSH1 0x0 KECCAK256 PUSH1 0x1 ADD PUSH1 0x0 SWAP1 SLOAD SWAP1 PUSH2 0x100 EXP SWAP1 DIV PUSH1 0xFF AND ISZERO PUSH2 0x2BA9 JUMPI PUSH1 0xF PUSH1 0x0 DUP5 DUP2 MSTORE PUSH1 0x20 ADD SWAP1 DUP2 MSTORE PUSH1 0x20 ADD PUSH1 0x0 KECCAK256 PUSH1 0x0 ADD SLOAD SWAP2 POP PUSH1 0xB DUP3 DUP2 SLOAD DUP2 LT PUSH2 0x292B JUMPI INVALID JUMPDEST SWAP1 PUSH1 0x0 MSTORE PUSH1 0x20 PUSH1 0x0 KECCAK256 ADD DUP5 SWAP1 DUP1 PUSH1 0x1 DUP2 SLOAD ADD DUP1 DUP3 SSTORE DUP1 SWAP2 POP POP PUSH1 0x1 SWAP1 SUB SWAP1 PUSH1 0x0 MSTORE PUSH1 0x20 PUSH1 0x0 KECCAK256 SWAP1 PUSH1 0x9 MUL ADD PUSH1 0x0 SWAP1 SWAP2 SWAP1 SWAP2 SWAP1 SWAP2 POP PUSH1 0x0 DUP3 ADD MLOAD DUP2 PUSH1 0x0 ADD PUSH1 0x0 PUSH2 0x100 EXP DUP2 SLOAD DUP2 PUSH4 0xFFFFFFFF MUL NOT AND SWAP1 DUP4 PUSH4 0xFFFFFFFF AND MUL OR SWAP1 SSTORE POP PUSH1 0x20 DUP3 ADD MLOAD DUP2 PUSH1 0x1 ADD PUSH1 0x0 DUP3 ADD MLOAD DUP2 PUSH1 0x0 ADD PUSH1 0x0 PUSH2 0x100 EXP DUP2 SLOAD DUP2 PUSH20 0xFFFFFFFFFFFFFFFFFFFFFFFFFFFFFFFFFFFFFFFF MUL NOT AND SWAP1 DUP4 PUSH20 0xFFFFFFFFFFFFFFFFFFFFFFFFFFFFFFFFFFFFFFFF AND MUL OR SWAP1 SSTORE POP PUSH1 0x20 DUP3 ADD MLOAD DUP2 PUSH1 0x0 ADD PUSH1 0x14 PUSH2 0x100 EXP DUP2 SLOAD DUP2 PUSH8 0xFFFFFFFFFFFFFFFF MUL NOT AND SWAP1 DUP4 PUSH8 0xFFFFFFFFFFFFFFFF AND MUL OR SWAP1 SSTORE POP POP POP PUSH1 0x40 DUP3 ADD MLOAD DUP2 PUSH1 0x2 ADD PUSH1 0x0 PUSH2 0x100 EXP DUP2 SLOAD DUP2 PUSH4 0xFFFFFFFF MUL NOT AND SWAP1 DUP4 PUSH4 0xFFFFFFFF AND MUL OR SWAP1 SSTORE POP PUSH1 0x60 DUP3 ADD MLOAD DUP2 PUSH1 0x2 ADD PUSH1 0x4 PUSH2 0x100 EXP DUP2 SLOAD DUP2 PUSH20 0xFFFFFFFFFFFFFFFFFFFFFFFFFFFFFFFFFFFFFFFF MUL NOT AND SWAP1 DUP4 PUSH20 0xFFFFFFFFFFFFFFFFFFFFFFFFFFFFFFFFFFFFFFFF AND MUL OR SWAP1 SSTORE POP PUSH1 0x80 DUP3 ADD MLOAD DUP2 PUSH1 0x3 ADD SSTORE PUSH1 0xA0 DUP3 ADD MLOAD DUP2 PUSH1 0x4 ADD PUSH1 0x0 DUP3 ADD MLOAD DUP2 PUSH1 0x0 ADD PUSH1 0x0 PUSH2 0x100 EXP DUP2 SLOAD DUP2 PUSH1 0xFF MUL NOT AND SWAP1 DUP4 PUSH1 0xFF AND MUL OR SWAP1 SSTORE POP PUSH1 0x20 DUP3 ADD MLOAD DUP2 PUSH1 0x1 ADD SWAP1 DUP1 MLOAD SWAP1 PUSH1 0x20 ADD SWAP1 PUSH2 0x2AC5 SWAP3 SWAP2 SWAP1 PUSH2 0x32D2 JUMP JUMPDEST POP POP POP PUSH1 0xC0 DUP3 ADD MLOAD DUP2 PUSH1 0x6 ADD PUSH1 0x0 PUSH2 0x100 EXP DUP2 SLOAD DUP2 PUSH20 0xFFFFFFFFFFFFFFFFFFFFFFFFFFFFFFFFFFFFFFFF MUL NOT AND SWAP1 DUP4 PUSH20 0xFFFFFFFFFFFFFFFFFFFFFFFFFFFFFFFFFFFFFFFF AND MUL OR SWAP1 SSTORE POP PUSH1 0xE0 DUP3 ADD MLOAD DUP2 PUSH1 0x7 ADD PUSH1 0x0 PUSH2 0x100 EXP DUP2 SLOAD DUP2 PUSH20 0xFFFFFFFFFFFFFFFFFFFFFFFFFFFFFFFFFFFFFFFF MUL NOT AND SWAP1 DUP4 PUSH20 0xFFFFFFFFFFFFFFFFFFFFFFFFFFFFFFFFFFFFFFFF AND MUL OR SWAP1 SSTORE POP PUSH2 0x100 DUP3 ADD MLOAD DUP2 PUSH1 0x8 ADD PUSH1 0x0 PUSH2 0x100 EXP DUP2 SLOAD DUP2 PUSH20 0xFFFFFFFFFFFFFFFFFFFFFFFFFFFFFFFFFFFFFFFF MUL NOT AND SWAP1 DUP4 PUSH20 0xFFFFFFFFFFFFFFFFFFFFFFFFFFFFFFFFFFFFFFFF AND MUL OR SWAP1 SSTORE POP POP POP PUSH1 0x0 SWAP1 POP PUSH2 0x2EC1 JUMP JUMPDEST PUSH1 0xA DUP5 SWAP1 DUP1 PUSH1 0x1 DUP2 SLOAD ADD DUP1 DUP3 SSTORE DUP1 SWAP2 POP POP PUSH1 0x1 SWAP1 SUB SWAP1 PUSH1 0x0 MSTORE PUSH1 0x20 PUSH1 0x0 KECCAK256 SWAP1 PUSH1 0x9 MUL ADD PUSH1 0x0 SWAP1 SWAP2 SWAP1 SWAP2 SWAP1 SWAP2 POP PUSH1 0x0 DUP3 ADD MLOAD DUP2 PUSH1 0x0 ADD PUSH1 0x0 PUSH2 0x100 EXP DUP2 SLOAD DUP2 PUSH4 0xFFFFFFFF MUL NOT AND SWAP1 DUP4 PUSH4 0xFFFFFFFF AND MUL OR SWAP1 SSTORE POP PUSH1 0x20 DUP3 ADD MLOAD DUP2 PUSH1 0x1 ADD PUSH1 0x0 DUP3 ADD MLOAD DUP2 PUSH1 0x0 ADD PUSH1 0x0 PUSH2 0x100 EXP DUP2 SLOAD DUP2 PUSH20 0xFFFFFFFFFFFFFFFFFFFFFFFFFFFFFFFFFFFFFFFF MUL NOT AND SWAP1 DUP4 PUSH20 0xFFFFFFFFFFFFFFFFFFFFFFFFFFFFFFFFFFFFFFFF AND MUL OR SWAP1 SSTORE POP PUSH1 0x20 DUP3 ADD MLOAD DUP2 PUSH1 0x0 ADD PUSH1 0x14 PUSH2 0x100 EXP DUP2 SLOAD DUP2 PUSH8 0xFFFFFFFFFFFFFFFF MUL NOT AND SWAP1 DUP4 PUSH8 0xFFFFFFFFFFFFFFFF AND MUL OR SWAP1 SSTORE POP POP POP PUSH1 0x40 DUP3 ADD MLOAD DUP2 PUSH1 0x2 ADD PUSH1 0x0 PUSH2 0x100 EXP DUP2 SLOAD DUP2 PUSH4 0xFFFFFFFF MUL NOT AND SWAP1 DUP4 PUSH4 0xFFFFFFFF AND MUL OR SWAP1 SSTORE POP PUSH1 0x60 DUP3 ADD MLOAD DUP2 PUSH1 0x2 ADD PUSH1 0x4 PUSH2 0x100 EXP DUP2 SLOAD DUP2 PUSH20 0xFFFFFFFFFFFFFFFFFFFFFFFFFFFFFFFFFFFFFFFF MUL NOT AND SWAP1 DUP4 PUSH20 0xFFFFFFFFFFFFFFFFFFFFFFFFFFFFFFFFFFFFFFFF AND MUL OR SWAP1 SSTORE POP PUSH1 0x80 DUP3 ADD MLOAD DUP2 PUSH1 0x3 ADD SSTORE PUSH1 0xA0 DUP3 ADD MLOAD DUP2 PUSH1 0x4 ADD PUSH1 0x0 DUP3 ADD MLOAD DUP2 PUSH1 0x0 ADD PUSH1 0x0 PUSH2 0x100 EXP DUP2 SLOAD DUP2 PUSH1 0xFF MUL NOT AND SWAP1 DUP4 PUSH1 0xFF AND MUL OR SWAP1 SSTORE POP PUSH1 0x20 DUP3 ADD MLOAD DUP2 PUSH1 0x1 ADD SWAP1 DUP1 MLOAD SWAP1 PUSH1 0x20 ADD SWAP1 PUSH2 0x2D3B SWAP3 SWAP2 SWAP1 PUSH2 0x32D2 JUMP JUMPDEST POP POP POP PUSH1 0xC0 DUP3 ADD MLOAD DUP2 PUSH1 0x6 ADD PUSH1 0x0 PUSH2 0x100 EXP DUP2 SLOAD DUP2 PUSH20 0xFFFFFFFFFFFFFFFFFFFFFFFFFFFFFFFFFFFFFFFF MUL NOT AND SWAP1 DUP4 PUSH20 0xFFFFFFFFFFFFFFFFFFFFFFFFFFFFFFFFFFFFFFFF AND MUL OR SWAP1 SSTORE POP PUSH1 0xE0 DUP3 ADD MLOAD DUP2 PUSH1 0x7 ADD PUSH1 0x0 PUSH2 0x100 EXP DUP2 SLOAD DUP2 PUSH20 0xFFFFFFFFFFFFFFFFFFFFFFFFFFFFFFFFFFFFFFFF MUL NOT AND SWAP1 DUP4 PUSH20 0xFFFFFFFFFFFFFFFFFFFFFFFFFFFFFFFFFFFFFFFF AND MUL OR SWAP1 SSTORE POP PUSH2 0x100 DUP3 ADD MLOAD DUP2 PUSH1 0x8 ADD PUSH1 0x0 PUSH2 0x100 EXP DUP2 SLOAD DUP2 PUSH20 0xFFFFFFFFFFFFFFFFFFFFFFFFFFFFFFFFFFFFFFFF MUL NOT AND SWAP1 DUP4 PUSH20 0xFFFFFFFFFFFFFFFFFFFFFFFFFFFFFFFFFFFFFFFF AND MUL OR SWAP1 SSTORE POP POP POP PUSH1 0xB DUP1 SLOAD SWAP1 POP SWAP2 POP PUSH1 0xB PUSH1 0xA SWAP1 DUP1 PUSH1 0x1 DUP2 SLOAD ADD DUP1 DUP3 SSTORE DUP1 SWAP2 POP POP PUSH1 0x1 SWAP1 SUB SWAP1 PUSH1 0x0 MSTORE PUSH1 0x20 PUSH1 0x0 KECCAK256 ADD PUSH1 0x0 SWAP1 SWAP2 SWAP1 SWAP2 SWAP1 SWAP2 POP SWAP1 DUP1 SLOAD PUSH2 0x2E55 SWAP3 SWAP2 SWAP1 PUSH2 0x3360 JUMP JUMPDEST POP PUSH1 0x40 MLOAD DUP1 PUSH1 0x40 ADD PUSH1 0x40 MSTORE DUP1 DUP4 DUP2 MSTORE PUSH1 0x20 ADD PUSH1 0x1 ISZERO ISZERO DUP2 MSTORE POP PUSH1 0xF PUSH1 0x0 DUP6 DUP2 MSTORE PUSH1 0x20 ADD SWAP1 DUP2 MSTORE PUSH1 0x20 ADD PUSH1 0x0 KECCAK256 PUSH1 0x0 DUP3 ADD MLOAD DUP2 PUSH1 0x0 ADD SSTORE PUSH1 0x20 DUP3 ADD MLOAD DUP2 PUSH1 0x1 ADD PUSH1 0x0 PUSH2 0x100 EXP DUP2 SLOAD DUP2 PUSH1 0xFF MUL NOT AND SWAP1 DUP4 ISZERO ISZERO MUL OR SWAP1 SSTORE POP SWAP1 POP POP PUSH1 0xA PUSH1 0x0 PUSH2 0x2EBC SWAP2 SWAP1 PUSH2 0x36E0 JUMP JUMPDEST PUSH1 0x1 SWAP1 POP JUMPDEST PUSH1 0x0 PUSH1 0x3 PUSH1 0x0 SWAP1 SLOAD SWAP1 PUSH2 0x100 EXP SWAP1 DIV PUSH20 0xFFFFFFFFFFFFFFFFFFFFFFFFFFFFFFFFFFFFFFFF AND PUSH20 0xFFFFFFFFFFFFFFFFFFFFFFFFFFFFFFFFFFFFFFFF AND PUSH4 0xBD4CEC3 PUSH20 0xFFECE948B8A38BBCC813411D2597F7F8485A0689 PUSH1 0x40 MLOAD DUP3 PUSH4 0xFFFFFFFF AND PUSH1 0xE0 SHL DUP2 MSTORE PUSH1 0x4 ADD PUSH2 0x2F32 SWAP2 SWAP1 PUSH2 0x5A72 JUMP JUMPDEST PUSH1 0x20 PUSH1 0x40 MLOAD DUP1 DUP4 SUB DUP2 DUP7 DUP1 EXTCODESIZE ISZERO DUP1 ISZERO PUSH2 0x2F4A JUMPI PUSH1 0x0 DUP1 REVERT JUMPDEST POP GAS STATICCALL ISZERO DUP1 ISZERO PUSH2 0x2F5E JUMPI RETURNDATASIZE PUSH1 0x0 DUP1 RETURNDATACOPY RETURNDATASIZE PUSH1 0x0 REVERT JUMPDEST POP POP POP POP PUSH1 0x40 MLOAD RETURNDATASIZE PUSH1 0x1F NOT PUSH1 0x1F DUP3 ADD AND DUP3 ADD DUP1 PUSH1 0x40 MSTORE POP DUP2 ADD SWAP1 PUSH2 0x2F82 SWAP2 SWAP1 PUSH2 0x4B13 JUMP JUMPDEST PUSH4 0xFFFFFFFF AND PUSH1 0x0 LT DUP1 ISZERO PUSH2 0x3060 JUMPI POP NUMBER PUSH4 0xFFFFFFFF AND PUSH1 0x3 PUSH1 0x0 SWAP1 SLOAD SWAP1 PUSH2 0x100 EXP SWAP1 DIV PUSH20 0xFFFFFFFFFFFFFFFFFFFFFFFFFFFFFFFFFFFFFFFF AND PUSH20 0xFFFFFFFFFFFFFFFFFFFFFFFFFFFFFFFFFFFFFFFF AND PUSH4 0xBD4CEC3 PUSH20 0xFFECE948B8A38BBCC813411D2597F7F8485A0689 PUSH1 0x40 MLOAD DUP3 PUSH4 0xFFFFFFFF AND PUSH1 0xE0 SHL DUP2 MSTORE PUSH1 0x4 ADD PUSH2 0x3008 SWAP2 SWAP1 PUSH2 0x5A72 JUMP JUMPDEST PUSH1 0x20 PUSH1 0x40 MLOAD DUP1 DUP4 SUB DUP2 DUP7 DUP1 EXTCODESIZE ISZERO DUP1 ISZERO PUSH2 0x3020 JUMPI PUSH1 0x0 DUP1 REVERT JUMPDEST POP GAS STATICCALL ISZERO DUP1 ISZERO PUSH2 0x3034 JUMPI RETURNDATASIZE PUSH1 0x0 DUP1 RETURNDATACOPY RETURNDATASIZE PUSH1 0x0 REVERT JUMPDEST POP POP POP POP PUSH1 0x40 MLOAD RETURNDATASIZE PUSH1 0x1F NOT PUSH1 0x1F DUP3 ADD AND DUP3 ADD DUP1 PUSH1 0x40 MSTORE POP DUP2 ADD SWAP1 PUSH2 0x3058 SWAP2 SWAP1 PUSH2 0x4B13 JUMP JUMPDEST PUSH4 0xFFFFFFFF AND LT JUMPDEST SWAP1 POP PUSH1 0x0 PUSH1 0x1 PUSH1 0x0 SWAP1 SLOAD SWAP1 PUSH2 0x100 EXP SWAP1 DIV PUSH20 0xFFFFFFFFFFFFFFFFFFFFFFFFFFFFFFFFFFFFFFFF AND PUSH20 0xFFFFFFFFFFFFFFFFFFFFFFFFFFFFFFFFFFFFFFFF AND PUSH4 0x6003992A PUSH1 0x4 PUSH1 0x0 SWAP1 SLOAD SWAP1 PUSH2 0x100 EXP SWAP1 DIV PUSH20 0xFFFFFFFFFFFFFFFFFFFFFFFFFFFFFFFFFFFFFFFF AND PUSH20 0xFFFFFFFFFFFFFFFFFFFFFFFFFFFFFFFFFFFFFFFF AND PUSH4 0xBB6FF4B6 PUSH1 0xB DUP9 DUP2 SLOAD DUP2 LT PUSH2 0x30ED JUMPI INVALID JUMPDEST SWAP1 PUSH1 0x0 MSTORE PUSH1 0x20 PUSH1 0x0 KECCAK256 ADD DUP7 PUSH1 0x40 MLOAD DUP4 PUSH4 0xFFFFFFFF AND PUSH1 0xE0 SHL DUP2 MSTORE PUSH1 0x4 ADD PUSH2 0x3115 SWAP3 SWAP2 SWAP1 PUSH2 0x5BBA JUMP JUMPDEST PUSH1 0x0 PUSH1 0x40 MLOAD DUP1 DUP4 SUB DUP2 PUSH1 0x0 DUP8 DUP1 EXTCODESIZE ISZERO DUP1 ISZERO PUSH2 0x312F JUMPI PUSH1 0x0 DUP1 REVERT JUMPDEST POP GAS CALL ISZERO DUP1 ISZERO PUSH2 0x3143 JUMPI RETURNDATASIZE PUSH1 0x0 DUP1 RETURNDATACOPY RETURNDATASIZE PUSH1 0x0 REVERT JUMPDEST POP POP POP POP PUSH1 0x40 MLOAD RETURNDATASIZE PUSH1 0x0 DUP3 RETURNDATACOPY RETURNDATASIZE PUSH1 0x1F NOT PUSH1 0x1F DUP3 ADD AND DUP3 ADD DUP1 PUSH1 0x40 MSTORE POP DUP2 ADD SWAP1 PUSH2 0x316C SWAP2 SWAP1 PUSH2 0x49AF JUMP JUMPDEST PUSH1 0x40 MLOAD DUP3 PUSH4 0xFFFFFFFF AND PUSH1 0xE0 SHL DUP2 MSTORE PUSH1 0x4 ADD PUSH2 0x3188 SWAP2 SWAP1 PUSH2 0x5C42 JUMP JUMPDEST PUSH1 0x0 PUSH1 0x40 MLOAD DUP1 DUP4 SUB DUP2 DUP7 DUP1 EXTCODESIZE ISZERO DUP1 ISZERO PUSH2 0x31A0 JUMPI PUSH1 0x0 DUP1 REVERT JUMPDEST POP GAS STATICCALL ISZERO DUP1 ISZERO PUSH2 0x31B4 JUMPI RETURNDATASIZE PUSH1 0x0 DUP1 RETURNDATACOPY RETURNDATASIZE PUSH1 0x0 REVERT JUMPDEST POP POP POP POP PUSH1 0x40 MLOAD RETURNDATASIZE PUSH1 0x0 DUP3 RETURNDATACOPY RETURNDATASIZE PUSH1 0x1F NOT PUSH1 0x1F DUP3 ADD AND DUP3 ADD DUP1 PUSH1 0x40 MSTORE POP DUP2 ADD SWAP1 PUSH2 0x31DD SWAP2 SWAP1 PUSH2 0x4945 JUMP JUMPDEST SWAP1 POP PUSH1 0x0 DUP1 PUSH1 0x0 DUP1 SHL SWAP1 POP PUSH1 0x0 DUP7 EQ PUSH2 0x320E JUMPI PUSH1 0x9 PUSH1 0x1 DUP8 SUB DUP2 SLOAD DUP2 LT PUSH2 0x3200 JUMPI INVALID JUMPDEST SWAP1 PUSH1 0x0 MSTORE PUSH1 0x20 PUSH1 0x0 KECCAK256 ADD SLOAD SWAP1 POP JUMPDEST DUP3 DUP2 PUSH1 0x40 MLOAD PUSH1 0x20 ADD PUSH2 0x3221 SWAP3 SWAP2 SWAP1 PUSH2 0x5A4A JUMP JUMPDEST PUSH1 0x40 MLOAD PUSH1 0x20 DUP2 DUP4 SUB SUB DUP2 MSTORE SWAP1 PUSH1 0x40 MSTORE DUP1 MLOAD SWAP1 PUSH1 0x20 ADD KECCAK256 SWAP2 POP DUP5 ISZERO PUSH2 0x326D JUMPI PUSH1 0x9 DUP3 SWAP1 DUP1 PUSH1 0x1 DUP2 SLOAD ADD DUP1 DUP3 SSTORE DUP1 SWAP2 POP POP PUSH1 0x1 SWAP1 SUB SWAP1 PUSH1 0x0 MSTORE PUSH1 0x20 PUSH1 0x0 KECCAK256 ADD PUSH1 0x0 SWAP1 SWAP2 SWAP1 SWAP2 SWAP1 SWAP2 POP SSTORE PUSH2 0x328A JUMP JUMPDEST DUP2 PUSH1 0x9 DUP8 DUP2 SLOAD DUP2 LT PUSH2 0x327B JUMPI INVALID JUMPDEST SWAP1 PUSH1 0x0 MSTORE PUSH1 0x20 PUSH1 0x0 KECCAK256 ADD DUP2 SWAP1 SSTORE POP JUMPDEST PUSH1 0x0 PUSH1 0x8 SLOAD EQ ISZERO PUSH2 0x329D JUMPI DUP7 PUSH1 0x8 DUP2 SWAP1 SSTORE POP JUMPDEST POP POP POP POP POP POP POP POP JUMP JUMPDEST PUSH1 0x40 MLOAD DUP1 PUSH1 0x80 ADD PUSH1 0x40 MSTORE DUP1 PUSH1 0x0 DUP2 MSTORE PUSH1 0x20 ADD PUSH1 0x0 DUP2 MSTORE PUSH1 0x20 ADD PUSH1 0x0 DUP1 NOT AND DUP2 MSTORE PUSH1 0x20 ADD PUSH1 0x60 DUP2 MSTORE POP SWAP1 JUMP JUMPDEST DUP3 DUP1 SLOAD PUSH1 0x1 DUP2 PUSH1 0x1 AND ISZERO PUSH2 0x100 MUL SUB AND PUSH1 0x2 SWAP1 DIV SWAP1 PUSH1 0x0 MSTORE PUSH1 0x20 PUSH1 0x0 KECCAK256 SWAP1 PUSH1 0x1F ADD PUSH1 0x20 SWAP1 DIV DUP2 ADD SWAP3 DUP3 PUSH2 0x3308 JUMPI PUSH1 0x0 DUP6 SSTORE PUSH2 0x334F JUMP JUMPDEST DUP3 PUSH1 0x1F LT PUSH2 0x3321 JUMPI DUP1 MLOAD PUSH1 0xFF NOT AND DUP4 DUP1 ADD OR DUP6 SSTORE PUSH2 0x334F JUMP JUMPDEST DUP3 DUP1 ADD PUSH1 0x1 ADD DUP6 SSTORE DUP3 ISZERO PUSH2 0x334F JUMPI SWAP2 DUP3 ADD JUMPDEST DUP3 DUP2 GT ISZERO PUSH2 0x334E JUMPI DUP3 MLOAD DUP3 SSTORE SWAP2 PUSH1 0x20 ADD SWAP2 SWAP1 PUSH1 0x1 ADD SWAP1 PUSH2 0x3333 JUMP JUMPDEST JUMPDEST POP SWAP1 POP PUSH2 0x335C SWAP2 SWAP1 PUSH2 0x3704 JUMP JUMPDEST POP SWAP1 JUMP JUMPDEST DUP3 DUP1 SLOAD DUP3 DUP3 SSTORE SWAP1 PUSH1 0x0 MSTORE PUSH1 0x20 PUSH1 0x0 KECCAK256 SWAP1 PUSH1 0x9 MUL DUP2 ADD SWAP3 DUP3 ISZERO PUSH2 0x36CF JUMPI PUSH1 0x0 MSTORE PUSH1 0x20 PUSH1 0x0 KECCAK256 SWAP2 PUSH1 0x9 MUL DUP3 ADD JUMPDEST DUP3 DUP2 GT ISZERO PUSH2 0x36CE JUMPI DUP3 DUP3 PUSH1 0x0 DUP3 ADD PUSH1 0x0 SWAP1 SLOAD SWAP1 PUSH2 0x100 EXP SWAP1 DIV PUSH4 0xFFFFFFFF AND DUP2 PUSH1 0x0 ADD PUSH1 0x0 PUSH2 0x100 EXP DUP2 SLOAD DUP2 PUSH4 0xFFFFFFFF MUL NOT AND SWAP1 DUP4 PUSH4 0xFFFFFFFF AND MUL OR SWAP1 SSTORE POP PUSH1 0x1 DUP3 ADD DUP2 PUSH1 0x1 ADD PUSH1 0x0 DUP3 ADD PUSH1 0x0 SWAP1 SLOAD SWAP1 PUSH2 0x100 EXP SWAP1 DIV PUSH20 0xFFFFFFFFFFFFFFFFFFFFFFFFFFFFFFFFFFFFFFFF AND DUP2 PUSH1 0x0 ADD PUSH1 0x0 PUSH2 0x100 EXP DUP2 SLOAD DUP2 PUSH20 0xFFFFFFFFFFFFFFFFFFFFFFFFFFFFFFFFFFFFFFFF MUL NOT AND SWAP1 DUP4 PUSH20 0xFFFFFFFFFFFFFFFFFFFFFFFFFFFFFFFFFFFFFFFF AND MUL OR SWAP1 SSTORE POP PUSH1 0x0 DUP3 ADD PUSH1 0x14 SWAP1 SLOAD SWAP1 PUSH2 0x100 EXP SWAP1 DIV PUSH8 0xFFFFFFFFFFFFFFFF AND DUP2 PUSH1 0x0 ADD PUSH1 0x14 PUSH2 0x100 EXP DUP2 SLOAD DUP2 PUSH8 0xFFFFFFFFFFFFFFFF MUL NOT AND SWAP1 DUP4 PUSH8 0xFFFFFFFFFFFFFFFF AND MUL OR SWAP1 SSTORE POP POP POP PUSH1 0x2 DUP3 ADD PUSH1 0x0 SWAP1 SLOAD SWAP1 PUSH2 0x100 EXP SWAP1 DIV PUSH4 0xFFFFFFFF AND DUP2 PUSH1 0x2 ADD PUSH1 0x0 PUSH2 0x100 EXP DUP2 SLOAD DUP2 PUSH4 0xFFFFFFFF MUL NOT AND SWAP1 DUP4 PUSH4 0xFFFFFFFF AND MUL OR SWAP1 SSTORE POP PUSH1 0x2 DUP3 ADD PUSH1 0x4 SWAP1 SLOAD SWAP1 PUSH2 0x100 EXP SWAP1 DIV PUSH20 0xFFFFFFFFFFFFFFFFFFFFFFFFFFFFFFFFFFFFFFFF AND DUP2 PUSH1 0x2 ADD PUSH1 0x4 PUSH2 0x100 EXP DUP2 SLOAD DUP2 PUSH20 0xFFFFFFFFFFFFFFFFFFFFFFFFFFFFFFFFFFFFFFFF MUL NOT AND SWAP1 DUP4 PUSH20 0xFFFFFFFFFFFFFFFFFFFFFFFFFFFFFFFFFFFFFFFF AND MUL OR SWAP1 SSTORE POP PUSH1 0x3 DUP3 ADD SLOAD DUP2 PUSH1 0x3 ADD SSTORE PUSH1 0x4 DUP3 ADD DUP2 PUSH1 0x4 ADD PUSH1 0x0 DUP3 ADD PUSH1 0x0 SWAP1 SLOAD SWAP1 PUSH2 0x100 EXP SWAP1 DIV PUSH1 0xFF AND DUP2 PUSH1 0x0 ADD PUSH1 0x0 PUSH2 0x100 EXP DUP2 SLOAD DUP2 PUSH1 0xFF MUL NOT AND SWAP1 DUP4 PUSH1 0xFF AND MUL OR SWAP1 SSTORE POP PUSH1 0x1 DUP3 ADD DUP2 PUSH1 0x1 ADD SWAP1 DUP1 SLOAD PUSH1 0x1 DUP2 PUSH1 0x1 AND ISZERO PUSH2 0x100 MUL SUB AND PUSH1 0x2 SWAP1 DIV PUSH2 0x3585 SWAP3 SWAP2 SWAP1 PUSH2 0x3721 JUMP JUMPDEST POP POP POP PUSH1 0x6 DUP3 ADD PUSH1 0x0 SWAP1 SLOAD SWAP1 PUSH2 0x100 EXP SWAP1 DIV PUSH20 0xFFFFFFFFFFFFFFFFFFFFFFFFFFFFFFFFFFFFFFFF AND DUP2 PUSH1 0x6 ADD PUSH1 0x0 PUSH2 0x100 EXP DUP2 SLOAD DUP2 PUSH20 0xFFFFFFFFFFFFFFFFFFFFFFFFFFFFFFFFFFFFFFFF MUL NOT AND SWAP1 DUP4 PUSH20 0xFFFFFFFFFFFFFFFFFFFFFFFFFFFFFFFFFFFFFFFF AND MUL OR SWAP1 SSTORE POP PUSH1 0x7 DUP3 ADD PUSH1 0x0 SWAP1 SLOAD SWAP1 PUSH2 0x100 EXP SWAP1 DIV PUSH20 0xFFFFFFFFFFFFFFFFFFFFFFFFFFFFFFFFFFFFFFFF AND DUP2 PUSH1 0x7 ADD PUSH1 0x0 PUSH2 0x100 EXP DUP2 SLOAD DUP2 PUSH20 0xFFFFFFFFFFFFFFFFFFFFFFFFFFFFFFFFFFFFFFFF MUL NOT AND SWAP1 DUP4 PUSH20 0xFFFFFFFFFFFFFFFFFFFFFFFFFFFFFFFFFFFFFFFF AND MUL OR SWAP1 SSTORE POP PUSH1 0x8 DUP3 ADD PUSH1 0x0 SWAP1 SLOAD SWAP1 PUSH2 0x100 EXP SWAP1 DIV PUSH20 0xFFFFFFFFFFFFFFFFFFFFFFFFFFFFFFFFFFFFFFFF AND DUP2 PUSH1 0x8 ADD PUSH1 0x0 PUSH2 0x100 EXP DUP2 SLOAD DUP2 PUSH20 0xFFFFFFFFFFFFFFFFFFFFFFFFFFFFFFFFFFFFFFFF MUL NOT AND SWAP1 DUP4 PUSH20 0xFFFFFFFFFFFFFFFFFFFFFFFFFFFFFFFFFFFFFFFF AND MUL OR SWAP1 SSTORE POP POP POP SWAP2 PUSH1 0x9 ADD SWAP2 SWAP1 PUSH1 0x9 ADD SWAP1 PUSH2 0x338B JUMP JUMPDEST JUMPDEST POP SWAP1 POP PUSH2 0x36DC SWAP2 SWAP1 PUSH2 0x37B6 JUMP JUMPDEST POP SWAP1 JUMP JUMPDEST POP DUP1 SLOAD PUSH1 0x0 DUP3 SSTORE PUSH1 0x9 MUL SWAP1 PUSH1 0x0 MSTORE PUSH1 0x20 PUSH1 0x0 KECCAK256 SWAP1 DUP2 ADD SWAP1 PUSH2 0x3701 SWAP2 SWAP1 PUSH2 0x37B6 JUMP JUMPDEST POP JUMP JUMPDEST JUMPDEST DUP1 DUP3 GT ISZERO PUSH2 0x371D JUMPI PUSH1 0x0 DUP2 PUSH1 0x0 SWAP1 SSTORE POP PUSH1 0x1 ADD PUSH2 0x3705 JUMP JUMPDEST POP SWAP1 JUMP JUMPDEST DUP3 DUP1 SLOAD PUSH1 0x1 DUP2 PUSH1 0x1 AND ISZERO PUSH2 0x100 MUL SUB AND PUSH1 0x2 SWAP1 DIV SWAP1 PUSH1 0x0 MSTORE PUSH1 0x20 PUSH1 0x0 KECCAK256 SWAP1 PUSH1 0x1F ADD PUSH1 0x20 SWAP1 DIV DUP2 ADD SWAP3 DUP3 PUSH2 0x3757 JUMPI PUSH1 0x0 DUP6 SSTORE PUSH2 0x37A5 JUMP JUMPDEST DUP3 PUSH1 0x1F LT PUSH2 0x3768 JUMPI DUP1 SLOAD DUP6 SSTORE PUSH2 0x37A5 JUMP JUMPDEST DUP3 DUP1 ADD PUSH1 0x1 ADD DUP6 SSTORE DUP3 ISZERO PUSH2 0x37A5 JUMPI PUSH1 0x0 MSTORE PUSH1 0x20 PUSH1 0x0 KECCAK256 SWAP2 PUSH1 0x1F ADD PUSH1 0x20 SWAP1 DIV DUP3 ADD JUMPDEST DUP3 DUP2 GT ISZERO PUSH2 0x37A4 JUMPI DUP3 SLOAD DUP3 SSTORE SWAP2 PUSH1 0x1 ADD SWAP2 SWAP1 PUSH1 0x1 ADD SWAP1 PUSH2 0x3789 JUMP JUMPDEST JUMPDEST POP SWAP1 POP PUSH2 0x37B2 SWAP2 SWAP1 PUSH2 0x3704 JUMP JUMPDEST POP SWAP1 JUMP JUMPDEST JUMPDEST DUP1 DUP3 GT ISZERO PUSH2 0x390F JUMPI PUSH1 0x0 DUP1 DUP3 ADD PUSH1 0x0 PUSH2 0x100 EXP DUP2 SLOAD SWAP1 PUSH4 0xFFFFFFFF MUL NOT AND SWAP1 SSTORE PUSH1 0x1 DUP3 ADD PUSH1 0x0 DUP1 DUP3 ADD PUSH1 0x0 PUSH2 0x100 EXP DUP2 SLOAD SWAP1 PUSH20 0xFFFFFFFFFFFFFFFFFFFFFFFFFFFFFFFFFFFFFFFF MUL NOT AND SWAP1 SSTORE PUSH1 0x0 DUP3 ADD PUSH1 0x14 PUSH2 0x100 EXP DUP2 SLOAD SWAP1 PUSH8 0xFFFFFFFFFFFFFFFF MUL NOT AND SWAP1 SSTORE POP POP PUSH1 0x2 DUP3 ADD PUSH1 0x0 PUSH2 0x100 EXP DUP2 SLOAD SWAP1 PUSH4 0xFFFFFFFF MUL NOT AND SWAP1 SSTORE PUSH1 0x2 DUP3 ADD PUSH1 0x4 PUSH2 0x100 EXP DUP2 SLOAD SWAP1 PUSH20 0xFFFFFFFFFFFFFFFFFFFFFFFFFFFFFFFFFFFFFFFF MUL NOT AND SWAP1 SSTORE PUSH1 0x3 DUP3 ADD PUSH1 0x0 SWAP1 SSTORE PUSH1 0x4 DUP3 ADD PUSH1 0x0 DUP1 DUP3 ADD PUSH1 0x0 PUSH2 0x100 EXP DUP2 SLOAD SWAP1 PUSH1 0xFF MUL NOT AND SWAP1 SSTORE PUSH1 0x1 DUP3 ADD PUSH1 0x0 PUSH2 0x388F SWAP2 SWAP1 PUSH2 0x3913 JUMP JUMPDEST POP POP PUSH1 0x6 DUP3 ADD PUSH1 0x0 PUSH2 0x100 EXP DUP2 SLOAD SWAP1 PUSH20 0xFFFFFFFFFFFFFFFFFFFFFFFFFFFFFFFFFFFFFFFF MUL NOT AND SWAP1 SSTORE PUSH1 0x7 DUP3 ADD PUSH1 0x0 PUSH2 0x100 EXP DUP2 SLOAD SWAP1 PUSH20 0xFFFFFFFFFFFFFFFFFFFFFFFFFFFFFFFFFFFFFFFF MUL NOT AND SWAP1 SSTORE PUSH1 0x8 DUP3 ADD PUSH1 0x0 PUSH2 0x100 EXP DUP2 SLOAD SWAP1 PUSH20 0xFFFFFFFFFFFFFFFFFFFFFFFFFFFFFFFFFFFFFFFF MUL NOT AND SWAP1 SSTORE POP PUSH1 0x9 ADD PUSH2 0x37B7 JUMP JUMPDEST POP SWAP1 JUMP JUMPDEST POP DUP1 SLOAD PUSH1 0x1 DUP2 PUSH1 0x1 AND ISZERO PUSH2 0x100 MUL SUB AND PUSH1 0x2 SWAP1 DIV PUSH1 0x0 DUP3 SSTORE DUP1 PUSH1 0x1F LT PUSH2 0x3939 JUMPI POP PUSH2 0x3958 JUMP JUMPDEST PUSH1 0x1F ADD PUSH1 0x20 SWAP1 DIV SWAP1 PUSH1 0x0 MSTORE PUSH1 0x20 PUSH1 0x0 KECCAK256 SWAP1 DUP2 ADD SWAP1 PUSH2 0x3957 SWAP2 SWAP1 PUSH2 0x3704 JUMP JUMPDEST JUMPDEST POP JUMP JUMPDEST PUSH1 0x0 PUSH2 0x396E PUSH2 0x3969 DUP5 PUSH2 0x5E7F JUMP JUMPDEST PUSH2 0x5E4E JUMP JUMPDEST SWAP1 POP DUP1 DUP4 DUP3 MSTORE PUSH1 0x20 DUP3 ADD SWAP1 POP DUP3 DUP6 PUSH1 0x20 DUP7 MUL DUP3 ADD GT ISZERO PUSH2 0x398D JUMPI PUSH1 0x0 DUP1 REVERT JUMPDEST PUSH1 0x0 JUMPDEST DUP6 DUP2 LT ISZERO PUSH2 0x39BD JUMPI DUP2 PUSH2 0x39A3 DUP9 DUP3 PUSH2 0x3DF4 JUMP JUMPDEST DUP5 MSTORE PUSH1 0x20 DUP5 ADD SWAP4 POP PUSH1 0x20 DUP4 ADD SWAP3 POP POP PUSH1 0x1 DUP2 ADD SWAP1 POP PUSH2 0x3990 JUMP JUMPDEST POP POP POP SWAP4 SWAP3 POP POP POP JUMP JUMPDEST PUSH1 0x0 PUSH2 0x39DA PUSH2 0x39D5 DUP5 PUSH2 0x5EAB JUMP JUMPDEST PUSH2 0x5E4E JUMP JUMPDEST SWAP1 POP DUP1 DUP4 DUP3 MSTORE PUSH1 0x20 DUP3 ADD SWAP1 POP DUP3 PUSH1 0x0 JUMPDEST DUP6 DUP2 LT ISZERO PUSH2 0x3A1A JUMPI DUP2 CALLDATALOAD DUP6 ADD PUSH2 0x3A00 DUP9 DUP3 PUSH2 0x3EB1 JUMP JUMPDEST DUP5 MSTORE PUSH1 0x20 DUP5 ADD SWAP4 POP PUSH1 0x20 DUP4 ADD SWAP3 POP POP PUSH1 0x1 DUP2 ADD SWAP1 POP PUSH2 0x39EA JUMP JUMPDEST POP POP POP SWAP4 SWAP3 POP POP POP JUMP JUMPDEST PUSH1 0x0 PUSH2 0x3A37 PUSH2 0x3A32 DUP5 PUSH2 0x5ED7 JUMP JUMPDEST PUSH2 0x5E4E JUMP JUMPDEST SWAP1 POP DUP1 DUP4 DUP3 MSTORE PUSH1 0x20 DUP3 ADD SWAP1 POP DUP3 DUP6 PUSH1 0x40 DUP7 MUL DUP3 ADD GT ISZERO PUSH2 0x3A56 JUMPI PUSH1 0x0 DUP1 REVERT JUMPDEST PUSH1 0x0 JUMPDEST DUP6 DUP2 LT ISZERO PUSH2 0x3A86 JUMPI DUP2 PUSH2 0x3A6C DUP9 DUP3 PUSH2 0x42A9 JUMP JUMPDEST DUP5 MSTORE PUSH1 0x20 DUP5 ADD SWAP4 POP PUSH1 0x40 DUP4 ADD SWAP3 POP POP PUSH1 0x1 DUP2 ADD SWAP1 POP PUSH2 0x3A59 JUMP JUMPDEST POP POP POP SWAP4 SWAP3 POP POP POP JUMP JUMPDEST PUSH1 0x0 PUSH2 0x3AA3 PUSH2 0x3A9E DUP5 PUSH2 0x5ED7 JUMP JUMPDEST PUSH2 0x5E4E JUMP JUMPDEST SWAP1 POP DUP1 DUP4 DUP3 MSTORE PUSH1 0x20 DUP3 ADD SWAP1 POP DUP3 DUP6 PUSH1 0x40 DUP7 MUL DUP3 ADD GT ISZERO PUSH2 0x3AC2 JUMPI PUSH1 0x0 DUP1 REVERT JUMPDEST PUSH1 0x0 JUMPDEST DUP6 DUP2 LT ISZERO PUSH2 0x3AF2 JUMPI DUP2 PUSH2 0x3AD8 DUP9 DUP3 PUSH2 0x42F5 JUMP JUMPDEST DUP5 MSTORE PUSH1 0x20 DUP5 ADD SWAP4 POP PUSH1 0x40 DUP4 ADD SWAP3 POP POP PUSH1 0x1 DUP2 ADD SWAP1 POP PUSH2 0x3AC5 JUMP JUMPDEST POP POP POP SWAP4 SWAP3 POP POP POP JUMP JUMPDEST PUSH1 0x0 PUSH2 0x3B0F PUSH2 0x3B0A DUP5 PUSH2 0x5F03 JUMP JUMPDEST PUSH2 0x5E4E JUMP JUMPDEST SWAP1 POP DUP1 DUP4 DUP3 MSTORE PUSH1 0x20 DUP3 ADD SWAP1 POP DUP3 PUSH1 0x0 JUMPDEST DUP6 DUP2 LT ISZERO PUSH2 0x3B4F JUMPI DUP2 CALLDATALOAD DUP6 ADD PUSH2 0x3B35 DUP9 DUP3 PUSH2 0x4471 JUMP JUMPDEST DUP5 MSTORE PUSH1 0x20 DUP5 ADD SWAP4 POP PUSH1 0x20 DUP4 ADD SWAP3 POP POP PUSH1 0x1 DUP2 ADD SWAP1 POP PUSH2 0x3B1F JUMP JUMPDEST POP POP POP SWAP4 SWAP3 POP POP POP JUMP JUMPDEST PUSH1 0x0 PUSH2 0x3B6C PUSH2 0x3B67 DUP5 PUSH2 0x5F2F JUMP JUMPDEST PUSH2 0x5E4E JUMP JUMPDEST SWAP1 POP DUP1 DUP4 DUP3 MSTORE PUSH1 0x20 DUP3 ADD SWAP1 POP DUP3 PUSH1 0x0 JUMPDEST DUP6 DUP2 LT ISZERO PUSH2 0x3BAC JUMPI DUP2 CALLDATALOAD DUP6 ADD PUSH2 0x3B92 DUP9 DUP3 PUSH2 0x4555 JUMP JUMPDEST DUP5 MSTORE PUSH1 0x20 DUP5 ADD SWAP4 POP PUSH1 0x20 DUP4 ADD SWAP3 POP POP PUSH1 0x1 DUP2 ADD SWAP1 POP PUSH2 0x3B7C JUMP JUMPDEST POP POP POP SWAP4 SWAP3 POP POP POP JUMP JUMPDEST PUSH1 0x0 PUSH2 0x3BC9 PUSH2 0x3BC4 DUP5 PUSH2 0x5F5B JUMP JUMPDEST PUSH2 0x5E4E JUMP JUMPDEST SWAP1 POP DUP1 DUP4 DUP3 MSTORE PUSH1 0x20 DUP3 ADD SWAP1 POP DUP3 PUSH1 0x0 JUMPDEST DUP6 DUP2 LT ISZERO PUSH2 0x3C09 JUMPI DUP2 CALLDATALOAD DUP6 ADD PUSH2 0x3BEF DUP9 DUP3 PUSH2 0x464A JUMP JUMPDEST DUP5 MSTORE PUSH1 0x20 DUP5 ADD SWAP4 POP PUSH1 0x20 DUP4 ADD SWAP3 POP POP PUSH1 0x1 DUP2 ADD SWAP1 POP PUSH2 0x3BD9 JUMP JUMPDEST POP POP POP SWAP4 SWAP3 POP POP POP JUMP JUMPDEST PUSH1 0x0 PUSH2 0x3C26 PUSH2 0x3C21 DUP5 PUSH2 0x5F87 JUMP JUMPDEST PUSH2 0x5E4E JUMP JUMPDEST SWAP1 POP DUP3 DUP2 MSTORE PUSH1 0x20 DUP2 ADD DUP5 DUP5 DUP5 ADD GT ISZERO PUSH2 0x3C3E JUMPI PUSH1 0x0 DUP1 REVERT JUMPDEST PUSH2 0x3C49 DUP5 DUP3 DUP6 PUSH2 0x6320 JUMP JUMPDEST POP SWAP4 SWAP3 POP POP POP JUMP JUMPDEST PUSH1 0x0 PUSH2 0x3C64 PUSH2 0x3C5F DUP5 PUSH2 0x5F87 JUMP JUMPDEST PUSH2 0x5E4E JUMP JUMPDEST SWAP1 POP DUP3 DUP2 MSTORE PUSH1 0x20 DUP2 ADD DUP5 DUP5 DUP5 ADD GT ISZERO PUSH2 0x3C7C JUMPI PUSH1 0x0 DUP1 REVERT JUMPDEST PUSH2 0x3C87 DUP5 DUP3 DUP6 PUSH2 0x632F JUMP JUMPDEST POP SWAP4 SWAP3 POP POP POP JUMP JUMPDEST PUSH1 0x0 DUP2 CALLDATALOAD SWAP1 POP PUSH2 0x3C9E DUP2 PUSH2 0x6442 JUMP JUMPDEST SWAP3 SWAP2 POP POP JUMP JUMPDEST PUSH1 0x0 DUP2 MLOAD SWAP1 POP PUSH2 0x3CB3 DUP2 PUSH2 0x6442 JUMP JUMPDEST SWAP3 SWAP2 POP POP JUMP JUMPDEST PUSH1 0x0 DUP3 PUSH1 0x1F DUP4 ADD SLT PUSH2 0x3CCA JUMPI PUSH1 0x0 DUP1 REVERT JUMPDEST DUP2 CALLDATALOAD PUSH2 0x3CDA DUP5 DUP3 PUSH1 0x20 DUP7 ADD PUSH2 0x395B JUMP JUMPDEST SWAP2 POP POP SWAP3 SWAP2 POP POP JUMP JUMPDEST PUSH1 0x0 DUP3 PUSH1 0x1F DUP4 ADD SLT PUSH2 0x3CF4 JUMPI PUSH1 0x0 DUP1 REVERT JUMPDEST DUP2 CALLDATALOAD PUSH2 0x3D04 DUP5 DUP3 PUSH1 0x20 DUP7 ADD PUSH2 0x39C7 JUMP JUMPDEST SWAP2 POP POP SWAP3 SWAP2 POP POP JUMP JUMPDEST PUSH1 0x0 DUP3 PUSH1 0x1F DUP4 ADD SLT PUSH2 0x3D1E JUMPI PUSH1 0x0 DUP1 REVERT JUMPDEST DUP2 CALLDATALOAD PUSH2 0x3D2E DUP5 DUP3 PUSH1 0x20 DUP7 ADD PUSH2 0x3A24 JUMP JUMPDEST SWAP2 POP POP SWAP3 SWAP2 POP POP JUMP JUMPDEST PUSH1 0x0 DUP3 PUSH1 0x1F DUP4 ADD SLT PUSH2 0x3D48 JUMPI PUSH1 0x0 DUP1 REVERT JUMPDEST DUP2 MLOAD PUSH2 0x3D58 DUP5 DUP3 PUSH1 0x20 DUP7 ADD PUSH2 0x3A90 JUMP JUMPDEST SWAP2 POP POP SWAP3 SWAP2 POP POP JUMP JUMPDEST PUSH1 0x0 DUP3 PUSH1 0x1F DUP4 ADD SLT PUSH2 0x3D72 JUMPI PUSH1 0x0 DUP1 REVERT JUMPDEST DUP2 CALLDATALOAD PUSH2 0x3D82 DUP5 DUP3 PUSH1 0x20 DUP7 ADD PUSH2 0x3AFC JUMP JUMPDEST SWAP2 POP POP SWAP3 SWAP2 POP POP JUMP JUMPDEST PUSH1 0x0 DUP3 PUSH1 0x1F DUP4 ADD SLT PUSH2 0x3D9C JUMPI PUSH1 0x0 DUP1 REVERT JUMPDEST DUP2 CALLDATALOAD PUSH2 0x3DAC DUP5 DUP3 PUSH1 0x20 DUP7 ADD PUSH2 0x3B59 JUMP JUMPDEST SWAP2 POP POP SWAP3 SWAP2 POP POP JUMP JUMPDEST PUSH1 0x0 DUP3 PUSH1 0x1F DUP4 ADD SLT PUSH2 0x3DC6 JUMPI PUSH1 0x0 DUP1 REVERT JUMPDEST DUP2 CALLDATALOAD PUSH2 0x3DD6 DUP5 DUP3 PUSH1 0x20 DUP7 ADD PUSH2 0x3BB6 JUMP JUMPDEST SWAP2 POP POP SWAP3 SWAP2 POP POP JUMP JUMPDEST PUSH1 0x0 DUP2 MLOAD SWAP1 POP PUSH2 0x3DEE DUP2 PUSH2 0x6459 JUMP JUMPDEST SWAP3 SWAP2 POP POP JUMP JUMPDEST PUSH1 0x0 DUP2 CALLDATALOAD SWAP1 POP PUSH2 0x3E03 DUP2 PUSH2 0x6470 JUMP JUMPDEST SWAP3 SWAP2 POP POP JUMP JUMPDEST PUSH1 0x0 DUP2 MLOAD SWAP1 POP PUSH2 0x3E18 DUP2 PUSH2 0x6470 JUMP JUMPDEST SWAP3 SWAP2 POP POP JUMP JUMPDEST PUSH1 0x0 DUP3 PUSH1 0x1F DUP4 ADD SLT PUSH2 0x3E2F JUMPI PUSH1 0x0 DUP1 REVERT JUMPDEST DUP2 CALLDATALOAD PUSH2 0x3E3F DUP5 DUP3 PUSH1 0x20 DUP7 ADD PUSH2 0x3C13 JUMP JUMPDEST SWAP2 POP POP SWAP3 SWAP2 POP POP JUMP JUMPDEST PUSH1 0x0 DUP3 PUSH1 0x1F DUP4 ADD SLT PUSH2 0x3E59 JUMPI PUSH1 0x0 DUP1 REVERT JUMPDEST DUP2 MLOAD PUSH2 0x3E69 DUP5 DUP3 PUSH1 0x20 DUP7 ADD PUSH2 0x3C51 JUMP JUMPDEST SWAP2 POP POP SWAP3 SWAP2 POP POP JUMP JUMPDEST PUSH1 0x0 DUP2 MLOAD SWAP1 POP PUSH2 0x3E81 DUP2 PUSH2 0x6487 JUMP JUMPDEST SWAP3 SWAP2 POP POP JUMP JUMPDEST PUSH1 0x0 DUP2 CALLDATALOAD SWAP1 POP PUSH2 0x3E96 DUP2 PUSH2 0x649E JUMP JUMPDEST SWAP3 SWAP2 POP POP JUMP JUMPDEST PUSH1 0x0 DUP2 MLOAD SWAP1 POP PUSH2 0x3EAB DUP2 PUSH2 0x649E JUMP JUMPDEST SWAP3 SWAP2 POP POP JUMP JUMPDEST PUSH1 0x0 PUSH1 0x80 DUP3 DUP5 SUB SLT ISZERO PUSH2 0x3EC3 JUMPI PUSH1 0x0 DUP1 REVERT JUMPDEST PUSH2 0x3ECD PUSH1 0x80 PUSH2 0x5E4E JUMP JUMPDEST SWAP1 POP PUSH1 0x0 PUSH2 0x3EDD DUP5 DUP3 DUP6 ADD PUSH2 0x481E JUMP JUMPDEST PUSH1 0x0 DUP4 ADD MSTORE POP PUSH1 0x20 PUSH2 0x3EF1 DUP5 DUP3 DUP6 ADD PUSH2 0x481E JUMP JUMPDEST PUSH1 0x20 DUP4 ADD MSTORE POP PUSH1 0x40 DUP3 ADD CALLDATALOAD PUSH8 0xFFFFFFFFFFFFFFFF DUP2 GT ISZERO PUSH2 0x3F11 JUMPI PUSH1 0x0 DUP1 REVERT JUMPDEST PUSH2 0x3F1D DUP5 DUP3 DUP6 ADD PUSH2 0x3E1E JUMP JUMPDEST PUSH1 0x40 DUP4 ADD MSTORE POP PUSH1 0x60 DUP3 ADD CALLDATALOAD PUSH8 0xFFFFFFFFFFFFFFFF DUP2 GT ISZERO PUSH2 0x3F3D JUMPI PUSH1 0x0 DUP1 REVERT JUMPDEST PUSH2 0x3F49 DUP5 DUP3 DUP6 ADD PUSH2 0x3DB5 JUMP JUMPDEST PUSH1 0x60 DUP4 ADD MSTORE POP SWAP3 SWAP2 POP POP JUMP JUMPDEST PUSH1 0x0 PUSH2 0x1C0 DUP3 DUP5 SUB SLT ISZERO PUSH2 0x3F68 JUMPI PUSH1 0x0 DUP1 REVERT JUMPDEST PUSH2 0x3F73 PUSH2 0x1C0 PUSH2 0x5E4E JUMP JUMPDEST SWAP1 POP PUSH1 0x0 PUSH2 0x3F83 DUP5 DUP3 DUP6 ADD PUSH2 0x4776 JUMP JUMPDEST PUSH1 0x0 DUP4 ADD MSTORE POP PUSH1 0x20 PUSH2 0x3F97 DUP5 DUP3 DUP6 ADD PUSH2 0x4776 JUMP JUMPDEST PUSH1 0x20 DUP4 ADD MSTORE POP PUSH1 0x40 PUSH2 0x3FAB DUP5 DUP3 DUP6 ADD PUSH2 0x3C8F JUMP JUMPDEST PUSH1 0x40 DUP4 ADD MSTORE POP PUSH1 0x60 PUSH2 0x3FBF DUP5 DUP3 DUP6 ADD PUSH2 0x3DF4 JUMP JUMPDEST PUSH1 0x60 DUP4 ADD MSTORE POP PUSH1 0x80 PUSH2 0x3FD3 DUP5 DUP3 DUP6 ADD PUSH2 0x47CA JUMP JUMPDEST PUSH1 0x80 DUP4 ADD MSTORE POP PUSH1 0xA0 PUSH2 0x3FE7 DUP5 DUP3 DUP6 ADD PUSH2 0x47CA JUMP JUMPDEST PUSH1 0xA0 DUP4 ADD MSTORE POP PUSH1 0xC0 PUSH2 0x3FFB DUP5 DUP3 DUP6 ADD PUSH2 0x3C8F JUMP JUMPDEST PUSH1 0xC0 DUP4 ADD MSTORE POP PUSH1 0xE0 PUSH2 0x400F DUP5 DUP3 DUP6 ADD PUSH2 0x3C8F JUMP JUMPDEST PUSH1 0xE0 DUP4 ADD MSTORE POP PUSH2 0x100 PUSH2 0x4024 DUP5 DUP3 DUP6 ADD PUSH2 0x47CA JUMP JUMPDEST PUSH2 0x100 DUP4 ADD MSTORE POP PUSH2 0x120 DUP3 ADD CALLDATALOAD PUSH8 0xFFFFFFFFFFFFFFFF DUP2 GT ISZERO PUSH2 0x4046 JUMPI PUSH1 0x0 DUP1 REVERT JUMPDEST PUSH2 0x4052 DUP5 DUP3 DUP6 ADD PUSH2 0x3D0D JUMP JUMPDEST PUSH2 0x120 DUP4 ADD MSTORE POP PUSH2 0x140 DUP3 ADD CALLDATALOAD PUSH8 0xFFFFFFFFFFFFFFFF DUP2 GT ISZERO PUSH2 0x4074 JUMPI PUSH1 0x0 DUP1 REVERT JUMPDEST PUSH2 0x4080 DUP5 DUP3 DUP6 ADD PUSH2 0x3D0D JUMP JUMPDEST PUSH2 0x140 DUP4 ADD MSTORE POP PUSH2 0x160 DUP3 ADD CALLDATALOAD PUSH8 0xFFFFFFFFFFFFFFFF DUP2 GT ISZERO PUSH2 0x40A2 JUMPI PUSH1 0x0 DUP1 REVERT JUMPDEST PUSH2 0x40AE DUP5 DUP3 DUP6 ADD PUSH2 0x3D0D JUMP JUMPDEST PUSH2 0x160 DUP4 ADD MSTORE POP PUSH2 0x180 DUP3 ADD CALLDATALOAD PUSH8 0xFFFFFFFFFFFFFFFF DUP2 GT ISZERO PUSH2 0x40D0 JUMPI PUSH1 0x0 DUP1 REVERT JUMPDEST PUSH2 0x40DC DUP5 DUP3 DUP6 ADD PUSH2 0x46AE JUMP JUMPDEST PUSH2 0x180 DUP4 ADD MSTORE POP PUSH2 0x1A0 PUSH2 0x40F2 DUP5 DUP3 DUP6 ADD PUSH2 0x3E87 JUMP JUMPDEST PUSH2 0x1A0 DUP4 ADD MSTORE POP SWAP3 SWAP2 POP POP JUMP JUMPDEST PUSH1 0x0 PUSH2 0x1C0 DUP3 DUP5 SUB SLT ISZERO PUSH2 0x4112 JUMPI PUSH1 0x0 DUP1 REVERT JUMPDEST PUSH2 0x411D PUSH2 0x1C0 PUSH2 0x5E4E JUMP JUMPDEST SWAP1 POP PUSH1 0x0 PUSH2 0x412D DUP5 DUP3 DUP6 ADD PUSH2 0x478B JUMP JUMPDEST PUSH1 0x0 DUP4 ADD MSTORE POP PUSH1 0x20 PUSH2 0x4141 DUP5 DUP3 DUP6 ADD PUSH2 0x478B JUMP JUMPDEST PUSH1 0x20 DUP4 ADD MSTORE POP PUSH1 0x40 PUSH2 0x4155 DUP5 DUP3 DUP6 ADD PUSH2 0x3CA4 JUMP JUMPDEST PUSH1 0x40 DUP4 ADD MSTORE POP PUSH1 0x60 PUSH2 0x4169 DUP5 DUP3 DUP6 ADD PUSH2 0x3E09 JUMP JUMPDEST PUSH1 0x60 DUP4 ADD MSTORE POP PUSH1 0x80 PUSH2 0x417D DUP5 DUP3 DUP6 ADD PUSH2 0x47DF JUMP JUMPDEST PUSH1 0x80 DUP4 ADD MSTORE POP PUSH1 0xA0 PUSH2 0x4191 DUP5 DUP3 DUP6 ADD PUSH2 0x47DF JUMP JUMPDEST PUSH1 0xA0 DUP4 ADD MSTORE POP PUSH1 0xC0 PUSH2 0x41A5 DUP5 DUP3 DUP6 ADD PUSH2 0x3CA4 JUMP JUMPDEST PUSH1 0xC0 DUP4 ADD MSTORE POP PUSH1 0xE0 PUSH2 0x41B9 DUP5 DUP3 DUP6 ADD PUSH2 0x3CA4 JUMP JUMPDEST PUSH1 0xE0 DUP4 ADD MSTORE POP PUSH2 0x100 PUSH2 0x41CE DUP5 DUP3 DUP6 ADD PUSH2 0x47DF JUMP JUMPDEST PUSH2 0x100 DUP4 ADD MSTORE POP PUSH2 0x120 DUP3 ADD MLOAD PUSH8 0xFFFFFFFFFFFFFFFF DUP2 GT ISZERO PUSH2 0x41F0 JUMPI PUSH1 0x0 DUP1 REVERT JUMPDEST PUSH2 0x41FC DUP5 DUP3 DUP6 ADD PUSH2 0x3D37 JUMP JUMPDEST PUSH2 0x120 DUP4 ADD MSTORE POP PUSH2 0x140 DUP3 ADD MLOAD PUSH8 0xFFFFFFFFFFFFFFFF DUP2 GT ISZERO PUSH2 0x421E JUMPI PUSH1 0x0 DUP1 REVERT JUMPDEST PUSH2 0x422A DUP5 DUP3 DUP6 ADD PUSH2 0x3D37 JUMP JUMPDEST PUSH2 0x140 DUP4 ADD MSTORE POP PUSH2 0x160 DUP3 ADD MLOAD PUSH8 0xFFFFFFFFFFFFFFFF DUP2 GT ISZERO PUSH2 0x424C JUMPI PUSH1 0x0 DUP1 REVERT JUMPDEST PUSH2 0x4258 DUP5 DUP3 DUP6 ADD PUSH2 0x3D37 JUMP JUMPDEST PUSH2 0x160 DUP4 ADD MSTORE POP PUSH2 0x180 DUP3 ADD MLOAD PUSH8 0xFFFFFFFFFFFFFFFF DUP2 GT ISZERO PUSH2 0x427A JUMPI PUSH1 0x0 DUP1 REVERT JUMPDEST PUSH2 0x4286 DUP5 DUP3 DUP6 ADD PUSH2 0x4712 JUMP JUMPDEST PUSH2 0x180 DUP4 ADD MSTORE POP PUSH2 0x1A0 PUSH2 0x429C DUP5 DUP3 DUP6 ADD PUSH2 0x3E9C JUMP JUMPDEST PUSH2 0x1A0 DUP4 ADD MSTORE POP SWAP3 SWAP2 POP POP JUMP JUMPDEST PUSH1 0x0 PUSH1 0x40 DUP3 DUP5 SUB SLT ISZERO PUSH2 0x42BB JUMPI PUSH1 0x0 DUP1 REVERT JUMPDEST PUSH2 0x42C5 PUSH1 0x40 PUSH2 0x5E4E JUMP JUMPDEST SWAP1 POP PUSH1 0x0 PUSH2 0x42D5 DUP5 DUP3 DUP6 ADD PUSH2 0x3C8F JUMP JUMPDEST PUSH1 0x0 DUP4 ADD MSTORE POP PUSH1 0x20 PUSH2 0x42E9 DUP5 DUP3 DUP6 ADD PUSH2 0x47F4 JUMP JUMPDEST PUSH1 0x20 DUP4 ADD MSTORE POP SWAP3 SWAP2 POP POP JUMP JUMPDEST PUSH1 0x0 PUSH1 0x40 DUP3 DUP5 SUB SLT ISZERO PUSH2 0x4307 JUMPI PUSH1 0x0 DUP1 REVERT JUMPDEST PUSH2 0x4311 PUSH1 0x40 PUSH2 0x5E4E JUMP JUMPDEST SWAP1 POP PUSH1 0x0 PUSH2 0x4321 DUP5 DUP3 DUP6 ADD PUSH2 0x3CA4 JUMP JUMPDEST PUSH1 0x0 DUP4 ADD MSTORE POP PUSH1 0x20 PUSH2 0x4335 DUP5 DUP3 DUP6 ADD PUSH2 0x4809 JUMP JUMPDEST PUSH1 0x20 DUP4 ADD MSTORE POP SWAP3 SWAP2 POP POP JUMP JUMPDEST PUSH1 0x0 PUSH1 0x80 DUP3 DUP5 SUB SLT ISZERO PUSH2 0x4353 JUMPI PUSH1 0x0 DUP1 REVERT JUMPDEST PUSH2 0x435D PUSH1 0x80 PUSH2 0x5E4E JUMP JUMPDEST SWAP1 POP PUSH1 0x0 PUSH2 0x436D DUP5 DUP3 DUP6 ADD PUSH2 0x481E JUMP JUMPDEST PUSH1 0x0 DUP4 ADD MSTORE POP PUSH1 0x20 PUSH2 0x4381 DUP5 DUP3 DUP6 ADD PUSH2 0x47CA JUMP JUMPDEST PUSH1 0x20 DUP4 ADD MSTORE POP PUSH1 0x40 PUSH2 0x4395 DUP5 DUP3 DUP6 ADD PUSH2 0x47CA JUMP JUMPDEST PUSH1 0x40 DUP4 ADD MSTORE POP PUSH1 0x60 DUP3 ADD CALLDATALOAD PUSH8 0xFFFFFFFFFFFFFFFF DUP2 GT ISZERO PUSH2 0x43B5 JUMPI PUSH1 0x0 DUP1 REVERT JUMPDEST PUSH2 0x43C1 DUP5 DUP3 DUP6 ADD PUSH2 0x3CB9 JUMP JUMPDEST PUSH1 0x60 DUP4 ADD MSTORE POP SWAP3 SWAP2 POP POP JUMP JUMPDEST PUSH1 0x0 PUSH1 0x80 DUP3 DUP5 SUB SLT ISZERO PUSH2 0x43DF JUMPI PUSH1 0x0 DUP1 REVERT JUMPDEST PUSH2 0x43E9 PUSH1 0x80 PUSH2 0x5E4E JUMP JUMPDEST SWAP1 POP PUSH1 0x0 PUSH2 0x43F9 DUP5 DUP3 DUP6 ADD PUSH2 0x481E JUMP JUMPDEST PUSH1 0x0 DUP4 ADD MSTORE POP PUSH1 0x20 PUSH2 0x440D DUP5 DUP3 DUP6 ADD PUSH2 0x481E JUMP JUMPDEST PUSH1 0x20 DUP4 ADD MSTORE POP PUSH1 0x40 DUP3 ADD CALLDATALOAD PUSH8 0xFFFFFFFFFFFFFFFF DUP2 GT ISZERO PUSH2 0x442D JUMPI PUSH1 0x0 DUP1 REVERT JUMPDEST PUSH2 0x4439 DUP5 DUP3 DUP6 ADD PUSH2 0x3DB5 JUMP JUMPDEST PUSH1 0x40 DUP4 ADD MSTORE POP PUSH1 0x60 DUP3 ADD CALLDATALOAD PUSH8 0xFFFFFFFFFFFFFFFF DUP2 GT ISZERO PUSH2 0x4459 JUMPI PUSH1 0x0 DUP1 REVERT JUMPDEST PUSH2 0x4465 DUP5 DUP3 DUP6 ADD PUSH2 0x3CE3 JUMP JUMPDEST PUSH1 0x60 DUP4 ADD MSTORE POP SWAP3 SWAP2 POP POP JUMP JUMPDEST PUSH1 0x0 PUSH1 0xC0 DUP3 DUP5 SUB SLT ISZERO PUSH2 0x4483 JUMPI PUSH1 0x0 DUP1 REVERT JUMPDEST PUSH2 0x448D PUSH1 0xC0 PUSH2 0x5E4E JUMP JUMPDEST SWAP1 POP PUSH1 0x0 PUSH2 0x449D DUP5 DUP3 DUP6 ADD PUSH2 0x47A0 JUMP JUMPDEST PUSH1 0x0 DUP4 ADD MSTORE POP PUSH1 0x20 PUSH2 0x44B1 DUP5 DUP3 DUP6 ADD PUSH2 0x3DF4 JUMP JUMPDEST PUSH1 0x20 DUP4 ADD MSTORE POP PUSH1 0x40 PUSH2 0x44C5 DUP5 DUP3 DUP6 ADD PUSH2 0x47A0 JUMP JUMPDEST PUSH1 0x40 DUP4 ADD MSTORE POP PUSH1 0x60 DUP3 ADD CALLDATALOAD PUSH8 0xFFFFFFFFFFFFFFFF DUP2 GT ISZERO PUSH2 0x44E5 JUMPI PUSH1 0x0 DUP1 REVERT JUMPDEST PUSH2 0x44F1 DUP5 DUP3 DUP6 ADD PUSH2 0x3F55 JUMP JUMPDEST PUSH1 0x60 DUP4 ADD MSTORE POP PUSH1 0x80 DUP3 ADD CALLDATALOAD PUSH8 0xFFFFFFFFFFFFFFFF DUP2 GT ISZERO PUSH2 0x4511 JUMPI PUSH1 0x0 DUP1 REVERT JUMPDEST PUSH2 0x451D DUP5 DUP3 DUP6 ADD PUSH2 0x43CD JUMP JUMPDEST PUSH1 0x80 DUP4 ADD MSTORE POP PUSH1 0xA0 DUP3 ADD CALLDATALOAD PUSH8 0xFFFFFFFFFFFFFFFF DUP2 GT ISZERO PUSH2 0x453D JUMPI PUSH1 0x0 DUP1 REVERT JUMPDEST PUSH2 0x4549 DUP5 DUP3 DUP6 ADD PUSH2 0x3D8B JUMP JUMPDEST PUSH1 0xA0 DUP4 ADD MSTORE POP SWAP3 SWAP2 POP POP JUMP JUMPDEST PUSH1 0x0 PUSH2 0x140 DUP3 DUP5 SUB SLT ISZERO PUSH2 0x4568 JUMPI PUSH1 0x0 DUP1 REVERT JUMPDEST PUSH2 0x4573 PUSH2 0x120 PUSH2 0x5E4E JUMP JUMPDEST SWAP1 POP PUSH1 0x0 PUSH2 0x4583 DUP5 DUP3 DUP6 ADD PUSH2 0x47CA JUMP JUMPDEST PUSH1 0x0 DUP4 ADD MSTORE POP PUSH1 0x20 PUSH2 0x4597 DUP5 DUP3 DUP6 ADD PUSH2 0x42A9 JUMP JUMPDEST PUSH1 0x20 DUP4 ADD MSTORE POP PUSH1 0x60 PUSH2 0x45AB DUP5 DUP3 DUP6 ADD PUSH2 0x47CA JUMP JUMPDEST PUSH1 0x40 DUP4 ADD MSTORE POP PUSH1 0x80 PUSH2 0x45BF DUP5 DUP3 DUP6 ADD PUSH2 0x3C8F JUMP JUMPDEST PUSH1 0x60 DUP4 ADD MSTORE POP PUSH1 0xA0 PUSH2 0x45D3 DUP5 DUP3 DUP6 ADD PUSH2 0x47A0 JUMP JUMPDEST PUSH1 0x80 DUP4 ADD MSTORE POP PUSH1 0xC0 DUP3 ADD CALLDATALOAD PUSH8 0xFFFFFFFFFFFFFFFF DUP2 GT ISZERO PUSH2 0x45F3 JUMPI PUSH1 0x0 DUP1 REVERT JUMPDEST PUSH2 0x45FF DUP5 DUP3 DUP6 ADD PUSH2 0x46AE JUMP JUMPDEST PUSH1 0xA0 DUP4 ADD MSTORE POP PUSH1 0xE0 PUSH2 0x4613 DUP5 DUP3 DUP6 ADD PUSH2 0x3C8F JUMP JUMPDEST PUSH1 0xC0 DUP4 ADD MSTORE POP PUSH2 0x100 PUSH2 0x4628 DUP5 DUP3 DUP6 ADD PUSH2 0x3C8F JUMP JUMPDEST PUSH1 0xE0 DUP4 ADD MSTORE POP PUSH2 0x120 PUSH2 0x463D DUP5 DUP3 DUP6 ADD PUSH2 0x3C8F JUMP JUMPDEST PUSH2 0x100 DUP4 ADD MSTORE POP SWAP3 SWAP2 POP POP JUMP JUMPDEST PUSH1 0x0 PUSH1 0x40 DUP3 DUP5 SUB SLT ISZERO PUSH2 0x465C JUMPI PUSH1 0x0 DUP1 REVERT JUMPDEST PUSH2 0x4666 PUSH1 0x40 PUSH2 0x5E4E JUMP JUMPDEST SWAP1 POP PUSH1 0x0 PUSH2 0x4676 DUP5 DUP3 DUP6 ADD PUSH2 0x481E JUMP JUMPDEST PUSH1 0x0 DUP4 ADD MSTORE POP PUSH1 0x20 DUP3 ADD CALLDATALOAD PUSH8 0xFFFFFFFFFFFFFFFF DUP2 GT ISZERO PUSH2 0x4696 JUMPI PUSH1 0x0 DUP1 REVERT JUMPDEST PUSH2 0x46A2 DUP5 DUP3 DUP6 ADD PUSH2 0x4341 JUMP JUMPDEST PUSH1 0x20 DUP4 ADD MSTORE POP SWAP3 SWAP2 POP POP JUMP JUMPDEST PUSH1 0x0 PUSH1 0x40 DUP3 DUP5 SUB SLT ISZERO PUSH2 0x46C0 JUMPI PUSH1 0x0 DUP1 REVERT JUMPDEST PUSH2 0x46CA PUSH1 0x40 PUSH2 0x5E4E JUMP JUMPDEST SWAP1 POP PUSH1 0x0 PUSH2 0x46DA DUP5 DUP3 DUP6 ADD PUSH2 0x481E JUMP JUMPDEST PUSH1 0x0 DUP4 ADD MSTORE POP PUSH1 0x20 DUP3 ADD CALLDATALOAD PUSH8 0xFFFFFFFFFFFFFFFF DUP2 GT ISZERO PUSH2 0x46FA JUMPI PUSH1 0x0 DUP1 REVERT JUMPDEST PUSH2 0x4706 DUP5 DUP3 DUP6 ADD PUSH2 0x3E1E JUMP JUMPDEST PUSH1 0x20 DUP4 ADD MSTORE POP SWAP3 SWAP2 POP POP JUMP JUMPDEST PUSH1 0x0 PUSH1 0x40 DUP3 DUP5 SUB SLT ISZERO PUSH2 0x4724 JUMPI PUSH1 0x0 DUP1 REVERT JUMPDEST PUSH2 0x472E PUSH1 0x40 PUSH2 0x5E4E JUMP JUMPDEST SWAP1 POP PUSH1 0x0 PUSH2 0x473E DUP5 DUP3 DUP6 ADD PUSH2 0x4833 JUMP JUMPDEST PUSH1 0x0 DUP4 ADD MSTORE POP PUSH1 0x20 DUP3 ADD MLOAD PUSH8 0xFFFFFFFFFFFFFFFF DUP2 GT ISZERO PUSH2 0x475E JUMPI PUSH1 0x0 DUP1 REVERT JUMPDEST PUSH2 0x476A DUP5 DUP3 DUP6 ADD PUSH2 0x3E48 JUMP JUMPDEST PUSH1 0x20 DUP4 ADD MSTORE POP SWAP3 SWAP2 POP POP JUMP JUMPDEST PUSH1 0x0 DUP2 CALLDATALOAD SWAP1 POP PUSH2 0x4785 DUP2 PUSH2 0x64B5 JUMP JUMPDEST SWAP3 SWAP2 POP POP JUMP JUMPDEST PUSH1 0x0 DUP2 MLOAD SWAP1 POP PUSH2 0x479A DUP2 PUSH2 0x64B5 JUMP JUMPDEST SWAP3 SWAP2 POP POP JUMP JUMPDEST PUSH1 0x0 DUP2 CALLDATALOAD SWAP1 POP PUSH2 0x47AF DUP2 PUSH2 0x64CC JUMP JUMPDEST SWAP3 SWAP2 POP POP JUMP JUMPDEST PUSH1 0x0 DUP2 MLOAD SWAP1 POP PUSH2 0x47C4 DUP2 PUSH2 0x64CC JUMP JUMPDEST SWAP3 SWAP2 POP POP JUMP JUMPDEST PUSH1 0x0 DUP2 CALLDATALOAD SWAP1 POP PUSH2 0x47D9 DUP2 PUSH2 0x64E3 JUMP JUMPDEST SWAP3 SWAP2 POP POP JUMP JUMPDEST PUSH1 0x0 DUP2 MLOAD SWAP1 POP PUSH2 0x47EE DUP2 PUSH2 0x64E3 JUMP JUMPDEST SWAP3 SWAP2 POP POP JUMP JUMPDEST PUSH1 0x0 DUP2 CALLDATALOAD SWAP1 POP PUSH2 0x4803 DUP2 PUSH2 0x64FA JUMP JUMPDEST SWAP3 SWAP2 POP POP JUMP JUMPDEST PUSH1 0x0 DUP2 MLOAD SWAP1 POP PUSH2 0x4818 DUP2 PUSH2 0x64FA JUMP JUMPDEST SWAP3 SWAP2 POP POP JUMP JUMPDEST PUSH1 0x0 DUP2 CALLDATALOAD SWAP1 POP PUSH2 0x482D DUP2 PUSH2 0x6511 JUMP JUMPDEST SWAP3 SWAP2 POP POP JUMP JUMPDEST PUSH1 0x0 DUP2 MLOAD SWAP1 POP PUSH2 0x4842 DUP2 PUSH2 0x6511 JUMP JUMPDEST SWAP3 SWAP2 POP POP JUMP JUMPDEST PUSH1 0x0 PUSH1 0x20 DUP3 DUP5 SUB SLT ISZERO PUSH2 0x485A JUMPI PUSH1 0x0 DUP1 REVERT JUMPDEST PUSH1 0x0 PUSH2 0x4868 DUP5 DUP3 DUP6 ADD PUSH2 0x3CA4 JUMP JUMPDEST SWAP2 POP POP SWAP3 SWAP2 POP POP JUMP JUMPDEST PUSH1 0x0 PUSH1 0x20 DUP3 DUP5 SUB SLT ISZERO PUSH2 0x4883 JUMPI PUSH1 0x0 DUP1 REVERT JUMPDEST PUSH1 0x0 DUP3 ADD CALLDATALOAD PUSH8 0xFFFFFFFFFFFFFFFF DUP2 GT ISZERO PUSH2 0x489D JUMPI PUSH1 0x0 DUP1 REVERT JUMPDEST PUSH2 0x48A9 DUP5 DUP3 DUP6 ADD PUSH2 0x3CB9 JUMP JUMPDEST SWAP2 POP POP SWAP3 SWAP2 POP POP JUMP JUMPDEST PUSH1 0x0 PUSH1 0x20 DUP3 DUP5 SUB SLT ISZERO PUSH2 0x48C4 JUMPI PUSH1 0x0 DUP1 REVERT JUMPDEST PUSH1 0x0 DUP3 ADD CALLDATALOAD PUSH8 0xFFFFFFFFFFFFFFFF DUP2 GT ISZERO PUSH2 0x48DE JUMPI PUSH1 0x0 DUP1 REVERT JUMPDEST PUSH2 0x48EA DUP5 DUP3 DUP6 ADD PUSH2 0x3D61 JUMP JUMPDEST SWAP2 POP POP SWAP3 SWAP2 POP POP JUMP JUMPDEST PUSH1 0x0 PUSH1 0x20 DUP3 DUP5 SUB SLT ISZERO PUSH2 0x4905 JUMPI PUSH1 0x0 DUP1 REVERT JUMPDEST PUSH1 0x0 PUSH2 0x4913 DUP5 DUP3 DUP6 ADD PUSH2 0x3DDF JUMP JUMPDEST SWAP2 POP POP SWAP3 SWAP2 POP POP JUMP JUMPDEST PUSH1 0x0 PUSH1 0x20 DUP3 DUP5 SUB SLT ISZERO PUSH2 0x492E JUMPI PUSH1 0x0 DUP1 REVERT JUMPDEST PUSH1 0x0 PUSH2 0x493C DUP5 DUP3 DUP6 ADD PUSH2 0x3DF4 JUMP JUMPDEST SWAP2 POP POP SWAP3 SWAP2 POP POP JUMP JUMPDEST PUSH1 0x0 PUSH1 0x20 DUP3 DUP5 SUB SLT ISZERO PUSH2 0x4957 JUMPI PUSH1 0x0 DUP1 REVERT JUMPDEST PUSH1 0x0 DUP3 ADD MLOAD PUSH8 0xFFFFFFFFFFFFFFFF DUP2 GT ISZERO PUSH2 0x4971 JUMPI PUSH1 0x0 DUP1 REVERT JUMPDEST PUSH2 0x497D DUP5 DUP3 DUP6 ADD PUSH2 0x3E48 JUMP JUMPDEST SWAP2 POP POP SWAP3 SWAP2 POP POP JUMP JUMPDEST PUSH1 0x0 PUSH1 0x20 DUP3 DUP5 SUB SLT ISZERO PUSH2 0x4998 JUMPI PUSH1 0x0 DUP1 REVERT JUMPDEST PUSH1 0x0 PUSH2 0x49A6 DUP5 DUP3 DUP6 ADD PUSH2 0x3E72 JUMP JUMPDEST SWAP2 POP POP SWAP3 SWAP2 POP POP JUMP JUMPDEST PUSH1 0x0 PUSH1 0x20 DUP3 DUP5 SUB SLT ISZERO PUSH2 0x49C1 JUMPI PUSH1 0x0 DUP1 REVERT JUMPDEST PUSH1 0x0 DUP3 ADD MLOAD PUSH8 0xFFFFFFFFFFFFFFFF DUP2 GT ISZERO PUSH2 0x49DB JUMPI PUSH1 0x0 DUP1 REVERT JUMPDEST PUSH2 0x49E7 DUP5 DUP3 DUP6 ADD PUSH2 0x40FF JUMP JUMPDEST SWAP2 POP POP SWAP3 SWAP2 POP POP JUMP JUMPDEST PUSH1 0x0 PUSH1 0x20 DUP3 DUP5 SUB SLT ISZERO PUSH2 0x4A02 JUMPI PUSH1 0x0 DUP1 REVERT JUMPDEST PUSH1 0x0 DUP3 ADD CALLDATALOAD PUSH8 0xFFFFFFFFFFFFFFFF DUP2 GT ISZERO PUSH2 0x4A1C JUMPI PUSH1 0x0 DUP1 REVERT JUMPDEST PUSH2 0x4A28 DUP5 DUP3 DUP6 ADD PUSH2 0x4471 JUMP JUMPDEST SWAP2 POP POP SWAP3 SWAP2 POP POP JUMP JUMPDEST PUSH1 0x0 DUP1 PUSH1 0x40 DUP4 DUP6 SUB SLT ISZERO PUSH2 0x4A44 JUMPI PUSH1 0x0 DUP1 REVERT JUMPDEST PUSH1 0x0 DUP4 ADD CALLDATALOAD PUSH8 0xFFFFFFFFFFFFFFFF DUP2 GT ISZERO PUSH2 0x4A5E JUMPI PUSH1 0x0 DUP1 REVERT JUMPDEST PUSH2 0x4A6A DUP6 DUP3 DUP7 ADD PUSH2 0x4555 JUMP JUMPDEST SWAP3 POP POP PUSH1 0x20 PUSH2 0x4A7B DUP6 DUP3 DUP7 ADD PUSH2 0x47A0 JUMP JUMPDEST SWAP2 POP POP SWAP3 POP SWAP3 SWAP1 POP JUMP JUMPDEST PUSH1 0x0 PUSH1 0x20 DUP3 DUP5 SUB SLT ISZERO PUSH2 0x4A97 JUMPI PUSH1 0x0 DUP1 REVERT JUMPDEST PUSH1 0x0 PUSH2 0x4AA5 DUP5 DUP3 DUP6 ADD PUSH2 0x47A0 JUMP JUMPDEST SWAP2 POP POP SWAP3 SWAP2 POP POP JUMP JUMPDEST PUSH1 0x0 PUSH1 0x20 DUP3 DUP5 SUB SLT ISZERO PUSH2 0x4AC0 JUMPI PUSH1 0x0 DUP1 REVERT JUMPDEST PUSH1 0x0 PUSH2 0x4ACE DUP5 DUP3 DUP6 ADD PUSH2 0x47B5 JUMP JUMPDEST SWAP2 POP POP SWAP3 SWAP2 POP POP JUMP JUMPDEST PUSH1 0x0 DUP1 PUSH1 0x40 DUP4 DUP6 SUB SLT ISZERO PUSH2 0x4AEA JUMPI PUSH1 0x0 DUP1 REVERT JUMPDEST PUSH1 0x0 PUSH2 0x4AF8 DUP6 DUP3 DUP7 ADD PUSH2 0x47A0 JUMP JUMPDEST SWAP3 POP POP PUSH1 0x20 PUSH2 0x4B09 DUP6 DUP3 DUP7 ADD PUSH2 0x47A0 JUMP JUMPDEST SWAP2 POP POP SWAP3 POP SWAP3 SWAP1 POP JUMP JUMPDEST PUSH1 0x0 PUSH1 0x20 DUP3 DUP5 SUB SLT ISZERO PUSH2 0x4B25 JUMPI PUSH1 0x0 DUP1 REVERT JUMPDEST PUSH1 0x0 PUSH2 0x4B33 DUP5 DUP3 DUP6 ADD PUSH2 0x47DF JUMP JUMPDEST SWAP2 POP POP SWAP3 SWAP2 POP POP JUMP JUMPDEST PUSH1 0x0 PUSH1 0x20 DUP3 DUP5 SUB SLT ISZERO PUSH2 0x4B4E JUMPI PUSH1 0x0 DUP1 REVERT JUMPDEST PUSH1 0x0 PUSH2 0x4B5C DUP5 DUP3 DUP6 ADD PUSH2 0x4833 JUMP JUMPDEST SWAP2 POP POP SWAP3 SWAP2 POP POP JUMP JUMPDEST PUSH1 0x0 PUSH2 0x4B71 DUP4 DUP4 PUSH2 0x4FA6 JUMP JUMPDEST PUSH1 0x20 DUP4 ADD SWAP1 POP SWAP3 SWAP2 POP POP JUMP JUMPDEST PUSH1 0x0 PUSH2 0x4B89 DUP4 DUP4 PUSH2 0x512B JUMP JUMPDEST SWAP1 POP SWAP3 SWAP2 POP POP JUMP JUMPDEST PUSH1 0x0 PUSH2 0x4B9D DUP4 DUP4 PUSH2 0x541B JUMP JUMPDEST PUSH1 0x40 DUP4 ADD SWAP1 POP SWAP3 SWAP2 POP POP JUMP JUMPDEST PUSH1 0x0 PUSH2 0x4BB5 DUP4 DUP4 PUSH2 0x561D JUMP JUMPDEST SWAP1 POP SWAP3 SWAP2 POP POP JUMP JUMPDEST PUSH1 0x0 PUSH2 0x4BC9 DUP4 DUP4 PUSH2 0x56E3 JUMP JUMPDEST SWAP1 POP SWAP3 SWAP2 POP POP JUMP JUMPDEST PUSH1 0x0 PUSH2 0x4BDD DUP4 DUP4 PUSH2 0x57A9 JUMP JUMPDEST SWAP1 POP SWAP3 SWAP2 POP POP JUMP JUMPDEST PUSH1 0x0 PUSH2 0x4BF1 DUP4 DUP4 PUSH2 0x58B4 JUMP JUMPDEST SWAP1 POP SWAP3 SWAP2 POP POP JUMP JUMPDEST PUSH2 0x4C02 DUP2 PUSH2 0x62C6 JUMP JUMPDEST DUP3 MSTORE POP POP JUMP JUMPDEST PUSH2 0x4C11 DUP2 PUSH2 0x6216 JUMP JUMPDEST DUP3 MSTORE POP POP JUMP JUMPDEST PUSH2 0x4C20 DUP2 PUSH2 0x6204 JUMP JUMPDEST DUP3 MSTORE POP POP JUMP JUMPDEST PUSH2 0x4C2F DUP2 PUSH2 0x6204 JUMP JUMPDEST DUP3 MSTORE POP POP JUMP JUMPDEST PUSH1 0x0 PUSH2 0x4C40 DUP3 PUSH2 0x6041 JUMP JUMPDEST PUSH2 0x4C4A DUP2 DUP6 PUSH2 0x60F4 JUMP JUMPDEST SWAP4 POP PUSH2 0x4C55 DUP4 PUSH2 0x5FB7 JUMP JUMPDEST DUP1 PUSH1 0x0 JUMPDEST DUP4 DUP2 LT ISZERO PUSH2 0x4C86 JUMPI DUP2 MLOAD PUSH2 0x4C6D DUP9 DUP3 PUSH2 0x4B65 JUMP JUMPDEST SWAP8 POP PUSH2 0x4C78 DUP4 PUSH2 0x6099 JUMP JUMPDEST SWAP3 POP POP PUSH1 0x1 DUP2 ADD SWAP1 POP PUSH2 0x4C59 JUMP JUMPDEST POP DUP6 SWAP4 POP POP POP POP SWAP3 SWAP2 POP POP JUMP JUMPDEST PUSH1 0x0 PUSH2 0x4C9E DUP3 PUSH2 0x6041 JUMP JUMPDEST PUSH2 0x4CA8 DUP2 DUP6 PUSH2 0x6105 JUMP JUMPDEST SWAP4 POP PUSH2 0x4CB3 DUP4 PUSH2 0x5FB7 JUMP JUMPDEST DUP1 PUSH1 0x0 JUMPDEST DUP4 DUP2 LT ISZERO PUSH2 0x4CE4 JUMPI DUP2 MLOAD PUSH2 0x4CCB DUP9 DUP3 PUSH2 0x4B65 JUMP JUMPDEST SWAP8 POP PUSH2 0x4CD6 DUP4 PUSH2 0x6099 JUMP JUMPDEST SWAP3 POP POP PUSH1 0x1 DUP2 ADD SWAP1 POP PUSH2 0x4CB7 JUMP JUMPDEST POP DUP6 SWAP4 POP POP POP POP SWAP3 SWAP2 POP POP JUMP JUMPDEST PUSH1 0x0 PUSH2 0x4CFC DUP3 PUSH2 0x604C JUMP JUMPDEST PUSH2 0x4D06 DUP2 DUP6 PUSH2 0x6116 JUMP JUMPDEST SWAP4 POP DUP4 PUSH1 0x20 DUP3 MUL DUP6 ADD PUSH2 0x4D18 DUP6 PUSH2 0x5FC7 JUMP JUMPDEST DUP1 PUSH1 0x0 JUMPDEST DUP6 DUP2 LT ISZERO PUSH2 0x4D54 JUMPI DUP5 DUP5 SUB DUP10 MSTORE DUP2 MLOAD PUSH2 0x4D35 DUP6 DUP3 PUSH2 0x4B7D JUMP JUMPDEST SWAP5 POP PUSH2 0x4D40 DUP4 PUSH2 0x60A6 JUMP JUMPDEST SWAP3 POP PUSH1 0x20 DUP11 ADD SWAP10 POP POP PUSH1 0x1 DUP2 ADD SWAP1 POP PUSH2 0x4D1C JUMP JUMPDEST POP DUP3 SWAP8 POP DUP8 SWAP6 POP POP POP POP POP POP SWAP3 SWAP2 POP POP JUMP JUMPDEST PUSH1 0x0 PUSH2 0x4D71 DUP3 PUSH2 0x6057 JUMP JUMPDEST PUSH2 0x4D7B DUP2 DUP6 PUSH2 0x6127 JUMP JUMPDEST SWAP4 POP PUSH2 0x4D86 DUP4 PUSH2 0x5FD7 JUMP JUMPDEST DUP1 PUSH1 0x0 JUMPDEST DUP4 DUP2 LT ISZERO PUSH2 0x4DB7 JUMPI DUP2 MLOAD PUSH2 0x4D9E DUP9 DUP3 PUSH2 0x4B91 JUMP JUMPDEST SWAP8 POP PUSH2 0x4DA9 DUP4 PUSH2 0x60B3 JUMP JUMPDEST SWAP3 POP POP PUSH1 0x1 DUP2 ADD SWAP1 POP PUSH2 0x4D8A JUMP JUMPDEST POP DUP6 SWAP4 POP POP POP POP SWAP3 SWAP2 POP POP JUMP JUMPDEST PUSH1 0x0 PUSH2 0x4DCF DUP3 PUSH2 0x6062 JUMP JUMPDEST PUSH2 0x4DD9 DUP2 DUP6 PUSH2 0x6138 JUMP JUMPDEST SWAP4 POP DUP4 PUSH1 0x20 DUP3 MUL DUP6 ADD PUSH2 0x4DEB DUP6 PUSH2 0x5FE7 JUMP JUMPDEST DUP1 PUSH1 0x0 JUMPDEST DUP6 DUP2 LT ISZERO PUSH2 0x4E27 JUMPI DUP5 DUP5 SUB DUP10 MSTORE DUP2 MLOAD PUSH2 0x4E08 DUP6 DUP3 PUSH2 0x4BA9 JUMP JUMPDEST SWAP5 POP PUSH2 0x4E13 DUP4 PUSH2 0x60C0 JUMP JUMPDEST SWAP3 POP PUSH1 0x20 DUP11 ADD SWAP10 POP POP PUSH1 0x1 DUP2 ADD SWAP1 POP PUSH2 0x4DEF JUMP JUMPDEST POP DUP3 SWAP8 POP DUP8 SWAP6 POP POP POP POP POP POP SWAP3 SWAP2 POP POP JUMP JUMPDEST PUSH1 0x0 PUSH2 0x4E44 DUP3 PUSH2 0x606D JUMP JUMPDEST PUSH2 0x4E4E DUP2 DUP6 PUSH2 0x6149 JUMP JUMPDEST SWAP4 POP DUP4 PUSH1 0x20 DUP3 MUL DUP6 ADD PUSH2 0x4E60 DUP6 PUSH2 0x5FF7 JUMP JUMPDEST DUP1 PUSH1 0x0 JUMPDEST DUP6 DUP2 LT ISZERO PUSH2 0x4E9C JUMPI DUP5 DUP5 SUB DUP10 MSTORE DUP2 MLOAD PUSH2 0x4E7D DUP6 DUP3 PUSH2 0x4BBD JUMP JUMPDEST SWAP5 POP PUSH2 0x4E88 DUP4 PUSH2 0x60CD JUMP JUMPDEST SWAP3 POP PUSH1 0x20 DUP11 ADD SWAP10 POP POP PUSH1 0x1 DUP2 ADD SWAP1 POP PUSH2 0x4E64 JUMP JUMPDEST POP DUP3 SWAP8 POP DUP8 SWAP6 POP POP POP POP POP POP SWAP3 SWAP2 POP POP JUMP JUMPDEST PUSH1 0x0 PUSH2 0x4EB9 DUP3 PUSH2 0x6078 JUMP JUMPDEST PUSH2 0x4EC3 DUP2 DUP6 PUSH2 0x615A JUMP JUMPDEST SWAP4 POP DUP4 PUSH1 0x20 DUP3 MUL DUP6 ADD PUSH2 0x4ED5 DUP6 PUSH2 0x6007 JUMP JUMPDEST DUP1 PUSH1 0x0 JUMPDEST DUP6 DUP2 LT ISZERO PUSH2 0x4F10 JUMPI DUP5 DUP5 SUB DUP10 MSTORE DUP2 PUSH2 0x4EF1 DUP6 DUP3 PUSH2 0x4BD1 JUMP JUMPDEST SWAP5 POP PUSH2 0x4EFC DUP4 PUSH2 0x60DA JUMP JUMPDEST SWAP3 POP PUSH1 0x20 DUP11 ADD SWAP10 POP POP PUSH1 0x1 DUP2 ADD SWAP1 POP PUSH2 0x4ED9 JUMP JUMPDEST POP DUP3 SWAP8 POP DUP8 SWAP6 POP POP POP POP POP POP SWAP3 SWAP2 POP POP JUMP JUMPDEST PUSH1 0x0 PUSH2 0x4F2D DUP3 PUSH2 0x6083 JUMP JUMPDEST PUSH2 0x4F37 DUP2 DUP6 PUSH2 0x616B JUMP JUMPDEST SWAP4 POP DUP4 PUSH1 0x20 DUP3 MUL DUP6 ADD PUSH2 0x4F49 DUP6 PUSH2 0x601C JUMP JUMPDEST DUP1 PUSH1 0x0 JUMPDEST DUP6 DUP2 LT ISZERO PUSH2 0x4F85 JUMPI DUP5 DUP5 SUB DUP10 MSTORE DUP2 MLOAD PUSH2 0x4F66 DUP6 DUP3 PUSH2 0x4BE5 JUMP JUMPDEST SWAP5 POP PUSH2 0x4F71 DUP4 PUSH2 0x60E7 JUMP JUMPDEST SWAP3 POP PUSH1 0x20 DUP11 ADD SWAP10 POP POP PUSH1 0x1 DUP2 ADD SWAP1 POP PUSH2 0x4F4D JUMP JUMPDEST POP DUP3 SWAP8 POP DUP8 SWAP6 POP POP POP POP POP POP SWAP3 SWAP2 POP POP JUMP JUMPDEST PUSH2 0x4FA0 DUP2 PUSH2 0x6228 JUMP JUMPDEST DUP3 MSTORE POP POP JUMP JUMPDEST PUSH2 0x4FAF DUP2 PUSH2 0x6234 JUMP JUMPDEST DUP3 MSTORE POP POP JUMP JUMPDEST PUSH2 0x4FBE DUP2 PUSH2 0x6234 JUMP JUMPDEST DUP3 MSTORE POP POP JUMP JUMPDEST PUSH2 0x4FD5 PUSH2 0x4FD0 DUP3 PUSH2 0x6234 JUMP JUMPDEST PUSH2 0x63FE JUMP JUMPDEST DUP3 MSTORE POP POP JUMP JUMPDEST PUSH1 0x0 PUSH2 0x4FE6 DUP3 PUSH2 0x608E JUMP JUMPDEST PUSH2 0x4FF0 DUP2 DUP6 PUSH2 0x617C JUMP JUMPDEST SWAP4 POP PUSH2 0x5000 DUP2 DUP6 PUSH1 0x20 DUP7 ADD PUSH2 0x632F JUMP JUMPDEST PUSH2 0x5009 DUP2 PUSH2 0x640A JUMP JUMPDEST DUP5 ADD SWAP2 POP POP SWAP3 SWAP2 POP POP JUMP JUMPDEST PUSH1 0x0 PUSH2 0x501F DUP3 PUSH2 0x608E JUMP JUMPDEST PUSH2 0x5029 DUP2 DUP6 PUSH2 0x618D JUMP JUMPDEST SWAP4 POP PUSH2 0x5039 DUP2 DUP6 PUSH1 0x20 DUP7 ADD PUSH2 0x632F JUMP JUMPDEST PUSH2 0x5042 DUP2 PUSH2 0x640A JUMP JUMPDEST DUP5 ADD SWAP2 POP POP SWAP3 SWAP2 POP POP JUMP JUMPDEST PUSH1 0x0 PUSH2 0x5058 DUP3 PUSH2 0x608E JUMP JUMPDEST PUSH2 0x5062 DUP2 DUP6 PUSH2 0x619E JUMP JUMPDEST SWAP4 POP PUSH2 0x5072 DUP2 DUP6 PUSH1 0x20 DUP7 ADD PUSH2 0x632F JUMP JUMPDEST DUP1 DUP5 ADD SWAP2 POP POP SWAP3 SWAP2 POP POP JUMP JUMPDEST PUSH1 0x0 DUP2 SLOAD PUSH1 0x1 DUP2 AND PUSH1 0x0 DUP2 EQ PUSH2 0x509B JUMPI PUSH1 0x1 DUP2 EQ PUSH2 0x50C1 JUMPI PUSH2 0x5105 JUMP JUMPDEST PUSH1 0x7F PUSH1 0x2 DUP4 DIV AND PUSH2 0x50AC DUP2 DUP8 PUSH2 0x617C JUMP JUMPDEST SWAP6 POP PUSH1 0xFF NOT DUP4 AND DUP7 MSTORE PUSH1 0x20 DUP7 ADD SWAP4 POP POP PUSH2 0x5105 JUMP JUMPDEST PUSH1 0x2 DUP3 DIV PUSH2 0x50CF DUP2 DUP8 PUSH2 0x617C JUMP JUMPDEST SWAP6 POP PUSH2 0x50DA DUP6 PUSH2 0x602C JUMP JUMPDEST PUSH1 0x0 JUMPDEST DUP3 DUP2 LT ISZERO PUSH2 0x50FC JUMPI DUP2 SLOAD DUP2 DUP10 ADD MSTORE PUSH1 0x1 DUP3 ADD SWAP2 POP PUSH1 0x20 DUP2 ADD SWAP1 POP PUSH2 0x50DD JUMP JUMPDEST DUP1 DUP9 ADD SWAP6 POP POP POP POP JUMPDEST POP POP SWAP3 SWAP2 POP POP JUMP JUMPDEST PUSH2 0x5116 DUP2 PUSH2 0x6250 JUMP JUMPDEST DUP3 MSTORE POP POP JUMP JUMPDEST PUSH2 0x5125 DUP2 PUSH2 0x62D8 JUMP JUMPDEST DUP3 MSTORE POP POP JUMP JUMPDEST PUSH1 0x0 PUSH1 0x80 DUP4 ADD PUSH1 0x0 DUP4 ADD MLOAD PUSH2 0x5143 PUSH1 0x0 DUP7 ADD DUP3 PUSH2 0x5A2C JUMP JUMPDEST POP PUSH1 0x20 DUP4 ADD MLOAD PUSH2 0x5156 PUSH1 0x20 DUP7 ADD DUP3 PUSH2 0x5A2C JUMP JUMPDEST POP PUSH1 0x40 DUP4 ADD MLOAD DUP5 DUP3 SUB PUSH1 0x40 DUP7 ADD MSTORE PUSH2 0x516E DUP3 DUP3 PUSH2 0x4FDB JUMP JUMPDEST SWAP2 POP POP PUSH1 0x60 DUP4 ADD MLOAD DUP5 DUP3 SUB PUSH1 0x60 DUP7 ADD MSTORE PUSH2 0x5188 DUP3 DUP3 PUSH2 0x4F22 JUMP JUMPDEST SWAP2 POP POP DUP1 SWAP2 POP POP SWAP3 SWAP2 POP POP JUMP JUMPDEST PUSH1 0x0 PUSH2 0x1C0 DUP4 ADD PUSH1 0x0 DUP4 ADD MLOAD PUSH2 0x51AE PUSH1 0x0 DUP7 ADD DUP3 PUSH2 0x59B4 JUMP JUMPDEST POP PUSH1 0x20 DUP4 ADD MLOAD PUSH2 0x51C1 PUSH1 0x20 DUP7 ADD DUP3 PUSH2 0x59B4 JUMP JUMPDEST POP PUSH1 0x40 DUP4 ADD MLOAD PUSH2 0x51D4 PUSH1 0x40 DUP7 ADD DUP3 PUSH2 0x4C17 JUMP JUMPDEST POP PUSH1 0x60 DUP4 ADD MLOAD PUSH2 0x51E7 PUSH1 0x60 DUP7 ADD DUP3 PUSH2 0x4FA6 JUMP JUMPDEST POP PUSH1 0x80 DUP4 ADD MLOAD PUSH2 0x51FA PUSH1 0x80 DUP7 ADD DUP3 PUSH2 0x59E1 JUMP JUMPDEST POP PUSH1 0xA0 DUP4 ADD MLOAD PUSH2 0x520D PUSH1 0xA0 DUP7 ADD DUP3 PUSH2 0x59E1 JUMP JUMPDEST POP PUSH1 0xC0 DUP4 ADD MLOAD PUSH2 0x5220 PUSH1 0xC0 DUP7 ADD DUP3 PUSH2 0x4C17 JUMP JUMPDEST POP PUSH1 0xE0 DUP4 ADD MLOAD PUSH2 0x5233 PUSH1 0xE0 DUP7 ADD DUP3 PUSH2 0x4C17 JUMP JUMPDEST POP PUSH2 0x100 DUP4 ADD MLOAD PUSH2 0x5248 PUSH2 0x100 DUP7 ADD DUP3 PUSH2 0x59E1 JUMP JUMPDEST POP PUSH2 0x120 DUP4 ADD MLOAD DUP5 DUP3 SUB PUSH2 0x120 DUP7 ADD MSTORE PUSH2 0x5262 DUP3 DUP3 PUSH2 0x4D66 JUMP JUMPDEST SWAP2 POP POP PUSH2 0x140 DUP4 ADD MLOAD DUP5 DUP3 SUB PUSH2 0x140 DUP7 ADD MSTORE PUSH2 0x527E DUP3 DUP3 PUSH2 0x4D66 JUMP JUMPDEST SWAP2 POP POP PUSH2 0x160 DUP4 ADD MLOAD DUP5 DUP3 SUB PUSH2 0x160 DUP7 ADD MSTORE PUSH2 0x529A DUP3 DUP3 PUSH2 0x4D66 JUMP JUMPDEST SWAP2 POP POP PUSH2 0x180 DUP4 ADD MLOAD DUP5 DUP3 SUB PUSH2 0x180 DUP7 ADD MSTORE PUSH2 0x52B6 DUP3 DUP3 PUSH2 0x58F1 JUMP JUMPDEST SWAP2 POP POP PUSH2 0x1A0 DUP4 ADD MLOAD PUSH2 0x52CD PUSH2 0x1A0 DUP7 ADD DUP3 PUSH2 0x510D JUMP JUMPDEST POP DUP1 SWAP2 POP POP SWAP3 SWAP2 POP POP JUMP JUMPDEST PUSH1 0x0 PUSH2 0x1C0 DUP4 ADD PUSH1 0x0 DUP4 ADD MLOAD PUSH2 0x52F1 PUSH1 0x0 DUP7 ADD DUP3 PUSH2 0x59B4 JUMP JUMPDEST POP PUSH1 0x20 DUP4 ADD MLOAD PUSH2 0x5304 PUSH1 0x20 DUP7 ADD DUP3 PUSH2 0x59B4 JUMP JUMPDEST POP PUSH1 0x40 DUP4 ADD MLOAD PUSH2 0x5317 PUSH1 0x40 DUP7 ADD DUP3 PUSH2 0x4C17 JUMP JUMPDEST POP PUSH1 0x60 DUP4 ADD MLOAD PUSH2 0x532A PUSH1 0x60 DUP7 ADD DUP3 PUSH2 0x4FA6 JUMP JUMPDEST POP PUSH1 0x80 DUP4 ADD MLOAD PUSH2 0x533D PUSH1 0x80 DUP7 ADD DUP3 PUSH2 0x59E1 JUMP JUMPDEST POP PUSH1 0xA0 DUP4 ADD MLOAD PUSH2 0x5350 PUSH1 0xA0 DUP7 ADD DUP3 PUSH2 0x59E1 JUMP JUMPDEST POP PUSH1 0xC0 DUP4 ADD MLOAD PUSH2 0x5363 PUSH1 0xC0 DUP7 ADD DUP3 PUSH2 0x4C17 JUMP JUMPDEST POP PUSH1 0xE0 DUP4 ADD MLOAD PUSH2 0x5376 PUSH1 0xE0 DUP7 ADD DUP3 PUSH2 0x4C17 JUMP JUMPDEST POP PUSH2 0x100 DUP4 ADD MLOAD PUSH2 0x538B PUSH2 0x100 DUP7 ADD DUP3 PUSH2 0x59E1 JUMP JUMPDEST POP PUSH2 0x120 DUP4 ADD MLOAD DUP5 DUP3 SUB PUSH2 0x120 DUP7 ADD MSTORE PUSH2 0x53A5 DUP3 DUP3 PUSH2 0x4D66 JUMP JUMPDEST SWAP2 POP POP PUSH2 0x140 DUP4 ADD MLOAD DUP5 DUP3 SUB PUSH2 0x140 DUP7 ADD MSTORE PUSH2 0x53C1 DUP3 DUP3 PUSH2 0x4D66 JUMP JUMPDEST SWAP2 POP POP PUSH2 0x160 DUP4 ADD MLOAD DUP5 DUP3 SUB PUSH2 0x160 DUP7 ADD MSTORE PUSH2 0x53DD DUP3 DUP3 PUSH2 0x4D66 JUMP JUMPDEST SWAP2 POP POP PUSH2 0x180 DUP4 ADD MLOAD DUP5 DUP3 SUB PUSH2 0x180 DUP7 ADD MSTORE PUSH2 0x53F9 DUP3 DUP3 PUSH2 0x58F1 JUMP JUMPDEST SWAP2 POP POP PUSH2 0x1A0 DUP4 ADD MLOAD PUSH2 0x5410 PUSH2 0x1A0 DUP7 ADD DUP3 PUSH2 0x510D JUMP JUMPDEST POP DUP1 SWAP2 POP POP SWAP3 SWAP2 POP POP JUMP JUMPDEST PUSH1 0x40 DUP3 ADD PUSH1 0x0 DUP3 ADD MLOAD PUSH2 0x5431 PUSH1 0x0 DUP6 ADD DUP3 PUSH2 0x4C17 JUMP JUMPDEST POP PUSH1 0x20 DUP3 ADD MLOAD PUSH2 0x5444 PUSH1 0x20 DUP6 ADD DUP3 PUSH2 0x5A0E JUMP JUMPDEST POP POP POP POP JUMP JUMPDEST PUSH1 0x40 DUP3 ADD PUSH1 0x0 DUP3 ADD MLOAD PUSH2 0x5460 PUSH1 0x0 DUP6 ADD DUP3 PUSH2 0x4C17 JUMP JUMPDEST POP PUSH1 0x20 DUP3 ADD MLOAD PUSH2 0x5473 PUSH1 0x20 DUP6 ADD DUP3 PUSH2 0x5A0E JUMP JUMPDEST POP POP POP POP JUMP JUMPDEST PUSH1 0x40 DUP3 ADD PUSH1 0x0 DUP1 DUP4 ADD SLOAD SWAP1 POP PUSH2 0x548E DUP2 PUSH2 0x6362 JUMP JUMPDEST PUSH2 0x549B PUSH1 0x0 DUP7 ADD DUP3 PUSH2 0x4C17 JUMP JUMPDEST POP PUSH2 0x54A5 DUP2 PUSH2 0x63CA JUMP JUMPDEST PUSH2 0x54B2 PUSH1 0x20 DUP7 ADD DUP3 PUSH2 0x5A0E JUMP JUMPDEST POP POP POP POP POP JUMP JUMPDEST PUSH1 0x0 PUSH1 0x80 DUP4 ADD PUSH1 0x0 DUP4 ADD MLOAD PUSH2 0x54D1 PUSH1 0x0 DUP7 ADD DUP3 PUSH2 0x5A2C JUMP JUMPDEST POP PUSH1 0x20 DUP4 ADD MLOAD PUSH2 0x54E4 PUSH1 0x20 DUP7 ADD DUP3 PUSH2 0x59E1 JUMP JUMPDEST POP PUSH1 0x40 DUP4 ADD MLOAD PUSH2 0x54F7 PUSH1 0x40 DUP7 ADD DUP3 PUSH2 0x59E1 JUMP JUMPDEST POP PUSH1 0x60 DUP4 ADD MLOAD DUP5 DUP3 SUB PUSH1 0x60 DUP7 ADD MSTORE PUSH2 0x550F DUP3 DUP3 PUSH2 0x4C35 JUMP JUMPDEST SWAP2 POP POP DUP1 SWAP2 POP POP SWAP3 SWAP2 POP POP JUMP JUMPDEST PUSH1 0x0 PUSH1 0x80 DUP4 ADD PUSH1 0x0 DUP4 ADD MLOAD PUSH2 0x5534 PUSH1 0x0 DUP7 ADD DUP3 PUSH2 0x5A2C JUMP JUMPDEST POP PUSH1 0x20 DUP4 ADD MLOAD PUSH2 0x5547 PUSH1 0x20 DUP7 ADD DUP3 PUSH2 0x5A2C JUMP JUMPDEST POP PUSH1 0x40 DUP4 ADD MLOAD DUP5 DUP3 SUB PUSH1 0x40 DUP7 ADD MSTORE PUSH2 0x555F DUP3 DUP3 PUSH2 0x4F22 JUMP JUMPDEST SWAP2 POP POP PUSH1 0x60 DUP4 ADD MLOAD DUP5 DUP3 SUB PUSH1 0x60 DUP7 ADD MSTORE PUSH2 0x5579 DUP3 DUP3 PUSH2 0x4CF1 JUMP JUMPDEST SWAP2 POP POP DUP1 SWAP2 POP POP SWAP3 SWAP2 POP POP JUMP JUMPDEST PUSH1 0x0 PUSH1 0xC0 DUP4 ADD PUSH1 0x0 DUP4 ADD MLOAD PUSH2 0x559E PUSH1 0x0 DUP7 ADD DUP3 PUSH2 0x59C3 JUMP JUMPDEST POP PUSH1 0x20 DUP4 ADD MLOAD PUSH2 0x55B1 PUSH1 0x20 DUP7 ADD DUP3 PUSH2 0x4FA6 JUMP JUMPDEST POP PUSH1 0x40 DUP4 ADD MLOAD PUSH2 0x55C4 PUSH1 0x40 DUP7 ADD DUP3 PUSH2 0x59C3 JUMP JUMPDEST POP PUSH1 0x60 DUP4 ADD MLOAD DUP5 DUP3 SUB PUSH1 0x60 DUP7 ADD MSTORE PUSH2 0x55DC DUP3 DUP3 PUSH2 0x5195 JUMP JUMPDEST SWAP2 POP POP PUSH1 0x80 DUP4 ADD MLOAD DUP5 DUP3 SUB PUSH1 0x80 DUP7 ADD MSTORE PUSH2 0x55F6 DUP3 DUP3 PUSH2 0x551C JUMP JUMPDEST SWAP2 POP POP PUSH1 0xA0 DUP4 ADD MLOAD DUP5 DUP3 SUB PUSH1 0xA0 DUP7 ADD MSTORE PUSH2 0x5610 DUP3 DUP3 PUSH2 0x4E39 JUMP JUMPDEST SWAP2 POP POP DUP1 SWAP2 POP POP SWAP3 SWAP2 POP POP JUMP JUMPDEST PUSH1 0x0 PUSH1 0x80 DUP4 ADD PUSH1 0x0 DUP4 ADD MLOAD PUSH2 0x5635 PUSH1 0x0 DUP7 ADD DUP3 PUSH2 0x59C3 JUMP JUMPDEST POP PUSH1 0x20 DUP4 ADD MLOAD PUSH2 0x5648 PUSH1 0x20 DUP7 ADD DUP3 PUSH2 0x59C3 JUMP JUMPDEST POP PUSH1 0x40 DUP4 ADD MLOAD PUSH2 0x565B PUSH1 0x40 DUP7 ADD DUP3 PUSH2 0x4FA6 JUMP JUMPDEST POP PUSH1 0x60 DUP4 ADD MLOAD DUP5 DUP3 SUB PUSH1 0x60 DUP7 ADD MSTORE PUSH2 0x5673 DUP3 DUP3 PUSH2 0x4E39 JUMP JUMPDEST SWAP2 POP POP DUP1 SWAP2 POP POP SWAP3 SWAP2 POP POP JUMP JUMPDEST PUSH1 0x0 PUSH1 0x80 DUP4 ADD PUSH1 0x0 DUP4 ADD MLOAD PUSH2 0x5698 PUSH1 0x0 DUP7 ADD DUP3 PUSH2 0x59C3 JUMP JUMPDEST POP PUSH1 0x20 DUP4 ADD MLOAD PUSH2 0x56AB PUSH1 0x20 DUP7 ADD DUP3 PUSH2 0x59C3 JUMP JUMPDEST POP PUSH1 0x40 DUP4 ADD MLOAD PUSH2 0x56BE PUSH1 0x40 DUP7 ADD DUP3 PUSH2 0x4FA6 JUMP JUMPDEST POP PUSH1 0x60 DUP4 ADD MLOAD DUP5 DUP3 SUB PUSH1 0x60 DUP7 ADD MSTORE PUSH2 0x56D6 DUP3 DUP3 PUSH2 0x4E39 JUMP JUMPDEST SWAP2 POP POP DUP1 SWAP2 POP POP SWAP3 SWAP2 POP POP JUMP JUMPDEST PUSH1 0x0 PUSH2 0x140 DUP4 ADD PUSH1 0x0 DUP4 ADD MLOAD PUSH2 0x56FC PUSH1 0x0 DUP7 ADD DUP3 PUSH2 0x59E1 JUMP JUMPDEST POP PUSH1 0x20 DUP4 ADD MLOAD PUSH2 0x570F PUSH1 0x20 DUP7 ADD DUP3 PUSH2 0x541B JUMP JUMPDEST POP PUSH1 0x40 DUP4 ADD MLOAD PUSH2 0x5722 PUSH1 0x60 DUP7 ADD DUP3 PUSH2 0x59E1 JUMP JUMPDEST POP PUSH1 0x60 DUP4 ADD MLOAD PUSH2 0x5735 PUSH1 0x80 DUP7 ADD DUP3 PUSH2 0x4C17 JUMP JUMPDEST POP PUSH1 0x80 DUP4 ADD MLOAD PUSH2 0x5748 PUSH1 0xA0 DUP7 ADD DUP3 PUSH2 0x59C3 JUMP JUMPDEST POP PUSH1 0xA0 DUP4 ADD MLOAD DUP5 DUP3 SUB PUSH1 0xC0 DUP7 ADD MSTORE PUSH2 0x5760 DUP3 DUP3 PUSH2 0x58F1 JUMP JUMPDEST SWAP2 POP POP PUSH1 0xC0 DUP4 ADD MLOAD PUSH2 0x5775 PUSH1 0xE0 DUP7 ADD DUP3 PUSH2 0x4C17 JUMP JUMPDEST POP PUSH1 0xE0 DUP4 ADD MLOAD PUSH2 0x5789 PUSH2 0x100 DUP7 ADD DUP3 PUSH2 0x4C17 JUMP JUMPDEST POP PUSH2 0x100 DUP4 ADD MLOAD PUSH2 0x579E PUSH2 0x120 DUP7 ADD DUP3 PUSH2 0x4C17 JUMP JUMPDEST POP DUP1 SWAP2 POP POP SWAP3 SWAP2 POP POP JUMP JUMPDEST PUSH1 0x0 PUSH2 0x140 DUP4 ADD PUSH1 0x0 DUP1 DUP5 ADD SLOAD SWAP1 POP PUSH2 0x57C1 DUP2 PUSH2 0x6396 JUMP JUMPDEST PUSH2 0x57CE PUSH1 0x0 DUP8 ADD DUP3 PUSH2 0x59E1 JUMP JUMPDEST POP PUSH1 0x1 DUP5 ADD PUSH2 0x57E0 PUSH1 0x20 DUP8 ADD DUP3 PUSH2 0x5479 JUMP JUMPDEST POP PUSH1 0x2 DUP5 ADD SLOAD SWAP1 POP PUSH2 0x57F1 DUP2 PUSH2 0x6396 JUMP JUMPDEST PUSH2 0x57FE PUSH1 0x60 DUP8 ADD DUP3 PUSH2 0x59E1 JUMP JUMPDEST POP PUSH2 0x5808 DUP2 PUSH2 0x63E4 JUMP JUMPDEST PUSH2 0x5815 PUSH1 0x80 DUP8 ADD DUP3 PUSH2 0x4C17 JUMP JUMPDEST POP PUSH1 0x3 DUP5 ADD SLOAD SWAP1 POP PUSH2 0x5826 DUP2 PUSH2 0x637C JUMP JUMPDEST PUSH2 0x5833 PUSH1 0xA0 DUP8 ADD DUP3 PUSH2 0x59C3 JUMP JUMPDEST POP PUSH1 0x4 DUP5 ADD DUP6 DUP4 SUB PUSH1 0xC0 DUP8 ADD MSTORE PUSH2 0x584A DUP4 DUP3 PUSH2 0x596B JUMP JUMPDEST SWAP3 POP POP PUSH1 0x6 DUP5 ADD SLOAD SWAP1 POP PUSH2 0x585D DUP2 PUSH2 0x6362 JUMP JUMPDEST PUSH2 0x586A PUSH1 0xE0 DUP8 ADD DUP3 PUSH2 0x4C17 JUMP JUMPDEST POP PUSH1 0x7 DUP5 ADD SLOAD SWAP1 POP PUSH2 0x587B DUP2 PUSH2 0x6362 JUMP JUMPDEST PUSH2 0x5889 PUSH2 0x100 DUP8 ADD DUP3 PUSH2 0x4C17 JUMP JUMPDEST POP PUSH1 0x8 DUP5 ADD SLOAD SWAP1 POP PUSH2 0x589A DUP2 PUSH2 0x6362 JUMP JUMPDEST PUSH2 0x58A8 PUSH2 0x120 DUP8 ADD DUP3 PUSH2 0x4C17 JUMP JUMPDEST POP DUP2 SWAP3 POP POP POP SWAP3 SWAP2 POP POP JUMP JUMPDEST PUSH1 0x0 PUSH1 0x40 DUP4 ADD PUSH1 0x0 DUP4 ADD MLOAD PUSH2 0x58CC PUSH1 0x0 DUP7 ADD DUP3 PUSH2 0x5A2C JUMP JUMPDEST POP PUSH1 0x20 DUP4 ADD MLOAD DUP5 DUP3 SUB PUSH1 0x20 DUP7 ADD MSTORE PUSH2 0x58E4 DUP3 DUP3 PUSH2 0x54B9 JUMP JUMPDEST SWAP2 POP POP DUP1 SWAP2 POP POP SWAP3 SWAP2 POP POP JUMP JUMPDEST PUSH1 0x0 PUSH1 0x40 DUP4 ADD PUSH1 0x0 DUP4 ADD MLOAD PUSH2 0x5909 PUSH1 0x0 DUP7 ADD DUP3 PUSH2 0x5A2C JUMP JUMPDEST POP PUSH1 0x20 DUP4 ADD MLOAD DUP5 DUP3 SUB PUSH1 0x20 DUP7 ADD MSTORE PUSH2 0x5921 DUP3 DUP3 PUSH2 0x4FDB JUMP JUMPDEST SWAP2 POP POP DUP1 SWAP2 POP POP SWAP3 SWAP2 POP POP JUMP JUMPDEST PUSH1 0x0 PUSH1 0x40 DUP4 ADD PUSH1 0x0 DUP4 ADD MLOAD PUSH2 0x5946 PUSH1 0x0 DUP7 ADD DUP3 PUSH2 0x5A2C JUMP JUMPDEST POP PUSH1 0x20 DUP4 ADD MLOAD DUP5 DUP3 SUB PUSH1 0x20 DUP7 ADD MSTORE PUSH2 0x595E DUP3 DUP3 PUSH2 0x4FDB JUMP JUMPDEST SWAP2 POP POP DUP1 SWAP2 POP POP SWAP3 SWAP2 POP POP JUMP JUMPDEST PUSH1 0x0 PUSH1 0x40 DUP4 ADD PUSH1 0x0 DUP1 DUP5 ADD SLOAD SWAP1 POP PUSH2 0x5982 DUP2 PUSH2 0x63B0 JUMP JUMPDEST PUSH2 0x598F PUSH1 0x0 DUP8 ADD DUP3 PUSH2 0x5A2C JUMP JUMPDEST POP PUSH1 0x1 DUP5 ADD DUP6 DUP4 SUB PUSH1 0x20 DUP8 ADD MSTORE PUSH2 0x59A6 DUP4 DUP3 PUSH2 0x507E JUMP JUMPDEST SWAP3 POP POP DUP2 SWAP3 POP POP POP SWAP3 SWAP2 POP POP JUMP JUMPDEST PUSH2 0x59BD DUP2 PUSH2 0x625D JUMP JUMPDEST DUP3 MSTORE POP POP JUMP JUMPDEST PUSH2 0x59CC DUP2 PUSH2 0x628B JUMP JUMPDEST DUP3 MSTORE POP POP JUMP JUMPDEST PUSH2 0x59DB DUP2 PUSH2 0x628B JUMP JUMPDEST DUP3 MSTORE POP POP JUMP JUMPDEST PUSH2 0x59EA DUP2 PUSH2 0x6295 JUMP JUMPDEST DUP3 MSTORE POP POP JUMP JUMPDEST PUSH2 0x59F9 DUP2 PUSH2 0x6295 JUMP JUMPDEST DUP3 MSTORE POP POP JUMP JUMPDEST PUSH2 0x5A08 DUP2 PUSH2 0x630E JUMP JUMPDEST DUP3 MSTORE POP POP JUMP JUMPDEST PUSH2 0x5A17 DUP2 PUSH2 0x62A5 JUMP JUMPDEST DUP3 MSTORE POP POP JUMP JUMPDEST PUSH2 0x5A26 DUP2 PUSH2 0x62A5 JUMP JUMPDEST DUP3 MSTORE POP POP JUMP JUMPDEST PUSH2 0x5A35 DUP2 PUSH2 0x62B9 JUMP JUMPDEST DUP3 MSTORE POP POP JUMP JUMPDEST PUSH2 0x5A44 DUP2 PUSH2 0x62B9 JUMP JUMPDEST DUP3 MSTORE POP POP JUMP JUMPDEST PUSH1 0x0 PUSH2 0x5A56 DUP3 DUP6 PUSH2 0x504D JUMP JUMPDEST SWAP2 POP PUSH2 0x5A62 DUP3 DUP5 PUSH2 0x4FC4 JUMP JUMPDEST PUSH1 0x20 DUP3 ADD SWAP2 POP DUP2 SWAP1 POP SWAP4 SWAP3 POP POP POP JUMP JUMPDEST PUSH1 0x0 PUSH1 0x20 DUP3 ADD SWAP1 POP PUSH2 0x5A87 PUSH1 0x0 DUP4 ADD DUP5 PUSH2 0x4C26 JUMP JUMPDEST SWAP3 SWAP2 POP POP JUMP JUMPDEST PUSH1 0x0 PUSH1 0x40 DUP3 ADD SWAP1 POP PUSH2 0x5AA2 PUSH1 0x0 DUP4 ADD DUP6 PUSH2 0x4BF9 JUMP JUMPDEST PUSH2 0x5AAF PUSH1 0x20 DUP4 ADD DUP5 PUSH2 0x4C26 JUMP JUMPDEST SWAP4 SWAP3 POP POP POP JUMP JUMPDEST PUSH1 0x0 PUSH1 0x60 DUP3 ADD SWAP1 POP PUSH2 0x5ACB PUSH1 0x0 DUP4 ADD DUP7 PUSH2 0x4BF9 JUMP JUMPDEST PUSH2 0x5AD8 PUSH1 0x20 DUP4 ADD DUP6 PUSH2 0x4C26 JUMP JUMPDEST PUSH2 0x5AE5 PUSH1 0x40 DUP4 ADD DUP5 PUSH2 0x59D2 JUMP JUMPDEST SWAP5 SWAP4 POP POP POP POP JUMP JUMPDEST PUSH1 0x0 PUSH1 0x40 DUP3 ADD SWAP1 POP PUSH2 0x5B02 PUSH1 0x0 DUP4 ADD DUP6 PUSH2 0x4BF9 JUMP JUMPDEST PUSH2 0x5B0F PUSH1 0x20 DUP4 ADD DUP5 PUSH2 0x59D2 JUMP JUMPDEST SWAP4 SWAP3 POP POP POP JUMP JUMPDEST PUSH1 0x0 PUSH1 0x40 DUP3 ADD SWAP1 POP PUSH2 0x5B2B PUSH1 0x0 DUP4 ADD DUP6 PUSH2 0x4C26 JUMP JUMPDEST PUSH2 0x5B38 PUSH1 0x20 DUP4 ADD DUP5 PUSH2 0x59D2 JUMP JUMPDEST SWAP4 SWAP3 POP POP POP JUMP JUMPDEST PUSH1 0x0 PUSH1 0x60 DUP3 ADD SWAP1 POP PUSH2 0x5B54 PUSH1 0x0 DUP4 ADD DUP7 PUSH2 0x4C26 JUMP JUMPDEST PUSH2 0x5B61 PUSH1 0x20 DUP4 ADD DUP6 PUSH2 0x5A1D JUMP JUMPDEST PUSH2 0x5B6E PUSH1 0x40 DUP4 ADD DUP5 PUSH2 0x4C26 JUMP JUMPDEST SWAP5 SWAP4 POP POP POP POP JUMP JUMPDEST PUSH1 0x0 PUSH1 0x20 DUP3 ADD SWAP1 POP DUP2 DUP2 SUB PUSH1 0x0 DUP4 ADD MSTORE PUSH2 0x5B90 DUP2 DUP5 PUSH2 0x4C93 JUMP JUMPDEST SWAP1 POP SWAP3 SWAP2 POP POP JUMP JUMPDEST PUSH1 0x0 PUSH1 0x20 DUP3 ADD SWAP1 POP DUP2 DUP2 SUB PUSH1 0x0 DUP4 ADD MSTORE PUSH2 0x5BB2 DUP2 DUP5 PUSH2 0x4DC4 JUMP JUMPDEST SWAP1 POP SWAP3 SWAP2 POP POP JUMP JUMPDEST PUSH1 0x0 PUSH1 0x40 DUP3 ADD SWAP1 POP DUP2 DUP2 SUB PUSH1 0x0 DUP4 ADD MSTORE PUSH2 0x5BD4 DUP2 DUP6 PUSH2 0x4EAE JUMP JUMPDEST SWAP1 POP PUSH2 0x5BE3 PUSH1 0x20 DUP4 ADD DUP5 PUSH2 0x4F97 JUMP JUMPDEST SWAP4 SWAP3 POP POP POP JUMP JUMPDEST PUSH1 0x0 PUSH1 0x20 DUP3 ADD SWAP1 POP PUSH2 0x5BFF PUSH1 0x0 DUP4 ADD DUP5 PUSH2 0x4F97 JUMP JUMPDEST SWAP3 SWAP2 POP POP JUMP JUMPDEST PUSH1 0x0 PUSH1 0x20 DUP3 ADD SWAP1 POP PUSH2 0x5C1A PUSH1 0x0 DUP4 ADD DUP5 PUSH2 0x4FB5 JUMP JUMPDEST SWAP3 SWAP2 POP POP JUMP JUMPDEST PUSH1 0x0 PUSH1 0x20 DUP3 ADD SWAP1 POP DUP2 DUP2 SUB PUSH1 0x0 DUP4 ADD MSTORE PUSH2 0x5C3A DUP2 DUP5 PUSH2 0x5014 JUMP JUMPDEST SWAP1 POP SWAP3 SWAP2 POP POP JUMP JUMPDEST PUSH1 0x0 PUSH1 0x20 DUP3 ADD SWAP1 POP DUP2 DUP2 SUB PUSH1 0x0 DUP4 ADD MSTORE PUSH2 0x5C5C DUP2 DUP5 PUSH2 0x52D8 JUMP JUMPDEST SWAP1 POP SWAP3 SWAP2 POP POP JUMP JUMPDEST PUSH1 0x0 PUSH1 0x20 DUP3 ADD SWAP1 POP DUP2 DUP2 SUB PUSH1 0x0 DUP4 ADD MSTORE PUSH2 0x5C7E DUP2 DUP5 PUSH2 0x5586 JUMP JUMPDEST SWAP1 POP SWAP3 SWAP2 POP POP JUMP JUMPDEST PUSH1 0x0 PUSH1 0x20 DUP3 ADD SWAP1 POP DUP2 DUP2 SUB PUSH1 0x0 DUP4 ADD MSTORE PUSH2 0x5CA0 DUP2 DUP5 PUSH2 0x5680 JUMP JUMPDEST SWAP1 POP SWAP3 SWAP2 POP POP JUMP JUMPDEST PUSH1 0x0 PUSH1 0x20 DUP3 ADD SWAP1 POP PUSH2 0x5CBD PUSH1 0x0 DUP4 ADD DUP5 PUSH2 0x59D2 JUMP JUMPDEST SWAP3 SWAP2 POP POP JUMP JUMPDEST PUSH1 0x0 PUSH1 0x40 DUP3 ADD SWAP1 POP PUSH2 0x5CD8 PUSH1 0x0 DUP4 ADD DUP6 PUSH2 0x59D2 JUMP JUMPDEST PUSH2 0x5CE5 PUSH1 0x20 DUP4 ADD DUP5 PUSH2 0x4C26 JUMP JUMPDEST SWAP4 SWAP3 POP POP POP JUMP JUMPDEST PUSH1 0x0 PUSH1 0x40 DUP3 ADD SWAP1 POP PUSH2 0x5D01 PUSH1 0x0 DUP4 ADD DUP6 PUSH2 0x59D2 JUMP JUMPDEST PUSH2 0x5D0E PUSH1 0x20 DUP4 ADD DUP5 PUSH2 0x4C08 JUMP JUMPDEST SWAP4 SWAP3 POP POP POP JUMP JUMPDEST PUSH1 0x0 PUSH1 0x40 DUP3 ADD SWAP1 POP PUSH2 0x5D2A PUSH1 0x0 DUP4 ADD DUP6 PUSH2 0x59D2 JUMP JUMPDEST PUSH2 0x5D37 PUSH1 0x20 DUP4 ADD DUP5 PUSH2 0x4F97 JUMP JUMPDEST SWAP4 SWAP3 POP POP POP JUMP JUMPDEST PUSH1 0x0 PUSH1 0x40 DUP3 ADD SWAP1 POP PUSH2 0x5D53 PUSH1 0x0 DUP4 ADD DUP6 PUSH2 0x59D2 JUMP JUMPDEST PUSH2 0x5D60 PUSH1 0x20 DUP4 ADD DUP5 PUSH2 0x4FB5 JUMP JUMPDEST SWAP4 SWAP3 POP POP POP JUMP JUMPDEST PUSH1 0x0 PUSH1 0x40 DUP3 ADD SWAP1 POP PUSH2 0x5D7C PUSH1 0x0 DUP4 ADD DUP6 PUSH2 0x59D2 JUMP JUMPDEST PUSH2 0x5D89 PUSH1 0x20 DUP4 ADD DUP5 PUSH2 0x511C JUMP JUMPDEST SWAP4 SWAP3 POP POP POP JUMP JUMPDEST PUSH1 0x0 PUSH2 0x140 DUP3 ADD SWAP1 POP PUSH2 0x5DA6 PUSH1 0x0 DUP4 ADD DUP13 PUSH2 0x59F0 JUMP JUMPDEST PUSH2 0x5DB3 PUSH1 0x20 DUP4 ADD DUP12 PUSH2 0x544A JUMP JUMPDEST PUSH2 0x5DC0 PUSH1 0x60 DUP4 ADD DUP11 PUSH2 0x59F0 JUMP JUMPDEST PUSH2 0x5DCD PUSH1 0x80 DUP4 ADD DUP10 PUSH2 0x4C26 JUMP JUMPDEST PUSH2 0x5DDA PUSH1 0xA0 DUP4 ADD DUP9 PUSH2 0x59D2 JUMP JUMPDEST DUP2 DUP2 SUB PUSH1 0xC0 DUP4 ADD MSTORE PUSH2 0x5DEC DUP2 DUP8 PUSH2 0x592E JUMP JUMPDEST SWAP1 POP PUSH2 0x5DFB PUSH1 0xE0 DUP4 ADD DUP7 PUSH2 0x4C26 JUMP JUMPDEST PUSH2 0x5E09 PUSH2 0x100 DUP4 ADD DUP6 PUSH2 0x4C26 JUMP JUMPDEST PUSH2 0x5E17 PUSH2 0x120 DUP4 ADD DUP5 PUSH2 0x4C26 JUMP JUMPDEST SWAP11 SWAP10 POP POP POP POP POP POP POP POP POP POP JUMP JUMPDEST PUSH1 0x0 PUSH1 0x40 DUP3 ADD SWAP1 POP PUSH2 0x5E3A PUSH1 0x0 DUP4 ADD DUP6 PUSH2 0x59FF JUMP JUMPDEST PUSH2 0x5E47 PUSH1 0x20 DUP4 ADD DUP5 PUSH2 0x5A3B JUMP JUMPDEST SWAP4 SWAP3 POP POP POP JUMP JUMPDEST PUSH1 0x0 PUSH1 0x40 MLOAD SWAP1 POP DUP2 DUP2 ADD DUP2 DUP2 LT PUSH8 0xFFFFFFFFFFFFFFFF DUP3 GT OR ISZERO PUSH2 0x5E75 JUMPI PUSH2 0x5E74 PUSH2 0x6408 JUMP JUMPDEST JUMPDEST DUP1 PUSH1 0x40 MSTORE POP SWAP2 SWAP1 POP JUMP JUMPDEST PUSH1 0x0 PUSH8 0xFFFFFFFFFFFFFFFF DUP3 GT ISZERO PUSH2 0x5E9A JUMPI PUSH2 0x5E99 PUSH2 0x6408 JUMP JUMPDEST JUMPDEST PUSH1 0x20 DUP3 MUL SWAP1 POP PUSH1 0x20 DUP2 ADD SWAP1 POP SWAP2 SWAP1 POP JUMP JUMPDEST PUSH1 0x0 PUSH8 0xFFFFFFFFFFFFFFFF DUP3 GT ISZERO PUSH2 0x5EC6 JUMPI PUSH2 0x5EC5 PUSH2 0x6408 JUMP JUMPDEST JUMPDEST PUSH1 0x20 DUP3 MUL SWAP1 POP PUSH1 0x20 DUP2 ADD SWAP1 POP SWAP2 SWAP1 POP JUMP JUMPDEST PUSH1 0x0 PUSH8 0xFFFFFFFFFFFFFFFF DUP3 GT ISZERO PUSH2 0x5EF2 JUMPI PUSH2 0x5EF1 PUSH2 0x6408 JUMP JUMPDEST JUMPDEST PUSH1 0x20 DUP3 MUL SWAP1 POP PUSH1 0x20 DUP2 ADD SWAP1 POP SWAP2 SWAP1 POP JUMP JUMPDEST PUSH1 0x0 PUSH8 0xFFFFFFFFFFFFFFFF DUP3 GT ISZERO PUSH2 0x5F1E JUMPI PUSH2 0x5F1D PUSH2 0x6408 JUMP JUMPDEST JUMPDEST PUSH1 0x20 DUP3 MUL SWAP1 POP PUSH1 0x20 DUP2 ADD SWAP1 POP SWAP2 SWAP1 POP JUMP JUMPDEST PUSH1 0x0 PUSH8 0xFFFFFFFFFFFFFFFF DUP3 GT ISZERO PUSH2 0x5F4A JUMPI PUSH2 0x5F49 PUSH2 0x6408 JUMP JUMPDEST JUMPDEST PUSH1 0x20 DUP3 MUL SWAP1 POP PUSH1 0x20 DUP2 ADD SWAP1 POP SWAP2 SWAP1 POP JUMP JUMPDEST PUSH1 0x0 PUSH8 0xFFFFFFFFFFFFFFFF DUP3 GT ISZERO PUSH2 0x5F76 JUMPI PUSH2 0x5F75 PUSH2 0x6408 JUMP JUMPDEST JUMPDEST PUSH1 0x20 DUP3 MUL SWAP1 POP PUSH1 0x20 DUP2 ADD SWAP1 POP SWAP2 SWAP1 POP JUMP JUMPDEST PUSH1 0x0 PUSH8 0xFFFFFFFFFFFFFFFF DUP3 GT ISZERO PUSH2 0x5FA2 JUMPI PUSH2 0x5FA1 PUSH2 0x6408 JUMP JUMPDEST JUMPDEST PUSH1 0x1F NOT PUSH1 0x1F DUP4 ADD AND SWAP1 POP PUSH1 0x20 DUP2 ADD SWAP1 POP SWAP2 SWAP1 POP JUMP JUMPDEST PUSH1 0x0 DUP2 SWAP1 POP PUSH1 0x20 DUP3 ADD SWAP1 POP SWAP2 SWAP1 POP JUMP JUMPDEST PUSH1 0x0 DUP2 SWAP1 POP PUSH1 0x20 DUP3 ADD SWAP1 POP SWAP2 SWAP1 POP JUMP JUMPDEST PUSH1 0x0 DUP2 SWAP1 POP PUSH1 0x20 DUP3 ADD SWAP1 POP SWAP2 SWAP1 POP JUMP JUMPDEST PUSH1 0x0 DUP2 SWAP1 POP PUSH1 0x20 DUP3 ADD SWAP1 POP SWAP2 SWAP1 POP JUMP JUMPDEST PUSH1 0x0 DUP2 SWAP1 POP PUSH1 0x20 DUP3 ADD SWAP1 POP SWAP2 SWAP1 POP JUMP JUMPDEST PUSH1 0x0 DUP2 SWAP1 POP DUP2 PUSH1 0x0 MSTORE PUSH1 0x20 PUSH1 0x0 KECCAK256 SWAP1 POP SWAP2 SWAP1 POP JUMP JUMPDEST PUSH1 0x0 DUP2 SWAP1 POP PUSH1 0x20 DUP3 ADD SWAP1 POP SWAP2 SWAP1 POP JUMP JUMPDEST PUSH1 0x0 DUP2 SWAP1 POP DUP2 PUSH1 0x0 MSTORE PUSH1 0x20 PUSH1 0x0 KECCAK256 SWAP1 POP SWAP2 SWAP1 POP JUMP JUMPDEST PUSH1 0x0 DUP2 MLOAD SWAP1 POP SWAP2 SWAP1 POP JUMP JUMPDEST PUSH1 0x0 DUP2 MLOAD SWAP1 POP SWAP2 SWAP1 POP JUMP JUMPDEST PUSH1 0x0 DUP2 MLOAD SWAP1 POP SWAP2 SWAP1 POP JUMP JUMPDEST PUSH1 0x0 DUP2 MLOAD SWAP1 POP SWAP2 SWAP1 POP JUMP JUMPDEST PUSH1 0x0 DUP2 MLOAD SWAP1 POP SWAP2 SWAP1 POP JUMP JUMPDEST PUSH1 0x0 DUP2 SLOAD SWAP1 POP SWAP2 SWAP1 POP JUMP JUMPDEST PUSH1 0x0 DUP2 MLOAD SWAP1 POP SWAP2 SWAP1 POP JUMP JUMPDEST PUSH1 0x0 DUP2 MLOAD SWAP1 POP SWAP2 SWAP1 POP JUMP JUMPDEST PUSH1 0x0 PUSH1 0x20 DUP3 ADD SWAP1 POP SWAP2 SWAP1 POP JUMP JUMPDEST PUSH1 0x0 PUSH1 0x20 DUP3 ADD SWAP1 POP SWAP2 SWAP1 POP JUMP JUMPDEST PUSH1 0x0 PUSH1 0x20 DUP3 ADD SWAP1 POP SWAP2 SWAP1 POP JUMP JUMPDEST PUSH1 0x0 PUSH1 0x20 DUP3 ADD SWAP1 POP SWAP2 SWAP1 POP JUMP JUMPDEST PUSH1 0x0 PUSH1 0x20 DUP3 ADD SWAP1 POP SWAP2 SWAP1 POP JUMP JUMPDEST PUSH1 0x0 PUSH1 0x9 DUP3 ADD SWAP1 POP SWAP2 SWAP1 POP JUMP JUMPDEST PUSH1 0x0 PUSH1 0x20 DUP3 ADD SWAP1 POP SWAP2 SWAP1 POP JUMP JUMPDEST PUSH1 0x0 DUP3 DUP3 MSTORE PUSH1 0x20 DUP3 ADD SWAP1 POP SWAP3 SWAP2 POP POP JUMP JUMPDEST PUSH1 0x0 DUP3 DUP3 MSTORE PUSH1 0x20 DUP3 ADD SWAP1 POP SWAP3 SWAP2 POP POP JUMP JUMPDEST PUSH1 0x0 DUP3 DUP3 MSTORE PUSH1 0x20 DUP3 ADD SWAP1 POP SWAP3 SWAP2 POP POP JUMP JUMPDEST PUSH1 0x0 DUP3 DUP3 MSTORE PUSH1 0x20 DUP3 ADD SWAP1 POP SWAP3 SWAP2 POP POP JUMP JUMPDEST PUSH1 0x0 DUP3 DUP3 MSTORE PUSH1 0x20 DUP3 ADD SWAP1 POP SWAP3 SWAP2 POP POP JUMP JUMPDEST PUSH1 0x0 DUP3 DUP3 MSTORE PUSH1 0x20 DUP3 ADD SWAP1 POP SWAP3 SWAP2 POP POP JUMP JUMPDEST PUSH1 0x0 DUP3 DUP3 MSTORE PUSH1 0x20 DUP3 ADD SWAP1 POP SWAP3 SWAP2 POP POP JUMP JUMPDEST PUSH1 0x0 DUP3 DUP3 MSTORE PUSH1 0x20 DUP3 ADD SWAP1 POP SWAP3 SWAP2 POP POP JUMP JUMPDEST PUSH1 0x0 DUP3 DUP3 MSTORE PUSH1 0x20 DUP3 ADD SWAP1 POP SWAP3 SWAP2 POP POP JUMP JUMPDEST PUSH1 0x0 DUP3 DUP3 MSTORE PUSH1 0x20 DUP3 ADD SWAP1 POP SWAP3 SWAP2 POP POP JUMP JUMPDEST PUSH1 0x0 DUP2 SWAP1 POP SWAP3 SWAP2 POP POP JUMP JUMPDEST PUSH1 0x0 PUSH20 0xFFFFFFFFFFFFFFFFFFFFFFFFFFFFFFFFFFFFFFFF DUP3 AND SWAP1 POP SWAP2 SWAP1 POP JUMP JUMPDEST PUSH1 0x0 DUP2 SWAP1 POP SWAP2 SWAP1 POP JUMP JUMPDEST PUSH1 0x0 PUSH4 0xFFFFFFFF DUP3 AND SWAP1 POP SWAP2 SWAP1 POP JUMP JUMPDEST PUSH1 0x0 PUSH8 0xFFFFFFFFFFFFFFFF DUP3 AND SWAP1 POP SWAP2 SWAP1 POP JUMP JUMPDEST PUSH1 0x0 PUSH1 0xFF DUP3 AND SWAP1 POP SWAP2 SWAP1 POP JUMP JUMPDEST PUSH1 0x0 PUSH2 0x620F DUP3 PUSH2 0x626B JUMP JUMPDEST SWAP1 POP SWAP2 SWAP1 POP JUMP JUMPDEST PUSH1 0x0 PUSH2 0x6221 DUP3 PUSH2 0x626B JUMP JUMPDEST SWAP1 POP SWAP2 SWAP1 POP JUMP JUMPDEST PUSH1 0x0 DUP2 ISZERO ISZERO SWAP1 POP SWAP2 SWAP1 POP JUMP JUMPDEST PUSH1 0x0 DUP2 SWAP1 POP SWAP2 SWAP1 POP JUMP JUMPDEST PUSH1 0x0 PUSH2 0x6249 DUP3 PUSH2 0x6204 JUMP JUMPDEST SWAP1 POP SWAP2 SWAP1 POP JUMP JUMPDEST PUSH1 0x0 DUP2 PUSH1 0x3 SIGNEXTEND SWAP1 POP SWAP2 SWAP1 POP JUMP JUMPDEST PUSH1 0x0 PUSH2 0xFFFF DUP3 AND SWAP1 POP SWAP2 SWAP1 POP JUMP JUMPDEST PUSH1 0x0 PUSH20 0xFFFFFFFFFFFFFFFFFFFFFFFFFFFFFFFFFFFFFFFF DUP3 AND SWAP1 POP SWAP2 SWAP1 POP JUMP JUMPDEST PUSH1 0x0 DUP2 SWAP1 POP SWAP2 SWAP1 POP JUMP JUMPDEST PUSH1 0x0 PUSH4 0xFFFFFFFF DUP3 AND SWAP1 POP SWAP2 SWAP1 POP JUMP JUMPDEST PUSH1 0x0 PUSH8 0xFFFFFFFFFFFFFFFF DUP3 AND SWAP1 POP SWAP2 SWAP1 POP JUMP JUMPDEST PUSH1 0x0 PUSH1 0xFF DUP3 AND SWAP1 POP SWAP2 SWAP1 POP JUMP JUMPDEST PUSH1 0x0 PUSH2 0x62D1 DUP3 PUSH2 0x62EA JUMP JUMPDEST SWAP1 POP SWAP2 SWAP1 POP JUMP JUMPDEST PUSH1 0x0 PUSH2 0x62E3 DUP3 PUSH2 0x62B9 JUMP JUMPDEST SWAP1 POP SWAP2 SWAP1 POP JUMP JUMPDEST PUSH1 0x0 PUSH2 0x62F5 DUP3 PUSH2 0x62FC JUMP JUMPDEST SWAP1 POP SWAP2 SWAP1 POP JUMP JUMPDEST PUSH1 0x0 PUSH2 0x6307 DUP3 PUSH2 0x626B JUMP JUMPDEST SWAP1 POP SWAP2 SWAP1 POP JUMP JUMPDEST PUSH1 0x0 PUSH2 0x6319 DUP3 PUSH2 0x62A5 JUMP JUMPDEST SWAP1 POP SWAP2 SWAP1 POP JUMP JUMPDEST DUP3 DUP2 DUP4 CALLDATACOPY PUSH1 0x0 DUP4 DUP4 ADD MSTORE POP POP POP JUMP JUMPDEST PUSH1 0x0 JUMPDEST DUP4 DUP2 LT ISZERO PUSH2 0x634D JUMPI DUP1 DUP3 ADD MLOAD DUP2 DUP5 ADD MSTORE PUSH1 0x20 DUP2 ADD SWAP1 POP PUSH2 0x6332 JUMP JUMPDEST DUP4 DUP2 GT ISZERO PUSH2 0x635C JUMPI PUSH1 0x0 DUP5 DUP5 ADD MSTORE JUMPDEST POP POP POP POP JUMP JUMPDEST PUSH1 0x0 PUSH2 0x6375 PUSH2 0x6370 DUP4 PUSH2 0x641B JUMP JUMPDEST PUSH2 0x61A9 JUMP JUMPDEST SWAP1 POP SWAP2 SWAP1 POP JUMP JUMPDEST PUSH1 0x0 PUSH2 0x638F PUSH2 0x638A DUP4 PUSH2 0x641B JUMP JUMPDEST PUSH2 0x61C9 JUMP JUMPDEST SWAP1 POP SWAP2 SWAP1 POP JUMP JUMPDEST PUSH1 0x0 PUSH2 0x63A9 PUSH2 0x63A4 DUP4 PUSH2 0x641B JUMP JUMPDEST PUSH2 0x61D3 JUMP JUMPDEST SWAP1 POP SWAP2 SWAP1 POP JUMP JUMPDEST PUSH1 0x0 PUSH2 0x63C3 PUSH2 0x63BE DUP4 PUSH2 0x641B JUMP JUMPDEST PUSH2 0x61F7 JUMP JUMPDEST SWAP1 POP SWAP2 SWAP1 POP JUMP JUMPDEST PUSH1 0x0 PUSH2 0x63DD PUSH2 0x63D8 DUP4 PUSH2 0x6428 JUMP JUMPDEST PUSH2 0x61E3 JUMP JUMPDEST SWAP1 POP SWAP2 SWAP1 POP JUMP JUMPDEST PUSH1 0x0 PUSH2 0x63F7 PUSH2 0x63F2 DUP4 PUSH2 0x6435 JUMP JUMPDEST PUSH2 0x61A9 JUMP JUMPDEST SWAP1 POP SWAP2 SWAP1 POP JUMP JUMPDEST PUSH1 0x0 DUP2 SWAP1 POP SWAP2 SWAP1 POP JUMP JUMPDEST INVALID JUMPDEST PUSH1 0x0 PUSH1 0x1F NOT PUSH1 0x1F DUP4 ADD AND SWAP1 POP SWAP2 SWAP1 POP JUMP JUMPDEST PUSH1 0x0 DUP2 PUSH1 0x0 SHR SWAP1 POP SWAP2 SWAP1 POP JUMP JUMPDEST PUSH1 0x0 DUP2 PUSH1 0xA0 SHR SWAP1 POP SWAP2 SWAP1 POP JUMP JUMPDEST PUSH1 0x0 DUP2 PUSH1 0x20 SHR SWAP1 POP SWAP2 SWAP1 POP JUMP JUMPDEST PUSH2 0x644B DUP2 PUSH2 0x6204 JUMP JUMPDEST DUP2 EQ PUSH2 0x6456 JUMPI PUSH1 0x0 DUP1 REVERT JUMPDEST POP JUMP JUMPDEST PUSH2 0x6462 DUP2 PUSH2 0x6228 JUMP JUMPDEST DUP2 EQ PUSH2 0x646D JUMPI PUSH1 0x0 DUP1 REVERT JUMPDEST POP JUMP JUMPDEST PUSH2 0x6479 DUP2 PUSH2 0x6234 JUMP JUMPDEST DUP2 EQ PUSH2 0x6484 JUMPI PUSH1 0x0 DUP1 REVERT JUMPDEST POP JUMP JUMPDEST PUSH2 0x6490 DUP2 PUSH2 0x623E JUMP JUMPDEST DUP2 EQ PUSH2 0x649B JUMPI PUSH1 0x0 DUP1 REVERT JUMPDEST POP JUMP JUMPDEST PUSH2 0x64A7 DUP2 PUSH2 0x6250 JUMP JUMPDEST DUP2 EQ PUSH2 0x64B2 JUMPI PUSH1 0x0 DUP1 REVERT JUMPDEST POP JUMP JUMPDEST PUSH2 0x64BE DUP2 PUSH2 0x625D JUMP JUMPDEST DUP2 EQ PUSH2 0x64C9 JUMPI PUSH1 0x0 DUP1 REVERT JUMPDEST POP JUMP JUMPDEST PUSH2 0x64D5 DUP2 PUSH2 0x628B JUMP JUMPDEST DUP2 EQ PUSH2 0x64E0 JUMPI PUSH1 0x0 DUP1 REVERT JUMPDEST POP JUMP JUMPDEST PUSH2 0x64EC DUP2 PUSH2 0x6295 JUMP JUMPDEST DUP2 EQ PUSH2 0x64F7 JUMPI PUSH1 0x0 DUP1 REVERT JUMPDEST POP JUMP JUMPDEST PUSH2 0x6503 DUP2 PUSH2 0x62A5 JUMP JUMPDEST DUP2 EQ PUSH2 0x650E JUMPI PUSH1 0x0 DUP1 REVERT JUMPDEST POP JUMP JUMPDEST PUSH2 0x651A DUP2 PUSH2 0x62B9 JUMP JUMPDEST DUP2 EQ PUSH2 0x6525 JUMPI PUSH1 0x0 DUP1 REVERT JUMPDEST POP JUMP INVALID LOG2 PUSH5 0x6970667358 0x22 SLT KECCAK256 0xD4 LT ADDMOD 0x27 SUB EQ SLT 0xDD PUSH15 0xA045E5373A4147AA1B8997ADBBE505 SWAP10 SGT 0xA6 PUSH27 0x3DAAF85B64736F6C63430007060033000000000000000000000000 "
		},
		"gasEstimates": {
			"creation": {
				"codeDepositCost": "5190000",
				"executionCost": "infinite",
				"totalCost": "infinite"
			},
			"external": {
				"_createImports((uint256,bytes32,uint256,(uint16,uint16,address,bytes32,uint32,uint32,address,address,uint32,(address,uint64)[],(address,uint64)[],(address,uint64)[],(uint8,bytes),int32),(uint8,uint8,(uint8,(uint8,uint32,uint32,bytes32[]))[],(uint8,uint8,bytes,(uint8,(uint8,uint32,uint32,bytes32[]))[])[]),(uint32,(address,uint64),uint32,address,uint256,(uint8,bytes),address,address,address)[]))": "infinite",
				"_readyExports(uint256,uint256)": "infinite",
				"checkImports(bytes32[])": "infinite",
				"deprecated()": "1245",
				"export((uint32,(address,uint64),uint32,address,uint256,(uint8,bytes),address,address,address),uint256)": "infinite",
				"firstBlock()": "1197",
				"getReadyExportsByBlock(uint256)": "infinite",
				"getReadyExportsByRange(uint256,uint256)": "infinite",
				"getlastimportheight()": "1203",
				"lastTxImportHeight()": "1217",
				"lastimport()": "2144",
				"processedTxids(bytes32)": "1541",
				"readyExportHashes(uint256)": "2304",
				"readyExportsByBlock(uint256)": "infinite",
				"submitImports((uint256,bytes32,uint256,(uint16,uint16,address,bytes32,uint32,uint32,address,address,uint32,(address,uint64)[],(address,uint64)[],(address,uint64)[],(uint8,bytes),int32),(uint8,uint8,(uint8,(uint8,uint32,uint32,bytes32[]))[],(uint8,uint8,bytes,(uint8,(uint8,uint32,uint32,bytes32[]))[])[]),(uint32,(address,uint64),uint32,address,uint256,(uint8,bytes),address,address,address)[])[])": "infinite",
				"upgradedAddress()": "1304"
			},
			"internal": {
				"_createExports(struct VerusObjects.CReserveTransfer memory)": "infinite"
			}
		},
		"methodIdentifiers": {
			"_createImports((uint256,bytes32,uint256,(uint16,uint16,address,bytes32,uint32,uint32,address,address,uint32,(address,uint64)[],(address,uint64)[],(address,uint64)[],(uint8,bytes),int32),(uint8,uint8,(uint8,(uint8,uint32,uint32,bytes32[]))[],(uint8,uint8,bytes,(uint8,(uint8,uint32,uint32,bytes32[]))[])[]),(uint32,(address,uint64),uint32,address,uint256,(uint8,bytes),address,address,address)[]))": "32db7723",
			"_readyExports(uint256,uint256)": "7e3e661b",
			"checkImports(bytes32[])": "b85c0acb",
			"deprecated()": "0e136b19",
			"export((uint32,(address,uint64),uint32,address,uint256,(uint8,bytes),address,address,address),uint256)": "1549a189",
			"firstBlock()": "231b0268",
			"getReadyExportsByBlock(uint256)": "2a9e72a6",
			"getReadyExportsByRange(uint256,uint256)": "e4804abc",
			"getlastimportheight()": "e4f30a9f",
			"lastTxImportHeight()": "f76b96bb",
			"lastimport()": "5f2edcbe",
			"processedTxids(bytes32)": "327d4263",
			"readyExportHashes(uint256)": "e45b909d",
			"readyExportsByBlock(uint256)": "c17a4eef",
			"submitImports((uint256,bytes32,uint256,(uint16,uint16,address,bytes32,uint32,uint32,address,address,uint32,(address,uint64)[],(address,uint64)[],(address,uint64)[],(uint8,bytes),int32),(uint8,uint8,(uint8,(uint8,uint32,uint32,bytes32[]))[],(uint8,uint8,bytes,(uint8,(uint8,uint32,uint32,bytes32[]))[])[]),(uint32,(address,uint64),uint32,address,uint256,(uint8,bytes),address,address,address)[])[])": "9deae284",
			"upgradedAddress()": "26976e3f"
		}
	},
	"abi": [
		{
			"inputs": [
				{
					"internalType": "address",
					"name": "verusBridgeMasterAddress",
					"type": "address"
				}
			],
			"stateMutability": "nonpayable",
			"type": "constructor"
		},
		{
			"inputs": [
				{
					"components": [
						{
							"internalType": "uint256",
							"name": "height",
							"type": "uint256"
						},
						{
							"internalType": "bytes32",
							"name": "txid",
							"type": "bytes32"
						},
						{
							"internalType": "uint256",
							"name": "txoutnum",
							"type": "uint256"
						},
						{
							"components": [
								{
									"internalType": "uint16",
									"name": "version",
									"type": "uint16"
								},
								{
									"internalType": "uint16",
									"name": "flags",
									"type": "uint16"
								},
								{
									"internalType": "address",
									"name": "sourcesystemid",
									"type": "address"
								},
								{
									"internalType": "bytes32",
									"name": "hashtransfers",
									"type": "bytes32"
								},
								{
									"internalType": "uint32",
									"name": "sourceheightstart",
									"type": "uint32"
								},
								{
									"internalType": "uint32",
									"name": "sourceheightend",
									"type": "uint32"
								},
								{
									"internalType": "address",
									"name": "destinationsystemid",
									"type": "address"
								},
								{
									"internalType": "address",
									"name": "destinationcurrencyid",
									"type": "address"
								},
								{
									"internalType": "uint32",
									"name": "numinputs",
									"type": "uint32"
								},
								{
									"components": [
										{
											"internalType": "address",
											"name": "currency",
											"type": "address"
										},
										{
											"internalType": "uint64",
											"name": "amount",
											"type": "uint64"
										}
									],
									"internalType": "struct VerusObjects.CCurrencyValueMap[]",
									"name": "totalamounts",
									"type": "tuple[]"
								},
								{
									"components": [
										{
											"internalType": "address",
											"name": "currency",
											"type": "address"
										},
										{
											"internalType": "uint64",
											"name": "amount",
											"type": "uint64"
										}
									],
									"internalType": "struct VerusObjects.CCurrencyValueMap[]",
									"name": "totalfees",
									"type": "tuple[]"
								},
								{
									"components": [
										{
											"internalType": "address",
											"name": "currency",
											"type": "address"
										},
										{
											"internalType": "uint64",
											"name": "amount",
											"type": "uint64"
										}
									],
									"internalType": "struct VerusObjects.CCurrencyValueMap[]",
									"name": "totalburned",
									"type": "tuple[]"
								},
								{
									"components": [
										{
											"internalType": "uint8",
											"name": "destinationtype",
											"type": "uint8"
										},
										{
											"internalType": "bytes",
											"name": "destinationaddress",
											"type": "bytes"
										}
									],
									"internalType": "struct VerusObjectsCommon.CTransferDestination",
									"name": "rewardaddress",
									"type": "tuple"
								},
								{
									"internalType": "int32",
									"name": "firstinput",
									"type": "int32"
								}
							],
							"internalType": "struct VerusObjects.CCrossChainExport",
							"name": "exportinfo",
							"type": "tuple"
						},
						{
							"components": [
								{
									"internalType": "uint8",
									"name": "version",
									"type": "uint8"
								},
								{
									"internalType": "uint8",
									"name": "typeC",
									"type": "uint8"
								},
								{
									"components": [
										{
											"internalType": "uint8",
											"name": "branchType",
											"type": "uint8"
										},
										{
											"components": [
												{
													"internalType": "uint8",
													"name": "CMerkleBranchBase",
													"type": "uint8"
												},
												{
													"internalType": "uint32",
													"name": "nIndex",
													"type": "uint32"
												},
												{
													"internalType": "uint32",
													"name": "nSize",
													"type": "uint32"
												},
												{
													"internalType": "bytes32[]",
													"name": "branch",
													"type": "bytes32[]"
												}
											],
											"internalType": "struct VerusObjects.CMerkleBranch",
											"name": "proofSequence",
											"type": "tuple"
										}
									],
									"internalType": "struct VerusObjects.CTXProof[]",
									"name": "txproof",
									"type": "tuple[]"
								},
								{
									"components": [
										{
											"internalType": "uint8",
											"name": "elType",
											"type": "uint8"
										},
										{
											"internalType": "uint8",
											"name": "elIdx",
											"type": "uint8"
										},
										{
											"internalType": "bytes",
											"name": "elVchObj",
											"type": "bytes"
										},
										{
											"components": [
												{
													"internalType": "uint8",
													"name": "branchType",
													"type": "uint8"
												},
												{
													"components": [
														{
															"internalType": "uint8",
															"name": "CMerkleBranchBase",
															"type": "uint8"
														},
														{
															"internalType": "uint32",
															"name": "nIndex",
															"type": "uint32"
														},
														{
															"internalType": "uint32",
															"name": "nSize",
															"type": "uint32"
														},
														{
															"internalType": "bytes32[]",
															"name": "branch",
															"type": "bytes32[]"
														}
													],
													"internalType": "struct VerusObjects.CMerkleBranch",
													"name": "proofSequence",
													"type": "tuple"
												}
											],
											"internalType": "struct VerusObjects.CTXProof[]",
											"name": "elProof",
											"type": "tuple[]"
										}
									],
									"internalType": "struct VerusObjects.CComponents[]",
									"name": "components",
									"type": "tuple[]"
								}
							],
							"internalType": "struct VerusObjects.CPtransactionproof",
							"name": "partialtransactionproof",
							"type": "tuple"
						},
						{
							"components": [
								{
									"internalType": "uint32",
									"name": "version",
									"type": "uint32"
								},
								{
									"components": [
										{
											"internalType": "address",
											"name": "currency",
											"type": "address"
										},
										{
											"internalType": "uint64",
											"name": "amount",
											"type": "uint64"
										}
									],
									"internalType": "struct VerusObjects.CCurrencyValueMap",
									"name": "currencyvalue",
									"type": "tuple"
								},
								{
									"internalType": "uint32",
									"name": "flags",
									"type": "uint32"
								},
								{
									"internalType": "address",
									"name": "feecurrencyid",
									"type": "address"
								},
								{
									"internalType": "uint256",
									"name": "fees",
									"type": "uint256"
								},
								{
									"components": [
										{
											"internalType": "uint8",
											"name": "destinationtype",
											"type": "uint8"
										},
										{
											"internalType": "bytes",
											"name": "destinationaddress",
											"type": "bytes"
										}
									],
									"internalType": "struct VerusObjectsCommon.CTransferDestination",
									"name": "destination",
									"type": "tuple"
								},
								{
									"internalType": "address",
									"name": "destcurrencyid",
									"type": "address"
								},
								{
									"internalType": "address",
									"name": "destsystemid",
									"type": "address"
								},
								{
									"internalType": "address",
									"name": "secondreserveid",
									"type": "address"
								}
							],
							"internalType": "struct VerusObjects.CReserveTransfer[]",
							"name": "transfers",
							"type": "tuple[]"
						}
					],
					"internalType": "struct VerusObjects.CReserveTransferImport",
					"name": "_import",
					"type": "tuple"
				}
			],
			"name": "_createImports",
			"outputs": [
				{
					"internalType": "bool",
					"name": "",
					"type": "bool"
				}
			],
			"stateMutability": "nonpayable",
			"type": "function"
		},
		{
			"inputs": [
				{
					"internalType": "uint256",
					"name": "",
					"type": "uint256"
				},
				{
					"internalType": "uint256",
					"name": "",
					"type": "uint256"
				}
			],
			"name": "_readyExports",
			"outputs": [
				{
					"internalType": "uint32",
					"name": "version",
					"type": "uint32"
				},
				{
					"components": [
						{
							"internalType": "address",
							"name": "currency",
							"type": "address"
						},
						{
							"internalType": "uint64",
							"name": "amount",
							"type": "uint64"
						}
					],
					"internalType": "struct VerusObjects.CCurrencyValueMap",
					"name": "currencyvalue",
					"type": "tuple"
				},
				{
					"internalType": "uint32",
					"name": "flags",
					"type": "uint32"
				},
				{
					"internalType": "address",
					"name": "feecurrencyid",
					"type": "address"
				},
				{
					"internalType": "uint256",
					"name": "fees",
					"type": "uint256"
				},
				{
					"components": [
						{
							"internalType": "uint8",
							"name": "destinationtype",
							"type": "uint8"
						},
						{
							"internalType": "bytes",
							"name": "destinationaddress",
							"type": "bytes"
						}
					],
					"internalType": "struct VerusObjectsCommon.CTransferDestination",
					"name": "destination",
					"type": "tuple"
				},
				{
					"internalType": "address",
					"name": "destcurrencyid",
					"type": "address"
				},
				{
					"internalType": "address",
					"name": "destsystemid",
					"type": "address"
				},
				{
					"internalType": "address",
					"name": "secondreserveid",
					"type": "address"
				}
			],
			"stateMutability": "view",
			"type": "function"
		},
		{
			"inputs": [
				{
					"internalType": "bytes32[]",
					"name": "_imports",
					"type": "bytes32[]"
				}
			],
			"name": "checkImports",
			"outputs": [
				{
					"internalType": "bytes32[]",
					"name": "",
					"type": "bytes32[]"
				}
			],
			"stateMutability": "view",
			"type": "function"
		},
		{
			"inputs": [],
			"name": "deprecated",
			"outputs": [
				{
					"internalType": "bool",
					"name": "",
					"type": "bool"
				}
			],
			"stateMutability": "view",
			"type": "function"
		},
		{
			"inputs": [
				{
					"components": [
						{
							"internalType": "uint32",
							"name": "version",
							"type": "uint32"
						},
						{
							"components": [
								{
									"internalType": "address",
									"name": "currency",
									"type": "address"
								},
								{
									"internalType": "uint64",
									"name": "amount",
									"type": "uint64"
								}
							],
							"internalType": "struct VerusObjects.CCurrencyValueMap",
							"name": "currencyvalue",
							"type": "tuple"
						},
						{
							"internalType": "uint32",
							"name": "flags",
							"type": "uint32"
						},
						{
							"internalType": "address",
							"name": "feecurrencyid",
							"type": "address"
						},
						{
							"internalType": "uint256",
							"name": "fees",
							"type": "uint256"
						},
						{
							"components": [
								{
									"internalType": "uint8",
									"name": "destinationtype",
									"type": "uint8"
								},
								{
									"internalType": "bytes",
									"name": "destinationaddress",
									"type": "bytes"
								}
							],
							"internalType": "struct VerusObjectsCommon.CTransferDestination",
							"name": "destination",
							"type": "tuple"
						},
						{
							"internalType": "address",
							"name": "destcurrencyid",
							"type": "address"
						},
						{
							"internalType": "address",
							"name": "destsystemid",
							"type": "address"
						},
						{
							"internalType": "address",
							"name": "secondreserveid",
							"type": "address"
						}
					],
					"internalType": "struct VerusObjects.CReserveTransfer",
					"name": "transfer",
					"type": "tuple"
				},
				{
					"internalType": "uint256",
					"name": "paidValue",
					"type": "uint256"
				}
			],
			"name": "export",
			"outputs": [],
			"stateMutability": "payable",
			"type": "function"
		},
		{
			"inputs": [],
			"name": "firstBlock",
			"outputs": [
				{
					"internalType": "uint256",
					"name": "",
					"type": "uint256"
				}
			],
			"stateMutability": "view",
			"type": "function"
		},
		{
			"inputs": [
				{
					"internalType": "uint256",
					"name": "_blockNumber",
					"type": "uint256"
				}
			],
			"name": "getReadyExportsByBlock",
			"outputs": [
				{
					"components": [
						{
							"internalType": "uint256",
							"name": "position",
							"type": "uint256"
						},
						{
							"internalType": "uint256",
							"name": "blockHeight",
							"type": "uint256"
						},
						{
							"internalType": "bytes32",
							"name": "exportHash",
							"type": "bytes32"
						},
						{
							"components": [
								{
									"internalType": "uint32",
									"name": "version",
									"type": "uint32"
								},
								{
									"components": [
										{
											"internalType": "address",
											"name": "currency",
											"type": "address"
										},
										{
											"internalType": "uint64",
											"name": "amount",
											"type": "uint64"
										}
									],
									"internalType": "struct VerusObjects.CCurrencyValueMap",
									"name": "currencyvalue",
									"type": "tuple"
								},
								{
									"internalType": "uint32",
									"name": "flags",
									"type": "uint32"
								},
								{
									"internalType": "address",
									"name": "feecurrencyid",
									"type": "address"
								},
								{
									"internalType": "uint256",
									"name": "fees",
									"type": "uint256"
								},
								{
									"components": [
										{
											"internalType": "uint8",
											"name": "destinationtype",
											"type": "uint8"
										},
										{
											"internalType": "bytes",
											"name": "destinationaddress",
											"type": "bytes"
										}
									],
									"internalType": "struct VerusObjectsCommon.CTransferDestination",
									"name": "destination",
									"type": "tuple"
								},
								{
									"internalType": "address",
									"name": "destcurrencyid",
									"type": "address"
								},
								{
									"internalType": "address",
									"name": "destsystemid",
									"type": "address"
								},
								{
									"internalType": "address",
									"name": "secondreserveid",
									"type": "address"
								}
							],
							"internalType": "struct VerusObjects.CReserveTransfer[]",
							"name": "transfers",
							"type": "tuple[]"
						}
					],
					"internalType": "struct VerusObjects.CReserveTransferSet",
					"name": "",
					"type": "tuple"
				}
			],
			"stateMutability": "view",
			"type": "function"
		},
		{
			"inputs": [
				{
					"internalType": "uint256",
					"name": "_startBlock",
					"type": "uint256"
				},
				{
					"internalType": "uint256",
					"name": "_endBlock",
					"type": "uint256"
				}
			],
			"name": "getReadyExportsByRange",
			"outputs": [
				{
					"components": [
						{
							"internalType": "uint256",
							"name": "position",
							"type": "uint256"
						},
						{
							"internalType": "uint256",
							"name": "blockHeight",
							"type": "uint256"
						},
						{
							"internalType": "bytes32",
							"name": "exportHash",
							"type": "bytes32"
						},
						{
							"components": [
								{
									"internalType": "uint32",
									"name": "version",
									"type": "uint32"
								},
								{
									"components": [
										{
											"internalType": "address",
											"name": "currency",
											"type": "address"
										},
										{
											"internalType": "uint64",
											"name": "amount",
											"type": "uint64"
										}
									],
									"internalType": "struct VerusObjects.CCurrencyValueMap",
									"name": "currencyvalue",
									"type": "tuple"
								},
								{
									"internalType": "uint32",
									"name": "flags",
									"type": "uint32"
								},
								{
									"internalType": "address",
									"name": "feecurrencyid",
									"type": "address"
								},
								{
									"internalType": "uint256",
									"name": "fees",
									"type": "uint256"
								},
								{
									"components": [
										{
											"internalType": "uint8",
											"name": "destinationtype",
											"type": "uint8"
										},
										{
											"internalType": "bytes",
											"name": "destinationaddress",
											"type": "bytes"
										}
									],
									"internalType": "struct VerusObjectsCommon.CTransferDestination",
									"name": "destination",
									"type": "tuple"
								},
								{
									"internalType": "address",
									"name": "destcurrencyid",
									"type": "address"
								},
								{
									"internalType": "address",
									"name": "destsystemid",
									"type": "address"
								},
								{
									"internalType": "address",
									"name": "secondreserveid",
									"type": "address"
								}
							],
							"internalType": "struct VerusObjects.CReserveTransfer[]",
							"name": "transfers",
							"type": "tuple[]"
						}
					],
					"internalType": "struct VerusObjects.CReserveTransferSet[]",
					"name": "",
					"type": "tuple[]"
				}
			],
			"stateMutability": "view",
			"type": "function"
		},
		{
			"inputs": [],
			"name": "getlastimportheight",
			"outputs": [
				{
					"internalType": "uint256",
					"name": "",
					"type": "uint256"
				}
			],
			"stateMutability": "view",
			"type": "function"
		},
		{
			"inputs": [],
			"name": "lastTxImportHeight",
			"outputs": [
				{
					"internalType": "uint256",
					"name": "",
					"type": "uint256"
				}
			],
			"stateMutability": "view",
			"type": "function"
		},
		{
			"inputs": [],
			"name": "lastimport",
			"outputs": [
				{
					"internalType": "uint256",
					"name": "height",
					"type": "uint256"
				},
				{
					"internalType": "bytes32",
					"name": "txid",
					"type": "bytes32"
				}
			],
			"stateMutability": "view",
			"type": "function"
		},
		{
			"inputs": [
				{
					"internalType": "bytes32",
					"name": "",
					"type": "bytes32"
				}
			],
			"name": "processedTxids",
			"outputs": [
				{
					"internalType": "bool",
					"name": "",
					"type": "bool"
				}
			],
			"stateMutability": "view",
			"type": "function"
		},
		{
			"inputs": [
				{
					"internalType": "uint256",
					"name": "",
					"type": "uint256"
				}
			],
			"name": "readyExportHashes",
			"outputs": [
				{
					"internalType": "bytes32",
					"name": "",
					"type": "bytes32"
				}
			],
			"stateMutability": "view",
			"type": "function"
		},
		{
			"inputs": [
				{
					"internalType": "uint256",
					"name": "",
					"type": "uint256"
				}
			],
			"name": "readyExportsByBlock",
			"outputs": [
				{
					"internalType": "uint256",
					"name": "index",
					"type": "uint256"
				},
				{
					"internalType": "bool",
					"name": "created",
					"type": "bool"
				}
			],
			"stateMutability": "view",
			"type": "function"
		},
		{
			"inputs": [
				{
					"components": [
						{
							"internalType": "uint256",
							"name": "height",
							"type": "uint256"
						},
						{
							"internalType": "bytes32",
							"name": "txid",
							"type": "bytes32"
						},
						{
							"internalType": "uint256",
							"name": "txoutnum",
							"type": "uint256"
						},
						{
							"components": [
								{
									"internalType": "uint16",
									"name": "version",
									"type": "uint16"
								},
								{
									"internalType": "uint16",
									"name": "flags",
									"type": "uint16"
								},
								{
									"internalType": "address",
									"name": "sourcesystemid",
									"type": "address"
								},
								{
									"internalType": "bytes32",
									"name": "hashtransfers",
									"type": "bytes32"
								},
								{
									"internalType": "uint32",
									"name": "sourceheightstart",
									"type": "uint32"
								},
								{
									"internalType": "uint32",
									"name": "sourceheightend",
									"type": "uint32"
								},
								{
									"internalType": "address",
									"name": "destinationsystemid",
									"type": "address"
								},
								{
									"internalType": "address",
									"name": "destinationcurrencyid",
									"type": "address"
								},
								{
									"internalType": "uint32",
									"name": "numinputs",
									"type": "uint32"
								},
								{
									"components": [
										{
											"internalType": "address",
											"name": "currency",
											"type": "address"
										},
										{
											"internalType": "uint64",
											"name": "amount",
											"type": "uint64"
										}
									],
									"internalType": "struct VerusObjects.CCurrencyValueMap[]",
									"name": "totalamounts",
									"type": "tuple[]"
								},
								{
									"components": [
										{
											"internalType": "address",
											"name": "currency",
											"type": "address"
										},
										{
											"internalType": "uint64",
											"name": "amount",
											"type": "uint64"
										}
									],
									"internalType": "struct VerusObjects.CCurrencyValueMap[]",
									"name": "totalfees",
									"type": "tuple[]"
								},
								{
									"components": [
										{
											"internalType": "address",
											"name": "currency",
											"type": "address"
										},
										{
											"internalType": "uint64",
											"name": "amount",
											"type": "uint64"
										}
									],
									"internalType": "struct VerusObjects.CCurrencyValueMap[]",
									"name": "totalburned",
									"type": "tuple[]"
								},
								{
									"components": [
										{
											"internalType": "uint8",
											"name": "destinationtype",
											"type": "uint8"
										},
										{
											"internalType": "bytes",
											"name": "destinationaddress",
											"type": "bytes"
										}
									],
									"internalType": "struct VerusObjectsCommon.CTransferDestination",
									"name": "rewardaddress",
									"type": "tuple"
								},
								{
									"internalType": "int32",
									"name": "firstinput",
									"type": "int32"
								}
							],
							"internalType": "struct VerusObjects.CCrossChainExport",
							"name": "exportinfo",
							"type": "tuple"
						},
						{
							"components": [
								{
									"internalType": "uint8",
									"name": "version",
									"type": "uint8"
								},
								{
									"internalType": "uint8",
									"name": "typeC",
									"type": "uint8"
								},
								{
									"components": [
										{
											"internalType": "uint8",
											"name": "branchType",
											"type": "uint8"
										},
										{
											"components": [
												{
													"internalType": "uint8",
													"name": "CMerkleBranchBase",
													"type": "uint8"
												},
												{
													"internalType": "uint32",
													"name": "nIndex",
													"type": "uint32"
												},
												{
													"internalType": "uint32",
													"name": "nSize",
													"type": "uint32"
												},
												{
													"internalType": "bytes32[]",
													"name": "branch",
													"type": "bytes32[]"
												}
											],
											"internalType": "struct VerusObjects.CMerkleBranch",
											"name": "proofSequence",
											"type": "tuple"
										}
									],
									"internalType": "struct VerusObjects.CTXProof[]",
									"name": "txproof",
									"type": "tuple[]"
								},
								{
									"components": [
										{
											"internalType": "uint8",
											"name": "elType",
											"type": "uint8"
										},
										{
											"internalType": "uint8",
											"name": "elIdx",
											"type": "uint8"
										},
										{
											"internalType": "bytes",
											"name": "elVchObj",
											"type": "bytes"
										},
										{
											"components": [
												{
													"internalType": "uint8",
													"name": "branchType",
													"type": "uint8"
												},
												{
													"components": [
														{
															"internalType": "uint8",
															"name": "CMerkleBranchBase",
															"type": "uint8"
														},
														{
															"internalType": "uint32",
															"name": "nIndex",
															"type": "uint32"
														},
														{
															"internalType": "uint32",
															"name": "nSize",
															"type": "uint32"
														},
														{
															"internalType": "bytes32[]",
															"name": "branch",
															"type": "bytes32[]"
														}
													],
													"internalType": "struct VerusObjects.CMerkleBranch",
													"name": "proofSequence",
													"type": "tuple"
												}
											],
											"internalType": "struct VerusObjects.CTXProof[]",
											"name": "elProof",
											"type": "tuple[]"
										}
									],
									"internalType": "struct VerusObjects.CComponents[]",
									"name": "components",
									"type": "tuple[]"
								}
							],
							"internalType": "struct VerusObjects.CPtransactionproof",
							"name": "partialtransactionproof",
							"type": "tuple"
						},
						{
							"components": [
								{
									"internalType": "uint32",
									"name": "version",
									"type": "uint32"
								},
								{
									"components": [
										{
											"internalType": "address",
											"name": "currency",
											"type": "address"
										},
										{
											"internalType": "uint64",
											"name": "amount",
											"type": "uint64"
										}
									],
									"internalType": "struct VerusObjects.CCurrencyValueMap",
									"name": "currencyvalue",
									"type": "tuple"
								},
								{
									"internalType": "uint32",
									"name": "flags",
									"type": "uint32"
								},
								{
									"internalType": "address",
									"name": "feecurrencyid",
									"type": "address"
								},
								{
									"internalType": "uint256",
									"name": "fees",
									"type": "uint256"
								},
								{
									"components": [
										{
											"internalType": "uint8",
											"name": "destinationtype",
											"type": "uint8"
										},
										{
											"internalType": "bytes",
											"name": "destinationaddress",
											"type": "bytes"
										}
									],
									"internalType": "struct VerusObjectsCommon.CTransferDestination",
									"name": "destination",
									"type": "tuple"
								},
								{
									"internalType": "address",
									"name": "destcurrencyid",
									"type": "address"
								},
								{
									"internalType": "address",
									"name": "destsystemid",
									"type": "address"
								},
								{
									"internalType": "address",
									"name": "secondreserveid",
									"type": "address"
								}
							],
							"internalType": "struct VerusObjects.CReserveTransfer[]",
							"name": "transfers",
							"type": "tuple[]"
						}
					],
					"internalType": "struct VerusObjects.CReserveTransferImport[]",
					"name": "_imports",
					"type": "tuple[]"
				}
			],
			"name": "submitImports",
			"outputs": [],
			"stateMutability": "nonpayable",
			"type": "function"
		},
		{
			"inputs": [],
			"name": "upgradedAddress",
			"outputs": [
				{
					"internalType": "address",
					"name": "",
					"type": "address"
				}
			],
			"stateMutability": "view",
			"type": "function"
		}
	]
}