{
	"data": {
		"bytecode": {
			"linkReferences": {},
			"object": "6080604052600060085560006009556000600a553480156200002057600080fd5b5060405162005f7138038062005f718339818101604052810190620000469190620000ac565b33600760006101000a81548173ffffffffffffffffffffffffffffffffffffffff021916908373ffffffffffffffffffffffffffffffffffffffff16021790555080600a8190555050620000fc565b600081519050620000a681620000e2565b92915050565b600060208284031215620000bf57600080fd5b6000620000cf8482850162000095565b91505092915050565b6000819050919050565b620000ed81620000d8565b8114620000f957600080fd5b50565b615e65806200010c6000396000f3fe6080604052600436106101665760003560e01c80637e0b2492116100d1578063d4e032331161008a578063e45b909d11610064578063e45b909d14610567578063e4804abc146105a4578063f4e56991146105e1578063fc3cc6531461061e57610166565b8063d4e03233146104d6578063d5b91a9214610501578063dd1a8f901461053e57610166565b80637e0b2492146103c357806388b2621b146104005780639105f2451461041c5780639deae28414610447578063b85c0acb14610470578063c413e5be146104ad57610166565b806338eb07e11161012357806338eb07e1146102a15780633e15102e146102de57806342526e4e146103095780634b60ae63146103465780635b7be18a14610371578063717aa9cd1461039a57610166565b806305f88a8a1461016b5780630bd4cec3146101a85780631305ea63146101e55780631a2d86291461022257806323845e4b1461024d5780633436860214610278575b600080fd5b34801561017757600080fd5b50610192600480360381019061018d9190613b8d565b610647565b60405161019f91906152cd565b60405180910390f35b3480156101b457600080fd5b506101cf60048036038101906101ca919061373f565b610859565b6040516101dc919061547f565b60405180910390f35b3480156101f157600080fd5b5061020c600480360381019061020791906139a0565b61090d565b60405161021991906152cd565b60405180910390f35b34801561022e57600080fd5b506102376109d2565b6040516102449190615419565b60405180910390f35b34801561025957600080fd5b50610262610a84565b60405161026f919061543b565b60405180910390f35b34801561028457600080fd5b5061029f600480360381019061029a9190613bc9565b610a8e565b005b3480156102ad57600080fd5b506102c860048036038101906102c39190613c41565b610b69565b6040516102d5919061543b565b60405180910390f35b3480156102ea57600080fd5b506102f3610bc8565b604051610300919061543b565b60405180910390f35b34801561031557600080fd5b50610330600480360381019061032b91906138fa565b610bd2565b60405161033d919061524c565b60405180910390f35b34801561035257600080fd5b5061035b610be0565b604051610368919061547f565b60405180910390f35b34801561037d57600080fd5b5061039860048036038101906103939190613b64565b610c87565b005b3480156103a657600080fd5b506103c160048036038101906103bc9190613b64565b610d21565b005b3480156103cf57600080fd5b506103ea60048036038101906103e5919061373f565b610dbb565b6040516103f7919061543b565b60405180910390f35b61041a60048036038101906104159190613ae2565b610dd3565b005b34801561042857600080fd5b50610431610e6b565b60405161043e919061543b565b60405180910390f35b34801561045357600080fd5b5061046e60048036038101906104699190613826565b610e75565b005b34801561047c57600080fd5b50610497600480360381019061049291906137a4565b610f05565b6040516104a49190615267565b60405180910390f35b3480156104b957600080fd5b506104d460048036038101906104cf9190613964565b610fbe565b005b3480156104e257600080fd5b506104eb6112be565b6040516104f891906153ce565b60405180910390f35b34801561050d57600080fd5b5061052860048036038101906105239190613c41565b61136b565b604051610535919061543b565b60405180910390f35b34801561054a57600080fd5b5061056560048036038101906105609190613b64565b6113ca565b005b34801561057357600080fd5b5061058e60048036038101906105899190613b64565b611464565b60405161059b91906152e8565b60405180910390f35b3480156105b057600080fd5b506105cb60048036038101906105c69190613c05565b611518565b6040516105d891906152ab565b60405180910390f35b3480156105ed57600080fd5b506106086004803603810190610603919061393b565b6115d4565b604051610615919061524c565b60405180910390f35b34801561062a57600080fd5b5061064560048036038101906106409190613768565b6117ba565b005b6000600460009054906101000a900473ffffffffffffffffffffffffffffffffffffffff1673ffffffffffffffffffffffffffffffffffffffff16630bd4cec373ffece948b8a38bbcc813411d2597f7f8485a06896040518263ffffffff1660e01b81526004016106b8919061524c565b60206040518083038186803b1580156106d057600080fd5b505afa1580156106e4573d6000803e3d6000fd5b505050506040513d601f19601f820116820180604052508101906107089190613c7d565b63ffffffff1660001080156107e657504363ffffffff16600460009054906101000a900473ffffffffffffffffffffffffffffffffffffffff1673ffffffffffffffffffffffffffffffffffffffff16630bd4cec373ffece948b8a38bbcc813411d2597f7f8485a06896040518263ffffffff1660e01b815260040161078e919061524c565b60206040518083038186803b1580156107a657600080fd5b505afa1580156107ba573d6000803e3d6000fd5b505050506040513d601f19601f820116820180604052508101906107de9190613c7d565b63ffffffff16105b156107f45760009050610853565b73a6ef9ea235635e328124ff3429db9f9e91b64e2d73ffffffffffffffffffffffffffffffffffffffff168273ffffffffffffffffffffffffffffffffffffffff161461083d57fe5b82610846610a84565b101561084e57fe5b600190505b92915050565b6000600460009054906101000a900473ffffffffffffffffffffffffffffffffffffffff1673ffffffffffffffffffffffffffffffffffffffff16630bd4cec3836040518263ffffffff1660e01b81526004016108b6919061524c565b60206040518083038186803b1580156108ce57600080fd5b505afa1580156108e2573d6000803e3d6000fd5b505050506040513d601f19601f820116820180604052508101906109069190613c7d565b9050919050565b6000600460009054906101000a900473ffffffffffffffffffffffffffffffffffffffff1673ffffffffffffffffffffffffffffffffffffffff16631305ea638888888888886040518763ffffffff1660e01b815260040161097496959493929190615343565b602060405180830381600087803b15801561098e57600080fd5b505af11580156109a2573d6000803e3d6000fd5b505050506040513d601f19601f820116820180604052508101906109c691906138a8565b90509695505050505050565b6109da6118d3565b600660009054906101000a900473ffffffffffffffffffffffffffffffffffffffff1673ffffffffffffffffffffffffffffffffffffffff16631a2d86296040518163ffffffff1660e01b815260040160006040518083038186803b158015610a4257600080fd5b505afa158015610a56573d6000803e3d6000fd5b505050506040513d6000823e3d601f19601f82011682018060405250810190610a7f9190613b23565b905090565b6000600a54905090565b600560009054906101000a900473ffffffffffffffffffffffffffffffffffffffff1673ffffffffffffffffffffffffffffffffffffffff163373ffffffffffffffffffffffffffffffffffffffff1614610b1e576040517f08c379a0000000000000000000000000000000000000000000000000000000008152600401610b1590615323565b60405180910390fd5b8073ffffffffffffffffffffffffffffffffffffffff166108fc839081150290604051600060405180830381858888f19350505050158015610b64573d6000803e3d6000fd5b505050565b600080600a9050600084905060088460ff161115610b9e576008840391508160ff16600a0a8581610b9657fe5b049050610bbd565b60088460ff161015610bbc578360080391508160ff16600a0a850290505b5b809250505092915050565b6000600954905090565b600060148201519050919050565b6000600460009054906101000a900473ffffffffffffffffffffffffffffffffffffffff1673ffffffffffffffffffffffffffffffffffffffff16634b60ae636040518163ffffffff1660e01b815260040160206040518083038186803b158015610c4a57600080fd5b505afa158015610c5e573d6000803e3d6000fd5b505050506040513d601f19601f82011682018060405250810190610c829190613c7d565b905090565b600560009054906101000a900473ffffffffffffffffffffffffffffffffffffffff1673ffffffffffffffffffffffffffffffffffffffff163373ffffffffffffffffffffffffffffffffffffffff1614610d17576040517f08c379a0000000000000000000000000000000000000000000000000000000008152600401610d0e90615303565b60405180910390fd5b8060098190555050565b600560009054906101000a900473ffffffffffffffffffffffffffffffffffffffff1673ffffffffffffffffffffffffffffffffffffffff163373ffffffffffffffffffffffffffffffffffffffff1614610db1576040517f08c379a0000000000000000000000000000000000000000000000000000000008152600401610da890615303565b60405180910390fd5b8060088190555050565b600b6020528060005260406000206000915090505481565b6000349050600560009054906101000a900473ffffffffffffffffffffffffffffffffffffffff1673ffffffffffffffffffffffffffffffffffffffff16631549a18983836040518363ffffffff1660e01b8152600401610e359291906153e9565b600060405180830381600087803b158015610e4f57600080fd5b505af1158015610e63573d6000803e3d6000fd5b505050505050565b6000600854905090565b600560009054906101000a900473ffffffffffffffffffffffffffffffffffffffff1673ffffffffffffffffffffffffffffffffffffffff16639deae284826040518263ffffffff1660e01b8152600401610ed09190615289565b600060405180830381600087803b158015610eea57600080fd5b505af1158015610efe573d6000803e3d6000fd5b5050505050565b6060600560009054906101000a900473ffffffffffffffffffffffffffffffffffffffff1673ffffffffffffffffffffffffffffffffffffffff1663b85c0acb836040518263ffffffff1660e01b8152600401610f629190615267565b60006040518083038186803b158015610f7a57600080fd5b505afa158015610f8e573d6000803e3d6000fd5b505050506040513d6000823e3d601f19601f82011682018060405250810190610fb791906137e5565b9050919050565b600760009054906101000a900473ffffffffffffffffffffffffffffffffffffffff1673ffffffffffffffffffffffffffffffffffffffff163373ffffffffffffffffffffffffffffffffffffffff161461101557fe5b6000600681111561102257fe5b82600681111561102e57fe5b141561107557806000806101000a81548173ffffffffffffffffffffffffffffffffffffffff021916908373ffffffffffffffffffffffffffffffffffffffff1602179055505b6001600681111561108257fe5b82600681111561108e57fe5b14156110d65780600160006101000a81548173ffffffffffffffffffffffffffffffffffffffff021916908373ffffffffffffffffffffffffffffffffffffffff1602179055505b600260068111156110e357fe5b8260068111156110ef57fe5b14156111375780600260006101000a81548173ffffffffffffffffffffffffffffffffffffffff021916908373ffffffffffffffffffffffffffffffffffffffff1602179055505b6003600681111561114457fe5b82600681111561115057fe5b14156111985780600360006101000a81548173ffffffffffffffffffffffffffffffffffffffff021916908373ffffffffffffffffffffffffffffffffffffffff1602179055505b600460068111156111a557fe5b8260068111156111b157fe5b14156111f95780600460006101000a81548173ffffffffffffffffffffffffffffffffffffffff021916908373ffffffffffffffffffffffffffffffffffffffff1602179055505b6005600681111561120657fe5b82600681111561121257fe5b141561125a5780600560006101000a81548173ffffffffffffffffffffffffffffffffffffffff021916908373ffffffffffffffffffffffffffffffffffffffff1602179055505b60068081111561126657fe5b82600681111561127257fe5b14156112ba5780600660006101000a81548173ffffffffffffffffffffffffffffffffffffffff021916908373ffffffffffffffffffffffffffffffffffffffff1602179055505b5050565b6112c661190b565b600460009054906101000a900473ffffffffffffffffffffffffffffffffffffffff1673ffffffffffffffffffffffffffffffffffffffff1663d4e032336040518163ffffffff1660e01b815260040160e06040518083038186803b15801561132e57600080fd5b505afa158015611342573d6000803e3d6000fd5b505050506040513d601f19601f820116820180604052508101906113669190613ab9565b905090565b600080600a9050600084905060088460ff161115611399576008840391508160ff16600a0a850290506113bf565b60088460ff1610156113be578360080391508160ff16600a0a85816113ba57fe5b0490505b5b809250505092915050565b600560009054906101000a900473ffffffffffffffffffffffffffffffffffffffff1673ffffffffffffffffffffffffffffffffffffffff163373ffffffffffffffffffffffffffffffffffffffff161461145a576040517f08c379a000000000000000000000000000000000000000000000000000000000815260040161145190615303565b60405180910390fd5b8060098190555050565b6000600560009054906101000a900473ffffffffffffffffffffffffffffffffffffffff1673ffffffffffffffffffffffffffffffffffffffff1663e45b909d836040518263ffffffff1660e01b81526004016114c1919061543b565b60206040518083038186803b1580156114d957600080fd5b505afa1580156114ed573d6000803e3d6000fd5b505050506040513d601f19601f8201168201806040525081019061151191906138d1565b9050919050565b6060600560009054906101000a900473ffffffffffffffffffffffffffffffffffffffff1673ffffffffffffffffffffffffffffffffffffffff1663e4804abc84846040518363ffffffff1660e01b8152600401611577929190615456565b60006040518083038186803b15801561158f57600080fd5b505afa1580156115a3573d6000803e3d6000fd5b505050506040513d6000823e3d601f19601f820116820180604052508101906115cc9190613867565b905092915050565b60008060068111156115e257fe5b8260068111156115ee57fe5b14156116185760008054906101000a900473ffffffffffffffffffffffffffffffffffffffff1690505b6001600681111561162557fe5b82600681111561163157fe5b141561165d57600160009054906101000a900473ffffffffffffffffffffffffffffffffffffffff1690505b6002600681111561166a57fe5b82600681111561167657fe5b14156116a257600260009054906101000a900473ffffffffffffffffffffffffffffffffffffffff1690505b600360068111156116af57fe5b8260068111156116bb57fe5b14156116e757600360009054906101000a900473ffffffffffffffffffffffffffffffffffffffff1690505b600460068111156116f457fe5b82600681111561170057fe5b141561172c57600460009054906101000a900473ffffffffffffffffffffffffffffffffffffffff1690505b6005600681111561173957fe5b82600681111561174557fe5b141561177157600560009054906101000a900473ffffffffffffffffffffffffffffffffffffffff1690505b60068081111561177d57fe5b82600681111561178957fe5b14156117b557600660009054906101000a900473ffffffffffffffffffffffffffffffffffffffff1690505b919050565b600560009054906101000a900473ffffffffffffffffffffffffffffffffffffffff1673ffffffffffffffffffffffffffffffffffffffff163373ffffffffffffffffffffffffffffffffffffffff161461184a576040517f08c379a000000000000000000000000000000000000000000000000000000000815260040161184190615303565b60405180910390fd5b80600b60008473ffffffffffffffffffffffffffffffffffffffff1673ffffffffffffffffffffffffffffffffffffffff1681526020019081526020016000205401600b60008473ffffffffffffffffffffffffffffffffffffffff1673ffffffffffffffffffffffffffffffffffffffff168152602001908152602001600020819055505050565b6040518060c0016040528060008152602001606081526020016000815260200160008152602001606081526020016000151581525090565b6040518060e00160405280600060010b8152602001600060010b8152602001600073ffffffffffffffffffffffffffffffffffffffff168152602001600063ffffffff1681526020016000801916815260200160008019168152602001600080191681525090565b6000611986611981846154cb565b61549a565b905080838252602082019050828560208602820111156119a557600080fd5b60005b858110156119d557816119bb888261218b565b8452602084019350602083019250506001810190506119a8565b5050509392505050565b60006119f26119ed846154f7565b61549a565b90508083825260208201905082856020860282011115611a1157600080fd5b60005b85811015611a415781611a2788826124d3565b845260208401935060208301925050600181019050611a14565b5050509392505050565b6000611a5e611a59846154f7565b61549a565b90508083825260208201905082856020860282011115611a7d57600080fd5b60005b85811015611aad5781611a9388826124e8565b845260208401935060208301925050600181019050611a80565b5050509392505050565b6000611aca611ac584615523565b61549a565b90508083825260208201905082856020860282011115611ae957600080fd5b60005b85811015611b195781611aff8882612590565b845260208401935060208301925050600181019050611aec565b5050509392505050565b6000611b36611b318461554f565b61549a565b90508083825260208201905082856020860282011115611b5557600080fd5b60005b85811015611b855781611b6b88826125a5565b845260208401935060208301925050600181019050611b58565b5050509392505050565b6000611ba2611b9d8461557b565b61549a565b9050808382526020820190508260005b85811015611be25781358501611bc888826128fa565b845260208401935060208301925050600181019050611bb2565b5050509392505050565b6000611bff611bfa846155a7565b61549a565b90508083825260208201905082856040860282011115611c1e57600080fd5b60005b85811015611c4e5781611c348882612b48565b845260208401935060408301925050600181019050611c21565b5050509392505050565b6000611c6b611c66846155d3565b61549a565b9050808382526020820190508260005b85811015611cab5781358501611c918882612c6c565b845260208401935060208301925050600181019050611c7b565b5050509392505050565b6000611cc8611cc3846155ff565b61549a565b905080838252602082019050828560e0860282011115611ce757600080fd5b60005b85811015611d175781611cfd8882612e67565b845260208401935060e08301925050600181019050611cea565b5050509392505050565b6000611d34611d2f8461562b565b61549a565b9050808382526020820190508260005b85811015611d745781358501611d5a888261306b565b845260208401935060208301925050600181019050611d44565b5050509392505050565b6000611d91611d8c84615657565b61549a565b9050808382526020820190508260005b85811015611dd15781518501611db7888261314f565b845260208401935060208301925050600181019050611da1565b5050509392505050565b6000611dee611de984615683565b61549a565b9050808382526020820190508260005b85811015611e2e5781358501611e1488826131db565b845260208401935060208301925050600181019050611dfe565b5050509392505050565b6000611e4b611e4684615683565b61549a565b9050808382526020820190508260005b85811015611e8b5781518501611e7188826132d0565b845260208401935060208301925050600181019050611e5b565b5050509392505050565b6000611ea8611ea3846156af565b61549a565b9050808382526020820190508260005b85811015611ee85781358501611ece88826133c5565b845260208401935060208301925050600181019050611eb8565b5050509392505050565b6000611f05611f00846156db565b61549a565b9050808382526020820190508260005b85811015611f455781358501611f2b888261353d565b845260208401935060208301925050600181019050611f15565b5050509392505050565b6000611f62611f5d84615707565b61549a565b90508083825260208201905082856020860282011115611f8157600080fd5b60005b85811015611fb15781611f978882613682565b845260208401935060208301925050600181019050611f84565b5050509392505050565b6000611fce611fc984615733565b61549a565b90508083825260208201905082856020860282011115611fed57600080fd5b60005b8581101561201d578161200388826136c1565b845260208401935060208301925050600181019050611ff0565b5050509392505050565b600061203a6120358461575f565b61549a565b9050808382526020820190508285602086028201111561205957600080fd5b60005b85811015612089578161206f8882613715565b84526020840193506020830192505060018101905061205c565b5050509392505050565b60006120a66120a18461578b565b61549a565b9050828152602081018484840111156120be57600080fd5b6120c9848285615c9f565b509392505050565b60006120e46120df8461578b565b61549a565b9050828152602081018484840111156120fc57600080fd5b612107848285615cae565b509392505050565b600061212261211d846157bb565b61549a565b90508281526020810184848401111561213a57600080fd5b612145848285615c9f565b509392505050565b600061216061215b846157bb565b61549a565b90508281526020810184848401111561217857600080fd5b612183848285615cae565b509392505050565b60008135905061219a81615cf4565b92915050565b6000815190506121af81615cf4565b92915050565b6000813590506121c481615d0b565b92915050565b600082601f8301126121db57600080fd5b81356121eb848260208601611973565b91505092915050565b600082601f83011261220557600080fd5b81356122158482602086016119df565b91505092915050565b600082601f83011261222f57600080fd5b815161223f848260208601611a4b565b91505092915050565b600082601f83011261225957600080fd5b8135612269848260208601611ab7565b91505092915050565b600082601f83011261228357600080fd5b8135612293848260208601611b23565b91505092915050565b600082601f8301126122ad57600080fd5b81356122bd848260208601611b8f565b91505092915050565b600082601f8301126122d757600080fd5b81356122e7848260208601611bec565b91505092915050565b600082601f83011261230157600080fd5b8135612311848260208601611c58565b91505092915050565b600082601f83011261232b57600080fd5b813561233b848260208601611cb5565b91505092915050565b600082601f83011261235557600080fd5b8135612365848260208601611d21565b91505092915050565b600082601f83011261237f57600080fd5b815161238f848260208601611d7e565b91505092915050565b600082601f8301126123a957600080fd5b81356123b9848260208601611ddb565b91505092915050565b600082601f8301126123d357600080fd5b81516123e3848260208601611e38565b91505092915050565b600082601f8301126123fd57600080fd5b813561240d848260208601611e95565b91505092915050565b600082601f83011261242757600080fd5b8135612437848260208601611ef2565b91505092915050565b600082601f83011261245157600080fd5b8135612461848260208601611f4f565b91505092915050565b600082601f83011261247b57600080fd5b813561248b848260208601611fbb565b91505092915050565b600082601f8301126124a557600080fd5b81356124b5848260208601612027565b91505092915050565b6000815190506124cd81615d22565b92915050565b6000813590506124e281615d39565b92915050565b6000815190506124f781615d39565b92915050565b600082601f83011261250e57600080fd5b813561251e848260208601612093565b91505092915050565b600082601f83011261253857600080fd5b81516125488482602086016120d1565b91505092915050565b60008135905061256081615d50565b92915050565b60008135905061257581615d60565b92915050565b60008151905061258a81615d60565b92915050565b60008135905061259f81615d77565b92915050565b6000813590506125b481615d8e565b92915050565b600082601f8301126125cb57600080fd5b81356125db84826020860161210f565b91505092915050565b600082601f8301126125f557600080fd5b815161260584826020860161214d565b91505092915050565b60006102a0828403121561262157600080fd5b61262c6102a061549a565b9050600061263c8482850161366d565b60008301525060206126508482850161366d565b60208301525060406126648482850161218b565b604083015250606082013567ffffffffffffffff81111561268457600080fd5b61269084828501612440565b606083015250608082013567ffffffffffffffff8111156126b057600080fd5b6126bc84828501612248565b60808301525060a082013567ffffffffffffffff8111156126dc57600080fd5b6126e884828501612272565b60a08301525060c06126fc848285016125a5565b60c08301525060e0612710848285016125a5565b60e083015250610100612725848285016125a5565b6101008301525061012061273b848285016125a5565b61012083015250610140612751848285016125a5565b61014083015250610160612767848285016125a5565b6101608301525061018061277d848285016125a5565b610180830152506101a082013567ffffffffffffffff81111561279f57600080fd5b6127ab84828501612272565b6101a0830152506101c082013567ffffffffffffffff8111156127cd57600080fd5b6127d984828501612272565b6101c0830152506101e082013567ffffffffffffffff8111156127fb57600080fd5b61280784828501612272565b6101e08301525061020082013567ffffffffffffffff81111561282957600080fd5b61283584828501612272565b6102008301525061022082013567ffffffffffffffff81111561285757600080fd5b61286384828501612272565b6102208301525061024082013567ffffffffffffffff81111561288557600080fd5b61289184828501612272565b6102408301525061026082013567ffffffffffffffff8111156128b357600080fd5b6128bf84828501612248565b6102608301525061028082013567ffffffffffffffff8111156128e157600080fd5b6128ed84828501612272565b6102808301525092915050565b60006080828403121561290c57600080fd5b612916608061549a565b9050600061292684828501613715565b600083015250602061293a84828501613715565b602083015250604082013567ffffffffffffffff81111561295a57600080fd5b612966848285016124fd565b604083015250606082013567ffffffffffffffff81111561298657600080fd5b612992848285016123ec565b60608301525092915050565b60006101c082840312156129b157600080fd5b6129bc6101c061549a565b905060006129cc8482850161366d565b60008301525060206129e08482850161366d565b60208301525060406129f48482850161218b565b6040830152506060612a08848285016124d3565b6060830152506080612a1c848285016136c1565b60808301525060a0612a30848285016136c1565b60a08301525060c0612a448482850161218b565b60c08301525060e0612a588482850161218b565b60e083015250610100612a6d848285016136c1565b6101008301525061012082013567ffffffffffffffff811115612a8f57600080fd5b612a9b848285016122c6565b6101208301525061014082013567ffffffffffffffff811115612abd57600080fd5b612ac9848285016122c6565b6101408301525061016082013567ffffffffffffffff811115612aeb57600080fd5b612af7848285016122c6565b6101608301525061018082013567ffffffffffffffff811115612b1957600080fd5b612b2584828501613429565b610180830152506101a0612b3b84828501612590565b6101a08301525092915050565b600060408284031215612b5a57600080fd5b612b64604061549a565b90506000612b748482850161218b565b6000830152506020612b88848285016136eb565b60208301525092915050565b600060408284031215612ba657600080fd5b612bb0604061549a565b90506000612bc0848285016121a0565b6000830152506020612bd484828501613700565b60208301525092915050565b600060808284031215612bf257600080fd5b612bfc608061549a565b90506000612c0c84828501613715565b6000830152506020612c20848285016136c1565b6020830152506040612c34848285016136c1565b604083015250606082013567ffffffffffffffff811115612c5457600080fd5b612c60848285016121f4565b60608301525092915050565b600060408284031215612c7e57600080fd5b612c88604061549a565b9050600082013567ffffffffffffffff811115612ca457600080fd5b612cb0848285016125ba565b6000830152506020612cc48482850161218b565b60208301525092915050565b60006101a08284031215612ce357600080fd5b612cee61018061549a565b90506000612cfe848285016136c1565b6000830152506020612d12848285016136c1565b602083015250604082013567ffffffffffffffff811115612d3257600080fd5b612d3e84828501613429565b6040830152506060612d528482850161218b565b606083015250608082013567ffffffffffffffff811115612d7257600080fd5b612d7e8482850161260e565b60808301525060a0612d92848285016136c1565b60a08301525060c0612da6848285016134f1565b60c083015250610100612dbb848285016124d3565b60e083015250610120612dd0848285016136c1565b6101008301525061014082013567ffffffffffffffff811115612df257600080fd5b612dfe84828501612416565b6101208301525061016082013567ffffffffffffffff811115612e2057600080fd5b612e2c8482850161231a565b6101408301525061018082013567ffffffffffffffff811115612e4e57600080fd5b612e5a848285016122f0565b6101608301525092915050565b600060e08284031215612e7957600080fd5b612e8360e061549a565b90506000612e9384828501612566565b6000830152506020612ea784828501612566565b6020830152506040612ebb8482850161218b565b6040830152506060612ecf848285016136c1565b6060830152506080612ee3848285016124d3565b60808301525060a0612ef7848285016124d3565b60a08301525060c0612f0b848285016124d3565b60c08301525092915050565b600060e08284031215612f2957600080fd5b612f3360e061549a565b90506000612f438482850161257b565b6000830152506020612f578482850161257b565b6020830152506040612f6b848285016121a0565b6040830152506060612f7f848285016136d6565b6060830152506080612f93848285016124e8565b60808301525060a0612fa7848285016124e8565b60a08301525060c0612fbb848285016124e8565b60c08301525092915050565b600060808284031215612fd957600080fd5b612fe3608061549a565b90506000612ff384828501613715565b600083015250602061300784828501613715565b602083015250604082013567ffffffffffffffff81111561302757600080fd5b613033848285016123ec565b604083015250606082013567ffffffffffffffff81111561305357600080fd5b61305f8482850161229c565b60608301525092915050565b600060c0828403121561307d57600080fd5b61308760c061549a565b9050600061309784828501613697565b60008301525060206130ab848285016124d3565b60208301525060406130bf84828501613697565b604083015250606082013567ffffffffffffffff8111156130df57600080fd5b6130eb8482850161299e565b606083015250608082013567ffffffffffffffff81111561310b57600080fd5b61311784828501612fc7565b60808301525060a082013567ffffffffffffffff81111561313757600080fd5b61314384828501612398565b60a08301525092915050565b60006080828403121561316157600080fd5b61316b608061549a565b9050600061317b848285016136ac565b600083015250602061318f848285016136ac565b60208301525060406131a3848285016124e8565b604083015250606082015167ffffffffffffffff8111156131c357600080fd5b6131cf848285016123c2565b60608301525092915050565b600061014082840312156131ee57600080fd5b6131f961012061549a565b90506000613209848285016136c1565b600083015250602061321d84828501612b48565b6020830152506060613231848285016136c1565b60408301525060806132458482850161218b565b60608301525060a061325984828501613697565b60808301525060c082013567ffffffffffffffff81111561327957600080fd5b61328584828501613429565b60a08301525060e06132998482850161218b565b60c0830152506101006132ae8482850161218b565b60e0830152506101206132c38482850161218b565b6101008301525092915050565b600061014082840312156132e357600080fd5b6132ee61012061549a565b905060006132fe848285016136d6565b600083015250602061331284828501612b94565b6020830152506060613326848285016136d6565b604083015250608061333a848285016121a0565b60608301525060a061334e848285016136ac565b60808301525060c082015167ffffffffffffffff81111561336e57600080fd5b61337a8482850161348d565b60a08301525060e061338e848285016121a0565b60c0830152506101006133a3848285016121a0565b60e0830152506101206133b8848285016121a0565b6101008301525092915050565b6000604082840312156133d757600080fd5b6133e1604061549a565b905060006133f184828501613715565b600083015250602082013567ffffffffffffffff81111561341157600080fd5b61341d84828501612be0565b60208301525092915050565b60006040828403121561343b57600080fd5b613445604061549a565b9050600061345584828501613715565b600083015250602082013567ffffffffffffffff81111561347557600080fd5b613481848285016124fd565b60208301525092915050565b60006040828403121561349f57600080fd5b6134a9604061549a565b905060006134b98482850161372a565b600083015250602082015167ffffffffffffffff8111156134d957600080fd5b6134e584828501612527565b60208301525092915050565b60006040828403121561350357600080fd5b61350d604061549a565b9050600061351d848285016124d3565b6000830152506020613531848285016136c1565b60208301525092915050565b60006040828403121561354f57600080fd5b613559604061549a565b905060006135698482850161218b565b600083015250602082013567ffffffffffffffff81111561358957600080fd5b6135958482850161260e565b60208301525092915050565b600060c082840312156135b357600080fd5b6135bd60c061549a565b905060006135cd848285016136ac565b600083015250602082015167ffffffffffffffff8111156135ed57600080fd5b6135f9848285016125e4565b602083015250604061360d848285016136ac565b6040830152506060613621848285016136ac565b606083015250608082015167ffffffffffffffff81111561364157600080fd5b61364d848285016125e4565b60808301525060a0613661848285016124be565b60a08301525092915050565b60008135905061367c81615da5565b92915050565b60008135905061369181615dbc565b92915050565b6000813590506136a681615dd3565b92915050565b6000815190506136bb81615dd3565b92915050565b6000813590506136d081615dea565b92915050565b6000815190506136e581615dea565b92915050565b6000813590506136fa81615e01565b92915050565b60008151905061370f81615e01565b92915050565b60008135905061372481615e18565b92915050565b60008151905061373981615e18565b92915050565b60006020828403121561375157600080fd5b600061375f8482850161218b565b91505092915050565b6000806040838503121561377b57600080fd5b60006137898582860161218b565b925050602061379a85828601613697565b9150509250929050565b6000602082840312156137b657600080fd5b600082013567ffffffffffffffff8111156137d057600080fd5b6137dc848285016121f4565b91505092915050565b6000602082840312156137f757600080fd5b600082015167ffffffffffffffff81111561381157600080fd5b61381d8482850161221e565b91505092915050565b60006020828403121561383857600080fd5b600082013567ffffffffffffffff81111561385257600080fd5b61385e84828501612344565b91505092915050565b60006020828403121561387957600080fd5b600082015167ffffffffffffffff81111561389357600080fd5b61389f8482850161236e565b91505092915050565b6000602082840312156138ba57600080fd5b60006138c8848285016124be565b91505092915050565b6000602082840312156138e357600080fd5b60006138f1848285016124e8565b91505092915050565b60006020828403121561390c57600080fd5b600082013567ffffffffffffffff81111561392657600080fd5b613932848285016124fd565b91505092915050565b60006020828403121561394d57600080fd5b600061395b84828501612551565b91505092915050565b6000806040838503121561397757600080fd5b600061398585828601612551565b92505060206139968582860161218b565b9150509250929050565b60008060008060008060c087890312156139b957600080fd5b600087013567ffffffffffffffff8111156139d357600080fd5b6139df89828a01612cd0565b965050602087013567ffffffffffffffff8111156139fc57600080fd5b613a0889828a01612494565b955050604087013567ffffffffffffffff811115613a2557600080fd5b613a3189828a016121f4565b945050606087013567ffffffffffffffff811115613a4e57600080fd5b613a5a89828a016121f4565b935050608087013567ffffffffffffffff811115613a7757600080fd5b613a8389828a0161246a565b92505060a087013567ffffffffffffffff811115613aa057600080fd5b613aac89828a016121ca565b9150509295509295509295565b600060e08284031215613acb57600080fd5b6000613ad984828501612f17565b91505092915050565b600060208284031215613af457600080fd5b600082013567ffffffffffffffff811115613b0e57600080fd5b613b1a848285016131db565b91505092915050565b600060208284031215613b3557600080fd5b600082015167ffffffffffffffff811115613b4f57600080fd5b613b5b848285016135a1565b91505092915050565b600060208284031215613b7657600080fd5b6000613b8484828501613697565b91505092915050565b60008060408385031215613ba057600080fd5b6000613bae85828601613697565b9250506020613bbf8582860161218b565b9150509250929050565b60008060408385031215613bdc57600080fd5b6000613bea85828601613697565b9250506020613bfb858286016121b5565b9150509250929050565b60008060408385031215613c1857600080fd5b6000613c2685828601613697565b9250506020613c3785828601613697565b9150509250929050565b60008060408385031215613c5457600080fd5b6000613c6285828601613697565b9250506020613c7385828601613715565b9150509250929050565b600060208284031215613c8f57600080fd5b6000613c9d848285016136d6565b91505092915050565b6000613cb28383613e0a565b60208301905092915050565b6000613cca8383614525565b60208301905092915050565b6000613ce2838361458b565b60208301905092915050565b6000613cfa838361459a565b60208301905092915050565b6000613d1283836148b5565b905092915050565b6000613d268383614a62565b60408301905092915050565b6000613d3e8383614af4565b905092915050565b6000613d528383614c52565b60e08301905092915050565b6000613d6a8383614dd8565b905092915050565b6000613d7e8383614e6f565b905092915050565b6000613d928383614ed2565b905092915050565b6000613da6838361505e565b905092915050565b6000613dba8383615107565b905092915050565b6000613dce83836151d4565b60208301905092915050565b6000613de68383615210565b60208301905092915050565b6000613dfe838361523d565b60208301905092915050565b613e1381615bd5565b82525050565b613e2281615bd5565b82525050565b6000613e33826158eb565b613e3d8185615a81565b9350613e48836157eb565b8060005b83811015613e79578151613e608882613ca6565b9750613e6b836159b1565b925050600181019050613e4c565b5085935050505092915050565b6000613e91826158f6565b613e9b8185615a92565b9350613ea6836157fb565b8060005b83811015613ed7578151613ebe8882613cbe565b9750613ec9836159be565b925050600181019050613eaa565b5085935050505092915050565b6000613eef826158f6565b613ef98185615aa3565b9350613f04836157fb565b8060005b83811015613f35578151613f1c8882613cbe565b9750613f27836159be565b925050600181019050613f08565b5085935050505092915050565b6000613f4d82615901565b613f578185615ab4565b9350613f628361580b565b8060005b83811015613f93578151613f7a8882613cd6565b9750613f85836159cb565b925050600181019050613f66565b5085935050505092915050565b6000613fab8261590c565b613fb58185615ac5565b9350613fc08361581b565b8060005b83811015613ff1578151613fd88882613cee565b9750613fe3836159d8565b925050600181019050613fc4565b5085935050505092915050565b600061400982615917565b6140138185615ad6565b9350836020820285016140258561582b565b8060005b8581101561406157848403895281516140428582613d06565b945061404d836159e5565b925060208a01995050600181019050614029565b50829750879550505050505092915050565b600061407e82615922565b6140888185615ae7565b93506140938361583b565b8060005b838110156140c45781516140ab8882613d1a565b97506140b6836159f2565b925050600181019050614097565b5085935050505092915050565b60006140dc8261592d565b6140e68185615af8565b9350836020820285016140f88561584b565b8060005b8581101561413457848403895281516141158582613d32565b9450614120836159ff565b925060208a019950506001810190506140fc565b50829750879550505050505092915050565b600061415182615938565b61415b8185615b09565b93506141668361585b565b8060005b8381101561419757815161417e8882613d46565b975061418983615a0c565b92505060018101905061416a565b5085935050505092915050565b60006141af82615943565b6141b98185615b1a565b9350836020820285016141cb8561586b565b8060005b8581101561420757848403895281516141e88582613d5e565b94506141f383615a19565b925060208a019950506001810190506141cf565b50829750879550505050505092915050565b60006142248261594e565b61422e8185615b2b565b9350836020820285016142408561587b565b8060005b8581101561427c578484038952815161425d8582613d72565b945061426883615a26565b925060208a01995050600181019050614244565b50829750879550505050505092915050565b600061429982615959565b6142a38185615b3c565b9350836020820285016142b58561588b565b8060005b858110156142f157848403895281516142d28582613d86565b94506142dd83615a33565b925060208a019950506001810190506142b9565b50829750879550505050505092915050565b600061430e82615964565b6143188185615b4d565b93508360208202850161432a8561589b565b8060005b8581101561436657848403895281516143478582613d9a565b945061435283615a40565b925060208a0199505060018101905061432e565b50829750879550505050505092915050565b60006143838261596f565b61438d8185615b5e565b93508360208202850161439f856158ab565b8060005b858110156143db57848403895281516143bc8582613dae565b94506143c783615a4d565b925060208a019950506001810190506143a3565b50829750879550505050505092915050565b60006143f88261597a565b6144028185615b6f565b935061440d836158bb565b8060005b8381101561443e5781516144258882613dc2565b975061443083615a5a565b925050600181019050614411565b5085935050505092915050565b600061445682615985565b6144608185615b80565b935061446b836158cb565b8060005b8381101561449c5781516144838882613dda565b975061448e83615a67565b92505060018101905061446f565b5085935050505092915050565b60006144b482615990565b6144be8185615b91565b93506144c9836158db565b8060005b838110156144fa5781516144e18882613df2565b97506144ec83615a74565b9250506001810190506144cd565b5085935050505092915050565b61451081615bf9565b82525050565b61451f81615bf9565b82525050565b61452e81615c05565b82525050565b61453d81615c05565b82525050565b600061454e8261599b565b6145588185615ba2565b9350614568818560208601615cae565b61457181615ce3565b840191505092915050565b61458581615c0f565b82525050565b61459481615c1c565b82525050565b6145a381615c29565b82525050565b60006145b4826159a6565b6145be8185615bb3565b93506145ce818560208601615cae565b6145d781615ce3565b840191505092915050565b60006145ef603083615bc4565b91507f546869732066756e6374696f6e2063616e206f6e6c792062652063616c6c656460008301527f20627920566572757320427269646765000000000000000000000000000000006020830152604082019050919050565b6000614655602283615bc4565b91507f536f72727920796f752063616e27742063616c6c20746869732066756e63746960008301527f6f6e0000000000000000000000000000000000000000000000000000000000006020830152604082019050919050565b60006102a0830160008301516146c760008601826151e3565b5060208301516146da60208601826151e3565b5060408301516146ed6040860182613e0a565b506060830151848203606086015261470582826143ed565b9150506080830151848203608086015261471f8282613f42565b91505060a083015184820360a08601526147398282613fa0565b91505060c083015161474e60c086018261459a565b5060e083015161476160e086018261459a565b5061010083015161477661010086018261459a565b5061012083015161478b61012086018261459a565b506101408301516147a061014086018261459a565b506101608301516147b561016086018261459a565b506101808301516147ca61018086018261459a565b506101a08301518482036101a08601526147e48282613fa0565b9150506101c08301518482036101c08601526148008282613fa0565b9150506101e08301518482036101e086015261481c8282613fa0565b9150506102008301518482036102008601526148388282613fa0565b9150506102208301518482036102208601526148548282613fa0565b9150506102408301518482036102408601526148708282613fa0565b91505061026083015184820361026086015261488c8282613f42565b9150506102808301518482036102808601526148a88282613fa0565b9150508091505092915050565b60006080830160008301516148cd600086018261523d565b5060208301516148e0602086018261523d565b50604083015184820360408601526148f88282614543565b915050606083015184820360608601526149128282614303565b9150508091505092915050565b60006101c08301600083015161493860008601826151e3565b50602083015161494b60208601826151e3565b50604083015161495e6040860182613e0a565b5060608301516149716060860182614525565b5060808301516149846080860182615210565b5060a083015161499760a0860182615210565b5060c08301516149aa60c0860182613e0a565b5060e08301516149bd60e0860182613e0a565b506101008301516149d2610100860182615210565b506101208301518482036101208601526149ec8282614073565b915050610140830151848203610140860152614a088282614073565b915050610160830151848203610160860152614a248282614073565b915050610180830151848203610180860152614a40828261509b565b9150506101a0830151614a576101a086018261458b565b508091505092915050565b604082016000820151614a786000850182613e0a565b506020820151614a8b602085018261522e565b50505050565b6000608083016000830151614aa9600086018261523d565b506020830151614abc6020860182615210565b506040830151614acf6040860182615210565b5060608301518482036060860152614ae78282613e86565b9150508091505092915050565b60006040830160008301518482036000860152614b1182826145a9565b9150506020830151614b266020860182613e0a565b508091505092915050565b60006101a083016000830151614b4a6000860182615210565b506020830151614b5d6020860182615210565b5060408301518482036040860152614b75828261509b565b9150506060830151614b8a6060860182613e0a565b5060808301518482036080860152614ba282826146ae565b91505060a0830151614bb760a0860182615210565b5060c0830151614bca60c08601826150d8565b5060e0830151614bde610100860182614525565b50610100830151614bf3610120860182615210565b50610120830151848203610140860152614c0d8282614378565b915050610140830151848203610160860152614c298282614146565b915050610160830151848203610180860152614c4582826140d1565b9150508091505092915050565b60e082016000820151614c68600085018261457c565b506020820151614c7b602085018261457c565b506040820151614c8e6040850182613e0a565b506060820151614ca16060850182615210565b506080820151614cb46080850182614525565b5060a0820151614cc760a0850182614525565b5060c0820151614cda60c0850182614525565b50505050565b60e082016000820151614cf6600085018261457c565b506020820151614d09602085018261457c565b506040820151614d1c6040850182613e0a565b506060820151614d2f6060850182615210565b506080820151614d426080850182614525565b5060a0820151614d5560a0850182614525565b5060c0820151614d6860c0850182614525565b50505050565b6000608083016000830151614d86600086018261523d565b506020830151614d99602086018261523d565b5060408301518482036040860152614db18282614303565b91505060608301518482036060860152614dcb8282613ffe565b9150508091505092915050565b600060c083016000830151614df060008601826151f2565b506020830151614e036020860182614525565b506040830151614e1660408601826151f2565b5060608301518482036060860152614e2e828261491f565b91505060808301518482036080860152614e488282614d6e565b91505060a083015184820360a0860152614e62828261428e565b9150508091505092915050565b6000608083016000830151614e8760008601826151f2565b506020830151614e9a60208601826151f2565b506040830151614ead6040860182614525565b5060608301518482036060860152614ec5828261428e565b9150508091505092915050565b600061014083016000830151614eeb6000860182615210565b506020830151614efe6020860182614a62565b506040830151614f116060860182615210565b506060830151614f246080860182613e0a565b506080830151614f3760a08601826151f2565b5060a083015184820360c0860152614f4f828261509b565b91505060c0830151614f6460e0860182613e0a565b5060e0830151614f78610100860182613e0a565b50610100830151614f8d610120860182613e0a565b508091505092915050565b600061014083016000830151614fb16000860182615210565b506020830151614fc46020860182614a62565b506040830151614fd76060860182615210565b506060830151614fea6080860182613e0a565b506080830151614ffd60a08601826151f2565b5060a083015184820360c0860152615015828261509b565b91505060c083015161502a60e0860182613e0a565b5060e083015161503e610100860182613e0a565b50610100830151615053610120860182613e0a565b508091505092915050565b6000604083016000830151615076600086018261523d565b506020830151848203602086015261508e8282614a91565b9150508091505092915050565b60006040830160008301516150b3600086018261523d565b50602083015184820360208601526150cb8282614543565b9150508091505092915050565b6040820160008201516150ee6000850182614525565b5060208201516151016020850182615210565b50505050565b600060408301600083015161511f6000860182613e0a565b506020830151848203602086015261513782826146ae565b9150508091505092915050565b600060c08301600083015161515c60008601826151f2565b506020830151848203602086015261517482826145a9565b915050604083015161518960408601826151f2565b50606083015161519c60608601826151f2565b50608083015184820360808601526151b482826145a9565b91505060a08301516151c960a0860182614507565b508091505092915050565b6151dd81615c44565b82525050565b6151ec81615c36565b82525050565b6151fb81615c64565b82525050565b61520a81615c64565b82525050565b61521981615c6e565b82525050565b61522881615c6e565b82525050565b61523781615c7e565b82525050565b61524681615c92565b82525050565b60006020820190506152616000830184613e19565b92915050565b600060208201905081810360008301526152818184613ee4565b905092915050565b600060208201905081810360008301526152a381846141a4565b905092915050565b600060208201905081810360008301526152c58184614219565b905092915050565b60006020820190506152e26000830184614516565b92915050565b60006020820190506152fd6000830184614534565b92915050565b6000602082019050818103600083015261531c816145e2565b9050919050565b6000602082019050818103600083015261533c81614648565b9050919050565b600060c082019050818103600083015261535d8189614b31565b9050818103602083015261537181886144a9565b905081810360408301526153858187613ee4565b905081810360608301526153998186613ee4565b905081810360808301526153ad818561444b565b905081810360a08301526153c18184613e28565b9050979650505050505050565b600060e0820190506153e36000830184614ce0565b92915050565b600060408201905081810360008301526154038185614f98565b90506154126020830184615201565b9392505050565b600060208201905081810360008301526154338184615144565b905092915050565b60006020820190506154506000830184615201565b92915050565b600060408201905061546b6000830185615201565b6154786020830184615201565b9392505050565b6000602082019050615494600083018461521f565b92915050565b6000604051905081810181811067ffffffffffffffff821117156154c1576154c0615ce1565b5b8060405250919050565b600067ffffffffffffffff8211156154e6576154e5615ce1565b5b602082029050602081019050919050565b600067ffffffffffffffff82111561551257615511615ce1565b5b602082029050602081019050919050565b600067ffffffffffffffff82111561553e5761553d615ce1565b5b602082029050602081019050919050565b600067ffffffffffffffff82111561556a57615569615ce1565b5b602082029050602081019050919050565b600067ffffffffffffffff82111561559657615595615ce1565b5b602082029050602081019050919050565b600067ffffffffffffffff8211156155c2576155c1615ce1565b5b602082029050602081019050919050565b600067ffffffffffffffff8211156155ee576155ed615ce1565b5b602082029050602081019050919050565b600067ffffffffffffffff82111561561a57615619615ce1565b5b602082029050602081019050919050565b600067ffffffffffffffff82111561564657615645615ce1565b5b602082029050602081019050919050565b600067ffffffffffffffff82111561567257615671615ce1565b5b602082029050602081019050919050565b600067ffffffffffffffff82111561569e5761569d615ce1565b5b602082029050602081019050919050565b600067ffffffffffffffff8211156156ca576156c9615ce1565b5b602082029050602081019050919050565b600067ffffffffffffffff8211156156f6576156f5615ce1565b5b602082029050602081019050919050565b600067ffffffffffffffff82111561572257615721615ce1565b5b602082029050602081019050919050565b600067ffffffffffffffff82111561574e5761574d615ce1565b5b602082029050602081019050919050565b600067ffffffffffffffff82111561577a57615779615ce1565b5b602082029050602081019050919050565b600067ffffffffffffffff8211156157a6576157a5615ce1565b5b601f19601f8301169050602081019050919050565b600067ffffffffffffffff8211156157d6576157d5615ce1565b5b601f19601f8301169050602081019050919050565b6000819050602082019050919050565b6000819050602082019050919050565b6000819050602082019050919050565b6000819050602082019050919050565b6000819050602082019050919050565b6000819050602082019050919050565b6000819050602082019050919050565b6000819050602082019050919050565b6000819050602082019050919050565b6000819050602082019050919050565b6000819050602082019050919050565b6000819050602082019050919050565b6000819050602082019050919050565b6000819050602082019050919050565b6000819050602082019050919050565b6000819050602082019050919050565b600081519050919050565b600081519050919050565b600081519050919050565b600081519050919050565b600081519050919050565b600081519050919050565b600081519050919050565b600081519050919050565b600081519050919050565b600081519050919050565b600081519050919050565b600081519050919050565b600081519050919050565b600081519050919050565b600081519050919050565b600081519050919050565b600081519050919050565b600081519050919050565b6000602082019050919050565b6000602082019050919050565b6000602082019050919050565b6000602082019050919050565b6000602082019050919050565b6000602082019050919050565b6000602082019050919050565b6000602082019050919050565b6000602082019050919050565b6000602082019050919050565b6000602082019050919050565b6000602082019050919050565b6000602082019050919050565b6000602082019050919050565b6000602082019050919050565b6000602082019050919050565b600082825260208201905092915050565b600082825260208201905092915050565b600082825260208201905092915050565b600082825260208201905092915050565b600082825260208201905092915050565b600082825260208201905092915050565b600082825260208201905092915050565b600082825260208201905092915050565b600082825260208201905092915050565b600082825260208201905092915050565b600082825260208201905092915050565b600082825260208201905092915050565b600082825260208201905092915050565b600082825260208201905092915050565b600082825260208201905092915050565b600082825260208201905092915050565b600082825260208201905092915050565b600082825260208201905092915050565b600082825260208201905092915050565b600082825260208201905092915050565b6000615be082615c44565b9050919050565b6000615bf282615c44565b9050919050565b60008115159050919050565b6000819050919050565b60008160010b9050919050565b60008160030b9050919050565b60008160070b9050919050565b600061ffff82169050919050565b600073ffffffffffffffffffffffffffffffffffffffff82169050919050565b6000819050919050565b600063ffffffff82169050919050565b600067ffffffffffffffff82169050919050565b600060ff82169050919050565b82818337600083830152505050565b60005b83811015615ccc578082015181840152602081019050615cb1565b83811115615cdb576000848401525b50505050565bfe5b6000601f19601f8301169050919050565b615cfd81615bd5565b8114615d0857600080fd5b50565b615d1481615be7565b8114615d1f57600080fd5b50565b615d2b81615bf9565b8114615d3657600080fd5b50565b615d4281615c05565b8114615d4d57600080fd5b50565b60078110615d5d57600080fd5b50565b615d6981615c0f565b8114615d7457600080fd5b50565b615d8081615c1c565b8114615d8b57600080fd5b50565b615d9781615c29565b8114615da257600080fd5b50565b615dae81615c36565b8114615db957600080fd5b50565b615dc581615c44565b8114615dd057600080fd5b50565b615ddc81615c64565b8114615de757600080fd5b50565b615df381615c6e565b8114615dfe57600080fd5b50565b615e0a81615c7e565b8114615e1557600080fd5b50565b615e2181615c92565b8114615e2c57600080fd5b5056fea26469706673582212207446adbd46e670d3c2a4f5ced8cdb5e0671146ca13c8e9f93843bf6c8c7785ed64736f6c63430007060033",
			"opcodes": "PUSH1 0x80 PUSH1 0x40 MSTORE PUSH1 0x0 PUSH1 0x8 SSTORE PUSH1 0x0 PUSH1 0x9 SSTORE PUSH1 0x0 PUSH1 0xA SSTORE CALLVALUE DUP1 ISZERO PUSH3 0x20 JUMPI PUSH1 0x0 DUP1 REVERT JUMPDEST POP PUSH1 0x40 MLOAD PUSH3 0x5F71 CODESIZE SUB DUP1 PUSH3 0x5F71 DUP4 CODECOPY DUP2 DUP2 ADD PUSH1 0x40 MSTORE DUP2 ADD SWAP1 PUSH3 0x46 SWAP2 SWAP1 PUSH3 0xAC JUMP JUMPDEST CALLER PUSH1 0x7 PUSH1 0x0 PUSH2 0x100 EXP DUP2 SLOAD DUP2 PUSH20 0xFFFFFFFFFFFFFFFFFFFFFFFFFFFFFFFFFFFFFFFF MUL NOT AND SWAP1 DUP4 PUSH20 0xFFFFFFFFFFFFFFFFFFFFFFFFFFFFFFFFFFFFFFFF AND MUL OR SWAP1 SSTORE POP DUP1 PUSH1 0xA DUP2 SWAP1 SSTORE POP POP PUSH3 0xFC JUMP JUMPDEST PUSH1 0x0 DUP2 MLOAD SWAP1 POP PUSH3 0xA6 DUP2 PUSH3 0xE2 JUMP JUMPDEST SWAP3 SWAP2 POP POP JUMP JUMPDEST PUSH1 0x0 PUSH1 0x20 DUP3 DUP5 SUB SLT ISZERO PUSH3 0xBF JUMPI PUSH1 0x0 DUP1 REVERT JUMPDEST PUSH1 0x0 PUSH3 0xCF DUP5 DUP3 DUP6 ADD PUSH3 0x95 JUMP JUMPDEST SWAP2 POP POP SWAP3 SWAP2 POP POP JUMP JUMPDEST PUSH1 0x0 DUP2 SWAP1 POP SWAP2 SWAP1 POP JUMP JUMPDEST PUSH3 0xED DUP2 PUSH3 0xD8 JUMP JUMPDEST DUP2 EQ PUSH3 0xF9 JUMPI PUSH1 0x0 DUP1 REVERT JUMPDEST POP JUMP JUMPDEST PUSH2 0x5E65 DUP1 PUSH3 0x10C PUSH1 0x0 CODECOPY PUSH1 0x0 RETURN INVALID PUSH1 0x80 PUSH1 0x40 MSTORE PUSH1 0x4 CALLDATASIZE LT PUSH2 0x166 JUMPI PUSH1 0x0 CALLDATALOAD PUSH1 0xE0 SHR DUP1 PUSH4 0x7E0B2492 GT PUSH2 0xD1 JUMPI DUP1 PUSH4 0xD4E03233 GT PUSH2 0x8A JUMPI DUP1 PUSH4 0xE45B909D GT PUSH2 0x64 JUMPI DUP1 PUSH4 0xE45B909D EQ PUSH2 0x567 JUMPI DUP1 PUSH4 0xE4804ABC EQ PUSH2 0x5A4 JUMPI DUP1 PUSH4 0xF4E56991 EQ PUSH2 0x5E1 JUMPI DUP1 PUSH4 0xFC3CC653 EQ PUSH2 0x61E JUMPI PUSH2 0x166 JUMP JUMPDEST DUP1 PUSH4 0xD4E03233 EQ PUSH2 0x4D6 JUMPI DUP1 PUSH4 0xD5B91A92 EQ PUSH2 0x501 JUMPI DUP1 PUSH4 0xDD1A8F90 EQ PUSH2 0x53E JUMPI PUSH2 0x166 JUMP JUMPDEST DUP1 PUSH4 0x7E0B2492 EQ PUSH2 0x3C3 JUMPI DUP1 PUSH4 0x88B2621B EQ PUSH2 0x400 JUMPI DUP1 PUSH4 0x9105F245 EQ PUSH2 0x41C JUMPI DUP1 PUSH4 0x9DEAE284 EQ PUSH2 0x447 JUMPI DUP1 PUSH4 0xB85C0ACB EQ PUSH2 0x470 JUMPI DUP1 PUSH4 0xC413E5BE EQ PUSH2 0x4AD JUMPI PUSH2 0x166 JUMP JUMPDEST DUP1 PUSH4 0x38EB07E1 GT PUSH2 0x123 JUMPI DUP1 PUSH4 0x38EB07E1 EQ PUSH2 0x2A1 JUMPI DUP1 PUSH4 0x3E15102E EQ PUSH2 0x2DE JUMPI DUP1 PUSH4 0x42526E4E EQ PUSH2 0x309 JUMPI DUP1 PUSH4 0x4B60AE63 EQ PUSH2 0x346 JUMPI DUP1 PUSH4 0x5B7BE18A EQ PUSH2 0x371 JUMPI DUP1 PUSH4 0x717AA9CD EQ PUSH2 0x39A JUMPI PUSH2 0x166 JUMP JUMPDEST DUP1 PUSH4 0x5F88A8A EQ PUSH2 0x16B JUMPI DUP1 PUSH4 0xBD4CEC3 EQ PUSH2 0x1A8 JUMPI DUP1 PUSH4 0x1305EA63 EQ PUSH2 0x1E5 JUMPI DUP1 PUSH4 0x1A2D8629 EQ PUSH2 0x222 JUMPI DUP1 PUSH4 0x23845E4B EQ PUSH2 0x24D JUMPI DUP1 PUSH4 0x34368602 EQ PUSH2 0x278 JUMPI JUMPDEST PUSH1 0x0 DUP1 REVERT JUMPDEST CALLVALUE DUP1 ISZERO PUSH2 0x177 JUMPI PUSH1 0x0 DUP1 REVERT JUMPDEST POP PUSH2 0x192 PUSH1 0x4 DUP1 CALLDATASIZE SUB DUP2 ADD SWAP1 PUSH2 0x18D SWAP2 SWAP1 PUSH2 0x3B8D JUMP JUMPDEST PUSH2 0x647 JUMP JUMPDEST PUSH1 0x40 MLOAD PUSH2 0x19F SWAP2 SWAP1 PUSH2 0x52CD JUMP JUMPDEST PUSH1 0x40 MLOAD DUP1 SWAP2 SUB SWAP1 RETURN JUMPDEST CALLVALUE DUP1 ISZERO PUSH2 0x1B4 JUMPI PUSH1 0x0 DUP1 REVERT JUMPDEST POP PUSH2 0x1CF PUSH1 0x4 DUP1 CALLDATASIZE SUB DUP2 ADD SWAP1 PUSH2 0x1CA SWAP2 SWAP1 PUSH2 0x373F JUMP JUMPDEST PUSH2 0x859 JUMP JUMPDEST PUSH1 0x40 MLOAD PUSH2 0x1DC SWAP2 SWAP1 PUSH2 0x547F JUMP JUMPDEST PUSH1 0x40 MLOAD DUP1 SWAP2 SUB SWAP1 RETURN JUMPDEST CALLVALUE DUP1 ISZERO PUSH2 0x1F1 JUMPI PUSH1 0x0 DUP1 REVERT JUMPDEST POP PUSH2 0x20C PUSH1 0x4 DUP1 CALLDATASIZE SUB DUP2 ADD SWAP1 PUSH2 0x207 SWAP2 SWAP1 PUSH2 0x39A0 JUMP JUMPDEST PUSH2 0x90D JUMP JUMPDEST PUSH1 0x40 MLOAD PUSH2 0x219 SWAP2 SWAP1 PUSH2 0x52CD JUMP JUMPDEST PUSH1 0x40 MLOAD DUP1 SWAP2 SUB SWAP1 RETURN JUMPDEST CALLVALUE DUP1 ISZERO PUSH2 0x22E JUMPI PUSH1 0x0 DUP1 REVERT JUMPDEST POP PUSH2 0x237 PUSH2 0x9D2 JUMP JUMPDEST PUSH1 0x40 MLOAD PUSH2 0x244 SWAP2 SWAP1 PUSH2 0x5419 JUMP JUMPDEST PUSH1 0x40 MLOAD DUP1 SWAP2 SUB SWAP1 RETURN JUMPDEST CALLVALUE DUP1 ISZERO PUSH2 0x259 JUMPI PUSH1 0x0 DUP1 REVERT JUMPDEST POP PUSH2 0x262 PUSH2 0xA84 JUMP JUMPDEST PUSH1 0x40 MLOAD PUSH2 0x26F SWAP2 SWAP1 PUSH2 0x543B JUMP JUMPDEST PUSH1 0x40 MLOAD DUP1 SWAP2 SUB SWAP1 RETURN JUMPDEST CALLVALUE DUP1 ISZERO PUSH2 0x284 JUMPI PUSH1 0x0 DUP1 REVERT JUMPDEST POP PUSH2 0x29F PUSH1 0x4 DUP1 CALLDATASIZE SUB DUP2 ADD SWAP1 PUSH2 0x29A SWAP2 SWAP1 PUSH2 0x3BC9 JUMP JUMPDEST PUSH2 0xA8E JUMP JUMPDEST STOP JUMPDEST CALLVALUE DUP1 ISZERO PUSH2 0x2AD JUMPI PUSH1 0x0 DUP1 REVERT JUMPDEST POP PUSH2 0x2C8 PUSH1 0x4 DUP1 CALLDATASIZE SUB DUP2 ADD SWAP1 PUSH2 0x2C3 SWAP2 SWAP1 PUSH2 0x3C41 JUMP JUMPDEST PUSH2 0xB69 JUMP JUMPDEST PUSH1 0x40 MLOAD PUSH2 0x2D5 SWAP2 SWAP1 PUSH2 0x543B JUMP JUMPDEST PUSH1 0x40 MLOAD DUP1 SWAP2 SUB SWAP1 RETURN JUMPDEST CALLVALUE DUP1 ISZERO PUSH2 0x2EA JUMPI PUSH1 0x0 DUP1 REVERT JUMPDEST POP PUSH2 0x2F3 PUSH2 0xBC8 JUMP JUMPDEST PUSH1 0x40 MLOAD PUSH2 0x300 SWAP2 SWAP1 PUSH2 0x543B JUMP JUMPDEST PUSH1 0x40 MLOAD DUP1 SWAP2 SUB SWAP1 RETURN JUMPDEST CALLVALUE DUP1 ISZERO PUSH2 0x315 JUMPI PUSH1 0x0 DUP1 REVERT JUMPDEST POP PUSH2 0x330 PUSH1 0x4 DUP1 CALLDATASIZE SUB DUP2 ADD SWAP1 PUSH2 0x32B SWAP2 SWAP1 PUSH2 0x38FA JUMP JUMPDEST PUSH2 0xBD2 JUMP JUMPDEST PUSH1 0x40 MLOAD PUSH2 0x33D SWAP2 SWAP1 PUSH2 0x524C JUMP JUMPDEST PUSH1 0x40 MLOAD DUP1 SWAP2 SUB SWAP1 RETURN JUMPDEST CALLVALUE DUP1 ISZERO PUSH2 0x352 JUMPI PUSH1 0x0 DUP1 REVERT JUMPDEST POP PUSH2 0x35B PUSH2 0xBE0 JUMP JUMPDEST PUSH1 0x40 MLOAD PUSH2 0x368 SWAP2 SWAP1 PUSH2 0x547F JUMP JUMPDEST PUSH1 0x40 MLOAD DUP1 SWAP2 SUB SWAP1 RETURN JUMPDEST CALLVALUE DUP1 ISZERO PUSH2 0x37D JUMPI PUSH1 0x0 DUP1 REVERT JUMPDEST POP PUSH2 0x398 PUSH1 0x4 DUP1 CALLDATASIZE SUB DUP2 ADD SWAP1 PUSH2 0x393 SWAP2 SWAP1 PUSH2 0x3B64 JUMP JUMPDEST PUSH2 0xC87 JUMP JUMPDEST STOP JUMPDEST CALLVALUE DUP1 ISZERO PUSH2 0x3A6 JUMPI PUSH1 0x0 DUP1 REVERT JUMPDEST POP PUSH2 0x3C1 PUSH1 0x4 DUP1 CALLDATASIZE SUB DUP2 ADD SWAP1 PUSH2 0x3BC SWAP2 SWAP1 PUSH2 0x3B64 JUMP JUMPDEST PUSH2 0xD21 JUMP JUMPDEST STOP JUMPDEST CALLVALUE DUP1 ISZERO PUSH2 0x3CF JUMPI PUSH1 0x0 DUP1 REVERT JUMPDEST POP PUSH2 0x3EA PUSH1 0x4 DUP1 CALLDATASIZE SUB DUP2 ADD SWAP1 PUSH2 0x3E5 SWAP2 SWAP1 PUSH2 0x373F JUMP JUMPDEST PUSH2 0xDBB JUMP JUMPDEST PUSH1 0x40 MLOAD PUSH2 0x3F7 SWAP2 SWAP1 PUSH2 0x543B JUMP JUMPDEST PUSH1 0x40 MLOAD DUP1 SWAP2 SUB SWAP1 RETURN JUMPDEST PUSH2 0x41A PUSH1 0x4 DUP1 CALLDATASIZE SUB DUP2 ADD SWAP1 PUSH2 0x415 SWAP2 SWAP1 PUSH2 0x3AE2 JUMP JUMPDEST PUSH2 0xDD3 JUMP JUMPDEST STOP JUMPDEST CALLVALUE DUP1 ISZERO PUSH2 0x428 JUMPI PUSH1 0x0 DUP1 REVERT JUMPDEST POP PUSH2 0x431 PUSH2 0xE6B JUMP JUMPDEST PUSH1 0x40 MLOAD PUSH2 0x43E SWAP2 SWAP1 PUSH2 0x543B JUMP JUMPDEST PUSH1 0x40 MLOAD DUP1 SWAP2 SUB SWAP1 RETURN JUMPDEST CALLVALUE DUP1 ISZERO PUSH2 0x453 JUMPI PUSH1 0x0 DUP1 REVERT JUMPDEST POP PUSH2 0x46E PUSH1 0x4 DUP1 CALLDATASIZE SUB DUP2 ADD SWAP1 PUSH2 0x469 SWAP2 SWAP1 PUSH2 0x3826 JUMP JUMPDEST PUSH2 0xE75 JUMP JUMPDEST STOP JUMPDEST CALLVALUE DUP1 ISZERO PUSH2 0x47C JUMPI PUSH1 0x0 DUP1 REVERT JUMPDEST POP PUSH2 0x497 PUSH1 0x4 DUP1 CALLDATASIZE SUB DUP2 ADD SWAP1 PUSH2 0x492 SWAP2 SWAP1 PUSH2 0x37A4 JUMP JUMPDEST PUSH2 0xF05 JUMP JUMPDEST PUSH1 0x40 MLOAD PUSH2 0x4A4 SWAP2 SWAP1 PUSH2 0x5267 JUMP JUMPDEST PUSH1 0x40 MLOAD DUP1 SWAP2 SUB SWAP1 RETURN JUMPDEST CALLVALUE DUP1 ISZERO PUSH2 0x4B9 JUMPI PUSH1 0x0 DUP1 REVERT JUMPDEST POP PUSH2 0x4D4 PUSH1 0x4 DUP1 CALLDATASIZE SUB DUP2 ADD SWAP1 PUSH2 0x4CF SWAP2 SWAP1 PUSH2 0x3964 JUMP JUMPDEST PUSH2 0xFBE JUMP JUMPDEST STOP JUMPDEST CALLVALUE DUP1 ISZERO PUSH2 0x4E2 JUMPI PUSH1 0x0 DUP1 REVERT JUMPDEST POP PUSH2 0x4EB PUSH2 0x12BE JUMP JUMPDEST PUSH1 0x40 MLOAD PUSH2 0x4F8 SWAP2 SWAP1 PUSH2 0x53CE JUMP JUMPDEST PUSH1 0x40 MLOAD DUP1 SWAP2 SUB SWAP1 RETURN JUMPDEST CALLVALUE DUP1 ISZERO PUSH2 0x50D JUMPI PUSH1 0x0 DUP1 REVERT JUMPDEST POP PUSH2 0x528 PUSH1 0x4 DUP1 CALLDATASIZE SUB DUP2 ADD SWAP1 PUSH2 0x523 SWAP2 SWAP1 PUSH2 0x3C41 JUMP JUMPDEST PUSH2 0x136B JUMP JUMPDEST PUSH1 0x40 MLOAD PUSH2 0x535 SWAP2 SWAP1 PUSH2 0x543B JUMP JUMPDEST PUSH1 0x40 MLOAD DUP1 SWAP2 SUB SWAP1 RETURN JUMPDEST CALLVALUE DUP1 ISZERO PUSH2 0x54A JUMPI PUSH1 0x0 DUP1 REVERT JUMPDEST POP PUSH2 0x565 PUSH1 0x4 DUP1 CALLDATASIZE SUB DUP2 ADD SWAP1 PUSH2 0x560 SWAP2 SWAP1 PUSH2 0x3B64 JUMP JUMPDEST PUSH2 0x13CA JUMP JUMPDEST STOP JUMPDEST CALLVALUE DUP1 ISZERO PUSH2 0x573 JUMPI PUSH1 0x0 DUP1 REVERT JUMPDEST POP PUSH2 0x58E PUSH1 0x4 DUP1 CALLDATASIZE SUB DUP2 ADD SWAP1 PUSH2 0x589 SWAP2 SWAP1 PUSH2 0x3B64 JUMP JUMPDEST PUSH2 0x1464 JUMP JUMPDEST PUSH1 0x40 MLOAD PUSH2 0x59B SWAP2 SWAP1 PUSH2 0x52E8 JUMP JUMPDEST PUSH1 0x40 MLOAD DUP1 SWAP2 SUB SWAP1 RETURN JUMPDEST CALLVALUE DUP1 ISZERO PUSH2 0x5B0 JUMPI PUSH1 0x0 DUP1 REVERT JUMPDEST POP PUSH2 0x5CB PUSH1 0x4 DUP1 CALLDATASIZE SUB DUP2 ADD SWAP1 PUSH2 0x5C6 SWAP2 SWAP1 PUSH2 0x3C05 JUMP JUMPDEST PUSH2 0x1518 JUMP JUMPDEST PUSH1 0x40 MLOAD PUSH2 0x5D8 SWAP2 SWAP1 PUSH2 0x52AB JUMP JUMPDEST PUSH1 0x40 MLOAD DUP1 SWAP2 SUB SWAP1 RETURN JUMPDEST CALLVALUE DUP1 ISZERO PUSH2 0x5ED JUMPI PUSH1 0x0 DUP1 REVERT JUMPDEST POP PUSH2 0x608 PUSH1 0x4 DUP1 CALLDATASIZE SUB DUP2 ADD SWAP1 PUSH2 0x603 SWAP2 SWAP1 PUSH2 0x393B JUMP JUMPDEST PUSH2 0x15D4 JUMP JUMPDEST PUSH1 0x40 MLOAD PUSH2 0x615 SWAP2 SWAP1 PUSH2 0x524C JUMP JUMPDEST PUSH1 0x40 MLOAD DUP1 SWAP2 SUB SWAP1 RETURN JUMPDEST CALLVALUE DUP1 ISZERO PUSH2 0x62A JUMPI PUSH1 0x0 DUP1 REVERT JUMPDEST POP PUSH2 0x645 PUSH1 0x4 DUP1 CALLDATASIZE SUB DUP2 ADD SWAP1 PUSH2 0x640 SWAP2 SWAP1 PUSH2 0x3768 JUMP JUMPDEST PUSH2 0x17BA JUMP JUMPDEST STOP JUMPDEST PUSH1 0x0 PUSH1 0x4 PUSH1 0x0 SWAP1 SLOAD SWAP1 PUSH2 0x100 EXP SWAP1 DIV PUSH20 0xFFFFFFFFFFFFFFFFFFFFFFFFFFFFFFFFFFFFFFFF AND PUSH20 0xFFFFFFFFFFFFFFFFFFFFFFFFFFFFFFFFFFFFFFFF AND PUSH4 0xBD4CEC3 PUSH20 0xFFECE948B8A38BBCC813411D2597F7F8485A0689 PUSH1 0x40 MLOAD DUP3 PUSH4 0xFFFFFFFF AND PUSH1 0xE0 SHL DUP2 MSTORE PUSH1 0x4 ADD PUSH2 0x6B8 SWAP2 SWAP1 PUSH2 0x524C JUMP JUMPDEST PUSH1 0x20 PUSH1 0x40 MLOAD DUP1 DUP4 SUB DUP2 DUP7 DUP1 EXTCODESIZE ISZERO DUP1 ISZERO PUSH2 0x6D0 JUMPI PUSH1 0x0 DUP1 REVERT JUMPDEST POP GAS STATICCALL ISZERO DUP1 ISZERO PUSH2 0x6E4 JUMPI RETURNDATASIZE PUSH1 0x0 DUP1 RETURNDATACOPY RETURNDATASIZE PUSH1 0x0 REVERT JUMPDEST POP POP POP POP PUSH1 0x40 MLOAD RETURNDATASIZE PUSH1 0x1F NOT PUSH1 0x1F DUP3 ADD AND DUP3 ADD DUP1 PUSH1 0x40 MSTORE POP DUP2 ADD SWAP1 PUSH2 0x708 SWAP2 SWAP1 PUSH2 0x3C7D JUMP JUMPDEST PUSH4 0xFFFFFFFF AND PUSH1 0x0 LT DUP1 ISZERO PUSH2 0x7E6 JUMPI POP NUMBER PUSH4 0xFFFFFFFF AND PUSH1 0x4 PUSH1 0x0 SWAP1 SLOAD SWAP1 PUSH2 0x100 EXP SWAP1 DIV PUSH20 0xFFFFFFFFFFFFFFFFFFFFFFFFFFFFFFFFFFFFFFFF AND PUSH20 0xFFFFFFFFFFFFFFFFFFFFFFFFFFFFFFFFFFFFFFFF AND PUSH4 0xBD4CEC3 PUSH20 0xFFECE948B8A38BBCC813411D2597F7F8485A0689 PUSH1 0x40 MLOAD DUP3 PUSH4 0xFFFFFFFF AND PUSH1 0xE0 SHL DUP2 MSTORE PUSH1 0x4 ADD PUSH2 0x78E SWAP2 SWAP1 PUSH2 0x524C JUMP JUMPDEST PUSH1 0x20 PUSH1 0x40 MLOAD DUP1 DUP4 SUB DUP2 DUP7 DUP1 EXTCODESIZE ISZERO DUP1 ISZERO PUSH2 0x7A6 JUMPI PUSH1 0x0 DUP1 REVERT JUMPDEST POP GAS STATICCALL ISZERO DUP1 ISZERO PUSH2 0x7BA JUMPI RETURNDATASIZE PUSH1 0x0 DUP1 RETURNDATACOPY RETURNDATASIZE PUSH1 0x0 REVERT JUMPDEST POP POP POP POP PUSH1 0x40 MLOAD RETURNDATASIZE PUSH1 0x1F NOT PUSH1 0x1F DUP3 ADD AND DUP3 ADD DUP1 PUSH1 0x40 MSTORE POP DUP2 ADD SWAP1 PUSH2 0x7DE SWAP2 SWAP1 PUSH2 0x3C7D JUMP JUMPDEST PUSH4 0xFFFFFFFF AND LT JUMPDEST ISZERO PUSH2 0x7F4 JUMPI PUSH1 0x0 SWAP1 POP PUSH2 0x853 JUMP JUMPDEST PUSH20 0xA6EF9EA235635E328124FF3429DB9F9E91B64E2D PUSH20 0xFFFFFFFFFFFFFFFFFFFFFFFFFFFFFFFFFFFFFFFF AND DUP3 PUSH20 0xFFFFFFFFFFFFFFFFFFFFFFFFFFFFFFFFFFFFFFFF AND EQ PUSH2 0x83D JUMPI INVALID JUMPDEST DUP3 PUSH2 0x846 PUSH2 0xA84 JUMP JUMPDEST LT ISZERO PUSH2 0x84E JUMPI INVALID JUMPDEST PUSH1 0x1 SWAP1 POP JUMPDEST SWAP3 SWAP2 POP POP JUMP JUMPDEST PUSH1 0x0 PUSH1 0x4 PUSH1 0x0 SWAP1 SLOAD SWAP1 PUSH2 0x100 EXP SWAP1 DIV PUSH20 0xFFFFFFFFFFFFFFFFFFFFFFFFFFFFFFFFFFFFFFFF AND PUSH20 0xFFFFFFFFFFFFFFFFFFFFFFFFFFFFFFFFFFFFFFFF AND PUSH4 0xBD4CEC3 DUP4 PUSH1 0x40 MLOAD DUP3 PUSH4 0xFFFFFFFF AND PUSH1 0xE0 SHL DUP2 MSTORE PUSH1 0x4 ADD PUSH2 0x8B6 SWAP2 SWAP1 PUSH2 0x524C JUMP JUMPDEST PUSH1 0x20 PUSH1 0x40 MLOAD DUP1 DUP4 SUB DUP2 DUP7 DUP1 EXTCODESIZE ISZERO DUP1 ISZERO PUSH2 0x8CE JUMPI PUSH1 0x0 DUP1 REVERT JUMPDEST POP GAS STATICCALL ISZERO DUP1 ISZERO PUSH2 0x8E2 JUMPI RETURNDATASIZE PUSH1 0x0 DUP1 RETURNDATACOPY RETURNDATASIZE PUSH1 0x0 REVERT JUMPDEST POP POP POP POP PUSH1 0x40 MLOAD RETURNDATASIZE PUSH1 0x1F NOT PUSH1 0x1F DUP3 ADD AND DUP3 ADD DUP1 PUSH1 0x40 MSTORE POP DUP2 ADD SWAP1 PUSH2 0x906 SWAP2 SWAP1 PUSH2 0x3C7D JUMP JUMPDEST SWAP1 POP SWAP2 SWAP1 POP JUMP JUMPDEST PUSH1 0x0 PUSH1 0x4 PUSH1 0x0 SWAP1 SLOAD SWAP1 PUSH2 0x100 EXP SWAP1 DIV PUSH20 0xFFFFFFFFFFFFFFFFFFFFFFFFFFFFFFFFFFFFFFFF AND PUSH20 0xFFFFFFFFFFFFFFFFFFFFFFFFFFFFFFFFFFFFFFFF AND PUSH4 0x1305EA63 DUP9 DUP9 DUP9 DUP9 DUP9 DUP9 PUSH1 0x40 MLOAD DUP8 PUSH4 0xFFFFFFFF AND PUSH1 0xE0 SHL DUP2 MSTORE PUSH1 0x4 ADD PUSH2 0x974 SWAP7 SWAP6 SWAP5 SWAP4 SWAP3 SWAP2 SWAP1 PUSH2 0x5343 JUMP JUMPDEST PUSH1 0x20 PUSH1 0x40 MLOAD DUP1 DUP4 SUB DUP2 PUSH1 0x0 DUP8 DUP1 EXTCODESIZE ISZERO DUP1 ISZERO PUSH2 0x98E JUMPI PUSH1 0x0 DUP1 REVERT JUMPDEST POP GAS CALL ISZERO DUP1 ISZERO PUSH2 0x9A2 JUMPI RETURNDATASIZE PUSH1 0x0 DUP1 RETURNDATACOPY RETURNDATASIZE PUSH1 0x0 REVERT JUMPDEST POP POP POP POP PUSH1 0x40 MLOAD RETURNDATASIZE PUSH1 0x1F NOT PUSH1 0x1F DUP3 ADD AND DUP3 ADD DUP1 PUSH1 0x40 MSTORE POP DUP2 ADD SWAP1 PUSH2 0x9C6 SWAP2 SWAP1 PUSH2 0x38A8 JUMP JUMPDEST SWAP1 POP SWAP7 SWAP6 POP POP POP POP POP POP JUMP JUMPDEST PUSH2 0x9DA PUSH2 0x18D3 JUMP JUMPDEST PUSH1 0x6 PUSH1 0x0 SWAP1 SLOAD SWAP1 PUSH2 0x100 EXP SWAP1 DIV PUSH20 0xFFFFFFFFFFFFFFFFFFFFFFFFFFFFFFFFFFFFFFFF AND PUSH20 0xFFFFFFFFFFFFFFFFFFFFFFFFFFFFFFFFFFFFFFFF AND PUSH4 0x1A2D8629 PUSH1 0x40 MLOAD DUP2 PUSH4 0xFFFFFFFF AND PUSH1 0xE0 SHL DUP2 MSTORE PUSH1 0x4 ADD PUSH1 0x0 PUSH1 0x40 MLOAD DUP1 DUP4 SUB DUP2 DUP7 DUP1 EXTCODESIZE ISZERO DUP1 ISZERO PUSH2 0xA42 JUMPI PUSH1 0x0 DUP1 REVERT JUMPDEST POP GAS STATICCALL ISZERO DUP1 ISZERO PUSH2 0xA56 JUMPI RETURNDATASIZE PUSH1 0x0 DUP1 RETURNDATACOPY RETURNDATASIZE PUSH1 0x0 REVERT JUMPDEST POP POP POP POP PUSH1 0x40 MLOAD RETURNDATASIZE PUSH1 0x0 DUP3 RETURNDATACOPY RETURNDATASIZE PUSH1 0x1F NOT PUSH1 0x1F DUP3 ADD AND DUP3 ADD DUP1 PUSH1 0x40 MSTORE POP DUP2 ADD SWAP1 PUSH2 0xA7F SWAP2 SWAP1 PUSH2 0x3B23 JUMP JUMPDEST SWAP1 POP SWAP1 JUMP JUMPDEST PUSH1 0x0 PUSH1 0xA SLOAD SWAP1 POP SWAP1 JUMP JUMPDEST PUSH1 0x5 PUSH1 0x0 SWAP1 SLOAD SWAP1 PUSH2 0x100 EXP SWAP1 DIV PUSH20 0xFFFFFFFFFFFFFFFFFFFFFFFFFFFFFFFFFFFFFFFF AND PUSH20 0xFFFFFFFFFFFFFFFFFFFFFFFFFFFFFFFFFFFFFFFF AND CALLER PUSH20 0xFFFFFFFFFFFFFFFFFFFFFFFFFFFFFFFFFFFFFFFF AND EQ PUSH2 0xB1E JUMPI PUSH1 0x40 MLOAD PUSH32 0x8C379A000000000000000000000000000000000000000000000000000000000 DUP2 MSTORE PUSH1 0x4 ADD PUSH2 0xB15 SWAP1 PUSH2 0x5323 JUMP JUMPDEST PUSH1 0x40 MLOAD DUP1 SWAP2 SUB SWAP1 REVERT JUMPDEST DUP1 PUSH20 0xFFFFFFFFFFFFFFFFFFFFFFFFFFFFFFFFFFFFFFFF AND PUSH2 0x8FC DUP4 SWAP1 DUP2 ISZERO MUL SWAP1 PUSH1 0x40 MLOAD PUSH1 0x0 PUSH1 0x40 MLOAD DUP1 DUP4 SUB DUP2 DUP6 DUP9 DUP9 CALL SWAP4 POP POP POP POP ISZERO DUP1 ISZERO PUSH2 0xB64 JUMPI RETURNDATASIZE PUSH1 0x0 DUP1 RETURNDATACOPY RETURNDATASIZE PUSH1 0x0 REVERT JUMPDEST POP POP POP JUMP JUMPDEST PUSH1 0x0 DUP1 PUSH1 0xA SWAP1 POP PUSH1 0x0 DUP5 SWAP1 POP PUSH1 0x8 DUP5 PUSH1 0xFF AND GT ISZERO PUSH2 0xB9E JUMPI PUSH1 0x8 DUP5 SUB SWAP2 POP DUP2 PUSH1 0xFF AND PUSH1 0xA EXP DUP6 DUP2 PUSH2 0xB96 JUMPI INVALID JUMPDEST DIV SWAP1 POP PUSH2 0xBBD JUMP JUMPDEST PUSH1 0x8 DUP5 PUSH1 0xFF AND LT ISZERO PUSH2 0xBBC JUMPI DUP4 PUSH1 0x8 SUB SWAP2 POP DUP2 PUSH1 0xFF AND PUSH1 0xA EXP DUP6 MUL SWAP1 POP JUMPDEST JUMPDEST DUP1 SWAP3 POP POP POP SWAP3 SWAP2 POP POP JUMP JUMPDEST PUSH1 0x0 PUSH1 0x9 SLOAD SWAP1 POP SWAP1 JUMP JUMPDEST PUSH1 0x0 PUSH1 0x14 DUP3 ADD MLOAD SWAP1 POP SWAP2 SWAP1 POP JUMP JUMPDEST PUSH1 0x0 PUSH1 0x4 PUSH1 0x0 SWAP1 SLOAD SWAP1 PUSH2 0x100 EXP SWAP1 DIV PUSH20 0xFFFFFFFFFFFFFFFFFFFFFFFFFFFFFFFFFFFFFFFF AND PUSH20 0xFFFFFFFFFFFFFFFFFFFFFFFFFFFFFFFFFFFFFFFF AND PUSH4 0x4B60AE63 PUSH1 0x40 MLOAD DUP2 PUSH4 0xFFFFFFFF AND PUSH1 0xE0 SHL DUP2 MSTORE PUSH1 0x4 ADD PUSH1 0x20 PUSH1 0x40 MLOAD DUP1 DUP4 SUB DUP2 DUP7 DUP1 EXTCODESIZE ISZERO DUP1 ISZERO PUSH2 0xC4A JUMPI PUSH1 0x0 DUP1 REVERT JUMPDEST POP GAS STATICCALL ISZERO DUP1 ISZERO PUSH2 0xC5E JUMPI RETURNDATASIZE PUSH1 0x0 DUP1 RETURNDATACOPY RETURNDATASIZE PUSH1 0x0 REVERT JUMPDEST POP POP POP POP PUSH1 0x40 MLOAD RETURNDATASIZE PUSH1 0x1F NOT PUSH1 0x1F DUP3 ADD AND DUP3 ADD DUP1 PUSH1 0x40 MSTORE POP DUP2 ADD SWAP1 PUSH2 0xC82 SWAP2 SWAP1 PUSH2 0x3C7D JUMP JUMPDEST SWAP1 POP SWAP1 JUMP JUMPDEST PUSH1 0x5 PUSH1 0x0 SWAP1 SLOAD SWAP1 PUSH2 0x100 EXP SWAP1 DIV PUSH20 0xFFFFFFFFFFFFFFFFFFFFFFFFFFFFFFFFFFFFFFFF AND PUSH20 0xFFFFFFFFFFFFFFFFFFFFFFFFFFFFFFFFFFFFFFFF AND CALLER PUSH20 0xFFFFFFFFFFFFFFFFFFFFFFFFFFFFFFFFFFFFFFFF AND EQ PUSH2 0xD17 JUMPI PUSH1 0x40 MLOAD PUSH32 0x8C379A000000000000000000000000000000000000000000000000000000000 DUP2 MSTORE PUSH1 0x4 ADD PUSH2 0xD0E SWAP1 PUSH2 0x5303 JUMP JUMPDEST PUSH1 0x40 MLOAD DUP1 SWAP2 SUB SWAP1 REVERT JUMPDEST DUP1 PUSH1 0x9 DUP2 SWAP1 SSTORE POP POP JUMP JUMPDEST PUSH1 0x5 PUSH1 0x0 SWAP1 SLOAD SWAP1 PUSH2 0x100 EXP SWAP1 DIV PUSH20 0xFFFFFFFFFFFFFFFFFFFFFFFFFFFFFFFFFFFFFFFF AND PUSH20 0xFFFFFFFFFFFFFFFFFFFFFFFFFFFFFFFFFFFFFFFF AND CALLER PUSH20 0xFFFFFFFFFFFFFFFFFFFFFFFFFFFFFFFFFFFFFFFF AND EQ PUSH2 0xDB1 JUMPI PUSH1 0x40 MLOAD PUSH32 0x8C379A000000000000000000000000000000000000000000000000000000000 DUP2 MSTORE PUSH1 0x4 ADD PUSH2 0xDA8 SWAP1 PUSH2 0x5303 JUMP JUMPDEST PUSH1 0x40 MLOAD DUP1 SWAP2 SUB SWAP1 REVERT JUMPDEST DUP1 PUSH1 0x8 DUP2 SWAP1 SSTORE POP POP JUMP JUMPDEST PUSH1 0xB PUSH1 0x20 MSTORE DUP1 PUSH1 0x0 MSTORE PUSH1 0x40 PUSH1 0x0 KECCAK256 PUSH1 0x0 SWAP2 POP SWAP1 POP SLOAD DUP2 JUMP JUMPDEST PUSH1 0x0 CALLVALUE SWAP1 POP PUSH1 0x5 PUSH1 0x0 SWAP1 SLOAD SWAP1 PUSH2 0x100 EXP SWAP1 DIV PUSH20 0xFFFFFFFFFFFFFFFFFFFFFFFFFFFFFFFFFFFFFFFF AND PUSH20 0xFFFFFFFFFFFFFFFFFFFFFFFFFFFFFFFFFFFFFFFF AND PUSH4 0x1549A189 DUP4 DUP4 PUSH1 0x40 MLOAD DUP4 PUSH4 0xFFFFFFFF AND PUSH1 0xE0 SHL DUP2 MSTORE PUSH1 0x4 ADD PUSH2 0xE35 SWAP3 SWAP2 SWAP1 PUSH2 0x53E9 JUMP JUMPDEST PUSH1 0x0 PUSH1 0x40 MLOAD DUP1 DUP4 SUB DUP2 PUSH1 0x0 DUP8 DUP1 EXTCODESIZE ISZERO DUP1 ISZERO PUSH2 0xE4F JUMPI PUSH1 0x0 DUP1 REVERT JUMPDEST POP GAS CALL ISZERO DUP1 ISZERO PUSH2 0xE63 JUMPI RETURNDATASIZE PUSH1 0x0 DUP1 RETURNDATACOPY RETURNDATASIZE PUSH1 0x0 REVERT JUMPDEST POP POP POP POP POP POP JUMP JUMPDEST PUSH1 0x0 PUSH1 0x8 SLOAD SWAP1 POP SWAP1 JUMP JUMPDEST PUSH1 0x5 PUSH1 0x0 SWAP1 SLOAD SWAP1 PUSH2 0x100 EXP SWAP1 DIV PUSH20 0xFFFFFFFFFFFFFFFFFFFFFFFFFFFFFFFFFFFFFFFF AND PUSH20 0xFFFFFFFFFFFFFFFFFFFFFFFFFFFFFFFFFFFFFFFF AND PUSH4 0x9DEAE284 DUP3 PUSH1 0x40 MLOAD DUP3 PUSH4 0xFFFFFFFF AND PUSH1 0xE0 SHL DUP2 MSTORE PUSH1 0x4 ADD PUSH2 0xED0 SWAP2 SWAP1 PUSH2 0x5289 JUMP JUMPDEST PUSH1 0x0 PUSH1 0x40 MLOAD DUP1 DUP4 SUB DUP2 PUSH1 0x0 DUP8 DUP1 EXTCODESIZE ISZERO DUP1 ISZERO PUSH2 0xEEA JUMPI PUSH1 0x0 DUP1 REVERT JUMPDEST POP GAS CALL ISZERO DUP1 ISZERO PUSH2 0xEFE JUMPI RETURNDATASIZE PUSH1 0x0 DUP1 RETURNDATACOPY RETURNDATASIZE PUSH1 0x0 REVERT JUMPDEST POP POP POP POP POP JUMP JUMPDEST PUSH1 0x60 PUSH1 0x5 PUSH1 0x0 SWAP1 SLOAD SWAP1 PUSH2 0x100 EXP SWAP1 DIV PUSH20 0xFFFFFFFFFFFFFFFFFFFFFFFFFFFFFFFFFFFFFFFF AND PUSH20 0xFFFFFFFFFFFFFFFFFFFFFFFFFFFFFFFFFFFFFFFF AND PUSH4 0xB85C0ACB DUP4 PUSH1 0x40 MLOAD DUP3 PUSH4 0xFFFFFFFF AND PUSH1 0xE0 SHL DUP2 MSTORE PUSH1 0x4 ADD PUSH2 0xF62 SWAP2 SWAP1 PUSH2 0x5267 JUMP JUMPDEST PUSH1 0x0 PUSH1 0x40 MLOAD DUP1 DUP4 SUB DUP2 DUP7 DUP1 EXTCODESIZE ISZERO DUP1 ISZERO PUSH2 0xF7A JUMPI PUSH1 0x0 DUP1 REVERT JUMPDEST POP GAS STATICCALL ISZERO DUP1 ISZERO PUSH2 0xF8E JUMPI RETURNDATASIZE PUSH1 0x0 DUP1 RETURNDATACOPY RETURNDATASIZE PUSH1 0x0 REVERT JUMPDEST POP POP POP POP PUSH1 0x40 MLOAD RETURNDATASIZE PUSH1 0x0 DUP3 RETURNDATACOPY RETURNDATASIZE PUSH1 0x1F NOT PUSH1 0x1F DUP3 ADD AND DUP3 ADD DUP1 PUSH1 0x40 MSTORE POP DUP2 ADD SWAP1 PUSH2 0xFB7 SWAP2 SWAP1 PUSH2 0x37E5 JUMP JUMPDEST SWAP1 POP SWAP2 SWAP1 POP JUMP JUMPDEST PUSH1 0x7 PUSH1 0x0 SWAP1 SLOAD SWAP1 PUSH2 0x100 EXP SWAP1 DIV PUSH20 0xFFFFFFFFFFFFFFFFFFFFFFFFFFFFFFFFFFFFFFFF AND PUSH20 0xFFFFFFFFFFFFFFFFFFFFFFFFFFFFFFFFFFFFFFFF AND CALLER PUSH20 0xFFFFFFFFFFFFFFFFFFFFFFFFFFFFFFFFFFFFFFFF AND EQ PUSH2 0x1015 JUMPI INVALID JUMPDEST PUSH1 0x0 PUSH1 0x6 DUP2 GT ISZERO PUSH2 0x1022 JUMPI INVALID JUMPDEST DUP3 PUSH1 0x6 DUP2 GT ISZERO PUSH2 0x102E JUMPI INVALID JUMPDEST EQ ISZERO PUSH2 0x1075 JUMPI DUP1 PUSH1 0x0 DUP1 PUSH2 0x100 EXP DUP2 SLOAD DUP2 PUSH20 0xFFFFFFFFFFFFFFFFFFFFFFFFFFFFFFFFFFFFFFFF MUL NOT AND SWAP1 DUP4 PUSH20 0xFFFFFFFFFFFFFFFFFFFFFFFFFFFFFFFFFFFFFFFF AND MUL OR SWAP1 SSTORE POP JUMPDEST PUSH1 0x1 PUSH1 0x6 DUP2 GT ISZERO PUSH2 0x1082 JUMPI INVALID JUMPDEST DUP3 PUSH1 0x6 DUP2 GT ISZERO PUSH2 0x108E JUMPI INVALID JUMPDEST EQ ISZERO PUSH2 0x10D6 JUMPI DUP1 PUSH1 0x1 PUSH1 0x0 PUSH2 0x100 EXP DUP2 SLOAD DUP2 PUSH20 0xFFFFFFFFFFFFFFFFFFFFFFFFFFFFFFFFFFFFFFFF MUL NOT AND SWAP1 DUP4 PUSH20 0xFFFFFFFFFFFFFFFFFFFFFFFFFFFFFFFFFFFFFFFF AND MUL OR SWAP1 SSTORE POP JUMPDEST PUSH1 0x2 PUSH1 0x6 DUP2 GT ISZERO PUSH2 0x10E3 JUMPI INVALID JUMPDEST DUP3 PUSH1 0x6 DUP2 GT ISZERO PUSH2 0x10EF JUMPI INVALID JUMPDEST EQ ISZERO PUSH2 0x1137 JUMPI DUP1 PUSH1 0x2 PUSH1 0x0 PUSH2 0x100 EXP DUP2 SLOAD DUP2 PUSH20 0xFFFFFFFFFFFFFFFFFFFFFFFFFFFFFFFFFFFFFFFF MUL NOT AND SWAP1 DUP4 PUSH20 0xFFFFFFFFFFFFFFFFFFFFFFFFFFFFFFFFFFFFFFFF AND MUL OR SWAP1 SSTORE POP JUMPDEST PUSH1 0x3 PUSH1 0x6 DUP2 GT ISZERO PUSH2 0x1144 JUMPI INVALID JUMPDEST DUP3 PUSH1 0x6 DUP2 GT ISZERO PUSH2 0x1150 JUMPI INVALID JUMPDEST EQ ISZERO PUSH2 0x1198 JUMPI DUP1 PUSH1 0x3 PUSH1 0x0 PUSH2 0x100 EXP DUP2 SLOAD DUP2 PUSH20 0xFFFFFFFFFFFFFFFFFFFFFFFFFFFFFFFFFFFFFFFF MUL NOT AND SWAP1 DUP4 PUSH20 0xFFFFFFFFFFFFFFFFFFFFFFFFFFFFFFFFFFFFFFFF AND MUL OR SWAP1 SSTORE POP JUMPDEST PUSH1 0x4 PUSH1 0x6 DUP2 GT ISZERO PUSH2 0x11A5 JUMPI INVALID JUMPDEST DUP3 PUSH1 0x6 DUP2 GT ISZERO PUSH2 0x11B1 JUMPI INVALID JUMPDEST EQ ISZERO PUSH2 0x11F9 JUMPI DUP1 PUSH1 0x4 PUSH1 0x0 PUSH2 0x100 EXP DUP2 SLOAD DUP2 PUSH20 0xFFFFFFFFFFFFFFFFFFFFFFFFFFFFFFFFFFFFFFFF MUL NOT AND SWAP1 DUP4 PUSH20 0xFFFFFFFFFFFFFFFFFFFFFFFFFFFFFFFFFFFFFFFF AND MUL OR SWAP1 SSTORE POP JUMPDEST PUSH1 0x5 PUSH1 0x6 DUP2 GT ISZERO PUSH2 0x1206 JUMPI INVALID JUMPDEST DUP3 PUSH1 0x6 DUP2 GT ISZERO PUSH2 0x1212 JUMPI INVALID JUMPDEST EQ ISZERO PUSH2 0x125A JUMPI DUP1 PUSH1 0x5 PUSH1 0x0 PUSH2 0x100 EXP DUP2 SLOAD DUP2 PUSH20 0xFFFFFFFFFFFFFFFFFFFFFFFFFFFFFFFFFFFFFFFF MUL NOT AND SWAP1 DUP4 PUSH20 0xFFFFFFFFFFFFFFFFFFFFFFFFFFFFFFFFFFFFFFFF AND MUL OR SWAP1 SSTORE POP JUMPDEST PUSH1 0x6 DUP1 DUP2 GT ISZERO PUSH2 0x1266 JUMPI INVALID JUMPDEST DUP3 PUSH1 0x6 DUP2 GT ISZERO PUSH2 0x1272 JUMPI INVALID JUMPDEST EQ ISZERO PUSH2 0x12BA JUMPI DUP1 PUSH1 0x6 PUSH1 0x0 PUSH2 0x100 EXP DUP2 SLOAD DUP2 PUSH20 0xFFFFFFFFFFFFFFFFFFFFFFFFFFFFFFFFFFFFFFFF MUL NOT AND SWAP1 DUP4 PUSH20 0xFFFFFFFFFFFFFFFFFFFFFFFFFFFFFFFFFFFFFFFF AND MUL OR SWAP1 SSTORE POP JUMPDEST POP POP JUMP JUMPDEST PUSH2 0x12C6 PUSH2 0x190B JUMP JUMPDEST PUSH1 0x4 PUSH1 0x0 SWAP1 SLOAD SWAP1 PUSH2 0x100 EXP SWAP1 DIV PUSH20 0xFFFFFFFFFFFFFFFFFFFFFFFFFFFFFFFFFFFFFFFF AND PUSH20 0xFFFFFFFFFFFFFFFFFFFFFFFFFFFFFFFFFFFFFFFF AND PUSH4 0xD4E03233 PUSH1 0x40 MLOAD DUP2 PUSH4 0xFFFFFFFF AND PUSH1 0xE0 SHL DUP2 MSTORE PUSH1 0x4 ADD PUSH1 0xE0 PUSH1 0x40 MLOAD DUP1 DUP4 SUB DUP2 DUP7 DUP1 EXTCODESIZE ISZERO DUP1 ISZERO PUSH2 0x132E JUMPI PUSH1 0x0 DUP1 REVERT JUMPDEST POP GAS STATICCALL ISZERO DUP1 ISZERO PUSH2 0x1342 JUMPI RETURNDATASIZE PUSH1 0x0 DUP1 RETURNDATACOPY RETURNDATASIZE PUSH1 0x0 REVERT JUMPDEST POP POP POP POP PUSH1 0x40 MLOAD RETURNDATASIZE PUSH1 0x1F NOT PUSH1 0x1F DUP3 ADD AND DUP3 ADD DUP1 PUSH1 0x40 MSTORE POP DUP2 ADD SWAP1 PUSH2 0x1366 SWAP2 SWAP1 PUSH2 0x3AB9 JUMP JUMPDEST SWAP1 POP SWAP1 JUMP JUMPDEST PUSH1 0x0 DUP1 PUSH1 0xA SWAP1 POP PUSH1 0x0 DUP5 SWAP1 POP PUSH1 0x8 DUP5 PUSH1 0xFF AND GT ISZERO PUSH2 0x1399 JUMPI PUSH1 0x8 DUP5 SUB SWAP2 POP DUP2 PUSH1 0xFF AND PUSH1 0xA EXP DUP6 MUL SWAP1 POP PUSH2 0x13BF JUMP JUMPDEST PUSH1 0x8 DUP5 PUSH1 0xFF AND LT ISZERO PUSH2 0x13BE JUMPI DUP4 PUSH1 0x8 SUB SWAP2 POP DUP2 PUSH1 0xFF AND PUSH1 0xA EXP DUP6 DUP2 PUSH2 0x13BA JUMPI INVALID JUMPDEST DIV SWAP1 POP JUMPDEST JUMPDEST DUP1 SWAP3 POP POP POP SWAP3 SWAP2 POP POP JUMP JUMPDEST PUSH1 0x5 PUSH1 0x0 SWAP1 SLOAD SWAP1 PUSH2 0x100 EXP SWAP1 DIV PUSH20 0xFFFFFFFFFFFFFFFFFFFFFFFFFFFFFFFFFFFFFFFF AND PUSH20 0xFFFFFFFFFFFFFFFFFFFFFFFFFFFFFFFFFFFFFFFF AND CALLER PUSH20 0xFFFFFFFFFFFFFFFFFFFFFFFFFFFFFFFFFFFFFFFF AND EQ PUSH2 0x145A JUMPI PUSH1 0x40 MLOAD PUSH32 0x8C379A000000000000000000000000000000000000000000000000000000000 DUP2 MSTORE PUSH1 0x4 ADD PUSH2 0x1451 SWAP1 PUSH2 0x5303 JUMP JUMPDEST PUSH1 0x40 MLOAD DUP1 SWAP2 SUB SWAP1 REVERT JUMPDEST DUP1 PUSH1 0x9 DUP2 SWAP1 SSTORE POP POP JUMP JUMPDEST PUSH1 0x0 PUSH1 0x5 PUSH1 0x0 SWAP1 SLOAD SWAP1 PUSH2 0x100 EXP SWAP1 DIV PUSH20 0xFFFFFFFFFFFFFFFFFFFFFFFFFFFFFFFFFFFFFFFF AND PUSH20 0xFFFFFFFFFFFFFFFFFFFFFFFFFFFFFFFFFFFFFFFF AND PUSH4 0xE45B909D DUP4 PUSH1 0x40 MLOAD DUP3 PUSH4 0xFFFFFFFF AND PUSH1 0xE0 SHL DUP2 MSTORE PUSH1 0x4 ADD PUSH2 0x14C1 SWAP2 SWAP1 PUSH2 0x543B JUMP JUMPDEST PUSH1 0x20 PUSH1 0x40 MLOAD DUP1 DUP4 SUB DUP2 DUP7 DUP1 EXTCODESIZE ISZERO DUP1 ISZERO PUSH2 0x14D9 JUMPI PUSH1 0x0 DUP1 REVERT JUMPDEST POP GAS STATICCALL ISZERO DUP1 ISZERO PUSH2 0x14ED JUMPI RETURNDATASIZE PUSH1 0x0 DUP1 RETURNDATACOPY RETURNDATASIZE PUSH1 0x0 REVERT JUMPDEST POP POP POP POP PUSH1 0x40 MLOAD RETURNDATASIZE PUSH1 0x1F NOT PUSH1 0x1F DUP3 ADD AND DUP3 ADD DUP1 PUSH1 0x40 MSTORE POP DUP2 ADD SWAP1 PUSH2 0x1511 SWAP2 SWAP1 PUSH2 0x38D1 JUMP JUMPDEST SWAP1 POP SWAP2 SWAP1 POP JUMP JUMPDEST PUSH1 0x60 PUSH1 0x5 PUSH1 0x0 SWAP1 SLOAD SWAP1 PUSH2 0x100 EXP SWAP1 DIV PUSH20 0xFFFFFFFFFFFFFFFFFFFFFFFFFFFFFFFFFFFFFFFF AND PUSH20 0xFFFFFFFFFFFFFFFFFFFFFFFFFFFFFFFFFFFFFFFF AND PUSH4 0xE4804ABC DUP5 DUP5 PUSH1 0x40 MLOAD DUP4 PUSH4 0xFFFFFFFF AND PUSH1 0xE0 SHL DUP2 MSTORE PUSH1 0x4 ADD PUSH2 0x1577 SWAP3 SWAP2 SWAP1 PUSH2 0x5456 JUMP JUMPDEST PUSH1 0x0 PUSH1 0x40 MLOAD DUP1 DUP4 SUB DUP2 DUP7 DUP1 EXTCODESIZE ISZERO DUP1 ISZERO PUSH2 0x158F JUMPI PUSH1 0x0 DUP1 REVERT JUMPDEST POP GAS STATICCALL ISZERO DUP1 ISZERO PUSH2 0x15A3 JUMPI RETURNDATASIZE PUSH1 0x0 DUP1 RETURNDATACOPY RETURNDATASIZE PUSH1 0x0 REVERT JUMPDEST POP POP POP POP PUSH1 0x40 MLOAD RETURNDATASIZE PUSH1 0x0 DUP3 RETURNDATACOPY RETURNDATASIZE PUSH1 0x1F NOT PUSH1 0x1F DUP3 ADD AND DUP3 ADD DUP1 PUSH1 0x40 MSTORE POP DUP2 ADD SWAP1 PUSH2 0x15CC SWAP2 SWAP1 PUSH2 0x3867 JUMP JUMPDEST SWAP1 POP SWAP3 SWAP2 POP POP JUMP JUMPDEST PUSH1 0x0 DUP1 PUSH1 0x6 DUP2 GT ISZERO PUSH2 0x15E2 JUMPI INVALID JUMPDEST DUP3 PUSH1 0x6 DUP2 GT ISZERO PUSH2 0x15EE JUMPI INVALID JUMPDEST EQ ISZERO PUSH2 0x1618 JUMPI PUSH1 0x0 DUP1 SLOAD SWAP1 PUSH2 0x100 EXP SWAP1 DIV PUSH20 0xFFFFFFFFFFFFFFFFFFFFFFFFFFFFFFFFFFFFFFFF AND SWAP1 POP JUMPDEST PUSH1 0x1 PUSH1 0x6 DUP2 GT ISZERO PUSH2 0x1625 JUMPI INVALID JUMPDEST DUP3 PUSH1 0x6 DUP2 GT ISZERO PUSH2 0x1631 JUMPI INVALID JUMPDEST EQ ISZERO PUSH2 0x165D JUMPI PUSH1 0x1 PUSH1 0x0 SWAP1 SLOAD SWAP1 PUSH2 0x100 EXP SWAP1 DIV PUSH20 0xFFFFFFFFFFFFFFFFFFFFFFFFFFFFFFFFFFFFFFFF AND SWAP1 POP JUMPDEST PUSH1 0x2 PUSH1 0x6 DUP2 GT ISZERO PUSH2 0x166A JUMPI INVALID JUMPDEST DUP3 PUSH1 0x6 DUP2 GT ISZERO PUSH2 0x1676 JUMPI INVALID JUMPDEST EQ ISZERO PUSH2 0x16A2 JUMPI PUSH1 0x2 PUSH1 0x0 SWAP1 SLOAD SWAP1 PUSH2 0x100 EXP SWAP1 DIV PUSH20 0xFFFFFFFFFFFFFFFFFFFFFFFFFFFFFFFFFFFFFFFF AND SWAP1 POP JUMPDEST PUSH1 0x3 PUSH1 0x6 DUP2 GT ISZERO PUSH2 0x16AF JUMPI INVALID JUMPDEST DUP3 PUSH1 0x6 DUP2 GT ISZERO PUSH2 0x16BB JUMPI INVALID JUMPDEST EQ ISZERO PUSH2 0x16E7 JUMPI PUSH1 0x3 PUSH1 0x0 SWAP1 SLOAD SWAP1 PUSH2 0x100 EXP SWAP1 DIV PUSH20 0xFFFFFFFFFFFFFFFFFFFFFFFFFFFFFFFFFFFFFFFF AND SWAP1 POP JUMPDEST PUSH1 0x4 PUSH1 0x6 DUP2 GT ISZERO PUSH2 0x16F4 JUMPI INVALID JUMPDEST DUP3 PUSH1 0x6 DUP2 GT ISZERO PUSH2 0x1700 JUMPI INVALID JUMPDEST EQ ISZERO PUSH2 0x172C JUMPI PUSH1 0x4 PUSH1 0x0 SWAP1 SLOAD SWAP1 PUSH2 0x100 EXP SWAP1 DIV PUSH20 0xFFFFFFFFFFFFFFFFFFFFFFFFFFFFFFFFFFFFFFFF AND SWAP1 POP JUMPDEST PUSH1 0x5 PUSH1 0x6 DUP2 GT ISZERO PUSH2 0x1739 JUMPI INVALID JUMPDEST DUP3 PUSH1 0x6 DUP2 GT ISZERO PUSH2 0x1745 JUMPI INVALID JUMPDEST EQ ISZERO PUSH2 0x1771 JUMPI PUSH1 0x5 PUSH1 0x0 SWAP1 SLOAD SWAP1 PUSH2 0x100 EXP SWAP1 DIV PUSH20 0xFFFFFFFFFFFFFFFFFFFFFFFFFFFFFFFFFFFFFFFF AND SWAP1 POP JUMPDEST PUSH1 0x6 DUP1 DUP2 GT ISZERO PUSH2 0x177D JUMPI INVALID JUMPDEST DUP3 PUSH1 0x6 DUP2 GT ISZERO PUSH2 0x1789 JUMPI INVALID JUMPDEST EQ ISZERO PUSH2 0x17B5 JUMPI PUSH1 0x6 PUSH1 0x0 SWAP1 SLOAD SWAP1 PUSH2 0x100 EXP SWAP1 DIV PUSH20 0xFFFFFFFFFFFFFFFFFFFFFFFFFFFFFFFFFFFFFFFF AND SWAP1 POP JUMPDEST SWAP2 SWAP1 POP JUMP JUMPDEST PUSH1 0x5 PUSH1 0x0 SWAP1 SLOAD SWAP1 PUSH2 0x100 EXP SWAP1 DIV PUSH20 0xFFFFFFFFFFFFFFFFFFFFFFFFFFFFFFFFFFFFFFFF AND PUSH20 0xFFFFFFFFFFFFFFFFFFFFFFFFFFFFFFFFFFFFFFFF AND CALLER PUSH20 0xFFFFFFFFFFFFFFFFFFFFFFFFFFFFFFFFFFFFFFFF AND EQ PUSH2 0x184A JUMPI PUSH1 0x40 MLOAD PUSH32 0x8C379A000000000000000000000000000000000000000000000000000000000 DUP2 MSTORE PUSH1 0x4 ADD PUSH2 0x1841 SWAP1 PUSH2 0x5303 JUMP JUMPDEST PUSH1 0x40 MLOAD DUP1 SWAP2 SUB SWAP1 REVERT JUMPDEST DUP1 PUSH1 0xB PUSH1 0x0 DUP5 PUSH20 0xFFFFFFFFFFFFFFFFFFFFFFFFFFFFFFFFFFFFFFFF AND PUSH20 0xFFFFFFFFFFFFFFFFFFFFFFFFFFFFFFFFFFFFFFFF AND DUP2 MSTORE PUSH1 0x20 ADD SWAP1 DUP2 MSTORE PUSH1 0x20 ADD PUSH1 0x0 KECCAK256 SLOAD ADD PUSH1 0xB PUSH1 0x0 DUP5 PUSH20 0xFFFFFFFFFFFFFFFFFFFFFFFFFFFFFFFFFFFFFFFF AND PUSH20 0xFFFFFFFFFFFFFFFFFFFFFFFFFFFFFFFFFFFFFFFF AND DUP2 MSTORE PUSH1 0x20 ADD SWAP1 DUP2 MSTORE PUSH1 0x20 ADD PUSH1 0x0 KECCAK256 DUP2 SWAP1 SSTORE POP POP POP JUMP JUMPDEST PUSH1 0x40 MLOAD DUP1 PUSH1 0xC0 ADD PUSH1 0x40 MSTORE DUP1 PUSH1 0x0 DUP2 MSTORE PUSH1 0x20 ADD PUSH1 0x60 DUP2 MSTORE PUSH1 0x20 ADD PUSH1 0x0 DUP2 MSTORE PUSH1 0x20 ADD PUSH1 0x0 DUP2 MSTORE PUSH1 0x20 ADD PUSH1 0x60 DUP2 MSTORE PUSH1 0x20 ADD PUSH1 0x0 ISZERO ISZERO DUP2 MSTORE POP SWAP1 JUMP JUMPDEST PUSH1 0x40 MLOAD DUP1 PUSH1 0xE0 ADD PUSH1 0x40 MSTORE DUP1 PUSH1 0x0 PUSH1 0x1 SIGNEXTEND DUP2 MSTORE PUSH1 0x20 ADD PUSH1 0x0 PUSH1 0x1 SIGNEXTEND DUP2 MSTORE PUSH1 0x20 ADD PUSH1 0x0 PUSH20 0xFFFFFFFFFFFFFFFFFFFFFFFFFFFFFFFFFFFFFFFF AND DUP2 MSTORE PUSH1 0x20 ADD PUSH1 0x0 PUSH4 0xFFFFFFFF AND DUP2 MSTORE PUSH1 0x20 ADD PUSH1 0x0 DUP1 NOT AND DUP2 MSTORE PUSH1 0x20 ADD PUSH1 0x0 DUP1 NOT AND DUP2 MSTORE PUSH1 0x20 ADD PUSH1 0x0 DUP1 NOT AND DUP2 MSTORE POP SWAP1 JUMP JUMPDEST PUSH1 0x0 PUSH2 0x1986 PUSH2 0x1981 DUP5 PUSH2 0x54CB JUMP JUMPDEST PUSH2 0x549A JUMP JUMPDEST SWAP1 POP DUP1 DUP4 DUP3 MSTORE PUSH1 0x20 DUP3 ADD SWAP1 POP DUP3 DUP6 PUSH1 0x20 DUP7 MUL DUP3 ADD GT ISZERO PUSH2 0x19A5 JUMPI PUSH1 0x0 DUP1 REVERT JUMPDEST PUSH1 0x0 JUMPDEST DUP6 DUP2 LT ISZERO PUSH2 0x19D5 JUMPI DUP2 PUSH2 0x19BB DUP9 DUP3 PUSH2 0x218B JUMP JUMPDEST DUP5 MSTORE PUSH1 0x20 DUP5 ADD SWAP4 POP PUSH1 0x20 DUP4 ADD SWAP3 POP POP PUSH1 0x1 DUP2 ADD SWAP1 POP PUSH2 0x19A8 JUMP JUMPDEST POP POP POP SWAP4 SWAP3 POP POP POP JUMP JUMPDEST PUSH1 0x0 PUSH2 0x19F2 PUSH2 0x19ED DUP5 PUSH2 0x54F7 JUMP JUMPDEST PUSH2 0x549A JUMP JUMPDEST SWAP1 POP DUP1 DUP4 DUP3 MSTORE PUSH1 0x20 DUP3 ADD SWAP1 POP DUP3 DUP6 PUSH1 0x20 DUP7 MUL DUP3 ADD GT ISZERO PUSH2 0x1A11 JUMPI PUSH1 0x0 DUP1 REVERT JUMPDEST PUSH1 0x0 JUMPDEST DUP6 DUP2 LT ISZERO PUSH2 0x1A41 JUMPI DUP2 PUSH2 0x1A27 DUP9 DUP3 PUSH2 0x24D3 JUMP JUMPDEST DUP5 MSTORE PUSH1 0x20 DUP5 ADD SWAP4 POP PUSH1 0x20 DUP4 ADD SWAP3 POP POP PUSH1 0x1 DUP2 ADD SWAP1 POP PUSH2 0x1A14 JUMP JUMPDEST POP POP POP SWAP4 SWAP3 POP POP POP JUMP JUMPDEST PUSH1 0x0 PUSH2 0x1A5E PUSH2 0x1A59 DUP5 PUSH2 0x54F7 JUMP JUMPDEST PUSH2 0x549A JUMP JUMPDEST SWAP1 POP DUP1 DUP4 DUP3 MSTORE PUSH1 0x20 DUP3 ADD SWAP1 POP DUP3 DUP6 PUSH1 0x20 DUP7 MUL DUP3 ADD GT ISZERO PUSH2 0x1A7D JUMPI PUSH1 0x0 DUP1 REVERT JUMPDEST PUSH1 0x0 JUMPDEST DUP6 DUP2 LT ISZERO PUSH2 0x1AAD JUMPI DUP2 PUSH2 0x1A93 DUP9 DUP3 PUSH2 0x24E8 JUMP JUMPDEST DUP5 MSTORE PUSH1 0x20 DUP5 ADD SWAP4 POP PUSH1 0x20 DUP4 ADD SWAP3 POP POP PUSH1 0x1 DUP2 ADD SWAP1 POP PUSH2 0x1A80 JUMP JUMPDEST POP POP POP SWAP4 SWAP3 POP POP POP JUMP JUMPDEST PUSH1 0x0 PUSH2 0x1ACA PUSH2 0x1AC5 DUP5 PUSH2 0x5523 JUMP JUMPDEST PUSH2 0x549A JUMP JUMPDEST SWAP1 POP DUP1 DUP4 DUP3 MSTORE PUSH1 0x20 DUP3 ADD SWAP1 POP DUP3 DUP6 PUSH1 0x20 DUP7 MUL DUP3 ADD GT ISZERO PUSH2 0x1AE9 JUMPI PUSH1 0x0 DUP1 REVERT JUMPDEST PUSH1 0x0 JUMPDEST DUP6 DUP2 LT ISZERO PUSH2 0x1B19 JUMPI DUP2 PUSH2 0x1AFF DUP9 DUP3 PUSH2 0x2590 JUMP JUMPDEST DUP5 MSTORE PUSH1 0x20 DUP5 ADD SWAP4 POP PUSH1 0x20 DUP4 ADD SWAP3 POP POP PUSH1 0x1 DUP2 ADD SWAP1 POP PUSH2 0x1AEC JUMP JUMPDEST POP POP POP SWAP4 SWAP3 POP POP POP JUMP JUMPDEST PUSH1 0x0 PUSH2 0x1B36 PUSH2 0x1B31 DUP5 PUSH2 0x554F JUMP JUMPDEST PUSH2 0x549A JUMP JUMPDEST SWAP1 POP DUP1 DUP4 DUP3 MSTORE PUSH1 0x20 DUP3 ADD SWAP1 POP DUP3 DUP6 PUSH1 0x20 DUP7 MUL DUP3 ADD GT ISZERO PUSH2 0x1B55 JUMPI PUSH1 0x0 DUP1 REVERT JUMPDEST PUSH1 0x0 JUMPDEST DUP6 DUP2 LT ISZERO PUSH2 0x1B85 JUMPI DUP2 PUSH2 0x1B6B DUP9 DUP3 PUSH2 0x25A5 JUMP JUMPDEST DUP5 MSTORE PUSH1 0x20 DUP5 ADD SWAP4 POP PUSH1 0x20 DUP4 ADD SWAP3 POP POP PUSH1 0x1 DUP2 ADD SWAP1 POP PUSH2 0x1B58 JUMP JUMPDEST POP POP POP SWAP4 SWAP3 POP POP POP JUMP JUMPDEST PUSH1 0x0 PUSH2 0x1BA2 PUSH2 0x1B9D DUP5 PUSH2 0x557B JUMP JUMPDEST PUSH2 0x549A JUMP JUMPDEST SWAP1 POP DUP1 DUP4 DUP3 MSTORE PUSH1 0x20 DUP3 ADD SWAP1 POP DUP3 PUSH1 0x0 JUMPDEST DUP6 DUP2 LT ISZERO PUSH2 0x1BE2 JUMPI DUP2 CALLDATALOAD DUP6 ADD PUSH2 0x1BC8 DUP9 DUP3 PUSH2 0x28FA JUMP JUMPDEST DUP5 MSTORE PUSH1 0x20 DUP5 ADD SWAP4 POP PUSH1 0x20 DUP4 ADD SWAP3 POP POP PUSH1 0x1 DUP2 ADD SWAP1 POP PUSH2 0x1BB2 JUMP JUMPDEST POP POP POP SWAP4 SWAP3 POP POP POP JUMP JUMPDEST PUSH1 0x0 PUSH2 0x1BFF PUSH2 0x1BFA DUP5 PUSH2 0x55A7 JUMP JUMPDEST PUSH2 0x549A JUMP JUMPDEST SWAP1 POP DUP1 DUP4 DUP3 MSTORE PUSH1 0x20 DUP3 ADD SWAP1 POP DUP3 DUP6 PUSH1 0x40 DUP7 MUL DUP3 ADD GT ISZERO PUSH2 0x1C1E JUMPI PUSH1 0x0 DUP1 REVERT JUMPDEST PUSH1 0x0 JUMPDEST DUP6 DUP2 LT ISZERO PUSH2 0x1C4E JUMPI DUP2 PUSH2 0x1C34 DUP9 DUP3 PUSH2 0x2B48 JUMP JUMPDEST DUP5 MSTORE PUSH1 0x20 DUP5 ADD SWAP4 POP PUSH1 0x40 DUP4 ADD SWAP3 POP POP PUSH1 0x1 DUP2 ADD SWAP1 POP PUSH2 0x1C21 JUMP JUMPDEST POP POP POP SWAP4 SWAP3 POP POP POP JUMP JUMPDEST PUSH1 0x0 PUSH2 0x1C6B PUSH2 0x1C66 DUP5 PUSH2 0x55D3 JUMP JUMPDEST PUSH2 0x549A JUMP JUMPDEST SWAP1 POP DUP1 DUP4 DUP3 MSTORE PUSH1 0x20 DUP3 ADD SWAP1 POP DUP3 PUSH1 0x0 JUMPDEST DUP6 DUP2 LT ISZERO PUSH2 0x1CAB JUMPI DUP2 CALLDATALOAD DUP6 ADD PUSH2 0x1C91 DUP9 DUP3 PUSH2 0x2C6C JUMP JUMPDEST DUP5 MSTORE PUSH1 0x20 DUP5 ADD SWAP4 POP PUSH1 0x20 DUP4 ADD SWAP3 POP POP PUSH1 0x1 DUP2 ADD SWAP1 POP PUSH2 0x1C7B JUMP JUMPDEST POP POP POP SWAP4 SWAP3 POP POP POP JUMP JUMPDEST PUSH1 0x0 PUSH2 0x1CC8 PUSH2 0x1CC3 DUP5 PUSH2 0x55FF JUMP JUMPDEST PUSH2 0x549A JUMP JUMPDEST SWAP1 POP DUP1 DUP4 DUP3 MSTORE PUSH1 0x20 DUP3 ADD SWAP1 POP DUP3 DUP6 PUSH1 0xE0 DUP7 MUL DUP3 ADD GT ISZERO PUSH2 0x1CE7 JUMPI PUSH1 0x0 DUP1 REVERT JUMPDEST PUSH1 0x0 JUMPDEST DUP6 DUP2 LT ISZERO PUSH2 0x1D17 JUMPI DUP2 PUSH2 0x1CFD DUP9 DUP3 PUSH2 0x2E67 JUMP JUMPDEST DUP5 MSTORE PUSH1 0x20 DUP5 ADD SWAP4 POP PUSH1 0xE0 DUP4 ADD SWAP3 POP POP PUSH1 0x1 DUP2 ADD SWAP1 POP PUSH2 0x1CEA JUMP JUMPDEST POP POP POP SWAP4 SWAP3 POP POP POP JUMP JUMPDEST PUSH1 0x0 PUSH2 0x1D34 PUSH2 0x1D2F DUP5 PUSH2 0x562B JUMP JUMPDEST PUSH2 0x549A JUMP JUMPDEST SWAP1 POP DUP1 DUP4 DUP3 MSTORE PUSH1 0x20 DUP3 ADD SWAP1 POP DUP3 PUSH1 0x0 JUMPDEST DUP6 DUP2 LT ISZERO PUSH2 0x1D74 JUMPI DUP2 CALLDATALOAD DUP6 ADD PUSH2 0x1D5A DUP9 DUP3 PUSH2 0x306B JUMP JUMPDEST DUP5 MSTORE PUSH1 0x20 DUP5 ADD SWAP4 POP PUSH1 0x20 DUP4 ADD SWAP3 POP POP PUSH1 0x1 DUP2 ADD SWAP1 POP PUSH2 0x1D44 JUMP JUMPDEST POP POP POP SWAP4 SWAP3 POP POP POP JUMP JUMPDEST PUSH1 0x0 PUSH2 0x1D91 PUSH2 0x1D8C DUP5 PUSH2 0x5657 JUMP JUMPDEST PUSH2 0x549A JUMP JUMPDEST SWAP1 POP DUP1 DUP4 DUP3 MSTORE PUSH1 0x20 DUP3 ADD SWAP1 POP DUP3 PUSH1 0x0 JUMPDEST DUP6 DUP2 LT ISZERO PUSH2 0x1DD1 JUMPI DUP2 MLOAD DUP6 ADD PUSH2 0x1DB7 DUP9 DUP3 PUSH2 0x314F JUMP JUMPDEST DUP5 MSTORE PUSH1 0x20 DUP5 ADD SWAP4 POP PUSH1 0x20 DUP4 ADD SWAP3 POP POP PUSH1 0x1 DUP2 ADD SWAP1 POP PUSH2 0x1DA1 JUMP JUMPDEST POP POP POP SWAP4 SWAP3 POP POP POP JUMP JUMPDEST PUSH1 0x0 PUSH2 0x1DEE PUSH2 0x1DE9 DUP5 PUSH2 0x5683 JUMP JUMPDEST PUSH2 0x549A JUMP JUMPDEST SWAP1 POP DUP1 DUP4 DUP3 MSTORE PUSH1 0x20 DUP3 ADD SWAP1 POP DUP3 PUSH1 0x0 JUMPDEST DUP6 DUP2 LT ISZERO PUSH2 0x1E2E JUMPI DUP2 CALLDATALOAD DUP6 ADD PUSH2 0x1E14 DUP9 DUP3 PUSH2 0x31DB JUMP JUMPDEST DUP5 MSTORE PUSH1 0x20 DUP5 ADD SWAP4 POP PUSH1 0x20 DUP4 ADD SWAP3 POP POP PUSH1 0x1 DUP2 ADD SWAP1 POP PUSH2 0x1DFE JUMP JUMPDEST POP POP POP SWAP4 SWAP3 POP POP POP JUMP JUMPDEST PUSH1 0x0 PUSH2 0x1E4B PUSH2 0x1E46 DUP5 PUSH2 0x5683 JUMP JUMPDEST PUSH2 0x549A JUMP JUMPDEST SWAP1 POP DUP1 DUP4 DUP3 MSTORE PUSH1 0x20 DUP3 ADD SWAP1 POP DUP3 PUSH1 0x0 JUMPDEST DUP6 DUP2 LT ISZERO PUSH2 0x1E8B JUMPI DUP2 MLOAD DUP6 ADD PUSH2 0x1E71 DUP9 DUP3 PUSH2 0x32D0 JUMP JUMPDEST DUP5 MSTORE PUSH1 0x20 DUP5 ADD SWAP4 POP PUSH1 0x20 DUP4 ADD SWAP3 POP POP PUSH1 0x1 DUP2 ADD SWAP1 POP PUSH2 0x1E5B JUMP JUMPDEST POP POP POP SWAP4 SWAP3 POP POP POP JUMP JUMPDEST PUSH1 0x0 PUSH2 0x1EA8 PUSH2 0x1EA3 DUP5 PUSH2 0x56AF JUMP JUMPDEST PUSH2 0x549A JUMP JUMPDEST SWAP1 POP DUP1 DUP4 DUP3 MSTORE PUSH1 0x20 DUP3 ADD SWAP1 POP DUP3 PUSH1 0x0 JUMPDEST DUP6 DUP2 LT ISZERO PUSH2 0x1EE8 JUMPI DUP2 CALLDATALOAD DUP6 ADD PUSH2 0x1ECE DUP9 DUP3 PUSH2 0x33C5 JUMP JUMPDEST DUP5 MSTORE PUSH1 0x20 DUP5 ADD SWAP4 POP PUSH1 0x20 DUP4 ADD SWAP3 POP POP PUSH1 0x1 DUP2 ADD SWAP1 POP PUSH2 0x1EB8 JUMP JUMPDEST POP POP POP SWAP4 SWAP3 POP POP POP JUMP JUMPDEST PUSH1 0x0 PUSH2 0x1F05 PUSH2 0x1F00 DUP5 PUSH2 0x56DB JUMP JUMPDEST PUSH2 0x549A JUMP JUMPDEST SWAP1 POP DUP1 DUP4 DUP3 MSTORE PUSH1 0x20 DUP3 ADD SWAP1 POP DUP3 PUSH1 0x0 JUMPDEST DUP6 DUP2 LT ISZERO PUSH2 0x1F45 JUMPI DUP2 CALLDATALOAD DUP6 ADD PUSH2 0x1F2B DUP9 DUP3 PUSH2 0x353D JUMP JUMPDEST DUP5 MSTORE PUSH1 0x20 DUP5 ADD SWAP4 POP PUSH1 0x20 DUP4 ADD SWAP3 POP POP PUSH1 0x1 DUP2 ADD SWAP1 POP PUSH2 0x1F15 JUMP JUMPDEST POP POP POP SWAP4 SWAP3 POP POP POP JUMP JUMPDEST PUSH1 0x0 PUSH2 0x1F62 PUSH2 0x1F5D DUP5 PUSH2 0x5707 JUMP JUMPDEST PUSH2 0x549A JUMP JUMPDEST SWAP1 POP DUP1 DUP4 DUP3 MSTORE PUSH1 0x20 DUP3 ADD SWAP1 POP DUP3 DUP6 PUSH1 0x20 DUP7 MUL DUP3 ADD GT ISZERO PUSH2 0x1F81 JUMPI PUSH1 0x0 DUP1 REVERT JUMPDEST PUSH1 0x0 JUMPDEST DUP6 DUP2 LT ISZERO PUSH2 0x1FB1 JUMPI DUP2 PUSH2 0x1F97 DUP9 DUP3 PUSH2 0x3682 JUMP JUMPDEST DUP5 MSTORE PUSH1 0x20 DUP5 ADD SWAP4 POP PUSH1 0x20 DUP4 ADD SWAP3 POP POP PUSH1 0x1 DUP2 ADD SWAP1 POP PUSH2 0x1F84 JUMP JUMPDEST POP POP POP SWAP4 SWAP3 POP POP POP JUMP JUMPDEST PUSH1 0x0 PUSH2 0x1FCE PUSH2 0x1FC9 DUP5 PUSH2 0x5733 JUMP JUMPDEST PUSH2 0x549A JUMP JUMPDEST SWAP1 POP DUP1 DUP4 DUP3 MSTORE PUSH1 0x20 DUP3 ADD SWAP1 POP DUP3 DUP6 PUSH1 0x20 DUP7 MUL DUP3 ADD GT ISZERO PUSH2 0x1FED JUMPI PUSH1 0x0 DUP1 REVERT JUMPDEST PUSH1 0x0 JUMPDEST DUP6 DUP2 LT ISZERO PUSH2 0x201D JUMPI DUP2 PUSH2 0x2003 DUP9 DUP3 PUSH2 0x36C1 JUMP JUMPDEST DUP5 MSTORE PUSH1 0x20 DUP5 ADD SWAP4 POP PUSH1 0x20 DUP4 ADD SWAP3 POP POP PUSH1 0x1 DUP2 ADD SWAP1 POP PUSH2 0x1FF0 JUMP JUMPDEST POP POP POP SWAP4 SWAP3 POP POP POP JUMP JUMPDEST PUSH1 0x0 PUSH2 0x203A PUSH2 0x2035 DUP5 PUSH2 0x575F JUMP JUMPDEST PUSH2 0x549A JUMP JUMPDEST SWAP1 POP DUP1 DUP4 DUP3 MSTORE PUSH1 0x20 DUP3 ADD SWAP1 POP DUP3 DUP6 PUSH1 0x20 DUP7 MUL DUP3 ADD GT ISZERO PUSH2 0x2059 JUMPI PUSH1 0x0 DUP1 REVERT JUMPDEST PUSH1 0x0 JUMPDEST DUP6 DUP2 LT ISZERO PUSH2 0x2089 JUMPI DUP2 PUSH2 0x206F DUP9 DUP3 PUSH2 0x3715 JUMP JUMPDEST DUP5 MSTORE PUSH1 0x20 DUP5 ADD SWAP4 POP PUSH1 0x20 DUP4 ADD SWAP3 POP POP PUSH1 0x1 DUP2 ADD SWAP1 POP PUSH2 0x205C JUMP JUMPDEST POP POP POP SWAP4 SWAP3 POP POP POP JUMP JUMPDEST PUSH1 0x0 PUSH2 0x20A6 PUSH2 0x20A1 DUP5 PUSH2 0x578B JUMP JUMPDEST PUSH2 0x549A JUMP JUMPDEST SWAP1 POP DUP3 DUP2 MSTORE PUSH1 0x20 DUP2 ADD DUP5 DUP5 DUP5 ADD GT ISZERO PUSH2 0x20BE JUMPI PUSH1 0x0 DUP1 REVERT JUMPDEST PUSH2 0x20C9 DUP5 DUP3 DUP6 PUSH2 0x5C9F JUMP JUMPDEST POP SWAP4 SWAP3 POP POP POP JUMP JUMPDEST PUSH1 0x0 PUSH2 0x20E4 PUSH2 0x20DF DUP5 PUSH2 0x578B JUMP JUMPDEST PUSH2 0x549A JUMP JUMPDEST SWAP1 POP DUP3 DUP2 MSTORE PUSH1 0x20 DUP2 ADD DUP5 DUP5 DUP5 ADD GT ISZERO PUSH2 0x20FC JUMPI PUSH1 0x0 DUP1 REVERT JUMPDEST PUSH2 0x2107 DUP5 DUP3 DUP6 PUSH2 0x5CAE JUMP JUMPDEST POP SWAP4 SWAP3 POP POP POP JUMP JUMPDEST PUSH1 0x0 PUSH2 0x2122 PUSH2 0x211D DUP5 PUSH2 0x57BB JUMP JUMPDEST PUSH2 0x549A JUMP JUMPDEST SWAP1 POP DUP3 DUP2 MSTORE PUSH1 0x20 DUP2 ADD DUP5 DUP5 DUP5 ADD GT ISZERO PUSH2 0x213A JUMPI PUSH1 0x0 DUP1 REVERT JUMPDEST PUSH2 0x2145 DUP5 DUP3 DUP6 PUSH2 0x5C9F JUMP JUMPDEST POP SWAP4 SWAP3 POP POP POP JUMP JUMPDEST PUSH1 0x0 PUSH2 0x2160 PUSH2 0x215B DUP5 PUSH2 0x57BB JUMP JUMPDEST PUSH2 0x549A JUMP JUMPDEST SWAP1 POP DUP3 DUP2 MSTORE PUSH1 0x20 DUP2 ADD DUP5 DUP5 DUP5 ADD GT ISZERO PUSH2 0x2178 JUMPI PUSH1 0x0 DUP1 REVERT JUMPDEST PUSH2 0x2183 DUP5 DUP3 DUP6 PUSH2 0x5CAE JUMP JUMPDEST POP SWAP4 SWAP3 POP POP POP JUMP JUMPDEST PUSH1 0x0 DUP2 CALLDATALOAD SWAP1 POP PUSH2 0x219A DUP2 PUSH2 0x5CF4 JUMP JUMPDEST SWAP3 SWAP2 POP POP JUMP JUMPDEST PUSH1 0x0 DUP2 MLOAD SWAP1 POP PUSH2 0x21AF DUP2 PUSH2 0x5CF4 JUMP JUMPDEST SWAP3 SWAP2 POP POP JUMP JUMPDEST PUSH1 0x0 DUP2 CALLDATALOAD SWAP1 POP PUSH2 0x21C4 DUP2 PUSH2 0x5D0B JUMP JUMPDEST SWAP3 SWAP2 POP POP JUMP JUMPDEST PUSH1 0x0 DUP3 PUSH1 0x1F DUP4 ADD SLT PUSH2 0x21DB JUMPI PUSH1 0x0 DUP1 REVERT JUMPDEST DUP2 CALLDATALOAD PUSH2 0x21EB DUP5 DUP3 PUSH1 0x20 DUP7 ADD PUSH2 0x1973 JUMP JUMPDEST SWAP2 POP POP SWAP3 SWAP2 POP POP JUMP JUMPDEST PUSH1 0x0 DUP3 PUSH1 0x1F DUP4 ADD SLT PUSH2 0x2205 JUMPI PUSH1 0x0 DUP1 REVERT JUMPDEST DUP2 CALLDATALOAD PUSH2 0x2215 DUP5 DUP3 PUSH1 0x20 DUP7 ADD PUSH2 0x19DF JUMP JUMPDEST SWAP2 POP POP SWAP3 SWAP2 POP POP JUMP JUMPDEST PUSH1 0x0 DUP3 PUSH1 0x1F DUP4 ADD SLT PUSH2 0x222F JUMPI PUSH1 0x0 DUP1 REVERT JUMPDEST DUP2 MLOAD PUSH2 0x223F DUP5 DUP3 PUSH1 0x20 DUP7 ADD PUSH2 0x1A4B JUMP JUMPDEST SWAP2 POP POP SWAP3 SWAP2 POP POP JUMP JUMPDEST PUSH1 0x0 DUP3 PUSH1 0x1F DUP4 ADD SLT PUSH2 0x2259 JUMPI PUSH1 0x0 DUP1 REVERT JUMPDEST DUP2 CALLDATALOAD PUSH2 0x2269 DUP5 DUP3 PUSH1 0x20 DUP7 ADD PUSH2 0x1AB7 JUMP JUMPDEST SWAP2 POP POP SWAP3 SWAP2 POP POP JUMP JUMPDEST PUSH1 0x0 DUP3 PUSH1 0x1F DUP4 ADD SLT PUSH2 0x2283 JUMPI PUSH1 0x0 DUP1 REVERT JUMPDEST DUP2 CALLDATALOAD PUSH2 0x2293 DUP5 DUP3 PUSH1 0x20 DUP7 ADD PUSH2 0x1B23 JUMP JUMPDEST SWAP2 POP POP SWAP3 SWAP2 POP POP JUMP JUMPDEST PUSH1 0x0 DUP3 PUSH1 0x1F DUP4 ADD SLT PUSH2 0x22AD JUMPI PUSH1 0x0 DUP1 REVERT JUMPDEST DUP2 CALLDATALOAD PUSH2 0x22BD DUP5 DUP3 PUSH1 0x20 DUP7 ADD PUSH2 0x1B8F JUMP JUMPDEST SWAP2 POP POP SWAP3 SWAP2 POP POP JUMP JUMPDEST PUSH1 0x0 DUP3 PUSH1 0x1F DUP4 ADD SLT PUSH2 0x22D7 JUMPI PUSH1 0x0 DUP1 REVERT JUMPDEST DUP2 CALLDATALOAD PUSH2 0x22E7 DUP5 DUP3 PUSH1 0x20 DUP7 ADD PUSH2 0x1BEC JUMP JUMPDEST SWAP2 POP POP SWAP3 SWAP2 POP POP JUMP JUMPDEST PUSH1 0x0 DUP3 PUSH1 0x1F DUP4 ADD SLT PUSH2 0x2301 JUMPI PUSH1 0x0 DUP1 REVERT JUMPDEST DUP2 CALLDATALOAD PUSH2 0x2311 DUP5 DUP3 PUSH1 0x20 DUP7 ADD PUSH2 0x1C58 JUMP JUMPDEST SWAP2 POP POP SWAP3 SWAP2 POP POP JUMP JUMPDEST PUSH1 0x0 DUP3 PUSH1 0x1F DUP4 ADD SLT PUSH2 0x232B JUMPI PUSH1 0x0 DUP1 REVERT JUMPDEST DUP2 CALLDATALOAD PUSH2 0x233B DUP5 DUP3 PUSH1 0x20 DUP7 ADD PUSH2 0x1CB5 JUMP JUMPDEST SWAP2 POP POP SWAP3 SWAP2 POP POP JUMP JUMPDEST PUSH1 0x0 DUP3 PUSH1 0x1F DUP4 ADD SLT PUSH2 0x2355 JUMPI PUSH1 0x0 DUP1 REVERT JUMPDEST DUP2 CALLDATALOAD PUSH2 0x2365 DUP5 DUP3 PUSH1 0x20 DUP7 ADD PUSH2 0x1D21 JUMP JUMPDEST SWAP2 POP POP SWAP3 SWAP2 POP POP JUMP JUMPDEST PUSH1 0x0 DUP3 PUSH1 0x1F DUP4 ADD SLT PUSH2 0x237F JUMPI PUSH1 0x0 DUP1 REVERT JUMPDEST DUP2 MLOAD PUSH2 0x238F DUP5 DUP3 PUSH1 0x20 DUP7 ADD PUSH2 0x1D7E JUMP JUMPDEST SWAP2 POP POP SWAP3 SWAP2 POP POP JUMP JUMPDEST PUSH1 0x0 DUP3 PUSH1 0x1F DUP4 ADD SLT PUSH2 0x23A9 JUMPI PUSH1 0x0 DUP1 REVERT JUMPDEST DUP2 CALLDATALOAD PUSH2 0x23B9 DUP5 DUP3 PUSH1 0x20 DUP7 ADD PUSH2 0x1DDB JUMP JUMPDEST SWAP2 POP POP SWAP3 SWAP2 POP POP JUMP JUMPDEST PUSH1 0x0 DUP3 PUSH1 0x1F DUP4 ADD SLT PUSH2 0x23D3 JUMPI PUSH1 0x0 DUP1 REVERT JUMPDEST DUP2 MLOAD PUSH2 0x23E3 DUP5 DUP3 PUSH1 0x20 DUP7 ADD PUSH2 0x1E38 JUMP JUMPDEST SWAP2 POP POP SWAP3 SWAP2 POP POP JUMP JUMPDEST PUSH1 0x0 DUP3 PUSH1 0x1F DUP4 ADD SLT PUSH2 0x23FD JUMPI PUSH1 0x0 DUP1 REVERT JUMPDEST DUP2 CALLDATALOAD PUSH2 0x240D DUP5 DUP3 PUSH1 0x20 DUP7 ADD PUSH2 0x1E95 JUMP JUMPDEST SWAP2 POP POP SWAP3 SWAP2 POP POP JUMP JUMPDEST PUSH1 0x0 DUP3 PUSH1 0x1F DUP4 ADD SLT PUSH2 0x2427 JUMPI PUSH1 0x0 DUP1 REVERT JUMPDEST DUP2 CALLDATALOAD PUSH2 0x2437 DUP5 DUP3 PUSH1 0x20 DUP7 ADD PUSH2 0x1EF2 JUMP JUMPDEST SWAP2 POP POP SWAP3 SWAP2 POP POP JUMP JUMPDEST PUSH1 0x0 DUP3 PUSH1 0x1F DUP4 ADD SLT PUSH2 0x2451 JUMPI PUSH1 0x0 DUP1 REVERT JUMPDEST DUP2 CALLDATALOAD PUSH2 0x2461 DUP5 DUP3 PUSH1 0x20 DUP7 ADD PUSH2 0x1F4F JUMP JUMPDEST SWAP2 POP POP SWAP3 SWAP2 POP POP JUMP JUMPDEST PUSH1 0x0 DUP3 PUSH1 0x1F DUP4 ADD SLT PUSH2 0x247B JUMPI PUSH1 0x0 DUP1 REVERT JUMPDEST DUP2 CALLDATALOAD PUSH2 0x248B DUP5 DUP3 PUSH1 0x20 DUP7 ADD PUSH2 0x1FBB JUMP JUMPDEST SWAP2 POP POP SWAP3 SWAP2 POP POP JUMP JUMPDEST PUSH1 0x0 DUP3 PUSH1 0x1F DUP4 ADD SLT PUSH2 0x24A5 JUMPI PUSH1 0x0 DUP1 REVERT JUMPDEST DUP2 CALLDATALOAD PUSH2 0x24B5 DUP5 DUP3 PUSH1 0x20 DUP7 ADD PUSH2 0x2027 JUMP JUMPDEST SWAP2 POP POP SWAP3 SWAP2 POP POP JUMP JUMPDEST PUSH1 0x0 DUP2 MLOAD SWAP1 POP PUSH2 0x24CD DUP2 PUSH2 0x5D22 JUMP JUMPDEST SWAP3 SWAP2 POP POP JUMP JUMPDEST PUSH1 0x0 DUP2 CALLDATALOAD SWAP1 POP PUSH2 0x24E2 DUP2 PUSH2 0x5D39 JUMP JUMPDEST SWAP3 SWAP2 POP POP JUMP JUMPDEST PUSH1 0x0 DUP2 MLOAD SWAP1 POP PUSH2 0x24F7 DUP2 PUSH2 0x5D39 JUMP JUMPDEST SWAP3 SWAP2 POP POP JUMP JUMPDEST PUSH1 0x0 DUP3 PUSH1 0x1F DUP4 ADD SLT PUSH2 0x250E JUMPI PUSH1 0x0 DUP1 REVERT JUMPDEST DUP2 CALLDATALOAD PUSH2 0x251E DUP5 DUP3 PUSH1 0x20 DUP7 ADD PUSH2 0x2093 JUMP JUMPDEST SWAP2 POP POP SWAP3 SWAP2 POP POP JUMP JUMPDEST PUSH1 0x0 DUP3 PUSH1 0x1F DUP4 ADD SLT PUSH2 0x2538 JUMPI PUSH1 0x0 DUP1 REVERT JUMPDEST DUP2 MLOAD PUSH2 0x2548 DUP5 DUP3 PUSH1 0x20 DUP7 ADD PUSH2 0x20D1 JUMP JUMPDEST SWAP2 POP POP SWAP3 SWAP2 POP POP JUMP JUMPDEST PUSH1 0x0 DUP2 CALLDATALOAD SWAP1 POP PUSH2 0x2560 DUP2 PUSH2 0x5D50 JUMP JUMPDEST SWAP3 SWAP2 POP POP JUMP JUMPDEST PUSH1 0x0 DUP2 CALLDATALOAD SWAP1 POP PUSH2 0x2575 DUP2 PUSH2 0x5D60 JUMP JUMPDEST SWAP3 SWAP2 POP POP JUMP JUMPDEST PUSH1 0x0 DUP2 MLOAD SWAP1 POP PUSH2 0x258A DUP2 PUSH2 0x5D60 JUMP JUMPDEST SWAP3 SWAP2 POP POP JUMP JUMPDEST PUSH1 0x0 DUP2 CALLDATALOAD SWAP1 POP PUSH2 0x259F DUP2 PUSH2 0x5D77 JUMP JUMPDEST SWAP3 SWAP2 POP POP JUMP JUMPDEST PUSH1 0x0 DUP2 CALLDATALOAD SWAP1 POP PUSH2 0x25B4 DUP2 PUSH2 0x5D8E JUMP JUMPDEST SWAP3 SWAP2 POP POP JUMP JUMPDEST PUSH1 0x0 DUP3 PUSH1 0x1F DUP4 ADD SLT PUSH2 0x25CB JUMPI PUSH1 0x0 DUP1 REVERT JUMPDEST DUP2 CALLDATALOAD PUSH2 0x25DB DUP5 DUP3 PUSH1 0x20 DUP7 ADD PUSH2 0x210F JUMP JUMPDEST SWAP2 POP POP SWAP3 SWAP2 POP POP JUMP JUMPDEST PUSH1 0x0 DUP3 PUSH1 0x1F DUP4 ADD SLT PUSH2 0x25F5 JUMPI PUSH1 0x0 DUP1 REVERT JUMPDEST DUP2 MLOAD PUSH2 0x2605 DUP5 DUP3 PUSH1 0x20 DUP7 ADD PUSH2 0x214D JUMP JUMPDEST SWAP2 POP POP SWAP3 SWAP2 POP POP JUMP JUMPDEST PUSH1 0x0 PUSH2 0x2A0 DUP3 DUP5 SUB SLT ISZERO PUSH2 0x2621 JUMPI PUSH1 0x0 DUP1 REVERT JUMPDEST PUSH2 0x262C PUSH2 0x2A0 PUSH2 0x549A JUMP JUMPDEST SWAP1 POP PUSH1 0x0 PUSH2 0x263C DUP5 DUP3 DUP6 ADD PUSH2 0x366D JUMP JUMPDEST PUSH1 0x0 DUP4 ADD MSTORE POP PUSH1 0x20 PUSH2 0x2650 DUP5 DUP3 DUP6 ADD PUSH2 0x366D JUMP JUMPDEST PUSH1 0x20 DUP4 ADD MSTORE POP PUSH1 0x40 PUSH2 0x2664 DUP5 DUP3 DUP6 ADD PUSH2 0x218B JUMP JUMPDEST PUSH1 0x40 DUP4 ADD MSTORE POP PUSH1 0x60 DUP3 ADD CALLDATALOAD PUSH8 0xFFFFFFFFFFFFFFFF DUP2 GT ISZERO PUSH2 0x2684 JUMPI PUSH1 0x0 DUP1 REVERT JUMPDEST PUSH2 0x2690 DUP5 DUP3 DUP6 ADD PUSH2 0x2440 JUMP JUMPDEST PUSH1 0x60 DUP4 ADD MSTORE POP PUSH1 0x80 DUP3 ADD CALLDATALOAD PUSH8 0xFFFFFFFFFFFFFFFF DUP2 GT ISZERO PUSH2 0x26B0 JUMPI PUSH1 0x0 DUP1 REVERT JUMPDEST PUSH2 0x26BC DUP5 DUP3 DUP6 ADD PUSH2 0x2248 JUMP JUMPDEST PUSH1 0x80 DUP4 ADD MSTORE POP PUSH1 0xA0 DUP3 ADD CALLDATALOAD PUSH8 0xFFFFFFFFFFFFFFFF DUP2 GT ISZERO PUSH2 0x26DC JUMPI PUSH1 0x0 DUP1 REVERT JUMPDEST PUSH2 0x26E8 DUP5 DUP3 DUP6 ADD PUSH2 0x2272 JUMP JUMPDEST PUSH1 0xA0 DUP4 ADD MSTORE POP PUSH1 0xC0 PUSH2 0x26FC DUP5 DUP3 DUP6 ADD PUSH2 0x25A5 JUMP JUMPDEST PUSH1 0xC0 DUP4 ADD MSTORE POP PUSH1 0xE0 PUSH2 0x2710 DUP5 DUP3 DUP6 ADD PUSH2 0x25A5 JUMP JUMPDEST PUSH1 0xE0 DUP4 ADD MSTORE POP PUSH2 0x100 PUSH2 0x2725 DUP5 DUP3 DUP6 ADD PUSH2 0x25A5 JUMP JUMPDEST PUSH2 0x100 DUP4 ADD MSTORE POP PUSH2 0x120 PUSH2 0x273B DUP5 DUP3 DUP6 ADD PUSH2 0x25A5 JUMP JUMPDEST PUSH2 0x120 DUP4 ADD MSTORE POP PUSH2 0x140 PUSH2 0x2751 DUP5 DUP3 DUP6 ADD PUSH2 0x25A5 JUMP JUMPDEST PUSH2 0x140 DUP4 ADD MSTORE POP PUSH2 0x160 PUSH2 0x2767 DUP5 DUP3 DUP6 ADD PUSH2 0x25A5 JUMP JUMPDEST PUSH2 0x160 DUP4 ADD MSTORE POP PUSH2 0x180 PUSH2 0x277D DUP5 DUP3 DUP6 ADD PUSH2 0x25A5 JUMP JUMPDEST PUSH2 0x180 DUP4 ADD MSTORE POP PUSH2 0x1A0 DUP3 ADD CALLDATALOAD PUSH8 0xFFFFFFFFFFFFFFFF DUP2 GT ISZERO PUSH2 0x279F JUMPI PUSH1 0x0 DUP1 REVERT JUMPDEST PUSH2 0x27AB DUP5 DUP3 DUP6 ADD PUSH2 0x2272 JUMP JUMPDEST PUSH2 0x1A0 DUP4 ADD MSTORE POP PUSH2 0x1C0 DUP3 ADD CALLDATALOAD PUSH8 0xFFFFFFFFFFFFFFFF DUP2 GT ISZERO PUSH2 0x27CD JUMPI PUSH1 0x0 DUP1 REVERT JUMPDEST PUSH2 0x27D9 DUP5 DUP3 DUP6 ADD PUSH2 0x2272 JUMP JUMPDEST PUSH2 0x1C0 DUP4 ADD MSTORE POP PUSH2 0x1E0 DUP3 ADD CALLDATALOAD PUSH8 0xFFFFFFFFFFFFFFFF DUP2 GT ISZERO PUSH2 0x27FB JUMPI PUSH1 0x0 DUP1 REVERT JUMPDEST PUSH2 0x2807 DUP5 DUP3 DUP6 ADD PUSH2 0x2272 JUMP JUMPDEST PUSH2 0x1E0 DUP4 ADD MSTORE POP PUSH2 0x200 DUP3 ADD CALLDATALOAD PUSH8 0xFFFFFFFFFFFFFFFF DUP2 GT ISZERO PUSH2 0x2829 JUMPI PUSH1 0x0 DUP1 REVERT JUMPDEST PUSH2 0x2835 DUP5 DUP3 DUP6 ADD PUSH2 0x2272 JUMP JUMPDEST PUSH2 0x200 DUP4 ADD MSTORE POP PUSH2 0x220 DUP3 ADD CALLDATALOAD PUSH8 0xFFFFFFFFFFFFFFFF DUP2 GT ISZERO PUSH2 0x2857 JUMPI PUSH1 0x0 DUP1 REVERT JUMPDEST PUSH2 0x2863 DUP5 DUP3 DUP6 ADD PUSH2 0x2272 JUMP JUMPDEST PUSH2 0x220 DUP4 ADD MSTORE POP PUSH2 0x240 DUP3 ADD CALLDATALOAD PUSH8 0xFFFFFFFFFFFFFFFF DUP2 GT ISZERO PUSH2 0x2885 JUMPI PUSH1 0x0 DUP1 REVERT JUMPDEST PUSH2 0x2891 DUP5 DUP3 DUP6 ADD PUSH2 0x2272 JUMP JUMPDEST PUSH2 0x240 DUP4 ADD MSTORE POP PUSH2 0x260 DUP3 ADD CALLDATALOAD PUSH8 0xFFFFFFFFFFFFFFFF DUP2 GT ISZERO PUSH2 0x28B3 JUMPI PUSH1 0x0 DUP1 REVERT JUMPDEST PUSH2 0x28BF DUP5 DUP3 DUP6 ADD PUSH2 0x2248 JUMP JUMPDEST PUSH2 0x260 DUP4 ADD MSTORE POP PUSH2 0x280 DUP3 ADD CALLDATALOAD PUSH8 0xFFFFFFFFFFFFFFFF DUP2 GT ISZERO PUSH2 0x28E1 JUMPI PUSH1 0x0 DUP1 REVERT JUMPDEST PUSH2 0x28ED DUP5 DUP3 DUP6 ADD PUSH2 0x2272 JUMP JUMPDEST PUSH2 0x280 DUP4 ADD MSTORE POP SWAP3 SWAP2 POP POP JUMP JUMPDEST PUSH1 0x0 PUSH1 0x80 DUP3 DUP5 SUB SLT ISZERO PUSH2 0x290C JUMPI PUSH1 0x0 DUP1 REVERT JUMPDEST PUSH2 0x2916 PUSH1 0x80 PUSH2 0x549A JUMP JUMPDEST SWAP1 POP PUSH1 0x0 PUSH2 0x2926 DUP5 DUP3 DUP6 ADD PUSH2 0x3715 JUMP JUMPDEST PUSH1 0x0 DUP4 ADD MSTORE POP PUSH1 0x20 PUSH2 0x293A DUP5 DUP3 DUP6 ADD PUSH2 0x3715 JUMP JUMPDEST PUSH1 0x20 DUP4 ADD MSTORE POP PUSH1 0x40 DUP3 ADD CALLDATALOAD PUSH8 0xFFFFFFFFFFFFFFFF DUP2 GT ISZERO PUSH2 0x295A JUMPI PUSH1 0x0 DUP1 REVERT JUMPDEST PUSH2 0x2966 DUP5 DUP3 DUP6 ADD PUSH2 0x24FD JUMP JUMPDEST PUSH1 0x40 DUP4 ADD MSTORE POP PUSH1 0x60 DUP3 ADD CALLDATALOAD PUSH8 0xFFFFFFFFFFFFFFFF DUP2 GT ISZERO PUSH2 0x2986 JUMPI PUSH1 0x0 DUP1 REVERT JUMPDEST PUSH2 0x2992 DUP5 DUP3 DUP6 ADD PUSH2 0x23EC JUMP JUMPDEST PUSH1 0x60 DUP4 ADD MSTORE POP SWAP3 SWAP2 POP POP JUMP JUMPDEST PUSH1 0x0 PUSH2 0x1C0 DUP3 DUP5 SUB SLT ISZERO PUSH2 0x29B1 JUMPI PUSH1 0x0 DUP1 REVERT JUMPDEST PUSH2 0x29BC PUSH2 0x1C0 PUSH2 0x549A JUMP JUMPDEST SWAP1 POP PUSH1 0x0 PUSH2 0x29CC DUP5 DUP3 DUP6 ADD PUSH2 0x366D JUMP JUMPDEST PUSH1 0x0 DUP4 ADD MSTORE POP PUSH1 0x20 PUSH2 0x29E0 DUP5 DUP3 DUP6 ADD PUSH2 0x366D JUMP JUMPDEST PUSH1 0x20 DUP4 ADD MSTORE POP PUSH1 0x40 PUSH2 0x29F4 DUP5 DUP3 DUP6 ADD PUSH2 0x218B JUMP JUMPDEST PUSH1 0x40 DUP4 ADD MSTORE POP PUSH1 0x60 PUSH2 0x2A08 DUP5 DUP3 DUP6 ADD PUSH2 0x24D3 JUMP JUMPDEST PUSH1 0x60 DUP4 ADD MSTORE POP PUSH1 0x80 PUSH2 0x2A1C DUP5 DUP3 DUP6 ADD PUSH2 0x36C1 JUMP JUMPDEST PUSH1 0x80 DUP4 ADD MSTORE POP PUSH1 0xA0 PUSH2 0x2A30 DUP5 DUP3 DUP6 ADD PUSH2 0x36C1 JUMP JUMPDEST PUSH1 0xA0 DUP4 ADD MSTORE POP PUSH1 0xC0 PUSH2 0x2A44 DUP5 DUP3 DUP6 ADD PUSH2 0x218B JUMP JUMPDEST PUSH1 0xC0 DUP4 ADD MSTORE POP PUSH1 0xE0 PUSH2 0x2A58 DUP5 DUP3 DUP6 ADD PUSH2 0x218B JUMP JUMPDEST PUSH1 0xE0 DUP4 ADD MSTORE POP PUSH2 0x100 PUSH2 0x2A6D DUP5 DUP3 DUP6 ADD PUSH2 0x36C1 JUMP JUMPDEST PUSH2 0x100 DUP4 ADD MSTORE POP PUSH2 0x120 DUP3 ADD CALLDATALOAD PUSH8 0xFFFFFFFFFFFFFFFF DUP2 GT ISZERO PUSH2 0x2A8F JUMPI PUSH1 0x0 DUP1 REVERT JUMPDEST PUSH2 0x2A9B DUP5 DUP3 DUP6 ADD PUSH2 0x22C6 JUMP JUMPDEST PUSH2 0x120 DUP4 ADD MSTORE POP PUSH2 0x140 DUP3 ADD CALLDATALOAD PUSH8 0xFFFFFFFFFFFFFFFF DUP2 GT ISZERO PUSH2 0x2ABD JUMPI PUSH1 0x0 DUP1 REVERT JUMPDEST PUSH2 0x2AC9 DUP5 DUP3 DUP6 ADD PUSH2 0x22C6 JUMP JUMPDEST PUSH2 0x140 DUP4 ADD MSTORE POP PUSH2 0x160 DUP3 ADD CALLDATALOAD PUSH8 0xFFFFFFFFFFFFFFFF DUP2 GT ISZERO PUSH2 0x2AEB JUMPI PUSH1 0x0 DUP1 REVERT JUMPDEST PUSH2 0x2AF7 DUP5 DUP3 DUP6 ADD PUSH2 0x22C6 JUMP JUMPDEST PUSH2 0x160 DUP4 ADD MSTORE POP PUSH2 0x180 DUP3 ADD CALLDATALOAD PUSH8 0xFFFFFFFFFFFFFFFF DUP2 GT ISZERO PUSH2 0x2B19 JUMPI PUSH1 0x0 DUP1 REVERT JUMPDEST PUSH2 0x2B25 DUP5 DUP3 DUP6 ADD PUSH2 0x3429 JUMP JUMPDEST PUSH2 0x180 DUP4 ADD MSTORE POP PUSH2 0x1A0 PUSH2 0x2B3B DUP5 DUP3 DUP6 ADD PUSH2 0x2590 JUMP JUMPDEST PUSH2 0x1A0 DUP4 ADD MSTORE POP SWAP3 SWAP2 POP POP JUMP JUMPDEST PUSH1 0x0 PUSH1 0x40 DUP3 DUP5 SUB SLT ISZERO PUSH2 0x2B5A JUMPI PUSH1 0x0 DUP1 REVERT JUMPDEST PUSH2 0x2B64 PUSH1 0x40 PUSH2 0x549A JUMP JUMPDEST SWAP1 POP PUSH1 0x0 PUSH2 0x2B74 DUP5 DUP3 DUP6 ADD PUSH2 0x218B JUMP JUMPDEST PUSH1 0x0 DUP4 ADD MSTORE POP PUSH1 0x20 PUSH2 0x2B88 DUP5 DUP3 DUP6 ADD PUSH2 0x36EB JUMP JUMPDEST PUSH1 0x20 DUP4 ADD MSTORE POP SWAP3 SWAP2 POP POP JUMP JUMPDEST PUSH1 0x0 PUSH1 0x40 DUP3 DUP5 SUB SLT ISZERO PUSH2 0x2BA6 JUMPI PUSH1 0x0 DUP1 REVERT JUMPDEST PUSH2 0x2BB0 PUSH1 0x40 PUSH2 0x549A JUMP JUMPDEST SWAP1 POP PUSH1 0x0 PUSH2 0x2BC0 DUP5 DUP3 DUP6 ADD PUSH2 0x21A0 JUMP JUMPDEST PUSH1 0x0 DUP4 ADD MSTORE POP PUSH1 0x20 PUSH2 0x2BD4 DUP5 DUP3 DUP6 ADD PUSH2 0x3700 JUMP JUMPDEST PUSH1 0x20 DUP4 ADD MSTORE POP SWAP3 SWAP2 POP POP JUMP JUMPDEST PUSH1 0x0 PUSH1 0x80 DUP3 DUP5 SUB SLT ISZERO PUSH2 0x2BF2 JUMPI PUSH1 0x0 DUP1 REVERT JUMPDEST PUSH2 0x2BFC PUSH1 0x80 PUSH2 0x549A JUMP JUMPDEST SWAP1 POP PUSH1 0x0 PUSH2 0x2C0C DUP5 DUP3 DUP6 ADD PUSH2 0x3715 JUMP JUMPDEST PUSH1 0x0 DUP4 ADD MSTORE POP PUSH1 0x20 PUSH2 0x2C20 DUP5 DUP3 DUP6 ADD PUSH2 0x36C1 JUMP JUMPDEST PUSH1 0x20 DUP4 ADD MSTORE POP PUSH1 0x40 PUSH2 0x2C34 DUP5 DUP3 DUP6 ADD PUSH2 0x36C1 JUMP JUMPDEST PUSH1 0x40 DUP4 ADD MSTORE POP PUSH1 0x60 DUP3 ADD CALLDATALOAD PUSH8 0xFFFFFFFFFFFFFFFF DUP2 GT ISZERO PUSH2 0x2C54 JUMPI PUSH1 0x0 DUP1 REVERT JUMPDEST PUSH2 0x2C60 DUP5 DUP3 DUP6 ADD PUSH2 0x21F4 JUMP JUMPDEST PUSH1 0x60 DUP4 ADD MSTORE POP SWAP3 SWAP2 POP POP JUMP JUMPDEST PUSH1 0x0 PUSH1 0x40 DUP3 DUP5 SUB SLT ISZERO PUSH2 0x2C7E JUMPI PUSH1 0x0 DUP1 REVERT JUMPDEST PUSH2 0x2C88 PUSH1 0x40 PUSH2 0x549A JUMP JUMPDEST SWAP1 POP PUSH1 0x0 DUP3 ADD CALLDATALOAD PUSH8 0xFFFFFFFFFFFFFFFF DUP2 GT ISZERO PUSH2 0x2CA4 JUMPI PUSH1 0x0 DUP1 REVERT JUMPDEST PUSH2 0x2CB0 DUP5 DUP3 DUP6 ADD PUSH2 0x25BA JUMP JUMPDEST PUSH1 0x0 DUP4 ADD MSTORE POP PUSH1 0x20 PUSH2 0x2CC4 DUP5 DUP3 DUP6 ADD PUSH2 0x218B JUMP JUMPDEST PUSH1 0x20 DUP4 ADD MSTORE POP SWAP3 SWAP2 POP POP JUMP JUMPDEST PUSH1 0x0 PUSH2 0x1A0 DUP3 DUP5 SUB SLT ISZERO PUSH2 0x2CE3 JUMPI PUSH1 0x0 DUP1 REVERT JUMPDEST PUSH2 0x2CEE PUSH2 0x180 PUSH2 0x549A JUMP JUMPDEST SWAP1 POP PUSH1 0x0 PUSH2 0x2CFE DUP5 DUP3 DUP6 ADD PUSH2 0x36C1 JUMP JUMPDEST PUSH1 0x0 DUP4 ADD MSTORE POP PUSH1 0x20 PUSH2 0x2D12 DUP5 DUP3 DUP6 ADD PUSH2 0x36C1 JUMP JUMPDEST PUSH1 0x20 DUP4 ADD MSTORE POP PUSH1 0x40 DUP3 ADD CALLDATALOAD PUSH8 0xFFFFFFFFFFFFFFFF DUP2 GT ISZERO PUSH2 0x2D32 JUMPI PUSH1 0x0 DUP1 REVERT JUMPDEST PUSH2 0x2D3E DUP5 DUP3 DUP6 ADD PUSH2 0x3429 JUMP JUMPDEST PUSH1 0x40 DUP4 ADD MSTORE POP PUSH1 0x60 PUSH2 0x2D52 DUP5 DUP3 DUP6 ADD PUSH2 0x218B JUMP JUMPDEST PUSH1 0x60 DUP4 ADD MSTORE POP PUSH1 0x80 DUP3 ADD CALLDATALOAD PUSH8 0xFFFFFFFFFFFFFFFF DUP2 GT ISZERO PUSH2 0x2D72 JUMPI PUSH1 0x0 DUP1 REVERT JUMPDEST PUSH2 0x2D7E DUP5 DUP3 DUP6 ADD PUSH2 0x260E JUMP JUMPDEST PUSH1 0x80 DUP4 ADD MSTORE POP PUSH1 0xA0 PUSH2 0x2D92 DUP5 DUP3 DUP6 ADD PUSH2 0x36C1 JUMP JUMPDEST PUSH1 0xA0 DUP4 ADD MSTORE POP PUSH1 0xC0 PUSH2 0x2DA6 DUP5 DUP3 DUP6 ADD PUSH2 0x34F1 JUMP JUMPDEST PUSH1 0xC0 DUP4 ADD MSTORE POP PUSH2 0x100 PUSH2 0x2DBB DUP5 DUP3 DUP6 ADD PUSH2 0x24D3 JUMP JUMPDEST PUSH1 0xE0 DUP4 ADD MSTORE POP PUSH2 0x120 PUSH2 0x2DD0 DUP5 DUP3 DUP6 ADD PUSH2 0x36C1 JUMP JUMPDEST PUSH2 0x100 DUP4 ADD MSTORE POP PUSH2 0x140 DUP3 ADD CALLDATALOAD PUSH8 0xFFFFFFFFFFFFFFFF DUP2 GT ISZERO PUSH2 0x2DF2 JUMPI PUSH1 0x0 DUP1 REVERT JUMPDEST PUSH2 0x2DFE DUP5 DUP3 DUP6 ADD PUSH2 0x2416 JUMP JUMPDEST PUSH2 0x120 DUP4 ADD MSTORE POP PUSH2 0x160 DUP3 ADD CALLDATALOAD PUSH8 0xFFFFFFFFFFFFFFFF DUP2 GT ISZERO PUSH2 0x2E20 JUMPI PUSH1 0x0 DUP1 REVERT JUMPDEST PUSH2 0x2E2C DUP5 DUP3 DUP6 ADD PUSH2 0x231A JUMP JUMPDEST PUSH2 0x140 DUP4 ADD MSTORE POP PUSH2 0x180 DUP3 ADD CALLDATALOAD PUSH8 0xFFFFFFFFFFFFFFFF DUP2 GT ISZERO PUSH2 0x2E4E JUMPI PUSH1 0x0 DUP1 REVERT JUMPDEST PUSH2 0x2E5A DUP5 DUP3 DUP6 ADD PUSH2 0x22F0 JUMP JUMPDEST PUSH2 0x160 DUP4 ADD MSTORE POP SWAP3 SWAP2 POP POP JUMP JUMPDEST PUSH1 0x0 PUSH1 0xE0 DUP3 DUP5 SUB SLT ISZERO PUSH2 0x2E79 JUMPI PUSH1 0x0 DUP1 REVERT JUMPDEST PUSH2 0x2E83 PUSH1 0xE0 PUSH2 0x549A JUMP JUMPDEST SWAP1 POP PUSH1 0x0 PUSH2 0x2E93 DUP5 DUP3 DUP6 ADD PUSH2 0x2566 JUMP JUMPDEST PUSH1 0x0 DUP4 ADD MSTORE POP PUSH1 0x20 PUSH2 0x2EA7 DUP5 DUP3 DUP6 ADD PUSH2 0x2566 JUMP JUMPDEST PUSH1 0x20 DUP4 ADD MSTORE POP PUSH1 0x40 PUSH2 0x2EBB DUP5 DUP3 DUP6 ADD PUSH2 0x218B JUMP JUMPDEST PUSH1 0x40 DUP4 ADD MSTORE POP PUSH1 0x60 PUSH2 0x2ECF DUP5 DUP3 DUP6 ADD PUSH2 0x36C1 JUMP JUMPDEST PUSH1 0x60 DUP4 ADD MSTORE POP PUSH1 0x80 PUSH2 0x2EE3 DUP5 DUP3 DUP6 ADD PUSH2 0x24D3 JUMP JUMPDEST PUSH1 0x80 DUP4 ADD MSTORE POP PUSH1 0xA0 PUSH2 0x2EF7 DUP5 DUP3 DUP6 ADD PUSH2 0x24D3 JUMP JUMPDEST PUSH1 0xA0 DUP4 ADD MSTORE POP PUSH1 0xC0 PUSH2 0x2F0B DUP5 DUP3 DUP6 ADD PUSH2 0x24D3 JUMP JUMPDEST PUSH1 0xC0 DUP4 ADD MSTORE POP SWAP3 SWAP2 POP POP JUMP JUMPDEST PUSH1 0x0 PUSH1 0xE0 DUP3 DUP5 SUB SLT ISZERO PUSH2 0x2F29 JUMPI PUSH1 0x0 DUP1 REVERT JUMPDEST PUSH2 0x2F33 PUSH1 0xE0 PUSH2 0x549A JUMP JUMPDEST SWAP1 POP PUSH1 0x0 PUSH2 0x2F43 DUP5 DUP3 DUP6 ADD PUSH2 0x257B JUMP JUMPDEST PUSH1 0x0 DUP4 ADD MSTORE POP PUSH1 0x20 PUSH2 0x2F57 DUP5 DUP3 DUP6 ADD PUSH2 0x257B JUMP JUMPDEST PUSH1 0x20 DUP4 ADD MSTORE POP PUSH1 0x40 PUSH2 0x2F6B DUP5 DUP3 DUP6 ADD PUSH2 0x21A0 JUMP JUMPDEST PUSH1 0x40 DUP4 ADD MSTORE POP PUSH1 0x60 PUSH2 0x2F7F DUP5 DUP3 DUP6 ADD PUSH2 0x36D6 JUMP JUMPDEST PUSH1 0x60 DUP4 ADD MSTORE POP PUSH1 0x80 PUSH2 0x2F93 DUP5 DUP3 DUP6 ADD PUSH2 0x24E8 JUMP JUMPDEST PUSH1 0x80 DUP4 ADD MSTORE POP PUSH1 0xA0 PUSH2 0x2FA7 DUP5 DUP3 DUP6 ADD PUSH2 0x24E8 JUMP JUMPDEST PUSH1 0xA0 DUP4 ADD MSTORE POP PUSH1 0xC0 PUSH2 0x2FBB DUP5 DUP3 DUP6 ADD PUSH2 0x24E8 JUMP JUMPDEST PUSH1 0xC0 DUP4 ADD MSTORE POP SWAP3 SWAP2 POP POP JUMP JUMPDEST PUSH1 0x0 PUSH1 0x80 DUP3 DUP5 SUB SLT ISZERO PUSH2 0x2FD9 JUMPI PUSH1 0x0 DUP1 REVERT JUMPDEST PUSH2 0x2FE3 PUSH1 0x80 PUSH2 0x549A JUMP JUMPDEST SWAP1 POP PUSH1 0x0 PUSH2 0x2FF3 DUP5 DUP3 DUP6 ADD PUSH2 0x3715 JUMP JUMPDEST PUSH1 0x0 DUP4 ADD MSTORE POP PUSH1 0x20 PUSH2 0x3007 DUP5 DUP3 DUP6 ADD PUSH2 0x3715 JUMP JUMPDEST PUSH1 0x20 DUP4 ADD MSTORE POP PUSH1 0x40 DUP3 ADD CALLDATALOAD PUSH8 0xFFFFFFFFFFFFFFFF DUP2 GT ISZERO PUSH2 0x3027 JUMPI PUSH1 0x0 DUP1 REVERT JUMPDEST PUSH2 0x3033 DUP5 DUP3 DUP6 ADD PUSH2 0x23EC JUMP JUMPDEST PUSH1 0x40 DUP4 ADD MSTORE POP PUSH1 0x60 DUP3 ADD CALLDATALOAD PUSH8 0xFFFFFFFFFFFFFFFF DUP2 GT ISZERO PUSH2 0x3053 JUMPI PUSH1 0x0 DUP1 REVERT JUMPDEST PUSH2 0x305F DUP5 DUP3 DUP6 ADD PUSH2 0x229C JUMP JUMPDEST PUSH1 0x60 DUP4 ADD MSTORE POP SWAP3 SWAP2 POP POP JUMP JUMPDEST PUSH1 0x0 PUSH1 0xC0 DUP3 DUP5 SUB SLT ISZERO PUSH2 0x307D JUMPI PUSH1 0x0 DUP1 REVERT JUMPDEST PUSH2 0x3087 PUSH1 0xC0 PUSH2 0x549A JUMP JUMPDEST SWAP1 POP PUSH1 0x0 PUSH2 0x3097 DUP5 DUP3 DUP6 ADD PUSH2 0x3697 JUMP JUMPDEST PUSH1 0x0 DUP4 ADD MSTORE POP PUSH1 0x20 PUSH2 0x30AB DUP5 DUP3 DUP6 ADD PUSH2 0x24D3 JUMP JUMPDEST PUSH1 0x20 DUP4 ADD MSTORE POP PUSH1 0x40 PUSH2 0x30BF DUP5 DUP3 DUP6 ADD PUSH2 0x3697 JUMP JUMPDEST PUSH1 0x40 DUP4 ADD MSTORE POP PUSH1 0x60 DUP3 ADD CALLDATALOAD PUSH8 0xFFFFFFFFFFFFFFFF DUP2 GT ISZERO PUSH2 0x30DF JUMPI PUSH1 0x0 DUP1 REVERT JUMPDEST PUSH2 0x30EB DUP5 DUP3 DUP6 ADD PUSH2 0x299E JUMP JUMPDEST PUSH1 0x60 DUP4 ADD MSTORE POP PUSH1 0x80 DUP3 ADD CALLDATALOAD PUSH8 0xFFFFFFFFFFFFFFFF DUP2 GT ISZERO PUSH2 0x310B JUMPI PUSH1 0x0 DUP1 REVERT JUMPDEST PUSH2 0x3117 DUP5 DUP3 DUP6 ADD PUSH2 0x2FC7 JUMP JUMPDEST PUSH1 0x80 DUP4 ADD MSTORE POP PUSH1 0xA0 DUP3 ADD CALLDATALOAD PUSH8 0xFFFFFFFFFFFFFFFF DUP2 GT ISZERO PUSH2 0x3137 JUMPI PUSH1 0x0 DUP1 REVERT JUMPDEST PUSH2 0x3143 DUP5 DUP3 DUP6 ADD PUSH2 0x2398 JUMP JUMPDEST PUSH1 0xA0 DUP4 ADD MSTORE POP SWAP3 SWAP2 POP POP JUMP JUMPDEST PUSH1 0x0 PUSH1 0x80 DUP3 DUP5 SUB SLT ISZERO PUSH2 0x3161 JUMPI PUSH1 0x0 DUP1 REVERT JUMPDEST PUSH2 0x316B PUSH1 0x80 PUSH2 0x549A JUMP JUMPDEST SWAP1 POP PUSH1 0x0 PUSH2 0x317B DUP5 DUP3 DUP6 ADD PUSH2 0x36AC JUMP JUMPDEST PUSH1 0x0 DUP4 ADD MSTORE POP PUSH1 0x20 PUSH2 0x318F DUP5 DUP3 DUP6 ADD PUSH2 0x36AC JUMP JUMPDEST PUSH1 0x20 DUP4 ADD MSTORE POP PUSH1 0x40 PUSH2 0x31A3 DUP5 DUP3 DUP6 ADD PUSH2 0x24E8 JUMP JUMPDEST PUSH1 0x40 DUP4 ADD MSTORE POP PUSH1 0x60 DUP3 ADD MLOAD PUSH8 0xFFFFFFFFFFFFFFFF DUP2 GT ISZERO PUSH2 0x31C3 JUMPI PUSH1 0x0 DUP1 REVERT JUMPDEST PUSH2 0x31CF DUP5 DUP3 DUP6 ADD PUSH2 0x23C2 JUMP JUMPDEST PUSH1 0x60 DUP4 ADD MSTORE POP SWAP3 SWAP2 POP POP JUMP JUMPDEST PUSH1 0x0 PUSH2 0x140 DUP3 DUP5 SUB SLT ISZERO PUSH2 0x31EE JUMPI PUSH1 0x0 DUP1 REVERT JUMPDEST PUSH2 0x31F9 PUSH2 0x120 PUSH2 0x549A JUMP JUMPDEST SWAP1 POP PUSH1 0x0 PUSH2 0x3209 DUP5 DUP3 DUP6 ADD PUSH2 0x36C1 JUMP JUMPDEST PUSH1 0x0 DUP4 ADD MSTORE POP PUSH1 0x20 PUSH2 0x321D DUP5 DUP3 DUP6 ADD PUSH2 0x2B48 JUMP JUMPDEST PUSH1 0x20 DUP4 ADD MSTORE POP PUSH1 0x60 PUSH2 0x3231 DUP5 DUP3 DUP6 ADD PUSH2 0x36C1 JUMP JUMPDEST PUSH1 0x40 DUP4 ADD MSTORE POP PUSH1 0x80 PUSH2 0x3245 DUP5 DUP3 DUP6 ADD PUSH2 0x218B JUMP JUMPDEST PUSH1 0x60 DUP4 ADD MSTORE POP PUSH1 0xA0 PUSH2 0x3259 DUP5 DUP3 DUP6 ADD PUSH2 0x3697 JUMP JUMPDEST PUSH1 0x80 DUP4 ADD MSTORE POP PUSH1 0xC0 DUP3 ADD CALLDATALOAD PUSH8 0xFFFFFFFFFFFFFFFF DUP2 GT ISZERO PUSH2 0x3279 JUMPI PUSH1 0x0 DUP1 REVERT JUMPDEST PUSH2 0x3285 DUP5 DUP3 DUP6 ADD PUSH2 0x3429 JUMP JUMPDEST PUSH1 0xA0 DUP4 ADD MSTORE POP PUSH1 0xE0 PUSH2 0x3299 DUP5 DUP3 DUP6 ADD PUSH2 0x218B JUMP JUMPDEST PUSH1 0xC0 DUP4 ADD MSTORE POP PUSH2 0x100 PUSH2 0x32AE DUP5 DUP3 DUP6 ADD PUSH2 0x218B JUMP JUMPDEST PUSH1 0xE0 DUP4 ADD MSTORE POP PUSH2 0x120 PUSH2 0x32C3 DUP5 DUP3 DUP6 ADD PUSH2 0x218B JUMP JUMPDEST PUSH2 0x100 DUP4 ADD MSTORE POP SWAP3 SWAP2 POP POP JUMP JUMPDEST PUSH1 0x0 PUSH2 0x140 DUP3 DUP5 SUB SLT ISZERO PUSH2 0x32E3 JUMPI PUSH1 0x0 DUP1 REVERT JUMPDEST PUSH2 0x32EE PUSH2 0x120 PUSH2 0x549A JUMP JUMPDEST SWAP1 POP PUSH1 0x0 PUSH2 0x32FE DUP5 DUP3 DUP6 ADD PUSH2 0x36D6 JUMP JUMPDEST PUSH1 0x0 DUP4 ADD MSTORE POP PUSH1 0x20 PUSH2 0x3312 DUP5 DUP3 DUP6 ADD PUSH2 0x2B94 JUMP JUMPDEST PUSH1 0x20 DUP4 ADD MSTORE POP PUSH1 0x60 PUSH2 0x3326 DUP5 DUP3 DUP6 ADD PUSH2 0x36D6 JUMP JUMPDEST PUSH1 0x40 DUP4 ADD MSTORE POP PUSH1 0x80 PUSH2 0x333A DUP5 DUP3 DUP6 ADD PUSH2 0x21A0 JUMP JUMPDEST PUSH1 0x60 DUP4 ADD MSTORE POP PUSH1 0xA0 PUSH2 0x334E DUP5 DUP3 DUP6 ADD PUSH2 0x36AC JUMP JUMPDEST PUSH1 0x80 DUP4 ADD MSTORE POP PUSH1 0xC0 DUP3 ADD MLOAD PUSH8 0xFFFFFFFFFFFFFFFF DUP2 GT ISZERO PUSH2 0x336E JUMPI PUSH1 0x0 DUP1 REVERT JUMPDEST PUSH2 0x337A DUP5 DUP3 DUP6 ADD PUSH2 0x348D JUMP JUMPDEST PUSH1 0xA0 DUP4 ADD MSTORE POP PUSH1 0xE0 PUSH2 0x338E DUP5 DUP3 DUP6 ADD PUSH2 0x21A0 JUMP JUMPDEST PUSH1 0xC0 DUP4 ADD MSTORE POP PUSH2 0x100 PUSH2 0x33A3 DUP5 DUP3 DUP6 ADD PUSH2 0x21A0 JUMP JUMPDEST PUSH1 0xE0 DUP4 ADD MSTORE POP PUSH2 0x120 PUSH2 0x33B8 DUP5 DUP3 DUP6 ADD PUSH2 0x21A0 JUMP JUMPDEST PUSH2 0x100 DUP4 ADD MSTORE POP SWAP3 SWAP2 POP POP JUMP JUMPDEST PUSH1 0x0 PUSH1 0x40 DUP3 DUP5 SUB SLT ISZERO PUSH2 0x33D7 JUMPI PUSH1 0x0 DUP1 REVERT JUMPDEST PUSH2 0x33E1 PUSH1 0x40 PUSH2 0x549A JUMP JUMPDEST SWAP1 POP PUSH1 0x0 PUSH2 0x33F1 DUP5 DUP3 DUP6 ADD PUSH2 0x3715 JUMP JUMPDEST PUSH1 0x0 DUP4 ADD MSTORE POP PUSH1 0x20 DUP3 ADD CALLDATALOAD PUSH8 0xFFFFFFFFFFFFFFFF DUP2 GT ISZERO PUSH2 0x3411 JUMPI PUSH1 0x0 DUP1 REVERT JUMPDEST PUSH2 0x341D DUP5 DUP3 DUP6 ADD PUSH2 0x2BE0 JUMP JUMPDEST PUSH1 0x20 DUP4 ADD MSTORE POP SWAP3 SWAP2 POP POP JUMP JUMPDEST PUSH1 0x0 PUSH1 0x40 DUP3 DUP5 SUB SLT ISZERO PUSH2 0x343B JUMPI PUSH1 0x0 DUP1 REVERT JUMPDEST PUSH2 0x3445 PUSH1 0x40 PUSH2 0x549A JUMP JUMPDEST SWAP1 POP PUSH1 0x0 PUSH2 0x3455 DUP5 DUP3 DUP6 ADD PUSH2 0x3715 JUMP JUMPDEST PUSH1 0x0 DUP4 ADD MSTORE POP PUSH1 0x20 DUP3 ADD CALLDATALOAD PUSH8 0xFFFFFFFFFFFFFFFF DUP2 GT ISZERO PUSH2 0x3475 JUMPI PUSH1 0x0 DUP1 REVERT JUMPDEST PUSH2 0x3481 DUP5 DUP3 DUP6 ADD PUSH2 0x24FD JUMP JUMPDEST PUSH1 0x20 DUP4 ADD MSTORE POP SWAP3 SWAP2 POP POP JUMP JUMPDEST PUSH1 0x0 PUSH1 0x40 DUP3 DUP5 SUB SLT ISZERO PUSH2 0x349F JUMPI PUSH1 0x0 DUP1 REVERT JUMPDEST PUSH2 0x34A9 PUSH1 0x40 PUSH2 0x549A JUMP JUMPDEST SWAP1 POP PUSH1 0x0 PUSH2 0x34B9 DUP5 DUP3 DUP6 ADD PUSH2 0x372A JUMP JUMPDEST PUSH1 0x0 DUP4 ADD MSTORE POP PUSH1 0x20 DUP3 ADD MLOAD PUSH8 0xFFFFFFFFFFFFFFFF DUP2 GT ISZERO PUSH2 0x34D9 JUMPI PUSH1 0x0 DUP1 REVERT JUMPDEST PUSH2 0x34E5 DUP5 DUP3 DUP6 ADD PUSH2 0x2527 JUMP JUMPDEST PUSH1 0x20 DUP4 ADD MSTORE POP SWAP3 SWAP2 POP POP JUMP JUMPDEST PUSH1 0x0 PUSH1 0x40 DUP3 DUP5 SUB SLT ISZERO PUSH2 0x3503 JUMPI PUSH1 0x0 DUP1 REVERT JUMPDEST PUSH2 0x350D PUSH1 0x40 PUSH2 0x549A JUMP JUMPDEST SWAP1 POP PUSH1 0x0 PUSH2 0x351D DUP5 DUP3 DUP6 ADD PUSH2 0x24D3 JUMP JUMPDEST PUSH1 0x0 DUP4 ADD MSTORE POP PUSH1 0x20 PUSH2 0x3531 DUP5 DUP3 DUP6 ADD PUSH2 0x36C1 JUMP JUMPDEST PUSH1 0x20 DUP4 ADD MSTORE POP SWAP3 SWAP2 POP POP JUMP JUMPDEST PUSH1 0x0 PUSH1 0x40 DUP3 DUP5 SUB SLT ISZERO PUSH2 0x354F JUMPI PUSH1 0x0 DUP1 REVERT JUMPDEST PUSH2 0x3559 PUSH1 0x40 PUSH2 0x549A JUMP JUMPDEST SWAP1 POP PUSH1 0x0 PUSH2 0x3569 DUP5 DUP3 DUP6 ADD PUSH2 0x218B JUMP JUMPDEST PUSH1 0x0 DUP4 ADD MSTORE POP PUSH1 0x20 DUP3 ADD CALLDATALOAD PUSH8 0xFFFFFFFFFFFFFFFF DUP2 GT ISZERO PUSH2 0x3589 JUMPI PUSH1 0x0 DUP1 REVERT JUMPDEST PUSH2 0x3595 DUP5 DUP3 DUP6 ADD PUSH2 0x260E JUMP JUMPDEST PUSH1 0x20 DUP4 ADD MSTORE POP SWAP3 SWAP2 POP POP JUMP JUMPDEST PUSH1 0x0 PUSH1 0xC0 DUP3 DUP5 SUB SLT ISZERO PUSH2 0x35B3 JUMPI PUSH1 0x0 DUP1 REVERT JUMPDEST PUSH2 0x35BD PUSH1 0xC0 PUSH2 0x549A JUMP JUMPDEST SWAP1 POP PUSH1 0x0 PUSH2 0x35CD DUP5 DUP3 DUP6 ADD PUSH2 0x36AC JUMP JUMPDEST PUSH1 0x0 DUP4 ADD MSTORE POP PUSH1 0x20 DUP3 ADD MLOAD PUSH8 0xFFFFFFFFFFFFFFFF DUP2 GT ISZERO PUSH2 0x35ED JUMPI PUSH1 0x0 DUP1 REVERT JUMPDEST PUSH2 0x35F9 DUP5 DUP3 DUP6 ADD PUSH2 0x25E4 JUMP JUMPDEST PUSH1 0x20 DUP4 ADD MSTORE POP PUSH1 0x40 PUSH2 0x360D DUP5 DUP3 DUP6 ADD PUSH2 0x36AC JUMP JUMPDEST PUSH1 0x40 DUP4 ADD MSTORE POP PUSH1 0x60 PUSH2 0x3621 DUP5 DUP3 DUP6 ADD PUSH2 0x36AC JUMP JUMPDEST PUSH1 0x60 DUP4 ADD MSTORE POP PUSH1 0x80 DUP3 ADD MLOAD PUSH8 0xFFFFFFFFFFFFFFFF DUP2 GT ISZERO PUSH2 0x3641 JUMPI PUSH1 0x0 DUP1 REVERT JUMPDEST PUSH2 0x364D DUP5 DUP3 DUP6 ADD PUSH2 0x25E4 JUMP JUMPDEST PUSH1 0x80 DUP4 ADD MSTORE POP PUSH1 0xA0 PUSH2 0x3661 DUP5 DUP3 DUP6 ADD PUSH2 0x24BE JUMP JUMPDEST PUSH1 0xA0 DUP4 ADD MSTORE POP SWAP3 SWAP2 POP POP JUMP JUMPDEST PUSH1 0x0 DUP2 CALLDATALOAD SWAP1 POP PUSH2 0x367C DUP2 PUSH2 0x5DA5 JUMP JUMPDEST SWAP3 SWAP2 POP POP JUMP JUMPDEST PUSH1 0x0 DUP2 CALLDATALOAD SWAP1 POP PUSH2 0x3691 DUP2 PUSH2 0x5DBC JUMP JUMPDEST SWAP3 SWAP2 POP POP JUMP JUMPDEST PUSH1 0x0 DUP2 CALLDATALOAD SWAP1 POP PUSH2 0x36A6 DUP2 PUSH2 0x5DD3 JUMP JUMPDEST SWAP3 SWAP2 POP POP JUMP JUMPDEST PUSH1 0x0 DUP2 MLOAD SWAP1 POP PUSH2 0x36BB DUP2 PUSH2 0x5DD3 JUMP JUMPDEST SWAP3 SWAP2 POP POP JUMP JUMPDEST PUSH1 0x0 DUP2 CALLDATALOAD SWAP1 POP PUSH2 0x36D0 DUP2 PUSH2 0x5DEA JUMP JUMPDEST SWAP3 SWAP2 POP POP JUMP JUMPDEST PUSH1 0x0 DUP2 MLOAD SWAP1 POP PUSH2 0x36E5 DUP2 PUSH2 0x5DEA JUMP JUMPDEST SWAP3 SWAP2 POP POP JUMP JUMPDEST PUSH1 0x0 DUP2 CALLDATALOAD SWAP1 POP PUSH2 0x36FA DUP2 PUSH2 0x5E01 JUMP JUMPDEST SWAP3 SWAP2 POP POP JUMP JUMPDEST PUSH1 0x0 DUP2 MLOAD SWAP1 POP PUSH2 0x370F DUP2 PUSH2 0x5E01 JUMP JUMPDEST SWAP3 SWAP2 POP POP JUMP JUMPDEST PUSH1 0x0 DUP2 CALLDATALOAD SWAP1 POP PUSH2 0x3724 DUP2 PUSH2 0x5E18 JUMP JUMPDEST SWAP3 SWAP2 POP POP JUMP JUMPDEST PUSH1 0x0 DUP2 MLOAD SWAP1 POP PUSH2 0x3739 DUP2 PUSH2 0x5E18 JUMP JUMPDEST SWAP3 SWAP2 POP POP JUMP JUMPDEST PUSH1 0x0 PUSH1 0x20 DUP3 DUP5 SUB SLT ISZERO PUSH2 0x3751 JUMPI PUSH1 0x0 DUP1 REVERT JUMPDEST PUSH1 0x0 PUSH2 0x375F DUP5 DUP3 DUP6 ADD PUSH2 0x218B JUMP JUMPDEST SWAP2 POP POP SWAP3 SWAP2 POP POP JUMP JUMPDEST PUSH1 0x0 DUP1 PUSH1 0x40 DUP4 DUP6 SUB SLT ISZERO PUSH2 0x377B JUMPI PUSH1 0x0 DUP1 REVERT JUMPDEST PUSH1 0x0 PUSH2 0x3789 DUP6 DUP3 DUP7 ADD PUSH2 0x218B JUMP JUMPDEST SWAP3 POP POP PUSH1 0x20 PUSH2 0x379A DUP6 DUP3 DUP7 ADD PUSH2 0x3697 JUMP JUMPDEST SWAP2 POP POP SWAP3 POP SWAP3 SWAP1 POP JUMP JUMPDEST PUSH1 0x0 PUSH1 0x20 DUP3 DUP5 SUB SLT ISZERO PUSH2 0x37B6 JUMPI PUSH1 0x0 DUP1 REVERT JUMPDEST PUSH1 0x0 DUP3 ADD CALLDATALOAD PUSH8 0xFFFFFFFFFFFFFFFF DUP2 GT ISZERO PUSH2 0x37D0 JUMPI PUSH1 0x0 DUP1 REVERT JUMPDEST PUSH2 0x37DC DUP5 DUP3 DUP6 ADD PUSH2 0x21F4 JUMP JUMPDEST SWAP2 POP POP SWAP3 SWAP2 POP POP JUMP JUMPDEST PUSH1 0x0 PUSH1 0x20 DUP3 DUP5 SUB SLT ISZERO PUSH2 0x37F7 JUMPI PUSH1 0x0 DUP1 REVERT JUMPDEST PUSH1 0x0 DUP3 ADD MLOAD PUSH8 0xFFFFFFFFFFFFFFFF DUP2 GT ISZERO PUSH2 0x3811 JUMPI PUSH1 0x0 DUP1 REVERT JUMPDEST PUSH2 0x381D DUP5 DUP3 DUP6 ADD PUSH2 0x221E JUMP JUMPDEST SWAP2 POP POP SWAP3 SWAP2 POP POP JUMP JUMPDEST PUSH1 0x0 PUSH1 0x20 DUP3 DUP5 SUB SLT ISZERO PUSH2 0x3838 JUMPI PUSH1 0x0 DUP1 REVERT JUMPDEST PUSH1 0x0 DUP3 ADD CALLDATALOAD PUSH8 0xFFFFFFFFFFFFFFFF DUP2 GT ISZERO PUSH2 0x3852 JUMPI PUSH1 0x0 DUP1 REVERT JUMPDEST PUSH2 0x385E DUP5 DUP3 DUP6 ADD PUSH2 0x2344 JUMP JUMPDEST SWAP2 POP POP SWAP3 SWAP2 POP POP JUMP JUMPDEST PUSH1 0x0 PUSH1 0x20 DUP3 DUP5 SUB SLT ISZERO PUSH2 0x3879 JUMPI PUSH1 0x0 DUP1 REVERT JUMPDEST PUSH1 0x0 DUP3 ADD MLOAD PUSH8 0xFFFFFFFFFFFFFFFF DUP2 GT ISZERO PUSH2 0x3893 JUMPI PUSH1 0x0 DUP1 REVERT JUMPDEST PUSH2 0x389F DUP5 DUP3 DUP6 ADD PUSH2 0x236E JUMP JUMPDEST SWAP2 POP POP SWAP3 SWAP2 POP POP JUMP JUMPDEST PUSH1 0x0 PUSH1 0x20 DUP3 DUP5 SUB SLT ISZERO PUSH2 0x38BA JUMPI PUSH1 0x0 DUP1 REVERT JUMPDEST PUSH1 0x0 PUSH2 0x38C8 DUP5 DUP3 DUP6 ADD PUSH2 0x24BE JUMP JUMPDEST SWAP2 POP POP SWAP3 SWAP2 POP POP JUMP JUMPDEST PUSH1 0x0 PUSH1 0x20 DUP3 DUP5 SUB SLT ISZERO PUSH2 0x38E3 JUMPI PUSH1 0x0 DUP1 REVERT JUMPDEST PUSH1 0x0 PUSH2 0x38F1 DUP5 DUP3 DUP6 ADD PUSH2 0x24E8 JUMP JUMPDEST SWAP2 POP POP SWAP3 SWAP2 POP POP JUMP JUMPDEST PUSH1 0x0 PUSH1 0x20 DUP3 DUP5 SUB SLT ISZERO PUSH2 0x390C JUMPI PUSH1 0x0 DUP1 REVERT JUMPDEST PUSH1 0x0 DUP3 ADD CALLDATALOAD PUSH8 0xFFFFFFFFFFFFFFFF DUP2 GT ISZERO PUSH2 0x3926 JUMPI PUSH1 0x0 DUP1 REVERT JUMPDEST PUSH2 0x3932 DUP5 DUP3 DUP6 ADD PUSH2 0x24FD JUMP JUMPDEST SWAP2 POP POP SWAP3 SWAP2 POP POP JUMP JUMPDEST PUSH1 0x0 PUSH1 0x20 DUP3 DUP5 SUB SLT ISZERO PUSH2 0x394D JUMPI PUSH1 0x0 DUP1 REVERT JUMPDEST PUSH1 0x0 PUSH2 0x395B DUP5 DUP3 DUP6 ADD PUSH2 0x2551 JUMP JUMPDEST SWAP2 POP POP SWAP3 SWAP2 POP POP JUMP JUMPDEST PUSH1 0x0 DUP1 PUSH1 0x40 DUP4 DUP6 SUB SLT ISZERO PUSH2 0x3977 JUMPI PUSH1 0x0 DUP1 REVERT JUMPDEST PUSH1 0x0 PUSH2 0x3985 DUP6 DUP3 DUP7 ADD PUSH2 0x2551 JUMP JUMPDEST SWAP3 POP POP PUSH1 0x20 PUSH2 0x3996 DUP6 DUP3 DUP7 ADD PUSH2 0x218B JUMP JUMPDEST SWAP2 POP POP SWAP3 POP SWAP3 SWAP1 POP JUMP JUMPDEST PUSH1 0x0 DUP1 PUSH1 0x0 DUP1 PUSH1 0x0 DUP1 PUSH1 0xC0 DUP8 DUP10 SUB SLT ISZERO PUSH2 0x39B9 JUMPI PUSH1 0x0 DUP1 REVERT JUMPDEST PUSH1 0x0 DUP8 ADD CALLDATALOAD PUSH8 0xFFFFFFFFFFFFFFFF DUP2 GT ISZERO PUSH2 0x39D3 JUMPI PUSH1 0x0 DUP1 REVERT JUMPDEST PUSH2 0x39DF DUP10 DUP3 DUP11 ADD PUSH2 0x2CD0 JUMP JUMPDEST SWAP7 POP POP PUSH1 0x20 DUP8 ADD CALLDATALOAD PUSH8 0xFFFFFFFFFFFFFFFF DUP2 GT ISZERO PUSH2 0x39FC JUMPI PUSH1 0x0 DUP1 REVERT JUMPDEST PUSH2 0x3A08 DUP10 DUP3 DUP11 ADD PUSH2 0x2494 JUMP JUMPDEST SWAP6 POP POP PUSH1 0x40 DUP8 ADD CALLDATALOAD PUSH8 0xFFFFFFFFFFFFFFFF DUP2 GT ISZERO PUSH2 0x3A25 JUMPI PUSH1 0x0 DUP1 REVERT JUMPDEST PUSH2 0x3A31 DUP10 DUP3 DUP11 ADD PUSH2 0x21F4 JUMP JUMPDEST SWAP5 POP POP PUSH1 0x60 DUP8 ADD CALLDATALOAD PUSH8 0xFFFFFFFFFFFFFFFF DUP2 GT ISZERO PUSH2 0x3A4E JUMPI PUSH1 0x0 DUP1 REVERT JUMPDEST PUSH2 0x3A5A DUP10 DUP3 DUP11 ADD PUSH2 0x21F4 JUMP JUMPDEST SWAP4 POP POP PUSH1 0x80 DUP8 ADD CALLDATALOAD PUSH8 0xFFFFFFFFFFFFFFFF DUP2 GT ISZERO PUSH2 0x3A77 JUMPI PUSH1 0x0 DUP1 REVERT JUMPDEST PUSH2 0x3A83 DUP10 DUP3 DUP11 ADD PUSH2 0x246A JUMP JUMPDEST SWAP3 POP POP PUSH1 0xA0 DUP8 ADD CALLDATALOAD PUSH8 0xFFFFFFFFFFFFFFFF DUP2 GT ISZERO PUSH2 0x3AA0 JUMPI PUSH1 0x0 DUP1 REVERT JUMPDEST PUSH2 0x3AAC DUP10 DUP3 DUP11 ADD PUSH2 0x21CA JUMP JUMPDEST SWAP2 POP POP SWAP3 SWAP6 POP SWAP3 SWAP6 POP SWAP3 SWAP6 JUMP JUMPDEST PUSH1 0x0 PUSH1 0xE0 DUP3 DUP5 SUB SLT ISZERO PUSH2 0x3ACB JUMPI PUSH1 0x0 DUP1 REVERT JUMPDEST PUSH1 0x0 PUSH2 0x3AD9 DUP5 DUP3 DUP6 ADD PUSH2 0x2F17 JUMP JUMPDEST SWAP2 POP POP SWAP3 SWAP2 POP POP JUMP JUMPDEST PUSH1 0x0 PUSH1 0x20 DUP3 DUP5 SUB SLT ISZERO PUSH2 0x3AF4 JUMPI PUSH1 0x0 DUP1 REVERT JUMPDEST PUSH1 0x0 DUP3 ADD CALLDATALOAD PUSH8 0xFFFFFFFFFFFFFFFF DUP2 GT ISZERO PUSH2 0x3B0E JUMPI PUSH1 0x0 DUP1 REVERT JUMPDEST PUSH2 0x3B1A DUP5 DUP3 DUP6 ADD PUSH2 0x31DB JUMP JUMPDEST SWAP2 POP POP SWAP3 SWAP2 POP POP JUMP JUMPDEST PUSH1 0x0 PUSH1 0x20 DUP3 DUP5 SUB SLT ISZERO PUSH2 0x3B35 JUMPI PUSH1 0x0 DUP1 REVERT JUMPDEST PUSH1 0x0 DUP3 ADD MLOAD PUSH8 0xFFFFFFFFFFFFFFFF DUP2 GT ISZERO PUSH2 0x3B4F JUMPI PUSH1 0x0 DUP1 REVERT JUMPDEST PUSH2 0x3B5B DUP5 DUP3 DUP6 ADD PUSH2 0x35A1 JUMP JUMPDEST SWAP2 POP POP SWAP3 SWAP2 POP POP JUMP JUMPDEST PUSH1 0x0 PUSH1 0x20 DUP3 DUP5 SUB SLT ISZERO PUSH2 0x3B76 JUMPI PUSH1 0x0 DUP1 REVERT JUMPDEST PUSH1 0x0 PUSH2 0x3B84 DUP5 DUP3 DUP6 ADD PUSH2 0x3697 JUMP JUMPDEST SWAP2 POP POP SWAP3 SWAP2 POP POP JUMP JUMPDEST PUSH1 0x0 DUP1 PUSH1 0x40 DUP4 DUP6 SUB SLT ISZERO PUSH2 0x3BA0 JUMPI PUSH1 0x0 DUP1 REVERT JUMPDEST PUSH1 0x0 PUSH2 0x3BAE DUP6 DUP3 DUP7 ADD PUSH2 0x3697 JUMP JUMPDEST SWAP3 POP POP PUSH1 0x20 PUSH2 0x3BBF DUP6 DUP3 DUP7 ADD PUSH2 0x218B JUMP JUMPDEST SWAP2 POP POP SWAP3 POP SWAP3 SWAP1 POP JUMP JUMPDEST PUSH1 0x0 DUP1 PUSH1 0x40 DUP4 DUP6 SUB SLT ISZERO PUSH2 0x3BDC JUMPI PUSH1 0x0 DUP1 REVERT JUMPDEST PUSH1 0x0 PUSH2 0x3BEA DUP6 DUP3 DUP7 ADD PUSH2 0x3697 JUMP JUMPDEST SWAP3 POP POP PUSH1 0x20 PUSH2 0x3BFB DUP6 DUP3 DUP7 ADD PUSH2 0x21B5 JUMP JUMPDEST SWAP2 POP POP SWAP3 POP SWAP3 SWAP1 POP JUMP JUMPDEST PUSH1 0x0 DUP1 PUSH1 0x40 DUP4 DUP6 SUB SLT ISZERO PUSH2 0x3C18 JUMPI PUSH1 0x0 DUP1 REVERT JUMPDEST PUSH1 0x0 PUSH2 0x3C26 DUP6 DUP3 DUP7 ADD PUSH2 0x3697 JUMP JUMPDEST SWAP3 POP POP PUSH1 0x20 PUSH2 0x3C37 DUP6 DUP3 DUP7 ADD PUSH2 0x3697 JUMP JUMPDEST SWAP2 POP POP SWAP3 POP SWAP3 SWAP1 POP JUMP JUMPDEST PUSH1 0x0 DUP1 PUSH1 0x40 DUP4 DUP6 SUB SLT ISZERO PUSH2 0x3C54 JUMPI PUSH1 0x0 DUP1 REVERT JUMPDEST PUSH1 0x0 PUSH2 0x3C62 DUP6 DUP3 DUP7 ADD PUSH2 0x3697 JUMP JUMPDEST SWAP3 POP POP PUSH1 0x20 PUSH2 0x3C73 DUP6 DUP3 DUP7 ADD PUSH2 0x3715 JUMP JUMPDEST SWAP2 POP POP SWAP3 POP SWAP3 SWAP1 POP JUMP JUMPDEST PUSH1 0x0 PUSH1 0x20 DUP3 DUP5 SUB SLT ISZERO PUSH2 0x3C8F JUMPI PUSH1 0x0 DUP1 REVERT JUMPDEST PUSH1 0x0 PUSH2 0x3C9D DUP5 DUP3 DUP6 ADD PUSH2 0x36D6 JUMP JUMPDEST SWAP2 POP POP SWAP3 SWAP2 POP POP JUMP JUMPDEST PUSH1 0x0 PUSH2 0x3CB2 DUP4 DUP4 PUSH2 0x3E0A JUMP JUMPDEST PUSH1 0x20 DUP4 ADD SWAP1 POP SWAP3 SWAP2 POP POP JUMP JUMPDEST PUSH1 0x0 PUSH2 0x3CCA DUP4 DUP4 PUSH2 0x4525 JUMP JUMPDEST PUSH1 0x20 DUP4 ADD SWAP1 POP SWAP3 SWAP2 POP POP JUMP JUMPDEST PUSH1 0x0 PUSH2 0x3CE2 DUP4 DUP4 PUSH2 0x458B JUMP JUMPDEST PUSH1 0x20 DUP4 ADD SWAP1 POP SWAP3 SWAP2 POP POP JUMP JUMPDEST PUSH1 0x0 PUSH2 0x3CFA DUP4 DUP4 PUSH2 0x459A JUMP JUMPDEST PUSH1 0x20 DUP4 ADD SWAP1 POP SWAP3 SWAP2 POP POP JUMP JUMPDEST PUSH1 0x0 PUSH2 0x3D12 DUP4 DUP4 PUSH2 0x48B5 JUMP JUMPDEST SWAP1 POP SWAP3 SWAP2 POP POP JUMP JUMPDEST PUSH1 0x0 PUSH2 0x3D26 DUP4 DUP4 PUSH2 0x4A62 JUMP JUMPDEST PUSH1 0x40 DUP4 ADD SWAP1 POP SWAP3 SWAP2 POP POP JUMP JUMPDEST PUSH1 0x0 PUSH2 0x3D3E DUP4 DUP4 PUSH2 0x4AF4 JUMP JUMPDEST SWAP1 POP SWAP3 SWAP2 POP POP JUMP JUMPDEST PUSH1 0x0 PUSH2 0x3D52 DUP4 DUP4 PUSH2 0x4C52 JUMP JUMPDEST PUSH1 0xE0 DUP4 ADD SWAP1 POP SWAP3 SWAP2 POP POP JUMP JUMPDEST PUSH1 0x0 PUSH2 0x3D6A DUP4 DUP4 PUSH2 0x4DD8 JUMP JUMPDEST SWAP1 POP SWAP3 SWAP2 POP POP JUMP JUMPDEST PUSH1 0x0 PUSH2 0x3D7E DUP4 DUP4 PUSH2 0x4E6F JUMP JUMPDEST SWAP1 POP SWAP3 SWAP2 POP POP JUMP JUMPDEST PUSH1 0x0 PUSH2 0x3D92 DUP4 DUP4 PUSH2 0x4ED2 JUMP JUMPDEST SWAP1 POP SWAP3 SWAP2 POP POP JUMP JUMPDEST PUSH1 0x0 PUSH2 0x3DA6 DUP4 DUP4 PUSH2 0x505E JUMP JUMPDEST SWAP1 POP SWAP3 SWAP2 POP POP JUMP JUMPDEST PUSH1 0x0 PUSH2 0x3DBA DUP4 DUP4 PUSH2 0x5107 JUMP JUMPDEST SWAP1 POP SWAP3 SWAP2 POP POP JUMP JUMPDEST PUSH1 0x0 PUSH2 0x3DCE DUP4 DUP4 PUSH2 0x51D4 JUMP JUMPDEST PUSH1 0x20 DUP4 ADD SWAP1 POP SWAP3 SWAP2 POP POP JUMP JUMPDEST PUSH1 0x0 PUSH2 0x3DE6 DUP4 DUP4 PUSH2 0x5210 JUMP JUMPDEST PUSH1 0x20 DUP4 ADD SWAP1 POP SWAP3 SWAP2 POP POP JUMP JUMPDEST PUSH1 0x0 PUSH2 0x3DFE DUP4 DUP4 PUSH2 0x523D JUMP JUMPDEST PUSH1 0x20 DUP4 ADD SWAP1 POP SWAP3 SWAP2 POP POP JUMP JUMPDEST PUSH2 0x3E13 DUP2 PUSH2 0x5BD5 JUMP JUMPDEST DUP3 MSTORE POP POP JUMP JUMPDEST PUSH2 0x3E22 DUP2 PUSH2 0x5BD5 JUMP JUMPDEST DUP3 MSTORE POP POP JUMP JUMPDEST PUSH1 0x0 PUSH2 0x3E33 DUP3 PUSH2 0x58EB JUMP JUMPDEST PUSH2 0x3E3D DUP2 DUP6 PUSH2 0x5A81 JUMP JUMPDEST SWAP4 POP PUSH2 0x3E48 DUP4 PUSH2 0x57EB JUMP JUMPDEST DUP1 PUSH1 0x0 JUMPDEST DUP4 DUP2 LT ISZERO PUSH2 0x3E79 JUMPI DUP2 MLOAD PUSH2 0x3E60 DUP9 DUP3 PUSH2 0x3CA6 JUMP JUMPDEST SWAP8 POP PUSH2 0x3E6B DUP4 PUSH2 0x59B1 JUMP JUMPDEST SWAP3 POP POP PUSH1 0x1 DUP2 ADD SWAP1 POP PUSH2 0x3E4C JUMP JUMPDEST POP DUP6 SWAP4 POP POP POP POP SWAP3 SWAP2 POP POP JUMP JUMPDEST PUSH1 0x0 PUSH2 0x3E91 DUP3 PUSH2 0x58F6 JUMP JUMPDEST PUSH2 0x3E9B DUP2 DUP6 PUSH2 0x5A92 JUMP JUMPDEST SWAP4 POP PUSH2 0x3EA6 DUP4 PUSH2 0x57FB JUMP JUMPDEST DUP1 PUSH1 0x0 JUMPDEST DUP4 DUP2 LT ISZERO PUSH2 0x3ED7 JUMPI DUP2 MLOAD PUSH2 0x3EBE DUP9 DUP3 PUSH2 0x3CBE JUMP JUMPDEST SWAP8 POP PUSH2 0x3EC9 DUP4 PUSH2 0x59BE JUMP JUMPDEST SWAP3 POP POP PUSH1 0x1 DUP2 ADD SWAP1 POP PUSH2 0x3EAA JUMP JUMPDEST POP DUP6 SWAP4 POP POP POP POP SWAP3 SWAP2 POP POP JUMP JUMPDEST PUSH1 0x0 PUSH2 0x3EEF DUP3 PUSH2 0x58F6 JUMP JUMPDEST PUSH2 0x3EF9 DUP2 DUP6 PUSH2 0x5AA3 JUMP JUMPDEST SWAP4 POP PUSH2 0x3F04 DUP4 PUSH2 0x57FB JUMP JUMPDEST DUP1 PUSH1 0x0 JUMPDEST DUP4 DUP2 LT ISZERO PUSH2 0x3F35 JUMPI DUP2 MLOAD PUSH2 0x3F1C DUP9 DUP3 PUSH2 0x3CBE JUMP JUMPDEST SWAP8 POP PUSH2 0x3F27 DUP4 PUSH2 0x59BE JUMP JUMPDEST SWAP3 POP POP PUSH1 0x1 DUP2 ADD SWAP1 POP PUSH2 0x3F08 JUMP JUMPDEST POP DUP6 SWAP4 POP POP POP POP SWAP3 SWAP2 POP POP JUMP JUMPDEST PUSH1 0x0 PUSH2 0x3F4D DUP3 PUSH2 0x5901 JUMP JUMPDEST PUSH2 0x3F57 DUP2 DUP6 PUSH2 0x5AB4 JUMP JUMPDEST SWAP4 POP PUSH2 0x3F62 DUP4 PUSH2 0x580B JUMP JUMPDEST DUP1 PUSH1 0x0 JUMPDEST DUP4 DUP2 LT ISZERO PUSH2 0x3F93 JUMPI DUP2 MLOAD PUSH2 0x3F7A DUP9 DUP3 PUSH2 0x3CD6 JUMP JUMPDEST SWAP8 POP PUSH2 0x3F85 DUP4 PUSH2 0x59CB JUMP JUMPDEST SWAP3 POP POP PUSH1 0x1 DUP2 ADD SWAP1 POP PUSH2 0x3F66 JUMP JUMPDEST POP DUP6 SWAP4 POP POP POP POP SWAP3 SWAP2 POP POP JUMP JUMPDEST PUSH1 0x0 PUSH2 0x3FAB DUP3 PUSH2 0x590C JUMP JUMPDEST PUSH2 0x3FB5 DUP2 DUP6 PUSH2 0x5AC5 JUMP JUMPDEST SWAP4 POP PUSH2 0x3FC0 DUP4 PUSH2 0x581B JUMP JUMPDEST DUP1 PUSH1 0x0 JUMPDEST DUP4 DUP2 LT ISZERO PUSH2 0x3FF1 JUMPI DUP2 MLOAD PUSH2 0x3FD8 DUP9 DUP3 PUSH2 0x3CEE JUMP JUMPDEST SWAP8 POP PUSH2 0x3FE3 DUP4 PUSH2 0x59D8 JUMP JUMPDEST SWAP3 POP POP PUSH1 0x1 DUP2 ADD SWAP1 POP PUSH2 0x3FC4 JUMP JUMPDEST POP DUP6 SWAP4 POP POP POP POP SWAP3 SWAP2 POP POP JUMP JUMPDEST PUSH1 0x0 PUSH2 0x4009 DUP3 PUSH2 0x5917 JUMP JUMPDEST PUSH2 0x4013 DUP2 DUP6 PUSH2 0x5AD6 JUMP JUMPDEST SWAP4 POP DUP4 PUSH1 0x20 DUP3 MUL DUP6 ADD PUSH2 0x4025 DUP6 PUSH2 0x582B JUMP JUMPDEST DUP1 PUSH1 0x0 JUMPDEST DUP6 DUP2 LT ISZERO PUSH2 0x4061 JUMPI DUP5 DUP5 SUB DUP10 MSTORE DUP2 MLOAD PUSH2 0x4042 DUP6 DUP3 PUSH2 0x3D06 JUMP JUMPDEST SWAP5 POP PUSH2 0x404D DUP4 PUSH2 0x59E5 JUMP JUMPDEST SWAP3 POP PUSH1 0x20 DUP11 ADD SWAP10 POP POP PUSH1 0x1 DUP2 ADD SWAP1 POP PUSH2 0x4029 JUMP JUMPDEST POP DUP3 SWAP8 POP DUP8 SWAP6 POP POP POP POP POP POP SWAP3 SWAP2 POP POP JUMP JUMPDEST PUSH1 0x0 PUSH2 0x407E DUP3 PUSH2 0x5922 JUMP JUMPDEST PUSH2 0x4088 DUP2 DUP6 PUSH2 0x5AE7 JUMP JUMPDEST SWAP4 POP PUSH2 0x4093 DUP4 PUSH2 0x583B JUMP JUMPDEST DUP1 PUSH1 0x0 JUMPDEST DUP4 DUP2 LT ISZERO PUSH2 0x40C4 JUMPI DUP2 MLOAD PUSH2 0x40AB DUP9 DUP3 PUSH2 0x3D1A JUMP JUMPDEST SWAP8 POP PUSH2 0x40B6 DUP4 PUSH2 0x59F2 JUMP JUMPDEST SWAP3 POP POP PUSH1 0x1 DUP2 ADD SWAP1 POP PUSH2 0x4097 JUMP JUMPDEST POP DUP6 SWAP4 POP POP POP POP SWAP3 SWAP2 POP POP JUMP JUMPDEST PUSH1 0x0 PUSH2 0x40DC DUP3 PUSH2 0x592D JUMP JUMPDEST PUSH2 0x40E6 DUP2 DUP6 PUSH2 0x5AF8 JUMP JUMPDEST SWAP4 POP DUP4 PUSH1 0x20 DUP3 MUL DUP6 ADD PUSH2 0x40F8 DUP6 PUSH2 0x584B JUMP JUMPDEST DUP1 PUSH1 0x0 JUMPDEST DUP6 DUP2 LT ISZERO PUSH2 0x4134 JUMPI DUP5 DUP5 SUB DUP10 MSTORE DUP2 MLOAD PUSH2 0x4115 DUP6 DUP3 PUSH2 0x3D32 JUMP JUMPDEST SWAP5 POP PUSH2 0x4120 DUP4 PUSH2 0x59FF JUMP JUMPDEST SWAP3 POP PUSH1 0x20 DUP11 ADD SWAP10 POP POP PUSH1 0x1 DUP2 ADD SWAP1 POP PUSH2 0x40FC JUMP JUMPDEST POP DUP3 SWAP8 POP DUP8 SWAP6 POP POP POP POP POP POP SWAP3 SWAP2 POP POP JUMP JUMPDEST PUSH1 0x0 PUSH2 0x4151 DUP3 PUSH2 0x5938 JUMP JUMPDEST PUSH2 0x415B DUP2 DUP6 PUSH2 0x5B09 JUMP JUMPDEST SWAP4 POP PUSH2 0x4166 DUP4 PUSH2 0x585B JUMP JUMPDEST DUP1 PUSH1 0x0 JUMPDEST DUP4 DUP2 LT ISZERO PUSH2 0x4197 JUMPI DUP2 MLOAD PUSH2 0x417E DUP9 DUP3 PUSH2 0x3D46 JUMP JUMPDEST SWAP8 POP PUSH2 0x4189 DUP4 PUSH2 0x5A0C JUMP JUMPDEST SWAP3 POP POP PUSH1 0x1 DUP2 ADD SWAP1 POP PUSH2 0x416A JUMP JUMPDEST POP DUP6 SWAP4 POP POP POP POP SWAP3 SWAP2 POP POP JUMP JUMPDEST PUSH1 0x0 PUSH2 0x41AF DUP3 PUSH2 0x5943 JUMP JUMPDEST PUSH2 0x41B9 DUP2 DUP6 PUSH2 0x5B1A JUMP JUMPDEST SWAP4 POP DUP4 PUSH1 0x20 DUP3 MUL DUP6 ADD PUSH2 0x41CB DUP6 PUSH2 0x586B JUMP JUMPDEST DUP1 PUSH1 0x0 JUMPDEST DUP6 DUP2 LT ISZERO PUSH2 0x4207 JUMPI DUP5 DUP5 SUB DUP10 MSTORE DUP2 MLOAD PUSH2 0x41E8 DUP6 DUP3 PUSH2 0x3D5E JUMP JUMPDEST SWAP5 POP PUSH2 0x41F3 DUP4 PUSH2 0x5A19 JUMP JUMPDEST SWAP3 POP PUSH1 0x20 DUP11 ADD SWAP10 POP POP PUSH1 0x1 DUP2 ADD SWAP1 POP PUSH2 0x41CF JUMP JUMPDEST POP DUP3 SWAP8 POP DUP8 SWAP6 POP POP POP POP POP POP SWAP3 SWAP2 POP POP JUMP JUMPDEST PUSH1 0x0 PUSH2 0x4224 DUP3 PUSH2 0x594E JUMP JUMPDEST PUSH2 0x422E DUP2 DUP6 PUSH2 0x5B2B JUMP JUMPDEST SWAP4 POP DUP4 PUSH1 0x20 DUP3 MUL DUP6 ADD PUSH2 0x4240 DUP6 PUSH2 0x587B JUMP JUMPDEST DUP1 PUSH1 0x0 JUMPDEST DUP6 DUP2 LT ISZERO PUSH2 0x427C JUMPI DUP5 DUP5 SUB DUP10 MSTORE DUP2 MLOAD PUSH2 0x425D DUP6 DUP3 PUSH2 0x3D72 JUMP JUMPDEST SWAP5 POP PUSH2 0x4268 DUP4 PUSH2 0x5A26 JUMP JUMPDEST SWAP3 POP PUSH1 0x20 DUP11 ADD SWAP10 POP POP PUSH1 0x1 DUP2 ADD SWAP1 POP PUSH2 0x4244 JUMP JUMPDEST POP DUP3 SWAP8 POP DUP8 SWAP6 POP POP POP POP POP POP SWAP3 SWAP2 POP POP JUMP JUMPDEST PUSH1 0x0 PUSH2 0x4299 DUP3 PUSH2 0x5959 JUMP JUMPDEST PUSH2 0x42A3 DUP2 DUP6 PUSH2 0x5B3C JUMP JUMPDEST SWAP4 POP DUP4 PUSH1 0x20 DUP3 MUL DUP6 ADD PUSH2 0x42B5 DUP6 PUSH2 0x588B JUMP JUMPDEST DUP1 PUSH1 0x0 JUMPDEST DUP6 DUP2 LT ISZERO PUSH2 0x42F1 JUMPI DUP5 DUP5 SUB DUP10 MSTORE DUP2 MLOAD PUSH2 0x42D2 DUP6 DUP3 PUSH2 0x3D86 JUMP JUMPDEST SWAP5 POP PUSH2 0x42DD DUP4 PUSH2 0x5A33 JUMP JUMPDEST SWAP3 POP PUSH1 0x20 DUP11 ADD SWAP10 POP POP PUSH1 0x1 DUP2 ADD SWAP1 POP PUSH2 0x42B9 JUMP JUMPDEST POP DUP3 SWAP8 POP DUP8 SWAP6 POP POP POP POP POP POP SWAP3 SWAP2 POP POP JUMP JUMPDEST PUSH1 0x0 PUSH2 0x430E DUP3 PUSH2 0x5964 JUMP JUMPDEST PUSH2 0x4318 DUP2 DUP6 PUSH2 0x5B4D JUMP JUMPDEST SWAP4 POP DUP4 PUSH1 0x20 DUP3 MUL DUP6 ADD PUSH2 0x432A DUP6 PUSH2 0x589B JUMP JUMPDEST DUP1 PUSH1 0x0 JUMPDEST DUP6 DUP2 LT ISZERO PUSH2 0x4366 JUMPI DUP5 DUP5 SUB DUP10 MSTORE DUP2 MLOAD PUSH2 0x4347 DUP6 DUP3 PUSH2 0x3D9A JUMP JUMPDEST SWAP5 POP PUSH2 0x4352 DUP4 PUSH2 0x5A40 JUMP JUMPDEST SWAP3 POP PUSH1 0x20 DUP11 ADD SWAP10 POP POP PUSH1 0x1 DUP2 ADD SWAP1 POP PUSH2 0x432E JUMP JUMPDEST POP DUP3 SWAP8 POP DUP8 SWAP6 POP POP POP POP POP POP SWAP3 SWAP2 POP POP JUMP JUMPDEST PUSH1 0x0 PUSH2 0x4383 DUP3 PUSH2 0x596F JUMP JUMPDEST PUSH2 0x438D DUP2 DUP6 PUSH2 0x5B5E JUMP JUMPDEST SWAP4 POP DUP4 PUSH1 0x20 DUP3 MUL DUP6 ADD PUSH2 0x439F DUP6 PUSH2 0x58AB JUMP JUMPDEST DUP1 PUSH1 0x0 JUMPDEST DUP6 DUP2 LT ISZERO PUSH2 0x43DB JUMPI DUP5 DUP5 SUB DUP10 MSTORE DUP2 MLOAD PUSH2 0x43BC DUP6 DUP3 PUSH2 0x3DAE JUMP JUMPDEST SWAP5 POP PUSH2 0x43C7 DUP4 PUSH2 0x5A4D JUMP JUMPDEST SWAP3 POP PUSH1 0x20 DUP11 ADD SWAP10 POP POP PUSH1 0x1 DUP2 ADD SWAP1 POP PUSH2 0x43A3 JUMP JUMPDEST POP DUP3 SWAP8 POP DUP8 SWAP6 POP POP POP POP POP POP SWAP3 SWAP2 POP POP JUMP JUMPDEST PUSH1 0x0 PUSH2 0x43F8 DUP3 PUSH2 0x597A JUMP JUMPDEST PUSH2 0x4402 DUP2 DUP6 PUSH2 0x5B6F JUMP JUMPDEST SWAP4 POP PUSH2 0x440D DUP4 PUSH2 0x58BB JUMP JUMPDEST DUP1 PUSH1 0x0 JUMPDEST DUP4 DUP2 LT ISZERO PUSH2 0x443E JUMPI DUP2 MLOAD PUSH2 0x4425 DUP9 DUP3 PUSH2 0x3DC2 JUMP JUMPDEST SWAP8 POP PUSH2 0x4430 DUP4 PUSH2 0x5A5A JUMP JUMPDEST SWAP3 POP POP PUSH1 0x1 DUP2 ADD SWAP1 POP PUSH2 0x4411 JUMP JUMPDEST POP DUP6 SWAP4 POP POP POP POP SWAP3 SWAP2 POP POP JUMP JUMPDEST PUSH1 0x0 PUSH2 0x4456 DUP3 PUSH2 0x5985 JUMP JUMPDEST PUSH2 0x4460 DUP2 DUP6 PUSH2 0x5B80 JUMP JUMPDEST SWAP4 POP PUSH2 0x446B DUP4 PUSH2 0x58CB JUMP JUMPDEST DUP1 PUSH1 0x0 JUMPDEST DUP4 DUP2 LT ISZERO PUSH2 0x449C JUMPI DUP2 MLOAD PUSH2 0x4483 DUP9 DUP3 PUSH2 0x3DDA JUMP JUMPDEST SWAP8 POP PUSH2 0x448E DUP4 PUSH2 0x5A67 JUMP JUMPDEST SWAP3 POP POP PUSH1 0x1 DUP2 ADD SWAP1 POP PUSH2 0x446F JUMP JUMPDEST POP DUP6 SWAP4 POP POP POP POP SWAP3 SWAP2 POP POP JUMP JUMPDEST PUSH1 0x0 PUSH2 0x44B4 DUP3 PUSH2 0x5990 JUMP JUMPDEST PUSH2 0x44BE DUP2 DUP6 PUSH2 0x5B91 JUMP JUMPDEST SWAP4 POP PUSH2 0x44C9 DUP4 PUSH2 0x58DB JUMP JUMPDEST DUP1 PUSH1 0x0 JUMPDEST DUP4 DUP2 LT ISZERO PUSH2 0x44FA JUMPI DUP2 MLOAD PUSH2 0x44E1 DUP9 DUP3 PUSH2 0x3DF2 JUMP JUMPDEST SWAP8 POP PUSH2 0x44EC DUP4 PUSH2 0x5A74 JUMP JUMPDEST SWAP3 POP POP PUSH1 0x1 DUP2 ADD SWAP1 POP PUSH2 0x44CD JUMP JUMPDEST POP DUP6 SWAP4 POP POP POP POP SWAP3 SWAP2 POP POP JUMP JUMPDEST PUSH2 0x4510 DUP2 PUSH2 0x5BF9 JUMP JUMPDEST DUP3 MSTORE POP POP JUMP JUMPDEST PUSH2 0x451F DUP2 PUSH2 0x5BF9 JUMP JUMPDEST DUP3 MSTORE POP POP JUMP JUMPDEST PUSH2 0x452E DUP2 PUSH2 0x5C05 JUMP JUMPDEST DUP3 MSTORE POP POP JUMP JUMPDEST PUSH2 0x453D DUP2 PUSH2 0x5C05 JUMP JUMPDEST DUP3 MSTORE POP POP JUMP JUMPDEST PUSH1 0x0 PUSH2 0x454E DUP3 PUSH2 0x599B JUMP JUMPDEST PUSH2 0x4558 DUP2 DUP6 PUSH2 0x5BA2 JUMP JUMPDEST SWAP4 POP PUSH2 0x4568 DUP2 DUP6 PUSH1 0x20 DUP7 ADD PUSH2 0x5CAE JUMP JUMPDEST PUSH2 0x4571 DUP2 PUSH2 0x5CE3 JUMP JUMPDEST DUP5 ADD SWAP2 POP POP SWAP3 SWAP2 POP POP JUMP JUMPDEST PUSH2 0x4585 DUP2 PUSH2 0x5C0F JUMP JUMPDEST DUP3 MSTORE POP POP JUMP JUMPDEST PUSH2 0x4594 DUP2 PUSH2 0x5C1C JUMP JUMPDEST DUP3 MSTORE POP POP JUMP JUMPDEST PUSH2 0x45A3 DUP2 PUSH2 0x5C29 JUMP JUMPDEST DUP3 MSTORE POP POP JUMP JUMPDEST PUSH1 0x0 PUSH2 0x45B4 DUP3 PUSH2 0x59A6 JUMP JUMPDEST PUSH2 0x45BE DUP2 DUP6 PUSH2 0x5BB3 JUMP JUMPDEST SWAP4 POP PUSH2 0x45CE DUP2 DUP6 PUSH1 0x20 DUP7 ADD PUSH2 0x5CAE JUMP JUMPDEST PUSH2 0x45D7 DUP2 PUSH2 0x5CE3 JUMP JUMPDEST DUP5 ADD SWAP2 POP POP SWAP3 SWAP2 POP POP JUMP JUMPDEST PUSH1 0x0 PUSH2 0x45EF PUSH1 0x30 DUP4 PUSH2 0x5BC4 JUMP JUMPDEST SWAP2 POP PUSH32 0x546869732066756E6374696F6E2063616E206F6E6C792062652063616C6C6564 PUSH1 0x0 DUP4 ADD MSTORE PUSH32 0x2062792056657275732042726964676500000000000000000000000000000000 PUSH1 0x20 DUP4 ADD MSTORE PUSH1 0x40 DUP3 ADD SWAP1 POP SWAP2 SWAP1 POP JUMP JUMPDEST PUSH1 0x0 PUSH2 0x4655 PUSH1 0x22 DUP4 PUSH2 0x5BC4 JUMP JUMPDEST SWAP2 POP PUSH32 0x536F72727920796F752063616E27742063616C6C20746869732066756E637469 PUSH1 0x0 DUP4 ADD MSTORE PUSH32 0x6F6E000000000000000000000000000000000000000000000000000000000000 PUSH1 0x20 DUP4 ADD MSTORE PUSH1 0x40 DUP3 ADD SWAP1 POP SWAP2 SWAP1 POP JUMP JUMPDEST PUSH1 0x0 PUSH2 0x2A0 DUP4 ADD PUSH1 0x0 DUP4 ADD MLOAD PUSH2 0x46C7 PUSH1 0x0 DUP7 ADD DUP3 PUSH2 0x51E3 JUMP JUMPDEST POP PUSH1 0x20 DUP4 ADD MLOAD PUSH2 0x46DA PUSH1 0x20 DUP7 ADD DUP3 PUSH2 0x51E3 JUMP JUMPDEST POP PUSH1 0x40 DUP4 ADD MLOAD PUSH2 0x46ED PUSH1 0x40 DUP7 ADD DUP3 PUSH2 0x3E0A JUMP JUMPDEST POP PUSH1 0x60 DUP4 ADD MLOAD DUP5 DUP3 SUB PUSH1 0x60 DUP7 ADD MSTORE PUSH2 0x4705 DUP3 DUP3 PUSH2 0x43ED JUMP JUMPDEST SWAP2 POP POP PUSH1 0x80 DUP4 ADD MLOAD DUP5 DUP3 SUB PUSH1 0x80 DUP7 ADD MSTORE PUSH2 0x471F DUP3 DUP3 PUSH2 0x3F42 JUMP JUMPDEST SWAP2 POP POP PUSH1 0xA0 DUP4 ADD MLOAD DUP5 DUP3 SUB PUSH1 0xA0 DUP7 ADD MSTORE PUSH2 0x4739 DUP3 DUP3 PUSH2 0x3FA0 JUMP JUMPDEST SWAP2 POP POP PUSH1 0xC0 DUP4 ADD MLOAD PUSH2 0x474E PUSH1 0xC0 DUP7 ADD DUP3 PUSH2 0x459A JUMP JUMPDEST POP PUSH1 0xE0 DUP4 ADD MLOAD PUSH2 0x4761 PUSH1 0xE0 DUP7 ADD DUP3 PUSH2 0x459A JUMP JUMPDEST POP PUSH2 0x100 DUP4 ADD MLOAD PUSH2 0x4776 PUSH2 0x100 DUP7 ADD DUP3 PUSH2 0x459A JUMP JUMPDEST POP PUSH2 0x120 DUP4 ADD MLOAD PUSH2 0x478B PUSH2 0x120 DUP7 ADD DUP3 PUSH2 0x459A JUMP JUMPDEST POP PUSH2 0x140 DUP4 ADD MLOAD PUSH2 0x47A0 PUSH2 0x140 DUP7 ADD DUP3 PUSH2 0x459A JUMP JUMPDEST POP PUSH2 0x160 DUP4 ADD MLOAD PUSH2 0x47B5 PUSH2 0x160 DUP7 ADD DUP3 PUSH2 0x459A JUMP JUMPDEST POP PUSH2 0x180 DUP4 ADD MLOAD PUSH2 0x47CA PUSH2 0x180 DUP7 ADD DUP3 PUSH2 0x459A JUMP JUMPDEST POP PUSH2 0x1A0 DUP4 ADD MLOAD DUP5 DUP3 SUB PUSH2 0x1A0 DUP7 ADD MSTORE PUSH2 0x47E4 DUP3 DUP3 PUSH2 0x3FA0 JUMP JUMPDEST SWAP2 POP POP PUSH2 0x1C0 DUP4 ADD MLOAD DUP5 DUP3 SUB PUSH2 0x1C0 DUP7 ADD MSTORE PUSH2 0x4800 DUP3 DUP3 PUSH2 0x3FA0 JUMP JUMPDEST SWAP2 POP POP PUSH2 0x1E0 DUP4 ADD MLOAD DUP5 DUP3 SUB PUSH2 0x1E0 DUP7 ADD MSTORE PUSH2 0x481C DUP3 DUP3 PUSH2 0x3FA0 JUMP JUMPDEST SWAP2 POP POP PUSH2 0x200 DUP4 ADD MLOAD DUP5 DUP3 SUB PUSH2 0x200 DUP7 ADD MSTORE PUSH2 0x4838 DUP3 DUP3 PUSH2 0x3FA0 JUMP JUMPDEST SWAP2 POP POP PUSH2 0x220 DUP4 ADD MLOAD DUP5 DUP3 SUB PUSH2 0x220 DUP7 ADD MSTORE PUSH2 0x4854 DUP3 DUP3 PUSH2 0x3FA0 JUMP JUMPDEST SWAP2 POP POP PUSH2 0x240 DUP4 ADD MLOAD DUP5 DUP3 SUB PUSH2 0x240 DUP7 ADD MSTORE PUSH2 0x4870 DUP3 DUP3 PUSH2 0x3FA0 JUMP JUMPDEST SWAP2 POP POP PUSH2 0x260 DUP4 ADD MLOAD DUP5 DUP3 SUB PUSH2 0x260 DUP7 ADD MSTORE PUSH2 0x488C DUP3 DUP3 PUSH2 0x3F42 JUMP JUMPDEST SWAP2 POP POP PUSH2 0x280 DUP4 ADD MLOAD DUP5 DUP3 SUB PUSH2 0x280 DUP7 ADD MSTORE PUSH2 0x48A8 DUP3 DUP3 PUSH2 0x3FA0 JUMP JUMPDEST SWAP2 POP POP DUP1 SWAP2 POP POP SWAP3 SWAP2 POP POP JUMP JUMPDEST PUSH1 0x0 PUSH1 0x80 DUP4 ADD PUSH1 0x0 DUP4 ADD MLOAD PUSH2 0x48CD PUSH1 0x0 DUP7 ADD DUP3 PUSH2 0x523D JUMP JUMPDEST POP PUSH1 0x20 DUP4 ADD MLOAD PUSH2 0x48E0 PUSH1 0x20 DUP7 ADD DUP3 PUSH2 0x523D JUMP JUMPDEST POP PUSH1 0x40 DUP4 ADD MLOAD DUP5 DUP3 SUB PUSH1 0x40 DUP7 ADD MSTORE PUSH2 0x48F8 DUP3 DUP3 PUSH2 0x4543 JUMP JUMPDEST SWAP2 POP POP PUSH1 0x60 DUP4 ADD MLOAD DUP5 DUP3 SUB PUSH1 0x60 DUP7 ADD MSTORE PUSH2 0x4912 DUP3 DUP3 PUSH2 0x4303 JUMP JUMPDEST SWAP2 POP POP DUP1 SWAP2 POP POP SWAP3 SWAP2 POP POP JUMP JUMPDEST PUSH1 0x0 PUSH2 0x1C0 DUP4 ADD PUSH1 0x0 DUP4 ADD MLOAD PUSH2 0x4938 PUSH1 0x0 DUP7 ADD DUP3 PUSH2 0x51E3 JUMP JUMPDEST POP PUSH1 0x20 DUP4 ADD MLOAD PUSH2 0x494B PUSH1 0x20 DUP7 ADD DUP3 PUSH2 0x51E3 JUMP JUMPDEST POP PUSH1 0x40 DUP4 ADD MLOAD PUSH2 0x495E PUSH1 0x40 DUP7 ADD DUP3 PUSH2 0x3E0A JUMP JUMPDEST POP PUSH1 0x60 DUP4 ADD MLOAD PUSH2 0x4971 PUSH1 0x60 DUP7 ADD DUP3 PUSH2 0x4525 JUMP JUMPDEST POP PUSH1 0x80 DUP4 ADD MLOAD PUSH2 0x4984 PUSH1 0x80 DUP7 ADD DUP3 PUSH2 0x5210 JUMP JUMPDEST POP PUSH1 0xA0 DUP4 ADD MLOAD PUSH2 0x4997 PUSH1 0xA0 DUP7 ADD DUP3 PUSH2 0x5210 JUMP JUMPDEST POP PUSH1 0xC0 DUP4 ADD MLOAD PUSH2 0x49AA PUSH1 0xC0 DUP7 ADD DUP3 PUSH2 0x3E0A JUMP JUMPDEST POP PUSH1 0xE0 DUP4 ADD MLOAD PUSH2 0x49BD PUSH1 0xE0 DUP7 ADD DUP3 PUSH2 0x3E0A JUMP JUMPDEST POP PUSH2 0x100 DUP4 ADD MLOAD PUSH2 0x49D2 PUSH2 0x100 DUP7 ADD DUP3 PUSH2 0x5210 JUMP JUMPDEST POP PUSH2 0x120 DUP4 ADD MLOAD DUP5 DUP3 SUB PUSH2 0x120 DUP7 ADD MSTORE PUSH2 0x49EC DUP3 DUP3 PUSH2 0x4073 JUMP JUMPDEST SWAP2 POP POP PUSH2 0x140 DUP4 ADD MLOAD DUP5 DUP3 SUB PUSH2 0x140 DUP7 ADD MSTORE PUSH2 0x4A08 DUP3 DUP3 PUSH2 0x4073 JUMP JUMPDEST SWAP2 POP POP PUSH2 0x160 DUP4 ADD MLOAD DUP5 DUP3 SUB PUSH2 0x160 DUP7 ADD MSTORE PUSH2 0x4A24 DUP3 DUP3 PUSH2 0x4073 JUMP JUMPDEST SWAP2 POP POP PUSH2 0x180 DUP4 ADD MLOAD DUP5 DUP3 SUB PUSH2 0x180 DUP7 ADD MSTORE PUSH2 0x4A40 DUP3 DUP3 PUSH2 0x509B JUMP JUMPDEST SWAP2 POP POP PUSH2 0x1A0 DUP4 ADD MLOAD PUSH2 0x4A57 PUSH2 0x1A0 DUP7 ADD DUP3 PUSH2 0x458B JUMP JUMPDEST POP DUP1 SWAP2 POP POP SWAP3 SWAP2 POP POP JUMP JUMPDEST PUSH1 0x40 DUP3 ADD PUSH1 0x0 DUP3 ADD MLOAD PUSH2 0x4A78 PUSH1 0x0 DUP6 ADD DUP3 PUSH2 0x3E0A JUMP JUMPDEST POP PUSH1 0x20 DUP3 ADD MLOAD PUSH2 0x4A8B PUSH1 0x20 DUP6 ADD DUP3 PUSH2 0x522E JUMP JUMPDEST POP POP POP POP JUMP JUMPDEST PUSH1 0x0 PUSH1 0x80 DUP4 ADD PUSH1 0x0 DUP4 ADD MLOAD PUSH2 0x4AA9 PUSH1 0x0 DUP7 ADD DUP3 PUSH2 0x523D JUMP JUMPDEST POP PUSH1 0x20 DUP4 ADD MLOAD PUSH2 0x4ABC PUSH1 0x20 DUP7 ADD DUP3 PUSH2 0x5210 JUMP JUMPDEST POP PUSH1 0x40 DUP4 ADD MLOAD PUSH2 0x4ACF PUSH1 0x40 DUP7 ADD DUP3 PUSH2 0x5210 JUMP JUMPDEST POP PUSH1 0x60 DUP4 ADD MLOAD DUP5 DUP3 SUB PUSH1 0x60 DUP7 ADD MSTORE PUSH2 0x4AE7 DUP3 DUP3 PUSH2 0x3E86 JUMP JUMPDEST SWAP2 POP POP DUP1 SWAP2 POP POP SWAP3 SWAP2 POP POP JUMP JUMPDEST PUSH1 0x0 PUSH1 0x40 DUP4 ADD PUSH1 0x0 DUP4 ADD MLOAD DUP5 DUP3 SUB PUSH1 0x0 DUP7 ADD MSTORE PUSH2 0x4B11 DUP3 DUP3 PUSH2 0x45A9 JUMP JUMPDEST SWAP2 POP POP PUSH1 0x20 DUP4 ADD MLOAD PUSH2 0x4B26 PUSH1 0x20 DUP7 ADD DUP3 PUSH2 0x3E0A JUMP JUMPDEST POP DUP1 SWAP2 POP POP SWAP3 SWAP2 POP POP JUMP JUMPDEST PUSH1 0x0 PUSH2 0x1A0 DUP4 ADD PUSH1 0x0 DUP4 ADD MLOAD PUSH2 0x4B4A PUSH1 0x0 DUP7 ADD DUP3 PUSH2 0x5210 JUMP JUMPDEST POP PUSH1 0x20 DUP4 ADD MLOAD PUSH2 0x4B5D PUSH1 0x20 DUP7 ADD DUP3 PUSH2 0x5210 JUMP JUMPDEST POP PUSH1 0x40 DUP4 ADD MLOAD DUP5 DUP3 SUB PUSH1 0x40 DUP7 ADD MSTORE PUSH2 0x4B75 DUP3 DUP3 PUSH2 0x509B JUMP JUMPDEST SWAP2 POP POP PUSH1 0x60 DUP4 ADD MLOAD PUSH2 0x4B8A PUSH1 0x60 DUP7 ADD DUP3 PUSH2 0x3E0A JUMP JUMPDEST POP PUSH1 0x80 DUP4 ADD MLOAD DUP5 DUP3 SUB PUSH1 0x80 DUP7 ADD MSTORE PUSH2 0x4BA2 DUP3 DUP3 PUSH2 0x46AE JUMP JUMPDEST SWAP2 POP POP PUSH1 0xA0 DUP4 ADD MLOAD PUSH2 0x4BB7 PUSH1 0xA0 DUP7 ADD DUP3 PUSH2 0x5210 JUMP JUMPDEST POP PUSH1 0xC0 DUP4 ADD MLOAD PUSH2 0x4BCA PUSH1 0xC0 DUP7 ADD DUP3 PUSH2 0x50D8 JUMP JUMPDEST POP PUSH1 0xE0 DUP4 ADD MLOAD PUSH2 0x4BDE PUSH2 0x100 DUP7 ADD DUP3 PUSH2 0x4525 JUMP JUMPDEST POP PUSH2 0x100 DUP4 ADD MLOAD PUSH2 0x4BF3 PUSH2 0x120 DUP7 ADD DUP3 PUSH2 0x5210 JUMP JUMPDEST POP PUSH2 0x120 DUP4 ADD MLOAD DUP5 DUP3 SUB PUSH2 0x140 DUP7 ADD MSTORE PUSH2 0x4C0D DUP3 DUP3 PUSH2 0x4378 JUMP JUMPDEST SWAP2 POP POP PUSH2 0x140 DUP4 ADD MLOAD DUP5 DUP3 SUB PUSH2 0x160 DUP7 ADD MSTORE PUSH2 0x4C29 DUP3 DUP3 PUSH2 0x4146 JUMP JUMPDEST SWAP2 POP POP PUSH2 0x160 DUP4 ADD MLOAD DUP5 DUP3 SUB PUSH2 0x180 DUP7 ADD MSTORE PUSH2 0x4C45 DUP3 DUP3 PUSH2 0x40D1 JUMP JUMPDEST SWAP2 POP POP DUP1 SWAP2 POP POP SWAP3 SWAP2 POP POP JUMP JUMPDEST PUSH1 0xE0 DUP3 ADD PUSH1 0x0 DUP3 ADD MLOAD PUSH2 0x4C68 PUSH1 0x0 DUP6 ADD DUP3 PUSH2 0x457C JUMP JUMPDEST POP PUSH1 0x20 DUP3 ADD MLOAD PUSH2 0x4C7B PUSH1 0x20 DUP6 ADD DUP3 PUSH2 0x457C JUMP JUMPDEST POP PUSH1 0x40 DUP3 ADD MLOAD PUSH2 0x4C8E PUSH1 0x40 DUP6 ADD DUP3 PUSH2 0x3E0A JUMP JUMPDEST POP PUSH1 0x60 DUP3 ADD MLOAD PUSH2 0x4CA1 PUSH1 0x60 DUP6 ADD DUP3 PUSH2 0x5210 JUMP JUMPDEST POP PUSH1 0x80 DUP3 ADD MLOAD PUSH2 0x4CB4 PUSH1 0x80 DUP6 ADD DUP3 PUSH2 0x4525 JUMP JUMPDEST POP PUSH1 0xA0 DUP3 ADD MLOAD PUSH2 0x4CC7 PUSH1 0xA0 DUP6 ADD DUP3 PUSH2 0x4525 JUMP JUMPDEST POP PUSH1 0xC0 DUP3 ADD MLOAD PUSH2 0x4CDA PUSH1 0xC0 DUP6 ADD DUP3 PUSH2 0x4525 JUMP JUMPDEST POP POP POP POP JUMP JUMPDEST PUSH1 0xE0 DUP3 ADD PUSH1 0x0 DUP3 ADD MLOAD PUSH2 0x4CF6 PUSH1 0x0 DUP6 ADD DUP3 PUSH2 0x457C JUMP JUMPDEST POP PUSH1 0x20 DUP3 ADD MLOAD PUSH2 0x4D09 PUSH1 0x20 DUP6 ADD DUP3 PUSH2 0x457C JUMP JUMPDEST POP PUSH1 0x40 DUP3 ADD MLOAD PUSH2 0x4D1C PUSH1 0x40 DUP6 ADD DUP3 PUSH2 0x3E0A JUMP JUMPDEST POP PUSH1 0x60 DUP3 ADD MLOAD PUSH2 0x4D2F PUSH1 0x60 DUP6 ADD DUP3 PUSH2 0x5210 JUMP JUMPDEST POP PUSH1 0x80 DUP3 ADD MLOAD PUSH2 0x4D42 PUSH1 0x80 DUP6 ADD DUP3 PUSH2 0x4525 JUMP JUMPDEST POP PUSH1 0xA0 DUP3 ADD MLOAD PUSH2 0x4D55 PUSH1 0xA0 DUP6 ADD DUP3 PUSH2 0x4525 JUMP JUMPDEST POP PUSH1 0xC0 DUP3 ADD MLOAD PUSH2 0x4D68 PUSH1 0xC0 DUP6 ADD DUP3 PUSH2 0x4525 JUMP JUMPDEST POP POP POP POP JUMP JUMPDEST PUSH1 0x0 PUSH1 0x80 DUP4 ADD PUSH1 0x0 DUP4 ADD MLOAD PUSH2 0x4D86 PUSH1 0x0 DUP7 ADD DUP3 PUSH2 0x523D JUMP JUMPDEST POP PUSH1 0x20 DUP4 ADD MLOAD PUSH2 0x4D99 PUSH1 0x20 DUP7 ADD DUP3 PUSH2 0x523D JUMP JUMPDEST POP PUSH1 0x40 DUP4 ADD MLOAD DUP5 DUP3 SUB PUSH1 0x40 DUP7 ADD MSTORE PUSH2 0x4DB1 DUP3 DUP3 PUSH2 0x4303 JUMP JUMPDEST SWAP2 POP POP PUSH1 0x60 DUP4 ADD MLOAD DUP5 DUP3 SUB PUSH1 0x60 DUP7 ADD MSTORE PUSH2 0x4DCB DUP3 DUP3 PUSH2 0x3FFE JUMP JUMPDEST SWAP2 POP POP DUP1 SWAP2 POP POP SWAP3 SWAP2 POP POP JUMP JUMPDEST PUSH1 0x0 PUSH1 0xC0 DUP4 ADD PUSH1 0x0 DUP4 ADD MLOAD PUSH2 0x4DF0 PUSH1 0x0 DUP7 ADD DUP3 PUSH2 0x51F2 JUMP JUMPDEST POP PUSH1 0x20 DUP4 ADD MLOAD PUSH2 0x4E03 PUSH1 0x20 DUP7 ADD DUP3 PUSH2 0x4525 JUMP JUMPDEST POP PUSH1 0x40 DUP4 ADD MLOAD PUSH2 0x4E16 PUSH1 0x40 DUP7 ADD DUP3 PUSH2 0x51F2 JUMP JUMPDEST POP PUSH1 0x60 DUP4 ADD MLOAD DUP5 DUP3 SUB PUSH1 0x60 DUP7 ADD MSTORE PUSH2 0x4E2E DUP3 DUP3 PUSH2 0x491F JUMP JUMPDEST SWAP2 POP POP PUSH1 0x80 DUP4 ADD MLOAD DUP5 DUP3 SUB PUSH1 0x80 DUP7 ADD MSTORE PUSH2 0x4E48 DUP3 DUP3 PUSH2 0x4D6E JUMP JUMPDEST SWAP2 POP POP PUSH1 0xA0 DUP4 ADD MLOAD DUP5 DUP3 SUB PUSH1 0xA0 DUP7 ADD MSTORE PUSH2 0x4E62 DUP3 DUP3 PUSH2 0x428E JUMP JUMPDEST SWAP2 POP POP DUP1 SWAP2 POP POP SWAP3 SWAP2 POP POP JUMP JUMPDEST PUSH1 0x0 PUSH1 0x80 DUP4 ADD PUSH1 0x0 DUP4 ADD MLOAD PUSH2 0x4E87 PUSH1 0x0 DUP7 ADD DUP3 PUSH2 0x51F2 JUMP JUMPDEST POP PUSH1 0x20 DUP4 ADD MLOAD PUSH2 0x4E9A PUSH1 0x20 DUP7 ADD DUP3 PUSH2 0x51F2 JUMP JUMPDEST POP PUSH1 0x40 DUP4 ADD MLOAD PUSH2 0x4EAD PUSH1 0x40 DUP7 ADD DUP3 PUSH2 0x4525 JUMP JUMPDEST POP PUSH1 0x60 DUP4 ADD MLOAD DUP5 DUP3 SUB PUSH1 0x60 DUP7 ADD MSTORE PUSH2 0x4EC5 DUP3 DUP3 PUSH2 0x428E JUMP JUMPDEST SWAP2 POP POP DUP1 SWAP2 POP POP SWAP3 SWAP2 POP POP JUMP JUMPDEST PUSH1 0x0 PUSH2 0x140 DUP4 ADD PUSH1 0x0 DUP4 ADD MLOAD PUSH2 0x4EEB PUSH1 0x0 DUP7 ADD DUP3 PUSH2 0x5210 JUMP JUMPDEST POP PUSH1 0x20 DUP4 ADD MLOAD PUSH2 0x4EFE PUSH1 0x20 DUP7 ADD DUP3 PUSH2 0x4A62 JUMP JUMPDEST POP PUSH1 0x40 DUP4 ADD MLOAD PUSH2 0x4F11 PUSH1 0x60 DUP7 ADD DUP3 PUSH2 0x5210 JUMP JUMPDEST POP PUSH1 0x60 DUP4 ADD MLOAD PUSH2 0x4F24 PUSH1 0x80 DUP7 ADD DUP3 PUSH2 0x3E0A JUMP JUMPDEST POP PUSH1 0x80 DUP4 ADD MLOAD PUSH2 0x4F37 PUSH1 0xA0 DUP7 ADD DUP3 PUSH2 0x51F2 JUMP JUMPDEST POP PUSH1 0xA0 DUP4 ADD MLOAD DUP5 DUP3 SUB PUSH1 0xC0 DUP7 ADD MSTORE PUSH2 0x4F4F DUP3 DUP3 PUSH2 0x509B JUMP JUMPDEST SWAP2 POP POP PUSH1 0xC0 DUP4 ADD MLOAD PUSH2 0x4F64 PUSH1 0xE0 DUP7 ADD DUP3 PUSH2 0x3E0A JUMP JUMPDEST POP PUSH1 0xE0 DUP4 ADD MLOAD PUSH2 0x4F78 PUSH2 0x100 DUP7 ADD DUP3 PUSH2 0x3E0A JUMP JUMPDEST POP PUSH2 0x100 DUP4 ADD MLOAD PUSH2 0x4F8D PUSH2 0x120 DUP7 ADD DUP3 PUSH2 0x3E0A JUMP JUMPDEST POP DUP1 SWAP2 POP POP SWAP3 SWAP2 POP POP JUMP JUMPDEST PUSH1 0x0 PUSH2 0x140 DUP4 ADD PUSH1 0x0 DUP4 ADD MLOAD PUSH2 0x4FB1 PUSH1 0x0 DUP7 ADD DUP3 PUSH2 0x5210 JUMP JUMPDEST POP PUSH1 0x20 DUP4 ADD MLOAD PUSH2 0x4FC4 PUSH1 0x20 DUP7 ADD DUP3 PUSH2 0x4A62 JUMP JUMPDEST POP PUSH1 0x40 DUP4 ADD MLOAD PUSH2 0x4FD7 PUSH1 0x60 DUP7 ADD DUP3 PUSH2 0x5210 JUMP JUMPDEST POP PUSH1 0x60 DUP4 ADD MLOAD PUSH2 0x4FEA PUSH1 0x80 DUP7 ADD DUP3 PUSH2 0x3E0A JUMP JUMPDEST POP PUSH1 0x80 DUP4 ADD MLOAD PUSH2 0x4FFD PUSH1 0xA0 DUP7 ADD DUP3 PUSH2 0x51F2 JUMP JUMPDEST POP PUSH1 0xA0 DUP4 ADD MLOAD DUP5 DUP3 SUB PUSH1 0xC0 DUP7 ADD MSTORE PUSH2 0x5015 DUP3 DUP3 PUSH2 0x509B JUMP JUMPDEST SWAP2 POP POP PUSH1 0xC0 DUP4 ADD MLOAD PUSH2 0x502A PUSH1 0xE0 DUP7 ADD DUP3 PUSH2 0x3E0A JUMP JUMPDEST POP PUSH1 0xE0 DUP4 ADD MLOAD PUSH2 0x503E PUSH2 0x100 DUP7 ADD DUP3 PUSH2 0x3E0A JUMP JUMPDEST POP PUSH2 0x100 DUP4 ADD MLOAD PUSH2 0x5053 PUSH2 0x120 DUP7 ADD DUP3 PUSH2 0x3E0A JUMP JUMPDEST POP DUP1 SWAP2 POP POP SWAP3 SWAP2 POP POP JUMP JUMPDEST PUSH1 0x0 PUSH1 0x40 DUP4 ADD PUSH1 0x0 DUP4 ADD MLOAD PUSH2 0x5076 PUSH1 0x0 DUP7 ADD DUP3 PUSH2 0x523D JUMP JUMPDEST POP PUSH1 0x20 DUP4 ADD MLOAD DUP5 DUP3 SUB PUSH1 0x20 DUP7 ADD MSTORE PUSH2 0x508E DUP3 DUP3 PUSH2 0x4A91 JUMP JUMPDEST SWAP2 POP POP DUP1 SWAP2 POP POP SWAP3 SWAP2 POP POP JUMP JUMPDEST PUSH1 0x0 PUSH1 0x40 DUP4 ADD PUSH1 0x0 DUP4 ADD MLOAD PUSH2 0x50B3 PUSH1 0x0 DUP7 ADD DUP3 PUSH2 0x523D JUMP JUMPDEST POP PUSH1 0x20 DUP4 ADD MLOAD DUP5 DUP3 SUB PUSH1 0x20 DUP7 ADD MSTORE PUSH2 0x50CB DUP3 DUP3 PUSH2 0x4543 JUMP JUMPDEST SWAP2 POP POP DUP1 SWAP2 POP POP SWAP3 SWAP2 POP POP JUMP JUMPDEST PUSH1 0x40 DUP3 ADD PUSH1 0x0 DUP3 ADD MLOAD PUSH2 0x50EE PUSH1 0x0 DUP6 ADD DUP3 PUSH2 0x4525 JUMP JUMPDEST POP PUSH1 0x20 DUP3 ADD MLOAD PUSH2 0x5101 PUSH1 0x20 DUP6 ADD DUP3 PUSH2 0x5210 JUMP JUMPDEST POP POP POP POP JUMP JUMPDEST PUSH1 0x0 PUSH1 0x40 DUP4 ADD PUSH1 0x0 DUP4 ADD MLOAD PUSH2 0x511F PUSH1 0x0 DUP7 ADD DUP3 PUSH2 0x3E0A JUMP JUMPDEST POP PUSH1 0x20 DUP4 ADD MLOAD DUP5 DUP3 SUB PUSH1 0x20 DUP7 ADD MSTORE PUSH2 0x5137 DUP3 DUP3 PUSH2 0x46AE JUMP JUMPDEST SWAP2 POP POP DUP1 SWAP2 POP POP SWAP3 SWAP2 POP POP JUMP JUMPDEST PUSH1 0x0 PUSH1 0xC0 DUP4 ADD PUSH1 0x0 DUP4 ADD MLOAD PUSH2 0x515C PUSH1 0x0 DUP7 ADD DUP3 PUSH2 0x51F2 JUMP JUMPDEST POP PUSH1 0x20 DUP4 ADD MLOAD DUP5 DUP3 SUB PUSH1 0x20 DUP7 ADD MSTORE PUSH2 0x5174 DUP3 DUP3 PUSH2 0x45A9 JUMP JUMPDEST SWAP2 POP POP PUSH1 0x40 DUP4 ADD MLOAD PUSH2 0x5189 PUSH1 0x40 DUP7 ADD DUP3 PUSH2 0x51F2 JUMP JUMPDEST POP PUSH1 0x60 DUP4 ADD MLOAD PUSH2 0x519C PUSH1 0x60 DUP7 ADD DUP3 PUSH2 0x51F2 JUMP JUMPDEST POP PUSH1 0x80 DUP4 ADD MLOAD DUP5 DUP3 SUB PUSH1 0x80 DUP7 ADD MSTORE PUSH2 0x51B4 DUP3 DUP3 PUSH2 0x45A9 JUMP JUMPDEST SWAP2 POP POP PUSH1 0xA0 DUP4 ADD MLOAD PUSH2 0x51C9 PUSH1 0xA0 DUP7 ADD DUP3 PUSH2 0x4507 JUMP JUMPDEST POP DUP1 SWAP2 POP POP SWAP3 SWAP2 POP POP JUMP JUMPDEST PUSH2 0x51DD DUP2 PUSH2 0x5C44 JUMP JUMPDEST DUP3 MSTORE POP POP JUMP JUMPDEST PUSH2 0x51EC DUP2 PUSH2 0x5C36 JUMP JUMPDEST DUP3 MSTORE POP POP JUMP JUMPDEST PUSH2 0x51FB DUP2 PUSH2 0x5C64 JUMP JUMPDEST DUP3 MSTORE POP POP JUMP JUMPDEST PUSH2 0x520A DUP2 PUSH2 0x5C64 JUMP JUMPDEST DUP3 MSTORE POP POP JUMP JUMPDEST PUSH2 0x5219 DUP2 PUSH2 0x5C6E JUMP JUMPDEST DUP3 MSTORE POP POP JUMP JUMPDEST PUSH2 0x5228 DUP2 PUSH2 0x5C6E JUMP JUMPDEST DUP3 MSTORE POP POP JUMP JUMPDEST PUSH2 0x5237 DUP2 PUSH2 0x5C7E JUMP JUMPDEST DUP3 MSTORE POP POP JUMP JUMPDEST PUSH2 0x5246 DUP2 PUSH2 0x5C92 JUMP JUMPDEST DUP3 MSTORE POP POP JUMP JUMPDEST PUSH1 0x0 PUSH1 0x20 DUP3 ADD SWAP1 POP PUSH2 0x5261 PUSH1 0x0 DUP4 ADD DUP5 PUSH2 0x3E19 JUMP JUMPDEST SWAP3 SWAP2 POP POP JUMP JUMPDEST PUSH1 0x0 PUSH1 0x20 DUP3 ADD SWAP1 POP DUP2 DUP2 SUB PUSH1 0x0 DUP4 ADD MSTORE PUSH2 0x5281 DUP2 DUP5 PUSH2 0x3EE4 JUMP JUMPDEST SWAP1 POP SWAP3 SWAP2 POP POP JUMP JUMPDEST PUSH1 0x0 PUSH1 0x20 DUP3 ADD SWAP1 POP DUP2 DUP2 SUB PUSH1 0x0 DUP4 ADD MSTORE PUSH2 0x52A3 DUP2 DUP5 PUSH2 0x41A4 JUMP JUMPDEST SWAP1 POP SWAP3 SWAP2 POP POP JUMP JUMPDEST PUSH1 0x0 PUSH1 0x20 DUP3 ADD SWAP1 POP DUP2 DUP2 SUB PUSH1 0x0 DUP4 ADD MSTORE PUSH2 0x52C5 DUP2 DUP5 PUSH2 0x4219 JUMP JUMPDEST SWAP1 POP SWAP3 SWAP2 POP POP JUMP JUMPDEST PUSH1 0x0 PUSH1 0x20 DUP3 ADD SWAP1 POP PUSH2 0x52E2 PUSH1 0x0 DUP4 ADD DUP5 PUSH2 0x4516 JUMP JUMPDEST SWAP3 SWAP2 POP POP JUMP JUMPDEST PUSH1 0x0 PUSH1 0x20 DUP3 ADD SWAP1 POP PUSH2 0x52FD PUSH1 0x0 DUP4 ADD DUP5 PUSH2 0x4534 JUMP JUMPDEST SWAP3 SWAP2 POP POP JUMP JUMPDEST PUSH1 0x0 PUSH1 0x20 DUP3 ADD SWAP1 POP DUP2 DUP2 SUB PUSH1 0x0 DUP4 ADD MSTORE PUSH2 0x531C DUP2 PUSH2 0x45E2 JUMP JUMPDEST SWAP1 POP SWAP2 SWAP1 POP JUMP JUMPDEST PUSH1 0x0 PUSH1 0x20 DUP3 ADD SWAP1 POP DUP2 DUP2 SUB PUSH1 0x0 DUP4 ADD MSTORE PUSH2 0x533C DUP2 PUSH2 0x4648 JUMP JUMPDEST SWAP1 POP SWAP2 SWAP1 POP JUMP JUMPDEST PUSH1 0x0 PUSH1 0xC0 DUP3 ADD SWAP1 POP DUP2 DUP2 SUB PUSH1 0x0 DUP4 ADD MSTORE PUSH2 0x535D DUP2 DUP10 PUSH2 0x4B31 JUMP JUMPDEST SWAP1 POP DUP2 DUP2 SUB PUSH1 0x20 DUP4 ADD MSTORE PUSH2 0x5371 DUP2 DUP9 PUSH2 0x44A9 JUMP JUMPDEST SWAP1 POP DUP2 DUP2 SUB PUSH1 0x40 DUP4 ADD MSTORE PUSH2 0x5385 DUP2 DUP8 PUSH2 0x3EE4 JUMP JUMPDEST SWAP1 POP DUP2 DUP2 SUB PUSH1 0x60 DUP4 ADD MSTORE PUSH2 0x5399 DUP2 DUP7 PUSH2 0x3EE4 JUMP JUMPDEST SWAP1 POP DUP2 DUP2 SUB PUSH1 0x80 DUP4 ADD MSTORE PUSH2 0x53AD DUP2 DUP6 PUSH2 0x444B JUMP JUMPDEST SWAP1 POP DUP2 DUP2 SUB PUSH1 0xA0 DUP4 ADD MSTORE PUSH2 0x53C1 DUP2 DUP5 PUSH2 0x3E28 JUMP JUMPDEST SWAP1 POP SWAP8 SWAP7 POP POP POP POP POP POP POP JUMP JUMPDEST PUSH1 0x0 PUSH1 0xE0 DUP3 ADD SWAP1 POP PUSH2 0x53E3 PUSH1 0x0 DUP4 ADD DUP5 PUSH2 0x4CE0 JUMP JUMPDEST SWAP3 SWAP2 POP POP JUMP JUMPDEST PUSH1 0x0 PUSH1 0x40 DUP3 ADD SWAP1 POP DUP2 DUP2 SUB PUSH1 0x0 DUP4 ADD MSTORE PUSH2 0x5403 DUP2 DUP6 PUSH2 0x4F98 JUMP JUMPDEST SWAP1 POP PUSH2 0x5412 PUSH1 0x20 DUP4 ADD DUP5 PUSH2 0x5201 JUMP JUMPDEST SWAP4 SWAP3 POP POP POP JUMP JUMPDEST PUSH1 0x0 PUSH1 0x20 DUP3 ADD SWAP1 POP DUP2 DUP2 SUB PUSH1 0x0 DUP4 ADD MSTORE PUSH2 0x5433 DUP2 DUP5 PUSH2 0x5144 JUMP JUMPDEST SWAP1 POP SWAP3 SWAP2 POP POP JUMP JUMPDEST PUSH1 0x0 PUSH1 0x20 DUP3 ADD SWAP1 POP PUSH2 0x5450 PUSH1 0x0 DUP4 ADD DUP5 PUSH2 0x5201 JUMP JUMPDEST SWAP3 SWAP2 POP POP JUMP JUMPDEST PUSH1 0x0 PUSH1 0x40 DUP3 ADD SWAP1 POP PUSH2 0x546B PUSH1 0x0 DUP4 ADD DUP6 PUSH2 0x5201 JUMP JUMPDEST PUSH2 0x5478 PUSH1 0x20 DUP4 ADD DUP5 PUSH2 0x5201 JUMP JUMPDEST SWAP4 SWAP3 POP POP POP JUMP JUMPDEST PUSH1 0x0 PUSH1 0x20 DUP3 ADD SWAP1 POP PUSH2 0x5494 PUSH1 0x0 DUP4 ADD DUP5 PUSH2 0x521F JUMP JUMPDEST SWAP3 SWAP2 POP POP JUMP JUMPDEST PUSH1 0x0 PUSH1 0x40 MLOAD SWAP1 POP DUP2 DUP2 ADD DUP2 DUP2 LT PUSH8 0xFFFFFFFFFFFFFFFF DUP3 GT OR ISZERO PUSH2 0x54C1 JUMPI PUSH2 0x54C0 PUSH2 0x5CE1 JUMP JUMPDEST JUMPDEST DUP1 PUSH1 0x40 MSTORE POP SWAP2 SWAP1 POP JUMP JUMPDEST PUSH1 0x0 PUSH8 0xFFFFFFFFFFFFFFFF DUP3 GT ISZERO PUSH2 0x54E6 JUMPI PUSH2 0x54E5 PUSH2 0x5CE1 JUMP JUMPDEST JUMPDEST PUSH1 0x20 DUP3 MUL SWAP1 POP PUSH1 0x20 DUP2 ADD SWAP1 POP SWAP2 SWAP1 POP JUMP JUMPDEST PUSH1 0x0 PUSH8 0xFFFFFFFFFFFFFFFF DUP3 GT ISZERO PUSH2 0x5512 JUMPI PUSH2 0x5511 PUSH2 0x5CE1 JUMP JUMPDEST JUMPDEST PUSH1 0x20 DUP3 MUL SWAP1 POP PUSH1 0x20 DUP2 ADD SWAP1 POP SWAP2 SWAP1 POP JUMP JUMPDEST PUSH1 0x0 PUSH8 0xFFFFFFFFFFFFFFFF DUP3 GT ISZERO PUSH2 0x553E JUMPI PUSH2 0x553D PUSH2 0x5CE1 JUMP JUMPDEST JUMPDEST PUSH1 0x20 DUP3 MUL SWAP1 POP PUSH1 0x20 DUP2 ADD SWAP1 POP SWAP2 SWAP1 POP JUMP JUMPDEST PUSH1 0x0 PUSH8 0xFFFFFFFFFFFFFFFF DUP3 GT ISZERO PUSH2 0x556A JUMPI PUSH2 0x5569 PUSH2 0x5CE1 JUMP JUMPDEST JUMPDEST PUSH1 0x20 DUP3 MUL SWAP1 POP PUSH1 0x20 DUP2 ADD SWAP1 POP SWAP2 SWAP1 POP JUMP JUMPDEST PUSH1 0x0 PUSH8 0xFFFFFFFFFFFFFFFF DUP3 GT ISZERO PUSH2 0x5596 JUMPI PUSH2 0x5595 PUSH2 0x5CE1 JUMP JUMPDEST JUMPDEST PUSH1 0x20 DUP3 MUL SWAP1 POP PUSH1 0x20 DUP2 ADD SWAP1 POP SWAP2 SWAP1 POP JUMP JUMPDEST PUSH1 0x0 PUSH8 0xFFFFFFFFFFFFFFFF DUP3 GT ISZERO PUSH2 0x55C2 JUMPI PUSH2 0x55C1 PUSH2 0x5CE1 JUMP JUMPDEST JUMPDEST PUSH1 0x20 DUP3 MUL SWAP1 POP PUSH1 0x20 DUP2 ADD SWAP1 POP SWAP2 SWAP1 POP JUMP JUMPDEST PUSH1 0x0 PUSH8 0xFFFFFFFFFFFFFFFF DUP3 GT ISZERO PUSH2 0x55EE JUMPI PUSH2 0x55ED PUSH2 0x5CE1 JUMP JUMPDEST JUMPDEST PUSH1 0x20 DUP3 MUL SWAP1 POP PUSH1 0x20 DUP2 ADD SWAP1 POP SWAP2 SWAP1 POP JUMP JUMPDEST PUSH1 0x0 PUSH8 0xFFFFFFFFFFFFFFFF DUP3 GT ISZERO PUSH2 0x561A JUMPI PUSH2 0x5619 PUSH2 0x5CE1 JUMP JUMPDEST JUMPDEST PUSH1 0x20 DUP3 MUL SWAP1 POP PUSH1 0x20 DUP2 ADD SWAP1 POP SWAP2 SWAP1 POP JUMP JUMPDEST PUSH1 0x0 PUSH8 0xFFFFFFFFFFFFFFFF DUP3 GT ISZERO PUSH2 0x5646 JUMPI PUSH2 0x5645 PUSH2 0x5CE1 JUMP JUMPDEST JUMPDEST PUSH1 0x20 DUP3 MUL SWAP1 POP PUSH1 0x20 DUP2 ADD SWAP1 POP SWAP2 SWAP1 POP JUMP JUMPDEST PUSH1 0x0 PUSH8 0xFFFFFFFFFFFFFFFF DUP3 GT ISZERO PUSH2 0x5672 JUMPI PUSH2 0x5671 PUSH2 0x5CE1 JUMP JUMPDEST JUMPDEST PUSH1 0x20 DUP3 MUL SWAP1 POP PUSH1 0x20 DUP2 ADD SWAP1 POP SWAP2 SWAP1 POP JUMP JUMPDEST PUSH1 0x0 PUSH8 0xFFFFFFFFFFFFFFFF DUP3 GT ISZERO PUSH2 0x569E JUMPI PUSH2 0x569D PUSH2 0x5CE1 JUMP JUMPDEST JUMPDEST PUSH1 0x20 DUP3 MUL SWAP1 POP PUSH1 0x20 DUP2 ADD SWAP1 POP SWAP2 SWAP1 POP JUMP JUMPDEST PUSH1 0x0 PUSH8 0xFFFFFFFFFFFFFFFF DUP3 GT ISZERO PUSH2 0x56CA JUMPI PUSH2 0x56C9 PUSH2 0x5CE1 JUMP JUMPDEST JUMPDEST PUSH1 0x20 DUP3 MUL SWAP1 POP PUSH1 0x20 DUP2 ADD SWAP1 POP SWAP2 SWAP1 POP JUMP JUMPDEST PUSH1 0x0 PUSH8 0xFFFFFFFFFFFFFFFF DUP3 GT ISZERO PUSH2 0x56F6 JUMPI PUSH2 0x56F5 PUSH2 0x5CE1 JUMP JUMPDEST JUMPDEST PUSH1 0x20 DUP3 MUL SWAP1 POP PUSH1 0x20 DUP2 ADD SWAP1 POP SWAP2 SWAP1 POP JUMP JUMPDEST PUSH1 0x0 PUSH8 0xFFFFFFFFFFFFFFFF DUP3 GT ISZERO PUSH2 0x5722 JUMPI PUSH2 0x5721 PUSH2 0x5CE1 JUMP JUMPDEST JUMPDEST PUSH1 0x20 DUP3 MUL SWAP1 POP PUSH1 0x20 DUP2 ADD SWAP1 POP SWAP2 SWAP1 POP JUMP JUMPDEST PUSH1 0x0 PUSH8 0xFFFFFFFFFFFFFFFF DUP3 GT ISZERO PUSH2 0x574E JUMPI PUSH2 0x574D PUSH2 0x5CE1 JUMP JUMPDEST JUMPDEST PUSH1 0x20 DUP3 MUL SWAP1 POP PUSH1 0x20 DUP2 ADD SWAP1 POP SWAP2 SWAP1 POP JUMP JUMPDEST PUSH1 0x0 PUSH8 0xFFFFFFFFFFFFFFFF DUP3 GT ISZERO PUSH2 0x577A JUMPI PUSH2 0x5779 PUSH2 0x5CE1 JUMP JUMPDEST JUMPDEST PUSH1 0x20 DUP3 MUL SWAP1 POP PUSH1 0x20 DUP2 ADD SWAP1 POP SWAP2 SWAP1 POP JUMP JUMPDEST PUSH1 0x0 PUSH8 0xFFFFFFFFFFFFFFFF DUP3 GT ISZERO PUSH2 0x57A6 JUMPI PUSH2 0x57A5 PUSH2 0x5CE1 JUMP JUMPDEST JUMPDEST PUSH1 0x1F NOT PUSH1 0x1F DUP4 ADD AND SWAP1 POP PUSH1 0x20 DUP2 ADD SWAP1 POP SWAP2 SWAP1 POP JUMP JUMPDEST PUSH1 0x0 PUSH8 0xFFFFFFFFFFFFFFFF DUP3 GT ISZERO PUSH2 0x57D6 JUMPI PUSH2 0x57D5 PUSH2 0x5CE1 JUMP JUMPDEST JUMPDEST PUSH1 0x1F NOT PUSH1 0x1F DUP4 ADD AND SWAP1 POP PUSH1 0x20 DUP2 ADD SWAP1 POP SWAP2 SWAP1 POP JUMP JUMPDEST PUSH1 0x0 DUP2 SWAP1 POP PUSH1 0x20 DUP3 ADD SWAP1 POP SWAP2 SWAP1 POP JUMP JUMPDEST PUSH1 0x0 DUP2 SWAP1 POP PUSH1 0x20 DUP3 ADD SWAP1 POP SWAP2 SWAP1 POP JUMP JUMPDEST PUSH1 0x0 DUP2 SWAP1 POP PUSH1 0x20 DUP3 ADD SWAP1 POP SWAP2 SWAP1 POP JUMP JUMPDEST PUSH1 0x0 DUP2 SWAP1 POP PUSH1 0x20 DUP3 ADD SWAP1 POP SWAP2 SWAP1 POP JUMP JUMPDEST PUSH1 0x0 DUP2 SWAP1 POP PUSH1 0x20 DUP3 ADD SWAP1 POP SWAP2 SWAP1 POP JUMP JUMPDEST PUSH1 0x0 DUP2 SWAP1 POP PUSH1 0x20 DUP3 ADD SWAP1 POP SWAP2 SWAP1 POP JUMP JUMPDEST PUSH1 0x0 DUP2 SWAP1 POP PUSH1 0x20 DUP3 ADD SWAP1 POP SWAP2 SWAP1 POP JUMP JUMPDEST PUSH1 0x0 DUP2 SWAP1 POP PUSH1 0x20 DUP3 ADD SWAP1 POP SWAP2 SWAP1 POP JUMP JUMPDEST PUSH1 0x0 DUP2 SWAP1 POP PUSH1 0x20 DUP3 ADD SWAP1 POP SWAP2 SWAP1 POP JUMP JUMPDEST PUSH1 0x0 DUP2 SWAP1 POP PUSH1 0x20 DUP3 ADD SWAP1 POP SWAP2 SWAP1 POP JUMP JUMPDEST PUSH1 0x0 DUP2 SWAP1 POP PUSH1 0x20 DUP3 ADD SWAP1 POP SWAP2 SWAP1 POP JUMP JUMPDEST PUSH1 0x0 DUP2 SWAP1 POP PUSH1 0x20 DUP3 ADD SWAP1 POP SWAP2 SWAP1 POP JUMP JUMPDEST PUSH1 0x0 DUP2 SWAP1 POP PUSH1 0x20 DUP3 ADD SWAP1 POP SWAP2 SWAP1 POP JUMP JUMPDEST PUSH1 0x0 DUP2 SWAP1 POP PUSH1 0x20 DUP3 ADD SWAP1 POP SWAP2 SWAP1 POP JUMP JUMPDEST PUSH1 0x0 DUP2 SWAP1 POP PUSH1 0x20 DUP3 ADD SWAP1 POP SWAP2 SWAP1 POP JUMP JUMPDEST PUSH1 0x0 DUP2 SWAP1 POP PUSH1 0x20 DUP3 ADD SWAP1 POP SWAP2 SWAP1 POP JUMP JUMPDEST PUSH1 0x0 DUP2 MLOAD SWAP1 POP SWAP2 SWAP1 POP JUMP JUMPDEST PUSH1 0x0 DUP2 MLOAD SWAP1 POP SWAP2 SWAP1 POP JUMP JUMPDEST PUSH1 0x0 DUP2 MLOAD SWAP1 POP SWAP2 SWAP1 POP JUMP JUMPDEST PUSH1 0x0 DUP2 MLOAD SWAP1 POP SWAP2 SWAP1 POP JUMP JUMPDEST PUSH1 0x0 DUP2 MLOAD SWAP1 POP SWAP2 SWAP1 POP JUMP JUMPDEST PUSH1 0x0 DUP2 MLOAD SWAP1 POP SWAP2 SWAP1 POP JUMP JUMPDEST PUSH1 0x0 DUP2 MLOAD SWAP1 POP SWAP2 SWAP1 POP JUMP JUMPDEST PUSH1 0x0 DUP2 MLOAD SWAP1 POP SWAP2 SWAP1 POP JUMP JUMPDEST PUSH1 0x0 DUP2 MLOAD SWAP1 POP SWAP2 SWAP1 POP JUMP JUMPDEST PUSH1 0x0 DUP2 MLOAD SWAP1 POP SWAP2 SWAP1 POP JUMP JUMPDEST PUSH1 0x0 DUP2 MLOAD SWAP1 POP SWAP2 SWAP1 POP JUMP JUMPDEST PUSH1 0x0 DUP2 MLOAD SWAP1 POP SWAP2 SWAP1 POP JUMP JUMPDEST PUSH1 0x0 DUP2 MLOAD SWAP1 POP SWAP2 SWAP1 POP JUMP JUMPDEST PUSH1 0x0 DUP2 MLOAD SWAP1 POP SWAP2 SWAP1 POP JUMP JUMPDEST PUSH1 0x0 DUP2 MLOAD SWAP1 POP SWAP2 SWAP1 POP JUMP JUMPDEST PUSH1 0x0 DUP2 MLOAD SWAP1 POP SWAP2 SWAP1 POP JUMP JUMPDEST PUSH1 0x0 DUP2 MLOAD SWAP1 POP SWAP2 SWAP1 POP JUMP JUMPDEST PUSH1 0x0 DUP2 MLOAD SWAP1 POP SWAP2 SWAP1 POP JUMP JUMPDEST PUSH1 0x0 PUSH1 0x20 DUP3 ADD SWAP1 POP SWAP2 SWAP1 POP JUMP JUMPDEST PUSH1 0x0 PUSH1 0x20 DUP3 ADD SWAP1 POP SWAP2 SWAP1 POP JUMP JUMPDEST PUSH1 0x0 PUSH1 0x20 DUP3 ADD SWAP1 POP SWAP2 SWAP1 POP JUMP JUMPDEST PUSH1 0x0 PUSH1 0x20 DUP3 ADD SWAP1 POP SWAP2 SWAP1 POP JUMP JUMPDEST PUSH1 0x0 PUSH1 0x20 DUP3 ADD SWAP1 POP SWAP2 SWAP1 POP JUMP JUMPDEST PUSH1 0x0 PUSH1 0x20 DUP3 ADD SWAP1 POP SWAP2 SWAP1 POP JUMP JUMPDEST PUSH1 0x0 PUSH1 0x20 DUP3 ADD SWAP1 POP SWAP2 SWAP1 POP JUMP JUMPDEST PUSH1 0x0 PUSH1 0x20 DUP3 ADD SWAP1 POP SWAP2 SWAP1 POP JUMP JUMPDEST PUSH1 0x0 PUSH1 0x20 DUP3 ADD SWAP1 POP SWAP2 SWAP1 POP JUMP JUMPDEST PUSH1 0x0 PUSH1 0x20 DUP3 ADD SWAP1 POP SWAP2 SWAP1 POP JUMP JUMPDEST PUSH1 0x0 PUSH1 0x20 DUP3 ADD SWAP1 POP SWAP2 SWAP1 POP JUMP JUMPDEST PUSH1 0x0 PUSH1 0x20 DUP3 ADD SWAP1 POP SWAP2 SWAP1 POP JUMP JUMPDEST PUSH1 0x0 PUSH1 0x20 DUP3 ADD SWAP1 POP SWAP2 SWAP1 POP JUMP JUMPDEST PUSH1 0x0 PUSH1 0x20 DUP3 ADD SWAP1 POP SWAP2 SWAP1 POP JUMP JUMPDEST PUSH1 0x0 PUSH1 0x20 DUP3 ADD SWAP1 POP SWAP2 SWAP1 POP JUMP JUMPDEST PUSH1 0x0 PUSH1 0x20 DUP3 ADD SWAP1 POP SWAP2 SWAP1 POP JUMP JUMPDEST PUSH1 0x0 DUP3 DUP3 MSTORE PUSH1 0x20 DUP3 ADD SWAP1 POP SWAP3 SWAP2 POP POP JUMP JUMPDEST PUSH1 0x0 DUP3 DUP3 MSTORE PUSH1 0x20 DUP3 ADD SWAP1 POP SWAP3 SWAP2 POP POP JUMP JUMPDEST PUSH1 0x0 DUP3 DUP3 MSTORE PUSH1 0x20 DUP3 ADD SWAP1 POP SWAP3 SWAP2 POP POP JUMP JUMPDEST PUSH1 0x0 DUP3 DUP3 MSTORE PUSH1 0x20 DUP3 ADD SWAP1 POP SWAP3 SWAP2 POP POP JUMP JUMPDEST PUSH1 0x0 DUP3 DUP3 MSTORE PUSH1 0x20 DUP3 ADD SWAP1 POP SWAP3 SWAP2 POP POP JUMP JUMPDEST PUSH1 0x0 DUP3 DUP3 MSTORE PUSH1 0x20 DUP3 ADD SWAP1 POP SWAP3 SWAP2 POP POP JUMP JUMPDEST PUSH1 0x0 DUP3 DUP3 MSTORE PUSH1 0x20 DUP3 ADD SWAP1 POP SWAP3 SWAP2 POP POP JUMP JUMPDEST PUSH1 0x0 DUP3 DUP3 MSTORE PUSH1 0x20 DUP3 ADD SWAP1 POP SWAP3 SWAP2 POP POP JUMP JUMPDEST PUSH1 0x0 DUP3 DUP3 MSTORE PUSH1 0x20 DUP3 ADD SWAP1 POP SWAP3 SWAP2 POP POP JUMP JUMPDEST PUSH1 0x0 DUP3 DUP3 MSTORE PUSH1 0x20 DUP3 ADD SWAP1 POP SWAP3 SWAP2 POP POP JUMP JUMPDEST PUSH1 0x0 DUP3 DUP3 MSTORE PUSH1 0x20 DUP3 ADD SWAP1 POP SWAP3 SWAP2 POP POP JUMP JUMPDEST PUSH1 0x0 DUP3 DUP3 MSTORE PUSH1 0x20 DUP3 ADD SWAP1 POP SWAP3 SWAP2 POP POP JUMP JUMPDEST PUSH1 0x0 DUP3 DUP3 MSTORE PUSH1 0x20 DUP3 ADD SWAP1 POP SWAP3 SWAP2 POP POP JUMP JUMPDEST PUSH1 0x0 DUP3 DUP3 MSTORE PUSH1 0x20 DUP3 ADD SWAP1 POP SWAP3 SWAP2 POP POP JUMP JUMPDEST PUSH1 0x0 DUP3 DUP3 MSTORE PUSH1 0x20 DUP3 ADD SWAP1 POP SWAP3 SWAP2 POP POP JUMP JUMPDEST PUSH1 0x0 DUP3 DUP3 MSTORE PUSH1 0x20 DUP3 ADD SWAP1 POP SWAP3 SWAP2 POP POP JUMP JUMPDEST PUSH1 0x0 DUP3 DUP3 MSTORE PUSH1 0x20 DUP3 ADD SWAP1 POP SWAP3 SWAP2 POP POP JUMP JUMPDEST PUSH1 0x0 DUP3 DUP3 MSTORE PUSH1 0x20 DUP3 ADD SWAP1 POP SWAP3 SWAP2 POP POP JUMP JUMPDEST PUSH1 0x0 DUP3 DUP3 MSTORE PUSH1 0x20 DUP3 ADD SWAP1 POP SWAP3 SWAP2 POP POP JUMP JUMPDEST PUSH1 0x0 DUP3 DUP3 MSTORE PUSH1 0x20 DUP3 ADD SWAP1 POP SWAP3 SWAP2 POP POP JUMP JUMPDEST PUSH1 0x0 PUSH2 0x5BE0 DUP3 PUSH2 0x5C44 JUMP JUMPDEST SWAP1 POP SWAP2 SWAP1 POP JUMP JUMPDEST PUSH1 0x0 PUSH2 0x5BF2 DUP3 PUSH2 0x5C44 JUMP JUMPDEST SWAP1 POP SWAP2 SWAP1 POP JUMP JUMPDEST PUSH1 0x0 DUP2 ISZERO ISZERO SWAP1 POP SWAP2 SWAP1 POP JUMP JUMPDEST PUSH1 0x0 DUP2 SWAP1 POP SWAP2 SWAP1 POP JUMP JUMPDEST PUSH1 0x0 DUP2 PUSH1 0x1 SIGNEXTEND SWAP1 POP SWAP2 SWAP1 POP JUMP JUMPDEST PUSH1 0x0 DUP2 PUSH1 0x3 SIGNEXTEND SWAP1 POP SWAP2 SWAP1 POP JUMP JUMPDEST PUSH1 0x0 DUP2 PUSH1 0x7 SIGNEXTEND SWAP1 POP SWAP2 SWAP1 POP JUMP JUMPDEST PUSH1 0x0 PUSH2 0xFFFF DUP3 AND SWAP1 POP SWAP2 SWAP1 POP JUMP JUMPDEST PUSH1 0x0 PUSH20 0xFFFFFFFFFFFFFFFFFFFFFFFFFFFFFFFFFFFFFFFF DUP3 AND SWAP1 POP SWAP2 SWAP1 POP JUMP JUMPDEST PUSH1 0x0 DUP2 SWAP1 POP SWAP2 SWAP1 POP JUMP JUMPDEST PUSH1 0x0 PUSH4 0xFFFFFFFF DUP3 AND SWAP1 POP SWAP2 SWAP1 POP JUMP JUMPDEST PUSH1 0x0 PUSH8 0xFFFFFFFFFFFFFFFF DUP3 AND SWAP1 POP SWAP2 SWAP1 POP JUMP JUMPDEST PUSH1 0x0 PUSH1 0xFF DUP3 AND SWAP1 POP SWAP2 SWAP1 POP JUMP JUMPDEST DUP3 DUP2 DUP4 CALLDATACOPY PUSH1 0x0 DUP4 DUP4 ADD MSTORE POP POP POP JUMP JUMPDEST PUSH1 0x0 JUMPDEST DUP4 DUP2 LT ISZERO PUSH2 0x5CCC JUMPI DUP1 DUP3 ADD MLOAD DUP2 DUP5 ADD MSTORE PUSH1 0x20 DUP2 ADD SWAP1 POP PUSH2 0x5CB1 JUMP JUMPDEST DUP4 DUP2 GT ISZERO PUSH2 0x5CDB JUMPI PUSH1 0x0 DUP5 DUP5 ADD MSTORE JUMPDEST POP POP POP POP JUMP JUMPDEST INVALID JUMPDEST PUSH1 0x0 PUSH1 0x1F NOT PUSH1 0x1F DUP4 ADD AND SWAP1 POP SWAP2 SWAP1 POP JUMP JUMPDEST PUSH2 0x5CFD DUP2 PUSH2 0x5BD5 JUMP JUMPDEST DUP2 EQ PUSH2 0x5D08 JUMPI PUSH1 0x0 DUP1 REVERT JUMPDEST POP JUMP JUMPDEST PUSH2 0x5D14 DUP2 PUSH2 0x5BE7 JUMP JUMPDEST DUP2 EQ PUSH2 0x5D1F JUMPI PUSH1 0x0 DUP1 REVERT JUMPDEST POP JUMP JUMPDEST PUSH2 0x5D2B DUP2 PUSH2 0x5BF9 JUMP JUMPDEST DUP2 EQ PUSH2 0x5D36 JUMPI PUSH1 0x0 DUP1 REVERT JUMPDEST POP JUMP JUMPDEST PUSH2 0x5D42 DUP2 PUSH2 0x5C05 JUMP JUMPDEST DUP2 EQ PUSH2 0x5D4D JUMPI PUSH1 0x0 DUP1 REVERT JUMPDEST POP JUMP JUMPDEST PUSH1 0x7 DUP2 LT PUSH2 0x5D5D JUMPI PUSH1 0x0 DUP1 REVERT JUMPDEST POP JUMP JUMPDEST PUSH2 0x5D69 DUP2 PUSH2 0x5C0F JUMP JUMPDEST DUP2 EQ PUSH2 0x5D74 JUMPI PUSH1 0x0 DUP1 REVERT JUMPDEST POP JUMP JUMPDEST PUSH2 0x5D80 DUP2 PUSH2 0x5C1C JUMP JUMPDEST DUP2 EQ PUSH2 0x5D8B JUMPI PUSH1 0x0 DUP1 REVERT JUMPDEST POP JUMP JUMPDEST PUSH2 0x5D97 DUP2 PUSH2 0x5C29 JUMP JUMPDEST DUP2 EQ PUSH2 0x5DA2 JUMPI PUSH1 0x0 DUP1 REVERT JUMPDEST POP JUMP JUMPDEST PUSH2 0x5DAE DUP2 PUSH2 0x5C36 JUMP JUMPDEST DUP2 EQ PUSH2 0x5DB9 JUMPI PUSH1 0x0 DUP1 REVERT JUMPDEST POP JUMP JUMPDEST PUSH2 0x5DC5 DUP2 PUSH2 0x5C44 JUMP JUMPDEST DUP2 EQ PUSH2 0x5DD0 JUMPI PUSH1 0x0 DUP1 REVERT JUMPDEST POP JUMP JUMPDEST PUSH2 0x5DDC DUP2 PUSH2 0x5C64 JUMP JUMPDEST DUP2 EQ PUSH2 0x5DE7 JUMPI PUSH1 0x0 DUP1 REVERT JUMPDEST POP JUMP JUMPDEST PUSH2 0x5DF3 DUP2 PUSH2 0x5C6E JUMP JUMPDEST DUP2 EQ PUSH2 0x5DFE JUMPI PUSH1 0x0 DUP1 REVERT JUMPDEST POP JUMP JUMPDEST PUSH2 0x5E0A DUP2 PUSH2 0x5C7E JUMP JUMPDEST DUP2 EQ PUSH2 0x5E15 JUMPI PUSH1 0x0 DUP1 REVERT JUMPDEST POP JUMP JUMPDEST PUSH2 0x5E21 DUP2 PUSH2 0x5C92 JUMP JUMPDEST DUP2 EQ PUSH2 0x5E2C JUMPI PUSH1 0x0 DUP1 REVERT JUMPDEST POP JUMP INVALID LOG2 PUSH5 0x6970667358 0x22 SLT KECCAK256 PUSH21 0x46ADBD46E670D3C2A4F5CED8CDB5E0671146CA13C8 0xE9 0xF9 CODESIZE NUMBER 0xBF PUSH13 0x8C7785ED64736F6C6343000706 STOP CALLER "
		},
		"gasEstimates": {
			"creation": {
				"codeDepositCost": "4833000",
				"executionCost": "infinite",
				"totalCost": "infinite"
			},
			"external": {
				"bytesToAddress(bytes)": "infinite",
				"checkImports(bytes32[])": "infinite",
				"claimableFees(address)": "1537",
				"convertFromVerusNumber(uint256,uint8)": "infinite",
				"convertToVerusNumber(uint256,uint8)": "infinite",
				"export((uint32,(address,uint64),uint32,address,uint256,(uint8,bytes),address,address,address))": "infinite",
				"getContractAddress(uint8)": "7139",
				"getEthHeld()": "1182",
				"getFeesHeld()": "1204",
				"getLastProofRoot()": "infinite",
				"getPoolSize()": "1249",
				"getReadyExportsByRange(uint256,uint256)": "infinite",
				"getinfo()": "infinite",
				"isPoolAvailable(uint256,address)": "infinite",
				"lastBlockHeight()": "infinite",
				"poolAvailable(address)": "infinite",
				"readyExportHashes(uint256)": "infinite",
				"sendEth(uint256,address)": "infinite",
				"setClaimableFees(address,uint256)": "22608",
				"setContractAddress(uint8,address)": "148203",
				"setEthHeld(uint256)": "21379",
				"setFeesHeld(uint256)": "21423",
				"setLatestData((uint32,uint32,(uint8,bytes),address,(uint16,uint16,address,uint160[],int32[],int64[],int64,int64,int64,int64,int64,int64,int64,int64[],int64[],int64[],int64[],int64[],int64[],int32[],int64[]),uint32,(bytes32,uint32),bytes32,uint32,(address,(uint16,uint16,address,uint160[],int32[],int64[],int64,int64,int64,int64,int64,int64,int64,int64[],int64[],int64[],int64[],int64[],int64[],int32[],int64[]))[],(int16,int16,address,uint32,bytes32,bytes32,bytes32)[],(string,address)[]),uint8[],bytes32[],bytes32[],uint32[],address[])": "infinite",
				"setPoolSize(uint256)": "21401",
				"submitImports((uint256,bytes32,uint256,(uint16,uint16,address,bytes32,uint32,uint32,address,address,uint32,(address,uint64)[],(address,uint64)[],(address,uint64)[],(uint8,bytes),int32),(uint8,uint8,(uint8,(uint8,uint32,uint32,bytes32[]))[],(uint8,uint8,bytes,(uint8,(uint8,uint32,uint32,bytes32[]))[])[]),(uint32,(address,uint64),uint32,address,uint256,(uint8,bytes),address,address,address)[])[])": "infinite"
			}
		},
		"methodIdentifiers": {
			"bytesToAddress(bytes)": "42526e4e",
			"checkImports(bytes32[])": "b85c0acb",
			"claimableFees(address)": "7e0b2492",
			"convertFromVerusNumber(uint256,uint8)": "d5b91a92",
			"convertToVerusNumber(uint256,uint8)": "38eb07e1",
			"export((uint32,(address,uint64),uint32,address,uint256,(uint8,bytes),address,address,address))": "88b2621b",
			"getContractAddress(uint8)": "f4e56991",
			"getEthHeld()": "3e15102e",
			"getFeesHeld()": "9105f245",
			"getLastProofRoot()": "d4e03233",
			"getPoolSize()": "23845e4b",
			"getReadyExportsByRange(uint256,uint256)": "e4804abc",
			"getinfo()": "1a2d8629",
			"isPoolAvailable(uint256,address)": "05f88a8a",
			"lastBlockHeight()": "4b60ae63",
			"poolAvailable(address)": "0bd4cec3",
			"readyExportHashes(uint256)": "e45b909d",
			"sendEth(uint256,address)": "34368602",
			"setClaimableFees(address,uint256)": "fc3cc653",
			"setContractAddress(uint8,address)": "c413e5be",
			"setEthHeld(uint256)": "dd1a8f90",
			"setFeesHeld(uint256)": "717aa9cd",
			"setLatestData((uint32,uint32,(uint8,bytes),address,(uint16,uint16,address,uint160[],int32[],int64[],int64,int64,int64,int64,int64,int64,int64,int64[],int64[],int64[],int64[],int64[],int64[],int32[],int64[]),uint32,(bytes32,uint32),bytes32,uint32,(address,(uint16,uint16,address,uint160[],int32[],int64[],int64,int64,int64,int64,int64,int64,int64,int64[],int64[],int64[],int64[],int64[],int64[],int32[],int64[]))[],(int16,int16,address,uint32,bytes32,bytes32,bytes32)[],(string,address)[]),uint8[],bytes32[],bytes32[],uint32[],address[])": "1305ea63",
			"setPoolSize(uint256)": "5b7be18a",
			"submitImports((uint256,bytes32,uint256,(uint16,uint16,address,bytes32,uint32,uint32,address,address,uint32,(address,uint64)[],(address,uint64)[],(address,uint64)[],(uint8,bytes),int32),(uint8,uint8,(uint8,(uint8,uint32,uint32,bytes32[]))[],(uint8,uint8,bytes,(uint8,(uint8,uint32,uint32,bytes32[]))[])[]),(uint32,(address,uint64),uint32,address,uint256,(uint8,bytes),address,address,address)[])[])": "9deae284"
		}
	},
	"abi": [
		{
			"inputs": [
				{
					"internalType": "uint256",
					"name": "_poolSize",
					"type": "uint256"
				}
			],
			"stateMutability": "nonpayable",
			"type": "constructor"
		},
		{
			"inputs": [
				{
					"internalType": "bytes",
					"name": "bys",
					"type": "bytes"
				}
			],
			"name": "bytesToAddress",
			"outputs": [
				{
					"internalType": "address",
					"name": "addr",
					"type": "address"
				}
			],
			"stateMutability": "pure",
			"type": "function"
		},
		{
			"inputs": [
				{
					"internalType": "bytes32[]",
					"name": "_imports",
					"type": "bytes32[]"
				}
			],
			"name": "checkImports",
			"outputs": [
				{
					"internalType": "bytes32[]",
					"name": "",
					"type": "bytes32[]"
				}
			],
			"stateMutability": "view",
			"type": "function"
		},
		{
			"inputs": [
				{
					"internalType": "address",
					"name": "",
					"type": "address"
				}
			],
			"name": "claimableFees",
			"outputs": [
				{
					"internalType": "uint256",
					"name": "",
					"type": "uint256"
				}
			],
			"stateMutability": "view",
			"type": "function"
		},
		{
			"inputs": [
				{
					"internalType": "uint256",
					"name": "a",
					"type": "uint256"
				},
				{
					"internalType": "uint8",
					"name": "decimals",
					"type": "uint8"
				}
			],
			"name": "convertFromVerusNumber",
			"outputs": [
				{
					"internalType": "uint256",
					"name": "",
					"type": "uint256"
				}
			],
			"stateMutability": "pure",
			"type": "function"
		},
		{
			"inputs": [
				{
					"internalType": "uint256",
					"name": "a",
					"type": "uint256"
				},
				{
					"internalType": "uint8",
					"name": "decimals",
					"type": "uint8"
				}
			],
			"name": "convertToVerusNumber",
			"outputs": [
				{
					"internalType": "uint256",
					"name": "",
					"type": "uint256"
				}
			],
			"stateMutability": "pure",
			"type": "function"
		},
		{
			"inputs": [
				{
					"components": [
						{
							"internalType": "uint32",
							"name": "version",
							"type": "uint32"
						},
						{
							"components": [
								{
									"internalType": "address",
									"name": "currency",
									"type": "address"
								},
								{
									"internalType": "uint64",
									"name": "amount",
									"type": "uint64"
								}
							],
							"internalType": "struct VerusObjects.CCurrencyValueMap",
							"name": "currencyvalue",
							"type": "tuple"
						},
						{
							"internalType": "uint32",
							"name": "flags",
							"type": "uint32"
						},
						{
							"internalType": "address",
							"name": "feecurrencyid",
							"type": "address"
						},
						{
							"internalType": "uint256",
							"name": "fees",
							"type": "uint256"
						},
						{
							"components": [
								{
									"internalType": "uint8",
									"name": "destinationtype",
									"type": "uint8"
								},
								{
									"internalType": "bytes",
									"name": "destinationaddress",
									"type": "bytes"
								}
							],
							"internalType": "struct VerusObjectsCommon.CTransferDestination",
							"name": "destination",
							"type": "tuple"
						},
						{
							"internalType": "address",
							"name": "destcurrencyid",
							"type": "address"
						},
						{
							"internalType": "address",
							"name": "destsystemid",
							"type": "address"
						},
						{
							"internalType": "address",
							"name": "secondreserveid",
							"type": "address"
						}
					],
					"internalType": "struct VerusObjects.CReserveTransfer",
					"name": "_transfer",
					"type": "tuple"
				}
			],
			"name": "export",
			"outputs": [],
			"stateMutability": "payable",
			"type": "function"
		},
		{
			"inputs": [
				{
					"internalType": "enum VerusBridgeMaster.ContractType",
					"name": "contractTypeAddress",
					"type": "uint8"
				}
			],
			"name": "getContractAddress",
			"outputs": [
				{
					"internalType": "address",
					"name": "contractAddress",
					"type": "address"
				}
			],
			"stateMutability": "view",
			"type": "function"
		},
		{
			"inputs": [],
			"name": "getEthHeld",
			"outputs": [
				{
					"internalType": "uint256",
					"name": "",
					"type": "uint256"
				}
			],
			"stateMutability": "view",
			"type": "function"
		},
		{
			"inputs": [],
			"name": "getFeesHeld",
			"outputs": [
				{
					"internalType": "uint256",
					"name": "",
					"type": "uint256"
				}
			],
			"stateMutability": "view",
			"type": "function"
		},
		{
			"inputs": [],
			"name": "getLastProofRoot",
			"outputs": [
				{
					"components": [
						{
							"internalType": "int16",
							"name": "version",
							"type": "int16"
						},
						{
							"internalType": "int16",
							"name": "cprtype",
							"type": "int16"
						},
						{
							"internalType": "address",
							"name": "systemid",
							"type": "address"
						},
						{
							"internalType": "uint32",
							"name": "rootheight",
							"type": "uint32"
						},
						{
							"internalType": "bytes32",
							"name": "stateroot",
							"type": "bytes32"
						},
						{
							"internalType": "bytes32",
							"name": "blockhash",
							"type": "bytes32"
						},
						{
							"internalType": "bytes32",
							"name": "compactpower",
							"type": "bytes32"
						}
					],
					"internalType": "struct VerusObjectsNotarization.CProofRoot",
					"name": "",
					"type": "tuple"
				}
			],
			"stateMutability": "view",
			"type": "function"
		},
		{
			"inputs": [],
			"name": "getPoolSize",
			"outputs": [
				{
					"internalType": "uint256",
					"name": "",
					"type": "uint256"
				}
			],
			"stateMutability": "view",
			"type": "function"
		},
		{
			"inputs": [
				{
					"internalType": "uint256",
					"name": "_startBlock",
					"type": "uint256"
				},
				{
					"internalType": "uint256",
					"name": "_endBlock",
					"type": "uint256"
				}
			],
			"name": "getReadyExportsByRange",
			"outputs": [
				{
					"components": [
						{
							"internalType": "uint256",
							"name": "position",
							"type": "uint256"
						},
						{
							"internalType": "uint256",
							"name": "blockHeight",
							"type": "uint256"
						},
						{
							"internalType": "bytes32",
							"name": "exportHash",
							"type": "bytes32"
						},
						{
							"components": [
								{
									"internalType": "uint32",
									"name": "version",
									"type": "uint32"
								},
								{
									"components": [
										{
											"internalType": "address",
											"name": "currency",
											"type": "address"
										},
										{
											"internalType": "uint64",
											"name": "amount",
											"type": "uint64"
										}
									],
									"internalType": "struct VerusObjects.CCurrencyValueMap",
									"name": "currencyvalue",
									"type": "tuple"
								},
								{
									"internalType": "uint32",
									"name": "flags",
									"type": "uint32"
								},
								{
									"internalType": "address",
									"name": "feecurrencyid",
									"type": "address"
								},
								{
									"internalType": "uint256",
									"name": "fees",
									"type": "uint256"
								},
								{
									"components": [
										{
											"internalType": "uint8",
											"name": "destinationtype",
											"type": "uint8"
										},
										{
											"internalType": "bytes",
											"name": "destinationaddress",
											"type": "bytes"
										}
									],
									"internalType": "struct VerusObjectsCommon.CTransferDestination",
									"name": "destination",
									"type": "tuple"
								},
								{
									"internalType": "address",
									"name": "destcurrencyid",
									"type": "address"
								},
								{
									"internalType": "address",
									"name": "destsystemid",
									"type": "address"
								},
								{
									"internalType": "address",
									"name": "secondreserveid",
									"type": "address"
								}
							],
							"internalType": "struct VerusObjects.CReserveTransfer[]",
							"name": "transfers",
							"type": "tuple[]"
						}
					],
					"internalType": "struct VerusObjects.CReserveTransferSet[]",
					"name": "",
					"type": "tuple[]"
				}
			],
			"stateMutability": "view",
			"type": "function"
		},
		{
			"inputs": [],
			"name": "getinfo",
			"outputs": [
				{
					"components": [
						{
							"internalType": "uint256",
							"name": "version",
							"type": "uint256"
						},
						{
							"internalType": "string",
							"name": "VRSCversion",
							"type": "string"
						},
						{
							"internalType": "uint256",
							"name": "blocks",
							"type": "uint256"
						},
						{
							"internalType": "uint256",
							"name": "tiptime",
							"type": "uint256"
						},
						{
							"internalType": "string",
							"name": "name",
							"type": "string"
						},
						{
							"internalType": "bool",
							"name": "testnet",
							"type": "bool"
						}
					],
					"internalType": "struct VerusObjects.infoDetails",
					"name": "",
					"type": "tuple"
				}
			],
			"stateMutability": "view",
			"type": "function"
		},
		{
			"inputs": [
				{
					"internalType": "uint256",
					"name": "_feesAmount",
					"type": "uint256"
				},
				{
					"internalType": "address",
					"name": "_feeCurrencyID",
					"type": "address"
				}
			],
			"name": "isPoolAvailable",
			"outputs": [
				{
					"internalType": "bool",
					"name": "",
					"type": "bool"
				}
			],
			"stateMutability": "view",
			"type": "function"
		},
		{
			"inputs": [],
			"name": "lastBlockHeight",
			"outputs": [
				{
					"internalType": "uint32",
					"name": "",
					"type": "uint32"
				}
			],
			"stateMutability": "view",
			"type": "function"
		},
		{
			"inputs": [
				{
					"internalType": "address",
					"name": "_address",
					"type": "address"
				}
			],
			"name": "poolAvailable",
			"outputs": [
				{
					"internalType": "uint32",
					"name": "",
					"type": "uint32"
				}
			],
			"stateMutability": "view",
			"type": "function"
		},
		{
			"inputs": [
				{
					"internalType": "uint256",
					"name": "_position",
					"type": "uint256"
				}
			],
			"name": "readyExportHashes",
			"outputs": [
				{
					"internalType": "bytes32",
					"name": "",
					"type": "bytes32"
				}
			],
			"stateMutability": "view",
			"type": "function"
		},
		{
			"inputs": [
				{
					"internalType": "uint256",
					"name": "_ethAmount",
					"type": "uint256"
				},
				{
					"internalType": "address payable",
					"name": "_ethAddress",
					"type": "address"
				}
			],
			"name": "sendEth",
			"outputs": [],
			"stateMutability": "nonpayable",
			"type": "function"
		},
		{
			"inputs": [
				{
					"internalType": "address",
					"name": "_feeRecipient",
					"type": "address"
				},
				{
					"internalType": "uint256",
					"name": "_ethAmount",
					"type": "uint256"
				}
			],
			"name": "setClaimableFees",
			"outputs": [],
			"stateMutability": "nonpayable",
			"type": "function"
		},
		{
			"inputs": [
				{
					"internalType": "enum VerusBridgeMaster.ContractType",
					"name": "contractTypeAddress",
					"type": "uint8"
				},
				{
					"internalType": "address",
					"name": "_newContractAddress",
					"type": "address"
				}
			],
			"name": "setContractAddress",
			"outputs": [],
			"stateMutability": "nonpayable",
			"type": "function"
		},
		{
			"inputs": [
				{
					"internalType": "uint256",
					"name": "_ethAmount",
					"type": "uint256"
				}
			],
			"name": "setEthHeld",
			"outputs": [],
			"stateMutability": "nonpayable",
			"type": "function"
		},
		{
			"inputs": [
				{
					"internalType": "uint256",
					"name": "_feesAmount",
					"type": "uint256"
				}
			],
			"name": "setFeesHeld",
			"outputs": [],
			"stateMutability": "nonpayable",
			"type": "function"
		},
		{
			"inputs": [
				{
					"components": [
						{
							"internalType": "uint32",
							"name": "version",
							"type": "uint32"
						},
						{
							"internalType": "uint32",
							"name": "flags",
							"type": "uint32"
						},
						{
							"components": [
								{
									"internalType": "uint8",
									"name": "destinationtype",
									"type": "uint8"
								},
								{
									"internalType": "bytes",
									"name": "destinationaddress",
									"type": "bytes"
								}
							],
							"internalType": "struct VerusObjectsCommon.CTransferDestination",
							"name": "proposer",
							"type": "tuple"
						},
						{
							"internalType": "address",
							"name": "currencyid",
							"type": "address"
						},
						{
							"components": [
								{
									"internalType": "uint16",
									"name": "version",
									"type": "uint16"
								},
								{
									"internalType": "uint16",
									"name": "flags",
									"type": "uint16"
								},
								{
									"internalType": "address",
									"name": "currencyid",
									"type": "address"
								},
								{
									"internalType": "uint160[]",
									"name": "currencies",
									"type": "uint160[]"
								},
								{
									"internalType": "int32[]",
									"name": "weights",
									"type": "int32[]"
								},
								{
									"internalType": "int64[]",
									"name": "reserves",
									"type": "int64[]"
								},
								{
									"internalType": "int64",
									"name": "initialsupply",
									"type": "int64"
								},
								{
									"internalType": "int64",
									"name": "emitted",
									"type": "int64"
								},
								{
									"internalType": "int64",
									"name": "supply",
									"type": "int64"
								},
								{
									"internalType": "int64",
									"name": "primarycurrencyout",
									"type": "int64"
								},
								{
									"internalType": "int64",
									"name": "preconvertedout",
									"type": "int64"
								},
								{
									"internalType": "int64",
									"name": "primarycurrencyfees",
									"type": "int64"
								},
								{
									"internalType": "int64",
									"name": "primarycurrencyconversionfees",
									"type": "int64"
								},
								{
									"internalType": "int64[]",
									"name": "reservein",
									"type": "int64[]"
								},
								{
									"internalType": "int64[]",
									"name": "primarycurrencyin",
									"type": "int64[]"
								},
								{
									"internalType": "int64[]",
									"name": "reserveout",
									"type": "int64[]"
								},
								{
									"internalType": "int64[]",
									"name": "conversionprice",
									"type": "int64[]"
								},
								{
									"internalType": "int64[]",
									"name": "viaconversionprice",
									"type": "int64[]"
								},
								{
									"internalType": "int64[]",
									"name": "fees",
									"type": "int64[]"
								},
								{
									"internalType": "int32[]",
									"name": "priorweights",
									"type": "int32[]"
								},
								{
									"internalType": "int64[]",
									"name": "conversionfees",
									"type": "int64[]"
								}
							],
							"internalType": "struct VerusObjectsNotarization.CCoinbaseCurrencyState",
							"name": "currencystate",
							"type": "tuple"
						},
						{
							"internalType": "uint32",
							"name": "notarizationheight",
							"type": "uint32"
						},
						{
							"components": [
								{
									"internalType": "bytes32",
									"name": "hash",
									"type": "bytes32"
								},
								{
									"internalType": "uint32",
									"name": "n",
									"type": "uint32"
								}
							],
							"internalType": "struct VerusObjectsNotarization.CUTXORef",
							"name": "prevnotarization",
							"type": "tuple"
						},
						{
							"internalType": "bytes32",
							"name": "hashprevnotarization",
							"type": "bytes32"
						},
						{
							"internalType": "uint32",
							"name": "prevheight",
							"type": "uint32"
						},
						{
							"components": [
								{
									"internalType": "address",
									"name": "currencyid",
									"type": "address"
								},
								{
									"components": [
										{
											"internalType": "uint16",
											"name": "version",
											"type": "uint16"
										},
										{
											"internalType": "uint16",
											"name": "flags",
											"type": "uint16"
										},
										{
											"internalType": "address",
											"name": "currencyid",
											"type": "address"
										},
										{
											"internalType": "uint160[]",
											"name": "currencies",
											"type": "uint160[]"
										},
										{
											"internalType": "int32[]",
											"name": "weights",
											"type": "int32[]"
										},
										{
											"internalType": "int64[]",
											"name": "reserves",
											"type": "int64[]"
										},
										{
											"internalType": "int64",
											"name": "initialsupply",
											"type": "int64"
										},
										{
											"internalType": "int64",
											"name": "emitted",
											"type": "int64"
										},
										{
											"internalType": "int64",
											"name": "supply",
											"type": "int64"
										},
										{
											"internalType": "int64",
											"name": "primarycurrencyout",
											"type": "int64"
										},
										{
											"internalType": "int64",
											"name": "preconvertedout",
											"type": "int64"
										},
										{
											"internalType": "int64",
											"name": "primarycurrencyfees",
											"type": "int64"
										},
										{
											"internalType": "int64",
											"name": "primarycurrencyconversionfees",
											"type": "int64"
										},
										{
											"internalType": "int64[]",
											"name": "reservein",
											"type": "int64[]"
										},
										{
											"internalType": "int64[]",
											"name": "primarycurrencyin",
											"type": "int64[]"
										},
										{
											"internalType": "int64[]",
											"name": "reserveout",
											"type": "int64[]"
										},
										{
											"internalType": "int64[]",
											"name": "conversionprice",
											"type": "int64[]"
										},
										{
											"internalType": "int64[]",
											"name": "viaconversionprice",
											"type": "int64[]"
										},
										{
											"internalType": "int64[]",
											"name": "fees",
											"type": "int64[]"
										},
										{
											"internalType": "int32[]",
											"name": "priorweights",
											"type": "int32[]"
										},
										{
											"internalType": "int64[]",
											"name": "conversionfees",
											"type": "int64[]"
										}
									],
									"internalType": "struct VerusObjectsNotarization.CCoinbaseCurrencyState",
									"name": "currencystate",
									"type": "tuple"
								}
							],
							"internalType": "struct VerusObjectsNotarization.CurrencyStates[]",
							"name": "currencystates",
							"type": "tuple[]"
						},
						{
							"components": [
								{
									"internalType": "int16",
									"name": "version",
									"type": "int16"
								},
								{
									"internalType": "int16",
									"name": "cprtype",
									"type": "int16"
								},
								{
									"internalType": "address",
									"name": "systemid",
									"type": "address"
								},
								{
									"internalType": "uint32",
									"name": "rootheight",
									"type": "uint32"
								},
								{
									"internalType": "bytes32",
									"name": "stateroot",
									"type": "bytes32"
								},
								{
									"internalType": "bytes32",
									"name": "blockhash",
									"type": "bytes32"
								},
								{
									"internalType": "bytes32",
									"name": "compactpower",
									"type": "bytes32"
								}
							],
							"internalType": "struct VerusObjectsNotarization.CProofRoot[]",
							"name": "proofroots",
							"type": "tuple[]"
						},
						{
							"components": [
								{
									"internalType": "string",
									"name": "networkaddress",
									"type": "string"
								},
								{
									"internalType": "address",
									"name": "nodeidentity",
									"type": "address"
								}
							],
							"internalType": "struct VerusObjectsNotarization.CNodeData[]",
							"name": "nodes",
							"type": "tuple[]"
						}
					],
					"internalType": "struct VerusObjectsNotarization.CPBaaSNotarization",
					"name": "_pbaasNotarization",
					"type": "tuple"
				},
				{
					"internalType": "uint8[]",
					"name": "_vs",
					"type": "uint8[]"
				},
				{
					"internalType": "bytes32[]",
					"name": "_rs",
					"type": "bytes32[]"
				},
				{
					"internalType": "bytes32[]",
					"name": "_ss",
					"type": "bytes32[]"
				},
				{
					"internalType": "uint32[]",
					"name": "blockheights",
					"type": "uint32[]"
				},
				{
					"internalType": "address[]",
					"name": "notaryAddress",
					"type": "address[]"
				}
			],
			"name": "setLatestData",
			"outputs": [
				{
					"internalType": "bool",
					"name": "",
					"type": "bool"
				}
			],
			"stateMutability": "nonpayable",
			"type": "function"
		},
		{
			"inputs": [
				{
					"internalType": "uint256",
					"name": "_amount",
					"type": "uint256"
				}
			],
			"name": "setPoolSize",
			"outputs": [],
			"stateMutability": "nonpayable",
			"type": "function"
		},
		{
			"inputs": [
				{
					"components": [
						{
							"internalType": "uint256",
							"name": "height",
							"type": "uint256"
						},
						{
							"internalType": "bytes32",
							"name": "txid",
							"type": "bytes32"
						},
						{
							"internalType": "uint256",
							"name": "txoutnum",
							"type": "uint256"
						},
						{
							"components": [
								{
									"internalType": "uint16",
									"name": "version",
									"type": "uint16"
								},
								{
									"internalType": "uint16",
									"name": "flags",
									"type": "uint16"
								},
								{
									"internalType": "address",
									"name": "sourcesystemid",
									"type": "address"
								},
								{
									"internalType": "bytes32",
									"name": "hashtransfers",
									"type": "bytes32"
								},
								{
									"internalType": "uint32",
									"name": "sourceheightstart",
									"type": "uint32"
								},
								{
									"internalType": "uint32",
									"name": "sourceheightend",
									"type": "uint32"
								},
								{
									"internalType": "address",
									"name": "destinationsystemid",
									"type": "address"
								},
								{
									"internalType": "address",
									"name": "destinationcurrencyid",
									"type": "address"
								},
								{
									"internalType": "uint32",
									"name": "numinputs",
									"type": "uint32"
								},
								{
									"components": [
										{
											"internalType": "address",
											"name": "currency",
											"type": "address"
										},
										{
											"internalType": "uint64",
											"name": "amount",
											"type": "uint64"
										}
									],
									"internalType": "struct VerusObjects.CCurrencyValueMap[]",
									"name": "totalamounts",
									"type": "tuple[]"
								},
								{
									"components": [
										{
											"internalType": "address",
											"name": "currency",
											"type": "address"
										},
										{
											"internalType": "uint64",
											"name": "amount",
											"type": "uint64"
										}
									],
									"internalType": "struct VerusObjects.CCurrencyValueMap[]",
									"name": "totalfees",
									"type": "tuple[]"
								},
								{
									"components": [
										{
											"internalType": "address",
											"name": "currency",
											"type": "address"
										},
										{
											"internalType": "uint64",
											"name": "amount",
											"type": "uint64"
										}
									],
									"internalType": "struct VerusObjects.CCurrencyValueMap[]",
									"name": "totalburned",
									"type": "tuple[]"
								},
								{
									"components": [
										{
											"internalType": "uint8",
											"name": "destinationtype",
											"type": "uint8"
										},
										{
											"internalType": "bytes",
											"name": "destinationaddress",
											"type": "bytes"
										}
									],
									"internalType": "struct VerusObjectsCommon.CTransferDestination",
									"name": "rewardaddress",
									"type": "tuple"
								},
								{
									"internalType": "int32",
									"name": "firstinput",
									"type": "int32"
								}
							],
							"internalType": "struct VerusObjects.CCrossChainExport",
							"name": "exportinfo",
							"type": "tuple"
						},
						{
							"components": [
								{
									"internalType": "uint8",
									"name": "version",
									"type": "uint8"
								},
								{
									"internalType": "uint8",
									"name": "typeC",
									"type": "uint8"
								},
								{
									"components": [
										{
											"internalType": "uint8",
											"name": "branchType",
											"type": "uint8"
										},
										{
											"components": [
												{
													"internalType": "uint8",
													"name": "CMerkleBranchBase",
													"type": "uint8"
												},
												{
													"internalType": "uint32",
													"name": "nIndex",
													"type": "uint32"
												},
												{
													"internalType": "uint32",
													"name": "nSize",
													"type": "uint32"
												},
												{
													"internalType": "bytes32[]",
													"name": "branch",
													"type": "bytes32[]"
												}
											],
											"internalType": "struct VerusObjects.CMerkleBranch",
											"name": "proofSequence",
											"type": "tuple"
										}
									],
									"internalType": "struct VerusObjects.CTXProof[]",
									"name": "txproof",
									"type": "tuple[]"
								},
								{
									"components": [
										{
											"internalType": "uint8",
											"name": "elType",
											"type": "uint8"
										},
										{
											"internalType": "uint8",
											"name": "elIdx",
											"type": "uint8"
										},
										{
											"internalType": "bytes",
											"name": "elVchObj",
											"type": "bytes"
										},
										{
											"components": [
												{
													"internalType": "uint8",
													"name": "branchType",
													"type": "uint8"
												},
												{
													"components": [
														{
															"internalType": "uint8",
															"name": "CMerkleBranchBase",
															"type": "uint8"
														},
														{
															"internalType": "uint32",
															"name": "nIndex",
															"type": "uint32"
														},
														{
															"internalType": "uint32",
															"name": "nSize",
															"type": "uint32"
														},
														{
															"internalType": "bytes32[]",
															"name": "branch",
															"type": "bytes32[]"
														}
													],
													"internalType": "struct VerusObjects.CMerkleBranch",
													"name": "proofSequence",
													"type": "tuple"
												}
											],
											"internalType": "struct VerusObjects.CTXProof[]",
											"name": "elProof",
											"type": "tuple[]"
										}
									],
									"internalType": "struct VerusObjects.CComponents[]",
									"name": "components",
									"type": "tuple[]"
								}
							],
							"internalType": "struct VerusObjects.CPtransactionproof",
							"name": "partialtransactionproof",
							"type": "tuple"
						},
						{
							"components": [
								{
									"internalType": "uint32",
									"name": "version",
									"type": "uint32"
								},
								{
									"components": [
										{
											"internalType": "address",
											"name": "currency",
											"type": "address"
										},
										{
											"internalType": "uint64",
											"name": "amount",
											"type": "uint64"
										}
									],
									"internalType": "struct VerusObjects.CCurrencyValueMap",
									"name": "currencyvalue",
									"type": "tuple"
								},
								{
									"internalType": "uint32",
									"name": "flags",
									"type": "uint32"
								},
								{
									"internalType": "address",
									"name": "feecurrencyid",
									"type": "address"
								},
								{
									"internalType": "uint256",
									"name": "fees",
									"type": "uint256"
								},
								{
									"components": [
										{
											"internalType": "uint8",
											"name": "destinationtype",
											"type": "uint8"
										},
										{
											"internalType": "bytes",
											"name": "destinationaddress",
											"type": "bytes"
										}
									],
									"internalType": "struct VerusObjectsCommon.CTransferDestination",
									"name": "destination",
									"type": "tuple"
								},
								{
									"internalType": "address",
									"name": "destcurrencyid",
									"type": "address"
								},
								{
									"internalType": "address",
									"name": "destsystemid",
									"type": "address"
								},
								{
									"internalType": "address",
									"name": "secondreserveid",
									"type": "address"
								}
							],
							"internalType": "struct VerusObjects.CReserveTransfer[]",
							"name": "transfers",
							"type": "tuple[]"
						}
					],
					"internalType": "struct VerusObjects.CReserveTransferImport[]",
					"name": "_imports",
					"type": "tuple[]"
				}
			],
			"name": "submitImports",
			"outputs": [],
			"stateMutability": "nonpayable",
			"type": "function"
		}
	]
}