{
	"data": {
		"bytecode": {
			"linkReferences": {},
			"object": "608060405234801561001057600080fd5b50613fe3806100206000396000f3fe608060405234801561001057600080fd5b50600436106102265760003560e01c806368b4ae8111610130578063c93e58c8116100b8578063e06711111161007c578063e06711111461082b578063e4cba5471461085b578063f20fb8301461088b578063f8217295146108bb578063fef5906a146108eb57610226565b8063c93e58c81461073b578063cecb30431461076b578063cfa84de91461079b578063dad935a1146107cb578063df61a937146107fb57610226565b80639d487b47116100ff5780639d487b471461064b578063a412bb291461067b578063af832f09146106ab578063b3a895f6146106db578063b9f7f35a1461070b57610226565b806368b4ae811461058b5780637b92bd28146105bb578063892e2937146105eb578063941bb0601461061b57610226565b8063241d23b2116101b35780633b945374116101825780633b9453741461049b57806344c789d1146104cb57806346256007146104fb578063463276c31461052b5780636127b4ff1461055b57610226565b8063241d23b2146103db5780632a4edd701461040b57806333c45ab91461043b578063343bee601461046b57610226565b8063122e5ae7116101fa578063122e5ae7146102eb57806318c9bbfd1461031b57806319a7c17b1461034b5780631c3565321461037b578063200f6c2a146103ab57610226565b80629c81521461022b578063049e34901461025b5780630a803a861461028b5780631222d81a146102bb575b600080fd5b61024560048036038101906102409190612d26565b61091b565b6040516102529190613984565b60405180910390f35b61027560048036038101906102709190612b8d565b610944565b6040516102829190613984565b60405180910390f35b6102a560048036038101906102a09190612f45565b6109b5565b6040516102b29190613984565b60405180910390f35b6102d560048036038101906102d09190612da1565b610b62565b6040516102e29190613984565b60405180910390f35b610305600480360381019061030091906131fd565b610c33565b6040516103129190613984565b60405180910390f35b61033560048036038101906103309190613072565b610c6a565b6040516103429190613984565b60405180910390f35b61036560048036038101906103609190612ce5565b610d01565b6040516103729190613984565b60405180910390f35b610395600480360381019061039091906130ee565b610d89565b6040516103a29190613984565b60405180910390f35b6103c560048036038101906103c09190612c63565b610dcc565b6040516103d29190613984565b60405180910390f35b6103f560048036038101906103f09190612aa1565b610e3d565b6040516104029190613984565b60405180910390f35b61042560048036038101906104209190612c0f565b610e6c565b6040516104329190613984565b60405180910390f35b61045560048036038101906104509190613158565b610ee5565b6040516104629190613984565b60405180910390f35b61048560048036038101906104809190612f86565b610f28565b6040516104929190613984565b60405180910390f35b6104b560048036038101906104b0919061309b565b61107d565b6040516104c29190613984565b60405180910390f35b6104e560048036038101906104e09190612ff0565b6111e7565b6040516104f29190613984565b60405180910390f35b61051560048036038101906105109190612de2565b61122a565b6040516105229190613984565b60405180910390f35b61054560048036038101906105409190612d4f565b611261565b6040516105529190613984565b60405180910390f35b61057560048036038101906105709190613226565b61128a565b6040516105829190613984565b60405180910390f35b6105a560048036038101906105a09190612e5d565b6112c1565b6040516105b29190613984565b60405180910390f35b6105d560048036038101906105d09190612ca4565b611319565b6040516105e29190613984565b60405180910390f35b61060560048036038101906106009190613031565b61138a565b6040516106129190613984565b60405180910390f35b61063560048036038101906106309190612b4c565b611469565b6040516106429190613984565b60405180910390f35b61066560048036038101906106609190612aca565b6114da565b6040516106729190613984565b60405180910390f35b61069560048036038101906106909190612bce565b61154b565b6040516106a29190613984565b60405180910390f35b6106c560048036038101906106c09190612e34565b6115bc565b6040516106d29190613984565b60405180910390f35b6106f560048036038101906106f091906131ab565b6115f3565b6040516107029190613984565b60405180910390f35b61072560048036038101906107209190612d78565b61167b565b6040516107329190613984565b60405180910390f35b61075560048036038101906107509190612e9e565b6116ac565b6040516107629190613984565b60405180910390f35b610785600480360381019061078091906131d4565b611701565b6040516107929190613984565b60405180910390f35b6107b560048036038101906107b09190612fc7565b611738565b6040516107c29190613984565b60405180910390f35b6107e560048036038101906107e091906131ab565b61177b565b6040516107f29190613984565b60405180910390f35b610815600480360381019061081091906130c5565b61184a565b6040516108229190613984565b60405180910390f35b61084560048036038101906108409190613117565b611898565b6040516108529190613984565b60405180910390f35b61087560048036038101906108709190613182565b6118db565b6040516108829190613984565b60405180910390f35b6108a560048036038101906108a091906131ab565b611912565b6040516108b29190613984565b60405180910390f35b6108d560048036038101906108d09190612b0b565b611949565b6040516108e29190613984565b60405180910390f35b61090560048036038101906109009190612e0b565b6119d9565b6040516109129190613984565b60405180910390f35b60608160405160200161092e9190613447565b6040516020818303038152906040529050919050565b606080610951835161177b565b905060005b83518110156109ab578161097c85838151811061096f57fe5b60200260200101516111e7565b60405160200161098d9291906134c0565b60405160208183030381529060405291508080600101915050610956565b5080915050919050565b606060006109c683600001516118db565b6109d384602001516118db565b6109e08560400151610e3d565b6109ed8660600151610d01565b6109fa87608001516114da565b610a078860a00151611949565b610a178960c0015160070b6115f3565b610a278a60e0015160070b6115f3565b610a388b610100015160070b6115f3565b604051602001610a50999897969594939291906136ad565b60405160208183030381529060405290506000610a718461012001516115bc565b610a7f8561014001516115bc565b610a8d8661016001516115bc565b610a9b8761018001516115bc565b610aa9886101a00151611949565b610ab7896101c00151611949565b610ac58a6101e00151611949565b610ad38b6102000151611949565b610ae18c6102200151611949565b610aef8d6102400151611949565b610afd8e61026001516114da565b610b0b8f6102800151611949565b604051602001610b269c9b9a9998979695949392919061372c565b60405160208183030381529060405290508181604051602001610b4a9291906134c0565b60405160208183030381529060405292505050919050565b606060008251905060008167ffffffffffffffff81118015610b8357600080fd5b506040519080825280601f01601f191660200182016040528015610bb65781602001600182028036833780820191505090505b50905060005b82811015610c28578460018285030381518110610bd557fe5b602001015160f81c60f81b828281518110610bec57fe5b60200101907effffffffffffffffffffffffffffffffffffffffffffffffffffffffffffff1916908160001a9053508080600101915050610bbc565b819350505050919050565b6060600082604051602001610c4891906138ca565b6040516020818303038152906040529050610c6281610b62565b915050919050565b6060610c798260400151610e3d565b610c86836000015161122a565b610c93846020015161122a565b610ca08560400151610e3d565b610cad8660600151611701565b610cba876080015161167b565b610cc78860a0015161167b565b610cd48960c0015161167b565b604051602001610ceb98979695949392919061363b565b6040516020818303038152906040529050919050565b606080610d0e835161177b565b905060005b8351811015610d7f5781848281518110610d2957fe5b6020026020010151604051602001610d41919061385e565b604051602081830303815290604052604051602001610d619291906134c0565b60405160208183030381529060405291508080600101915050610d13565b5080915050919050565b6060610d98826000015161167b565b610da58360200151611701565b604051602001610db69291906134c0565b6040516020818303038152906040529050919050565b606080610dd9835161177b565b905060005b8351811015610e335781610e04858381518110610df757fe5b6020026020010151611898565b604051602001610e159291906134c0565b60405160208183030381529060405291508080600101915050610dde565b5080915050919050565b6060600082604051602001610e52919061342c565b604051602081830303815290604052905080915050919050565b6060808215610e8257610e7f845161177b565b90505b60005b8451811015610eda5781610eab868381518110610e9e57fe5b602002602001015161107d565b604051602001610ebc9291906134c0565b60405160208183030381529060405291508080600101915050610e85565b508091505092915050565b6060610ef48260000151610e3d565b610f018360200151610c6a565b604051602001610f129291906134c0565b6040516020818303038152906040529050919050565b60606000610f3983600001516118db565b610f4684602001516118db565b610f538560400151610e3d565b610f66866060015163ffffffff166115f3565b610f79876080015163ffffffff166115f3565b610f868860a00151610e3d565b610f938960c00151610e3d565b604051602001610fa99796959493929190613560565b60405160208183030381529060405290506000610fc98460e00151611701565b610fd7856101000151611469565b610fe5866101200151611469565b610ffb610ff688610140015161167b565b610b62565b611009886101600151611469565b61101789610180015161184a565b6110258a6101a001516119d9565b600060f81b6040516020016110419897969594939291906135c5565b604051602081830303815290604052905081816040516020016110659291906134c0565b60405160208183030381529060405292505050919050565b60606000611094836000015163ffffffff166115f3565b6110a5846020015160000151610e3d565b6110c085602001516020015167ffffffffffffffff166115f3565b6040516020016110d19291906134c0565b6040516020818303038152906040526110f3856040015163ffffffff166115f3565b6111008660600151610e3d565b61110d87608001516115f3565b61111a8860a0015161184a565b6111278960c00151610e3d565b60405160200161113d9796959493929190613560565b6040516020818303038152906040529050600061040084604001511663ffffffff1611156111975780611174846101000151610e3d565b6040516020016111859291906134c0565b60405160208183030381529060405290505b6000604084604001511663ffffffff1611156111de57806111bb8460e00151610e3d565b6040516020016111cc9291906134c0565b60405160208183030381529060405290505b80915050919050565b60606111f682600001516112c1565b6112038360200151610e3d565b6040516020016112149291906134c0565b6040516020818303038152906040529050919050565b606060008260405160200161123f91906137f6565b604051602081830303815290604052905061125981610b62565b915050919050565b6060816040516020016112749190613462565b6040516020818303038152906040529050919050565b606060008260405160200161129f91906138e5565b60405160208183030381529060405290506112b981610b62565b915050919050565b606080826040516020016112d59190613847565b60405160208183030381529060405290506112f0815161177b565b836040516020016113029291906137d2565b604051602081830303815290604052915050919050565b606080611326835161177b565b905060005b8351811015611380578161135185838151811061134457fe5b6020026020010151610ee5565b6040516020016113629291906134c0565b6040516020818303038152906040529150808060010191505061132b565b5080915050919050565b606061139f826000015163ffffffff166115f3565b6113b2836020015163ffffffff166115f3565b6113bf846040015161184a565b6113cc8560600151610e3d565b6113d986608001516109b5565b6113e68760a00151611701565b6113f38860c00151610d89565b6114008960e0015161167b565b61140e8a6101000151611701565b61141c8b6101200151610dcc565b61142a8c610140015161154b565b6114388d6101600151610944565b6040516020016114539c9b9a9998979695949392919061372c565b6040516020818303038152906040529050919050565b60608061147683516115f3565b905060005b83518110156114d057816114a185838151811061149457fe5b6020026020010151611738565b6040516020016114b29291906134c0565b6040516020818303038152906040529150808060010191505061147b565b5080915050919050565b6060806114e7835161177b565b905060005b8351811015611541578161151285838151811061150557fe5b60200260200101516119d9565b6040516020016115239291906134c0565b604051602081830303815290604052915080806001019150506114ec565b5080915050919050565b606080611558835161177b565b905060005b83518110156115b2578161158385838151811061157657fe5b6020026020010151610c6a565b6040516020016115949291906134c0565b6040516020818303038152906040529150808060010191505061155d565b5080915050919050565b60606000826040516020016115d1919061382c565b60405160208183030381529060405290506115eb81610b62565b915050919050565b60606000606060005b600115611668576000811415611613576000611616565b60805b607f86161760f81b92508183604051602001611633929190613498565b6040516020818303038152906040529150607f851161165157611668565b6001600786901c03945080806001019150506115fc565b61167182610b62565b9350505050919050565b60606116a582604051602001611691919061347d565b604051602081830303815290604052610b62565b9050919050565b60606116b7866112c1565b6116c086610e3d565b6116c9866115bc565b6116d286610e3d565b856040516020016116e7959493929190613515565b604051602081830303815290604052905095945050505050565b606060008260405160200161171691906138af565b604051602081830303815290604052905061173081610b62565b915050919050565b60606117478260000151610e3d565b6117548360200151610c33565b6040516020016117659291906134c0565b6040516020818303038152906040529050919050565b60608060fd60ff168310156117b1578260405160200161179b91906138e5565b6040516020818303038152906040529050611841565b61ffff83116117e45760fd836040516020016117ce929190613900565b6040516020818303038152906040529050611840565b63ffffffff83116118195760fe8360405160200161180392919061392c565b604051602081830303815290604052905061183f565b60ff8360405160200161182d929190613958565b60405160208183030381529060405290505b5b5b80915050919050565b6060611859826000015161128a565b611863601461177b565b6118708460200151610e3d565b604051602001611882939291906134e4565b6040516020818303038152906040529050919050565b60606118a78260000151610e3d565b6118b483602001516109b5565b6040516020016118c59291906134c0565b6040516020818303038152906040529050919050565b60606000826040516020016118f09190613879565b604051602081830303815290604052905061190a81610b62565b915050919050565b60606000826040516020016119279190613894565b604051602081830303815290604052905061194181610b62565b915050919050565b606080611956835161177b565b905060005b83518110156119cf57816119a085838151811061197457fe5b602002602001015160405160200161198c919061382c565b604051602081830303815290604052610b62565b6040516020016119b19291906134c0565b6040516020818303038152906040529150808060010191505061195b565b5080915050919050565b60606000826040516020016119ee9190613811565b6040516020818303038152906040529050611a0881610b62565b915050919050565b6000611a23611a1e846139d7565b6139a6565b90508083825260208201905082856020860282011115611a4257600080fd5b60005b85811015611a725781611a58888261204b565b845260208401935060208301925050600181019050611a45565b5050509392505050565b6000611a8f611a8a84613a03565b6139a6565b90508083825260208201905082856020860282011115611aae57600080fd5b60005b85811015611ade5781611ac48882612060565b845260208401935060208301925050600181019050611ab1565b5050509392505050565b6000611afb611af684613a2f565b6139a6565b90508083825260208201905082856040860282011115611b1a57600080fd5b60005b85811015611b4a5781611b30888261251d565b845260208401935060408301925050600181019050611b1d565b5050509392505050565b6000611b67611b6284613a5b565b6139a6565b9050808382526020820190508260005b85811015611ba75781358501611b8d8882612569565b845260208401935060208301925050600181019050611b77565b5050509392505050565b6000611bc4611bbf84613a87565b6139a6565b905080838252602082019050828560e0860282011115611be357600080fd5b60005b85811015611c135781611bf9888261274c565b845260208401935060e08301925050600181019050611be6565b5050509392505050565b6000611c30611c2b84613ab3565b6139a6565b9050808382526020820190508285610160860282011115611c5057600080fd5b60005b85811015611c815781611c6688826127fc565b84526020840193506101608301925050600181019050611c53565b5050509392505050565b6000611c9e611c9984613adf565b6139a6565b9050808382526020820190508260005b85811015611cde5781358501611cc48882612972565b845260208401935060208301925050600181019050611cae565b5050509392505050565b6000611cfb611cf684613b0b565b6139a6565b9050808382526020820190508285610100860282011115611d1b57600080fd5b60005b85811015611d4c5781611d3188826129d6565b84526020840193506101008301925050600181019050611d1e565b5050509392505050565b6000611d69611d6484613b37565b6139a6565b90508083825260208201905082856020860282011115611d8857600080fd5b60005b85811015611db85781611d9e8882612a38565b845260208401935060208301925050600181019050611d8b565b5050509392505050565b6000611dd5611dd084613b63565b6139a6565b905082815260208101848484011115611ded57600080fd5b611df8848285613d10565b509392505050565b6000611e13611e0e84613b93565b6139a6565b905082815260208101848484011115611e2b57600080fd5b611e36848285613d10565b509392505050565b600081359050611e4d81613e82565b92915050565b600082601f830112611e6457600080fd5b8135611e74848260208601611a10565b91505092915050565b600082601f830112611e8e57600080fd5b8135611e9e848260208601611a7c565b91505092915050565b600082601f830112611eb857600080fd5b8135611ec8848260208601611ae8565b91505092915050565b600082601f830112611ee257600080fd5b8135611ef2848260208601611b54565b91505092915050565b600082601f830112611f0c57600080fd5b8135611f1c848260208601611bb1565b91505092915050565b600082601f830112611f3657600080fd5b8135611f46848260208601611c1d565b91505092915050565b600082601f830112611f6057600080fd5b8135611f70848260208601611c8b565b91505092915050565b600082601f830112611f8a57600080fd5b8135611f9a848260208601611ce8565b91505092915050565b600082601f830112611fb457600080fd5b8135611fc4848260208601611d56565b91505092915050565b600081359050611fdc81613e99565b92915050565b600081359050611ff181613eb0565b92915050565b60008135905061200681613ec7565b92915050565b600082601f83011261201d57600080fd5b813561202d848260208601611dc2565b91505092915050565b60008135905061204581613ede565b92915050565b60008135905061205a81613ef5565b92915050565b60008135905061206f81613f0c565b92915050565b600082601f83011261208657600080fd5b8135612096848260208601611e00565b91505092915050565b60006102a082840312156120b257600080fd5b6120bd6102a06139a6565b905060006120cd84828501612a23565b60008301525060206120e184828501612a23565b60208301525060406120f584828501611e3e565b604083015250606082013567ffffffffffffffff81111561211557600080fd5b61212184828501611fa3565b606083015250608082013567ffffffffffffffff81111561214157600080fd5b61214d84828501611e53565b60808301525060a082013567ffffffffffffffff81111561216d57600080fd5b61217984828501611e7d565b60a08301525060c061218d84828501612060565b60c08301525060e06121a184828501612060565b60e0830152506101006121b684828501612060565b610100830152506101206121cc84828501612060565b610120830152506101406121e284828501612060565b610140830152506101606121f884828501612060565b6101608301525061018061220e84828501612060565b610180830152506101a082013567ffffffffffffffff81111561223057600080fd5b61223c84828501611e7d565b6101a0830152506101c082013567ffffffffffffffff81111561225e57600080fd5b61226a84828501611e7d565b6101c0830152506101e082013567ffffffffffffffff81111561228c57600080fd5b61229884828501611e7d565b6101e08301525061020082013567ffffffffffffffff8111156122ba57600080fd5b6122c684828501611e7d565b6102008301525061022082013567ffffffffffffffff8111156122e857600080fd5b6122f484828501611e7d565b6102208301525061024082013567ffffffffffffffff81111561231657600080fd5b61232284828501611e7d565b6102408301525061026082013567ffffffffffffffff81111561234457600080fd5b61235084828501611e53565b6102608301525061028082013567ffffffffffffffff81111561237257600080fd5b61237e84828501611e7d565b6102808301525092915050565b60006101e0828403121561239e57600080fd5b6123a96101c06139a6565b905060006123b984828501612a23565b60008301525060206123cd84828501612a23565b60208301525060406123e184828501611e3e565b60408301525060606123f584828501612a62565b606083015250608061240984828501612a62565b60808301525060a061241d84828501611e3e565b60a08301525060c061243184828501611e3e565b60c08301525060e061244584828501612a62565b60e08301525061010082013567ffffffffffffffff81111561246657600080fd5b61247284828501611ea7565b6101008301525061012082013567ffffffffffffffff81111561249457600080fd5b6124a084828501611ea7565b610120830152506101406124b684828501611ff7565b6101408301525061016082013567ffffffffffffffff8111156124d857600080fd5b6124e484828501611ea7565b610160830152506101806124fa848285016128da565b610180830152506101c06125108482850161204b565b6101a08301525092915050565b60006040828403121561252f57600080fd5b61253960406139a6565b9050600061254984828501611e3e565b600083015250602061255d84828501612a77565b60208301525092915050565b60006040828403121561257b57600080fd5b61258560406139a6565b9050600082013567ffffffffffffffff8111156125a157600080fd5b6125ad84828501612075565b60008301525060206125c184828501611e3e565b60208301525092915050565b60006101c082840312156125e057600080fd5b6125eb6101806139a6565b905060006125fb84828501612a62565b600083015250602061260f84828501612a62565b6020830152506040612623848285016128da565b604083015250608061263784828501611e3e565b60608301525060a082013567ffffffffffffffff81111561265757600080fd5b6126638482850161209f565b60808301525060c061267784828501612a62565b60a08301525060e061268b84828501612926565b60c0830152506101206126a084828501611ff7565b60e0830152506101406126b584828501612a62565b6101008301525061016082013567ffffffffffffffff8111156126d757600080fd5b6126e384828501611f4f565b6101208301525061018082013567ffffffffffffffff81111561270557600080fd5b61271184828501611efb565b610140830152506101a082013567ffffffffffffffff81111561273357600080fd5b61273f84828501611ed1565b6101608301525092915050565b600060e0828403121561275e57600080fd5b61276860e06139a6565b9050600061277884828501612036565b600083015250602061278c84828501612036565b60208301525060406127a084828501611e3e565b60408301525060606127b484828501612a62565b60608301525060806127c884828501611ff7565b60808301525060a06127dc84828501611ff7565b60a08301525060c06127f084828501611ff7565b60c08301525092915050565b6000610160828403121561280f57600080fd5b61281a6101206139a6565b9050600061282a84828501612a62565b600083015250602061283e8482850161251d565b602083015250606061285284828501612a62565b604083015250608061286684828501611e3e565b60608301525060a061287a84828501612a4d565b60808301525060c061288e848285016128da565b60a0830152506101006128a384828501611e3e565b60c0830152506101206128b884828501611e3e565b60e0830152506101406128cd84828501611e3e565b6101008301525092915050565b6000604082840312156128ec57600080fd5b6128f660406139a6565b9050600061290684828501612a8c565b600083015250602061291a84828501611e3e565b60208301525092915050565b60006040828403121561293857600080fd5b61294260406139a6565b9050600061295284828501611ff7565b600083015250602061296684828501612a62565b60208301525092915050565b60006040828403121561298457600080fd5b61298e60406139a6565b9050600061299e84828501611e3e565b600083015250602082013567ffffffffffffffff8111156129be57600080fd5b6129ca8482850161209f565b60208301525092915050565b600061010082840312156129e957600080fd5b6129f360406139a6565b90506000612a0384828501611e3e565b6000830152506020612a178482850161274c565b60208301525092915050565b600081359050612a3281613f23565b92915050565b600081359050612a4781613f3a565b92915050565b600081359050612a5c81613f51565b92915050565b600081359050612a7181613f68565b92915050565b600081359050612a8681613f7f565b92915050565b600081359050612a9b81613f96565b92915050565b600060208284031215612ab357600080fd5b6000612ac184828501611e3e565b91505092915050565b600060208284031215612adc57600080fd5b600082013567ffffffffffffffff811115612af657600080fd5b612b0284828501611e53565b91505092915050565b600060208284031215612b1d57600080fd5b600082013567ffffffffffffffff811115612b3757600080fd5b612b4384828501611e7d565b91505092915050565b600060208284031215612b5e57600080fd5b600082013567ffffffffffffffff811115612b7857600080fd5b612b8484828501611ea7565b91505092915050565b600060208284031215612b9f57600080fd5b600082013567ffffffffffffffff811115612bb957600080fd5b612bc584828501611ed1565b91505092915050565b600060208284031215612be057600080fd5b600082013567ffffffffffffffff811115612bfa57600080fd5b612c0684828501611efb565b91505092915050565b60008060408385031215612c2257600080fd5b600083013567ffffffffffffffff811115612c3c57600080fd5b612c4885828601611f25565b9250506020612c5985828601611fcd565b9150509250929050565b600060208284031215612c7557600080fd5b600082013567ffffffffffffffff811115612c8f57600080fd5b612c9b84828501611f4f565b91505092915050565b600060208284031215612cb657600080fd5b600082013567ffffffffffffffff811115612cd057600080fd5b612cdc84828501611f79565b91505092915050565b600060208284031215612cf757600080fd5b600082013567ffffffffffffffff811115612d1157600080fd5b612d1d84828501611fa3565b91505092915050565b600060208284031215612d3857600080fd5b6000612d4684828501611fcd565b91505092915050565b600060208284031215612d6157600080fd5b6000612d6f84828501611fe2565b91505092915050565b600060208284031215612d8a57600080fd5b6000612d9884828501611ff7565b91505092915050565b600060208284031215612db357600080fd5b600082013567ffffffffffffffff811115612dcd57600080fd5b612dd98482850161200c565b91505092915050565b600060208284031215612df457600080fd5b6000612e0284828501612036565b91505092915050565b600060208284031215612e1d57600080fd5b6000612e2b8482850161204b565b91505092915050565b600060208284031215612e4657600080fd5b6000612e5484828501612060565b91505092915050565b600060208284031215612e6f57600080fd5b600082013567ffffffffffffffff811115612e8957600080fd5b612e9584828501612075565b91505092915050565b600080600080600060a08688031215612eb657600080fd5b600086013567ffffffffffffffff811115612ed057600080fd5b612edc88828901612075565b9550506020612eed88828901611e3e565b9450506040612efe88828901612060565b9350506060612f0f88828901611e3e565b925050608086013567ffffffffffffffff811115612f2c57600080fd5b612f388882890161200c565b9150509295509295909350565b600060208284031215612f5757600080fd5b600082013567ffffffffffffffff811115612f7157600080fd5b612f7d8482850161209f565b91505092915050565b600060208284031215612f9857600080fd5b600082013567ffffffffffffffff811115612fb257600080fd5b612fbe8482850161238b565b91505092915050565b600060408284031215612fd957600080fd5b6000612fe78482850161251d565b91505092915050565b60006020828403121561300257600080fd5b600082013567ffffffffffffffff81111561301c57600080fd5b61302884828501612569565b91505092915050565b60006020828403121561304357600080fd5b600082013567ffffffffffffffff81111561305d57600080fd5b613069848285016125cd565b91505092915050565b600060e0828403121561308457600080fd5b60006130928482850161274c565b91505092915050565b600061016082840312156130ae57600080fd5b60006130bc848285016127fc565b91505092915050565b6000604082840312156130d757600080fd5b60006130e5848285016128da565b91505092915050565b60006040828403121561310057600080fd5b600061310e84828501612926565b91505092915050565b60006020828403121561312957600080fd5b600082013567ffffffffffffffff81111561314357600080fd5b61314f84828501612972565b91505092915050565b6000610100828403121561316b57600080fd5b6000613179848285016129d6565b91505092915050565b60006020828403121561319457600080fd5b60006131a284828501612a23565b91505092915050565b6000602082840312156131bd57600080fd5b60006131cb84828501612a4d565b91505092915050565b6000602082840312156131e657600080fd5b60006131f484828501612a62565b91505092915050565b60006020828403121561320f57600080fd5b600061321d84828501612a77565b91505092915050565b60006020828403121561323857600080fd5b600061324684828501612a8c565b91505092915050565b61326061325b82613c00565b613d52565b82525050565b61327761327282613c12565b613d64565b82525050565b61328e61328982613c1e565b613d76565b82525050565b6132a56132a082613c4a565b613d80565b82525050565b6132bc6132b782613c76565b613d8a565b82525050565b60006132cd82613bc3565b6132d78185613bd9565b93506132e7818560208601613d1f565b6132f081613e30565b840191505092915050565b600061330682613bc3565b6133108185613bea565b9350613320818560208601613d1f565b80840191505092915050565b61333d61333882613c80565b613d94565b82525050565b61335461334f82613c8d565b613da6565b82525050565b61336b61336682613c9a565b613db8565b82525050565b600061337c82613bce565b6133868185613bf5565b9350613396818560208601613d1f565b80840191505092915050565b6133b36133ae82613cb5565b613ddc565b82525050565b6133ca6133c582613ca7565b613dca565b82525050565b6133e16133dc82613cd5565b613dee565b82525050565b6133f86133f382613cdf565b613df8565b82525050565b61340f61340a82613cef565b613e0a565b82525050565b61342661342182613d03565b613e1c565b82525050565b6000613438828461324f565b60148201915081905092915050565b60006134538284613266565b60018201915081905092915050565b600061346e8284613294565b60148201915081905092915050565b600061348982846132ab565b60208201915081905092915050565b60006134a482856132fb565b91506134b0828461327d565b6001820191508190509392505050565b60006134cc82856132fb565b91506134d882846132fb565b91508190509392505050565b60006134f082866132fb565b91506134fc82856132fb565b915061350882846132fb565b9150819050949350505050565b600061352182886132fb565b915061352d82876132fb565b915061353982866132fb565b915061354582856132fb565b915061355182846132fb565b91508190509695505050505050565b600061356c828a6132fb565b915061357882896132fb565b915061358482886132fb565b915061359082876132fb565b915061359c82866132fb565b91506135a882856132fb565b91506135b482846132fb565b915081905098975050505050505050565b60006135d1828b6132fb565b91506135dd828a6132fb565b91506135e982896132fb565b91506135f582886132fb565b915061360182876132fb565b915061360d82866132fb565b915061361982856132fb565b9150613625828461327d565b6001820191508190509998505050505050505050565b6000613647828b6132fb565b9150613653828a6132fb565b915061365f82896132fb565b915061366b82886132fb565b915061367782876132fb565b915061368382866132fb565b915061368f82856132fb565b915061369b82846132fb565b91508190509998505050505050505050565b60006136b9828c6132fb565b91506136c5828b6132fb565b91506136d1828a6132fb565b91506136dd82896132fb565b91506136e982886132fb565b91506136f582876132fb565b915061370182866132fb565b915061370d82856132fb565b915061371982846132fb565b91508190509a9950505050505050505050565b6000613738828f6132fb565b9150613744828e6132fb565b9150613750828d6132fb565b915061375c828c6132fb565b9150613768828b6132fb565b9150613774828a6132fb565b915061378082896132fb565b915061378c82886132fb565b915061379882876132fb565b91506137a482866132fb565b91506137b082856132fb565b91506137bc82846132fb565b91508190509d9c50505050505050505050505050565b60006137de82856132fb565b91506137ea8284613371565b91508190509392505050565b6000613802828461332c565b60028201915081905092915050565b600061381d8284613343565b60048201915081905092915050565b6000613838828461335a565b60088201915081905092915050565b60006138538284613371565b915081905092915050565b600061386a82846133a2565b60148201915081905092915050565b600061388582846133b9565b60028201915081905092915050565b60006138a082846133d0565b60208201915081905092915050565b60006138bb82846133e7565b60048201915081905092915050565b60006138d682846133fe565b60088201915081905092915050565b60006138f18284613415565b60018201915081905092915050565b600061390c8285613415565b60018201915061391c82846133b9565b6002820191508190509392505050565b60006139388285613415565b60018201915061394882846133e7565b6004820191508190509392505050565b60006139648285613415565b60018201915061397482846133fe565b6008820191508190509392505050565b6000602082019050818103600083015261399e81846132c2565b905092915050565b6000604051905081810181811067ffffffffffffffff821117156139cd576139cc613e2e565b5b8060405250919050565b600067ffffffffffffffff8211156139f2576139f1613e2e565b5b602082029050602081019050919050565b600067ffffffffffffffff821115613a1e57613a1d613e2e565b5b602082029050602081019050919050565b600067ffffffffffffffff821115613a4a57613a49613e2e565b5b602082029050602081019050919050565b600067ffffffffffffffff821115613a7657613a75613e2e565b5b602082029050602081019050919050565b600067ffffffffffffffff821115613aa257613aa1613e2e565b5b602082029050602081019050919050565b600067ffffffffffffffff821115613ace57613acd613e2e565b5b602082029050602081019050919050565b600067ffffffffffffffff821115613afa57613af9613e2e565b5b602082029050602081019050919050565b600067ffffffffffffffff821115613b2657613b25613e2e565b5b602082029050602081019050919050565b600067ffffffffffffffff821115613b5257613b51613e2e565b5b602082029050602081019050919050565b600067ffffffffffffffff821115613b7e57613b7d613e2e565b5b601f19601f8301169050602081019050919050565b600067ffffffffffffffff821115613bae57613bad613e2e565b5b601f19601f8301169050602081019050919050565b600081519050919050565b600081519050919050565b600082825260208201905092915050565b600081905092915050565b600081905092915050565b6000613c0b82613cb5565b9050919050565b60008115159050919050565b60007fff0000000000000000000000000000000000000000000000000000000000000082169050919050565b60007fffffffffffffffffffffffffffffffffffffffff00000000000000000000000082169050919050565b6000819050919050565b60008160010b9050919050565b60008160030b9050919050565b60008160070b9050919050565b600061ffff82169050919050565b600073ffffffffffffffffffffffffffffffffffffffff82169050919050565b6000819050919050565b600063ffffffff82169050919050565b600067ffffffffffffffff82169050919050565b600060ff82169050919050565b82818337600083830152505050565b60005b83811015613d3d578082015181840152602081019050613d22565b83811115613d4c576000848401525b50505050565b6000613d5d82613ddc565b9050919050565b6000613d6f82613e1c565b9050919050565b6000819050919050565b6000819050919050565b6000819050919050565b6000613d9f82613e5b565b9050919050565b6000613db182613e4e565b9050919050565b6000613dc382613e41565b9050919050565b6000613dd582613e5b565b9050919050565b6000613de782613e75565b9050919050565b6000819050919050565b6000613e0382613e4e565b9050919050565b6000613e1582613e41565b9050919050565b6000613e2782613e68565b9050919050565bfe5b6000601f19601f8301169050919050565b60008160c01b9050919050565b60008160e01b9050919050565b60008160f01b9050919050565b60008160f81b9050919050565b60008160601b9050919050565b613e8b81613c00565b8114613e9657600080fd5b50565b613ea281613c12565b8114613ead57600080fd5b50565b613eb981613c4a565b8114613ec457600080fd5b50565b613ed081613c76565b8114613edb57600080fd5b50565b613ee781613c80565b8114613ef257600080fd5b50565b613efe81613c8d565b8114613f0957600080fd5b50565b613f1581613c9a565b8114613f2057600080fd5b50565b613f2c81613ca7565b8114613f3757600080fd5b50565b613f4381613cb5565b8114613f4e57600080fd5b50565b613f5a81613cd5565b8114613f6557600080fd5b50565b613f7181613cdf565b8114613f7c57600080fd5b50565b613f8881613cef565b8114613f9357600080fd5b50565b613f9f81613d03565b8114613faa57600080fd5b5056fea2646970667358221220175e809220fc1ae36d5190e916a9fe65b676a9df2db8de3d0a452fb5c19f512c64736f6c63430007060033",
			"opcodes": "PUSH1 0x80 PUSH1 0x40 MSTORE CALLVALUE DUP1 ISZERO PUSH2 0x10 JUMPI PUSH1 0x0 DUP1 REVERT JUMPDEST POP PUSH2 0x3FE3 DUP1 PUSH2 0x20 PUSH1 0x0 CODECOPY PUSH1 0x0 RETURN INVALID PUSH1 0x80 PUSH1 0x40 MSTORE CALLVALUE DUP1 ISZERO PUSH2 0x10 JUMPI PUSH1 0x0 DUP1 REVERT JUMPDEST POP PUSH1 0x4 CALLDATASIZE LT PUSH2 0x226 JUMPI PUSH1 0x0 CALLDATALOAD PUSH1 0xE0 SHR DUP1 PUSH4 0x68B4AE81 GT PUSH2 0x130 JUMPI DUP1 PUSH4 0xC93E58C8 GT PUSH2 0xB8 JUMPI DUP1 PUSH4 0xE0671111 GT PUSH2 0x7C JUMPI DUP1 PUSH4 0xE0671111 EQ PUSH2 0x82B JUMPI DUP1 PUSH4 0xE4CBA547 EQ PUSH2 0x85B JUMPI DUP1 PUSH4 0xF20FB830 EQ PUSH2 0x88B JUMPI DUP1 PUSH4 0xF8217295 EQ PUSH2 0x8BB JUMPI DUP1 PUSH4 0xFEF5906A EQ PUSH2 0x8EB JUMPI PUSH2 0x226 JUMP JUMPDEST DUP1 PUSH4 0xC93E58C8 EQ PUSH2 0x73B JUMPI DUP1 PUSH4 0xCECB3043 EQ PUSH2 0x76B JUMPI DUP1 PUSH4 0xCFA84DE9 EQ PUSH2 0x79B JUMPI DUP1 PUSH4 0xDAD935A1 EQ PUSH2 0x7CB JUMPI DUP1 PUSH4 0xDF61A937 EQ PUSH2 0x7FB JUMPI PUSH2 0x226 JUMP JUMPDEST DUP1 PUSH4 0x9D487B47 GT PUSH2 0xFF JUMPI DUP1 PUSH4 0x9D487B47 EQ PUSH2 0x64B JUMPI DUP1 PUSH4 0xA412BB29 EQ PUSH2 0x67B JUMPI DUP1 PUSH4 0xAF832F09 EQ PUSH2 0x6AB JUMPI DUP1 PUSH4 0xB3A895F6 EQ PUSH2 0x6DB JUMPI DUP1 PUSH4 0xB9F7F35A EQ PUSH2 0x70B JUMPI PUSH2 0x226 JUMP JUMPDEST DUP1 PUSH4 0x68B4AE81 EQ PUSH2 0x58B JUMPI DUP1 PUSH4 0x7B92BD28 EQ PUSH2 0x5BB JUMPI DUP1 PUSH4 0x892E2937 EQ PUSH2 0x5EB JUMPI DUP1 PUSH4 0x941BB060 EQ PUSH2 0x61B JUMPI PUSH2 0x226 JUMP JUMPDEST DUP1 PUSH4 0x241D23B2 GT PUSH2 0x1B3 JUMPI DUP1 PUSH4 0x3B945374 GT PUSH2 0x182 JUMPI DUP1 PUSH4 0x3B945374 EQ PUSH2 0x49B JUMPI DUP1 PUSH4 0x44C789D1 EQ PUSH2 0x4CB JUMPI DUP1 PUSH4 0x46256007 EQ PUSH2 0x4FB JUMPI DUP1 PUSH4 0x463276C3 EQ PUSH2 0x52B JUMPI DUP1 PUSH4 0x6127B4FF EQ PUSH2 0x55B JUMPI PUSH2 0x226 JUMP JUMPDEST DUP1 PUSH4 0x241D23B2 EQ PUSH2 0x3DB JUMPI DUP1 PUSH4 0x2A4EDD70 EQ PUSH2 0x40B JUMPI DUP1 PUSH4 0x33C45AB9 EQ PUSH2 0x43B JUMPI DUP1 PUSH4 0x343BEE60 EQ PUSH2 0x46B JUMPI PUSH2 0x226 JUMP JUMPDEST DUP1 PUSH4 0x122E5AE7 GT PUSH2 0x1FA JUMPI DUP1 PUSH4 0x122E5AE7 EQ PUSH2 0x2EB JUMPI DUP1 PUSH4 0x18C9BBFD EQ PUSH2 0x31B JUMPI DUP1 PUSH4 0x19A7C17B EQ PUSH2 0x34B JUMPI DUP1 PUSH4 0x1C356532 EQ PUSH2 0x37B JUMPI DUP1 PUSH4 0x200F6C2A EQ PUSH2 0x3AB JUMPI PUSH2 0x226 JUMP JUMPDEST DUP1 PUSH3 0x9C8152 EQ PUSH2 0x22B JUMPI DUP1 PUSH4 0x49E3490 EQ PUSH2 0x25B JUMPI DUP1 PUSH4 0xA803A86 EQ PUSH2 0x28B JUMPI DUP1 PUSH4 0x1222D81A EQ PUSH2 0x2BB JUMPI JUMPDEST PUSH1 0x0 DUP1 REVERT JUMPDEST PUSH2 0x245 PUSH1 0x4 DUP1 CALLDATASIZE SUB DUP2 ADD SWAP1 PUSH2 0x240 SWAP2 SWAP1 PUSH2 0x2D26 JUMP JUMPDEST PUSH2 0x91B JUMP JUMPDEST PUSH1 0x40 MLOAD PUSH2 0x252 SWAP2 SWAP1 PUSH2 0x3984 JUMP JUMPDEST PUSH1 0x40 MLOAD DUP1 SWAP2 SUB SWAP1 RETURN JUMPDEST PUSH2 0x275 PUSH1 0x4 DUP1 CALLDATASIZE SUB DUP2 ADD SWAP1 PUSH2 0x270 SWAP2 SWAP1 PUSH2 0x2B8D JUMP JUMPDEST PUSH2 0x944 JUMP JUMPDEST PUSH1 0x40 MLOAD PUSH2 0x282 SWAP2 SWAP1 PUSH2 0x3984 JUMP JUMPDEST PUSH1 0x40 MLOAD DUP1 SWAP2 SUB SWAP1 RETURN JUMPDEST PUSH2 0x2A5 PUSH1 0x4 DUP1 CALLDATASIZE SUB DUP2 ADD SWAP1 PUSH2 0x2A0 SWAP2 SWAP1 PUSH2 0x2F45 JUMP JUMPDEST PUSH2 0x9B5 JUMP JUMPDEST PUSH1 0x40 MLOAD PUSH2 0x2B2 SWAP2 SWAP1 PUSH2 0x3984 JUMP JUMPDEST PUSH1 0x40 MLOAD DUP1 SWAP2 SUB SWAP1 RETURN JUMPDEST PUSH2 0x2D5 PUSH1 0x4 DUP1 CALLDATASIZE SUB DUP2 ADD SWAP1 PUSH2 0x2D0 SWAP2 SWAP1 PUSH2 0x2DA1 JUMP JUMPDEST PUSH2 0xB62 JUMP JUMPDEST PUSH1 0x40 MLOAD PUSH2 0x2E2 SWAP2 SWAP1 PUSH2 0x3984 JUMP JUMPDEST PUSH1 0x40 MLOAD DUP1 SWAP2 SUB SWAP1 RETURN JUMPDEST PUSH2 0x305 PUSH1 0x4 DUP1 CALLDATASIZE SUB DUP2 ADD SWAP1 PUSH2 0x300 SWAP2 SWAP1 PUSH2 0x31FD JUMP JUMPDEST PUSH2 0xC33 JUMP JUMPDEST PUSH1 0x40 MLOAD PUSH2 0x312 SWAP2 SWAP1 PUSH2 0x3984 JUMP JUMPDEST PUSH1 0x40 MLOAD DUP1 SWAP2 SUB SWAP1 RETURN JUMPDEST PUSH2 0x335 PUSH1 0x4 DUP1 CALLDATASIZE SUB DUP2 ADD SWAP1 PUSH2 0x330 SWAP2 SWAP1 PUSH2 0x3072 JUMP JUMPDEST PUSH2 0xC6A JUMP JUMPDEST PUSH1 0x40 MLOAD PUSH2 0x342 SWAP2 SWAP1 PUSH2 0x3984 JUMP JUMPDEST PUSH1 0x40 MLOAD DUP1 SWAP2 SUB SWAP1 RETURN JUMPDEST PUSH2 0x365 PUSH1 0x4 DUP1 CALLDATASIZE SUB DUP2 ADD SWAP1 PUSH2 0x360 SWAP2 SWAP1 PUSH2 0x2CE5 JUMP JUMPDEST PUSH2 0xD01 JUMP JUMPDEST PUSH1 0x40 MLOAD PUSH2 0x372 SWAP2 SWAP1 PUSH2 0x3984 JUMP JUMPDEST PUSH1 0x40 MLOAD DUP1 SWAP2 SUB SWAP1 RETURN JUMPDEST PUSH2 0x395 PUSH1 0x4 DUP1 CALLDATASIZE SUB DUP2 ADD SWAP1 PUSH2 0x390 SWAP2 SWAP1 PUSH2 0x30EE JUMP JUMPDEST PUSH2 0xD89 JUMP JUMPDEST PUSH1 0x40 MLOAD PUSH2 0x3A2 SWAP2 SWAP1 PUSH2 0x3984 JUMP JUMPDEST PUSH1 0x40 MLOAD DUP1 SWAP2 SUB SWAP1 RETURN JUMPDEST PUSH2 0x3C5 PUSH1 0x4 DUP1 CALLDATASIZE SUB DUP2 ADD SWAP1 PUSH2 0x3C0 SWAP2 SWAP1 PUSH2 0x2C63 JUMP JUMPDEST PUSH2 0xDCC JUMP JUMPDEST PUSH1 0x40 MLOAD PUSH2 0x3D2 SWAP2 SWAP1 PUSH2 0x3984 JUMP JUMPDEST PUSH1 0x40 MLOAD DUP1 SWAP2 SUB SWAP1 RETURN JUMPDEST PUSH2 0x3F5 PUSH1 0x4 DUP1 CALLDATASIZE SUB DUP2 ADD SWAP1 PUSH2 0x3F0 SWAP2 SWAP1 PUSH2 0x2AA1 JUMP JUMPDEST PUSH2 0xE3D JUMP JUMPDEST PUSH1 0x40 MLOAD PUSH2 0x402 SWAP2 SWAP1 PUSH2 0x3984 JUMP JUMPDEST PUSH1 0x40 MLOAD DUP1 SWAP2 SUB SWAP1 RETURN JUMPDEST PUSH2 0x425 PUSH1 0x4 DUP1 CALLDATASIZE SUB DUP2 ADD SWAP1 PUSH2 0x420 SWAP2 SWAP1 PUSH2 0x2C0F JUMP JUMPDEST PUSH2 0xE6C JUMP JUMPDEST PUSH1 0x40 MLOAD PUSH2 0x432 SWAP2 SWAP1 PUSH2 0x3984 JUMP JUMPDEST PUSH1 0x40 MLOAD DUP1 SWAP2 SUB SWAP1 RETURN JUMPDEST PUSH2 0x455 PUSH1 0x4 DUP1 CALLDATASIZE SUB DUP2 ADD SWAP1 PUSH2 0x450 SWAP2 SWAP1 PUSH2 0x3158 JUMP JUMPDEST PUSH2 0xEE5 JUMP JUMPDEST PUSH1 0x40 MLOAD PUSH2 0x462 SWAP2 SWAP1 PUSH2 0x3984 JUMP JUMPDEST PUSH1 0x40 MLOAD DUP1 SWAP2 SUB SWAP1 RETURN JUMPDEST PUSH2 0x485 PUSH1 0x4 DUP1 CALLDATASIZE SUB DUP2 ADD SWAP1 PUSH2 0x480 SWAP2 SWAP1 PUSH2 0x2F86 JUMP JUMPDEST PUSH2 0xF28 JUMP JUMPDEST PUSH1 0x40 MLOAD PUSH2 0x492 SWAP2 SWAP1 PUSH2 0x3984 JUMP JUMPDEST PUSH1 0x40 MLOAD DUP1 SWAP2 SUB SWAP1 RETURN JUMPDEST PUSH2 0x4B5 PUSH1 0x4 DUP1 CALLDATASIZE SUB DUP2 ADD SWAP1 PUSH2 0x4B0 SWAP2 SWAP1 PUSH2 0x309B JUMP JUMPDEST PUSH2 0x107D JUMP JUMPDEST PUSH1 0x40 MLOAD PUSH2 0x4C2 SWAP2 SWAP1 PUSH2 0x3984 JUMP JUMPDEST PUSH1 0x40 MLOAD DUP1 SWAP2 SUB SWAP1 RETURN JUMPDEST PUSH2 0x4E5 PUSH1 0x4 DUP1 CALLDATASIZE SUB DUP2 ADD SWAP1 PUSH2 0x4E0 SWAP2 SWAP1 PUSH2 0x2FF0 JUMP JUMPDEST PUSH2 0x11E7 JUMP JUMPDEST PUSH1 0x40 MLOAD PUSH2 0x4F2 SWAP2 SWAP1 PUSH2 0x3984 JUMP JUMPDEST PUSH1 0x40 MLOAD DUP1 SWAP2 SUB SWAP1 RETURN JUMPDEST PUSH2 0x515 PUSH1 0x4 DUP1 CALLDATASIZE SUB DUP2 ADD SWAP1 PUSH2 0x510 SWAP2 SWAP1 PUSH2 0x2DE2 JUMP JUMPDEST PUSH2 0x122A JUMP JUMPDEST PUSH1 0x40 MLOAD PUSH2 0x522 SWAP2 SWAP1 PUSH2 0x3984 JUMP JUMPDEST PUSH1 0x40 MLOAD DUP1 SWAP2 SUB SWAP1 RETURN JUMPDEST PUSH2 0x545 PUSH1 0x4 DUP1 CALLDATASIZE SUB DUP2 ADD SWAP1 PUSH2 0x540 SWAP2 SWAP1 PUSH2 0x2D4F JUMP JUMPDEST PUSH2 0x1261 JUMP JUMPDEST PUSH1 0x40 MLOAD PUSH2 0x552 SWAP2 SWAP1 PUSH2 0x3984 JUMP JUMPDEST PUSH1 0x40 MLOAD DUP1 SWAP2 SUB SWAP1 RETURN JUMPDEST PUSH2 0x575 PUSH1 0x4 DUP1 CALLDATASIZE SUB DUP2 ADD SWAP1 PUSH2 0x570 SWAP2 SWAP1 PUSH2 0x3226 JUMP JUMPDEST PUSH2 0x128A JUMP JUMPDEST PUSH1 0x40 MLOAD PUSH2 0x582 SWAP2 SWAP1 PUSH2 0x3984 JUMP JUMPDEST PUSH1 0x40 MLOAD DUP1 SWAP2 SUB SWAP1 RETURN JUMPDEST PUSH2 0x5A5 PUSH1 0x4 DUP1 CALLDATASIZE SUB DUP2 ADD SWAP1 PUSH2 0x5A0 SWAP2 SWAP1 PUSH2 0x2E5D JUMP JUMPDEST PUSH2 0x12C1 JUMP JUMPDEST PUSH1 0x40 MLOAD PUSH2 0x5B2 SWAP2 SWAP1 PUSH2 0x3984 JUMP JUMPDEST PUSH1 0x40 MLOAD DUP1 SWAP2 SUB SWAP1 RETURN JUMPDEST PUSH2 0x5D5 PUSH1 0x4 DUP1 CALLDATASIZE SUB DUP2 ADD SWAP1 PUSH2 0x5D0 SWAP2 SWAP1 PUSH2 0x2CA4 JUMP JUMPDEST PUSH2 0x1319 JUMP JUMPDEST PUSH1 0x40 MLOAD PUSH2 0x5E2 SWAP2 SWAP1 PUSH2 0x3984 JUMP JUMPDEST PUSH1 0x40 MLOAD DUP1 SWAP2 SUB SWAP1 RETURN JUMPDEST PUSH2 0x605 PUSH1 0x4 DUP1 CALLDATASIZE SUB DUP2 ADD SWAP1 PUSH2 0x600 SWAP2 SWAP1 PUSH2 0x3031 JUMP JUMPDEST PUSH2 0x138A JUMP JUMPDEST PUSH1 0x40 MLOAD PUSH2 0x612 SWAP2 SWAP1 PUSH2 0x3984 JUMP JUMPDEST PUSH1 0x40 MLOAD DUP1 SWAP2 SUB SWAP1 RETURN JUMPDEST PUSH2 0x635 PUSH1 0x4 DUP1 CALLDATASIZE SUB DUP2 ADD SWAP1 PUSH2 0x630 SWAP2 SWAP1 PUSH2 0x2B4C JUMP JUMPDEST PUSH2 0x1469 JUMP JUMPDEST PUSH1 0x40 MLOAD PUSH2 0x642 SWAP2 SWAP1 PUSH2 0x3984 JUMP JUMPDEST PUSH1 0x40 MLOAD DUP1 SWAP2 SUB SWAP1 RETURN JUMPDEST PUSH2 0x665 PUSH1 0x4 DUP1 CALLDATASIZE SUB DUP2 ADD SWAP1 PUSH2 0x660 SWAP2 SWAP1 PUSH2 0x2ACA JUMP JUMPDEST PUSH2 0x14DA JUMP JUMPDEST PUSH1 0x40 MLOAD PUSH2 0x672 SWAP2 SWAP1 PUSH2 0x3984 JUMP JUMPDEST PUSH1 0x40 MLOAD DUP1 SWAP2 SUB SWAP1 RETURN JUMPDEST PUSH2 0x695 PUSH1 0x4 DUP1 CALLDATASIZE SUB DUP2 ADD SWAP1 PUSH2 0x690 SWAP2 SWAP1 PUSH2 0x2BCE JUMP JUMPDEST PUSH2 0x154B JUMP JUMPDEST PUSH1 0x40 MLOAD PUSH2 0x6A2 SWAP2 SWAP1 PUSH2 0x3984 JUMP JUMPDEST PUSH1 0x40 MLOAD DUP1 SWAP2 SUB SWAP1 RETURN JUMPDEST PUSH2 0x6C5 PUSH1 0x4 DUP1 CALLDATASIZE SUB DUP2 ADD SWAP1 PUSH2 0x6C0 SWAP2 SWAP1 PUSH2 0x2E34 JUMP JUMPDEST PUSH2 0x15BC JUMP JUMPDEST PUSH1 0x40 MLOAD PUSH2 0x6D2 SWAP2 SWAP1 PUSH2 0x3984 JUMP JUMPDEST PUSH1 0x40 MLOAD DUP1 SWAP2 SUB SWAP1 RETURN JUMPDEST PUSH2 0x6F5 PUSH1 0x4 DUP1 CALLDATASIZE SUB DUP2 ADD SWAP1 PUSH2 0x6F0 SWAP2 SWAP1 PUSH2 0x31AB JUMP JUMPDEST PUSH2 0x15F3 JUMP JUMPDEST PUSH1 0x40 MLOAD PUSH2 0x702 SWAP2 SWAP1 PUSH2 0x3984 JUMP JUMPDEST PUSH1 0x40 MLOAD DUP1 SWAP2 SUB SWAP1 RETURN JUMPDEST PUSH2 0x725 PUSH1 0x4 DUP1 CALLDATASIZE SUB DUP2 ADD SWAP1 PUSH2 0x720 SWAP2 SWAP1 PUSH2 0x2D78 JUMP JUMPDEST PUSH2 0x167B JUMP JUMPDEST PUSH1 0x40 MLOAD PUSH2 0x732 SWAP2 SWAP1 PUSH2 0x3984 JUMP JUMPDEST PUSH1 0x40 MLOAD DUP1 SWAP2 SUB SWAP1 RETURN JUMPDEST PUSH2 0x755 PUSH1 0x4 DUP1 CALLDATASIZE SUB DUP2 ADD SWAP1 PUSH2 0x750 SWAP2 SWAP1 PUSH2 0x2E9E JUMP JUMPDEST PUSH2 0x16AC JUMP JUMPDEST PUSH1 0x40 MLOAD PUSH2 0x762 SWAP2 SWAP1 PUSH2 0x3984 JUMP JUMPDEST PUSH1 0x40 MLOAD DUP1 SWAP2 SUB SWAP1 RETURN JUMPDEST PUSH2 0x785 PUSH1 0x4 DUP1 CALLDATASIZE SUB DUP2 ADD SWAP1 PUSH2 0x780 SWAP2 SWAP1 PUSH2 0x31D4 JUMP JUMPDEST PUSH2 0x1701 JUMP JUMPDEST PUSH1 0x40 MLOAD PUSH2 0x792 SWAP2 SWAP1 PUSH2 0x3984 JUMP JUMPDEST PUSH1 0x40 MLOAD DUP1 SWAP2 SUB SWAP1 RETURN JUMPDEST PUSH2 0x7B5 PUSH1 0x4 DUP1 CALLDATASIZE SUB DUP2 ADD SWAP1 PUSH2 0x7B0 SWAP2 SWAP1 PUSH2 0x2FC7 JUMP JUMPDEST PUSH2 0x1738 JUMP JUMPDEST PUSH1 0x40 MLOAD PUSH2 0x7C2 SWAP2 SWAP1 PUSH2 0x3984 JUMP JUMPDEST PUSH1 0x40 MLOAD DUP1 SWAP2 SUB SWAP1 RETURN JUMPDEST PUSH2 0x7E5 PUSH1 0x4 DUP1 CALLDATASIZE SUB DUP2 ADD SWAP1 PUSH2 0x7E0 SWAP2 SWAP1 PUSH2 0x31AB JUMP JUMPDEST PUSH2 0x177B JUMP JUMPDEST PUSH1 0x40 MLOAD PUSH2 0x7F2 SWAP2 SWAP1 PUSH2 0x3984 JUMP JUMPDEST PUSH1 0x40 MLOAD DUP1 SWAP2 SUB SWAP1 RETURN JUMPDEST PUSH2 0x815 PUSH1 0x4 DUP1 CALLDATASIZE SUB DUP2 ADD SWAP1 PUSH2 0x810 SWAP2 SWAP1 PUSH2 0x30C5 JUMP JUMPDEST PUSH2 0x184A JUMP JUMPDEST PUSH1 0x40 MLOAD PUSH2 0x822 SWAP2 SWAP1 PUSH2 0x3984 JUMP JUMPDEST PUSH1 0x40 MLOAD DUP1 SWAP2 SUB SWAP1 RETURN JUMPDEST PUSH2 0x845 PUSH1 0x4 DUP1 CALLDATASIZE SUB DUP2 ADD SWAP1 PUSH2 0x840 SWAP2 SWAP1 PUSH2 0x3117 JUMP JUMPDEST PUSH2 0x1898 JUMP JUMPDEST PUSH1 0x40 MLOAD PUSH2 0x852 SWAP2 SWAP1 PUSH2 0x3984 JUMP JUMPDEST PUSH1 0x40 MLOAD DUP1 SWAP2 SUB SWAP1 RETURN JUMPDEST PUSH2 0x875 PUSH1 0x4 DUP1 CALLDATASIZE SUB DUP2 ADD SWAP1 PUSH2 0x870 SWAP2 SWAP1 PUSH2 0x3182 JUMP JUMPDEST PUSH2 0x18DB JUMP JUMPDEST PUSH1 0x40 MLOAD PUSH2 0x882 SWAP2 SWAP1 PUSH2 0x3984 JUMP JUMPDEST PUSH1 0x40 MLOAD DUP1 SWAP2 SUB SWAP1 RETURN JUMPDEST PUSH2 0x8A5 PUSH1 0x4 DUP1 CALLDATASIZE SUB DUP2 ADD SWAP1 PUSH2 0x8A0 SWAP2 SWAP1 PUSH2 0x31AB JUMP JUMPDEST PUSH2 0x1912 JUMP JUMPDEST PUSH1 0x40 MLOAD PUSH2 0x8B2 SWAP2 SWAP1 PUSH2 0x3984 JUMP JUMPDEST PUSH1 0x40 MLOAD DUP1 SWAP2 SUB SWAP1 RETURN JUMPDEST PUSH2 0x8D5 PUSH1 0x4 DUP1 CALLDATASIZE SUB DUP2 ADD SWAP1 PUSH2 0x8D0 SWAP2 SWAP1 PUSH2 0x2B0B JUMP JUMPDEST PUSH2 0x1949 JUMP JUMPDEST PUSH1 0x40 MLOAD PUSH2 0x8E2 SWAP2 SWAP1 PUSH2 0x3984 JUMP JUMPDEST PUSH1 0x40 MLOAD DUP1 SWAP2 SUB SWAP1 RETURN JUMPDEST PUSH2 0x905 PUSH1 0x4 DUP1 CALLDATASIZE SUB DUP2 ADD SWAP1 PUSH2 0x900 SWAP2 SWAP1 PUSH2 0x2E0B JUMP JUMPDEST PUSH2 0x19D9 JUMP JUMPDEST PUSH1 0x40 MLOAD PUSH2 0x912 SWAP2 SWAP1 PUSH2 0x3984 JUMP JUMPDEST PUSH1 0x40 MLOAD DUP1 SWAP2 SUB SWAP1 RETURN JUMPDEST PUSH1 0x60 DUP2 PUSH1 0x40 MLOAD PUSH1 0x20 ADD PUSH2 0x92E SWAP2 SWAP1 PUSH2 0x3447 JUMP JUMPDEST PUSH1 0x40 MLOAD PUSH1 0x20 DUP2 DUP4 SUB SUB DUP2 MSTORE SWAP1 PUSH1 0x40 MSTORE SWAP1 POP SWAP2 SWAP1 POP JUMP JUMPDEST PUSH1 0x60 DUP1 PUSH2 0x951 DUP4 MLOAD PUSH2 0x177B JUMP JUMPDEST SWAP1 POP PUSH1 0x0 JUMPDEST DUP4 MLOAD DUP2 LT ISZERO PUSH2 0x9AB JUMPI DUP2 PUSH2 0x97C DUP6 DUP4 DUP2 MLOAD DUP2 LT PUSH2 0x96F JUMPI INVALID JUMPDEST PUSH1 0x20 MUL PUSH1 0x20 ADD ADD MLOAD PUSH2 0x11E7 JUMP JUMPDEST PUSH1 0x40 MLOAD PUSH1 0x20 ADD PUSH2 0x98D SWAP3 SWAP2 SWAP1 PUSH2 0x34C0 JUMP JUMPDEST PUSH1 0x40 MLOAD PUSH1 0x20 DUP2 DUP4 SUB SUB DUP2 MSTORE SWAP1 PUSH1 0x40 MSTORE SWAP2 POP DUP1 DUP1 PUSH1 0x1 ADD SWAP2 POP POP PUSH2 0x956 JUMP JUMPDEST POP DUP1 SWAP2 POP POP SWAP2 SWAP1 POP JUMP JUMPDEST PUSH1 0x60 PUSH1 0x0 PUSH2 0x9C6 DUP4 PUSH1 0x0 ADD MLOAD PUSH2 0x18DB JUMP JUMPDEST PUSH2 0x9D3 DUP5 PUSH1 0x20 ADD MLOAD PUSH2 0x18DB JUMP JUMPDEST PUSH2 0x9E0 DUP6 PUSH1 0x40 ADD MLOAD PUSH2 0xE3D JUMP JUMPDEST PUSH2 0x9ED DUP7 PUSH1 0x60 ADD MLOAD PUSH2 0xD01 JUMP JUMPDEST PUSH2 0x9FA DUP8 PUSH1 0x80 ADD MLOAD PUSH2 0x14DA JUMP JUMPDEST PUSH2 0xA07 DUP9 PUSH1 0xA0 ADD MLOAD PUSH2 0x1949 JUMP JUMPDEST PUSH2 0xA17 DUP10 PUSH1 0xC0 ADD MLOAD PUSH1 0x7 SIGNEXTEND PUSH2 0x15F3 JUMP JUMPDEST PUSH2 0xA27 DUP11 PUSH1 0xE0 ADD MLOAD PUSH1 0x7 SIGNEXTEND PUSH2 0x15F3 JUMP JUMPDEST PUSH2 0xA38 DUP12 PUSH2 0x100 ADD MLOAD PUSH1 0x7 SIGNEXTEND PUSH2 0x15F3 JUMP JUMPDEST PUSH1 0x40 MLOAD PUSH1 0x20 ADD PUSH2 0xA50 SWAP10 SWAP9 SWAP8 SWAP7 SWAP6 SWAP5 SWAP4 SWAP3 SWAP2 SWAP1 PUSH2 0x36AD JUMP JUMPDEST PUSH1 0x40 MLOAD PUSH1 0x20 DUP2 DUP4 SUB SUB DUP2 MSTORE SWAP1 PUSH1 0x40 MSTORE SWAP1 POP PUSH1 0x0 PUSH2 0xA71 DUP5 PUSH2 0x120 ADD MLOAD PUSH2 0x15BC JUMP JUMPDEST PUSH2 0xA7F DUP6 PUSH2 0x140 ADD MLOAD PUSH2 0x15BC JUMP JUMPDEST PUSH2 0xA8D DUP7 PUSH2 0x160 ADD MLOAD PUSH2 0x15BC JUMP JUMPDEST PUSH2 0xA9B DUP8 PUSH2 0x180 ADD MLOAD PUSH2 0x15BC JUMP JUMPDEST PUSH2 0xAA9 DUP9 PUSH2 0x1A0 ADD MLOAD PUSH2 0x1949 JUMP JUMPDEST PUSH2 0xAB7 DUP10 PUSH2 0x1C0 ADD MLOAD PUSH2 0x1949 JUMP JUMPDEST PUSH2 0xAC5 DUP11 PUSH2 0x1E0 ADD MLOAD PUSH2 0x1949 JUMP JUMPDEST PUSH2 0xAD3 DUP12 PUSH2 0x200 ADD MLOAD PUSH2 0x1949 JUMP JUMPDEST PUSH2 0xAE1 DUP13 PUSH2 0x220 ADD MLOAD PUSH2 0x1949 JUMP JUMPDEST PUSH2 0xAEF DUP14 PUSH2 0x240 ADD MLOAD PUSH2 0x1949 JUMP JUMPDEST PUSH2 0xAFD DUP15 PUSH2 0x260 ADD MLOAD PUSH2 0x14DA JUMP JUMPDEST PUSH2 0xB0B DUP16 PUSH2 0x280 ADD MLOAD PUSH2 0x1949 JUMP JUMPDEST PUSH1 0x40 MLOAD PUSH1 0x20 ADD PUSH2 0xB26 SWAP13 SWAP12 SWAP11 SWAP10 SWAP9 SWAP8 SWAP7 SWAP6 SWAP5 SWAP4 SWAP3 SWAP2 SWAP1 PUSH2 0x372C JUMP JUMPDEST PUSH1 0x40 MLOAD PUSH1 0x20 DUP2 DUP4 SUB SUB DUP2 MSTORE SWAP1 PUSH1 0x40 MSTORE SWAP1 POP DUP2 DUP2 PUSH1 0x40 MLOAD PUSH1 0x20 ADD PUSH2 0xB4A SWAP3 SWAP2 SWAP1 PUSH2 0x34C0 JUMP JUMPDEST PUSH1 0x40 MLOAD PUSH1 0x20 DUP2 DUP4 SUB SUB DUP2 MSTORE SWAP1 PUSH1 0x40 MSTORE SWAP3 POP POP POP SWAP2 SWAP1 POP JUMP JUMPDEST PUSH1 0x60 PUSH1 0x0 DUP3 MLOAD SWAP1 POP PUSH1 0x0 DUP2 PUSH8 0xFFFFFFFFFFFFFFFF DUP2 GT DUP1 ISZERO PUSH2 0xB83 JUMPI PUSH1 0x0 DUP1 REVERT JUMPDEST POP PUSH1 0x40 MLOAD SWAP1 DUP1 DUP3 MSTORE DUP1 PUSH1 0x1F ADD PUSH1 0x1F NOT AND PUSH1 0x20 ADD DUP3 ADD PUSH1 0x40 MSTORE DUP1 ISZERO PUSH2 0xBB6 JUMPI DUP2 PUSH1 0x20 ADD PUSH1 0x1 DUP3 MUL DUP1 CALLDATASIZE DUP4 CALLDATACOPY DUP1 DUP3 ADD SWAP2 POP POP SWAP1 POP JUMPDEST POP SWAP1 POP PUSH1 0x0 JUMPDEST DUP3 DUP2 LT ISZERO PUSH2 0xC28 JUMPI DUP5 PUSH1 0x1 DUP3 DUP6 SUB SUB DUP2 MLOAD DUP2 LT PUSH2 0xBD5 JUMPI INVALID JUMPDEST PUSH1 0x20 ADD ADD MLOAD PUSH1 0xF8 SHR PUSH1 0xF8 SHL DUP3 DUP3 DUP2 MLOAD DUP2 LT PUSH2 0xBEC JUMPI INVALID JUMPDEST PUSH1 0x20 ADD ADD SWAP1 PUSH31 0xFFFFFFFFFFFFFFFFFFFFFFFFFFFFFFFFFFFFFFFFFFFFFFFFFFFFFFFFFFFFFF NOT AND SWAP1 DUP2 PUSH1 0x0 BYTE SWAP1 MSTORE8 POP DUP1 DUP1 PUSH1 0x1 ADD SWAP2 POP POP PUSH2 0xBBC JUMP JUMPDEST DUP2 SWAP4 POP POP POP POP SWAP2 SWAP1 POP JUMP JUMPDEST PUSH1 0x60 PUSH1 0x0 DUP3 PUSH1 0x40 MLOAD PUSH1 0x20 ADD PUSH2 0xC48 SWAP2 SWAP1 PUSH2 0x38CA JUMP JUMPDEST PUSH1 0x40 MLOAD PUSH1 0x20 DUP2 DUP4 SUB SUB DUP2 MSTORE SWAP1 PUSH1 0x40 MSTORE SWAP1 POP PUSH2 0xC62 DUP2 PUSH2 0xB62 JUMP JUMPDEST SWAP2 POP POP SWAP2 SWAP1 POP JUMP JUMPDEST PUSH1 0x60 PUSH2 0xC79 DUP3 PUSH1 0x40 ADD MLOAD PUSH2 0xE3D JUMP JUMPDEST PUSH2 0xC86 DUP4 PUSH1 0x0 ADD MLOAD PUSH2 0x122A JUMP JUMPDEST PUSH2 0xC93 DUP5 PUSH1 0x20 ADD MLOAD PUSH2 0x122A JUMP JUMPDEST PUSH2 0xCA0 DUP6 PUSH1 0x40 ADD MLOAD PUSH2 0xE3D JUMP JUMPDEST PUSH2 0xCAD DUP7 PUSH1 0x60 ADD MLOAD PUSH2 0x1701 JUMP JUMPDEST PUSH2 0xCBA DUP8 PUSH1 0x80 ADD MLOAD PUSH2 0x167B JUMP JUMPDEST PUSH2 0xCC7 DUP9 PUSH1 0xA0 ADD MLOAD PUSH2 0x167B JUMP JUMPDEST PUSH2 0xCD4 DUP10 PUSH1 0xC0 ADD MLOAD PUSH2 0x167B JUMP JUMPDEST PUSH1 0x40 MLOAD PUSH1 0x20 ADD PUSH2 0xCEB SWAP9 SWAP8 SWAP7 SWAP6 SWAP5 SWAP4 SWAP3 SWAP2 SWAP1 PUSH2 0x363B JUMP JUMPDEST PUSH1 0x40 MLOAD PUSH1 0x20 DUP2 DUP4 SUB SUB DUP2 MSTORE SWAP1 PUSH1 0x40 MSTORE SWAP1 POP SWAP2 SWAP1 POP JUMP JUMPDEST PUSH1 0x60 DUP1 PUSH2 0xD0E DUP4 MLOAD PUSH2 0x177B JUMP JUMPDEST SWAP1 POP PUSH1 0x0 JUMPDEST DUP4 MLOAD DUP2 LT ISZERO PUSH2 0xD7F JUMPI DUP2 DUP5 DUP3 DUP2 MLOAD DUP2 LT PUSH2 0xD29 JUMPI INVALID JUMPDEST PUSH1 0x20 MUL PUSH1 0x20 ADD ADD MLOAD PUSH1 0x40 MLOAD PUSH1 0x20 ADD PUSH2 0xD41 SWAP2 SWAP1 PUSH2 0x385E JUMP JUMPDEST PUSH1 0x40 MLOAD PUSH1 0x20 DUP2 DUP4 SUB SUB DUP2 MSTORE SWAP1 PUSH1 0x40 MSTORE PUSH1 0x40 MLOAD PUSH1 0x20 ADD PUSH2 0xD61 SWAP3 SWAP2 SWAP1 PUSH2 0x34C0 JUMP JUMPDEST PUSH1 0x40 MLOAD PUSH1 0x20 DUP2 DUP4 SUB SUB DUP2 MSTORE SWAP1 PUSH1 0x40 MSTORE SWAP2 POP DUP1 DUP1 PUSH1 0x1 ADD SWAP2 POP POP PUSH2 0xD13 JUMP JUMPDEST POP DUP1 SWAP2 POP POP SWAP2 SWAP1 POP JUMP JUMPDEST PUSH1 0x60 PUSH2 0xD98 DUP3 PUSH1 0x0 ADD MLOAD PUSH2 0x167B JUMP JUMPDEST PUSH2 0xDA5 DUP4 PUSH1 0x20 ADD MLOAD PUSH2 0x1701 JUMP JUMPDEST PUSH1 0x40 MLOAD PUSH1 0x20 ADD PUSH2 0xDB6 SWAP3 SWAP2 SWAP1 PUSH2 0x34C0 JUMP JUMPDEST PUSH1 0x40 MLOAD PUSH1 0x20 DUP2 DUP4 SUB SUB DUP2 MSTORE SWAP1 PUSH1 0x40 MSTORE SWAP1 POP SWAP2 SWAP1 POP JUMP JUMPDEST PUSH1 0x60 DUP1 PUSH2 0xDD9 DUP4 MLOAD PUSH2 0x177B JUMP JUMPDEST SWAP1 POP PUSH1 0x0 JUMPDEST DUP4 MLOAD DUP2 LT ISZERO PUSH2 0xE33 JUMPI DUP2 PUSH2 0xE04 DUP6 DUP4 DUP2 MLOAD DUP2 LT PUSH2 0xDF7 JUMPI INVALID JUMPDEST PUSH1 0x20 MUL PUSH1 0x20 ADD ADD MLOAD PUSH2 0x1898 JUMP JUMPDEST PUSH1 0x40 MLOAD PUSH1 0x20 ADD PUSH2 0xE15 SWAP3 SWAP2 SWAP1 PUSH2 0x34C0 JUMP JUMPDEST PUSH1 0x40 MLOAD PUSH1 0x20 DUP2 DUP4 SUB SUB DUP2 MSTORE SWAP1 PUSH1 0x40 MSTORE SWAP2 POP DUP1 DUP1 PUSH1 0x1 ADD SWAP2 POP POP PUSH2 0xDDE JUMP JUMPDEST POP DUP1 SWAP2 POP POP SWAP2 SWAP1 POP JUMP JUMPDEST PUSH1 0x60 PUSH1 0x0 DUP3 PUSH1 0x40 MLOAD PUSH1 0x20 ADD PUSH2 0xE52 SWAP2 SWAP1 PUSH2 0x342C JUMP JUMPDEST PUSH1 0x40 MLOAD PUSH1 0x20 DUP2 DUP4 SUB SUB DUP2 MSTORE SWAP1 PUSH1 0x40 MSTORE SWAP1 POP DUP1 SWAP2 POP POP SWAP2 SWAP1 POP JUMP JUMPDEST PUSH1 0x60 DUP1 DUP3 ISZERO PUSH2 0xE82 JUMPI PUSH2 0xE7F DUP5 MLOAD PUSH2 0x177B JUMP JUMPDEST SWAP1 POP JUMPDEST PUSH1 0x0 JUMPDEST DUP5 MLOAD DUP2 LT ISZERO PUSH2 0xEDA JUMPI DUP2 PUSH2 0xEAB DUP7 DUP4 DUP2 MLOAD DUP2 LT PUSH2 0xE9E JUMPI INVALID JUMPDEST PUSH1 0x20 MUL PUSH1 0x20 ADD ADD MLOAD PUSH2 0x107D JUMP JUMPDEST PUSH1 0x40 MLOAD PUSH1 0x20 ADD PUSH2 0xEBC SWAP3 SWAP2 SWAP1 PUSH2 0x34C0 JUMP JUMPDEST PUSH1 0x40 MLOAD PUSH1 0x20 DUP2 DUP4 SUB SUB DUP2 MSTORE SWAP1 PUSH1 0x40 MSTORE SWAP2 POP DUP1 DUP1 PUSH1 0x1 ADD SWAP2 POP POP PUSH2 0xE85 JUMP JUMPDEST POP DUP1 SWAP2 POP POP SWAP3 SWAP2 POP POP JUMP JUMPDEST PUSH1 0x60 PUSH2 0xEF4 DUP3 PUSH1 0x0 ADD MLOAD PUSH2 0xE3D JUMP JUMPDEST PUSH2 0xF01 DUP4 PUSH1 0x20 ADD MLOAD PUSH2 0xC6A JUMP JUMPDEST PUSH1 0x40 MLOAD PUSH1 0x20 ADD PUSH2 0xF12 SWAP3 SWAP2 SWAP1 PUSH2 0x34C0 JUMP JUMPDEST PUSH1 0x40 MLOAD PUSH1 0x20 DUP2 DUP4 SUB SUB DUP2 MSTORE SWAP1 PUSH1 0x40 MSTORE SWAP1 POP SWAP2 SWAP1 POP JUMP JUMPDEST PUSH1 0x60 PUSH1 0x0 PUSH2 0xF39 DUP4 PUSH1 0x0 ADD MLOAD PUSH2 0x18DB JUMP JUMPDEST PUSH2 0xF46 DUP5 PUSH1 0x20 ADD MLOAD PUSH2 0x18DB JUMP JUMPDEST PUSH2 0xF53 DUP6 PUSH1 0x40 ADD MLOAD PUSH2 0xE3D JUMP JUMPDEST PUSH2 0xF66 DUP7 PUSH1 0x60 ADD MLOAD PUSH4 0xFFFFFFFF AND PUSH2 0x15F3 JUMP JUMPDEST PUSH2 0xF79 DUP8 PUSH1 0x80 ADD MLOAD PUSH4 0xFFFFFFFF AND PUSH2 0x15F3 JUMP JUMPDEST PUSH2 0xF86 DUP9 PUSH1 0xA0 ADD MLOAD PUSH2 0xE3D JUMP JUMPDEST PUSH2 0xF93 DUP10 PUSH1 0xC0 ADD MLOAD PUSH2 0xE3D JUMP JUMPDEST PUSH1 0x40 MLOAD PUSH1 0x20 ADD PUSH2 0xFA9 SWAP8 SWAP7 SWAP6 SWAP5 SWAP4 SWAP3 SWAP2 SWAP1 PUSH2 0x3560 JUMP JUMPDEST PUSH1 0x40 MLOAD PUSH1 0x20 DUP2 DUP4 SUB SUB DUP2 MSTORE SWAP1 PUSH1 0x40 MSTORE SWAP1 POP PUSH1 0x0 PUSH2 0xFC9 DUP5 PUSH1 0xE0 ADD MLOAD PUSH2 0x1701 JUMP JUMPDEST PUSH2 0xFD7 DUP6 PUSH2 0x100 ADD MLOAD PUSH2 0x1469 JUMP JUMPDEST PUSH2 0xFE5 DUP7 PUSH2 0x120 ADD MLOAD PUSH2 0x1469 JUMP JUMPDEST PUSH2 0xFFB PUSH2 0xFF6 DUP9 PUSH2 0x140 ADD MLOAD PUSH2 0x167B JUMP JUMPDEST PUSH2 0xB62 JUMP JUMPDEST PUSH2 0x1009 DUP9 PUSH2 0x160 ADD MLOAD PUSH2 0x1469 JUMP JUMPDEST PUSH2 0x1017 DUP10 PUSH2 0x180 ADD MLOAD PUSH2 0x184A JUMP JUMPDEST PUSH2 0x1025 DUP11 PUSH2 0x1A0 ADD MLOAD PUSH2 0x19D9 JUMP JUMPDEST PUSH1 0x0 PUSH1 0xF8 SHL PUSH1 0x40 MLOAD PUSH1 0x20 ADD PUSH2 0x1041 SWAP9 SWAP8 SWAP7 SWAP6 SWAP5 SWAP4 SWAP3 SWAP2 SWAP1 PUSH2 0x35C5 JUMP JUMPDEST PUSH1 0x40 MLOAD PUSH1 0x20 DUP2 DUP4 SUB SUB DUP2 MSTORE SWAP1 PUSH1 0x40 MSTORE SWAP1 POP DUP2 DUP2 PUSH1 0x40 MLOAD PUSH1 0x20 ADD PUSH2 0x1065 SWAP3 SWAP2 SWAP1 PUSH2 0x34C0 JUMP JUMPDEST PUSH1 0x40 MLOAD PUSH1 0x20 DUP2 DUP4 SUB SUB DUP2 MSTORE SWAP1 PUSH1 0x40 MSTORE SWAP3 POP POP POP SWAP2 SWAP1 POP JUMP JUMPDEST PUSH1 0x60 PUSH1 0x0 PUSH2 0x1094 DUP4 PUSH1 0x0 ADD MLOAD PUSH4 0xFFFFFFFF AND PUSH2 0x15F3 JUMP JUMPDEST PUSH2 0x10A5 DUP5 PUSH1 0x20 ADD MLOAD PUSH1 0x0 ADD MLOAD PUSH2 0xE3D JUMP JUMPDEST PUSH2 0x10C0 DUP6 PUSH1 0x20 ADD MLOAD PUSH1 0x20 ADD MLOAD PUSH8 0xFFFFFFFFFFFFFFFF AND PUSH2 0x15F3 JUMP JUMPDEST PUSH1 0x40 MLOAD PUSH1 0x20 ADD PUSH2 0x10D1 SWAP3 SWAP2 SWAP1 PUSH2 0x34C0 JUMP JUMPDEST PUSH1 0x40 MLOAD PUSH1 0x20 DUP2 DUP4 SUB SUB DUP2 MSTORE SWAP1 PUSH1 0x40 MSTORE PUSH2 0x10F3 DUP6 PUSH1 0x40 ADD MLOAD PUSH4 0xFFFFFFFF AND PUSH2 0x15F3 JUMP JUMPDEST PUSH2 0x1100 DUP7 PUSH1 0x60 ADD MLOAD PUSH2 0xE3D JUMP JUMPDEST PUSH2 0x110D DUP8 PUSH1 0x80 ADD MLOAD PUSH2 0x15F3 JUMP JUMPDEST PUSH2 0x111A DUP9 PUSH1 0xA0 ADD MLOAD PUSH2 0x184A JUMP JUMPDEST PUSH2 0x1127 DUP10 PUSH1 0xC0 ADD MLOAD PUSH2 0xE3D JUMP JUMPDEST PUSH1 0x40 MLOAD PUSH1 0x20 ADD PUSH2 0x113D SWAP8 SWAP7 SWAP6 SWAP5 SWAP4 SWAP3 SWAP2 SWAP1 PUSH2 0x3560 JUMP JUMPDEST PUSH1 0x40 MLOAD PUSH1 0x20 DUP2 DUP4 SUB SUB DUP2 MSTORE SWAP1 PUSH1 0x40 MSTORE SWAP1 POP PUSH1 0x0 PUSH2 0x400 DUP5 PUSH1 0x40 ADD MLOAD AND PUSH4 0xFFFFFFFF AND GT ISZERO PUSH2 0x1197 JUMPI DUP1 PUSH2 0x1174 DUP5 PUSH2 0x100 ADD MLOAD PUSH2 0xE3D JUMP JUMPDEST PUSH1 0x40 MLOAD PUSH1 0x20 ADD PUSH2 0x1185 SWAP3 SWAP2 SWAP1 PUSH2 0x34C0 JUMP JUMPDEST PUSH1 0x40 MLOAD PUSH1 0x20 DUP2 DUP4 SUB SUB DUP2 MSTORE SWAP1 PUSH1 0x40 MSTORE SWAP1 POP JUMPDEST PUSH1 0x0 PUSH1 0x40 DUP5 PUSH1 0x40 ADD MLOAD AND PUSH4 0xFFFFFFFF AND GT ISZERO PUSH2 0x11DE JUMPI DUP1 PUSH2 0x11BB DUP5 PUSH1 0xE0 ADD MLOAD PUSH2 0xE3D JUMP JUMPDEST PUSH1 0x40 MLOAD PUSH1 0x20 ADD PUSH2 0x11CC SWAP3 SWAP2 SWAP1 PUSH2 0x34C0 JUMP JUMPDEST PUSH1 0x40 MLOAD PUSH1 0x20 DUP2 DUP4 SUB SUB DUP2 MSTORE SWAP1 PUSH1 0x40 MSTORE SWAP1 POP JUMPDEST DUP1 SWAP2 POP POP SWAP2 SWAP1 POP JUMP JUMPDEST PUSH1 0x60 PUSH2 0x11F6 DUP3 PUSH1 0x0 ADD MLOAD PUSH2 0x12C1 JUMP JUMPDEST PUSH2 0x1203 DUP4 PUSH1 0x20 ADD MLOAD PUSH2 0xE3D JUMP JUMPDEST PUSH1 0x40 MLOAD PUSH1 0x20 ADD PUSH2 0x1214 SWAP3 SWAP2 SWAP1 PUSH2 0x34C0 JUMP JUMPDEST PUSH1 0x40 MLOAD PUSH1 0x20 DUP2 DUP4 SUB SUB DUP2 MSTORE SWAP1 PUSH1 0x40 MSTORE SWAP1 POP SWAP2 SWAP1 POP JUMP JUMPDEST PUSH1 0x60 PUSH1 0x0 DUP3 PUSH1 0x40 MLOAD PUSH1 0x20 ADD PUSH2 0x123F SWAP2 SWAP1 PUSH2 0x37F6 JUMP JUMPDEST PUSH1 0x40 MLOAD PUSH1 0x20 DUP2 DUP4 SUB SUB DUP2 MSTORE SWAP1 PUSH1 0x40 MSTORE SWAP1 POP PUSH2 0x1259 DUP2 PUSH2 0xB62 JUMP JUMPDEST SWAP2 POP POP SWAP2 SWAP1 POP JUMP JUMPDEST PUSH1 0x60 DUP2 PUSH1 0x40 MLOAD PUSH1 0x20 ADD PUSH2 0x1274 SWAP2 SWAP1 PUSH2 0x3462 JUMP JUMPDEST PUSH1 0x40 MLOAD PUSH1 0x20 DUP2 DUP4 SUB SUB DUP2 MSTORE SWAP1 PUSH1 0x40 MSTORE SWAP1 POP SWAP2 SWAP1 POP JUMP JUMPDEST PUSH1 0x60 PUSH1 0x0 DUP3 PUSH1 0x40 MLOAD PUSH1 0x20 ADD PUSH2 0x129F SWAP2 SWAP1 PUSH2 0x38E5 JUMP JUMPDEST PUSH1 0x40 MLOAD PUSH1 0x20 DUP2 DUP4 SUB SUB DUP2 MSTORE SWAP1 PUSH1 0x40 MSTORE SWAP1 POP PUSH2 0x12B9 DUP2 PUSH2 0xB62 JUMP JUMPDEST SWAP2 POP POP SWAP2 SWAP1 POP JUMP JUMPDEST PUSH1 0x60 DUP1 DUP3 PUSH1 0x40 MLOAD PUSH1 0x20 ADD PUSH2 0x12D5 SWAP2 SWAP1 PUSH2 0x3847 JUMP JUMPDEST PUSH1 0x40 MLOAD PUSH1 0x20 DUP2 DUP4 SUB SUB DUP2 MSTORE SWAP1 PUSH1 0x40 MSTORE SWAP1 POP PUSH2 0x12F0 DUP2 MLOAD PUSH2 0x177B JUMP JUMPDEST DUP4 PUSH1 0x40 MLOAD PUSH1 0x20 ADD PUSH2 0x1302 SWAP3 SWAP2 SWAP1 PUSH2 0x37D2 JUMP JUMPDEST PUSH1 0x40 MLOAD PUSH1 0x20 DUP2 DUP4 SUB SUB DUP2 MSTORE SWAP1 PUSH1 0x40 MSTORE SWAP2 POP POP SWAP2 SWAP1 POP JUMP JUMPDEST PUSH1 0x60 DUP1 PUSH2 0x1326 DUP4 MLOAD PUSH2 0x177B JUMP JUMPDEST SWAP1 POP PUSH1 0x0 JUMPDEST DUP4 MLOAD DUP2 LT ISZERO PUSH2 0x1380 JUMPI DUP2 PUSH2 0x1351 DUP6 DUP4 DUP2 MLOAD DUP2 LT PUSH2 0x1344 JUMPI INVALID JUMPDEST PUSH1 0x20 MUL PUSH1 0x20 ADD ADD MLOAD PUSH2 0xEE5 JUMP JUMPDEST PUSH1 0x40 MLOAD PUSH1 0x20 ADD PUSH2 0x1362 SWAP3 SWAP2 SWAP1 PUSH2 0x34C0 JUMP JUMPDEST PUSH1 0x40 MLOAD PUSH1 0x20 DUP2 DUP4 SUB SUB DUP2 MSTORE SWAP1 PUSH1 0x40 MSTORE SWAP2 POP DUP1 DUP1 PUSH1 0x1 ADD SWAP2 POP POP PUSH2 0x132B JUMP JUMPDEST POP DUP1 SWAP2 POP POP SWAP2 SWAP1 POP JUMP JUMPDEST PUSH1 0x60 PUSH2 0x139F DUP3 PUSH1 0x0 ADD MLOAD PUSH4 0xFFFFFFFF AND PUSH2 0x15F3 JUMP JUMPDEST PUSH2 0x13B2 DUP4 PUSH1 0x20 ADD MLOAD PUSH4 0xFFFFFFFF AND PUSH2 0x15F3 JUMP JUMPDEST PUSH2 0x13BF DUP5 PUSH1 0x40 ADD MLOAD PUSH2 0x184A JUMP JUMPDEST PUSH2 0x13CC DUP6 PUSH1 0x60 ADD MLOAD PUSH2 0xE3D JUMP JUMPDEST PUSH2 0x13D9 DUP7 PUSH1 0x80 ADD MLOAD PUSH2 0x9B5 JUMP JUMPDEST PUSH2 0x13E6 DUP8 PUSH1 0xA0 ADD MLOAD PUSH2 0x1701 JUMP JUMPDEST PUSH2 0x13F3 DUP9 PUSH1 0xC0 ADD MLOAD PUSH2 0xD89 JUMP JUMPDEST PUSH2 0x1400 DUP10 PUSH1 0xE0 ADD MLOAD PUSH2 0x167B JUMP JUMPDEST PUSH2 0x140E DUP11 PUSH2 0x100 ADD MLOAD PUSH2 0x1701 JUMP JUMPDEST PUSH2 0x141C DUP12 PUSH2 0x120 ADD MLOAD PUSH2 0xDCC JUMP JUMPDEST PUSH2 0x142A DUP13 PUSH2 0x140 ADD MLOAD PUSH2 0x154B JUMP JUMPDEST PUSH2 0x1438 DUP14 PUSH2 0x160 ADD MLOAD PUSH2 0x944 JUMP JUMPDEST PUSH1 0x40 MLOAD PUSH1 0x20 ADD PUSH2 0x1453 SWAP13 SWAP12 SWAP11 SWAP10 SWAP9 SWAP8 SWAP7 SWAP6 SWAP5 SWAP4 SWAP3 SWAP2 SWAP1 PUSH2 0x372C JUMP JUMPDEST PUSH1 0x40 MLOAD PUSH1 0x20 DUP2 DUP4 SUB SUB DUP2 MSTORE SWAP1 PUSH1 0x40 MSTORE SWAP1 POP SWAP2 SWAP1 POP JUMP JUMPDEST PUSH1 0x60 DUP1 PUSH2 0x1476 DUP4 MLOAD PUSH2 0x15F3 JUMP JUMPDEST SWAP1 POP PUSH1 0x0 JUMPDEST DUP4 MLOAD DUP2 LT ISZERO PUSH2 0x14D0 JUMPI DUP2 PUSH2 0x14A1 DUP6 DUP4 DUP2 MLOAD DUP2 LT PUSH2 0x1494 JUMPI INVALID JUMPDEST PUSH1 0x20 MUL PUSH1 0x20 ADD ADD MLOAD PUSH2 0x1738 JUMP JUMPDEST PUSH1 0x40 MLOAD PUSH1 0x20 ADD PUSH2 0x14B2 SWAP3 SWAP2 SWAP1 PUSH2 0x34C0 JUMP JUMPDEST PUSH1 0x40 MLOAD PUSH1 0x20 DUP2 DUP4 SUB SUB DUP2 MSTORE SWAP1 PUSH1 0x40 MSTORE SWAP2 POP DUP1 DUP1 PUSH1 0x1 ADD SWAP2 POP POP PUSH2 0x147B JUMP JUMPDEST POP DUP1 SWAP2 POP POP SWAP2 SWAP1 POP JUMP JUMPDEST PUSH1 0x60 DUP1 PUSH2 0x14E7 DUP4 MLOAD PUSH2 0x177B JUMP JUMPDEST SWAP1 POP PUSH1 0x0 JUMPDEST DUP4 MLOAD DUP2 LT ISZERO PUSH2 0x1541 JUMPI DUP2 PUSH2 0x1512 DUP6 DUP4 DUP2 MLOAD DUP2 LT PUSH2 0x1505 JUMPI INVALID JUMPDEST PUSH1 0x20 MUL PUSH1 0x20 ADD ADD MLOAD PUSH2 0x19D9 JUMP JUMPDEST PUSH1 0x40 MLOAD PUSH1 0x20 ADD PUSH2 0x1523 SWAP3 SWAP2 SWAP1 PUSH2 0x34C0 JUMP JUMPDEST PUSH1 0x40 MLOAD PUSH1 0x20 DUP2 DUP4 SUB SUB DUP2 MSTORE SWAP1 PUSH1 0x40 MSTORE SWAP2 POP DUP1 DUP1 PUSH1 0x1 ADD SWAP2 POP POP PUSH2 0x14EC JUMP JUMPDEST POP DUP1 SWAP2 POP POP SWAP2 SWAP1 POP JUMP JUMPDEST PUSH1 0x60 DUP1 PUSH2 0x1558 DUP4 MLOAD PUSH2 0x177B JUMP JUMPDEST SWAP1 POP PUSH1 0x0 JUMPDEST DUP4 MLOAD DUP2 LT ISZERO PUSH2 0x15B2 JUMPI DUP2 PUSH2 0x1583 DUP6 DUP4 DUP2 MLOAD DUP2 LT PUSH2 0x1576 JUMPI INVALID JUMPDEST PUSH1 0x20 MUL PUSH1 0x20 ADD ADD MLOAD PUSH2 0xC6A JUMP JUMPDEST PUSH1 0x40 MLOAD PUSH1 0x20 ADD PUSH2 0x1594 SWAP3 SWAP2 SWAP1 PUSH2 0x34C0 JUMP JUMPDEST PUSH1 0x40 MLOAD PUSH1 0x20 DUP2 DUP4 SUB SUB DUP2 MSTORE SWAP1 PUSH1 0x40 MSTORE SWAP2 POP DUP1 DUP1 PUSH1 0x1 ADD SWAP2 POP POP PUSH2 0x155D JUMP JUMPDEST POP DUP1 SWAP2 POP POP SWAP2 SWAP1 POP JUMP JUMPDEST PUSH1 0x60 PUSH1 0x0 DUP3 PUSH1 0x40 MLOAD PUSH1 0x20 ADD PUSH2 0x15D1 SWAP2 SWAP1 PUSH2 0x382C JUMP JUMPDEST PUSH1 0x40 MLOAD PUSH1 0x20 DUP2 DUP4 SUB SUB DUP2 MSTORE SWAP1 PUSH1 0x40 MSTORE SWAP1 POP PUSH2 0x15EB DUP2 PUSH2 0xB62 JUMP JUMPDEST SWAP2 POP POP SWAP2 SWAP1 POP JUMP JUMPDEST PUSH1 0x60 PUSH1 0x0 PUSH1 0x60 PUSH1 0x0 JUMPDEST PUSH1 0x1 ISZERO PUSH2 0x1668 JUMPI PUSH1 0x0 DUP2 EQ ISZERO PUSH2 0x1613 JUMPI PUSH1 0x0 PUSH2 0x1616 JUMP JUMPDEST PUSH1 0x80 JUMPDEST PUSH1 0x7F DUP7 AND OR PUSH1 0xF8 SHL SWAP3 POP DUP2 DUP4 PUSH1 0x40 MLOAD PUSH1 0x20 ADD PUSH2 0x1633 SWAP3 SWAP2 SWAP1 PUSH2 0x3498 JUMP JUMPDEST PUSH1 0x40 MLOAD PUSH1 0x20 DUP2 DUP4 SUB SUB DUP2 MSTORE SWAP1 PUSH1 0x40 MSTORE SWAP2 POP PUSH1 0x7F DUP6 GT PUSH2 0x1651 JUMPI PUSH2 0x1668 JUMP JUMPDEST PUSH1 0x1 PUSH1 0x7 DUP7 SWAP1 SHR SUB SWAP5 POP DUP1 DUP1 PUSH1 0x1 ADD SWAP2 POP POP PUSH2 0x15FC JUMP JUMPDEST PUSH2 0x1671 DUP3 PUSH2 0xB62 JUMP JUMPDEST SWAP4 POP POP POP POP SWAP2 SWAP1 POP JUMP JUMPDEST PUSH1 0x60 PUSH2 0x16A5 DUP3 PUSH1 0x40 MLOAD PUSH1 0x20 ADD PUSH2 0x1691 SWAP2 SWAP1 PUSH2 0x347D JUMP JUMPDEST PUSH1 0x40 MLOAD PUSH1 0x20 DUP2 DUP4 SUB SUB DUP2 MSTORE SWAP1 PUSH1 0x40 MSTORE PUSH2 0xB62 JUMP JUMPDEST SWAP1 POP SWAP2 SWAP1 POP JUMP JUMPDEST PUSH1 0x60 PUSH2 0x16B7 DUP7 PUSH2 0x12C1 JUMP JUMPDEST PUSH2 0x16C0 DUP7 PUSH2 0xE3D JUMP JUMPDEST PUSH2 0x16C9 DUP7 PUSH2 0x15BC JUMP JUMPDEST PUSH2 0x16D2 DUP7 PUSH2 0xE3D JUMP JUMPDEST DUP6 PUSH1 0x40 MLOAD PUSH1 0x20 ADD PUSH2 0x16E7 SWAP6 SWAP5 SWAP4 SWAP3 SWAP2 SWAP1 PUSH2 0x3515 JUMP JUMPDEST PUSH1 0x40 MLOAD PUSH1 0x20 DUP2 DUP4 SUB SUB DUP2 MSTORE SWAP1 PUSH1 0x40 MSTORE SWAP1 POP SWAP6 SWAP5 POP POP POP POP POP JUMP JUMPDEST PUSH1 0x60 PUSH1 0x0 DUP3 PUSH1 0x40 MLOAD PUSH1 0x20 ADD PUSH2 0x1716 SWAP2 SWAP1 PUSH2 0x38AF JUMP JUMPDEST PUSH1 0x40 MLOAD PUSH1 0x20 DUP2 DUP4 SUB SUB DUP2 MSTORE SWAP1 PUSH1 0x40 MSTORE SWAP1 POP PUSH2 0x1730 DUP2 PUSH2 0xB62 JUMP JUMPDEST SWAP2 POP POP SWAP2 SWAP1 POP JUMP JUMPDEST PUSH1 0x60 PUSH2 0x1747 DUP3 PUSH1 0x0 ADD MLOAD PUSH2 0xE3D JUMP JUMPDEST PUSH2 0x1754 DUP4 PUSH1 0x20 ADD MLOAD PUSH2 0xC33 JUMP JUMPDEST PUSH1 0x40 MLOAD PUSH1 0x20 ADD PUSH2 0x1765 SWAP3 SWAP2 SWAP1 PUSH2 0x34C0 JUMP JUMPDEST PUSH1 0x40 MLOAD PUSH1 0x20 DUP2 DUP4 SUB SUB DUP2 MSTORE SWAP1 PUSH1 0x40 MSTORE SWAP1 POP SWAP2 SWAP1 POP JUMP JUMPDEST PUSH1 0x60 DUP1 PUSH1 0xFD PUSH1 0xFF AND DUP4 LT ISZERO PUSH2 0x17B1 JUMPI DUP3 PUSH1 0x40 MLOAD PUSH1 0x20 ADD PUSH2 0x179B SWAP2 SWAP1 PUSH2 0x38E5 JUMP JUMPDEST PUSH1 0x40 MLOAD PUSH1 0x20 DUP2 DUP4 SUB SUB DUP2 MSTORE SWAP1 PUSH1 0x40 MSTORE SWAP1 POP PUSH2 0x1841 JUMP JUMPDEST PUSH2 0xFFFF DUP4 GT PUSH2 0x17E4 JUMPI PUSH1 0xFD DUP4 PUSH1 0x40 MLOAD PUSH1 0x20 ADD PUSH2 0x17CE SWAP3 SWAP2 SWAP1 PUSH2 0x3900 JUMP JUMPDEST PUSH1 0x40 MLOAD PUSH1 0x20 DUP2 DUP4 SUB SUB DUP2 MSTORE SWAP1 PUSH1 0x40 MSTORE SWAP1 POP PUSH2 0x1840 JUMP JUMPDEST PUSH4 0xFFFFFFFF DUP4 GT PUSH2 0x1819 JUMPI PUSH1 0xFE DUP4 PUSH1 0x40 MLOAD PUSH1 0x20 ADD PUSH2 0x1803 SWAP3 SWAP2 SWAP1 PUSH2 0x392C JUMP JUMPDEST PUSH1 0x40 MLOAD PUSH1 0x20 DUP2 DUP4 SUB SUB DUP2 MSTORE SWAP1 PUSH1 0x40 MSTORE SWAP1 POP PUSH2 0x183F JUMP JUMPDEST PUSH1 0xFF DUP4 PUSH1 0x40 MLOAD PUSH1 0x20 ADD PUSH2 0x182D SWAP3 SWAP2 SWAP1 PUSH2 0x3958 JUMP JUMPDEST PUSH1 0x40 MLOAD PUSH1 0x20 DUP2 DUP4 SUB SUB DUP2 MSTORE SWAP1 PUSH1 0x40 MSTORE SWAP1 POP JUMPDEST JUMPDEST JUMPDEST DUP1 SWAP2 POP POP SWAP2 SWAP1 POP JUMP JUMPDEST PUSH1 0x60 PUSH2 0x1859 DUP3 PUSH1 0x0 ADD MLOAD PUSH2 0x128A JUMP JUMPDEST PUSH2 0x1863 PUSH1 0x14 PUSH2 0x177B JUMP JUMPDEST PUSH2 0x1870 DUP5 PUSH1 0x20 ADD MLOAD PUSH2 0xE3D JUMP JUMPDEST PUSH1 0x40 MLOAD PUSH1 0x20 ADD PUSH2 0x1882 SWAP4 SWAP3 SWAP2 SWAP1 PUSH2 0x34E4 JUMP JUMPDEST PUSH1 0x40 MLOAD PUSH1 0x20 DUP2 DUP4 SUB SUB DUP2 MSTORE SWAP1 PUSH1 0x40 MSTORE SWAP1 POP SWAP2 SWAP1 POP JUMP JUMPDEST PUSH1 0x60 PUSH2 0x18A7 DUP3 PUSH1 0x0 ADD MLOAD PUSH2 0xE3D JUMP JUMPDEST PUSH2 0x18B4 DUP4 PUSH1 0x20 ADD MLOAD PUSH2 0x9B5 JUMP JUMPDEST PUSH1 0x40 MLOAD PUSH1 0x20 ADD PUSH2 0x18C5 SWAP3 SWAP2 SWAP1 PUSH2 0x34C0 JUMP JUMPDEST PUSH1 0x40 MLOAD PUSH1 0x20 DUP2 DUP4 SUB SUB DUP2 MSTORE SWAP1 PUSH1 0x40 MSTORE SWAP1 POP SWAP2 SWAP1 POP JUMP JUMPDEST PUSH1 0x60 PUSH1 0x0 DUP3 PUSH1 0x40 MLOAD PUSH1 0x20 ADD PUSH2 0x18F0 SWAP2 SWAP1 PUSH2 0x3879 JUMP JUMPDEST PUSH1 0x40 MLOAD PUSH1 0x20 DUP2 DUP4 SUB SUB DUP2 MSTORE SWAP1 PUSH1 0x40 MSTORE SWAP1 POP PUSH2 0x190A DUP2 PUSH2 0xB62 JUMP JUMPDEST SWAP2 POP POP SWAP2 SWAP1 POP JUMP JUMPDEST PUSH1 0x60 PUSH1 0x0 DUP3 PUSH1 0x40 MLOAD PUSH1 0x20 ADD PUSH2 0x1927 SWAP2 SWAP1 PUSH2 0x3894 JUMP JUMPDEST PUSH1 0x40 MLOAD PUSH1 0x20 DUP2 DUP4 SUB SUB DUP2 MSTORE SWAP1 PUSH1 0x40 MSTORE SWAP1 POP PUSH2 0x1941 DUP2 PUSH2 0xB62 JUMP JUMPDEST SWAP2 POP POP SWAP2 SWAP1 POP JUMP JUMPDEST PUSH1 0x60 DUP1 PUSH2 0x1956 DUP4 MLOAD PUSH2 0x177B JUMP JUMPDEST SWAP1 POP PUSH1 0x0 JUMPDEST DUP4 MLOAD DUP2 LT ISZERO PUSH2 0x19CF JUMPI DUP2 PUSH2 0x19A0 DUP6 DUP4 DUP2 MLOAD DUP2 LT PUSH2 0x1974 JUMPI INVALID JUMPDEST PUSH1 0x20 MUL PUSH1 0x20 ADD ADD MLOAD PUSH1 0x40 MLOAD PUSH1 0x20 ADD PUSH2 0x198C SWAP2 SWAP1 PUSH2 0x382C JUMP JUMPDEST PUSH1 0x40 MLOAD PUSH1 0x20 DUP2 DUP4 SUB SUB DUP2 MSTORE SWAP1 PUSH1 0x40 MSTORE PUSH2 0xB62 JUMP JUMPDEST PUSH1 0x40 MLOAD PUSH1 0x20 ADD PUSH2 0x19B1 SWAP3 SWAP2 SWAP1 PUSH2 0x34C0 JUMP JUMPDEST PUSH1 0x40 MLOAD PUSH1 0x20 DUP2 DUP4 SUB SUB DUP2 MSTORE SWAP1 PUSH1 0x40 MSTORE SWAP2 POP DUP1 DUP1 PUSH1 0x1 ADD SWAP2 POP POP PUSH2 0x195B JUMP JUMPDEST POP DUP1 SWAP2 POP POP SWAP2 SWAP1 POP JUMP JUMPDEST PUSH1 0x60 PUSH1 0x0 DUP3 PUSH1 0x40 MLOAD PUSH1 0x20 ADD PUSH2 0x19EE SWAP2 SWAP1 PUSH2 0x3811 JUMP JUMPDEST PUSH1 0x40 MLOAD PUSH1 0x20 DUP2 DUP4 SUB SUB DUP2 MSTORE SWAP1 PUSH1 0x40 MSTORE SWAP1 POP PUSH2 0x1A08 DUP2 PUSH2 0xB62 JUMP JUMPDEST SWAP2 POP POP SWAP2 SWAP1 POP JUMP JUMPDEST PUSH1 0x0 PUSH2 0x1A23 PUSH2 0x1A1E DUP5 PUSH2 0x39D7 JUMP JUMPDEST PUSH2 0x39A6 JUMP JUMPDEST SWAP1 POP DUP1 DUP4 DUP3 MSTORE PUSH1 0x20 DUP3 ADD SWAP1 POP DUP3 DUP6 PUSH1 0x20 DUP7 MUL DUP3 ADD GT ISZERO PUSH2 0x1A42 JUMPI PUSH1 0x0 DUP1 REVERT JUMPDEST PUSH1 0x0 JUMPDEST DUP6 DUP2 LT ISZERO PUSH2 0x1A72 JUMPI DUP2 PUSH2 0x1A58 DUP9 DUP3 PUSH2 0x204B JUMP JUMPDEST DUP5 MSTORE PUSH1 0x20 DUP5 ADD SWAP4 POP PUSH1 0x20 DUP4 ADD SWAP3 POP POP PUSH1 0x1 DUP2 ADD SWAP1 POP PUSH2 0x1A45 JUMP JUMPDEST POP POP POP SWAP4 SWAP3 POP POP POP JUMP JUMPDEST PUSH1 0x0 PUSH2 0x1A8F PUSH2 0x1A8A DUP5 PUSH2 0x3A03 JUMP JUMPDEST PUSH2 0x39A6 JUMP JUMPDEST SWAP1 POP DUP1 DUP4 DUP3 MSTORE PUSH1 0x20 DUP3 ADD SWAP1 POP DUP3 DUP6 PUSH1 0x20 DUP7 MUL DUP3 ADD GT ISZERO PUSH2 0x1AAE JUMPI PUSH1 0x0 DUP1 REVERT JUMPDEST PUSH1 0x0 JUMPDEST DUP6 DUP2 LT ISZERO PUSH2 0x1ADE JUMPI DUP2 PUSH2 0x1AC4 DUP9 DUP3 PUSH2 0x2060 JUMP JUMPDEST DUP5 MSTORE PUSH1 0x20 DUP5 ADD SWAP4 POP PUSH1 0x20 DUP4 ADD SWAP3 POP POP PUSH1 0x1 DUP2 ADD SWAP1 POP PUSH2 0x1AB1 JUMP JUMPDEST POP POP POP SWAP4 SWAP3 POP POP POP JUMP JUMPDEST PUSH1 0x0 PUSH2 0x1AFB PUSH2 0x1AF6 DUP5 PUSH2 0x3A2F JUMP JUMPDEST PUSH2 0x39A6 JUMP JUMPDEST SWAP1 POP DUP1 DUP4 DUP3 MSTORE PUSH1 0x20 DUP3 ADD SWAP1 POP DUP3 DUP6 PUSH1 0x40 DUP7 MUL DUP3 ADD GT ISZERO PUSH2 0x1B1A JUMPI PUSH1 0x0 DUP1 REVERT JUMPDEST PUSH1 0x0 JUMPDEST DUP6 DUP2 LT ISZERO PUSH2 0x1B4A JUMPI DUP2 PUSH2 0x1B30 DUP9 DUP3 PUSH2 0x251D JUMP JUMPDEST DUP5 MSTORE PUSH1 0x20 DUP5 ADD SWAP4 POP PUSH1 0x40 DUP4 ADD SWAP3 POP POP PUSH1 0x1 DUP2 ADD SWAP1 POP PUSH2 0x1B1D JUMP JUMPDEST POP POP POP SWAP4 SWAP3 POP POP POP JUMP JUMPDEST PUSH1 0x0 PUSH2 0x1B67 PUSH2 0x1B62 DUP5 PUSH2 0x3A5B JUMP JUMPDEST PUSH2 0x39A6 JUMP JUMPDEST SWAP1 POP DUP1 DUP4 DUP3 MSTORE PUSH1 0x20 DUP3 ADD SWAP1 POP DUP3 PUSH1 0x0 JUMPDEST DUP6 DUP2 LT ISZERO PUSH2 0x1BA7 JUMPI DUP2 CALLDATALOAD DUP6 ADD PUSH2 0x1B8D DUP9 DUP3 PUSH2 0x2569 JUMP JUMPDEST DUP5 MSTORE PUSH1 0x20 DUP5 ADD SWAP4 POP PUSH1 0x20 DUP4 ADD SWAP3 POP POP PUSH1 0x1 DUP2 ADD SWAP1 POP PUSH2 0x1B77 JUMP JUMPDEST POP POP POP SWAP4 SWAP3 POP POP POP JUMP JUMPDEST PUSH1 0x0 PUSH2 0x1BC4 PUSH2 0x1BBF DUP5 PUSH2 0x3A87 JUMP JUMPDEST PUSH2 0x39A6 JUMP JUMPDEST SWAP1 POP DUP1 DUP4 DUP3 MSTORE PUSH1 0x20 DUP3 ADD SWAP1 POP DUP3 DUP6 PUSH1 0xE0 DUP7 MUL DUP3 ADD GT ISZERO PUSH2 0x1BE3 JUMPI PUSH1 0x0 DUP1 REVERT JUMPDEST PUSH1 0x0 JUMPDEST DUP6 DUP2 LT ISZERO PUSH2 0x1C13 JUMPI DUP2 PUSH2 0x1BF9 DUP9 DUP3 PUSH2 0x274C JUMP JUMPDEST DUP5 MSTORE PUSH1 0x20 DUP5 ADD SWAP4 POP PUSH1 0xE0 DUP4 ADD SWAP3 POP POP PUSH1 0x1 DUP2 ADD SWAP1 POP PUSH2 0x1BE6 JUMP JUMPDEST POP POP POP SWAP4 SWAP3 POP POP POP JUMP JUMPDEST PUSH1 0x0 PUSH2 0x1C30 PUSH2 0x1C2B DUP5 PUSH2 0x3AB3 JUMP JUMPDEST PUSH2 0x39A6 JUMP JUMPDEST SWAP1 POP DUP1 DUP4 DUP3 MSTORE PUSH1 0x20 DUP3 ADD SWAP1 POP DUP3 DUP6 PUSH2 0x160 DUP7 MUL DUP3 ADD GT ISZERO PUSH2 0x1C50 JUMPI PUSH1 0x0 DUP1 REVERT JUMPDEST PUSH1 0x0 JUMPDEST DUP6 DUP2 LT ISZERO PUSH2 0x1C81 JUMPI DUP2 PUSH2 0x1C66 DUP9 DUP3 PUSH2 0x27FC JUMP JUMPDEST DUP5 MSTORE PUSH1 0x20 DUP5 ADD SWAP4 POP PUSH2 0x160 DUP4 ADD SWAP3 POP POP PUSH1 0x1 DUP2 ADD SWAP1 POP PUSH2 0x1C53 JUMP JUMPDEST POP POP POP SWAP4 SWAP3 POP POP POP JUMP JUMPDEST PUSH1 0x0 PUSH2 0x1C9E PUSH2 0x1C99 DUP5 PUSH2 0x3ADF JUMP JUMPDEST PUSH2 0x39A6 JUMP JUMPDEST SWAP1 POP DUP1 DUP4 DUP3 MSTORE PUSH1 0x20 DUP3 ADD SWAP1 POP DUP3 PUSH1 0x0 JUMPDEST DUP6 DUP2 LT ISZERO PUSH2 0x1CDE JUMPI DUP2 CALLDATALOAD DUP6 ADD PUSH2 0x1CC4 DUP9 DUP3 PUSH2 0x2972 JUMP JUMPDEST DUP5 MSTORE PUSH1 0x20 DUP5 ADD SWAP4 POP PUSH1 0x20 DUP4 ADD SWAP3 POP POP PUSH1 0x1 DUP2 ADD SWAP1 POP PUSH2 0x1CAE JUMP JUMPDEST POP POP POP SWAP4 SWAP3 POP POP POP JUMP JUMPDEST PUSH1 0x0 PUSH2 0x1CFB PUSH2 0x1CF6 DUP5 PUSH2 0x3B0B JUMP JUMPDEST PUSH2 0x39A6 JUMP JUMPDEST SWAP1 POP DUP1 DUP4 DUP3 MSTORE PUSH1 0x20 DUP3 ADD SWAP1 POP DUP3 DUP6 PUSH2 0x100 DUP7 MUL DUP3 ADD GT ISZERO PUSH2 0x1D1B JUMPI PUSH1 0x0 DUP1 REVERT JUMPDEST PUSH1 0x0 JUMPDEST DUP6 DUP2 LT ISZERO PUSH2 0x1D4C JUMPI DUP2 PUSH2 0x1D31 DUP9 DUP3 PUSH2 0x29D6 JUMP JUMPDEST DUP5 MSTORE PUSH1 0x20 DUP5 ADD SWAP4 POP PUSH2 0x100 DUP4 ADD SWAP3 POP POP PUSH1 0x1 DUP2 ADD SWAP1 POP PUSH2 0x1D1E JUMP JUMPDEST POP POP POP SWAP4 SWAP3 POP POP POP JUMP JUMPDEST PUSH1 0x0 PUSH2 0x1D69 PUSH2 0x1D64 DUP5 PUSH2 0x3B37 JUMP JUMPDEST PUSH2 0x39A6 JUMP JUMPDEST SWAP1 POP DUP1 DUP4 DUP3 MSTORE PUSH1 0x20 DUP3 ADD SWAP1 POP DUP3 DUP6 PUSH1 0x20 DUP7 MUL DUP3 ADD GT ISZERO PUSH2 0x1D88 JUMPI PUSH1 0x0 DUP1 REVERT JUMPDEST PUSH1 0x0 JUMPDEST DUP6 DUP2 LT ISZERO PUSH2 0x1DB8 JUMPI DUP2 PUSH2 0x1D9E DUP9 DUP3 PUSH2 0x2A38 JUMP JUMPDEST DUP5 MSTORE PUSH1 0x20 DUP5 ADD SWAP4 POP PUSH1 0x20 DUP4 ADD SWAP3 POP POP PUSH1 0x1 DUP2 ADD SWAP1 POP PUSH2 0x1D8B JUMP JUMPDEST POP POP POP SWAP4 SWAP3 POP POP POP JUMP JUMPDEST PUSH1 0x0 PUSH2 0x1DD5 PUSH2 0x1DD0 DUP5 PUSH2 0x3B63 JUMP JUMPDEST PUSH2 0x39A6 JUMP JUMPDEST SWAP1 POP DUP3 DUP2 MSTORE PUSH1 0x20 DUP2 ADD DUP5 DUP5 DUP5 ADD GT ISZERO PUSH2 0x1DED JUMPI PUSH1 0x0 DUP1 REVERT JUMPDEST PUSH2 0x1DF8 DUP5 DUP3 DUP6 PUSH2 0x3D10 JUMP JUMPDEST POP SWAP4 SWAP3 POP POP POP JUMP JUMPDEST PUSH1 0x0 PUSH2 0x1E13 PUSH2 0x1E0E DUP5 PUSH2 0x3B93 JUMP JUMPDEST PUSH2 0x39A6 JUMP JUMPDEST SWAP1 POP DUP3 DUP2 MSTORE PUSH1 0x20 DUP2 ADD DUP5 DUP5 DUP5 ADD GT ISZERO PUSH2 0x1E2B JUMPI PUSH1 0x0 DUP1 REVERT JUMPDEST PUSH2 0x1E36 DUP5 DUP3 DUP6 PUSH2 0x3D10 JUMP JUMPDEST POP SWAP4 SWAP3 POP POP POP JUMP JUMPDEST PUSH1 0x0 DUP2 CALLDATALOAD SWAP1 POP PUSH2 0x1E4D DUP2 PUSH2 0x3E82 JUMP JUMPDEST SWAP3 SWAP2 POP POP JUMP JUMPDEST PUSH1 0x0 DUP3 PUSH1 0x1F DUP4 ADD SLT PUSH2 0x1E64 JUMPI PUSH1 0x0 DUP1 REVERT JUMPDEST DUP2 CALLDATALOAD PUSH2 0x1E74 DUP5 DUP3 PUSH1 0x20 DUP7 ADD PUSH2 0x1A10 JUMP JUMPDEST SWAP2 POP POP SWAP3 SWAP2 POP POP JUMP JUMPDEST PUSH1 0x0 DUP3 PUSH1 0x1F DUP4 ADD SLT PUSH2 0x1E8E JUMPI PUSH1 0x0 DUP1 REVERT JUMPDEST DUP2 CALLDATALOAD PUSH2 0x1E9E DUP5 DUP3 PUSH1 0x20 DUP7 ADD PUSH2 0x1A7C JUMP JUMPDEST SWAP2 POP POP SWAP3 SWAP2 POP POP JUMP JUMPDEST PUSH1 0x0 DUP3 PUSH1 0x1F DUP4 ADD SLT PUSH2 0x1EB8 JUMPI PUSH1 0x0 DUP1 REVERT JUMPDEST DUP2 CALLDATALOAD PUSH2 0x1EC8 DUP5 DUP3 PUSH1 0x20 DUP7 ADD PUSH2 0x1AE8 JUMP JUMPDEST SWAP2 POP POP SWAP3 SWAP2 POP POP JUMP JUMPDEST PUSH1 0x0 DUP3 PUSH1 0x1F DUP4 ADD SLT PUSH2 0x1EE2 JUMPI PUSH1 0x0 DUP1 REVERT JUMPDEST DUP2 CALLDATALOAD PUSH2 0x1EF2 DUP5 DUP3 PUSH1 0x20 DUP7 ADD PUSH2 0x1B54 JUMP JUMPDEST SWAP2 POP POP SWAP3 SWAP2 POP POP JUMP JUMPDEST PUSH1 0x0 DUP3 PUSH1 0x1F DUP4 ADD SLT PUSH2 0x1F0C JUMPI PUSH1 0x0 DUP1 REVERT JUMPDEST DUP2 CALLDATALOAD PUSH2 0x1F1C DUP5 DUP3 PUSH1 0x20 DUP7 ADD PUSH2 0x1BB1 JUMP JUMPDEST SWAP2 POP POP SWAP3 SWAP2 POP POP JUMP JUMPDEST PUSH1 0x0 DUP3 PUSH1 0x1F DUP4 ADD SLT PUSH2 0x1F36 JUMPI PUSH1 0x0 DUP1 REVERT JUMPDEST DUP2 CALLDATALOAD PUSH2 0x1F46 DUP5 DUP3 PUSH1 0x20 DUP7 ADD PUSH2 0x1C1D JUMP JUMPDEST SWAP2 POP POP SWAP3 SWAP2 POP POP JUMP JUMPDEST PUSH1 0x0 DUP3 PUSH1 0x1F DUP4 ADD SLT PUSH2 0x1F60 JUMPI PUSH1 0x0 DUP1 REVERT JUMPDEST DUP2 CALLDATALOAD PUSH2 0x1F70 DUP5 DUP3 PUSH1 0x20 DUP7 ADD PUSH2 0x1C8B JUMP JUMPDEST SWAP2 POP POP SWAP3 SWAP2 POP POP JUMP JUMPDEST PUSH1 0x0 DUP3 PUSH1 0x1F DUP4 ADD SLT PUSH2 0x1F8A JUMPI PUSH1 0x0 DUP1 REVERT JUMPDEST DUP2 CALLDATALOAD PUSH2 0x1F9A DUP5 DUP3 PUSH1 0x20 DUP7 ADD PUSH2 0x1CE8 JUMP JUMPDEST SWAP2 POP POP SWAP3 SWAP2 POP POP JUMP JUMPDEST PUSH1 0x0 DUP3 PUSH1 0x1F DUP4 ADD SLT PUSH2 0x1FB4 JUMPI PUSH1 0x0 DUP1 REVERT JUMPDEST DUP2 CALLDATALOAD PUSH2 0x1FC4 DUP5 DUP3 PUSH1 0x20 DUP7 ADD PUSH2 0x1D56 JUMP JUMPDEST SWAP2 POP POP SWAP3 SWAP2 POP POP JUMP JUMPDEST PUSH1 0x0 DUP2 CALLDATALOAD SWAP1 POP PUSH2 0x1FDC DUP2 PUSH2 0x3E99 JUMP JUMPDEST SWAP3 SWAP2 POP POP JUMP JUMPDEST PUSH1 0x0 DUP2 CALLDATALOAD SWAP1 POP PUSH2 0x1FF1 DUP2 PUSH2 0x3EB0 JUMP JUMPDEST SWAP3 SWAP2 POP POP JUMP JUMPDEST PUSH1 0x0 DUP2 CALLDATALOAD SWAP1 POP PUSH2 0x2006 DUP2 PUSH2 0x3EC7 JUMP JUMPDEST SWAP3 SWAP2 POP POP JUMP JUMPDEST PUSH1 0x0 DUP3 PUSH1 0x1F DUP4 ADD SLT PUSH2 0x201D JUMPI PUSH1 0x0 DUP1 REVERT JUMPDEST DUP2 CALLDATALOAD PUSH2 0x202D DUP5 DUP3 PUSH1 0x20 DUP7 ADD PUSH2 0x1DC2 JUMP JUMPDEST SWAP2 POP POP SWAP3 SWAP2 POP POP JUMP JUMPDEST PUSH1 0x0 DUP2 CALLDATALOAD SWAP1 POP PUSH2 0x2045 DUP2 PUSH2 0x3EDE JUMP JUMPDEST SWAP3 SWAP2 POP POP JUMP JUMPDEST PUSH1 0x0 DUP2 CALLDATALOAD SWAP1 POP PUSH2 0x205A DUP2 PUSH2 0x3EF5 JUMP JUMPDEST SWAP3 SWAP2 POP POP JUMP JUMPDEST PUSH1 0x0 DUP2 CALLDATALOAD SWAP1 POP PUSH2 0x206F DUP2 PUSH2 0x3F0C JUMP JUMPDEST SWAP3 SWAP2 POP POP JUMP JUMPDEST PUSH1 0x0 DUP3 PUSH1 0x1F DUP4 ADD SLT PUSH2 0x2086 JUMPI PUSH1 0x0 DUP1 REVERT JUMPDEST DUP2 CALLDATALOAD PUSH2 0x2096 DUP5 DUP3 PUSH1 0x20 DUP7 ADD PUSH2 0x1E00 JUMP JUMPDEST SWAP2 POP POP SWAP3 SWAP2 POP POP JUMP JUMPDEST PUSH1 0x0 PUSH2 0x2A0 DUP3 DUP5 SUB SLT ISZERO PUSH2 0x20B2 JUMPI PUSH1 0x0 DUP1 REVERT JUMPDEST PUSH2 0x20BD PUSH2 0x2A0 PUSH2 0x39A6 JUMP JUMPDEST SWAP1 POP PUSH1 0x0 PUSH2 0x20CD DUP5 DUP3 DUP6 ADD PUSH2 0x2A23 JUMP JUMPDEST PUSH1 0x0 DUP4 ADD MSTORE POP PUSH1 0x20 PUSH2 0x20E1 DUP5 DUP3 DUP6 ADD PUSH2 0x2A23 JUMP JUMPDEST PUSH1 0x20 DUP4 ADD MSTORE POP PUSH1 0x40 PUSH2 0x20F5 DUP5 DUP3 DUP6 ADD PUSH2 0x1E3E JUMP JUMPDEST PUSH1 0x40 DUP4 ADD MSTORE POP PUSH1 0x60 DUP3 ADD CALLDATALOAD PUSH8 0xFFFFFFFFFFFFFFFF DUP2 GT ISZERO PUSH2 0x2115 JUMPI PUSH1 0x0 DUP1 REVERT JUMPDEST PUSH2 0x2121 DUP5 DUP3 DUP6 ADD PUSH2 0x1FA3 JUMP JUMPDEST PUSH1 0x60 DUP4 ADD MSTORE POP PUSH1 0x80 DUP3 ADD CALLDATALOAD PUSH8 0xFFFFFFFFFFFFFFFF DUP2 GT ISZERO PUSH2 0x2141 JUMPI PUSH1 0x0 DUP1 REVERT JUMPDEST PUSH2 0x214D DUP5 DUP3 DUP6 ADD PUSH2 0x1E53 JUMP JUMPDEST PUSH1 0x80 DUP4 ADD MSTORE POP PUSH1 0xA0 DUP3 ADD CALLDATALOAD PUSH8 0xFFFFFFFFFFFFFFFF DUP2 GT ISZERO PUSH2 0x216D JUMPI PUSH1 0x0 DUP1 REVERT JUMPDEST PUSH2 0x2179 DUP5 DUP3 DUP6 ADD PUSH2 0x1E7D JUMP JUMPDEST PUSH1 0xA0 DUP4 ADD MSTORE POP PUSH1 0xC0 PUSH2 0x218D DUP5 DUP3 DUP6 ADD PUSH2 0x2060 JUMP JUMPDEST PUSH1 0xC0 DUP4 ADD MSTORE POP PUSH1 0xE0 PUSH2 0x21A1 DUP5 DUP3 DUP6 ADD PUSH2 0x2060 JUMP JUMPDEST PUSH1 0xE0 DUP4 ADD MSTORE POP PUSH2 0x100 PUSH2 0x21B6 DUP5 DUP3 DUP6 ADD PUSH2 0x2060 JUMP JUMPDEST PUSH2 0x100 DUP4 ADD MSTORE POP PUSH2 0x120 PUSH2 0x21CC DUP5 DUP3 DUP6 ADD PUSH2 0x2060 JUMP JUMPDEST PUSH2 0x120 DUP4 ADD MSTORE POP PUSH2 0x140 PUSH2 0x21E2 DUP5 DUP3 DUP6 ADD PUSH2 0x2060 JUMP JUMPDEST PUSH2 0x140 DUP4 ADD MSTORE POP PUSH2 0x160 PUSH2 0x21F8 DUP5 DUP3 DUP6 ADD PUSH2 0x2060 JUMP JUMPDEST PUSH2 0x160 DUP4 ADD MSTORE POP PUSH2 0x180 PUSH2 0x220E DUP5 DUP3 DUP6 ADD PUSH2 0x2060 JUMP JUMPDEST PUSH2 0x180 DUP4 ADD MSTORE POP PUSH2 0x1A0 DUP3 ADD CALLDATALOAD PUSH8 0xFFFFFFFFFFFFFFFF DUP2 GT ISZERO PUSH2 0x2230 JUMPI PUSH1 0x0 DUP1 REVERT JUMPDEST PUSH2 0x223C DUP5 DUP3 DUP6 ADD PUSH2 0x1E7D JUMP JUMPDEST PUSH2 0x1A0 DUP4 ADD MSTORE POP PUSH2 0x1C0 DUP3 ADD CALLDATALOAD PUSH8 0xFFFFFFFFFFFFFFFF DUP2 GT ISZERO PUSH2 0x225E JUMPI PUSH1 0x0 DUP1 REVERT JUMPDEST PUSH2 0x226A DUP5 DUP3 DUP6 ADD PUSH2 0x1E7D JUMP JUMPDEST PUSH2 0x1C0 DUP4 ADD MSTORE POP PUSH2 0x1E0 DUP3 ADD CALLDATALOAD PUSH8 0xFFFFFFFFFFFFFFFF DUP2 GT ISZERO PUSH2 0x228C JUMPI PUSH1 0x0 DUP1 REVERT JUMPDEST PUSH2 0x2298 DUP5 DUP3 DUP6 ADD PUSH2 0x1E7D JUMP JUMPDEST PUSH2 0x1E0 DUP4 ADD MSTORE POP PUSH2 0x200 DUP3 ADD CALLDATALOAD PUSH8 0xFFFFFFFFFFFFFFFF DUP2 GT ISZERO PUSH2 0x22BA JUMPI PUSH1 0x0 DUP1 REVERT JUMPDEST PUSH2 0x22C6 DUP5 DUP3 DUP6 ADD PUSH2 0x1E7D JUMP JUMPDEST PUSH2 0x200 DUP4 ADD MSTORE POP PUSH2 0x220 DUP3 ADD CALLDATALOAD PUSH8 0xFFFFFFFFFFFFFFFF DUP2 GT ISZERO PUSH2 0x22E8 JUMPI PUSH1 0x0 DUP1 REVERT JUMPDEST PUSH2 0x22F4 DUP5 DUP3 DUP6 ADD PUSH2 0x1E7D JUMP JUMPDEST PUSH2 0x220 DUP4 ADD MSTORE POP PUSH2 0x240 DUP3 ADD CALLDATALOAD PUSH8 0xFFFFFFFFFFFFFFFF DUP2 GT ISZERO PUSH2 0x2316 JUMPI PUSH1 0x0 DUP1 REVERT JUMPDEST PUSH2 0x2322 DUP5 DUP3 DUP6 ADD PUSH2 0x1E7D JUMP JUMPDEST PUSH2 0x240 DUP4 ADD MSTORE POP PUSH2 0x260 DUP3 ADD CALLDATALOAD PUSH8 0xFFFFFFFFFFFFFFFF DUP2 GT ISZERO PUSH2 0x2344 JUMPI PUSH1 0x0 DUP1 REVERT JUMPDEST PUSH2 0x2350 DUP5 DUP3 DUP6 ADD PUSH2 0x1E53 JUMP JUMPDEST PUSH2 0x260 DUP4 ADD MSTORE POP PUSH2 0x280 DUP3 ADD CALLDATALOAD PUSH8 0xFFFFFFFFFFFFFFFF DUP2 GT ISZERO PUSH2 0x2372 JUMPI PUSH1 0x0 DUP1 REVERT JUMPDEST PUSH2 0x237E DUP5 DUP3 DUP6 ADD PUSH2 0x1E7D JUMP JUMPDEST PUSH2 0x280 DUP4 ADD MSTORE POP SWAP3 SWAP2 POP POP JUMP JUMPDEST PUSH1 0x0 PUSH2 0x1E0 DUP3 DUP5 SUB SLT ISZERO PUSH2 0x239E JUMPI PUSH1 0x0 DUP1 REVERT JUMPDEST PUSH2 0x23A9 PUSH2 0x1C0 PUSH2 0x39A6 JUMP JUMPDEST SWAP1 POP PUSH1 0x0 PUSH2 0x23B9 DUP5 DUP3 DUP6 ADD PUSH2 0x2A23 JUMP JUMPDEST PUSH1 0x0 DUP4 ADD MSTORE POP PUSH1 0x20 PUSH2 0x23CD DUP5 DUP3 DUP6 ADD PUSH2 0x2A23 JUMP JUMPDEST PUSH1 0x20 DUP4 ADD MSTORE POP PUSH1 0x40 PUSH2 0x23E1 DUP5 DUP3 DUP6 ADD PUSH2 0x1E3E JUMP JUMPDEST PUSH1 0x40 DUP4 ADD MSTORE POP PUSH1 0x60 PUSH2 0x23F5 DUP5 DUP3 DUP6 ADD PUSH2 0x2A62 JUMP JUMPDEST PUSH1 0x60 DUP4 ADD MSTORE POP PUSH1 0x80 PUSH2 0x2409 DUP5 DUP3 DUP6 ADD PUSH2 0x2A62 JUMP JUMPDEST PUSH1 0x80 DUP4 ADD MSTORE POP PUSH1 0xA0 PUSH2 0x241D DUP5 DUP3 DUP6 ADD PUSH2 0x1E3E JUMP JUMPDEST PUSH1 0xA0 DUP4 ADD MSTORE POP PUSH1 0xC0 PUSH2 0x2431 DUP5 DUP3 DUP6 ADD PUSH2 0x1E3E JUMP JUMPDEST PUSH1 0xC0 DUP4 ADD MSTORE POP PUSH1 0xE0 PUSH2 0x2445 DUP5 DUP3 DUP6 ADD PUSH2 0x2A62 JUMP JUMPDEST PUSH1 0xE0 DUP4 ADD MSTORE POP PUSH2 0x100 DUP3 ADD CALLDATALOAD PUSH8 0xFFFFFFFFFFFFFFFF DUP2 GT ISZERO PUSH2 0x2466 JUMPI PUSH1 0x0 DUP1 REVERT JUMPDEST PUSH2 0x2472 DUP5 DUP3 DUP6 ADD PUSH2 0x1EA7 JUMP JUMPDEST PUSH2 0x100 DUP4 ADD MSTORE POP PUSH2 0x120 DUP3 ADD CALLDATALOAD PUSH8 0xFFFFFFFFFFFFFFFF DUP2 GT ISZERO PUSH2 0x2494 JUMPI PUSH1 0x0 DUP1 REVERT JUMPDEST PUSH2 0x24A0 DUP5 DUP3 DUP6 ADD PUSH2 0x1EA7 JUMP JUMPDEST PUSH2 0x120 DUP4 ADD MSTORE POP PUSH2 0x140 PUSH2 0x24B6 DUP5 DUP3 DUP6 ADD PUSH2 0x1FF7 JUMP JUMPDEST PUSH2 0x140 DUP4 ADD MSTORE POP PUSH2 0x160 DUP3 ADD CALLDATALOAD PUSH8 0xFFFFFFFFFFFFFFFF DUP2 GT ISZERO PUSH2 0x24D8 JUMPI PUSH1 0x0 DUP1 REVERT JUMPDEST PUSH2 0x24E4 DUP5 DUP3 DUP6 ADD PUSH2 0x1EA7 JUMP JUMPDEST PUSH2 0x160 DUP4 ADD MSTORE POP PUSH2 0x180 PUSH2 0x24FA DUP5 DUP3 DUP6 ADD PUSH2 0x28DA JUMP JUMPDEST PUSH2 0x180 DUP4 ADD MSTORE POP PUSH2 0x1C0 PUSH2 0x2510 DUP5 DUP3 DUP6 ADD PUSH2 0x204B JUMP JUMPDEST PUSH2 0x1A0 DUP4 ADD MSTORE POP SWAP3 SWAP2 POP POP JUMP JUMPDEST PUSH1 0x0 PUSH1 0x40 DUP3 DUP5 SUB SLT ISZERO PUSH2 0x252F JUMPI PUSH1 0x0 DUP1 REVERT JUMPDEST PUSH2 0x2539 PUSH1 0x40 PUSH2 0x39A6 JUMP JUMPDEST SWAP1 POP PUSH1 0x0 PUSH2 0x2549 DUP5 DUP3 DUP6 ADD PUSH2 0x1E3E JUMP JUMPDEST PUSH1 0x0 DUP4 ADD MSTORE POP PUSH1 0x20 PUSH2 0x255D DUP5 DUP3 DUP6 ADD PUSH2 0x2A77 JUMP JUMPDEST PUSH1 0x20 DUP4 ADD MSTORE POP SWAP3 SWAP2 POP POP JUMP JUMPDEST PUSH1 0x0 PUSH1 0x40 DUP3 DUP5 SUB SLT ISZERO PUSH2 0x257B JUMPI PUSH1 0x0 DUP1 REVERT JUMPDEST PUSH2 0x2585 PUSH1 0x40 PUSH2 0x39A6 JUMP JUMPDEST SWAP1 POP PUSH1 0x0 DUP3 ADD CALLDATALOAD PUSH8 0xFFFFFFFFFFFFFFFF DUP2 GT ISZERO PUSH2 0x25A1 JUMPI PUSH1 0x0 DUP1 REVERT JUMPDEST PUSH2 0x25AD DUP5 DUP3 DUP6 ADD PUSH2 0x2075 JUMP JUMPDEST PUSH1 0x0 DUP4 ADD MSTORE POP PUSH1 0x20 PUSH2 0x25C1 DUP5 DUP3 DUP6 ADD PUSH2 0x1E3E JUMP JUMPDEST PUSH1 0x20 DUP4 ADD MSTORE POP SWAP3 SWAP2 POP POP JUMP JUMPDEST PUSH1 0x0 PUSH2 0x1C0 DUP3 DUP5 SUB SLT ISZERO PUSH2 0x25E0 JUMPI PUSH1 0x0 DUP1 REVERT JUMPDEST PUSH2 0x25EB PUSH2 0x180 PUSH2 0x39A6 JUMP JUMPDEST SWAP1 POP PUSH1 0x0 PUSH2 0x25FB DUP5 DUP3 DUP6 ADD PUSH2 0x2A62 JUMP JUMPDEST PUSH1 0x0 DUP4 ADD MSTORE POP PUSH1 0x20 PUSH2 0x260F DUP5 DUP3 DUP6 ADD PUSH2 0x2A62 JUMP JUMPDEST PUSH1 0x20 DUP4 ADD MSTORE POP PUSH1 0x40 PUSH2 0x2623 DUP5 DUP3 DUP6 ADD PUSH2 0x28DA JUMP JUMPDEST PUSH1 0x40 DUP4 ADD MSTORE POP PUSH1 0x80 PUSH2 0x2637 DUP5 DUP3 DUP6 ADD PUSH2 0x1E3E JUMP JUMPDEST PUSH1 0x60 DUP4 ADD MSTORE POP PUSH1 0xA0 DUP3 ADD CALLDATALOAD PUSH8 0xFFFFFFFFFFFFFFFF DUP2 GT ISZERO PUSH2 0x2657 JUMPI PUSH1 0x0 DUP1 REVERT JUMPDEST PUSH2 0x2663 DUP5 DUP3 DUP6 ADD PUSH2 0x209F JUMP JUMPDEST PUSH1 0x80 DUP4 ADD MSTORE POP PUSH1 0xC0 PUSH2 0x2677 DUP5 DUP3 DUP6 ADD PUSH2 0x2A62 JUMP JUMPDEST PUSH1 0xA0 DUP4 ADD MSTORE POP PUSH1 0xE0 PUSH2 0x268B DUP5 DUP3 DUP6 ADD PUSH2 0x2926 JUMP JUMPDEST PUSH1 0xC0 DUP4 ADD MSTORE POP PUSH2 0x120 PUSH2 0x26A0 DUP5 DUP3 DUP6 ADD PUSH2 0x1FF7 JUMP JUMPDEST PUSH1 0xE0 DUP4 ADD MSTORE POP PUSH2 0x140 PUSH2 0x26B5 DUP5 DUP3 DUP6 ADD PUSH2 0x2A62 JUMP JUMPDEST PUSH2 0x100 DUP4 ADD MSTORE POP PUSH2 0x160 DUP3 ADD CALLDATALOAD PUSH8 0xFFFFFFFFFFFFFFFF DUP2 GT ISZERO PUSH2 0x26D7 JUMPI PUSH1 0x0 DUP1 REVERT JUMPDEST PUSH2 0x26E3 DUP5 DUP3 DUP6 ADD PUSH2 0x1F4F JUMP JUMPDEST PUSH2 0x120 DUP4 ADD MSTORE POP PUSH2 0x180 DUP3 ADD CALLDATALOAD PUSH8 0xFFFFFFFFFFFFFFFF DUP2 GT ISZERO PUSH2 0x2705 JUMPI PUSH1 0x0 DUP1 REVERT JUMPDEST PUSH2 0x2711 DUP5 DUP3 DUP6 ADD PUSH2 0x1EFB JUMP JUMPDEST PUSH2 0x140 DUP4 ADD MSTORE POP PUSH2 0x1A0 DUP3 ADD CALLDATALOAD PUSH8 0xFFFFFFFFFFFFFFFF DUP2 GT ISZERO PUSH2 0x2733 JUMPI PUSH1 0x0 DUP1 REVERT JUMPDEST PUSH2 0x273F DUP5 DUP3 DUP6 ADD PUSH2 0x1ED1 JUMP JUMPDEST PUSH2 0x160 DUP4 ADD MSTORE POP SWAP3 SWAP2 POP POP JUMP JUMPDEST PUSH1 0x0 PUSH1 0xE0 DUP3 DUP5 SUB SLT ISZERO PUSH2 0x275E JUMPI PUSH1 0x0 DUP1 REVERT JUMPDEST PUSH2 0x2768 PUSH1 0xE0 PUSH2 0x39A6 JUMP JUMPDEST SWAP1 POP PUSH1 0x0 PUSH2 0x2778 DUP5 DUP3 DUP6 ADD PUSH2 0x2036 JUMP JUMPDEST PUSH1 0x0 DUP4 ADD MSTORE POP PUSH1 0x20 PUSH2 0x278C DUP5 DUP3 DUP6 ADD PUSH2 0x2036 JUMP JUMPDEST PUSH1 0x20 DUP4 ADD MSTORE POP PUSH1 0x40 PUSH2 0x27A0 DUP5 DUP3 DUP6 ADD PUSH2 0x1E3E JUMP JUMPDEST PUSH1 0x40 DUP4 ADD MSTORE POP PUSH1 0x60 PUSH2 0x27B4 DUP5 DUP3 DUP6 ADD PUSH2 0x2A62 JUMP JUMPDEST PUSH1 0x60 DUP4 ADD MSTORE POP PUSH1 0x80 PUSH2 0x27C8 DUP5 DUP3 DUP6 ADD PUSH2 0x1FF7 JUMP JUMPDEST PUSH1 0x80 DUP4 ADD MSTORE POP PUSH1 0xA0 PUSH2 0x27DC DUP5 DUP3 DUP6 ADD PUSH2 0x1FF7 JUMP JUMPDEST PUSH1 0xA0 DUP4 ADD MSTORE POP PUSH1 0xC0 PUSH2 0x27F0 DUP5 DUP3 DUP6 ADD PUSH2 0x1FF7 JUMP JUMPDEST PUSH1 0xC0 DUP4 ADD MSTORE POP SWAP3 SWAP2 POP POP JUMP JUMPDEST PUSH1 0x0 PUSH2 0x160 DUP3 DUP5 SUB SLT ISZERO PUSH2 0x280F JUMPI PUSH1 0x0 DUP1 REVERT JUMPDEST PUSH2 0x281A PUSH2 0x120 PUSH2 0x39A6 JUMP JUMPDEST SWAP1 POP PUSH1 0x0 PUSH2 0x282A DUP5 DUP3 DUP6 ADD PUSH2 0x2A62 JUMP JUMPDEST PUSH1 0x0 DUP4 ADD MSTORE POP PUSH1 0x20 PUSH2 0x283E DUP5 DUP3 DUP6 ADD PUSH2 0x251D JUMP JUMPDEST PUSH1 0x20 DUP4 ADD MSTORE POP PUSH1 0x60 PUSH2 0x2852 DUP5 DUP3 DUP6 ADD PUSH2 0x2A62 JUMP JUMPDEST PUSH1 0x40 DUP4 ADD MSTORE POP PUSH1 0x80 PUSH2 0x2866 DUP5 DUP3 DUP6 ADD PUSH2 0x1E3E JUMP JUMPDEST PUSH1 0x60 DUP4 ADD MSTORE POP PUSH1 0xA0 PUSH2 0x287A DUP5 DUP3 DUP6 ADD PUSH2 0x2A4D JUMP JUMPDEST PUSH1 0x80 DUP4 ADD MSTORE POP PUSH1 0xC0 PUSH2 0x288E DUP5 DUP3 DUP6 ADD PUSH2 0x28DA JUMP JUMPDEST PUSH1 0xA0 DUP4 ADD MSTORE POP PUSH2 0x100 PUSH2 0x28A3 DUP5 DUP3 DUP6 ADD PUSH2 0x1E3E JUMP JUMPDEST PUSH1 0xC0 DUP4 ADD MSTORE POP PUSH2 0x120 PUSH2 0x28B8 DUP5 DUP3 DUP6 ADD PUSH2 0x1E3E JUMP JUMPDEST PUSH1 0xE0 DUP4 ADD MSTORE POP PUSH2 0x140 PUSH2 0x28CD DUP5 DUP3 DUP6 ADD PUSH2 0x1E3E JUMP JUMPDEST PUSH2 0x100 DUP4 ADD MSTORE POP SWAP3 SWAP2 POP POP JUMP JUMPDEST PUSH1 0x0 PUSH1 0x40 DUP3 DUP5 SUB SLT ISZERO PUSH2 0x28EC JUMPI PUSH1 0x0 DUP1 REVERT JUMPDEST PUSH2 0x28F6 PUSH1 0x40 PUSH2 0x39A6 JUMP JUMPDEST SWAP1 POP PUSH1 0x0 PUSH2 0x2906 DUP5 DUP3 DUP6 ADD PUSH2 0x2A8C JUMP JUMPDEST PUSH1 0x0 DUP4 ADD MSTORE POP PUSH1 0x20 PUSH2 0x291A DUP5 DUP3 DUP6 ADD PUSH2 0x1E3E JUMP JUMPDEST PUSH1 0x20 DUP4 ADD MSTORE POP SWAP3 SWAP2 POP POP JUMP JUMPDEST PUSH1 0x0 PUSH1 0x40 DUP3 DUP5 SUB SLT ISZERO PUSH2 0x2938 JUMPI PUSH1 0x0 DUP1 REVERT JUMPDEST PUSH2 0x2942 PUSH1 0x40 PUSH2 0x39A6 JUMP JUMPDEST SWAP1 POP PUSH1 0x0 PUSH2 0x2952 DUP5 DUP3 DUP6 ADD PUSH2 0x1FF7 JUMP JUMPDEST PUSH1 0x0 DUP4 ADD MSTORE POP PUSH1 0x20 PUSH2 0x2966 DUP5 DUP3 DUP6 ADD PUSH2 0x2A62 JUMP JUMPDEST PUSH1 0x20 DUP4 ADD MSTORE POP SWAP3 SWAP2 POP POP JUMP JUMPDEST PUSH1 0x0 PUSH1 0x40 DUP3 DUP5 SUB SLT ISZERO PUSH2 0x2984 JUMPI PUSH1 0x0 DUP1 REVERT JUMPDEST PUSH2 0x298E PUSH1 0x40 PUSH2 0x39A6 JUMP JUMPDEST SWAP1 POP PUSH1 0x0 PUSH2 0x299E DUP5 DUP3 DUP6 ADD PUSH2 0x1E3E JUMP JUMPDEST PUSH1 0x0 DUP4 ADD MSTORE POP PUSH1 0x20 DUP3 ADD CALLDATALOAD PUSH8 0xFFFFFFFFFFFFFFFF DUP2 GT ISZERO PUSH2 0x29BE JUMPI PUSH1 0x0 DUP1 REVERT JUMPDEST PUSH2 0x29CA DUP5 DUP3 DUP6 ADD PUSH2 0x209F JUMP JUMPDEST PUSH1 0x20 DUP4 ADD MSTORE POP SWAP3 SWAP2 POP POP JUMP JUMPDEST PUSH1 0x0 PUSH2 0x100 DUP3 DUP5 SUB SLT ISZERO PUSH2 0x29E9 JUMPI PUSH1 0x0 DUP1 REVERT JUMPDEST PUSH2 0x29F3 PUSH1 0x40 PUSH2 0x39A6 JUMP JUMPDEST SWAP1 POP PUSH1 0x0 PUSH2 0x2A03 DUP5 DUP3 DUP6 ADD PUSH2 0x1E3E JUMP JUMPDEST PUSH1 0x0 DUP4 ADD MSTORE POP PUSH1 0x20 PUSH2 0x2A17 DUP5 DUP3 DUP6 ADD PUSH2 0x274C JUMP JUMPDEST PUSH1 0x20 DUP4 ADD MSTORE POP SWAP3 SWAP2 POP POP JUMP JUMPDEST PUSH1 0x0 DUP2 CALLDATALOAD SWAP1 POP PUSH2 0x2A32 DUP2 PUSH2 0x3F23 JUMP JUMPDEST SWAP3 SWAP2 POP POP JUMP JUMPDEST PUSH1 0x0 DUP2 CALLDATALOAD SWAP1 POP PUSH2 0x2A47 DUP2 PUSH2 0x3F3A JUMP JUMPDEST SWAP3 SWAP2 POP POP JUMP JUMPDEST PUSH1 0x0 DUP2 CALLDATALOAD SWAP1 POP PUSH2 0x2A5C DUP2 PUSH2 0x3F51 JUMP JUMPDEST SWAP3 SWAP2 POP POP JUMP JUMPDEST PUSH1 0x0 DUP2 CALLDATALOAD SWAP1 POP PUSH2 0x2A71 DUP2 PUSH2 0x3F68 JUMP JUMPDEST SWAP3 SWAP2 POP POP JUMP JUMPDEST PUSH1 0x0 DUP2 CALLDATALOAD SWAP1 POP PUSH2 0x2A86 DUP2 PUSH2 0x3F7F JUMP JUMPDEST SWAP3 SWAP2 POP POP JUMP JUMPDEST PUSH1 0x0 DUP2 CALLDATALOAD SWAP1 POP PUSH2 0x2A9B DUP2 PUSH2 0x3F96 JUMP JUMPDEST SWAP3 SWAP2 POP POP JUMP JUMPDEST PUSH1 0x0 PUSH1 0x20 DUP3 DUP5 SUB SLT ISZERO PUSH2 0x2AB3 JUMPI PUSH1 0x0 DUP1 REVERT JUMPDEST PUSH1 0x0 PUSH2 0x2AC1 DUP5 DUP3 DUP6 ADD PUSH2 0x1E3E JUMP JUMPDEST SWAP2 POP POP SWAP3 SWAP2 POP POP JUMP JUMPDEST PUSH1 0x0 PUSH1 0x20 DUP3 DUP5 SUB SLT ISZERO PUSH2 0x2ADC JUMPI PUSH1 0x0 DUP1 REVERT JUMPDEST PUSH1 0x0 DUP3 ADD CALLDATALOAD PUSH8 0xFFFFFFFFFFFFFFFF DUP2 GT ISZERO PUSH2 0x2AF6 JUMPI PUSH1 0x0 DUP1 REVERT JUMPDEST PUSH2 0x2B02 DUP5 DUP3 DUP6 ADD PUSH2 0x1E53 JUMP JUMPDEST SWAP2 POP POP SWAP3 SWAP2 POP POP JUMP JUMPDEST PUSH1 0x0 PUSH1 0x20 DUP3 DUP5 SUB SLT ISZERO PUSH2 0x2B1D JUMPI PUSH1 0x0 DUP1 REVERT JUMPDEST PUSH1 0x0 DUP3 ADD CALLDATALOAD PUSH8 0xFFFFFFFFFFFFFFFF DUP2 GT ISZERO PUSH2 0x2B37 JUMPI PUSH1 0x0 DUP1 REVERT JUMPDEST PUSH2 0x2B43 DUP5 DUP3 DUP6 ADD PUSH2 0x1E7D JUMP JUMPDEST SWAP2 POP POP SWAP3 SWAP2 POP POP JUMP JUMPDEST PUSH1 0x0 PUSH1 0x20 DUP3 DUP5 SUB SLT ISZERO PUSH2 0x2B5E JUMPI PUSH1 0x0 DUP1 REVERT JUMPDEST PUSH1 0x0 DUP3 ADD CALLDATALOAD PUSH8 0xFFFFFFFFFFFFFFFF DUP2 GT ISZERO PUSH2 0x2B78 JUMPI PUSH1 0x0 DUP1 REVERT JUMPDEST PUSH2 0x2B84 DUP5 DUP3 DUP6 ADD PUSH2 0x1EA7 JUMP JUMPDEST SWAP2 POP POP SWAP3 SWAP2 POP POP JUMP JUMPDEST PUSH1 0x0 PUSH1 0x20 DUP3 DUP5 SUB SLT ISZERO PUSH2 0x2B9F JUMPI PUSH1 0x0 DUP1 REVERT JUMPDEST PUSH1 0x0 DUP3 ADD CALLDATALOAD PUSH8 0xFFFFFFFFFFFFFFFF DUP2 GT ISZERO PUSH2 0x2BB9 JUMPI PUSH1 0x0 DUP1 REVERT JUMPDEST PUSH2 0x2BC5 DUP5 DUP3 DUP6 ADD PUSH2 0x1ED1 JUMP JUMPDEST SWAP2 POP POP SWAP3 SWAP2 POP POP JUMP JUMPDEST PUSH1 0x0 PUSH1 0x20 DUP3 DUP5 SUB SLT ISZERO PUSH2 0x2BE0 JUMPI PUSH1 0x0 DUP1 REVERT JUMPDEST PUSH1 0x0 DUP3 ADD CALLDATALOAD PUSH8 0xFFFFFFFFFFFFFFFF DUP2 GT ISZERO PUSH2 0x2BFA JUMPI PUSH1 0x0 DUP1 REVERT JUMPDEST PUSH2 0x2C06 DUP5 DUP3 DUP6 ADD PUSH2 0x1EFB JUMP JUMPDEST SWAP2 POP POP SWAP3 SWAP2 POP POP JUMP JUMPDEST PUSH1 0x0 DUP1 PUSH1 0x40 DUP4 DUP6 SUB SLT ISZERO PUSH2 0x2C22 JUMPI PUSH1 0x0 DUP1 REVERT JUMPDEST PUSH1 0x0 DUP4 ADD CALLDATALOAD PUSH8 0xFFFFFFFFFFFFFFFF DUP2 GT ISZERO PUSH2 0x2C3C JUMPI PUSH1 0x0 DUP1 REVERT JUMPDEST PUSH2 0x2C48 DUP6 DUP3 DUP7 ADD PUSH2 0x1F25 JUMP JUMPDEST SWAP3 POP POP PUSH1 0x20 PUSH2 0x2C59 DUP6 DUP3 DUP7 ADD PUSH2 0x1FCD JUMP JUMPDEST SWAP2 POP POP SWAP3 POP SWAP3 SWAP1 POP JUMP JUMPDEST PUSH1 0x0 PUSH1 0x20 DUP3 DUP5 SUB SLT ISZERO PUSH2 0x2C75 JUMPI PUSH1 0x0 DUP1 REVERT JUMPDEST PUSH1 0x0 DUP3 ADD CALLDATALOAD PUSH8 0xFFFFFFFFFFFFFFFF DUP2 GT ISZERO PUSH2 0x2C8F JUMPI PUSH1 0x0 DUP1 REVERT JUMPDEST PUSH2 0x2C9B DUP5 DUP3 DUP6 ADD PUSH2 0x1F4F JUMP JUMPDEST SWAP2 POP POP SWAP3 SWAP2 POP POP JUMP JUMPDEST PUSH1 0x0 PUSH1 0x20 DUP3 DUP5 SUB SLT ISZERO PUSH2 0x2CB6 JUMPI PUSH1 0x0 DUP1 REVERT JUMPDEST PUSH1 0x0 DUP3 ADD CALLDATALOAD PUSH8 0xFFFFFFFFFFFFFFFF DUP2 GT ISZERO PUSH2 0x2CD0 JUMPI PUSH1 0x0 DUP1 REVERT JUMPDEST PUSH2 0x2CDC DUP5 DUP3 DUP6 ADD PUSH2 0x1F79 JUMP JUMPDEST SWAP2 POP POP SWAP3 SWAP2 POP POP JUMP JUMPDEST PUSH1 0x0 PUSH1 0x20 DUP3 DUP5 SUB SLT ISZERO PUSH2 0x2CF7 JUMPI PUSH1 0x0 DUP1 REVERT JUMPDEST PUSH1 0x0 DUP3 ADD CALLDATALOAD PUSH8 0xFFFFFFFFFFFFFFFF DUP2 GT ISZERO PUSH2 0x2D11 JUMPI PUSH1 0x0 DUP1 REVERT JUMPDEST PUSH2 0x2D1D DUP5 DUP3 DUP6 ADD PUSH2 0x1FA3 JUMP JUMPDEST SWAP2 POP POP SWAP3 SWAP2 POP POP JUMP JUMPDEST PUSH1 0x0 PUSH1 0x20 DUP3 DUP5 SUB SLT ISZERO PUSH2 0x2D38 JUMPI PUSH1 0x0 DUP1 REVERT JUMPDEST PUSH1 0x0 PUSH2 0x2D46 DUP5 DUP3 DUP6 ADD PUSH2 0x1FCD JUMP JUMPDEST SWAP2 POP POP SWAP3 SWAP2 POP POP JUMP JUMPDEST PUSH1 0x0 PUSH1 0x20 DUP3 DUP5 SUB SLT ISZERO PUSH2 0x2D61 JUMPI PUSH1 0x0 DUP1 REVERT JUMPDEST PUSH1 0x0 PUSH2 0x2D6F DUP5 DUP3 DUP6 ADD PUSH2 0x1FE2 JUMP JUMPDEST SWAP2 POP POP SWAP3 SWAP2 POP POP JUMP JUMPDEST PUSH1 0x0 PUSH1 0x20 DUP3 DUP5 SUB SLT ISZERO PUSH2 0x2D8A JUMPI PUSH1 0x0 DUP1 REVERT JUMPDEST PUSH1 0x0 PUSH2 0x2D98 DUP5 DUP3 DUP6 ADD PUSH2 0x1FF7 JUMP JUMPDEST SWAP2 POP POP SWAP3 SWAP2 POP POP JUMP JUMPDEST PUSH1 0x0 PUSH1 0x20 DUP3 DUP5 SUB SLT ISZERO PUSH2 0x2DB3 JUMPI PUSH1 0x0 DUP1 REVERT JUMPDEST PUSH1 0x0 DUP3 ADD CALLDATALOAD PUSH8 0xFFFFFFFFFFFFFFFF DUP2 GT ISZERO PUSH2 0x2DCD JUMPI PUSH1 0x0 DUP1 REVERT JUMPDEST PUSH2 0x2DD9 DUP5 DUP3 DUP6 ADD PUSH2 0x200C JUMP JUMPDEST SWAP2 POP POP SWAP3 SWAP2 POP POP JUMP JUMPDEST PUSH1 0x0 PUSH1 0x20 DUP3 DUP5 SUB SLT ISZERO PUSH2 0x2DF4 JUMPI PUSH1 0x0 DUP1 REVERT JUMPDEST PUSH1 0x0 PUSH2 0x2E02 DUP5 DUP3 DUP6 ADD PUSH2 0x2036 JUMP JUMPDEST SWAP2 POP POP SWAP3 SWAP2 POP POP JUMP JUMPDEST PUSH1 0x0 PUSH1 0x20 DUP3 DUP5 SUB SLT ISZERO PUSH2 0x2E1D JUMPI PUSH1 0x0 DUP1 REVERT JUMPDEST PUSH1 0x0 PUSH2 0x2E2B DUP5 DUP3 DUP6 ADD PUSH2 0x204B JUMP JUMPDEST SWAP2 POP POP SWAP3 SWAP2 POP POP JUMP JUMPDEST PUSH1 0x0 PUSH1 0x20 DUP3 DUP5 SUB SLT ISZERO PUSH2 0x2E46 JUMPI PUSH1 0x0 DUP1 REVERT JUMPDEST PUSH1 0x0 PUSH2 0x2E54 DUP5 DUP3 DUP6 ADD PUSH2 0x2060 JUMP JUMPDEST SWAP2 POP POP SWAP3 SWAP2 POP POP JUMP JUMPDEST PUSH1 0x0 PUSH1 0x20 DUP3 DUP5 SUB SLT ISZERO PUSH2 0x2E6F JUMPI PUSH1 0x0 DUP1 REVERT JUMPDEST PUSH1 0x0 DUP3 ADD CALLDATALOAD PUSH8 0xFFFFFFFFFFFFFFFF DUP2 GT ISZERO PUSH2 0x2E89 JUMPI PUSH1 0x0 DUP1 REVERT JUMPDEST PUSH2 0x2E95 DUP5 DUP3 DUP6 ADD PUSH2 0x2075 JUMP JUMPDEST SWAP2 POP POP SWAP3 SWAP2 POP POP JUMP JUMPDEST PUSH1 0x0 DUP1 PUSH1 0x0 DUP1 PUSH1 0x0 PUSH1 0xA0 DUP7 DUP9 SUB SLT ISZERO PUSH2 0x2EB6 JUMPI PUSH1 0x0 DUP1 REVERT JUMPDEST PUSH1 0x0 DUP7 ADD CALLDATALOAD PUSH8 0xFFFFFFFFFFFFFFFF DUP2 GT ISZERO PUSH2 0x2ED0 JUMPI PUSH1 0x0 DUP1 REVERT JUMPDEST PUSH2 0x2EDC DUP9 DUP3 DUP10 ADD PUSH2 0x2075 JUMP JUMPDEST SWAP6 POP POP PUSH1 0x20 PUSH2 0x2EED DUP9 DUP3 DUP10 ADD PUSH2 0x1E3E JUMP JUMPDEST SWAP5 POP POP PUSH1 0x40 PUSH2 0x2EFE DUP9 DUP3 DUP10 ADD PUSH2 0x2060 JUMP JUMPDEST SWAP4 POP POP PUSH1 0x60 PUSH2 0x2F0F DUP9 DUP3 DUP10 ADD PUSH2 0x1E3E JUMP JUMPDEST SWAP3 POP POP PUSH1 0x80 DUP7 ADD CALLDATALOAD PUSH8 0xFFFFFFFFFFFFFFFF DUP2 GT ISZERO PUSH2 0x2F2C JUMPI PUSH1 0x0 DUP1 REVERT JUMPDEST PUSH2 0x2F38 DUP9 DUP3 DUP10 ADD PUSH2 0x200C JUMP JUMPDEST SWAP2 POP POP SWAP3 SWAP6 POP SWAP3 SWAP6 SWAP1 SWAP4 POP JUMP JUMPDEST PUSH1 0x0 PUSH1 0x20 DUP3 DUP5 SUB SLT ISZERO PUSH2 0x2F57 JUMPI PUSH1 0x0 DUP1 REVERT JUMPDEST PUSH1 0x0 DUP3 ADD CALLDATALOAD PUSH8 0xFFFFFFFFFFFFFFFF DUP2 GT ISZERO PUSH2 0x2F71 JUMPI PUSH1 0x0 DUP1 REVERT JUMPDEST PUSH2 0x2F7D DUP5 DUP3 DUP6 ADD PUSH2 0x209F JUMP JUMPDEST SWAP2 POP POP SWAP3 SWAP2 POP POP JUMP JUMPDEST PUSH1 0x0 PUSH1 0x20 DUP3 DUP5 SUB SLT ISZERO PUSH2 0x2F98 JUMPI PUSH1 0x0 DUP1 REVERT JUMPDEST PUSH1 0x0 DUP3 ADD CALLDATALOAD PUSH8 0xFFFFFFFFFFFFFFFF DUP2 GT ISZERO PUSH2 0x2FB2 JUMPI PUSH1 0x0 DUP1 REVERT JUMPDEST PUSH2 0x2FBE DUP5 DUP3 DUP6 ADD PUSH2 0x238B JUMP JUMPDEST SWAP2 POP POP SWAP3 SWAP2 POP POP JUMP JUMPDEST PUSH1 0x0 PUSH1 0x40 DUP3 DUP5 SUB SLT ISZERO PUSH2 0x2FD9 JUMPI PUSH1 0x0 DUP1 REVERT JUMPDEST PUSH1 0x0 PUSH2 0x2FE7 DUP5 DUP3 DUP6 ADD PUSH2 0x251D JUMP JUMPDEST SWAP2 POP POP SWAP3 SWAP2 POP POP JUMP JUMPDEST PUSH1 0x0 PUSH1 0x20 DUP3 DUP5 SUB SLT ISZERO PUSH2 0x3002 JUMPI PUSH1 0x0 DUP1 REVERT JUMPDEST PUSH1 0x0 DUP3 ADD CALLDATALOAD PUSH8 0xFFFFFFFFFFFFFFFF DUP2 GT ISZERO PUSH2 0x301C JUMPI PUSH1 0x0 DUP1 REVERT JUMPDEST PUSH2 0x3028 DUP5 DUP3 DUP6 ADD PUSH2 0x2569 JUMP JUMPDEST SWAP2 POP POP SWAP3 SWAP2 POP POP JUMP JUMPDEST PUSH1 0x0 PUSH1 0x20 DUP3 DUP5 SUB SLT ISZERO PUSH2 0x3043 JUMPI PUSH1 0x0 DUP1 REVERT JUMPDEST PUSH1 0x0 DUP3 ADD CALLDATALOAD PUSH8 0xFFFFFFFFFFFFFFFF DUP2 GT ISZERO PUSH2 0x305D JUMPI PUSH1 0x0 DUP1 REVERT JUMPDEST PUSH2 0x3069 DUP5 DUP3 DUP6 ADD PUSH2 0x25CD JUMP JUMPDEST SWAP2 POP POP SWAP3 SWAP2 POP POP JUMP JUMPDEST PUSH1 0x0 PUSH1 0xE0 DUP3 DUP5 SUB SLT ISZERO PUSH2 0x3084 JUMPI PUSH1 0x0 DUP1 REVERT JUMPDEST PUSH1 0x0 PUSH2 0x3092 DUP5 DUP3 DUP6 ADD PUSH2 0x274C JUMP JUMPDEST SWAP2 POP POP SWAP3 SWAP2 POP POP JUMP JUMPDEST PUSH1 0x0 PUSH2 0x160 DUP3 DUP5 SUB SLT ISZERO PUSH2 0x30AE JUMPI PUSH1 0x0 DUP1 REVERT JUMPDEST PUSH1 0x0 PUSH2 0x30BC DUP5 DUP3 DUP6 ADD PUSH2 0x27FC JUMP JUMPDEST SWAP2 POP POP SWAP3 SWAP2 POP POP JUMP JUMPDEST PUSH1 0x0 PUSH1 0x40 DUP3 DUP5 SUB SLT ISZERO PUSH2 0x30D7 JUMPI PUSH1 0x0 DUP1 REVERT JUMPDEST PUSH1 0x0 PUSH2 0x30E5 DUP5 DUP3 DUP6 ADD PUSH2 0x28DA JUMP JUMPDEST SWAP2 POP POP SWAP3 SWAP2 POP POP JUMP JUMPDEST PUSH1 0x0 PUSH1 0x40 DUP3 DUP5 SUB SLT ISZERO PUSH2 0x3100 JUMPI PUSH1 0x0 DUP1 REVERT JUMPDEST PUSH1 0x0 PUSH2 0x310E DUP5 DUP3 DUP6 ADD PUSH2 0x2926 JUMP JUMPDEST SWAP2 POP POP SWAP3 SWAP2 POP POP JUMP JUMPDEST PUSH1 0x0 PUSH1 0x20 DUP3 DUP5 SUB SLT ISZERO PUSH2 0x3129 JUMPI PUSH1 0x0 DUP1 REVERT JUMPDEST PUSH1 0x0 DUP3 ADD CALLDATALOAD PUSH8 0xFFFFFFFFFFFFFFFF DUP2 GT ISZERO PUSH2 0x3143 JUMPI PUSH1 0x0 DUP1 REVERT JUMPDEST PUSH2 0x314F DUP5 DUP3 DUP6 ADD PUSH2 0x2972 JUMP JUMPDEST SWAP2 POP POP SWAP3 SWAP2 POP POP JUMP JUMPDEST PUSH1 0x0 PUSH2 0x100 DUP3 DUP5 SUB SLT ISZERO PUSH2 0x316B JUMPI PUSH1 0x0 DUP1 REVERT JUMPDEST PUSH1 0x0 PUSH2 0x3179 DUP5 DUP3 DUP6 ADD PUSH2 0x29D6 JUMP JUMPDEST SWAP2 POP POP SWAP3 SWAP2 POP POP JUMP JUMPDEST PUSH1 0x0 PUSH1 0x20 DUP3 DUP5 SUB SLT ISZERO PUSH2 0x3194 JUMPI PUSH1 0x0 DUP1 REVERT JUMPDEST PUSH1 0x0 PUSH2 0x31A2 DUP5 DUP3 DUP6 ADD PUSH2 0x2A23 JUMP JUMPDEST SWAP2 POP POP SWAP3 SWAP2 POP POP JUMP JUMPDEST PUSH1 0x0 PUSH1 0x20 DUP3 DUP5 SUB SLT ISZERO PUSH2 0x31BD JUMPI PUSH1 0x0 DUP1 REVERT JUMPDEST PUSH1 0x0 PUSH2 0x31CB DUP5 DUP3 DUP6 ADD PUSH2 0x2A4D JUMP JUMPDEST SWAP2 POP POP SWAP3 SWAP2 POP POP JUMP JUMPDEST PUSH1 0x0 PUSH1 0x20 DUP3 DUP5 SUB SLT ISZERO PUSH2 0x31E6 JUMPI PUSH1 0x0 DUP1 REVERT JUMPDEST PUSH1 0x0 PUSH2 0x31F4 DUP5 DUP3 DUP6 ADD PUSH2 0x2A62 JUMP JUMPDEST SWAP2 POP POP SWAP3 SWAP2 POP POP JUMP JUMPDEST PUSH1 0x0 PUSH1 0x20 DUP3 DUP5 SUB SLT ISZERO PUSH2 0x320F JUMPI PUSH1 0x0 DUP1 REVERT JUMPDEST PUSH1 0x0 PUSH2 0x321D DUP5 DUP3 DUP6 ADD PUSH2 0x2A77 JUMP JUMPDEST SWAP2 POP POP SWAP3 SWAP2 POP POP JUMP JUMPDEST PUSH1 0x0 PUSH1 0x20 DUP3 DUP5 SUB SLT ISZERO PUSH2 0x3238 JUMPI PUSH1 0x0 DUP1 REVERT JUMPDEST PUSH1 0x0 PUSH2 0x3246 DUP5 DUP3 DUP6 ADD PUSH2 0x2A8C JUMP JUMPDEST SWAP2 POP POP SWAP3 SWAP2 POP POP JUMP JUMPDEST PUSH2 0x3260 PUSH2 0x325B DUP3 PUSH2 0x3C00 JUMP JUMPDEST PUSH2 0x3D52 JUMP JUMPDEST DUP3 MSTORE POP POP JUMP JUMPDEST PUSH2 0x3277 PUSH2 0x3272 DUP3 PUSH2 0x3C12 JUMP JUMPDEST PUSH2 0x3D64 JUMP JUMPDEST DUP3 MSTORE POP POP JUMP JUMPDEST PUSH2 0x328E PUSH2 0x3289 DUP3 PUSH2 0x3C1E JUMP JUMPDEST PUSH2 0x3D76 JUMP JUMPDEST DUP3 MSTORE POP POP JUMP JUMPDEST PUSH2 0x32A5 PUSH2 0x32A0 DUP3 PUSH2 0x3C4A JUMP JUMPDEST PUSH2 0x3D80 JUMP JUMPDEST DUP3 MSTORE POP POP JUMP JUMPDEST PUSH2 0x32BC PUSH2 0x32B7 DUP3 PUSH2 0x3C76 JUMP JUMPDEST PUSH2 0x3D8A JUMP JUMPDEST DUP3 MSTORE POP POP JUMP JUMPDEST PUSH1 0x0 PUSH2 0x32CD DUP3 PUSH2 0x3BC3 JUMP JUMPDEST PUSH2 0x32D7 DUP2 DUP6 PUSH2 0x3BD9 JUMP JUMPDEST SWAP4 POP PUSH2 0x32E7 DUP2 DUP6 PUSH1 0x20 DUP7 ADD PUSH2 0x3D1F JUMP JUMPDEST PUSH2 0x32F0 DUP2 PUSH2 0x3E30 JUMP JUMPDEST DUP5 ADD SWAP2 POP POP SWAP3 SWAP2 POP POP JUMP JUMPDEST PUSH1 0x0 PUSH2 0x3306 DUP3 PUSH2 0x3BC3 JUMP JUMPDEST PUSH2 0x3310 DUP2 DUP6 PUSH2 0x3BEA JUMP JUMPDEST SWAP4 POP PUSH2 0x3320 DUP2 DUP6 PUSH1 0x20 DUP7 ADD PUSH2 0x3D1F JUMP JUMPDEST DUP1 DUP5 ADD SWAP2 POP POP SWAP3 SWAP2 POP POP JUMP JUMPDEST PUSH2 0x333D PUSH2 0x3338 DUP3 PUSH2 0x3C80 JUMP JUMPDEST PUSH2 0x3D94 JUMP JUMPDEST DUP3 MSTORE POP POP JUMP JUMPDEST PUSH2 0x3354 PUSH2 0x334F DUP3 PUSH2 0x3C8D JUMP JUMPDEST PUSH2 0x3DA6 JUMP JUMPDEST DUP3 MSTORE POP POP JUMP JUMPDEST PUSH2 0x336B PUSH2 0x3366 DUP3 PUSH2 0x3C9A JUMP JUMPDEST PUSH2 0x3DB8 JUMP JUMPDEST DUP3 MSTORE POP POP JUMP JUMPDEST PUSH1 0x0 PUSH2 0x337C DUP3 PUSH2 0x3BCE JUMP JUMPDEST PUSH2 0x3386 DUP2 DUP6 PUSH2 0x3BF5 JUMP JUMPDEST SWAP4 POP PUSH2 0x3396 DUP2 DUP6 PUSH1 0x20 DUP7 ADD PUSH2 0x3D1F JUMP JUMPDEST DUP1 DUP5 ADD SWAP2 POP POP SWAP3 SWAP2 POP POP JUMP JUMPDEST PUSH2 0x33B3 PUSH2 0x33AE DUP3 PUSH2 0x3CB5 JUMP JUMPDEST PUSH2 0x3DDC JUMP JUMPDEST DUP3 MSTORE POP POP JUMP JUMPDEST PUSH2 0x33CA PUSH2 0x33C5 DUP3 PUSH2 0x3CA7 JUMP JUMPDEST PUSH2 0x3DCA JUMP JUMPDEST DUP3 MSTORE POP POP JUMP JUMPDEST PUSH2 0x33E1 PUSH2 0x33DC DUP3 PUSH2 0x3CD5 JUMP JUMPDEST PUSH2 0x3DEE JUMP JUMPDEST DUP3 MSTORE POP POP JUMP JUMPDEST PUSH2 0x33F8 PUSH2 0x33F3 DUP3 PUSH2 0x3CDF JUMP JUMPDEST PUSH2 0x3DF8 JUMP JUMPDEST DUP3 MSTORE POP POP JUMP JUMPDEST PUSH2 0x340F PUSH2 0x340A DUP3 PUSH2 0x3CEF JUMP JUMPDEST PUSH2 0x3E0A JUMP JUMPDEST DUP3 MSTORE POP POP JUMP JUMPDEST PUSH2 0x3426 PUSH2 0x3421 DUP3 PUSH2 0x3D03 JUMP JUMPDEST PUSH2 0x3E1C JUMP JUMPDEST DUP3 MSTORE POP POP JUMP JUMPDEST PUSH1 0x0 PUSH2 0x3438 DUP3 DUP5 PUSH2 0x324F JUMP JUMPDEST PUSH1 0x14 DUP3 ADD SWAP2 POP DUP2 SWAP1 POP SWAP3 SWAP2 POP POP JUMP JUMPDEST PUSH1 0x0 PUSH2 0x3453 DUP3 DUP5 PUSH2 0x3266 JUMP JUMPDEST PUSH1 0x1 DUP3 ADD SWAP2 POP DUP2 SWAP1 POP SWAP3 SWAP2 POP POP JUMP JUMPDEST PUSH1 0x0 PUSH2 0x346E DUP3 DUP5 PUSH2 0x3294 JUMP JUMPDEST PUSH1 0x14 DUP3 ADD SWAP2 POP DUP2 SWAP1 POP SWAP3 SWAP2 POP POP JUMP JUMPDEST PUSH1 0x0 PUSH2 0x3489 DUP3 DUP5 PUSH2 0x32AB JUMP JUMPDEST PUSH1 0x20 DUP3 ADD SWAP2 POP DUP2 SWAP1 POP SWAP3 SWAP2 POP POP JUMP JUMPDEST PUSH1 0x0 PUSH2 0x34A4 DUP3 DUP6 PUSH2 0x32FB JUMP JUMPDEST SWAP2 POP PUSH2 0x34B0 DUP3 DUP5 PUSH2 0x327D JUMP JUMPDEST PUSH1 0x1 DUP3 ADD SWAP2 POP DUP2 SWAP1 POP SWAP4 SWAP3 POP POP POP JUMP JUMPDEST PUSH1 0x0 PUSH2 0x34CC DUP3 DUP6 PUSH2 0x32FB JUMP JUMPDEST SWAP2 POP PUSH2 0x34D8 DUP3 DUP5 PUSH2 0x32FB JUMP JUMPDEST SWAP2 POP DUP2 SWAP1 POP SWAP4 SWAP3 POP POP POP JUMP JUMPDEST PUSH1 0x0 PUSH2 0x34F0 DUP3 DUP7 PUSH2 0x32FB JUMP JUMPDEST SWAP2 POP PUSH2 0x34FC DUP3 DUP6 PUSH2 0x32FB JUMP JUMPDEST SWAP2 POP PUSH2 0x3508 DUP3 DUP5 PUSH2 0x32FB JUMP JUMPDEST SWAP2 POP DUP2 SWAP1 POP SWAP5 SWAP4 POP POP POP POP JUMP JUMPDEST PUSH1 0x0 PUSH2 0x3521 DUP3 DUP9 PUSH2 0x32FB JUMP JUMPDEST SWAP2 POP PUSH2 0x352D DUP3 DUP8 PUSH2 0x32FB JUMP JUMPDEST SWAP2 POP PUSH2 0x3539 DUP3 DUP7 PUSH2 0x32FB JUMP JUMPDEST SWAP2 POP PUSH2 0x3545 DUP3 DUP6 PUSH2 0x32FB JUMP JUMPDEST SWAP2 POP PUSH2 0x3551 DUP3 DUP5 PUSH2 0x32FB JUMP JUMPDEST SWAP2 POP DUP2 SWAP1 POP SWAP7 SWAP6 POP POP POP POP POP POP JUMP JUMPDEST PUSH1 0x0 PUSH2 0x356C DUP3 DUP11 PUSH2 0x32FB JUMP JUMPDEST SWAP2 POP PUSH2 0x3578 DUP3 DUP10 PUSH2 0x32FB JUMP JUMPDEST SWAP2 POP PUSH2 0x3584 DUP3 DUP9 PUSH2 0x32FB JUMP JUMPDEST SWAP2 POP PUSH2 0x3590 DUP3 DUP8 PUSH2 0x32FB JUMP JUMPDEST SWAP2 POP PUSH2 0x359C DUP3 DUP7 PUSH2 0x32FB JUMP JUMPDEST SWAP2 POP PUSH2 0x35A8 DUP3 DUP6 PUSH2 0x32FB JUMP JUMPDEST SWAP2 POP PUSH2 0x35B4 DUP3 DUP5 PUSH2 0x32FB JUMP JUMPDEST SWAP2 POP DUP2 SWAP1 POP SWAP9 SWAP8 POP POP POP POP POP POP POP POP JUMP JUMPDEST PUSH1 0x0 PUSH2 0x35D1 DUP3 DUP12 PUSH2 0x32FB JUMP JUMPDEST SWAP2 POP PUSH2 0x35DD DUP3 DUP11 PUSH2 0x32FB JUMP JUMPDEST SWAP2 POP PUSH2 0x35E9 DUP3 DUP10 PUSH2 0x32FB JUMP JUMPDEST SWAP2 POP PUSH2 0x35F5 DUP3 DUP9 PUSH2 0x32FB JUMP JUMPDEST SWAP2 POP PUSH2 0x3601 DUP3 DUP8 PUSH2 0x32FB JUMP JUMPDEST SWAP2 POP PUSH2 0x360D DUP3 DUP7 PUSH2 0x32FB JUMP JUMPDEST SWAP2 POP PUSH2 0x3619 DUP3 DUP6 PUSH2 0x32FB JUMP JUMPDEST SWAP2 POP PUSH2 0x3625 DUP3 DUP5 PUSH2 0x327D JUMP JUMPDEST PUSH1 0x1 DUP3 ADD SWAP2 POP DUP2 SWAP1 POP SWAP10 SWAP9 POP POP POP POP POP POP POP POP POP JUMP JUMPDEST PUSH1 0x0 PUSH2 0x3647 DUP3 DUP12 PUSH2 0x32FB JUMP JUMPDEST SWAP2 POP PUSH2 0x3653 DUP3 DUP11 PUSH2 0x32FB JUMP JUMPDEST SWAP2 POP PUSH2 0x365F DUP3 DUP10 PUSH2 0x32FB JUMP JUMPDEST SWAP2 POP PUSH2 0x366B DUP3 DUP9 PUSH2 0x32FB JUMP JUMPDEST SWAP2 POP PUSH2 0x3677 DUP3 DUP8 PUSH2 0x32FB JUMP JUMPDEST SWAP2 POP PUSH2 0x3683 DUP3 DUP7 PUSH2 0x32FB JUMP JUMPDEST SWAP2 POP PUSH2 0x368F DUP3 DUP6 PUSH2 0x32FB JUMP JUMPDEST SWAP2 POP PUSH2 0x369B DUP3 DUP5 PUSH2 0x32FB JUMP JUMPDEST SWAP2 POP DUP2 SWAP1 POP SWAP10 SWAP9 POP POP POP POP POP POP POP POP POP JUMP JUMPDEST PUSH1 0x0 PUSH2 0x36B9 DUP3 DUP13 PUSH2 0x32FB JUMP JUMPDEST SWAP2 POP PUSH2 0x36C5 DUP3 DUP12 PUSH2 0x32FB JUMP JUMPDEST SWAP2 POP PUSH2 0x36D1 DUP3 DUP11 PUSH2 0x32FB JUMP JUMPDEST SWAP2 POP PUSH2 0x36DD DUP3 DUP10 PUSH2 0x32FB JUMP JUMPDEST SWAP2 POP PUSH2 0x36E9 DUP3 DUP9 PUSH2 0x32FB JUMP JUMPDEST SWAP2 POP PUSH2 0x36F5 DUP3 DUP8 PUSH2 0x32FB JUMP JUMPDEST SWAP2 POP PUSH2 0x3701 DUP3 DUP7 PUSH2 0x32FB JUMP JUMPDEST SWAP2 POP PUSH2 0x370D DUP3 DUP6 PUSH2 0x32FB JUMP JUMPDEST SWAP2 POP PUSH2 0x3719 DUP3 DUP5 PUSH2 0x32FB JUMP JUMPDEST SWAP2 POP DUP2 SWAP1 POP SWAP11 SWAP10 POP POP POP POP POP POP POP POP POP POP JUMP JUMPDEST PUSH1 0x0 PUSH2 0x3738 DUP3 DUP16 PUSH2 0x32FB JUMP JUMPDEST SWAP2 POP PUSH2 0x3744 DUP3 DUP15 PUSH2 0x32FB JUMP JUMPDEST SWAP2 POP PUSH2 0x3750 DUP3 DUP14 PUSH2 0x32FB JUMP JUMPDEST SWAP2 POP PUSH2 0x375C DUP3 DUP13 PUSH2 0x32FB JUMP JUMPDEST SWAP2 POP PUSH2 0x3768 DUP3 DUP12 PUSH2 0x32FB JUMP JUMPDEST SWAP2 POP PUSH2 0x3774 DUP3 DUP11 PUSH2 0x32FB JUMP JUMPDEST SWAP2 POP PUSH2 0x3780 DUP3 DUP10 PUSH2 0x32FB JUMP JUMPDEST SWAP2 POP PUSH2 0x378C DUP3 DUP9 PUSH2 0x32FB JUMP JUMPDEST SWAP2 POP PUSH2 0x3798 DUP3 DUP8 PUSH2 0x32FB JUMP JUMPDEST SWAP2 POP PUSH2 0x37A4 DUP3 DUP7 PUSH2 0x32FB JUMP JUMPDEST SWAP2 POP PUSH2 0x37B0 DUP3 DUP6 PUSH2 0x32FB JUMP JUMPDEST SWAP2 POP PUSH2 0x37BC DUP3 DUP5 PUSH2 0x32FB JUMP JUMPDEST SWAP2 POP DUP2 SWAP1 POP SWAP14 SWAP13 POP POP POP POP POP POP POP POP POP POP POP POP POP JUMP JUMPDEST PUSH1 0x0 PUSH2 0x37DE DUP3 DUP6 PUSH2 0x32FB JUMP JUMPDEST SWAP2 POP PUSH2 0x37EA DUP3 DUP5 PUSH2 0x3371 JUMP JUMPDEST SWAP2 POP DUP2 SWAP1 POP SWAP4 SWAP3 POP POP POP JUMP JUMPDEST PUSH1 0x0 PUSH2 0x3802 DUP3 DUP5 PUSH2 0x332C JUMP JUMPDEST PUSH1 0x2 DUP3 ADD SWAP2 POP DUP2 SWAP1 POP SWAP3 SWAP2 POP POP JUMP JUMPDEST PUSH1 0x0 PUSH2 0x381D DUP3 DUP5 PUSH2 0x3343 JUMP JUMPDEST PUSH1 0x4 DUP3 ADD SWAP2 POP DUP2 SWAP1 POP SWAP3 SWAP2 POP POP JUMP JUMPDEST PUSH1 0x0 PUSH2 0x3838 DUP3 DUP5 PUSH2 0x335A JUMP JUMPDEST PUSH1 0x8 DUP3 ADD SWAP2 POP DUP2 SWAP1 POP SWAP3 SWAP2 POP POP JUMP JUMPDEST PUSH1 0x0 PUSH2 0x3853 DUP3 DUP5 PUSH2 0x3371 JUMP JUMPDEST SWAP2 POP DUP2 SWAP1 POP SWAP3 SWAP2 POP POP JUMP JUMPDEST PUSH1 0x0 PUSH2 0x386A DUP3 DUP5 PUSH2 0x33A2 JUMP JUMPDEST PUSH1 0x14 DUP3 ADD SWAP2 POP DUP2 SWAP1 POP SWAP3 SWAP2 POP POP JUMP JUMPDEST PUSH1 0x0 PUSH2 0x3885 DUP3 DUP5 PUSH2 0x33B9 JUMP JUMPDEST PUSH1 0x2 DUP3 ADD SWAP2 POP DUP2 SWAP1 POP SWAP3 SWAP2 POP POP JUMP JUMPDEST PUSH1 0x0 PUSH2 0x38A0 DUP3 DUP5 PUSH2 0x33D0 JUMP JUMPDEST PUSH1 0x20 DUP3 ADD SWAP2 POP DUP2 SWAP1 POP SWAP3 SWAP2 POP POP JUMP JUMPDEST PUSH1 0x0 PUSH2 0x38BB DUP3 DUP5 PUSH2 0x33E7 JUMP JUMPDEST PUSH1 0x4 DUP3 ADD SWAP2 POP DUP2 SWAP1 POP SWAP3 SWAP2 POP POP JUMP JUMPDEST PUSH1 0x0 PUSH2 0x38D6 DUP3 DUP5 PUSH2 0x33FE JUMP JUMPDEST PUSH1 0x8 DUP3 ADD SWAP2 POP DUP2 SWAP1 POP SWAP3 SWAP2 POP POP JUMP JUMPDEST PUSH1 0x0 PUSH2 0x38F1 DUP3 DUP5 PUSH2 0x3415 JUMP JUMPDEST PUSH1 0x1 DUP3 ADD SWAP2 POP DUP2 SWAP1 POP SWAP3 SWAP2 POP POP JUMP JUMPDEST PUSH1 0x0 PUSH2 0x390C DUP3 DUP6 PUSH2 0x3415 JUMP JUMPDEST PUSH1 0x1 DUP3 ADD SWAP2 POP PUSH2 0x391C DUP3 DUP5 PUSH2 0x33B9 JUMP JUMPDEST PUSH1 0x2 DUP3 ADD SWAP2 POP DUP2 SWAP1 POP SWAP4 SWAP3 POP POP POP JUMP JUMPDEST PUSH1 0x0 PUSH2 0x3938 DUP3 DUP6 PUSH2 0x3415 JUMP JUMPDEST PUSH1 0x1 DUP3 ADD SWAP2 POP PUSH2 0x3948 DUP3 DUP5 PUSH2 0x33E7 JUMP JUMPDEST PUSH1 0x4 DUP3 ADD SWAP2 POP DUP2 SWAP1 POP SWAP4 SWAP3 POP POP POP JUMP JUMPDEST PUSH1 0x0 PUSH2 0x3964 DUP3 DUP6 PUSH2 0x3415 JUMP JUMPDEST PUSH1 0x1 DUP3 ADD SWAP2 POP PUSH2 0x3974 DUP3 DUP5 PUSH2 0x33FE JUMP JUMPDEST PUSH1 0x8 DUP3 ADD SWAP2 POP DUP2 SWAP1 POP SWAP4 SWAP3 POP POP POP JUMP JUMPDEST PUSH1 0x0 PUSH1 0x20 DUP3 ADD SWAP1 POP DUP2 DUP2 SUB PUSH1 0x0 DUP4 ADD MSTORE PUSH2 0x399E DUP2 DUP5 PUSH2 0x32C2 JUMP JUMPDEST SWAP1 POP SWAP3 SWAP2 POP POP JUMP JUMPDEST PUSH1 0x0 PUSH1 0x40 MLOAD SWAP1 POP DUP2 DUP2 ADD DUP2 DUP2 LT PUSH8 0xFFFFFFFFFFFFFFFF DUP3 GT OR ISZERO PUSH2 0x39CD JUMPI PUSH2 0x39CC PUSH2 0x3E2E JUMP JUMPDEST JUMPDEST DUP1 PUSH1 0x40 MSTORE POP SWAP2 SWAP1 POP JUMP JUMPDEST PUSH1 0x0 PUSH8 0xFFFFFFFFFFFFFFFF DUP3 GT ISZERO PUSH2 0x39F2 JUMPI PUSH2 0x39F1 PUSH2 0x3E2E JUMP JUMPDEST JUMPDEST PUSH1 0x20 DUP3 MUL SWAP1 POP PUSH1 0x20 DUP2 ADD SWAP1 POP SWAP2 SWAP1 POP JUMP JUMPDEST PUSH1 0x0 PUSH8 0xFFFFFFFFFFFFFFFF DUP3 GT ISZERO PUSH2 0x3A1E JUMPI PUSH2 0x3A1D PUSH2 0x3E2E JUMP JUMPDEST JUMPDEST PUSH1 0x20 DUP3 MUL SWAP1 POP PUSH1 0x20 DUP2 ADD SWAP1 POP SWAP2 SWAP1 POP JUMP JUMPDEST PUSH1 0x0 PUSH8 0xFFFFFFFFFFFFFFFF DUP3 GT ISZERO PUSH2 0x3A4A JUMPI PUSH2 0x3A49 PUSH2 0x3E2E JUMP JUMPDEST JUMPDEST PUSH1 0x20 DUP3 MUL SWAP1 POP PUSH1 0x20 DUP2 ADD SWAP1 POP SWAP2 SWAP1 POP JUMP JUMPDEST PUSH1 0x0 PUSH8 0xFFFFFFFFFFFFFFFF DUP3 GT ISZERO PUSH2 0x3A76 JUMPI PUSH2 0x3A75 PUSH2 0x3E2E JUMP JUMPDEST JUMPDEST PUSH1 0x20 DUP3 MUL SWAP1 POP PUSH1 0x20 DUP2 ADD SWAP1 POP SWAP2 SWAP1 POP JUMP JUMPDEST PUSH1 0x0 PUSH8 0xFFFFFFFFFFFFFFFF DUP3 GT ISZERO PUSH2 0x3AA2 JUMPI PUSH2 0x3AA1 PUSH2 0x3E2E JUMP JUMPDEST JUMPDEST PUSH1 0x20 DUP3 MUL SWAP1 POP PUSH1 0x20 DUP2 ADD SWAP1 POP SWAP2 SWAP1 POP JUMP JUMPDEST PUSH1 0x0 PUSH8 0xFFFFFFFFFFFFFFFF DUP3 GT ISZERO PUSH2 0x3ACE JUMPI PUSH2 0x3ACD PUSH2 0x3E2E JUMP JUMPDEST JUMPDEST PUSH1 0x20 DUP3 MUL SWAP1 POP PUSH1 0x20 DUP2 ADD SWAP1 POP SWAP2 SWAP1 POP JUMP JUMPDEST PUSH1 0x0 PUSH8 0xFFFFFFFFFFFFFFFF DUP3 GT ISZERO PUSH2 0x3AFA JUMPI PUSH2 0x3AF9 PUSH2 0x3E2E JUMP JUMPDEST JUMPDEST PUSH1 0x20 DUP3 MUL SWAP1 POP PUSH1 0x20 DUP2 ADD SWAP1 POP SWAP2 SWAP1 POP JUMP JUMPDEST PUSH1 0x0 PUSH8 0xFFFFFFFFFFFFFFFF DUP3 GT ISZERO PUSH2 0x3B26 JUMPI PUSH2 0x3B25 PUSH2 0x3E2E JUMP JUMPDEST JUMPDEST PUSH1 0x20 DUP3 MUL SWAP1 POP PUSH1 0x20 DUP2 ADD SWAP1 POP SWAP2 SWAP1 POP JUMP JUMPDEST PUSH1 0x0 PUSH8 0xFFFFFFFFFFFFFFFF DUP3 GT ISZERO PUSH2 0x3B52 JUMPI PUSH2 0x3B51 PUSH2 0x3E2E JUMP JUMPDEST JUMPDEST PUSH1 0x20 DUP3 MUL SWAP1 POP PUSH1 0x20 DUP2 ADD SWAP1 POP SWAP2 SWAP1 POP JUMP JUMPDEST PUSH1 0x0 PUSH8 0xFFFFFFFFFFFFFFFF DUP3 GT ISZERO PUSH2 0x3B7E JUMPI PUSH2 0x3B7D PUSH2 0x3E2E JUMP JUMPDEST JUMPDEST PUSH1 0x1F NOT PUSH1 0x1F DUP4 ADD AND SWAP1 POP PUSH1 0x20 DUP2 ADD SWAP1 POP SWAP2 SWAP1 POP JUMP JUMPDEST PUSH1 0x0 PUSH8 0xFFFFFFFFFFFFFFFF DUP3 GT ISZERO PUSH2 0x3BAE JUMPI PUSH2 0x3BAD PUSH2 0x3E2E JUMP JUMPDEST JUMPDEST PUSH1 0x1F NOT PUSH1 0x1F DUP4 ADD AND SWAP1 POP PUSH1 0x20 DUP2 ADD SWAP1 POP SWAP2 SWAP1 POP JUMP JUMPDEST PUSH1 0x0 DUP2 MLOAD SWAP1 POP SWAP2 SWAP1 POP JUMP JUMPDEST PUSH1 0x0 DUP2 MLOAD SWAP1 POP SWAP2 SWAP1 POP JUMP JUMPDEST PUSH1 0x0 DUP3 DUP3 MSTORE PUSH1 0x20 DUP3 ADD SWAP1 POP SWAP3 SWAP2 POP POP JUMP JUMPDEST PUSH1 0x0 DUP2 SWAP1 POP SWAP3 SWAP2 POP POP JUMP JUMPDEST PUSH1 0x0 DUP2 SWAP1 POP SWAP3 SWAP2 POP POP JUMP JUMPDEST PUSH1 0x0 PUSH2 0x3C0B DUP3 PUSH2 0x3CB5 JUMP JUMPDEST SWAP1 POP SWAP2 SWAP1 POP JUMP JUMPDEST PUSH1 0x0 DUP2 ISZERO ISZERO SWAP1 POP SWAP2 SWAP1 POP JUMP JUMPDEST PUSH1 0x0 PUSH32 0xFF00000000000000000000000000000000000000000000000000000000000000 DUP3 AND SWAP1 POP SWAP2 SWAP1 POP JUMP JUMPDEST PUSH1 0x0 PUSH32 0xFFFFFFFFFFFFFFFFFFFFFFFFFFFFFFFFFFFFFFFF000000000000000000000000 DUP3 AND SWAP1 POP SWAP2 SWAP1 POP JUMP JUMPDEST PUSH1 0x0 DUP2 SWAP1 POP SWAP2 SWAP1 POP JUMP JUMPDEST PUSH1 0x0 DUP2 PUSH1 0x1 SIGNEXTEND SWAP1 POP SWAP2 SWAP1 POP JUMP JUMPDEST PUSH1 0x0 DUP2 PUSH1 0x3 SIGNEXTEND SWAP1 POP SWAP2 SWAP1 POP JUMP JUMPDEST PUSH1 0x0 DUP2 PUSH1 0x7 SIGNEXTEND SWAP1 POP SWAP2 SWAP1 POP JUMP JUMPDEST PUSH1 0x0 PUSH2 0xFFFF DUP3 AND SWAP1 POP SWAP2 SWAP1 POP JUMP JUMPDEST PUSH1 0x0 PUSH20 0xFFFFFFFFFFFFFFFFFFFFFFFFFFFFFFFFFFFFFFFF DUP3 AND SWAP1 POP SWAP2 SWAP1 POP JUMP JUMPDEST PUSH1 0x0 DUP2 SWAP1 POP SWAP2 SWAP1 POP JUMP JUMPDEST PUSH1 0x0 PUSH4 0xFFFFFFFF DUP3 AND SWAP1 POP SWAP2 SWAP1 POP JUMP JUMPDEST PUSH1 0x0 PUSH8 0xFFFFFFFFFFFFFFFF DUP3 AND SWAP1 POP SWAP2 SWAP1 POP JUMP JUMPDEST PUSH1 0x0 PUSH1 0xFF DUP3 AND SWAP1 POP SWAP2 SWAP1 POP JUMP JUMPDEST DUP3 DUP2 DUP4 CALLDATACOPY PUSH1 0x0 DUP4 DUP4 ADD MSTORE POP POP POP JUMP JUMPDEST PUSH1 0x0 JUMPDEST DUP4 DUP2 LT ISZERO PUSH2 0x3D3D JUMPI DUP1 DUP3 ADD MLOAD DUP2 DUP5 ADD MSTORE PUSH1 0x20 DUP2 ADD SWAP1 POP PUSH2 0x3D22 JUMP JUMPDEST DUP4 DUP2 GT ISZERO PUSH2 0x3D4C JUMPI PUSH1 0x0 DUP5 DUP5 ADD MSTORE JUMPDEST POP POP POP POP JUMP JUMPDEST PUSH1 0x0 PUSH2 0x3D5D DUP3 PUSH2 0x3DDC JUMP JUMPDEST SWAP1 POP SWAP2 SWAP1 POP JUMP JUMPDEST PUSH1 0x0 PUSH2 0x3D6F DUP3 PUSH2 0x3E1C JUMP JUMPDEST SWAP1 POP SWAP2 SWAP1 POP JUMP JUMPDEST PUSH1 0x0 DUP2 SWAP1 POP SWAP2 SWAP1 POP JUMP JUMPDEST PUSH1 0x0 DUP2 SWAP1 POP SWAP2 SWAP1 POP JUMP JUMPDEST PUSH1 0x0 DUP2 SWAP1 POP SWAP2 SWAP1 POP JUMP JUMPDEST PUSH1 0x0 PUSH2 0x3D9F DUP3 PUSH2 0x3E5B JUMP JUMPDEST SWAP1 POP SWAP2 SWAP1 POP JUMP JUMPDEST PUSH1 0x0 PUSH2 0x3DB1 DUP3 PUSH2 0x3E4E JUMP JUMPDEST SWAP1 POP SWAP2 SWAP1 POP JUMP JUMPDEST PUSH1 0x0 PUSH2 0x3DC3 DUP3 PUSH2 0x3E41 JUMP JUMPDEST SWAP1 POP SWAP2 SWAP1 POP JUMP JUMPDEST PUSH1 0x0 PUSH2 0x3DD5 DUP3 PUSH2 0x3E5B JUMP JUMPDEST SWAP1 POP SWAP2 SWAP1 POP JUMP JUMPDEST PUSH1 0x0 PUSH2 0x3DE7 DUP3 PUSH2 0x3E75 JUMP JUMPDEST SWAP1 POP SWAP2 SWAP1 POP JUMP JUMPDEST PUSH1 0x0 DUP2 SWAP1 POP SWAP2 SWAP1 POP JUMP JUMPDEST PUSH1 0x0 PUSH2 0x3E03 DUP3 PUSH2 0x3E4E JUMP JUMPDEST SWAP1 POP SWAP2 SWAP1 POP JUMP JUMPDEST PUSH1 0x0 PUSH2 0x3E15 DUP3 PUSH2 0x3E41 JUMP JUMPDEST SWAP1 POP SWAP2 SWAP1 POP JUMP JUMPDEST PUSH1 0x0 PUSH2 0x3E27 DUP3 PUSH2 0x3E68 JUMP JUMPDEST SWAP1 POP SWAP2 SWAP1 POP JUMP JUMPDEST INVALID JUMPDEST PUSH1 0x0 PUSH1 0x1F NOT PUSH1 0x1F DUP4 ADD AND SWAP1 POP SWAP2 SWAP1 POP JUMP JUMPDEST PUSH1 0x0 DUP2 PUSH1 0xC0 SHL SWAP1 POP SWAP2 SWAP1 POP JUMP JUMPDEST PUSH1 0x0 DUP2 PUSH1 0xE0 SHL SWAP1 POP SWAP2 SWAP1 POP JUMP JUMPDEST PUSH1 0x0 DUP2 PUSH1 0xF0 SHL SWAP1 POP SWAP2 SWAP1 POP JUMP JUMPDEST PUSH1 0x0 DUP2 PUSH1 0xF8 SHL SWAP1 POP SWAP2 SWAP1 POP JUMP JUMPDEST PUSH1 0x0 DUP2 PUSH1 0x60 SHL SWAP1 POP SWAP2 SWAP1 POP JUMP JUMPDEST PUSH2 0x3E8B DUP2 PUSH2 0x3C00 JUMP JUMPDEST DUP2 EQ PUSH2 0x3E96 JUMPI PUSH1 0x0 DUP1 REVERT JUMPDEST POP JUMP JUMPDEST PUSH2 0x3EA2 DUP2 PUSH2 0x3C12 JUMP JUMPDEST DUP2 EQ PUSH2 0x3EAD JUMPI PUSH1 0x0 DUP1 REVERT JUMPDEST POP JUMP JUMPDEST PUSH2 0x3EB9 DUP2 PUSH2 0x3C4A JUMP JUMPDEST DUP2 EQ PUSH2 0x3EC4 JUMPI PUSH1 0x0 DUP1 REVERT JUMPDEST POP JUMP JUMPDEST PUSH2 0x3ED0 DUP2 PUSH2 0x3C76 JUMP JUMPDEST DUP2 EQ PUSH2 0x3EDB JUMPI PUSH1 0x0 DUP1 REVERT JUMPDEST POP JUMP JUMPDEST PUSH2 0x3EE7 DUP2 PUSH2 0x3C80 JUMP JUMPDEST DUP2 EQ PUSH2 0x3EF2 JUMPI PUSH1 0x0 DUP1 REVERT JUMPDEST POP JUMP JUMPDEST PUSH2 0x3EFE DUP2 PUSH2 0x3C8D JUMP JUMPDEST DUP2 EQ PUSH2 0x3F09 JUMPI PUSH1 0x0 DUP1 REVERT JUMPDEST POP JUMP JUMPDEST PUSH2 0x3F15 DUP2 PUSH2 0x3C9A JUMP JUMPDEST DUP2 EQ PUSH2 0x3F20 JUMPI PUSH1 0x0 DUP1 REVERT JUMPDEST POP JUMP JUMPDEST PUSH2 0x3F2C DUP2 PUSH2 0x3CA7 JUMP JUMPDEST DUP2 EQ PUSH2 0x3F37 JUMPI PUSH1 0x0 DUP1 REVERT JUMPDEST POP JUMP JUMPDEST PUSH2 0x3F43 DUP2 PUSH2 0x3CB5 JUMP JUMPDEST DUP2 EQ PUSH2 0x3F4E JUMPI PUSH1 0x0 DUP1 REVERT JUMPDEST POP JUMP JUMPDEST PUSH2 0x3F5A DUP2 PUSH2 0x3CD5 JUMP JUMPDEST DUP2 EQ PUSH2 0x3F65 JUMPI PUSH1 0x0 DUP1 REVERT JUMPDEST POP JUMP JUMPDEST PUSH2 0x3F71 DUP2 PUSH2 0x3CDF JUMP JUMPDEST DUP2 EQ PUSH2 0x3F7C JUMPI PUSH1 0x0 DUP1 REVERT JUMPDEST POP JUMP JUMPDEST PUSH2 0x3F88 DUP2 PUSH2 0x3CEF JUMP JUMPDEST DUP2 EQ PUSH2 0x3F93 JUMPI PUSH1 0x0 DUP1 REVERT JUMPDEST POP JUMP JUMPDEST PUSH2 0x3F9F DUP2 PUSH2 0x3D03 JUMP JUMPDEST DUP2 EQ PUSH2 0x3FAA JUMPI PUSH1 0x0 DUP1 REVERT JUMPDEST POP JUMP INVALID LOG2 PUSH5 0x6970667358 0x22 SLT KECCAK256 OR 0x5E DUP1 SWAP3 KECCAK256 0xFC BYTE 0xE3 PUSH14 0x5190E916A9FE65B676A9DF2DB8DE RETURNDATASIZE EXP GASLIMIT 0x2F 0xB5 0xC1 SWAP16 MLOAD 0x2C PUSH5 0x736F6C6343 STOP SMOD MOD STOP CALLER "
		},
		"gasEstimates": {
			"creation": {
				"codeDepositCost": "3271000",
				"executionCost": "3635",
				"totalCost": "3274635"
			},
			"external": {
				"flipArray(bytes)": "infinite",
				"serializeAddress(address)": "infinite",
				"serializeBool(bool)": "infinite",
				"serializeBytes20(bytes20)": "infinite",
				"serializeBytes32(bytes32)": "infinite",
				"serializeCCoinbaseCurrencyState((uint16,uint16,address,uint160[],int32[],int64[],int64,int64,int64,int64,int64,int64,int64,int64[],int64[],int64[],int64[],int64[],int64[],int32[],int64[]))": "infinite",
				"serializeCCrossChainExport((uint16,uint16,address,uint32,uint32,address,address,uint32,(address,uint64)[],(address,uint64)[],bytes32,(address,uint64)[],(uint8,address),int32))": "infinite",
				"serializeCCurrencyValueMap((address,uint64))": "infinite",
				"serializeCCurrencyValueMaps((address,uint64)[])": "infinite",
				"serializeCNodeData((string,address))": "infinite",
				"serializeCPBaaSNotarization((uint32,uint32,(uint8,address),address,(uint16,uint16,address,uint160[],int32[],int64[],int64,int64,int64,int64,int64,int64,int64,int64[],int64[],int64[],int64[],int64[],int64[],int32[],int64[]),uint32,(bytes32,uint32),bytes32,uint32,(address,(uint16,uint16,address,uint160[],int32[],int64[],int64,int64,int64,int64,int64,int64,int64,int64[],int64[],int64[],int64[],int64[],int64[],int32[],int64[]))[],(int16,int16,address,uint32,bytes32,bytes32,bytes32)[],(string,address)[]))": "infinite",
				"serializeCProofRoot((int16,int16,address,uint32,bytes32,bytes32,bytes32))": "infinite",
				"serializeCProofRootArray((int16,int16,address,uint32,bytes32,bytes32,bytes32)[])": "infinite",
				"serializeCReserveTransfer((uint32,(address,uint64),uint32,address,uint256,(uint8,address),address,address,address))": "infinite",
				"serializeCReserveTransfers((uint32,(address,uint64),uint32,address,uint256,(uint8,address),address,address,address)[],bool)": "infinite",
				"serializeCTransferDestination((uint8,address))": "infinite",
				"serializeCUTXORef((bytes32,uint32))": "infinite",
				"serializeCurrencyStates((address,(uint16,uint16,address,uint160[],int32[],int64[],int64,int64,int64,int64,int64,int64,int64,int64[],int64[],int64[],int64[],int64[],int64[],int32[],int64[])))": "infinite",
				"serializeCurrencyStatesArray((address,(uint16,uint16,address,uint160[],int32[],int64[],int64,int64,int64,int64,int64,int64,int64,int64[],int64[],int64[],int64[],int64[],int64[],int32[],int64[]))[])": "infinite",
				"serializeInt16(int16)": "infinite",
				"serializeInt32(int32)": "infinite",
				"serializeInt32Array(int32[])": "infinite",
				"serializeInt64(int64)": "infinite",
				"serializeInt64Array(int64[])": "infinite",
				"serializeNodes((string,address)[])": "infinite",
				"serializeProofRoots((address,(int16,int16,address,uint32,bytes32,bytes32,bytes32)))": "infinite",
				"serializeProofRootsArray((address,(int16,int16,address,uint32,bytes32,bytes32,bytes32))[])": "infinite",
				"serializeString(string)": "infinite",
				"serializeUint16(uint16)": "infinite",
				"serializeUint160Array(uint160[])": "infinite",
				"serializeUint256(uint256)": "infinite",
				"serializeUint32(uint32)": "infinite",
				"serializeUint64(uint64)": "infinite",
				"serializeUint8(uint8)": "infinite",
				"verusHashPrefix(string,address,int64,address,bytes)": "infinite",
				"writeCompactSize(uint256)": "infinite",
				"writeVarInt(uint256)": "infinite"
			}
		},
		"methodIdentifiers": {
			"flipArray(bytes)": "1222d81a",
			"serializeAddress(address)": "241d23b2",
			"serializeBool(bool)": "009c8152",
			"serializeBytes20(bytes20)": "463276c3",
			"serializeBytes32(bytes32)": "b9f7f35a",
			"serializeCCoinbaseCurrencyState((uint16,uint16,address,uint160[],int32[],int64[],int64,int64,int64,int64,int64,int64,int64,int64[],int64[],int64[],int64[],int64[],int64[],int32[],int64[]))": "0a803a86",
			"serializeCCrossChainExport((uint16,uint16,address,uint32,uint32,address,address,uint32,(address,uint64)[],(address,uint64)[],bytes32,(address,uint64)[],(uint8,address),int32))": "343bee60",
			"serializeCCurrencyValueMap((address,uint64))": "cfa84de9",
			"serializeCCurrencyValueMaps((address,uint64)[])": "941bb060",
			"serializeCNodeData((string,address))": "44c789d1",
			"serializeCPBaaSNotarization((uint32,uint32,(uint8,address),address,(uint16,uint16,address,uint160[],int32[],int64[],int64,int64,int64,int64,int64,int64,int64,int64[],int64[],int64[],int64[],int64[],int64[],int32[],int64[]),uint32,(bytes32,uint32),bytes32,uint32,(address,(uint16,uint16,address,uint160[],int32[],int64[],int64,int64,int64,int64,int64,int64,int64,int64[],int64[],int64[],int64[],int64[],int64[],int32[],int64[]))[],(int16,int16,address,uint32,bytes32,bytes32,bytes32)[],(string,address)[]))": "892e2937",
			"serializeCProofRoot((int16,int16,address,uint32,bytes32,bytes32,bytes32))": "18c9bbfd",
			"serializeCProofRootArray((int16,int16,address,uint32,bytes32,bytes32,bytes32)[])": "a412bb29",
			"serializeCReserveTransfer((uint32,(address,uint64),uint32,address,uint256,(uint8,address),address,address,address))": "3b945374",
			"serializeCReserveTransfers((uint32,(address,uint64),uint32,address,uint256,(uint8,address),address,address,address)[],bool)": "2a4edd70",
			"serializeCTransferDestination((uint8,address))": "df61a937",
			"serializeCUTXORef((bytes32,uint32))": "1c356532",
			"serializeCurrencyStates((address,(uint16,uint16,address,uint160[],int32[],int64[],int64,int64,int64,int64,int64,int64,int64,int64[],int64[],int64[],int64[],int64[],int64[],int32[],int64[])))": "e0671111",
			"serializeCurrencyStatesArray((address,(uint16,uint16,address,uint160[],int32[],int64[],int64,int64,int64,int64,int64,int64,int64,int64[],int64[],int64[],int64[],int64[],int64[],int32[],int64[]))[])": "200f6c2a",
			"serializeInt16(int16)": "46256007",
			"serializeInt32(int32)": "fef5906a",
			"serializeInt32Array(int32[])": "9d487b47",
			"serializeInt64(int64)": "af832f09",
			"serializeInt64Array(int64[])": "f8217295",
			"serializeNodes((string,address)[])": "049e3490",
			"serializeProofRoots((address,(int16,int16,address,uint32,bytes32,bytes32,bytes32)))": "33c45ab9",
			"serializeProofRootsArray((address,(int16,int16,address,uint32,bytes32,bytes32,bytes32))[])": "7b92bd28",
			"serializeString(string)": "68b4ae81",
			"serializeUint16(uint16)": "e4cba547",
			"serializeUint160Array(uint160[])": "19a7c17b",
			"serializeUint256(uint256)": "f20fb830",
			"serializeUint32(uint32)": "cecb3043",
			"serializeUint64(uint64)": "122e5ae7",
			"serializeUint8(uint8)": "6127b4ff",
			"verusHashPrefix(string,address,int64,address,bytes)": "c93e58c8",
			"writeCompactSize(uint256)": "dad935a1",
			"writeVarInt(uint256)": "b3a895f6"
		}
	},
	"abi": [
		{
			"inputs": [
				{
					"internalType": "bytes",
					"name": "incoming",
					"type": "bytes"
				}
			],
			"name": "flipArray",
			"outputs": [
				{
					"internalType": "bytes",
					"name": "",
					"type": "bytes"
				}
			],
			"stateMutability": "pure",
			"type": "function"
		},
		{
			"inputs": [
				{
					"internalType": "address",
					"name": "number",
					"type": "address"
				}
			],
			"name": "serializeAddress",
			"outputs": [
				{
					"internalType": "bytes",
					"name": "",
					"type": "bytes"
				}
			],
			"stateMutability": "pure",
			"type": "function"
		},
		{
			"inputs": [
				{
					"internalType": "bool",
					"name": "anyBool",
					"type": "bool"
				}
			],
			"name": "serializeBool",
			"outputs": [
				{
					"internalType": "bytes",
					"name": "",
					"type": "bytes"
				}
			],
			"stateMutability": "pure",
			"type": "function"
		},
		{
			"inputs": [
				{
					"internalType": "bytes20",
					"name": "anyBytes20",
					"type": "bytes20"
				}
			],
			"name": "serializeBytes20",
			"outputs": [
				{
					"internalType": "bytes",
					"name": "",
					"type": "bytes"
				}
			],
			"stateMutability": "pure",
			"type": "function"
		},
		{
			"inputs": [
				{
					"internalType": "bytes32",
					"name": "anyBytes32",
					"type": "bytes32"
				}
			],
			"name": "serializeBytes32",
			"outputs": [
				{
					"internalType": "bytes",
					"name": "",
					"type": "bytes"
				}
			],
			"stateMutability": "pure",
			"type": "function"
		},
		{
			"inputs": [
				{
					"components": [
						{
							"internalType": "uint16",
							"name": "version",
							"type": "uint16"
						},
						{
							"internalType": "uint16",
							"name": "flags",
							"type": "uint16"
						},
						{
							"internalType": "address",
							"name": "currencyid",
							"type": "address"
						},
						{
							"internalType": "uint160[]",
							"name": "currencies",
							"type": "uint160[]"
						},
						{
							"internalType": "int32[]",
							"name": "weights",
							"type": "int32[]"
						},
						{
							"internalType": "int64[]",
							"name": "reserves",
							"type": "int64[]"
						},
						{
							"internalType": "int64",
							"name": "initialsupply",
							"type": "int64"
						},
						{
							"internalType": "int64",
							"name": "emitted",
							"type": "int64"
						},
						{
							"internalType": "int64",
							"name": "supply",
							"type": "int64"
						},
						{
							"internalType": "int64",
							"name": "primarycurrencyout",
							"type": "int64"
						},
						{
							"internalType": "int64",
							"name": "preconvertedout",
							"type": "int64"
						},
						{
							"internalType": "int64",
							"name": "primarycurrencyfees",
							"type": "int64"
						},
						{
							"internalType": "int64",
							"name": "primarycurrencyconversionfees",
							"type": "int64"
						},
						{
							"internalType": "int64[]",
							"name": "reservein",
							"type": "int64[]"
						},
						{
							"internalType": "int64[]",
							"name": "primarycurrencyin",
							"type": "int64[]"
						},
						{
							"internalType": "int64[]",
							"name": "reserveout",
							"type": "int64[]"
						},
						{
							"internalType": "int64[]",
							"name": "conversionprice",
							"type": "int64[]"
						},
						{
							"internalType": "int64[]",
							"name": "viaconversionprice",
							"type": "int64[]"
						},
						{
							"internalType": "int64[]",
							"name": "fees",
							"type": "int64[]"
						},
						{
							"internalType": "int32[]",
							"name": "priorweights",
							"type": "int32[]"
						},
						{
							"internalType": "int64[]",
							"name": "conversionfees",
							"type": "int64[]"
						}
					],
					"internalType": "struct VerusObjectsNotarization.CCoinbaseCurrencyState",
					"name": "_cccs",
					"type": "tuple"
				}
			],
			"name": "serializeCCoinbaseCurrencyState",
			"outputs": [
				{
					"internalType": "bytes",
					"name": "",
					"type": "bytes"
				}
			],
			"stateMutability": "pure",
			"type": "function"
		},
		{
			"inputs": [
				{
					"components": [
						{
							"internalType": "uint16",
							"name": "version",
							"type": "uint16"
						},
						{
							"internalType": "uint16",
							"name": "flags",
							"type": "uint16"
						},
						{
							"internalType": "address",
							"name": "sourcesystemid",
							"type": "address"
						},
						{
							"internalType": "uint32",
							"name": "sourceheightstart",
							"type": "uint32"
						},
						{
							"internalType": "uint32",
							"name": "sourceheightend",
							"type": "uint32"
						},
						{
							"internalType": "address",
							"name": "destinationsystemid",
							"type": "address"
						},
						{
							"internalType": "address",
							"name": "destinationcurrencyid",
							"type": "address"
						},
						{
							"internalType": "uint32",
							"name": "numinputs",
							"type": "uint32"
						},
						{
							"components": [
								{
									"internalType": "address",
									"name": "currency",
									"type": "address"
								},
								{
									"internalType": "uint64",
									"name": "amount",
									"type": "uint64"
								}
							],
							"internalType": "struct VerusObjects.CCurrencyValueMap[]",
							"name": "totalamounts",
							"type": "tuple[]"
						},
						{
							"components": [
								{
									"internalType": "address",
									"name": "currency",
									"type": "address"
								},
								{
									"internalType": "uint64",
									"name": "amount",
									"type": "uint64"
								}
							],
							"internalType": "struct VerusObjects.CCurrencyValueMap[]",
							"name": "totalfees",
							"type": "tuple[]"
						},
						{
							"internalType": "bytes32",
							"name": "hashtransfers",
							"type": "bytes32"
						},
						{
							"components": [
								{
									"internalType": "address",
									"name": "currency",
									"type": "address"
								},
								{
									"internalType": "uint64",
									"name": "amount",
									"type": "uint64"
								}
							],
							"internalType": "struct VerusObjects.CCurrencyValueMap[]",
							"name": "totalburned",
							"type": "tuple[]"
						},
						{
							"components": [
								{
									"internalType": "uint8",
									"name": "destinationtype",
									"type": "uint8"
								},
								{
									"internalType": "address",
									"name": "destinationaddress",
									"type": "address"
								}
							],
							"internalType": "struct VerusObjectsCommon.CTransferDestination",
							"name": "rewardaddress",
							"type": "tuple"
						},
						{
							"internalType": "int32",
							"name": "firstinput",
							"type": "int32"
						}
					],
					"internalType": "struct VerusObjects.CCrossChainExport",
					"name": "_ccce",
					"type": "tuple"
				}
			],
			"name": "serializeCCrossChainExport",
			"outputs": [
				{
					"internalType": "bytes",
					"name": "",
					"type": "bytes"
				}
			],
			"stateMutability": "pure",
			"type": "function"
		},
		{
			"inputs": [
				{
					"components": [
						{
							"internalType": "address",
							"name": "currency",
							"type": "address"
						},
						{
							"internalType": "uint64",
							"name": "amount",
							"type": "uint64"
						}
					],
					"internalType": "struct VerusObjects.CCurrencyValueMap",
					"name": "_ccvm",
					"type": "tuple"
				}
			],
			"name": "serializeCCurrencyValueMap",
			"outputs": [
				{
					"internalType": "bytes",
					"name": "",
					"type": "bytes"
				}
			],
			"stateMutability": "pure",
			"type": "function"
		},
		{
			"inputs": [
				{
					"components": [
						{
							"internalType": "address",
							"name": "currency",
							"type": "address"
						},
						{
							"internalType": "uint64",
							"name": "amount",
							"type": "uint64"
						}
					],
					"internalType": "struct VerusObjects.CCurrencyValueMap[]",
					"name": "_ccvms",
					"type": "tuple[]"
				}
			],
			"name": "serializeCCurrencyValueMaps",
			"outputs": [
				{
					"internalType": "bytes",
					"name": "",
					"type": "bytes"
				}
			],
			"stateMutability": "pure",
			"type": "function"
		},
		{
			"inputs": [
				{
					"components": [
						{
							"internalType": "string",
							"name": "networkaddress",
							"type": "string"
						},
						{
							"internalType": "address",
							"name": "nodeidentity",
							"type": "address"
						}
					],
					"internalType": "struct VerusObjectsNotarization.CNodeData",
					"name": "_cnd",
					"type": "tuple"
				}
			],
			"name": "serializeCNodeData",
			"outputs": [
				{
					"internalType": "bytes",
					"name": "",
					"type": "bytes"
				}
			],
			"stateMutability": "pure",
			"type": "function"
		},
		{
			"inputs": [
				{
					"components": [
						{
							"internalType": "uint32",
							"name": "version",
							"type": "uint32"
						},
						{
							"internalType": "uint32",
							"name": "flags",
							"type": "uint32"
						},
						{
							"components": [
								{
									"internalType": "uint8",
									"name": "destinationtype",
									"type": "uint8"
								},
								{
									"internalType": "address",
									"name": "destinationaddress",
									"type": "address"
								}
							],
							"internalType": "struct VerusObjectsCommon.CTransferDestination",
							"name": "proposer",
							"type": "tuple"
						},
						{
							"internalType": "address",
							"name": "currencyid",
							"type": "address"
						},
						{
							"components": [
								{
									"internalType": "uint16",
									"name": "version",
									"type": "uint16"
								},
								{
									"internalType": "uint16",
									"name": "flags",
									"type": "uint16"
								},
								{
									"internalType": "address",
									"name": "currencyid",
									"type": "address"
								},
								{
									"internalType": "uint160[]",
									"name": "currencies",
									"type": "uint160[]"
								},
								{
									"internalType": "int32[]",
									"name": "weights",
									"type": "int32[]"
								},
								{
									"internalType": "int64[]",
									"name": "reserves",
									"type": "int64[]"
								},
								{
									"internalType": "int64",
									"name": "initialsupply",
									"type": "int64"
								},
								{
									"internalType": "int64",
									"name": "emitted",
									"type": "int64"
								},
								{
									"internalType": "int64",
									"name": "supply",
									"type": "int64"
								},
								{
									"internalType": "int64",
									"name": "primarycurrencyout",
									"type": "int64"
								},
								{
									"internalType": "int64",
									"name": "preconvertedout",
									"type": "int64"
								},
								{
									"internalType": "int64",
									"name": "primarycurrencyfees",
									"type": "int64"
								},
								{
									"internalType": "int64",
									"name": "primarycurrencyconversionfees",
									"type": "int64"
								},
								{
									"internalType": "int64[]",
									"name": "reservein",
									"type": "int64[]"
								},
								{
									"internalType": "int64[]",
									"name": "primarycurrencyin",
									"type": "int64[]"
								},
								{
									"internalType": "int64[]",
									"name": "reserveout",
									"type": "int64[]"
								},
								{
									"internalType": "int64[]",
									"name": "conversionprice",
									"type": "int64[]"
								},
								{
									"internalType": "int64[]",
									"name": "viaconversionprice",
									"type": "int64[]"
								},
								{
									"internalType": "int64[]",
									"name": "fees",
									"type": "int64[]"
								},
								{
									"internalType": "int32[]",
									"name": "priorweights",
									"type": "int32[]"
								},
								{
									"internalType": "int64[]",
									"name": "conversionfees",
									"type": "int64[]"
								}
							],
							"internalType": "struct VerusObjectsNotarization.CCoinbaseCurrencyState",
							"name": "currencystate",
							"type": "tuple"
						},
						{
							"internalType": "uint32",
							"name": "notarizationheight",
							"type": "uint32"
						},
						{
							"components": [
								{
									"internalType": "bytes32",
									"name": "hash",
									"type": "bytes32"
								},
								{
									"internalType": "uint32",
									"name": "n",
									"type": "uint32"
								}
							],
							"internalType": "struct VerusObjectsNotarization.CUTXORef",
							"name": "prevnotarization",
							"type": "tuple"
						},
						{
							"internalType": "bytes32",
							"name": "hashprevnotarization",
							"type": "bytes32"
						},
						{
							"internalType": "uint32",
							"name": "prevheight",
							"type": "uint32"
						},
						{
							"components": [
								{
									"internalType": "address",
									"name": "currencyid",
									"type": "address"
								},
								{
									"components": [
										{
											"internalType": "uint16",
											"name": "version",
											"type": "uint16"
										},
										{
											"internalType": "uint16",
											"name": "flags",
											"type": "uint16"
										},
										{
											"internalType": "address",
											"name": "currencyid",
											"type": "address"
										},
										{
											"internalType": "uint160[]",
											"name": "currencies",
											"type": "uint160[]"
										},
										{
											"internalType": "int32[]",
											"name": "weights",
											"type": "int32[]"
										},
										{
											"internalType": "int64[]",
											"name": "reserves",
											"type": "int64[]"
										},
										{
											"internalType": "int64",
											"name": "initialsupply",
											"type": "int64"
										},
										{
											"internalType": "int64",
											"name": "emitted",
											"type": "int64"
										},
										{
											"internalType": "int64",
											"name": "supply",
											"type": "int64"
										},
										{
											"internalType": "int64",
											"name": "primarycurrencyout",
											"type": "int64"
										},
										{
											"internalType": "int64",
											"name": "preconvertedout",
											"type": "int64"
										},
										{
											"internalType": "int64",
											"name": "primarycurrencyfees",
											"type": "int64"
										},
										{
											"internalType": "int64",
											"name": "primarycurrencyconversionfees",
											"type": "int64"
										},
										{
											"internalType": "int64[]",
											"name": "reservein",
											"type": "int64[]"
										},
										{
											"internalType": "int64[]",
											"name": "primarycurrencyin",
											"type": "int64[]"
										},
										{
											"internalType": "int64[]",
											"name": "reserveout",
											"type": "int64[]"
										},
										{
											"internalType": "int64[]",
											"name": "conversionprice",
											"type": "int64[]"
										},
										{
											"internalType": "int64[]",
											"name": "viaconversionprice",
											"type": "int64[]"
										},
										{
											"internalType": "int64[]",
											"name": "fees",
											"type": "int64[]"
										},
										{
											"internalType": "int32[]",
											"name": "priorweights",
											"type": "int32[]"
										},
										{
											"internalType": "int64[]",
											"name": "conversionfees",
											"type": "int64[]"
										}
									],
									"internalType": "struct VerusObjectsNotarization.CCoinbaseCurrencyState",
									"name": "currencystate",
									"type": "tuple"
								}
							],
							"internalType": "struct VerusObjectsNotarization.CurrencyStates[]",
							"name": "currencystates",
							"type": "tuple[]"
						},
						{
							"components": [
								{
									"internalType": "int16",
									"name": "version",
									"type": "int16"
								},
								{
									"internalType": "int16",
									"name": "cprtype",
									"type": "int16"
								},
								{
									"internalType": "address",
									"name": "systemid",
									"type": "address"
								},
								{
									"internalType": "uint32",
									"name": "rootheight",
									"type": "uint32"
								},
								{
									"internalType": "bytes32",
									"name": "stateroot",
									"type": "bytes32"
								},
								{
									"internalType": "bytes32",
									"name": "blockhash",
									"type": "bytes32"
								},
								{
									"internalType": "bytes32",
									"name": "compactpower",
									"type": "bytes32"
								}
							],
							"internalType": "struct VerusObjectsNotarization.CProofRoot[]",
							"name": "proofroots",
							"type": "tuple[]"
						},
						{
							"components": [
								{
									"internalType": "string",
									"name": "networkaddress",
									"type": "string"
								},
								{
									"internalType": "address",
									"name": "nodeidentity",
									"type": "address"
								}
							],
							"internalType": "struct VerusObjectsNotarization.CNodeData[]",
							"name": "nodes",
							"type": "tuple[]"
						}
					],
					"internalType": "struct VerusObjectsNotarization.CPBaaSNotarization",
					"name": "_not",
					"type": "tuple"
				}
			],
			"name": "serializeCPBaaSNotarization",
			"outputs": [
				{
					"internalType": "bytes",
					"name": "",
					"type": "bytes"
				}
			],
			"stateMutability": "pure",
			"type": "function"
		},
		{
			"inputs": [
				{
					"components": [
						{
							"internalType": "int16",
							"name": "version",
							"type": "int16"
						},
						{
							"internalType": "int16",
							"name": "cprtype",
							"type": "int16"
						},
						{
							"internalType": "address",
							"name": "systemid",
							"type": "address"
						},
						{
							"internalType": "uint32",
							"name": "rootheight",
							"type": "uint32"
						},
						{
							"internalType": "bytes32",
							"name": "stateroot",
							"type": "bytes32"
						},
						{
							"internalType": "bytes32",
							"name": "blockhash",
							"type": "bytes32"
						},
						{
							"internalType": "bytes32",
							"name": "compactpower",
							"type": "bytes32"
						}
					],
					"internalType": "struct VerusObjectsNotarization.CProofRoot",
					"name": "_cpr",
					"type": "tuple"
				}
			],
			"name": "serializeCProofRoot",
			"outputs": [
				{
					"internalType": "bytes",
					"name": "",
					"type": "bytes"
				}
			],
			"stateMutability": "pure",
			"type": "function"
		},
		{
			"inputs": [
				{
					"components": [
						{
							"internalType": "int16",
							"name": "version",
							"type": "int16"
						},
						{
							"internalType": "int16",
							"name": "cprtype",
							"type": "int16"
						},
						{
							"internalType": "address",
							"name": "systemid",
							"type": "address"
						},
						{
							"internalType": "uint32",
							"name": "rootheight",
							"type": "uint32"
						},
						{
							"internalType": "bytes32",
							"name": "stateroot",
							"type": "bytes32"
						},
						{
							"internalType": "bytes32",
							"name": "blockhash",
							"type": "bytes32"
						},
						{
							"internalType": "bytes32",
							"name": "compactpower",
							"type": "bytes32"
						}
					],
					"internalType": "struct VerusObjectsNotarization.CProofRoot[]",
					"name": "_prsa",
					"type": "tuple[]"
				}
			],
			"name": "serializeCProofRootArray",
			"outputs": [
				{
					"internalType": "bytes",
					"name": "",
					"type": "bytes"
				}
			],
			"stateMutability": "pure",
			"type": "function"
		},
		{
			"inputs": [
				{
					"components": [
						{
							"internalType": "uint32",
							"name": "version",
							"type": "uint32"
						},
						{
							"components": [
								{
									"internalType": "address",
									"name": "currency",
									"type": "address"
								},
								{
									"internalType": "uint64",
									"name": "amount",
									"type": "uint64"
								}
							],
							"internalType": "struct VerusObjects.CCurrencyValueMap",
							"name": "currencyvalue",
							"type": "tuple"
						},
						{
							"internalType": "uint32",
							"name": "flags",
							"type": "uint32"
						},
						{
							"internalType": "address",
							"name": "feecurrencyid",
							"type": "address"
						},
						{
							"internalType": "uint256",
							"name": "fees",
							"type": "uint256"
						},
						{
							"components": [
								{
									"internalType": "uint8",
									"name": "destinationtype",
									"type": "uint8"
								},
								{
									"internalType": "address",
									"name": "destinationaddress",
									"type": "address"
								}
							],
							"internalType": "struct VerusObjectsCommon.CTransferDestination",
							"name": "destination",
							"type": "tuple"
						},
						{
							"internalType": "address",
							"name": "destcurrencyid",
							"type": "address"
						},
						{
							"internalType": "address",
							"name": "destsystemid",
							"type": "address"
						},
						{
							"internalType": "address",
							"name": "secondreserveid",
							"type": "address"
						}
					],
					"internalType": "struct VerusObjects.CReserveTransfer",
					"name": "ct",
					"type": "tuple"
				}
			],
			"name": "serializeCReserveTransfer",
			"outputs": [
				{
					"internalType": "bytes",
					"name": "",
					"type": "bytes"
				}
			],
			"stateMutability": "pure",
			"type": "function"
		},
		{
			"inputs": [
				{
					"components": [
						{
							"internalType": "uint32",
							"name": "version",
							"type": "uint32"
						},
						{
							"components": [
								{
									"internalType": "address",
									"name": "currency",
									"type": "address"
								},
								{
									"internalType": "uint64",
									"name": "amount",
									"type": "uint64"
								}
							],
							"internalType": "struct VerusObjects.CCurrencyValueMap",
							"name": "currencyvalue",
							"type": "tuple"
						},
						{
							"internalType": "uint32",
							"name": "flags",
							"type": "uint32"
						},
						{
							"internalType": "address",
							"name": "feecurrencyid",
							"type": "address"
						},
						{
							"internalType": "uint256",
							"name": "fees",
							"type": "uint256"
						},
						{
							"components": [
								{
									"internalType": "uint8",
									"name": "destinationtype",
									"type": "uint8"
								},
								{
									"internalType": "address",
									"name": "destinationaddress",
									"type": "address"
								}
							],
							"internalType": "struct VerusObjectsCommon.CTransferDestination",
							"name": "destination",
							"type": "tuple"
						},
						{
							"internalType": "address",
							"name": "destcurrencyid",
							"type": "address"
						},
						{
							"internalType": "address",
							"name": "destsystemid",
							"type": "address"
						},
						{
							"internalType": "address",
							"name": "secondreserveid",
							"type": "address"
						}
					],
					"internalType": "struct VerusObjects.CReserveTransfer[]",
					"name": "_bts",
					"type": "tuple[]"
				},
				{
					"internalType": "bool",
					"name": "includeSize",
					"type": "bool"
				}
			],
			"name": "serializeCReserveTransfers",
			"outputs": [
				{
					"internalType": "bytes",
					"name": "",
					"type": "bytes"
				}
			],
			"stateMutability": "pure",
			"type": "function"
		},
		{
			"inputs": [
				{
					"components": [
						{
							"internalType": "uint8",
							"name": "destinationtype",
							"type": "uint8"
						},
						{
							"internalType": "address",
							"name": "destinationaddress",
							"type": "address"
						}
					],
					"internalType": "struct VerusObjectsCommon.CTransferDestination",
					"name": "ctd",
					"type": "tuple"
				}
			],
			"name": "serializeCTransferDestination",
			"outputs": [
				{
					"internalType": "bytes",
					"name": "",
					"type": "bytes"
				}
			],
			"stateMutability": "pure",
			"type": "function"
		},
		{
			"inputs": [
				{
					"components": [
						{
							"internalType": "bytes32",
							"name": "hash",
							"type": "bytes32"
						},
						{
							"internalType": "uint32",
							"name": "n",
							"type": "uint32"
						}
					],
					"internalType": "struct VerusObjectsNotarization.CUTXORef",
					"name": "_cutxo",
					"type": "tuple"
				}
			],
			"name": "serializeCUTXORef",
			"outputs": [
				{
					"internalType": "bytes",
					"name": "",
					"type": "bytes"
				}
			],
			"stateMutability": "pure",
			"type": "function"
		},
		{
			"inputs": [
				{
					"components": [
						{
							"internalType": "address",
							"name": "currencyid",
							"type": "address"
						},
						{
							"components": [
								{
									"internalType": "uint16",
									"name": "version",
									"type": "uint16"
								},
								{
									"internalType": "uint16",
									"name": "flags",
									"type": "uint16"
								},
								{
									"internalType": "address",
									"name": "currencyid",
									"type": "address"
								},
								{
									"internalType": "uint160[]",
									"name": "currencies",
									"type": "uint160[]"
								},
								{
									"internalType": "int32[]",
									"name": "weights",
									"type": "int32[]"
								},
								{
									"internalType": "int64[]",
									"name": "reserves",
									"type": "int64[]"
								},
								{
									"internalType": "int64",
									"name": "initialsupply",
									"type": "int64"
								},
								{
									"internalType": "int64",
									"name": "emitted",
									"type": "int64"
								},
								{
									"internalType": "int64",
									"name": "supply",
									"type": "int64"
								},
								{
									"internalType": "int64",
									"name": "primarycurrencyout",
									"type": "int64"
								},
								{
									"internalType": "int64",
									"name": "preconvertedout",
									"type": "int64"
								},
								{
									"internalType": "int64",
									"name": "primarycurrencyfees",
									"type": "int64"
								},
								{
									"internalType": "int64",
									"name": "primarycurrencyconversionfees",
									"type": "int64"
								},
								{
									"internalType": "int64[]",
									"name": "reservein",
									"type": "int64[]"
								},
								{
									"internalType": "int64[]",
									"name": "primarycurrencyin",
									"type": "int64[]"
								},
								{
									"internalType": "int64[]",
									"name": "reserveout",
									"type": "int64[]"
								},
								{
									"internalType": "int64[]",
									"name": "conversionprice",
									"type": "int64[]"
								},
								{
									"internalType": "int64[]",
									"name": "viaconversionprice",
									"type": "int64[]"
								},
								{
									"internalType": "int64[]",
									"name": "fees",
									"type": "int64[]"
								},
								{
									"internalType": "int32[]",
									"name": "priorweights",
									"type": "int32[]"
								},
								{
									"internalType": "int64[]",
									"name": "conversionfees",
									"type": "int64[]"
								}
							],
							"internalType": "struct VerusObjectsNotarization.CCoinbaseCurrencyState",
							"name": "currencystate",
							"type": "tuple"
						}
					],
					"internalType": "struct VerusObjectsNotarization.CurrencyStates",
					"name": "_cs",
					"type": "tuple"
				}
			],
			"name": "serializeCurrencyStates",
			"outputs": [
				{
					"internalType": "bytes",
					"name": "",
					"type": "bytes"
				}
			],
			"stateMutability": "pure",
			"type": "function"
		},
		{
			"inputs": [
				{
					"components": [
						{
							"internalType": "address",
							"name": "currencyid",
							"type": "address"
						},
						{
							"components": [
								{
									"internalType": "uint16",
									"name": "version",
									"type": "uint16"
								},
								{
									"internalType": "uint16",
									"name": "flags",
									"type": "uint16"
								},
								{
									"internalType": "address",
									"name": "currencyid",
									"type": "address"
								},
								{
									"internalType": "uint160[]",
									"name": "currencies",
									"type": "uint160[]"
								},
								{
									"internalType": "int32[]",
									"name": "weights",
									"type": "int32[]"
								},
								{
									"internalType": "int64[]",
									"name": "reserves",
									"type": "int64[]"
								},
								{
									"internalType": "int64",
									"name": "initialsupply",
									"type": "int64"
								},
								{
									"internalType": "int64",
									"name": "emitted",
									"type": "int64"
								},
								{
									"internalType": "int64",
									"name": "supply",
									"type": "int64"
								},
								{
									"internalType": "int64",
									"name": "primarycurrencyout",
									"type": "int64"
								},
								{
									"internalType": "int64",
									"name": "preconvertedout",
									"type": "int64"
								},
								{
									"internalType": "int64",
									"name": "primarycurrencyfees",
									"type": "int64"
								},
								{
									"internalType": "int64",
									"name": "primarycurrencyconversionfees",
									"type": "int64"
								},
								{
									"internalType": "int64[]",
									"name": "reservein",
									"type": "int64[]"
								},
								{
									"internalType": "int64[]",
									"name": "primarycurrencyin",
									"type": "int64[]"
								},
								{
									"internalType": "int64[]",
									"name": "reserveout",
									"type": "int64[]"
								},
								{
									"internalType": "int64[]",
									"name": "conversionprice",
									"type": "int64[]"
								},
								{
									"internalType": "int64[]",
									"name": "viaconversionprice",
									"type": "int64[]"
								},
								{
									"internalType": "int64[]",
									"name": "fees",
									"type": "int64[]"
								},
								{
									"internalType": "int32[]",
									"name": "priorweights",
									"type": "int32[]"
								},
								{
									"internalType": "int64[]",
									"name": "conversionfees",
									"type": "int64[]"
								}
							],
							"internalType": "struct VerusObjectsNotarization.CCoinbaseCurrencyState",
							"name": "currencystate",
							"type": "tuple"
						}
					],
					"internalType": "struct VerusObjectsNotarization.CurrencyStates[]",
					"name": "_csa",
					"type": "tuple[]"
				}
			],
			"name": "serializeCurrencyStatesArray",
			"outputs": [
				{
					"internalType": "bytes",
					"name": "",
					"type": "bytes"
				}
			],
			"stateMutability": "pure",
			"type": "function"
		},
		{
			"inputs": [
				{
					"internalType": "int16",
					"name": "number",
					"type": "int16"
				}
			],
			"name": "serializeInt16",
			"outputs": [
				{
					"internalType": "bytes",
					"name": "",
					"type": "bytes"
				}
			],
			"stateMutability": "pure",
			"type": "function"
		},
		{
			"inputs": [
				{
					"internalType": "int32",
					"name": "number",
					"type": "int32"
				}
			],
			"name": "serializeInt32",
			"outputs": [
				{
					"internalType": "bytes",
					"name": "",
					"type": "bytes"
				}
			],
			"stateMutability": "pure",
			"type": "function"
		},
		{
			"inputs": [
				{
					"internalType": "int32[]",
					"name": "numbers",
					"type": "int32[]"
				}
			],
			"name": "serializeInt32Array",
			"outputs": [
				{
					"internalType": "bytes",
					"name": "",
					"type": "bytes"
				}
			],
			"stateMutability": "pure",
			"type": "function"
		},
		{
			"inputs": [
				{
					"internalType": "int64",
					"name": "number",
					"type": "int64"
				}
			],
			"name": "serializeInt64",
			"outputs": [
				{
					"internalType": "bytes",
					"name": "",
					"type": "bytes"
				}
			],
			"stateMutability": "pure",
			"type": "function"
		},
		{
			"inputs": [
				{
					"internalType": "int64[]",
					"name": "numbers",
					"type": "int64[]"
				}
			],
			"name": "serializeInt64Array",
			"outputs": [
				{
					"internalType": "bytes",
					"name": "",
					"type": "bytes"
				}
			],
			"stateMutability": "pure",
			"type": "function"
		},
		{
			"inputs": [
				{
					"components": [
						{
							"internalType": "string",
							"name": "networkaddress",
							"type": "string"
						},
						{
							"internalType": "address",
							"name": "nodeidentity",
							"type": "address"
						}
					],
					"internalType": "struct VerusObjectsNotarization.CNodeData[]",
					"name": "_cnds",
					"type": "tuple[]"
				}
			],
			"name": "serializeNodes",
			"outputs": [
				{
					"internalType": "bytes",
					"name": "",
					"type": "bytes"
				}
			],
			"stateMutability": "pure",
			"type": "function"
		},
		{
			"inputs": [
				{
					"components": [
						{
							"internalType": "address",
							"name": "currencyid",
							"type": "address"
						},
						{
							"components": [
								{
									"internalType": "int16",
									"name": "version",
									"type": "int16"
								},
								{
									"internalType": "int16",
									"name": "cprtype",
									"type": "int16"
								},
								{
									"internalType": "address",
									"name": "systemid",
									"type": "address"
								},
								{
									"internalType": "uint32",
									"name": "rootheight",
									"type": "uint32"
								},
								{
									"internalType": "bytes32",
									"name": "stateroot",
									"type": "bytes32"
								},
								{
									"internalType": "bytes32",
									"name": "blockhash",
									"type": "bytes32"
								},
								{
									"internalType": "bytes32",
									"name": "compactpower",
									"type": "bytes32"
								}
							],
							"internalType": "struct VerusObjectsNotarization.CProofRoot",
							"name": "proofroot",
							"type": "tuple"
						}
					],
					"internalType": "struct VerusObjectsNotarization.ProofRoots",
					"name": "_prs",
					"type": "tuple"
				}
			],
			"name": "serializeProofRoots",
			"outputs": [
				{
					"internalType": "bytes",
					"name": "",
					"type": "bytes"
				}
			],
			"stateMutability": "pure",
			"type": "function"
		},
		{
			"inputs": [
				{
					"components": [
						{
							"internalType": "address",
							"name": "currencyid",
							"type": "address"
						},
						{
							"components": [
								{
									"internalType": "int16",
									"name": "version",
									"type": "int16"
								},
								{
									"internalType": "int16",
									"name": "cprtype",
									"type": "int16"
								},
								{
									"internalType": "address",
									"name": "systemid",
									"type": "address"
								},
								{
									"internalType": "uint32",
									"name": "rootheight",
									"type": "uint32"
								},
								{
									"internalType": "bytes32",
									"name": "stateroot",
									"type": "bytes32"
								},
								{
									"internalType": "bytes32",
									"name": "blockhash",
									"type": "bytes32"
								},
								{
									"internalType": "bytes32",
									"name": "compactpower",
									"type": "bytes32"
								}
							],
							"internalType": "struct VerusObjectsNotarization.CProofRoot",
							"name": "proofroot",
							"type": "tuple"
						}
					],
					"internalType": "struct VerusObjectsNotarization.ProofRoots[]",
					"name": "_prsa",
					"type": "tuple[]"
				}
			],
			"name": "serializeProofRootsArray",
			"outputs": [
				{
					"internalType": "bytes",
					"name": "",
					"type": "bytes"
				}
			],
			"stateMutability": "pure",
			"type": "function"
		},
		{
			"inputs": [
				{
					"internalType": "string",
					"name": "anyString",
					"type": "string"
				}
			],
			"name": "serializeString",
			"outputs": [
				{
					"internalType": "bytes",
					"name": "",
					"type": "bytes"
				}
			],
			"stateMutability": "pure",
			"type": "function"
		},
		{
			"inputs": [
				{
					"internalType": "uint16",
					"name": "number",
					"type": "uint16"
				}
			],
			"name": "serializeUint16",
			"outputs": [
				{
					"internalType": "bytes",
					"name": "",
					"type": "bytes"
				}
			],
			"stateMutability": "pure",
			"type": "function"
		},
		{
			"inputs": [
				{
					"internalType": "uint160[]",
					"name": "numbers",
					"type": "uint160[]"
				}
			],
			"name": "serializeUint160Array",
			"outputs": [
				{
					"internalType": "bytes",
					"name": "",
					"type": "bytes"
				}
			],
			"stateMutability": "pure",
			"type": "function"
		},
		{
			"inputs": [
				{
					"internalType": "uint256",
					"name": "number",
					"type": "uint256"
				}
			],
			"name": "serializeUint256",
			"outputs": [
				{
					"internalType": "bytes",
					"name": "",
					"type": "bytes"
				}
			],
			"stateMutability": "pure",
			"type": "function"
		},
		{
			"inputs": [
				{
					"internalType": "uint32",
					"name": "number",
					"type": "uint32"
				}
			],
			"name": "serializeUint32",
			"outputs": [
				{
					"internalType": "bytes",
					"name": "",
					"type": "bytes"
				}
			],
			"stateMutability": "pure",
			"type": "function"
		},
		{
			"inputs": [
				{
					"internalType": "uint64",
					"name": "number",
					"type": "uint64"
				}
			],
			"name": "serializeUint64",
			"outputs": [
				{
					"internalType": "bytes",
					"name": "",
					"type": "bytes"
				}
			],
			"stateMutability": "pure",
			"type": "function"
		},
		{
			"inputs": [
				{
					"internalType": "uint8",
					"name": "number",
					"type": "uint8"
				}
			],
			"name": "serializeUint8",
			"outputs": [
				{
					"internalType": "bytes",
					"name": "",
					"type": "bytes"
				}
			],
			"stateMutability": "pure",
			"type": "function"
		},
		{
			"inputs": [
				{
					"internalType": "string",
					"name": "prefix",
					"type": "string"
				},
				{
					"internalType": "address",
					"name": "systemID",
					"type": "address"
				},
				{
					"internalType": "int64",
					"name": "blockHeight",
					"type": "int64"
				},
				{
					"internalType": "address",
					"name": "signingID",
					"type": "address"
				},
				{
					"internalType": "bytes",
					"name": "messageToHash",
					"type": "bytes"
				}
			],
			"name": "verusHashPrefix",
			"outputs": [
				{
					"internalType": "bytes",
					"name": "",
					"type": "bytes"
				}
			],
			"stateMutability": "pure",
			"type": "function"
		},
		{
			"inputs": [
				{
					"internalType": "uint256",
					"name": "newNumber",
					"type": "uint256"
				}
			],
			"name": "writeCompactSize",
			"outputs": [
				{
					"internalType": "bytes",
					"name": "",
					"type": "bytes"
				}
			],
			"stateMutability": "pure",
			"type": "function"
		},
		{
			"inputs": [
				{
					"internalType": "uint256",
					"name": "incoming",
					"type": "uint256"
				}
			],
			"name": "writeVarInt",
			"outputs": [
				{
					"internalType": "bytes",
					"name": "",
					"type": "bytes"
				}
			],
			"stateMutability": "pure",
			"type": "function"
		}
	]
}